{
	"backEnd/contracts/BUNN_Governor_Proxy.sol": {
		"BUNN_GOVERNOR": {
			"abi": [
				{
					"inputs": [
						{
							"internalType": "address",
							"name": "UTA",
							"type": "address"
						}
					],
					"stateMutability": "nonpayable",
					"type": "constructor"
				},
				{
					"inputs": [],
					"name": "MathOverflowedMulDiv",
					"type": "error"
				},
				{
					"anonymous": false,
					"inputs": [
						{
							"indexed": false,
							"internalType": "string",
							"name": "title",
							"type": "string"
						},
						{
							"indexed": false,
							"internalType": "uint256",
							"name": "topic_id",
							"type": "uint256"
						},
						{
							"indexed": false,
							"internalType": "bool",
							"name": "implemented",
							"type": "bool"
						}
					],
					"name": "decision_implemented",
					"type": "event"
				},
				{
					"anonymous": false,
					"inputs": [
						{
							"indexed": true,
							"internalType": "address",
							"name": "newAdmin",
							"type": "address"
						}
					],
					"name": "new_Admin",
					"type": "event"
				},
				{
					"anonymous": false,
					"inputs": [
						{
							"indexed": true,
							"internalType": "address",
							"name": "new_member",
							"type": "address"
						}
					],
					"name": "new_member",
					"type": "event"
				},
				{
					"anonymous": false,
					"inputs": [
						{
							"indexed": true,
							"internalType": "address",
							"name": "proposer",
							"type": "address"
						},
						{
							"indexed": false,
							"internalType": "string",
							"name": "topic",
							"type": "string"
						}
					],
					"name": "proposal_made",
					"type": "event"
				},
				{
					"anonymous": false,
					"inputs": [
						{
							"indexed": true,
							"internalType": "address",
							"name": "demotedAdmin",
							"type": "address"
						}
					],
					"name": "remove_Admin",
					"type": "event"
				},
				{
					"anonymous": false,
					"inputs": [
						{
							"indexed": true,
							"internalType": "address",
							"name": "participant",
							"type": "address"
						},
						{
							"indexed": false,
							"internalType": "uint256",
							"name": "topic_acted_on",
							"type": "uint256"
						},
						{
							"indexed": false,
							"internalType": "bool",
							"name": "position",
							"type": "bool"
						}
					],
					"name": "vote_cast",
					"type": "event"
				},
				{
					"inputs": [
						{
							"internalType": "address",
							"name": "",
							"type": "address"
						}
					],
					"name": "Members",
					"outputs": [
						{
							"internalType": "string",
							"name": "name",
							"type": "string"
						},
						{
							"internalType": "bool",
							"name": "belongs",
							"type": "bool"
						}
					],
					"stateMutability": "view",
					"type": "function"
				},
				{
					"inputs": [
						{
							"internalType": "uint256",
							"name": "",
							"type": "uint256"
						}
					],
					"name": "Topics",
					"outputs": [
						{
							"internalType": "uint256",
							"name": "id",
							"type": "uint256"
						},
						{
							"internalType": "string",
							"name": "title",
							"type": "string"
						},
						{
							"internalType": "address",
							"name": "initiator",
							"type": "address"
						},
						{
							"internalType": "string",
							"name": "details",
							"type": "string"
						},
						{
							"internalType": "address",
							"name": "implementation_contract_address",
							"type": "address"
						},
						{
							"internalType": "string",
							"name": "signature",
							"type": "string"
						},
						{
							"internalType": "uint256",
							"name": "start_time",
							"type": "uint256"
						},
						{
							"internalType": "bool",
							"name": "executed",
							"type": "bool"
						},
						{
							"internalType": "bool",
							"name": "cancelled",
							"type": "bool"
						}
					],
					"stateMutability": "view",
					"type": "function"
				},
				{
					"inputs": [],
					"name": "UPGRADE",
					"outputs": [],
					"stateMutability": "nonpayable",
					"type": "function"
				},
				{
					"inputs": [
						{
							"internalType": "address",
							"name": "newAdmin",
							"type": "address"
						}
					],
					"name": "addAdmin",
					"outputs": [],
					"stateMutability": "nonpayable",
					"type": "function"
				},
				{
					"inputs": [
						{
							"internalType": "address",
							"name": "",
							"type": "address"
						}
					],
					"name": "admin",
					"outputs": [
						{
							"internalType": "bool",
							"name": "is_admin",
							"type": "bool"
						},
						{
							"internalType": "uint256",
							"name": "removers",
							"type": "uint256"
						},
						{
							"internalType": "uint256",
							"name": "adders",
							"type": "uint256"
						}
					],
					"stateMutability": "view",
					"type": "function"
				},
				{
					"inputs": [],
					"name": "agreement_id",
					"outputs": [
						{
							"internalType": "uint256",
							"name": "",
							"type": "uint256"
						}
					],
					"stateMutability": "view",
					"type": "function"
				},
				{
					"inputs": [
						{
							"internalType": "address",
							"name": "",
							"type": "address"
						},
						{
							"internalType": "uint256",
							"name": "",
							"type": "uint256"
						}
					],
					"name": "ballots",
					"outputs": [
						{
							"internalType": "uint256",
							"name": "Topic_ID",
							"type": "uint256"
						},
						{
							"internalType": "bool",
							"name": "position",
							"type": "bool"
						},
						{
							"internalType": "bool",
							"name": "voted",
							"type": "bool"
						}
					],
					"stateMutability": "view",
					"type": "function"
				},
				{
					"inputs": [
						{
							"internalType": "uint256",
							"name": "topic_id",
							"type": "uint256"
						}
					],
					"name": "cancel_Topic",
					"outputs": [],
					"stateMutability": "view",
					"type": "function"
				},
				{
					"inputs": [
						{
							"internalType": "uint256",
							"name": "topic_id",
							"type": "uint256"
						},
						{
							"internalType": "bool",
							"name": "position_",
							"type": "bool"
						}
					],
					"name": "cast_vote",
					"outputs": [],
					"stateMutability": "nonpayable",
					"type": "function"
				},
				{
					"inputs": [],
					"name": "counter",
					"outputs": [
						{
							"internalType": "uint256",
							"name": "",
							"type": "uint256"
						}
					],
					"stateMutability": "view",
					"type": "function"
				},
				{
					"inputs": [
						{
							"internalType": "uint256",
							"name": "topic_id",
							"type": "uint256"
						}
					],
					"name": "implement_decision",
					"outputs": [],
					"stateMutability": "payable",
					"type": "function"
				},
				{
					"inputs": [],
					"name": "implementation_delay",
					"outputs": [
						{
							"internalType": "uint256",
							"name": "",
							"type": "uint256"
						}
					],
					"stateMutability": "view",
					"type": "function"
				},
				{
					"inputs": [
						{
							"internalType": "string",
							"name": "title_",
							"type": "string"
						},
						{
							"internalType": "string",
							"name": "details_",
							"type": "string"
						},
						{
							"internalType": "address",
							"name": "implementation_contract_address_",
							"type": "address"
						},
						{
							"internalType": "string",
							"name": "signature_",
							"type": "string"
						}
					],
					"name": "initiate_topic",
					"outputs": [],
					"stateMutability": "nonpayable",
					"type": "function"
				},
				{
					"inputs": [
						{
							"internalType": "uint256",
							"name": "target",
							"type": "uint256"
						},
						{
							"internalType": "uint256",
							"name": "comparison",
							"type": "uint256"
						}
					],
					"name": "quorum",
					"outputs": [
						{
							"internalType": "bool",
							"name": "",
							"type": "bool"
						}
					],
					"stateMutability": "pure",
					"type": "function"
				},
				{
					"inputs": [
						{
							"internalType": "string",
							"name": "name_",
							"type": "string"
						}
					],
					"name": "register",
					"outputs": [],
					"stateMutability": "nonpayable",
					"type": "function"
				},
				{
					"inputs": [
						{
							"internalType": "address",
							"name": "demotedAdmin",
							"type": "address"
						}
					],
					"name": "removeAdmin",
					"outputs": [],
					"stateMutability": "nonpayable",
					"type": "function"
				},
				{
					"inputs": [],
					"name": "returned",
					"outputs": [
						{
							"internalType": "uint256",
							"name": "",
							"type": "uint256"
						}
					],
					"stateMutability": "view",
					"type": "function"
				},
				{
					"inputs": [],
					"name": "utility_token_address",
					"outputs": [
						{
							"internalType": "address",
							"name": "",
							"type": "address"
						}
					],
					"stateMutability": "view",
					"type": "function"
				},
				{
					"inputs": [
						{
							"internalType": "uint256",
							"name": "",
							"type": "uint256"
						}
					],
					"name": "votes",
					"outputs": [
						{
							"internalType": "uint256",
							"name": "for_votes",
							"type": "uint256"
						},
						{
							"internalType": "uint256",
							"name": "against_votes",
							"type": "uint256"
						}
					],
					"stateMutability": "view",
					"type": "function"
				},
				{
					"inputs": [],
					"name": "voting_duration",
					"outputs": [
						{
							"internalType": "uint256",
							"name": "",
							"type": "uint256"
						}
					],
					"stateMutability": "view",
					"type": "function"
				}
			],
			"devdoc": {
				"errors": {
					"MathOverflowedMulDiv()": [
						{
							"details": "Muldiv operation overflow."
						}
					]
				},
				"kind": "dev",
				"methods": {},
				"version": 1
			},
			"evm": {
				"assembly": "    /* \"backEnd/contracts/BUNN_Governor_Proxy.sol\":147:8496  contract BUNN_GOVERNOR is Restrictions {... */\n  mstore(0x40, 0x80)\n    /* \"backEnd/contracts/restrictions.sol\":273:279  432000 */\n  0x069780\n    /* \"backEnd/contracts/restrictions.sol\":240:279  uint256 public voting_duration = 432000 */\n  0x00\n  sstore\n    /* \"backEnd/contracts/restrictions.sol\":332:337  86400 */\n  0x015180\n    /* \"backEnd/contracts/restrictions.sol\":294:337  uint256 public implementation_delay = 86400 */\n  0x01\n  sstore\n    /* \"backEnd/contracts/BUNN_Governor_Proxy.sol\":2356:2357  1 */\n  0x01\n    /* \"backEnd/contracts/BUNN_Governor_Proxy.sol\":2334:2357  uint public counter = 1 */\n  0x09\n  sstore\n    /* \"backEnd/contracts/BUNN_Governor_Proxy.sol\":2390:2391  1 */\n  0x01\n    /* \"backEnd/contracts/BUNN_Governor_Proxy.sol\":2363:2391  uint public agreement_id = 1 */\n  0x0a\n  sstore\n    /* \"backEnd/contracts/BUNN_Governor_Proxy.sol\":3010:3122  constructor(address UTA) {... */\n  callvalue\n  dup1\n  iszero\n  tag_1\n  jumpi\n  0x00\n  dup1\n  revert\ntag_1:\n  pop\n  mload(0x40)\n  sub(codesize, bytecodeSize)\n  dup1\n  bytecodeSize\n  dup4\n  codecopy\n  dup2\n  dup2\n  add\n  0x40\n  mstore\n  dup2\n  add\n  swap1\n  tag_2\n  swap2\n  swap1\n  tag_3\n  jump\t// in\ntag_2:\n    /* \"backEnd/contracts/BUNN_Governor_Proxy.sol\":3069:3072  UTA */\n  dup1\n    /* \"backEnd/contracts/BUNN_Governor_Proxy.sol\":3045:3066  utility_token_address */\n  0x02\n  0x00\n    /* \"backEnd/contracts/BUNN_Governor_Proxy.sol\":3045:3072  utility_token_address = UTA */\n  0x0100\n  exp\n  dup2\n  sload\n  dup2\n  0xffffffffffffffffffffffffffffffffffffffff\n  mul\n  not\n  and\n  swap1\n  dup4\n  0xffffffffffffffffffffffffffffffffffffffff\n  and\n  mul\n  or\n  swap1\n  sstore\n  pop\n    /* \"backEnd/contracts/BUNN_Governor_Proxy.sol\":3111:3115  true */\n  0x01\n    /* \"backEnd/contracts/BUNN_Governor_Proxy.sol\":3082:3087  admin */\n  0x04\n    /* \"backEnd/contracts/BUNN_Governor_Proxy.sol\":3082:3099  admin[msg.sender] */\n  0x00\n    /* \"backEnd/contracts/BUNN_Governor_Proxy.sol\":3088:3098  msg.sender */\n  caller\n    /* \"backEnd/contracts/BUNN_Governor_Proxy.sol\":3082:3099  admin[msg.sender] */\n  0xffffffffffffffffffffffffffffffffffffffff\n  and\n  0xffffffffffffffffffffffffffffffffffffffff\n  and\n  dup2\n  mstore\n  0x20\n  add\n  swap1\n  dup2\n  mstore\n  0x20\n  add\n  0x00\n  keccak256\n    /* \"backEnd/contracts/BUNN_Governor_Proxy.sol\":3082:3108  admin[msg.sender].is_admin */\n  0x00\n  add\n  0x00\n    /* \"backEnd/contracts/BUNN_Governor_Proxy.sol\":3082:3115  admin[msg.sender].is_admin = true */\n  0x0100\n  exp\n  dup2\n  sload\n  dup2\n  0xff\n  mul\n  not\n  and\n  swap1\n  dup4\n  iszero\n  iszero\n  mul\n  or\n  swap1\n  sstore\n  pop\n    /* \"backEnd/contracts/BUNN_Governor_Proxy.sol\":3010:3122  constructor(address UTA) {... */\n  pop\n    /* \"backEnd/contracts/BUNN_Governor_Proxy.sol\":147:8496  contract BUNN_GOVERNOR is Restrictions {... */\n  jump(tag_8)\n    /* \"#utility.yul\":88:205   */\ntag_10:\n    /* \"#utility.yul\":197:198   */\n  0x00\n    /* \"#utility.yul\":194:195   */\n  dup1\n    /* \"#utility.yul\":187:199   */\n  revert\n    /* \"#utility.yul\":334:460   */\ntag_12:\n    /* \"#utility.yul\":371:378   */\n  0x00\n    /* \"#utility.yul\":411:453   */\n  0xffffffffffffffffffffffffffffffffffffffff\n    /* \"#utility.yul\":404:409   */\n  dup3\n    /* \"#utility.yul\":400:454   */\n  and\n    /* \"#utility.yul\":389:454   */\n  swap1\n  pop\n    /* \"#utility.yul\":334:460   */\n  swap2\n  swap1\n  pop\n  jump\t// out\n    /* \"#utility.yul\":466:562   */\ntag_13:\n    /* \"#utility.yul\":503:510   */\n  0x00\n    /* \"#utility.yul\":532:556   */\n  tag_22\n    /* \"#utility.yul\":550:555   */\n  dup3\n    /* \"#utility.yul\":532:556   */\n  tag_12\n  jump\t// in\ntag_22:\n    /* \"#utility.yul\":521:556   */\n  swap1\n  pop\n    /* \"#utility.yul\":466:562   */\n  swap2\n  swap1\n  pop\n  jump\t// out\n    /* \"#utility.yul\":568:690   */\ntag_14:\n    /* \"#utility.yul\":641:665   */\n  tag_24\n    /* \"#utility.yul\":659:664   */\n  dup2\n    /* \"#utility.yul\":641:665   */\n  tag_13\n  jump\t// in\ntag_24:\n    /* \"#utility.yul\":634:639   */\n  dup2\n    /* \"#utility.yul\":631:666   */\n  eq\n    /* \"#utility.yul\":621:684   */\n  tag_25\n  jumpi\n    /* \"#utility.yul\":680:681   */\n  0x00\n    /* \"#utility.yul\":677:678   */\n  dup1\n    /* \"#utility.yul\":670:682   */\n  revert\n    /* \"#utility.yul\":621:684   */\ntag_25:\n    /* \"#utility.yul\":568:690   */\n  pop\n  jump\t// out\n    /* \"#utility.yul\":696:839   */\ntag_15:\n    /* \"#utility.yul\":753:758   */\n  0x00\n    /* \"#utility.yul\":784:790   */\n  dup2\n    /* \"#utility.yul\":778:791   */\n  mload\n    /* \"#utility.yul\":769:791   */\n  swap1\n  pop\n    /* \"#utility.yul\":800:833   */\n  tag_27\n    /* \"#utility.yul\":827:832   */\n  dup2\n    /* \"#utility.yul\":800:833   */\n  tag_14\n  jump\t// in\ntag_27:\n    /* \"#utility.yul\":696:839   */\n  swap3\n  swap2\n  pop\n  pop\n  jump\t// out\n    /* \"#utility.yul\":845:1196   */\ntag_3:\n    /* \"#utility.yul\":915:921   */\n  0x00\n    /* \"#utility.yul\":964:966   */\n  0x20\n    /* \"#utility.yul\":952:961   */\n  dup3\n    /* \"#utility.yul\":943:950   */\n  dup5\n    /* \"#utility.yul\":939:962   */\n  sub\n    /* \"#utility.yul\":935:967   */\n  slt\n    /* \"#utility.yul\":932:1051   */\n  iszero\n  tag_29\n  jumpi\n    /* \"#utility.yul\":970:1049   */\n  tag_30\n  tag_10\n  jump\t// in\ntag_30:\n    /* \"#utility.yul\":932:1051   */\ntag_29:\n    /* \"#utility.yul\":1090:1091   */\n  0x00\n    /* \"#utility.yul\":1115:1179   */\n  tag_31\n    /* \"#utility.yul\":1171:1178   */\n  dup5\n    /* \"#utility.yul\":1162:1168   */\n  dup3\n    /* \"#utility.yul\":1151:1160   */\n  dup6\n    /* \"#utility.yul\":1147:1169   */\n  add\n    /* \"#utility.yul\":1115:1179   */\n  tag_15\n  jump\t// in\ntag_31:\n    /* \"#utility.yul\":1105:1179   */\n  swap2\n  pop\n    /* \"#utility.yul\":1061:1189   */\n  pop\n    /* \"#utility.yul\":845:1196   */\n  swap3\n  swap2\n  pop\n  pop\n  jump\t// out\n    /* \"backEnd/contracts/BUNN_Governor_Proxy.sol\":147:8496  contract BUNN_GOVERNOR is Restrictions {... */\ntag_8:\n  dataSize(sub_0)\n  dup1\n  dataOffset(sub_0)\n  0x00\n  codecopy\n  0x00\n  return\nstop\n\nsub_0: assembly {\n        /* \"backEnd/contracts/BUNN_Governor_Proxy.sol\":147:8496  contract BUNN_GOVERNOR is Restrictions {... */\n      mstore(0x40, 0x80)\n      jumpi(tag_1, lt(calldatasize, 0x04))\n      shr(0xe0, calldataload(0x00))\n      dup1\n      0x61bc221a\n      gt\n      tag_22\n      jumpi\n      dup1\n      0x7d1592f3\n      gt\n      tag_23\n      jumpi\n      dup1\n      0x7d1592f3\n      eq\n      tag_17\n      jumpi\n      dup1\n      0xa060acfa\n      eq\n      tag_18\n      jumpi\n      dup1\n      0xa0a67c58\n      eq\n      tag_19\n      jumpi\n      dup1\n      0xf2c298be\n      eq\n      tag_20\n      jumpi\n      dup1\n      0xfd0f0166\n      eq\n      tag_21\n      jumpi\n      jump(tag_1)\n    tag_23:\n      dup1\n      0x61bc221a\n      eq\n      tag_12\n      jumpi\n      dup1\n      0x63a846f8\n      eq\n      tag_13\n      jumpi\n      dup1\n      0x67358c96\n      eq\n      tag_14\n      jumpi\n      dup1\n      0x6cb76408\n      eq\n      tag_15\n      jumpi\n      dup1\n      0x70480275\n      eq\n      tag_16\n      jumpi\n      jump(tag_1)\n    tag_22:\n      dup1\n      0x37852d99\n      gt\n      tag_24\n      jumpi\n      dup1\n      0x37852d99\n      eq\n      tag_7\n      jumpi\n      dup1\n      0x47411226\n      eq\n      tag_8\n      jumpi\n      dup1\n      0x54b598ec\n      eq\n      tag_9\n      jumpi\n      dup1\n      0x5bb6d284\n      eq\n      tag_10\n      jumpi\n      dup1\n      0x5df81330\n      eq\n      tag_11\n      jumpi\n      jump(tag_1)\n    tag_24:\n      dup1\n      0x1785f53c\n      eq\n      tag_2\n      jumpi\n      dup1\n      0x1c8dd214\n      eq\n      tag_3\n      jumpi\n      dup1\n      0x2ae2ee1f\n      eq\n      tag_4\n      jumpi\n      dup1\n      0x3153cebc\n      eq\n      tag_5\n      jumpi\n      dup1\n      0x33f794b5\n      eq\n      tag_6\n      jumpi\n    tag_1:\n      0x00\n      dup1\n      revert\n        /* \"backEnd/contracts/BUNN_Governor_Proxy.sol\":7976:8450  function removeAdmin(address demotedAdmin) public onlyAdmin{... */\n    tag_2:\n      callvalue\n      dup1\n      iszero\n      tag_25\n      jumpi\n      0x00\n      dup1\n      revert\n    tag_25:\n      pop\n      tag_26\n      0x04\n      dup1\n      calldatasize\n      sub\n      dup2\n      add\n      swap1\n      tag_27\n      swap2\n      swap1\n      tag_28\n      jump\t// in\n    tag_27:\n      tag_29\n      jump\t// in\n    tag_26:\n      stop\n        /* \"backEnd/contracts/BUNN_Governor_Proxy.sol\":4454:5824  function cast_vote(uint topic_id, bool position_) public {... */\n    tag_3:\n      callvalue\n      dup1\n      iszero\n      tag_30\n      jumpi\n      0x00\n      dup1\n      revert\n    tag_30:\n      pop\n      tag_31\n      0x04\n      dup1\n      calldatasize\n      sub\n      dup2\n      add\n      swap1\n      tag_32\n      swap2\n      swap1\n      tag_33\n      jump\t// in\n    tag_32:\n      tag_34\n      jump\t// in\n    tag_31:\n      stop\n        /* \"backEnd/contracts/BUNN_Governor_Proxy.sol\":2363:2391  uint public agreement_id = 1 */\n    tag_4:\n      callvalue\n      dup1\n      iszero\n      tag_35\n      jumpi\n      0x00\n      dup1\n      revert\n    tag_35:\n      pop\n      tag_36\n      tag_37\n      jump\t// in\n    tag_36:\n      mload(0x40)\n      tag_38\n      swap2\n      swap1\n      tag_39\n      jump\t// in\n    tag_38:\n      mload(0x40)\n      dup1\n      swap2\n      sub\n      swap1\n      return\n        /* \"backEnd/contracts/restrictions.sol\":240:279  uint256 public voting_duration = 432000 */\n    tag_5:\n      callvalue\n      dup1\n      iszero\n      tag_40\n      jumpi\n      0x00\n      dup1\n      revert\n    tag_40:\n      pop\n      tag_41\n      tag_42\n      jump\t// in\n    tag_41:\n      mload(0x40)\n      tag_43\n      swap2\n      swap1\n      tag_39\n      jump\t// in\n    tag_43:\n      mload(0x40)\n      dup1\n      swap2\n      sub\n      swap1\n      return\n        /* \"backEnd/contracts/BUNN_Governor_Proxy.sol\":7201:7366  function cancel_Topic(uint topic_id) public view onlyAdmin {... */\n    tag_6:\n      callvalue\n      dup1\n      iszero\n      tag_44\n      jumpi\n      0x00\n      dup1\n      revert\n    tag_44:\n      pop\n      tag_45\n      0x04\n      dup1\n      calldatasize\n      sub\n      dup2\n      add\n      swap1\n      tag_46\n      swap2\n      swap1\n      tag_47\n      jump\t// in\n    tag_46:\n      tag_48\n      jump\t// in\n    tag_45:\n      stop\n        /* \"backEnd/contracts/BUNN_Governor_Proxy.sol\":8456:8494  function UPGRADE() public onlyAdmin {} */\n    tag_7:\n      callvalue\n      dup1\n      iszero\n      tag_49\n      jumpi\n      0x00\n      dup1\n      revert\n    tag_49:\n      pop\n      tag_50\n      tag_51\n      jump\t// in\n    tag_50:\n      stop\n        /* \"backEnd/contracts/restrictions.sol\":676:881  function quorum(... */\n    tag_8:\n      callvalue\n      dup1\n      iszero\n      tag_52\n      jumpi\n      0x00\n      dup1\n      revert\n    tag_52:\n      pop\n      tag_53\n      0x04\n      dup1\n      calldatasize\n      sub\n      dup2\n      add\n      swap1\n      tag_54\n      swap2\n      swap1\n      tag_55\n      jump\t// in\n    tag_54:\n      tag_56\n      jump\t// in\n    tag_53:\n      mload(0x40)\n      tag_57\n      swap2\n      swap1\n      tag_58\n      jump\t// in\n    tag_57:\n      mload(0x40)\n      dup1\n      swap2\n      sub\n      swap1\n      return\n        /* \"backEnd/contracts/BUNN_Governor_Proxy.sol\":1542:1601  mapping(address => mapping (uint => ballot)) public ballots */\n    tag_9:\n      callvalue\n      dup1\n      iszero\n      tag_59\n      jumpi\n      0x00\n      dup1\n      revert\n    tag_59:\n      pop\n      tag_60\n      0x04\n      dup1\n      calldatasize\n      sub\n      dup2\n      add\n      swap1\n      tag_61\n      swap2\n      swap1\n      tag_62\n      jump\t// in\n    tag_61:\n      tag_63\n      jump\t// in\n    tag_60:\n      mload(0x40)\n      tag_64\n      swap4\n      swap3\n      swap2\n      swap1\n      tag_65\n      jump\t// in\n    tag_64:\n      mload(0x40)\n      dup1\n      swap2\n      sub\n      swap1\n      return\n        /* \"backEnd/contracts/BUNN_Governor_Proxy.sol\":2397:2433  mapping(uint => Topic) public Topics */\n    tag_10:\n      callvalue\n      dup1\n      iszero\n      tag_66\n      jumpi\n      0x00\n      dup1\n      revert\n    tag_66:\n      pop\n      tag_67\n      0x04\n      dup1\n      calldatasize\n      sub\n      dup2\n      add\n      swap1\n      tag_68\n      swap2\n      swap1\n      tag_47\n      jump\t// in\n    tag_68:\n      tag_69\n      jump\t// in\n    tag_67:\n      mload(0x40)\n      tag_70\n      swap10\n      swap9\n      swap8\n      swap7\n      swap6\n      swap5\n      swap4\n      swap3\n      swap2\n      swap1\n      tag_71\n      jump\t// in\n    tag_70:\n      mload(0x40)\n      dup1\n      swap2\n      sub\n      swap1\n      return\n        /* \"backEnd/contracts/BUNN_Governor_Proxy.sol\":1689:1723  mapping(uint => vote) public votes */\n    tag_11:\n      callvalue\n      dup1\n      iszero\n      tag_72\n      jumpi\n      0x00\n      dup1\n      revert\n    tag_72:\n      pop\n      tag_73\n      0x04\n      dup1\n      calldatasize\n      sub\n      dup2\n      add\n      swap1\n      tag_74\n      swap2\n      swap1\n      tag_47\n      jump\t// in\n    tag_74:\n      tag_75\n      jump\t// in\n    tag_73:\n      mload(0x40)\n      tag_76\n      swap3\n      swap2\n      swap1\n      tag_77\n      jump\t// in\n    tag_76:\n      mload(0x40)\n      dup1\n      swap2\n      sub\n      swap1\n      return\n        /* \"backEnd/contracts/BUNN_Governor_Proxy.sol\":2334:2357  uint public counter = 1 */\n    tag_12:\n      callvalue\n      dup1\n      iszero\n      tag_78\n      jumpi\n      0x00\n      dup1\n      revert\n    tag_78:\n      pop\n      tag_79\n      tag_80\n      jump\t// in\n    tag_79:\n      mload(0x40)\n      tag_81\n      swap2\n      swap1\n      tag_39\n      jump\t// in\n    tag_81:\n      mload(0x40)\n      dup1\n      swap2\n      sub\n      swap1\n      return\n        /* \"backEnd/contracts/BUNN_Governor_Proxy.sol\":811:850  mapping(address => admin_) public admin */\n    tag_13:\n      callvalue\n      dup1\n      iszero\n      tag_82\n      jumpi\n      0x00\n      dup1\n      revert\n    tag_82:\n      pop\n      tag_83\n      0x04\n      dup1\n      calldatasize\n      sub\n      dup2\n      add\n      swap1\n      tag_84\n      swap2\n      swap1\n      tag_28\n      jump\t// in\n    tag_84:\n      tag_85\n      jump\t// in\n    tag_83:\n      mload(0x40)\n      tag_86\n      swap4\n      swap3\n      swap2\n      swap1\n      tag_87\n      jump\t// in\n    tag_86:\n      mload(0x40)\n      dup1\n      swap2\n      sub\n      swap1\n      return\n        /* \"backEnd/contracts/restrictions.sol\":294:337  uint256 public implementation_delay = 86400 */\n    tag_14:\n      callvalue\n      dup1\n      iszero\n      tag_88\n      jumpi\n      0x00\n      dup1\n      revert\n    tag_88:\n      pop\n      tag_89\n      tag_90\n      jump\t// in\n    tag_89:\n      mload(0x40)\n      tag_91\n      swap2\n      swap1\n      tag_39\n      jump\t// in\n    tag_91:\n      mload(0x40)\n      dup1\n      swap2\n      sub\n      swap1\n      return\n        /* \"backEnd/contracts/BUNN_Governor_Proxy.sol\":333:356  uint256 public returned */\n    tag_15:\n      callvalue\n      dup1\n      iszero\n      tag_92\n      jumpi\n      0x00\n      dup1\n      revert\n    tag_92:\n      pop\n      tag_93\n      tag_94\n      jump\t// in\n    tag_93:\n      mload(0x40)\n      tag_95\n      swap2\n      swap1\n      tag_39\n      jump\t// in\n    tag_95:\n      mload(0x40)\n      dup1\n      swap2\n      sub\n      swap1\n      return\n        /* \"backEnd/contracts/BUNN_Governor_Proxy.sol\":7578:7970  function addAdmin(address newAdmin) public onlyAdmin {... */\n    tag_16:\n      callvalue\n      dup1\n      iszero\n      tag_96\n      jumpi\n      0x00\n      dup1\n      revert\n    tag_96:\n      pop\n      tag_97\n      0x04\n      dup1\n      calldatasize\n      sub\n      dup2\n      add\n      swap1\n      tag_98\n      swap2\n      swap1\n      tag_28\n      jump\t// in\n    tag_98:\n      tag_99\n      jump\t// in\n    tag_97:\n      stop\n        /* \"backEnd/contracts/BUNN_Governor_Proxy.sol\":3535:4404  function initiate_topic(... */\n    tag_17:\n      callvalue\n      dup1\n      iszero\n      tag_100\n      jumpi\n      0x00\n      dup1\n      revert\n    tag_100:\n      pop\n      tag_101\n      0x04\n      dup1\n      calldatasize\n      sub\n      dup2\n      add\n      swap1\n      tag_102\n      swap2\n      swap1\n      tag_103\n      jump\t// in\n    tag_102:\n      tag_104\n      jump\t// in\n    tag_101:\n      stop\n        /* \"backEnd/contracts/BUNN_Governor_Proxy.sol\":5907:7195  function implement_decision(... */\n    tag_18:\n      tag_105\n      0x04\n      dup1\n      calldatasize\n      sub\n      dup2\n      add\n      swap1\n      tag_106\n      swap2\n      swap1\n      tag_47\n      jump\t// in\n    tag_106:\n      tag_107\n      jump\t// in\n    tag_105:\n      stop\n        /* \"backEnd/contracts/BUNN_Governor_Proxy.sol\":291:327  address public utility_token_address */\n    tag_19:\n      callvalue\n      dup1\n      iszero\n      tag_108\n      jumpi\n      0x00\n      dup1\n      revert\n    tag_108:\n      pop\n      tag_109\n      tag_110\n      jump\t// in\n    tag_109:\n      mload(0x40)\n      tag_111\n      swap2\n      swap1\n      tag_112\n      jump\t// in\n    tag_111:\n      mload(0x40)\n      dup1\n      swap2\n      sub\n      swap1\n      return\n        /* \"backEnd/contracts/BUNN_Governor_Proxy.sol\":3216:3478  function register(string memory name_/* , uint256 d_tokens */) public {... */\n    tag_20:\n      callvalue\n      dup1\n      iszero\n      tag_113\n      jumpi\n      0x00\n      dup1\n      revert\n    tag_113:\n      pop\n      tag_114\n      0x04\n      dup1\n      calldatasize\n      sub\n      dup2\n      add\n      swap1\n      tag_115\n      swap2\n      swap1\n      tag_116\n      jump\t// in\n    tag_115:\n      tag_117\n      jump\t// in\n    tag_114:\n      stop\n        /* \"backEnd/contracts/BUNN_Governor_Proxy.sol\":1053:1094  mapping(address => Member) public Members */\n    tag_21:\n      callvalue\n      dup1\n      iszero\n      tag_118\n      jumpi\n      0x00\n      dup1\n      revert\n    tag_118:\n      pop\n      tag_119\n      0x04\n      dup1\n      calldatasize\n      sub\n      dup2\n      add\n      swap1\n      tag_120\n      swap2\n      swap1\n      tag_28\n      jump\t// in\n    tag_120:\n      tag_121\n      jump\t// in\n    tag_119:\n      mload(0x40)\n      tag_122\n      swap3\n      swap2\n      swap1\n      tag_123\n      jump\t// in\n    tag_122:\n      mload(0x40)\n      dup1\n      swap2\n      sub\n      swap1\n      return\n        /* \"backEnd/contracts/BUNN_Governor_Proxy.sol\":7976:8450  function removeAdmin(address demotedAdmin) public onlyAdmin{... */\n    tag_29:\n        /* \"backEnd/contracts/BUNN_Governor_Proxy.sol\":7509:7514  admin */\n      0x04\n        /* \"backEnd/contracts/BUNN_Governor_Proxy.sol\":7509:7526  admin[msg.sender] */\n      0x00\n        /* \"backEnd/contracts/BUNN_Governor_Proxy.sol\":7515:7525  msg.sender */\n      caller\n        /* \"backEnd/contracts/BUNN_Governor_Proxy.sol\":7509:7526  admin[msg.sender] */\n      0xffffffffffffffffffffffffffffffffffffffff\n      and\n      0xffffffffffffffffffffffffffffffffffffffff\n      and\n      dup2\n      mstore\n      0x20\n      add\n      swap1\n      dup2\n      mstore\n      0x20\n      add\n      0x00\n      keccak256\n        /* \"backEnd/contracts/BUNN_Governor_Proxy.sol\":7509:7535  admin[msg.sender].is_admin */\n      0x00\n      add\n      0x00\n      swap1\n      sload\n      swap1\n      0x0100\n      exp\n      swap1\n      div\n      0xff\n      and\n        /* \"backEnd/contracts/BUNN_Governor_Proxy.sol\":7501:7554  require(admin[msg.sender].is_admin, \"ACCESS DENIED!\") */\n      tag_125\n      jumpi\n      mload(0x40)\n      0x08c379a000000000000000000000000000000000000000000000000000000000\n      dup2\n      mstore\n      0x04\n      add\n      tag_126\n      swap1\n      tag_127\n      jump\t// in\n    tag_126:\n      mload(0x40)\n      dup1\n      swap2\n      sub\n      swap1\n      revert\n    tag_125:\n        /* \"backEnd/contracts/BUNN_Governor_Proxy.sol\":8168:8169  1 */\n      0x01\n        /* \"backEnd/contracts/BUNN_Governor_Proxy.sol\":8154:8160  admins */\n      0x05\n        /* \"backEnd/contracts/BUNN_Governor_Proxy.sol\":8154:8167  admins.length */\n      dup1\n      sload\n      swap1\n      pop\n        /* \"backEnd/contracts/BUNN_Governor_Proxy.sol\":8154:8169  admins.length-1 */\n      tag_129\n      swap2\n      swap1\n      tag_130\n      jump\t// in\n    tag_129:\n        /* \"backEnd/contracts/BUNN_Governor_Proxy.sol\":8122:8127  admin */\n      0x04\n        /* \"backEnd/contracts/BUNN_Governor_Proxy.sol\":8122:8141  admin[demotedAdmin] */\n      0x00\n        /* \"backEnd/contracts/BUNN_Governor_Proxy.sol\":8128:8140  demotedAdmin */\n      dup4\n        /* \"backEnd/contracts/BUNN_Governor_Proxy.sol\":8122:8141  admin[demotedAdmin] */\n      0xffffffffffffffffffffffffffffffffffffffff\n      and\n      0xffffffffffffffffffffffffffffffffffffffff\n      and\n      dup2\n      mstore\n      0x20\n      add\n      swap1\n      dup2\n      mstore\n      0x20\n      add\n      0x00\n      keccak256\n        /* \"backEnd/contracts/BUNN_Governor_Proxy.sol\":8122:8150  admin[demotedAdmin].removers */\n      0x01\n      add\n      sload\n        /* \"backEnd/contracts/BUNN_Governor_Proxy.sol\":8122:8169  admin[demotedAdmin].removers >= admins.length-1 */\n      lt\n        /* \"backEnd/contracts/BUNN_Governor_Proxy.sol\":8119:8402  if(admin[demotedAdmin].removers >= admins.length-1 ){... */\n      tag_131\n      jumpi\n        /* \"backEnd/contracts/BUNN_Governor_Proxy.sol\":8216:8221  false */\n      0x00\n        /* \"backEnd/contracts/BUNN_Governor_Proxy.sol\":8185:8190  admin */\n      0x04\n        /* \"backEnd/contracts/BUNN_Governor_Proxy.sol\":8185:8204  admin[demotedAdmin] */\n      0x00\n        /* \"backEnd/contracts/BUNN_Governor_Proxy.sol\":8191:8203  demotedAdmin */\n      dup4\n        /* \"backEnd/contracts/BUNN_Governor_Proxy.sol\":8185:8204  admin[demotedAdmin] */\n      0xffffffffffffffffffffffffffffffffffffffff\n      and\n      0xffffffffffffffffffffffffffffffffffffffff\n      and\n      dup2\n      mstore\n      0x20\n      add\n      swap1\n      dup2\n      mstore\n      0x20\n      add\n      0x00\n      keccak256\n        /* \"backEnd/contracts/BUNN_Governor_Proxy.sol\":8185:8213  admin[demotedAdmin].is_admin */\n      0x00\n      add\n      0x00\n        /* \"backEnd/contracts/BUNN_Governor_Proxy.sol\":8185:8221  admin[demotedAdmin].is_admin = false */\n      0x0100\n      exp\n      dup2\n      sload\n      dup2\n      0xff\n      mul\n      not\n      and\n      swap1\n      dup4\n      iszero\n      iszero\n      mul\n      or\n      swap1\n      sstore\n      pop\n        /* \"backEnd/contracts/BUNN_Governor_Proxy.sol\":8297:8298  1 */\n      0x01\n        /* \"backEnd/contracts/BUNN_Governor_Proxy.sol\":8266:8271  admin */\n      0x04\n        /* \"backEnd/contracts/BUNN_Governor_Proxy.sol\":8266:8285  admin[demotedAdmin] */\n      0x00\n        /* \"backEnd/contracts/BUNN_Governor_Proxy.sol\":8272:8284  demotedAdmin */\n      dup4\n        /* \"backEnd/contracts/BUNN_Governor_Proxy.sol\":8266:8285  admin[demotedAdmin] */\n      0xffffffffffffffffffffffffffffffffffffffff\n      and\n      0xffffffffffffffffffffffffffffffffffffffff\n      and\n      dup2\n      mstore\n      0x20\n      add\n      swap1\n      dup2\n      mstore\n      0x20\n      add\n      0x00\n      keccak256\n        /* \"backEnd/contracts/BUNN_Governor_Proxy.sol\":8266:8294  admin[demotedAdmin].removers */\n      0x01\n      add\n      sload\n        /* \"backEnd/contracts/BUNN_Governor_Proxy.sol\":8266:8298  admin[demotedAdmin].removers + 1 */\n      tag_132\n      swap2\n      swap1\n      tag_133\n      jump\t// in\n    tag_132:\n        /* \"backEnd/contracts/BUNN_Governor_Proxy.sol\":8235:8240  admin */\n      0x04\n        /* \"backEnd/contracts/BUNN_Governor_Proxy.sol\":8235:8254  admin[demotedAdmin] */\n      0x00\n        /* \"backEnd/contracts/BUNN_Governor_Proxy.sol\":8241:8253  demotedAdmin */\n      dup4\n        /* \"backEnd/contracts/BUNN_Governor_Proxy.sol\":8235:8254  admin[demotedAdmin] */\n      0xffffffffffffffffffffffffffffffffffffffff\n      and\n      0xffffffffffffffffffffffffffffffffffffffff\n      and\n      dup2\n      mstore\n      0x20\n      add\n      swap1\n      dup2\n      mstore\n      0x20\n      add\n      0x00\n      keccak256\n        /* \"backEnd/contracts/BUNN_Governor_Proxy.sol\":8235:8263  admin[demotedAdmin].removers */\n      0x01\n      add\n        /* \"backEnd/contracts/BUNN_Governor_Proxy.sol\":8235:8298  admin[demotedAdmin].removers = admin[demotedAdmin].removers + 1 */\n      dup2\n      swap1\n      sstore\n      pop\n        /* \"backEnd/contracts/BUNN_Governor_Proxy.sol\":8119:8402  if(admin[demotedAdmin].removers >= admins.length-1 ){... */\n      jump(tag_134)\n    tag_131:\n        /* \"backEnd/contracts/BUNN_Governor_Proxy.sol\":8390:8391  1 */\n      0x01\n        /* \"backEnd/contracts/BUNN_Governor_Proxy.sol\":8359:8364  admin */\n      0x04\n        /* \"backEnd/contracts/BUNN_Governor_Proxy.sol\":8359:8378  admin[demotedAdmin] */\n      0x00\n        /* \"backEnd/contracts/BUNN_Governor_Proxy.sol\":8365:8377  demotedAdmin */\n      dup4\n        /* \"backEnd/contracts/BUNN_Governor_Proxy.sol\":8359:8378  admin[demotedAdmin] */\n      0xffffffffffffffffffffffffffffffffffffffff\n      and\n      0xffffffffffffffffffffffffffffffffffffffff\n      and\n      dup2\n      mstore\n      0x20\n      add\n      swap1\n      dup2\n      mstore\n      0x20\n      add\n      0x00\n      keccak256\n        /* \"backEnd/contracts/BUNN_Governor_Proxy.sol\":8359:8387  admin[demotedAdmin].removers */\n      0x01\n      add\n      sload\n        /* \"backEnd/contracts/BUNN_Governor_Proxy.sol\":8359:8391  admin[demotedAdmin].removers + 1 */\n      tag_135\n      swap2\n      swap1\n      tag_133\n      jump\t// in\n    tag_135:\n        /* \"backEnd/contracts/BUNN_Governor_Proxy.sol\":8328:8333  admin */\n      0x04\n        /* \"backEnd/contracts/BUNN_Governor_Proxy.sol\":8328:8347  admin[demotedAdmin] */\n      0x00\n        /* \"backEnd/contracts/BUNN_Governor_Proxy.sol\":8334:8346  demotedAdmin */\n      dup4\n        /* \"backEnd/contracts/BUNN_Governor_Proxy.sol\":8328:8347  admin[demotedAdmin] */\n      0xffffffffffffffffffffffffffffffffffffffff\n      and\n      0xffffffffffffffffffffffffffffffffffffffff\n      and\n      dup2\n      mstore\n      0x20\n      add\n      swap1\n      dup2\n      mstore\n      0x20\n      add\n      0x00\n      keccak256\n        /* \"backEnd/contracts/BUNN_Governor_Proxy.sol\":8328:8356  admin[demotedAdmin].removers */\n      0x01\n      add\n        /* \"backEnd/contracts/BUNN_Governor_Proxy.sol\":8328:8391  admin[demotedAdmin].removers = admin[demotedAdmin].removers + 1 */\n      dup2\n      swap1\n      sstore\n      pop\n        /* \"backEnd/contracts/BUNN_Governor_Proxy.sol\":8119:8402  if(admin[demotedAdmin].removers >= admins.length-1 ){... */\n    tag_134:\n        /* \"backEnd/contracts/BUNN_Governor_Proxy.sol\":8430:8442  demotedAdmin */\n      dup1\n        /* \"backEnd/contracts/BUNN_Governor_Proxy.sol\":8417:8443  remove_Admin(demotedAdmin) */\n      0xffffffffffffffffffffffffffffffffffffffff\n      and\n      0x923abef5ea1e37ac38f56a77b8133d215c1d3bcd2e3dd88a6120d34f933f3dde\n      mload(0x40)\n      mload(0x40)\n      dup1\n      swap2\n      sub\n      swap1\n      log2\n        /* \"backEnd/contracts/BUNN_Governor_Proxy.sol\":7976:8450  function removeAdmin(address demotedAdmin) public onlyAdmin{... */\n      pop\n      jump\t// out\n        /* \"backEnd/contracts/BUNN_Governor_Proxy.sol\":4454:5824  function cast_vote(uint topic_id, bool position_) public {... */\n    tag_34:\n        /* \"backEnd/contracts/BUNN_Governor_Proxy.sol\":4521:4539  Topic memory topic */\n      0x00\n        /* \"backEnd/contracts/BUNN_Governor_Proxy.sol\":4542:4548  Topics */\n      0x0b\n        /* \"backEnd/contracts/BUNN_Governor_Proxy.sol\":4542:4558  Topics[topic_id] */\n      0x00\n        /* \"backEnd/contracts/BUNN_Governor_Proxy.sol\":4549:4557  topic_id */\n      dup5\n        /* \"backEnd/contracts/BUNN_Governor_Proxy.sol\":4542:4558  Topics[topic_id] */\n      dup2\n      mstore\n      0x20\n      add\n      swap1\n      dup2\n      mstore\n      0x20\n      add\n      0x00\n      keccak256\n        /* \"backEnd/contracts/BUNN_Governor_Proxy.sol\":4521:4558  Topic memory topic = Topics[topic_id] */\n      mload(0x40)\n      dup1\n      0x0120\n      add\n      0x40\n      mstore\n      swap1\n      dup2\n      0x00\n      dup3\n      add\n      sload\n      dup2\n      mstore\n      0x20\n      add\n      0x01\n      dup3\n      add\n      dup1\n      sload\n      tag_137\n      swap1\n      tag_138\n      jump\t// in\n    tag_137:\n      dup1\n      0x1f\n      add\n      0x20\n      dup1\n      swap2\n      div\n      mul\n      0x20\n      add\n      mload(0x40)\n      swap1\n      dup2\n      add\n      0x40\n      mstore\n      dup1\n      swap3\n      swap2\n      swap1\n      dup2\n      dup2\n      mstore\n      0x20\n      add\n      dup3\n      dup1\n      sload\n      tag_139\n      swap1\n      tag_138\n      jump\t// in\n    tag_139:\n      dup1\n      iszero\n      tag_140\n      jumpi\n      dup1\n      0x1f\n      lt\n      tag_141\n      jumpi\n      0x0100\n      dup1\n      dup4\n      sload\n      div\n      mul\n      dup4\n      mstore\n      swap2\n      0x20\n      add\n      swap2\n      jump(tag_140)\n    tag_141:\n      dup3\n      add\n      swap2\n      swap1\n      0x00\n      mstore\n      keccak256(0x00, 0x20)\n      swap1\n    tag_142:\n      dup2\n      sload\n      dup2\n      mstore\n      swap1\n      0x01\n      add\n      swap1\n      0x20\n      add\n      dup1\n      dup4\n      gt\n      tag_142\n      jumpi\n      dup3\n      swap1\n      sub\n      0x1f\n      and\n      dup3\n      add\n      swap2\n    tag_140:\n      pop\n      pop\n      pop\n      pop\n      pop\n      dup2\n      mstore\n      0x20\n      add\n      0x02\n      dup3\n      add\n      0x00\n      swap1\n      sload\n      swap1\n      0x0100\n      exp\n      swap1\n      div\n      0xffffffffffffffffffffffffffffffffffffffff\n      and\n      0xffffffffffffffffffffffffffffffffffffffff\n      and\n      0xffffffffffffffffffffffffffffffffffffffff\n      and\n      dup2\n      mstore\n      0x20\n      add\n      0x03\n      dup3\n      add\n      dup1\n      sload\n      tag_143\n      swap1\n      tag_138\n      jump\t// in\n    tag_143:\n      dup1\n      0x1f\n      add\n      0x20\n      dup1\n      swap2\n      div\n      mul\n      0x20\n      add\n      mload(0x40)\n      swap1\n      dup2\n      add\n      0x40\n      mstore\n      dup1\n      swap3\n      swap2\n      swap1\n      dup2\n      dup2\n      mstore\n      0x20\n      add\n      dup3\n      dup1\n      sload\n      tag_144\n      swap1\n      tag_138\n      jump\t// in\n    tag_144:\n      dup1\n      iszero\n      tag_145\n      jumpi\n      dup1\n      0x1f\n      lt\n      tag_146\n      jumpi\n      0x0100\n      dup1\n      dup4\n      sload\n      div\n      mul\n      dup4\n      mstore\n      swap2\n      0x20\n      add\n      swap2\n      jump(tag_145)\n    tag_146:\n      dup3\n      add\n      swap2\n      swap1\n      0x00\n      mstore\n      keccak256(0x00, 0x20)\n      swap1\n    tag_147:\n      dup2\n      sload\n      dup2\n      mstore\n      swap1\n      0x01\n      add\n      swap1\n      0x20\n      add\n      dup1\n      dup4\n      gt\n      tag_147\n      jumpi\n      dup3\n      swap1\n      sub\n      0x1f\n      and\n      dup3\n      add\n      swap2\n    tag_145:\n      pop\n      pop\n      pop\n      pop\n      pop\n      dup2\n      mstore\n      0x20\n      add\n      0x04\n      dup3\n      add\n      0x00\n      swap1\n      sload\n      swap1\n      0x0100\n      exp\n      swap1\n      div\n      0xffffffffffffffffffffffffffffffffffffffff\n      and\n      0xffffffffffffffffffffffffffffffffffffffff\n      and\n      0xffffffffffffffffffffffffffffffffffffffff\n      and\n      dup2\n      mstore\n      0x20\n      add\n      0x05\n      dup3\n      add\n      dup1\n      sload\n      tag_148\n      swap1\n      tag_138\n      jump\t// in\n    tag_148:\n      dup1\n      0x1f\n      add\n      0x20\n      dup1\n      swap2\n      div\n      mul\n      0x20\n      add\n      mload(0x40)\n      swap1\n      dup2\n      add\n      0x40\n      mstore\n      dup1\n      swap3\n      swap2\n      swap1\n      dup2\n      dup2\n      mstore\n      0x20\n      add\n      dup3\n      dup1\n      sload\n      tag_149\n      swap1\n      tag_138\n      jump\t// in\n    tag_149:\n      dup1\n      iszero\n      tag_150\n      jumpi\n      dup1\n      0x1f\n      lt\n      tag_151\n      jumpi\n      0x0100\n      dup1\n      dup4\n      sload\n      div\n      mul\n      dup4\n      mstore\n      swap2\n      0x20\n      add\n      swap2\n      jump(tag_150)\n    tag_151:\n      dup3\n      add\n      swap2\n      swap1\n      0x00\n      mstore\n      keccak256(0x00, 0x20)\n      swap1\n    tag_152:\n      dup2\n      sload\n      dup2\n      mstore\n      swap1\n      0x01\n      add\n      swap1\n      0x20\n      add\n      dup1\n      dup4\n      gt\n      tag_152\n      jumpi\n      dup3\n      swap1\n      sub\n      0x1f\n      and\n      dup3\n      add\n      swap2\n    tag_150:\n      pop\n      pop\n      pop\n      pop\n      pop\n      dup2\n      mstore\n      0x20\n      add\n      0x06\n      dup3\n      add\n      sload\n      dup2\n      mstore\n      0x20\n      add\n      0x07\n      dup3\n      add\n      0x00\n      swap1\n      sload\n      swap1\n      0x0100\n      exp\n      swap1\n      div\n      0xff\n      and\n      iszero\n      iszero\n      iszero\n      iszero\n      dup2\n      mstore\n      0x20\n      add\n      0x07\n      dup3\n      add\n      0x01\n      swap1\n      sload\n      swap1\n      0x0100\n      exp\n      swap1\n      div\n      0xff\n      and\n      iszero\n      iszero\n      iszero\n      iszero\n      dup2\n      mstore\n      pop\n      pop\n      swap1\n      pop\n        /* \"backEnd/contracts/BUNN_Governor_Proxy.sol\":4595:4614  IUTILITY_TOKEN BUNN */\n      0x00\n        /* \"backEnd/contracts/BUNN_Governor_Proxy.sol\":4632:4653  utility_token_address */\n      0x02\n      0x00\n      swap1\n      sload\n      swap1\n      0x0100\n      exp\n      swap1\n      div\n      0xffffffffffffffffffffffffffffffffffffffff\n      and\n        /* \"backEnd/contracts/BUNN_Governor_Proxy.sol\":4595:4654  IUTILITY_TOKEN BUNN = IUTILITY_TOKEN(utility_token_address) */\n      swap1\n      pop\n        /* \"backEnd/contracts/BUNN_Governor_Proxy.sol\":4720:4727  Members */\n      0x06\n        /* \"backEnd/contracts/BUNN_Governor_Proxy.sol\":4720:4739  Members[msg.sender] */\n      0x00\n        /* \"backEnd/contracts/BUNN_Governor_Proxy.sol\":4728:4738  msg.sender */\n      caller\n        /* \"backEnd/contracts/BUNN_Governor_Proxy.sol\":4720:4739  Members[msg.sender] */\n      0xffffffffffffffffffffffffffffffffffffffff\n      and\n      0xffffffffffffffffffffffffffffffffffffffff\n      and\n      dup2\n      mstore\n      0x20\n      add\n      swap1\n      dup2\n      mstore\n      0x20\n      add\n      0x00\n      keccak256\n        /* \"backEnd/contracts/BUNN_Governor_Proxy.sol\":4720:4747  Members[msg.sender].belongs */\n      0x01\n      add\n      0x00\n      swap1\n      sload\n      swap1\n      0x0100\n      exp\n      swap1\n      div\n      0xff\n      and\n        /* \"backEnd/contracts/BUNN_Governor_Proxy.sol\":4712:4764  require(Members[msg.sender].belongs, \"NOT A MEMBER\") */\n      tag_153\n      jumpi\n      mload(0x40)\n      0x08c379a000000000000000000000000000000000000000000000000000000000\n      dup2\n      mstore\n      0x04\n      add\n      tag_154\n      swap1\n      tag_155\n      jump\t// in\n    tag_154:\n      mload(0x40)\n      dup1\n      swap2\n      sub\n      swap1\n      revert\n    tag_153:\n        /* \"backEnd/contracts/BUNN_Governor_Proxy.sol\":4825:4841  uint256 end_time */\n      0x00\n        /* \"backEnd/contracts/BUNN_Governor_Proxy.sol\":4862:4867  topic */\n      dup3\n        /* \"backEnd/contracts/BUNN_Governor_Proxy.sol\":4862:4878  topic.start_time */\n      0xc0\n      add\n      mload\n        /* \"backEnd/contracts/BUNN_Governor_Proxy.sol\":4844:4859  voting_duration */\n      sload(0x00)\n        /* \"backEnd/contracts/BUNN_Governor_Proxy.sol\":4844:4878  voting_duration + topic.start_time */\n      tag_156\n      swap2\n      swap1\n      tag_133\n      jump\t// in\n    tag_156:\n        /* \"backEnd/contracts/BUNN_Governor_Proxy.sol\":4825:4878  uint256 end_time = voting_duration + topic.start_time */\n      swap1\n      pop\n        /* \"backEnd/contracts/BUNN_Governor_Proxy.sol\":4907:4922  block.timestamp */\n      timestamp\n        /* \"backEnd/contracts/BUNN_Governor_Proxy.sol\":4896:4904  end_time */\n      dup2\n        /* \"backEnd/contracts/BUNN_Governor_Proxy.sol\":4896:4922  end_time > block.timestamp */\n      gt\n        /* \"backEnd/contracts/BUNN_Governor_Proxy.sol\":4888:4952  require(end_time > block.timestamp, \"VOTING PERIOD HAS ELAPSED\") */\n      tag_157\n      jumpi\n      mload(0x40)\n      0x08c379a000000000000000000000000000000000000000000000000000000000\n      dup2\n      mstore\n      0x04\n      add\n      tag_158\n      swap1\n      tag_159\n      jump\t// in\n    tag_158:\n      mload(0x40)\n      dup1\n      swap2\n      sub\n      swap1\n      revert\n    tag_157:\n        /* \"backEnd/contracts/BUNN_Governor_Proxy.sol\":5064:5065  0 */\n      0x00\n        /* \"backEnd/contracts/BUNN_Governor_Proxy.sol\":5035:5039  BUNN */\n      dup3\n        /* \"backEnd/contracts/BUNN_Governor_Proxy.sol\":5035:5049  BUNN.balanceOf */\n      0xffffffffffffffffffffffffffffffffffffffff\n      and\n      0x70a08231\n        /* \"backEnd/contracts/BUNN_Governor_Proxy.sol\":5050:5060  msg.sender */\n      caller\n        /* \"backEnd/contracts/BUNN_Governor_Proxy.sol\":5035:5061  BUNN.balanceOf(msg.sender) */\n      mload(0x40)\n      dup3\n      0xffffffff\n      and\n      0xe0\n      shl\n      dup2\n      mstore\n      0x04\n      add\n      tag_160\n      swap2\n      swap1\n      tag_112\n      jump\t// in\n    tag_160:\n      0x20\n      mload(0x40)\n      dup1\n      dup4\n      sub\n      dup2\n      dup7\n      gas\n      staticcall\n      iszero\n      dup1\n      iszero\n      tag_162\n      jumpi\n      returndatasize\n      0x00\n      dup1\n      returndatacopy\n      revert(0x00, returndatasize)\n    tag_162:\n      pop\n      pop\n      pop\n      pop\n      mload(0x40)\n      returndatasize\n      not(0x1f)\n      0x1f\n      dup3\n      add\n      and\n      dup3\n      add\n      dup1\n      0x40\n      mstore\n      pop\n      dup2\n      add\n      swap1\n      tag_163\n      swap2\n      swap1\n      tag_164\n      jump\t// in\n    tag_163:\n        /* \"backEnd/contracts/BUNN_Governor_Proxy.sol\":5035:5065  BUNN.balanceOf(msg.sender) > 0 */\n      gt\n        /* \"backEnd/contracts/BUNN_Governor_Proxy.sol\":5014:5137  require(... */\n      tag_165\n      jumpi\n      mload(0x40)\n      0x08c379a000000000000000000000000000000000000000000000000000000000\n      dup2\n      mstore\n      0x04\n      add\n      tag_166\n      swap1\n      tag_167\n      jump\t// in\n    tag_166:\n      mload(0x40)\n      dup1\n      swap2\n      sub\n      swap1\n      revert\n    tag_165:\n        /* \"backEnd/contracts/BUNN_Governor_Proxy.sol\":5300:5307  ballots */\n      0x07\n        /* \"backEnd/contracts/BUNN_Governor_Proxy.sol\":5300:5319  ballots[msg.sender] */\n      0x00\n        /* \"backEnd/contracts/BUNN_Governor_Proxy.sol\":5308:5318  msg.sender */\n      caller\n        /* \"backEnd/contracts/BUNN_Governor_Proxy.sol\":5300:5319  ballots[msg.sender] */\n      0xffffffffffffffffffffffffffffffffffffffff\n      and\n      0xffffffffffffffffffffffffffffffffffffffff\n      and\n      dup2\n      mstore\n      0x20\n      add\n      swap1\n      dup2\n      mstore\n      0x20\n      add\n      0x00\n      keccak256\n        /* \"backEnd/contracts/BUNN_Governor_Proxy.sol\":5300:5329  ballots[msg.sender][topic_id] */\n      0x00\n        /* \"backEnd/contracts/BUNN_Governor_Proxy.sol\":5320:5328  topic_id */\n      dup7\n        /* \"backEnd/contracts/BUNN_Governor_Proxy.sol\":5300:5329  ballots[msg.sender][topic_id] */\n      dup2\n      mstore\n      0x20\n      add\n      swap1\n      dup2\n      mstore\n      0x20\n      add\n      0x00\n      keccak256\n        /* \"backEnd/contracts/BUNN_Governor_Proxy.sol\":5300:5335  ballots[msg.sender][topic_id].voted */\n      0x01\n      add\n      0x01\n      swap1\n      sload\n      swap1\n      0x0100\n      exp\n      swap1\n      div\n      0xff\n      and\n        /* \"backEnd/contracts/BUNN_Governor_Proxy.sol\":5299:5335  !ballots[msg.sender][topic_id].voted */\n      iszero\n        /* \"backEnd/contracts/BUNN_Governor_Proxy.sol\":5291:5378  require(!ballots[msg.sender][topic_id].voted, \"MEMBERS CAN ONLY CAST A VOTE PER TOPIC\") */\n      tag_168\n      jumpi\n      mload(0x40)\n      0x08c379a000000000000000000000000000000000000000000000000000000000\n      dup2\n      mstore\n      0x04\n      add\n      tag_169\n      swap1\n      tag_170\n      jump\t// in\n    tag_169:\n      mload(0x40)\n      dup1\n      swap2\n      sub\n      swap1\n      revert\n    tag_168:\n        /* \"backEnd/contracts/BUNN_Governor_Proxy.sol\":5420:5528  ballot({... */\n      mload(0x40)\n      dup1\n      0x60\n      add\n      0x40\n      mstore\n      dup1\n        /* \"backEnd/contracts/BUNN_Governor_Proxy.sol\":5451:5459  topic_id */\n      dup7\n        /* \"backEnd/contracts/BUNN_Governor_Proxy.sol\":5420:5528  ballot({... */\n      dup2\n      mstore\n      0x20\n      add\n        /* \"backEnd/contracts/BUNN_Governor_Proxy.sol\":5483:5492  position_ */\n      dup6\n        /* \"backEnd/contracts/BUNN_Governor_Proxy.sol\":5420:5528  ballot({... */\n      iszero\n      iszero\n      dup2\n      mstore\n      0x20\n      add\n        /* \"backEnd/contracts/BUNN_Governor_Proxy.sol\":5513:5517  true */\n      0x01\n        /* \"backEnd/contracts/BUNN_Governor_Proxy.sol\":5420:5528  ballot({... */\n      iszero\n      iszero\n      dup2\n      mstore\n      pop\n        /* \"backEnd/contracts/BUNN_Governor_Proxy.sol\":5388:5395  ballots */\n      0x07\n        /* \"backEnd/contracts/BUNN_Governor_Proxy.sol\":5388:5407  ballots[msg.sender] */\n      0x00\n        /* \"backEnd/contracts/BUNN_Governor_Proxy.sol\":5396:5406  msg.sender */\n      caller\n        /* \"backEnd/contracts/BUNN_Governor_Proxy.sol\":5388:5407  ballots[msg.sender] */\n      0xffffffffffffffffffffffffffffffffffffffff\n      and\n      0xffffffffffffffffffffffffffffffffffffffff\n      and\n      dup2\n      mstore\n      0x20\n      add\n      swap1\n      dup2\n      mstore\n      0x20\n      add\n      0x00\n      keccak256\n        /* \"backEnd/contracts/BUNN_Governor_Proxy.sol\":5388:5417  ballots[msg.sender][topic_id] */\n      0x00\n        /* \"backEnd/contracts/BUNN_Governor_Proxy.sol\":5408:5416  topic_id */\n      dup8\n        /* \"backEnd/contracts/BUNN_Governor_Proxy.sol\":5388:5417  ballots[msg.sender][topic_id] */\n      dup2\n      mstore\n      0x20\n      add\n      swap1\n      dup2\n      mstore\n      0x20\n      add\n      0x00\n      keccak256\n        /* \"backEnd/contracts/BUNN_Governor_Proxy.sol\":5388:5528  ballots[msg.sender][topic_id] = ballot({... */\n      0x00\n      dup3\n      add\n      mload\n      dup2\n      0x00\n      add\n      sstore\n      0x20\n      dup3\n      add\n      mload\n      dup2\n      0x01\n      add\n      exp(0x0100, 0x00)\n      dup2\n      sload\n      dup2\n      0xff\n      mul\n      not\n      and\n      swap1\n      dup4\n      iszero\n      iszero\n      mul\n      or\n      swap1\n      sstore\n      pop\n      0x40\n      dup3\n      add\n      mload\n      dup2\n      0x01\n      add\n      exp(0x0100, 0x01)\n      dup2\n      sload\n      dup2\n      0xff\n      mul\n      not\n      and\n      swap1\n      dup4\n      iszero\n      iszero\n      mul\n      or\n      swap1\n      sstore\n      pop\n      swap1\n      pop\n      pop\n        /* \"backEnd/contracts/BUNN_Governor_Proxy.sol\":5543:5550  ballots */\n      0x07\n        /* \"backEnd/contracts/BUNN_Governor_Proxy.sol\":5543:5562  ballots[msg.sender] */\n      0x00\n        /* \"backEnd/contracts/BUNN_Governor_Proxy.sol\":5551:5561  msg.sender */\n      caller\n        /* \"backEnd/contracts/BUNN_Governor_Proxy.sol\":5543:5562  ballots[msg.sender] */\n      0xffffffffffffffffffffffffffffffffffffffff\n      and\n      0xffffffffffffffffffffffffffffffffffffffff\n      and\n      dup2\n      mstore\n      0x20\n      add\n      swap1\n      dup2\n      mstore\n      0x20\n      add\n      0x00\n      keccak256\n        /* \"backEnd/contracts/BUNN_Governor_Proxy.sol\":5543:5572  ballots[msg.sender][topic_id] */\n      0x00\n        /* \"backEnd/contracts/BUNN_Governor_Proxy.sol\":5563:5571  topic_id */\n      dup7\n        /* \"backEnd/contracts/BUNN_Governor_Proxy.sol\":5543:5572  ballots[msg.sender][topic_id] */\n      dup2\n      mstore\n      0x20\n      add\n      swap1\n      dup2\n      mstore\n      0x20\n      add\n      0x00\n      keccak256\n        /* \"backEnd/contracts/BUNN_Governor_Proxy.sol\":5543:5581  ballots[msg.sender][topic_id].position */\n      0x01\n      add\n      0x00\n      swap1\n      sload\n      swap1\n      0x0100\n      exp\n      swap1\n      div\n      0xff\n      and\n        /* \"backEnd/contracts/BUNN_Governor_Proxy.sol\":5539:5760  if (ballots[msg.sender][topic_id].position) {... */\n      iszero\n      tag_171\n      jumpi\n        /* \"backEnd/contracts/BUNN_Governor_Proxy.sol\":5653:5654  1 */\n      0x01\n        /* \"backEnd/contracts/BUNN_Governor_Proxy.sol\":5625:5630  votes */\n      0x08\n        /* \"backEnd/contracts/BUNN_Governor_Proxy.sol\":5625:5640  votes[topic_id] */\n      0x00\n        /* \"backEnd/contracts/BUNN_Governor_Proxy.sol\":5631:5639  topic_id */\n      dup8\n        /* \"backEnd/contracts/BUNN_Governor_Proxy.sol\":5625:5640  votes[topic_id] */\n      dup2\n      mstore\n      0x20\n      add\n      swap1\n      dup2\n      mstore\n      0x20\n      add\n      0x00\n      keccak256\n        /* \"backEnd/contracts/BUNN_Governor_Proxy.sol\":5625:5650  votes[topic_id].for_votes */\n      0x00\n      add\n      sload\n        /* \"backEnd/contracts/BUNN_Governor_Proxy.sol\":5625:5654  votes[topic_id].for_votes + 1 */\n      tag_172\n      swap2\n      swap1\n      tag_133\n      jump\t// in\n    tag_172:\n        /* \"backEnd/contracts/BUNN_Governor_Proxy.sol\":5597:5602  votes */\n      0x08\n        /* \"backEnd/contracts/BUNN_Governor_Proxy.sol\":5597:5612  votes[topic_id] */\n      0x00\n        /* \"backEnd/contracts/BUNN_Governor_Proxy.sol\":5603:5611  topic_id */\n      dup8\n        /* \"backEnd/contracts/BUNN_Governor_Proxy.sol\":5597:5612  votes[topic_id] */\n      dup2\n      mstore\n      0x20\n      add\n      swap1\n      dup2\n      mstore\n      0x20\n      add\n      0x00\n      keccak256\n        /* \"backEnd/contracts/BUNN_Governor_Proxy.sol\":5597:5622  votes[topic_id].for_votes */\n      0x00\n      add\n        /* \"backEnd/contracts/BUNN_Governor_Proxy.sol\":5597:5654  votes[topic_id].for_votes = votes[topic_id].for_votes + 1 */\n      dup2\n      swap1\n      sstore\n      pop\n        /* \"backEnd/contracts/BUNN_Governor_Proxy.sol\":5539:5760  if (ballots[msg.sender][topic_id].position) {... */\n      jump(tag_173)\n    tag_171:\n        /* \"backEnd/contracts/BUNN_Governor_Proxy.sol\":5748:5749  1 */\n      0x01\n        /* \"backEnd/contracts/BUNN_Governor_Proxy.sol\":5716:5721  votes */\n      0x08\n        /* \"backEnd/contracts/BUNN_Governor_Proxy.sol\":5716:5731  votes[topic_id] */\n      0x00\n        /* \"backEnd/contracts/BUNN_Governor_Proxy.sol\":5722:5730  topic_id */\n      dup8\n        /* \"backEnd/contracts/BUNN_Governor_Proxy.sol\":5716:5731  votes[topic_id] */\n      dup2\n      mstore\n      0x20\n      add\n      swap1\n      dup2\n      mstore\n      0x20\n      add\n      0x00\n      keccak256\n        /* \"backEnd/contracts/BUNN_Governor_Proxy.sol\":5716:5745  votes[topic_id].against_votes */\n      0x01\n      add\n      sload\n        /* \"backEnd/contracts/BUNN_Governor_Proxy.sol\":5716:5749  votes[topic_id].against_votes + 1 */\n      tag_174\n      swap2\n      swap1\n      tag_133\n      jump\t// in\n    tag_174:\n        /* \"backEnd/contracts/BUNN_Governor_Proxy.sol\":5684:5689  votes */\n      0x08\n        /* \"backEnd/contracts/BUNN_Governor_Proxy.sol\":5684:5699  votes[topic_id] */\n      0x00\n        /* \"backEnd/contracts/BUNN_Governor_Proxy.sol\":5690:5698  topic_id */\n      dup8\n        /* \"backEnd/contracts/BUNN_Governor_Proxy.sol\":5684:5699  votes[topic_id] */\n      dup2\n      mstore\n      0x20\n      add\n      swap1\n      dup2\n      mstore\n      0x20\n      add\n      0x00\n      keccak256\n        /* \"backEnd/contracts/BUNN_Governor_Proxy.sol\":5684:5713  votes[topic_id].against_votes */\n      0x01\n      add\n        /* \"backEnd/contracts/BUNN_Governor_Proxy.sol\":5684:5749  votes[topic_id].against_votes = votes[topic_id].against_votes + 1 */\n      dup2\n      swap1\n      sstore\n      pop\n        /* \"backEnd/contracts/BUNN_Governor_Proxy.sol\":5539:5760  if (ballots[msg.sender][topic_id].position) {... */\n    tag_173:\n        /* \"backEnd/contracts/BUNN_Governor_Proxy.sol\":5785:5795  msg.sender */\n      caller\n        /* \"backEnd/contracts/BUNN_Governor_Proxy.sol\":5775:5817  vote_cast(msg.sender, topic.id, position_) */\n      0xffffffffffffffffffffffffffffffffffffffff\n      and\n      0x4f7ff1c79e536d7fef60ccb53beb6009e08841ffcba10e515e076f4cbdd9e320\n        /* \"backEnd/contracts/BUNN_Governor_Proxy.sol\":5797:5802  topic */\n      dup5\n        /* \"backEnd/contracts/BUNN_Governor_Proxy.sol\":5797:5805  topic.id */\n      0x00\n      add\n      mload\n        /* \"backEnd/contracts/BUNN_Governor_Proxy.sol\":5807:5816  position_ */\n      dup7\n        /* \"backEnd/contracts/BUNN_Governor_Proxy.sol\":5775:5817  vote_cast(msg.sender, topic.id, position_) */\n      mload(0x40)\n      tag_175\n      swap3\n      swap2\n      swap1\n      tag_176\n      jump\t// in\n    tag_175:\n      mload(0x40)\n      dup1\n      swap2\n      sub\n      swap1\n      log2\n        /* \"backEnd/contracts/BUNN_Governor_Proxy.sol\":4511:5824  {... */\n      pop\n      pop\n      pop\n        /* \"backEnd/contracts/BUNN_Governor_Proxy.sol\":4454:5824  function cast_vote(uint topic_id, bool position_) public {... */\n      pop\n      pop\n      jump\t// out\n        /* \"backEnd/contracts/BUNN_Governor_Proxy.sol\":2363:2391  uint public agreement_id = 1 */\n    tag_37:\n      sload(0x0a)\n      dup2\n      jump\t// out\n        /* \"backEnd/contracts/restrictions.sol\":240:279  uint256 public voting_duration = 432000 */\n    tag_42:\n      sload(0x00)\n      dup2\n      jump\t// out\n        /* \"backEnd/contracts/BUNN_Governor_Proxy.sol\":7201:7366  function cancel_Topic(uint topic_id) public view onlyAdmin {... */\n    tag_48:\n        /* \"backEnd/contracts/BUNN_Governor_Proxy.sol\":7509:7514  admin */\n      0x04\n        /* \"backEnd/contracts/BUNN_Governor_Proxy.sol\":7509:7526  admin[msg.sender] */\n      0x00\n        /* \"backEnd/contracts/BUNN_Governor_Proxy.sol\":7515:7525  msg.sender */\n      caller\n        /* \"backEnd/contracts/BUNN_Governor_Proxy.sol\":7509:7526  admin[msg.sender] */\n      0xffffffffffffffffffffffffffffffffffffffff\n      and\n      0xffffffffffffffffffffffffffffffffffffffff\n      and\n      dup2\n      mstore\n      0x20\n      add\n      swap1\n      dup2\n      mstore\n      0x20\n      add\n      0x00\n      keccak256\n        /* \"backEnd/contracts/BUNN_Governor_Proxy.sol\":7509:7535  admin[msg.sender].is_admin */\n      0x00\n      add\n      0x00\n      swap1\n      sload\n      swap1\n      0x0100\n      exp\n      swap1\n      div\n      0xff\n      and\n        /* \"backEnd/contracts/BUNN_Governor_Proxy.sol\":7501:7554  require(admin[msg.sender].is_admin, \"ACCESS DENIED!\") */\n      tag_178\n      jumpi\n      mload(0x40)\n      0x08c379a000000000000000000000000000000000000000000000000000000000\n      dup2\n      mstore\n      0x04\n      add\n      tag_179\n      swap1\n      tag_127\n      jump\t// in\n    tag_179:\n      mload(0x40)\n      dup1\n      swap2\n      sub\n      swap1\n      revert\n    tag_178:\n        /* \"backEnd/contracts/BUNN_Governor_Proxy.sol\":7270:7298  Topic memory topic_to_cancel */\n      0x00\n        /* \"backEnd/contracts/BUNN_Governor_Proxy.sol\":7301:7307  Topics */\n      0x0b\n        /* \"backEnd/contracts/BUNN_Governor_Proxy.sol\":7301:7317  Topics[topic_id] */\n      0x00\n        /* \"backEnd/contracts/BUNN_Governor_Proxy.sol\":7308:7316  topic_id */\n      dup4\n        /* \"backEnd/contracts/BUNN_Governor_Proxy.sol\":7301:7317  Topics[topic_id] */\n      dup2\n      mstore\n      0x20\n      add\n      swap1\n      dup2\n      mstore\n      0x20\n      add\n      0x00\n      keccak256\n        /* \"backEnd/contracts/BUNN_Governor_Proxy.sol\":7270:7317  Topic memory topic_to_cancel = Topics[topic_id] */\n      mload(0x40)\n      dup1\n      0x0120\n      add\n      0x40\n      mstore\n      swap1\n      dup2\n      0x00\n      dup3\n      add\n      sload\n      dup2\n      mstore\n      0x20\n      add\n      0x01\n      dup3\n      add\n      dup1\n      sload\n      tag_181\n      swap1\n      tag_138\n      jump\t// in\n    tag_181:\n      dup1\n      0x1f\n      add\n      0x20\n      dup1\n      swap2\n      div\n      mul\n      0x20\n      add\n      mload(0x40)\n      swap1\n      dup2\n      add\n      0x40\n      mstore\n      dup1\n      swap3\n      swap2\n      swap1\n      dup2\n      dup2\n      mstore\n      0x20\n      add\n      dup3\n      dup1\n      sload\n      tag_182\n      swap1\n      tag_138\n      jump\t// in\n    tag_182:\n      dup1\n      iszero\n      tag_183\n      jumpi\n      dup1\n      0x1f\n      lt\n      tag_184\n      jumpi\n      0x0100\n      dup1\n      dup4\n      sload\n      div\n      mul\n      dup4\n      mstore\n      swap2\n      0x20\n      add\n      swap2\n      jump(tag_183)\n    tag_184:\n      dup3\n      add\n      swap2\n      swap1\n      0x00\n      mstore\n      keccak256(0x00, 0x20)\n      swap1\n    tag_185:\n      dup2\n      sload\n      dup2\n      mstore\n      swap1\n      0x01\n      add\n      swap1\n      0x20\n      add\n      dup1\n      dup4\n      gt\n      tag_185\n      jumpi\n      dup3\n      swap1\n      sub\n      0x1f\n      and\n      dup3\n      add\n      swap2\n    tag_183:\n      pop\n      pop\n      pop\n      pop\n      pop\n      dup2\n      mstore\n      0x20\n      add\n      0x02\n      dup3\n      add\n      0x00\n      swap1\n      sload\n      swap1\n      0x0100\n      exp\n      swap1\n      div\n      0xffffffffffffffffffffffffffffffffffffffff\n      and\n      0xffffffffffffffffffffffffffffffffffffffff\n      and\n      0xffffffffffffffffffffffffffffffffffffffff\n      and\n      dup2\n      mstore\n      0x20\n      add\n      0x03\n      dup3\n      add\n      dup1\n      sload\n      tag_186\n      swap1\n      tag_138\n      jump\t// in\n    tag_186:\n      dup1\n      0x1f\n      add\n      0x20\n      dup1\n      swap2\n      div\n      mul\n      0x20\n      add\n      mload(0x40)\n      swap1\n      dup2\n      add\n      0x40\n      mstore\n      dup1\n      swap3\n      swap2\n      swap1\n      dup2\n      dup2\n      mstore\n      0x20\n      add\n      dup3\n      dup1\n      sload\n      tag_187\n      swap1\n      tag_138\n      jump\t// in\n    tag_187:\n      dup1\n      iszero\n      tag_188\n      jumpi\n      dup1\n      0x1f\n      lt\n      tag_189\n      jumpi\n      0x0100\n      dup1\n      dup4\n      sload\n      div\n      mul\n      dup4\n      mstore\n      swap2\n      0x20\n      add\n      swap2\n      jump(tag_188)\n    tag_189:\n      dup3\n      add\n      swap2\n      swap1\n      0x00\n      mstore\n      keccak256(0x00, 0x20)\n      swap1\n    tag_190:\n      dup2\n      sload\n      dup2\n      mstore\n      swap1\n      0x01\n      add\n      swap1\n      0x20\n      add\n      dup1\n      dup4\n      gt\n      tag_190\n      jumpi\n      dup3\n      swap1\n      sub\n      0x1f\n      and\n      dup3\n      add\n      swap2\n    tag_188:\n      pop\n      pop\n      pop\n      pop\n      pop\n      dup2\n      mstore\n      0x20\n      add\n      0x04\n      dup3\n      add\n      0x00\n      swap1\n      sload\n      swap1\n      0x0100\n      exp\n      swap1\n      div\n      0xffffffffffffffffffffffffffffffffffffffff\n      and\n      0xffffffffffffffffffffffffffffffffffffffff\n      and\n      0xffffffffffffffffffffffffffffffffffffffff\n      and\n      dup2\n      mstore\n      0x20\n      add\n      0x05\n      dup3\n      add\n      dup1\n      sload\n      tag_191\n      swap1\n      tag_138\n      jump\t// in\n    tag_191:\n      dup1\n      0x1f\n      add\n      0x20\n      dup1\n      swap2\n      div\n      mul\n      0x20\n      add\n      mload(0x40)\n      swap1\n      dup2\n      add\n      0x40\n      mstore\n      dup1\n      swap3\n      swap2\n      swap1\n      dup2\n      dup2\n      mstore\n      0x20\n      add\n      dup3\n      dup1\n      sload\n      tag_192\n      swap1\n      tag_138\n      jump\t// in\n    tag_192:\n      dup1\n      iszero\n      tag_193\n      jumpi\n      dup1\n      0x1f\n      lt\n      tag_194\n      jumpi\n      0x0100\n      dup1\n      dup4\n      sload\n      div\n      mul\n      dup4\n      mstore\n      swap2\n      0x20\n      add\n      swap2\n      jump(tag_193)\n    tag_194:\n      dup3\n      add\n      swap2\n      swap1\n      0x00\n      mstore\n      keccak256(0x00, 0x20)\n      swap1\n    tag_195:\n      dup2\n      sload\n      dup2\n      mstore\n      swap1\n      0x01\n      add\n      swap1\n      0x20\n      add\n      dup1\n      dup4\n      gt\n      tag_195\n      jumpi\n      dup3\n      swap1\n      sub\n      0x1f\n      and\n      dup3\n      add\n      swap2\n    tag_193:\n      pop\n      pop\n      pop\n      pop\n      pop\n      dup2\n      mstore\n      0x20\n      add\n      0x06\n      dup3\n      add\n      sload\n      dup2\n      mstore\n      0x20\n      add\n      0x07\n      dup3\n      add\n      0x00\n      swap1\n      sload\n      swap1\n      0x0100\n      exp\n      swap1\n      div\n      0xff\n      and\n      iszero\n      iszero\n      iszero\n      iszero\n      dup2\n      mstore\n      0x20\n      add\n      0x07\n      dup3\n      add\n      0x01\n      swap1\n      sload\n      swap1\n      0x0100\n      exp\n      swap1\n      div\n      0xff\n      and\n      iszero\n      iszero\n      iszero\n      iszero\n      dup2\n      mstore\n      pop\n      pop\n      swap1\n      pop\n        /* \"backEnd/contracts/BUNN_Governor_Proxy.sol\":7355:7359  true */\n      0x01\n        /* \"backEnd/contracts/BUNN_Governor_Proxy.sol\":7327:7342  topic_to_cancel */\n      dup2\n        /* \"backEnd/contracts/BUNN_Governor_Proxy.sol\":7327:7352  topic_to_cancel.cancelled */\n      0x0100\n      add\n        /* \"backEnd/contracts/BUNN_Governor_Proxy.sol\":7327:7359  topic_to_cancel.cancelled = true */\n      swap1\n      iszero\n      iszero\n      swap1\n      dup2\n      iszero\n      iszero\n      dup2\n      mstore\n      pop\n      pop\n        /* \"backEnd/contracts/BUNN_Governor_Proxy.sol\":7260:7366  {... */\n      pop\n        /* \"backEnd/contracts/BUNN_Governor_Proxy.sol\":7201:7366  function cancel_Topic(uint topic_id) public view onlyAdmin {... */\n      pop\n      jump\t// out\n        /* \"backEnd/contracts/BUNN_Governor_Proxy.sol\":8456:8494  function UPGRADE() public onlyAdmin {} */\n    tag_51:\n        /* \"backEnd/contracts/BUNN_Governor_Proxy.sol\":7509:7514  admin */\n      0x04\n        /* \"backEnd/contracts/BUNN_Governor_Proxy.sol\":7509:7526  admin[msg.sender] */\n      0x00\n        /* \"backEnd/contracts/BUNN_Governor_Proxy.sol\":7515:7525  msg.sender */\n      caller\n        /* \"backEnd/contracts/BUNN_Governor_Proxy.sol\":7509:7526  admin[msg.sender] */\n      0xffffffffffffffffffffffffffffffffffffffff\n      and\n      0xffffffffffffffffffffffffffffffffffffffff\n      and\n      dup2\n      mstore\n      0x20\n      add\n      swap1\n      dup2\n      mstore\n      0x20\n      add\n      0x00\n      keccak256\n        /* \"backEnd/contracts/BUNN_Governor_Proxy.sol\":7509:7535  admin[msg.sender].is_admin */\n      0x00\n      add\n      0x00\n      swap1\n      sload\n      swap1\n      0x0100\n      exp\n      swap1\n      div\n      0xff\n      and\n        /* \"backEnd/contracts/BUNN_Governor_Proxy.sol\":7501:7554  require(admin[msg.sender].is_admin, \"ACCESS DENIED!\") */\n      tag_197\n      jumpi\n      mload(0x40)\n      0x08c379a000000000000000000000000000000000000000000000000000000000\n      dup2\n      mstore\n      0x04\n      add\n      tag_198\n      swap1\n      tag_127\n      jump\t// in\n    tag_198:\n      mload(0x40)\n      dup1\n      swap2\n      sub\n      swap1\n      revert\n    tag_197:\n        /* \"backEnd/contracts/BUNN_Governor_Proxy.sol\":8456:8494  function UPGRADE() public onlyAdmin {} */\n      jump\t// out\n        /* \"backEnd/contracts/restrictions.sol\":676:881  function quorum(... */\n    tag_56:\n        /* \"backEnd/contracts/restrictions.sol\":771:775  bool */\n      0x00\n        /* \"backEnd/contracts/restrictions.sol\":787:799  uint256 comp */\n      dup1\n        /* \"backEnd/contracts/restrictions.sol\":802:828  comparison.mulDiv(60, 100) */\n      tag_201\n        /* \"backEnd/contracts/restrictions.sol\":820:822  60 */\n      0x3c\n        /* \"backEnd/contracts/restrictions.sol\":824:827  100 */\n      0x64\n        /* \"backEnd/contracts/restrictions.sol\":802:812  comparison */\n      dup6\n        /* \"backEnd/contracts/restrictions.sol\":802:819  comparison.mulDiv */\n      tag_202\n      swap1\n        /* \"backEnd/contracts/restrictions.sol\":802:828  comparison.mulDiv(60, 100) */\n      swap3\n      swap2\n      swap1\n      0xffffffff\n      and\n      jump\t// in\n    tag_201:\n        /* \"backEnd/contracts/restrictions.sol\":787:828  uint256 comp = comparison.mulDiv(60, 100) */\n      swap1\n      pop\n        /* \"backEnd/contracts/restrictions.sol\":855:859  comp */\n      dup1\n        /* \"backEnd/contracts/restrictions.sol\":845:851  target */\n      dup5\n        /* \"backEnd/contracts/restrictions.sol\":845:859  target >= comp */\n      lt\n      iszero\n        /* \"backEnd/contracts/restrictions.sol\":845:874  target >= comp ? true : false */\n      tag_203\n      jumpi\n        /* \"backEnd/contracts/restrictions.sol\":869:874  false */\n      0x00\n        /* \"backEnd/contracts/restrictions.sol\":845:874  target >= comp ? true : false */\n      jump(tag_204)\n    tag_203:\n        /* \"backEnd/contracts/restrictions.sol\":862:866  true */\n      0x01\n        /* \"backEnd/contracts/restrictions.sol\":845:874  target >= comp ? true : false */\n    tag_204:\n        /* \"backEnd/contracts/restrictions.sol\":838:874  return target >= comp ? true : false */\n      swap2\n      pop\n      pop\n        /* \"backEnd/contracts/restrictions.sol\":676:881  function quorum(... */\n      swap3\n      swap2\n      pop\n      pop\n      jump\t// out\n        /* \"backEnd/contracts/BUNN_Governor_Proxy.sol\":1542:1601  mapping(address => mapping (uint => ballot)) public ballots */\n    tag_63:\n      mstore(0x20, 0x07)\n      dup2\n      0x00\n      mstore\n      mstore(0x20, keccak256(0x00, 0x40))\n      dup1\n      0x00\n      mstore\n      keccak256(0x00, 0x40)\n      0x00\n      swap2\n      pop\n      swap2\n      pop\n      pop\n      dup1\n      0x00\n      add\n      sload\n      swap1\n      dup1\n      0x01\n      add\n      0x00\n      swap1\n      sload\n      swap1\n      0x0100\n      exp\n      swap1\n      div\n      0xff\n      and\n      swap1\n      dup1\n      0x01\n      add\n      0x01\n      swap1\n      sload\n      swap1\n      0x0100\n      exp\n      swap1\n      div\n      0xff\n      and\n      swap1\n      pop\n      dup4\n      jump\t// out\n        /* \"backEnd/contracts/BUNN_Governor_Proxy.sol\":2397:2433  mapping(uint => Topic) public Topics */\n    tag_69:\n      mstore(0x20, 0x0b)\n      dup1\n      0x00\n      mstore\n      keccak256(0x00, 0x40)\n      0x00\n      swap2\n      pop\n      swap1\n      pop\n      dup1\n      0x00\n      add\n      sload\n      swap1\n      dup1\n      0x01\n      add\n      dup1\n      sload\n      tag_205\n      swap1\n      tag_138\n      jump\t// in\n    tag_205:\n      dup1\n      0x1f\n      add\n      0x20\n      dup1\n      swap2\n      div\n      mul\n      0x20\n      add\n      mload(0x40)\n      swap1\n      dup2\n      add\n      0x40\n      mstore\n      dup1\n      swap3\n      swap2\n      swap1\n      dup2\n      dup2\n      mstore\n      0x20\n      add\n      dup3\n      dup1\n      sload\n      tag_206\n      swap1\n      tag_138\n      jump\t// in\n    tag_206:\n      dup1\n      iszero\n      tag_207\n      jumpi\n      dup1\n      0x1f\n      lt\n      tag_208\n      jumpi\n      0x0100\n      dup1\n      dup4\n      sload\n      div\n      mul\n      dup4\n      mstore\n      swap2\n      0x20\n      add\n      swap2\n      jump(tag_207)\n    tag_208:\n      dup3\n      add\n      swap2\n      swap1\n      0x00\n      mstore\n      keccak256(0x00, 0x20)\n      swap1\n    tag_209:\n      dup2\n      sload\n      dup2\n      mstore\n      swap1\n      0x01\n      add\n      swap1\n      0x20\n      add\n      dup1\n      dup4\n      gt\n      tag_209\n      jumpi\n      dup3\n      swap1\n      sub\n      0x1f\n      and\n      dup3\n      add\n      swap2\n    tag_207:\n      pop\n      pop\n      pop\n      pop\n      pop\n      swap1\n      dup1\n      0x02\n      add\n      0x00\n      swap1\n      sload\n      swap1\n      0x0100\n      exp\n      swap1\n      div\n      0xffffffffffffffffffffffffffffffffffffffff\n      and\n      swap1\n      dup1\n      0x03\n      add\n      dup1\n      sload\n      tag_210\n      swap1\n      tag_138\n      jump\t// in\n    tag_210:\n      dup1\n      0x1f\n      add\n      0x20\n      dup1\n      swap2\n      div\n      mul\n      0x20\n      add\n      mload(0x40)\n      swap1\n      dup2\n      add\n      0x40\n      mstore\n      dup1\n      swap3\n      swap2\n      swap1\n      dup2\n      dup2\n      mstore\n      0x20\n      add\n      dup3\n      dup1\n      sload\n      tag_211\n      swap1\n      tag_138\n      jump\t// in\n    tag_211:\n      dup1\n      iszero\n      tag_212\n      jumpi\n      dup1\n      0x1f\n      lt\n      tag_213\n      jumpi\n      0x0100\n      dup1\n      dup4\n      sload\n      div\n      mul\n      dup4\n      mstore\n      swap2\n      0x20\n      add\n      swap2\n      jump(tag_212)\n    tag_213:\n      dup3\n      add\n      swap2\n      swap1\n      0x00\n      mstore\n      keccak256(0x00, 0x20)\n      swap1\n    tag_214:\n      dup2\n      sload\n      dup2\n      mstore\n      swap1\n      0x01\n      add\n      swap1\n      0x20\n      add\n      dup1\n      dup4\n      gt\n      tag_214\n      jumpi\n      dup3\n      swap1\n      sub\n      0x1f\n      and\n      dup3\n      add\n      swap2\n    tag_212:\n      pop\n      pop\n      pop\n      pop\n      pop\n      swap1\n      dup1\n      0x04\n      add\n      0x00\n      swap1\n      sload\n      swap1\n      0x0100\n      exp\n      swap1\n      div\n      0xffffffffffffffffffffffffffffffffffffffff\n      and\n      swap1\n      dup1\n      0x05\n      add\n      dup1\n      sload\n      tag_215\n      swap1\n      tag_138\n      jump\t// in\n    tag_215:\n      dup1\n      0x1f\n      add\n      0x20\n      dup1\n      swap2\n      div\n      mul\n      0x20\n      add\n      mload(0x40)\n      swap1\n      dup2\n      add\n      0x40\n      mstore\n      dup1\n      swap3\n      swap2\n      swap1\n      dup2\n      dup2\n      mstore\n      0x20\n      add\n      dup3\n      dup1\n      sload\n      tag_216\n      swap1\n      tag_138\n      jump\t// in\n    tag_216:\n      dup1\n      iszero\n      tag_217\n      jumpi\n      dup1\n      0x1f\n      lt\n      tag_218\n      jumpi\n      0x0100\n      dup1\n      dup4\n      sload\n      div\n      mul\n      dup4\n      mstore\n      swap2\n      0x20\n      add\n      swap2\n      jump(tag_217)\n    tag_218:\n      dup3\n      add\n      swap2\n      swap1\n      0x00\n      mstore\n      keccak256(0x00, 0x20)\n      swap1\n    tag_219:\n      dup2\n      sload\n      dup2\n      mstore\n      swap1\n      0x01\n      add\n      swap1\n      0x20\n      add\n      dup1\n      dup4\n      gt\n      tag_219\n      jumpi\n      dup3\n      swap1\n      sub\n      0x1f\n      and\n      dup3\n      add\n      swap2\n    tag_217:\n      pop\n      pop\n      pop\n      pop\n      pop\n      swap1\n      dup1\n      0x06\n      add\n      sload\n      swap1\n      dup1\n      0x07\n      add\n      0x00\n      swap1\n      sload\n      swap1\n      0x0100\n      exp\n      swap1\n      div\n      0xff\n      and\n      swap1\n      dup1\n      0x07\n      add\n      0x01\n      swap1\n      sload\n      swap1\n      0x0100\n      exp\n      swap1\n      div\n      0xff\n      and\n      swap1\n      pop\n      dup10\n      jump\t// out\n        /* \"backEnd/contracts/BUNN_Governor_Proxy.sol\":1689:1723  mapping(uint => vote) public votes */\n    tag_75:\n      mstore(0x20, 0x08)\n      dup1\n      0x00\n      mstore\n      keccak256(0x00, 0x40)\n      0x00\n      swap2\n      pop\n      swap1\n      pop\n      dup1\n      0x00\n      add\n      sload\n      swap1\n      dup1\n      0x01\n      add\n      sload\n      swap1\n      pop\n      dup3\n      jump\t// out\n        /* \"backEnd/contracts/BUNN_Governor_Proxy.sol\":2334:2357  uint public counter = 1 */\n    tag_80:\n      sload(0x09)\n      dup2\n      jump\t// out\n        /* \"backEnd/contracts/BUNN_Governor_Proxy.sol\":811:850  mapping(address => admin_) public admin */\n    tag_85:\n      mstore(0x20, 0x04)\n      dup1\n      0x00\n      mstore\n      keccak256(0x00, 0x40)\n      0x00\n      swap2\n      pop\n      swap1\n      pop\n      dup1\n      0x00\n      add\n      0x00\n      swap1\n      sload\n      swap1\n      0x0100\n      exp\n      swap1\n      div\n      0xff\n      and\n      swap1\n      dup1\n      0x01\n      add\n      sload\n      swap1\n      dup1\n      0x02\n      add\n      sload\n      swap1\n      pop\n      dup4\n      jump\t// out\n        /* \"backEnd/contracts/restrictions.sol\":294:337  uint256 public implementation_delay = 86400 */\n    tag_90:\n      sload(0x01)\n      dup2\n      jump\t// out\n        /* \"backEnd/contracts/BUNN_Governor_Proxy.sol\":333:356  uint256 public returned */\n    tag_94:\n      sload(0x03)\n      dup2\n      jump\t// out\n        /* \"backEnd/contracts/BUNN_Governor_Proxy.sol\":7578:7970  function addAdmin(address newAdmin) public onlyAdmin {... */\n    tag_99:\n        /* \"backEnd/contracts/BUNN_Governor_Proxy.sol\":7509:7514  admin */\n      0x04\n        /* \"backEnd/contracts/BUNN_Governor_Proxy.sol\":7509:7526  admin[msg.sender] */\n      0x00\n        /* \"backEnd/contracts/BUNN_Governor_Proxy.sol\":7515:7525  msg.sender */\n      caller\n        /* \"backEnd/contracts/BUNN_Governor_Proxy.sol\":7509:7526  admin[msg.sender] */\n      0xffffffffffffffffffffffffffffffffffffffff\n      and\n      0xffffffffffffffffffffffffffffffffffffffff\n      and\n      dup2\n      mstore\n      0x20\n      add\n      swap1\n      dup2\n      mstore\n      0x20\n      add\n      0x00\n      keccak256\n        /* \"backEnd/contracts/BUNN_Governor_Proxy.sol\":7509:7535  admin[msg.sender].is_admin */\n      0x00\n      add\n      0x00\n      swap1\n      sload\n      swap1\n      0x0100\n      exp\n      swap1\n      div\n      0xff\n      and\n        /* \"backEnd/contracts/BUNN_Governor_Proxy.sol\":7501:7554  require(admin[msg.sender].is_admin, \"ACCESS DENIED!\") */\n      tag_221\n      jumpi\n      mload(0x40)\n      0x08c379a000000000000000000000000000000000000000000000000000000000\n      dup2\n      mstore\n      0x04\n      add\n      tag_222\n      swap1\n      tag_127\n      jump\t// in\n    tag_222:\n      mload(0x40)\n      dup1\n      swap2\n      sub\n      swap1\n      revert\n    tag_221:\n        /* \"backEnd/contracts/BUNN_Governor_Proxy.sol\":7670:7676  admins */\n      0x05\n        /* \"backEnd/contracts/BUNN_Governor_Proxy.sol\":7670:7683  admins.length */\n      dup1\n      sload\n      swap1\n      pop\n        /* \"backEnd/contracts/BUNN_Governor_Proxy.sol\":7644:7649  admin */\n      0x04\n        /* \"backEnd/contracts/BUNN_Governor_Proxy.sol\":7644:7659  admin[newAdmin] */\n      0x00\n        /* \"backEnd/contracts/BUNN_Governor_Proxy.sol\":7650:7658  newAdmin */\n      dup4\n        /* \"backEnd/contracts/BUNN_Governor_Proxy.sol\":7644:7659  admin[newAdmin] */\n      0xffffffffffffffffffffffffffffffffffffffff\n      and\n      0xffffffffffffffffffffffffffffffffffffffff\n      and\n      dup2\n      mstore\n      0x20\n      add\n      swap1\n      dup2\n      mstore\n      0x20\n      add\n      0x00\n      keccak256\n        /* \"backEnd/contracts/BUNN_Governor_Proxy.sol\":7644:7666  admin[newAdmin].adders */\n      0x02\n      add\n      sload\n        /* \"backEnd/contracts/BUNN_Governor_Proxy.sol\":7644:7683  admin[newAdmin].adders >= admins.length */\n      lt\n        /* \"backEnd/contracts/BUNN_Governor_Proxy.sol\":7641:7921  if(admin[newAdmin].adders >= admins.length ){... */\n      tag_224\n      jumpi\n        /* \"backEnd/contracts/BUNN_Governor_Proxy.sol\":7726:7730  true */\n      0x01\n        /* \"backEnd/contracts/BUNN_Governor_Proxy.sol\":7699:7704  admin */\n      0x04\n        /* \"backEnd/contracts/BUNN_Governor_Proxy.sol\":7699:7714  admin[newAdmin] */\n      0x00\n        /* \"backEnd/contracts/BUNN_Governor_Proxy.sol\":7705:7713  newAdmin */\n      dup4\n        /* \"backEnd/contracts/BUNN_Governor_Proxy.sol\":7699:7714  admin[newAdmin] */\n      0xffffffffffffffffffffffffffffffffffffffff\n      and\n      0xffffffffffffffffffffffffffffffffffffffff\n      and\n      dup2\n      mstore\n      0x20\n      add\n      swap1\n      dup2\n      mstore\n      0x20\n      add\n      0x00\n      keccak256\n        /* \"backEnd/contracts/BUNN_Governor_Proxy.sol\":7699:7723  admin[newAdmin].is_admin */\n      0x00\n      add\n      0x00\n        /* \"backEnd/contracts/BUNN_Governor_Proxy.sol\":7699:7730  admin[newAdmin].is_admin = true */\n      0x0100\n      exp\n      dup2\n      sload\n      dup2\n      0xff\n      mul\n      not\n      and\n      swap1\n      dup4\n      iszero\n      iszero\n      mul\n      or\n      swap1\n      sstore\n      pop\n        /* \"backEnd/contracts/BUNN_Governor_Proxy.sol\":7744:7750  admins */\n      0x05\n        /* \"backEnd/contracts/BUNN_Governor_Proxy.sol\":7756:7764  newAdmin */\n      dup2\n        /* \"backEnd/contracts/BUNN_Governor_Proxy.sol\":7744:7765  admins.push(newAdmin) */\n      swap1\n      dup1\n      0x01\n      dup2\n      sload\n      add\n      dup1\n      dup3\n      sstore\n      dup1\n      swap2\n      pop\n      pop\n      0x01\n      swap1\n      sub\n      swap1\n      0x00\n      mstore\n      keccak256(0x00, 0x20)\n      add\n      0x00\n      swap1\n      swap2\n      swap1\n      swap2\n      swap1\n      swap2\n      0x0100\n      exp\n      dup2\n      sload\n      dup2\n      0xffffffffffffffffffffffffffffffffffffffff\n      mul\n      not\n      and\n      swap1\n      dup4\n      0xffffffffffffffffffffffffffffffffffffffff\n      and\n      mul\n      or\n      swap1\n      sstore\n      pop\n        /* \"backEnd/contracts/BUNN_Governor_Proxy.sol\":7829:7830  1 */\n      0x01\n        /* \"backEnd/contracts/BUNN_Governor_Proxy.sol\":7804:7809  admin */\n      0x04\n        /* \"backEnd/contracts/BUNN_Governor_Proxy.sol\":7804:7819  admin[newAdmin] */\n      0x00\n        /* \"backEnd/contracts/BUNN_Governor_Proxy.sol\":7810:7818  newAdmin */\n      dup4\n        /* \"backEnd/contracts/BUNN_Governor_Proxy.sol\":7804:7819  admin[newAdmin] */\n      0xffffffffffffffffffffffffffffffffffffffff\n      and\n      0xffffffffffffffffffffffffffffffffffffffff\n      and\n      dup2\n      mstore\n      0x20\n      add\n      swap1\n      dup2\n      mstore\n      0x20\n      add\n      0x00\n      keccak256\n        /* \"backEnd/contracts/BUNN_Governor_Proxy.sol\":7804:7826  admin[newAdmin].adders */\n      0x02\n      add\n      sload\n        /* \"backEnd/contracts/BUNN_Governor_Proxy.sol\":7804:7830  admin[newAdmin].adders + 1 */\n      tag_226\n      swap2\n      swap1\n      tag_133\n      jump\t// in\n    tag_226:\n        /* \"backEnd/contracts/BUNN_Governor_Proxy.sol\":7779:7784  admin */\n      0x04\n        /* \"backEnd/contracts/BUNN_Governor_Proxy.sol\":7779:7794  admin[newAdmin] */\n      0x00\n        /* \"backEnd/contracts/BUNN_Governor_Proxy.sol\":7785:7793  newAdmin */\n      dup4\n        /* \"backEnd/contracts/BUNN_Governor_Proxy.sol\":7779:7794  admin[newAdmin] */\n      0xffffffffffffffffffffffffffffffffffffffff\n      and\n      0xffffffffffffffffffffffffffffffffffffffff\n      and\n      dup2\n      mstore\n      0x20\n      add\n      swap1\n      dup2\n      mstore\n      0x20\n      add\n      0x00\n      keccak256\n        /* \"backEnd/contracts/BUNN_Governor_Proxy.sol\":7779:7801  admin[newAdmin].adders */\n      0x02\n      add\n        /* \"backEnd/contracts/BUNN_Governor_Proxy.sol\":7779:7830  admin[newAdmin].adders = admin[newAdmin].adders + 1 */\n      dup2\n      swap1\n      sstore\n      pop\n        /* \"backEnd/contracts/BUNN_Governor_Proxy.sol\":7641:7921  if(admin[newAdmin].adders >= admins.length ){... */\n      jump(tag_227)\n    tag_224:\n        /* \"backEnd/contracts/BUNN_Governor_Proxy.sol\":7909:7910  1 */\n      0x01\n        /* \"backEnd/contracts/BUNN_Governor_Proxy.sol\":7884:7889  admin */\n      0x04\n        /* \"backEnd/contracts/BUNN_Governor_Proxy.sol\":7884:7899  admin[newAdmin] */\n      0x00\n        /* \"backEnd/contracts/BUNN_Governor_Proxy.sol\":7890:7898  newAdmin */\n      dup4\n        /* \"backEnd/contracts/BUNN_Governor_Proxy.sol\":7884:7899  admin[newAdmin] */\n      0xffffffffffffffffffffffffffffffffffffffff\n      and\n      0xffffffffffffffffffffffffffffffffffffffff\n      and\n      dup2\n      mstore\n      0x20\n      add\n      swap1\n      dup2\n      mstore\n      0x20\n      add\n      0x00\n      keccak256\n        /* \"backEnd/contracts/BUNN_Governor_Proxy.sol\":7884:7906  admin[newAdmin].adders */\n      0x02\n      add\n      sload\n        /* \"backEnd/contracts/BUNN_Governor_Proxy.sol\":7884:7910  admin[newAdmin].adders + 1 */\n      tag_228\n      swap2\n      swap1\n      tag_133\n      jump\t// in\n    tag_228:\n        /* \"backEnd/contracts/BUNN_Governor_Proxy.sol\":7859:7864  admin */\n      0x04\n        /* \"backEnd/contracts/BUNN_Governor_Proxy.sol\":7859:7874  admin[newAdmin] */\n      0x00\n        /* \"backEnd/contracts/BUNN_Governor_Proxy.sol\":7865:7873  newAdmin */\n      dup4\n        /* \"backEnd/contracts/BUNN_Governor_Proxy.sol\":7859:7874  admin[newAdmin] */\n      0xffffffffffffffffffffffffffffffffffffffff\n      and\n      0xffffffffffffffffffffffffffffffffffffffff\n      and\n      dup2\n      mstore\n      0x20\n      add\n      swap1\n      dup2\n      mstore\n      0x20\n      add\n      0x00\n      keccak256\n        /* \"backEnd/contracts/BUNN_Governor_Proxy.sol\":7859:7881  admin[newAdmin].adders */\n      0x02\n      add\n        /* \"backEnd/contracts/BUNN_Governor_Proxy.sol\":7859:7910  admin[newAdmin].adders = admin[newAdmin].adders + 1 */\n      dup2\n      swap1\n      sstore\n      pop\n        /* \"backEnd/contracts/BUNN_Governor_Proxy.sol\":7641:7921  if(admin[newAdmin].adders >= admins.length ){... */\n    tag_227:\n        /* \"backEnd/contracts/BUNN_Governor_Proxy.sol\":7954:7962  newAdmin */\n      dup1\n        /* \"backEnd/contracts/BUNN_Governor_Proxy.sol\":7944:7963  new_Admin(newAdmin) */\n      0xffffffffffffffffffffffffffffffffffffffff\n      and\n      0xe0c21bf57df59cfc5e2067c75dbfd51a39f17533352ce1cf3a6c713c897a6c0c\n      mload(0x40)\n      mload(0x40)\n      dup1\n      swap2\n      sub\n      swap1\n      log2\n        /* \"backEnd/contracts/BUNN_Governor_Proxy.sol\":7578:7970  function addAdmin(address newAdmin) public onlyAdmin {... */\n      pop\n      jump\t// out\n        /* \"backEnd/contracts/BUNN_Governor_Proxy.sol\":3535:4404  function initiate_topic(... */\n    tag_104:\n        /* \"backEnd/contracts/BUNN_Governor_Proxy.sol\":3765:3772  Members */\n      0x06\n        /* \"backEnd/contracts/BUNN_Governor_Proxy.sol\":3765:3784  Members[msg.sender] */\n      0x00\n        /* \"backEnd/contracts/BUNN_Governor_Proxy.sol\":3773:3783  msg.sender */\n      caller\n        /* \"backEnd/contracts/BUNN_Governor_Proxy.sol\":3765:3784  Members[msg.sender] */\n      0xffffffffffffffffffffffffffffffffffffffff\n      and\n      0xffffffffffffffffffffffffffffffffffffffff\n      and\n      dup2\n      mstore\n      0x20\n      add\n      swap1\n      dup2\n      mstore\n      0x20\n      add\n      0x00\n      keccak256\n        /* \"backEnd/contracts/BUNN_Governor_Proxy.sol\":3765:3792  Members[msg.sender].belongs */\n      0x01\n      add\n      0x00\n      swap1\n      sload\n      swap1\n      0x0100\n      exp\n      swap1\n      div\n      0xff\n      and\n        /* \"backEnd/contracts/BUNN_Governor_Proxy.sol\":3757:3809  require(Members[msg.sender].belongs, \"NOT A MEMBER\") */\n      tag_230\n      jumpi\n      mload(0x40)\n      0x08c379a000000000000000000000000000000000000000000000000000000000\n      dup2\n      mstore\n      0x04\n      add\n      tag_231\n      swap1\n      tag_155\n      jump\t// in\n    tag_231:\n      mload(0x40)\n      dup1\n      swap2\n      sub\n      swap1\n      revert\n    tag_230:\n        /* \"backEnd/contracts/BUNN_Governor_Proxy.sol\":3820:3842  Topic memory new_topic */\n      0x00\n        /* \"backEnd/contracts/BUNN_Governor_Proxy.sol\":3845:4194  Topic({... */\n      mload(0x40)\n      dup1\n      0x0120\n      add\n      0x40\n      mstore\n      dup1\n        /* \"backEnd/contracts/BUNN_Governor_Proxy.sol\":3869:3876  counter */\n      sload(0x09)\n        /* \"backEnd/contracts/BUNN_Governor_Proxy.sol\":3845:4194  Topic({... */\n      dup2\n      mstore\n      0x20\n      add\n        /* \"backEnd/contracts/BUNN_Governor_Proxy.sol\":3897:3903  title_ */\n      dup7\n        /* \"backEnd/contracts/BUNN_Governor_Proxy.sol\":3845:4194  Topic({... */\n      dup2\n      mstore\n      0x20\n      add\n        /* \"backEnd/contracts/BUNN_Governor_Proxy.sol\":3928:3938  msg.sender */\n      caller\n        /* \"backEnd/contracts/BUNN_Governor_Proxy.sol\":3845:4194  Topic({... */\n      0xffffffffffffffffffffffffffffffffffffffff\n      and\n      dup2\n      mstore\n      0x20\n      add\n        /* \"backEnd/contracts/BUNN_Governor_Proxy.sol\":3961:3969  details_ */\n      dup6\n        /* \"backEnd/contracts/BUNN_Governor_Proxy.sol\":3845:4194  Topic({... */\n      dup2\n      mstore\n      0x20\n      add\n        /* \"backEnd/contracts/BUNN_Governor_Proxy.sol\":4016:4048  implementation_contract_address_ */\n      dup5\n        /* \"backEnd/contracts/BUNN_Governor_Proxy.sol\":3845:4194  Topic({... */\n      0xffffffffffffffffffffffffffffffffffffffff\n      and\n      dup2\n      mstore\n      0x20\n      add\n        /* \"backEnd/contracts/BUNN_Governor_Proxy.sol\":4073:4083  signature_ */\n      dup4\n        /* \"backEnd/contracts/BUNN_Governor_Proxy.sol\":3845:4194  Topic({... */\n      dup2\n      mstore\n      0x20\n      add\n        /* \"backEnd/contracts/BUNN_Governor_Proxy.sol\":4109:4124  block.timestamp */\n      timestamp\n        /* \"backEnd/contracts/BUNN_Governor_Proxy.sol\":3845:4194  Topic({... */\n      dup2\n      mstore\n      0x20\n      add\n        /* \"backEnd/contracts/BUNN_Governor_Proxy.sol\":4148:4153  false */\n      0x00\n        /* \"backEnd/contracts/BUNN_Governor_Proxy.sol\":3845:4194  Topic({... */\n      iszero\n      iszero\n      dup2\n      mstore\n      0x20\n      add\n        /* \"backEnd/contracts/BUNN_Governor_Proxy.sol\":4178:4183  false */\n      0x00\n        /* \"backEnd/contracts/BUNN_Governor_Proxy.sol\":3845:4194  Topic({... */\n      iszero\n      iszero\n      dup2\n      mstore\n      pop\n        /* \"backEnd/contracts/BUNN_Governor_Proxy.sol\":3820:4194  Topic memory new_topic = Topic({... */\n      swap1\n      pop\n        /* \"backEnd/contracts/BUNN_Governor_Proxy.sol\":4299:4308  new_topic */\n      dup1\n        /* \"backEnd/contracts/BUNN_Governor_Proxy.sol\":4276:4282  Topics */\n      0x0b\n        /* \"backEnd/contracts/BUNN_Governor_Proxy.sol\":4276:4296  Topics[new_topic.id] */\n      0x00\n        /* \"backEnd/contracts/BUNN_Governor_Proxy.sol\":4283:4292  new_topic */\n      dup4\n        /* \"backEnd/contracts/BUNN_Governor_Proxy.sol\":4283:4295  new_topic.id */\n      0x00\n      add\n      mload\n        /* \"backEnd/contracts/BUNN_Governor_Proxy.sol\":4276:4296  Topics[new_topic.id] */\n      dup2\n      mstore\n      0x20\n      add\n      swap1\n      dup2\n      mstore\n      0x20\n      add\n      0x00\n      keccak256\n        /* \"backEnd/contracts/BUNN_Governor_Proxy.sol\":4276:4308  Topics[new_topic.id] = new_topic */\n      0x00\n      dup3\n      add\n      mload\n      dup2\n      0x00\n      add\n      sstore\n      0x20\n      dup3\n      add\n      mload\n      dup2\n      0x01\n      add\n      swap1\n      dup2\n      tag_232\n      swap2\n      swap1\n      tag_233\n      jump\t// in\n    tag_232:\n      pop\n      0x40\n      dup3\n      add\n      mload\n      dup2\n      0x02\n      add\n      exp(0x0100, 0x00)\n      dup2\n      sload\n      dup2\n      0xffffffffffffffffffffffffffffffffffffffff\n      mul\n      not\n      and\n      swap1\n      dup4\n      0xffffffffffffffffffffffffffffffffffffffff\n      and\n      mul\n      or\n      swap1\n      sstore\n      pop\n      0x60\n      dup3\n      add\n      mload\n      dup2\n      0x03\n      add\n      swap1\n      dup2\n      tag_234\n      swap2\n      swap1\n      tag_233\n      jump\t// in\n    tag_234:\n      pop\n      0x80\n      dup3\n      add\n      mload\n      dup2\n      0x04\n      add\n      exp(0x0100, 0x00)\n      dup2\n      sload\n      dup2\n      0xffffffffffffffffffffffffffffffffffffffff\n      mul\n      not\n      and\n      swap1\n      dup4\n      0xffffffffffffffffffffffffffffffffffffffff\n      and\n      mul\n      or\n      swap1\n      sstore\n      pop\n      0xa0\n      dup3\n      add\n      mload\n      dup2\n      0x05\n      add\n      swap1\n      dup2\n      tag_235\n      swap2\n      swap1\n      tag_233\n      jump\t// in\n    tag_235:\n      pop\n      0xc0\n      dup3\n      add\n      mload\n      dup2\n      0x06\n      add\n      sstore\n      0xe0\n      dup3\n      add\n      mload\n      dup2\n      0x07\n      add\n      exp(0x0100, 0x00)\n      dup2\n      sload\n      dup2\n      0xff\n      mul\n      not\n      and\n      swap1\n      dup4\n      iszero\n      iszero\n      mul\n      or\n      swap1\n      sstore\n      pop\n      0x0100\n      dup3\n      add\n      mload\n      dup2\n      0x07\n      add\n      exp(0x0100, 0x01)\n      dup2\n      sload\n      dup2\n      0xff\n      mul\n      not\n      and\n      swap1\n      dup4\n      iszero\n      iszero\n      mul\n      or\n      swap1\n      sstore\n      pop\n      swap1\n      pop\n      pop\n        /* \"backEnd/contracts/BUNN_Governor_Proxy.sol\":4339:4340  1 */\n      0x01\n        /* \"backEnd/contracts/BUNN_Governor_Proxy.sol\":4329:4336  counter */\n      sload(0x09)\n        /* \"backEnd/contracts/BUNN_Governor_Proxy.sol\":4329:4340  counter + 1 */\n      tag_236\n      swap2\n      swap1\n      tag_133\n      jump\t// in\n    tag_236:\n        /* \"backEnd/contracts/BUNN_Governor_Proxy.sol\":4319:4326  counter */\n      0x09\n        /* \"backEnd/contracts/BUNN_Governor_Proxy.sol\":4319:4340  counter = counter + 1 */\n      dup2\n      swap1\n      sstore\n      pop\n        /* \"backEnd/contracts/BUNN_Governor_Proxy.sol\":4369:4379  msg.sender */\n      caller\n        /* \"backEnd/contracts/BUNN_Governor_Proxy.sol\":4355:4397  proposal_made(msg.sender, new_topic.title) */\n      0xffffffffffffffffffffffffffffffffffffffff\n      and\n      0xa0236bc57e83de3883ef92ce123949a84eacc1f18abb3808f17239c67fa3df9b\n        /* \"backEnd/contracts/BUNN_Governor_Proxy.sol\":4381:4390  new_topic */\n      dup3\n        /* \"backEnd/contracts/BUNN_Governor_Proxy.sol\":4381:4396  new_topic.title */\n      0x20\n      add\n      mload\n        /* \"backEnd/contracts/BUNN_Governor_Proxy.sol\":4355:4397  proposal_made(msg.sender, new_topic.title) */\n      mload(0x40)\n      tag_237\n      swap2\n      swap1\n      tag_238\n      jump\t// in\n    tag_237:\n      mload(0x40)\n      dup1\n      swap2\n      sub\n      swap1\n      log2\n        /* \"backEnd/contracts/BUNN_Governor_Proxy.sol\":3719:4404  {... */\n      pop\n        /* \"backEnd/contracts/BUNN_Governor_Proxy.sol\":3535:4404  function initiate_topic(... */\n      pop\n      pop\n      pop\n      pop\n      jump\t// out\n        /* \"backEnd/contracts/BUNN_Governor_Proxy.sol\":5907:7195  function implement_decision(... */\n    tag_107:\n        /* \"backEnd/contracts/BUNN_Governor_Proxy.sol\":7509:7514  admin */\n      0x04\n        /* \"backEnd/contracts/BUNN_Governor_Proxy.sol\":7509:7526  admin[msg.sender] */\n      0x00\n        /* \"backEnd/contracts/BUNN_Governor_Proxy.sol\":7515:7525  msg.sender */\n      caller\n        /* \"backEnd/contracts/BUNN_Governor_Proxy.sol\":7509:7526  admin[msg.sender] */\n      0xffffffffffffffffffffffffffffffffffffffff\n      and\n      0xffffffffffffffffffffffffffffffffffffffff\n      and\n      dup2\n      mstore\n      0x20\n      add\n      swap1\n      dup2\n      mstore\n      0x20\n      add\n      0x00\n      keccak256\n        /* \"backEnd/contracts/BUNN_Governor_Proxy.sol\":7509:7535  admin[msg.sender].is_admin */\n      0x00\n      add\n      0x00\n      swap1\n      sload\n      swap1\n      0x0100\n      exp\n      swap1\n      div\n      0xff\n      and\n        /* \"backEnd/contracts/BUNN_Governor_Proxy.sol\":7501:7554  require(admin[msg.sender].is_admin, \"ACCESS DENIED!\") */\n      tag_240\n      jumpi\n      mload(0x40)\n      0x08c379a000000000000000000000000000000000000000000000000000000000\n      dup2\n      mstore\n      0x04\n      add\n      tag_241\n      swap1\n      tag_127\n      jump\t// in\n    tag_241:\n      mload(0x40)\n      dup1\n      swap2\n      sub\n      swap1\n      revert\n    tag_240:\n        /* \"backEnd/contracts/BUNN_Governor_Proxy.sol\":5998:6029  Topic memory topic_to_implement */\n      tag_243\n      tag_244\n      jump\t// in\n    tag_243:\n        /* \"backEnd/contracts/BUNN_Governor_Proxy.sol\":6039:6070  address implementation_contract */\n      0x00\n        /* \"backEnd/contracts/BUNN_Governor_Proxy.sol\":6080:6103  string memory signature */\n      0x60\n        /* \"backEnd/contracts/BUNN_Governor_Proxy.sol\":6135:6141  Topics */\n      0x0b\n        /* \"backEnd/contracts/BUNN_Governor_Proxy.sol\":6135:6151  Topics[topic_id] */\n      0x00\n        /* \"backEnd/contracts/BUNN_Governor_Proxy.sol\":6142:6150  topic_id */\n      dup6\n        /* \"backEnd/contracts/BUNN_Governor_Proxy.sol\":6135:6151  Topics[topic_id] */\n      dup2\n      mstore\n      0x20\n      add\n      swap1\n      dup2\n      mstore\n      0x20\n      add\n      0x00\n      keccak256\n        /* \"backEnd/contracts/BUNN_Governor_Proxy.sol\":6114:6151  topic_to_implement = Topics[topic_id] */\n      mload(0x40)\n      dup1\n      0x0120\n      add\n      0x40\n      mstore\n      swap1\n      dup2\n      0x00\n      dup3\n      add\n      sload\n      dup2\n      mstore\n      0x20\n      add\n      0x01\n      dup3\n      add\n      dup1\n      sload\n      tag_245\n      swap1\n      tag_138\n      jump\t// in\n    tag_245:\n      dup1\n      0x1f\n      add\n      0x20\n      dup1\n      swap2\n      div\n      mul\n      0x20\n      add\n      mload(0x40)\n      swap1\n      dup2\n      add\n      0x40\n      mstore\n      dup1\n      swap3\n      swap2\n      swap1\n      dup2\n      dup2\n      mstore\n      0x20\n      add\n      dup3\n      dup1\n      sload\n      tag_246\n      swap1\n      tag_138\n      jump\t// in\n    tag_246:\n      dup1\n      iszero\n      tag_247\n      jumpi\n      dup1\n      0x1f\n      lt\n      tag_248\n      jumpi\n      0x0100\n      dup1\n      dup4\n      sload\n      div\n      mul\n      dup4\n      mstore\n      swap2\n      0x20\n      add\n      swap2\n      jump(tag_247)\n    tag_248:\n      dup3\n      add\n      swap2\n      swap1\n      0x00\n      mstore\n      keccak256(0x00, 0x20)\n      swap1\n    tag_249:\n      dup2\n      sload\n      dup2\n      mstore\n      swap1\n      0x01\n      add\n      swap1\n      0x20\n      add\n      dup1\n      dup4\n      gt\n      tag_249\n      jumpi\n      dup3\n      swap1\n      sub\n      0x1f\n      and\n      dup3\n      add\n      swap2\n    tag_247:\n      pop\n      pop\n      pop\n      pop\n      pop\n      dup2\n      mstore\n      0x20\n      add\n      0x02\n      dup3\n      add\n      0x00\n      swap1\n      sload\n      swap1\n      0x0100\n      exp\n      swap1\n      div\n      0xffffffffffffffffffffffffffffffffffffffff\n      and\n      0xffffffffffffffffffffffffffffffffffffffff\n      and\n      0xffffffffffffffffffffffffffffffffffffffff\n      and\n      dup2\n      mstore\n      0x20\n      add\n      0x03\n      dup3\n      add\n      dup1\n      sload\n      tag_250\n      swap1\n      tag_138\n      jump\t// in\n    tag_250:\n      dup1\n      0x1f\n      add\n      0x20\n      dup1\n      swap2\n      div\n      mul\n      0x20\n      add\n      mload(0x40)\n      swap1\n      dup2\n      add\n      0x40\n      mstore\n      dup1\n      swap3\n      swap2\n      swap1\n      dup2\n      dup2\n      mstore\n      0x20\n      add\n      dup3\n      dup1\n      sload\n      tag_251\n      swap1\n      tag_138\n      jump\t// in\n    tag_251:\n      dup1\n      iszero\n      tag_252\n      jumpi\n      dup1\n      0x1f\n      lt\n      tag_253\n      jumpi\n      0x0100\n      dup1\n      dup4\n      sload\n      div\n      mul\n      dup4\n      mstore\n      swap2\n      0x20\n      add\n      swap2\n      jump(tag_252)\n    tag_253:\n      dup3\n      add\n      swap2\n      swap1\n      0x00\n      mstore\n      keccak256(0x00, 0x20)\n      swap1\n    tag_254:\n      dup2\n      sload\n      dup2\n      mstore\n      swap1\n      0x01\n      add\n      swap1\n      0x20\n      add\n      dup1\n      dup4\n      gt\n      tag_254\n      jumpi\n      dup3\n      swap1\n      sub\n      0x1f\n      and\n      dup3\n      add\n      swap2\n    tag_252:\n      pop\n      pop\n      pop\n      pop\n      pop\n      dup2\n      mstore\n      0x20\n      add\n      0x04\n      dup3\n      add\n      0x00\n      swap1\n      sload\n      swap1\n      0x0100\n      exp\n      swap1\n      div\n      0xffffffffffffffffffffffffffffffffffffffff\n      and\n      0xffffffffffffffffffffffffffffffffffffffff\n      and\n      0xffffffffffffffffffffffffffffffffffffffff\n      and\n      dup2\n      mstore\n      0x20\n      add\n      0x05\n      dup3\n      add\n      dup1\n      sload\n      tag_255\n      swap1\n      tag_138\n      jump\t// in\n    tag_255:\n      dup1\n      0x1f\n      add\n      0x20\n      dup1\n      swap2\n      div\n      mul\n      0x20\n      add\n      mload(0x40)\n      swap1\n      dup2\n      add\n      0x40\n      mstore\n      dup1\n      swap3\n      swap2\n      swap1\n      dup2\n      dup2\n      mstore\n      0x20\n      add\n      dup3\n      dup1\n      sload\n      tag_256\n      swap1\n      tag_138\n      jump\t// in\n    tag_256:\n      dup1\n      iszero\n      tag_257\n      jumpi\n      dup1\n      0x1f\n      lt\n      tag_258\n      jumpi\n      0x0100\n      dup1\n      dup4\n      sload\n      div\n      mul\n      dup4\n      mstore\n      swap2\n      0x20\n      add\n      swap2\n      jump(tag_257)\n    tag_258:\n      dup3\n      add\n      swap2\n      swap1\n      0x00\n      mstore\n      keccak256(0x00, 0x20)\n      swap1\n    tag_259:\n      dup2\n      sload\n      dup2\n      mstore\n      swap1\n      0x01\n      add\n      swap1\n      0x20\n      add\n      dup1\n      dup4\n      gt\n      tag_259\n      jumpi\n      dup3\n      swap1\n      sub\n      0x1f\n      and\n      dup3\n      add\n      swap2\n    tag_257:\n      pop\n      pop\n      pop\n      pop\n      pop\n      dup2\n      mstore\n      0x20\n      add\n      0x06\n      dup3\n      add\n      sload\n      dup2\n      mstore\n      0x20\n      add\n      0x07\n      dup3\n      add\n      0x00\n      swap1\n      sload\n      swap1\n      0x0100\n      exp\n      swap1\n      div\n      0xff\n      and\n      iszero\n      iszero\n      iszero\n      iszero\n      dup2\n      mstore\n      0x20\n      add\n      0x07\n      dup3\n      add\n      0x01\n      swap1\n      sload\n      swap1\n      0x0100\n      exp\n      swap1\n      div\n      0xff\n      and\n      iszero\n      iszero\n      iszero\n      iszero\n      dup2\n      mstore\n      pop\n      pop\n      swap3\n      pop\n        /* \"backEnd/contracts/BUNN_Governor_Proxy.sol\":6187:6205  topic_to_implement */\n      dup3\n        /* \"backEnd/contracts/BUNN_Governor_Proxy.sol\":6187:6237  topic_to_implement.implementation_contract_address */\n      0x80\n      add\n      mload\n        /* \"backEnd/contracts/BUNN_Governor_Proxy.sol\":6161:6237  implementation_contract = topic_to_implement.implementation_contract_address */\n      swap2\n      pop\n        /* \"backEnd/contracts/BUNN_Governor_Proxy.sol\":6259:6277  topic_to_implement */\n      dup3\n        /* \"backEnd/contracts/BUNN_Governor_Proxy.sol\":6259:6287  topic_to_implement.signature */\n      0xa0\n      add\n      mload\n        /* \"backEnd/contracts/BUNN_Governor_Proxy.sol\":6247:6287  signature = topic_to_implement.signature */\n      swap1\n      pop\n        /* \"backEnd/contracts/BUNN_Governor_Proxy.sol\":6361:6380  uint256 total_votes */\n      0x00\n        /* \"backEnd/contracts/BUNN_Governor_Proxy.sol\":6411:6416  votes */\n      0x08\n        /* \"backEnd/contracts/BUNN_Governor_Proxy.sol\":6411:6426  votes[topic_id] */\n      0x00\n        /* \"backEnd/contracts/BUNN_Governor_Proxy.sol\":6417:6425  topic_id */\n      dup7\n        /* \"backEnd/contracts/BUNN_Governor_Proxy.sol\":6411:6426  votes[topic_id] */\n      dup2\n      mstore\n      0x20\n      add\n      swap1\n      dup2\n      mstore\n      0x20\n      add\n      0x00\n      keccak256\n        /* \"backEnd/contracts/BUNN_Governor_Proxy.sol\":6411:6440  votes[topic_id].against_votes */\n      0x01\n      add\n      sload\n        /* \"backEnd/contracts/BUNN_Governor_Proxy.sol\":6383:6388  votes */\n      0x08\n        /* \"backEnd/contracts/BUNN_Governor_Proxy.sol\":6383:6398  votes[topic_id] */\n      0x00\n        /* \"backEnd/contracts/BUNN_Governor_Proxy.sol\":6389:6397  topic_id */\n      dup8\n        /* \"backEnd/contracts/BUNN_Governor_Proxy.sol\":6383:6398  votes[topic_id] */\n      dup2\n      mstore\n      0x20\n      add\n      swap1\n      dup2\n      mstore\n      0x20\n      add\n      0x00\n      keccak256\n        /* \"backEnd/contracts/BUNN_Governor_Proxy.sol\":6383:6408  votes[topic_id].for_votes */\n      0x00\n      add\n      sload\n        /* \"backEnd/contracts/BUNN_Governor_Proxy.sol\":6383:6440  votes[topic_id].for_votes + votes[topic_id].against_votes */\n      tag_260\n      swap2\n      swap1\n      tag_133\n      jump\t// in\n    tag_260:\n        /* \"backEnd/contracts/BUNN_Governor_Proxy.sol\":6361:6440  uint256 total_votes = votes[topic_id].for_votes + votes[topic_id].against_votes */\n      swap1\n      pop\n        /* \"backEnd/contracts/BUNN_Governor_Proxy.sol\":6458:6504  quorum(votes[topic_id].for_votes, total_votes) */\n      tag_261\n        /* \"backEnd/contracts/BUNN_Governor_Proxy.sol\":6465:6470  votes */\n      0x08\n        /* \"backEnd/contracts/BUNN_Governor_Proxy.sol\":6465:6480  votes[topic_id] */\n      0x00\n        /* \"backEnd/contracts/BUNN_Governor_Proxy.sol\":6471:6479  topic_id */\n      dup8\n        /* \"backEnd/contracts/BUNN_Governor_Proxy.sol\":6465:6480  votes[topic_id] */\n      dup2\n      mstore\n      0x20\n      add\n      swap1\n      dup2\n      mstore\n      0x20\n      add\n      0x00\n      keccak256\n        /* \"backEnd/contracts/BUNN_Governor_Proxy.sol\":6465:6490  votes[topic_id].for_votes */\n      0x00\n      add\n      sload\n        /* \"backEnd/contracts/BUNN_Governor_Proxy.sol\":6492:6503  total_votes */\n      dup3\n        /* \"backEnd/contracts/BUNN_Governor_Proxy.sol\":6458:6464  quorum */\n      tag_56\n        /* \"backEnd/contracts/BUNN_Governor_Proxy.sol\":6458:6504  quorum(votes[topic_id].for_votes, total_votes) */\n      jump\t// in\n    tag_261:\n        /* \"backEnd/contracts/BUNN_Governor_Proxy.sol\":6450:6531  require(quorum(votes[topic_id].for_votes, total_votes), \"THRESHOLD NOT EXCEEDED\") */\n      tag_262\n      jumpi\n      mload(0x40)\n      0x08c379a000000000000000000000000000000000000000000000000000000000\n      dup2\n      mstore\n      0x04\n      add\n      tag_263\n      swap1\n      tag_264\n      jump\t// in\n    tag_263:\n      mload(0x40)\n      dup1\n      swap2\n      sub\n      swap1\n      revert\n    tag_262:\n        /* \"backEnd/contracts/BUNN_Governor_Proxy.sol\":6604:6622  topic_to_implement */\n      dup4\n        /* \"backEnd/contracts/BUNN_Governor_Proxy.sol\":6604:6632  topic_to_implement.cancelled */\n      0x0100\n      add\n      mload\n        /* \"backEnd/contracts/BUNN_Governor_Proxy.sol\":6596:6660  require(topic_to_implement.cancelled, \"THIS TOPIC IS CANCELLED\") */\n      tag_265\n      jumpi\n      mload(0x40)\n      0x08c379a000000000000000000000000000000000000000000000000000000000\n      dup2\n      mstore\n      0x04\n      add\n      tag_266\n      swap1\n      tag_267\n      jump\t// in\n    tag_266:\n      mload(0x40)\n      dup1\n      swap2\n      sub\n      swap1\n      revert\n    tag_265:\n        /* \"backEnd/contracts/BUNN_Governor_Proxy.sol\":6725:6743  topic_to_implement */\n      dup4\n        /* \"backEnd/contracts/BUNN_Governor_Proxy.sol\":6725:6752  topic_to_implement.executed */\n      0xe0\n      add\n      mload\n        /* \"backEnd/contracts/BUNN_Governor_Proxy.sol\":6724:6752  !topic_to_implement.executed */\n      iszero\n        /* \"backEnd/contracts/BUNN_Governor_Proxy.sol\":6716:6791  require(!topic_to_implement.executed, \"TOPIC CAN ONLY BE IMPLEMENTED ONCE\") */\n      tag_268\n      jumpi\n      mload(0x40)\n      0x08c379a000000000000000000000000000000000000000000000000000000000\n      dup2\n      mstore\n      0x04\n      add\n      tag_269\n      swap1\n      tag_270\n      jump\t// in\n    tag_269:\n      mload(0x40)\n      dup1\n      swap2\n      sub\n      swap1\n      revert\n    tag_268:\n        /* \"backEnd/contracts/BUNN_Governor_Proxy.sol\":6829:6841  bool success */\n      0x00\n        /* \"backEnd/contracts/BUNN_Governor_Proxy.sol\":6842:6868  bytes memory returned_data */\n      dup1\n        /* \"backEnd/contracts/BUNN_Governor_Proxy.sol\":6872:6895  implementation_contract */\n      dup5\n        /* \"backEnd/contracts/BUNN_Governor_Proxy.sol\":6872:6900  implementation_contract.call */\n      0xffffffffffffffffffffffffffffffffffffffff\n      and\n        /* \"backEnd/contracts/BUNN_Governor_Proxy.sol\":6908:6917  msg.value */\n      callvalue\n        /* \"backEnd/contracts/BUNN_Governor_Proxy.sol\":6943:6952  signature */\n      dup6\n        /* \"backEnd/contracts/BUNN_Governor_Proxy.sol\":6919:6953  abi.encodeWithSignature(signature) */\n      add(0x24, mload(0x40))\n      mload(0x40)\n      0x20\n      dup2\n      dup4\n      sub\n      sub\n      dup2\n      mstore\n      swap1\n      0x40\n      mstore\n      swap1\n      mload(0x40)\n      tag_271\n      swap2\n      swap1\n      tag_272\n      jump\t// in\n    tag_271:\n      mload(0x40)\n      dup1\n      swap2\n      sub\n      swap1\n      keccak256\n      not(0xffffffffffffffffffffffffffffffffffffffffffffffffffffffff)\n      and\n      0x20\n      dup3\n      add\n      dup1\n      mload\n      0xffffffffffffffffffffffffffffffffffffffffffffffffffffffff\n      dup4\n      dup2\n      dup4\n      and\n      or\n      dup4\n      mstore\n      pop\n      pop\n      pop\n      pop\n        /* \"backEnd/contracts/BUNN_Governor_Proxy.sol\":6872:6954  implementation_contract.call{value: msg.value}(abi.encodeWithSignature(signature)) */\n      mload(0x40)\n      tag_273\n      swap2\n      swap1\n      tag_274\n      jump\t// in\n    tag_273:\n      0x00\n      mload(0x40)\n      dup1\n      dup4\n      sub\n      dup2\n      dup6\n      dup8\n      gas\n      call\n      swap3\n      pop\n      pop\n      pop\n      returndatasize\n      dup1\n      0x00\n      dup2\n      eq\n      tag_277\n      jumpi\n      mload(0x40)\n      swap2\n      pop\n      and(add(returndatasize, 0x3f), not(0x1f))\n      dup3\n      add\n      0x40\n      mstore\n      returndatasize\n      dup3\n      mstore\n      returndatasize\n      0x00\n      0x20\n      dup5\n      add\n      returndatacopy\n      jump(tag_276)\n    tag_277:\n      0x60\n      swap2\n      pop\n    tag_276:\n      pop\n        /* \"backEnd/contracts/BUNN_Governor_Proxy.sol\":6828:6954  (bool success,bytes memory returned_data) = implementation_contract.call{value: msg.value}(abi.encodeWithSignature(signature)) */\n      swap2\n      pop\n      swap2\n      pop\n        /* \"backEnd/contracts/BUNN_Governor_Proxy.sol\":6973:6980  success */\n      dup2\n        /* \"backEnd/contracts/BUNN_Governor_Proxy.sol\":6965:7004  require(success, \"FAILED TO IMPLEMENT\") */\n      tag_278\n      jumpi\n      mload(0x40)\n      0x08c379a000000000000000000000000000000000000000000000000000000000\n      dup2\n      mstore\n      0x04\n      add\n      tag_279\n      swap1\n      tag_280\n      jump\t// in\n    tag_279:\n      mload(0x40)\n      dup1\n      swap2\n      sub\n      swap1\n      revert\n    tag_278:\n        /* \"backEnd/contracts/BUNN_Governor_Proxy.sol\":7036:7049  returned_data */\n      dup1\n        /* \"backEnd/contracts/BUNN_Governor_Proxy.sol\":7025:7061  abi.decode(returned_data, (uint256)) */\n      dup1\n      0x20\n      add\n      swap1\n      mload\n      dup2\n      add\n      swap1\n      tag_281\n      swap2\n      swap1\n      tag_164\n      jump\t// in\n    tag_281:\n        /* \"backEnd/contracts/BUNN_Governor_Proxy.sol\":7014:7022  returned */\n      0x03\n        /* \"backEnd/contracts/BUNN_Governor_Proxy.sol\":7014:7061  returned = abi.decode(returned_data, (uint256)) */\n      dup2\n      swap1\n      sstore\n      pop\n        /* \"backEnd/contracts/BUNN_Governor_Proxy.sol\":7101:7108  success */\n      dup2\n        /* \"backEnd/contracts/BUNN_Governor_Proxy.sol\":7071:7089  topic_to_implement */\n      dup7\n        /* \"backEnd/contracts/BUNN_Governor_Proxy.sol\":7071:7098  topic_to_implement.executed */\n      0xe0\n      add\n        /* \"backEnd/contracts/BUNN_Governor_Proxy.sol\":7071:7108  topic_to_implement.executed = success */\n      swap1\n      iszero\n      iszero\n      swap1\n      dup2\n      iszero\n      iszero\n      dup2\n      mstore\n      pop\n      pop\n        /* \"backEnd/contracts/BUNN_Governor_Proxy.sol\":7123:7188  decision_implemented(topic_to_implement.title, topic_id, success) */\n      0xedfe6669a74a00073a8789cbc880cfb813b394b54c7d0702966ab1099daff7b9\n        /* \"backEnd/contracts/BUNN_Governor_Proxy.sol\":7144:7162  topic_to_implement */\n      dup7\n        /* \"backEnd/contracts/BUNN_Governor_Proxy.sol\":7144:7168  topic_to_implement.title */\n      0x20\n      add\n      mload\n        /* \"backEnd/contracts/BUNN_Governor_Proxy.sol\":7170:7178  topic_id */\n      dup9\n        /* \"backEnd/contracts/BUNN_Governor_Proxy.sol\":7180:7187  success */\n      dup5\n        /* \"backEnd/contracts/BUNN_Governor_Proxy.sol\":7123:7188  decision_implemented(topic_to_implement.title, topic_id, success) */\n      mload(0x40)\n      tag_282\n      swap4\n      swap3\n      swap2\n      swap1\n      tag_283\n      jump\t// in\n    tag_282:\n      mload(0x40)\n      dup1\n      swap2\n      sub\n      swap1\n      log1\n        /* \"backEnd/contracts/BUNN_Governor_Proxy.sol\":5988:7195  {... */\n      pop\n      pop\n      pop\n      pop\n      pop\n      pop\n        /* \"backEnd/contracts/BUNN_Governor_Proxy.sol\":5907:7195  function implement_decision(... */\n      pop\n      jump\t// out\n        /* \"backEnd/contracts/BUNN_Governor_Proxy.sol\":291:327  address public utility_token_address */\n    tag_110:\n      0x02\n      0x00\n      swap1\n      sload\n      swap1\n      0x0100\n      exp\n      swap1\n      div\n      0xffffffffffffffffffffffffffffffffffffffff\n      and\n      dup2\n      jump\t// out\n        /* \"backEnd/contracts/BUNN_Governor_Proxy.sol\":3216:3478  function register(string memory name_/* , uint256 d_tokens */) public {... */\n    tag_117:\n        /* \"backEnd/contracts/BUNN_Governor_Proxy.sol\":3318:3434  Member({... */\n      mload(0x40)\n      dup1\n      0x40\n      add\n      0x40\n      mstore\n      dup1\n        /* \"backEnd/contracts/BUNN_Governor_Proxy.sol\":3345:3350  name_ */\n      dup3\n        /* \"backEnd/contracts/BUNN_Governor_Proxy.sol\":3318:3434  Member({... */\n      dup2\n      mstore\n      0x20\n      add\n        /* \"backEnd/contracts/BUNN_Governor_Proxy.sol\":3373:3377  true */\n      0x01\n        /* \"backEnd/contracts/BUNN_Governor_Proxy.sol\":3318:3434  Member({... */\n      iszero\n      iszero\n      dup2\n      mstore\n      pop\n        /* \"backEnd/contracts/BUNN_Governor_Proxy.sol\":3296:3303  Members */\n      0x06\n        /* \"backEnd/contracts/BUNN_Governor_Proxy.sol\":3296:3315  Members[msg.sender] */\n      0x00\n        /* \"backEnd/contracts/BUNN_Governor_Proxy.sol\":3304:3314  msg.sender */\n      caller\n        /* \"backEnd/contracts/BUNN_Governor_Proxy.sol\":3296:3315  Members[msg.sender] */\n      0xffffffffffffffffffffffffffffffffffffffff\n      and\n      0xffffffffffffffffffffffffffffffffffffffff\n      and\n      dup2\n      mstore\n      0x20\n      add\n      swap1\n      dup2\n      mstore\n      0x20\n      add\n      0x00\n      keccak256\n        /* \"backEnd/contracts/BUNN_Governor_Proxy.sol\":3296:3434  Members[msg.sender] = Member({... */\n      0x00\n      dup3\n      add\n      mload\n      dup2\n      0x00\n      add\n      swap1\n      dup2\n      tag_285\n      swap2\n      swap1\n      tag_233\n      jump\t// in\n    tag_285:\n      pop\n      0x20\n      dup3\n      add\n      mload\n      dup2\n      0x01\n      add\n      exp(0x0100, 0x00)\n      dup2\n      sload\n      dup2\n      0xff\n      mul\n      not\n      and\n      swap1\n      dup4\n      iszero\n      iszero\n      mul\n      or\n      swap1\n      sstore\n      pop\n      swap1\n      pop\n      pop\n        /* \"backEnd/contracts/BUNN_Governor_Proxy.sol\":3460:3470  msg.sender */\n      caller\n        /* \"backEnd/contracts/BUNN_Governor_Proxy.sol\":3449:3471  new_member(msg.sender) */\n      0xffffffffffffffffffffffffffffffffffffffff\n      and\n      0xcb02c8e65f4ad1b53d5ad3ed25b4ae62e352a90a7c3f6ba3a49235e22ddf5fd0\n      mload(0x40)\n      mload(0x40)\n      dup1\n      swap2\n      sub\n      swap1\n      log2\n        /* \"backEnd/contracts/BUNN_Governor_Proxy.sol\":3216:3478  function register(string memory name_/* , uint256 d_tokens */) public {... */\n      pop\n      jump\t// out\n        /* \"backEnd/contracts/BUNN_Governor_Proxy.sol\":1053:1094  mapping(address => Member) public Members */\n    tag_121:\n      mstore(0x20, 0x06)\n      dup1\n      0x00\n      mstore\n      keccak256(0x00, 0x40)\n      0x00\n      swap2\n      pop\n      swap1\n      pop\n      dup1\n      0x00\n      add\n      dup1\n      sload\n      tag_286\n      swap1\n      tag_138\n      jump\t// in\n    tag_286:\n      dup1\n      0x1f\n      add\n      0x20\n      dup1\n      swap2\n      div\n      mul\n      0x20\n      add\n      mload(0x40)\n      swap1\n      dup2\n      add\n      0x40\n      mstore\n      dup1\n      swap3\n      swap2\n      swap1\n      dup2\n      dup2\n      mstore\n      0x20\n      add\n      dup3\n      dup1\n      sload\n      tag_287\n      swap1\n      tag_138\n      jump\t// in\n    tag_287:\n      dup1\n      iszero\n      tag_288\n      jumpi\n      dup1\n      0x1f\n      lt\n      tag_289\n      jumpi\n      0x0100\n      dup1\n      dup4\n      sload\n      div\n      mul\n      dup4\n      mstore\n      swap2\n      0x20\n      add\n      swap2\n      jump(tag_288)\n    tag_289:\n      dup3\n      add\n      swap2\n      swap1\n      0x00\n      mstore\n      keccak256(0x00, 0x20)\n      swap1\n    tag_290:\n      dup2\n      sload\n      dup2\n      mstore\n      swap1\n      0x01\n      add\n      swap1\n      0x20\n      add\n      dup1\n      dup4\n      gt\n      tag_290\n      jumpi\n      dup3\n      swap1\n      sub\n      0x1f\n      and\n      dup3\n      add\n      swap2\n    tag_288:\n      pop\n      pop\n      pop\n      pop\n      pop\n      swap1\n      dup1\n      0x01\n      add\n      0x00\n      swap1\n      sload\n      swap1\n      0x0100\n      exp\n      swap1\n      div\n      0xff\n      and\n      swap1\n      pop\n      dup3\n      jump\t// out\n        /* \"@openzeppelin/contracts/utils/math/Math.sol\":3803:7919  function mulDiv(uint256 x, uint256 y, uint256 denominator) internal pure returns (uint256 result) {... */\n    tag_202:\n        /* \"@openzeppelin/contracts/utils/math/Math.sol\":3885:3899  uint256 result */\n      0x00\n        /* \"@openzeppelin/contracts/utils/math/Math.sol\":4232:4245  uint256 prod0 */\n      dup1\n        /* \"@openzeppelin/contracts/utils/math/Math.sol\":4252:4253  y */\n      dup4\n        /* \"@openzeppelin/contracts/utils/math/Math.sol\":4248:4249  x */\n      dup6\n        /* \"@openzeppelin/contracts/utils/math/Math.sol\":4248:4253  x * y */\n      mul\n        /* \"@openzeppelin/contracts/utils/math/Math.sol\":4232:4253  uint256 prod0 = x * y */\n      swap1\n      pop\n        /* \"@openzeppelin/contracts/utils/math/Math.sol\":4312:4325  uint256 prod1 */\n      0x00\n        /* \"@openzeppelin/contracts/utils/math/Math.sol\":4437:4438  0 */\n      dup1\n        /* \"@openzeppelin/contracts/utils/math/Math.sol\":4433:4439  not(0) */\n      not\n        /* \"@openzeppelin/contracts/utils/math/Math.sol\":4430:4431  y */\n      dup6\n        /* \"@openzeppelin/contracts/utils/math/Math.sol\":4427:4428  x */\n      dup8\n        /* \"@openzeppelin/contracts/utils/math/Math.sol\":4420:4440  mulmod(x, y, not(0)) */\n      mulmod\n        /* \"@openzeppelin/contracts/utils/math/Math.sol\":4493:4498  prod0 */\n      dup3\n        /* \"@openzeppelin/contracts/utils/math/Math.sol\":4489:4491  mm */\n      dup2\n        /* \"@openzeppelin/contracts/utils/math/Math.sol\":4486:4499  lt(mm, prod0) */\n      lt\n        /* \"@openzeppelin/contracts/utils/math/Math.sol\":4478:4483  prod0 */\n      dup4\n        /* \"@openzeppelin/contracts/utils/math/Math.sol\":4474:4476  mm */\n      dup3\n        /* \"@openzeppelin/contracts/utils/math/Math.sol\":4470:4484  sub(mm, prod0) */\n      sub\n        /* \"@openzeppelin/contracts/utils/math/Math.sol\":4466:4500  sub(sub(mm, prod0), lt(mm, prod0)) */\n      sub\n        /* \"@openzeppelin/contracts/utils/math/Math.sol\":4457:4500  prod1 := sub(sub(mm, prod0), lt(mm, prod0)) */\n      swap2\n      pop\n        /* \"@openzeppelin/contracts/utils/math/Math.sol\":4392:4514  {... */\n      pop\n        /* \"@openzeppelin/contracts/utils/math/Math.sol\":4604:4605  0 */\n      0x00\n        /* \"@openzeppelin/contracts/utils/math/Math.sol\":4595:4600  prod1 */\n      dup2\n        /* \"@openzeppelin/contracts/utils/math/Math.sol\":4595:4605  prod1 == 0 */\n      sub\n        /* \"@openzeppelin/contracts/utils/math/Math.sol\":4591:4959  if (prod1 == 0) {... */\n      tag_292\n      jumpi\n        /* \"@openzeppelin/contracts/utils/math/Math.sol\":4933:4944  denominator */\n      dup4\n        /* \"@openzeppelin/contracts/utils/math/Math.sol\":4925:4930  prod0 */\n      dup3\n        /* \"@openzeppelin/contracts/utils/math/Math.sol\":4925:4944  prod0 / denominator */\n      dup2\n      tag_293\n      jumpi\n      tag_294\n      tag_295\n      jump\t// in\n    tag_294:\n    tag_293:\n      div\n        /* \"@openzeppelin/contracts/utils/math/Math.sol\":4918:4944  return prod0 / denominator */\n      swap3\n      pop\n      pop\n      pop\n      jump(tag_291)\n        /* \"@openzeppelin/contracts/utils/math/Math.sol\":4591:4959  if (prod1 == 0) {... */\n    tag_292:\n        /* \"@openzeppelin/contracts/utils/math/Math.sol\":5080:5085  prod1 */\n      dup1\n        /* \"@openzeppelin/contracts/utils/math/Math.sol\":5065:5076  denominator */\n      dup5\n        /* \"@openzeppelin/contracts/utils/math/Math.sol\":5065:5085  denominator <= prod1 */\n      gt\n        /* \"@openzeppelin/contracts/utils/math/Math.sol\":5061:5149  if (denominator <= prod1) {... */\n      tag_296\n      jumpi\n        /* \"@openzeppelin/contracts/utils/math/Math.sol\":5112:5134  MathOverflowedMulDiv() */\n      mload(0x40)\n      0x227bc15300000000000000000000000000000000000000000000000000000000\n      dup2\n      mstore\n      0x04\n      add\n      mload(0x40)\n      dup1\n      swap2\n      sub\n      swap1\n      revert\n        /* \"@openzeppelin/contracts/utils/math/Math.sol\":5061:5149  if (denominator <= prod1) {... */\n    tag_296:\n        /* \"@openzeppelin/contracts/utils/math/Math.sol\":5404:5421  uint256 remainder */\n      0x00\n        /* \"@openzeppelin/contracts/utils/math/Math.sol\":5539:5550  denominator */\n      dup5\n        /* \"@openzeppelin/contracts/utils/math/Math.sol\":5536:5537  y */\n      dup7\n        /* \"@openzeppelin/contracts/utils/math/Math.sol\":5533:5534  x */\n      dup9\n        /* \"@openzeppelin/contracts/utils/math/Math.sol\":5526:5551  mulmod(x, y, denominator) */\n      mulmod\n        /* \"@openzeppelin/contracts/utils/math/Math.sol\":5513:5551  remainder := mulmod(x, y, denominator) */\n      swap1\n      pop\n        /* \"@openzeppelin/contracts/utils/math/Math.sol\":5667:5672  prod0 */\n      dup3\n        /* \"@openzeppelin/contracts/utils/math/Math.sol\":5656:5665  remainder */\n      dup2\n        /* \"@openzeppelin/contracts/utils/math/Math.sol\":5653:5673  gt(remainder, prod0) */\n      gt\n        /* \"@openzeppelin/contracts/utils/math/Math.sol\":5646:5651  prod1 */\n      dup3\n        /* \"@openzeppelin/contracts/utils/math/Math.sol\":5642:5674  sub(prod1, gt(remainder, prod0)) */\n      sub\n        /* \"@openzeppelin/contracts/utils/math/Math.sol\":5633:5674  prod1 := sub(prod1, gt(remainder, prod0)) */\n      swap2\n      pop\n        /* \"@openzeppelin/contracts/utils/math/Math.sol\":5711:5720  remainder */\n      dup1\n        /* \"@openzeppelin/contracts/utils/math/Math.sol\":5704:5709  prod0 */\n      dup4\n        /* \"@openzeppelin/contracts/utils/math/Math.sol\":5700:5721  sub(prod0, remainder) */\n      sub\n        /* \"@openzeppelin/contracts/utils/math/Math.sol\":5691:5721  prod0 := sub(prod0, remainder) */\n      swap3\n      pop\n        /* \"@openzeppelin/contracts/utils/math/Math.sol\":5939:5951  uint256 twos */\n      0x00\n        /* \"@openzeppelin/contracts/utils/math/Math.sol\":5973:5984  denominator */\n      dup6\n        /* \"@openzeppelin/contracts/utils/math/Math.sol\":5969:5970  0 */\n      0x00\n        /* \"@openzeppelin/contracts/utils/math/Math.sol\":5969:5984  0 - denominator */\n      sub\n        /* \"@openzeppelin/contracts/utils/math/Math.sol\":5954:5965  denominator */\n      dup7\n        /* \"@openzeppelin/contracts/utils/math/Math.sol\":5954:5985  denominator & (0 - denominator) */\n      and\n        /* \"@openzeppelin/contracts/utils/math/Math.sol\":5939:5985  uint256 twos = denominator & (0 - denominator) */\n      swap1\n      pop\n        /* \"@openzeppelin/contracts/utils/math/Math.sol\":6105:6109  twos */\n      dup1\n        /* \"@openzeppelin/contracts/utils/math/Math.sol\":6092:6103  denominator */\n      dup7\n        /* \"@openzeppelin/contracts/utils/math/Math.sol\":6088:6110  div(denominator, twos) */\n      div\n        /* \"@openzeppelin/contracts/utils/math/Math.sol\":6073:6110  denominator := div(denominator, twos) */\n      swap6\n      pop\n        /* \"@openzeppelin/contracts/utils/math/Math.sol\":6197:6201  twos */\n      dup1\n        /* \"@openzeppelin/contracts/utils/math/Math.sol\":6190:6195  prod0 */\n      dup5\n        /* \"@openzeppelin/contracts/utils/math/Math.sol\":6186:6202  div(prod0, twos) */\n      div\n        /* \"@openzeppelin/contracts/utils/math/Math.sol\":6177:6202  prod0 := div(prod0, twos) */\n      swap4\n      pop\n        /* \"@openzeppelin/contracts/utils/math/Math.sol\":6354:6355  1 */\n      0x01\n        /* \"@openzeppelin/contracts/utils/math/Math.sol\":6347:6351  twos */\n      dup2\n        /* \"@openzeppelin/contracts/utils/math/Math.sol\":6340:6344  twos */\n      dup3\n        /* \"@openzeppelin/contracts/utils/math/Math.sol\":6337:6338  0 */\n      0x00\n        /* \"@openzeppelin/contracts/utils/math/Math.sol\":6333:6345  sub(0, twos) */\n      sub\n        /* \"@openzeppelin/contracts/utils/math/Math.sol\":6329:6352  div(sub(0, twos), twos) */\n      div\n        /* \"@openzeppelin/contracts/utils/math/Math.sol\":6325:6356  add(div(sub(0, twos), twos), 1) */\n      add\n        /* \"@openzeppelin/contracts/utils/math/Math.sol\":6317:6356  twos := add(div(sub(0, twos), twos), 1) */\n      swap1\n      pop\n        /* \"@openzeppelin/contracts/utils/math/Math.sol\":6453:6457  twos */\n      dup1\n        /* \"@openzeppelin/contracts/utils/math/Math.sol\":6445:6450  prod1 */\n      dup4\n        /* \"@openzeppelin/contracts/utils/math/Math.sol\":6445:6457  prod1 * twos */\n      mul\n        /* \"@openzeppelin/contracts/utils/math/Math.sol\":6436:6457  prod0 |= prod1 * twos */\n      dup5\n      or\n      swap4\n      pop\n        /* \"@openzeppelin/contracts/utils/math/Math.sol\":6775:6790  uint256 inverse */\n      0x00\n        /* \"@openzeppelin/contracts/utils/math/Math.sol\":6813:6814  2 */\n      0x02\n        /* \"@openzeppelin/contracts/utils/math/Math.sol\":6798:6809  denominator */\n      dup8\n        /* \"@openzeppelin/contracts/utils/math/Math.sol\":6794:6795  3 */\n      0x03\n        /* \"@openzeppelin/contracts/utils/math/Math.sol\":6794:6809  3 * denominator */\n      mul\n        /* \"@openzeppelin/contracts/utils/math/Math.sol\":6793:6814  (3 * denominator) ^ 2 */\n      xor\n        /* \"@openzeppelin/contracts/utils/math/Math.sol\":6775:6814  uint256 inverse = (3 * denominator) ^ 2 */\n      swap1\n      pop\n        /* \"@openzeppelin/contracts/utils/math/Math.sol\":7060:7067  inverse */\n      dup1\n        /* \"@openzeppelin/contracts/utils/math/Math.sol\":7046:7057  denominator */\n      dup8\n        /* \"@openzeppelin/contracts/utils/math/Math.sol\":7046:7067  denominator * inverse */\n      mul\n        /* \"@openzeppelin/contracts/utils/math/Math.sol\":7042:7043  2 */\n      0x02\n        /* \"@openzeppelin/contracts/utils/math/Math.sol\":7042:7067  2 - denominator * inverse */\n      sub\n        /* \"@openzeppelin/contracts/utils/math/Math.sol\":7031:7067  inverse *= 2 - denominator * inverse */\n      dup2\n      mul\n      swap1\n      pop\n        /* \"@openzeppelin/contracts/utils/math/Math.sol\":7129:7136  inverse */\n      dup1\n        /* \"@openzeppelin/contracts/utils/math/Math.sol\":7115:7126  denominator */\n      dup8\n        /* \"@openzeppelin/contracts/utils/math/Math.sol\":7115:7136  denominator * inverse */\n      mul\n        /* \"@openzeppelin/contracts/utils/math/Math.sol\":7111:7112  2 */\n      0x02\n        /* \"@openzeppelin/contracts/utils/math/Math.sol\":7111:7136  2 - denominator * inverse */\n      sub\n        /* \"@openzeppelin/contracts/utils/math/Math.sol\":7100:7136  inverse *= 2 - denominator * inverse */\n      dup2\n      mul\n      swap1\n      pop\n        /* \"@openzeppelin/contracts/utils/math/Math.sol\":7199:7206  inverse */\n      dup1\n        /* \"@openzeppelin/contracts/utils/math/Math.sol\":7185:7196  denominator */\n      dup8\n        /* \"@openzeppelin/contracts/utils/math/Math.sol\":7185:7206  denominator * inverse */\n      mul\n        /* \"@openzeppelin/contracts/utils/math/Math.sol\":7181:7182  2 */\n      0x02\n        /* \"@openzeppelin/contracts/utils/math/Math.sol\":7181:7206  2 - denominator * inverse */\n      sub\n        /* \"@openzeppelin/contracts/utils/math/Math.sol\":7170:7206  inverse *= 2 - denominator * inverse */\n      dup2\n      mul\n      swap1\n      pop\n        /* \"@openzeppelin/contracts/utils/math/Math.sol\":7269:7276  inverse */\n      dup1\n        /* \"@openzeppelin/contracts/utils/math/Math.sol\":7255:7266  denominator */\n      dup8\n        /* \"@openzeppelin/contracts/utils/math/Math.sol\":7255:7276  denominator * inverse */\n      mul\n        /* \"@openzeppelin/contracts/utils/math/Math.sol\":7251:7252  2 */\n      0x02\n        /* \"@openzeppelin/contracts/utils/math/Math.sol\":7251:7276  2 - denominator * inverse */\n      sub\n        /* \"@openzeppelin/contracts/utils/math/Math.sol\":7240:7276  inverse *= 2 - denominator * inverse */\n      dup2\n      mul\n      swap1\n      pop\n        /* \"@openzeppelin/contracts/utils/math/Math.sol\":7339:7346  inverse */\n      dup1\n        /* \"@openzeppelin/contracts/utils/math/Math.sol\":7325:7336  denominator */\n      dup8\n        /* \"@openzeppelin/contracts/utils/math/Math.sol\":7325:7346  denominator * inverse */\n      mul\n        /* \"@openzeppelin/contracts/utils/math/Math.sol\":7321:7322  2 */\n      0x02\n        /* \"@openzeppelin/contracts/utils/math/Math.sol\":7321:7346  2 - denominator * inverse */\n      sub\n        /* \"@openzeppelin/contracts/utils/math/Math.sol\":7310:7346  inverse *= 2 - denominator * inverse */\n      dup2\n      mul\n      swap1\n      pop\n        /* \"@openzeppelin/contracts/utils/math/Math.sol\":7410:7417  inverse */\n      dup1\n        /* \"@openzeppelin/contracts/utils/math/Math.sol\":7396:7407  denominator */\n      dup8\n        /* \"@openzeppelin/contracts/utils/math/Math.sol\":7396:7417  denominator * inverse */\n      mul\n        /* \"@openzeppelin/contracts/utils/math/Math.sol\":7392:7393  2 */\n      0x02\n        /* \"@openzeppelin/contracts/utils/math/Math.sol\":7392:7417  2 - denominator * inverse */\n      sub\n        /* \"@openzeppelin/contracts/utils/math/Math.sol\":7381:7417  inverse *= 2 - denominator * inverse */\n      dup2\n      mul\n      swap1\n      pop\n        /* \"@openzeppelin/contracts/utils/math/Math.sol\":7868:7875  inverse */\n      dup1\n        /* \"@openzeppelin/contracts/utils/math/Math.sol\":7860:7865  prod0 */\n      dup6\n        /* \"@openzeppelin/contracts/utils/math/Math.sol\":7860:7875  prod0 * inverse */\n      mul\n        /* \"@openzeppelin/contracts/utils/math/Math.sol\":7851:7875  result = prod0 * inverse */\n      swap6\n      pop\n        /* \"@openzeppelin/contracts/utils/math/Math.sol\":7889:7902  return result */\n      pop\n      pop\n      pop\n      pop\n      pop\n        /* \"@openzeppelin/contracts/utils/math/Math.sol\":3803:7919  function mulDiv(uint256 x, uint256 y, uint256 denominator) internal pure returns (uint256 result) {... */\n    tag_291:\n      swap4\n      swap3\n      pop\n      pop\n      pop\n      jump\t// out\n    tag_244:\n      mload(0x40)\n      dup1\n      0x0120\n      add\n      0x40\n      mstore\n      dup1\n      0x00\n      dup2\n      mstore\n      0x20\n      add\n      0x60\n      dup2\n      mstore\n      0x20\n      add\n      and(0xffffffffffffffffffffffffffffffffffffffff, 0x00)\n      dup2\n      mstore\n      0x20\n      add\n      0x60\n      dup2\n      mstore\n      0x20\n      add\n      and(0xffffffffffffffffffffffffffffffffffffffff, 0x00)\n      dup2\n      mstore\n      0x20\n      add\n      0x60\n      dup2\n      mstore\n      0x20\n      add\n      0x00\n      dup2\n      mstore\n      0x20\n      add\n      iszero(iszero(0x00))\n      dup2\n      mstore\n      0x20\n      add\n      iszero(iszero(0x00))\n      dup2\n      mstore\n      pop\n      swap1\n      jump\t// out\n        /* \"#utility.yul\":7:82   */\n    tag_297:\n        /* \"#utility.yul\":40:46   */\n      0x00\n        /* \"#utility.yul\":73:75   */\n      0x40\n        /* \"#utility.yul\":67:76   */\n      mload\n        /* \"#utility.yul\":57:76   */\n      swap1\n      pop\n        /* \"#utility.yul\":7:82   */\n      swap1\n      jump\t// out\n        /* \"#utility.yul\":88:205   */\n    tag_298:\n        /* \"#utility.yul\":197:198   */\n      0x00\n        /* \"#utility.yul\":194:195   */\n      dup1\n        /* \"#utility.yul\":187:199   */\n      revert\n        /* \"#utility.yul\":211:328   */\n    tag_299:\n        /* \"#utility.yul\":320:321   */\n      0x00\n        /* \"#utility.yul\":317:318   */\n      dup1\n        /* \"#utility.yul\":310:322   */\n      revert\n        /* \"#utility.yul\":334:460   */\n    tag_300:\n        /* \"#utility.yul\":371:378   */\n      0x00\n        /* \"#utility.yul\":411:453   */\n      0xffffffffffffffffffffffffffffffffffffffff\n        /* \"#utility.yul\":404:409   */\n      dup3\n        /* \"#utility.yul\":400:454   */\n      and\n        /* \"#utility.yul\":389:454   */\n      swap1\n      pop\n        /* \"#utility.yul\":334:460   */\n      swap2\n      swap1\n      pop\n      jump\t// out\n        /* \"#utility.yul\":466:562   */\n    tag_301:\n        /* \"#utility.yul\":503:510   */\n      0x00\n        /* \"#utility.yul\":532:556   */\n      tag_374\n        /* \"#utility.yul\":550:555   */\n      dup3\n        /* \"#utility.yul\":532:556   */\n      tag_300\n      jump\t// in\n    tag_374:\n        /* \"#utility.yul\":521:556   */\n      swap1\n      pop\n        /* \"#utility.yul\":466:562   */\n      swap2\n      swap1\n      pop\n      jump\t// out\n        /* \"#utility.yul\":568:690   */\n    tag_302:\n        /* \"#utility.yul\":641:665   */\n      tag_376\n        /* \"#utility.yul\":659:664   */\n      dup2\n        /* \"#utility.yul\":641:665   */\n      tag_301\n      jump\t// in\n    tag_376:\n        /* \"#utility.yul\":634:639   */\n      dup2\n        /* \"#utility.yul\":631:666   */\n      eq\n        /* \"#utility.yul\":621:684   */\n      tag_377\n      jumpi\n        /* \"#utility.yul\":680:681   */\n      0x00\n        /* \"#utility.yul\":677:678   */\n      dup1\n        /* \"#utility.yul\":670:682   */\n      revert\n        /* \"#utility.yul\":621:684   */\n    tag_377:\n        /* \"#utility.yul\":568:690   */\n      pop\n      jump\t// out\n        /* \"#utility.yul\":696:835   */\n    tag_303:\n        /* \"#utility.yul\":742:747   */\n      0x00\n        /* \"#utility.yul\":780:786   */\n      dup2\n        /* \"#utility.yul\":767:787   */\n      calldataload\n        /* \"#utility.yul\":758:787   */\n      swap1\n      pop\n        /* \"#utility.yul\":796:829   */\n      tag_379\n        /* \"#utility.yul\":823:828   */\n      dup2\n        /* \"#utility.yul\":796:829   */\n      tag_302\n      jump\t// in\n    tag_379:\n        /* \"#utility.yul\":696:835   */\n      swap3\n      swap2\n      pop\n      pop\n      jump\t// out\n        /* \"#utility.yul\":841:1170   */\n    tag_28:\n        /* \"#utility.yul\":900:906   */\n      0x00\n        /* \"#utility.yul\":949:951   */\n      0x20\n        /* \"#utility.yul\":937:946   */\n      dup3\n        /* \"#utility.yul\":928:935   */\n      dup5\n        /* \"#utility.yul\":924:947   */\n      sub\n        /* \"#utility.yul\":920:952   */\n      slt\n        /* \"#utility.yul\":917:1036   */\n      iszero\n      tag_381\n      jumpi\n        /* \"#utility.yul\":955:1034   */\n      tag_382\n      tag_298\n      jump\t// in\n    tag_382:\n        /* \"#utility.yul\":917:1036   */\n    tag_381:\n        /* \"#utility.yul\":1075:1076   */\n      0x00\n        /* \"#utility.yul\":1100:1153   */\n      tag_383\n        /* \"#utility.yul\":1145:1152   */\n      dup5\n        /* \"#utility.yul\":1136:1142   */\n      dup3\n        /* \"#utility.yul\":1125:1134   */\n      dup6\n        /* \"#utility.yul\":1121:1143   */\n      add\n        /* \"#utility.yul\":1100:1153   */\n      tag_303\n      jump\t// in\n    tag_383:\n        /* \"#utility.yul\":1090:1153   */\n      swap2\n      pop\n        /* \"#utility.yul\":1046:1163   */\n      pop\n        /* \"#utility.yul\":841:1170   */\n      swap3\n      swap2\n      pop\n      pop\n      jump\t// out\n        /* \"#utility.yul\":1176:1253   */\n    tag_304:\n        /* \"#utility.yul\":1213:1220   */\n      0x00\n        /* \"#utility.yul\":1242:1247   */\n      dup2\n        /* \"#utility.yul\":1231:1247   */\n      swap1\n      pop\n        /* \"#utility.yul\":1176:1253   */\n      swap2\n      swap1\n      pop\n      jump\t// out\n        /* \"#utility.yul\":1259:1381   */\n    tag_305:\n        /* \"#utility.yul\":1332:1356   */\n      tag_386\n        /* \"#utility.yul\":1350:1355   */\n      dup2\n        /* \"#utility.yul\":1332:1356   */\n      tag_304\n      jump\t// in\n    tag_386:\n        /* \"#utility.yul\":1325:1330   */\n      dup2\n        /* \"#utility.yul\":1322:1357   */\n      eq\n        /* \"#utility.yul\":1312:1375   */\n      tag_387\n      jumpi\n        /* \"#utility.yul\":1371:1372   */\n      0x00\n        /* \"#utility.yul\":1368:1369   */\n      dup1\n        /* \"#utility.yul\":1361:1373   */\n      revert\n        /* \"#utility.yul\":1312:1375   */\n    tag_387:\n        /* \"#utility.yul\":1259:1381   */\n      pop\n      jump\t// out\n        /* \"#utility.yul\":1387:1526   */\n    tag_306:\n        /* \"#utility.yul\":1433:1438   */\n      0x00\n        /* \"#utility.yul\":1471:1477   */\n      dup2\n        /* \"#utility.yul\":1458:1478   */\n      calldataload\n        /* \"#utility.yul\":1449:1478   */\n      swap1\n      pop\n        /* \"#utility.yul\":1487:1520   */\n      tag_389\n        /* \"#utility.yul\":1514:1519   */\n      dup2\n        /* \"#utility.yul\":1487:1520   */\n      tag_305\n      jump\t// in\n    tag_389:\n        /* \"#utility.yul\":1387:1526   */\n      swap3\n      swap2\n      pop\n      pop\n      jump\t// out\n        /* \"#utility.yul\":1532:1622   */\n    tag_307:\n        /* \"#utility.yul\":1566:1573   */\n      0x00\n        /* \"#utility.yul\":1609:1614   */\n      dup2\n        /* \"#utility.yul\":1602:1615   */\n      iszero\n        /* \"#utility.yul\":1595:1616   */\n      iszero\n        /* \"#utility.yul\":1584:1616   */\n      swap1\n      pop\n        /* \"#utility.yul\":1532:1622   */\n      swap2\n      swap1\n      pop\n      jump\t// out\n        /* \"#utility.yul\":1628:1744   */\n    tag_308:\n        /* \"#utility.yul\":1698:1719   */\n      tag_392\n        /* \"#utility.yul\":1713:1718   */\n      dup2\n        /* \"#utility.yul\":1698:1719   */\n      tag_307\n      jump\t// in\n    tag_392:\n        /* \"#utility.yul\":1691:1696   */\n      dup2\n        /* \"#utility.yul\":1688:1720   */\n      eq\n        /* \"#utility.yul\":1678:1738   */\n      tag_393\n      jumpi\n        /* \"#utility.yul\":1734:1735   */\n      0x00\n        /* \"#utility.yul\":1731:1732   */\n      dup1\n        /* \"#utility.yul\":1724:1736   */\n      revert\n        /* \"#utility.yul\":1678:1738   */\n    tag_393:\n        /* \"#utility.yul\":1628:1744   */\n      pop\n      jump\t// out\n        /* \"#utility.yul\":1750:1883   */\n    tag_309:\n        /* \"#utility.yul\":1793:1798   */\n      0x00\n        /* \"#utility.yul\":1831:1837   */\n      dup2\n        /* \"#utility.yul\":1818:1838   */\n      calldataload\n        /* \"#utility.yul\":1809:1838   */\n      swap1\n      pop\n        /* \"#utility.yul\":1847:1877   */\n      tag_395\n        /* \"#utility.yul\":1871:1876   */\n      dup2\n        /* \"#utility.yul\":1847:1877   */\n      tag_308\n      jump\t// in\n    tag_395:\n        /* \"#utility.yul\":1750:1883   */\n      swap3\n      swap2\n      pop\n      pop\n      jump\t// out\n        /* \"#utility.yul\":1889:2357   */\n    tag_33:\n        /* \"#utility.yul\":1954:1960   */\n      0x00\n        /* \"#utility.yul\":1962:1968   */\n      dup1\n        /* \"#utility.yul\":2011:2013   */\n      0x40\n        /* \"#utility.yul\":1999:2008   */\n      dup4\n        /* \"#utility.yul\":1990:1997   */\n      dup6\n        /* \"#utility.yul\":1986:2009   */\n      sub\n        /* \"#utility.yul\":1982:2014   */\n      slt\n        /* \"#utility.yul\":1979:2098   */\n      iszero\n      tag_397\n      jumpi\n        /* \"#utility.yul\":2017:2096   */\n      tag_398\n      tag_298\n      jump\t// in\n    tag_398:\n        /* \"#utility.yul\":1979:2098   */\n    tag_397:\n        /* \"#utility.yul\":2137:2138   */\n      0x00\n        /* \"#utility.yul\":2162:2215   */\n      tag_399\n        /* \"#utility.yul\":2207:2214   */\n      dup6\n        /* \"#utility.yul\":2198:2204   */\n      dup3\n        /* \"#utility.yul\":2187:2196   */\n      dup7\n        /* \"#utility.yul\":2183:2205   */\n      add\n        /* \"#utility.yul\":2162:2215   */\n      tag_306\n      jump\t// in\n    tag_399:\n        /* \"#utility.yul\":2152:2215   */\n      swap3\n      pop\n        /* \"#utility.yul\":2108:2225   */\n      pop\n        /* \"#utility.yul\":2264:2266   */\n      0x20\n        /* \"#utility.yul\":2290:2340   */\n      tag_400\n        /* \"#utility.yul\":2332:2339   */\n      dup6\n        /* \"#utility.yul\":2323:2329   */\n      dup3\n        /* \"#utility.yul\":2312:2321   */\n      dup7\n        /* \"#utility.yul\":2308:2330   */\n      add\n        /* \"#utility.yul\":2290:2340   */\n      tag_309\n      jump\t// in\n    tag_400:\n        /* \"#utility.yul\":2280:2340   */\n      swap2\n      pop\n        /* \"#utility.yul\":2235:2350   */\n      pop\n        /* \"#utility.yul\":1889:2357   */\n      swap3\n      pop\n      swap3\n      swap1\n      pop\n      jump\t// out\n        /* \"#utility.yul\":2363:2481   */\n    tag_310:\n        /* \"#utility.yul\":2450:2474   */\n      tag_402\n        /* \"#utility.yul\":2468:2473   */\n      dup2\n        /* \"#utility.yul\":2450:2474   */\n      tag_304\n      jump\t// in\n    tag_402:\n        /* \"#utility.yul\":2445:2448   */\n      dup3\n        /* \"#utility.yul\":2438:2475   */\n      mstore\n        /* \"#utility.yul\":2363:2481   */\n      pop\n      pop\n      jump\t// out\n        /* \"#utility.yul\":2487:2709   */\n    tag_39:\n        /* \"#utility.yul\":2580:2584   */\n      0x00\n        /* \"#utility.yul\":2618:2620   */\n      0x20\n        /* \"#utility.yul\":2607:2616   */\n      dup3\n        /* \"#utility.yul\":2603:2621   */\n      add\n        /* \"#utility.yul\":2595:2621   */\n      swap1\n      pop\n        /* \"#utility.yul\":2631:2702   */\n      tag_404\n        /* \"#utility.yul\":2699:2700   */\n      0x00\n        /* \"#utility.yul\":2688:2697   */\n      dup4\n        /* \"#utility.yul\":2684:2701   */\n      add\n        /* \"#utility.yul\":2675:2681   */\n      dup5\n        /* \"#utility.yul\":2631:2702   */\n      tag_310\n      jump\t// in\n    tag_404:\n        /* \"#utility.yul\":2487:2709   */\n      swap3\n      swap2\n      pop\n      pop\n      jump\t// out\n        /* \"#utility.yul\":2715:3044   */\n    tag_47:\n        /* \"#utility.yul\":2774:2780   */\n      0x00\n        /* \"#utility.yul\":2823:2825   */\n      0x20\n        /* \"#utility.yul\":2811:2820   */\n      dup3\n        /* \"#utility.yul\":2802:2809   */\n      dup5\n        /* \"#utility.yul\":2798:2821   */\n      sub\n        /* \"#utility.yul\":2794:2826   */\n      slt\n        /* \"#utility.yul\":2791:2910   */\n      iszero\n      tag_406\n      jumpi\n        /* \"#utility.yul\":2829:2908   */\n      tag_407\n      tag_298\n      jump\t// in\n    tag_407:\n        /* \"#utility.yul\":2791:2910   */\n    tag_406:\n        /* \"#utility.yul\":2949:2950   */\n      0x00\n        /* \"#utility.yul\":2974:3027   */\n      tag_408\n        /* \"#utility.yul\":3019:3026   */\n      dup5\n        /* \"#utility.yul\":3010:3016   */\n      dup3\n        /* \"#utility.yul\":2999:3008   */\n      dup6\n        /* \"#utility.yul\":2995:3017   */\n      add\n        /* \"#utility.yul\":2974:3027   */\n      tag_306\n      jump\t// in\n    tag_408:\n        /* \"#utility.yul\":2964:3027   */\n      swap2\n      pop\n        /* \"#utility.yul\":2920:3037   */\n      pop\n        /* \"#utility.yul\":2715:3044   */\n      swap3\n      swap2\n      pop\n      pop\n      jump\t// out\n        /* \"#utility.yul\":3050:3524   */\n    tag_55:\n        /* \"#utility.yul\":3118:3124   */\n      0x00\n        /* \"#utility.yul\":3126:3132   */\n      dup1\n        /* \"#utility.yul\":3175:3177   */\n      0x40\n        /* \"#utility.yul\":3163:3172   */\n      dup4\n        /* \"#utility.yul\":3154:3161   */\n      dup6\n        /* \"#utility.yul\":3150:3173   */\n      sub\n        /* \"#utility.yul\":3146:3178   */\n      slt\n        /* \"#utility.yul\":3143:3262   */\n      iszero\n      tag_410\n      jumpi\n        /* \"#utility.yul\":3181:3260   */\n      tag_411\n      tag_298\n      jump\t// in\n    tag_411:\n        /* \"#utility.yul\":3143:3262   */\n    tag_410:\n        /* \"#utility.yul\":3301:3302   */\n      0x00\n        /* \"#utility.yul\":3326:3379   */\n      tag_412\n        /* \"#utility.yul\":3371:3378   */\n      dup6\n        /* \"#utility.yul\":3362:3368   */\n      dup3\n        /* \"#utility.yul\":3351:3360   */\n      dup7\n        /* \"#utility.yul\":3347:3369   */\n      add\n        /* \"#utility.yul\":3326:3379   */\n      tag_306\n      jump\t// in\n    tag_412:\n        /* \"#utility.yul\":3316:3379   */\n      swap3\n      pop\n        /* \"#utility.yul\":3272:3389   */\n      pop\n        /* \"#utility.yul\":3428:3430   */\n      0x20\n        /* \"#utility.yul\":3454:3507   */\n      tag_413\n        /* \"#utility.yul\":3499:3506   */\n      dup6\n        /* \"#utility.yul\":3490:3496   */\n      dup3\n        /* \"#utility.yul\":3479:3488   */\n      dup7\n        /* \"#utility.yul\":3475:3497   */\n      add\n        /* \"#utility.yul\":3454:3507   */\n      tag_306\n      jump\t// in\n    tag_413:\n        /* \"#utility.yul\":3444:3507   */\n      swap2\n      pop\n        /* \"#utility.yul\":3399:3517   */\n      pop\n        /* \"#utility.yul\":3050:3524   */\n      swap3\n      pop\n      swap3\n      swap1\n      pop\n      jump\t// out\n        /* \"#utility.yul\":3530:3639   */\n    tag_311:\n        /* \"#utility.yul\":3611:3632   */\n      tag_415\n        /* \"#utility.yul\":3626:3631   */\n      dup2\n        /* \"#utility.yul\":3611:3632   */\n      tag_307\n      jump\t// in\n    tag_415:\n        /* \"#utility.yul\":3606:3609   */\n      dup3\n        /* \"#utility.yul\":3599:3633   */\n      mstore\n        /* \"#utility.yul\":3530:3639   */\n      pop\n      pop\n      jump\t// out\n        /* \"#utility.yul\":3645:3855   */\n    tag_58:\n        /* \"#utility.yul\":3732:3736   */\n      0x00\n        /* \"#utility.yul\":3770:3772   */\n      0x20\n        /* \"#utility.yul\":3759:3768   */\n      dup3\n        /* \"#utility.yul\":3755:3773   */\n      add\n        /* \"#utility.yul\":3747:3773   */\n      swap1\n      pop\n        /* \"#utility.yul\":3783:3848   */\n      tag_417\n        /* \"#utility.yul\":3845:3846   */\n      0x00\n        /* \"#utility.yul\":3834:3843   */\n      dup4\n        /* \"#utility.yul\":3830:3847   */\n      add\n        /* \"#utility.yul\":3821:3827   */\n      dup5\n        /* \"#utility.yul\":3783:3848   */\n      tag_311\n      jump\t// in\n    tag_417:\n        /* \"#utility.yul\":3645:3855   */\n      swap3\n      swap2\n      pop\n      pop\n      jump\t// out\n        /* \"#utility.yul\":3861:4335   */\n    tag_62:\n        /* \"#utility.yul\":3929:3935   */\n      0x00\n        /* \"#utility.yul\":3937:3943   */\n      dup1\n        /* \"#utility.yul\":3986:3988   */\n      0x40\n        /* \"#utility.yul\":3974:3983   */\n      dup4\n        /* \"#utility.yul\":3965:3972   */\n      dup6\n        /* \"#utility.yul\":3961:3984   */\n      sub\n        /* \"#utility.yul\":3957:3989   */\n      slt\n        /* \"#utility.yul\":3954:4073   */\n      iszero\n      tag_419\n      jumpi\n        /* \"#utility.yul\":3992:4071   */\n      tag_420\n      tag_298\n      jump\t// in\n    tag_420:\n        /* \"#utility.yul\":3954:4073   */\n    tag_419:\n        /* \"#utility.yul\":4112:4113   */\n      0x00\n        /* \"#utility.yul\":4137:4190   */\n      tag_421\n        /* \"#utility.yul\":4182:4189   */\n      dup6\n        /* \"#utility.yul\":4173:4179   */\n      dup3\n        /* \"#utility.yul\":4162:4171   */\n      dup7\n        /* \"#utility.yul\":4158:4180   */\n      add\n        /* \"#utility.yul\":4137:4190   */\n      tag_303\n      jump\t// in\n    tag_421:\n        /* \"#utility.yul\":4127:4190   */\n      swap3\n      pop\n        /* \"#utility.yul\":4083:4200   */\n      pop\n        /* \"#utility.yul\":4239:4241   */\n      0x20\n        /* \"#utility.yul\":4265:4318   */\n      tag_422\n        /* \"#utility.yul\":4310:4317   */\n      dup6\n        /* \"#utility.yul\":4301:4307   */\n      dup3\n        /* \"#utility.yul\":4290:4299   */\n      dup7\n        /* \"#utility.yul\":4286:4308   */\n      add\n        /* \"#utility.yul\":4265:4318   */\n      tag_306\n      jump\t// in\n    tag_422:\n        /* \"#utility.yul\":4255:4318   */\n      swap2\n      pop\n        /* \"#utility.yul\":4210:4328   */\n      pop\n        /* \"#utility.yul\":3861:4335   */\n      swap3\n      pop\n      swap3\n      swap1\n      pop\n      jump\t// out\n        /* \"#utility.yul\":4341:4759   */\n    tag_65:\n        /* \"#utility.yul\":4478:4482   */\n      0x00\n        /* \"#utility.yul\":4516:4518   */\n      0x60\n        /* \"#utility.yul\":4505:4514   */\n      dup3\n        /* \"#utility.yul\":4501:4519   */\n      add\n        /* \"#utility.yul\":4493:4519   */\n      swap1\n      pop\n        /* \"#utility.yul\":4529:4600   */\n      tag_424\n        /* \"#utility.yul\":4597:4598   */\n      0x00\n        /* \"#utility.yul\":4586:4595   */\n      dup4\n        /* \"#utility.yul\":4582:4599   */\n      add\n        /* \"#utility.yul\":4573:4579   */\n      dup7\n        /* \"#utility.yul\":4529:4600   */\n      tag_310\n      jump\t// in\n    tag_424:\n        /* \"#utility.yul\":4610:4676   */\n      tag_425\n        /* \"#utility.yul\":4672:4674   */\n      0x20\n        /* \"#utility.yul\":4661:4670   */\n      dup4\n        /* \"#utility.yul\":4657:4675   */\n      add\n        /* \"#utility.yul\":4648:4654   */\n      dup6\n        /* \"#utility.yul\":4610:4676   */\n      tag_311\n      jump\t// in\n    tag_425:\n        /* \"#utility.yul\":4686:4752   */\n      tag_426\n        /* \"#utility.yul\":4748:4750   */\n      0x40\n        /* \"#utility.yul\":4737:4746   */\n      dup4\n        /* \"#utility.yul\":4733:4751   */\n      add\n        /* \"#utility.yul\":4724:4730   */\n      dup5\n        /* \"#utility.yul\":4686:4752   */\n      tag_311\n      jump\t// in\n    tag_426:\n        /* \"#utility.yul\":4341:4759   */\n      swap5\n      swap4\n      pop\n      pop\n      pop\n      pop\n      jump\t// out\n        /* \"#utility.yul\":4765:4864   */\n    tag_312:\n        /* \"#utility.yul\":4817:4823   */\n      0x00\n        /* \"#utility.yul\":4851:4856   */\n      dup2\n        /* \"#utility.yul\":4845:4857   */\n      mload\n        /* \"#utility.yul\":4835:4857   */\n      swap1\n      pop\n        /* \"#utility.yul\":4765:4864   */\n      swap2\n      swap1\n      pop\n      jump\t// out\n        /* \"#utility.yul\":4870:5039   */\n    tag_313:\n        /* \"#utility.yul\":4954:4965   */\n      0x00\n        /* \"#utility.yul\":4988:4994   */\n      dup3\n        /* \"#utility.yul\":4983:4986   */\n      dup3\n        /* \"#utility.yul\":4976:4995   */\n      mstore\n        /* \"#utility.yul\":5028:5032   */\n      0x20\n        /* \"#utility.yul\":5023:5026   */\n      dup3\n        /* \"#utility.yul\":5019:5033   */\n      add\n        /* \"#utility.yul\":5004:5033   */\n      swap1\n      pop\n        /* \"#utility.yul\":4870:5039   */\n      swap3\n      swap2\n      pop\n      pop\n      jump\t// out\n        /* \"#utility.yul\":5045:5291   */\n    tag_314:\n        /* \"#utility.yul\":5126:5127   */\n      0x00\n        /* \"#utility.yul\":5136:5249   */\n    tag_430:\n        /* \"#utility.yul\":5150:5156   */\n      dup4\n        /* \"#utility.yul\":5147:5148   */\n      dup2\n        /* \"#utility.yul\":5144:5157   */\n      lt\n        /* \"#utility.yul\":5136:5249   */\n      iszero\n      tag_432\n      jumpi\n        /* \"#utility.yul\":5235:5236   */\n      dup1\n        /* \"#utility.yul\":5230:5233   */\n      dup3\n        /* \"#utility.yul\":5226:5237   */\n      add\n        /* \"#utility.yul\":5220:5238   */\n      mload\n        /* \"#utility.yul\":5216:5217   */\n      dup2\n        /* \"#utility.yul\":5211:5214   */\n      dup5\n        /* \"#utility.yul\":5207:5218   */\n      add\n        /* \"#utility.yul\":5200:5239   */\n      mstore\n        /* \"#utility.yul\":5172:5174   */\n      0x20\n        /* \"#utility.yul\":5169:5170   */\n      dup2\n        /* \"#utility.yul\":5165:5175   */\n      add\n        /* \"#utility.yul\":5160:5175   */\n      swap1\n      pop\n        /* \"#utility.yul\":5136:5249   */\n      jump(tag_430)\n    tag_432:\n        /* \"#utility.yul\":5283:5284   */\n      0x00\n        /* \"#utility.yul\":5274:5280   */\n      dup5\n        /* \"#utility.yul\":5269:5272   */\n      dup5\n        /* \"#utility.yul\":5265:5281   */\n      add\n        /* \"#utility.yul\":5258:5285   */\n      mstore\n        /* \"#utility.yul\":5107:5291   */\n      pop\n        /* \"#utility.yul\":5045:5291   */\n      pop\n      pop\n      pop\n      jump\t// out\n        /* \"#utility.yul\":5297:5399   */\n    tag_315:\n        /* \"#utility.yul\":5338:5344   */\n      0x00\n        /* \"#utility.yul\":5389:5391   */\n      0x1f\n        /* \"#utility.yul\":5385:5392   */\n      not\n        /* \"#utility.yul\":5380:5382   */\n      0x1f\n        /* \"#utility.yul\":5373:5378   */\n      dup4\n        /* \"#utility.yul\":5369:5383   */\n      add\n        /* \"#utility.yul\":5365:5393   */\n      and\n        /* \"#utility.yul\":5355:5393   */\n      swap1\n      pop\n        /* \"#utility.yul\":5297:5399   */\n      swap2\n      swap1\n      pop\n      jump\t// out\n        /* \"#utility.yul\":5405:5782   */\n    tag_316:\n        /* \"#utility.yul\":5493:5496   */\n      0x00\n        /* \"#utility.yul\":5521:5560   */\n      tag_435\n        /* \"#utility.yul\":5554:5559   */\n      dup3\n        /* \"#utility.yul\":5521:5560   */\n      tag_312\n      jump\t// in\n    tag_435:\n        /* \"#utility.yul\":5576:5647   */\n      tag_436\n        /* \"#utility.yul\":5640:5646   */\n      dup2\n        /* \"#utility.yul\":5635:5638   */\n      dup6\n        /* \"#utility.yul\":5576:5647   */\n      tag_313\n      jump\t// in\n    tag_436:\n        /* \"#utility.yul\":5569:5647   */\n      swap4\n      pop\n        /* \"#utility.yul\":5656:5721   */\n      tag_437\n        /* \"#utility.yul\":5714:5720   */\n      dup2\n        /* \"#utility.yul\":5709:5712   */\n      dup6\n        /* \"#utility.yul\":5702:5706   */\n      0x20\n        /* \"#utility.yul\":5695:5700   */\n      dup7\n        /* \"#utility.yul\":5691:5707   */\n      add\n        /* \"#utility.yul\":5656:5721   */\n      tag_314\n      jump\t// in\n    tag_437:\n        /* \"#utility.yul\":5746:5775   */\n      tag_438\n        /* \"#utility.yul\":5768:5774   */\n      dup2\n        /* \"#utility.yul\":5746:5775   */\n      tag_315\n      jump\t// in\n    tag_438:\n        /* \"#utility.yul\":5741:5744   */\n      dup5\n        /* \"#utility.yul\":5737:5776   */\n      add\n        /* \"#utility.yul\":5730:5776   */\n      swap2\n      pop\n        /* \"#utility.yul\":5497:5782   */\n      pop\n        /* \"#utility.yul\":5405:5782   */\n      swap3\n      swap2\n      pop\n      pop\n      jump\t// out\n        /* \"#utility.yul\":5788:5906   */\n    tag_317:\n        /* \"#utility.yul\":5875:5899   */\n      tag_440\n        /* \"#utility.yul\":5893:5898   */\n      dup2\n        /* \"#utility.yul\":5875:5899   */\n      tag_301\n      jump\t// in\n    tag_440:\n        /* \"#utility.yul\":5870:5873   */\n      dup3\n        /* \"#utility.yul\":5863:5900   */\n      mstore\n        /* \"#utility.yul\":5788:5906   */\n      pop\n      pop\n      jump\t// out\n        /* \"#utility.yul\":5912:7269   */\n    tag_71:\n        /* \"#utility.yul\":6277:6281   */\n      0x00\n        /* \"#utility.yul\":6315:6318   */\n      0x0120\n        /* \"#utility.yul\":6304:6313   */\n      dup3\n        /* \"#utility.yul\":6300:6319   */\n      add\n        /* \"#utility.yul\":6292:6319   */\n      swap1\n      pop\n        /* \"#utility.yul\":6329:6400   */\n      tag_442\n        /* \"#utility.yul\":6397:6398   */\n      0x00\n        /* \"#utility.yul\":6386:6395   */\n      dup4\n        /* \"#utility.yul\":6382:6399   */\n      add\n        /* \"#utility.yul\":6373:6379   */\n      dup13\n        /* \"#utility.yul\":6329:6400   */\n      tag_310\n      jump\t// in\n    tag_442:\n        /* \"#utility.yul\":6447:6456   */\n      dup2\n        /* \"#utility.yul\":6441:6445   */\n      dup2\n        /* \"#utility.yul\":6437:6457   */\n      sub\n        /* \"#utility.yul\":6432:6434   */\n      0x20\n        /* \"#utility.yul\":6421:6430   */\n      dup4\n        /* \"#utility.yul\":6417:6435   */\n      add\n        /* \"#utility.yul\":6410:6458   */\n      mstore\n        /* \"#utility.yul\":6475:6553   */\n      tag_443\n        /* \"#utility.yul\":6548:6552   */\n      dup2\n        /* \"#utility.yul\":6539:6545   */\n      dup12\n        /* \"#utility.yul\":6475:6553   */\n      tag_316\n      jump\t// in\n    tag_443:\n        /* \"#utility.yul\":6467:6553   */\n      swap1\n      pop\n        /* \"#utility.yul\":6563:6635   */\n      tag_444\n        /* \"#utility.yul\":6631:6633   */\n      0x40\n        /* \"#utility.yul\":6620:6629   */\n      dup4\n        /* \"#utility.yul\":6616:6634   */\n      add\n        /* \"#utility.yul\":6607:6613   */\n      dup11\n        /* \"#utility.yul\":6563:6635   */\n      tag_317\n      jump\t// in\n    tag_444:\n        /* \"#utility.yul\":6682:6691   */\n      dup2\n        /* \"#utility.yul\":6676:6680   */\n      dup2\n        /* \"#utility.yul\":6672:6692   */\n      sub\n        /* \"#utility.yul\":6667:6669   */\n      0x60\n        /* \"#utility.yul\":6656:6665   */\n      dup4\n        /* \"#utility.yul\":6652:6670   */\n      add\n        /* \"#utility.yul\":6645:6693   */\n      mstore\n        /* \"#utility.yul\":6710:6788   */\n      tag_445\n        /* \"#utility.yul\":6783:6787   */\n      dup2\n        /* \"#utility.yul\":6774:6780   */\n      dup10\n        /* \"#utility.yul\":6710:6788   */\n      tag_316\n      jump\t// in\n    tag_445:\n        /* \"#utility.yul\":6702:6788   */\n      swap1\n      pop\n        /* \"#utility.yul\":6798:6871   */\n      tag_446\n        /* \"#utility.yul\":6866:6869   */\n      0x80\n        /* \"#utility.yul\":6855:6864   */\n      dup4\n        /* \"#utility.yul\":6851:6870   */\n      add\n        /* \"#utility.yul\":6842:6848   */\n      dup9\n        /* \"#utility.yul\":6798:6871   */\n      tag_317\n      jump\t// in\n    tag_446:\n        /* \"#utility.yul\":6919:6928   */\n      dup2\n        /* \"#utility.yul\":6913:6917   */\n      dup2\n        /* \"#utility.yul\":6909:6929   */\n      sub\n        /* \"#utility.yul\":6903:6906   */\n      0xa0\n        /* \"#utility.yul\":6892:6901   */\n      dup4\n        /* \"#utility.yul\":6888:6907   */\n      add\n        /* \"#utility.yul\":6881:6930   */\n      mstore\n        /* \"#utility.yul\":6947:7025   */\n      tag_447\n        /* \"#utility.yul\":7020:7024   */\n      dup2\n        /* \"#utility.yul\":7011:7017   */\n      dup8\n        /* \"#utility.yul\":6947:7025   */\n      tag_316\n      jump\t// in\n    tag_447:\n        /* \"#utility.yul\":6939:7025   */\n      swap1\n      pop\n        /* \"#utility.yul\":7035:7108   */\n      tag_448\n        /* \"#utility.yul\":7103:7106   */\n      0xc0\n        /* \"#utility.yul\":7092:7101   */\n      dup4\n        /* \"#utility.yul\":7088:7107   */\n      add\n        /* \"#utility.yul\":7079:7085   */\n      dup7\n        /* \"#utility.yul\":7035:7108   */\n      tag_310\n      jump\t// in\n    tag_448:\n        /* \"#utility.yul\":7118:7185   */\n      tag_449\n        /* \"#utility.yul\":7180:7183   */\n      0xe0\n        /* \"#utility.yul\":7169:7178   */\n      dup4\n        /* \"#utility.yul\":7165:7184   */\n      add\n        /* \"#utility.yul\":7156:7162   */\n      dup6\n        /* \"#utility.yul\":7118:7185   */\n      tag_311\n      jump\t// in\n    tag_449:\n        /* \"#utility.yul\":7195:7262   */\n      tag_450\n        /* \"#utility.yul\":7257:7260   */\n      0x0100\n        /* \"#utility.yul\":7246:7255   */\n      dup4\n        /* \"#utility.yul\":7242:7261   */\n      add\n        /* \"#utility.yul\":7233:7239   */\n      dup5\n        /* \"#utility.yul\":7195:7262   */\n      tag_311\n      jump\t// in\n    tag_450:\n        /* \"#utility.yul\":5912:7269   */\n      swap11\n      swap10\n      pop\n      pop\n      pop\n      pop\n      pop\n      pop\n      pop\n      pop\n      pop\n      pop\n      jump\t// out\n        /* \"#utility.yul\":7275:7607   */\n    tag_77:\n        /* \"#utility.yul\":7396:7400   */\n      0x00\n        /* \"#utility.yul\":7434:7436   */\n      0x40\n        /* \"#utility.yul\":7423:7432   */\n      dup3\n        /* \"#utility.yul\":7419:7437   */\n      add\n        /* \"#utility.yul\":7411:7437   */\n      swap1\n      pop\n        /* \"#utility.yul\":7447:7518   */\n      tag_452\n        /* \"#utility.yul\":7515:7516   */\n      0x00\n        /* \"#utility.yul\":7504:7513   */\n      dup4\n        /* \"#utility.yul\":7500:7517   */\n      add\n        /* \"#utility.yul\":7491:7497   */\n      dup6\n        /* \"#utility.yul\":7447:7518   */\n      tag_310\n      jump\t// in\n    tag_452:\n        /* \"#utility.yul\":7528:7600   */\n      tag_453\n        /* \"#utility.yul\":7596:7598   */\n      0x20\n        /* \"#utility.yul\":7585:7594   */\n      dup4\n        /* \"#utility.yul\":7581:7599   */\n      add\n        /* \"#utility.yul\":7572:7578   */\n      dup5\n        /* \"#utility.yul\":7528:7600   */\n      tag_310\n      jump\t// in\n    tag_453:\n        /* \"#utility.yul\":7275:7607   */\n      swap4\n      swap3\n      pop\n      pop\n      pop\n      jump\t// out\n        /* \"#utility.yul\":7613:8043   */\n    tag_87:\n        /* \"#utility.yul\":7756:7760   */\n      0x00\n        /* \"#utility.yul\":7794:7796   */\n      0x60\n        /* \"#utility.yul\":7783:7792   */\n      dup3\n        /* \"#utility.yul\":7779:7797   */\n      add\n        /* \"#utility.yul\":7771:7797   */\n      swap1\n      pop\n        /* \"#utility.yul\":7807:7872   */\n      tag_455\n        /* \"#utility.yul\":7869:7870   */\n      0x00\n        /* \"#utility.yul\":7858:7867   */\n      dup4\n        /* \"#utility.yul\":7854:7871   */\n      add\n        /* \"#utility.yul\":7845:7851   */\n      dup7\n        /* \"#utility.yul\":7807:7872   */\n      tag_311\n      jump\t// in\n    tag_455:\n        /* \"#utility.yul\":7882:7954   */\n      tag_456\n        /* \"#utility.yul\":7950:7952   */\n      0x20\n        /* \"#utility.yul\":7939:7948   */\n      dup4\n        /* \"#utility.yul\":7935:7953   */\n      add\n        /* \"#utility.yul\":7926:7932   */\n      dup6\n        /* \"#utility.yul\":7882:7954   */\n      tag_310\n      jump\t// in\n    tag_456:\n        /* \"#utility.yul\":7964:8036   */\n      tag_457\n        /* \"#utility.yul\":8032:8034   */\n      0x40\n        /* \"#utility.yul\":8021:8030   */\n      dup4\n        /* \"#utility.yul\":8017:8035   */\n      add\n        /* \"#utility.yul\":8008:8014   */\n      dup5\n        /* \"#utility.yul\":7964:8036   */\n      tag_310\n      jump\t// in\n    tag_457:\n        /* \"#utility.yul\":7613:8043   */\n      swap5\n      swap4\n      pop\n      pop\n      pop\n      pop\n      jump\t// out\n        /* \"#utility.yul\":8049:8166   */\n    tag_318:\n        /* \"#utility.yul\":8158:8159   */\n      0x00\n        /* \"#utility.yul\":8155:8156   */\n      dup1\n        /* \"#utility.yul\":8148:8160   */\n      revert\n        /* \"#utility.yul\":8172:8289   */\n    tag_319:\n        /* \"#utility.yul\":8281:8282   */\n      0x00\n        /* \"#utility.yul\":8278:8279   */\n      dup1\n        /* \"#utility.yul\":8271:8283   */\n      revert\n        /* \"#utility.yul\":8295:8475   */\n    tag_320:\n        /* \"#utility.yul\":8343:8420   */\n      0x4e487b7100000000000000000000000000000000000000000000000000000000\n        /* \"#utility.yul\":8340:8341   */\n      0x00\n        /* \"#utility.yul\":8333:8421   */\n      mstore\n        /* \"#utility.yul\":8440:8444   */\n      0x41\n        /* \"#utility.yul\":8437:8438   */\n      0x04\n        /* \"#utility.yul\":8430:8445   */\n      mstore\n        /* \"#utility.yul\":8464:8468   */\n      0x24\n        /* \"#utility.yul\":8461:8462   */\n      0x00\n        /* \"#utility.yul\":8454:8469   */\n      revert\n        /* \"#utility.yul\":8481:8762   */\n    tag_321:\n        /* \"#utility.yul\":8564:8591   */\n      tag_462\n        /* \"#utility.yul\":8586:8590   */\n      dup3\n        /* \"#utility.yul\":8564:8591   */\n      tag_315\n      jump\t// in\n    tag_462:\n        /* \"#utility.yul\":8556:8562   */\n      dup2\n        /* \"#utility.yul\":8552:8592   */\n      add\n        /* \"#utility.yul\":8694:8700   */\n      dup2\n        /* \"#utility.yul\":8682:8692   */\n      dup2\n        /* \"#utility.yul\":8679:8701   */\n      lt\n        /* \"#utility.yul\":8658:8676   */\n      0xffffffffffffffff\n        /* \"#utility.yul\":8646:8656   */\n      dup3\n        /* \"#utility.yul\":8643:8677   */\n      gt\n        /* \"#utility.yul\":8640:8702   */\n      or\n        /* \"#utility.yul\":8637:8725   */\n      iszero\n      tag_463\n      jumpi\n        /* \"#utility.yul\":8705:8723   */\n      tag_464\n      tag_320\n      jump\t// in\n    tag_464:\n        /* \"#utility.yul\":8637:8725   */\n    tag_463:\n        /* \"#utility.yul\":8745:8755   */\n      dup1\n        /* \"#utility.yul\":8741:8743   */\n      0x40\n        /* \"#utility.yul\":8734:8756   */\n      mstore\n        /* \"#utility.yul\":8524:8762   */\n      pop\n        /* \"#utility.yul\":8481:8762   */\n      pop\n      pop\n      jump\t// out\n        /* \"#utility.yul\":8768:8897   */\n    tag_322:\n        /* \"#utility.yul\":8802:8808   */\n      0x00\n        /* \"#utility.yul\":8829:8849   */\n      tag_466\n      tag_297\n      jump\t// in\n    tag_466:\n        /* \"#utility.yul\":8819:8849   */\n      swap1\n      pop\n        /* \"#utility.yul\":8858:8891   */\n      tag_467\n        /* \"#utility.yul\":8886:8890   */\n      dup3\n        /* \"#utility.yul\":8878:8884   */\n      dup3\n        /* \"#utility.yul\":8858:8891   */\n      tag_321\n      jump\t// in\n    tag_467:\n        /* \"#utility.yul\":8768:8897   */\n      swap2\n      swap1\n      pop\n      jump\t// out\n        /* \"#utility.yul\":8903:9211   */\n    tag_323:\n        /* \"#utility.yul\":8965:8969   */\n      0x00\n        /* \"#utility.yul\":9055:9073   */\n      0xffffffffffffffff\n        /* \"#utility.yul\":9047:9053   */\n      dup3\n        /* \"#utility.yul\":9044:9074   */\n      gt\n        /* \"#utility.yul\":9041:9097   */\n      iszero\n      tag_469\n      jumpi\n        /* \"#utility.yul\":9077:9095   */\n      tag_470\n      tag_320\n      jump\t// in\n    tag_470:\n        /* \"#utility.yul\":9041:9097   */\n    tag_469:\n        /* \"#utility.yul\":9115:9144   */\n      tag_471\n        /* \"#utility.yul\":9137:9143   */\n      dup3\n        /* \"#utility.yul\":9115:9144   */\n      tag_315\n      jump\t// in\n    tag_471:\n        /* \"#utility.yul\":9107:9144   */\n      swap1\n      pop\n        /* \"#utility.yul\":9199:9203   */\n      0x20\n        /* \"#utility.yul\":9193:9197   */\n      dup2\n        /* \"#utility.yul\":9189:9204   */\n      add\n        /* \"#utility.yul\":9181:9204   */\n      swap1\n      pop\n        /* \"#utility.yul\":8903:9211   */\n      swap2\n      swap1\n      pop\n      jump\t// out\n        /* \"#utility.yul\":9217:9363   */\n    tag_324:\n        /* \"#utility.yul\":9314:9320   */\n      dup3\n        /* \"#utility.yul\":9309:9312   */\n      dup2\n        /* \"#utility.yul\":9304:9307   */\n      dup4\n        /* \"#utility.yul\":9291:9321   */\n      calldatacopy\n        /* \"#utility.yul\":9355:9356   */\n      0x00\n        /* \"#utility.yul\":9346:9352   */\n      dup4\n        /* \"#utility.yul\":9341:9344   */\n      dup4\n        /* \"#utility.yul\":9337:9353   */\n      add\n        /* \"#utility.yul\":9330:9357   */\n      mstore\n        /* \"#utility.yul\":9217:9363   */\n      pop\n      pop\n      pop\n      jump\t// out\n        /* \"#utility.yul\":9369:9794   */\n    tag_325:\n        /* \"#utility.yul\":9447:9452   */\n      0x00\n        /* \"#utility.yul\":9472:9538   */\n      tag_474\n        /* \"#utility.yul\":9488:9537   */\n      tag_475\n        /* \"#utility.yul\":9530:9536   */\n      dup5\n        /* \"#utility.yul\":9488:9537   */\n      tag_323\n      jump\t// in\n    tag_475:\n        /* \"#utility.yul\":9472:9538   */\n      tag_322\n      jump\t// in\n    tag_474:\n        /* \"#utility.yul\":9463:9538   */\n      swap1\n      pop\n        /* \"#utility.yul\":9561:9567   */\n      dup3\n        /* \"#utility.yul\":9554:9559   */\n      dup2\n        /* \"#utility.yul\":9547:9568   */\n      mstore\n        /* \"#utility.yul\":9599:9603   */\n      0x20\n        /* \"#utility.yul\":9592:9597   */\n      dup2\n        /* \"#utility.yul\":9588:9604   */\n      add\n        /* \"#utility.yul\":9637:9640   */\n      dup5\n        /* \"#utility.yul\":9628:9634   */\n      dup5\n        /* \"#utility.yul\":9623:9626   */\n      dup5\n        /* \"#utility.yul\":9619:9635   */\n      add\n        /* \"#utility.yul\":9616:9641   */\n      gt\n        /* \"#utility.yul\":9613:9725   */\n      iszero\n      tag_476\n      jumpi\n        /* \"#utility.yul\":9644:9723   */\n      tag_477\n      tag_319\n      jump\t// in\n    tag_477:\n        /* \"#utility.yul\":9613:9725   */\n    tag_476:\n        /* \"#utility.yul\":9734:9788   */\n      tag_478\n        /* \"#utility.yul\":9781:9787   */\n      dup5\n        /* \"#utility.yul\":9776:9779   */\n      dup3\n        /* \"#utility.yul\":9771:9774   */\n      dup6\n        /* \"#utility.yul\":9734:9788   */\n      tag_324\n      jump\t// in\n    tag_478:\n        /* \"#utility.yul\":9453:9794   */\n      pop\n        /* \"#utility.yul\":9369:9794   */\n      swap4\n      swap3\n      pop\n      pop\n      pop\n      jump\t// out\n        /* \"#utility.yul\":9814:10154   */\n    tag_326:\n        /* \"#utility.yul\":9870:9875   */\n      0x00\n        /* \"#utility.yul\":9919:9922   */\n      dup3\n        /* \"#utility.yul\":9912:9916   */\n      0x1f\n        /* \"#utility.yul\":9904:9910   */\n      dup4\n        /* \"#utility.yul\":9900:9917   */\n      add\n        /* \"#utility.yul\":9896:9923   */\n      slt\n        /* \"#utility.yul\":9886:10008   */\n      tag_480\n      jumpi\n        /* \"#utility.yul\":9927:10006   */\n      tag_481\n      tag_318\n      jump\t// in\n    tag_481:\n        /* \"#utility.yul\":9886:10008   */\n    tag_480:\n        /* \"#utility.yul\":10044:10050   */\n      dup2\n        /* \"#utility.yul\":10031:10051   */\n      calldataload\n        /* \"#utility.yul\":10069:10148   */\n      tag_482\n        /* \"#utility.yul\":10144:10147   */\n      dup5\n        /* \"#utility.yul\":10136:10142   */\n      dup3\n        /* \"#utility.yul\":10129:10133   */\n      0x20\n        /* \"#utility.yul\":10121:10127   */\n      dup7\n        /* \"#utility.yul\":10117:10134   */\n      add\n        /* \"#utility.yul\":10069:10148   */\n      tag_325\n      jump\t// in\n    tag_482:\n        /* \"#utility.yul\":10060:10148   */\n      swap2\n      pop\n        /* \"#utility.yul\":9876:10154   */\n      pop\n        /* \"#utility.yul\":9814:10154   */\n      swap3\n      swap2\n      pop\n      pop\n      jump\t// out\n        /* \"#utility.yul\":10160:11465   */\n    tag_103:\n        /* \"#utility.yul\":10276:10282   */\n      0x00\n        /* \"#utility.yul\":10284:10290   */\n      dup1\n        /* \"#utility.yul\":10292:10298   */\n      0x00\n        /* \"#utility.yul\":10300:10306   */\n      dup1\n        /* \"#utility.yul\":10349:10352   */\n      0x80\n        /* \"#utility.yul\":10337:10346   */\n      dup6\n        /* \"#utility.yul\":10328:10335   */\n      dup8\n        /* \"#utility.yul\":10324:10347   */\n      sub\n        /* \"#utility.yul\":10320:10353   */\n      slt\n        /* \"#utility.yul\":10317:10437   */\n      iszero\n      tag_484\n      jumpi\n        /* \"#utility.yul\":10356:10435   */\n      tag_485\n      tag_298\n      jump\t// in\n    tag_485:\n        /* \"#utility.yul\":10317:10437   */\n    tag_484:\n        /* \"#utility.yul\":10504:10505   */\n      0x00\n        /* \"#utility.yul\":10493:10502   */\n      dup6\n        /* \"#utility.yul\":10489:10506   */\n      add\n        /* \"#utility.yul\":10476:10507   */\n      calldataload\n        /* \"#utility.yul\":10534:10552   */\n      0xffffffffffffffff\n        /* \"#utility.yul\":10526:10532   */\n      dup2\n        /* \"#utility.yul\":10523:10553   */\n      gt\n        /* \"#utility.yul\":10520:10637   */\n      iszero\n      tag_486\n      jumpi\n        /* \"#utility.yul\":10556:10635   */\n      tag_487\n      tag_299\n      jump\t// in\n    tag_487:\n        /* \"#utility.yul\":10520:10637   */\n    tag_486:\n        /* \"#utility.yul\":10661:10724   */\n      tag_488\n        /* \"#utility.yul\":10716:10723   */\n      dup8\n        /* \"#utility.yul\":10707:10713   */\n      dup3\n        /* \"#utility.yul\":10696:10705   */\n      dup9\n        /* \"#utility.yul\":10692:10714   */\n      add\n        /* \"#utility.yul\":10661:10724   */\n      tag_326\n      jump\t// in\n    tag_488:\n        /* \"#utility.yul\":10651:10724   */\n      swap5\n      pop\n        /* \"#utility.yul\":10447:10734   */\n      pop\n        /* \"#utility.yul\":10801:10803   */\n      0x20\n        /* \"#utility.yul\":10790:10799   */\n      dup6\n        /* \"#utility.yul\":10786:10804   */\n      add\n        /* \"#utility.yul\":10773:10805   */\n      calldataload\n        /* \"#utility.yul\":10832:10850   */\n      0xffffffffffffffff\n        /* \"#utility.yul\":10824:10830   */\n      dup2\n        /* \"#utility.yul\":10821:10851   */\n      gt\n        /* \"#utility.yul\":10818:10935   */\n      iszero\n      tag_489\n      jumpi\n        /* \"#utility.yul\":10854:10933   */\n      tag_490\n      tag_299\n      jump\t// in\n    tag_490:\n        /* \"#utility.yul\":10818:10935   */\n    tag_489:\n        /* \"#utility.yul\":10959:11022   */\n      tag_491\n        /* \"#utility.yul\":11014:11021   */\n      dup8\n        /* \"#utility.yul\":11005:11011   */\n      dup3\n        /* \"#utility.yul\":10994:11003   */\n      dup9\n        /* \"#utility.yul\":10990:11012   */\n      add\n        /* \"#utility.yul\":10959:11022   */\n      tag_326\n      jump\t// in\n    tag_491:\n        /* \"#utility.yul\":10949:11022   */\n      swap4\n      pop\n        /* \"#utility.yul\":10744:11032   */\n      pop\n        /* \"#utility.yul\":11071:11073   */\n      0x40\n        /* \"#utility.yul\":11097:11150   */\n      tag_492\n        /* \"#utility.yul\":11142:11149   */\n      dup8\n        /* \"#utility.yul\":11133:11139   */\n      dup3\n        /* \"#utility.yul\":11122:11131   */\n      dup9\n        /* \"#utility.yul\":11118:11140   */\n      add\n        /* \"#utility.yul\":11097:11150   */\n      tag_303\n      jump\t// in\n    tag_492:\n        /* \"#utility.yul\":11087:11150   */\n      swap3\n      pop\n        /* \"#utility.yul\":11042:11160   */\n      pop\n        /* \"#utility.yul\":11227:11229   */\n      0x60\n        /* \"#utility.yul\":11216:11225   */\n      dup6\n        /* \"#utility.yul\":11212:11230   */\n      add\n        /* \"#utility.yul\":11199:11231   */\n      calldataload\n        /* \"#utility.yul\":11258:11276   */\n      0xffffffffffffffff\n        /* \"#utility.yul\":11250:11256   */\n      dup2\n        /* \"#utility.yul\":11247:11277   */\n      gt\n        /* \"#utility.yul\":11244:11361   */\n      iszero\n      tag_493\n      jumpi\n        /* \"#utility.yul\":11280:11359   */\n      tag_494\n      tag_299\n      jump\t// in\n    tag_494:\n        /* \"#utility.yul\":11244:11361   */\n    tag_493:\n        /* \"#utility.yul\":11385:11448   */\n      tag_495\n        /* \"#utility.yul\":11440:11447   */\n      dup8\n        /* \"#utility.yul\":11431:11437   */\n      dup3\n        /* \"#utility.yul\":11420:11429   */\n      dup9\n        /* \"#utility.yul\":11416:11438   */\n      add\n        /* \"#utility.yul\":11385:11448   */\n      tag_326\n      jump\t// in\n    tag_495:\n        /* \"#utility.yul\":11375:11448   */\n      swap2\n      pop\n        /* \"#utility.yul\":11170:11458   */\n      pop\n        /* \"#utility.yul\":10160:11465   */\n      swap3\n      swap6\n      swap2\n      swap5\n      pop\n      swap3\n      pop\n      jump\t// out\n        /* \"#utility.yul\":11471:11693   */\n    tag_112:\n        /* \"#utility.yul\":11564:11568   */\n      0x00\n        /* \"#utility.yul\":11602:11604   */\n      0x20\n        /* \"#utility.yul\":11591:11600   */\n      dup3\n        /* \"#utility.yul\":11587:11605   */\n      add\n        /* \"#utility.yul\":11579:11605   */\n      swap1\n      pop\n        /* \"#utility.yul\":11615:11686   */\n      tag_497\n        /* \"#utility.yul\":11683:11684   */\n      0x00\n        /* \"#utility.yul\":11672:11681   */\n      dup4\n        /* \"#utility.yul\":11668:11685   */\n      add\n        /* \"#utility.yul\":11659:11665   */\n      dup5\n        /* \"#utility.yul\":11615:11686   */\n      tag_317\n      jump\t// in\n    tag_497:\n        /* \"#utility.yul\":11471:11693   */\n      swap3\n      swap2\n      pop\n      pop\n      jump\t// out\n        /* \"#utility.yul\":11699:12208   */\n    tag_116:\n        /* \"#utility.yul\":11768:11774   */\n      0x00\n        /* \"#utility.yul\":11817:11819   */\n      0x20\n        /* \"#utility.yul\":11805:11814   */\n      dup3\n        /* \"#utility.yul\":11796:11803   */\n      dup5\n        /* \"#utility.yul\":11792:11815   */\n      sub\n        /* \"#utility.yul\":11788:11820   */\n      slt\n        /* \"#utility.yul\":11785:11904   */\n      iszero\n      tag_499\n      jumpi\n        /* \"#utility.yul\":11823:11902   */\n      tag_500\n      tag_298\n      jump\t// in\n    tag_500:\n        /* \"#utility.yul\":11785:11904   */\n    tag_499:\n        /* \"#utility.yul\":11971:11972   */\n      0x00\n        /* \"#utility.yul\":11960:11969   */\n      dup3\n        /* \"#utility.yul\":11956:11973   */\n      add\n        /* \"#utility.yul\":11943:11974   */\n      calldataload\n        /* \"#utility.yul\":12001:12019   */\n      0xffffffffffffffff\n        /* \"#utility.yul\":11993:11999   */\n      dup2\n        /* \"#utility.yul\":11990:12020   */\n      gt\n        /* \"#utility.yul\":11987:12104   */\n      iszero\n      tag_501\n      jumpi\n        /* \"#utility.yul\":12023:12102   */\n      tag_502\n      tag_299\n      jump\t// in\n    tag_502:\n        /* \"#utility.yul\":11987:12104   */\n    tag_501:\n        /* \"#utility.yul\":12128:12191   */\n      tag_503\n        /* \"#utility.yul\":12183:12190   */\n      dup5\n        /* \"#utility.yul\":12174:12180   */\n      dup3\n        /* \"#utility.yul\":12163:12172   */\n      dup6\n        /* \"#utility.yul\":12159:12181   */\n      add\n        /* \"#utility.yul\":12128:12191   */\n      tag_326\n      jump\t// in\n    tag_503:\n        /* \"#utility.yul\":12118:12191   */\n      swap2\n      pop\n        /* \"#utility.yul\":11914:12201   */\n      pop\n        /* \"#utility.yul\":11699:12208   */\n      swap3\n      swap2\n      pop\n      pop\n      jump\t// out\n        /* \"#utility.yul\":12214:12625   */\n    tag_123:\n        /* \"#utility.yul\":12349:12353   */\n      0x00\n        /* \"#utility.yul\":12387:12389   */\n      0x40\n        /* \"#utility.yul\":12376:12385   */\n      dup3\n        /* \"#utility.yul\":12372:12390   */\n      add\n        /* \"#utility.yul\":12364:12390   */\n      swap1\n      pop\n        /* \"#utility.yul\":12436:12445   */\n      dup2\n        /* \"#utility.yul\":12430:12434   */\n      dup2\n        /* \"#utility.yul\":12426:12446   */\n      sub\n        /* \"#utility.yul\":12422:12423   */\n      0x00\n        /* \"#utility.yul\":12411:12420   */\n      dup4\n        /* \"#utility.yul\":12407:12424   */\n      add\n        /* \"#utility.yul\":12400:12447   */\n      mstore\n        /* \"#utility.yul\":12464:12542   */\n      tag_505\n        /* \"#utility.yul\":12537:12541   */\n      dup2\n        /* \"#utility.yul\":12528:12534   */\n      dup6\n        /* \"#utility.yul\":12464:12542   */\n      tag_316\n      jump\t// in\n    tag_505:\n        /* \"#utility.yul\":12456:12542   */\n      swap1\n      pop\n        /* \"#utility.yul\":12552:12618   */\n      tag_506\n        /* \"#utility.yul\":12614:12616   */\n      0x20\n        /* \"#utility.yul\":12603:12612   */\n      dup4\n        /* \"#utility.yul\":12599:12617   */\n      add\n        /* \"#utility.yul\":12590:12596   */\n      dup5\n        /* \"#utility.yul\":12552:12618   */\n      tag_311\n      jump\t// in\n    tag_506:\n        /* \"#utility.yul\":12214:12625   */\n      swap4\n      swap3\n      pop\n      pop\n      pop\n      jump\t// out\n        /* \"#utility.yul\":12631:12795   */\n    tag_327:\n        /* \"#utility.yul\":12771:12787   */\n      0x4143434553532044454e49454421000000000000000000000000000000000000\n        /* \"#utility.yul\":12767:12768   */\n      0x00\n        /* \"#utility.yul\":12759:12765   */\n      dup3\n        /* \"#utility.yul\":12755:12769   */\n      add\n        /* \"#utility.yul\":12748:12788   */\n      mstore\n        /* \"#utility.yul\":12631:12795   */\n      pop\n      jump\t// out\n        /* \"#utility.yul\":12801:13167   */\n    tag_328:\n        /* \"#utility.yul\":12943:12946   */\n      0x00\n        /* \"#utility.yul\":12964:13031   */\n      tag_509\n        /* \"#utility.yul\":13028:13030   */\n      0x0e\n        /* \"#utility.yul\":13023:13026   */\n      dup4\n        /* \"#utility.yul\":12964:13031   */\n      tag_313\n      jump\t// in\n    tag_509:\n        /* \"#utility.yul\":12957:13031   */\n      swap2\n      pop\n        /* \"#utility.yul\":13040:13133   */\n      tag_510\n        /* \"#utility.yul\":13129:13132   */\n      dup3\n        /* \"#utility.yul\":13040:13133   */\n      tag_327\n      jump\t// in\n    tag_510:\n        /* \"#utility.yul\":13158:13160   */\n      0x20\n        /* \"#utility.yul\":13153:13156   */\n      dup3\n        /* \"#utility.yul\":13149:13161   */\n      add\n        /* \"#utility.yul\":13142:13161   */\n      swap1\n      pop\n        /* \"#utility.yul\":12801:13167   */\n      swap2\n      swap1\n      pop\n      jump\t// out\n        /* \"#utility.yul\":13173:13592   */\n    tag_127:\n        /* \"#utility.yul\":13339:13343   */\n      0x00\n        /* \"#utility.yul\":13377:13379   */\n      0x20\n        /* \"#utility.yul\":13366:13375   */\n      dup3\n        /* \"#utility.yul\":13362:13380   */\n      add\n        /* \"#utility.yul\":13354:13380   */\n      swap1\n      pop\n        /* \"#utility.yul\":13426:13435   */\n      dup2\n        /* \"#utility.yul\":13420:13424   */\n      dup2\n        /* \"#utility.yul\":13416:13436   */\n      sub\n        /* \"#utility.yul\":13412:13413   */\n      0x00\n        /* \"#utility.yul\":13401:13410   */\n      dup4\n        /* \"#utility.yul\":13397:13414   */\n      add\n        /* \"#utility.yul\":13390:13437   */\n      mstore\n        /* \"#utility.yul\":13454:13585   */\n      tag_512\n        /* \"#utility.yul\":13580:13584   */\n      dup2\n        /* \"#utility.yul\":13454:13585   */\n      tag_328\n      jump\t// in\n    tag_512:\n        /* \"#utility.yul\":13446:13585   */\n      swap1\n      pop\n        /* \"#utility.yul\":13173:13592   */\n      swap2\n      swap1\n      pop\n      jump\t// out\n        /* \"#utility.yul\":13598:13778   */\n    tag_329:\n        /* \"#utility.yul\":13646:13723   */\n      0x4e487b7100000000000000000000000000000000000000000000000000000000\n        /* \"#utility.yul\":13643:13644   */\n      0x00\n        /* \"#utility.yul\":13636:13724   */\n      mstore\n        /* \"#utility.yul\":13743:13747   */\n      0x11\n        /* \"#utility.yul\":13740:13741   */\n      0x04\n        /* \"#utility.yul\":13733:13748   */\n      mstore\n        /* \"#utility.yul\":13767:13771   */\n      0x24\n        /* \"#utility.yul\":13764:13765   */\n      0x00\n        /* \"#utility.yul\":13757:13772   */\n      revert\n        /* \"#utility.yul\":13784:13978   */\n    tag_130:\n        /* \"#utility.yul\":13824:13828   */\n      0x00\n        /* \"#utility.yul\":13844:13864   */\n      tag_515\n        /* \"#utility.yul\":13862:13863   */\n      dup3\n        /* \"#utility.yul\":13844:13864   */\n      tag_304\n      jump\t// in\n    tag_515:\n        /* \"#utility.yul\":13839:13864   */\n      swap2\n      pop\n        /* \"#utility.yul\":13878:13898   */\n      tag_516\n        /* \"#utility.yul\":13896:13897   */\n      dup4\n        /* \"#utility.yul\":13878:13898   */\n      tag_304\n      jump\t// in\n    tag_516:\n        /* \"#utility.yul\":13873:13898   */\n      swap3\n      pop\n        /* \"#utility.yul\":13922:13923   */\n      dup3\n        /* \"#utility.yul\":13919:13920   */\n      dup3\n        /* \"#utility.yul\":13915:13924   */\n      sub\n        /* \"#utility.yul\":13907:13924   */\n      swap1\n      pop\n        /* \"#utility.yul\":13946:13947   */\n      dup2\n        /* \"#utility.yul\":13940:13944   */\n      dup2\n        /* \"#utility.yul\":13937:13948   */\n      gt\n        /* \"#utility.yul\":13934:13971   */\n      iszero\n      tag_517\n      jumpi\n        /* \"#utility.yul\":13951:13969   */\n      tag_518\n      tag_329\n      jump\t// in\n    tag_518:\n        /* \"#utility.yul\":13934:13971   */\n    tag_517:\n        /* \"#utility.yul\":13784:13978   */\n      swap3\n      swap2\n      pop\n      pop\n      jump\t// out\n        /* \"#utility.yul\":13984:14175   */\n    tag_133:\n        /* \"#utility.yul\":14024:14027   */\n      0x00\n        /* \"#utility.yul\":14043:14063   */\n      tag_520\n        /* \"#utility.yul\":14061:14062   */\n      dup3\n        /* \"#utility.yul\":14043:14063   */\n      tag_304\n      jump\t// in\n    tag_520:\n        /* \"#utility.yul\":14038:14063   */\n      swap2\n      pop\n        /* \"#utility.yul\":14077:14097   */\n      tag_521\n        /* \"#utility.yul\":14095:14096   */\n      dup4\n        /* \"#utility.yul\":14077:14097   */\n      tag_304\n      jump\t// in\n    tag_521:\n        /* \"#utility.yul\":14072:14097   */\n      swap3\n      pop\n        /* \"#utility.yul\":14120:14121   */\n      dup3\n        /* \"#utility.yul\":14117:14118   */\n      dup3\n        /* \"#utility.yul\":14113:14122   */\n      add\n        /* \"#utility.yul\":14106:14122   */\n      swap1\n      pop\n        /* \"#utility.yul\":14141:14144   */\n      dup1\n        /* \"#utility.yul\":14138:14139   */\n      dup3\n        /* \"#utility.yul\":14135:14145   */\n      gt\n        /* \"#utility.yul\":14132:14168   */\n      iszero\n      tag_522\n      jumpi\n        /* \"#utility.yul\":14148:14166   */\n      tag_523\n      tag_329\n      jump\t// in\n    tag_523:\n        /* \"#utility.yul\":14132:14168   */\n    tag_522:\n        /* \"#utility.yul\":13984:14175   */\n      swap3\n      swap2\n      pop\n      pop\n      jump\t// out\n        /* \"#utility.yul\":14181:14361   */\n    tag_330:\n        /* \"#utility.yul\":14229:14306   */\n      0x4e487b7100000000000000000000000000000000000000000000000000000000\n        /* \"#utility.yul\":14226:14227   */\n      0x00\n        /* \"#utility.yul\":14219:14307   */\n      mstore\n        /* \"#utility.yul\":14326:14330   */\n      0x22\n        /* \"#utility.yul\":14323:14324   */\n      0x04\n        /* \"#utility.yul\":14316:14331   */\n      mstore\n        /* \"#utility.yul\":14350:14354   */\n      0x24\n        /* \"#utility.yul\":14347:14348   */\n      0x00\n        /* \"#utility.yul\":14340:14355   */\n      revert\n        /* \"#utility.yul\":14367:14687   */\n    tag_138:\n        /* \"#utility.yul\":14411:14417   */\n      0x00\n        /* \"#utility.yul\":14448:14449   */\n      0x02\n        /* \"#utility.yul\":14442:14446   */\n      dup3\n        /* \"#utility.yul\":14438:14450   */\n      div\n        /* \"#utility.yul\":14428:14450   */\n      swap1\n      pop\n        /* \"#utility.yul\":14495:14496   */\n      0x01\n        /* \"#utility.yul\":14489:14493   */\n      dup3\n        /* \"#utility.yul\":14485:14497   */\n      and\n        /* \"#utility.yul\":14516:14534   */\n      dup1\n        /* \"#utility.yul\":14506:14587   */\n      tag_526\n      jumpi\n        /* \"#utility.yul\":14572:14576   */\n      0x7f\n        /* \"#utility.yul\":14564:14570   */\n      dup3\n        /* \"#utility.yul\":14560:14577   */\n      and\n        /* \"#utility.yul\":14550:14577   */\n      swap2\n      pop\n        /* \"#utility.yul\":14506:14587   */\n    tag_526:\n        /* \"#utility.yul\":14634:14636   */\n      0x20\n        /* \"#utility.yul\":14626:14632   */\n      dup3\n        /* \"#utility.yul\":14623:14637   */\n      lt\n        /* \"#utility.yul\":14603:14621   */\n      dup2\n        /* \"#utility.yul\":14600:14638   */\n      sub\n        /* \"#utility.yul\":14597:14681   */\n      tag_527\n      jumpi\n        /* \"#utility.yul\":14653:14671   */\n      tag_528\n      tag_330\n      jump\t// in\n    tag_528:\n        /* \"#utility.yul\":14597:14681   */\n    tag_527:\n        /* \"#utility.yul\":14418:14687   */\n      pop\n        /* \"#utility.yul\":14367:14687   */\n      swap2\n      swap1\n      pop\n      jump\t// out\n        /* \"#utility.yul\":14693:14855   */\n    tag_331:\n        /* \"#utility.yul\":14833:14847   */\n      0x4e4f542041204d454d4245520000000000000000000000000000000000000000\n        /* \"#utility.yul\":14829:14830   */\n      0x00\n        /* \"#utility.yul\":14821:14827   */\n      dup3\n        /* \"#utility.yul\":14817:14831   */\n      add\n        /* \"#utility.yul\":14810:14848   */\n      mstore\n        /* \"#utility.yul\":14693:14855   */\n      pop\n      jump\t// out\n        /* \"#utility.yul\":14861:15227   */\n    tag_332:\n        /* \"#utility.yul\":15003:15006   */\n      0x00\n        /* \"#utility.yul\":15024:15091   */\n      tag_531\n        /* \"#utility.yul\":15088:15090   */\n      0x0c\n        /* \"#utility.yul\":15083:15086   */\n      dup4\n        /* \"#utility.yul\":15024:15091   */\n      tag_313\n      jump\t// in\n    tag_531:\n        /* \"#utility.yul\":15017:15091   */\n      swap2\n      pop\n        /* \"#utility.yul\":15100:15193   */\n      tag_532\n        /* \"#utility.yul\":15189:15192   */\n      dup3\n        /* \"#utility.yul\":15100:15193   */\n      tag_331\n      jump\t// in\n    tag_532:\n        /* \"#utility.yul\":15218:15220   */\n      0x20\n        /* \"#utility.yul\":15213:15216   */\n      dup3\n        /* \"#utility.yul\":15209:15221   */\n      add\n        /* \"#utility.yul\":15202:15221   */\n      swap1\n      pop\n        /* \"#utility.yul\":14861:15227   */\n      swap2\n      swap1\n      pop\n      jump\t// out\n        /* \"#utility.yul\":15233:15652   */\n    tag_155:\n        /* \"#utility.yul\":15399:15403   */\n      0x00\n        /* \"#utility.yul\":15437:15439   */\n      0x20\n        /* \"#utility.yul\":15426:15435   */\n      dup3\n        /* \"#utility.yul\":15422:15440   */\n      add\n        /* \"#utility.yul\":15414:15440   */\n      swap1\n      pop\n        /* \"#utility.yul\":15486:15495   */\n      dup2\n        /* \"#utility.yul\":15480:15484   */\n      dup2\n        /* \"#utility.yul\":15476:15496   */\n      sub\n        /* \"#utility.yul\":15472:15473   */\n      0x00\n        /* \"#utility.yul\":15461:15470   */\n      dup4\n        /* \"#utility.yul\":15457:15474   */\n      add\n        /* \"#utility.yul\":15450:15497   */\n      mstore\n        /* \"#utility.yul\":15514:15645   */\n      tag_534\n        /* \"#utility.yul\":15640:15644   */\n      dup2\n        /* \"#utility.yul\":15514:15645   */\n      tag_332\n      jump\t// in\n    tag_534:\n        /* \"#utility.yul\":15506:15645   */\n      swap1\n      pop\n        /* \"#utility.yul\":15233:15652   */\n      swap2\n      swap1\n      pop\n      jump\t// out\n        /* \"#utility.yul\":15658:15833   */\n    tag_333:\n        /* \"#utility.yul\":15798:15825   */\n      0x564f54494e4720504552494f442048415320454c415053454400000000000000\n        /* \"#utility.yul\":15794:15795   */\n      0x00\n        /* \"#utility.yul\":15786:15792   */\n      dup3\n        /* \"#utility.yul\":15782:15796   */\n      add\n        /* \"#utility.yul\":15775:15826   */\n      mstore\n        /* \"#utility.yul\":15658:15833   */\n      pop\n      jump\t// out\n        /* \"#utility.yul\":15839:16205   */\n    tag_334:\n        /* \"#utility.yul\":15981:15984   */\n      0x00\n        /* \"#utility.yul\":16002:16069   */\n      tag_537\n        /* \"#utility.yul\":16066:16068   */\n      0x19\n        /* \"#utility.yul\":16061:16064   */\n      dup4\n        /* \"#utility.yul\":16002:16069   */\n      tag_313\n      jump\t// in\n    tag_537:\n        /* \"#utility.yul\":15995:16069   */\n      swap2\n      pop\n        /* \"#utility.yul\":16078:16171   */\n      tag_538\n        /* \"#utility.yul\":16167:16170   */\n      dup3\n        /* \"#utility.yul\":16078:16171   */\n      tag_333\n      jump\t// in\n    tag_538:\n        /* \"#utility.yul\":16196:16198   */\n      0x20\n        /* \"#utility.yul\":16191:16194   */\n      dup3\n        /* \"#utility.yul\":16187:16199   */\n      add\n        /* \"#utility.yul\":16180:16199   */\n      swap1\n      pop\n        /* \"#utility.yul\":15839:16205   */\n      swap2\n      swap1\n      pop\n      jump\t// out\n        /* \"#utility.yul\":16211:16630   */\n    tag_159:\n        /* \"#utility.yul\":16377:16381   */\n      0x00\n        /* \"#utility.yul\":16415:16417   */\n      0x20\n        /* \"#utility.yul\":16404:16413   */\n      dup3\n        /* \"#utility.yul\":16400:16418   */\n      add\n        /* \"#utility.yul\":16392:16418   */\n      swap1\n      pop\n        /* \"#utility.yul\":16464:16473   */\n      dup2\n        /* \"#utility.yul\":16458:16462   */\n      dup2\n        /* \"#utility.yul\":16454:16474   */\n      sub\n        /* \"#utility.yul\":16450:16451   */\n      0x00\n        /* \"#utility.yul\":16439:16448   */\n      dup4\n        /* \"#utility.yul\":16435:16452   */\n      add\n        /* \"#utility.yul\":16428:16475   */\n      mstore\n        /* \"#utility.yul\":16492:16623   */\n      tag_540\n        /* \"#utility.yul\":16618:16622   */\n      dup2\n        /* \"#utility.yul\":16492:16623   */\n      tag_334\n      jump\t// in\n    tag_540:\n        /* \"#utility.yul\":16484:16623   */\n      swap1\n      pop\n        /* \"#utility.yul\":16211:16630   */\n      swap2\n      swap1\n      pop\n      jump\t// out\n        /* \"#utility.yul\":16636:16779   */\n    tag_335:\n        /* \"#utility.yul\":16693:16698   */\n      0x00\n        /* \"#utility.yul\":16724:16730   */\n      dup2\n        /* \"#utility.yul\":16718:16731   */\n      mload\n        /* \"#utility.yul\":16709:16731   */\n      swap1\n      pop\n        /* \"#utility.yul\":16740:16773   */\n      tag_542\n        /* \"#utility.yul\":16767:16772   */\n      dup2\n        /* \"#utility.yul\":16740:16773   */\n      tag_305\n      jump\t// in\n    tag_542:\n        /* \"#utility.yul\":16636:16779   */\n      swap3\n      swap2\n      pop\n      pop\n      jump\t// out\n        /* \"#utility.yul\":16785:17136   */\n    tag_164:\n        /* \"#utility.yul\":16855:16861   */\n      0x00\n        /* \"#utility.yul\":16904:16906   */\n      0x20\n        /* \"#utility.yul\":16892:16901   */\n      dup3\n        /* \"#utility.yul\":16883:16890   */\n      dup5\n        /* \"#utility.yul\":16879:16902   */\n      sub\n        /* \"#utility.yul\":16875:16907   */\n      slt\n        /* \"#utility.yul\":16872:16991   */\n      iszero\n      tag_544\n      jumpi\n        /* \"#utility.yul\":16910:16989   */\n      tag_545\n      tag_298\n      jump\t// in\n    tag_545:\n        /* \"#utility.yul\":16872:16991   */\n    tag_544:\n        /* \"#utility.yul\":17030:17031   */\n      0x00\n        /* \"#utility.yul\":17055:17119   */\n      tag_546\n        /* \"#utility.yul\":17111:17118   */\n      dup5\n        /* \"#utility.yul\":17102:17108   */\n      dup3\n        /* \"#utility.yul\":17091:17100   */\n      dup6\n        /* \"#utility.yul\":17087:17109   */\n      add\n        /* \"#utility.yul\":17055:17119   */\n      tag_335\n      jump\t// in\n    tag_546:\n        /* \"#utility.yul\":17045:17119   */\n      swap2\n      pop\n        /* \"#utility.yul\":17001:17129   */\n      pop\n        /* \"#utility.yul\":16785:17136   */\n      swap3\n      swap2\n      pop\n      pop\n      jump\t// out\n        /* \"#utility.yul\":17142:17375   */\n    tag_336:\n        /* \"#utility.yul\":17282:17316   */\n      0x594f55204d55535420504f5353455320544f4b454e7320544f20424520414e20\n        /* \"#utility.yul\":17278:17279   */\n      0x00\n        /* \"#utility.yul\":17270:17276   */\n      dup3\n        /* \"#utility.yul\":17266:17280   */\n      add\n        /* \"#utility.yul\":17259:17317   */\n      mstore\n        /* \"#utility.yul\":17351:17367   */\n      0x454c494749424c4520564f544552000000000000000000000000000000000000\n        /* \"#utility.yul\":17346:17348   */\n      0x20\n        /* \"#utility.yul\":17338:17344   */\n      dup3\n        /* \"#utility.yul\":17334:17349   */\n      add\n        /* \"#utility.yul\":17327:17368   */\n      mstore\n        /* \"#utility.yul\":17142:17375   */\n      pop\n      jump\t// out\n        /* \"#utility.yul\":17381:17747   */\n    tag_337:\n        /* \"#utility.yul\":17523:17526   */\n      0x00\n        /* \"#utility.yul\":17544:17611   */\n      tag_549\n        /* \"#utility.yul\":17608:17610   */\n      0x2e\n        /* \"#utility.yul\":17603:17606   */\n      dup4\n        /* \"#utility.yul\":17544:17611   */\n      tag_313\n      jump\t// in\n    tag_549:\n        /* \"#utility.yul\":17537:17611   */\n      swap2\n      pop\n        /* \"#utility.yul\":17620:17713   */\n      tag_550\n        /* \"#utility.yul\":17709:17712   */\n      dup3\n        /* \"#utility.yul\":17620:17713   */\n      tag_336\n      jump\t// in\n    tag_550:\n        /* \"#utility.yul\":17738:17740   */\n      0x40\n        /* \"#utility.yul\":17733:17736   */\n      dup3\n        /* \"#utility.yul\":17729:17741   */\n      add\n        /* \"#utility.yul\":17722:17741   */\n      swap1\n      pop\n        /* \"#utility.yul\":17381:17747   */\n      swap2\n      swap1\n      pop\n      jump\t// out\n        /* \"#utility.yul\":17753:18172   */\n    tag_167:\n        /* \"#utility.yul\":17919:17923   */\n      0x00\n        /* \"#utility.yul\":17957:17959   */\n      0x20\n        /* \"#utility.yul\":17946:17955   */\n      dup3\n        /* \"#utility.yul\":17942:17960   */\n      add\n        /* \"#utility.yul\":17934:17960   */\n      swap1\n      pop\n        /* \"#utility.yul\":18006:18015   */\n      dup2\n        /* \"#utility.yul\":18000:18004   */\n      dup2\n        /* \"#utility.yul\":17996:18016   */\n      sub\n        /* \"#utility.yul\":17992:17993   */\n      0x00\n        /* \"#utility.yul\":17981:17990   */\n      dup4\n        /* \"#utility.yul\":17977:17994   */\n      add\n        /* \"#utility.yul\":17970:18017   */\n      mstore\n        /* \"#utility.yul\":18034:18165   */\n      tag_552\n        /* \"#utility.yul\":18160:18164   */\n      dup2\n        /* \"#utility.yul\":18034:18165   */\n      tag_337\n      jump\t// in\n    tag_552:\n        /* \"#utility.yul\":18026:18165   */\n      swap1\n      pop\n        /* \"#utility.yul\":17753:18172   */\n      swap2\n      swap1\n      pop\n      jump\t// out\n        /* \"#utility.yul\":18178:18403   */\n    tag_338:\n        /* \"#utility.yul\":18318:18352   */\n      0x4d454d424552532043414e204f4e4c592043415354204120564f544520504552\n        /* \"#utility.yul\":18314:18315   */\n      0x00\n        /* \"#utility.yul\":18306:18312   */\n      dup3\n        /* \"#utility.yul\":18302:18316   */\n      add\n        /* \"#utility.yul\":18295:18353   */\n      mstore\n        /* \"#utility.yul\":18387:18395   */\n      0x20544f5049430000000000000000000000000000000000000000000000000000\n        /* \"#utility.yul\":18382:18384   */\n      0x20\n        /* \"#utility.yul\":18374:18380   */\n      dup3\n        /* \"#utility.yul\":18370:18385   */\n      add\n        /* \"#utility.yul\":18363:18396   */\n      mstore\n        /* \"#utility.yul\":18178:18403   */\n      pop\n      jump\t// out\n        /* \"#utility.yul\":18409:18775   */\n    tag_339:\n        /* \"#utility.yul\":18551:18554   */\n      0x00\n        /* \"#utility.yul\":18572:18639   */\n      tag_555\n        /* \"#utility.yul\":18636:18638   */\n      0x26\n        /* \"#utility.yul\":18631:18634   */\n      dup4\n        /* \"#utility.yul\":18572:18639   */\n      tag_313\n      jump\t// in\n    tag_555:\n        /* \"#utility.yul\":18565:18639   */\n      swap2\n      pop\n        /* \"#utility.yul\":18648:18741   */\n      tag_556\n        /* \"#utility.yul\":18737:18740   */\n      dup3\n        /* \"#utility.yul\":18648:18741   */\n      tag_338\n      jump\t// in\n    tag_556:\n        /* \"#utility.yul\":18766:18768   */\n      0x40\n        /* \"#utility.yul\":18761:18764   */\n      dup3\n        /* \"#utility.yul\":18757:18769   */\n      add\n        /* \"#utility.yul\":18750:18769   */\n      swap1\n      pop\n        /* \"#utility.yul\":18409:18775   */\n      swap2\n      swap1\n      pop\n      jump\t// out\n        /* \"#utility.yul\":18781:19200   */\n    tag_170:\n        /* \"#utility.yul\":18947:18951   */\n      0x00\n        /* \"#utility.yul\":18985:18987   */\n      0x20\n        /* \"#utility.yul\":18974:18983   */\n      dup3\n        /* \"#utility.yul\":18970:18988   */\n      add\n        /* \"#utility.yul\":18962:18988   */\n      swap1\n      pop\n        /* \"#utility.yul\":19034:19043   */\n      dup2\n        /* \"#utility.yul\":19028:19032   */\n      dup2\n        /* \"#utility.yul\":19024:19044   */\n      sub\n        /* \"#utility.yul\":19020:19021   */\n      0x00\n        /* \"#utility.yul\":19009:19018   */\n      dup4\n        /* \"#utility.yul\":19005:19022   */\n      add\n        /* \"#utility.yul\":18998:19045   */\n      mstore\n        /* \"#utility.yul\":19062:19193   */\n      tag_558\n        /* \"#utility.yul\":19188:19192   */\n      dup2\n        /* \"#utility.yul\":19062:19193   */\n      tag_339\n      jump\t// in\n    tag_558:\n        /* \"#utility.yul\":19054:19193   */\n      swap1\n      pop\n        /* \"#utility.yul\":18781:19200   */\n      swap2\n      swap1\n      pop\n      jump\t// out\n        /* \"#utility.yul\":19206:19526   */\n    tag_176:\n        /* \"#utility.yul\":19321:19325   */\n      0x00\n        /* \"#utility.yul\":19359:19361   */\n      0x40\n        /* \"#utility.yul\":19348:19357   */\n      dup3\n        /* \"#utility.yul\":19344:19362   */\n      add\n        /* \"#utility.yul\":19336:19362   */\n      swap1\n      pop\n        /* \"#utility.yul\":19372:19443   */\n      tag_560\n        /* \"#utility.yul\":19440:19441   */\n      0x00\n        /* \"#utility.yul\":19429:19438   */\n      dup4\n        /* \"#utility.yul\":19425:19442   */\n      add\n        /* \"#utility.yul\":19416:19422   */\n      dup6\n        /* \"#utility.yul\":19372:19443   */\n      tag_310\n      jump\t// in\n    tag_560:\n        /* \"#utility.yul\":19453:19519   */\n      tag_561\n        /* \"#utility.yul\":19515:19517   */\n      0x20\n        /* \"#utility.yul\":19504:19513   */\n      dup4\n        /* \"#utility.yul\":19500:19518   */\n      add\n        /* \"#utility.yul\":19491:19497   */\n      dup5\n        /* \"#utility.yul\":19453:19519   */\n      tag_311\n      jump\t// in\n    tag_561:\n        /* \"#utility.yul\":19206:19526   */\n      swap4\n      swap3\n      pop\n      pop\n      pop\n      jump\t// out\n        /* \"#utility.yul\":19532:19673   */\n    tag_340:\n        /* \"#utility.yul\":19581:19585   */\n      0x00\n        /* \"#utility.yul\":19604:19607   */\n      dup2\n        /* \"#utility.yul\":19596:19607   */\n      swap1\n      pop\n        /* \"#utility.yul\":19627:19630   */\n      dup2\n        /* \"#utility.yul\":19624:19625   */\n      0x00\n        /* \"#utility.yul\":19617:19631   */\n      mstore\n        /* \"#utility.yul\":19661:19665   */\n      0x20\n        /* \"#utility.yul\":19658:19659   */\n      0x00\n        /* \"#utility.yul\":19648:19666   */\n      keccak256\n        /* \"#utility.yul\":19640:19666   */\n      swap1\n      pop\n        /* \"#utility.yul\":19532:19673   */\n      swap2\n      swap1\n      pop\n      jump\t// out\n        /* \"#utility.yul\":19679:19772   */\n    tag_341:\n        /* \"#utility.yul\":19716:19722   */\n      0x00\n        /* \"#utility.yul\":19763:19765   */\n      0x20\n        /* \"#utility.yul\":19758:19760   */\n      0x1f\n        /* \"#utility.yul\":19751:19756   */\n      dup4\n        /* \"#utility.yul\":19747:19761   */\n      add\n        /* \"#utility.yul\":19743:19766   */\n      div\n        /* \"#utility.yul\":19733:19766   */\n      swap1\n      pop\n        /* \"#utility.yul\":19679:19772   */\n      swap2\n      swap1\n      pop\n      jump\t// out\n        /* \"#utility.yul\":19778:19885   */\n    tag_342:\n        /* \"#utility.yul\":19822:19830   */\n      0x00\n        /* \"#utility.yul\":19872:19877   */\n      dup3\n        /* \"#utility.yul\":19866:19870   */\n      dup3\n        /* \"#utility.yul\":19862:19878   */\n      shl\n        /* \"#utility.yul\":19841:19878   */\n      swap1\n      pop\n        /* \"#utility.yul\":19778:19885   */\n      swap3\n      swap2\n      pop\n      pop\n      jump\t// out\n        /* \"#utility.yul\":19891:20284   */\n    tag_343:\n        /* \"#utility.yul\":19960:19966   */\n      0x00\n        /* \"#utility.yul\":20010:20011   */\n      0x08\n        /* \"#utility.yul\":19998:20008   */\n      dup4\n        /* \"#utility.yul\":19994:20012   */\n      mul\n        /* \"#utility.yul\":20033:20130   */\n      tag_566\n        /* \"#utility.yul\":20063:20129   */\n      0xffffffffffffffffffffffffffffffffffffffffffffffffffffffffffffffff\n        /* \"#utility.yul\":20052:20061   */\n      dup3\n        /* \"#utility.yul\":20033:20130   */\n      tag_342\n      jump\t// in\n    tag_566:\n        /* \"#utility.yul\":20151:20190   */\n      tag_567\n        /* \"#utility.yul\":20181:20189   */\n      dup7\n        /* \"#utility.yul\":20170:20179   */\n      dup4\n        /* \"#utility.yul\":20151:20190   */\n      tag_342\n      jump\t// in\n    tag_567:\n        /* \"#utility.yul\":20139:20190   */\n      swap6\n      pop\n        /* \"#utility.yul\":20223:20227   */\n      dup1\n        /* \"#utility.yul\":20219:20228   */\n      not\n        /* \"#utility.yul\":20212:20217   */\n      dup5\n        /* \"#utility.yul\":20208:20229   */\n      and\n        /* \"#utility.yul\":20199:20229   */\n      swap4\n      pop\n        /* \"#utility.yul\":20272:20276   */\n      dup1\n        /* \"#utility.yul\":20262:20270   */\n      dup7\n        /* \"#utility.yul\":20258:20277   */\n      and\n        /* \"#utility.yul\":20251:20256   */\n      dup5\n        /* \"#utility.yul\":20248:20278   */\n      or\n        /* \"#utility.yul\":20238:20278   */\n      swap3\n      pop\n        /* \"#utility.yul\":19967:20284   */\n      pop\n      pop\n        /* \"#utility.yul\":19891:20284   */\n      swap4\n      swap3\n      pop\n      pop\n      pop\n      jump\t// out\n        /* \"#utility.yul\":20290:20350   */\n    tag_344:\n        /* \"#utility.yul\":20318:20321   */\n      0x00\n        /* \"#utility.yul\":20339:20344   */\n      dup2\n        /* \"#utility.yul\":20332:20344   */\n      swap1\n      pop\n        /* \"#utility.yul\":20290:20350   */\n      swap2\n      swap1\n      pop\n      jump\t// out\n        /* \"#utility.yul\":20356:20498   */\n    tag_345:\n        /* \"#utility.yul\":20406:20415   */\n      0x00\n        /* \"#utility.yul\":20439:20492   */\n      tag_570\n        /* \"#utility.yul\":20457:20491   */\n      tag_571\n        /* \"#utility.yul\":20466:20490   */\n      tag_572\n        /* \"#utility.yul\":20484:20489   */\n      dup5\n        /* \"#utility.yul\":20466:20490   */\n      tag_304\n      jump\t// in\n    tag_572:\n        /* \"#utility.yul\":20457:20491   */\n      tag_344\n      jump\t// in\n    tag_571:\n        /* \"#utility.yul\":20439:20492   */\n      tag_304\n      jump\t// in\n    tag_570:\n        /* \"#utility.yul\":20426:20492   */\n      swap1\n      pop\n        /* \"#utility.yul\":20356:20498   */\n      swap2\n      swap1\n      pop\n      jump\t// out\n        /* \"#utility.yul\":20504:20579   */\n    tag_346:\n        /* \"#utility.yul\":20547:20550   */\n      0x00\n        /* \"#utility.yul\":20568:20573   */\n      dup2\n        /* \"#utility.yul\":20561:20573   */\n      swap1\n      pop\n        /* \"#utility.yul\":20504:20579   */\n      swap2\n      swap1\n      pop\n      jump\t// out\n        /* \"#utility.yul\":20585:20854   */\n    tag_347:\n        /* \"#utility.yul\":20695:20734   */\n      tag_575\n        /* \"#utility.yul\":20726:20733   */\n      dup4\n        /* \"#utility.yul\":20695:20734   */\n      tag_345\n      jump\t// in\n    tag_575:\n        /* \"#utility.yul\":20756:20847   */\n      tag_576\n        /* \"#utility.yul\":20805:20846   */\n      tag_577\n        /* \"#utility.yul\":20829:20845   */\n      dup3\n        /* \"#utility.yul\":20805:20846   */\n      tag_346\n      jump\t// in\n    tag_577:\n        /* \"#utility.yul\":20797:20803   */\n      dup5\n        /* \"#utility.yul\":20790:20794   */\n      dup5\n        /* \"#utility.yul\":20784:20795   */\n      sload\n        /* \"#utility.yul\":20756:20847   */\n      tag_343\n      jump\t// in\n    tag_576:\n        /* \"#utility.yul\":20750:20754   */\n      dup3\n        /* \"#utility.yul\":20743:20848   */\n      sstore\n        /* \"#utility.yul\":20661:20854   */\n      pop\n        /* \"#utility.yul\":20585:20854   */\n      pop\n      pop\n      pop\n      jump\t// out\n        /* \"#utility.yul\":20860:20933   */\n    tag_348:\n        /* \"#utility.yul\":20905:20908   */\n      0x00\n        /* \"#utility.yul\":20860:20933   */\n      swap1\n      jump\t// out\n        /* \"#utility.yul\":20939:21128   */\n    tag_349:\n        /* \"#utility.yul\":21016:21048   */\n      tag_580\n      tag_348\n      jump\t// in\n    tag_580:\n        /* \"#utility.yul\":21057:21122   */\n      tag_581\n        /* \"#utility.yul\":21115:21121   */\n      dup2\n        /* \"#utility.yul\":21107:21113   */\n      dup5\n        /* \"#utility.yul\":21101:21105   */\n      dup5\n        /* \"#utility.yul\":21057:21122   */\n      tag_347\n      jump\t// in\n    tag_581:\n        /* \"#utility.yul\":20992:21128   */\n      pop\n        /* \"#utility.yul\":20939:21128   */\n      pop\n      pop\n      jump\t// out\n        /* \"#utility.yul\":21134:21320   */\n    tag_350:\n        /* \"#utility.yul\":21194:21314   */\n    tag_583:\n        /* \"#utility.yul\":21211:21214   */\n      dup2\n        /* \"#utility.yul\":21204:21209   */\n      dup2\n        /* \"#utility.yul\":21201:21215   */\n      lt\n        /* \"#utility.yul\":21194:21314   */\n      iszero\n      tag_585\n      jumpi\n        /* \"#utility.yul\":21265:21304   */\n      tag_586\n        /* \"#utility.yul\":21302:21303   */\n      0x00\n        /* \"#utility.yul\":21295:21300   */\n      dup3\n        /* \"#utility.yul\":21265:21304   */\n      tag_349\n      jump\t// in\n    tag_586:\n        /* \"#utility.yul\":21238:21239   */\n      0x01\n        /* \"#utility.yul\":21231:21236   */\n      dup2\n        /* \"#utility.yul\":21227:21240   */\n      add\n        /* \"#utility.yul\":21218:21240   */\n      swap1\n      pop\n        /* \"#utility.yul\":21194:21314   */\n      jump(tag_583)\n    tag_585:\n        /* \"#utility.yul\":21134:21320   */\n      pop\n      pop\n      jump\t// out\n        /* \"#utility.yul\":21326:21869   */\n    tag_351:\n        /* \"#utility.yul\":21427:21429   */\n      0x1f\n        /* \"#utility.yul\":21422:21425   */\n      dup3\n        /* \"#utility.yul\":21419:21430   */\n      gt\n        /* \"#utility.yul\":21416:21862   */\n      iszero\n      tag_588\n      jumpi\n        /* \"#utility.yul\":21461:21499   */\n      tag_589\n        /* \"#utility.yul\":21493:21498   */\n      dup2\n        /* \"#utility.yul\":21461:21499   */\n      tag_340\n      jump\t// in\n    tag_589:\n        /* \"#utility.yul\":21545:21574   */\n      tag_590\n        /* \"#utility.yul\":21563:21573   */\n      dup5\n        /* \"#utility.yul\":21545:21574   */\n      tag_341\n      jump\t// in\n    tag_590:\n        /* \"#utility.yul\":21535:21543   */\n      dup2\n        /* \"#utility.yul\":21531:21575   */\n      add\n        /* \"#utility.yul\":21728:21730   */\n      0x20\n        /* \"#utility.yul\":21716:21726   */\n      dup6\n        /* \"#utility.yul\":21713:21731   */\n      lt\n        /* \"#utility.yul\":21710:21759   */\n      iszero\n      tag_591\n      jumpi\n        /* \"#utility.yul\":21749:21757   */\n      dup2\n        /* \"#utility.yul\":21734:21757   */\n      swap1\n      pop\n        /* \"#utility.yul\":21710:21759   */\n    tag_591:\n        /* \"#utility.yul\":21772:21852   */\n      tag_592\n        /* \"#utility.yul\":21828:21850   */\n      tag_593\n        /* \"#utility.yul\":21846:21849   */\n      dup6\n        /* \"#utility.yul\":21828:21850   */\n      tag_341\n      jump\t// in\n    tag_593:\n        /* \"#utility.yul\":21818:21826   */\n      dup4\n        /* \"#utility.yul\":21814:21851   */\n      add\n        /* \"#utility.yul\":21801:21812   */\n      dup3\n        /* \"#utility.yul\":21772:21852   */\n      tag_350\n      jump\t// in\n    tag_592:\n        /* \"#utility.yul\":21431:21862   */\n      pop\n      pop\n        /* \"#utility.yul\":21416:21862   */\n    tag_588:\n        /* \"#utility.yul\":21326:21869   */\n      pop\n      pop\n      pop\n      jump\t// out\n        /* \"#utility.yul\":21875:21992   */\n    tag_352:\n        /* \"#utility.yul\":21929:21937   */\n      0x00\n        /* \"#utility.yul\":21979:21984   */\n      dup3\n        /* \"#utility.yul\":21973:21977   */\n      dup3\n        /* \"#utility.yul\":21969:21985   */\n      shr\n        /* \"#utility.yul\":21948:21985   */\n      swap1\n      pop\n        /* \"#utility.yul\":21875:21992   */\n      swap3\n      swap2\n      pop\n      pop\n      jump\t// out\n        /* \"#utility.yul\":21998:22167   */\n    tag_353:\n        /* \"#utility.yul\":22042:22048   */\n      0x00\n        /* \"#utility.yul\":22075:22126   */\n      tag_596\n        /* \"#utility.yul\":22123:22124   */\n      0x00\n        /* \"#utility.yul\":22119:22125   */\n      not\n        /* \"#utility.yul\":22111:22116   */\n      dup5\n        /* \"#utility.yul\":22108:22109   */\n      0x08\n        /* \"#utility.yul\":22104:22117   */\n      mul\n        /* \"#utility.yul\":22075:22126   */\n      tag_352\n      jump\t// in\n    tag_596:\n        /* \"#utility.yul\":22071:22127   */\n      not\n        /* \"#utility.yul\":22156:22160   */\n      dup1\n        /* \"#utility.yul\":22150:22154   */\n      dup4\n        /* \"#utility.yul\":22146:22161   */\n      and\n        /* \"#utility.yul\":22136:22161   */\n      swap2\n      pop\n        /* \"#utility.yul\":22049:22167   */\n      pop\n        /* \"#utility.yul\":21998:22167   */\n      swap3\n      swap2\n      pop\n      pop\n      jump\t// out\n        /* \"#utility.yul\":22172:22467   */\n    tag_354:\n        /* \"#utility.yul\":22248:22252   */\n      0x00\n        /* \"#utility.yul\":22394:22423   */\n      tag_598\n        /* \"#utility.yul\":22419:22422   */\n      dup4\n        /* \"#utility.yul\":22413:22417   */\n      dup4\n        /* \"#utility.yul\":22394:22423   */\n      tag_353\n      jump\t// in\n    tag_598:\n        /* \"#utility.yul\":22386:22423   */\n      swap2\n      pop\n        /* \"#utility.yul\":22456:22459   */\n      dup3\n        /* \"#utility.yul\":22453:22454   */\n      0x02\n        /* \"#utility.yul\":22449:22460   */\n      mul\n        /* \"#utility.yul\":22443:22447   */\n      dup3\n        /* \"#utility.yul\":22440:22461   */\n      or\n        /* \"#utility.yul\":22432:22461   */\n      swap1\n      pop\n        /* \"#utility.yul\":22172:22467   */\n      swap3\n      swap2\n      pop\n      pop\n      jump\t// out\n        /* \"#utility.yul\":22472:23867   */\n    tag_233:\n        /* \"#utility.yul\":22589:22626   */\n      tag_600\n        /* \"#utility.yul\":22622:22625   */\n      dup3\n        /* \"#utility.yul\":22589:22626   */\n      tag_312\n      jump\t// in\n    tag_600:\n        /* \"#utility.yul\":22691:22709   */\n      0xffffffffffffffff\n        /* \"#utility.yul\":22683:22689   */\n      dup2\n        /* \"#utility.yul\":22680:22710   */\n      gt\n        /* \"#utility.yul\":22677:22733   */\n      iszero\n      tag_601\n      jumpi\n        /* \"#utility.yul\":22713:22731   */\n      tag_602\n      tag_320\n      jump\t// in\n    tag_602:\n        /* \"#utility.yul\":22677:22733   */\n    tag_601:\n        /* \"#utility.yul\":22757:22795   */\n      tag_603\n        /* \"#utility.yul\":22789:22793   */\n      dup3\n        /* \"#utility.yul\":22783:22794   */\n      sload\n        /* \"#utility.yul\":22757:22795   */\n      tag_138\n      jump\t// in\n    tag_603:\n        /* \"#utility.yul\":22842:22909   */\n      tag_604\n        /* \"#utility.yul\":22902:22908   */\n      dup3\n        /* \"#utility.yul\":22894:22900   */\n      dup3\n        /* \"#utility.yul\":22888:22892   */\n      dup6\n        /* \"#utility.yul\":22842:22909   */\n      tag_351\n      jump\t// in\n    tag_604:\n        /* \"#utility.yul\":22936:22937   */\n      0x00\n        /* \"#utility.yul\":22960:22964   */\n      0x20\n        /* \"#utility.yul\":22947:22964   */\n      swap1\n      pop\n        /* \"#utility.yul\":22992:22994   */\n      0x1f\n        /* \"#utility.yul\":22984:22990   */\n      dup4\n        /* \"#utility.yul\":22981:22995   */\n      gt\n        /* \"#utility.yul\":23009:23010   */\n      0x01\n        /* \"#utility.yul\":23004:23622   */\n      dup2\n      eq\n      tag_606\n      jumpi\n        /* \"#utility.yul\":23666:23667   */\n      0x00\n        /* \"#utility.yul\":23683:23689   */\n      dup5\n        /* \"#utility.yul\":23680:23757   */\n      iszero\n      tag_607\n      jumpi\n        /* \"#utility.yul\":23732:23741   */\n      dup3\n        /* \"#utility.yul\":23727:23730   */\n      dup8\n        /* \"#utility.yul\":23723:23742   */\n      add\n        /* \"#utility.yul\":23717:23743   */\n      mload\n        /* \"#utility.yul\":23708:23743   */\n      swap1\n      pop\n        /* \"#utility.yul\":23680:23757   */\n    tag_607:\n        /* \"#utility.yul\":23783:23850   */\n      tag_608\n        /* \"#utility.yul\":23843:23849   */\n      dup6\n        /* \"#utility.yul\":23836:23841   */\n      dup3\n        /* \"#utility.yul\":23783:23850   */\n      tag_354\n      jump\t// in\n    tag_608:\n        /* \"#utility.yul\":23777:23781   */\n      dup7\n        /* \"#utility.yul\":23770:23851   */\n      sstore\n        /* \"#utility.yul\":23639:23861   */\n      pop\n        /* \"#utility.yul\":22974:23861   */\n      jump(tag_605)\n        /* \"#utility.yul\":23004:23622   */\n    tag_606:\n        /* \"#utility.yul\":23056:23060   */\n      0x1f\n        /* \"#utility.yul\":23052:23061   */\n      not\n        /* \"#utility.yul\":23044:23050   */\n      dup5\n        /* \"#utility.yul\":23040:23062   */\n      and\n        /* \"#utility.yul\":23090:23127   */\n      tag_609\n        /* \"#utility.yul\":23122:23126   */\n      dup7\n        /* \"#utility.yul\":23090:23127   */\n      tag_340\n      jump\t// in\n    tag_609:\n        /* \"#utility.yul\":23149:23150   */\n      0x00\n        /* \"#utility.yul\":23163:23371   */\n    tag_610:\n        /* \"#utility.yul\":23177:23184   */\n      dup3\n        /* \"#utility.yul\":23174:23175   */\n      dup2\n        /* \"#utility.yul\":23171:23185   */\n      lt\n        /* \"#utility.yul\":23163:23371   */\n      iszero\n      tag_612\n      jumpi\n        /* \"#utility.yul\":23256:23265   */\n      dup5\n        /* \"#utility.yul\":23251:23254   */\n      dup10\n        /* \"#utility.yul\":23247:23266   */\n      add\n        /* \"#utility.yul\":23241:23267   */\n      mload\n        /* \"#utility.yul\":23233:23239   */\n      dup3\n        /* \"#utility.yul\":23226:23268   */\n      sstore\n        /* \"#utility.yul\":23307:23308   */\n      0x01\n        /* \"#utility.yul\":23299:23305   */\n      dup3\n        /* \"#utility.yul\":23295:23309   */\n      add\n        /* \"#utility.yul\":23285:23309   */\n      swap2\n      pop\n        /* \"#utility.yul\":23354:23356   */\n      0x20\n        /* \"#utility.yul\":23343:23352   */\n      dup6\n        /* \"#utility.yul\":23339:23357   */\n      add\n        /* \"#utility.yul\":23326:23357   */\n      swap5\n      pop\n        /* \"#utility.yul\":23200:23204   */\n      0x20\n        /* \"#utility.yul\":23197:23198   */\n      dup2\n        /* \"#utility.yul\":23193:23205   */\n      add\n        /* \"#utility.yul\":23188:23205   */\n      swap1\n      pop\n        /* \"#utility.yul\":23163:23371   */\n      jump(tag_610)\n    tag_612:\n        /* \"#utility.yul\":23399:23405   */\n      dup7\n        /* \"#utility.yul\":23390:23397   */\n      dup4\n        /* \"#utility.yul\":23387:23406   */\n      lt\n        /* \"#utility.yul\":23384:23563   */\n      iszero\n      tag_613\n      jumpi\n        /* \"#utility.yul\":23457:23466   */\n      dup5\n        /* \"#utility.yul\":23452:23455   */\n      dup10\n        /* \"#utility.yul\":23448:23467   */\n      add\n        /* \"#utility.yul\":23442:23468   */\n      mload\n        /* \"#utility.yul\":23500:23548   */\n      tag_614\n        /* \"#utility.yul\":23542:23546   */\n      0x1f\n        /* \"#utility.yul\":23534:23540   */\n      dup10\n        /* \"#utility.yul\":23530:23547   */\n      and\n        /* \"#utility.yul\":23519:23528   */\n      dup3\n        /* \"#utility.yul\":23500:23548   */\n      tag_353\n      jump\t// in\n    tag_614:\n        /* \"#utility.yul\":23492:23498   */\n      dup4\n        /* \"#utility.yul\":23485:23549   */\n      sstore\n        /* \"#utility.yul\":23407:23563   */\n      pop\n        /* \"#utility.yul\":23384:23563   */\n    tag_613:\n        /* \"#utility.yul\":23609:23610   */\n      0x01\n        /* \"#utility.yul\":23605:23606   */\n      0x02\n        /* \"#utility.yul\":23597:23603   */\n      dup9\n        /* \"#utility.yul\":23593:23607   */\n      mul\n        /* \"#utility.yul\":23589:23611   */\n      add\n        /* \"#utility.yul\":23583:23587   */\n      dup9\n        /* \"#utility.yul\":23576:23612   */\n      sstore\n        /* \"#utility.yul\":23011:23622   */\n      pop\n      pop\n      pop\n        /* \"#utility.yul\":22974:23861   */\n    tag_605:\n      pop\n        /* \"#utility.yul\":22564:23867   */\n      pop\n      pop\n      pop\n        /* \"#utility.yul\":22472:23867   */\n      pop\n      pop\n      jump\t// out\n        /* \"#utility.yul\":23873:24186   */\n    tag_238:\n        /* \"#utility.yul\":23986:23990   */\n      0x00\n        /* \"#utility.yul\":24024:24026   */\n      0x20\n        /* \"#utility.yul\":24013:24022   */\n      dup3\n        /* \"#utility.yul\":24009:24027   */\n      add\n        /* \"#utility.yul\":24001:24027   */\n      swap1\n      pop\n        /* \"#utility.yul\":24073:24082   */\n      dup2\n        /* \"#utility.yul\":24067:24071   */\n      dup2\n        /* \"#utility.yul\":24063:24083   */\n      sub\n        /* \"#utility.yul\":24059:24060   */\n      0x00\n        /* \"#utility.yul\":24048:24057   */\n      dup4\n        /* \"#utility.yul\":24044:24061   */\n      add\n        /* \"#utility.yul\":24037:24084   */\n      mstore\n        /* \"#utility.yul\":24101:24179   */\n      tag_616\n        /* \"#utility.yul\":24174:24178   */\n      dup2\n        /* \"#utility.yul\":24165:24171   */\n      dup5\n        /* \"#utility.yul\":24101:24179   */\n      tag_316\n      jump\t// in\n    tag_616:\n        /* \"#utility.yul\":24093:24179   */\n      swap1\n      pop\n        /* \"#utility.yul\":23873:24186   */\n      swap3\n      swap2\n      pop\n      pop\n      jump\t// out\n        /* \"#utility.yul\":24192:24364   */\n    tag_355:\n        /* \"#utility.yul\":24332:24356   */\n      0x5448524553484f4c44204e4f5420455843454544454400000000000000000000\n        /* \"#utility.yul\":24328:24329   */\n      0x00\n        /* \"#utility.yul\":24320:24326   */\n      dup3\n        /* \"#utility.yul\":24316:24330   */\n      add\n        /* \"#utility.yul\":24309:24357   */\n      mstore\n        /* \"#utility.yul\":24192:24364   */\n      pop\n      jump\t// out\n        /* \"#utility.yul\":24370:24736   */\n    tag_356:\n        /* \"#utility.yul\":24512:24515   */\n      0x00\n        /* \"#utility.yul\":24533:24600   */\n      tag_619\n        /* \"#utility.yul\":24597:24599   */\n      0x16\n        /* \"#utility.yul\":24592:24595   */\n      dup4\n        /* \"#utility.yul\":24533:24600   */\n      tag_313\n      jump\t// in\n    tag_619:\n        /* \"#utility.yul\":24526:24600   */\n      swap2\n      pop\n        /* \"#utility.yul\":24609:24702   */\n      tag_620\n        /* \"#utility.yul\":24698:24701   */\n      dup3\n        /* \"#utility.yul\":24609:24702   */\n      tag_355\n      jump\t// in\n    tag_620:\n        /* \"#utility.yul\":24727:24729   */\n      0x20\n        /* \"#utility.yul\":24722:24725   */\n      dup3\n        /* \"#utility.yul\":24718:24730   */\n      add\n        /* \"#utility.yul\":24711:24730   */\n      swap1\n      pop\n        /* \"#utility.yul\":24370:24736   */\n      swap2\n      swap1\n      pop\n      jump\t// out\n        /* \"#utility.yul\":24742:25161   */\n    tag_264:\n        /* \"#utility.yul\":24908:24912   */\n      0x00\n        /* \"#utility.yul\":24946:24948   */\n      0x20\n        /* \"#utility.yul\":24935:24944   */\n      dup3\n        /* \"#utility.yul\":24931:24949   */\n      add\n        /* \"#utility.yul\":24923:24949   */\n      swap1\n      pop\n        /* \"#utility.yul\":24995:25004   */\n      dup2\n        /* \"#utility.yul\":24989:24993   */\n      dup2\n        /* \"#utility.yul\":24985:25005   */\n      sub\n        /* \"#utility.yul\":24981:24982   */\n      0x00\n        /* \"#utility.yul\":24970:24979   */\n      dup4\n        /* \"#utility.yul\":24966:24983   */\n      add\n        /* \"#utility.yul\":24959:25006   */\n      mstore\n        /* \"#utility.yul\":25023:25154   */\n      tag_622\n        /* \"#utility.yul\":25149:25153   */\n      dup2\n        /* \"#utility.yul\":25023:25154   */\n      tag_356\n      jump\t// in\n    tag_622:\n        /* \"#utility.yul\":25015:25154   */\n      swap1\n      pop\n        /* \"#utility.yul\":24742:25161   */\n      swap2\n      swap1\n      pop\n      jump\t// out\n        /* \"#utility.yul\":25167:25340   */\n    tag_357:\n        /* \"#utility.yul\":25307:25332   */\n      0x5448495320544f5049432049532043414e43454c4c4544000000000000000000\n        /* \"#utility.yul\":25303:25304   */\n      0x00\n        /* \"#utility.yul\":25295:25301   */\n      dup3\n        /* \"#utility.yul\":25291:25305   */\n      add\n        /* \"#utility.yul\":25284:25333   */\n      mstore\n        /* \"#utility.yul\":25167:25340   */\n      pop\n      jump\t// out\n        /* \"#utility.yul\":25346:25712   */\n    tag_358:\n        /* \"#utility.yul\":25488:25491   */\n      0x00\n        /* \"#utility.yul\":25509:25576   */\n      tag_625\n        /* \"#utility.yul\":25573:25575   */\n      0x17\n        /* \"#utility.yul\":25568:25571   */\n      dup4\n        /* \"#utility.yul\":25509:25576   */\n      tag_313\n      jump\t// in\n    tag_625:\n        /* \"#utility.yul\":25502:25576   */\n      swap2\n      pop\n        /* \"#utility.yul\":25585:25678   */\n      tag_626\n        /* \"#utility.yul\":25674:25677   */\n      dup3\n        /* \"#utility.yul\":25585:25678   */\n      tag_357\n      jump\t// in\n    tag_626:\n        /* \"#utility.yul\":25703:25705   */\n      0x20\n        /* \"#utility.yul\":25698:25701   */\n      dup3\n        /* \"#utility.yul\":25694:25706   */\n      add\n        /* \"#utility.yul\":25687:25706   */\n      swap1\n      pop\n        /* \"#utility.yul\":25346:25712   */\n      swap2\n      swap1\n      pop\n      jump\t// out\n        /* \"#utility.yul\":25718:26137   */\n    tag_267:\n        /* \"#utility.yul\":25884:25888   */\n      0x00\n        /* \"#utility.yul\":25922:25924   */\n      0x20\n        /* \"#utility.yul\":25911:25920   */\n      dup3\n        /* \"#utility.yul\":25907:25925   */\n      add\n        /* \"#utility.yul\":25899:25925   */\n      swap1\n      pop\n        /* \"#utility.yul\":25971:25980   */\n      dup2\n        /* \"#utility.yul\":25965:25969   */\n      dup2\n        /* \"#utility.yul\":25961:25981   */\n      sub\n        /* \"#utility.yul\":25957:25958   */\n      0x00\n        /* \"#utility.yul\":25946:25955   */\n      dup4\n        /* \"#utility.yul\":25942:25959   */\n      add\n        /* \"#utility.yul\":25935:25982   */\n      mstore\n        /* \"#utility.yul\":25999:26130   */\n      tag_628\n        /* \"#utility.yul\":26125:26129   */\n      dup2\n        /* \"#utility.yul\":25999:26130   */\n      tag_358\n      jump\t// in\n    tag_628:\n        /* \"#utility.yul\":25991:26130   */\n      swap1\n      pop\n        /* \"#utility.yul\":25718:26137   */\n      swap2\n      swap1\n      pop\n      jump\t// out\n        /* \"#utility.yul\":26143:26364   */\n    tag_359:\n        /* \"#utility.yul\":26283:26317   */\n      0x544f5049432043414e204f4e4c5920424520494d504c454d454e544544204f4e\n        /* \"#utility.yul\":26279:26280   */\n      0x00\n        /* \"#utility.yul\":26271:26277   */\n      dup3\n        /* \"#utility.yul\":26267:26281   */\n      add\n        /* \"#utility.yul\":26260:26318   */\n      mstore\n        /* \"#utility.yul\":26352:26356   */\n      0x4345000000000000000000000000000000000000000000000000000000000000\n        /* \"#utility.yul\":26347:26349   */\n      0x20\n        /* \"#utility.yul\":26339:26345   */\n      dup3\n        /* \"#utility.yul\":26335:26350   */\n      add\n        /* \"#utility.yul\":26328:26357   */\n      mstore\n        /* \"#utility.yul\":26143:26364   */\n      pop\n      jump\t// out\n        /* \"#utility.yul\":26370:26736   */\n    tag_360:\n        /* \"#utility.yul\":26512:26515   */\n      0x00\n        /* \"#utility.yul\":26533:26600   */\n      tag_631\n        /* \"#utility.yul\":26597:26599   */\n      0x22\n        /* \"#utility.yul\":26592:26595   */\n      dup4\n        /* \"#utility.yul\":26533:26600   */\n      tag_313\n      jump\t// in\n    tag_631:\n        /* \"#utility.yul\":26526:26600   */\n      swap2\n      pop\n        /* \"#utility.yul\":26609:26702   */\n      tag_632\n        /* \"#utility.yul\":26698:26701   */\n      dup3\n        /* \"#utility.yul\":26609:26702   */\n      tag_359\n      jump\t// in\n    tag_632:\n        /* \"#utility.yul\":26727:26729   */\n      0x40\n        /* \"#utility.yul\":26722:26725   */\n      dup3\n        /* \"#utility.yul\":26718:26730   */\n      add\n        /* \"#utility.yul\":26711:26730   */\n      swap1\n      pop\n        /* \"#utility.yul\":26370:26736   */\n      swap2\n      swap1\n      pop\n      jump\t// out\n        /* \"#utility.yul\":26742:27161   */\n    tag_270:\n        /* \"#utility.yul\":26908:26912   */\n      0x00\n        /* \"#utility.yul\":26946:26948   */\n      0x20\n        /* \"#utility.yul\":26935:26944   */\n      dup3\n        /* \"#utility.yul\":26931:26949   */\n      add\n        /* \"#utility.yul\":26923:26949   */\n      swap1\n      pop\n        /* \"#utility.yul\":26995:27004   */\n      dup2\n        /* \"#utility.yul\":26989:26993   */\n      dup2\n        /* \"#utility.yul\":26985:27005   */\n      sub\n        /* \"#utility.yul\":26981:26982   */\n      0x00\n        /* \"#utility.yul\":26970:26979   */\n      dup4\n        /* \"#utility.yul\":26966:26983   */\n      add\n        /* \"#utility.yul\":26959:27006   */\n      mstore\n        /* \"#utility.yul\":27023:27154   */\n      tag_634\n        /* \"#utility.yul\":27149:27153   */\n      dup2\n        /* \"#utility.yul\":27023:27154   */\n      tag_360\n      jump\t// in\n    tag_634:\n        /* \"#utility.yul\":27015:27154   */\n      swap1\n      pop\n        /* \"#utility.yul\":26742:27161   */\n      swap2\n      swap1\n      pop\n      jump\t// out\n        /* \"#utility.yul\":27167:27315   */\n    tag_361:\n        /* \"#utility.yul\":27269:27280   */\n      0x00\n        /* \"#utility.yul\":27306:27309   */\n      dup2\n        /* \"#utility.yul\":27291:27309   */\n      swap1\n      pop\n        /* \"#utility.yul\":27167:27315   */\n      swap3\n      swap2\n      pop\n      pop\n      jump\t// out\n        /* \"#utility.yul\":27321:27711   */\n    tag_362:\n        /* \"#utility.yul\":27427:27430   */\n      0x00\n        /* \"#utility.yul\":27455:27494   */\n      tag_637\n        /* \"#utility.yul\":27488:27493   */\n      dup3\n        /* \"#utility.yul\":27455:27494   */\n      tag_312\n      jump\t// in\n    tag_637:\n        /* \"#utility.yul\":27510:27599   */\n      tag_638\n        /* \"#utility.yul\":27592:27598   */\n      dup2\n        /* \"#utility.yul\":27587:27590   */\n      dup6\n        /* \"#utility.yul\":27510:27599   */\n      tag_361\n      jump\t// in\n    tag_638:\n        /* \"#utility.yul\":27503:27599   */\n      swap4\n      pop\n        /* \"#utility.yul\":27608:27673   */\n      tag_639\n        /* \"#utility.yul\":27666:27672   */\n      dup2\n        /* \"#utility.yul\":27661:27664   */\n      dup6\n        /* \"#utility.yul\":27654:27658   */\n      0x20\n        /* \"#utility.yul\":27647:27652   */\n      dup7\n        /* \"#utility.yul\":27643:27659   */\n      add\n        /* \"#utility.yul\":27608:27673   */\n      tag_314\n      jump\t// in\n    tag_639:\n        /* \"#utility.yul\":27698:27704   */\n      dup1\n        /* \"#utility.yul\":27693:27696   */\n      dup5\n        /* \"#utility.yul\":27689:27705   */\n      add\n        /* \"#utility.yul\":27682:27705   */\n      swap2\n      pop\n        /* \"#utility.yul\":27431:27711   */\n      pop\n        /* \"#utility.yul\":27321:27711   */\n      swap3\n      swap2\n      pop\n      pop\n      jump\t// out\n        /* \"#utility.yul\":27717:27992   */\n    tag_272:\n        /* \"#utility.yul\":27849:27852   */\n      0x00\n        /* \"#utility.yul\":27871:27966   */\n      tag_641\n        /* \"#utility.yul\":27962:27965   */\n      dup3\n        /* \"#utility.yul\":27953:27959   */\n      dup5\n        /* \"#utility.yul\":27871:27966   */\n      tag_362\n      jump\t// in\n    tag_641:\n        /* \"#utility.yul\":27864:27966   */\n      swap2\n      pop\n        /* \"#utility.yul\":27983:27986   */\n      dup2\n        /* \"#utility.yul\":27976:27986   */\n      swap1\n      pop\n        /* \"#utility.yul\":27717:27992   */\n      swap3\n      swap2\n      pop\n      pop\n      jump\t// out\n        /* \"#utility.yul\":27998:28096   */\n    tag_363:\n        /* \"#utility.yul\":28049:28055   */\n      0x00\n        /* \"#utility.yul\":28083:28088   */\n      dup2\n        /* \"#utility.yul\":28077:28089   */\n      mload\n        /* \"#utility.yul\":28067:28089   */\n      swap1\n      pop\n        /* \"#utility.yul\":27998:28096   */\n      swap2\n      swap1\n      pop\n      jump\t// out\n        /* \"#utility.yul\":28102:28249   */\n    tag_364:\n        /* \"#utility.yul\":28203:28214   */\n      0x00\n        /* \"#utility.yul\":28240:28243   */\n      dup2\n        /* \"#utility.yul\":28225:28243   */\n      swap1\n      pop\n        /* \"#utility.yul\":28102:28249   */\n      swap3\n      swap2\n      pop\n      pop\n      jump\t// out\n        /* \"#utility.yul\":28255:28641   */\n    tag_365:\n        /* \"#utility.yul\":28359:28362   */\n      0x00\n        /* \"#utility.yul\":28387:28425   */\n      tag_645\n        /* \"#utility.yul\":28419:28424   */\n      dup3\n        /* \"#utility.yul\":28387:28425   */\n      tag_363\n      jump\t// in\n    tag_645:\n        /* \"#utility.yul\":28441:28529   */\n      tag_646\n        /* \"#utility.yul\":28522:28528   */\n      dup2\n        /* \"#utility.yul\":28517:28520   */\n      dup6\n        /* \"#utility.yul\":28441:28529   */\n      tag_364\n      jump\t// in\n    tag_646:\n        /* \"#utility.yul\":28434:28529   */\n      swap4\n      pop\n        /* \"#utility.yul\":28538:28603   */\n      tag_647\n        /* \"#utility.yul\":28596:28602   */\n      dup2\n        /* \"#utility.yul\":28591:28594   */\n      dup6\n        /* \"#utility.yul\":28584:28588   */\n      0x20\n        /* \"#utility.yul\":28577:28582   */\n      dup7\n        /* \"#utility.yul\":28573:28589   */\n      add\n        /* \"#utility.yul\":28538:28603   */\n      tag_314\n      jump\t// in\n    tag_647:\n        /* \"#utility.yul\":28628:28634   */\n      dup1\n        /* \"#utility.yul\":28623:28626   */\n      dup5\n        /* \"#utility.yul\":28619:28635   */\n      add\n        /* \"#utility.yul\":28612:28635   */\n      swap2\n      pop\n        /* \"#utility.yul\":28363:28641   */\n      pop\n        /* \"#utility.yul\":28255:28641   */\n      swap3\n      swap2\n      pop\n      pop\n      jump\t// out\n        /* \"#utility.yul\":28647:28918   */\n    tag_274:\n        /* \"#utility.yul\":28777:28780   */\n      0x00\n        /* \"#utility.yul\":28799:28892   */\n      tag_649\n        /* \"#utility.yul\":28888:28891   */\n      dup3\n        /* \"#utility.yul\":28879:28885   */\n      dup5\n        /* \"#utility.yul\":28799:28892   */\n      tag_365\n      jump\t// in\n    tag_649:\n        /* \"#utility.yul\":28792:28892   */\n      swap2\n      pop\n        /* \"#utility.yul\":28909:28912   */\n      dup2\n        /* \"#utility.yul\":28902:28912   */\n      swap1\n      pop\n        /* \"#utility.yul\":28647:28918   */\n      swap3\n      swap2\n      pop\n      pop\n      jump\t// out\n        /* \"#utility.yul\":28924:29093   */\n    tag_366:\n        /* \"#utility.yul\":29064:29085   */\n      0x4641494c454420544f20494d504c454d454e5400000000000000000000000000\n        /* \"#utility.yul\":29060:29061   */\n      0x00\n        /* \"#utility.yul\":29052:29058   */\n      dup3\n        /* \"#utility.yul\":29048:29062   */\n      add\n        /* \"#utility.yul\":29041:29086   */\n      mstore\n        /* \"#utility.yul\":28924:29093   */\n      pop\n      jump\t// out\n        /* \"#utility.yul\":29099:29465   */\n    tag_367:\n        /* \"#utility.yul\":29241:29244   */\n      0x00\n        /* \"#utility.yul\":29262:29329   */\n      tag_652\n        /* \"#utility.yul\":29326:29328   */\n      0x13\n        /* \"#utility.yul\":29321:29324   */\n      dup4\n        /* \"#utility.yul\":29262:29329   */\n      tag_313\n      jump\t// in\n    tag_652:\n        /* \"#utility.yul\":29255:29329   */\n      swap2\n      pop\n        /* \"#utility.yul\":29338:29431   */\n      tag_653\n        /* \"#utility.yul\":29427:29430   */\n      dup3\n        /* \"#utility.yul\":29338:29431   */\n      tag_366\n      jump\t// in\n    tag_653:\n        /* \"#utility.yul\":29456:29458   */\n      0x20\n        /* \"#utility.yul\":29451:29454   */\n      dup3\n        /* \"#utility.yul\":29447:29459   */\n      add\n        /* \"#utility.yul\":29440:29459   */\n      swap1\n      pop\n        /* \"#utility.yul\":29099:29465   */\n      swap2\n      swap1\n      pop\n      jump\t// out\n        /* \"#utility.yul\":29471:29890   */\n    tag_280:\n        /* \"#utility.yul\":29637:29641   */\n      0x00\n        /* \"#utility.yul\":29675:29677   */\n      0x20\n        /* \"#utility.yul\":29664:29673   */\n      dup3\n        /* \"#utility.yul\":29660:29678   */\n      add\n        /* \"#utility.yul\":29652:29678   */\n      swap1\n      pop\n        /* \"#utility.yul\":29724:29733   */\n      dup2\n        /* \"#utility.yul\":29718:29722   */\n      dup2\n        /* \"#utility.yul\":29714:29734   */\n      sub\n        /* \"#utility.yul\":29710:29711   */\n      0x00\n        /* \"#utility.yul\":29699:29708   */\n      dup4\n        /* \"#utility.yul\":29695:29712   */\n      add\n        /* \"#utility.yul\":29688:29735   */\n      mstore\n        /* \"#utility.yul\":29752:29883   */\n      tag_655\n        /* \"#utility.yul\":29878:29882   */\n      dup2\n        /* \"#utility.yul\":29752:29883   */\n      tag_367\n      jump\t// in\n    tag_655:\n        /* \"#utility.yul\":29744:29883   */\n      swap1\n      pop\n        /* \"#utility.yul\":29471:29890   */\n      swap2\n      swap1\n      pop\n      jump\t// out\n        /* \"#utility.yul\":29896:30417   */\n    tag_283:\n        /* \"#utility.yul\":30059:30063   */\n      0x00\n        /* \"#utility.yul\":30097:30099   */\n      0x60\n        /* \"#utility.yul\":30086:30095   */\n      dup3\n        /* \"#utility.yul\":30082:30100   */\n      add\n        /* \"#utility.yul\":30074:30100   */\n      swap1\n      pop\n        /* \"#utility.yul\":30146:30155   */\n      dup2\n        /* \"#utility.yul\":30140:30144   */\n      dup2\n        /* \"#utility.yul\":30136:30156   */\n      sub\n        /* \"#utility.yul\":30132:30133   */\n      0x00\n        /* \"#utility.yul\":30121:30130   */\n      dup4\n        /* \"#utility.yul\":30117:30134   */\n      add\n        /* \"#utility.yul\":30110:30157   */\n      mstore\n        /* \"#utility.yul\":30174:30252   */\n      tag_657\n        /* \"#utility.yul\":30247:30251   */\n      dup2\n        /* \"#utility.yul\":30238:30244   */\n      dup7\n        /* \"#utility.yul\":30174:30252   */\n      tag_316\n      jump\t// in\n    tag_657:\n        /* \"#utility.yul\":30166:30252   */\n      swap1\n      pop\n        /* \"#utility.yul\":30262:30334   */\n      tag_658\n        /* \"#utility.yul\":30330:30332   */\n      0x20\n        /* \"#utility.yul\":30319:30328   */\n      dup4\n        /* \"#utility.yul\":30315:30333   */\n      add\n        /* \"#utility.yul\":30306:30312   */\n      dup6\n        /* \"#utility.yul\":30262:30334   */\n      tag_310\n      jump\t// in\n    tag_658:\n        /* \"#utility.yul\":30344:30410   */\n      tag_659\n        /* \"#utility.yul\":30406:30408   */\n      0x40\n        /* \"#utility.yul\":30395:30404   */\n      dup4\n        /* \"#utility.yul\":30391:30409   */\n      add\n        /* \"#utility.yul\":30382:30388   */\n      dup5\n        /* \"#utility.yul\":30344:30410   */\n      tag_311\n      jump\t// in\n    tag_659:\n        /* \"#utility.yul\":29896:30417   */\n      swap5\n      swap4\n      pop\n      pop\n      pop\n      pop\n      jump\t// out\n        /* \"#utility.yul\":30423:30603   */\n    tag_295:\n        /* \"#utility.yul\":30471:30548   */\n      0x4e487b7100000000000000000000000000000000000000000000000000000000\n        /* \"#utility.yul\":30468:30469   */\n      0x00\n        /* \"#utility.yul\":30461:30549   */\n      mstore\n        /* \"#utility.yul\":30568:30572   */\n      0x12\n        /* \"#utility.yul\":30565:30566   */\n      0x04\n        /* \"#utility.yul\":30558:30573   */\n      mstore\n        /* \"#utility.yul\":30592:30596   */\n      0x24\n        /* \"#utility.yul\":30589:30590   */\n      0x00\n        /* \"#utility.yul\":30582:30597   */\n      revert\n\n    auxdata: 0xa264697066735822122049011779dc23999eddff782edad8ae90e1e6d4dd211c837c6e29f12b5d5f7a5864736f6c63430008160033\n}\n",
				"bytecode": {
					"linkReferences": {},
					"object": "6080604052620697805f556201518060015560016009556001600a5534801562000027575f80fd5b506040516200358d3803806200358d83398181016040528101906200004d919062000150565b8060025f6101000a81548173ffffffffffffffffffffffffffffffffffffffff021916908373ffffffffffffffffffffffffffffffffffffffff160217905550600160045f3373ffffffffffffffffffffffffffffffffffffffff1673ffffffffffffffffffffffffffffffffffffffff1681526020019081526020015f205f015f6101000a81548160ff0219169083151502179055505062000180565b5f80fd5b5f73ffffffffffffffffffffffffffffffffffffffff82169050919050565b5f6200011a82620000ef565b9050919050565b6200012c816200010e565b811462000137575f80fd5b50565b5f815190506200014a8162000121565b92915050565b5f60208284031215620001685762000167620000eb565b5b5f62000177848285016200013a565b91505092915050565b6133ff806200018e5f395ff3fe60806040526004361061011e575f3560e01c806361bc221a1161009f5780637d1592f3116100635780637d1592f3146103e3578063a060acfa1461040b578063a0a67c5814610427578063f2c298be14610451578063fd0f0166146104795761011e565b806361bc221a146102ff57806363a846f81461032957806367358c96146103675780636cb764081461039157806370480275146103bb5761011e565b806337852d99116100e657806337852d99146101ee578063474112261461020457806354b598ec146102405780635bb6d2841461027e5780635df81330146102c25761011e565b80631785f53c146101225780631c8dd2141461014a5780632ae2ee1f146101725780633153cebc1461019c57806333f794b5146101c6575b5f80fd5b34801561012d575f80fd5b50610148600480360381019061014391906124b6565b6104b6565b005b348015610155575f80fd5b50610170600480360381019061016b9190612549565b61075d565b005b34801561017d575f80fd5b50610186610e63565b6040516101939190612596565b60405180910390f35b3480156101a7575f80fd5b506101b0610e69565b6040516101bd9190612596565b60405180910390f35b3480156101d1575f80fd5b506101ec60048036038101906101e791906125af565b610e6e565b005b3480156101f9575f80fd5b506102026111d1565b005b34801561020f575f80fd5b5061022a600480360381019061022591906125da565b61125e565b6040516102379190612627565b60405180910390f35b34801561024b575f80fd5b5061026660048036038101906102619190612640565b611293565b6040516102759392919061267e565b60405180910390f35b348015610289575f80fd5b506102a4600480360381019061029f91906125af565b6112dd565b6040516102b99998979695949392919061274c565b60405180910390f35b3480156102cd575f80fd5b506102e860048036038101906102e391906125af565b611510565b6040516102f69291906127ec565b60405180910390f35b34801561030a575f80fd5b50610313611530565b6040516103209190612596565b60405180910390f35b348015610334575f80fd5b5061034f600480360381019061034a91906124b6565b611536565b60405161035e93929190612813565b60405180910390f35b348015610372575f80fd5b5061037b611568565b6040516103889190612596565b60405180910390f35b34801561039c575f80fd5b506103a561156e565b6040516103b29190612596565b60405180910390f35b3480156103c6575f80fd5b506103e160048036038101906103dc91906124b6565b611574565b005b3480156103ee575f80fd5b5061040960048036038101906104049190612974565b611870565b005b610425600480360381019061042091906125af565b611b17565b005b348015610432575f80fd5b5061043b61212e565b6040516104489190612a2c565b60405180910390f35b34801561045c575f80fd5b5061047760048036038101906104729190612a45565b612153565b005b348015610484575f80fd5b5061049f600480360381019061049a91906124b6565b612224565b6040516104ad929190612a8c565b60405180910390f35b60045f3373ffffffffffffffffffffffffffffffffffffffff1673ffffffffffffffffffffffffffffffffffffffff1681526020019081526020015f205f015f9054906101000a900460ff16610541576040517f08c379a000000000000000000000000000000000000000000000000000000000815260040161053890612b04565b60405180910390fd5b60016005805490506105539190612b4f565b60045f8373ffffffffffffffffffffffffffffffffffffffff1673ffffffffffffffffffffffffffffffffffffffff1681526020019081526020015f206001015410610685575f60045f8373ffffffffffffffffffffffffffffffffffffffff1673ffffffffffffffffffffffffffffffffffffffff1681526020019081526020015f205f015f6101000a81548160ff021916908315150217905550600160045f8373ffffffffffffffffffffffffffffffffffffffff1673ffffffffffffffffffffffffffffffffffffffff1681526020019081526020015f206001015461063c9190612b82565b60045f8373ffffffffffffffffffffffffffffffffffffffff1673ffffffffffffffffffffffffffffffffffffffff1681526020019081526020015f2060010181905550610717565b600160045f8373ffffffffffffffffffffffffffffffffffffffff1673ffffffffffffffffffffffffffffffffffffffff1681526020019081526020015f20600101546106d29190612b82565b60045f8373ffffffffffffffffffffffffffffffffffffffff1673ffffffffffffffffffffffffffffffffffffffff1681526020019081526020015f20600101819055505b8073ffffffffffffffffffffffffffffffffffffffff167f923abef5ea1e37ac38f56a77b8133d215c1d3bcd2e3dd88a6120d34f933f3dde60405160405180910390a250565b5f600b5f8481526020019081526020015f20604051806101200160405290815f820154815260200160018201805461079490612be2565b80601f01602080910402602001604051908101604052809291908181526020018280546107c090612be2565b801561080b5780601f106107e25761010080835404028352916020019161080b565b820191905f5260205f20905b8154815290600101906020018083116107ee57829003601f168201915b50505050508152602001600282015f9054906101000a900473ffffffffffffffffffffffffffffffffffffffff1673ffffffffffffffffffffffffffffffffffffffff1673ffffffffffffffffffffffffffffffffffffffff16815260200160038201805461087990612be2565b80601f01602080910402602001604051908101604052809291908181526020018280546108a590612be2565b80156108f05780601f106108c7576101008083540402835291602001916108f0565b820191905f5260205f20905b8154815290600101906020018083116108d357829003601f168201915b50505050508152602001600482015f9054906101000a900473ffffffffffffffffffffffffffffffffffffffff1673ffffffffffffffffffffffffffffffffffffffff1673ffffffffffffffffffffffffffffffffffffffff16815260200160058201805461095e90612be2565b80601f016020809104026020016040519081016040528092919081815260200182805461098a90612be2565b80156109d55780601f106109ac576101008083540402835291602001916109d5565b820191905f5260205f20905b8154815290600101906020018083116109b857829003601f168201915b5050505050815260200160068201548152602001600782015f9054906101000a900460ff161515151581526020016007820160019054906101000a900460ff16151515158152505090505f60025f9054906101000a900473ffffffffffffffffffffffffffffffffffffffff16905060065f3373ffffffffffffffffffffffffffffffffffffffff1673ffffffffffffffffffffffffffffffffffffffff1681526020019081526020015f206001015f9054906101000a900460ff16610ad0576040517f08c379a0000000000000000000000000000000000000000000000000000000008152600401610ac790612c5c565b60405180910390fd5b5f8260c001515f54610ae29190612b82565b9050428111610b26576040517f08c379a0000000000000000000000000000000000000000000000000000000008152600401610b1d90612cc4565b60405180910390fd5b5f8273ffffffffffffffffffffffffffffffffffffffff166370a08231336040518263ffffffff1660e01b8152600401610b609190612a2c565b602060405180830381865afa158015610b7b573d5f803e3d5ffd5b505050506040513d601f19601f82011682018060405250810190610b9f9190612cf6565b11610bdf576040517f08c379a0000000000000000000000000000000000000000000000000000000008152600401610bd690612d91565b60405180910390fd5b60075f3373ffffffffffffffffffffffffffffffffffffffff1673ffffffffffffffffffffffffffffffffffffffff1681526020019081526020015f205f8681526020019081526020015f2060010160019054906101000a900460ff1615610c7c576040517f08c379a0000000000000000000000000000000000000000000000000000000008152600401610c7390612e1f565b60405180910390fd5b604051806060016040528086815260200185151581526020016001151581525060075f3373ffffffffffffffffffffffffffffffffffffffff1673ffffffffffffffffffffffffffffffffffffffff1681526020019081526020015f205f8781526020019081526020015f205f820151815f01556020820151816001015f6101000a81548160ff02191690831515021790555060408201518160010160016101000a81548160ff02191690831515021790555090505060075f3373ffffffffffffffffffffffffffffffffffffffff1673ffffffffffffffffffffffffffffffffffffffff1681526020019081526020015f205f8681526020019081526020015f206001015f9054906101000a900460ff1615610dcf57600160085f8781526020019081526020015f205f0154610db39190612b82565b60085f8781526020019081526020015f205f0181905550610e09565b600160085f8781526020019081526020015f2060010154610df09190612b82565b60085f8781526020019081526020015f20600101819055505b3373ffffffffffffffffffffffffffffffffffffffff167f4f7ff1c79e536d7fef60ccb53beb6009e08841ffcba10e515e076f4cbdd9e320845f015186604051610e54929190612e3d565b60405180910390a25050505050565b600a5481565b5f5481565b60045f3373ffffffffffffffffffffffffffffffffffffffff1673ffffffffffffffffffffffffffffffffffffffff1681526020019081526020015f205f015f9054906101000a900460ff16610ef9576040517f08c379a0000000000000000000000000000000000000000000000000000000008152600401610ef090612b04565b60405180910390fd5b5f600b5f8381526020019081526020015f20604051806101200160405290815f8201548152602001600182018054610f3090612be2565b80601f0160208091040260200160405190810160405280929190818152602001828054610f5c90612be2565b8015610fa75780601f10610f7e57610100808354040283529160200191610fa7565b820191905f5260205f20905b815481529060010190602001808311610f8a57829003601f168201915b50505050508152602001600282015f9054906101000a900473ffffffffffffffffffffffffffffffffffffffff1673ffffffffffffffffffffffffffffffffffffffff1673ffffffffffffffffffffffffffffffffffffffff16815260200160038201805461101590612be2565b80601f016020809104026020016040519081016040528092919081815260200182805461104190612be2565b801561108c5780601f106110635761010080835404028352916020019161108c565b820191905f5260205f20905b81548152906001019060200180831161106f57829003601f168201915b50505050508152602001600482015f9054906101000a900473ffffffffffffffffffffffffffffffffffffffff1673ffffffffffffffffffffffffffffffffffffffff1673ffffffffffffffffffffffffffffffffffffffff1681526020016005820180546110fa90612be2565b80601f016020809104026020016040519081016040528092919081815260200182805461112690612be2565b80156111715780601f1061114857610100808354040283529160200191611171565b820191905f5260205f20905b81548152906001019060200180831161115457829003601f168201915b5050505050815260200160068201548152602001600782015f9054906101000a900460ff161515151581526020016007820160019054906101000a900460ff16151515158152505090506001816101000190151590811515815250505050565b60045f3373ffffffffffffffffffffffffffffffffffffffff1673ffffffffffffffffffffffffffffffffffffffff1681526020019081526020015f205f015f9054906101000a900460ff1661125c576040517f08c379a000000000000000000000000000000000000000000000000000000000815260040161125390612b04565b60405180910390fd5b565b5f80611277603c6064856122d69092919063ffffffff16565b905080841015611287575f61128a565b60015b91505092915050565b6007602052815f5260405f20602052805f5260405f205f9150915050805f015490806001015f9054906101000a900460ff16908060010160019054906101000a900460ff16905083565b600b602052805f5260405f205f91509050805f01549080600101805461130290612be2565b80601f016020809104026020016040519081016040528092919081815260200182805461132e90612be2565b80156113795780601f1061135057610100808354040283529160200191611379565b820191905f5260205f20905b81548152906001019060200180831161135c57829003601f168201915b505050505090806002015f9054906101000a900473ffffffffffffffffffffffffffffffffffffffff16908060030180546113b390612be2565b80601f01602080910402602001604051908101604052809291908181526020018280546113df90612be2565b801561142a5780601f106114015761010080835404028352916020019161142a565b820191905f5260205f20905b81548152906001019060200180831161140d57829003601f168201915b505050505090806004015f9054906101000a900473ffffffffffffffffffffffffffffffffffffffff169080600501805461146490612be2565b80601f016020809104026020016040519081016040528092919081815260200182805461149090612be2565b80156114db5780601f106114b2576101008083540402835291602001916114db565b820191905f5260205f20905b8154815290600101906020018083116114be57829003601f168201915b505050505090806006015490806007015f9054906101000a900460ff16908060070160019054906101000a900460ff16905089565b6008602052805f5260405f205f91509050805f0154908060010154905082565b60095481565b6004602052805f5260405f205f91509050805f015f9054906101000a900460ff16908060010154908060020154905083565b60015481565b60035481565b60045f3373ffffffffffffffffffffffffffffffffffffffff1673ffffffffffffffffffffffffffffffffffffffff1681526020019081526020015f205f015f9054906101000a900460ff166115ff576040517f08c379a00000000000000000000000000000000000000000000000000000000081526004016115f690612b04565b60405180910390fd5b60058054905060045f8373ffffffffffffffffffffffffffffffffffffffff1673ffffffffffffffffffffffffffffffffffffffff1681526020019081526020015f20600201541061179857600160045f8373ffffffffffffffffffffffffffffffffffffffff1673ffffffffffffffffffffffffffffffffffffffff1681526020019081526020015f205f015f6101000a81548160ff021916908315150217905550600581908060018154018082558091505060019003905f5260205f20015f9091909190916101000a81548173ffffffffffffffffffffffffffffffffffffffff021916908373ffffffffffffffffffffffffffffffffffffffff160217905550600160045f8373ffffffffffffffffffffffffffffffffffffffff1673ffffffffffffffffffffffffffffffffffffffff1681526020019081526020015f206002015461174f9190612b82565b60045f8373ffffffffffffffffffffffffffffffffffffffff1673ffffffffffffffffffffffffffffffffffffffff1681526020019081526020015f206002018190555061182a565b600160045f8373ffffffffffffffffffffffffffffffffffffffff1673ffffffffffffffffffffffffffffffffffffffff1681526020019081526020015f20600201546117e59190612b82565b60045f8373ffffffffffffffffffffffffffffffffffffffff1673ffffffffffffffffffffffffffffffffffffffff1681526020019081526020015f20600201819055505b8073ffffffffffffffffffffffffffffffffffffffff167fe0c21bf57df59cfc5e2067c75dbfd51a39f17533352ce1cf3a6c713c897a6c0c60405160405180910390a250565b60065f3373ffffffffffffffffffffffffffffffffffffffff1673ffffffffffffffffffffffffffffffffffffffff1681526020019081526020015f206001015f9054906101000a900460ff166118fc576040517f08c379a00000000000000000000000000000000000000000000000000000000081526004016118f390612c5c565b60405180910390fd5b5f60405180610120016040528060095481526020018681526020013373ffffffffffffffffffffffffffffffffffffffff1681526020018581526020018473ffffffffffffffffffffffffffffffffffffffff1681526020018381526020014281526020015f151581526020015f1515815250905080600b5f835f015181526020019081526020015f205f820151815f015560208201518160010190816119a39190613001565b506040820151816002015f6101000a81548173ffffffffffffffffffffffffffffffffffffffff021916908373ffffffffffffffffffffffffffffffffffffffff16021790555060608201518160030190816119ff9190613001565b506080820151816004015f6101000a81548173ffffffffffffffffffffffffffffffffffffffff021916908373ffffffffffffffffffffffffffffffffffffffff16021790555060a0820151816005019081611a5b9190613001565b5060c0820151816006015560e0820151816007015f6101000a81548160ff0219169083151502179055506101008201518160070160016101000a81548160ff0219169083151502179055509050506001600954611ab89190612b82565b6009819055503373ffffffffffffffffffffffffffffffffffffffff167fa0236bc57e83de3883ef92ce123949a84eacc1f18abb3808f17239c67fa3df9b8260200151604051611b0891906130d0565b60405180910390a25050505050565b60045f3373ffffffffffffffffffffffffffffffffffffffff1673ffffffffffffffffffffffffffffffffffffffff1681526020019081526020015f205f015f9054906101000a900460ff16611ba2576040517f08c379a0000000000000000000000000000000000000000000000000000000008152600401611b9990612b04565b60405180910390fd5b611baa6123d5565b5f6060600b5f8581526020019081526020015f20604051806101200160405290815f8201548152602001600182018054611be390612be2565b80601f0160208091040260200160405190810160405280929190818152602001828054611c0f90612be2565b8015611c5a5780601f10611c3157610100808354040283529160200191611c5a565b820191905f5260205f20905b815481529060010190602001808311611c3d57829003601f168201915b50505050508152602001600282015f9054906101000a900473ffffffffffffffffffffffffffffffffffffffff1673ffffffffffffffffffffffffffffffffffffffff1673ffffffffffffffffffffffffffffffffffffffff168152602001600382018054611cc890612be2565b80601f0160208091040260200160405190810160405280929190818152602001828054611cf490612be2565b8015611d3f5780601f10611d1657610100808354040283529160200191611d3f565b820191905f5260205f20905b815481529060010190602001808311611d2257829003601f168201915b50505050508152602001600482015f9054906101000a900473ffffffffffffffffffffffffffffffffffffffff1673ffffffffffffffffffffffffffffffffffffffff1673ffffffffffffffffffffffffffffffffffffffff168152602001600582018054611dad90612be2565b80601f0160208091040260200160405190810160405280929190818152602001828054611dd990612be2565b8015611e245780601f10611dfb57610100808354040283529160200191611e24565b820191905f5260205f20905b815481529060010190602001808311611e0757829003601f168201915b5050505050815260200160068201548152602001600782015f9054906101000a900460ff161515151581526020016007820160019054906101000a900460ff1615151515815250509250826080015191508260a0015190505f60085f8681526020019081526020015f206001015460085f8781526020019081526020015f205f0154611eb09190612b82565b9050611ecf60085f8781526020019081526020015f205f01548261125e565b611f0e576040517f08c379a0000000000000000000000000000000000000000000000000000000008152600401611f059061313a565b60405180910390fd5b836101000151611f53576040517f08c379a0000000000000000000000000000000000000000000000000000000008152600401611f4a906131a2565b60405180910390fd5b8360e0015115611f98576040517f08c379a0000000000000000000000000000000000000000000000000000000008152600401611f8f90613230565b60405180910390fd5b5f808473ffffffffffffffffffffffffffffffffffffffff16348560405160240160405160208183030381529060405290604051611fd69190613288565b60405180910390207bffffffffffffffffffffffffffffffffffffffffffffffffffffffff19166020820180517bffffffffffffffffffffffffffffffffffffffffffffffffffffffff838183161783525050505060405161203891906132e2565b5f6040518083038185875af1925050503d805f8114612072576040519150601f19603f3d011682016040523d82523d5f602084013e612077565b606091505b5091509150816120bc576040517f08c379a00000000000000000000000000000000000000000000000000000000081526004016120b390613342565b60405180910390fd5b808060200190518101906120d09190612cf6565b600381905550818660e00190151590811515815250507fedfe6669a74a00073a8789cbc880cfb813b394b54c7d0702966ab1099daff7b98660200151888460405161211d93929190613360565b60405180910390a150505050505050565b60025f9054906101000a900473ffffffffffffffffffffffffffffffffffffffff1681565b60405180604001604052808281526020016001151581525060065f3373ffffffffffffffffffffffffffffffffffffffff1673ffffffffffffffffffffffffffffffffffffffff1681526020019081526020015f205f820151815f0190816121bb9190613001565b506020820151816001015f6101000a81548160ff0219169083151502179055509050503373ffffffffffffffffffffffffffffffffffffffff167fcb02c8e65f4ad1b53d5ad3ed25b4ae62e352a90a7c3f6ba3a49235e22ddf5fd060405160405180910390a250565b6006602052805f5260405f205f91509050805f01805461224390612be2565b80601f016020809104026020016040519081016040528092919081815260200182805461226f90612be2565b80156122ba5780601f10612291576101008083540402835291602001916122ba565b820191905f5260205f20905b81548152906001019060200180831161229d57829003601f168201915b505050505090806001015f9054906101000a900460ff16905082565b5f8083850290505f8019858709828110838203039150505f810361230e578382816123045761230361339c565b5b04925050506123ce565b808411612347576040517f227bc15300000000000000000000000000000000000000000000000000000000815260040160405180910390fd5b5f8486880990508281118203915080830392505f855f038616905080860495508084049350600181825f0304019050808302841793505f600287600302189050808702600203810290508087026002038102905080870260020381029050808702600203810290508087026002038102905080870260020381029050808502955050505050505b9392505050565b6040518061012001604052805f8152602001606081526020015f73ffffffffffffffffffffffffffffffffffffffff168152602001606081526020015f73ffffffffffffffffffffffffffffffffffffffff168152602001606081526020015f81526020015f151581526020015f151581525090565b5f604051905090565b5f80fd5b5f80fd5b5f73ffffffffffffffffffffffffffffffffffffffff82169050919050565b5f6124858261245c565b9050919050565b6124958161247b565b811461249f575f80fd5b50565b5f813590506124b08161248c565b92915050565b5f602082840312156124cb576124ca612454565b5b5f6124d8848285016124a2565b91505092915050565b5f819050919050565b6124f3816124e1565b81146124fd575f80fd5b50565b5f8135905061250e816124ea565b92915050565b5f8115159050919050565b61252881612514565b8114612532575f80fd5b50565b5f813590506125438161251f565b92915050565b5f806040838503121561255f5761255e612454565b5b5f61256c85828601612500565b925050602061257d85828601612535565b9150509250929050565b612590816124e1565b82525050565b5f6020820190506125a95f830184612587565b92915050565b5f602082840312156125c4576125c3612454565b5b5f6125d184828501612500565b91505092915050565b5f80604083850312156125f0576125ef612454565b5b5f6125fd85828601612500565b925050602061260e85828601612500565b9150509250929050565b61262181612514565b82525050565b5f60208201905061263a5f830184612618565b92915050565b5f806040838503121561265657612655612454565b5b5f612663858286016124a2565b925050602061267485828601612500565b9150509250929050565b5f6060820190506126915f830186612587565b61269e6020830185612618565b6126ab6040830184612618565b949350505050565b5f81519050919050565b5f82825260208201905092915050565b5f5b838110156126ea5780820151818401526020810190506126cf565b5f8484015250505050565b5f601f19601f8301169050919050565b5f61270f826126b3565b61271981856126bd565b93506127298185602086016126cd565b612732816126f5565b840191505092915050565b6127468161247b565b82525050565b5f610120820190506127605f83018c612587565b8181036020830152612772818b612705565b9050612781604083018a61273d565b81810360608301526127938189612705565b90506127a2608083018861273d565b81810360a08301526127b48187612705565b90506127c360c0830186612587565b6127d060e0830185612618565b6127de610100830184612618565b9a9950505050505050505050565b5f6040820190506127ff5f830185612587565b61280c6020830184612587565b9392505050565b5f6060820190506128265f830186612618565b6128336020830185612587565b6128406040830184612587565b949350505050565b5f80fd5b5f80fd5b7f4e487b71000000000000000000000000000000000000000000000000000000005f52604160045260245ffd5b612886826126f5565b810181811067ffffffffffffffff821117156128a5576128a4612850565b5b80604052505050565b5f6128b761244b565b90506128c3828261287d565b919050565b5f67ffffffffffffffff8211156128e2576128e1612850565b5b6128eb826126f5565b9050602081019050919050565b828183375f83830152505050565b5f612918612913846128c8565b6128ae565b9050828152602081018484840111156129345761293361284c565b5b61293f8482856128f8565b509392505050565b5f82601f83011261295b5761295a612848565b5b813561296b848260208601612906565b91505092915050565b5f805f806080858703121561298c5761298b612454565b5b5f85013567ffffffffffffffff8111156129a9576129a8612458565b5b6129b587828801612947565b945050602085013567ffffffffffffffff8111156129d6576129d5612458565b5b6129e287828801612947565b93505060406129f3878288016124a2565b925050606085013567ffffffffffffffff811115612a1457612a13612458565b5b612a2087828801612947565b91505092959194509250565b5f602082019050612a3f5f83018461273d565b92915050565b5f60208284031215612a5a57612a59612454565b5b5f82013567ffffffffffffffff811115612a7757612a76612458565b5b612a8384828501612947565b91505092915050565b5f6040820190508181035f830152612aa48185612705565b9050612ab36020830184612618565b9392505050565b7f4143434553532044454e494544210000000000000000000000000000000000005f82015250565b5f612aee600e836126bd565b9150612af982612aba565b602082019050919050565b5f6020820190508181035f830152612b1b81612ae2565b9050919050565b7f4e487b71000000000000000000000000000000000000000000000000000000005f52601160045260245ffd5b5f612b59826124e1565b9150612b64836124e1565b9250828203905081811115612b7c57612b7b612b22565b5b92915050565b5f612b8c826124e1565b9150612b97836124e1565b9250828201905080821115612baf57612bae612b22565b5b92915050565b7f4e487b71000000000000000000000000000000000000000000000000000000005f52602260045260245ffd5b5f6002820490506001821680612bf957607f821691505b602082108103612c0c57612c0b612bb5565b5b50919050565b7f4e4f542041204d454d42455200000000000000000000000000000000000000005f82015250565b5f612c46600c836126bd565b9150612c5182612c12565b602082019050919050565b5f6020820190508181035f830152612c7381612c3a565b9050919050565b7f564f54494e4720504552494f442048415320454c4150534544000000000000005f82015250565b5f612cae6019836126bd565b9150612cb982612c7a565b602082019050919050565b5f6020820190508181035f830152612cdb81612ca2565b9050919050565b5f81519050612cf0816124ea565b92915050565b5f60208284031215612d0b57612d0a612454565b5b5f612d1884828501612ce2565b91505092915050565b7f594f55204d55535420504f5353455320544f4b454e7320544f20424520414e205f8201527f454c494749424c4520564f544552000000000000000000000000000000000000602082015250565b5f612d7b602e836126bd565b9150612d8682612d21565b604082019050919050565b5f6020820190508181035f830152612da881612d6f565b9050919050565b7f4d454d424552532043414e204f4e4c592043415354204120564f5445205045525f8201527f20544f5049430000000000000000000000000000000000000000000000000000602082015250565b5f612e096026836126bd565b9150612e1482612daf565b604082019050919050565b5f6020820190508181035f830152612e3681612dfd565b9050919050565b5f604082019050612e505f830185612587565b612e5d6020830184612618565b9392505050565b5f819050815f5260205f209050919050565b5f6020601f8301049050919050565b5f82821b905092915050565b5f60088302612ec07fffffffffffffffffffffffffffffffffffffffffffffffffffffffffffffffff82612e85565b612eca8683612e85565b95508019841693508086168417925050509392505050565b5f819050919050565b5f612f05612f00612efb846124e1565b612ee2565b6124e1565b9050919050565b5f819050919050565b612f1e83612eeb565b612f32612f2a82612f0c565b848454612e91565b825550505050565b5f90565b612f46612f3a565b612f51818484612f15565b505050565b5b81811015612f7457612f695f82612f3e565b600181019050612f57565b5050565b601f821115612fb957612f8a81612e64565b612f9384612e76565b81016020851015612fa2578190505b612fb6612fae85612e76565b830182612f56565b50505b505050565b5f82821c905092915050565b5f612fd95f1984600802612fbe565b1980831691505092915050565b5f612ff18383612fca565b9150826002028217905092915050565b61300a826126b3565b67ffffffffffffffff81111561302357613022612850565b5b61302d8254612be2565b613038828285612f78565b5f60209050601f831160018114613069575f8415613057578287015190505b6130618582612fe6565b8655506130c8565b601f19841661307786612e64565b5f5b8281101561309e57848901518255600182019150602085019450602081019050613079565b868310156130bb57848901516130b7601f891682612fca565b8355505b6001600288020188555050505b505050505050565b5f6020820190508181035f8301526130e88184612705565b905092915050565b7f5448524553484f4c44204e4f54204558434545444544000000000000000000005f82015250565b5f6131246016836126bd565b915061312f826130f0565b602082019050919050565b5f6020820190508181035f83015261315181613118565b9050919050565b7f5448495320544f5049432049532043414e43454c4c45440000000000000000005f82015250565b5f61318c6017836126bd565b915061319782613158565b602082019050919050565b5f6020820190508181035f8301526131b981613180565b9050919050565b7f544f5049432043414e204f4e4c5920424520494d504c454d454e544544204f4e5f8201527f4345000000000000000000000000000000000000000000000000000000000000602082015250565b5f61321a6022836126bd565b9150613225826131c0565b604082019050919050565b5f6020820190508181035f8301526132478161320e565b9050919050565b5f81905092915050565b5f613262826126b3565b61326c818561324e565b935061327c8185602086016126cd565b80840191505092915050565b5f6132938284613258565b915081905092915050565b5f81519050919050565b5f81905092915050565b5f6132bc8261329e565b6132c681856132a8565b93506132d68185602086016126cd565b80840191505092915050565b5f6132ed82846132b2565b915081905092915050565b7f4641494c454420544f20494d504c454d454e54000000000000000000000000005f82015250565b5f61332c6013836126bd565b9150613337826132f8565b602082019050919050565b5f6020820190508181035f83015261335981613320565b9050919050565b5f6060820190508181035f8301526133788186612705565b90506133876020830185612587565b6133946040830184612618565b949350505050565b7f4e487b71000000000000000000000000000000000000000000000000000000005f52601260045260245ffdfea264697066735822122049011779dc23999eddff782edad8ae90e1e6d4dd211c837c6e29f12b5d5f7a5864736f6c63430008160033",
					"opcodes": "PUSH1 0x80 PUSH1 0x40 MSTORE PUSH3 0x69780 PUSH0 SSTORE PUSH3 0x15180 PUSH1 0x1 SSTORE PUSH1 0x1 PUSH1 0x9 SSTORE PUSH1 0x1 PUSH1 0xA SSTORE CALLVALUE DUP1 ISZERO PUSH3 0x27 JUMPI PUSH0 DUP1 REVERT JUMPDEST POP PUSH1 0x40 MLOAD PUSH3 0x358D CODESIZE SUB DUP1 PUSH3 0x358D DUP4 CODECOPY DUP2 DUP2 ADD PUSH1 0x40 MSTORE DUP2 ADD SWAP1 PUSH3 0x4D SWAP2 SWAP1 PUSH3 0x150 JUMP JUMPDEST DUP1 PUSH1 0x2 PUSH0 PUSH2 0x100 EXP DUP2 SLOAD DUP2 PUSH20 0xFFFFFFFFFFFFFFFFFFFFFFFFFFFFFFFFFFFFFFFF MUL NOT AND SWAP1 DUP4 PUSH20 0xFFFFFFFFFFFFFFFFFFFFFFFFFFFFFFFFFFFFFFFF AND MUL OR SWAP1 SSTORE POP PUSH1 0x1 PUSH1 0x4 PUSH0 CALLER PUSH20 0xFFFFFFFFFFFFFFFFFFFFFFFFFFFFFFFFFFFFFFFF AND PUSH20 0xFFFFFFFFFFFFFFFFFFFFFFFFFFFFFFFFFFFFFFFF AND DUP2 MSTORE PUSH1 0x20 ADD SWAP1 DUP2 MSTORE PUSH1 0x20 ADD PUSH0 KECCAK256 PUSH0 ADD PUSH0 PUSH2 0x100 EXP DUP2 SLOAD DUP2 PUSH1 0xFF MUL NOT AND SWAP1 DUP4 ISZERO ISZERO MUL OR SWAP1 SSTORE POP POP PUSH3 0x180 JUMP JUMPDEST PUSH0 DUP1 REVERT JUMPDEST PUSH0 PUSH20 0xFFFFFFFFFFFFFFFFFFFFFFFFFFFFFFFFFFFFFFFF DUP3 AND SWAP1 POP SWAP2 SWAP1 POP JUMP JUMPDEST PUSH0 PUSH3 0x11A DUP3 PUSH3 0xEF JUMP JUMPDEST SWAP1 POP SWAP2 SWAP1 POP JUMP JUMPDEST PUSH3 0x12C DUP2 PUSH3 0x10E JUMP JUMPDEST DUP2 EQ PUSH3 0x137 JUMPI PUSH0 DUP1 REVERT JUMPDEST POP JUMP JUMPDEST PUSH0 DUP2 MLOAD SWAP1 POP PUSH3 0x14A DUP2 PUSH3 0x121 JUMP JUMPDEST SWAP3 SWAP2 POP POP JUMP JUMPDEST PUSH0 PUSH1 0x20 DUP3 DUP5 SUB SLT ISZERO PUSH3 0x168 JUMPI PUSH3 0x167 PUSH3 0xEB JUMP JUMPDEST JUMPDEST PUSH0 PUSH3 0x177 DUP5 DUP3 DUP6 ADD PUSH3 0x13A JUMP JUMPDEST SWAP2 POP POP SWAP3 SWAP2 POP POP JUMP JUMPDEST PUSH2 0x33FF DUP1 PUSH3 0x18E PUSH0 CODECOPY PUSH0 RETURN INVALID PUSH1 0x80 PUSH1 0x40 MSTORE PUSH1 0x4 CALLDATASIZE LT PUSH2 0x11E JUMPI PUSH0 CALLDATALOAD PUSH1 0xE0 SHR DUP1 PUSH4 0x61BC221A GT PUSH2 0x9F JUMPI DUP1 PUSH4 0x7D1592F3 GT PUSH2 0x63 JUMPI DUP1 PUSH4 0x7D1592F3 EQ PUSH2 0x3E3 JUMPI DUP1 PUSH4 0xA060ACFA EQ PUSH2 0x40B JUMPI DUP1 PUSH4 0xA0A67C58 EQ PUSH2 0x427 JUMPI DUP1 PUSH4 0xF2C298BE EQ PUSH2 0x451 JUMPI DUP1 PUSH4 0xFD0F0166 EQ PUSH2 0x479 JUMPI PUSH2 0x11E JUMP JUMPDEST DUP1 PUSH4 0x61BC221A EQ PUSH2 0x2FF JUMPI DUP1 PUSH4 0x63A846F8 EQ PUSH2 0x329 JUMPI DUP1 PUSH4 0x67358C96 EQ PUSH2 0x367 JUMPI DUP1 PUSH4 0x6CB76408 EQ PUSH2 0x391 JUMPI DUP1 PUSH4 0x70480275 EQ PUSH2 0x3BB JUMPI PUSH2 0x11E JUMP JUMPDEST DUP1 PUSH4 0x37852D99 GT PUSH2 0xE6 JUMPI DUP1 PUSH4 0x37852D99 EQ PUSH2 0x1EE JUMPI DUP1 PUSH4 0x47411226 EQ PUSH2 0x204 JUMPI DUP1 PUSH4 0x54B598EC EQ PUSH2 0x240 JUMPI DUP1 PUSH4 0x5BB6D284 EQ PUSH2 0x27E JUMPI DUP1 PUSH4 0x5DF81330 EQ PUSH2 0x2C2 JUMPI PUSH2 0x11E JUMP JUMPDEST DUP1 PUSH4 0x1785F53C EQ PUSH2 0x122 JUMPI DUP1 PUSH4 0x1C8DD214 EQ PUSH2 0x14A JUMPI DUP1 PUSH4 0x2AE2EE1F EQ PUSH2 0x172 JUMPI DUP1 PUSH4 0x3153CEBC EQ PUSH2 0x19C JUMPI DUP1 PUSH4 0x33F794B5 EQ PUSH2 0x1C6 JUMPI JUMPDEST PUSH0 DUP1 REVERT JUMPDEST CALLVALUE DUP1 ISZERO PUSH2 0x12D JUMPI PUSH0 DUP1 REVERT JUMPDEST POP PUSH2 0x148 PUSH1 0x4 DUP1 CALLDATASIZE SUB DUP2 ADD SWAP1 PUSH2 0x143 SWAP2 SWAP1 PUSH2 0x24B6 JUMP JUMPDEST PUSH2 0x4B6 JUMP JUMPDEST STOP JUMPDEST CALLVALUE DUP1 ISZERO PUSH2 0x155 JUMPI PUSH0 DUP1 REVERT JUMPDEST POP PUSH2 0x170 PUSH1 0x4 DUP1 CALLDATASIZE SUB DUP2 ADD SWAP1 PUSH2 0x16B SWAP2 SWAP1 PUSH2 0x2549 JUMP JUMPDEST PUSH2 0x75D JUMP JUMPDEST STOP JUMPDEST CALLVALUE DUP1 ISZERO PUSH2 0x17D JUMPI PUSH0 DUP1 REVERT JUMPDEST POP PUSH2 0x186 PUSH2 0xE63 JUMP JUMPDEST PUSH1 0x40 MLOAD PUSH2 0x193 SWAP2 SWAP1 PUSH2 0x2596 JUMP JUMPDEST PUSH1 0x40 MLOAD DUP1 SWAP2 SUB SWAP1 RETURN JUMPDEST CALLVALUE DUP1 ISZERO PUSH2 0x1A7 JUMPI PUSH0 DUP1 REVERT JUMPDEST POP PUSH2 0x1B0 PUSH2 0xE69 JUMP JUMPDEST PUSH1 0x40 MLOAD PUSH2 0x1BD SWAP2 SWAP1 PUSH2 0x2596 JUMP JUMPDEST PUSH1 0x40 MLOAD DUP1 SWAP2 SUB SWAP1 RETURN JUMPDEST CALLVALUE DUP1 ISZERO PUSH2 0x1D1 JUMPI PUSH0 DUP1 REVERT JUMPDEST POP PUSH2 0x1EC PUSH1 0x4 DUP1 CALLDATASIZE SUB DUP2 ADD SWAP1 PUSH2 0x1E7 SWAP2 SWAP1 PUSH2 0x25AF JUMP JUMPDEST PUSH2 0xE6E JUMP JUMPDEST STOP JUMPDEST CALLVALUE DUP1 ISZERO PUSH2 0x1F9 JUMPI PUSH0 DUP1 REVERT JUMPDEST POP PUSH2 0x202 PUSH2 0x11D1 JUMP JUMPDEST STOP JUMPDEST CALLVALUE DUP1 ISZERO PUSH2 0x20F JUMPI PUSH0 DUP1 REVERT JUMPDEST POP PUSH2 0x22A PUSH1 0x4 DUP1 CALLDATASIZE SUB DUP2 ADD SWAP1 PUSH2 0x225 SWAP2 SWAP1 PUSH2 0x25DA JUMP JUMPDEST PUSH2 0x125E JUMP JUMPDEST PUSH1 0x40 MLOAD PUSH2 0x237 SWAP2 SWAP1 PUSH2 0x2627 JUMP JUMPDEST PUSH1 0x40 MLOAD DUP1 SWAP2 SUB SWAP1 RETURN JUMPDEST CALLVALUE DUP1 ISZERO PUSH2 0x24B JUMPI PUSH0 DUP1 REVERT JUMPDEST POP PUSH2 0x266 PUSH1 0x4 DUP1 CALLDATASIZE SUB DUP2 ADD SWAP1 PUSH2 0x261 SWAP2 SWAP1 PUSH2 0x2640 JUMP JUMPDEST PUSH2 0x1293 JUMP JUMPDEST PUSH1 0x40 MLOAD PUSH2 0x275 SWAP4 SWAP3 SWAP2 SWAP1 PUSH2 0x267E JUMP JUMPDEST PUSH1 0x40 MLOAD DUP1 SWAP2 SUB SWAP1 RETURN JUMPDEST CALLVALUE DUP1 ISZERO PUSH2 0x289 JUMPI PUSH0 DUP1 REVERT JUMPDEST POP PUSH2 0x2A4 PUSH1 0x4 DUP1 CALLDATASIZE SUB DUP2 ADD SWAP1 PUSH2 0x29F SWAP2 SWAP1 PUSH2 0x25AF JUMP JUMPDEST PUSH2 0x12DD JUMP JUMPDEST PUSH1 0x40 MLOAD PUSH2 0x2B9 SWAP10 SWAP9 SWAP8 SWAP7 SWAP6 SWAP5 SWAP4 SWAP3 SWAP2 SWAP1 PUSH2 0x274C JUMP JUMPDEST PUSH1 0x40 MLOAD DUP1 SWAP2 SUB SWAP1 RETURN JUMPDEST CALLVALUE DUP1 ISZERO PUSH2 0x2CD JUMPI PUSH0 DUP1 REVERT JUMPDEST POP PUSH2 0x2E8 PUSH1 0x4 DUP1 CALLDATASIZE SUB DUP2 ADD SWAP1 PUSH2 0x2E3 SWAP2 SWAP1 PUSH2 0x25AF JUMP JUMPDEST PUSH2 0x1510 JUMP JUMPDEST PUSH1 0x40 MLOAD PUSH2 0x2F6 SWAP3 SWAP2 SWAP1 PUSH2 0x27EC JUMP JUMPDEST PUSH1 0x40 MLOAD DUP1 SWAP2 SUB SWAP1 RETURN JUMPDEST CALLVALUE DUP1 ISZERO PUSH2 0x30A JUMPI PUSH0 DUP1 REVERT JUMPDEST POP PUSH2 0x313 PUSH2 0x1530 JUMP JUMPDEST PUSH1 0x40 MLOAD PUSH2 0x320 SWAP2 SWAP1 PUSH2 0x2596 JUMP JUMPDEST PUSH1 0x40 MLOAD DUP1 SWAP2 SUB SWAP1 RETURN JUMPDEST CALLVALUE DUP1 ISZERO PUSH2 0x334 JUMPI PUSH0 DUP1 REVERT JUMPDEST POP PUSH2 0x34F PUSH1 0x4 DUP1 CALLDATASIZE SUB DUP2 ADD SWAP1 PUSH2 0x34A SWAP2 SWAP1 PUSH2 0x24B6 JUMP JUMPDEST PUSH2 0x1536 JUMP JUMPDEST PUSH1 0x40 MLOAD PUSH2 0x35E SWAP4 SWAP3 SWAP2 SWAP1 PUSH2 0x2813 JUMP JUMPDEST PUSH1 0x40 MLOAD DUP1 SWAP2 SUB SWAP1 RETURN JUMPDEST CALLVALUE DUP1 ISZERO PUSH2 0x372 JUMPI PUSH0 DUP1 REVERT JUMPDEST POP PUSH2 0x37B PUSH2 0x1568 JUMP JUMPDEST PUSH1 0x40 MLOAD PUSH2 0x388 SWAP2 SWAP1 PUSH2 0x2596 JUMP JUMPDEST PUSH1 0x40 MLOAD DUP1 SWAP2 SUB SWAP1 RETURN JUMPDEST CALLVALUE DUP1 ISZERO PUSH2 0x39C JUMPI PUSH0 DUP1 REVERT JUMPDEST POP PUSH2 0x3A5 PUSH2 0x156E JUMP JUMPDEST PUSH1 0x40 MLOAD PUSH2 0x3B2 SWAP2 SWAP1 PUSH2 0x2596 JUMP JUMPDEST PUSH1 0x40 MLOAD DUP1 SWAP2 SUB SWAP1 RETURN JUMPDEST CALLVALUE DUP1 ISZERO PUSH2 0x3C6 JUMPI PUSH0 DUP1 REVERT JUMPDEST POP PUSH2 0x3E1 PUSH1 0x4 DUP1 CALLDATASIZE SUB DUP2 ADD SWAP1 PUSH2 0x3DC SWAP2 SWAP1 PUSH2 0x24B6 JUMP JUMPDEST PUSH2 0x1574 JUMP JUMPDEST STOP JUMPDEST CALLVALUE DUP1 ISZERO PUSH2 0x3EE JUMPI PUSH0 DUP1 REVERT JUMPDEST POP PUSH2 0x409 PUSH1 0x4 DUP1 CALLDATASIZE SUB DUP2 ADD SWAP1 PUSH2 0x404 SWAP2 SWAP1 PUSH2 0x2974 JUMP JUMPDEST PUSH2 0x1870 JUMP JUMPDEST STOP JUMPDEST PUSH2 0x425 PUSH1 0x4 DUP1 CALLDATASIZE SUB DUP2 ADD SWAP1 PUSH2 0x420 SWAP2 SWAP1 PUSH2 0x25AF JUMP JUMPDEST PUSH2 0x1B17 JUMP JUMPDEST STOP JUMPDEST CALLVALUE DUP1 ISZERO PUSH2 0x432 JUMPI PUSH0 DUP1 REVERT JUMPDEST POP PUSH2 0x43B PUSH2 0x212E JUMP JUMPDEST PUSH1 0x40 MLOAD PUSH2 0x448 SWAP2 SWAP1 PUSH2 0x2A2C JUMP JUMPDEST PUSH1 0x40 MLOAD DUP1 SWAP2 SUB SWAP1 RETURN JUMPDEST CALLVALUE DUP1 ISZERO PUSH2 0x45C JUMPI PUSH0 DUP1 REVERT JUMPDEST POP PUSH2 0x477 PUSH1 0x4 DUP1 CALLDATASIZE SUB DUP2 ADD SWAP1 PUSH2 0x472 SWAP2 SWAP1 PUSH2 0x2A45 JUMP JUMPDEST PUSH2 0x2153 JUMP JUMPDEST STOP JUMPDEST CALLVALUE DUP1 ISZERO PUSH2 0x484 JUMPI PUSH0 DUP1 REVERT JUMPDEST POP PUSH2 0x49F PUSH1 0x4 DUP1 CALLDATASIZE SUB DUP2 ADD SWAP1 PUSH2 0x49A SWAP2 SWAP1 PUSH2 0x24B6 JUMP JUMPDEST PUSH2 0x2224 JUMP JUMPDEST PUSH1 0x40 MLOAD PUSH2 0x4AD SWAP3 SWAP2 SWAP1 PUSH2 0x2A8C JUMP JUMPDEST PUSH1 0x40 MLOAD DUP1 SWAP2 SUB SWAP1 RETURN JUMPDEST PUSH1 0x4 PUSH0 CALLER PUSH20 0xFFFFFFFFFFFFFFFFFFFFFFFFFFFFFFFFFFFFFFFF AND PUSH20 0xFFFFFFFFFFFFFFFFFFFFFFFFFFFFFFFFFFFFFFFF AND DUP2 MSTORE PUSH1 0x20 ADD SWAP1 DUP2 MSTORE PUSH1 0x20 ADD PUSH0 KECCAK256 PUSH0 ADD PUSH0 SWAP1 SLOAD SWAP1 PUSH2 0x100 EXP SWAP1 DIV PUSH1 0xFF AND PUSH2 0x541 JUMPI PUSH1 0x40 MLOAD PUSH32 0x8C379A000000000000000000000000000000000000000000000000000000000 DUP2 MSTORE PUSH1 0x4 ADD PUSH2 0x538 SWAP1 PUSH2 0x2B04 JUMP JUMPDEST PUSH1 0x40 MLOAD DUP1 SWAP2 SUB SWAP1 REVERT JUMPDEST PUSH1 0x1 PUSH1 0x5 DUP1 SLOAD SWAP1 POP PUSH2 0x553 SWAP2 SWAP1 PUSH2 0x2B4F JUMP JUMPDEST PUSH1 0x4 PUSH0 DUP4 PUSH20 0xFFFFFFFFFFFFFFFFFFFFFFFFFFFFFFFFFFFFFFFF AND PUSH20 0xFFFFFFFFFFFFFFFFFFFFFFFFFFFFFFFFFFFFFFFF AND DUP2 MSTORE PUSH1 0x20 ADD SWAP1 DUP2 MSTORE PUSH1 0x20 ADD PUSH0 KECCAK256 PUSH1 0x1 ADD SLOAD LT PUSH2 0x685 JUMPI PUSH0 PUSH1 0x4 PUSH0 DUP4 PUSH20 0xFFFFFFFFFFFFFFFFFFFFFFFFFFFFFFFFFFFFFFFF AND PUSH20 0xFFFFFFFFFFFFFFFFFFFFFFFFFFFFFFFFFFFFFFFF AND DUP2 MSTORE PUSH1 0x20 ADD SWAP1 DUP2 MSTORE PUSH1 0x20 ADD PUSH0 KECCAK256 PUSH0 ADD PUSH0 PUSH2 0x100 EXP DUP2 SLOAD DUP2 PUSH1 0xFF MUL NOT AND SWAP1 DUP4 ISZERO ISZERO MUL OR SWAP1 SSTORE POP PUSH1 0x1 PUSH1 0x4 PUSH0 DUP4 PUSH20 0xFFFFFFFFFFFFFFFFFFFFFFFFFFFFFFFFFFFFFFFF AND PUSH20 0xFFFFFFFFFFFFFFFFFFFFFFFFFFFFFFFFFFFFFFFF AND DUP2 MSTORE PUSH1 0x20 ADD SWAP1 DUP2 MSTORE PUSH1 0x20 ADD PUSH0 KECCAK256 PUSH1 0x1 ADD SLOAD PUSH2 0x63C SWAP2 SWAP1 PUSH2 0x2B82 JUMP JUMPDEST PUSH1 0x4 PUSH0 DUP4 PUSH20 0xFFFFFFFFFFFFFFFFFFFFFFFFFFFFFFFFFFFFFFFF AND PUSH20 0xFFFFFFFFFFFFFFFFFFFFFFFFFFFFFFFFFFFFFFFF AND DUP2 MSTORE PUSH1 0x20 ADD SWAP1 DUP2 MSTORE PUSH1 0x20 ADD PUSH0 KECCAK256 PUSH1 0x1 ADD DUP2 SWAP1 SSTORE POP PUSH2 0x717 JUMP JUMPDEST PUSH1 0x1 PUSH1 0x4 PUSH0 DUP4 PUSH20 0xFFFFFFFFFFFFFFFFFFFFFFFFFFFFFFFFFFFFFFFF AND PUSH20 0xFFFFFFFFFFFFFFFFFFFFFFFFFFFFFFFFFFFFFFFF AND DUP2 MSTORE PUSH1 0x20 ADD SWAP1 DUP2 MSTORE PUSH1 0x20 ADD PUSH0 KECCAK256 PUSH1 0x1 ADD SLOAD PUSH2 0x6D2 SWAP2 SWAP1 PUSH2 0x2B82 JUMP JUMPDEST PUSH1 0x4 PUSH0 DUP4 PUSH20 0xFFFFFFFFFFFFFFFFFFFFFFFFFFFFFFFFFFFFFFFF AND PUSH20 0xFFFFFFFFFFFFFFFFFFFFFFFFFFFFFFFFFFFFFFFF AND DUP2 MSTORE PUSH1 0x20 ADD SWAP1 DUP2 MSTORE PUSH1 0x20 ADD PUSH0 KECCAK256 PUSH1 0x1 ADD DUP2 SWAP1 SSTORE POP JUMPDEST DUP1 PUSH20 0xFFFFFFFFFFFFFFFFFFFFFFFFFFFFFFFFFFFFFFFF AND PUSH32 0x923ABEF5EA1E37AC38F56A77B8133D215C1D3BCD2E3DD88A6120D34F933F3DDE PUSH1 0x40 MLOAD PUSH1 0x40 MLOAD DUP1 SWAP2 SUB SWAP1 LOG2 POP JUMP JUMPDEST PUSH0 PUSH1 0xB PUSH0 DUP5 DUP2 MSTORE PUSH1 0x20 ADD SWAP1 DUP2 MSTORE PUSH1 0x20 ADD PUSH0 KECCAK256 PUSH1 0x40 MLOAD DUP1 PUSH2 0x120 ADD PUSH1 0x40 MSTORE SWAP1 DUP2 PUSH0 DUP3 ADD SLOAD DUP2 MSTORE PUSH1 0x20 ADD PUSH1 0x1 DUP3 ADD DUP1 SLOAD PUSH2 0x794 SWAP1 PUSH2 0x2BE2 JUMP JUMPDEST DUP1 PUSH1 0x1F ADD PUSH1 0x20 DUP1 SWAP2 DIV MUL PUSH1 0x20 ADD PUSH1 0x40 MLOAD SWAP1 DUP2 ADD PUSH1 0x40 MSTORE DUP1 SWAP3 SWAP2 SWAP1 DUP2 DUP2 MSTORE PUSH1 0x20 ADD DUP3 DUP1 SLOAD PUSH2 0x7C0 SWAP1 PUSH2 0x2BE2 JUMP JUMPDEST DUP1 ISZERO PUSH2 0x80B JUMPI DUP1 PUSH1 0x1F LT PUSH2 0x7E2 JUMPI PUSH2 0x100 DUP1 DUP4 SLOAD DIV MUL DUP4 MSTORE SWAP2 PUSH1 0x20 ADD SWAP2 PUSH2 0x80B JUMP JUMPDEST DUP3 ADD SWAP2 SWAP1 PUSH0 MSTORE PUSH1 0x20 PUSH0 KECCAK256 SWAP1 JUMPDEST DUP2 SLOAD DUP2 MSTORE SWAP1 PUSH1 0x1 ADD SWAP1 PUSH1 0x20 ADD DUP1 DUP4 GT PUSH2 0x7EE JUMPI DUP3 SWAP1 SUB PUSH1 0x1F AND DUP3 ADD SWAP2 JUMPDEST POP POP POP POP POP DUP2 MSTORE PUSH1 0x20 ADD PUSH1 0x2 DUP3 ADD PUSH0 SWAP1 SLOAD SWAP1 PUSH2 0x100 EXP SWAP1 DIV PUSH20 0xFFFFFFFFFFFFFFFFFFFFFFFFFFFFFFFFFFFFFFFF AND PUSH20 0xFFFFFFFFFFFFFFFFFFFFFFFFFFFFFFFFFFFFFFFF AND PUSH20 0xFFFFFFFFFFFFFFFFFFFFFFFFFFFFFFFFFFFFFFFF AND DUP2 MSTORE PUSH1 0x20 ADD PUSH1 0x3 DUP3 ADD DUP1 SLOAD PUSH2 0x879 SWAP1 PUSH2 0x2BE2 JUMP JUMPDEST DUP1 PUSH1 0x1F ADD PUSH1 0x20 DUP1 SWAP2 DIV MUL PUSH1 0x20 ADD PUSH1 0x40 MLOAD SWAP1 DUP2 ADD PUSH1 0x40 MSTORE DUP1 SWAP3 SWAP2 SWAP1 DUP2 DUP2 MSTORE PUSH1 0x20 ADD DUP3 DUP1 SLOAD PUSH2 0x8A5 SWAP1 PUSH2 0x2BE2 JUMP JUMPDEST DUP1 ISZERO PUSH2 0x8F0 JUMPI DUP1 PUSH1 0x1F LT PUSH2 0x8C7 JUMPI PUSH2 0x100 DUP1 DUP4 SLOAD DIV MUL DUP4 MSTORE SWAP2 PUSH1 0x20 ADD SWAP2 PUSH2 0x8F0 JUMP JUMPDEST DUP3 ADD SWAP2 SWAP1 PUSH0 MSTORE PUSH1 0x20 PUSH0 KECCAK256 SWAP1 JUMPDEST DUP2 SLOAD DUP2 MSTORE SWAP1 PUSH1 0x1 ADD SWAP1 PUSH1 0x20 ADD DUP1 DUP4 GT PUSH2 0x8D3 JUMPI DUP3 SWAP1 SUB PUSH1 0x1F AND DUP3 ADD SWAP2 JUMPDEST POP POP POP POP POP DUP2 MSTORE PUSH1 0x20 ADD PUSH1 0x4 DUP3 ADD PUSH0 SWAP1 SLOAD SWAP1 PUSH2 0x100 EXP SWAP1 DIV PUSH20 0xFFFFFFFFFFFFFFFFFFFFFFFFFFFFFFFFFFFFFFFF AND PUSH20 0xFFFFFFFFFFFFFFFFFFFFFFFFFFFFFFFFFFFFFFFF AND PUSH20 0xFFFFFFFFFFFFFFFFFFFFFFFFFFFFFFFFFFFFFFFF AND DUP2 MSTORE PUSH1 0x20 ADD PUSH1 0x5 DUP3 ADD DUP1 SLOAD PUSH2 0x95E SWAP1 PUSH2 0x2BE2 JUMP JUMPDEST DUP1 PUSH1 0x1F ADD PUSH1 0x20 DUP1 SWAP2 DIV MUL PUSH1 0x20 ADD PUSH1 0x40 MLOAD SWAP1 DUP2 ADD PUSH1 0x40 MSTORE DUP1 SWAP3 SWAP2 SWAP1 DUP2 DUP2 MSTORE PUSH1 0x20 ADD DUP3 DUP1 SLOAD PUSH2 0x98A SWAP1 PUSH2 0x2BE2 JUMP JUMPDEST DUP1 ISZERO PUSH2 0x9D5 JUMPI DUP1 PUSH1 0x1F LT PUSH2 0x9AC JUMPI PUSH2 0x100 DUP1 DUP4 SLOAD DIV MUL DUP4 MSTORE SWAP2 PUSH1 0x20 ADD SWAP2 PUSH2 0x9D5 JUMP JUMPDEST DUP3 ADD SWAP2 SWAP1 PUSH0 MSTORE PUSH1 0x20 PUSH0 KECCAK256 SWAP1 JUMPDEST DUP2 SLOAD DUP2 MSTORE SWAP1 PUSH1 0x1 ADD SWAP1 PUSH1 0x20 ADD DUP1 DUP4 GT PUSH2 0x9B8 JUMPI DUP3 SWAP1 SUB PUSH1 0x1F AND DUP3 ADD SWAP2 JUMPDEST POP POP POP POP POP DUP2 MSTORE PUSH1 0x20 ADD PUSH1 0x6 DUP3 ADD SLOAD DUP2 MSTORE PUSH1 0x20 ADD PUSH1 0x7 DUP3 ADD PUSH0 SWAP1 SLOAD SWAP1 PUSH2 0x100 EXP SWAP1 DIV PUSH1 0xFF AND ISZERO ISZERO ISZERO ISZERO DUP2 MSTORE PUSH1 0x20 ADD PUSH1 0x7 DUP3 ADD PUSH1 0x1 SWAP1 SLOAD SWAP1 PUSH2 0x100 EXP SWAP1 DIV PUSH1 0xFF AND ISZERO ISZERO ISZERO ISZERO DUP2 MSTORE POP POP SWAP1 POP PUSH0 PUSH1 0x2 PUSH0 SWAP1 SLOAD SWAP1 PUSH2 0x100 EXP SWAP1 DIV PUSH20 0xFFFFFFFFFFFFFFFFFFFFFFFFFFFFFFFFFFFFFFFF AND SWAP1 POP PUSH1 0x6 PUSH0 CALLER PUSH20 0xFFFFFFFFFFFFFFFFFFFFFFFFFFFFFFFFFFFFFFFF AND PUSH20 0xFFFFFFFFFFFFFFFFFFFFFFFFFFFFFFFFFFFFFFFF AND DUP2 MSTORE PUSH1 0x20 ADD SWAP1 DUP2 MSTORE PUSH1 0x20 ADD PUSH0 KECCAK256 PUSH1 0x1 ADD PUSH0 SWAP1 SLOAD SWAP1 PUSH2 0x100 EXP SWAP1 DIV PUSH1 0xFF AND PUSH2 0xAD0 JUMPI PUSH1 0x40 MLOAD PUSH32 0x8C379A000000000000000000000000000000000000000000000000000000000 DUP2 MSTORE PUSH1 0x4 ADD PUSH2 0xAC7 SWAP1 PUSH2 0x2C5C JUMP JUMPDEST PUSH1 0x40 MLOAD DUP1 SWAP2 SUB SWAP1 REVERT JUMPDEST PUSH0 DUP3 PUSH1 0xC0 ADD MLOAD PUSH0 SLOAD PUSH2 0xAE2 SWAP2 SWAP1 PUSH2 0x2B82 JUMP JUMPDEST SWAP1 POP TIMESTAMP DUP2 GT PUSH2 0xB26 JUMPI PUSH1 0x40 MLOAD PUSH32 0x8C379A000000000000000000000000000000000000000000000000000000000 DUP2 MSTORE PUSH1 0x4 ADD PUSH2 0xB1D SWAP1 PUSH2 0x2CC4 JUMP JUMPDEST PUSH1 0x40 MLOAD DUP1 SWAP2 SUB SWAP1 REVERT JUMPDEST PUSH0 DUP3 PUSH20 0xFFFFFFFFFFFFFFFFFFFFFFFFFFFFFFFFFFFFFFFF AND PUSH4 0x70A08231 CALLER PUSH1 0x40 MLOAD DUP3 PUSH4 0xFFFFFFFF AND PUSH1 0xE0 SHL DUP2 MSTORE PUSH1 0x4 ADD PUSH2 0xB60 SWAP2 SWAP1 PUSH2 0x2A2C JUMP JUMPDEST PUSH1 0x20 PUSH1 0x40 MLOAD DUP1 DUP4 SUB DUP2 DUP7 GAS STATICCALL ISZERO DUP1 ISZERO PUSH2 0xB7B JUMPI RETURNDATASIZE PUSH0 DUP1 RETURNDATACOPY RETURNDATASIZE PUSH0 REVERT JUMPDEST POP POP POP POP PUSH1 0x40 MLOAD RETURNDATASIZE PUSH1 0x1F NOT PUSH1 0x1F DUP3 ADD AND DUP3 ADD DUP1 PUSH1 0x40 MSTORE POP DUP2 ADD SWAP1 PUSH2 0xB9F SWAP2 SWAP1 PUSH2 0x2CF6 JUMP JUMPDEST GT PUSH2 0xBDF JUMPI PUSH1 0x40 MLOAD PUSH32 0x8C379A000000000000000000000000000000000000000000000000000000000 DUP2 MSTORE PUSH1 0x4 ADD PUSH2 0xBD6 SWAP1 PUSH2 0x2D91 JUMP JUMPDEST PUSH1 0x40 MLOAD DUP1 SWAP2 SUB SWAP1 REVERT JUMPDEST PUSH1 0x7 PUSH0 CALLER PUSH20 0xFFFFFFFFFFFFFFFFFFFFFFFFFFFFFFFFFFFFFFFF AND PUSH20 0xFFFFFFFFFFFFFFFFFFFFFFFFFFFFFFFFFFFFFFFF AND DUP2 MSTORE PUSH1 0x20 ADD SWAP1 DUP2 MSTORE PUSH1 0x20 ADD PUSH0 KECCAK256 PUSH0 DUP7 DUP2 MSTORE PUSH1 0x20 ADD SWAP1 DUP2 MSTORE PUSH1 0x20 ADD PUSH0 KECCAK256 PUSH1 0x1 ADD PUSH1 0x1 SWAP1 SLOAD SWAP1 PUSH2 0x100 EXP SWAP1 DIV PUSH1 0xFF AND ISZERO PUSH2 0xC7C JUMPI PUSH1 0x40 MLOAD PUSH32 0x8C379A000000000000000000000000000000000000000000000000000000000 DUP2 MSTORE PUSH1 0x4 ADD PUSH2 0xC73 SWAP1 PUSH2 0x2E1F JUMP JUMPDEST PUSH1 0x40 MLOAD DUP1 SWAP2 SUB SWAP1 REVERT JUMPDEST PUSH1 0x40 MLOAD DUP1 PUSH1 0x60 ADD PUSH1 0x40 MSTORE DUP1 DUP7 DUP2 MSTORE PUSH1 0x20 ADD DUP6 ISZERO ISZERO DUP2 MSTORE PUSH1 0x20 ADD PUSH1 0x1 ISZERO ISZERO DUP2 MSTORE POP PUSH1 0x7 PUSH0 CALLER PUSH20 0xFFFFFFFFFFFFFFFFFFFFFFFFFFFFFFFFFFFFFFFF AND PUSH20 0xFFFFFFFFFFFFFFFFFFFFFFFFFFFFFFFFFFFFFFFF AND DUP2 MSTORE PUSH1 0x20 ADD SWAP1 DUP2 MSTORE PUSH1 0x20 ADD PUSH0 KECCAK256 PUSH0 DUP8 DUP2 MSTORE PUSH1 0x20 ADD SWAP1 DUP2 MSTORE PUSH1 0x20 ADD PUSH0 KECCAK256 PUSH0 DUP3 ADD MLOAD DUP2 PUSH0 ADD SSTORE PUSH1 0x20 DUP3 ADD MLOAD DUP2 PUSH1 0x1 ADD PUSH0 PUSH2 0x100 EXP DUP2 SLOAD DUP2 PUSH1 0xFF MUL NOT AND SWAP1 DUP4 ISZERO ISZERO MUL OR SWAP1 SSTORE POP PUSH1 0x40 DUP3 ADD MLOAD DUP2 PUSH1 0x1 ADD PUSH1 0x1 PUSH2 0x100 EXP DUP2 SLOAD DUP2 PUSH1 0xFF MUL NOT AND SWAP1 DUP4 ISZERO ISZERO MUL OR SWAP1 SSTORE POP SWAP1 POP POP PUSH1 0x7 PUSH0 CALLER PUSH20 0xFFFFFFFFFFFFFFFFFFFFFFFFFFFFFFFFFFFFFFFF AND PUSH20 0xFFFFFFFFFFFFFFFFFFFFFFFFFFFFFFFFFFFFFFFF AND DUP2 MSTORE PUSH1 0x20 ADD SWAP1 DUP2 MSTORE PUSH1 0x20 ADD PUSH0 KECCAK256 PUSH0 DUP7 DUP2 MSTORE PUSH1 0x20 ADD SWAP1 DUP2 MSTORE PUSH1 0x20 ADD PUSH0 KECCAK256 PUSH1 0x1 ADD PUSH0 SWAP1 SLOAD SWAP1 PUSH2 0x100 EXP SWAP1 DIV PUSH1 0xFF AND ISZERO PUSH2 0xDCF JUMPI PUSH1 0x1 PUSH1 0x8 PUSH0 DUP8 DUP2 MSTORE PUSH1 0x20 ADD SWAP1 DUP2 MSTORE PUSH1 0x20 ADD PUSH0 KECCAK256 PUSH0 ADD SLOAD PUSH2 0xDB3 SWAP2 SWAP1 PUSH2 0x2B82 JUMP JUMPDEST PUSH1 0x8 PUSH0 DUP8 DUP2 MSTORE PUSH1 0x20 ADD SWAP1 DUP2 MSTORE PUSH1 0x20 ADD PUSH0 KECCAK256 PUSH0 ADD DUP2 SWAP1 SSTORE POP PUSH2 0xE09 JUMP JUMPDEST PUSH1 0x1 PUSH1 0x8 PUSH0 DUP8 DUP2 MSTORE PUSH1 0x20 ADD SWAP1 DUP2 MSTORE PUSH1 0x20 ADD PUSH0 KECCAK256 PUSH1 0x1 ADD SLOAD PUSH2 0xDF0 SWAP2 SWAP1 PUSH2 0x2B82 JUMP JUMPDEST PUSH1 0x8 PUSH0 DUP8 DUP2 MSTORE PUSH1 0x20 ADD SWAP1 DUP2 MSTORE PUSH1 0x20 ADD PUSH0 KECCAK256 PUSH1 0x1 ADD DUP2 SWAP1 SSTORE POP JUMPDEST CALLER PUSH20 0xFFFFFFFFFFFFFFFFFFFFFFFFFFFFFFFFFFFFFFFF AND PUSH32 0x4F7FF1C79E536D7FEF60CCB53BEB6009E08841FFCBA10E515E076F4CBDD9E320 DUP5 PUSH0 ADD MLOAD DUP7 PUSH1 0x40 MLOAD PUSH2 0xE54 SWAP3 SWAP2 SWAP1 PUSH2 0x2E3D JUMP JUMPDEST PUSH1 0x40 MLOAD DUP1 SWAP2 SUB SWAP1 LOG2 POP POP POP POP POP JUMP JUMPDEST PUSH1 0xA SLOAD DUP2 JUMP JUMPDEST PUSH0 SLOAD DUP2 JUMP JUMPDEST PUSH1 0x4 PUSH0 CALLER PUSH20 0xFFFFFFFFFFFFFFFFFFFFFFFFFFFFFFFFFFFFFFFF AND PUSH20 0xFFFFFFFFFFFFFFFFFFFFFFFFFFFFFFFFFFFFFFFF AND DUP2 MSTORE PUSH1 0x20 ADD SWAP1 DUP2 MSTORE PUSH1 0x20 ADD PUSH0 KECCAK256 PUSH0 ADD PUSH0 SWAP1 SLOAD SWAP1 PUSH2 0x100 EXP SWAP1 DIV PUSH1 0xFF AND PUSH2 0xEF9 JUMPI PUSH1 0x40 MLOAD PUSH32 0x8C379A000000000000000000000000000000000000000000000000000000000 DUP2 MSTORE PUSH1 0x4 ADD PUSH2 0xEF0 SWAP1 PUSH2 0x2B04 JUMP JUMPDEST PUSH1 0x40 MLOAD DUP1 SWAP2 SUB SWAP1 REVERT JUMPDEST PUSH0 PUSH1 0xB PUSH0 DUP4 DUP2 MSTORE PUSH1 0x20 ADD SWAP1 DUP2 MSTORE PUSH1 0x20 ADD PUSH0 KECCAK256 PUSH1 0x40 MLOAD DUP1 PUSH2 0x120 ADD PUSH1 0x40 MSTORE SWAP1 DUP2 PUSH0 DUP3 ADD SLOAD DUP2 MSTORE PUSH1 0x20 ADD PUSH1 0x1 DUP3 ADD DUP1 SLOAD PUSH2 0xF30 SWAP1 PUSH2 0x2BE2 JUMP JUMPDEST DUP1 PUSH1 0x1F ADD PUSH1 0x20 DUP1 SWAP2 DIV MUL PUSH1 0x20 ADD PUSH1 0x40 MLOAD SWAP1 DUP2 ADD PUSH1 0x40 MSTORE DUP1 SWAP3 SWAP2 SWAP1 DUP2 DUP2 MSTORE PUSH1 0x20 ADD DUP3 DUP1 SLOAD PUSH2 0xF5C SWAP1 PUSH2 0x2BE2 JUMP JUMPDEST DUP1 ISZERO PUSH2 0xFA7 JUMPI DUP1 PUSH1 0x1F LT PUSH2 0xF7E JUMPI PUSH2 0x100 DUP1 DUP4 SLOAD DIV MUL DUP4 MSTORE SWAP2 PUSH1 0x20 ADD SWAP2 PUSH2 0xFA7 JUMP JUMPDEST DUP3 ADD SWAP2 SWAP1 PUSH0 MSTORE PUSH1 0x20 PUSH0 KECCAK256 SWAP1 JUMPDEST DUP2 SLOAD DUP2 MSTORE SWAP1 PUSH1 0x1 ADD SWAP1 PUSH1 0x20 ADD DUP1 DUP4 GT PUSH2 0xF8A JUMPI DUP3 SWAP1 SUB PUSH1 0x1F AND DUP3 ADD SWAP2 JUMPDEST POP POP POP POP POP DUP2 MSTORE PUSH1 0x20 ADD PUSH1 0x2 DUP3 ADD PUSH0 SWAP1 SLOAD SWAP1 PUSH2 0x100 EXP SWAP1 DIV PUSH20 0xFFFFFFFFFFFFFFFFFFFFFFFFFFFFFFFFFFFFFFFF AND PUSH20 0xFFFFFFFFFFFFFFFFFFFFFFFFFFFFFFFFFFFFFFFF AND PUSH20 0xFFFFFFFFFFFFFFFFFFFFFFFFFFFFFFFFFFFFFFFF AND DUP2 MSTORE PUSH1 0x20 ADD PUSH1 0x3 DUP3 ADD DUP1 SLOAD PUSH2 0x1015 SWAP1 PUSH2 0x2BE2 JUMP JUMPDEST DUP1 PUSH1 0x1F ADD PUSH1 0x20 DUP1 SWAP2 DIV MUL PUSH1 0x20 ADD PUSH1 0x40 MLOAD SWAP1 DUP2 ADD PUSH1 0x40 MSTORE DUP1 SWAP3 SWAP2 SWAP1 DUP2 DUP2 MSTORE PUSH1 0x20 ADD DUP3 DUP1 SLOAD PUSH2 0x1041 SWAP1 PUSH2 0x2BE2 JUMP JUMPDEST DUP1 ISZERO PUSH2 0x108C JUMPI DUP1 PUSH1 0x1F LT PUSH2 0x1063 JUMPI PUSH2 0x100 DUP1 DUP4 SLOAD DIV MUL DUP4 MSTORE SWAP2 PUSH1 0x20 ADD SWAP2 PUSH2 0x108C JUMP JUMPDEST DUP3 ADD SWAP2 SWAP1 PUSH0 MSTORE PUSH1 0x20 PUSH0 KECCAK256 SWAP1 JUMPDEST DUP2 SLOAD DUP2 MSTORE SWAP1 PUSH1 0x1 ADD SWAP1 PUSH1 0x20 ADD DUP1 DUP4 GT PUSH2 0x106F JUMPI DUP3 SWAP1 SUB PUSH1 0x1F AND DUP3 ADD SWAP2 JUMPDEST POP POP POP POP POP DUP2 MSTORE PUSH1 0x20 ADD PUSH1 0x4 DUP3 ADD PUSH0 SWAP1 SLOAD SWAP1 PUSH2 0x100 EXP SWAP1 DIV PUSH20 0xFFFFFFFFFFFFFFFFFFFFFFFFFFFFFFFFFFFFFFFF AND PUSH20 0xFFFFFFFFFFFFFFFFFFFFFFFFFFFFFFFFFFFFFFFF AND PUSH20 0xFFFFFFFFFFFFFFFFFFFFFFFFFFFFFFFFFFFFFFFF AND DUP2 MSTORE PUSH1 0x20 ADD PUSH1 0x5 DUP3 ADD DUP1 SLOAD PUSH2 0x10FA SWAP1 PUSH2 0x2BE2 JUMP JUMPDEST DUP1 PUSH1 0x1F ADD PUSH1 0x20 DUP1 SWAP2 DIV MUL PUSH1 0x20 ADD PUSH1 0x40 MLOAD SWAP1 DUP2 ADD PUSH1 0x40 MSTORE DUP1 SWAP3 SWAP2 SWAP1 DUP2 DUP2 MSTORE PUSH1 0x20 ADD DUP3 DUP1 SLOAD PUSH2 0x1126 SWAP1 PUSH2 0x2BE2 JUMP JUMPDEST DUP1 ISZERO PUSH2 0x1171 JUMPI DUP1 PUSH1 0x1F LT PUSH2 0x1148 JUMPI PUSH2 0x100 DUP1 DUP4 SLOAD DIV MUL DUP4 MSTORE SWAP2 PUSH1 0x20 ADD SWAP2 PUSH2 0x1171 JUMP JUMPDEST DUP3 ADD SWAP2 SWAP1 PUSH0 MSTORE PUSH1 0x20 PUSH0 KECCAK256 SWAP1 JUMPDEST DUP2 SLOAD DUP2 MSTORE SWAP1 PUSH1 0x1 ADD SWAP1 PUSH1 0x20 ADD DUP1 DUP4 GT PUSH2 0x1154 JUMPI DUP3 SWAP1 SUB PUSH1 0x1F AND DUP3 ADD SWAP2 JUMPDEST POP POP POP POP POP DUP2 MSTORE PUSH1 0x20 ADD PUSH1 0x6 DUP3 ADD SLOAD DUP2 MSTORE PUSH1 0x20 ADD PUSH1 0x7 DUP3 ADD PUSH0 SWAP1 SLOAD SWAP1 PUSH2 0x100 EXP SWAP1 DIV PUSH1 0xFF AND ISZERO ISZERO ISZERO ISZERO DUP2 MSTORE PUSH1 0x20 ADD PUSH1 0x7 DUP3 ADD PUSH1 0x1 SWAP1 SLOAD SWAP1 PUSH2 0x100 EXP SWAP1 DIV PUSH1 0xFF AND ISZERO ISZERO ISZERO ISZERO DUP2 MSTORE POP POP SWAP1 POP PUSH1 0x1 DUP2 PUSH2 0x100 ADD SWAP1 ISZERO ISZERO SWAP1 DUP2 ISZERO ISZERO DUP2 MSTORE POP POP POP POP JUMP JUMPDEST PUSH1 0x4 PUSH0 CALLER PUSH20 0xFFFFFFFFFFFFFFFFFFFFFFFFFFFFFFFFFFFFFFFF AND PUSH20 0xFFFFFFFFFFFFFFFFFFFFFFFFFFFFFFFFFFFFFFFF AND DUP2 MSTORE PUSH1 0x20 ADD SWAP1 DUP2 MSTORE PUSH1 0x20 ADD PUSH0 KECCAK256 PUSH0 ADD PUSH0 SWAP1 SLOAD SWAP1 PUSH2 0x100 EXP SWAP1 DIV PUSH1 0xFF AND PUSH2 0x125C JUMPI PUSH1 0x40 MLOAD PUSH32 0x8C379A000000000000000000000000000000000000000000000000000000000 DUP2 MSTORE PUSH1 0x4 ADD PUSH2 0x1253 SWAP1 PUSH2 0x2B04 JUMP JUMPDEST PUSH1 0x40 MLOAD DUP1 SWAP2 SUB SWAP1 REVERT JUMPDEST JUMP JUMPDEST PUSH0 DUP1 PUSH2 0x1277 PUSH1 0x3C PUSH1 0x64 DUP6 PUSH2 0x22D6 SWAP1 SWAP3 SWAP2 SWAP1 PUSH4 0xFFFFFFFF AND JUMP JUMPDEST SWAP1 POP DUP1 DUP5 LT ISZERO PUSH2 0x1287 JUMPI PUSH0 PUSH2 0x128A JUMP JUMPDEST PUSH1 0x1 JUMPDEST SWAP2 POP POP SWAP3 SWAP2 POP POP JUMP JUMPDEST PUSH1 0x7 PUSH1 0x20 MSTORE DUP2 PUSH0 MSTORE PUSH1 0x40 PUSH0 KECCAK256 PUSH1 0x20 MSTORE DUP1 PUSH0 MSTORE PUSH1 0x40 PUSH0 KECCAK256 PUSH0 SWAP2 POP SWAP2 POP POP DUP1 PUSH0 ADD SLOAD SWAP1 DUP1 PUSH1 0x1 ADD PUSH0 SWAP1 SLOAD SWAP1 PUSH2 0x100 EXP SWAP1 DIV PUSH1 0xFF AND SWAP1 DUP1 PUSH1 0x1 ADD PUSH1 0x1 SWAP1 SLOAD SWAP1 PUSH2 0x100 EXP SWAP1 DIV PUSH1 0xFF AND SWAP1 POP DUP4 JUMP JUMPDEST PUSH1 0xB PUSH1 0x20 MSTORE DUP1 PUSH0 MSTORE PUSH1 0x40 PUSH0 KECCAK256 PUSH0 SWAP2 POP SWAP1 POP DUP1 PUSH0 ADD SLOAD SWAP1 DUP1 PUSH1 0x1 ADD DUP1 SLOAD PUSH2 0x1302 SWAP1 PUSH2 0x2BE2 JUMP JUMPDEST DUP1 PUSH1 0x1F ADD PUSH1 0x20 DUP1 SWAP2 DIV MUL PUSH1 0x20 ADD PUSH1 0x40 MLOAD SWAP1 DUP2 ADD PUSH1 0x40 MSTORE DUP1 SWAP3 SWAP2 SWAP1 DUP2 DUP2 MSTORE PUSH1 0x20 ADD DUP3 DUP1 SLOAD PUSH2 0x132E SWAP1 PUSH2 0x2BE2 JUMP JUMPDEST DUP1 ISZERO PUSH2 0x1379 JUMPI DUP1 PUSH1 0x1F LT PUSH2 0x1350 JUMPI PUSH2 0x100 DUP1 DUP4 SLOAD DIV MUL DUP4 MSTORE SWAP2 PUSH1 0x20 ADD SWAP2 PUSH2 0x1379 JUMP JUMPDEST DUP3 ADD SWAP2 SWAP1 PUSH0 MSTORE PUSH1 0x20 PUSH0 KECCAK256 SWAP1 JUMPDEST DUP2 SLOAD DUP2 MSTORE SWAP1 PUSH1 0x1 ADD SWAP1 PUSH1 0x20 ADD DUP1 DUP4 GT PUSH2 0x135C JUMPI DUP3 SWAP1 SUB PUSH1 0x1F AND DUP3 ADD SWAP2 JUMPDEST POP POP POP POP POP SWAP1 DUP1 PUSH1 0x2 ADD PUSH0 SWAP1 SLOAD SWAP1 PUSH2 0x100 EXP SWAP1 DIV PUSH20 0xFFFFFFFFFFFFFFFFFFFFFFFFFFFFFFFFFFFFFFFF AND SWAP1 DUP1 PUSH1 0x3 ADD DUP1 SLOAD PUSH2 0x13B3 SWAP1 PUSH2 0x2BE2 JUMP JUMPDEST DUP1 PUSH1 0x1F ADD PUSH1 0x20 DUP1 SWAP2 DIV MUL PUSH1 0x20 ADD PUSH1 0x40 MLOAD SWAP1 DUP2 ADD PUSH1 0x40 MSTORE DUP1 SWAP3 SWAP2 SWAP1 DUP2 DUP2 MSTORE PUSH1 0x20 ADD DUP3 DUP1 SLOAD PUSH2 0x13DF SWAP1 PUSH2 0x2BE2 JUMP JUMPDEST DUP1 ISZERO PUSH2 0x142A JUMPI DUP1 PUSH1 0x1F LT PUSH2 0x1401 JUMPI PUSH2 0x100 DUP1 DUP4 SLOAD DIV MUL DUP4 MSTORE SWAP2 PUSH1 0x20 ADD SWAP2 PUSH2 0x142A JUMP JUMPDEST DUP3 ADD SWAP2 SWAP1 PUSH0 MSTORE PUSH1 0x20 PUSH0 KECCAK256 SWAP1 JUMPDEST DUP2 SLOAD DUP2 MSTORE SWAP1 PUSH1 0x1 ADD SWAP1 PUSH1 0x20 ADD DUP1 DUP4 GT PUSH2 0x140D JUMPI DUP3 SWAP1 SUB PUSH1 0x1F AND DUP3 ADD SWAP2 JUMPDEST POP POP POP POP POP SWAP1 DUP1 PUSH1 0x4 ADD PUSH0 SWAP1 SLOAD SWAP1 PUSH2 0x100 EXP SWAP1 DIV PUSH20 0xFFFFFFFFFFFFFFFFFFFFFFFFFFFFFFFFFFFFFFFF AND SWAP1 DUP1 PUSH1 0x5 ADD DUP1 SLOAD PUSH2 0x1464 SWAP1 PUSH2 0x2BE2 JUMP JUMPDEST DUP1 PUSH1 0x1F ADD PUSH1 0x20 DUP1 SWAP2 DIV MUL PUSH1 0x20 ADD PUSH1 0x40 MLOAD SWAP1 DUP2 ADD PUSH1 0x40 MSTORE DUP1 SWAP3 SWAP2 SWAP1 DUP2 DUP2 MSTORE PUSH1 0x20 ADD DUP3 DUP1 SLOAD PUSH2 0x1490 SWAP1 PUSH2 0x2BE2 JUMP JUMPDEST DUP1 ISZERO PUSH2 0x14DB JUMPI DUP1 PUSH1 0x1F LT PUSH2 0x14B2 JUMPI PUSH2 0x100 DUP1 DUP4 SLOAD DIV MUL DUP4 MSTORE SWAP2 PUSH1 0x20 ADD SWAP2 PUSH2 0x14DB JUMP JUMPDEST DUP3 ADD SWAP2 SWAP1 PUSH0 MSTORE PUSH1 0x20 PUSH0 KECCAK256 SWAP1 JUMPDEST DUP2 SLOAD DUP2 MSTORE SWAP1 PUSH1 0x1 ADD SWAP1 PUSH1 0x20 ADD DUP1 DUP4 GT PUSH2 0x14BE JUMPI DUP3 SWAP1 SUB PUSH1 0x1F AND DUP3 ADD SWAP2 JUMPDEST POP POP POP POP POP SWAP1 DUP1 PUSH1 0x6 ADD SLOAD SWAP1 DUP1 PUSH1 0x7 ADD PUSH0 SWAP1 SLOAD SWAP1 PUSH2 0x100 EXP SWAP1 DIV PUSH1 0xFF AND SWAP1 DUP1 PUSH1 0x7 ADD PUSH1 0x1 SWAP1 SLOAD SWAP1 PUSH2 0x100 EXP SWAP1 DIV PUSH1 0xFF AND SWAP1 POP DUP10 JUMP JUMPDEST PUSH1 0x8 PUSH1 0x20 MSTORE DUP1 PUSH0 MSTORE PUSH1 0x40 PUSH0 KECCAK256 PUSH0 SWAP2 POP SWAP1 POP DUP1 PUSH0 ADD SLOAD SWAP1 DUP1 PUSH1 0x1 ADD SLOAD SWAP1 POP DUP3 JUMP JUMPDEST PUSH1 0x9 SLOAD DUP2 JUMP JUMPDEST PUSH1 0x4 PUSH1 0x20 MSTORE DUP1 PUSH0 MSTORE PUSH1 0x40 PUSH0 KECCAK256 PUSH0 SWAP2 POP SWAP1 POP DUP1 PUSH0 ADD PUSH0 SWAP1 SLOAD SWAP1 PUSH2 0x100 EXP SWAP1 DIV PUSH1 0xFF AND SWAP1 DUP1 PUSH1 0x1 ADD SLOAD SWAP1 DUP1 PUSH1 0x2 ADD SLOAD SWAP1 POP DUP4 JUMP JUMPDEST PUSH1 0x1 SLOAD DUP2 JUMP JUMPDEST PUSH1 0x3 SLOAD DUP2 JUMP JUMPDEST PUSH1 0x4 PUSH0 CALLER PUSH20 0xFFFFFFFFFFFFFFFFFFFFFFFFFFFFFFFFFFFFFFFF AND PUSH20 0xFFFFFFFFFFFFFFFFFFFFFFFFFFFFFFFFFFFFFFFF AND DUP2 MSTORE PUSH1 0x20 ADD SWAP1 DUP2 MSTORE PUSH1 0x20 ADD PUSH0 KECCAK256 PUSH0 ADD PUSH0 SWAP1 SLOAD SWAP1 PUSH2 0x100 EXP SWAP1 DIV PUSH1 0xFF AND PUSH2 0x15FF JUMPI PUSH1 0x40 MLOAD PUSH32 0x8C379A000000000000000000000000000000000000000000000000000000000 DUP2 MSTORE PUSH1 0x4 ADD PUSH2 0x15F6 SWAP1 PUSH2 0x2B04 JUMP JUMPDEST PUSH1 0x40 MLOAD DUP1 SWAP2 SUB SWAP1 REVERT JUMPDEST PUSH1 0x5 DUP1 SLOAD SWAP1 POP PUSH1 0x4 PUSH0 DUP4 PUSH20 0xFFFFFFFFFFFFFFFFFFFFFFFFFFFFFFFFFFFFFFFF AND PUSH20 0xFFFFFFFFFFFFFFFFFFFFFFFFFFFFFFFFFFFFFFFF AND DUP2 MSTORE PUSH1 0x20 ADD SWAP1 DUP2 MSTORE PUSH1 0x20 ADD PUSH0 KECCAK256 PUSH1 0x2 ADD SLOAD LT PUSH2 0x1798 JUMPI PUSH1 0x1 PUSH1 0x4 PUSH0 DUP4 PUSH20 0xFFFFFFFFFFFFFFFFFFFFFFFFFFFFFFFFFFFFFFFF AND PUSH20 0xFFFFFFFFFFFFFFFFFFFFFFFFFFFFFFFFFFFFFFFF AND DUP2 MSTORE PUSH1 0x20 ADD SWAP1 DUP2 MSTORE PUSH1 0x20 ADD PUSH0 KECCAK256 PUSH0 ADD PUSH0 PUSH2 0x100 EXP DUP2 SLOAD DUP2 PUSH1 0xFF MUL NOT AND SWAP1 DUP4 ISZERO ISZERO MUL OR SWAP1 SSTORE POP PUSH1 0x5 DUP2 SWAP1 DUP1 PUSH1 0x1 DUP2 SLOAD ADD DUP1 DUP3 SSTORE DUP1 SWAP2 POP POP PUSH1 0x1 SWAP1 SUB SWAP1 PUSH0 MSTORE PUSH1 0x20 PUSH0 KECCAK256 ADD PUSH0 SWAP1 SWAP2 SWAP1 SWAP2 SWAP1 SWAP2 PUSH2 0x100 EXP DUP2 SLOAD DUP2 PUSH20 0xFFFFFFFFFFFFFFFFFFFFFFFFFFFFFFFFFFFFFFFF MUL NOT AND SWAP1 DUP4 PUSH20 0xFFFFFFFFFFFFFFFFFFFFFFFFFFFFFFFFFFFFFFFF AND MUL OR SWAP1 SSTORE POP PUSH1 0x1 PUSH1 0x4 PUSH0 DUP4 PUSH20 0xFFFFFFFFFFFFFFFFFFFFFFFFFFFFFFFFFFFFFFFF AND PUSH20 0xFFFFFFFFFFFFFFFFFFFFFFFFFFFFFFFFFFFFFFFF AND DUP2 MSTORE PUSH1 0x20 ADD SWAP1 DUP2 MSTORE PUSH1 0x20 ADD PUSH0 KECCAK256 PUSH1 0x2 ADD SLOAD PUSH2 0x174F SWAP2 SWAP1 PUSH2 0x2B82 JUMP JUMPDEST PUSH1 0x4 PUSH0 DUP4 PUSH20 0xFFFFFFFFFFFFFFFFFFFFFFFFFFFFFFFFFFFFFFFF AND PUSH20 0xFFFFFFFFFFFFFFFFFFFFFFFFFFFFFFFFFFFFFFFF AND DUP2 MSTORE PUSH1 0x20 ADD SWAP1 DUP2 MSTORE PUSH1 0x20 ADD PUSH0 KECCAK256 PUSH1 0x2 ADD DUP2 SWAP1 SSTORE POP PUSH2 0x182A JUMP JUMPDEST PUSH1 0x1 PUSH1 0x4 PUSH0 DUP4 PUSH20 0xFFFFFFFFFFFFFFFFFFFFFFFFFFFFFFFFFFFFFFFF AND PUSH20 0xFFFFFFFFFFFFFFFFFFFFFFFFFFFFFFFFFFFFFFFF AND DUP2 MSTORE PUSH1 0x20 ADD SWAP1 DUP2 MSTORE PUSH1 0x20 ADD PUSH0 KECCAK256 PUSH1 0x2 ADD SLOAD PUSH2 0x17E5 SWAP2 SWAP1 PUSH2 0x2B82 JUMP JUMPDEST PUSH1 0x4 PUSH0 DUP4 PUSH20 0xFFFFFFFFFFFFFFFFFFFFFFFFFFFFFFFFFFFFFFFF AND PUSH20 0xFFFFFFFFFFFFFFFFFFFFFFFFFFFFFFFFFFFFFFFF AND DUP2 MSTORE PUSH1 0x20 ADD SWAP1 DUP2 MSTORE PUSH1 0x20 ADD PUSH0 KECCAK256 PUSH1 0x2 ADD DUP2 SWAP1 SSTORE POP JUMPDEST DUP1 PUSH20 0xFFFFFFFFFFFFFFFFFFFFFFFFFFFFFFFFFFFFFFFF AND PUSH32 0xE0C21BF57DF59CFC5E2067C75DBFD51A39F17533352CE1CF3A6C713C897A6C0C PUSH1 0x40 MLOAD PUSH1 0x40 MLOAD DUP1 SWAP2 SUB SWAP1 LOG2 POP JUMP JUMPDEST PUSH1 0x6 PUSH0 CALLER PUSH20 0xFFFFFFFFFFFFFFFFFFFFFFFFFFFFFFFFFFFFFFFF AND PUSH20 0xFFFFFFFFFFFFFFFFFFFFFFFFFFFFFFFFFFFFFFFF AND DUP2 MSTORE PUSH1 0x20 ADD SWAP1 DUP2 MSTORE PUSH1 0x20 ADD PUSH0 KECCAK256 PUSH1 0x1 ADD PUSH0 SWAP1 SLOAD SWAP1 PUSH2 0x100 EXP SWAP1 DIV PUSH1 0xFF AND PUSH2 0x18FC JUMPI PUSH1 0x40 MLOAD PUSH32 0x8C379A000000000000000000000000000000000000000000000000000000000 DUP2 MSTORE PUSH1 0x4 ADD PUSH2 0x18F3 SWAP1 PUSH2 0x2C5C JUMP JUMPDEST PUSH1 0x40 MLOAD DUP1 SWAP2 SUB SWAP1 REVERT JUMPDEST PUSH0 PUSH1 0x40 MLOAD DUP1 PUSH2 0x120 ADD PUSH1 0x40 MSTORE DUP1 PUSH1 0x9 SLOAD DUP2 MSTORE PUSH1 0x20 ADD DUP7 DUP2 MSTORE PUSH1 0x20 ADD CALLER PUSH20 0xFFFFFFFFFFFFFFFFFFFFFFFFFFFFFFFFFFFFFFFF AND DUP2 MSTORE PUSH1 0x20 ADD DUP6 DUP2 MSTORE PUSH1 0x20 ADD DUP5 PUSH20 0xFFFFFFFFFFFFFFFFFFFFFFFFFFFFFFFFFFFFFFFF AND DUP2 MSTORE PUSH1 0x20 ADD DUP4 DUP2 MSTORE PUSH1 0x20 ADD TIMESTAMP DUP2 MSTORE PUSH1 0x20 ADD PUSH0 ISZERO ISZERO DUP2 MSTORE PUSH1 0x20 ADD PUSH0 ISZERO ISZERO DUP2 MSTORE POP SWAP1 POP DUP1 PUSH1 0xB PUSH0 DUP4 PUSH0 ADD MLOAD DUP2 MSTORE PUSH1 0x20 ADD SWAP1 DUP2 MSTORE PUSH1 0x20 ADD PUSH0 KECCAK256 PUSH0 DUP3 ADD MLOAD DUP2 PUSH0 ADD SSTORE PUSH1 0x20 DUP3 ADD MLOAD DUP2 PUSH1 0x1 ADD SWAP1 DUP2 PUSH2 0x19A3 SWAP2 SWAP1 PUSH2 0x3001 JUMP JUMPDEST POP PUSH1 0x40 DUP3 ADD MLOAD DUP2 PUSH1 0x2 ADD PUSH0 PUSH2 0x100 EXP DUP2 SLOAD DUP2 PUSH20 0xFFFFFFFFFFFFFFFFFFFFFFFFFFFFFFFFFFFFFFFF MUL NOT AND SWAP1 DUP4 PUSH20 0xFFFFFFFFFFFFFFFFFFFFFFFFFFFFFFFFFFFFFFFF AND MUL OR SWAP1 SSTORE POP PUSH1 0x60 DUP3 ADD MLOAD DUP2 PUSH1 0x3 ADD SWAP1 DUP2 PUSH2 0x19FF SWAP2 SWAP1 PUSH2 0x3001 JUMP JUMPDEST POP PUSH1 0x80 DUP3 ADD MLOAD DUP2 PUSH1 0x4 ADD PUSH0 PUSH2 0x100 EXP DUP2 SLOAD DUP2 PUSH20 0xFFFFFFFFFFFFFFFFFFFFFFFFFFFFFFFFFFFFFFFF MUL NOT AND SWAP1 DUP4 PUSH20 0xFFFFFFFFFFFFFFFFFFFFFFFFFFFFFFFFFFFFFFFF AND MUL OR SWAP1 SSTORE POP PUSH1 0xA0 DUP3 ADD MLOAD DUP2 PUSH1 0x5 ADD SWAP1 DUP2 PUSH2 0x1A5B SWAP2 SWAP1 PUSH2 0x3001 JUMP JUMPDEST POP PUSH1 0xC0 DUP3 ADD MLOAD DUP2 PUSH1 0x6 ADD SSTORE PUSH1 0xE0 DUP3 ADD MLOAD DUP2 PUSH1 0x7 ADD PUSH0 PUSH2 0x100 EXP DUP2 SLOAD DUP2 PUSH1 0xFF MUL NOT AND SWAP1 DUP4 ISZERO ISZERO MUL OR SWAP1 SSTORE POP PUSH2 0x100 DUP3 ADD MLOAD DUP2 PUSH1 0x7 ADD PUSH1 0x1 PUSH2 0x100 EXP DUP2 SLOAD DUP2 PUSH1 0xFF MUL NOT AND SWAP1 DUP4 ISZERO ISZERO MUL OR SWAP1 SSTORE POP SWAP1 POP POP PUSH1 0x1 PUSH1 0x9 SLOAD PUSH2 0x1AB8 SWAP2 SWAP1 PUSH2 0x2B82 JUMP JUMPDEST PUSH1 0x9 DUP2 SWAP1 SSTORE POP CALLER PUSH20 0xFFFFFFFFFFFFFFFFFFFFFFFFFFFFFFFFFFFFFFFF AND PUSH32 0xA0236BC57E83DE3883EF92CE123949A84EACC1F18ABB3808F17239C67FA3DF9B DUP3 PUSH1 0x20 ADD MLOAD PUSH1 0x40 MLOAD PUSH2 0x1B08 SWAP2 SWAP1 PUSH2 0x30D0 JUMP JUMPDEST PUSH1 0x40 MLOAD DUP1 SWAP2 SUB SWAP1 LOG2 POP POP POP POP POP JUMP JUMPDEST PUSH1 0x4 PUSH0 CALLER PUSH20 0xFFFFFFFFFFFFFFFFFFFFFFFFFFFFFFFFFFFFFFFF AND PUSH20 0xFFFFFFFFFFFFFFFFFFFFFFFFFFFFFFFFFFFFFFFF AND DUP2 MSTORE PUSH1 0x20 ADD SWAP1 DUP2 MSTORE PUSH1 0x20 ADD PUSH0 KECCAK256 PUSH0 ADD PUSH0 SWAP1 SLOAD SWAP1 PUSH2 0x100 EXP SWAP1 DIV PUSH1 0xFF AND PUSH2 0x1BA2 JUMPI PUSH1 0x40 MLOAD PUSH32 0x8C379A000000000000000000000000000000000000000000000000000000000 DUP2 MSTORE PUSH1 0x4 ADD PUSH2 0x1B99 SWAP1 PUSH2 0x2B04 JUMP JUMPDEST PUSH1 0x40 MLOAD DUP1 SWAP2 SUB SWAP1 REVERT JUMPDEST PUSH2 0x1BAA PUSH2 0x23D5 JUMP JUMPDEST PUSH0 PUSH1 0x60 PUSH1 0xB PUSH0 DUP6 DUP2 MSTORE PUSH1 0x20 ADD SWAP1 DUP2 MSTORE PUSH1 0x20 ADD PUSH0 KECCAK256 PUSH1 0x40 MLOAD DUP1 PUSH2 0x120 ADD PUSH1 0x40 MSTORE SWAP1 DUP2 PUSH0 DUP3 ADD SLOAD DUP2 MSTORE PUSH1 0x20 ADD PUSH1 0x1 DUP3 ADD DUP1 SLOAD PUSH2 0x1BE3 SWAP1 PUSH2 0x2BE2 JUMP JUMPDEST DUP1 PUSH1 0x1F ADD PUSH1 0x20 DUP1 SWAP2 DIV MUL PUSH1 0x20 ADD PUSH1 0x40 MLOAD SWAP1 DUP2 ADD PUSH1 0x40 MSTORE DUP1 SWAP3 SWAP2 SWAP1 DUP2 DUP2 MSTORE PUSH1 0x20 ADD DUP3 DUP1 SLOAD PUSH2 0x1C0F SWAP1 PUSH2 0x2BE2 JUMP JUMPDEST DUP1 ISZERO PUSH2 0x1C5A JUMPI DUP1 PUSH1 0x1F LT PUSH2 0x1C31 JUMPI PUSH2 0x100 DUP1 DUP4 SLOAD DIV MUL DUP4 MSTORE SWAP2 PUSH1 0x20 ADD SWAP2 PUSH2 0x1C5A JUMP JUMPDEST DUP3 ADD SWAP2 SWAP1 PUSH0 MSTORE PUSH1 0x20 PUSH0 KECCAK256 SWAP1 JUMPDEST DUP2 SLOAD DUP2 MSTORE SWAP1 PUSH1 0x1 ADD SWAP1 PUSH1 0x20 ADD DUP1 DUP4 GT PUSH2 0x1C3D JUMPI DUP3 SWAP1 SUB PUSH1 0x1F AND DUP3 ADD SWAP2 JUMPDEST POP POP POP POP POP DUP2 MSTORE PUSH1 0x20 ADD PUSH1 0x2 DUP3 ADD PUSH0 SWAP1 SLOAD SWAP1 PUSH2 0x100 EXP SWAP1 DIV PUSH20 0xFFFFFFFFFFFFFFFFFFFFFFFFFFFFFFFFFFFFFFFF AND PUSH20 0xFFFFFFFFFFFFFFFFFFFFFFFFFFFFFFFFFFFFFFFF AND PUSH20 0xFFFFFFFFFFFFFFFFFFFFFFFFFFFFFFFFFFFFFFFF AND DUP2 MSTORE PUSH1 0x20 ADD PUSH1 0x3 DUP3 ADD DUP1 SLOAD PUSH2 0x1CC8 SWAP1 PUSH2 0x2BE2 JUMP JUMPDEST DUP1 PUSH1 0x1F ADD PUSH1 0x20 DUP1 SWAP2 DIV MUL PUSH1 0x20 ADD PUSH1 0x40 MLOAD SWAP1 DUP2 ADD PUSH1 0x40 MSTORE DUP1 SWAP3 SWAP2 SWAP1 DUP2 DUP2 MSTORE PUSH1 0x20 ADD DUP3 DUP1 SLOAD PUSH2 0x1CF4 SWAP1 PUSH2 0x2BE2 JUMP JUMPDEST DUP1 ISZERO PUSH2 0x1D3F JUMPI DUP1 PUSH1 0x1F LT PUSH2 0x1D16 JUMPI PUSH2 0x100 DUP1 DUP4 SLOAD DIV MUL DUP4 MSTORE SWAP2 PUSH1 0x20 ADD SWAP2 PUSH2 0x1D3F JUMP JUMPDEST DUP3 ADD SWAP2 SWAP1 PUSH0 MSTORE PUSH1 0x20 PUSH0 KECCAK256 SWAP1 JUMPDEST DUP2 SLOAD DUP2 MSTORE SWAP1 PUSH1 0x1 ADD SWAP1 PUSH1 0x20 ADD DUP1 DUP4 GT PUSH2 0x1D22 JUMPI DUP3 SWAP1 SUB PUSH1 0x1F AND DUP3 ADD SWAP2 JUMPDEST POP POP POP POP POP DUP2 MSTORE PUSH1 0x20 ADD PUSH1 0x4 DUP3 ADD PUSH0 SWAP1 SLOAD SWAP1 PUSH2 0x100 EXP SWAP1 DIV PUSH20 0xFFFFFFFFFFFFFFFFFFFFFFFFFFFFFFFFFFFFFFFF AND PUSH20 0xFFFFFFFFFFFFFFFFFFFFFFFFFFFFFFFFFFFFFFFF AND PUSH20 0xFFFFFFFFFFFFFFFFFFFFFFFFFFFFFFFFFFFFFFFF AND DUP2 MSTORE PUSH1 0x20 ADD PUSH1 0x5 DUP3 ADD DUP1 SLOAD PUSH2 0x1DAD SWAP1 PUSH2 0x2BE2 JUMP JUMPDEST DUP1 PUSH1 0x1F ADD PUSH1 0x20 DUP1 SWAP2 DIV MUL PUSH1 0x20 ADD PUSH1 0x40 MLOAD SWAP1 DUP2 ADD PUSH1 0x40 MSTORE DUP1 SWAP3 SWAP2 SWAP1 DUP2 DUP2 MSTORE PUSH1 0x20 ADD DUP3 DUP1 SLOAD PUSH2 0x1DD9 SWAP1 PUSH2 0x2BE2 JUMP JUMPDEST DUP1 ISZERO PUSH2 0x1E24 JUMPI DUP1 PUSH1 0x1F LT PUSH2 0x1DFB JUMPI PUSH2 0x100 DUP1 DUP4 SLOAD DIV MUL DUP4 MSTORE SWAP2 PUSH1 0x20 ADD SWAP2 PUSH2 0x1E24 JUMP JUMPDEST DUP3 ADD SWAP2 SWAP1 PUSH0 MSTORE PUSH1 0x20 PUSH0 KECCAK256 SWAP1 JUMPDEST DUP2 SLOAD DUP2 MSTORE SWAP1 PUSH1 0x1 ADD SWAP1 PUSH1 0x20 ADD DUP1 DUP4 GT PUSH2 0x1E07 JUMPI DUP3 SWAP1 SUB PUSH1 0x1F AND DUP3 ADD SWAP2 JUMPDEST POP POP POP POP POP DUP2 MSTORE PUSH1 0x20 ADD PUSH1 0x6 DUP3 ADD SLOAD DUP2 MSTORE PUSH1 0x20 ADD PUSH1 0x7 DUP3 ADD PUSH0 SWAP1 SLOAD SWAP1 PUSH2 0x100 EXP SWAP1 DIV PUSH1 0xFF AND ISZERO ISZERO ISZERO ISZERO DUP2 MSTORE PUSH1 0x20 ADD PUSH1 0x7 DUP3 ADD PUSH1 0x1 SWAP1 SLOAD SWAP1 PUSH2 0x100 EXP SWAP1 DIV PUSH1 0xFF AND ISZERO ISZERO ISZERO ISZERO DUP2 MSTORE POP POP SWAP3 POP DUP3 PUSH1 0x80 ADD MLOAD SWAP2 POP DUP3 PUSH1 0xA0 ADD MLOAD SWAP1 POP PUSH0 PUSH1 0x8 PUSH0 DUP7 DUP2 MSTORE PUSH1 0x20 ADD SWAP1 DUP2 MSTORE PUSH1 0x20 ADD PUSH0 KECCAK256 PUSH1 0x1 ADD SLOAD PUSH1 0x8 PUSH0 DUP8 DUP2 MSTORE PUSH1 0x20 ADD SWAP1 DUP2 MSTORE PUSH1 0x20 ADD PUSH0 KECCAK256 PUSH0 ADD SLOAD PUSH2 0x1EB0 SWAP2 SWAP1 PUSH2 0x2B82 JUMP JUMPDEST SWAP1 POP PUSH2 0x1ECF PUSH1 0x8 PUSH0 DUP8 DUP2 MSTORE PUSH1 0x20 ADD SWAP1 DUP2 MSTORE PUSH1 0x20 ADD PUSH0 KECCAK256 PUSH0 ADD SLOAD DUP3 PUSH2 0x125E JUMP JUMPDEST PUSH2 0x1F0E JUMPI PUSH1 0x40 MLOAD PUSH32 0x8C379A000000000000000000000000000000000000000000000000000000000 DUP2 MSTORE PUSH1 0x4 ADD PUSH2 0x1F05 SWAP1 PUSH2 0x313A JUMP JUMPDEST PUSH1 0x40 MLOAD DUP1 SWAP2 SUB SWAP1 REVERT JUMPDEST DUP4 PUSH2 0x100 ADD MLOAD PUSH2 0x1F53 JUMPI PUSH1 0x40 MLOAD PUSH32 0x8C379A000000000000000000000000000000000000000000000000000000000 DUP2 MSTORE PUSH1 0x4 ADD PUSH2 0x1F4A SWAP1 PUSH2 0x31A2 JUMP JUMPDEST PUSH1 0x40 MLOAD DUP1 SWAP2 SUB SWAP1 REVERT JUMPDEST DUP4 PUSH1 0xE0 ADD MLOAD ISZERO PUSH2 0x1F98 JUMPI PUSH1 0x40 MLOAD PUSH32 0x8C379A000000000000000000000000000000000000000000000000000000000 DUP2 MSTORE PUSH1 0x4 ADD PUSH2 0x1F8F SWAP1 PUSH2 0x3230 JUMP JUMPDEST PUSH1 0x40 MLOAD DUP1 SWAP2 SUB SWAP1 REVERT JUMPDEST PUSH0 DUP1 DUP5 PUSH20 0xFFFFFFFFFFFFFFFFFFFFFFFFFFFFFFFFFFFFFFFF AND CALLVALUE DUP6 PUSH1 0x40 MLOAD PUSH1 0x24 ADD PUSH1 0x40 MLOAD PUSH1 0x20 DUP2 DUP4 SUB SUB DUP2 MSTORE SWAP1 PUSH1 0x40 MSTORE SWAP1 PUSH1 0x40 MLOAD PUSH2 0x1FD6 SWAP2 SWAP1 PUSH2 0x3288 JUMP JUMPDEST PUSH1 0x40 MLOAD DUP1 SWAP2 SUB SWAP1 KECCAK256 PUSH28 0xFFFFFFFFFFFFFFFFFFFFFFFFFFFFFFFFFFFFFFFFFFFFFFFFFFFFFFFF NOT AND PUSH1 0x20 DUP3 ADD DUP1 MLOAD PUSH28 0xFFFFFFFFFFFFFFFFFFFFFFFFFFFFFFFFFFFFFFFFFFFFFFFFFFFFFFFF DUP4 DUP2 DUP4 AND OR DUP4 MSTORE POP POP POP POP PUSH1 0x40 MLOAD PUSH2 0x2038 SWAP2 SWAP1 PUSH2 0x32E2 JUMP JUMPDEST PUSH0 PUSH1 0x40 MLOAD DUP1 DUP4 SUB DUP2 DUP6 DUP8 GAS CALL SWAP3 POP POP POP RETURNDATASIZE DUP1 PUSH0 DUP2 EQ PUSH2 0x2072 JUMPI PUSH1 0x40 MLOAD SWAP2 POP PUSH1 0x1F NOT PUSH1 0x3F RETURNDATASIZE ADD AND DUP3 ADD PUSH1 0x40 MSTORE RETURNDATASIZE DUP3 MSTORE RETURNDATASIZE PUSH0 PUSH1 0x20 DUP5 ADD RETURNDATACOPY PUSH2 0x2077 JUMP JUMPDEST PUSH1 0x60 SWAP2 POP JUMPDEST POP SWAP2 POP SWAP2 POP DUP2 PUSH2 0x20BC JUMPI PUSH1 0x40 MLOAD PUSH32 0x8C379A000000000000000000000000000000000000000000000000000000000 DUP2 MSTORE PUSH1 0x4 ADD PUSH2 0x20B3 SWAP1 PUSH2 0x3342 JUMP JUMPDEST PUSH1 0x40 MLOAD DUP1 SWAP2 SUB SWAP1 REVERT JUMPDEST DUP1 DUP1 PUSH1 0x20 ADD SWAP1 MLOAD DUP2 ADD SWAP1 PUSH2 0x20D0 SWAP2 SWAP1 PUSH2 0x2CF6 JUMP JUMPDEST PUSH1 0x3 DUP2 SWAP1 SSTORE POP DUP2 DUP7 PUSH1 0xE0 ADD SWAP1 ISZERO ISZERO SWAP1 DUP2 ISZERO ISZERO DUP2 MSTORE POP POP PUSH32 0xEDFE6669A74A00073A8789CBC880CFB813B394B54C7D0702966AB1099DAFF7B9 DUP7 PUSH1 0x20 ADD MLOAD DUP9 DUP5 PUSH1 0x40 MLOAD PUSH2 0x211D SWAP4 SWAP3 SWAP2 SWAP1 PUSH2 0x3360 JUMP JUMPDEST PUSH1 0x40 MLOAD DUP1 SWAP2 SUB SWAP1 LOG1 POP POP POP POP POP POP POP JUMP JUMPDEST PUSH1 0x2 PUSH0 SWAP1 SLOAD SWAP1 PUSH2 0x100 EXP SWAP1 DIV PUSH20 0xFFFFFFFFFFFFFFFFFFFFFFFFFFFFFFFFFFFFFFFF AND DUP2 JUMP JUMPDEST PUSH1 0x40 MLOAD DUP1 PUSH1 0x40 ADD PUSH1 0x40 MSTORE DUP1 DUP3 DUP2 MSTORE PUSH1 0x20 ADD PUSH1 0x1 ISZERO ISZERO DUP2 MSTORE POP PUSH1 0x6 PUSH0 CALLER PUSH20 0xFFFFFFFFFFFFFFFFFFFFFFFFFFFFFFFFFFFFFFFF AND PUSH20 0xFFFFFFFFFFFFFFFFFFFFFFFFFFFFFFFFFFFFFFFF AND DUP2 MSTORE PUSH1 0x20 ADD SWAP1 DUP2 MSTORE PUSH1 0x20 ADD PUSH0 KECCAK256 PUSH0 DUP3 ADD MLOAD DUP2 PUSH0 ADD SWAP1 DUP2 PUSH2 0x21BB SWAP2 SWAP1 PUSH2 0x3001 JUMP JUMPDEST POP PUSH1 0x20 DUP3 ADD MLOAD DUP2 PUSH1 0x1 ADD PUSH0 PUSH2 0x100 EXP DUP2 SLOAD DUP2 PUSH1 0xFF MUL NOT AND SWAP1 DUP4 ISZERO ISZERO MUL OR SWAP1 SSTORE POP SWAP1 POP POP CALLER PUSH20 0xFFFFFFFFFFFFFFFFFFFFFFFFFFFFFFFFFFFFFFFF AND PUSH32 0xCB02C8E65F4AD1B53D5AD3ED25B4AE62E352A90A7C3F6BA3A49235E22DDF5FD0 PUSH1 0x40 MLOAD PUSH1 0x40 MLOAD DUP1 SWAP2 SUB SWAP1 LOG2 POP JUMP JUMPDEST PUSH1 0x6 PUSH1 0x20 MSTORE DUP1 PUSH0 MSTORE PUSH1 0x40 PUSH0 KECCAK256 PUSH0 SWAP2 POP SWAP1 POP DUP1 PUSH0 ADD DUP1 SLOAD PUSH2 0x2243 SWAP1 PUSH2 0x2BE2 JUMP JUMPDEST DUP1 PUSH1 0x1F ADD PUSH1 0x20 DUP1 SWAP2 DIV MUL PUSH1 0x20 ADD PUSH1 0x40 MLOAD SWAP1 DUP2 ADD PUSH1 0x40 MSTORE DUP1 SWAP3 SWAP2 SWAP1 DUP2 DUP2 MSTORE PUSH1 0x20 ADD DUP3 DUP1 SLOAD PUSH2 0x226F SWAP1 PUSH2 0x2BE2 JUMP JUMPDEST DUP1 ISZERO PUSH2 0x22BA JUMPI DUP1 PUSH1 0x1F LT PUSH2 0x2291 JUMPI PUSH2 0x100 DUP1 DUP4 SLOAD DIV MUL DUP4 MSTORE SWAP2 PUSH1 0x20 ADD SWAP2 PUSH2 0x22BA JUMP JUMPDEST DUP3 ADD SWAP2 SWAP1 PUSH0 MSTORE PUSH1 0x20 PUSH0 KECCAK256 SWAP1 JUMPDEST DUP2 SLOAD DUP2 MSTORE SWAP1 PUSH1 0x1 ADD SWAP1 PUSH1 0x20 ADD DUP1 DUP4 GT PUSH2 0x229D JUMPI DUP3 SWAP1 SUB PUSH1 0x1F AND DUP3 ADD SWAP2 JUMPDEST POP POP POP POP POP SWAP1 DUP1 PUSH1 0x1 ADD PUSH0 SWAP1 SLOAD SWAP1 PUSH2 0x100 EXP SWAP1 DIV PUSH1 0xFF AND SWAP1 POP DUP3 JUMP JUMPDEST PUSH0 DUP1 DUP4 DUP6 MUL SWAP1 POP PUSH0 DUP1 NOT DUP6 DUP8 MULMOD DUP3 DUP2 LT DUP4 DUP3 SUB SUB SWAP2 POP POP PUSH0 DUP2 SUB PUSH2 0x230E JUMPI DUP4 DUP3 DUP2 PUSH2 0x2304 JUMPI PUSH2 0x2303 PUSH2 0x339C JUMP JUMPDEST JUMPDEST DIV SWAP3 POP POP POP PUSH2 0x23CE JUMP JUMPDEST DUP1 DUP5 GT PUSH2 0x2347 JUMPI PUSH1 0x40 MLOAD PUSH32 0x227BC15300000000000000000000000000000000000000000000000000000000 DUP2 MSTORE PUSH1 0x4 ADD PUSH1 0x40 MLOAD DUP1 SWAP2 SUB SWAP1 REVERT JUMPDEST PUSH0 DUP5 DUP7 DUP9 MULMOD SWAP1 POP DUP3 DUP2 GT DUP3 SUB SWAP2 POP DUP1 DUP4 SUB SWAP3 POP PUSH0 DUP6 PUSH0 SUB DUP7 AND SWAP1 POP DUP1 DUP7 DIV SWAP6 POP DUP1 DUP5 DIV SWAP4 POP PUSH1 0x1 DUP2 DUP3 PUSH0 SUB DIV ADD SWAP1 POP DUP1 DUP4 MUL DUP5 OR SWAP4 POP PUSH0 PUSH1 0x2 DUP8 PUSH1 0x3 MUL XOR SWAP1 POP DUP1 DUP8 MUL PUSH1 0x2 SUB DUP2 MUL SWAP1 POP DUP1 DUP8 MUL PUSH1 0x2 SUB DUP2 MUL SWAP1 POP DUP1 DUP8 MUL PUSH1 0x2 SUB DUP2 MUL SWAP1 POP DUP1 DUP8 MUL PUSH1 0x2 SUB DUP2 MUL SWAP1 POP DUP1 DUP8 MUL PUSH1 0x2 SUB DUP2 MUL SWAP1 POP DUP1 DUP8 MUL PUSH1 0x2 SUB DUP2 MUL SWAP1 POP DUP1 DUP6 MUL SWAP6 POP POP POP POP POP POP JUMPDEST SWAP4 SWAP3 POP POP POP JUMP JUMPDEST PUSH1 0x40 MLOAD DUP1 PUSH2 0x120 ADD PUSH1 0x40 MSTORE DUP1 PUSH0 DUP2 MSTORE PUSH1 0x20 ADD PUSH1 0x60 DUP2 MSTORE PUSH1 0x20 ADD PUSH0 PUSH20 0xFFFFFFFFFFFFFFFFFFFFFFFFFFFFFFFFFFFFFFFF AND DUP2 MSTORE PUSH1 0x20 ADD PUSH1 0x60 DUP2 MSTORE PUSH1 0x20 ADD PUSH0 PUSH20 0xFFFFFFFFFFFFFFFFFFFFFFFFFFFFFFFFFFFFFFFF AND DUP2 MSTORE PUSH1 0x20 ADD PUSH1 0x60 DUP2 MSTORE PUSH1 0x20 ADD PUSH0 DUP2 MSTORE PUSH1 0x20 ADD PUSH0 ISZERO ISZERO DUP2 MSTORE PUSH1 0x20 ADD PUSH0 ISZERO ISZERO DUP2 MSTORE POP SWAP1 JUMP JUMPDEST PUSH0 PUSH1 0x40 MLOAD SWAP1 POP SWAP1 JUMP JUMPDEST PUSH0 DUP1 REVERT JUMPDEST PUSH0 DUP1 REVERT JUMPDEST PUSH0 PUSH20 0xFFFFFFFFFFFFFFFFFFFFFFFFFFFFFFFFFFFFFFFF DUP3 AND SWAP1 POP SWAP2 SWAP1 POP JUMP JUMPDEST PUSH0 PUSH2 0x2485 DUP3 PUSH2 0x245C JUMP JUMPDEST SWAP1 POP SWAP2 SWAP1 POP JUMP JUMPDEST PUSH2 0x2495 DUP2 PUSH2 0x247B JUMP JUMPDEST DUP2 EQ PUSH2 0x249F JUMPI PUSH0 DUP1 REVERT JUMPDEST POP JUMP JUMPDEST PUSH0 DUP2 CALLDATALOAD SWAP1 POP PUSH2 0x24B0 DUP2 PUSH2 0x248C JUMP JUMPDEST SWAP3 SWAP2 POP POP JUMP JUMPDEST PUSH0 PUSH1 0x20 DUP3 DUP5 SUB SLT ISZERO PUSH2 0x24CB JUMPI PUSH2 0x24CA PUSH2 0x2454 JUMP JUMPDEST JUMPDEST PUSH0 PUSH2 0x24D8 DUP5 DUP3 DUP6 ADD PUSH2 0x24A2 JUMP JUMPDEST SWAP2 POP POP SWAP3 SWAP2 POP POP JUMP JUMPDEST PUSH0 DUP2 SWAP1 POP SWAP2 SWAP1 POP JUMP JUMPDEST PUSH2 0x24F3 DUP2 PUSH2 0x24E1 JUMP JUMPDEST DUP2 EQ PUSH2 0x24FD JUMPI PUSH0 DUP1 REVERT JUMPDEST POP JUMP JUMPDEST PUSH0 DUP2 CALLDATALOAD SWAP1 POP PUSH2 0x250E DUP2 PUSH2 0x24EA JUMP JUMPDEST SWAP3 SWAP2 POP POP JUMP JUMPDEST PUSH0 DUP2 ISZERO ISZERO SWAP1 POP SWAP2 SWAP1 POP JUMP JUMPDEST PUSH2 0x2528 DUP2 PUSH2 0x2514 JUMP JUMPDEST DUP2 EQ PUSH2 0x2532 JUMPI PUSH0 DUP1 REVERT JUMPDEST POP JUMP JUMPDEST PUSH0 DUP2 CALLDATALOAD SWAP1 POP PUSH2 0x2543 DUP2 PUSH2 0x251F JUMP JUMPDEST SWAP3 SWAP2 POP POP JUMP JUMPDEST PUSH0 DUP1 PUSH1 0x40 DUP4 DUP6 SUB SLT ISZERO PUSH2 0x255F JUMPI PUSH2 0x255E PUSH2 0x2454 JUMP JUMPDEST JUMPDEST PUSH0 PUSH2 0x256C DUP6 DUP3 DUP7 ADD PUSH2 0x2500 JUMP JUMPDEST SWAP3 POP POP PUSH1 0x20 PUSH2 0x257D DUP6 DUP3 DUP7 ADD PUSH2 0x2535 JUMP JUMPDEST SWAP2 POP POP SWAP3 POP SWAP3 SWAP1 POP JUMP JUMPDEST PUSH2 0x2590 DUP2 PUSH2 0x24E1 JUMP JUMPDEST DUP3 MSTORE POP POP JUMP JUMPDEST PUSH0 PUSH1 0x20 DUP3 ADD SWAP1 POP PUSH2 0x25A9 PUSH0 DUP4 ADD DUP5 PUSH2 0x2587 JUMP JUMPDEST SWAP3 SWAP2 POP POP JUMP JUMPDEST PUSH0 PUSH1 0x20 DUP3 DUP5 SUB SLT ISZERO PUSH2 0x25C4 JUMPI PUSH2 0x25C3 PUSH2 0x2454 JUMP JUMPDEST JUMPDEST PUSH0 PUSH2 0x25D1 DUP5 DUP3 DUP6 ADD PUSH2 0x2500 JUMP JUMPDEST SWAP2 POP POP SWAP3 SWAP2 POP POP JUMP JUMPDEST PUSH0 DUP1 PUSH1 0x40 DUP4 DUP6 SUB SLT ISZERO PUSH2 0x25F0 JUMPI PUSH2 0x25EF PUSH2 0x2454 JUMP JUMPDEST JUMPDEST PUSH0 PUSH2 0x25FD DUP6 DUP3 DUP7 ADD PUSH2 0x2500 JUMP JUMPDEST SWAP3 POP POP PUSH1 0x20 PUSH2 0x260E DUP6 DUP3 DUP7 ADD PUSH2 0x2500 JUMP JUMPDEST SWAP2 POP POP SWAP3 POP SWAP3 SWAP1 POP JUMP JUMPDEST PUSH2 0x2621 DUP2 PUSH2 0x2514 JUMP JUMPDEST DUP3 MSTORE POP POP JUMP JUMPDEST PUSH0 PUSH1 0x20 DUP3 ADD SWAP1 POP PUSH2 0x263A PUSH0 DUP4 ADD DUP5 PUSH2 0x2618 JUMP JUMPDEST SWAP3 SWAP2 POP POP JUMP JUMPDEST PUSH0 DUP1 PUSH1 0x40 DUP4 DUP6 SUB SLT ISZERO PUSH2 0x2656 JUMPI PUSH2 0x2655 PUSH2 0x2454 JUMP JUMPDEST JUMPDEST PUSH0 PUSH2 0x2663 DUP6 DUP3 DUP7 ADD PUSH2 0x24A2 JUMP JUMPDEST SWAP3 POP POP PUSH1 0x20 PUSH2 0x2674 DUP6 DUP3 DUP7 ADD PUSH2 0x2500 JUMP JUMPDEST SWAP2 POP POP SWAP3 POP SWAP3 SWAP1 POP JUMP JUMPDEST PUSH0 PUSH1 0x60 DUP3 ADD SWAP1 POP PUSH2 0x2691 PUSH0 DUP4 ADD DUP7 PUSH2 0x2587 JUMP JUMPDEST PUSH2 0x269E PUSH1 0x20 DUP4 ADD DUP6 PUSH2 0x2618 JUMP JUMPDEST PUSH2 0x26AB PUSH1 0x40 DUP4 ADD DUP5 PUSH2 0x2618 JUMP JUMPDEST SWAP5 SWAP4 POP POP POP POP JUMP JUMPDEST PUSH0 DUP2 MLOAD SWAP1 POP SWAP2 SWAP1 POP JUMP JUMPDEST PUSH0 DUP3 DUP3 MSTORE PUSH1 0x20 DUP3 ADD SWAP1 POP SWAP3 SWAP2 POP POP JUMP JUMPDEST PUSH0 JUMPDEST DUP4 DUP2 LT ISZERO PUSH2 0x26EA JUMPI DUP1 DUP3 ADD MLOAD DUP2 DUP5 ADD MSTORE PUSH1 0x20 DUP2 ADD SWAP1 POP PUSH2 0x26CF JUMP JUMPDEST PUSH0 DUP5 DUP5 ADD MSTORE POP POP POP POP JUMP JUMPDEST PUSH0 PUSH1 0x1F NOT PUSH1 0x1F DUP4 ADD AND SWAP1 POP SWAP2 SWAP1 POP JUMP JUMPDEST PUSH0 PUSH2 0x270F DUP3 PUSH2 0x26B3 JUMP JUMPDEST PUSH2 0x2719 DUP2 DUP6 PUSH2 0x26BD JUMP JUMPDEST SWAP4 POP PUSH2 0x2729 DUP2 DUP6 PUSH1 0x20 DUP7 ADD PUSH2 0x26CD JUMP JUMPDEST PUSH2 0x2732 DUP2 PUSH2 0x26F5 JUMP JUMPDEST DUP5 ADD SWAP2 POP POP SWAP3 SWAP2 POP POP JUMP JUMPDEST PUSH2 0x2746 DUP2 PUSH2 0x247B JUMP JUMPDEST DUP3 MSTORE POP POP JUMP JUMPDEST PUSH0 PUSH2 0x120 DUP3 ADD SWAP1 POP PUSH2 0x2760 PUSH0 DUP4 ADD DUP13 PUSH2 0x2587 JUMP JUMPDEST DUP2 DUP2 SUB PUSH1 0x20 DUP4 ADD MSTORE PUSH2 0x2772 DUP2 DUP12 PUSH2 0x2705 JUMP JUMPDEST SWAP1 POP PUSH2 0x2781 PUSH1 0x40 DUP4 ADD DUP11 PUSH2 0x273D JUMP JUMPDEST DUP2 DUP2 SUB PUSH1 0x60 DUP4 ADD MSTORE PUSH2 0x2793 DUP2 DUP10 PUSH2 0x2705 JUMP JUMPDEST SWAP1 POP PUSH2 0x27A2 PUSH1 0x80 DUP4 ADD DUP9 PUSH2 0x273D JUMP JUMPDEST DUP2 DUP2 SUB PUSH1 0xA0 DUP4 ADD MSTORE PUSH2 0x27B4 DUP2 DUP8 PUSH2 0x2705 JUMP JUMPDEST SWAP1 POP PUSH2 0x27C3 PUSH1 0xC0 DUP4 ADD DUP7 PUSH2 0x2587 JUMP JUMPDEST PUSH2 0x27D0 PUSH1 0xE0 DUP4 ADD DUP6 PUSH2 0x2618 JUMP JUMPDEST PUSH2 0x27DE PUSH2 0x100 DUP4 ADD DUP5 PUSH2 0x2618 JUMP JUMPDEST SWAP11 SWAP10 POP POP POP POP POP POP POP POP POP POP JUMP JUMPDEST PUSH0 PUSH1 0x40 DUP3 ADD SWAP1 POP PUSH2 0x27FF PUSH0 DUP4 ADD DUP6 PUSH2 0x2587 JUMP JUMPDEST PUSH2 0x280C PUSH1 0x20 DUP4 ADD DUP5 PUSH2 0x2587 JUMP JUMPDEST SWAP4 SWAP3 POP POP POP JUMP JUMPDEST PUSH0 PUSH1 0x60 DUP3 ADD SWAP1 POP PUSH2 0x2826 PUSH0 DUP4 ADD DUP7 PUSH2 0x2618 JUMP JUMPDEST PUSH2 0x2833 PUSH1 0x20 DUP4 ADD DUP6 PUSH2 0x2587 JUMP JUMPDEST PUSH2 0x2840 PUSH1 0x40 DUP4 ADD DUP5 PUSH2 0x2587 JUMP JUMPDEST SWAP5 SWAP4 POP POP POP POP JUMP JUMPDEST PUSH0 DUP1 REVERT JUMPDEST PUSH0 DUP1 REVERT JUMPDEST PUSH32 0x4E487B7100000000000000000000000000000000000000000000000000000000 PUSH0 MSTORE PUSH1 0x41 PUSH1 0x4 MSTORE PUSH1 0x24 PUSH0 REVERT JUMPDEST PUSH2 0x2886 DUP3 PUSH2 0x26F5 JUMP JUMPDEST DUP2 ADD DUP2 DUP2 LT PUSH8 0xFFFFFFFFFFFFFFFF DUP3 GT OR ISZERO PUSH2 0x28A5 JUMPI PUSH2 0x28A4 PUSH2 0x2850 JUMP JUMPDEST JUMPDEST DUP1 PUSH1 0x40 MSTORE POP POP POP JUMP JUMPDEST PUSH0 PUSH2 0x28B7 PUSH2 0x244B JUMP JUMPDEST SWAP1 POP PUSH2 0x28C3 DUP3 DUP3 PUSH2 0x287D JUMP JUMPDEST SWAP2 SWAP1 POP JUMP JUMPDEST PUSH0 PUSH8 0xFFFFFFFFFFFFFFFF DUP3 GT ISZERO PUSH2 0x28E2 JUMPI PUSH2 0x28E1 PUSH2 0x2850 JUMP JUMPDEST JUMPDEST PUSH2 0x28EB DUP3 PUSH2 0x26F5 JUMP JUMPDEST SWAP1 POP PUSH1 0x20 DUP2 ADD SWAP1 POP SWAP2 SWAP1 POP JUMP JUMPDEST DUP3 DUP2 DUP4 CALLDATACOPY PUSH0 DUP4 DUP4 ADD MSTORE POP POP POP JUMP JUMPDEST PUSH0 PUSH2 0x2918 PUSH2 0x2913 DUP5 PUSH2 0x28C8 JUMP JUMPDEST PUSH2 0x28AE JUMP JUMPDEST SWAP1 POP DUP3 DUP2 MSTORE PUSH1 0x20 DUP2 ADD DUP5 DUP5 DUP5 ADD GT ISZERO PUSH2 0x2934 JUMPI PUSH2 0x2933 PUSH2 0x284C JUMP JUMPDEST JUMPDEST PUSH2 0x293F DUP5 DUP3 DUP6 PUSH2 0x28F8 JUMP JUMPDEST POP SWAP4 SWAP3 POP POP POP JUMP JUMPDEST PUSH0 DUP3 PUSH1 0x1F DUP4 ADD SLT PUSH2 0x295B JUMPI PUSH2 0x295A PUSH2 0x2848 JUMP JUMPDEST JUMPDEST DUP2 CALLDATALOAD PUSH2 0x296B DUP5 DUP3 PUSH1 0x20 DUP7 ADD PUSH2 0x2906 JUMP JUMPDEST SWAP2 POP POP SWAP3 SWAP2 POP POP JUMP JUMPDEST PUSH0 DUP1 PUSH0 DUP1 PUSH1 0x80 DUP6 DUP8 SUB SLT ISZERO PUSH2 0x298C JUMPI PUSH2 0x298B PUSH2 0x2454 JUMP JUMPDEST JUMPDEST PUSH0 DUP6 ADD CALLDATALOAD PUSH8 0xFFFFFFFFFFFFFFFF DUP2 GT ISZERO PUSH2 0x29A9 JUMPI PUSH2 0x29A8 PUSH2 0x2458 JUMP JUMPDEST JUMPDEST PUSH2 0x29B5 DUP8 DUP3 DUP9 ADD PUSH2 0x2947 JUMP JUMPDEST SWAP5 POP POP PUSH1 0x20 DUP6 ADD CALLDATALOAD PUSH8 0xFFFFFFFFFFFFFFFF DUP2 GT ISZERO PUSH2 0x29D6 JUMPI PUSH2 0x29D5 PUSH2 0x2458 JUMP JUMPDEST JUMPDEST PUSH2 0x29E2 DUP8 DUP3 DUP9 ADD PUSH2 0x2947 JUMP JUMPDEST SWAP4 POP POP PUSH1 0x40 PUSH2 0x29F3 DUP8 DUP3 DUP9 ADD PUSH2 0x24A2 JUMP JUMPDEST SWAP3 POP POP PUSH1 0x60 DUP6 ADD CALLDATALOAD PUSH8 0xFFFFFFFFFFFFFFFF DUP2 GT ISZERO PUSH2 0x2A14 JUMPI PUSH2 0x2A13 PUSH2 0x2458 JUMP JUMPDEST JUMPDEST PUSH2 0x2A20 DUP8 DUP3 DUP9 ADD PUSH2 0x2947 JUMP JUMPDEST SWAP2 POP POP SWAP3 SWAP6 SWAP2 SWAP5 POP SWAP3 POP JUMP JUMPDEST PUSH0 PUSH1 0x20 DUP3 ADD SWAP1 POP PUSH2 0x2A3F PUSH0 DUP4 ADD DUP5 PUSH2 0x273D JUMP JUMPDEST SWAP3 SWAP2 POP POP JUMP JUMPDEST PUSH0 PUSH1 0x20 DUP3 DUP5 SUB SLT ISZERO PUSH2 0x2A5A JUMPI PUSH2 0x2A59 PUSH2 0x2454 JUMP JUMPDEST JUMPDEST PUSH0 DUP3 ADD CALLDATALOAD PUSH8 0xFFFFFFFFFFFFFFFF DUP2 GT ISZERO PUSH2 0x2A77 JUMPI PUSH2 0x2A76 PUSH2 0x2458 JUMP JUMPDEST JUMPDEST PUSH2 0x2A83 DUP5 DUP3 DUP6 ADD PUSH2 0x2947 JUMP JUMPDEST SWAP2 POP POP SWAP3 SWAP2 POP POP JUMP JUMPDEST PUSH0 PUSH1 0x40 DUP3 ADD SWAP1 POP DUP2 DUP2 SUB PUSH0 DUP4 ADD MSTORE PUSH2 0x2AA4 DUP2 DUP6 PUSH2 0x2705 JUMP JUMPDEST SWAP1 POP PUSH2 0x2AB3 PUSH1 0x20 DUP4 ADD DUP5 PUSH2 0x2618 JUMP JUMPDEST SWAP4 SWAP3 POP POP POP JUMP JUMPDEST PUSH32 0x4143434553532044454E49454421000000000000000000000000000000000000 PUSH0 DUP3 ADD MSTORE POP JUMP JUMPDEST PUSH0 PUSH2 0x2AEE PUSH1 0xE DUP4 PUSH2 0x26BD JUMP JUMPDEST SWAP2 POP PUSH2 0x2AF9 DUP3 PUSH2 0x2ABA JUMP JUMPDEST PUSH1 0x20 DUP3 ADD SWAP1 POP SWAP2 SWAP1 POP JUMP JUMPDEST PUSH0 PUSH1 0x20 DUP3 ADD SWAP1 POP DUP2 DUP2 SUB PUSH0 DUP4 ADD MSTORE PUSH2 0x2B1B DUP2 PUSH2 0x2AE2 JUMP JUMPDEST SWAP1 POP SWAP2 SWAP1 POP JUMP JUMPDEST PUSH32 0x4E487B7100000000000000000000000000000000000000000000000000000000 PUSH0 MSTORE PUSH1 0x11 PUSH1 0x4 MSTORE PUSH1 0x24 PUSH0 REVERT JUMPDEST PUSH0 PUSH2 0x2B59 DUP3 PUSH2 0x24E1 JUMP JUMPDEST SWAP2 POP PUSH2 0x2B64 DUP4 PUSH2 0x24E1 JUMP JUMPDEST SWAP3 POP DUP3 DUP3 SUB SWAP1 POP DUP2 DUP2 GT ISZERO PUSH2 0x2B7C JUMPI PUSH2 0x2B7B PUSH2 0x2B22 JUMP JUMPDEST JUMPDEST SWAP3 SWAP2 POP POP JUMP JUMPDEST PUSH0 PUSH2 0x2B8C DUP3 PUSH2 0x24E1 JUMP JUMPDEST SWAP2 POP PUSH2 0x2B97 DUP4 PUSH2 0x24E1 JUMP JUMPDEST SWAP3 POP DUP3 DUP3 ADD SWAP1 POP DUP1 DUP3 GT ISZERO PUSH2 0x2BAF JUMPI PUSH2 0x2BAE PUSH2 0x2B22 JUMP JUMPDEST JUMPDEST SWAP3 SWAP2 POP POP JUMP JUMPDEST PUSH32 0x4E487B7100000000000000000000000000000000000000000000000000000000 PUSH0 MSTORE PUSH1 0x22 PUSH1 0x4 MSTORE PUSH1 0x24 PUSH0 REVERT JUMPDEST PUSH0 PUSH1 0x2 DUP3 DIV SWAP1 POP PUSH1 0x1 DUP3 AND DUP1 PUSH2 0x2BF9 JUMPI PUSH1 0x7F DUP3 AND SWAP2 POP JUMPDEST PUSH1 0x20 DUP3 LT DUP2 SUB PUSH2 0x2C0C JUMPI PUSH2 0x2C0B PUSH2 0x2BB5 JUMP JUMPDEST JUMPDEST POP SWAP2 SWAP1 POP JUMP JUMPDEST PUSH32 0x4E4F542041204D454D4245520000000000000000000000000000000000000000 PUSH0 DUP3 ADD MSTORE POP JUMP JUMPDEST PUSH0 PUSH2 0x2C46 PUSH1 0xC DUP4 PUSH2 0x26BD JUMP JUMPDEST SWAP2 POP PUSH2 0x2C51 DUP3 PUSH2 0x2C12 JUMP JUMPDEST PUSH1 0x20 DUP3 ADD SWAP1 POP SWAP2 SWAP1 POP JUMP JUMPDEST PUSH0 PUSH1 0x20 DUP3 ADD SWAP1 POP DUP2 DUP2 SUB PUSH0 DUP4 ADD MSTORE PUSH2 0x2C73 DUP2 PUSH2 0x2C3A JUMP JUMPDEST SWAP1 POP SWAP2 SWAP1 POP JUMP JUMPDEST PUSH32 0x564F54494E4720504552494F442048415320454C415053454400000000000000 PUSH0 DUP3 ADD MSTORE POP JUMP JUMPDEST PUSH0 PUSH2 0x2CAE PUSH1 0x19 DUP4 PUSH2 0x26BD JUMP JUMPDEST SWAP2 POP PUSH2 0x2CB9 DUP3 PUSH2 0x2C7A JUMP JUMPDEST PUSH1 0x20 DUP3 ADD SWAP1 POP SWAP2 SWAP1 POP JUMP JUMPDEST PUSH0 PUSH1 0x20 DUP3 ADD SWAP1 POP DUP2 DUP2 SUB PUSH0 DUP4 ADD MSTORE PUSH2 0x2CDB DUP2 PUSH2 0x2CA2 JUMP JUMPDEST SWAP1 POP SWAP2 SWAP1 POP JUMP JUMPDEST PUSH0 DUP2 MLOAD SWAP1 POP PUSH2 0x2CF0 DUP2 PUSH2 0x24EA JUMP JUMPDEST SWAP3 SWAP2 POP POP JUMP JUMPDEST PUSH0 PUSH1 0x20 DUP3 DUP5 SUB SLT ISZERO PUSH2 0x2D0B JUMPI PUSH2 0x2D0A PUSH2 0x2454 JUMP JUMPDEST JUMPDEST PUSH0 PUSH2 0x2D18 DUP5 DUP3 DUP6 ADD PUSH2 0x2CE2 JUMP JUMPDEST SWAP2 POP POP SWAP3 SWAP2 POP POP JUMP JUMPDEST PUSH32 0x594F55204D55535420504F5353455320544F4B454E7320544F20424520414E20 PUSH0 DUP3 ADD MSTORE PUSH32 0x454C494749424C4520564F544552000000000000000000000000000000000000 PUSH1 0x20 DUP3 ADD MSTORE POP JUMP JUMPDEST PUSH0 PUSH2 0x2D7B PUSH1 0x2E DUP4 PUSH2 0x26BD JUMP JUMPDEST SWAP2 POP PUSH2 0x2D86 DUP3 PUSH2 0x2D21 JUMP JUMPDEST PUSH1 0x40 DUP3 ADD SWAP1 POP SWAP2 SWAP1 POP JUMP JUMPDEST PUSH0 PUSH1 0x20 DUP3 ADD SWAP1 POP DUP2 DUP2 SUB PUSH0 DUP4 ADD MSTORE PUSH2 0x2DA8 DUP2 PUSH2 0x2D6F JUMP JUMPDEST SWAP1 POP SWAP2 SWAP1 POP JUMP JUMPDEST PUSH32 0x4D454D424552532043414E204F4E4C592043415354204120564F544520504552 PUSH0 DUP3 ADD MSTORE PUSH32 0x20544F5049430000000000000000000000000000000000000000000000000000 PUSH1 0x20 DUP3 ADD MSTORE POP JUMP JUMPDEST PUSH0 PUSH2 0x2E09 PUSH1 0x26 DUP4 PUSH2 0x26BD JUMP JUMPDEST SWAP2 POP PUSH2 0x2E14 DUP3 PUSH2 0x2DAF JUMP JUMPDEST PUSH1 0x40 DUP3 ADD SWAP1 POP SWAP2 SWAP1 POP JUMP JUMPDEST PUSH0 PUSH1 0x20 DUP3 ADD SWAP1 POP DUP2 DUP2 SUB PUSH0 DUP4 ADD MSTORE PUSH2 0x2E36 DUP2 PUSH2 0x2DFD JUMP JUMPDEST SWAP1 POP SWAP2 SWAP1 POP JUMP JUMPDEST PUSH0 PUSH1 0x40 DUP3 ADD SWAP1 POP PUSH2 0x2E50 PUSH0 DUP4 ADD DUP6 PUSH2 0x2587 JUMP JUMPDEST PUSH2 0x2E5D PUSH1 0x20 DUP4 ADD DUP5 PUSH2 0x2618 JUMP JUMPDEST SWAP4 SWAP3 POP POP POP JUMP JUMPDEST PUSH0 DUP2 SWAP1 POP DUP2 PUSH0 MSTORE PUSH1 0x20 PUSH0 KECCAK256 SWAP1 POP SWAP2 SWAP1 POP JUMP JUMPDEST PUSH0 PUSH1 0x20 PUSH1 0x1F DUP4 ADD DIV SWAP1 POP SWAP2 SWAP1 POP JUMP JUMPDEST PUSH0 DUP3 DUP3 SHL SWAP1 POP SWAP3 SWAP2 POP POP JUMP JUMPDEST PUSH0 PUSH1 0x8 DUP4 MUL PUSH2 0x2EC0 PUSH32 0xFFFFFFFFFFFFFFFFFFFFFFFFFFFFFFFFFFFFFFFFFFFFFFFFFFFFFFFFFFFFFFFF DUP3 PUSH2 0x2E85 JUMP JUMPDEST PUSH2 0x2ECA DUP7 DUP4 PUSH2 0x2E85 JUMP JUMPDEST SWAP6 POP DUP1 NOT DUP5 AND SWAP4 POP DUP1 DUP7 AND DUP5 OR SWAP3 POP POP POP SWAP4 SWAP3 POP POP POP JUMP JUMPDEST PUSH0 DUP2 SWAP1 POP SWAP2 SWAP1 POP JUMP JUMPDEST PUSH0 PUSH2 0x2F05 PUSH2 0x2F00 PUSH2 0x2EFB DUP5 PUSH2 0x24E1 JUMP JUMPDEST PUSH2 0x2EE2 JUMP JUMPDEST PUSH2 0x24E1 JUMP JUMPDEST SWAP1 POP SWAP2 SWAP1 POP JUMP JUMPDEST PUSH0 DUP2 SWAP1 POP SWAP2 SWAP1 POP JUMP JUMPDEST PUSH2 0x2F1E DUP4 PUSH2 0x2EEB JUMP JUMPDEST PUSH2 0x2F32 PUSH2 0x2F2A DUP3 PUSH2 0x2F0C JUMP JUMPDEST DUP5 DUP5 SLOAD PUSH2 0x2E91 JUMP JUMPDEST DUP3 SSTORE POP POP POP POP JUMP JUMPDEST PUSH0 SWAP1 JUMP JUMPDEST PUSH2 0x2F46 PUSH2 0x2F3A JUMP JUMPDEST PUSH2 0x2F51 DUP2 DUP5 DUP5 PUSH2 0x2F15 JUMP JUMPDEST POP POP POP JUMP JUMPDEST JUMPDEST DUP2 DUP2 LT ISZERO PUSH2 0x2F74 JUMPI PUSH2 0x2F69 PUSH0 DUP3 PUSH2 0x2F3E JUMP JUMPDEST PUSH1 0x1 DUP2 ADD SWAP1 POP PUSH2 0x2F57 JUMP JUMPDEST POP POP JUMP JUMPDEST PUSH1 0x1F DUP3 GT ISZERO PUSH2 0x2FB9 JUMPI PUSH2 0x2F8A DUP2 PUSH2 0x2E64 JUMP JUMPDEST PUSH2 0x2F93 DUP5 PUSH2 0x2E76 JUMP JUMPDEST DUP2 ADD PUSH1 0x20 DUP6 LT ISZERO PUSH2 0x2FA2 JUMPI DUP2 SWAP1 POP JUMPDEST PUSH2 0x2FB6 PUSH2 0x2FAE DUP6 PUSH2 0x2E76 JUMP JUMPDEST DUP4 ADD DUP3 PUSH2 0x2F56 JUMP JUMPDEST POP POP JUMPDEST POP POP POP JUMP JUMPDEST PUSH0 DUP3 DUP3 SHR SWAP1 POP SWAP3 SWAP2 POP POP JUMP JUMPDEST PUSH0 PUSH2 0x2FD9 PUSH0 NOT DUP5 PUSH1 0x8 MUL PUSH2 0x2FBE JUMP JUMPDEST NOT DUP1 DUP4 AND SWAP2 POP POP SWAP3 SWAP2 POP POP JUMP JUMPDEST PUSH0 PUSH2 0x2FF1 DUP4 DUP4 PUSH2 0x2FCA JUMP JUMPDEST SWAP2 POP DUP3 PUSH1 0x2 MUL DUP3 OR SWAP1 POP SWAP3 SWAP2 POP POP JUMP JUMPDEST PUSH2 0x300A DUP3 PUSH2 0x26B3 JUMP JUMPDEST PUSH8 0xFFFFFFFFFFFFFFFF DUP2 GT ISZERO PUSH2 0x3023 JUMPI PUSH2 0x3022 PUSH2 0x2850 JUMP JUMPDEST JUMPDEST PUSH2 0x302D DUP3 SLOAD PUSH2 0x2BE2 JUMP JUMPDEST PUSH2 0x3038 DUP3 DUP3 DUP6 PUSH2 0x2F78 JUMP JUMPDEST PUSH0 PUSH1 0x20 SWAP1 POP PUSH1 0x1F DUP4 GT PUSH1 0x1 DUP2 EQ PUSH2 0x3069 JUMPI PUSH0 DUP5 ISZERO PUSH2 0x3057 JUMPI DUP3 DUP8 ADD MLOAD SWAP1 POP JUMPDEST PUSH2 0x3061 DUP6 DUP3 PUSH2 0x2FE6 JUMP JUMPDEST DUP7 SSTORE POP PUSH2 0x30C8 JUMP JUMPDEST PUSH1 0x1F NOT DUP5 AND PUSH2 0x3077 DUP7 PUSH2 0x2E64 JUMP JUMPDEST PUSH0 JUMPDEST DUP3 DUP2 LT ISZERO PUSH2 0x309E JUMPI DUP5 DUP10 ADD MLOAD DUP3 SSTORE PUSH1 0x1 DUP3 ADD SWAP2 POP PUSH1 0x20 DUP6 ADD SWAP5 POP PUSH1 0x20 DUP2 ADD SWAP1 POP PUSH2 0x3079 JUMP JUMPDEST DUP7 DUP4 LT ISZERO PUSH2 0x30BB JUMPI DUP5 DUP10 ADD MLOAD PUSH2 0x30B7 PUSH1 0x1F DUP10 AND DUP3 PUSH2 0x2FCA JUMP JUMPDEST DUP4 SSTORE POP JUMPDEST PUSH1 0x1 PUSH1 0x2 DUP9 MUL ADD DUP9 SSTORE POP POP POP JUMPDEST POP POP POP POP POP POP JUMP JUMPDEST PUSH0 PUSH1 0x20 DUP3 ADD SWAP1 POP DUP2 DUP2 SUB PUSH0 DUP4 ADD MSTORE PUSH2 0x30E8 DUP2 DUP5 PUSH2 0x2705 JUMP JUMPDEST SWAP1 POP SWAP3 SWAP2 POP POP JUMP JUMPDEST PUSH32 0x5448524553484F4C44204E4F5420455843454544454400000000000000000000 PUSH0 DUP3 ADD MSTORE POP JUMP JUMPDEST PUSH0 PUSH2 0x3124 PUSH1 0x16 DUP4 PUSH2 0x26BD JUMP JUMPDEST SWAP2 POP PUSH2 0x312F DUP3 PUSH2 0x30F0 JUMP JUMPDEST PUSH1 0x20 DUP3 ADD SWAP1 POP SWAP2 SWAP1 POP JUMP JUMPDEST PUSH0 PUSH1 0x20 DUP3 ADD SWAP1 POP DUP2 DUP2 SUB PUSH0 DUP4 ADD MSTORE PUSH2 0x3151 DUP2 PUSH2 0x3118 JUMP JUMPDEST SWAP1 POP SWAP2 SWAP1 POP JUMP JUMPDEST PUSH32 0x5448495320544F5049432049532043414E43454C4C4544000000000000000000 PUSH0 DUP3 ADD MSTORE POP JUMP JUMPDEST PUSH0 PUSH2 0x318C PUSH1 0x17 DUP4 PUSH2 0x26BD JUMP JUMPDEST SWAP2 POP PUSH2 0x3197 DUP3 PUSH2 0x3158 JUMP JUMPDEST PUSH1 0x20 DUP3 ADD SWAP1 POP SWAP2 SWAP1 POP JUMP JUMPDEST PUSH0 PUSH1 0x20 DUP3 ADD SWAP1 POP DUP2 DUP2 SUB PUSH0 DUP4 ADD MSTORE PUSH2 0x31B9 DUP2 PUSH2 0x3180 JUMP JUMPDEST SWAP1 POP SWAP2 SWAP1 POP JUMP JUMPDEST PUSH32 0x544F5049432043414E204F4E4C5920424520494D504C454D454E544544204F4E PUSH0 DUP3 ADD MSTORE PUSH32 0x4345000000000000000000000000000000000000000000000000000000000000 PUSH1 0x20 DUP3 ADD MSTORE POP JUMP JUMPDEST PUSH0 PUSH2 0x321A PUSH1 0x22 DUP4 PUSH2 0x26BD JUMP JUMPDEST SWAP2 POP PUSH2 0x3225 DUP3 PUSH2 0x31C0 JUMP JUMPDEST PUSH1 0x40 DUP3 ADD SWAP1 POP SWAP2 SWAP1 POP JUMP JUMPDEST PUSH0 PUSH1 0x20 DUP3 ADD SWAP1 POP DUP2 DUP2 SUB PUSH0 DUP4 ADD MSTORE PUSH2 0x3247 DUP2 PUSH2 0x320E JUMP JUMPDEST SWAP1 POP SWAP2 SWAP1 POP JUMP JUMPDEST PUSH0 DUP2 SWAP1 POP SWAP3 SWAP2 POP POP JUMP JUMPDEST PUSH0 PUSH2 0x3262 DUP3 PUSH2 0x26B3 JUMP JUMPDEST PUSH2 0x326C DUP2 DUP6 PUSH2 0x324E JUMP JUMPDEST SWAP4 POP PUSH2 0x327C DUP2 DUP6 PUSH1 0x20 DUP7 ADD PUSH2 0x26CD JUMP JUMPDEST DUP1 DUP5 ADD SWAP2 POP POP SWAP3 SWAP2 POP POP JUMP JUMPDEST PUSH0 PUSH2 0x3293 DUP3 DUP5 PUSH2 0x3258 JUMP JUMPDEST SWAP2 POP DUP2 SWAP1 POP SWAP3 SWAP2 POP POP JUMP JUMPDEST PUSH0 DUP2 MLOAD SWAP1 POP SWAP2 SWAP1 POP JUMP JUMPDEST PUSH0 DUP2 SWAP1 POP SWAP3 SWAP2 POP POP JUMP JUMPDEST PUSH0 PUSH2 0x32BC DUP3 PUSH2 0x329E JUMP JUMPDEST PUSH2 0x32C6 DUP2 DUP6 PUSH2 0x32A8 JUMP JUMPDEST SWAP4 POP PUSH2 0x32D6 DUP2 DUP6 PUSH1 0x20 DUP7 ADD PUSH2 0x26CD JUMP JUMPDEST DUP1 DUP5 ADD SWAP2 POP POP SWAP3 SWAP2 POP POP JUMP JUMPDEST PUSH0 PUSH2 0x32ED DUP3 DUP5 PUSH2 0x32B2 JUMP JUMPDEST SWAP2 POP DUP2 SWAP1 POP SWAP3 SWAP2 POP POP JUMP JUMPDEST PUSH32 0x4641494C454420544F20494D504C454D454E5400000000000000000000000000 PUSH0 DUP3 ADD MSTORE POP JUMP JUMPDEST PUSH0 PUSH2 0x332C PUSH1 0x13 DUP4 PUSH2 0x26BD JUMP JUMPDEST SWAP2 POP PUSH2 0x3337 DUP3 PUSH2 0x32F8 JUMP JUMPDEST PUSH1 0x20 DUP3 ADD SWAP1 POP SWAP2 SWAP1 POP JUMP JUMPDEST PUSH0 PUSH1 0x20 DUP3 ADD SWAP1 POP DUP2 DUP2 SUB PUSH0 DUP4 ADD MSTORE PUSH2 0x3359 DUP2 PUSH2 0x3320 JUMP JUMPDEST SWAP1 POP SWAP2 SWAP1 POP JUMP JUMPDEST PUSH0 PUSH1 0x60 DUP3 ADD SWAP1 POP DUP2 DUP2 SUB PUSH0 DUP4 ADD MSTORE PUSH2 0x3378 DUP2 DUP7 PUSH2 0x2705 JUMP JUMPDEST SWAP1 POP PUSH2 0x3387 PUSH1 0x20 DUP4 ADD DUP6 PUSH2 0x2587 JUMP JUMPDEST PUSH2 0x3394 PUSH1 0x40 DUP4 ADD DUP5 PUSH2 0x2618 JUMP JUMPDEST SWAP5 SWAP4 POP POP POP POP JUMP JUMPDEST PUSH32 0x4E487B7100000000000000000000000000000000000000000000000000000000 PUSH0 MSTORE PUSH1 0x12 PUSH1 0x4 MSTORE PUSH1 0x24 PUSH0 REVERT INVALID LOG2 PUSH5 0x6970667358 0x22 SLT KECCAK256 0x49 ADD OR PUSH26 0xDC23999EDDFF782EDAD8AE90E1E6D4DD211C837C6E29F12B5D5F PUSH27 0x5864736F6C63430008160033000000000000000000000000000000 "
				},
				"gasEstimates": {
					"creation": {
						"codeDepositCost": "2662200",
						"executionCost": "infinite",
						"totalCost": "infinite"
					},
					"external": {
						"Members(address)": "infinite",
						"Topics(uint256)": "infinite",
						"UPGRADE()": "2694",
						"addAdmin(address)": "infinite",
						"admin(address)": "infinite",
						"agreement_id()": "2493",
						"ballots(address,uint256)": "infinite",
						"cancel_Topic(uint256)": "infinite",
						"cast_vote(uint256,bool)": "infinite",
						"counter()": "2448",
						"implement_decision(uint256)": "infinite",
						"implementation_delay()": "2492",
						"initiate_topic(string,string,address,string)": "infinite",
						"quorum(uint256,uint256)": "infinite",
						"register(string)": "infinite",
						"removeAdmin(address)": "infinite",
						"returned()": "2514",
						"utility_token_address()": "2574",
						"votes(uint256)": "infinite",
						"voting_duration()": "2514"
					}
				},
				"methodIdentifiers": {
					"Members(address)": "fd0f0166",
					"Topics(uint256)": "5bb6d284",
					"UPGRADE()": "37852d99",
					"addAdmin(address)": "70480275",
					"admin(address)": "63a846f8",
					"agreement_id()": "2ae2ee1f",
					"ballots(address,uint256)": "54b598ec",
					"cancel_Topic(uint256)": "33f794b5",
					"cast_vote(uint256,bool)": "1c8dd214",
					"counter()": "61bc221a",
					"implement_decision(uint256)": "a060acfa",
					"implementation_delay()": "67358c96",
					"initiate_topic(string,string,address,string)": "7d1592f3",
					"quorum(uint256,uint256)": "47411226",
					"register(string)": "f2c298be",
					"removeAdmin(address)": "1785f53c",
					"returned()": "6cb76408",
					"utility_token_address()": "a0a67c58",
					"votes(uint256)": "5df81330",
					"voting_duration()": "3153cebc"
				}
			},
			"storageLayout": {
				"storage": [
					{
						"astId": 1674,
						"contract": "backEnd/contracts/BUNN_Governor_Proxy.sol:BUNN_GOVERNOR",
						"label": "voting_duration",
						"offset": 0,
						"slot": "0",
						"type": "t_uint256"
					},
					{
						"astId": 1677,
						"contract": "backEnd/contracts/BUNN_Governor_Proxy.sol:BUNN_GOVERNOR",
						"label": "implementation_delay",
						"offset": 0,
						"slot": "1",
						"type": "t_uint256"
					},
					{
						"astId": 1061,
						"contract": "backEnd/contracts/BUNN_Governor_Proxy.sol:BUNN_GOVERNOR",
						"label": "utility_token_address",
						"offset": 0,
						"slot": "2",
						"type": "t_address"
					},
					{
						"astId": 1063,
						"contract": "backEnd/contracts/BUNN_Governor_Proxy.sol:BUNN_GOVERNOR",
						"label": "returned",
						"offset": 0,
						"slot": "3",
						"type": "t_uint256"
					},
					{
						"astId": 1075,
						"contract": "backEnd/contracts/BUNN_Governor_Proxy.sol:BUNN_GOVERNOR",
						"label": "admin",
						"offset": 0,
						"slot": "4",
						"type": "t_mapping(t_address,t_struct(admin_)1070_storage)"
					},
					{
						"astId": 1078,
						"contract": "backEnd/contracts/BUNN_Governor_Proxy.sol:BUNN_GOVERNOR",
						"label": "admins",
						"offset": 0,
						"slot": "5",
						"type": "t_array(t_address)dyn_storage"
					},
					{
						"astId": 1088,
						"contract": "backEnd/contracts/BUNN_Governor_Proxy.sol:BUNN_GOVERNOR",
						"label": "Members",
						"offset": 0,
						"slot": "6",
						"type": "t_mapping(t_address,t_struct(Member)1083_storage)"
					},
					{
						"astId": 1102,
						"contract": "backEnd/contracts/BUNN_Governor_Proxy.sol:BUNN_GOVERNOR",
						"label": "ballots",
						"offset": 0,
						"slot": "7",
						"type": "t_mapping(t_address,t_mapping(t_uint256,t_struct(ballot)1095_storage))"
					},
					{
						"astId": 1112,
						"contract": "backEnd/contracts/BUNN_Governor_Proxy.sol:BUNN_GOVERNOR",
						"label": "votes",
						"offset": 0,
						"slot": "8",
						"type": "t_mapping(t_uint256,t_struct(vote)1107_storage)"
					},
					{
						"astId": 1134,
						"contract": "backEnd/contracts/BUNN_Governor_Proxy.sol:BUNN_GOVERNOR",
						"label": "counter",
						"offset": 0,
						"slot": "9",
						"type": "t_uint256"
					},
					{
						"astId": 1137,
						"contract": "backEnd/contracts/BUNN_Governor_Proxy.sol:BUNN_GOVERNOR",
						"label": "agreement_id",
						"offset": 0,
						"slot": "10",
						"type": "t_uint256"
					},
					{
						"astId": 1142,
						"contract": "backEnd/contracts/BUNN_Governor_Proxy.sol:BUNN_GOVERNOR",
						"label": "Topics",
						"offset": 0,
						"slot": "11",
						"type": "t_mapping(t_uint256,t_struct(Topic)1131_storage)"
					}
				],
				"types": {
					"t_address": {
						"encoding": "inplace",
						"label": "address",
						"numberOfBytes": "20"
					},
					"t_array(t_address)dyn_storage": {
						"base": "t_address",
						"encoding": "dynamic_array",
						"label": "address[]",
						"numberOfBytes": "32"
					},
					"t_bool": {
						"encoding": "inplace",
						"label": "bool",
						"numberOfBytes": "1"
					},
					"t_mapping(t_address,t_mapping(t_uint256,t_struct(ballot)1095_storage))": {
						"encoding": "mapping",
						"key": "t_address",
						"label": "mapping(address => mapping(uint256 => struct BUNN_GOVERNOR.ballot))",
						"numberOfBytes": "32",
						"value": "t_mapping(t_uint256,t_struct(ballot)1095_storage)"
					},
					"t_mapping(t_address,t_struct(Member)1083_storage)": {
						"encoding": "mapping",
						"key": "t_address",
						"label": "mapping(address => struct BUNN_GOVERNOR.Member)",
						"numberOfBytes": "32",
						"value": "t_struct(Member)1083_storage"
					},
					"t_mapping(t_address,t_struct(admin_)1070_storage)": {
						"encoding": "mapping",
						"key": "t_address",
						"label": "mapping(address => struct BUNN_GOVERNOR.admin_)",
						"numberOfBytes": "32",
						"value": "t_struct(admin_)1070_storage"
					},
					"t_mapping(t_uint256,t_struct(Topic)1131_storage)": {
						"encoding": "mapping",
						"key": "t_uint256",
						"label": "mapping(uint256 => struct BUNN_GOVERNOR.Topic)",
						"numberOfBytes": "32",
						"value": "t_struct(Topic)1131_storage"
					},
					"t_mapping(t_uint256,t_struct(ballot)1095_storage)": {
						"encoding": "mapping",
						"key": "t_uint256",
						"label": "mapping(uint256 => struct BUNN_GOVERNOR.ballot)",
						"numberOfBytes": "32",
						"value": "t_struct(ballot)1095_storage"
					},
					"t_mapping(t_uint256,t_struct(vote)1107_storage)": {
						"encoding": "mapping",
						"key": "t_uint256",
						"label": "mapping(uint256 => struct BUNN_GOVERNOR.vote)",
						"numberOfBytes": "32",
						"value": "t_struct(vote)1107_storage"
					},
					"t_string_storage": {
						"encoding": "bytes",
						"label": "string",
						"numberOfBytes": "32"
					},
					"t_struct(Member)1083_storage": {
						"encoding": "inplace",
						"label": "struct BUNN_GOVERNOR.Member",
						"members": [
							{
								"astId": 1080,
								"contract": "backEnd/contracts/BUNN_Governor_Proxy.sol:BUNN_GOVERNOR",
								"label": "name",
								"offset": 0,
								"slot": "0",
								"type": "t_string_storage"
							},
							{
								"astId": 1082,
								"contract": "backEnd/contracts/BUNN_Governor_Proxy.sol:BUNN_GOVERNOR",
								"label": "belongs",
								"offset": 0,
								"slot": "1",
								"type": "t_bool"
							}
						],
						"numberOfBytes": "64"
					},
					"t_struct(Topic)1131_storage": {
						"encoding": "inplace",
						"label": "struct BUNN_GOVERNOR.Topic",
						"members": [
							{
								"astId": 1114,
								"contract": "backEnd/contracts/BUNN_Governor_Proxy.sol:BUNN_GOVERNOR",
								"label": "id",
								"offset": 0,
								"slot": "0",
								"type": "t_uint256"
							},
							{
								"astId": 1116,
								"contract": "backEnd/contracts/BUNN_Governor_Proxy.sol:BUNN_GOVERNOR",
								"label": "title",
								"offset": 0,
								"slot": "1",
								"type": "t_string_storage"
							},
							{
								"astId": 1118,
								"contract": "backEnd/contracts/BUNN_Governor_Proxy.sol:BUNN_GOVERNOR",
								"label": "initiator",
								"offset": 0,
								"slot": "2",
								"type": "t_address"
							},
							{
								"astId": 1120,
								"contract": "backEnd/contracts/BUNN_Governor_Proxy.sol:BUNN_GOVERNOR",
								"label": "details",
								"offset": 0,
								"slot": "3",
								"type": "t_string_storage"
							},
							{
								"astId": 1122,
								"contract": "backEnd/contracts/BUNN_Governor_Proxy.sol:BUNN_GOVERNOR",
								"label": "implementation_contract_address",
								"offset": 0,
								"slot": "4",
								"type": "t_address"
							},
							{
								"astId": 1124,
								"contract": "backEnd/contracts/BUNN_Governor_Proxy.sol:BUNN_GOVERNOR",
								"label": "signature",
								"offset": 0,
								"slot": "5",
								"type": "t_string_storage"
							},
							{
								"astId": 1126,
								"contract": "backEnd/contracts/BUNN_Governor_Proxy.sol:BUNN_GOVERNOR",
								"label": "start_time",
								"offset": 0,
								"slot": "6",
								"type": "t_uint256"
							},
							{
								"astId": 1128,
								"contract": "backEnd/contracts/BUNN_Governor_Proxy.sol:BUNN_GOVERNOR",
								"label": "executed",
								"offset": 0,
								"slot": "7",
								"type": "t_bool"
							},
							{
								"astId": 1130,
								"contract": "backEnd/contracts/BUNN_Governor_Proxy.sol:BUNN_GOVERNOR",
								"label": "cancelled",
								"offset": 1,
								"slot": "7",
								"type": "t_bool"
							}
						],
						"numberOfBytes": "256"
					},
					"t_struct(admin_)1070_storage": {
						"encoding": "inplace",
						"label": "struct BUNN_GOVERNOR.admin_",
						"members": [
							{
								"astId": 1065,
								"contract": "backEnd/contracts/BUNN_Governor_Proxy.sol:BUNN_GOVERNOR",
								"label": "is_admin",
								"offset": 0,
								"slot": "0",
								"type": "t_bool"
							},
							{
								"astId": 1067,
								"contract": "backEnd/contracts/BUNN_Governor_Proxy.sol:BUNN_GOVERNOR",
								"label": "removers",
								"offset": 0,
								"slot": "1",
								"type": "t_uint256"
							},
							{
								"astId": 1069,
								"contract": "backEnd/contracts/BUNN_Governor_Proxy.sol:BUNN_GOVERNOR",
								"label": "adders",
								"offset": 0,
								"slot": "2",
								"type": "t_uint256"
							}
						],
						"numberOfBytes": "96"
					},
					"t_struct(ballot)1095_storage": {
						"encoding": "inplace",
						"label": "struct BUNN_GOVERNOR.ballot",
						"members": [
							{
								"astId": 1090,
								"contract": "backEnd/contracts/BUNN_Governor_Proxy.sol:BUNN_GOVERNOR",
								"label": "Topic_ID",
								"offset": 0,
								"slot": "0",
								"type": "t_uint256"
							},
							{
								"astId": 1092,
								"contract": "backEnd/contracts/BUNN_Governor_Proxy.sol:BUNN_GOVERNOR",
								"label": "position",
								"offset": 0,
								"slot": "1",
								"type": "t_bool"
							},
							{
								"astId": 1094,
								"contract": "backEnd/contracts/BUNN_Governor_Proxy.sol:BUNN_GOVERNOR",
								"label": "voted",
								"offset": 1,
								"slot": "1",
								"type": "t_bool"
							}
						],
						"numberOfBytes": "64"
					},
					"t_struct(vote)1107_storage": {
						"encoding": "inplace",
						"label": "struct BUNN_GOVERNOR.vote",
						"members": [
							{
								"astId": 1104,
								"contract": "backEnd/contracts/BUNN_Governor_Proxy.sol:BUNN_GOVERNOR",
								"label": "for_votes",
								"offset": 0,
								"slot": "0",
								"type": "t_uint256"
							},
							{
								"astId": 1106,
								"contract": "backEnd/contracts/BUNN_Governor_Proxy.sol:BUNN_GOVERNOR",
								"label": "against_votes",
								"offset": 0,
								"slot": "1",
								"type": "t_uint256"
							}
						],
						"numberOfBytes": "64"
					},
					"t_uint256": {
						"encoding": "inplace",
						"label": "uint256",
						"numberOfBytes": "32"
					}
				}
			},
			"userdoc": {
				"kind": "user",
				"methods": {},
				"version": 1
			}
		}
	}
}