{
	"backEnd/contracts/governance_token.sol": {
		"BUNN_UTILITY_TOKEN": {
			"abi": [
				{
					"inputs": [],
					"stateMutability": "nonpayable",
					"type": "constructor"
				},
				{
					"anonymous": false,
					"inputs": [
						{
							"indexed": true,
							"internalType": "address",
							"name": "owner",
							"type": "address"
						},
						{
							"indexed": true,
							"internalType": "address",
							"name": "spender",
							"type": "address"
						},
						{
							"indexed": false,
							"internalType": "uint256",
							"name": "value",
							"type": "uint256"
						}
					],
					"name": "Approval",
					"type": "event"
				},
				{
					"anonymous": false,
					"inputs": [
						{
							"indexed": true,
							"internalType": "address",
							"name": "from",
							"type": "address"
						},
						{
							"indexed": true,
							"internalType": "address",
							"name": "to",
							"type": "address"
						},
						{
							"indexed": false,
							"internalType": "uint256",
							"name": "value",
							"type": "uint256"
						}
					],
					"name": "Transfer",
					"type": "event"
				},
				{
					"inputs": [
						{
							"internalType": "address",
							"name": "owner",
							"type": "address"
						},
						{
							"internalType": "address",
							"name": "spender",
							"type": "address"
						}
					],
					"name": "allowance",
					"outputs": [
						{
							"internalType": "uint256",
							"name": "",
							"type": "uint256"
						}
					],
					"stateMutability": "view",
					"type": "function"
				},
				{
					"inputs": [
						{
							"internalType": "address",
							"name": "spender",
							"type": "address"
						},
						{
							"internalType": "uint256",
							"name": "amount",
							"type": "uint256"
						}
					],
					"name": "approve",
					"outputs": [
						{
							"internalType": "bool",
							"name": "",
							"type": "bool"
						}
					],
					"stateMutability": "nonpayable",
					"type": "function"
				},
				{
					"inputs": [
						{
							"internalType": "address",
							"name": "account",
							"type": "address"
						}
					],
					"name": "balanceOf",
					"outputs": [
						{
							"internalType": "uint256",
							"name": "",
							"type": "uint256"
						}
					],
					"stateMutability": "view",
					"type": "function"
				},
				{
					"inputs": [],
					"name": "buy_tokens",
					"outputs": [],
					"stateMutability": "payable",
					"type": "function"
				},
				{
					"inputs": [],
					"name": "decimals",
					"outputs": [
						{
							"internalType": "uint8",
							"name": "",
							"type": "uint8"
						}
					],
					"stateMutability": "view",
					"type": "function"
				},
				{
					"inputs": [
						{
							"internalType": "address",
							"name": "spender",
							"type": "address"
						},
						{
							"internalType": "uint256",
							"name": "subtractedValue",
							"type": "uint256"
						}
					],
					"name": "decreaseAllowance",
					"outputs": [
						{
							"internalType": "bool",
							"name": "",
							"type": "bool"
						}
					],
					"stateMutability": "nonpayable",
					"type": "function"
				},
				{
					"inputs": [
						{
							"internalType": "address",
							"name": "spender",
							"type": "address"
						},
						{
							"internalType": "uint256",
							"name": "addedValue",
							"type": "uint256"
						}
					],
					"name": "increaseAllowance",
					"outputs": [
						{
							"internalType": "bool",
							"name": "",
							"type": "bool"
						}
					],
					"stateMutability": "nonpayable",
					"type": "function"
				},
				{
					"inputs": [
						{
							"internalType": "address",
							"name": "account",
							"type": "address"
						},
						{
							"internalType": "uint256",
							"name": "amount",
							"type": "uint256"
						}
					],
					"name": "mint",
					"outputs": [],
					"stateMutability": "nonpayable",
					"type": "function"
				},
				{
					"inputs": [],
					"name": "name",
					"outputs": [
						{
							"internalType": "string",
							"name": "",
							"type": "string"
						}
					],
					"stateMutability": "view",
					"type": "function"
				},
				{
					"inputs": [],
					"name": "owner",
					"outputs": [
						{
							"internalType": "address",
							"name": "",
							"type": "address"
						}
					],
					"stateMutability": "view",
					"type": "function"
				},
				{
					"inputs": [],
					"name": "symbol",
					"outputs": [
						{
							"internalType": "string",
							"name": "",
							"type": "string"
						}
					],
					"stateMutability": "view",
					"type": "function"
				},
				{
					"inputs": [],
					"name": "totalSupply",
					"outputs": [
						{
							"internalType": "uint256",
							"name": "",
							"type": "uint256"
						}
					],
					"stateMutability": "view",
					"type": "function"
				},
				{
					"inputs": [
						{
							"internalType": "address",
							"name": "to",
							"type": "address"
						},
						{
							"internalType": "uint256",
							"name": "amount",
							"type": "uint256"
						}
					],
					"name": "transfer",
					"outputs": [
						{
							"internalType": "bool",
							"name": "",
							"type": "bool"
						}
					],
					"stateMutability": "nonpayable",
					"type": "function"
				},
				{
					"inputs": [
						{
							"internalType": "address",
							"name": "from",
							"type": "address"
						},
						{
							"internalType": "address",
							"name": "to",
							"type": "address"
						},
						{
							"internalType": "uint256",
							"name": "amount",
							"type": "uint256"
						}
					],
					"name": "transferFrom",
					"outputs": [
						{
							"internalType": "bool",
							"name": "",
							"type": "bool"
						}
					],
					"stateMutability": "nonpayable",
					"type": "function"
				},
				{
					"inputs": [
						{
							"internalType": "address",
							"name": "holder",
							"type": "address"
						},
						{
							"internalType": "uint256",
							"name": "amount",
							"type": "uint256"
						}
					],
					"name": "withdraw_funds",
					"outputs": [],
					"stateMutability": "nonpayable",
					"type": "function"
				}
			],
			"devdoc": {
				"events": {
					"Approval(address,address,uint256)": {
						"details": "Emitted when the allowance of a `spender` for an `owner` is set by a call to {approve}. `value` is the new allowance."
					},
					"Transfer(address,address,uint256)": {
						"details": "Emitted when `value` tokens are moved from one account (`from`) to another (`to`). Note that `value` may be zero."
					}
				},
				"kind": "dev",
				"methods": {
					"allowance(address,address)": {
						"details": "See {IERC20-allowance}."
					},
					"approve(address,uint256)": {
						"details": "See {IERC20-approve}. NOTE: If `amount` is the maximum `uint256`, the allowance is not updated on `transferFrom`. This is semantically equivalent to an infinite approval. Requirements: - `spender` cannot be the zero address."
					},
					"balanceOf(address)": {
						"details": "See {IERC20-balanceOf}."
					},
					"decimals()": {
						"details": "Returns the number of decimals used to get its user representation. For example, if `decimals` equals `2`, a balance of `505` tokens should be displayed to a user as `5.05` (`505 / 10 ** 2`). Tokens usually opt for a value of 18, imitating the relationship between Ether and Wei. This is the default value returned by this function, unless it's overridden. NOTE: This information is only used for _display_ purposes: it in no way affects any of the arithmetic of the contract, including {IERC20-balanceOf} and {IERC20-transfer}."
					},
					"decreaseAllowance(address,uint256)": {
						"details": "Atomically decreases the allowance granted to `spender` by the caller. This is an alternative to {approve} that can be used as a mitigation for problems described in {IERC20-approve}. Emits an {Approval} event indicating the updated allowance. Requirements: - `spender` cannot be the zero address. - `spender` must have allowance for the caller of at least `subtractedValue`."
					},
					"increaseAllowance(address,uint256)": {
						"details": "Atomically increases the allowance granted to `spender` by the caller. This is an alternative to {approve} that can be used as a mitigation for problems described in {IERC20-approve}. Emits an {Approval} event indicating the updated allowance. Requirements: - `spender` cannot be the zero address."
					},
					"name()": {
						"details": "Returns the name of the token."
					},
					"symbol()": {
						"details": "Returns the symbol of the token, usually a shorter version of the name."
					},
					"totalSupply()": {
						"details": "See {IERC20-totalSupply}."
					},
					"transfer(address,uint256)": {
						"details": "See {IERC20-transfer}. Requirements: - `to` cannot be the zero address. - the caller must have a balance of at least `amount`."
					},
					"transferFrom(address,address,uint256)": {
						"details": "See {IERC20-transferFrom}. Emits an {Approval} event indicating the updated allowance. This is not required by the EIP. See the note at the beginning of {ERC20}. NOTE: Does not update the allowance if the current allowance is the maximum `uint256`. Requirements: - `from` and `to` cannot be the zero address. - `from` must have a balance of at least `amount`. - the caller must have allowance for ``from``'s tokens of at least `amount`."
					}
				},
				"version": 1
			},
			"evm": {
				"assembly": "    /* \"backEnd/contracts/governance_token.sol\":18071:19290  contract BUNN_UTILITY_TOKEN is ERC20 {... */\n  mstore(0x40, 0x80)\n    /* \"backEnd/contracts/governance_token.sol\":18173:18306  constructor() ERC20(\"BUNN_DAO\", \"BDAO\") {... */\n  callvalue\n  dup1\n  iszero\n  tag_1\n  jumpi\n  0x00\n  dup1\n  revert\ntag_1:\n  pop\n    /* \"backEnd/contracts/governance_token.sol\":6651:6764  constructor(string memory name_, string memory symbol_) {... */\n  mload(0x40)\n  dup1\n  0x40\n  add\n  0x40\n  mstore\n  dup1\n  0x08\n  dup2\n  mstore\n  0x20\n  add\n  0x42554e4e5f44414f000000000000000000000000000000000000000000000000\n  dup2\n  mstore\n  pop\n  mload(0x40)\n  dup1\n  0x40\n  add\n  0x40\n  mstore\n  dup1\n  0x04\n  dup2\n  mstore\n  0x20\n  add\n  0x4244414f00000000000000000000000000000000000000000000000000000000\n  dup2\n  mstore\n  pop\n    /* \"backEnd/contracts/governance_token.sol\":6725:6730  name_ */\n  dup2\n    /* \"backEnd/contracts/governance_token.sol\":6717:6722  _name */\n  0x03\n    /* \"backEnd/contracts/governance_token.sol\":6717:6730  _name = name_ */\n  swap1\n  dup2\n  tag_5\n  swap2\n  swap1\n  tag_6\n  jump\t// in\ntag_5:\n  pop\n    /* \"backEnd/contracts/governance_token.sol\":6750:6757  symbol_ */\n  dup1\n    /* \"backEnd/contracts/governance_token.sol\":6740:6747  _symbol */\n  0x04\n    /* \"backEnd/contracts/governance_token.sol\":6740:6757  _symbol = symbol_ */\n  swap1\n  dup2\n  tag_7\n  swap2\n  swap1\n  tag_6\n  jump\t// in\ntag_7:\n  pop\n    /* \"backEnd/contracts/governance_token.sol\":6651:6764  constructor(string memory name_, string memory symbol_) {... */\n  pop\n  pop\n    /* \"backEnd/contracts/governance_token.sol\":18231:18241  msg.sender */\n  caller\n    /* \"backEnd/contracts/governance_token.sol\":18223:18228  owner */\n  0x06\n  0x00\n    /* \"backEnd/contracts/governance_token.sol\":18223:18241  owner = msg.sender */\n  0x0100\n  exp\n  dup2\n  sload\n  dup2\n  0xffffffffffffffffffffffffffffffffffffffff\n  mul\n  not\n  and\n  swap1\n  dup4\n  0xffffffffffffffffffffffffffffffffffffffff\n  and\n  mul\n  or\n  swap1\n  sstore\n  pop\n    /* \"backEnd/contracts/governance_token.sol\":18288:18298  decimals() */\n  tag_9\n    /* \"backEnd/contracts/governance_token.sol\":18288:18296  decimals */\n  shl(0x20, tag_10)\n    /* \"backEnd/contracts/governance_token.sol\":18288:18298  decimals() */\n  0x20\n  shr\n  jump\t// in\ntag_9:\n    /* \"backEnd/contracts/governance_token.sol\":18282:18284  10 */\n  0x0a\n    /* \"backEnd/contracts/governance_token.sol\":18282:18298  10 ** decimals() */\n  tag_11\n  swap2\n  swap1\n  tag_12\n  jump\t// in\ntag_11:\n    /* \"backEnd/contracts/governance_token.sol\":18264:18278  10_000_000_000 */\n  0x02540be400\n    /* \"backEnd/contracts/governance_token.sol\":18264:18299  10_000_000_000 * (10 ** decimals()) */\n  tag_13\n  swap2\n  swap1\n  tag_14\n  jump\t// in\ntag_13:\n    /* \"backEnd/contracts/governance_token.sol\":18251:18261  MAX_SUPPLY */\n  0x05\n    /* \"backEnd/contracts/governance_token.sol\":18251:18299  MAX_SUPPLY = 10_000_000_000 * (10 ** decimals()) */\n  dup2\n  swap1\n  sstore\n  pop\n    /* \"backEnd/contracts/governance_token.sol\":18071:19290  contract BUNN_UTILITY_TOKEN is ERC20 {... */\n  jump(tag_15)\n    /* \"backEnd/contracts/governance_token.sol\":7775:7866  function decimals() public view virtual override returns (uint8) {... */\ntag_10:\n    /* \"backEnd/contracts/governance_token.sol\":7833:7838  uint8 */\n  0x00\n    /* \"backEnd/contracts/governance_token.sol\":7857:7859  18 */\n  0x12\n    /* \"backEnd/contracts/governance_token.sol\":7850:7859  return 18 */\n  swap1\n  pop\n    /* \"backEnd/contracts/governance_token.sol\":7775:7866  function decimals() public view virtual override returns (uint8) {... */\n  swap1\n  jump\t// out\n    /* \"#utility.yul\":7:106   */\ntag_17:\n    /* \"#utility.yul\":59:65   */\n  0x00\n    /* \"#utility.yul\":93:98   */\n  dup2\n    /* \"#utility.yul\":87:99   */\n  mload\n    /* \"#utility.yul\":77:99   */\n  swap1\n  pop\n    /* \"#utility.yul\":7:106   */\n  swap2\n  swap1\n  pop\n  jump\t// out\n    /* \"#utility.yul\":112:292   */\ntag_18:\n    /* \"#utility.yul\":160:237   */\n  0x4e487b7100000000000000000000000000000000000000000000000000000000\n    /* \"#utility.yul\":157:158   */\n  0x00\n    /* \"#utility.yul\":150:238   */\n  mstore\n    /* \"#utility.yul\":257:261   */\n  0x41\n    /* \"#utility.yul\":254:255   */\n  0x04\n    /* \"#utility.yul\":247:262   */\n  mstore\n    /* \"#utility.yul\":281:285   */\n  0x24\n    /* \"#utility.yul\":278:279   */\n  0x00\n    /* \"#utility.yul\":271:286   */\n  revert\n    /* \"#utility.yul\":298:478   */\ntag_19:\n    /* \"#utility.yul\":346:423   */\n  0x4e487b7100000000000000000000000000000000000000000000000000000000\n    /* \"#utility.yul\":343:344   */\n  0x00\n    /* \"#utility.yul\":336:424   */\n  mstore\n    /* \"#utility.yul\":443:447   */\n  0x22\n    /* \"#utility.yul\":440:441   */\n  0x04\n    /* \"#utility.yul\":433:448   */\n  mstore\n    /* \"#utility.yul\":467:471   */\n  0x24\n    /* \"#utility.yul\":464:465   */\n  0x00\n    /* \"#utility.yul\":457:472   */\n  revert\n    /* \"#utility.yul\":484:804   */\ntag_20:\n    /* \"#utility.yul\":528:534   */\n  0x00\n    /* \"#utility.yul\":565:566   */\n  0x02\n    /* \"#utility.yul\":559:563   */\n  dup3\n    /* \"#utility.yul\":555:567   */\n  div\n    /* \"#utility.yul\":545:567   */\n  swap1\n  pop\n    /* \"#utility.yul\":612:613   */\n  0x01\n    /* \"#utility.yul\":606:610   */\n  dup3\n    /* \"#utility.yul\":602:614   */\n  and\n    /* \"#utility.yul\":633:651   */\n  dup1\n    /* \"#utility.yul\":623:704   */\n  tag_47\n  jumpi\n    /* \"#utility.yul\":689:693   */\n  0x7f\n    /* \"#utility.yul\":681:687   */\n  dup3\n    /* \"#utility.yul\":677:694   */\n  and\n    /* \"#utility.yul\":667:694   */\n  swap2\n  pop\n    /* \"#utility.yul\":623:704   */\ntag_47:\n    /* \"#utility.yul\":751:753   */\n  0x20\n    /* \"#utility.yul\":743:749   */\n  dup3\n    /* \"#utility.yul\":740:754   */\n  lt\n    /* \"#utility.yul\":720:738   */\n  dup2\n    /* \"#utility.yul\":717:755   */\n  sub\n    /* \"#utility.yul\":714:798   */\n  tag_48\n  jumpi\n    /* \"#utility.yul\":770:788   */\n  tag_49\n  tag_19\n  jump\t// in\ntag_49:\n    /* \"#utility.yul\":714:798   */\ntag_48:\n    /* \"#utility.yul\":535:804   */\n  pop\n    /* \"#utility.yul\":484:804   */\n  swap2\n  swap1\n  pop\n  jump\t// out\n    /* \"#utility.yul\":810:951   */\ntag_21:\n    /* \"#utility.yul\":859:863   */\n  0x00\n    /* \"#utility.yul\":882:885   */\n  dup2\n    /* \"#utility.yul\":874:885   */\n  swap1\n  pop\n    /* \"#utility.yul\":905:908   */\n  dup2\n    /* \"#utility.yul\":902:903   */\n  0x00\n    /* \"#utility.yul\":895:909   */\n  mstore\n    /* \"#utility.yul\":939:943   */\n  0x20\n    /* \"#utility.yul\":936:937   */\n  0x00\n    /* \"#utility.yul\":926:944   */\n  keccak256\n    /* \"#utility.yul\":918:944   */\n  swap1\n  pop\n    /* \"#utility.yul\":810:951   */\n  swap2\n  swap1\n  pop\n  jump\t// out\n    /* \"#utility.yul\":957:1050   */\ntag_22:\n    /* \"#utility.yul\":994:1000   */\n  0x00\n    /* \"#utility.yul\":1041:1043   */\n  0x20\n    /* \"#utility.yul\":1036:1038   */\n  0x1f\n    /* \"#utility.yul\":1029:1034   */\n  dup4\n    /* \"#utility.yul\":1025:1039   */\n  add\n    /* \"#utility.yul\":1021:1044   */\n  div\n    /* \"#utility.yul\":1011:1044   */\n  swap1\n  pop\n    /* \"#utility.yul\":957:1050   */\n  swap2\n  swap1\n  pop\n  jump\t// out\n    /* \"#utility.yul\":1056:1163   */\ntag_23:\n    /* \"#utility.yul\":1100:1108   */\n  0x00\n    /* \"#utility.yul\":1150:1155   */\n  dup3\n    /* \"#utility.yul\":1144:1148   */\n  dup3\n    /* \"#utility.yul\":1140:1156   */\n  shl\n    /* \"#utility.yul\":1119:1156   */\n  swap1\n  pop\n    /* \"#utility.yul\":1056:1163   */\n  swap3\n  swap2\n  pop\n  pop\n  jump\t// out\n    /* \"#utility.yul\":1169:1562   */\ntag_24:\n    /* \"#utility.yul\":1238:1244   */\n  0x00\n    /* \"#utility.yul\":1288:1289   */\n  0x08\n    /* \"#utility.yul\":1276:1286   */\n  dup4\n    /* \"#utility.yul\":1272:1290   */\n  mul\n    /* \"#utility.yul\":1311:1408   */\n  tag_54\n    /* \"#utility.yul\":1341:1407   */\n  0xffffffffffffffffffffffffffffffffffffffffffffffffffffffffffffffff\n    /* \"#utility.yul\":1330:1339   */\n  dup3\n    /* \"#utility.yul\":1311:1408   */\n  tag_23\n  jump\t// in\ntag_54:\n    /* \"#utility.yul\":1429:1468   */\n  tag_55\n    /* \"#utility.yul\":1459:1467   */\n  dup7\n    /* \"#utility.yul\":1448:1457   */\n  dup4\n    /* \"#utility.yul\":1429:1468   */\n  tag_23\n  jump\t// in\ntag_55:\n    /* \"#utility.yul\":1417:1468   */\n  swap6\n  pop\n    /* \"#utility.yul\":1501:1505   */\n  dup1\n    /* \"#utility.yul\":1497:1506   */\n  not\n    /* \"#utility.yul\":1490:1495   */\n  dup5\n    /* \"#utility.yul\":1486:1507   */\n  and\n    /* \"#utility.yul\":1477:1507   */\n  swap4\n  pop\n    /* \"#utility.yul\":1550:1554   */\n  dup1\n    /* \"#utility.yul\":1540:1548   */\n  dup7\n    /* \"#utility.yul\":1536:1555   */\n  and\n    /* \"#utility.yul\":1529:1534   */\n  dup5\n    /* \"#utility.yul\":1526:1556   */\n  or\n    /* \"#utility.yul\":1516:1556   */\n  swap3\n  pop\n    /* \"#utility.yul\":1245:1562   */\n  pop\n  pop\n    /* \"#utility.yul\":1169:1562   */\n  swap4\n  swap3\n  pop\n  pop\n  pop\n  jump\t// out\n    /* \"#utility.yul\":1568:1645   */\ntag_25:\n    /* \"#utility.yul\":1605:1612   */\n  0x00\n    /* \"#utility.yul\":1634:1639   */\n  dup2\n    /* \"#utility.yul\":1623:1639   */\n  swap1\n  pop\n    /* \"#utility.yul\":1568:1645   */\n  swap2\n  swap1\n  pop\n  jump\t// out\n    /* \"#utility.yul\":1651:1711   */\ntag_26:\n    /* \"#utility.yul\":1679:1682   */\n  0x00\n    /* \"#utility.yul\":1700:1705   */\n  dup2\n    /* \"#utility.yul\":1693:1705   */\n  swap1\n  pop\n    /* \"#utility.yul\":1651:1711   */\n  swap2\n  swap1\n  pop\n  jump\t// out\n    /* \"#utility.yul\":1717:1859   */\ntag_27:\n    /* \"#utility.yul\":1767:1776   */\n  0x00\n    /* \"#utility.yul\":1800:1853   */\n  tag_59\n    /* \"#utility.yul\":1818:1852   */\n  tag_60\n    /* \"#utility.yul\":1827:1851   */\n  tag_61\n    /* \"#utility.yul\":1845:1850   */\n  dup5\n    /* \"#utility.yul\":1827:1851   */\n  tag_25\n  jump\t// in\ntag_61:\n    /* \"#utility.yul\":1818:1852   */\n  tag_26\n  jump\t// in\ntag_60:\n    /* \"#utility.yul\":1800:1853   */\n  tag_25\n  jump\t// in\ntag_59:\n    /* \"#utility.yul\":1787:1853   */\n  swap1\n  pop\n    /* \"#utility.yul\":1717:1859   */\n  swap2\n  swap1\n  pop\n  jump\t// out\n    /* \"#utility.yul\":1865:1940   */\ntag_28:\n    /* \"#utility.yul\":1908:1911   */\n  0x00\n    /* \"#utility.yul\":1929:1934   */\n  dup2\n    /* \"#utility.yul\":1922:1934   */\n  swap1\n  pop\n    /* \"#utility.yul\":1865:1940   */\n  swap2\n  swap1\n  pop\n  jump\t// out\n    /* \"#utility.yul\":1946:2215   */\ntag_29:\n    /* \"#utility.yul\":2056:2095   */\n  tag_64\n    /* \"#utility.yul\":2087:2094   */\n  dup4\n    /* \"#utility.yul\":2056:2095   */\n  tag_27\n  jump\t// in\ntag_64:\n    /* \"#utility.yul\":2117:2208   */\n  tag_65\n    /* \"#utility.yul\":2166:2207   */\n  tag_66\n    /* \"#utility.yul\":2190:2206   */\n  dup3\n    /* \"#utility.yul\":2166:2207   */\n  tag_28\n  jump\t// in\ntag_66:\n    /* \"#utility.yul\":2158:2164   */\n  dup5\n    /* \"#utility.yul\":2151:2155   */\n  dup5\n    /* \"#utility.yul\":2145:2156   */\n  sload\n    /* \"#utility.yul\":2117:2208   */\n  tag_24\n  jump\t// in\ntag_65:\n    /* \"#utility.yul\":2111:2115   */\n  dup3\n    /* \"#utility.yul\":2104:2209   */\n  sstore\n    /* \"#utility.yul\":2022:2215   */\n  pop\n    /* \"#utility.yul\":1946:2215   */\n  pop\n  pop\n  pop\n  jump\t// out\n    /* \"#utility.yul\":2221:2294   */\ntag_30:\n    /* \"#utility.yul\":2266:2269   */\n  0x00\n    /* \"#utility.yul\":2221:2294   */\n  swap1\n  jump\t// out\n    /* \"#utility.yul\":2300:2489   */\ntag_31:\n    /* \"#utility.yul\":2377:2409   */\n  tag_69\n  tag_30\n  jump\t// in\ntag_69:\n    /* \"#utility.yul\":2418:2483   */\n  tag_70\n    /* \"#utility.yul\":2476:2482   */\n  dup2\n    /* \"#utility.yul\":2468:2474   */\n  dup5\n    /* \"#utility.yul\":2462:2466   */\n  dup5\n    /* \"#utility.yul\":2418:2483   */\n  tag_29\n  jump\t// in\ntag_70:\n    /* \"#utility.yul\":2353:2489   */\n  pop\n    /* \"#utility.yul\":2300:2489   */\n  pop\n  pop\n  jump\t// out\n    /* \"#utility.yul\":2495:2681   */\ntag_32:\n    /* \"#utility.yul\":2555:2675   */\ntag_72:\n    /* \"#utility.yul\":2572:2575   */\n  dup2\n    /* \"#utility.yul\":2565:2570   */\n  dup2\n    /* \"#utility.yul\":2562:2576   */\n  lt\n    /* \"#utility.yul\":2555:2675   */\n  iszero\n  tag_74\n  jumpi\n    /* \"#utility.yul\":2626:2665   */\n  tag_75\n    /* \"#utility.yul\":2663:2664   */\n  0x00\n    /* \"#utility.yul\":2656:2661   */\n  dup3\n    /* \"#utility.yul\":2626:2665   */\n  tag_31\n  jump\t// in\ntag_75:\n    /* \"#utility.yul\":2599:2600   */\n  0x01\n    /* \"#utility.yul\":2592:2597   */\n  dup2\n    /* \"#utility.yul\":2588:2601   */\n  add\n    /* \"#utility.yul\":2579:2601   */\n  swap1\n  pop\n    /* \"#utility.yul\":2555:2675   */\n  jump(tag_72)\ntag_74:\n    /* \"#utility.yul\":2495:2681   */\n  pop\n  pop\n  jump\t// out\n    /* \"#utility.yul\":2687:3230   */\ntag_33:\n    /* \"#utility.yul\":2788:2790   */\n  0x1f\n    /* \"#utility.yul\":2783:2786   */\n  dup3\n    /* \"#utility.yul\":2780:2791   */\n  gt\n    /* \"#utility.yul\":2777:3223   */\n  iszero\n  tag_77\n  jumpi\n    /* \"#utility.yul\":2822:2860   */\n  tag_78\n    /* \"#utility.yul\":2854:2859   */\n  dup2\n    /* \"#utility.yul\":2822:2860   */\n  tag_21\n  jump\t// in\ntag_78:\n    /* \"#utility.yul\":2906:2935   */\n  tag_79\n    /* \"#utility.yul\":2924:2934   */\n  dup5\n    /* \"#utility.yul\":2906:2935   */\n  tag_22\n  jump\t// in\ntag_79:\n    /* \"#utility.yul\":2896:2904   */\n  dup2\n    /* \"#utility.yul\":2892:2936   */\n  add\n    /* \"#utility.yul\":3089:3091   */\n  0x20\n    /* \"#utility.yul\":3077:3087   */\n  dup6\n    /* \"#utility.yul\":3074:3092   */\n  lt\n    /* \"#utility.yul\":3071:3120   */\n  iszero\n  tag_80\n  jumpi\n    /* \"#utility.yul\":3110:3118   */\n  dup2\n    /* \"#utility.yul\":3095:3118   */\n  swap1\n  pop\n    /* \"#utility.yul\":3071:3120   */\ntag_80:\n    /* \"#utility.yul\":3133:3213   */\n  tag_81\n    /* \"#utility.yul\":3189:3211   */\n  tag_82\n    /* \"#utility.yul\":3207:3210   */\n  dup6\n    /* \"#utility.yul\":3189:3211   */\n  tag_22\n  jump\t// in\ntag_82:\n    /* \"#utility.yul\":3179:3187   */\n  dup4\n    /* \"#utility.yul\":3175:3212   */\n  add\n    /* \"#utility.yul\":3162:3173   */\n  dup3\n    /* \"#utility.yul\":3133:3213   */\n  tag_32\n  jump\t// in\ntag_81:\n    /* \"#utility.yul\":2792:3223   */\n  pop\n  pop\n    /* \"#utility.yul\":2777:3223   */\ntag_77:\n    /* \"#utility.yul\":2687:3230   */\n  pop\n  pop\n  pop\n  jump\t// out\n    /* \"#utility.yul\":3236:3353   */\ntag_34:\n    /* \"#utility.yul\":3290:3298   */\n  0x00\n    /* \"#utility.yul\":3340:3345   */\n  dup3\n    /* \"#utility.yul\":3334:3338   */\n  dup3\n    /* \"#utility.yul\":3330:3346   */\n  shr\n    /* \"#utility.yul\":3309:3346   */\n  swap1\n  pop\n    /* \"#utility.yul\":3236:3353   */\n  swap3\n  swap2\n  pop\n  pop\n  jump\t// out\n    /* \"#utility.yul\":3359:3528   */\ntag_35:\n    /* \"#utility.yul\":3403:3409   */\n  0x00\n    /* \"#utility.yul\":3436:3487   */\n  tag_85\n    /* \"#utility.yul\":3484:3485   */\n  0x00\n    /* \"#utility.yul\":3480:3486   */\n  not\n    /* \"#utility.yul\":3472:3477   */\n  dup5\n    /* \"#utility.yul\":3469:3470   */\n  0x08\n    /* \"#utility.yul\":3465:3478   */\n  mul\n    /* \"#utility.yul\":3436:3487   */\n  tag_34\n  jump\t// in\ntag_85:\n    /* \"#utility.yul\":3432:3488   */\n  not\n    /* \"#utility.yul\":3517:3521   */\n  dup1\n    /* \"#utility.yul\":3511:3515   */\n  dup4\n    /* \"#utility.yul\":3507:3522   */\n  and\n    /* \"#utility.yul\":3497:3522   */\n  swap2\n  pop\n    /* \"#utility.yul\":3410:3528   */\n  pop\n    /* \"#utility.yul\":3359:3528   */\n  swap3\n  swap2\n  pop\n  pop\n  jump\t// out\n    /* \"#utility.yul\":3533:3828   */\ntag_36:\n    /* \"#utility.yul\":3609:3613   */\n  0x00\n    /* \"#utility.yul\":3755:3784   */\n  tag_87\n    /* \"#utility.yul\":3780:3783   */\n  dup4\n    /* \"#utility.yul\":3774:3778   */\n  dup4\n    /* \"#utility.yul\":3755:3784   */\n  tag_35\n  jump\t// in\ntag_87:\n    /* \"#utility.yul\":3747:3784   */\n  swap2\n  pop\n    /* \"#utility.yul\":3817:3820   */\n  dup3\n    /* \"#utility.yul\":3814:3815   */\n  0x02\n    /* \"#utility.yul\":3810:3821   */\n  mul\n    /* \"#utility.yul\":3804:3808   */\n  dup3\n    /* \"#utility.yul\":3801:3822   */\n  or\n    /* \"#utility.yul\":3793:3822   */\n  swap1\n  pop\n    /* \"#utility.yul\":3533:3828   */\n  swap3\n  swap2\n  pop\n  pop\n  jump\t// out\n    /* \"#utility.yul\":3833:5228   */\ntag_6:\n    /* \"#utility.yul\":3950:3987   */\n  tag_89\n    /* \"#utility.yul\":3983:3986   */\n  dup3\n    /* \"#utility.yul\":3950:3987   */\n  tag_17\n  jump\t// in\ntag_89:\n    /* \"#utility.yul\":4052:4070   */\n  0xffffffffffffffff\n    /* \"#utility.yul\":4044:4050   */\n  dup2\n    /* \"#utility.yul\":4041:4071   */\n  gt\n    /* \"#utility.yul\":4038:4094   */\n  iszero\n  tag_90\n  jumpi\n    /* \"#utility.yul\":4074:4092   */\n  tag_91\n  tag_18\n  jump\t// in\ntag_91:\n    /* \"#utility.yul\":4038:4094   */\ntag_90:\n    /* \"#utility.yul\":4118:4156   */\n  tag_92\n    /* \"#utility.yul\":4150:4154   */\n  dup3\n    /* \"#utility.yul\":4144:4155   */\n  sload\n    /* \"#utility.yul\":4118:4156   */\n  tag_20\n  jump\t// in\ntag_92:\n    /* \"#utility.yul\":4203:4270   */\n  tag_93\n    /* \"#utility.yul\":4263:4269   */\n  dup3\n    /* \"#utility.yul\":4255:4261   */\n  dup3\n    /* \"#utility.yul\":4249:4253   */\n  dup6\n    /* \"#utility.yul\":4203:4270   */\n  tag_33\n  jump\t// in\ntag_93:\n    /* \"#utility.yul\":4297:4298   */\n  0x00\n    /* \"#utility.yul\":4321:4325   */\n  0x20\n    /* \"#utility.yul\":4308:4325   */\n  swap1\n  pop\n    /* \"#utility.yul\":4353:4355   */\n  0x1f\n    /* \"#utility.yul\":4345:4351   */\n  dup4\n    /* \"#utility.yul\":4342:4356   */\n  gt\n    /* \"#utility.yul\":4370:4371   */\n  0x01\n    /* \"#utility.yul\":4365:4983   */\n  dup2\n  eq\n  tag_95\n  jumpi\n    /* \"#utility.yul\":5027:5028   */\n  0x00\n    /* \"#utility.yul\":5044:5050   */\n  dup5\n    /* \"#utility.yul\":5041:5118   */\n  iszero\n  tag_96\n  jumpi\n    /* \"#utility.yul\":5093:5102   */\n  dup3\n    /* \"#utility.yul\":5088:5091   */\n  dup8\n    /* \"#utility.yul\":5084:5103   */\n  add\n    /* \"#utility.yul\":5078:5104   */\n  mload\n    /* \"#utility.yul\":5069:5104   */\n  swap1\n  pop\n    /* \"#utility.yul\":5041:5118   */\ntag_96:\n    /* \"#utility.yul\":5144:5211   */\n  tag_97\n    /* \"#utility.yul\":5204:5210   */\n  dup6\n    /* \"#utility.yul\":5197:5202   */\n  dup3\n    /* \"#utility.yul\":5144:5211   */\n  tag_36\n  jump\t// in\ntag_97:\n    /* \"#utility.yul\":5138:5142   */\n  dup7\n    /* \"#utility.yul\":5131:5212   */\n  sstore\n    /* \"#utility.yul\":5000:5222   */\n  pop\n    /* \"#utility.yul\":4335:5222   */\n  jump(tag_94)\n    /* \"#utility.yul\":4365:4983   */\ntag_95:\n    /* \"#utility.yul\":4417:4421   */\n  0x1f\n    /* \"#utility.yul\":4413:4422   */\n  not\n    /* \"#utility.yul\":4405:4411   */\n  dup5\n    /* \"#utility.yul\":4401:4423   */\n  and\n    /* \"#utility.yul\":4451:4488   */\n  tag_98\n    /* \"#utility.yul\":4483:4487   */\n  dup7\n    /* \"#utility.yul\":4451:4488   */\n  tag_21\n  jump\t// in\ntag_98:\n    /* \"#utility.yul\":4510:4511   */\n  0x00\n    /* \"#utility.yul\":4524:4732   */\ntag_99:\n    /* \"#utility.yul\":4538:4545   */\n  dup3\n    /* \"#utility.yul\":4535:4536   */\n  dup2\n    /* \"#utility.yul\":4532:4546   */\n  lt\n    /* \"#utility.yul\":4524:4732   */\n  iszero\n  tag_101\n  jumpi\n    /* \"#utility.yul\":4617:4626   */\n  dup5\n    /* \"#utility.yul\":4612:4615   */\n  dup10\n    /* \"#utility.yul\":4608:4627   */\n  add\n    /* \"#utility.yul\":4602:4628   */\n  mload\n    /* \"#utility.yul\":4594:4600   */\n  dup3\n    /* \"#utility.yul\":4587:4629   */\n  sstore\n    /* \"#utility.yul\":4668:4669   */\n  0x01\n    /* \"#utility.yul\":4660:4666   */\n  dup3\n    /* \"#utility.yul\":4656:4670   */\n  add\n    /* \"#utility.yul\":4646:4670   */\n  swap2\n  pop\n    /* \"#utility.yul\":4715:4717   */\n  0x20\n    /* \"#utility.yul\":4704:4713   */\n  dup6\n    /* \"#utility.yul\":4700:4718   */\n  add\n    /* \"#utility.yul\":4687:4718   */\n  swap5\n  pop\n    /* \"#utility.yul\":4561:4565   */\n  0x20\n    /* \"#utility.yul\":4558:4559   */\n  dup2\n    /* \"#utility.yul\":4554:4566   */\n  add\n    /* \"#utility.yul\":4549:4566   */\n  swap1\n  pop\n    /* \"#utility.yul\":4524:4732   */\n  jump(tag_99)\ntag_101:\n    /* \"#utility.yul\":4760:4766   */\n  dup7\n    /* \"#utility.yul\":4751:4758   */\n  dup4\n    /* \"#utility.yul\":4748:4767   */\n  lt\n    /* \"#utility.yul\":4745:4924   */\n  iszero\n  tag_102\n  jumpi\n    /* \"#utility.yul\":4818:4827   */\n  dup5\n    /* \"#utility.yul\":4813:4816   */\n  dup10\n    /* \"#utility.yul\":4809:4828   */\n  add\n    /* \"#utility.yul\":4803:4829   */\n  mload\n    /* \"#utility.yul\":4861:4909   */\n  tag_103\n    /* \"#utility.yul\":4903:4907   */\n  0x1f\n    /* \"#utility.yul\":4895:4901   */\n  dup10\n    /* \"#utility.yul\":4891:4908   */\n  and\n    /* \"#utility.yul\":4880:4889   */\n  dup3\n    /* \"#utility.yul\":4861:4909   */\n  tag_35\n  jump\t// in\ntag_103:\n    /* \"#utility.yul\":4853:4859   */\n  dup4\n    /* \"#utility.yul\":4846:4910   */\n  sstore\n    /* \"#utility.yul\":4768:4924   */\n  pop\n    /* \"#utility.yul\":4745:4924   */\ntag_102:\n    /* \"#utility.yul\":4970:4971   */\n  0x01\n    /* \"#utility.yul\":4966:4967   */\n  0x02\n    /* \"#utility.yul\":4958:4964   */\n  dup9\n    /* \"#utility.yul\":4954:4968   */\n  mul\n    /* \"#utility.yul\":4950:4972   */\n  add\n    /* \"#utility.yul\":4944:4948   */\n  dup9\n    /* \"#utility.yul\":4937:4973   */\n  sstore\n    /* \"#utility.yul\":4372:4983   */\n  pop\n  pop\n  pop\n    /* \"#utility.yul\":4335:5222   */\ntag_94:\n  pop\n    /* \"#utility.yul\":3925:5228   */\n  pop\n  pop\n  pop\n    /* \"#utility.yul\":3833:5228   */\n  pop\n  pop\n  jump\t// out\n    /* \"#utility.yul\":5234:5414   */\ntag_37:\n    /* \"#utility.yul\":5282:5359   */\n  0x4e487b7100000000000000000000000000000000000000000000000000000000\n    /* \"#utility.yul\":5279:5280   */\n  0x00\n    /* \"#utility.yul\":5272:5360   */\n  mstore\n    /* \"#utility.yul\":5379:5383   */\n  0x11\n    /* \"#utility.yul\":5376:5377   */\n  0x04\n    /* \"#utility.yul\":5369:5384   */\n  mstore\n    /* \"#utility.yul\":5403:5407   */\n  0x24\n    /* \"#utility.yul\":5400:5401   */\n  0x00\n    /* \"#utility.yul\":5393:5408   */\n  revert\n    /* \"#utility.yul\":5420:5522   */\ntag_38:\n    /* \"#utility.yul\":5462:5470   */\n  0x00\n    /* \"#utility.yul\":5509:5514   */\n  dup2\n    /* \"#utility.yul\":5506:5507   */\n  0x01\n    /* \"#utility.yul\":5502:5515   */\n  shr\n    /* \"#utility.yul\":5481:5515   */\n  swap1\n  pop\n    /* \"#utility.yul\":5420:5522   */\n  swap2\n  swap1\n  pop\n  jump\t// out\n    /* \"#utility.yul\":5528:6376   */\ntag_39:\n    /* \"#utility.yul\":5589:5594   */\n  0x00\n    /* \"#utility.yul\":5596:5600   */\n  dup1\n    /* \"#utility.yul\":5620:5626   */\n  dup3\n    /* \"#utility.yul\":5611:5626   */\n  swap2\n  pop\n    /* \"#utility.yul\":5644:5649   */\n  dup4\n    /* \"#utility.yul\":5635:5649   */\n  swap1\n  pop\n    /* \"#utility.yul\":5658:6370   */\ntag_107:\n    /* \"#utility.yul\":5679:5680   */\n  0x01\n    /* \"#utility.yul\":5669:5677   */\n  dup6\n    /* \"#utility.yul\":5666:5681   */\n  gt\n    /* \"#utility.yul\":5658:6370   */\n  iszero\n  tag_109\n  jumpi\n    /* \"#utility.yul\":5774:5778   */\n  dup1\n    /* \"#utility.yul\":5769:5772   */\n  dup7\n    /* \"#utility.yul\":5765:5779   */\n  div\n    /* \"#utility.yul\":5759:5763   */\n  dup2\n    /* \"#utility.yul\":5756:5780   */\n  gt\n    /* \"#utility.yul\":5753:5803   */\n  iszero\n  tag_110\n  jumpi\n    /* \"#utility.yul\":5783:5801   */\n  tag_111\n  tag_37\n  jump\t// in\ntag_111:\n    /* \"#utility.yul\":5753:5803   */\ntag_110:\n    /* \"#utility.yul\":5833:5834   */\n  0x01\n    /* \"#utility.yul\":5823:5831   */\n  dup6\n    /* \"#utility.yul\":5819:5835   */\n  and\n    /* \"#utility.yul\":5816:6267   */\n  iszero\n  tag_112\n  jumpi\n    /* \"#utility.yul\":6248:6252   */\n  dup1\n    /* \"#utility.yul\":6241:6246   */\n  dup3\n    /* \"#utility.yul\":6237:6253   */\n  mul\n    /* \"#utility.yul\":6228:6253   */\n  swap2\n  pop\n    /* \"#utility.yul\":5816:6267   */\ntag_112:\n    /* \"#utility.yul\":6298:6302   */\n  dup1\n    /* \"#utility.yul\":6292:6296   */\n  dup2\n    /* \"#utility.yul\":6288:6303   */\n  mul\n    /* \"#utility.yul\":6280:6303   */\n  swap1\n  pop\n    /* \"#utility.yul\":6328:6360   */\n  tag_113\n    /* \"#utility.yul\":6351:6359   */\n  dup6\n    /* \"#utility.yul\":6328:6360   */\n  tag_38\n  jump\t// in\ntag_113:\n    /* \"#utility.yul\":6316:6360   */\n  swap5\n  pop\n    /* \"#utility.yul\":5658:6370   */\n  jump(tag_107)\ntag_109:\n    /* \"#utility.yul\":5528:6376   */\n  swap5\n  pop\n  swap5\n  swap3\n  pop\n  pop\n  pop\n  jump\t// out\n    /* \"#utility.yul\":6382:7455   */\ntag_40:\n    /* \"#utility.yul\":6436:6441   */\n  0x00\n    /* \"#utility.yul\":6627:6635   */\n  dup3\n    /* \"#utility.yul\":6617:6657   */\n  tag_115\n  jumpi\n    /* \"#utility.yul\":6648:6649   */\n  0x01\n    /* \"#utility.yul\":6639:6649   */\n  swap1\n  pop\n    /* \"#utility.yul\":6650:6655   */\n  jump(tag_114)\n    /* \"#utility.yul\":6617:6657   */\ntag_115:\n    /* \"#utility.yul\":6676:6680   */\n  dup2\n    /* \"#utility.yul\":6666:6702   */\n  tag_116\n  jumpi\n    /* \"#utility.yul\":6693:6694   */\n  0x00\n    /* \"#utility.yul\":6684:6694   */\n  swap1\n  pop\n    /* \"#utility.yul\":6695:6700   */\n  jump(tag_114)\n    /* \"#utility.yul\":6666:6702   */\ntag_116:\n    /* \"#utility.yul\":6762:6766   */\n  dup2\n    /* \"#utility.yul\":6810:6811   */\n  0x01\n    /* \"#utility.yul\":6805:6832   */\n  dup2\n  eq\n  tag_118\n  jumpi\n    /* \"#utility.yul\":6846:6847   */\n  0x02\n    /* \"#utility.yul\":6841:7032   */\n  dup2\n  eq\n  tag_119\n  jumpi\n    /* \"#utility.yul\":6755:7032   */\n  jump(tag_117)\n    /* \"#utility.yul\":6805:6832   */\ntag_118:\n    /* \"#utility.yul\":6823:6824   */\n  0x01\n    /* \"#utility.yul\":6814:6824   */\n  swap2\n  pop\n    /* \"#utility.yul\":6825:6830   */\n  pop\n  jump(tag_114)\n    /* \"#utility.yul\":6841:7032   */\ntag_119:\n    /* \"#utility.yul\":6886:6889   */\n  0xff\n    /* \"#utility.yul\":6876:6884   */\n  dup5\n    /* \"#utility.yul\":6873:6890   */\n  gt\n    /* \"#utility.yul\":6870:6913   */\n  iszero\n  tag_120\n  jumpi\n    /* \"#utility.yul\":6893:6911   */\n  tag_121\n  tag_37\n  jump\t// in\ntag_121:\n    /* \"#utility.yul\":6870:6913   */\ntag_120:\n    /* \"#utility.yul\":6942:6950   */\n  dup4\n    /* \"#utility.yul\":6939:6940   */\n  0x02\n    /* \"#utility.yul\":6935:6951   */\n  exp\n    /* \"#utility.yul\":6926:6951   */\n  swap2\n  pop\n    /* \"#utility.yul\":6977:6980   */\n  dup5\n    /* \"#utility.yul\":6970:6975   */\n  dup3\n    /* \"#utility.yul\":6967:6981   */\n  gt\n    /* \"#utility.yul\":6964:7004   */\n  iszero\n  tag_122\n  jumpi\n    /* \"#utility.yul\":6984:7002   */\n  tag_123\n  tag_37\n  jump\t// in\ntag_123:\n    /* \"#utility.yul\":6964:7004   */\ntag_122:\n    /* \"#utility.yul\":7017:7022   */\n  pop\n  jump(tag_114)\n    /* \"#utility.yul\":6755:7032   */\ntag_117:\n  pop\n    /* \"#utility.yul\":7141:7143   */\n  0x20\n    /* \"#utility.yul\":7131:7139   */\n  dup4\n    /* \"#utility.yul\":7128:7144   */\n  lt\n    /* \"#utility.yul\":7122:7125   */\n  0x0133\n    /* \"#utility.yul\":7116:7120   */\n  dup4\n    /* \"#utility.yul\":7113:7126   */\n  lt\n    /* \"#utility.yul\":7109:7145   */\n  and\n    /* \"#utility.yul\":7091:7093   */\n  0x4e\n    /* \"#utility.yul\":7081:7089   */\n  dup5\n    /* \"#utility.yul\":7078:7094   */\n  lt\n    /* \"#utility.yul\":7073:7075   */\n  0x0b\n    /* \"#utility.yul\":7067:7071   */\n  dup5\n    /* \"#utility.yul\":7064:7076   */\n  lt\n    /* \"#utility.yul\":7060:7095   */\n  and\n    /* \"#utility.yul\":7044:7155   */\n  or\n    /* \"#utility.yul\":7041:7287   */\n  iszero\n  tag_124\n  jumpi\n    /* \"#utility.yul\":7197:7205   */\n  dup3\n    /* \"#utility.yul\":7191:7195   */\n  dup3\n    /* \"#utility.yul\":7187:7206   */\n  exp\n    /* \"#utility.yul\":7178:7206   */\n  swap1\n  pop\n    /* \"#utility.yul\":7232:7235   */\n  dup4\n    /* \"#utility.yul\":7225:7230   */\n  dup2\n    /* \"#utility.yul\":7222:7236   */\n  gt\n    /* \"#utility.yul\":7219:7259   */\n  iszero\n  tag_125\n  jumpi\n    /* \"#utility.yul\":7239:7257   */\n  tag_126\n  tag_37\n  jump\t// in\ntag_126:\n    /* \"#utility.yul\":7219:7259   */\ntag_125:\n    /* \"#utility.yul\":7272:7277   */\n  jump(tag_114)\n    /* \"#utility.yul\":7041:7287   */\ntag_124:\n    /* \"#utility.yul\":7312:7354   */\n  tag_127\n    /* \"#utility.yul\":7350:7353   */\n  dup5\n    /* \"#utility.yul\":7340:7348   */\n  dup5\n    /* \"#utility.yul\":7334:7338   */\n  dup5\n    /* \"#utility.yul\":7331:7332   */\n  0x01\n    /* \"#utility.yul\":7312:7354   */\n  tag_39\n  jump\t// in\ntag_127:\n    /* \"#utility.yul\":7297:7354   */\n  swap3\n  pop\n  swap1\n  pop\n    /* \"#utility.yul\":7386:7390   */\n  dup2\n    /* \"#utility.yul\":7381:7384   */\n  dup5\n    /* \"#utility.yul\":7377:7391   */\n  div\n    /* \"#utility.yul\":7370:7375   */\n  dup2\n    /* \"#utility.yul\":7367:7392   */\n  gt\n    /* \"#utility.yul\":7364:7415   */\n  iszero\n  tag_128\n  jumpi\n    /* \"#utility.yul\":7395:7413   */\n  tag_129\n  tag_37\n  jump\t// in\ntag_129:\n    /* \"#utility.yul\":7364:7415   */\ntag_128:\n    /* \"#utility.yul\":7444:7448   */\n  dup2\n    /* \"#utility.yul\":7437:7442   */\n  dup2\n    /* \"#utility.yul\":7433:7449   */\n  mul\n    /* \"#utility.yul\":7424:7449   */\n  swap1\n  pop\n    /* \"#utility.yul\":6382:7455   */\ntag_114:\n  swap4\n  swap3\n  pop\n  pop\n  pop\n  jump\t// out\n    /* \"#utility.yul\":7461:7547   */\ntag_41:\n    /* \"#utility.yul\":7496:7503   */\n  0x00\n    /* \"#utility.yul\":7536:7540   */\n  0xff\n    /* \"#utility.yul\":7529:7534   */\n  dup3\n    /* \"#utility.yul\":7525:7541   */\n  and\n    /* \"#utility.yul\":7514:7541   */\n  swap1\n  pop\n    /* \"#utility.yul\":7461:7547   */\n  swap2\n  swap1\n  pop\n  jump\t// out\n    /* \"#utility.yul\":7553:7834   */\ntag_12:\n    /* \"#utility.yul\":7611:7616   */\n  0x00\n    /* \"#utility.yul\":7635:7658   */\n  tag_132\n    /* \"#utility.yul\":7653:7657   */\n  dup3\n    /* \"#utility.yul\":7635:7658   */\n  tag_25\n  jump\t// in\ntag_132:\n    /* \"#utility.yul\":7627:7658   */\n  swap2\n  pop\n    /* \"#utility.yul\":7679:7704   */\n  tag_133\n    /* \"#utility.yul\":7695:7703   */\n  dup4\n    /* \"#utility.yul\":7679:7704   */\n  tag_41\n  jump\t// in\ntag_133:\n    /* \"#utility.yul\":7667:7704   */\n  swap3\n  pop\n    /* \"#utility.yul\":7723:7827   */\n  tag_134\n    /* \"#utility.yul\":7760:7826   */\n  0xffffffffffffffffffffffffffffffffffffffffffffffffffffffffffffffff\n    /* \"#utility.yul\":7750:7758   */\n  dup5\n    /* \"#utility.yul\":7744:7748   */\n  dup5\n    /* \"#utility.yul\":7723:7827   */\n  tag_40\n  jump\t// in\ntag_134:\n    /* \"#utility.yul\":7714:7827   */\n  swap1\n  pop\n    /* \"#utility.yul\":7553:7834   */\n  swap3\n  swap2\n  pop\n  pop\n  jump\t// out\n    /* \"#utility.yul\":7840:8250   */\ntag_14:\n    /* \"#utility.yul\":7880:7887   */\n  0x00\n    /* \"#utility.yul\":7903:7923   */\n  tag_136\n    /* \"#utility.yul\":7921:7922   */\n  dup3\n    /* \"#utility.yul\":7903:7923   */\n  tag_25\n  jump\t// in\ntag_136:\n    /* \"#utility.yul\":7898:7923   */\n  swap2\n  pop\n    /* \"#utility.yul\":7937:7957   */\n  tag_137\n    /* \"#utility.yul\":7955:7956   */\n  dup4\n    /* \"#utility.yul\":7937:7957   */\n  tag_25\n  jump\t// in\ntag_137:\n    /* \"#utility.yul\":7932:7957   */\n  swap3\n  pop\n    /* \"#utility.yul\":7992:7993   */\n  dup3\n    /* \"#utility.yul\":7989:7990   */\n  dup3\n    /* \"#utility.yul\":7985:7994   */\n  mul\n    /* \"#utility.yul\":8014:8044   */\n  tag_138\n    /* \"#utility.yul\":8032:8043   */\n  dup2\n    /* \"#utility.yul\":8014:8044   */\n  tag_25\n  jump\t// in\ntag_138:\n    /* \"#utility.yul\":8003:8044   */\n  swap2\n  pop\n    /* \"#utility.yul\":8193:8194   */\n  dup3\n    /* \"#utility.yul\":8184:8191   */\n  dup3\n    /* \"#utility.yul\":8180:8195   */\n  div\n    /* \"#utility.yul\":8177:8178   */\n  dup5\n    /* \"#utility.yul\":8174:8196   */\n  eq\n    /* \"#utility.yul\":8154:8155   */\n  dup4\n    /* \"#utility.yul\":8147:8156   */\n  iszero\n    /* \"#utility.yul\":8127:8210   */\n  or\n    /* \"#utility.yul\":8104:8243   */\n  tag_139\n  jumpi\n    /* \"#utility.yul\":8223:8241   */\n  tag_140\n  tag_37\n  jump\t// in\ntag_140:\n    /* \"#utility.yul\":8104:8243   */\ntag_139:\n    /* \"#utility.yul\":7888:8250   */\n  pop\n    /* \"#utility.yul\":7840:8250   */\n  swap3\n  swap2\n  pop\n  pop\n  jump\t// out\n    /* \"backEnd/contracts/governance_token.sol\":18071:19290  contract BUNN_UTILITY_TOKEN is ERC20 {... */\ntag_15:\n  dataSize(sub_0)\n  dup1\n  dataOffset(sub_0)\n  0x00\n  codecopy\n  0x00\n  return\nstop\n\nsub_0: assembly {\n        /* \"backEnd/contracts/governance_token.sol\":18071:19290  contract BUNN_UTILITY_TOKEN is ERC20 {... */\n      mstore(0x40, 0x80)\n      jumpi(tag_1, lt(calldatasize, 0x04))\n      shr(0xe0, calldataload(0x00))\n      dup1\n      0x40c10f19\n      gt\n      tag_17\n      jumpi\n      dup1\n      0x95d89b41\n      gt\n      tag_18\n      jumpi\n      dup1\n      0x95d89b41\n      eq\n      tag_13\n      jumpi\n      dup1\n      0xa457c2d7\n      eq\n      tag_14\n      jumpi\n      dup1\n      0xa9059cbb\n      eq\n      tag_15\n      jumpi\n      dup1\n      0xdd62ed3e\n      eq\n      tag_16\n      jumpi\n      jump(tag_1)\n    tag_18:\n      dup1\n      0x40c10f19\n      eq\n      tag_9\n      jumpi\n      dup1\n      0x469c62a6\n      eq\n      tag_10\n      jumpi\n      dup1\n      0x70a08231\n      eq\n      tag_11\n      jumpi\n      dup1\n      0x8da5cb5b\n      eq\n      tag_12\n      jumpi\n      jump(tag_1)\n    tag_17:\n      dup1\n      0x23b872dd\n      gt\n      tag_19\n      jumpi\n      dup1\n      0x23b872dd\n      eq\n      tag_5\n      jumpi\n      dup1\n      0x25f62784\n      eq\n      tag_6\n      jumpi\n      dup1\n      0x313ce567\n      eq\n      tag_7\n      jumpi\n      dup1\n      0x39509351\n      eq\n      tag_8\n      jumpi\n      jump(tag_1)\n    tag_19:\n      dup1\n      0x06fdde03\n      eq\n      tag_2\n      jumpi\n      dup1\n      0x095ea7b3\n      eq\n      tag_3\n      jumpi\n      dup1\n      0x18160ddd\n      eq\n      tag_4\n      jumpi\n    tag_1:\n      0x00\n      dup1\n      revert\n        /* \"backEnd/contracts/governance_token.sol\":18612:18717  function name() public view virtual override returns (string memory) {... */\n    tag_2:\n      callvalue\n      dup1\n      iszero\n      tag_20\n      jumpi\n      0x00\n      dup1\n      revert\n    tag_20:\n      pop\n      tag_21\n      tag_22\n      jump\t// in\n    tag_21:\n      mload(0x40)\n      tag_23\n      swap2\n      swap1\n      tag_24\n      jump\t// in\n    tag_23:\n      mload(0x40)\n      dup1\n      swap2\n      sub\n      swap1\n      return\n        /* \"backEnd/contracts/governance_token.sol\":9173:9392  function approve(... */\n    tag_3:\n      callvalue\n      dup1\n      iszero\n      tag_25\n      jumpi\n      0x00\n      dup1\n      revert\n    tag_25:\n      pop\n      tag_26\n      0x04\n      dup1\n      calldatasize\n      sub\n      dup2\n      add\n      swap1\n      tag_27\n      swap2\n      swap1\n      tag_28\n      jump\t// in\n    tag_27:\n      tag_29\n      jump\t// in\n    tag_26:\n      mload(0x40)\n      tag_30\n      swap2\n      swap1\n      tag_31\n      jump\t// in\n    tag_30:\n      mload(0x40)\n      dup1\n      swap2\n      sub\n      swap1\n      return\n        /* \"backEnd/contracts/governance_token.sol\":7926:8032  function totalSupply() public view virtual override returns (uint256) {... */\n    tag_4:\n      callvalue\n      dup1\n      iszero\n      tag_32\n      jumpi\n      0x00\n      dup1\n      revert\n    tag_32:\n      pop\n      tag_33\n      tag_34\n      jump\t// in\n    tag_33:\n      mload(0x40)\n      tag_35\n      swap2\n      swap1\n      tag_36\n      jump\t// in\n    tag_35:\n      mload(0x40)\n      dup1\n      swap2\n      sub\n      swap1\n      return\n        /* \"backEnd/contracts/governance_token.sol\":9954:10240  function transferFrom(... */\n    tag_5:\n      callvalue\n      dup1\n      iszero\n      tag_37\n      jumpi\n      0x00\n      dup1\n      revert\n    tag_37:\n      pop\n      tag_38\n      0x04\n      dup1\n      calldatasize\n      sub\n      dup2\n      add\n      swap1\n      tag_39\n      swap2\n      swap1\n      tag_40\n      jump\t// in\n    tag_39:\n      tag_41\n      jump\t// in\n    tag_38:\n      mload(0x40)\n      tag_42\n      swap2\n      swap1\n      tag_31\n      jump\t// in\n    tag_42:\n      mload(0x40)\n      dup1\n      swap2\n      sub\n      swap1\n      return\n        /* \"backEnd/contracts/governance_token.sol\":19091:19288  function withdraw_funds(address holder,uint256 amount) public onlyOwner {... */\n    tag_6:\n      callvalue\n      dup1\n      iszero\n      tag_43\n      jumpi\n      0x00\n      dup1\n      revert\n    tag_43:\n      pop\n      tag_44\n      0x04\n      dup1\n      calldatasize\n      sub\n      dup2\n      add\n      swap1\n      tag_45\n      swap2\n      swap1\n      tag_28\n      jump\t// in\n    tag_45:\n      tag_46\n      jump\t// in\n    tag_44:\n      stop\n        /* \"backEnd/contracts/governance_token.sol\":7775:7866  function decimals() public view virtual override returns (uint8) {... */\n    tag_7:\n      callvalue\n      dup1\n      iszero\n      tag_47\n      jumpi\n      0x00\n      dup1\n      revert\n    tag_47:\n      pop\n      tag_48\n      tag_49\n      jump\t// in\n    tag_48:\n      mload(0x40)\n      tag_50\n      swap2\n      swap1\n      tag_51\n      jump\t// in\n    tag_50:\n      mload(0x40)\n      dup1\n      swap2\n      sub\n      swap1\n      return\n        /* \"backEnd/contracts/governance_token.sol\":10635:10891  function increaseAllowance(... */\n    tag_8:\n      callvalue\n      dup1\n      iszero\n      tag_52\n      jumpi\n      0x00\n      dup1\n      revert\n    tag_52:\n      pop\n      tag_53\n      0x04\n      dup1\n      calldatasize\n      sub\n      dup2\n      add\n      swap1\n      tag_54\n      swap2\n      swap1\n      tag_28\n      jump\t// in\n    tag_54:\n      tag_55\n      jump\t// in\n    tag_53:\n      mload(0x40)\n      tag_56\n      swap2\n      swap1\n      tag_31\n      jump\t// in\n    tag_56:\n      mload(0x40)\n      dup1\n      swap2\n      sub\n      swap1\n      return\n        /* \"backEnd/contracts/governance_token.sol\":18419:18606  function mint(address account, uint256 amount) public onlyOwner {... */\n    tag_9:\n      callvalue\n      dup1\n      iszero\n      tag_57\n      jumpi\n      0x00\n      dup1\n      revert\n    tag_57:\n      pop\n      tag_58\n      0x04\n      dup1\n      calldatasize\n      sub\n      dup2\n      add\n      swap1\n      tag_59\n      swap2\n      swap1\n      tag_28\n      jump\t// in\n    tag_59:\n      tag_60\n      jump\t// in\n    tag_58:\n      stop\n        /* \"backEnd/contracts/governance_token.sol\":18830:19085  function buy_tokens() public payable  {... */\n    tag_10:\n      tag_61\n      tag_62\n      jump\t// in\n    tag_61:\n      stop\n        /* \"backEnd/contracts/governance_token.sol\":8090:8229  function balanceOf(... */\n    tag_11:\n      callvalue\n      dup1\n      iszero\n      tag_63\n      jumpi\n      0x00\n      dup1\n      revert\n    tag_63:\n      pop\n      tag_64\n      0x04\n      dup1\n      calldatasize\n      sub\n      dup2\n      add\n      swap1\n      tag_65\n      swap2\n      swap1\n      tag_66\n      jump\t// in\n    tag_65:\n      tag_67\n      jump\t// in\n    tag_64:\n      mload(0x40)\n      tag_68\n      swap2\n      swap1\n      tag_36\n      jump\t// in\n    tag_68:\n      mload(0x40)\n      dup1\n      swap2\n      sub\n      swap1\n      return\n        /* \"backEnd/contracts/governance_token.sol\":18146:18166  address public owner */\n    tag_12:\n      callvalue\n      dup1\n      iszero\n      tag_69\n      jumpi\n      0x00\n      dup1\n      revert\n    tag_69:\n      pop\n      tag_70\n      tag_71\n      jump\t// in\n    tag_70:\n      mload(0x40)\n      tag_72\n      swap2\n      swap1\n      tag_73\n      jump\t// in\n    tag_72:\n      mload(0x40)\n      dup1\n      swap2\n      sub\n      swap1\n      return\n        /* \"backEnd/contracts/governance_token.sol\":18723:18824  function symbol() public view virtual override returns (string memory) {... */\n    tag_13:\n      callvalue\n      dup1\n      iszero\n      tag_74\n      jumpi\n      0x00\n      dup1\n      revert\n    tag_74:\n      pop\n      tag_75\n      tag_76\n      jump\t// in\n    tag_75:\n      mload(0x40)\n      tag_77\n      swap2\n      swap1\n      tag_24\n      jump\t// in\n    tag_77:\n      mload(0x40)\n      dup1\n      swap2\n      sub\n      swap1\n      return\n        /* \"backEnd/contracts/governance_token.sol\":11378:11861  function decreaseAllowance(... */\n    tag_14:\n      callvalue\n      dup1\n      iszero\n      tag_78\n      jumpi\n      0x00\n      dup1\n      revert\n    tag_78:\n      pop\n      tag_79\n      0x04\n      dup1\n      calldatasize\n      sub\n      dup2\n      add\n      swap1\n      tag_80\n      swap2\n      swap1\n      tag_28\n      jump\t// in\n    tag_80:\n      tag_81\n      jump\t// in\n    tag_79:\n      mload(0x40)\n      tag_82\n      swap2\n      swap1\n      tag_31\n      jump\t// in\n    tag_82:\n      mload(0x40)\n      dup1\n      swap2\n      sub\n      swap1\n      return\n        /* \"backEnd/contracts/governance_token.sol\":8425:8636  function transfer(... */\n    tag_15:\n      callvalue\n      dup1\n      iszero\n      tag_83\n      jumpi\n      0x00\n      dup1\n      revert\n    tag_83:\n      pop\n      tag_84\n      0x04\n      dup1\n      calldatasize\n      sub\n      dup2\n      add\n      swap1\n      tag_85\n      swap2\n      swap1\n      tag_28\n      jump\t// in\n    tag_85:\n      tag_86\n      jump\t// in\n    tag_84:\n      mload(0x40)\n      tag_87\n      swap2\n      swap1\n      tag_31\n      jump\t// in\n    tag_87:\n      mload(0x40)\n      dup1\n      swap2\n      sub\n      swap1\n      return\n        /* \"backEnd/contracts/governance_token.sol\":8694:8865  function allowance(... */\n    tag_16:\n      callvalue\n      dup1\n      iszero\n      tag_88\n      jumpi\n      0x00\n      dup1\n      revert\n    tag_88:\n      pop\n      tag_89\n      0x04\n      dup1\n      calldatasize\n      sub\n      dup2\n      add\n      swap1\n      tag_90\n      swap2\n      swap1\n      tag_91\n      jump\t// in\n    tag_90:\n      tag_92\n      jump\t// in\n    tag_89:\n      mload(0x40)\n      tag_93\n      swap2\n      swap1\n      tag_36\n      jump\t// in\n    tag_93:\n      mload(0x40)\n      dup1\n      swap2\n      sub\n      swap1\n      return\n        /* \"backEnd/contracts/governance_token.sol\":18612:18717  function name() public view virtual override returns (string memory) {... */\n    tag_22:\n        /* \"backEnd/contracts/governance_token.sol\":18666:18679  string memory */\n      0x60\n        /* \"backEnd/contracts/governance_token.sol\":18691:18710  return \"ONWUAJUESE\" */\n      mload(0x40)\n      dup1\n      0x40\n      add\n      0x40\n      mstore\n      dup1\n      0x0a\n      dup2\n      mstore\n      0x20\n      add\n      0x4f4e5755414a5545534500000000000000000000000000000000000000000000\n      dup2\n      mstore\n      pop\n      swap1\n      pop\n        /* \"backEnd/contracts/governance_token.sol\":18612:18717  function name() public view virtual override returns (string memory) {... */\n      swap1\n      jump\t// out\n        /* \"backEnd/contracts/governance_token.sol\":9173:9392  function approve(... */\n    tag_29:\n        /* \"backEnd/contracts/governance_token.sol\":9278:9282  bool */\n      0x00\n        /* \"backEnd/contracts/governance_token.sol\":9294:9307  address owner */\n      dup1\n        /* \"backEnd/contracts/governance_token.sol\":9310:9322  _msgSender() */\n      tag_96\n        /* \"backEnd/contracts/governance_token.sol\":9310:9320  _msgSender */\n      tag_97\n        /* \"backEnd/contracts/governance_token.sol\":9310:9322  _msgSender() */\n      jump\t// in\n    tag_96:\n        /* \"backEnd/contracts/governance_token.sol\":9294:9322  address owner = _msgSender() */\n      swap1\n      pop\n        /* \"backEnd/contracts/governance_token.sol\":9332:9364  _approve(owner, spender, amount) */\n      tag_98\n        /* \"backEnd/contracts/governance_token.sol\":9341:9346  owner */\n      dup2\n        /* \"backEnd/contracts/governance_token.sol\":9348:9355  spender */\n      dup6\n        /* \"backEnd/contracts/governance_token.sol\":9357:9363  amount */\n      dup6\n        /* \"backEnd/contracts/governance_token.sol\":9332:9340  _approve */\n      tag_99\n        /* \"backEnd/contracts/governance_token.sol\":9332:9364  _approve(owner, spender, amount) */\n      jump\t// in\n    tag_98:\n        /* \"backEnd/contracts/governance_token.sol\":9381:9385  true */\n      0x01\n        /* \"backEnd/contracts/governance_token.sol\":9374:9385  return true */\n      swap2\n      pop\n      pop\n        /* \"backEnd/contracts/governance_token.sol\":9173:9392  function approve(... */\n      swap3\n      swap2\n      pop\n      pop\n      jump\t// out\n        /* \"backEnd/contracts/governance_token.sol\":7926:8032  function totalSupply() public view virtual override returns (uint256) {... */\n    tag_34:\n        /* \"backEnd/contracts/governance_token.sol\":7987:7994  uint256 */\n      0x00\n        /* \"backEnd/contracts/governance_token.sol\":8013:8025  _totalSupply */\n      sload(0x02)\n        /* \"backEnd/contracts/governance_token.sol\":8006:8025  return _totalSupply */\n      swap1\n      pop\n        /* \"backEnd/contracts/governance_token.sol\":7926:8032  function totalSupply() public view virtual override returns (uint256) {... */\n      swap1\n      jump\t// out\n        /* \"backEnd/contracts/governance_token.sol\":9954:10240  function transferFrom(... */\n    tag_41:\n        /* \"backEnd/contracts/governance_token.sol\":10081:10085  bool */\n      0x00\n        /* \"backEnd/contracts/governance_token.sol\":10097:10112  address spender */\n      dup1\n        /* \"backEnd/contracts/governance_token.sol\":10115:10127  _msgSender() */\n      tag_102\n        /* \"backEnd/contracts/governance_token.sol\":10115:10125  _msgSender */\n      tag_97\n        /* \"backEnd/contracts/governance_token.sol\":10115:10127  _msgSender() */\n      jump\t// in\n    tag_102:\n        /* \"backEnd/contracts/governance_token.sol\":10097:10127  address spender = _msgSender() */\n      swap1\n      pop\n        /* \"backEnd/contracts/governance_token.sol\":10137:10175  _spendAllowance(from, spender, amount) */\n      tag_103\n        /* \"backEnd/contracts/governance_token.sol\":10153:10157  from */\n      dup6\n        /* \"backEnd/contracts/governance_token.sol\":10159:10166  spender */\n      dup3\n        /* \"backEnd/contracts/governance_token.sol\":10168:10174  amount */\n      dup6\n        /* \"backEnd/contracts/governance_token.sol\":10137:10152  _spendAllowance */\n      tag_104\n        /* \"backEnd/contracts/governance_token.sol\":10137:10175  _spendAllowance(from, spender, amount) */\n      jump\t// in\n    tag_103:\n        /* \"backEnd/contracts/governance_token.sol\":10185:10212  _transfer(from, to, amount) */\n      tag_105\n        /* \"backEnd/contracts/governance_token.sol\":10195:10199  from */\n      dup6\n        /* \"backEnd/contracts/governance_token.sol\":10201:10203  to */\n      dup6\n        /* \"backEnd/contracts/governance_token.sol\":10205:10211  amount */\n      dup6\n        /* \"backEnd/contracts/governance_token.sol\":10185:10194  _transfer */\n      tag_106\n        /* \"backEnd/contracts/governance_token.sol\":10185:10212  _transfer(from, to, amount) */\n      jump\t// in\n    tag_105:\n        /* \"backEnd/contracts/governance_token.sol\":10229:10233  true */\n      0x01\n        /* \"backEnd/contracts/governance_token.sol\":10222:10233  return true */\n      swap2\n      pop\n      pop\n        /* \"backEnd/contracts/governance_token.sol\":9954:10240  function transferFrom(... */\n      swap4\n      swap3\n      pop\n      pop\n      pop\n      jump\t// out\n        /* \"backEnd/contracts/governance_token.sol\":19091:19288  function withdraw_funds(address holder,uint256 amount) public onlyOwner {... */\n    tag_46:\n        /* \"backEnd/contracts/governance_token.sol\":18365:18370  owner */\n      0x06\n      0x00\n      swap1\n      sload\n      swap1\n      0x0100\n      exp\n      swap1\n      div\n      0xffffffffffffffffffffffffffffffffffffffff\n      and\n        /* \"backEnd/contracts/governance_token.sol\":18351:18370  msg.sender == owner */\n      0xffffffffffffffffffffffffffffffffffffffff\n      and\n        /* \"backEnd/contracts/governance_token.sol\":18351:18361  msg.sender */\n      caller\n        /* \"backEnd/contracts/governance_token.sol\":18351:18370  msg.sender == owner */\n      0xffffffffffffffffffffffffffffffffffffffff\n      and\n      eq\n        /* \"backEnd/contracts/governance_token.sol\":18343:18394  require(msg.sender == owner, \"Unauthorized Entity\") */\n      tag_108\n      jumpi\n      mload(0x40)\n      0x08c379a000000000000000000000000000000000000000000000000000000000\n      dup2\n      mstore\n      0x04\n      add\n      tag_109\n      swap1\n      tag_110\n      jump\t// in\n    tag_109:\n      mload(0x40)\n      dup1\n      swap2\n      sub\n      swap1\n      revert\n    tag_108:\n        /* \"backEnd/contracts/governance_token.sol\":19205:19211  amount */\n      dup1\n        /* \"backEnd/contracts/governance_token.sol\":19181:19202  address(this).balance */\n      selfbalance\n        /* \"backEnd/contracts/governance_token.sol\":19181:19211  address(this).balance > amount */\n      gt\n        /* \"backEnd/contracts/governance_token.sol\":19173:19234  require(address(this).balance > amount, \"INSUFFICIENT FUNDS\") */\n      tag_112\n      jumpi\n      mload(0x40)\n      0x08c379a000000000000000000000000000000000000000000000000000000000\n      dup2\n      mstore\n      0x04\n      add\n      tag_113\n      swap1\n      tag_114\n      jump\t// in\n    tag_113:\n      mload(0x40)\n      dup1\n      swap2\n      sub\n      swap1\n      revert\n    tag_112:\n        /* \"backEnd/contracts/governance_token.sol\":19252:19258  holder */\n      dup2\n        /* \"backEnd/contracts/governance_token.sol\":19244:19268  payable(holder).transfer */\n      0xffffffffffffffffffffffffffffffffffffffff\n      and\n        /* \"backEnd/contracts/governance_token.sol\":19244:19281  payable(holder).transfer(amount*1e18) */\n      0x08fc\n        /* \"backEnd/contracts/governance_token.sol\":19276:19280  1e18 */\n      0x0de0b6b3a7640000\n        /* \"backEnd/contracts/governance_token.sol\":19269:19275  amount */\n      dup4\n        /* \"backEnd/contracts/governance_token.sol\":19269:19280  amount*1e18 */\n      tag_115\n      swap2\n      swap1\n      tag_116\n      jump\t// in\n    tag_115:\n        /* \"backEnd/contracts/governance_token.sol\":19244:19281  payable(holder).transfer(amount*1e18) */\n      swap1\n      dup2\n      iszero\n      mul\n      swap1\n      mload(0x40)\n      0x00\n      mload(0x40)\n      dup1\n      dup4\n      sub\n      dup2\n      dup6\n      dup9\n      dup9\n      call\n      swap4\n      pop\n      pop\n      pop\n      pop\n      iszero\n      dup1\n      iszero\n      tag_118\n      jumpi\n      returndatasize\n      0x00\n      dup1\n      returndatacopy\n      revert(0x00, returndatasize)\n    tag_118:\n      pop\n        /* \"backEnd/contracts/governance_token.sol\":19091:19288  function withdraw_funds(address holder,uint256 amount) public onlyOwner {... */\n      pop\n      pop\n      jump\t// out\n        /* \"backEnd/contracts/governance_token.sol\":7775:7866  function decimals() public view virtual override returns (uint8) {... */\n    tag_49:\n        /* \"backEnd/contracts/governance_token.sol\":7833:7838  uint8 */\n      0x00\n        /* \"backEnd/contracts/governance_token.sol\":7857:7859  18 */\n      0x12\n        /* \"backEnd/contracts/governance_token.sol\":7850:7859  return 18 */\n      swap1\n      pop\n        /* \"backEnd/contracts/governance_token.sol\":7775:7866  function decimals() public view virtual override returns (uint8) {... */\n      swap1\n      jump\t// out\n        /* \"backEnd/contracts/governance_token.sol\":10635:10891  function increaseAllowance(... */\n    tag_55:\n        /* \"backEnd/contracts/governance_token.sol\":10745:10749  bool */\n      0x00\n        /* \"backEnd/contracts/governance_token.sol\":10761:10774  address owner */\n      dup1\n        /* \"backEnd/contracts/governance_token.sol\":10777:10789  _msgSender() */\n      tag_121\n        /* \"backEnd/contracts/governance_token.sol\":10777:10787  _msgSender */\n      tag_97\n        /* \"backEnd/contracts/governance_token.sol\":10777:10789  _msgSender() */\n      jump\t// in\n    tag_121:\n        /* \"backEnd/contracts/governance_token.sol\":10761:10789  address owner = _msgSender() */\n      swap1\n      pop\n        /* \"backEnd/contracts/governance_token.sol\":10799:10863  _approve(owner, spender, allowance(owner, spender) + addedValue) */\n      tag_122\n        /* \"backEnd/contracts/governance_token.sol\":10808:10813  owner */\n      dup2\n        /* \"backEnd/contracts/governance_token.sol\":10815:10822  spender */\n      dup6\n        /* \"backEnd/contracts/governance_token.sol\":10852:10862  addedValue */\n      dup6\n        /* \"backEnd/contracts/governance_token.sol\":10824:10849  allowance(owner, spender) */\n      tag_123\n        /* \"backEnd/contracts/governance_token.sol\":10834:10839  owner */\n      dup6\n        /* \"backEnd/contracts/governance_token.sol\":10841:10848  spender */\n      dup10\n        /* \"backEnd/contracts/governance_token.sol\":10824:10833  allowance */\n      tag_92\n        /* \"backEnd/contracts/governance_token.sol\":10824:10849  allowance(owner, spender) */\n      jump\t// in\n    tag_123:\n        /* \"backEnd/contracts/governance_token.sol\":10824:10862  allowance(owner, spender) + addedValue */\n      tag_124\n      swap2\n      swap1\n      tag_125\n      jump\t// in\n    tag_124:\n        /* \"backEnd/contracts/governance_token.sol\":10799:10807  _approve */\n      tag_99\n        /* \"backEnd/contracts/governance_token.sol\":10799:10863  _approve(owner, spender, allowance(owner, spender) + addedValue) */\n      jump\t// in\n    tag_122:\n        /* \"backEnd/contracts/governance_token.sol\":10880:10884  true */\n      0x01\n        /* \"backEnd/contracts/governance_token.sol\":10873:10884  return true */\n      swap2\n      pop\n      pop\n        /* \"backEnd/contracts/governance_token.sol\":10635:10891  function increaseAllowance(... */\n      swap3\n      swap2\n      pop\n      pop\n      jump\t// out\n        /* \"backEnd/contracts/governance_token.sol\":18419:18606  function mint(address account, uint256 amount) public onlyOwner {... */\n    tag_60:\n        /* \"backEnd/contracts/governance_token.sol\":18365:18370  owner */\n      0x06\n      0x00\n      swap1\n      sload\n      swap1\n      0x0100\n      exp\n      swap1\n      div\n      0xffffffffffffffffffffffffffffffffffffffff\n      and\n        /* \"backEnd/contracts/governance_token.sol\":18351:18370  msg.sender == owner */\n      0xffffffffffffffffffffffffffffffffffffffff\n      and\n        /* \"backEnd/contracts/governance_token.sol\":18351:18361  msg.sender */\n      caller\n        /* \"backEnd/contracts/governance_token.sol\":18351:18370  msg.sender == owner */\n      0xffffffffffffffffffffffffffffffffffffffff\n      and\n      eq\n        /* \"backEnd/contracts/governance_token.sol\":18343:18394  require(msg.sender == owner, \"Unauthorized Entity\") */\n      tag_127\n      jumpi\n      mload(0x40)\n      0x08c379a000000000000000000000000000000000000000000000000000000000\n      dup2\n      mstore\n      0x04\n      add\n      tag_128\n      swap1\n      tag_110\n      jump\t// in\n    tag_128:\n      mload(0x40)\n      dup1\n      swap2\n      sub\n      swap1\n      revert\n    tag_127:\n        /* \"backEnd/contracts/governance_token.sol\":18527:18537  MAX_SUPPLY */\n      sload(0x05)\n        /* \"backEnd/contracts/governance_token.sol\":18517:18523  amount */\n      dup2\n        /* \"backEnd/contracts/governance_token.sol\":18501:18514  totalSupply() */\n      tag_130\n        /* \"backEnd/contracts/governance_token.sol\":18501:18512  totalSupply */\n      tag_34\n        /* \"backEnd/contracts/governance_token.sol\":18501:18514  totalSupply() */\n      jump\t// in\n    tag_130:\n        /* \"backEnd/contracts/governance_token.sol\":18501:18523  totalSupply() + amount */\n      tag_131\n      swap2\n      swap1\n      tag_125\n      jump\t// in\n    tag_131:\n        /* \"backEnd/contracts/governance_token.sol\":18501:18537  totalSupply() + amount <= MAX_SUPPLY */\n      gt\n      iszero\n        /* \"backEnd/contracts/governance_token.sol\":18493:18561  require(totalSupply() + amount <= MAX_SUPPLY, \"MAX SUPPLY EXCEEDED\") */\n      tag_132\n      jumpi\n      mload(0x40)\n      0x08c379a000000000000000000000000000000000000000000000000000000000\n      dup2\n      mstore\n      0x04\n      add\n      tag_133\n      swap1\n      tag_134\n      jump\t// in\n    tag_133:\n      mload(0x40)\n      dup1\n      swap2\n      sub\n      swap1\n      revert\n    tag_132:\n        /* \"backEnd/contracts/governance_token.sol\":18571:18599  super._mint(account, amount) */\n      tag_135\n        /* \"backEnd/contracts/governance_token.sol\":18583:18590  account */\n      dup3\n        /* \"backEnd/contracts/governance_token.sol\":18592:18598  amount */\n      dup3\n        /* \"backEnd/contracts/governance_token.sol\":18571:18582  super._mint */\n      tag_136\n        /* \"backEnd/contracts/governance_token.sol\":18571:18599  super._mint(account, amount) */\n      jump\t// in\n    tag_135:\n        /* \"backEnd/contracts/governance_token.sol\":18419:18606  function mint(address account, uint256 amount) public onlyOwner {... */\n      pop\n      pop\n      jump\t// out\n        /* \"backEnd/contracts/governance_token.sol\":18830:19085  function buy_tokens() public payable  {... */\n    tag_62:\n        /* \"backEnd/contracts/governance_token.sol\":18898:18899  0 */\n      0x00\n        /* \"backEnd/contracts/governance_token.sol\":18886:18895  msg.value */\n      callvalue\n        /* \"backEnd/contracts/governance_token.sol\":18886:18899  msg.value > 0 */\n      gt\n        /* \"backEnd/contracts/governance_token.sol\":18878:18927  require(msg.value > 0, \"ETH MUST BE MORE THAN 0\") */\n      tag_138\n      jumpi\n      mload(0x40)\n      0x08c379a000000000000000000000000000000000000000000000000000000000\n      dup2\n      mstore\n      0x04\n      add\n      tag_139\n      swap1\n      tag_140\n      jump\t// in\n    tag_139:\n      mload(0x40)\n      dup1\n      swap2\n      sub\n      swap1\n      revert\n    tag_138:\n        /* \"backEnd/contracts/governance_token.sol\":18966:18976  msg.sender */\n      caller\n        /* \"backEnd/contracts/governance_token.sol\":18958:18985  address(msg.sender).balance */\n      0xffffffffffffffffffffffffffffffffffffffff\n      and\n      balance\n        /* \"backEnd/contracts/governance_token.sol\":18945:18954  msg.value */\n      callvalue\n        /* \"backEnd/contracts/governance_token.sol\":18945:18985  msg.value <= address(msg.sender).balance */\n      gt\n      iszero\n        /* \"backEnd/contracts/governance_token.sol\":18937:19004  require(msg.value <= address(msg.sender).balance, \"NOT ENOUGH ETH\") */\n      tag_141\n      jumpi\n      mload(0x40)\n      0x08c379a000000000000000000000000000000000000000000000000000000000\n      dup2\n      mstore\n      0x04\n      add\n      tag_142\n      swap1\n      tag_143\n      jump\t// in\n    tag_142:\n      mload(0x40)\n      dup1\n      swap2\n      sub\n      swap1\n      revert\n    tag_141:\n        /* \"backEnd/contracts/governance_token.sol\":19014:19059  super._mint(msg.sender, (msg.value*500)/1e18) */\n      tag_144\n        /* \"backEnd/contracts/governance_token.sol\":19026:19036  msg.sender */\n      caller\n        /* \"backEnd/contracts/governance_token.sol\":19054:19058  1e18 */\n      0x0de0b6b3a7640000\n        /* \"backEnd/contracts/governance_token.sol\":19049:19052  500 */\n      0x01f4\n        /* \"backEnd/contracts/governance_token.sol\":19039:19048  msg.value */\n      callvalue\n        /* \"backEnd/contracts/governance_token.sol\":19039:19052  msg.value*500 */\n      tag_145\n      swap2\n      swap1\n      tag_116\n      jump\t// in\n    tag_145:\n        /* \"backEnd/contracts/governance_token.sol\":19038:19058  (msg.value*500)/1e18 */\n      tag_146\n      swap2\n      swap1\n      tag_147\n      jump\t// in\n    tag_146:\n        /* \"backEnd/contracts/governance_token.sol\":19014:19025  super._mint */\n      tag_136\n        /* \"backEnd/contracts/governance_token.sol\":19014:19059  super._mint(msg.sender, (msg.value*500)/1e18) */\n      jump\t// in\n    tag_144:\n        /* \"backEnd/contracts/governance_token.sol\":18830:19085  function buy_tokens() public payable  {... */\n      jump\t// out\n        /* \"backEnd/contracts/governance_token.sol\":8090:8229  function balanceOf(... */\n    tag_67:\n        /* \"backEnd/contracts/governance_token.sol\":8178:8185  uint256 */\n      0x00\n        /* \"backEnd/contracts/governance_token.sol\":8204:8213  _balances */\n      dup1\n        /* \"backEnd/contracts/governance_token.sol\":8204:8222  _balances[account] */\n      0x00\n        /* \"backEnd/contracts/governance_token.sol\":8214:8221  account */\n      dup4\n        /* \"backEnd/contracts/governance_token.sol\":8204:8222  _balances[account] */\n      0xffffffffffffffffffffffffffffffffffffffff\n      and\n      0xffffffffffffffffffffffffffffffffffffffff\n      and\n      dup2\n      mstore\n      0x20\n      add\n      swap1\n      dup2\n      mstore\n      0x20\n      add\n      0x00\n      keccak256\n      sload\n        /* \"backEnd/contracts/governance_token.sol\":8197:8222  return _balances[account] */\n      swap1\n      pop\n        /* \"backEnd/contracts/governance_token.sol\":8090:8229  function balanceOf(... */\n      swap2\n      swap1\n      pop\n      jump\t// out\n        /* \"backEnd/contracts/governance_token.sol\":18146:18166  address public owner */\n    tag_71:\n      0x06\n      0x00\n      swap1\n      sload\n      swap1\n      0x0100\n      exp\n      swap1\n      div\n      0xffffffffffffffffffffffffffffffffffffffff\n      and\n      dup2\n      jump\t// out\n        /* \"backEnd/contracts/governance_token.sol\":18723:18824  function symbol() public view virtual override returns (string memory) {... */\n    tag_76:\n        /* \"backEnd/contracts/governance_token.sol\":18779:18792  string memory */\n      0x60\n        /* \"backEnd/contracts/governance_token.sol\":18804:18817  return \"BUNN\" */\n      mload(0x40)\n      dup1\n      0x40\n      add\n      0x40\n      mstore\n      dup1\n      0x04\n      dup2\n      mstore\n      0x20\n      add\n      0x42554e4e00000000000000000000000000000000000000000000000000000000\n      dup2\n      mstore\n      pop\n      swap1\n      pop\n        /* \"backEnd/contracts/governance_token.sol\":18723:18824  function symbol() public view virtual override returns (string memory) {... */\n      swap1\n      jump\t// out\n        /* \"backEnd/contracts/governance_token.sol\":11378:11861  function decreaseAllowance(... */\n    tag_81:\n        /* \"backEnd/contracts/governance_token.sol\":11493:11497  bool */\n      0x00\n        /* \"backEnd/contracts/governance_token.sol\":11509:11522  address owner */\n      dup1\n        /* \"backEnd/contracts/governance_token.sol\":11525:11537  _msgSender() */\n      tag_151\n        /* \"backEnd/contracts/governance_token.sol\":11525:11535  _msgSender */\n      tag_97\n        /* \"backEnd/contracts/governance_token.sol\":11525:11537  _msgSender() */\n      jump\t// in\n    tag_151:\n        /* \"backEnd/contracts/governance_token.sol\":11509:11537  address owner = _msgSender() */\n      swap1\n      pop\n        /* \"backEnd/contracts/governance_token.sol\":11547:11571  uint256 currentAllowance */\n      0x00\n        /* \"backEnd/contracts/governance_token.sol\":11574:11599  allowance(owner, spender) */\n      tag_152\n        /* \"backEnd/contracts/governance_token.sol\":11584:11589  owner */\n      dup3\n        /* \"backEnd/contracts/governance_token.sol\":11591:11598  spender */\n      dup7\n        /* \"backEnd/contracts/governance_token.sol\":11574:11583  allowance */\n      tag_92\n        /* \"backEnd/contracts/governance_token.sol\":11574:11599  allowance(owner, spender) */\n      jump\t// in\n    tag_152:\n        /* \"backEnd/contracts/governance_token.sol\":11547:11599  uint256 currentAllowance = allowance(owner, spender) */\n      swap1\n      pop\n        /* \"backEnd/contracts/governance_token.sol\":11650:11665  subtractedValue */\n      dup4\n        /* \"backEnd/contracts/governance_token.sol\":11630:11646  currentAllowance */\n      dup2\n        /* \"backEnd/contracts/governance_token.sol\":11630:11665  currentAllowance >= subtractedValue */\n      lt\n      iszero\n        /* \"backEnd/contracts/governance_token.sol\":11609:11728  require(... */\n      tag_153\n      jumpi\n      mload(0x40)\n      0x08c379a000000000000000000000000000000000000000000000000000000000\n      dup2\n      mstore\n      0x04\n      add\n      tag_154\n      swap1\n      tag_155\n      jump\t// in\n    tag_154:\n      mload(0x40)\n      dup1\n      swap2\n      sub\n      swap1\n      revert\n    tag_153:\n        /* \"backEnd/contracts/governance_token.sol\":11762:11822  _approve(owner, spender, currentAllowance - subtractedValue) */\n      tag_156\n        /* \"backEnd/contracts/governance_token.sol\":11771:11776  owner */\n      dup3\n        /* \"backEnd/contracts/governance_token.sol\":11778:11785  spender */\n      dup7\n        /* \"backEnd/contracts/governance_token.sol\":11806:11821  subtractedValue */\n      dup7\n        /* \"backEnd/contracts/governance_token.sol\":11787:11803  currentAllowance */\n      dup5\n        /* \"backEnd/contracts/governance_token.sol\":11787:11821  currentAllowance - subtractedValue */\n      sub\n        /* \"backEnd/contracts/governance_token.sol\":11762:11770  _approve */\n      tag_99\n        /* \"backEnd/contracts/governance_token.sol\":11762:11822  _approve(owner, spender, currentAllowance - subtractedValue) */\n      jump\t// in\n    tag_156:\n        /* \"backEnd/contracts/governance_token.sol\":11850:11854  true */\n      0x01\n        /* \"backEnd/contracts/governance_token.sol\":11843:11854  return true */\n      swap3\n      pop\n      pop\n      pop\n        /* \"backEnd/contracts/governance_token.sol\":11378:11861  function decreaseAllowance(... */\n      swap3\n      swap2\n      pop\n      pop\n      jump\t// out\n        /* \"backEnd/contracts/governance_token.sol\":8425:8636  function transfer(... */\n    tag_86:\n        /* \"backEnd/contracts/governance_token.sol\":8526:8530  bool */\n      0x00\n        /* \"backEnd/contracts/governance_token.sol\":8542:8555  address owner */\n      dup1\n        /* \"backEnd/contracts/governance_token.sol\":8558:8570  _msgSender() */\n      tag_158\n        /* \"backEnd/contracts/governance_token.sol\":8558:8568  _msgSender */\n      tag_97\n        /* \"backEnd/contracts/governance_token.sol\":8558:8570  _msgSender() */\n      jump\t// in\n    tag_158:\n        /* \"backEnd/contracts/governance_token.sol\":8542:8570  address owner = _msgSender() */\n      swap1\n      pop\n        /* \"backEnd/contracts/governance_token.sol\":8580:8608  _transfer(owner, to, amount) */\n      tag_159\n        /* \"backEnd/contracts/governance_token.sol\":8590:8595  owner */\n      dup2\n        /* \"backEnd/contracts/governance_token.sol\":8597:8599  to */\n      dup6\n        /* \"backEnd/contracts/governance_token.sol\":8601:8607  amount */\n      dup6\n        /* \"backEnd/contracts/governance_token.sol\":8580:8589  _transfer */\n      tag_106\n        /* \"backEnd/contracts/governance_token.sol\":8580:8608  _transfer(owner, to, amount) */\n      jump\t// in\n    tag_159:\n        /* \"backEnd/contracts/governance_token.sol\":8625:8629  true */\n      0x01\n        /* \"backEnd/contracts/governance_token.sol\":8618:8629  return true */\n      swap2\n      pop\n      pop\n        /* \"backEnd/contracts/governance_token.sol\":8425:8636  function transfer(... */\n      swap3\n      swap2\n      pop\n      pop\n      jump\t// out\n        /* \"backEnd/contracts/governance_token.sol\":8694:8865  function allowance(... */\n    tag_92:\n        /* \"backEnd/contracts/governance_token.sol\":8805:8812  uint256 */\n      0x00\n        /* \"backEnd/contracts/governance_token.sol\":8831:8842  _allowances */\n      0x01\n        /* \"backEnd/contracts/governance_token.sol\":8831:8849  _allowances[owner] */\n      0x00\n        /* \"backEnd/contracts/governance_token.sol\":8843:8848  owner */\n      dup5\n        /* \"backEnd/contracts/governance_token.sol\":8831:8849  _allowances[owner] */\n      0xffffffffffffffffffffffffffffffffffffffff\n      and\n      0xffffffffffffffffffffffffffffffffffffffff\n      and\n      dup2\n      mstore\n      0x20\n      add\n      swap1\n      dup2\n      mstore\n      0x20\n      add\n      0x00\n      keccak256\n        /* \"backEnd/contracts/governance_token.sol\":8831:8858  _allowances[owner][spender] */\n      0x00\n        /* \"backEnd/contracts/governance_token.sol\":8850:8857  spender */\n      dup4\n        /* \"backEnd/contracts/governance_token.sol\":8831:8858  _allowances[owner][spender] */\n      0xffffffffffffffffffffffffffffffffffffffff\n      and\n      0xffffffffffffffffffffffffffffffffffffffff\n      and\n      dup2\n      mstore\n      0x20\n      add\n      swap1\n      dup2\n      mstore\n      0x20\n      add\n      0x00\n      keccak256\n      sload\n        /* \"backEnd/contracts/governance_token.sol\":8824:8858  return _allowances[owner][spender] */\n      swap1\n      pop\n        /* \"backEnd/contracts/governance_token.sol\":8694:8865  function allowance(... */\n      swap3\n      swap2\n      pop\n      pop\n      jump\t// out\n        /* \"backEnd/contracts/governance_token.sol\":4485:4581  function _msgSender() internal view virtual returns (address) {... */\n    tag_97:\n        /* \"backEnd/contracts/governance_token.sol\":4538:4545  address */\n      0x00\n        /* \"backEnd/contracts/governance_token.sol\":4564:4574  msg.sender */\n      caller\n        /* \"backEnd/contracts/governance_token.sol\":4557:4574  return msg.sender */\n      swap1\n      pop\n        /* \"backEnd/contracts/governance_token.sol\":4485:4581  function _msgSender() internal view virtual returns (address) {... */\n      swap1\n      jump\t// out\n        /* \"backEnd/contracts/governance_token.sol\":15380:15750  function _approve(... */\n    tag_99:\n        /* \"backEnd/contracts/governance_token.sol\":15528:15529  0 */\n      0x00\n        /* \"backEnd/contracts/governance_token.sol\":15511:15530  owner != address(0) */\n      0xffffffffffffffffffffffffffffffffffffffff\n      and\n        /* \"backEnd/contracts/governance_token.sol\":15511:15516  owner */\n      dup4\n        /* \"backEnd/contracts/governance_token.sol\":15511:15530  owner != address(0) */\n      0xffffffffffffffffffffffffffffffffffffffff\n      and\n      sub\n        /* \"backEnd/contracts/governance_token.sol\":15503:15571  require(owner != address(0), \"ERC20: approve from the zero address\") */\n      tag_163\n      jumpi\n      mload(0x40)\n      0x08c379a000000000000000000000000000000000000000000000000000000000\n      dup2\n      mstore\n      0x04\n      add\n      tag_164\n      swap1\n      tag_165\n      jump\t// in\n    tag_164:\n      mload(0x40)\n      dup1\n      swap2\n      sub\n      swap1\n      revert\n    tag_163:\n        /* \"backEnd/contracts/governance_token.sol\":15608:15609  0 */\n      0x00\n        /* \"backEnd/contracts/governance_token.sol\":15589:15610  spender != address(0) */\n      0xffffffffffffffffffffffffffffffffffffffff\n      and\n        /* \"backEnd/contracts/governance_token.sol\":15589:15596  spender */\n      dup3\n        /* \"backEnd/contracts/governance_token.sol\":15589:15610  spender != address(0) */\n      0xffffffffffffffffffffffffffffffffffffffff\n      and\n      sub\n        /* \"backEnd/contracts/governance_token.sol\":15581:15649  require(spender != address(0), \"ERC20: approve to the zero address\") */\n      tag_166\n      jumpi\n      mload(0x40)\n      0x08c379a000000000000000000000000000000000000000000000000000000000\n      dup2\n      mstore\n      0x04\n      add\n      tag_167\n      swap1\n      tag_168\n      jump\t// in\n    tag_167:\n      mload(0x40)\n      dup1\n      swap2\n      sub\n      swap1\n      revert\n    tag_166:\n        /* \"backEnd/contracts/governance_token.sol\":15690:15696  amount */\n      dup1\n        /* \"backEnd/contracts/governance_token.sol\":15660:15671  _allowances */\n      0x01\n        /* \"backEnd/contracts/governance_token.sol\":15660:15678  _allowances[owner] */\n      0x00\n        /* \"backEnd/contracts/governance_token.sol\":15672:15677  owner */\n      dup6\n        /* \"backEnd/contracts/governance_token.sol\":15660:15678  _allowances[owner] */\n      0xffffffffffffffffffffffffffffffffffffffff\n      and\n      0xffffffffffffffffffffffffffffffffffffffff\n      and\n      dup2\n      mstore\n      0x20\n      add\n      swap1\n      dup2\n      mstore\n      0x20\n      add\n      0x00\n      keccak256\n        /* \"backEnd/contracts/governance_token.sol\":15660:15687  _allowances[owner][spender] */\n      0x00\n        /* \"backEnd/contracts/governance_token.sol\":15679:15686  spender */\n      dup5\n        /* \"backEnd/contracts/governance_token.sol\":15660:15687  _allowances[owner][spender] */\n      0xffffffffffffffffffffffffffffffffffffffff\n      and\n      0xffffffffffffffffffffffffffffffffffffffff\n      and\n      dup2\n      mstore\n      0x20\n      add\n      swap1\n      dup2\n      mstore\n      0x20\n      add\n      0x00\n      keccak256\n        /* \"backEnd/contracts/governance_token.sol\":15660:15696  _allowances[owner][spender] = amount */\n      dup2\n      swap1\n      sstore\n      pop\n        /* \"backEnd/contracts/governance_token.sol\":15727:15734  spender */\n      dup2\n        /* \"backEnd/contracts/governance_token.sol\":15711:15743  Approval(owner, spender, amount) */\n      0xffffffffffffffffffffffffffffffffffffffff\n      and\n        /* \"backEnd/contracts/governance_token.sol\":15720:15725  owner */\n      dup4\n        /* \"backEnd/contracts/governance_token.sol\":15711:15743  Approval(owner, spender, amount) */\n      0xffffffffffffffffffffffffffffffffffffffff\n      and\n      0x8c5be1e5ebec7d5bd14f71427d1e84f3dd0314c0f7b2291e5b200ac8c7c3b925\n        /* \"backEnd/contracts/governance_token.sol\":15736:15742  amount */\n      dup4\n        /* \"backEnd/contracts/governance_token.sol\":15711:15743  Approval(owner, spender, amount) */\n      mload(0x40)\n      tag_169\n      swap2\n      swap1\n      tag_36\n      jump\t// in\n    tag_169:\n      mload(0x40)\n      dup1\n      swap2\n      sub\n      swap1\n      log3\n        /* \"backEnd/contracts/governance_token.sol\":15380:15750  function _approve(... */\n      pop\n      pop\n      pop\n      jump\t// out\n        /* \"backEnd/contracts/governance_token.sol\":16031:16518  function _spendAllowance(... */\n    tag_104:\n        /* \"backEnd/contracts/governance_token.sol\":16161:16185  uint256 currentAllowance */\n      0x00\n        /* \"backEnd/contracts/governance_token.sol\":16188:16213  allowance(owner, spender) */\n      tag_171\n        /* \"backEnd/contracts/governance_token.sol\":16198:16203  owner */\n      dup5\n        /* \"backEnd/contracts/governance_token.sol\":16205:16212  spender */\n      dup5\n        /* \"backEnd/contracts/governance_token.sol\":16188:16197  allowance */\n      tag_92\n        /* \"backEnd/contracts/governance_token.sol\":16188:16213  allowance(owner, spender) */\n      jump\t// in\n    tag_171:\n        /* \"backEnd/contracts/governance_token.sol\":16161:16213  uint256 currentAllowance = allowance(owner, spender) */\n      swap1\n      pop\n        /* \"backEnd/contracts/governance_token.sol\":16247:16264  type(uint256).max */\n      0xffffffffffffffffffffffffffffffffffffffffffffffffffffffffffffffff\n        /* \"backEnd/contracts/governance_token.sol\":16227:16243  currentAllowance */\n      dup2\n        /* \"backEnd/contracts/governance_token.sol\":16227:16264  currentAllowance != type(uint256).max */\n      eq\n        /* \"backEnd/contracts/governance_token.sol\":16223:16512  if (currentAllowance != type(uint256).max) {... */\n      tag_172\n      jumpi\n        /* \"backEnd/contracts/governance_token.sol\":16325:16331  amount */\n      dup2\n        /* \"backEnd/contracts/governance_token.sol\":16305:16321  currentAllowance */\n      dup2\n        /* \"backEnd/contracts/governance_token.sol\":16305:16331  currentAllowance >= amount */\n      lt\n      iszero\n        /* \"backEnd/contracts/governance_token.sol\":16280:16394  require(... */\n      tag_173\n      jumpi\n      mload(0x40)\n      0x08c379a000000000000000000000000000000000000000000000000000000000\n      dup2\n      mstore\n      0x04\n      add\n      tag_174\n      swap1\n      tag_175\n      jump\t// in\n    tag_174:\n      mload(0x40)\n      dup1\n      swap2\n      sub\n      swap1\n      revert\n    tag_173:\n        /* \"backEnd/contracts/governance_token.sol\":16436:16487  _approve(owner, spender, currentAllowance - amount) */\n      tag_176\n        /* \"backEnd/contracts/governance_token.sol\":16445:16450  owner */\n      dup5\n        /* \"backEnd/contracts/governance_token.sol\":16452:16459  spender */\n      dup5\n        /* \"backEnd/contracts/governance_token.sol\":16480:16486  amount */\n      dup5\n        /* \"backEnd/contracts/governance_token.sol\":16461:16477  currentAllowance */\n      dup5\n        /* \"backEnd/contracts/governance_token.sol\":16461:16486  currentAllowance - amount */\n      sub\n        /* \"backEnd/contracts/governance_token.sol\":16436:16444  _approve */\n      tag_99\n        /* \"backEnd/contracts/governance_token.sol\":16436:16487  _approve(owner, spender, currentAllowance - amount) */\n      jump\t// in\n    tag_176:\n        /* \"backEnd/contracts/governance_token.sol\":16223:16512  if (currentAllowance != type(uint256).max) {... */\n    tag_172:\n        /* \"backEnd/contracts/governance_token.sol\":16151:16518  {... */\n      pop\n        /* \"backEnd/contracts/governance_token.sol\":16031:16518  function _spendAllowance(... */\n      pop\n      pop\n      pop\n      jump\t// out\n        /* \"backEnd/contracts/governance_token.sol\":12315:13167  function _transfer(... */\n    tag_106:\n        /* \"backEnd/contracts/governance_token.sol\":12457:12458  0 */\n      0x00\n        /* \"backEnd/contracts/governance_token.sol\":12441:12459  from != address(0) */\n      0xffffffffffffffffffffffffffffffffffffffff\n      and\n        /* \"backEnd/contracts/governance_token.sol\":12441:12445  from */\n      dup4\n        /* \"backEnd/contracts/governance_token.sol\":12441:12459  from != address(0) */\n      0xffffffffffffffffffffffffffffffffffffffff\n      and\n      sub\n        /* \"backEnd/contracts/governance_token.sol\":12433:12501  require(from != address(0), \"ERC20: transfer from the zero address\") */\n      tag_178\n      jumpi\n      mload(0x40)\n      0x08c379a000000000000000000000000000000000000000000000000000000000\n      dup2\n      mstore\n      0x04\n      add\n      tag_179\n      swap1\n      tag_180\n      jump\t// in\n    tag_179:\n      mload(0x40)\n      dup1\n      swap2\n      sub\n      swap1\n      revert\n    tag_178:\n        /* \"backEnd/contracts/governance_token.sol\":12533:12534  0 */\n      0x00\n        /* \"backEnd/contracts/governance_token.sol\":12519:12535  to != address(0) */\n      0xffffffffffffffffffffffffffffffffffffffff\n      and\n        /* \"backEnd/contracts/governance_token.sol\":12519:12521  to */\n      dup3\n        /* \"backEnd/contracts/governance_token.sol\":12519:12535  to != address(0) */\n      0xffffffffffffffffffffffffffffffffffffffff\n      and\n      sub\n        /* \"backEnd/contracts/governance_token.sol\":12511:12575  require(to != address(0), \"ERC20: transfer to the zero address\") */\n      tag_181\n      jumpi\n      mload(0x40)\n      0x08c379a000000000000000000000000000000000000000000000000000000000\n      dup2\n      mstore\n      0x04\n      add\n      tag_182\n      swap1\n      tag_183\n      jump\t// in\n    tag_182:\n      mload(0x40)\n      dup1\n      swap2\n      sub\n      swap1\n      revert\n    tag_181:\n        /* \"backEnd/contracts/governance_token.sol\":12586:12624  _beforeTokenTransfer(from, to, amount) */\n      tag_184\n        /* \"backEnd/contracts/governance_token.sol\":12607:12611  from */\n      dup4\n        /* \"backEnd/contracts/governance_token.sol\":12613:12615  to */\n      dup4\n        /* \"backEnd/contracts/governance_token.sol\":12617:12623  amount */\n      dup4\n        /* \"backEnd/contracts/governance_token.sol\":12586:12606  _beforeTokenTransfer */\n      tag_185\n        /* \"backEnd/contracts/governance_token.sol\":12586:12624  _beforeTokenTransfer(from, to, amount) */\n      jump\t// in\n    tag_184:\n        /* \"backEnd/contracts/governance_token.sol\":12635:12654  uint256 fromBalance */\n      0x00\n        /* \"backEnd/contracts/governance_token.sol\":12657:12666  _balances */\n      dup1\n        /* \"backEnd/contracts/governance_token.sol\":12657:12672  _balances[from] */\n      0x00\n        /* \"backEnd/contracts/governance_token.sol\":12667:12671  from */\n      dup6\n        /* \"backEnd/contracts/governance_token.sol\":12657:12672  _balances[from] */\n      0xffffffffffffffffffffffffffffffffffffffff\n      and\n      0xffffffffffffffffffffffffffffffffffffffff\n      and\n      dup2\n      mstore\n      0x20\n      add\n      swap1\n      dup2\n      mstore\n      0x20\n      add\n      0x00\n      keccak256\n      sload\n        /* \"backEnd/contracts/governance_token.sol\":12635:12672  uint256 fromBalance = _balances[from] */\n      swap1\n      pop\n        /* \"backEnd/contracts/governance_token.sol\":12718:12724  amount */\n      dup2\n        /* \"backEnd/contracts/governance_token.sol\":12703:12714  fromBalance */\n      dup2\n        /* \"backEnd/contracts/governance_token.sol\":12703:12724  fromBalance >= amount */\n      lt\n      iszero\n        /* \"backEnd/contracts/governance_token.sol\":12682:12788  require(... */\n      tag_186\n      jumpi\n      mload(0x40)\n      0x08c379a000000000000000000000000000000000000000000000000000000000\n      dup2\n      mstore\n      0x04\n      add\n      tag_187\n      swap1\n      tag_188\n      jump\t// in\n    tag_187:\n      mload(0x40)\n      dup1\n      swap2\n      sub\n      swap1\n      revert\n    tag_186:\n        /* \"backEnd/contracts/governance_token.sol\":12854:12860  amount */\n      dup2\n        /* \"backEnd/contracts/governance_token.sol\":12840:12851  fromBalance */\n      dup2\n        /* \"backEnd/contracts/governance_token.sol\":12840:12860  fromBalance - amount */\n      sub\n        /* \"backEnd/contracts/governance_token.sol\":12822:12831  _balances */\n      0x00\n        /* \"backEnd/contracts/governance_token.sol\":12822:12837  _balances[from] */\n      dup1\n        /* \"backEnd/contracts/governance_token.sol\":12832:12836  from */\n      dup7\n        /* \"backEnd/contracts/governance_token.sol\":12822:12837  _balances[from] */\n      0xffffffffffffffffffffffffffffffffffffffff\n      and\n      0xffffffffffffffffffffffffffffffffffffffff\n      and\n      dup2\n      mstore\n      0x20\n      add\n      swap1\n      dup2\n      mstore\n      0x20\n      add\n      0x00\n      keccak256\n        /* \"backEnd/contracts/governance_token.sol\":12822:12860  _balances[from] = fromBalance - amount */\n      dup2\n      swap1\n      sstore\n      pop\n        /* \"backEnd/contracts/governance_token.sol\":13054:13060  amount */\n      dup2\n        /* \"backEnd/contracts/governance_token.sol\":13037:13046  _balances */\n      0x00\n        /* \"backEnd/contracts/governance_token.sol\":13037:13050  _balances[to] */\n      dup1\n        /* \"backEnd/contracts/governance_token.sol\":13047:13049  to */\n      dup6\n        /* \"backEnd/contracts/governance_token.sol\":13037:13050  _balances[to] */\n      0xffffffffffffffffffffffffffffffffffffffff\n      and\n      0xffffffffffffffffffffffffffffffffffffffff\n      and\n      dup2\n      mstore\n      0x20\n      add\n      swap1\n      dup2\n      mstore\n      0x20\n      add\n      0x00\n      keccak256\n      0x00\n        /* \"backEnd/contracts/governance_token.sol\":13037:13060  _balances[to] += amount */\n      dup3\n      dup3\n      sload\n      add\n      swap3\n      pop\n      pop\n      dup2\n      swap1\n      sstore\n      pop\n        /* \"backEnd/contracts/governance_token.sol\":13101:13103  to */\n      dup3\n        /* \"backEnd/contracts/governance_token.sol\":13086:13112  Transfer(from, to, amount) */\n      0xffffffffffffffffffffffffffffffffffffffff\n      and\n        /* \"backEnd/contracts/governance_token.sol\":13095:13099  from */\n      dup5\n        /* \"backEnd/contracts/governance_token.sol\":13086:13112  Transfer(from, to, amount) */\n      0xffffffffffffffffffffffffffffffffffffffff\n      and\n      0xddf252ad1be2c89b69c2b068fc378daa952ba7f163c4a11628f55a4df523b3ef\n        /* \"backEnd/contracts/governance_token.sol\":13105:13111  amount */\n      dup5\n        /* \"backEnd/contracts/governance_token.sol\":13086:13112  Transfer(from, to, amount) */\n      mload(0x40)\n      tag_189\n      swap2\n      swap1\n      tag_36\n      jump\t// in\n    tag_189:\n      mload(0x40)\n      dup1\n      swap2\n      sub\n      swap1\n      log3\n        /* \"backEnd/contracts/governance_token.sol\":13123:13160  _afterTokenTransfer(from, to, amount) */\n      tag_190\n        /* \"backEnd/contracts/governance_token.sol\":13143:13147  from */\n      dup5\n        /* \"backEnd/contracts/governance_token.sol\":13149:13151  to */\n      dup5\n        /* \"backEnd/contracts/governance_token.sol\":13153:13159  amount */\n      dup5\n        /* \"backEnd/contracts/governance_token.sol\":13123:13142  _afterTokenTransfer */\n      tag_191\n        /* \"backEnd/contracts/governance_token.sol\":13123:13160  _afterTokenTransfer(from, to, amount) */\n      jump\t// in\n    tag_190:\n        /* \"backEnd/contracts/governance_token.sol\":12423:13167  {... */\n      pop\n        /* \"backEnd/contracts/governance_token.sol\":12315:13167  function _transfer(... */\n      pop\n      pop\n      pop\n      jump\t// out\n        /* \"backEnd/contracts/governance_token.sol\":13443:13978  function _mint(address account, uint256 amount) internal virtual {... */\n    tag_136:\n        /* \"backEnd/contracts/governance_token.sol\":13545:13546  0 */\n      0x00\n        /* \"backEnd/contracts/governance_token.sol\":13526:13547  account != address(0) */\n      0xffffffffffffffffffffffffffffffffffffffff\n      and\n        /* \"backEnd/contracts/governance_token.sol\":13526:13533  account */\n      dup3\n        /* \"backEnd/contracts/governance_token.sol\":13526:13547  account != address(0) */\n      0xffffffffffffffffffffffffffffffffffffffff\n      and\n      sub\n        /* \"backEnd/contracts/governance_token.sol\":13518:13583  require(account != address(0), \"ERC20: mint to the zero address\") */\n      tag_193\n      jumpi\n      mload(0x40)\n      0x08c379a000000000000000000000000000000000000000000000000000000000\n      dup2\n      mstore\n      0x04\n      add\n      tag_194\n      swap1\n      tag_195\n      jump\t// in\n    tag_194:\n      mload(0x40)\n      dup1\n      swap2\n      sub\n      swap1\n      revert\n    tag_193:\n        /* \"backEnd/contracts/governance_token.sol\":13594:13643  _beforeTokenTransfer(address(0), account, amount) */\n      tag_196\n        /* \"backEnd/contracts/governance_token.sol\":13623:13624  0 */\n      0x00\n        /* \"backEnd/contracts/governance_token.sol\":13627:13634  account */\n      dup4\n        /* \"backEnd/contracts/governance_token.sol\":13636:13642  amount */\n      dup4\n        /* \"backEnd/contracts/governance_token.sol\":13594:13614  _beforeTokenTransfer */\n      tag_185\n        /* \"backEnd/contracts/governance_token.sol\":13594:13643  _beforeTokenTransfer(address(0), account, amount) */\n      jump\t// in\n    tag_196:\n        /* \"backEnd/contracts/governance_token.sol\":13670:13676  amount */\n      dup1\n        /* \"backEnd/contracts/governance_token.sol\":13654:13666  _totalSupply */\n      0x02\n      0x00\n        /* \"backEnd/contracts/governance_token.sol\":13654:13676  _totalSupply += amount */\n      dup3\n      dup3\n      sload\n      tag_197\n      swap2\n      swap1\n      tag_125\n      jump\t// in\n    tag_197:\n      swap3\n      pop\n      pop\n      dup2\n      swap1\n      sstore\n      pop\n        /* \"backEnd/contracts/governance_token.sol\":13844:13850  amount */\n      dup1\n        /* \"backEnd/contracts/governance_token.sol\":13822:13831  _balances */\n      0x00\n        /* \"backEnd/contracts/governance_token.sol\":13822:13840  _balances[account] */\n      dup1\n        /* \"backEnd/contracts/governance_token.sol\":13832:13839  account */\n      dup5\n        /* \"backEnd/contracts/governance_token.sol\":13822:13840  _balances[account] */\n      0xffffffffffffffffffffffffffffffffffffffff\n      and\n      0xffffffffffffffffffffffffffffffffffffffff\n      and\n      dup2\n      mstore\n      0x20\n      add\n      swap1\n      dup2\n      mstore\n      0x20\n      add\n      0x00\n      keccak256\n      0x00\n        /* \"backEnd/contracts/governance_token.sol\":13822:13850  _balances[account] += amount */\n      dup3\n      dup3\n      sload\n      add\n      swap3\n      pop\n      pop\n      dup2\n      swap1\n      sstore\n      pop\n        /* \"backEnd/contracts/governance_token.sol\":13896:13903  account */\n      dup2\n        /* \"backEnd/contracts/governance_token.sol\":13875:13912  Transfer(address(0), account, amount) */\n      0xffffffffffffffffffffffffffffffffffffffff\n      and\n        /* \"backEnd/contracts/governance_token.sol\":13892:13893  0 */\n      0x00\n        /* \"backEnd/contracts/governance_token.sol\":13875:13912  Transfer(address(0), account, amount) */\n      0xffffffffffffffffffffffffffffffffffffffff\n      and\n      0xddf252ad1be2c89b69c2b068fc378daa952ba7f163c4a11628f55a4df523b3ef\n        /* \"backEnd/contracts/governance_token.sol\":13905:13911  amount */\n      dup4\n        /* \"backEnd/contracts/governance_token.sol\":13875:13912  Transfer(address(0), account, amount) */\n      mload(0x40)\n      tag_198\n      swap2\n      swap1\n      tag_36\n      jump\t// in\n    tag_198:\n      mload(0x40)\n      dup1\n      swap2\n      sub\n      swap1\n      log3\n        /* \"backEnd/contracts/governance_token.sol\":13923:13971  _afterTokenTransfer(address(0), account, amount) */\n      tag_199\n        /* \"backEnd/contracts/governance_token.sol\":13951:13952  0 */\n      0x00\n        /* \"backEnd/contracts/governance_token.sol\":13955:13962  account */\n      dup4\n        /* \"backEnd/contracts/governance_token.sol\":13964:13970  amount */\n      dup4\n        /* \"backEnd/contracts/governance_token.sol\":13923:13942  _afterTokenTransfer */\n      tag_191\n        /* \"backEnd/contracts/governance_token.sol\":13923:13971  _afterTokenTransfer(address(0), account, amount) */\n      jump\t// in\n    tag_199:\n        /* \"backEnd/contracts/governance_token.sol\":13443:13978  function _mint(address account, uint256 amount) internal virtual {... */\n      pop\n      pop\n      jump\t// out\n        /* \"backEnd/contracts/governance_token.sol\":17102:17223  function _beforeTokenTransfer(... */\n    tag_185:\n      pop\n      pop\n      pop\n      jump\t// out\n        /* \"backEnd/contracts/governance_token.sol\":17811:17931  function _afterTokenTransfer(... */\n    tag_191:\n      pop\n      pop\n      pop\n      jump\t// out\n        /* \"#utility.yul\":7:106   */\n    tag_202:\n        /* \"#utility.yul\":59:65   */\n      0x00\n        /* \"#utility.yul\":93:98   */\n      dup2\n        /* \"#utility.yul\":87:99   */\n      mload\n        /* \"#utility.yul\":77:99   */\n      swap1\n      pop\n        /* \"#utility.yul\":7:106   */\n      swap2\n      swap1\n      pop\n      jump\t// out\n        /* \"#utility.yul\":112:281   */\n    tag_203:\n        /* \"#utility.yul\":196:207   */\n      0x00\n        /* \"#utility.yul\":230:236   */\n      dup3\n        /* \"#utility.yul\":225:228   */\n      dup3\n        /* \"#utility.yul\":218:237   */\n      mstore\n        /* \"#utility.yul\":270:274   */\n      0x20\n        /* \"#utility.yul\":265:268   */\n      dup3\n        /* \"#utility.yul\":261:275   */\n      add\n        /* \"#utility.yul\":246:275   */\n      swap1\n      pop\n        /* \"#utility.yul\":112:281   */\n      swap3\n      swap2\n      pop\n      pop\n      jump\t// out\n        /* \"#utility.yul\":287:533   */\n    tag_204:\n        /* \"#utility.yul\":368:369   */\n      0x00\n        /* \"#utility.yul\":378:491   */\n    tag_255:\n        /* \"#utility.yul\":392:398   */\n      dup4\n        /* \"#utility.yul\":389:390   */\n      dup2\n        /* \"#utility.yul\":386:399   */\n      lt\n        /* \"#utility.yul\":378:491   */\n      iszero\n      tag_257\n      jumpi\n        /* \"#utility.yul\":477:478   */\n      dup1\n        /* \"#utility.yul\":472:475   */\n      dup3\n        /* \"#utility.yul\":468:479   */\n      add\n        /* \"#utility.yul\":462:480   */\n      mload\n        /* \"#utility.yul\":458:459   */\n      dup2\n        /* \"#utility.yul\":453:456   */\n      dup5\n        /* \"#utility.yul\":449:460   */\n      add\n        /* \"#utility.yul\":442:481   */\n      mstore\n        /* \"#utility.yul\":414:416   */\n      0x20\n        /* \"#utility.yul\":411:412   */\n      dup2\n        /* \"#utility.yul\":407:417   */\n      add\n        /* \"#utility.yul\":402:417   */\n      swap1\n      pop\n        /* \"#utility.yul\":378:491   */\n      jump(tag_255)\n    tag_257:\n        /* \"#utility.yul\":525:526   */\n      0x00\n        /* \"#utility.yul\":516:522   */\n      dup5\n        /* \"#utility.yul\":511:514   */\n      dup5\n        /* \"#utility.yul\":507:523   */\n      add\n        /* \"#utility.yul\":500:527   */\n      mstore\n        /* \"#utility.yul\":349:533   */\n      pop\n        /* \"#utility.yul\":287:533   */\n      pop\n      pop\n      pop\n      jump\t// out\n        /* \"#utility.yul\":539:641   */\n    tag_205:\n        /* \"#utility.yul\":580:586   */\n      0x00\n        /* \"#utility.yul\":631:633   */\n      0x1f\n        /* \"#utility.yul\":627:634   */\n      not\n        /* \"#utility.yul\":622:624   */\n      0x1f\n        /* \"#utility.yul\":615:620   */\n      dup4\n        /* \"#utility.yul\":611:625   */\n      add\n        /* \"#utility.yul\":607:635   */\n      and\n        /* \"#utility.yul\":597:635   */\n      swap1\n      pop\n        /* \"#utility.yul\":539:641   */\n      swap2\n      swap1\n      pop\n      jump\t// out\n        /* \"#utility.yul\":647:1024   */\n    tag_206:\n        /* \"#utility.yul\":735:738   */\n      0x00\n        /* \"#utility.yul\":763:802   */\n      tag_260\n        /* \"#utility.yul\":796:801   */\n      dup3\n        /* \"#utility.yul\":763:802   */\n      tag_202\n      jump\t// in\n    tag_260:\n        /* \"#utility.yul\":818:889   */\n      tag_261\n        /* \"#utility.yul\":882:888   */\n      dup2\n        /* \"#utility.yul\":877:880   */\n      dup6\n        /* \"#utility.yul\":818:889   */\n      tag_203\n      jump\t// in\n    tag_261:\n        /* \"#utility.yul\":811:889   */\n      swap4\n      pop\n        /* \"#utility.yul\":898:963   */\n      tag_262\n        /* \"#utility.yul\":956:962   */\n      dup2\n        /* \"#utility.yul\":951:954   */\n      dup6\n        /* \"#utility.yul\":944:948   */\n      0x20\n        /* \"#utility.yul\":937:942   */\n      dup7\n        /* \"#utility.yul\":933:949   */\n      add\n        /* \"#utility.yul\":898:963   */\n      tag_204\n      jump\t// in\n    tag_262:\n        /* \"#utility.yul\":988:1017   */\n      tag_263\n        /* \"#utility.yul\":1010:1016   */\n      dup2\n        /* \"#utility.yul\":988:1017   */\n      tag_205\n      jump\t// in\n    tag_263:\n        /* \"#utility.yul\":983:986   */\n      dup5\n        /* \"#utility.yul\":979:1018   */\n      add\n        /* \"#utility.yul\":972:1018   */\n      swap2\n      pop\n        /* \"#utility.yul\":739:1024   */\n      pop\n        /* \"#utility.yul\":647:1024   */\n      swap3\n      swap2\n      pop\n      pop\n      jump\t// out\n        /* \"#utility.yul\":1030:1343   */\n    tag_24:\n        /* \"#utility.yul\":1143:1147   */\n      0x00\n        /* \"#utility.yul\":1181:1183   */\n      0x20\n        /* \"#utility.yul\":1170:1179   */\n      dup3\n        /* \"#utility.yul\":1166:1184   */\n      add\n        /* \"#utility.yul\":1158:1184   */\n      swap1\n      pop\n        /* \"#utility.yul\":1230:1239   */\n      dup2\n        /* \"#utility.yul\":1224:1228   */\n      dup2\n        /* \"#utility.yul\":1220:1240   */\n      sub\n        /* \"#utility.yul\":1216:1217   */\n      0x00\n        /* \"#utility.yul\":1205:1214   */\n      dup4\n        /* \"#utility.yul\":1201:1218   */\n      add\n        /* \"#utility.yul\":1194:1241   */\n      mstore\n        /* \"#utility.yul\":1258:1336   */\n      tag_265\n        /* \"#utility.yul\":1331:1335   */\n      dup2\n        /* \"#utility.yul\":1322:1328   */\n      dup5\n        /* \"#utility.yul\":1258:1336   */\n      tag_206\n      jump\t// in\n    tag_265:\n        /* \"#utility.yul\":1250:1336   */\n      swap1\n      pop\n        /* \"#utility.yul\":1030:1343   */\n      swap3\n      swap2\n      pop\n      pop\n      jump\t// out\n        /* \"#utility.yul\":1430:1547   */\n    tag_208:\n        /* \"#utility.yul\":1539:1540   */\n      0x00\n        /* \"#utility.yul\":1536:1537   */\n      dup1\n        /* \"#utility.yul\":1529:1541   */\n      revert\n        /* \"#utility.yul\":1676:1802   */\n    tag_210:\n        /* \"#utility.yul\":1713:1720   */\n      0x00\n        /* \"#utility.yul\":1753:1795   */\n      0xffffffffffffffffffffffffffffffffffffffff\n        /* \"#utility.yul\":1746:1751   */\n      dup3\n        /* \"#utility.yul\":1742:1796   */\n      and\n        /* \"#utility.yul\":1731:1796   */\n      swap1\n      pop\n        /* \"#utility.yul\":1676:1802   */\n      swap2\n      swap1\n      pop\n      jump\t// out\n        /* \"#utility.yul\":1808:1904   */\n    tag_211:\n        /* \"#utility.yul\":1845:1852   */\n      0x00\n        /* \"#utility.yul\":1874:1898   */\n      tag_271\n        /* \"#utility.yul\":1892:1897   */\n      dup3\n        /* \"#utility.yul\":1874:1898   */\n      tag_210\n      jump\t// in\n    tag_271:\n        /* \"#utility.yul\":1863:1898   */\n      swap1\n      pop\n        /* \"#utility.yul\":1808:1904   */\n      swap2\n      swap1\n      pop\n      jump\t// out\n        /* \"#utility.yul\":1910:2032   */\n    tag_212:\n        /* \"#utility.yul\":1983:2007   */\n      tag_273\n        /* \"#utility.yul\":2001:2006   */\n      dup2\n        /* \"#utility.yul\":1983:2007   */\n      tag_211\n      jump\t// in\n    tag_273:\n        /* \"#utility.yul\":1976:1981   */\n      dup2\n        /* \"#utility.yul\":1973:2008   */\n      eq\n        /* \"#utility.yul\":1963:2026   */\n      tag_274\n      jumpi\n        /* \"#utility.yul\":2022:2023   */\n      0x00\n        /* \"#utility.yul\":2019:2020   */\n      dup1\n        /* \"#utility.yul\":2012:2024   */\n      revert\n        /* \"#utility.yul\":1963:2026   */\n    tag_274:\n        /* \"#utility.yul\":1910:2032   */\n      pop\n      jump\t// out\n        /* \"#utility.yul\":2038:2177   */\n    tag_213:\n        /* \"#utility.yul\":2084:2089   */\n      0x00\n        /* \"#utility.yul\":2122:2128   */\n      dup2\n        /* \"#utility.yul\":2109:2129   */\n      calldataload\n        /* \"#utility.yul\":2100:2129   */\n      swap1\n      pop\n        /* \"#utility.yul\":2138:2171   */\n      tag_276\n        /* \"#utility.yul\":2165:2170   */\n      dup2\n        /* \"#utility.yul\":2138:2171   */\n      tag_212\n      jump\t// in\n    tag_276:\n        /* \"#utility.yul\":2038:2177   */\n      swap3\n      swap2\n      pop\n      pop\n      jump\t// out\n        /* \"#utility.yul\":2183:2260   */\n    tag_214:\n        /* \"#utility.yul\":2220:2227   */\n      0x00\n        /* \"#utility.yul\":2249:2254   */\n      dup2\n        /* \"#utility.yul\":2238:2254   */\n      swap1\n      pop\n        /* \"#utility.yul\":2183:2260   */\n      swap2\n      swap1\n      pop\n      jump\t// out\n        /* \"#utility.yul\":2266:2388   */\n    tag_215:\n        /* \"#utility.yul\":2339:2363   */\n      tag_279\n        /* \"#utility.yul\":2357:2362   */\n      dup2\n        /* \"#utility.yul\":2339:2363   */\n      tag_214\n      jump\t// in\n    tag_279:\n        /* \"#utility.yul\":2332:2337   */\n      dup2\n        /* \"#utility.yul\":2329:2364   */\n      eq\n        /* \"#utility.yul\":2319:2382   */\n      tag_280\n      jumpi\n        /* \"#utility.yul\":2378:2379   */\n      0x00\n        /* \"#utility.yul\":2375:2376   */\n      dup1\n        /* \"#utility.yul\":2368:2380   */\n      revert\n        /* \"#utility.yul\":2319:2382   */\n    tag_280:\n        /* \"#utility.yul\":2266:2388   */\n      pop\n      jump\t// out\n        /* \"#utility.yul\":2394:2533   */\n    tag_216:\n        /* \"#utility.yul\":2440:2445   */\n      0x00\n        /* \"#utility.yul\":2478:2484   */\n      dup2\n        /* \"#utility.yul\":2465:2485   */\n      calldataload\n        /* \"#utility.yul\":2456:2485   */\n      swap1\n      pop\n        /* \"#utility.yul\":2494:2527   */\n      tag_282\n        /* \"#utility.yul\":2521:2526   */\n      dup2\n        /* \"#utility.yul\":2494:2527   */\n      tag_215\n      jump\t// in\n    tag_282:\n        /* \"#utility.yul\":2394:2533   */\n      swap3\n      swap2\n      pop\n      pop\n      jump\t// out\n        /* \"#utility.yul\":2539:3013   */\n    tag_28:\n        /* \"#utility.yul\":2607:2613   */\n      0x00\n        /* \"#utility.yul\":2615:2621   */\n      dup1\n        /* \"#utility.yul\":2664:2666   */\n      0x40\n        /* \"#utility.yul\":2652:2661   */\n      dup4\n        /* \"#utility.yul\":2643:2650   */\n      dup6\n        /* \"#utility.yul\":2639:2662   */\n      sub\n        /* \"#utility.yul\":2635:2667   */\n      slt\n        /* \"#utility.yul\":2632:2751   */\n      iszero\n      tag_284\n      jumpi\n        /* \"#utility.yul\":2670:2749   */\n      tag_285\n      tag_208\n      jump\t// in\n    tag_285:\n        /* \"#utility.yul\":2632:2751   */\n    tag_284:\n        /* \"#utility.yul\":2790:2791   */\n      0x00\n        /* \"#utility.yul\":2815:2868   */\n      tag_286\n        /* \"#utility.yul\":2860:2867   */\n      dup6\n        /* \"#utility.yul\":2851:2857   */\n      dup3\n        /* \"#utility.yul\":2840:2849   */\n      dup7\n        /* \"#utility.yul\":2836:2858   */\n      add\n        /* \"#utility.yul\":2815:2868   */\n      tag_213\n      jump\t// in\n    tag_286:\n        /* \"#utility.yul\":2805:2868   */\n      swap3\n      pop\n        /* \"#utility.yul\":2761:2878   */\n      pop\n        /* \"#utility.yul\":2917:2919   */\n      0x20\n        /* \"#utility.yul\":2943:2996   */\n      tag_287\n        /* \"#utility.yul\":2988:2995   */\n      dup6\n        /* \"#utility.yul\":2979:2985   */\n      dup3\n        /* \"#utility.yul\":2968:2977   */\n      dup7\n        /* \"#utility.yul\":2964:2986   */\n      add\n        /* \"#utility.yul\":2943:2996   */\n      tag_216\n      jump\t// in\n    tag_287:\n        /* \"#utility.yul\":2933:2996   */\n      swap2\n      pop\n        /* \"#utility.yul\":2888:3006   */\n      pop\n        /* \"#utility.yul\":2539:3013   */\n      swap3\n      pop\n      swap3\n      swap1\n      pop\n      jump\t// out\n        /* \"#utility.yul\":3019:3109   */\n    tag_217:\n        /* \"#utility.yul\":3053:3060   */\n      0x00\n        /* \"#utility.yul\":3096:3101   */\n      dup2\n        /* \"#utility.yul\":3089:3102   */\n      iszero\n        /* \"#utility.yul\":3082:3103   */\n      iszero\n        /* \"#utility.yul\":3071:3103   */\n      swap1\n      pop\n        /* \"#utility.yul\":3019:3109   */\n      swap2\n      swap1\n      pop\n      jump\t// out\n        /* \"#utility.yul\":3115:3224   */\n    tag_218:\n        /* \"#utility.yul\":3196:3217   */\n      tag_290\n        /* \"#utility.yul\":3211:3216   */\n      dup2\n        /* \"#utility.yul\":3196:3217   */\n      tag_217\n      jump\t// in\n    tag_290:\n        /* \"#utility.yul\":3191:3194   */\n      dup3\n        /* \"#utility.yul\":3184:3218   */\n      mstore\n        /* \"#utility.yul\":3115:3224   */\n      pop\n      pop\n      jump\t// out\n        /* \"#utility.yul\":3230:3440   */\n    tag_31:\n        /* \"#utility.yul\":3317:3321   */\n      0x00\n        /* \"#utility.yul\":3355:3357   */\n      0x20\n        /* \"#utility.yul\":3344:3353   */\n      dup3\n        /* \"#utility.yul\":3340:3358   */\n      add\n        /* \"#utility.yul\":3332:3358   */\n      swap1\n      pop\n        /* \"#utility.yul\":3368:3433   */\n      tag_292\n        /* \"#utility.yul\":3430:3431   */\n      0x00\n        /* \"#utility.yul\":3419:3428   */\n      dup4\n        /* \"#utility.yul\":3415:3432   */\n      add\n        /* \"#utility.yul\":3406:3412   */\n      dup5\n        /* \"#utility.yul\":3368:3433   */\n      tag_218\n      jump\t// in\n    tag_292:\n        /* \"#utility.yul\":3230:3440   */\n      swap3\n      swap2\n      pop\n      pop\n      jump\t// out\n        /* \"#utility.yul\":3446:3564   */\n    tag_219:\n        /* \"#utility.yul\":3533:3557   */\n      tag_294\n        /* \"#utility.yul\":3551:3556   */\n      dup2\n        /* \"#utility.yul\":3533:3557   */\n      tag_214\n      jump\t// in\n    tag_294:\n        /* \"#utility.yul\":3528:3531   */\n      dup3\n        /* \"#utility.yul\":3521:3558   */\n      mstore\n        /* \"#utility.yul\":3446:3564   */\n      pop\n      pop\n      jump\t// out\n        /* \"#utility.yul\":3570:3792   */\n    tag_36:\n        /* \"#utility.yul\":3663:3667   */\n      0x00\n        /* \"#utility.yul\":3701:3703   */\n      0x20\n        /* \"#utility.yul\":3690:3699   */\n      dup3\n        /* \"#utility.yul\":3686:3704   */\n      add\n        /* \"#utility.yul\":3678:3704   */\n      swap1\n      pop\n        /* \"#utility.yul\":3714:3785   */\n      tag_296\n        /* \"#utility.yul\":3782:3783   */\n      0x00\n        /* \"#utility.yul\":3771:3780   */\n      dup4\n        /* \"#utility.yul\":3767:3784   */\n      add\n        /* \"#utility.yul\":3758:3764   */\n      dup5\n        /* \"#utility.yul\":3714:3785   */\n      tag_219\n      jump\t// in\n    tag_296:\n        /* \"#utility.yul\":3570:3792   */\n      swap3\n      swap2\n      pop\n      pop\n      jump\t// out\n        /* \"#utility.yul\":3798:4417   */\n    tag_40:\n        /* \"#utility.yul\":3875:3881   */\n      0x00\n        /* \"#utility.yul\":3883:3889   */\n      dup1\n        /* \"#utility.yul\":3891:3897   */\n      0x00\n        /* \"#utility.yul\":3940:3942   */\n      0x60\n        /* \"#utility.yul\":3928:3937   */\n      dup5\n        /* \"#utility.yul\":3919:3926   */\n      dup7\n        /* \"#utility.yul\":3915:3938   */\n      sub\n        /* \"#utility.yul\":3911:3943   */\n      slt\n        /* \"#utility.yul\":3908:4027   */\n      iszero\n      tag_298\n      jumpi\n        /* \"#utility.yul\":3946:4025   */\n      tag_299\n      tag_208\n      jump\t// in\n    tag_299:\n        /* \"#utility.yul\":3908:4027   */\n    tag_298:\n        /* \"#utility.yul\":4066:4067   */\n      0x00\n        /* \"#utility.yul\":4091:4144   */\n      tag_300\n        /* \"#utility.yul\":4136:4143   */\n      dup7\n        /* \"#utility.yul\":4127:4133   */\n      dup3\n        /* \"#utility.yul\":4116:4125   */\n      dup8\n        /* \"#utility.yul\":4112:4134   */\n      add\n        /* \"#utility.yul\":4091:4144   */\n      tag_213\n      jump\t// in\n    tag_300:\n        /* \"#utility.yul\":4081:4144   */\n      swap4\n      pop\n        /* \"#utility.yul\":4037:4154   */\n      pop\n        /* \"#utility.yul\":4193:4195   */\n      0x20\n        /* \"#utility.yul\":4219:4272   */\n      tag_301\n        /* \"#utility.yul\":4264:4271   */\n      dup7\n        /* \"#utility.yul\":4255:4261   */\n      dup3\n        /* \"#utility.yul\":4244:4253   */\n      dup8\n        /* \"#utility.yul\":4240:4262   */\n      add\n        /* \"#utility.yul\":4219:4272   */\n      tag_213\n      jump\t// in\n    tag_301:\n        /* \"#utility.yul\":4209:4272   */\n      swap3\n      pop\n        /* \"#utility.yul\":4164:4282   */\n      pop\n        /* \"#utility.yul\":4321:4323   */\n      0x40\n        /* \"#utility.yul\":4347:4400   */\n      tag_302\n        /* \"#utility.yul\":4392:4399   */\n      dup7\n        /* \"#utility.yul\":4383:4389   */\n      dup3\n        /* \"#utility.yul\":4372:4381   */\n      dup8\n        /* \"#utility.yul\":4368:4390   */\n      add\n        /* \"#utility.yul\":4347:4400   */\n      tag_216\n      jump\t// in\n    tag_302:\n        /* \"#utility.yul\":4337:4400   */\n      swap2\n      pop\n        /* \"#utility.yul\":4292:4410   */\n      pop\n        /* \"#utility.yul\":3798:4417   */\n      swap3\n      pop\n      swap3\n      pop\n      swap3\n      jump\t// out\n        /* \"#utility.yul\":4423:4509   */\n    tag_220:\n        /* \"#utility.yul\":4458:4465   */\n      0x00\n        /* \"#utility.yul\":4498:4502   */\n      0xff\n        /* \"#utility.yul\":4491:4496   */\n      dup3\n        /* \"#utility.yul\":4487:4503   */\n      and\n        /* \"#utility.yul\":4476:4503   */\n      swap1\n      pop\n        /* \"#utility.yul\":4423:4509   */\n      swap2\n      swap1\n      pop\n      jump\t// out\n        /* \"#utility.yul\":4515:4627   */\n    tag_221:\n        /* \"#utility.yul\":4598:4620   */\n      tag_305\n        /* \"#utility.yul\":4614:4619   */\n      dup2\n        /* \"#utility.yul\":4598:4620   */\n      tag_220\n      jump\t// in\n    tag_305:\n        /* \"#utility.yul\":4593:4596   */\n      dup3\n        /* \"#utility.yul\":4586:4621   */\n      mstore\n        /* \"#utility.yul\":4515:4627   */\n      pop\n      pop\n      jump\t// out\n        /* \"#utility.yul\":4633:4847   */\n    tag_51:\n        /* \"#utility.yul\":4722:4726   */\n      0x00\n        /* \"#utility.yul\":4760:4762   */\n      0x20\n        /* \"#utility.yul\":4749:4758   */\n      dup3\n        /* \"#utility.yul\":4745:4763   */\n      add\n        /* \"#utility.yul\":4737:4763   */\n      swap1\n      pop\n        /* \"#utility.yul\":4773:4840   */\n      tag_307\n        /* \"#utility.yul\":4837:4838   */\n      0x00\n        /* \"#utility.yul\":4826:4835   */\n      dup4\n        /* \"#utility.yul\":4822:4839   */\n      add\n        /* \"#utility.yul\":4813:4819   */\n      dup5\n        /* \"#utility.yul\":4773:4840   */\n      tag_221\n      jump\t// in\n    tag_307:\n        /* \"#utility.yul\":4633:4847   */\n      swap3\n      swap2\n      pop\n      pop\n      jump\t// out\n        /* \"#utility.yul\":4853:5182   */\n    tag_66:\n        /* \"#utility.yul\":4912:4918   */\n      0x00\n        /* \"#utility.yul\":4961:4963   */\n      0x20\n        /* \"#utility.yul\":4949:4958   */\n      dup3\n        /* \"#utility.yul\":4940:4947   */\n      dup5\n        /* \"#utility.yul\":4936:4959   */\n      sub\n        /* \"#utility.yul\":4932:4964   */\n      slt\n        /* \"#utility.yul\":4929:5048   */\n      iszero\n      tag_309\n      jumpi\n        /* \"#utility.yul\":4967:5046   */\n      tag_310\n      tag_208\n      jump\t// in\n    tag_310:\n        /* \"#utility.yul\":4929:5048   */\n    tag_309:\n        /* \"#utility.yul\":5087:5088   */\n      0x00\n        /* \"#utility.yul\":5112:5165   */\n      tag_311\n        /* \"#utility.yul\":5157:5164   */\n      dup5\n        /* \"#utility.yul\":5148:5154   */\n      dup3\n        /* \"#utility.yul\":5137:5146   */\n      dup6\n        /* \"#utility.yul\":5133:5155   */\n      add\n        /* \"#utility.yul\":5112:5165   */\n      tag_213\n      jump\t// in\n    tag_311:\n        /* \"#utility.yul\":5102:5165   */\n      swap2\n      pop\n        /* \"#utility.yul\":5058:5175   */\n      pop\n        /* \"#utility.yul\":4853:5182   */\n      swap3\n      swap2\n      pop\n      pop\n      jump\t// out\n        /* \"#utility.yul\":5188:5306   */\n    tag_222:\n        /* \"#utility.yul\":5275:5299   */\n      tag_313\n        /* \"#utility.yul\":5293:5298   */\n      dup2\n        /* \"#utility.yul\":5275:5299   */\n      tag_211\n      jump\t// in\n    tag_313:\n        /* \"#utility.yul\":5270:5273   */\n      dup3\n        /* \"#utility.yul\":5263:5300   */\n      mstore\n        /* \"#utility.yul\":5188:5306   */\n      pop\n      pop\n      jump\t// out\n        /* \"#utility.yul\":5312:5534   */\n    tag_73:\n        /* \"#utility.yul\":5405:5409   */\n      0x00\n        /* \"#utility.yul\":5443:5445   */\n      0x20\n        /* \"#utility.yul\":5432:5441   */\n      dup3\n        /* \"#utility.yul\":5428:5446   */\n      add\n        /* \"#utility.yul\":5420:5446   */\n      swap1\n      pop\n        /* \"#utility.yul\":5456:5527   */\n      tag_315\n        /* \"#utility.yul\":5524:5525   */\n      0x00\n        /* \"#utility.yul\":5513:5522   */\n      dup4\n        /* \"#utility.yul\":5509:5526   */\n      add\n        /* \"#utility.yul\":5500:5506   */\n      dup5\n        /* \"#utility.yul\":5456:5527   */\n      tag_222\n      jump\t// in\n    tag_315:\n        /* \"#utility.yul\":5312:5534   */\n      swap3\n      swap2\n      pop\n      pop\n      jump\t// out\n        /* \"#utility.yul\":5540:6014   */\n    tag_91:\n        /* \"#utility.yul\":5608:5614   */\n      0x00\n        /* \"#utility.yul\":5616:5622   */\n      dup1\n        /* \"#utility.yul\":5665:5667   */\n      0x40\n        /* \"#utility.yul\":5653:5662   */\n      dup4\n        /* \"#utility.yul\":5644:5651   */\n      dup6\n        /* \"#utility.yul\":5640:5663   */\n      sub\n        /* \"#utility.yul\":5636:5668   */\n      slt\n        /* \"#utility.yul\":5633:5752   */\n      iszero\n      tag_317\n      jumpi\n        /* \"#utility.yul\":5671:5750   */\n      tag_318\n      tag_208\n      jump\t// in\n    tag_318:\n        /* \"#utility.yul\":5633:5752   */\n    tag_317:\n        /* \"#utility.yul\":5791:5792   */\n      0x00\n        /* \"#utility.yul\":5816:5869   */\n      tag_319\n        /* \"#utility.yul\":5861:5868   */\n      dup6\n        /* \"#utility.yul\":5852:5858   */\n      dup3\n        /* \"#utility.yul\":5841:5850   */\n      dup7\n        /* \"#utility.yul\":5837:5859   */\n      add\n        /* \"#utility.yul\":5816:5869   */\n      tag_213\n      jump\t// in\n    tag_319:\n        /* \"#utility.yul\":5806:5869   */\n      swap3\n      pop\n        /* \"#utility.yul\":5762:5879   */\n      pop\n        /* \"#utility.yul\":5918:5920   */\n      0x20\n        /* \"#utility.yul\":5944:5997   */\n      tag_320\n        /* \"#utility.yul\":5989:5996   */\n      dup6\n        /* \"#utility.yul\":5980:5986   */\n      dup3\n        /* \"#utility.yul\":5969:5978   */\n      dup7\n        /* \"#utility.yul\":5965:5987   */\n      add\n        /* \"#utility.yul\":5944:5997   */\n      tag_213\n      jump\t// in\n    tag_320:\n        /* \"#utility.yul\":5934:5997   */\n      swap2\n      pop\n        /* \"#utility.yul\":5889:6007   */\n      pop\n        /* \"#utility.yul\":5540:6014   */\n      swap3\n      pop\n      swap3\n      swap1\n      pop\n      jump\t// out\n        /* \"#utility.yul\":6020:6189   */\n    tag_223:\n        /* \"#utility.yul\":6160:6181   */\n      0x556e617574686f72697a656420456e7469747900000000000000000000000000\n        /* \"#utility.yul\":6156:6157   */\n      0x00\n        /* \"#utility.yul\":6148:6154   */\n      dup3\n        /* \"#utility.yul\":6144:6158   */\n      add\n        /* \"#utility.yul\":6137:6182   */\n      mstore\n        /* \"#utility.yul\":6020:6189   */\n      pop\n      jump\t// out\n        /* \"#utility.yul\":6195:6561   */\n    tag_224:\n        /* \"#utility.yul\":6337:6340   */\n      0x00\n        /* \"#utility.yul\":6358:6425   */\n      tag_323\n        /* \"#utility.yul\":6422:6424   */\n      0x13\n        /* \"#utility.yul\":6417:6420   */\n      dup4\n        /* \"#utility.yul\":6358:6425   */\n      tag_203\n      jump\t// in\n    tag_323:\n        /* \"#utility.yul\":6351:6425   */\n      swap2\n      pop\n        /* \"#utility.yul\":6434:6527   */\n      tag_324\n        /* \"#utility.yul\":6523:6526   */\n      dup3\n        /* \"#utility.yul\":6434:6527   */\n      tag_223\n      jump\t// in\n    tag_324:\n        /* \"#utility.yul\":6552:6554   */\n      0x20\n        /* \"#utility.yul\":6547:6550   */\n      dup3\n        /* \"#utility.yul\":6543:6555   */\n      add\n        /* \"#utility.yul\":6536:6555   */\n      swap1\n      pop\n        /* \"#utility.yul\":6195:6561   */\n      swap2\n      swap1\n      pop\n      jump\t// out\n        /* \"#utility.yul\":6567:6986   */\n    tag_110:\n        /* \"#utility.yul\":6733:6737   */\n      0x00\n        /* \"#utility.yul\":6771:6773   */\n      0x20\n        /* \"#utility.yul\":6760:6769   */\n      dup3\n        /* \"#utility.yul\":6756:6774   */\n      add\n        /* \"#utility.yul\":6748:6774   */\n      swap1\n      pop\n        /* \"#utility.yul\":6820:6829   */\n      dup2\n        /* \"#utility.yul\":6814:6818   */\n      dup2\n        /* \"#utility.yul\":6810:6830   */\n      sub\n        /* \"#utility.yul\":6806:6807   */\n      0x00\n        /* \"#utility.yul\":6795:6804   */\n      dup4\n        /* \"#utility.yul\":6791:6808   */\n      add\n        /* \"#utility.yul\":6784:6831   */\n      mstore\n        /* \"#utility.yul\":6848:6979   */\n      tag_326\n        /* \"#utility.yul\":6974:6978   */\n      dup2\n        /* \"#utility.yul\":6848:6979   */\n      tag_224\n      jump\t// in\n    tag_326:\n        /* \"#utility.yul\":6840:6979   */\n      swap1\n      pop\n        /* \"#utility.yul\":6567:6986   */\n      swap2\n      swap1\n      pop\n      jump\t// out\n        /* \"#utility.yul\":6992:7160   */\n    tag_225:\n        /* \"#utility.yul\":7132:7152   */\n      0x494e53554646494349454e542046554e44530000000000000000000000000000\n        /* \"#utility.yul\":7128:7129   */\n      0x00\n        /* \"#utility.yul\":7120:7126   */\n      dup3\n        /* \"#utility.yul\":7116:7130   */\n      add\n        /* \"#utility.yul\":7109:7153   */\n      mstore\n        /* \"#utility.yul\":6992:7160   */\n      pop\n      jump\t// out\n        /* \"#utility.yul\":7166:7532   */\n    tag_226:\n        /* \"#utility.yul\":7308:7311   */\n      0x00\n        /* \"#utility.yul\":7329:7396   */\n      tag_329\n        /* \"#utility.yul\":7393:7395   */\n      0x12\n        /* \"#utility.yul\":7388:7391   */\n      dup4\n        /* \"#utility.yul\":7329:7396   */\n      tag_203\n      jump\t// in\n    tag_329:\n        /* \"#utility.yul\":7322:7396   */\n      swap2\n      pop\n        /* \"#utility.yul\":7405:7498   */\n      tag_330\n        /* \"#utility.yul\":7494:7497   */\n      dup3\n        /* \"#utility.yul\":7405:7498   */\n      tag_225\n      jump\t// in\n    tag_330:\n        /* \"#utility.yul\":7523:7525   */\n      0x20\n        /* \"#utility.yul\":7518:7521   */\n      dup3\n        /* \"#utility.yul\":7514:7526   */\n      add\n        /* \"#utility.yul\":7507:7526   */\n      swap1\n      pop\n        /* \"#utility.yul\":7166:7532   */\n      swap2\n      swap1\n      pop\n      jump\t// out\n        /* \"#utility.yul\":7538:7957   */\n    tag_114:\n        /* \"#utility.yul\":7704:7708   */\n      0x00\n        /* \"#utility.yul\":7742:7744   */\n      0x20\n        /* \"#utility.yul\":7731:7740   */\n      dup3\n        /* \"#utility.yul\":7727:7745   */\n      add\n        /* \"#utility.yul\":7719:7745   */\n      swap1\n      pop\n        /* \"#utility.yul\":7791:7800   */\n      dup2\n        /* \"#utility.yul\":7785:7789   */\n      dup2\n        /* \"#utility.yul\":7781:7801   */\n      sub\n        /* \"#utility.yul\":7777:7778   */\n      0x00\n        /* \"#utility.yul\":7766:7775   */\n      dup4\n        /* \"#utility.yul\":7762:7779   */\n      add\n        /* \"#utility.yul\":7755:7802   */\n      mstore\n        /* \"#utility.yul\":7819:7950   */\n      tag_332\n        /* \"#utility.yul\":7945:7949   */\n      dup2\n        /* \"#utility.yul\":7819:7950   */\n      tag_226\n      jump\t// in\n    tag_332:\n        /* \"#utility.yul\":7811:7950   */\n      swap1\n      pop\n        /* \"#utility.yul\":7538:7957   */\n      swap2\n      swap1\n      pop\n      jump\t// out\n        /* \"#utility.yul\":7963:8143   */\n    tag_227:\n        /* \"#utility.yul\":8011:8088   */\n      0x4e487b7100000000000000000000000000000000000000000000000000000000\n        /* \"#utility.yul\":8008:8009   */\n      0x00\n        /* \"#utility.yul\":8001:8089   */\n      mstore\n        /* \"#utility.yul\":8108:8112   */\n      0x11\n        /* \"#utility.yul\":8105:8106   */\n      0x04\n        /* \"#utility.yul\":8098:8113   */\n      mstore\n        /* \"#utility.yul\":8132:8136   */\n      0x24\n        /* \"#utility.yul\":8129:8130   */\n      0x00\n        /* \"#utility.yul\":8122:8137   */\n      revert\n        /* \"#utility.yul\":8149:8559   */\n    tag_116:\n        /* \"#utility.yul\":8189:8196   */\n      0x00\n        /* \"#utility.yul\":8212:8232   */\n      tag_335\n        /* \"#utility.yul\":8230:8231   */\n      dup3\n        /* \"#utility.yul\":8212:8232   */\n      tag_214\n      jump\t// in\n    tag_335:\n        /* \"#utility.yul\":8207:8232   */\n      swap2\n      pop\n        /* \"#utility.yul\":8246:8266   */\n      tag_336\n        /* \"#utility.yul\":8264:8265   */\n      dup4\n        /* \"#utility.yul\":8246:8266   */\n      tag_214\n      jump\t// in\n    tag_336:\n        /* \"#utility.yul\":8241:8266   */\n      swap3\n      pop\n        /* \"#utility.yul\":8301:8302   */\n      dup3\n        /* \"#utility.yul\":8298:8299   */\n      dup3\n        /* \"#utility.yul\":8294:8303   */\n      mul\n        /* \"#utility.yul\":8323:8353   */\n      tag_337\n        /* \"#utility.yul\":8341:8352   */\n      dup2\n        /* \"#utility.yul\":8323:8353   */\n      tag_214\n      jump\t// in\n    tag_337:\n        /* \"#utility.yul\":8312:8353   */\n      swap2\n      pop\n        /* \"#utility.yul\":8502:8503   */\n      dup3\n        /* \"#utility.yul\":8493:8500   */\n      dup3\n        /* \"#utility.yul\":8489:8504   */\n      div\n        /* \"#utility.yul\":8486:8487   */\n      dup5\n        /* \"#utility.yul\":8483:8505   */\n      eq\n        /* \"#utility.yul\":8463:8464   */\n      dup4\n        /* \"#utility.yul\":8456:8465   */\n      iszero\n        /* \"#utility.yul\":8436:8519   */\n      or\n        /* \"#utility.yul\":8413:8552   */\n      tag_338\n      jumpi\n        /* \"#utility.yul\":8532:8550   */\n      tag_339\n      tag_227\n      jump\t// in\n    tag_339:\n        /* \"#utility.yul\":8413:8552   */\n    tag_338:\n        /* \"#utility.yul\":8197:8559   */\n      pop\n        /* \"#utility.yul\":8149:8559   */\n      swap3\n      swap2\n      pop\n      pop\n      jump\t// out\n        /* \"#utility.yul\":8565:8756   */\n    tag_125:\n        /* \"#utility.yul\":8605:8608   */\n      0x00\n        /* \"#utility.yul\":8624:8644   */\n      tag_341\n        /* \"#utility.yul\":8642:8643   */\n      dup3\n        /* \"#utility.yul\":8624:8644   */\n      tag_214\n      jump\t// in\n    tag_341:\n        /* \"#utility.yul\":8619:8644   */\n      swap2\n      pop\n        /* \"#utility.yul\":8658:8678   */\n      tag_342\n        /* \"#utility.yul\":8676:8677   */\n      dup4\n        /* \"#utility.yul\":8658:8678   */\n      tag_214\n      jump\t// in\n    tag_342:\n        /* \"#utility.yul\":8653:8678   */\n      swap3\n      pop\n        /* \"#utility.yul\":8701:8702   */\n      dup3\n        /* \"#utility.yul\":8698:8699   */\n      dup3\n        /* \"#utility.yul\":8694:8703   */\n      add\n        /* \"#utility.yul\":8687:8703   */\n      swap1\n      pop\n        /* \"#utility.yul\":8722:8725   */\n      dup1\n        /* \"#utility.yul\":8719:8720   */\n      dup3\n        /* \"#utility.yul\":8716:8726   */\n      gt\n        /* \"#utility.yul\":8713:8749   */\n      iszero\n      tag_343\n      jumpi\n        /* \"#utility.yul\":8729:8747   */\n      tag_344\n      tag_227\n      jump\t// in\n    tag_344:\n        /* \"#utility.yul\":8713:8749   */\n    tag_343:\n        /* \"#utility.yul\":8565:8756   */\n      swap3\n      swap2\n      pop\n      pop\n      jump\t// out\n        /* \"#utility.yul\":8762:8931   */\n    tag_228:\n        /* \"#utility.yul\":8902:8923   */\n      0x4d415820535550504c5920455843454544454400000000000000000000000000\n        /* \"#utility.yul\":8898:8899   */\n      0x00\n        /* \"#utility.yul\":8890:8896   */\n      dup3\n        /* \"#utility.yul\":8886:8900   */\n      add\n        /* \"#utility.yul\":8879:8924   */\n      mstore\n        /* \"#utility.yul\":8762:8931   */\n      pop\n      jump\t// out\n        /* \"#utility.yul\":8937:9303   */\n    tag_229:\n        /* \"#utility.yul\":9079:9082   */\n      0x00\n        /* \"#utility.yul\":9100:9167   */\n      tag_347\n        /* \"#utility.yul\":9164:9166   */\n      0x13\n        /* \"#utility.yul\":9159:9162   */\n      dup4\n        /* \"#utility.yul\":9100:9167   */\n      tag_203\n      jump\t// in\n    tag_347:\n        /* \"#utility.yul\":9093:9167   */\n      swap2\n      pop\n        /* \"#utility.yul\":9176:9269   */\n      tag_348\n        /* \"#utility.yul\":9265:9268   */\n      dup3\n        /* \"#utility.yul\":9176:9269   */\n      tag_228\n      jump\t// in\n    tag_348:\n        /* \"#utility.yul\":9294:9296   */\n      0x20\n        /* \"#utility.yul\":9289:9292   */\n      dup3\n        /* \"#utility.yul\":9285:9297   */\n      add\n        /* \"#utility.yul\":9278:9297   */\n      swap1\n      pop\n        /* \"#utility.yul\":8937:9303   */\n      swap2\n      swap1\n      pop\n      jump\t// out\n        /* \"#utility.yul\":9309:9728   */\n    tag_134:\n        /* \"#utility.yul\":9475:9479   */\n      0x00\n        /* \"#utility.yul\":9513:9515   */\n      0x20\n        /* \"#utility.yul\":9502:9511   */\n      dup3\n        /* \"#utility.yul\":9498:9516   */\n      add\n        /* \"#utility.yul\":9490:9516   */\n      swap1\n      pop\n        /* \"#utility.yul\":9562:9571   */\n      dup2\n        /* \"#utility.yul\":9556:9560   */\n      dup2\n        /* \"#utility.yul\":9552:9572   */\n      sub\n        /* \"#utility.yul\":9548:9549   */\n      0x00\n        /* \"#utility.yul\":9537:9546   */\n      dup4\n        /* \"#utility.yul\":9533:9550   */\n      add\n        /* \"#utility.yul\":9526:9573   */\n      mstore\n        /* \"#utility.yul\":9590:9721   */\n      tag_350\n        /* \"#utility.yul\":9716:9720   */\n      dup2\n        /* \"#utility.yul\":9590:9721   */\n      tag_229\n      jump\t// in\n    tag_350:\n        /* \"#utility.yul\":9582:9721   */\n      swap1\n      pop\n        /* \"#utility.yul\":9309:9728   */\n      swap2\n      swap1\n      pop\n      jump\t// out\n        /* \"#utility.yul\":9734:9907   */\n    tag_230:\n        /* \"#utility.yul\":9874:9899   */\n      0x455448204d555354204245204d4f5245205448414e2030000000000000000000\n        /* \"#utility.yul\":9870:9871   */\n      0x00\n        /* \"#utility.yul\":9862:9868   */\n      dup3\n        /* \"#utility.yul\":9858:9872   */\n      add\n        /* \"#utility.yul\":9851:9900   */\n      mstore\n        /* \"#utility.yul\":9734:9907   */\n      pop\n      jump\t// out\n        /* \"#utility.yul\":9913:10279   */\n    tag_231:\n        /* \"#utility.yul\":10055:10058   */\n      0x00\n        /* \"#utility.yul\":10076:10143   */\n      tag_353\n        /* \"#utility.yul\":10140:10142   */\n      0x17\n        /* \"#utility.yul\":10135:10138   */\n      dup4\n        /* \"#utility.yul\":10076:10143   */\n      tag_203\n      jump\t// in\n    tag_353:\n        /* \"#utility.yul\":10069:10143   */\n      swap2\n      pop\n        /* \"#utility.yul\":10152:10245   */\n      tag_354\n        /* \"#utility.yul\":10241:10244   */\n      dup3\n        /* \"#utility.yul\":10152:10245   */\n      tag_230\n      jump\t// in\n    tag_354:\n        /* \"#utility.yul\":10270:10272   */\n      0x20\n        /* \"#utility.yul\":10265:10268   */\n      dup3\n        /* \"#utility.yul\":10261:10273   */\n      add\n        /* \"#utility.yul\":10254:10273   */\n      swap1\n      pop\n        /* \"#utility.yul\":9913:10279   */\n      swap2\n      swap1\n      pop\n      jump\t// out\n        /* \"#utility.yul\":10285:10704   */\n    tag_140:\n        /* \"#utility.yul\":10451:10455   */\n      0x00\n        /* \"#utility.yul\":10489:10491   */\n      0x20\n        /* \"#utility.yul\":10478:10487   */\n      dup3\n        /* \"#utility.yul\":10474:10492   */\n      add\n        /* \"#utility.yul\":10466:10492   */\n      swap1\n      pop\n        /* \"#utility.yul\":10538:10547   */\n      dup2\n        /* \"#utility.yul\":10532:10536   */\n      dup2\n        /* \"#utility.yul\":10528:10548   */\n      sub\n        /* \"#utility.yul\":10524:10525   */\n      0x00\n        /* \"#utility.yul\":10513:10522   */\n      dup4\n        /* \"#utility.yul\":10509:10526   */\n      add\n        /* \"#utility.yul\":10502:10549   */\n      mstore\n        /* \"#utility.yul\":10566:10697   */\n      tag_356\n        /* \"#utility.yul\":10692:10696   */\n      dup2\n        /* \"#utility.yul\":10566:10697   */\n      tag_231\n      jump\t// in\n    tag_356:\n        /* \"#utility.yul\":10558:10697   */\n      swap1\n      pop\n        /* \"#utility.yul\":10285:10704   */\n      swap2\n      swap1\n      pop\n      jump\t// out\n        /* \"#utility.yul\":10710:10874   */\n    tag_232:\n        /* \"#utility.yul\":10850:10866   */\n      0x4e4f5420454e4f55474820455448000000000000000000000000000000000000\n        /* \"#utility.yul\":10846:10847   */\n      0x00\n        /* \"#utility.yul\":10838:10844   */\n      dup3\n        /* \"#utility.yul\":10834:10848   */\n      add\n        /* \"#utility.yul\":10827:10867   */\n      mstore\n        /* \"#utility.yul\":10710:10874   */\n      pop\n      jump\t// out\n        /* \"#utility.yul\":10880:11246   */\n    tag_233:\n        /* \"#utility.yul\":11022:11025   */\n      0x00\n        /* \"#utility.yul\":11043:11110   */\n      tag_359\n        /* \"#utility.yul\":11107:11109   */\n      0x0e\n        /* \"#utility.yul\":11102:11105   */\n      dup4\n        /* \"#utility.yul\":11043:11110   */\n      tag_203\n      jump\t// in\n    tag_359:\n        /* \"#utility.yul\":11036:11110   */\n      swap2\n      pop\n        /* \"#utility.yul\":11119:11212   */\n      tag_360\n        /* \"#utility.yul\":11208:11211   */\n      dup3\n        /* \"#utility.yul\":11119:11212   */\n      tag_232\n      jump\t// in\n    tag_360:\n        /* \"#utility.yul\":11237:11239   */\n      0x20\n        /* \"#utility.yul\":11232:11235   */\n      dup3\n        /* \"#utility.yul\":11228:11240   */\n      add\n        /* \"#utility.yul\":11221:11240   */\n      swap1\n      pop\n        /* \"#utility.yul\":10880:11246   */\n      swap2\n      swap1\n      pop\n      jump\t// out\n        /* \"#utility.yul\":11252:11671   */\n    tag_143:\n        /* \"#utility.yul\":11418:11422   */\n      0x00\n        /* \"#utility.yul\":11456:11458   */\n      0x20\n        /* \"#utility.yul\":11445:11454   */\n      dup3\n        /* \"#utility.yul\":11441:11459   */\n      add\n        /* \"#utility.yul\":11433:11459   */\n      swap1\n      pop\n        /* \"#utility.yul\":11505:11514   */\n      dup2\n        /* \"#utility.yul\":11499:11503   */\n      dup2\n        /* \"#utility.yul\":11495:11515   */\n      sub\n        /* \"#utility.yul\":11491:11492   */\n      0x00\n        /* \"#utility.yul\":11480:11489   */\n      dup4\n        /* \"#utility.yul\":11476:11493   */\n      add\n        /* \"#utility.yul\":11469:11516   */\n      mstore\n        /* \"#utility.yul\":11533:11664   */\n      tag_362\n        /* \"#utility.yul\":11659:11663   */\n      dup2\n        /* \"#utility.yul\":11533:11664   */\n      tag_233\n      jump\t// in\n    tag_362:\n        /* \"#utility.yul\":11525:11664   */\n      swap1\n      pop\n        /* \"#utility.yul\":11252:11671   */\n      swap2\n      swap1\n      pop\n      jump\t// out\n        /* \"#utility.yul\":11677:11857   */\n    tag_234:\n        /* \"#utility.yul\":11725:11802   */\n      0x4e487b7100000000000000000000000000000000000000000000000000000000\n        /* \"#utility.yul\":11722:11723   */\n      0x00\n        /* \"#utility.yul\":11715:11803   */\n      mstore\n        /* \"#utility.yul\":11822:11826   */\n      0x12\n        /* \"#utility.yul\":11819:11820   */\n      0x04\n        /* \"#utility.yul\":11812:11827   */\n      mstore\n        /* \"#utility.yul\":11846:11850   */\n      0x24\n        /* \"#utility.yul\":11843:11844   */\n      0x00\n        /* \"#utility.yul\":11836:11851   */\n      revert\n        /* \"#utility.yul\":11863:12048   */\n    tag_147:\n        /* \"#utility.yul\":11903:11904   */\n      0x00\n        /* \"#utility.yul\":11920:11940   */\n      tag_365\n        /* \"#utility.yul\":11938:11939   */\n      dup3\n        /* \"#utility.yul\":11920:11940   */\n      tag_214\n      jump\t// in\n    tag_365:\n        /* \"#utility.yul\":11915:11940   */\n      swap2\n      pop\n        /* \"#utility.yul\":11954:11974   */\n      tag_366\n        /* \"#utility.yul\":11972:11973   */\n      dup4\n        /* \"#utility.yul\":11954:11974   */\n      tag_214\n      jump\t// in\n    tag_366:\n        /* \"#utility.yul\":11949:11974   */\n      swap3\n      pop\n        /* \"#utility.yul\":11993:11994   */\n      dup3\n        /* \"#utility.yul\":11983:12018   */\n      tag_367\n      jumpi\n        /* \"#utility.yul\":11998:12016   */\n      tag_368\n      tag_234\n      jump\t// in\n    tag_368:\n        /* \"#utility.yul\":11983:12018   */\n    tag_367:\n        /* \"#utility.yul\":12040:12041   */\n      dup3\n        /* \"#utility.yul\":12037:12038   */\n      dup3\n        /* \"#utility.yul\":12033:12042   */\n      div\n        /* \"#utility.yul\":12028:12042   */\n      swap1\n      pop\n        /* \"#utility.yul\":11863:12048   */\n      swap3\n      swap2\n      pop\n      pop\n      jump\t// out\n        /* \"#utility.yul\":12054:12278   */\n    tag_235:\n        /* \"#utility.yul\":12194:12228   */\n      0x45524332303a2064656372656173656420616c6c6f77616e63652062656c6f77\n        /* \"#utility.yul\":12190:12191   */\n      0x00\n        /* \"#utility.yul\":12182:12188   */\n      dup3\n        /* \"#utility.yul\":12178:12192   */\n      add\n        /* \"#utility.yul\":12171:12229   */\n      mstore\n        /* \"#utility.yul\":12263:12270   */\n      0x207a65726f000000000000000000000000000000000000000000000000000000\n        /* \"#utility.yul\":12258:12260   */\n      0x20\n        /* \"#utility.yul\":12250:12256   */\n      dup3\n        /* \"#utility.yul\":12246:12261   */\n      add\n        /* \"#utility.yul\":12239:12271   */\n      mstore\n        /* \"#utility.yul\":12054:12278   */\n      pop\n      jump\t// out\n        /* \"#utility.yul\":12284:12650   */\n    tag_236:\n        /* \"#utility.yul\":12426:12429   */\n      0x00\n        /* \"#utility.yul\":12447:12514   */\n      tag_371\n        /* \"#utility.yul\":12511:12513   */\n      0x25\n        /* \"#utility.yul\":12506:12509   */\n      dup4\n        /* \"#utility.yul\":12447:12514   */\n      tag_203\n      jump\t// in\n    tag_371:\n        /* \"#utility.yul\":12440:12514   */\n      swap2\n      pop\n        /* \"#utility.yul\":12523:12616   */\n      tag_372\n        /* \"#utility.yul\":12612:12615   */\n      dup3\n        /* \"#utility.yul\":12523:12616   */\n      tag_235\n      jump\t// in\n    tag_372:\n        /* \"#utility.yul\":12641:12643   */\n      0x40\n        /* \"#utility.yul\":12636:12639   */\n      dup3\n        /* \"#utility.yul\":12632:12644   */\n      add\n        /* \"#utility.yul\":12625:12644   */\n      swap1\n      pop\n        /* \"#utility.yul\":12284:12650   */\n      swap2\n      swap1\n      pop\n      jump\t// out\n        /* \"#utility.yul\":12656:13075   */\n    tag_155:\n        /* \"#utility.yul\":12822:12826   */\n      0x00\n        /* \"#utility.yul\":12860:12862   */\n      0x20\n        /* \"#utility.yul\":12849:12858   */\n      dup3\n        /* \"#utility.yul\":12845:12863   */\n      add\n        /* \"#utility.yul\":12837:12863   */\n      swap1\n      pop\n        /* \"#utility.yul\":12909:12918   */\n      dup2\n        /* \"#utility.yul\":12903:12907   */\n      dup2\n        /* \"#utility.yul\":12899:12919   */\n      sub\n        /* \"#utility.yul\":12895:12896   */\n      0x00\n        /* \"#utility.yul\":12884:12893   */\n      dup4\n        /* \"#utility.yul\":12880:12897   */\n      add\n        /* \"#utility.yul\":12873:12920   */\n      mstore\n        /* \"#utility.yul\":12937:13068   */\n      tag_374\n        /* \"#utility.yul\":13063:13067   */\n      dup2\n        /* \"#utility.yul\":12937:13068   */\n      tag_236\n      jump\t// in\n    tag_374:\n        /* \"#utility.yul\":12929:13068   */\n      swap1\n      pop\n        /* \"#utility.yul\":12656:13075   */\n      swap2\n      swap1\n      pop\n      jump\t// out\n        /* \"#utility.yul\":13081:13304   */\n    tag_237:\n        /* \"#utility.yul\":13221:13255   */\n      0x45524332303a20617070726f76652066726f6d20746865207a65726f20616464\n        /* \"#utility.yul\":13217:13218   */\n      0x00\n        /* \"#utility.yul\":13209:13215   */\n      dup3\n        /* \"#utility.yul\":13205:13219   */\n      add\n        /* \"#utility.yul\":13198:13256   */\n      mstore\n        /* \"#utility.yul\":13290:13296   */\n      0x7265737300000000000000000000000000000000000000000000000000000000\n        /* \"#utility.yul\":13285:13287   */\n      0x20\n        /* \"#utility.yul\":13277:13283   */\n      dup3\n        /* \"#utility.yul\":13273:13288   */\n      add\n        /* \"#utility.yul\":13266:13297   */\n      mstore\n        /* \"#utility.yul\":13081:13304   */\n      pop\n      jump\t// out\n        /* \"#utility.yul\":13310:13676   */\n    tag_238:\n        /* \"#utility.yul\":13452:13455   */\n      0x00\n        /* \"#utility.yul\":13473:13540   */\n      tag_377\n        /* \"#utility.yul\":13537:13539   */\n      0x24\n        /* \"#utility.yul\":13532:13535   */\n      dup4\n        /* \"#utility.yul\":13473:13540   */\n      tag_203\n      jump\t// in\n    tag_377:\n        /* \"#utility.yul\":13466:13540   */\n      swap2\n      pop\n        /* \"#utility.yul\":13549:13642   */\n      tag_378\n        /* \"#utility.yul\":13638:13641   */\n      dup3\n        /* \"#utility.yul\":13549:13642   */\n      tag_237\n      jump\t// in\n    tag_378:\n        /* \"#utility.yul\":13667:13669   */\n      0x40\n        /* \"#utility.yul\":13662:13665   */\n      dup3\n        /* \"#utility.yul\":13658:13670   */\n      add\n        /* \"#utility.yul\":13651:13670   */\n      swap1\n      pop\n        /* \"#utility.yul\":13310:13676   */\n      swap2\n      swap1\n      pop\n      jump\t// out\n        /* \"#utility.yul\":13682:14101   */\n    tag_165:\n        /* \"#utility.yul\":13848:13852   */\n      0x00\n        /* \"#utility.yul\":13886:13888   */\n      0x20\n        /* \"#utility.yul\":13875:13884   */\n      dup3\n        /* \"#utility.yul\":13871:13889   */\n      add\n        /* \"#utility.yul\":13863:13889   */\n      swap1\n      pop\n        /* \"#utility.yul\":13935:13944   */\n      dup2\n        /* \"#utility.yul\":13929:13933   */\n      dup2\n        /* \"#utility.yul\":13925:13945   */\n      sub\n        /* \"#utility.yul\":13921:13922   */\n      0x00\n        /* \"#utility.yul\":13910:13919   */\n      dup4\n        /* \"#utility.yul\":13906:13923   */\n      add\n        /* \"#utility.yul\":13899:13946   */\n      mstore\n        /* \"#utility.yul\":13963:14094   */\n      tag_380\n        /* \"#utility.yul\":14089:14093   */\n      dup2\n        /* \"#utility.yul\":13963:14094   */\n      tag_238\n      jump\t// in\n    tag_380:\n        /* \"#utility.yul\":13955:14094   */\n      swap1\n      pop\n        /* \"#utility.yul\":13682:14101   */\n      swap2\n      swap1\n      pop\n      jump\t// out\n        /* \"#utility.yul\":14107:14328   */\n    tag_239:\n        /* \"#utility.yul\":14247:14281   */\n      0x45524332303a20617070726f766520746f20746865207a65726f206164647265\n        /* \"#utility.yul\":14243:14244   */\n      0x00\n        /* \"#utility.yul\":14235:14241   */\n      dup3\n        /* \"#utility.yul\":14231:14245   */\n      add\n        /* \"#utility.yul\":14224:14282   */\n      mstore\n        /* \"#utility.yul\":14316:14320   */\n      0x7373000000000000000000000000000000000000000000000000000000000000\n        /* \"#utility.yul\":14311:14313   */\n      0x20\n        /* \"#utility.yul\":14303:14309   */\n      dup3\n        /* \"#utility.yul\":14299:14314   */\n      add\n        /* \"#utility.yul\":14292:14321   */\n      mstore\n        /* \"#utility.yul\":14107:14328   */\n      pop\n      jump\t// out\n        /* \"#utility.yul\":14334:14700   */\n    tag_240:\n        /* \"#utility.yul\":14476:14479   */\n      0x00\n        /* \"#utility.yul\":14497:14564   */\n      tag_383\n        /* \"#utility.yul\":14561:14563   */\n      0x22\n        /* \"#utility.yul\":14556:14559   */\n      dup4\n        /* \"#utility.yul\":14497:14564   */\n      tag_203\n      jump\t// in\n    tag_383:\n        /* \"#utility.yul\":14490:14564   */\n      swap2\n      pop\n        /* \"#utility.yul\":14573:14666   */\n      tag_384\n        /* \"#utility.yul\":14662:14665   */\n      dup3\n        /* \"#utility.yul\":14573:14666   */\n      tag_239\n      jump\t// in\n    tag_384:\n        /* \"#utility.yul\":14691:14693   */\n      0x40\n        /* \"#utility.yul\":14686:14689   */\n      dup3\n        /* \"#utility.yul\":14682:14694   */\n      add\n        /* \"#utility.yul\":14675:14694   */\n      swap1\n      pop\n        /* \"#utility.yul\":14334:14700   */\n      swap2\n      swap1\n      pop\n      jump\t// out\n        /* \"#utility.yul\":14706:15125   */\n    tag_168:\n        /* \"#utility.yul\":14872:14876   */\n      0x00\n        /* \"#utility.yul\":14910:14912   */\n      0x20\n        /* \"#utility.yul\":14899:14908   */\n      dup3\n        /* \"#utility.yul\":14895:14913   */\n      add\n        /* \"#utility.yul\":14887:14913   */\n      swap1\n      pop\n        /* \"#utility.yul\":14959:14968   */\n      dup2\n        /* \"#utility.yul\":14953:14957   */\n      dup2\n        /* \"#utility.yul\":14949:14969   */\n      sub\n        /* \"#utility.yul\":14945:14946   */\n      0x00\n        /* \"#utility.yul\":14934:14943   */\n      dup4\n        /* \"#utility.yul\":14930:14947   */\n      add\n        /* \"#utility.yul\":14923:14970   */\n      mstore\n        /* \"#utility.yul\":14987:15118   */\n      tag_386\n        /* \"#utility.yul\":15113:15117   */\n      dup2\n        /* \"#utility.yul\":14987:15118   */\n      tag_240\n      jump\t// in\n    tag_386:\n        /* \"#utility.yul\":14979:15118   */\n      swap1\n      pop\n        /* \"#utility.yul\":14706:15125   */\n      swap2\n      swap1\n      pop\n      jump\t// out\n        /* \"#utility.yul\":15131:15310   */\n    tag_241:\n        /* \"#utility.yul\":15271:15302   */\n      0x45524332303a20696e73756666696369656e7420616c6c6f77616e6365000000\n        /* \"#utility.yul\":15267:15268   */\n      0x00\n        /* \"#utility.yul\":15259:15265   */\n      dup3\n        /* \"#utility.yul\":15255:15269   */\n      add\n        /* \"#utility.yul\":15248:15303   */\n      mstore\n        /* \"#utility.yul\":15131:15310   */\n      pop\n      jump\t// out\n        /* \"#utility.yul\":15316:15682   */\n    tag_242:\n        /* \"#utility.yul\":15458:15461   */\n      0x00\n        /* \"#utility.yul\":15479:15546   */\n      tag_389\n        /* \"#utility.yul\":15543:15545   */\n      0x1d\n        /* \"#utility.yul\":15538:15541   */\n      dup4\n        /* \"#utility.yul\":15479:15546   */\n      tag_203\n      jump\t// in\n    tag_389:\n        /* \"#utility.yul\":15472:15546   */\n      swap2\n      pop\n        /* \"#utility.yul\":15555:15648   */\n      tag_390\n        /* \"#utility.yul\":15644:15647   */\n      dup3\n        /* \"#utility.yul\":15555:15648   */\n      tag_241\n      jump\t// in\n    tag_390:\n        /* \"#utility.yul\":15673:15675   */\n      0x20\n        /* \"#utility.yul\":15668:15671   */\n      dup3\n        /* \"#utility.yul\":15664:15676   */\n      add\n        /* \"#utility.yul\":15657:15676   */\n      swap1\n      pop\n        /* \"#utility.yul\":15316:15682   */\n      swap2\n      swap1\n      pop\n      jump\t// out\n        /* \"#utility.yul\":15688:16107   */\n    tag_175:\n        /* \"#utility.yul\":15854:15858   */\n      0x00\n        /* \"#utility.yul\":15892:15894   */\n      0x20\n        /* \"#utility.yul\":15881:15890   */\n      dup3\n        /* \"#utility.yul\":15877:15895   */\n      add\n        /* \"#utility.yul\":15869:15895   */\n      swap1\n      pop\n        /* \"#utility.yul\":15941:15950   */\n      dup2\n        /* \"#utility.yul\":15935:15939   */\n      dup2\n        /* \"#utility.yul\":15931:15951   */\n      sub\n        /* \"#utility.yul\":15927:15928   */\n      0x00\n        /* \"#utility.yul\":15916:15925   */\n      dup4\n        /* \"#utility.yul\":15912:15929   */\n      add\n        /* \"#utility.yul\":15905:15952   */\n      mstore\n        /* \"#utility.yul\":15969:16100   */\n      tag_392\n        /* \"#utility.yul\":16095:16099   */\n      dup2\n        /* \"#utility.yul\":15969:16100   */\n      tag_242\n      jump\t// in\n    tag_392:\n        /* \"#utility.yul\":15961:16100   */\n      swap1\n      pop\n        /* \"#utility.yul\":15688:16107   */\n      swap2\n      swap1\n      pop\n      jump\t// out\n        /* \"#utility.yul\":16113:16337   */\n    tag_243:\n        /* \"#utility.yul\":16253:16287   */\n      0x45524332303a207472616e736665722066726f6d20746865207a65726f206164\n        /* \"#utility.yul\":16249:16250   */\n      0x00\n        /* \"#utility.yul\":16241:16247   */\n      dup3\n        /* \"#utility.yul\":16237:16251   */\n      add\n        /* \"#utility.yul\":16230:16288   */\n      mstore\n        /* \"#utility.yul\":16322:16329   */\n      0x6472657373000000000000000000000000000000000000000000000000000000\n        /* \"#utility.yul\":16317:16319   */\n      0x20\n        /* \"#utility.yul\":16309:16315   */\n      dup3\n        /* \"#utility.yul\":16305:16320   */\n      add\n        /* \"#utility.yul\":16298:16330   */\n      mstore\n        /* \"#utility.yul\":16113:16337   */\n      pop\n      jump\t// out\n        /* \"#utility.yul\":16343:16709   */\n    tag_244:\n        /* \"#utility.yul\":16485:16488   */\n      0x00\n        /* \"#utility.yul\":16506:16573   */\n      tag_395\n        /* \"#utility.yul\":16570:16572   */\n      0x25\n        /* \"#utility.yul\":16565:16568   */\n      dup4\n        /* \"#utility.yul\":16506:16573   */\n      tag_203\n      jump\t// in\n    tag_395:\n        /* \"#utility.yul\":16499:16573   */\n      swap2\n      pop\n        /* \"#utility.yul\":16582:16675   */\n      tag_396\n        /* \"#utility.yul\":16671:16674   */\n      dup3\n        /* \"#utility.yul\":16582:16675   */\n      tag_243\n      jump\t// in\n    tag_396:\n        /* \"#utility.yul\":16700:16702   */\n      0x40\n        /* \"#utility.yul\":16695:16698   */\n      dup3\n        /* \"#utility.yul\":16691:16703   */\n      add\n        /* \"#utility.yul\":16684:16703   */\n      swap1\n      pop\n        /* \"#utility.yul\":16343:16709   */\n      swap2\n      swap1\n      pop\n      jump\t// out\n        /* \"#utility.yul\":16715:17134   */\n    tag_180:\n        /* \"#utility.yul\":16881:16885   */\n      0x00\n        /* \"#utility.yul\":16919:16921   */\n      0x20\n        /* \"#utility.yul\":16908:16917   */\n      dup3\n        /* \"#utility.yul\":16904:16922   */\n      add\n        /* \"#utility.yul\":16896:16922   */\n      swap1\n      pop\n        /* \"#utility.yul\":16968:16977   */\n      dup2\n        /* \"#utility.yul\":16962:16966   */\n      dup2\n        /* \"#utility.yul\":16958:16978   */\n      sub\n        /* \"#utility.yul\":16954:16955   */\n      0x00\n        /* \"#utility.yul\":16943:16952   */\n      dup4\n        /* \"#utility.yul\":16939:16956   */\n      add\n        /* \"#utility.yul\":16932:16979   */\n      mstore\n        /* \"#utility.yul\":16996:17127   */\n      tag_398\n        /* \"#utility.yul\":17122:17126   */\n      dup2\n        /* \"#utility.yul\":16996:17127   */\n      tag_244\n      jump\t// in\n    tag_398:\n        /* \"#utility.yul\":16988:17127   */\n      swap1\n      pop\n        /* \"#utility.yul\":16715:17134   */\n      swap2\n      swap1\n      pop\n      jump\t// out\n        /* \"#utility.yul\":17140:17362   */\n    tag_245:\n        /* \"#utility.yul\":17280:17314   */\n      0x45524332303a207472616e7366657220746f20746865207a65726f2061646472\n        /* \"#utility.yul\":17276:17277   */\n      0x00\n        /* \"#utility.yul\":17268:17274   */\n      dup3\n        /* \"#utility.yul\":17264:17278   */\n      add\n        /* \"#utility.yul\":17257:17315   */\n      mstore\n        /* \"#utility.yul\":17349:17354   */\n      0x6573730000000000000000000000000000000000000000000000000000000000\n        /* \"#utility.yul\":17344:17346   */\n      0x20\n        /* \"#utility.yul\":17336:17342   */\n      dup3\n        /* \"#utility.yul\":17332:17347   */\n      add\n        /* \"#utility.yul\":17325:17355   */\n      mstore\n        /* \"#utility.yul\":17140:17362   */\n      pop\n      jump\t// out\n        /* \"#utility.yul\":17368:17734   */\n    tag_246:\n        /* \"#utility.yul\":17510:17513   */\n      0x00\n        /* \"#utility.yul\":17531:17598   */\n      tag_401\n        /* \"#utility.yul\":17595:17597   */\n      0x23\n        /* \"#utility.yul\":17590:17593   */\n      dup4\n        /* \"#utility.yul\":17531:17598   */\n      tag_203\n      jump\t// in\n    tag_401:\n        /* \"#utility.yul\":17524:17598   */\n      swap2\n      pop\n        /* \"#utility.yul\":17607:17700   */\n      tag_402\n        /* \"#utility.yul\":17696:17699   */\n      dup3\n        /* \"#utility.yul\":17607:17700   */\n      tag_245\n      jump\t// in\n    tag_402:\n        /* \"#utility.yul\":17725:17727   */\n      0x40\n        /* \"#utility.yul\":17720:17723   */\n      dup3\n        /* \"#utility.yul\":17716:17728   */\n      add\n        /* \"#utility.yul\":17709:17728   */\n      swap1\n      pop\n        /* \"#utility.yul\":17368:17734   */\n      swap2\n      swap1\n      pop\n      jump\t// out\n        /* \"#utility.yul\":17740:18159   */\n    tag_183:\n        /* \"#utility.yul\":17906:17910   */\n      0x00\n        /* \"#utility.yul\":17944:17946   */\n      0x20\n        /* \"#utility.yul\":17933:17942   */\n      dup3\n        /* \"#utility.yul\":17929:17947   */\n      add\n        /* \"#utility.yul\":17921:17947   */\n      swap1\n      pop\n        /* \"#utility.yul\":17993:18002   */\n      dup2\n        /* \"#utility.yul\":17987:17991   */\n      dup2\n        /* \"#utility.yul\":17983:18003   */\n      sub\n        /* \"#utility.yul\":17979:17980   */\n      0x00\n        /* \"#utility.yul\":17968:17977   */\n      dup4\n        /* \"#utility.yul\":17964:17981   */\n      add\n        /* \"#utility.yul\":17957:18004   */\n      mstore\n        /* \"#utility.yul\":18021:18152   */\n      tag_404\n        /* \"#utility.yul\":18147:18151   */\n      dup2\n        /* \"#utility.yul\":18021:18152   */\n      tag_246\n      jump\t// in\n    tag_404:\n        /* \"#utility.yul\":18013:18152   */\n      swap1\n      pop\n        /* \"#utility.yul\":17740:18159   */\n      swap2\n      swap1\n      pop\n      jump\t// out\n        /* \"#utility.yul\":18165:18390   */\n    tag_247:\n        /* \"#utility.yul\":18305:18339   */\n      0x45524332303a207472616e7366657220616d6f756e7420657863656564732062\n        /* \"#utility.yul\":18301:18302   */\n      0x00\n        /* \"#utility.yul\":18293:18299   */\n      dup3\n        /* \"#utility.yul\":18289:18303   */\n      add\n        /* \"#utility.yul\":18282:18340   */\n      mstore\n        /* \"#utility.yul\":18374:18382   */\n      0x616c616e63650000000000000000000000000000000000000000000000000000\n        /* \"#utility.yul\":18369:18371   */\n      0x20\n        /* \"#utility.yul\":18361:18367   */\n      dup3\n        /* \"#utility.yul\":18357:18372   */\n      add\n        /* \"#utility.yul\":18350:18383   */\n      mstore\n        /* \"#utility.yul\":18165:18390   */\n      pop\n      jump\t// out\n        /* \"#utility.yul\":18396:18762   */\n    tag_248:\n        /* \"#utility.yul\":18538:18541   */\n      0x00\n        /* \"#utility.yul\":18559:18626   */\n      tag_407\n        /* \"#utility.yul\":18623:18625   */\n      0x26\n        /* \"#utility.yul\":18618:18621   */\n      dup4\n        /* \"#utility.yul\":18559:18626   */\n      tag_203\n      jump\t// in\n    tag_407:\n        /* \"#utility.yul\":18552:18626   */\n      swap2\n      pop\n        /* \"#utility.yul\":18635:18728   */\n      tag_408\n        /* \"#utility.yul\":18724:18727   */\n      dup3\n        /* \"#utility.yul\":18635:18728   */\n      tag_247\n      jump\t// in\n    tag_408:\n        /* \"#utility.yul\":18753:18755   */\n      0x40\n        /* \"#utility.yul\":18748:18751   */\n      dup3\n        /* \"#utility.yul\":18744:18756   */\n      add\n        /* \"#utility.yul\":18737:18756   */\n      swap1\n      pop\n        /* \"#utility.yul\":18396:18762   */\n      swap2\n      swap1\n      pop\n      jump\t// out\n        /* \"#utility.yul\":18768:19187   */\n    tag_188:\n        /* \"#utility.yul\":18934:18938   */\n      0x00\n        /* \"#utility.yul\":18972:18974   */\n      0x20\n        /* \"#utility.yul\":18961:18970   */\n      dup3\n        /* \"#utility.yul\":18957:18975   */\n      add\n        /* \"#utility.yul\":18949:18975   */\n      swap1\n      pop\n        /* \"#utility.yul\":19021:19030   */\n      dup2\n        /* \"#utility.yul\":19015:19019   */\n      dup2\n        /* \"#utility.yul\":19011:19031   */\n      sub\n        /* \"#utility.yul\":19007:19008   */\n      0x00\n        /* \"#utility.yul\":18996:19005   */\n      dup4\n        /* \"#utility.yul\":18992:19009   */\n      add\n        /* \"#utility.yul\":18985:19032   */\n      mstore\n        /* \"#utility.yul\":19049:19180   */\n      tag_410\n        /* \"#utility.yul\":19175:19179   */\n      dup2\n        /* \"#utility.yul\":19049:19180   */\n      tag_248\n      jump\t// in\n    tag_410:\n        /* \"#utility.yul\":19041:19180   */\n      swap1\n      pop\n        /* \"#utility.yul\":18768:19187   */\n      swap2\n      swap1\n      pop\n      jump\t// out\n        /* \"#utility.yul\":19193:19374   */\n    tag_249:\n        /* \"#utility.yul\":19333:19366   */\n      0x45524332303a206d696e7420746f20746865207a65726f206164647265737300\n        /* \"#utility.yul\":19329:19330   */\n      0x00\n        /* \"#utility.yul\":19321:19327   */\n      dup3\n        /* \"#utility.yul\":19317:19331   */\n      add\n        /* \"#utility.yul\":19310:19367   */\n      mstore\n        /* \"#utility.yul\":19193:19374   */\n      pop\n      jump\t// out\n        /* \"#utility.yul\":19380:19746   */\n    tag_250:\n        /* \"#utility.yul\":19522:19525   */\n      0x00\n        /* \"#utility.yul\":19543:19610   */\n      tag_413\n        /* \"#utility.yul\":19607:19609   */\n      0x1f\n        /* \"#utility.yul\":19602:19605   */\n      dup4\n        /* \"#utility.yul\":19543:19610   */\n      tag_203\n      jump\t// in\n    tag_413:\n        /* \"#utility.yul\":19536:19610   */\n      swap2\n      pop\n        /* \"#utility.yul\":19619:19712   */\n      tag_414\n        /* \"#utility.yul\":19708:19711   */\n      dup3\n        /* \"#utility.yul\":19619:19712   */\n      tag_249\n      jump\t// in\n    tag_414:\n        /* \"#utility.yul\":19737:19739   */\n      0x20\n        /* \"#utility.yul\":19732:19735   */\n      dup3\n        /* \"#utility.yul\":19728:19740   */\n      add\n        /* \"#utility.yul\":19721:19740   */\n      swap1\n      pop\n        /* \"#utility.yul\":19380:19746   */\n      swap2\n      swap1\n      pop\n      jump\t// out\n        /* \"#utility.yul\":19752:20171   */\n    tag_195:\n        /* \"#utility.yul\":19918:19922   */\n      0x00\n        /* \"#utility.yul\":19956:19958   */\n      0x20\n        /* \"#utility.yul\":19945:19954   */\n      dup3\n        /* \"#utility.yul\":19941:19959   */\n      add\n        /* \"#utility.yul\":19933:19959   */\n      swap1\n      pop\n        /* \"#utility.yul\":20005:20014   */\n      dup2\n        /* \"#utility.yul\":19999:20003   */\n      dup2\n        /* \"#utility.yul\":19995:20015   */\n      sub\n        /* \"#utility.yul\":19991:19992   */\n      0x00\n        /* \"#utility.yul\":19980:19989   */\n      dup4\n        /* \"#utility.yul\":19976:19993   */\n      add\n        /* \"#utility.yul\":19969:20016   */\n      mstore\n        /* \"#utility.yul\":20033:20164   */\n      tag_416\n        /* \"#utility.yul\":20159:20163   */\n      dup2\n        /* \"#utility.yul\":20033:20164   */\n      tag_250\n      jump\t// in\n    tag_416:\n        /* \"#utility.yul\":20025:20164   */\n      swap1\n      pop\n        /* \"#utility.yul\":19752:20171   */\n      swap2\n      swap1\n      pop\n      jump\t// out\n\n    auxdata: 0xa2646970667358221220cdeb836f25e445d1b82624a4ec02d0ed76ecc71429eff3d65c878c71380c44c264736f6c63430008160033\n}\n",
				"bytecode": {
					"linkReferences": {},
					"object": "608060405234801562000010575f80fd5b506040518060400160405280600881526020017f42554e4e5f44414f0000000000000000000000000000000000000000000000008152506040518060400160405280600481526020017f4244414f0000000000000000000000000000000000000000000000000000000081525081600390816200008e91906200038b565b508060049081620000a091906200038b565b5050503360065f6101000a81548173ffffffffffffffffffffffffffffffffffffffff021916908373ffffffffffffffffffffffffffffffffffffffff160217905550620000f36200011f60201b60201c565b600a620001019190620005f8565b6402540be40062000113919062000648565b60058190555062000692565b5f6012905090565b5f81519050919050565b7f4e487b71000000000000000000000000000000000000000000000000000000005f52604160045260245ffd5b7f4e487b71000000000000000000000000000000000000000000000000000000005f52602260045260245ffd5b5f6002820490506001821680620001a357607f821691505b602082108103620001b957620001b86200015e565b5b50919050565b5f819050815f5260205f209050919050565b5f6020601f8301049050919050565b5f82821b905092915050565b5f600883026200021d7fffffffffffffffffffffffffffffffffffffffffffffffffffffffffffffffff82620001e0565b620002298683620001e0565b95508019841693508086168417925050509392505050565b5f819050919050565b5f819050919050565b5f620002736200026d620002678462000241565b6200024a565b62000241565b9050919050565b5f819050919050565b6200028e8362000253565b620002a66200029d826200027a565b848454620001ec565b825550505050565b5f90565b620002bc620002ae565b620002c981848462000283565b505050565b5b81811015620002f057620002e45f82620002b2565b600181019050620002cf565b5050565b601f8211156200033f576200030981620001bf565b6200031484620001d1565b8101602085101562000324578190505b6200033c6200033385620001d1565b830182620002ce565b50505b505050565b5f82821c905092915050565b5f620003615f198460080262000344565b1980831691505092915050565b5f6200037b838362000350565b9150826002028217905092915050565b620003968262000127565b67ffffffffffffffff811115620003b257620003b162000131565b5b620003be82546200018b565b620003cb828285620002f4565b5f60209050601f83116001811462000401575f8415620003ec578287015190505b620003f885826200036e565b86555062000467565b601f1984166200041186620001bf565b5f5b828110156200043a5784890151825560018201915060208501945060208101905062000413565b868310156200045a578489015162000456601f89168262000350565b8355505b6001600288020188555050505b505050505050565b7f4e487b71000000000000000000000000000000000000000000000000000000005f52601160045260245ffd5b5f8160011c9050919050565b5f808291508390505b6001851115620004f957808604811115620004d157620004d06200046f565b5b6001851615620004e15780820291505b8081029050620004f1856200049c565b9450620004b1565b94509492505050565b5f82620005135760019050620005e5565b8162000522575f9050620005e5565b81600181146200053b576002811462000546576200057c565b6001915050620005e5565b60ff8411156200055b576200055a6200046f565b5b8360020a9150848211156200057557620005746200046f565b5b50620005e5565b5060208310610133831016604e8410600b8410161715620005b65782820a905083811115620005b057620005af6200046f565b5b620005e5565b620005c58484846001620004a8565b92509050818404811115620005df57620005de6200046f565b5b81810290505b9392505050565b5f60ff82169050919050565b5f620006048262000241565b91506200061183620005ec565b9250620006407fffffffffffffffffffffffffffffffffffffffffffffffffffffffffffffffff848462000502565b905092915050565b5f620006548262000241565b9150620006618362000241565b9250828202620006718162000241565b915082820484148315176200068b576200068a6200046f565b5b5092915050565b61199980620006a05f395ff3fe6080604052600436106100e7575f3560e01c806340c10f191161008957806395d89b411161005857806395d89b41146102dd578063a457c2d714610307578063a9059cbb14610343578063dd62ed3e1461037f576100e7565b806340c10f1914610245578063469c62a61461026d57806370a08231146102775780638da5cb5b146102b3576100e7565b806323b872dd116100c557806323b872dd1461017b57806325f62784146101b7578063313ce567146101df5780633950935114610209576100e7565b806306fdde03146100eb578063095ea7b31461011557806318160ddd14610151575b5f80fd5b3480156100f6575f80fd5b506100ff6103bb565b60405161010c9190610fda565b60405180910390f35b348015610120575f80fd5b5061013b6004803603810190610136919061108b565b6103f8565b60405161014891906110e3565b60405180910390f35b34801561015c575f80fd5b5061016561041a565b604051610172919061110b565b60405180910390f35b348015610186575f80fd5b506101a1600480360381019061019c9190611124565b610423565b6040516101ae91906110e3565b60405180910390f35b3480156101c2575f80fd5b506101dd60048036038101906101d8919061108b565b610451565b005b3480156101ea575f80fd5b506101f361057d565b604051610200919061118f565b60405180910390f35b348015610214575f80fd5b5061022f600480360381019061022a919061108b565b610585565b60405161023c91906110e3565b60405180910390f35b348015610250575f80fd5b5061026b6004803603810190610266919061108b565b6105bb565b005b6102756106af565b005b348015610282575f80fd5b5061029d600480360381019061029891906111a8565b610777565b6040516102aa919061110b565b60405180910390f35b3480156102be575f80fd5b506102c76107bc565b6040516102d491906111e2565b60405180910390f35b3480156102e8575f80fd5b506102f16107e1565b6040516102fe9190610fda565b60405180910390f35b348015610312575f80fd5b5061032d6004803603810190610328919061108b565b61081e565b60405161033a91906110e3565b60405180910390f35b34801561034e575f80fd5b506103696004803603810190610364919061108b565b610893565b60405161037691906110e3565b60405180910390f35b34801561038a575f80fd5b506103a560048036038101906103a091906111fb565b6108b5565b6040516103b2919061110b565b60405180910390f35b60606040518060400160405280600a81526020017f4f4e5755414a5545534500000000000000000000000000000000000000000000815250905090565b5f80610402610937565b905061040f81858561093e565b600191505092915050565b5f600254905090565b5f8061042d610937565b905061043a858285610b01565b610445858585610b8c565b60019150509392505050565b60065f9054906101000a900473ffffffffffffffffffffffffffffffffffffffff1673ffffffffffffffffffffffffffffffffffffffff163373ffffffffffffffffffffffffffffffffffffffff16146104e0576040517f08c379a00000000000000000000000000000000000000000000000000000000081526004016104d790611283565b60405180910390fd5b804711610522576040517f08c379a0000000000000000000000000000000000000000000000000000000008152600401610519906112eb565b60405180910390fd5b8173ffffffffffffffffffffffffffffffffffffffff166108fc670de0b6b3a7640000836105509190611336565b90811502906040515f60405180830381858888f19350505050158015610578573d5f803e3d5ffd5b505050565b5f6012905090565b5f8061058f610937565b90506105b08185856105a185896108b5565b6105ab9190611377565b61093e565b600191505092915050565b60065f9054906101000a900473ffffffffffffffffffffffffffffffffffffffff1673ffffffffffffffffffffffffffffffffffffffff163373ffffffffffffffffffffffffffffffffffffffff161461064a576040517f08c379a000000000000000000000000000000000000000000000000000000000815260040161064190611283565b60405180910390fd5b6005548161065661041a565b6106609190611377565b11156106a1576040517f08c379a0000000000000000000000000000000000000000000000000000000008152600401610698906113f4565b60405180910390fd5b6106ab8282610df8565b5050565b5f34116106f1576040517f08c379a00000000000000000000000000000000000000000000000000000000081526004016106e89061145c565b60405180910390fd5b3373ffffffffffffffffffffffffffffffffffffffff163134111561074b576040517f08c379a0000000000000000000000000000000000000000000000000000000008152600401610742906114c4565b60405180910390fd5b61077533670de0b6b3a76400006101f4346107669190611336565b610770919061150f565b610df8565b565b5f805f8373ffffffffffffffffffffffffffffffffffffffff1673ffffffffffffffffffffffffffffffffffffffff1681526020019081526020015f20549050919050565b60065f9054906101000a900473ffffffffffffffffffffffffffffffffffffffff1681565b60606040518060400160405280600481526020017f42554e4e00000000000000000000000000000000000000000000000000000000815250905090565b5f80610828610937565b90505f61083582866108b5565b90508381101561087a576040517f08c379a0000000000000000000000000000000000000000000000000000000008152600401610871906115af565b60405180910390fd5b610887828686840361093e565b60019250505092915050565b5f8061089d610937565b90506108aa818585610b8c565b600191505092915050565b5f60015f8473ffffffffffffffffffffffffffffffffffffffff1673ffffffffffffffffffffffffffffffffffffffff1681526020019081526020015f205f8373ffffffffffffffffffffffffffffffffffffffff1673ffffffffffffffffffffffffffffffffffffffff1681526020019081526020015f2054905092915050565b5f33905090565b5f73ffffffffffffffffffffffffffffffffffffffff168373ffffffffffffffffffffffffffffffffffffffff16036109ac576040517f08c379a00000000000000000000000000000000000000000000000000000000081526004016109a39061163d565b60405180910390fd5b5f73ffffffffffffffffffffffffffffffffffffffff168273ffffffffffffffffffffffffffffffffffffffff1603610a1a576040517f08c379a0000000000000000000000000000000000000000000000000000000008152600401610a11906116cb565b60405180910390fd5b8060015f8573ffffffffffffffffffffffffffffffffffffffff1673ffffffffffffffffffffffffffffffffffffffff1681526020019081526020015f205f8473ffffffffffffffffffffffffffffffffffffffff1673ffffffffffffffffffffffffffffffffffffffff1681526020019081526020015f20819055508173ffffffffffffffffffffffffffffffffffffffff168373ffffffffffffffffffffffffffffffffffffffff167f8c5be1e5ebec7d5bd14f71427d1e84f3dd0314c0f7b2291e5b200ac8c7c3b92583604051610af4919061110b565b60405180910390a3505050565b5f610b0c84846108b5565b90507fffffffffffffffffffffffffffffffffffffffffffffffffffffffffffffffff8114610b865781811015610b78576040517f08c379a0000000000000000000000000000000000000000000000000000000008152600401610b6f90611733565b60405180910390fd5b610b85848484840361093e565b5b50505050565b5f73ffffffffffffffffffffffffffffffffffffffff168373ffffffffffffffffffffffffffffffffffffffff1603610bfa576040517f08c379a0000000000000000000000000000000000000000000000000000000008152600401610bf1906117c1565b60405180910390fd5b5f73ffffffffffffffffffffffffffffffffffffffff168273ffffffffffffffffffffffffffffffffffffffff1603610c68576040517f08c379a0000000000000000000000000000000000000000000000000000000008152600401610c5f9061184f565b60405180910390fd5b610c73838383610f46565b5f805f8573ffffffffffffffffffffffffffffffffffffffff1673ffffffffffffffffffffffffffffffffffffffff1681526020019081526020015f2054905081811015610cf6576040517f08c379a0000000000000000000000000000000000000000000000000000000008152600401610ced906118dd565b60405180910390fd5b8181035f808673ffffffffffffffffffffffffffffffffffffffff1673ffffffffffffffffffffffffffffffffffffffff1681526020019081526020015f2081905550815f808573ffffffffffffffffffffffffffffffffffffffff1673ffffffffffffffffffffffffffffffffffffffff1681526020019081526020015f205f82825401925050819055508273ffffffffffffffffffffffffffffffffffffffff168473ffffffffffffffffffffffffffffffffffffffff167fddf252ad1be2c89b69c2b068fc378daa952ba7f163c4a11628f55a4df523b3ef84604051610ddf919061110b565b60405180910390a3610df2848484610f4b565b50505050565b5f73ffffffffffffffffffffffffffffffffffffffff168273ffffffffffffffffffffffffffffffffffffffff1603610e66576040517f08c379a0000000000000000000000000000000000000000000000000000000008152600401610e5d90611945565b60405180910390fd5b610e715f8383610f46565b8060025f828254610e829190611377565b92505081905550805f808473ffffffffffffffffffffffffffffffffffffffff1673ffffffffffffffffffffffffffffffffffffffff1681526020019081526020015f205f82825401925050819055508173ffffffffffffffffffffffffffffffffffffffff165f73ffffffffffffffffffffffffffffffffffffffff167fddf252ad1be2c89b69c2b068fc378daa952ba7f163c4a11628f55a4df523b3ef83604051610f2f919061110b565b60405180910390a3610f425f8383610f4b565b5050565b505050565b505050565b5f81519050919050565b5f82825260208201905092915050565b5f5b83811015610f87578082015181840152602081019050610f6c565b5f8484015250505050565b5f601f19601f8301169050919050565b5f610fac82610f50565b610fb68185610f5a565b9350610fc6818560208601610f6a565b610fcf81610f92565b840191505092915050565b5f6020820190508181035f830152610ff28184610fa2565b905092915050565b5f80fd5b5f73ffffffffffffffffffffffffffffffffffffffff82169050919050565b5f61102782610ffe565b9050919050565b6110378161101d565b8114611041575f80fd5b50565b5f813590506110528161102e565b92915050565b5f819050919050565b61106a81611058565b8114611074575f80fd5b50565b5f8135905061108581611061565b92915050565b5f80604083850312156110a1576110a0610ffa565b5b5f6110ae85828601611044565b92505060206110bf85828601611077565b9150509250929050565b5f8115159050919050565b6110dd816110c9565b82525050565b5f6020820190506110f65f8301846110d4565b92915050565b61110581611058565b82525050565b5f60208201905061111e5f8301846110fc565b92915050565b5f805f6060848603121561113b5761113a610ffa565b5b5f61114886828701611044565b935050602061115986828701611044565b925050604061116a86828701611077565b9150509250925092565b5f60ff82169050919050565b61118981611174565b82525050565b5f6020820190506111a25f830184611180565b92915050565b5f602082840312156111bd576111bc610ffa565b5b5f6111ca84828501611044565b91505092915050565b6111dc8161101d565b82525050565b5f6020820190506111f55f8301846111d3565b92915050565b5f806040838503121561121157611210610ffa565b5b5f61121e85828601611044565b925050602061122f85828601611044565b9150509250929050565b7f556e617574686f72697a656420456e74697479000000000000000000000000005f82015250565b5f61126d601383610f5a565b915061127882611239565b602082019050919050565b5f6020820190508181035f83015261129a81611261565b9050919050565b7f494e53554646494349454e542046554e445300000000000000000000000000005f82015250565b5f6112d5601283610f5a565b91506112e0826112a1565b602082019050919050565b5f6020820190508181035f830152611302816112c9565b9050919050565b7f4e487b71000000000000000000000000000000000000000000000000000000005f52601160045260245ffd5b5f61134082611058565b915061134b83611058565b925082820261135981611058565b915082820484148315176113705761136f611309565b5b5092915050565b5f61138182611058565b915061138c83611058565b92508282019050808211156113a4576113a3611309565b5b92915050565b7f4d415820535550504c59204558434545444544000000000000000000000000005f82015250565b5f6113de601383610f5a565b91506113e9826113aa565b602082019050919050565b5f6020820190508181035f83015261140b816113d2565b9050919050565b7f455448204d555354204245204d4f5245205448414e20300000000000000000005f82015250565b5f611446601783610f5a565b915061145182611412565b602082019050919050565b5f6020820190508181035f8301526114738161143a565b9050919050565b7f4e4f5420454e4f554748204554480000000000000000000000000000000000005f82015250565b5f6114ae600e83610f5a565b91506114b98261147a565b602082019050919050565b5f6020820190508181035f8301526114db816114a2565b9050919050565b7f4e487b71000000000000000000000000000000000000000000000000000000005f52601260045260245ffd5b5f61151982611058565b915061152483611058565b925082611534576115336114e2565b5b828204905092915050565b7f45524332303a2064656372656173656420616c6c6f77616e63652062656c6f775f8201527f207a65726f000000000000000000000000000000000000000000000000000000602082015250565b5f611599602583610f5a565b91506115a48261153f565b604082019050919050565b5f6020820190508181035f8301526115c68161158d565b9050919050565b7f45524332303a20617070726f76652066726f6d20746865207a65726f206164645f8201527f7265737300000000000000000000000000000000000000000000000000000000602082015250565b5f611627602483610f5a565b9150611632826115cd565b604082019050919050565b5f6020820190508181035f8301526116548161161b565b9050919050565b7f45524332303a20617070726f766520746f20746865207a65726f2061646472655f8201527f7373000000000000000000000000000000000000000000000000000000000000602082015250565b5f6116b5602283610f5a565b91506116c08261165b565b604082019050919050565b5f6020820190508181035f8301526116e2816116a9565b9050919050565b7f45524332303a20696e73756666696369656e7420616c6c6f77616e63650000005f82015250565b5f61171d601d83610f5a565b9150611728826116e9565b602082019050919050565b5f6020820190508181035f83015261174a81611711565b9050919050565b7f45524332303a207472616e736665722066726f6d20746865207a65726f2061645f8201527f6472657373000000000000000000000000000000000000000000000000000000602082015250565b5f6117ab602583610f5a565b91506117b682611751565b604082019050919050565b5f6020820190508181035f8301526117d88161179f565b9050919050565b7f45524332303a207472616e7366657220746f20746865207a65726f20616464725f8201527f6573730000000000000000000000000000000000000000000000000000000000602082015250565b5f611839602383610f5a565b9150611844826117df565b604082019050919050565b5f6020820190508181035f8301526118668161182d565b9050919050565b7f45524332303a207472616e7366657220616d6f756e74206578636565647320625f8201527f616c616e63650000000000000000000000000000000000000000000000000000602082015250565b5f6118c7602683610f5a565b91506118d28261186d565b604082019050919050565b5f6020820190508181035f8301526118f4816118bb565b9050919050565b7f45524332303a206d696e7420746f20746865207a65726f2061646472657373005f82015250565b5f61192f601f83610f5a565b915061193a826118fb565b602082019050919050565b5f6020820190508181035f83015261195c81611923565b905091905056fea2646970667358221220cdeb836f25e445d1b82624a4ec02d0ed76ecc71429eff3d65c878c71380c44c264736f6c63430008160033",
					"opcodes": "PUSH1 0x80 PUSH1 0x40 MSTORE CALLVALUE DUP1 ISZERO PUSH3 0x10 JUMPI PUSH0 DUP1 REVERT JUMPDEST POP PUSH1 0x40 MLOAD DUP1 PUSH1 0x40 ADD PUSH1 0x40 MSTORE DUP1 PUSH1 0x8 DUP2 MSTORE PUSH1 0x20 ADD PUSH32 0x42554E4E5F44414F000000000000000000000000000000000000000000000000 DUP2 MSTORE POP PUSH1 0x40 MLOAD DUP1 PUSH1 0x40 ADD PUSH1 0x40 MSTORE DUP1 PUSH1 0x4 DUP2 MSTORE PUSH1 0x20 ADD PUSH32 0x4244414F00000000000000000000000000000000000000000000000000000000 DUP2 MSTORE POP DUP2 PUSH1 0x3 SWAP1 DUP2 PUSH3 0x8E SWAP2 SWAP1 PUSH3 0x38B JUMP JUMPDEST POP DUP1 PUSH1 0x4 SWAP1 DUP2 PUSH3 0xA0 SWAP2 SWAP1 PUSH3 0x38B JUMP JUMPDEST POP POP POP CALLER PUSH1 0x6 PUSH0 PUSH2 0x100 EXP DUP2 SLOAD DUP2 PUSH20 0xFFFFFFFFFFFFFFFFFFFFFFFFFFFFFFFFFFFFFFFF MUL NOT AND SWAP1 DUP4 PUSH20 0xFFFFFFFFFFFFFFFFFFFFFFFFFFFFFFFFFFFFFFFF AND MUL OR SWAP1 SSTORE POP PUSH3 0xF3 PUSH3 0x11F PUSH1 0x20 SHL PUSH1 0x20 SHR JUMP JUMPDEST PUSH1 0xA PUSH3 0x101 SWAP2 SWAP1 PUSH3 0x5F8 JUMP JUMPDEST PUSH5 0x2540BE400 PUSH3 0x113 SWAP2 SWAP1 PUSH3 0x648 JUMP JUMPDEST PUSH1 0x5 DUP2 SWAP1 SSTORE POP PUSH3 0x692 JUMP JUMPDEST PUSH0 PUSH1 0x12 SWAP1 POP SWAP1 JUMP JUMPDEST PUSH0 DUP2 MLOAD SWAP1 POP SWAP2 SWAP1 POP JUMP JUMPDEST PUSH32 0x4E487B7100000000000000000000000000000000000000000000000000000000 PUSH0 MSTORE PUSH1 0x41 PUSH1 0x4 MSTORE PUSH1 0x24 PUSH0 REVERT JUMPDEST PUSH32 0x4E487B7100000000000000000000000000000000000000000000000000000000 PUSH0 MSTORE PUSH1 0x22 PUSH1 0x4 MSTORE PUSH1 0x24 PUSH0 REVERT JUMPDEST PUSH0 PUSH1 0x2 DUP3 DIV SWAP1 POP PUSH1 0x1 DUP3 AND DUP1 PUSH3 0x1A3 JUMPI PUSH1 0x7F DUP3 AND SWAP2 POP JUMPDEST PUSH1 0x20 DUP3 LT DUP2 SUB PUSH3 0x1B9 JUMPI PUSH3 0x1B8 PUSH3 0x15E JUMP JUMPDEST JUMPDEST POP SWAP2 SWAP1 POP JUMP JUMPDEST PUSH0 DUP2 SWAP1 POP DUP2 PUSH0 MSTORE PUSH1 0x20 PUSH0 KECCAK256 SWAP1 POP SWAP2 SWAP1 POP JUMP JUMPDEST PUSH0 PUSH1 0x20 PUSH1 0x1F DUP4 ADD DIV SWAP1 POP SWAP2 SWAP1 POP JUMP JUMPDEST PUSH0 DUP3 DUP3 SHL SWAP1 POP SWAP3 SWAP2 POP POP JUMP JUMPDEST PUSH0 PUSH1 0x8 DUP4 MUL PUSH3 0x21D PUSH32 0xFFFFFFFFFFFFFFFFFFFFFFFFFFFFFFFFFFFFFFFFFFFFFFFFFFFFFFFFFFFFFFFF DUP3 PUSH3 0x1E0 JUMP JUMPDEST PUSH3 0x229 DUP7 DUP4 PUSH3 0x1E0 JUMP JUMPDEST SWAP6 POP DUP1 NOT DUP5 AND SWAP4 POP DUP1 DUP7 AND DUP5 OR SWAP3 POP POP POP SWAP4 SWAP3 POP POP POP JUMP JUMPDEST PUSH0 DUP2 SWAP1 POP SWAP2 SWAP1 POP JUMP JUMPDEST PUSH0 DUP2 SWAP1 POP SWAP2 SWAP1 POP JUMP JUMPDEST PUSH0 PUSH3 0x273 PUSH3 0x26D PUSH3 0x267 DUP5 PUSH3 0x241 JUMP JUMPDEST PUSH3 0x24A JUMP JUMPDEST PUSH3 0x241 JUMP JUMPDEST SWAP1 POP SWAP2 SWAP1 POP JUMP JUMPDEST PUSH0 DUP2 SWAP1 POP SWAP2 SWAP1 POP JUMP JUMPDEST PUSH3 0x28E DUP4 PUSH3 0x253 JUMP JUMPDEST PUSH3 0x2A6 PUSH3 0x29D DUP3 PUSH3 0x27A JUMP JUMPDEST DUP5 DUP5 SLOAD PUSH3 0x1EC JUMP JUMPDEST DUP3 SSTORE POP POP POP POP JUMP JUMPDEST PUSH0 SWAP1 JUMP JUMPDEST PUSH3 0x2BC PUSH3 0x2AE JUMP JUMPDEST PUSH3 0x2C9 DUP2 DUP5 DUP5 PUSH3 0x283 JUMP JUMPDEST POP POP POP JUMP JUMPDEST JUMPDEST DUP2 DUP2 LT ISZERO PUSH3 0x2F0 JUMPI PUSH3 0x2E4 PUSH0 DUP3 PUSH3 0x2B2 JUMP JUMPDEST PUSH1 0x1 DUP2 ADD SWAP1 POP PUSH3 0x2CF JUMP JUMPDEST POP POP JUMP JUMPDEST PUSH1 0x1F DUP3 GT ISZERO PUSH3 0x33F JUMPI PUSH3 0x309 DUP2 PUSH3 0x1BF JUMP JUMPDEST PUSH3 0x314 DUP5 PUSH3 0x1D1 JUMP JUMPDEST DUP2 ADD PUSH1 0x20 DUP6 LT ISZERO PUSH3 0x324 JUMPI DUP2 SWAP1 POP JUMPDEST PUSH3 0x33C PUSH3 0x333 DUP6 PUSH3 0x1D1 JUMP JUMPDEST DUP4 ADD DUP3 PUSH3 0x2CE JUMP JUMPDEST POP POP JUMPDEST POP POP POP JUMP JUMPDEST PUSH0 DUP3 DUP3 SHR SWAP1 POP SWAP3 SWAP2 POP POP JUMP JUMPDEST PUSH0 PUSH3 0x361 PUSH0 NOT DUP5 PUSH1 0x8 MUL PUSH3 0x344 JUMP JUMPDEST NOT DUP1 DUP4 AND SWAP2 POP POP SWAP3 SWAP2 POP POP JUMP JUMPDEST PUSH0 PUSH3 0x37B DUP4 DUP4 PUSH3 0x350 JUMP JUMPDEST SWAP2 POP DUP3 PUSH1 0x2 MUL DUP3 OR SWAP1 POP SWAP3 SWAP2 POP POP JUMP JUMPDEST PUSH3 0x396 DUP3 PUSH3 0x127 JUMP JUMPDEST PUSH8 0xFFFFFFFFFFFFFFFF DUP2 GT ISZERO PUSH3 0x3B2 JUMPI PUSH3 0x3B1 PUSH3 0x131 JUMP JUMPDEST JUMPDEST PUSH3 0x3BE DUP3 SLOAD PUSH3 0x18B JUMP JUMPDEST PUSH3 0x3CB DUP3 DUP3 DUP6 PUSH3 0x2F4 JUMP JUMPDEST PUSH0 PUSH1 0x20 SWAP1 POP PUSH1 0x1F DUP4 GT PUSH1 0x1 DUP2 EQ PUSH3 0x401 JUMPI PUSH0 DUP5 ISZERO PUSH3 0x3EC JUMPI DUP3 DUP8 ADD MLOAD SWAP1 POP JUMPDEST PUSH3 0x3F8 DUP6 DUP3 PUSH3 0x36E JUMP JUMPDEST DUP7 SSTORE POP PUSH3 0x467 JUMP JUMPDEST PUSH1 0x1F NOT DUP5 AND PUSH3 0x411 DUP7 PUSH3 0x1BF JUMP JUMPDEST PUSH0 JUMPDEST DUP3 DUP2 LT ISZERO PUSH3 0x43A JUMPI DUP5 DUP10 ADD MLOAD DUP3 SSTORE PUSH1 0x1 DUP3 ADD SWAP2 POP PUSH1 0x20 DUP6 ADD SWAP5 POP PUSH1 0x20 DUP2 ADD SWAP1 POP PUSH3 0x413 JUMP JUMPDEST DUP7 DUP4 LT ISZERO PUSH3 0x45A JUMPI DUP5 DUP10 ADD MLOAD PUSH3 0x456 PUSH1 0x1F DUP10 AND DUP3 PUSH3 0x350 JUMP JUMPDEST DUP4 SSTORE POP JUMPDEST PUSH1 0x1 PUSH1 0x2 DUP9 MUL ADD DUP9 SSTORE POP POP POP JUMPDEST POP POP POP POP POP POP JUMP JUMPDEST PUSH32 0x4E487B7100000000000000000000000000000000000000000000000000000000 PUSH0 MSTORE PUSH1 0x11 PUSH1 0x4 MSTORE PUSH1 0x24 PUSH0 REVERT JUMPDEST PUSH0 DUP2 PUSH1 0x1 SHR SWAP1 POP SWAP2 SWAP1 POP JUMP JUMPDEST PUSH0 DUP1 DUP3 SWAP2 POP DUP4 SWAP1 POP JUMPDEST PUSH1 0x1 DUP6 GT ISZERO PUSH3 0x4F9 JUMPI DUP1 DUP7 DIV DUP2 GT ISZERO PUSH3 0x4D1 JUMPI PUSH3 0x4D0 PUSH3 0x46F JUMP JUMPDEST JUMPDEST PUSH1 0x1 DUP6 AND ISZERO PUSH3 0x4E1 JUMPI DUP1 DUP3 MUL SWAP2 POP JUMPDEST DUP1 DUP2 MUL SWAP1 POP PUSH3 0x4F1 DUP6 PUSH3 0x49C JUMP JUMPDEST SWAP5 POP PUSH3 0x4B1 JUMP JUMPDEST SWAP5 POP SWAP5 SWAP3 POP POP POP JUMP JUMPDEST PUSH0 DUP3 PUSH3 0x513 JUMPI PUSH1 0x1 SWAP1 POP PUSH3 0x5E5 JUMP JUMPDEST DUP2 PUSH3 0x522 JUMPI PUSH0 SWAP1 POP PUSH3 0x5E5 JUMP JUMPDEST DUP2 PUSH1 0x1 DUP2 EQ PUSH3 0x53B JUMPI PUSH1 0x2 DUP2 EQ PUSH3 0x546 JUMPI PUSH3 0x57C JUMP JUMPDEST PUSH1 0x1 SWAP2 POP POP PUSH3 0x5E5 JUMP JUMPDEST PUSH1 0xFF DUP5 GT ISZERO PUSH3 0x55B JUMPI PUSH3 0x55A PUSH3 0x46F JUMP JUMPDEST JUMPDEST DUP4 PUSH1 0x2 EXP SWAP2 POP DUP5 DUP3 GT ISZERO PUSH3 0x575 JUMPI PUSH3 0x574 PUSH3 0x46F JUMP JUMPDEST JUMPDEST POP PUSH3 0x5E5 JUMP JUMPDEST POP PUSH1 0x20 DUP4 LT PUSH2 0x133 DUP4 LT AND PUSH1 0x4E DUP5 LT PUSH1 0xB DUP5 LT AND OR ISZERO PUSH3 0x5B6 JUMPI DUP3 DUP3 EXP SWAP1 POP DUP4 DUP2 GT ISZERO PUSH3 0x5B0 JUMPI PUSH3 0x5AF PUSH3 0x46F JUMP JUMPDEST JUMPDEST PUSH3 0x5E5 JUMP JUMPDEST PUSH3 0x5C5 DUP5 DUP5 DUP5 PUSH1 0x1 PUSH3 0x4A8 JUMP JUMPDEST SWAP3 POP SWAP1 POP DUP2 DUP5 DIV DUP2 GT ISZERO PUSH3 0x5DF JUMPI PUSH3 0x5DE PUSH3 0x46F JUMP JUMPDEST JUMPDEST DUP2 DUP2 MUL SWAP1 POP JUMPDEST SWAP4 SWAP3 POP POP POP JUMP JUMPDEST PUSH0 PUSH1 0xFF DUP3 AND SWAP1 POP SWAP2 SWAP1 POP JUMP JUMPDEST PUSH0 PUSH3 0x604 DUP3 PUSH3 0x241 JUMP JUMPDEST SWAP2 POP PUSH3 0x611 DUP4 PUSH3 0x5EC JUMP JUMPDEST SWAP3 POP PUSH3 0x640 PUSH32 0xFFFFFFFFFFFFFFFFFFFFFFFFFFFFFFFFFFFFFFFFFFFFFFFFFFFFFFFFFFFFFFFF DUP5 DUP5 PUSH3 0x502 JUMP JUMPDEST SWAP1 POP SWAP3 SWAP2 POP POP JUMP JUMPDEST PUSH0 PUSH3 0x654 DUP3 PUSH3 0x241 JUMP JUMPDEST SWAP2 POP PUSH3 0x661 DUP4 PUSH3 0x241 JUMP JUMPDEST SWAP3 POP DUP3 DUP3 MUL PUSH3 0x671 DUP2 PUSH3 0x241 JUMP JUMPDEST SWAP2 POP DUP3 DUP3 DIV DUP5 EQ DUP4 ISZERO OR PUSH3 0x68B JUMPI PUSH3 0x68A PUSH3 0x46F JUMP JUMPDEST JUMPDEST POP SWAP3 SWAP2 POP POP JUMP JUMPDEST PUSH2 0x1999 DUP1 PUSH3 0x6A0 PUSH0 CODECOPY PUSH0 RETURN INVALID PUSH1 0x80 PUSH1 0x40 MSTORE PUSH1 0x4 CALLDATASIZE LT PUSH2 0xE7 JUMPI PUSH0 CALLDATALOAD PUSH1 0xE0 SHR DUP1 PUSH4 0x40C10F19 GT PUSH2 0x89 JUMPI DUP1 PUSH4 0x95D89B41 GT PUSH2 0x58 JUMPI DUP1 PUSH4 0x95D89B41 EQ PUSH2 0x2DD JUMPI DUP1 PUSH4 0xA457C2D7 EQ PUSH2 0x307 JUMPI DUP1 PUSH4 0xA9059CBB EQ PUSH2 0x343 JUMPI DUP1 PUSH4 0xDD62ED3E EQ PUSH2 0x37F JUMPI PUSH2 0xE7 JUMP JUMPDEST DUP1 PUSH4 0x40C10F19 EQ PUSH2 0x245 JUMPI DUP1 PUSH4 0x469C62A6 EQ PUSH2 0x26D JUMPI DUP1 PUSH4 0x70A08231 EQ PUSH2 0x277 JUMPI DUP1 PUSH4 0x8DA5CB5B EQ PUSH2 0x2B3 JUMPI PUSH2 0xE7 JUMP JUMPDEST DUP1 PUSH4 0x23B872DD GT PUSH2 0xC5 JUMPI DUP1 PUSH4 0x23B872DD EQ PUSH2 0x17B JUMPI DUP1 PUSH4 0x25F62784 EQ PUSH2 0x1B7 JUMPI DUP1 PUSH4 0x313CE567 EQ PUSH2 0x1DF JUMPI DUP1 PUSH4 0x39509351 EQ PUSH2 0x209 JUMPI PUSH2 0xE7 JUMP JUMPDEST DUP1 PUSH4 0x6FDDE03 EQ PUSH2 0xEB JUMPI DUP1 PUSH4 0x95EA7B3 EQ PUSH2 0x115 JUMPI DUP1 PUSH4 0x18160DDD EQ PUSH2 0x151 JUMPI JUMPDEST PUSH0 DUP1 REVERT JUMPDEST CALLVALUE DUP1 ISZERO PUSH2 0xF6 JUMPI PUSH0 DUP1 REVERT JUMPDEST POP PUSH2 0xFF PUSH2 0x3BB JUMP JUMPDEST PUSH1 0x40 MLOAD PUSH2 0x10C SWAP2 SWAP1 PUSH2 0xFDA JUMP JUMPDEST PUSH1 0x40 MLOAD DUP1 SWAP2 SUB SWAP1 RETURN JUMPDEST CALLVALUE DUP1 ISZERO PUSH2 0x120 JUMPI PUSH0 DUP1 REVERT JUMPDEST POP PUSH2 0x13B PUSH1 0x4 DUP1 CALLDATASIZE SUB DUP2 ADD SWAP1 PUSH2 0x136 SWAP2 SWAP1 PUSH2 0x108B JUMP JUMPDEST PUSH2 0x3F8 JUMP JUMPDEST PUSH1 0x40 MLOAD PUSH2 0x148 SWAP2 SWAP1 PUSH2 0x10E3 JUMP JUMPDEST PUSH1 0x40 MLOAD DUP1 SWAP2 SUB SWAP1 RETURN JUMPDEST CALLVALUE DUP1 ISZERO PUSH2 0x15C JUMPI PUSH0 DUP1 REVERT JUMPDEST POP PUSH2 0x165 PUSH2 0x41A JUMP JUMPDEST PUSH1 0x40 MLOAD PUSH2 0x172 SWAP2 SWAP1 PUSH2 0x110B JUMP JUMPDEST PUSH1 0x40 MLOAD DUP1 SWAP2 SUB SWAP1 RETURN JUMPDEST CALLVALUE DUP1 ISZERO PUSH2 0x186 JUMPI PUSH0 DUP1 REVERT JUMPDEST POP PUSH2 0x1A1 PUSH1 0x4 DUP1 CALLDATASIZE SUB DUP2 ADD SWAP1 PUSH2 0x19C SWAP2 SWAP1 PUSH2 0x1124 JUMP JUMPDEST PUSH2 0x423 JUMP JUMPDEST PUSH1 0x40 MLOAD PUSH2 0x1AE SWAP2 SWAP1 PUSH2 0x10E3 JUMP JUMPDEST PUSH1 0x40 MLOAD DUP1 SWAP2 SUB SWAP1 RETURN JUMPDEST CALLVALUE DUP1 ISZERO PUSH2 0x1C2 JUMPI PUSH0 DUP1 REVERT JUMPDEST POP PUSH2 0x1DD PUSH1 0x4 DUP1 CALLDATASIZE SUB DUP2 ADD SWAP1 PUSH2 0x1D8 SWAP2 SWAP1 PUSH2 0x108B JUMP JUMPDEST PUSH2 0x451 JUMP JUMPDEST STOP JUMPDEST CALLVALUE DUP1 ISZERO PUSH2 0x1EA JUMPI PUSH0 DUP1 REVERT JUMPDEST POP PUSH2 0x1F3 PUSH2 0x57D JUMP JUMPDEST PUSH1 0x40 MLOAD PUSH2 0x200 SWAP2 SWAP1 PUSH2 0x118F JUMP JUMPDEST PUSH1 0x40 MLOAD DUP1 SWAP2 SUB SWAP1 RETURN JUMPDEST CALLVALUE DUP1 ISZERO PUSH2 0x214 JUMPI PUSH0 DUP1 REVERT JUMPDEST POP PUSH2 0x22F PUSH1 0x4 DUP1 CALLDATASIZE SUB DUP2 ADD SWAP1 PUSH2 0x22A SWAP2 SWAP1 PUSH2 0x108B JUMP JUMPDEST PUSH2 0x585 JUMP JUMPDEST PUSH1 0x40 MLOAD PUSH2 0x23C SWAP2 SWAP1 PUSH2 0x10E3 JUMP JUMPDEST PUSH1 0x40 MLOAD DUP1 SWAP2 SUB SWAP1 RETURN JUMPDEST CALLVALUE DUP1 ISZERO PUSH2 0x250 JUMPI PUSH0 DUP1 REVERT JUMPDEST POP PUSH2 0x26B PUSH1 0x4 DUP1 CALLDATASIZE SUB DUP2 ADD SWAP1 PUSH2 0x266 SWAP2 SWAP1 PUSH2 0x108B JUMP JUMPDEST PUSH2 0x5BB JUMP JUMPDEST STOP JUMPDEST PUSH2 0x275 PUSH2 0x6AF JUMP JUMPDEST STOP JUMPDEST CALLVALUE DUP1 ISZERO PUSH2 0x282 JUMPI PUSH0 DUP1 REVERT JUMPDEST POP PUSH2 0x29D PUSH1 0x4 DUP1 CALLDATASIZE SUB DUP2 ADD SWAP1 PUSH2 0x298 SWAP2 SWAP1 PUSH2 0x11A8 JUMP JUMPDEST PUSH2 0x777 JUMP JUMPDEST PUSH1 0x40 MLOAD PUSH2 0x2AA SWAP2 SWAP1 PUSH2 0x110B JUMP JUMPDEST PUSH1 0x40 MLOAD DUP1 SWAP2 SUB SWAP1 RETURN JUMPDEST CALLVALUE DUP1 ISZERO PUSH2 0x2BE JUMPI PUSH0 DUP1 REVERT JUMPDEST POP PUSH2 0x2C7 PUSH2 0x7BC JUMP JUMPDEST PUSH1 0x40 MLOAD PUSH2 0x2D4 SWAP2 SWAP1 PUSH2 0x11E2 JUMP JUMPDEST PUSH1 0x40 MLOAD DUP1 SWAP2 SUB SWAP1 RETURN JUMPDEST CALLVALUE DUP1 ISZERO PUSH2 0x2E8 JUMPI PUSH0 DUP1 REVERT JUMPDEST POP PUSH2 0x2F1 PUSH2 0x7E1 JUMP JUMPDEST PUSH1 0x40 MLOAD PUSH2 0x2FE SWAP2 SWAP1 PUSH2 0xFDA JUMP JUMPDEST PUSH1 0x40 MLOAD DUP1 SWAP2 SUB SWAP1 RETURN JUMPDEST CALLVALUE DUP1 ISZERO PUSH2 0x312 JUMPI PUSH0 DUP1 REVERT JUMPDEST POP PUSH2 0x32D PUSH1 0x4 DUP1 CALLDATASIZE SUB DUP2 ADD SWAP1 PUSH2 0x328 SWAP2 SWAP1 PUSH2 0x108B JUMP JUMPDEST PUSH2 0x81E JUMP JUMPDEST PUSH1 0x40 MLOAD PUSH2 0x33A SWAP2 SWAP1 PUSH2 0x10E3 JUMP JUMPDEST PUSH1 0x40 MLOAD DUP1 SWAP2 SUB SWAP1 RETURN JUMPDEST CALLVALUE DUP1 ISZERO PUSH2 0x34E JUMPI PUSH0 DUP1 REVERT JUMPDEST POP PUSH2 0x369 PUSH1 0x4 DUP1 CALLDATASIZE SUB DUP2 ADD SWAP1 PUSH2 0x364 SWAP2 SWAP1 PUSH2 0x108B JUMP JUMPDEST PUSH2 0x893 JUMP JUMPDEST PUSH1 0x40 MLOAD PUSH2 0x376 SWAP2 SWAP1 PUSH2 0x10E3 JUMP JUMPDEST PUSH1 0x40 MLOAD DUP1 SWAP2 SUB SWAP1 RETURN JUMPDEST CALLVALUE DUP1 ISZERO PUSH2 0x38A JUMPI PUSH0 DUP1 REVERT JUMPDEST POP PUSH2 0x3A5 PUSH1 0x4 DUP1 CALLDATASIZE SUB DUP2 ADD SWAP1 PUSH2 0x3A0 SWAP2 SWAP1 PUSH2 0x11FB JUMP JUMPDEST PUSH2 0x8B5 JUMP JUMPDEST PUSH1 0x40 MLOAD PUSH2 0x3B2 SWAP2 SWAP1 PUSH2 0x110B JUMP JUMPDEST PUSH1 0x40 MLOAD DUP1 SWAP2 SUB SWAP1 RETURN JUMPDEST PUSH1 0x60 PUSH1 0x40 MLOAD DUP1 PUSH1 0x40 ADD PUSH1 0x40 MSTORE DUP1 PUSH1 0xA DUP2 MSTORE PUSH1 0x20 ADD PUSH32 0x4F4E5755414A5545534500000000000000000000000000000000000000000000 DUP2 MSTORE POP SWAP1 POP SWAP1 JUMP JUMPDEST PUSH0 DUP1 PUSH2 0x402 PUSH2 0x937 JUMP JUMPDEST SWAP1 POP PUSH2 0x40F DUP2 DUP6 DUP6 PUSH2 0x93E JUMP JUMPDEST PUSH1 0x1 SWAP2 POP POP SWAP3 SWAP2 POP POP JUMP JUMPDEST PUSH0 PUSH1 0x2 SLOAD SWAP1 POP SWAP1 JUMP JUMPDEST PUSH0 DUP1 PUSH2 0x42D PUSH2 0x937 JUMP JUMPDEST SWAP1 POP PUSH2 0x43A DUP6 DUP3 DUP6 PUSH2 0xB01 JUMP JUMPDEST PUSH2 0x445 DUP6 DUP6 DUP6 PUSH2 0xB8C JUMP JUMPDEST PUSH1 0x1 SWAP2 POP POP SWAP4 SWAP3 POP POP POP JUMP JUMPDEST PUSH1 0x6 PUSH0 SWAP1 SLOAD SWAP1 PUSH2 0x100 EXP SWAP1 DIV PUSH20 0xFFFFFFFFFFFFFFFFFFFFFFFFFFFFFFFFFFFFFFFF AND PUSH20 0xFFFFFFFFFFFFFFFFFFFFFFFFFFFFFFFFFFFFFFFF AND CALLER PUSH20 0xFFFFFFFFFFFFFFFFFFFFFFFFFFFFFFFFFFFFFFFF AND EQ PUSH2 0x4E0 JUMPI PUSH1 0x40 MLOAD PUSH32 0x8C379A000000000000000000000000000000000000000000000000000000000 DUP2 MSTORE PUSH1 0x4 ADD PUSH2 0x4D7 SWAP1 PUSH2 0x1283 JUMP JUMPDEST PUSH1 0x40 MLOAD DUP1 SWAP2 SUB SWAP1 REVERT JUMPDEST DUP1 SELFBALANCE GT PUSH2 0x522 JUMPI PUSH1 0x40 MLOAD PUSH32 0x8C379A000000000000000000000000000000000000000000000000000000000 DUP2 MSTORE PUSH1 0x4 ADD PUSH2 0x519 SWAP1 PUSH2 0x12EB JUMP JUMPDEST PUSH1 0x40 MLOAD DUP1 SWAP2 SUB SWAP1 REVERT JUMPDEST DUP2 PUSH20 0xFFFFFFFFFFFFFFFFFFFFFFFFFFFFFFFFFFFFFFFF AND PUSH2 0x8FC PUSH8 0xDE0B6B3A7640000 DUP4 PUSH2 0x550 SWAP2 SWAP1 PUSH2 0x1336 JUMP JUMPDEST SWAP1 DUP2 ISZERO MUL SWAP1 PUSH1 0x40 MLOAD PUSH0 PUSH1 0x40 MLOAD DUP1 DUP4 SUB DUP2 DUP6 DUP9 DUP9 CALL SWAP4 POP POP POP POP ISZERO DUP1 ISZERO PUSH2 0x578 JUMPI RETURNDATASIZE PUSH0 DUP1 RETURNDATACOPY RETURNDATASIZE PUSH0 REVERT JUMPDEST POP POP POP JUMP JUMPDEST PUSH0 PUSH1 0x12 SWAP1 POP SWAP1 JUMP JUMPDEST PUSH0 DUP1 PUSH2 0x58F PUSH2 0x937 JUMP JUMPDEST SWAP1 POP PUSH2 0x5B0 DUP2 DUP6 DUP6 PUSH2 0x5A1 DUP6 DUP10 PUSH2 0x8B5 JUMP JUMPDEST PUSH2 0x5AB SWAP2 SWAP1 PUSH2 0x1377 JUMP JUMPDEST PUSH2 0x93E JUMP JUMPDEST PUSH1 0x1 SWAP2 POP POP SWAP3 SWAP2 POP POP JUMP JUMPDEST PUSH1 0x6 PUSH0 SWAP1 SLOAD SWAP1 PUSH2 0x100 EXP SWAP1 DIV PUSH20 0xFFFFFFFFFFFFFFFFFFFFFFFFFFFFFFFFFFFFFFFF AND PUSH20 0xFFFFFFFFFFFFFFFFFFFFFFFFFFFFFFFFFFFFFFFF AND CALLER PUSH20 0xFFFFFFFFFFFFFFFFFFFFFFFFFFFFFFFFFFFFFFFF AND EQ PUSH2 0x64A JUMPI PUSH1 0x40 MLOAD PUSH32 0x8C379A000000000000000000000000000000000000000000000000000000000 DUP2 MSTORE PUSH1 0x4 ADD PUSH2 0x641 SWAP1 PUSH2 0x1283 JUMP JUMPDEST PUSH1 0x40 MLOAD DUP1 SWAP2 SUB SWAP1 REVERT JUMPDEST PUSH1 0x5 SLOAD DUP2 PUSH2 0x656 PUSH2 0x41A JUMP JUMPDEST PUSH2 0x660 SWAP2 SWAP1 PUSH2 0x1377 JUMP JUMPDEST GT ISZERO PUSH2 0x6A1 JUMPI PUSH1 0x40 MLOAD PUSH32 0x8C379A000000000000000000000000000000000000000000000000000000000 DUP2 MSTORE PUSH1 0x4 ADD PUSH2 0x698 SWAP1 PUSH2 0x13F4 JUMP JUMPDEST PUSH1 0x40 MLOAD DUP1 SWAP2 SUB SWAP1 REVERT JUMPDEST PUSH2 0x6AB DUP3 DUP3 PUSH2 0xDF8 JUMP JUMPDEST POP POP JUMP JUMPDEST PUSH0 CALLVALUE GT PUSH2 0x6F1 JUMPI PUSH1 0x40 MLOAD PUSH32 0x8C379A000000000000000000000000000000000000000000000000000000000 DUP2 MSTORE PUSH1 0x4 ADD PUSH2 0x6E8 SWAP1 PUSH2 0x145C JUMP JUMPDEST PUSH1 0x40 MLOAD DUP1 SWAP2 SUB SWAP1 REVERT JUMPDEST CALLER PUSH20 0xFFFFFFFFFFFFFFFFFFFFFFFFFFFFFFFFFFFFFFFF AND BALANCE CALLVALUE GT ISZERO PUSH2 0x74B JUMPI PUSH1 0x40 MLOAD PUSH32 0x8C379A000000000000000000000000000000000000000000000000000000000 DUP2 MSTORE PUSH1 0x4 ADD PUSH2 0x742 SWAP1 PUSH2 0x14C4 JUMP JUMPDEST PUSH1 0x40 MLOAD DUP1 SWAP2 SUB SWAP1 REVERT JUMPDEST PUSH2 0x775 CALLER PUSH8 0xDE0B6B3A7640000 PUSH2 0x1F4 CALLVALUE PUSH2 0x766 SWAP2 SWAP1 PUSH2 0x1336 JUMP JUMPDEST PUSH2 0x770 SWAP2 SWAP1 PUSH2 0x150F JUMP JUMPDEST PUSH2 0xDF8 JUMP JUMPDEST JUMP JUMPDEST PUSH0 DUP1 PUSH0 DUP4 PUSH20 0xFFFFFFFFFFFFFFFFFFFFFFFFFFFFFFFFFFFFFFFF AND PUSH20 0xFFFFFFFFFFFFFFFFFFFFFFFFFFFFFFFFFFFFFFFF AND DUP2 MSTORE PUSH1 0x20 ADD SWAP1 DUP2 MSTORE PUSH1 0x20 ADD PUSH0 KECCAK256 SLOAD SWAP1 POP SWAP2 SWAP1 POP JUMP JUMPDEST PUSH1 0x6 PUSH0 SWAP1 SLOAD SWAP1 PUSH2 0x100 EXP SWAP1 DIV PUSH20 0xFFFFFFFFFFFFFFFFFFFFFFFFFFFFFFFFFFFFFFFF AND DUP2 JUMP JUMPDEST PUSH1 0x60 PUSH1 0x40 MLOAD DUP1 PUSH1 0x40 ADD PUSH1 0x40 MSTORE DUP1 PUSH1 0x4 DUP2 MSTORE PUSH1 0x20 ADD PUSH32 0x42554E4E00000000000000000000000000000000000000000000000000000000 DUP2 MSTORE POP SWAP1 POP SWAP1 JUMP JUMPDEST PUSH0 DUP1 PUSH2 0x828 PUSH2 0x937 JUMP JUMPDEST SWAP1 POP PUSH0 PUSH2 0x835 DUP3 DUP7 PUSH2 0x8B5 JUMP JUMPDEST SWAP1 POP DUP4 DUP2 LT ISZERO PUSH2 0x87A JUMPI PUSH1 0x40 MLOAD PUSH32 0x8C379A000000000000000000000000000000000000000000000000000000000 DUP2 MSTORE PUSH1 0x4 ADD PUSH2 0x871 SWAP1 PUSH2 0x15AF JUMP JUMPDEST PUSH1 0x40 MLOAD DUP1 SWAP2 SUB SWAP1 REVERT JUMPDEST PUSH2 0x887 DUP3 DUP7 DUP7 DUP5 SUB PUSH2 0x93E JUMP JUMPDEST PUSH1 0x1 SWAP3 POP POP POP SWAP3 SWAP2 POP POP JUMP JUMPDEST PUSH0 DUP1 PUSH2 0x89D PUSH2 0x937 JUMP JUMPDEST SWAP1 POP PUSH2 0x8AA DUP2 DUP6 DUP6 PUSH2 0xB8C JUMP JUMPDEST PUSH1 0x1 SWAP2 POP POP SWAP3 SWAP2 POP POP JUMP JUMPDEST PUSH0 PUSH1 0x1 PUSH0 DUP5 PUSH20 0xFFFFFFFFFFFFFFFFFFFFFFFFFFFFFFFFFFFFFFFF AND PUSH20 0xFFFFFFFFFFFFFFFFFFFFFFFFFFFFFFFFFFFFFFFF AND DUP2 MSTORE PUSH1 0x20 ADD SWAP1 DUP2 MSTORE PUSH1 0x20 ADD PUSH0 KECCAK256 PUSH0 DUP4 PUSH20 0xFFFFFFFFFFFFFFFFFFFFFFFFFFFFFFFFFFFFFFFF AND PUSH20 0xFFFFFFFFFFFFFFFFFFFFFFFFFFFFFFFFFFFFFFFF AND DUP2 MSTORE PUSH1 0x20 ADD SWAP1 DUP2 MSTORE PUSH1 0x20 ADD PUSH0 KECCAK256 SLOAD SWAP1 POP SWAP3 SWAP2 POP POP JUMP JUMPDEST PUSH0 CALLER SWAP1 POP SWAP1 JUMP JUMPDEST PUSH0 PUSH20 0xFFFFFFFFFFFFFFFFFFFFFFFFFFFFFFFFFFFFFFFF AND DUP4 PUSH20 0xFFFFFFFFFFFFFFFFFFFFFFFFFFFFFFFFFFFFFFFF AND SUB PUSH2 0x9AC JUMPI PUSH1 0x40 MLOAD PUSH32 0x8C379A000000000000000000000000000000000000000000000000000000000 DUP2 MSTORE PUSH1 0x4 ADD PUSH2 0x9A3 SWAP1 PUSH2 0x163D JUMP JUMPDEST PUSH1 0x40 MLOAD DUP1 SWAP2 SUB SWAP1 REVERT JUMPDEST PUSH0 PUSH20 0xFFFFFFFFFFFFFFFFFFFFFFFFFFFFFFFFFFFFFFFF AND DUP3 PUSH20 0xFFFFFFFFFFFFFFFFFFFFFFFFFFFFFFFFFFFFFFFF AND SUB PUSH2 0xA1A JUMPI PUSH1 0x40 MLOAD PUSH32 0x8C379A000000000000000000000000000000000000000000000000000000000 DUP2 MSTORE PUSH1 0x4 ADD PUSH2 0xA11 SWAP1 PUSH2 0x16CB JUMP JUMPDEST PUSH1 0x40 MLOAD DUP1 SWAP2 SUB SWAP1 REVERT JUMPDEST DUP1 PUSH1 0x1 PUSH0 DUP6 PUSH20 0xFFFFFFFFFFFFFFFFFFFFFFFFFFFFFFFFFFFFFFFF AND PUSH20 0xFFFFFFFFFFFFFFFFFFFFFFFFFFFFFFFFFFFFFFFF AND DUP2 MSTORE PUSH1 0x20 ADD SWAP1 DUP2 MSTORE PUSH1 0x20 ADD PUSH0 KECCAK256 PUSH0 DUP5 PUSH20 0xFFFFFFFFFFFFFFFFFFFFFFFFFFFFFFFFFFFFFFFF AND PUSH20 0xFFFFFFFFFFFFFFFFFFFFFFFFFFFFFFFFFFFFFFFF AND DUP2 MSTORE PUSH1 0x20 ADD SWAP1 DUP2 MSTORE PUSH1 0x20 ADD PUSH0 KECCAK256 DUP2 SWAP1 SSTORE POP DUP2 PUSH20 0xFFFFFFFFFFFFFFFFFFFFFFFFFFFFFFFFFFFFFFFF AND DUP4 PUSH20 0xFFFFFFFFFFFFFFFFFFFFFFFFFFFFFFFFFFFFFFFF AND PUSH32 0x8C5BE1E5EBEC7D5BD14F71427D1E84F3DD0314C0F7B2291E5B200AC8C7C3B925 DUP4 PUSH1 0x40 MLOAD PUSH2 0xAF4 SWAP2 SWAP1 PUSH2 0x110B JUMP JUMPDEST PUSH1 0x40 MLOAD DUP1 SWAP2 SUB SWAP1 LOG3 POP POP POP JUMP JUMPDEST PUSH0 PUSH2 0xB0C DUP5 DUP5 PUSH2 0x8B5 JUMP JUMPDEST SWAP1 POP PUSH32 0xFFFFFFFFFFFFFFFFFFFFFFFFFFFFFFFFFFFFFFFFFFFFFFFFFFFFFFFFFFFFFFFF DUP2 EQ PUSH2 0xB86 JUMPI DUP2 DUP2 LT ISZERO PUSH2 0xB78 JUMPI PUSH1 0x40 MLOAD PUSH32 0x8C379A000000000000000000000000000000000000000000000000000000000 DUP2 MSTORE PUSH1 0x4 ADD PUSH2 0xB6F SWAP1 PUSH2 0x1733 JUMP JUMPDEST PUSH1 0x40 MLOAD DUP1 SWAP2 SUB SWAP1 REVERT JUMPDEST PUSH2 0xB85 DUP5 DUP5 DUP5 DUP5 SUB PUSH2 0x93E JUMP JUMPDEST JUMPDEST POP POP POP POP JUMP JUMPDEST PUSH0 PUSH20 0xFFFFFFFFFFFFFFFFFFFFFFFFFFFFFFFFFFFFFFFF AND DUP4 PUSH20 0xFFFFFFFFFFFFFFFFFFFFFFFFFFFFFFFFFFFFFFFF AND SUB PUSH2 0xBFA JUMPI PUSH1 0x40 MLOAD PUSH32 0x8C379A000000000000000000000000000000000000000000000000000000000 DUP2 MSTORE PUSH1 0x4 ADD PUSH2 0xBF1 SWAP1 PUSH2 0x17C1 JUMP JUMPDEST PUSH1 0x40 MLOAD DUP1 SWAP2 SUB SWAP1 REVERT JUMPDEST PUSH0 PUSH20 0xFFFFFFFFFFFFFFFFFFFFFFFFFFFFFFFFFFFFFFFF AND DUP3 PUSH20 0xFFFFFFFFFFFFFFFFFFFFFFFFFFFFFFFFFFFFFFFF AND SUB PUSH2 0xC68 JUMPI PUSH1 0x40 MLOAD PUSH32 0x8C379A000000000000000000000000000000000000000000000000000000000 DUP2 MSTORE PUSH1 0x4 ADD PUSH2 0xC5F SWAP1 PUSH2 0x184F JUMP JUMPDEST PUSH1 0x40 MLOAD DUP1 SWAP2 SUB SWAP1 REVERT JUMPDEST PUSH2 0xC73 DUP4 DUP4 DUP4 PUSH2 0xF46 JUMP JUMPDEST PUSH0 DUP1 PUSH0 DUP6 PUSH20 0xFFFFFFFFFFFFFFFFFFFFFFFFFFFFFFFFFFFFFFFF AND PUSH20 0xFFFFFFFFFFFFFFFFFFFFFFFFFFFFFFFFFFFFFFFF AND DUP2 MSTORE PUSH1 0x20 ADD SWAP1 DUP2 MSTORE PUSH1 0x20 ADD PUSH0 KECCAK256 SLOAD SWAP1 POP DUP2 DUP2 LT ISZERO PUSH2 0xCF6 JUMPI PUSH1 0x40 MLOAD PUSH32 0x8C379A000000000000000000000000000000000000000000000000000000000 DUP2 MSTORE PUSH1 0x4 ADD PUSH2 0xCED SWAP1 PUSH2 0x18DD JUMP JUMPDEST PUSH1 0x40 MLOAD DUP1 SWAP2 SUB SWAP1 REVERT JUMPDEST DUP2 DUP2 SUB PUSH0 DUP1 DUP7 PUSH20 0xFFFFFFFFFFFFFFFFFFFFFFFFFFFFFFFFFFFFFFFF AND PUSH20 0xFFFFFFFFFFFFFFFFFFFFFFFFFFFFFFFFFFFFFFFF AND DUP2 MSTORE PUSH1 0x20 ADD SWAP1 DUP2 MSTORE PUSH1 0x20 ADD PUSH0 KECCAK256 DUP2 SWAP1 SSTORE POP DUP2 PUSH0 DUP1 DUP6 PUSH20 0xFFFFFFFFFFFFFFFFFFFFFFFFFFFFFFFFFFFFFFFF AND PUSH20 0xFFFFFFFFFFFFFFFFFFFFFFFFFFFFFFFFFFFFFFFF AND DUP2 MSTORE PUSH1 0x20 ADD SWAP1 DUP2 MSTORE PUSH1 0x20 ADD PUSH0 KECCAK256 PUSH0 DUP3 DUP3 SLOAD ADD SWAP3 POP POP DUP2 SWAP1 SSTORE POP DUP3 PUSH20 0xFFFFFFFFFFFFFFFFFFFFFFFFFFFFFFFFFFFFFFFF AND DUP5 PUSH20 0xFFFFFFFFFFFFFFFFFFFFFFFFFFFFFFFFFFFFFFFF AND PUSH32 0xDDF252AD1BE2C89B69C2B068FC378DAA952BA7F163C4A11628F55A4DF523B3EF DUP5 PUSH1 0x40 MLOAD PUSH2 0xDDF SWAP2 SWAP1 PUSH2 0x110B JUMP JUMPDEST PUSH1 0x40 MLOAD DUP1 SWAP2 SUB SWAP1 LOG3 PUSH2 0xDF2 DUP5 DUP5 DUP5 PUSH2 0xF4B JUMP JUMPDEST POP POP POP POP JUMP JUMPDEST PUSH0 PUSH20 0xFFFFFFFFFFFFFFFFFFFFFFFFFFFFFFFFFFFFFFFF AND DUP3 PUSH20 0xFFFFFFFFFFFFFFFFFFFFFFFFFFFFFFFFFFFFFFFF AND SUB PUSH2 0xE66 JUMPI PUSH1 0x40 MLOAD PUSH32 0x8C379A000000000000000000000000000000000000000000000000000000000 DUP2 MSTORE PUSH1 0x4 ADD PUSH2 0xE5D SWAP1 PUSH2 0x1945 JUMP JUMPDEST PUSH1 0x40 MLOAD DUP1 SWAP2 SUB SWAP1 REVERT JUMPDEST PUSH2 0xE71 PUSH0 DUP4 DUP4 PUSH2 0xF46 JUMP JUMPDEST DUP1 PUSH1 0x2 PUSH0 DUP3 DUP3 SLOAD PUSH2 0xE82 SWAP2 SWAP1 PUSH2 0x1377 JUMP JUMPDEST SWAP3 POP POP DUP2 SWAP1 SSTORE POP DUP1 PUSH0 DUP1 DUP5 PUSH20 0xFFFFFFFFFFFFFFFFFFFFFFFFFFFFFFFFFFFFFFFF AND PUSH20 0xFFFFFFFFFFFFFFFFFFFFFFFFFFFFFFFFFFFFFFFF AND DUP2 MSTORE PUSH1 0x20 ADD SWAP1 DUP2 MSTORE PUSH1 0x20 ADD PUSH0 KECCAK256 PUSH0 DUP3 DUP3 SLOAD ADD SWAP3 POP POP DUP2 SWAP1 SSTORE POP DUP2 PUSH20 0xFFFFFFFFFFFFFFFFFFFFFFFFFFFFFFFFFFFFFFFF AND PUSH0 PUSH20 0xFFFFFFFFFFFFFFFFFFFFFFFFFFFFFFFFFFFFFFFF AND PUSH32 0xDDF252AD1BE2C89B69C2B068FC378DAA952BA7F163C4A11628F55A4DF523B3EF DUP4 PUSH1 0x40 MLOAD PUSH2 0xF2F SWAP2 SWAP1 PUSH2 0x110B JUMP JUMPDEST PUSH1 0x40 MLOAD DUP1 SWAP2 SUB SWAP1 LOG3 PUSH2 0xF42 PUSH0 DUP4 DUP4 PUSH2 0xF4B JUMP JUMPDEST POP POP JUMP JUMPDEST POP POP POP JUMP JUMPDEST POP POP POP JUMP JUMPDEST PUSH0 DUP2 MLOAD SWAP1 POP SWAP2 SWAP1 POP JUMP JUMPDEST PUSH0 DUP3 DUP3 MSTORE PUSH1 0x20 DUP3 ADD SWAP1 POP SWAP3 SWAP2 POP POP JUMP JUMPDEST PUSH0 JUMPDEST DUP4 DUP2 LT ISZERO PUSH2 0xF87 JUMPI DUP1 DUP3 ADD MLOAD DUP2 DUP5 ADD MSTORE PUSH1 0x20 DUP2 ADD SWAP1 POP PUSH2 0xF6C JUMP JUMPDEST PUSH0 DUP5 DUP5 ADD MSTORE POP POP POP POP JUMP JUMPDEST PUSH0 PUSH1 0x1F NOT PUSH1 0x1F DUP4 ADD AND SWAP1 POP SWAP2 SWAP1 POP JUMP JUMPDEST PUSH0 PUSH2 0xFAC DUP3 PUSH2 0xF50 JUMP JUMPDEST PUSH2 0xFB6 DUP2 DUP6 PUSH2 0xF5A JUMP JUMPDEST SWAP4 POP PUSH2 0xFC6 DUP2 DUP6 PUSH1 0x20 DUP7 ADD PUSH2 0xF6A JUMP JUMPDEST PUSH2 0xFCF DUP2 PUSH2 0xF92 JUMP JUMPDEST DUP5 ADD SWAP2 POP POP SWAP3 SWAP2 POP POP JUMP JUMPDEST PUSH0 PUSH1 0x20 DUP3 ADD SWAP1 POP DUP2 DUP2 SUB PUSH0 DUP4 ADD MSTORE PUSH2 0xFF2 DUP2 DUP5 PUSH2 0xFA2 JUMP JUMPDEST SWAP1 POP SWAP3 SWAP2 POP POP JUMP JUMPDEST PUSH0 DUP1 REVERT JUMPDEST PUSH0 PUSH20 0xFFFFFFFFFFFFFFFFFFFFFFFFFFFFFFFFFFFFFFFF DUP3 AND SWAP1 POP SWAP2 SWAP1 POP JUMP JUMPDEST PUSH0 PUSH2 0x1027 DUP3 PUSH2 0xFFE JUMP JUMPDEST SWAP1 POP SWAP2 SWAP1 POP JUMP JUMPDEST PUSH2 0x1037 DUP2 PUSH2 0x101D JUMP JUMPDEST DUP2 EQ PUSH2 0x1041 JUMPI PUSH0 DUP1 REVERT JUMPDEST POP JUMP JUMPDEST PUSH0 DUP2 CALLDATALOAD SWAP1 POP PUSH2 0x1052 DUP2 PUSH2 0x102E JUMP JUMPDEST SWAP3 SWAP2 POP POP JUMP JUMPDEST PUSH0 DUP2 SWAP1 POP SWAP2 SWAP1 POP JUMP JUMPDEST PUSH2 0x106A DUP2 PUSH2 0x1058 JUMP JUMPDEST DUP2 EQ PUSH2 0x1074 JUMPI PUSH0 DUP1 REVERT JUMPDEST POP JUMP JUMPDEST PUSH0 DUP2 CALLDATALOAD SWAP1 POP PUSH2 0x1085 DUP2 PUSH2 0x1061 JUMP JUMPDEST SWAP3 SWAP2 POP POP JUMP JUMPDEST PUSH0 DUP1 PUSH1 0x40 DUP4 DUP6 SUB SLT ISZERO PUSH2 0x10A1 JUMPI PUSH2 0x10A0 PUSH2 0xFFA JUMP JUMPDEST JUMPDEST PUSH0 PUSH2 0x10AE DUP6 DUP3 DUP7 ADD PUSH2 0x1044 JUMP JUMPDEST SWAP3 POP POP PUSH1 0x20 PUSH2 0x10BF DUP6 DUP3 DUP7 ADD PUSH2 0x1077 JUMP JUMPDEST SWAP2 POP POP SWAP3 POP SWAP3 SWAP1 POP JUMP JUMPDEST PUSH0 DUP2 ISZERO ISZERO SWAP1 POP SWAP2 SWAP1 POP JUMP JUMPDEST PUSH2 0x10DD DUP2 PUSH2 0x10C9 JUMP JUMPDEST DUP3 MSTORE POP POP JUMP JUMPDEST PUSH0 PUSH1 0x20 DUP3 ADD SWAP1 POP PUSH2 0x10F6 PUSH0 DUP4 ADD DUP5 PUSH2 0x10D4 JUMP JUMPDEST SWAP3 SWAP2 POP POP JUMP JUMPDEST PUSH2 0x1105 DUP2 PUSH2 0x1058 JUMP JUMPDEST DUP3 MSTORE POP POP JUMP JUMPDEST PUSH0 PUSH1 0x20 DUP3 ADD SWAP1 POP PUSH2 0x111E PUSH0 DUP4 ADD DUP5 PUSH2 0x10FC JUMP JUMPDEST SWAP3 SWAP2 POP POP JUMP JUMPDEST PUSH0 DUP1 PUSH0 PUSH1 0x60 DUP5 DUP7 SUB SLT ISZERO PUSH2 0x113B JUMPI PUSH2 0x113A PUSH2 0xFFA JUMP JUMPDEST JUMPDEST PUSH0 PUSH2 0x1148 DUP7 DUP3 DUP8 ADD PUSH2 0x1044 JUMP JUMPDEST SWAP4 POP POP PUSH1 0x20 PUSH2 0x1159 DUP7 DUP3 DUP8 ADD PUSH2 0x1044 JUMP JUMPDEST SWAP3 POP POP PUSH1 0x40 PUSH2 0x116A DUP7 DUP3 DUP8 ADD PUSH2 0x1077 JUMP JUMPDEST SWAP2 POP POP SWAP3 POP SWAP3 POP SWAP3 JUMP JUMPDEST PUSH0 PUSH1 0xFF DUP3 AND SWAP1 POP SWAP2 SWAP1 POP JUMP JUMPDEST PUSH2 0x1189 DUP2 PUSH2 0x1174 JUMP JUMPDEST DUP3 MSTORE POP POP JUMP JUMPDEST PUSH0 PUSH1 0x20 DUP3 ADD SWAP1 POP PUSH2 0x11A2 PUSH0 DUP4 ADD DUP5 PUSH2 0x1180 JUMP JUMPDEST SWAP3 SWAP2 POP POP JUMP JUMPDEST PUSH0 PUSH1 0x20 DUP3 DUP5 SUB SLT ISZERO PUSH2 0x11BD JUMPI PUSH2 0x11BC PUSH2 0xFFA JUMP JUMPDEST JUMPDEST PUSH0 PUSH2 0x11CA DUP5 DUP3 DUP6 ADD PUSH2 0x1044 JUMP JUMPDEST SWAP2 POP POP SWAP3 SWAP2 POP POP JUMP JUMPDEST PUSH2 0x11DC DUP2 PUSH2 0x101D JUMP JUMPDEST DUP3 MSTORE POP POP JUMP JUMPDEST PUSH0 PUSH1 0x20 DUP3 ADD SWAP1 POP PUSH2 0x11F5 PUSH0 DUP4 ADD DUP5 PUSH2 0x11D3 JUMP JUMPDEST SWAP3 SWAP2 POP POP JUMP JUMPDEST PUSH0 DUP1 PUSH1 0x40 DUP4 DUP6 SUB SLT ISZERO PUSH2 0x1211 JUMPI PUSH2 0x1210 PUSH2 0xFFA JUMP JUMPDEST JUMPDEST PUSH0 PUSH2 0x121E DUP6 DUP3 DUP7 ADD PUSH2 0x1044 JUMP JUMPDEST SWAP3 POP POP PUSH1 0x20 PUSH2 0x122F DUP6 DUP3 DUP7 ADD PUSH2 0x1044 JUMP JUMPDEST SWAP2 POP POP SWAP3 POP SWAP3 SWAP1 POP JUMP JUMPDEST PUSH32 0x556E617574686F72697A656420456E7469747900000000000000000000000000 PUSH0 DUP3 ADD MSTORE POP JUMP JUMPDEST PUSH0 PUSH2 0x126D PUSH1 0x13 DUP4 PUSH2 0xF5A JUMP JUMPDEST SWAP2 POP PUSH2 0x1278 DUP3 PUSH2 0x1239 JUMP JUMPDEST PUSH1 0x20 DUP3 ADD SWAP1 POP SWAP2 SWAP1 POP JUMP JUMPDEST PUSH0 PUSH1 0x20 DUP3 ADD SWAP1 POP DUP2 DUP2 SUB PUSH0 DUP4 ADD MSTORE PUSH2 0x129A DUP2 PUSH2 0x1261 JUMP JUMPDEST SWAP1 POP SWAP2 SWAP1 POP JUMP JUMPDEST PUSH32 0x494E53554646494349454E542046554E44530000000000000000000000000000 PUSH0 DUP3 ADD MSTORE POP JUMP JUMPDEST PUSH0 PUSH2 0x12D5 PUSH1 0x12 DUP4 PUSH2 0xF5A JUMP JUMPDEST SWAP2 POP PUSH2 0x12E0 DUP3 PUSH2 0x12A1 JUMP JUMPDEST PUSH1 0x20 DUP3 ADD SWAP1 POP SWAP2 SWAP1 POP JUMP JUMPDEST PUSH0 PUSH1 0x20 DUP3 ADD SWAP1 POP DUP2 DUP2 SUB PUSH0 DUP4 ADD MSTORE PUSH2 0x1302 DUP2 PUSH2 0x12C9 JUMP JUMPDEST SWAP1 POP SWAP2 SWAP1 POP JUMP JUMPDEST PUSH32 0x4E487B7100000000000000000000000000000000000000000000000000000000 PUSH0 MSTORE PUSH1 0x11 PUSH1 0x4 MSTORE PUSH1 0x24 PUSH0 REVERT JUMPDEST PUSH0 PUSH2 0x1340 DUP3 PUSH2 0x1058 JUMP JUMPDEST SWAP2 POP PUSH2 0x134B DUP4 PUSH2 0x1058 JUMP JUMPDEST SWAP3 POP DUP3 DUP3 MUL PUSH2 0x1359 DUP2 PUSH2 0x1058 JUMP JUMPDEST SWAP2 POP DUP3 DUP3 DIV DUP5 EQ DUP4 ISZERO OR PUSH2 0x1370 JUMPI PUSH2 0x136F PUSH2 0x1309 JUMP JUMPDEST JUMPDEST POP SWAP3 SWAP2 POP POP JUMP JUMPDEST PUSH0 PUSH2 0x1381 DUP3 PUSH2 0x1058 JUMP JUMPDEST SWAP2 POP PUSH2 0x138C DUP4 PUSH2 0x1058 JUMP JUMPDEST SWAP3 POP DUP3 DUP3 ADD SWAP1 POP DUP1 DUP3 GT ISZERO PUSH2 0x13A4 JUMPI PUSH2 0x13A3 PUSH2 0x1309 JUMP JUMPDEST JUMPDEST SWAP3 SWAP2 POP POP JUMP JUMPDEST PUSH32 0x4D415820535550504C5920455843454544454400000000000000000000000000 PUSH0 DUP3 ADD MSTORE POP JUMP JUMPDEST PUSH0 PUSH2 0x13DE PUSH1 0x13 DUP4 PUSH2 0xF5A JUMP JUMPDEST SWAP2 POP PUSH2 0x13E9 DUP3 PUSH2 0x13AA JUMP JUMPDEST PUSH1 0x20 DUP3 ADD SWAP1 POP SWAP2 SWAP1 POP JUMP JUMPDEST PUSH0 PUSH1 0x20 DUP3 ADD SWAP1 POP DUP2 DUP2 SUB PUSH0 DUP4 ADD MSTORE PUSH2 0x140B DUP2 PUSH2 0x13D2 JUMP JUMPDEST SWAP1 POP SWAP2 SWAP1 POP JUMP JUMPDEST PUSH32 0x455448204D555354204245204D4F5245205448414E2030000000000000000000 PUSH0 DUP3 ADD MSTORE POP JUMP JUMPDEST PUSH0 PUSH2 0x1446 PUSH1 0x17 DUP4 PUSH2 0xF5A JUMP JUMPDEST SWAP2 POP PUSH2 0x1451 DUP3 PUSH2 0x1412 JUMP JUMPDEST PUSH1 0x20 DUP3 ADD SWAP1 POP SWAP2 SWAP1 POP JUMP JUMPDEST PUSH0 PUSH1 0x20 DUP3 ADD SWAP1 POP DUP2 DUP2 SUB PUSH0 DUP4 ADD MSTORE PUSH2 0x1473 DUP2 PUSH2 0x143A JUMP JUMPDEST SWAP1 POP SWAP2 SWAP1 POP JUMP JUMPDEST PUSH32 0x4E4F5420454E4F55474820455448000000000000000000000000000000000000 PUSH0 DUP3 ADD MSTORE POP JUMP JUMPDEST PUSH0 PUSH2 0x14AE PUSH1 0xE DUP4 PUSH2 0xF5A JUMP JUMPDEST SWAP2 POP PUSH2 0x14B9 DUP3 PUSH2 0x147A JUMP JUMPDEST PUSH1 0x20 DUP3 ADD SWAP1 POP SWAP2 SWAP1 POP JUMP JUMPDEST PUSH0 PUSH1 0x20 DUP3 ADD SWAP1 POP DUP2 DUP2 SUB PUSH0 DUP4 ADD MSTORE PUSH2 0x14DB DUP2 PUSH2 0x14A2 JUMP JUMPDEST SWAP1 POP SWAP2 SWAP1 POP JUMP JUMPDEST PUSH32 0x4E487B7100000000000000000000000000000000000000000000000000000000 PUSH0 MSTORE PUSH1 0x12 PUSH1 0x4 MSTORE PUSH1 0x24 PUSH0 REVERT JUMPDEST PUSH0 PUSH2 0x1519 DUP3 PUSH2 0x1058 JUMP JUMPDEST SWAP2 POP PUSH2 0x1524 DUP4 PUSH2 0x1058 JUMP JUMPDEST SWAP3 POP DUP3 PUSH2 0x1534 JUMPI PUSH2 0x1533 PUSH2 0x14E2 JUMP JUMPDEST JUMPDEST DUP3 DUP3 DIV SWAP1 POP SWAP3 SWAP2 POP POP JUMP JUMPDEST PUSH32 0x45524332303A2064656372656173656420616C6C6F77616E63652062656C6F77 PUSH0 DUP3 ADD MSTORE PUSH32 0x207A65726F000000000000000000000000000000000000000000000000000000 PUSH1 0x20 DUP3 ADD MSTORE POP JUMP JUMPDEST PUSH0 PUSH2 0x1599 PUSH1 0x25 DUP4 PUSH2 0xF5A JUMP JUMPDEST SWAP2 POP PUSH2 0x15A4 DUP3 PUSH2 0x153F JUMP JUMPDEST PUSH1 0x40 DUP3 ADD SWAP1 POP SWAP2 SWAP1 POP JUMP JUMPDEST PUSH0 PUSH1 0x20 DUP3 ADD SWAP1 POP DUP2 DUP2 SUB PUSH0 DUP4 ADD MSTORE PUSH2 0x15C6 DUP2 PUSH2 0x158D JUMP JUMPDEST SWAP1 POP SWAP2 SWAP1 POP JUMP JUMPDEST PUSH32 0x45524332303A20617070726F76652066726F6D20746865207A65726F20616464 PUSH0 DUP3 ADD MSTORE PUSH32 0x7265737300000000000000000000000000000000000000000000000000000000 PUSH1 0x20 DUP3 ADD MSTORE POP JUMP JUMPDEST PUSH0 PUSH2 0x1627 PUSH1 0x24 DUP4 PUSH2 0xF5A JUMP JUMPDEST SWAP2 POP PUSH2 0x1632 DUP3 PUSH2 0x15CD JUMP JUMPDEST PUSH1 0x40 DUP3 ADD SWAP1 POP SWAP2 SWAP1 POP JUMP JUMPDEST PUSH0 PUSH1 0x20 DUP3 ADD SWAP1 POP DUP2 DUP2 SUB PUSH0 DUP4 ADD MSTORE PUSH2 0x1654 DUP2 PUSH2 0x161B JUMP JUMPDEST SWAP1 POP SWAP2 SWAP1 POP JUMP JUMPDEST PUSH32 0x45524332303A20617070726F766520746F20746865207A65726F206164647265 PUSH0 DUP3 ADD MSTORE PUSH32 0x7373000000000000000000000000000000000000000000000000000000000000 PUSH1 0x20 DUP3 ADD MSTORE POP JUMP JUMPDEST PUSH0 PUSH2 0x16B5 PUSH1 0x22 DUP4 PUSH2 0xF5A JUMP JUMPDEST SWAP2 POP PUSH2 0x16C0 DUP3 PUSH2 0x165B JUMP JUMPDEST PUSH1 0x40 DUP3 ADD SWAP1 POP SWAP2 SWAP1 POP JUMP JUMPDEST PUSH0 PUSH1 0x20 DUP3 ADD SWAP1 POP DUP2 DUP2 SUB PUSH0 DUP4 ADD MSTORE PUSH2 0x16E2 DUP2 PUSH2 0x16A9 JUMP JUMPDEST SWAP1 POP SWAP2 SWAP1 POP JUMP JUMPDEST PUSH32 0x45524332303A20696E73756666696369656E7420616C6C6F77616E6365000000 PUSH0 DUP3 ADD MSTORE POP JUMP JUMPDEST PUSH0 PUSH2 0x171D PUSH1 0x1D DUP4 PUSH2 0xF5A JUMP JUMPDEST SWAP2 POP PUSH2 0x1728 DUP3 PUSH2 0x16E9 JUMP JUMPDEST PUSH1 0x20 DUP3 ADD SWAP1 POP SWAP2 SWAP1 POP JUMP JUMPDEST PUSH0 PUSH1 0x20 DUP3 ADD SWAP1 POP DUP2 DUP2 SUB PUSH0 DUP4 ADD MSTORE PUSH2 0x174A DUP2 PUSH2 0x1711 JUMP JUMPDEST SWAP1 POP SWAP2 SWAP1 POP JUMP JUMPDEST PUSH32 0x45524332303A207472616E736665722066726F6D20746865207A65726F206164 PUSH0 DUP3 ADD MSTORE PUSH32 0x6472657373000000000000000000000000000000000000000000000000000000 PUSH1 0x20 DUP3 ADD MSTORE POP JUMP JUMPDEST PUSH0 PUSH2 0x17AB PUSH1 0x25 DUP4 PUSH2 0xF5A JUMP JUMPDEST SWAP2 POP PUSH2 0x17B6 DUP3 PUSH2 0x1751 JUMP JUMPDEST PUSH1 0x40 DUP3 ADD SWAP1 POP SWAP2 SWAP1 POP JUMP JUMPDEST PUSH0 PUSH1 0x20 DUP3 ADD SWAP1 POP DUP2 DUP2 SUB PUSH0 DUP4 ADD MSTORE PUSH2 0x17D8 DUP2 PUSH2 0x179F JUMP JUMPDEST SWAP1 POP SWAP2 SWAP1 POP JUMP JUMPDEST PUSH32 0x45524332303A207472616E7366657220746F20746865207A65726F2061646472 PUSH0 DUP3 ADD MSTORE PUSH32 0x6573730000000000000000000000000000000000000000000000000000000000 PUSH1 0x20 DUP3 ADD MSTORE POP JUMP JUMPDEST PUSH0 PUSH2 0x1839 PUSH1 0x23 DUP4 PUSH2 0xF5A JUMP JUMPDEST SWAP2 POP PUSH2 0x1844 DUP3 PUSH2 0x17DF JUMP JUMPDEST PUSH1 0x40 DUP3 ADD SWAP1 POP SWAP2 SWAP1 POP JUMP JUMPDEST PUSH0 PUSH1 0x20 DUP3 ADD SWAP1 POP DUP2 DUP2 SUB PUSH0 DUP4 ADD MSTORE PUSH2 0x1866 DUP2 PUSH2 0x182D JUMP JUMPDEST SWAP1 POP SWAP2 SWAP1 POP JUMP JUMPDEST PUSH32 0x45524332303A207472616E7366657220616D6F756E7420657863656564732062 PUSH0 DUP3 ADD MSTORE PUSH32 0x616C616E63650000000000000000000000000000000000000000000000000000 PUSH1 0x20 DUP3 ADD MSTORE POP JUMP JUMPDEST PUSH0 PUSH2 0x18C7 PUSH1 0x26 DUP4 PUSH2 0xF5A JUMP JUMPDEST SWAP2 POP PUSH2 0x18D2 DUP3 PUSH2 0x186D JUMP JUMPDEST PUSH1 0x40 DUP3 ADD SWAP1 POP SWAP2 SWAP1 POP JUMP JUMPDEST PUSH0 PUSH1 0x20 DUP3 ADD SWAP1 POP DUP2 DUP2 SUB PUSH0 DUP4 ADD MSTORE PUSH2 0x18F4 DUP2 PUSH2 0x18BB JUMP JUMPDEST SWAP1 POP SWAP2 SWAP1 POP JUMP JUMPDEST PUSH32 0x45524332303A206D696E7420746F20746865207A65726F206164647265737300 PUSH0 DUP3 ADD MSTORE POP JUMP JUMPDEST PUSH0 PUSH2 0x192F PUSH1 0x1F DUP4 PUSH2 0xF5A JUMP JUMPDEST SWAP2 POP PUSH2 0x193A DUP3 PUSH2 0x18FB JUMP JUMPDEST PUSH1 0x20 DUP3 ADD SWAP1 POP SWAP2 SWAP1 POP JUMP JUMPDEST PUSH0 PUSH1 0x20 DUP3 ADD SWAP1 POP DUP2 DUP2 SUB PUSH0 DUP4 ADD MSTORE PUSH2 0x195C DUP2 PUSH2 0x1923 JUMP JUMPDEST SWAP1 POP SWAP2 SWAP1 POP JUMP INVALID LOG2 PUSH5 0x6970667358 0x22 SLT KECCAK256 0xCD 0xEB DUP4 PUSH16 0x25E445D1B82624A4EC02D0ED76ECC714 0x29 0xEF RETURN 0xD6 0x5C DUP8 DUP13 PUSH18 0x380C44C264736F6C63430008160033000000 "
				},
				"gasEstimates": {
					"creation": {
						"codeDepositCost": "1310600",
						"executionCost": "infinite",
						"totalCost": "infinite"
					},
					"external": {
						"allowance(address,address)": "infinite",
						"approve(address,uint256)": "infinite",
						"balanceOf(address)": "2896",
						"buy_tokens()": "infinite",
						"decimals()": "405",
						"decreaseAllowance(address,uint256)": "infinite",
						"increaseAllowance(address,uint256)": "infinite",
						"mint(address,uint256)": "infinite",
						"name()": "infinite",
						"owner()": "2597",
						"symbol()": "infinite",
						"totalSupply()": "2500",
						"transfer(address,uint256)": "infinite",
						"transferFrom(address,address,uint256)": "infinite",
						"withdraw_funds(address,uint256)": "infinite"
					}
				},
				"methodIdentifiers": {
					"allowance(address,address)": "dd62ed3e",
					"approve(address,uint256)": "095ea7b3",
					"balanceOf(address)": "70a08231",
					"buy_tokens()": "469c62a6",
					"decimals()": "313ce567",
					"decreaseAllowance(address,uint256)": "a457c2d7",
					"increaseAllowance(address,uint256)": "39509351",
					"mint(address,uint256)": "40c10f19",
					"name()": "06fdde03",
					"owner()": "8da5cb5b",
					"symbol()": "95d89b41",
					"totalSupply()": "18160ddd",
					"transfer(address,uint256)": "a9059cbb",
					"transferFrom(address,address,uint256)": "23b872dd",
					"withdraw_funds(address,uint256)": "25f62784"
				}
			},
			"storageLayout": {
				"storage": [
					{
						"astId": 133,
						"contract": "backEnd/contracts/governance_token.sol:BUNN_UTILITY_TOKEN",
						"label": "_balances",
						"offset": 0,
						"slot": "0",
						"type": "t_mapping(t_address,t_uint256)"
					},
					{
						"astId": 139,
						"contract": "backEnd/contracts/governance_token.sol:BUNN_UTILITY_TOKEN",
						"label": "_allowances",
						"offset": 0,
						"slot": "1",
						"type": "t_mapping(t_address,t_mapping(t_address,t_uint256))"
					},
					{
						"astId": 141,
						"contract": "backEnd/contracts/governance_token.sol:BUNN_UTILITY_TOKEN",
						"label": "_totalSupply",
						"offset": 0,
						"slot": "2",
						"type": "t_uint256"
					},
					{
						"astId": 143,
						"contract": "backEnd/contracts/governance_token.sol:BUNN_UTILITY_TOKEN",
						"label": "_name",
						"offset": 0,
						"slot": "3",
						"type": "t_string_storage"
					},
					{
						"astId": 145,
						"contract": "backEnd/contracts/governance_token.sol:BUNN_UTILITY_TOKEN",
						"label": "_symbol",
						"offset": 0,
						"slot": "4",
						"type": "t_string_storage"
					},
					{
						"astId": 709,
						"contract": "backEnd/contracts/governance_token.sol:BUNN_UTILITY_TOKEN",
						"label": "MAX_SUPPLY",
						"offset": 0,
						"slot": "5",
						"type": "t_uint256"
					},
					{
						"astId": 711,
						"contract": "backEnd/contracts/governance_token.sol:BUNN_UTILITY_TOKEN",
						"label": "owner",
						"offset": 0,
						"slot": "6",
						"type": "t_address"
					}
				],
				"types": {
					"t_address": {
						"encoding": "inplace",
						"label": "address",
						"numberOfBytes": "20"
					},
					"t_mapping(t_address,t_mapping(t_address,t_uint256))": {
						"encoding": "mapping",
						"key": "t_address",
						"label": "mapping(address => mapping(address => uint256))",
						"numberOfBytes": "32",
						"value": "t_mapping(t_address,t_uint256)"
					},
					"t_mapping(t_address,t_uint256)": {
						"encoding": "mapping",
						"key": "t_address",
						"label": "mapping(address => uint256)",
						"numberOfBytes": "32",
						"value": "t_uint256"
					},
					"t_string_storage": {
						"encoding": "bytes",
						"label": "string",
						"numberOfBytes": "32"
					},
					"t_uint256": {
						"encoding": "inplace",
						"label": "uint256",
						"numberOfBytes": "32"
					}
				}
			},
			"userdoc": {
				"kind": "user",
				"methods": {},
				"version": 1
			}
		}
	}
}