{
	"backEnd/contracts/governance_token.sol": {
		"BUNN_DAO_test": {
			"abi": [
				{
					"inputs": [],
					"stateMutability": "nonpayable",
					"type": "constructor"
				},
				{
					"anonymous": false,
					"inputs": [
						{
							"indexed": true,
							"internalType": "address",
							"name": "owner",
							"type": "address"
						},
						{
							"indexed": true,
							"internalType": "address",
							"name": "spender",
							"type": "address"
						},
						{
							"indexed": false,
							"internalType": "uint256",
							"name": "value",
							"type": "uint256"
						}
					],
					"name": "Approval",
					"type": "event"
				},
				{
					"anonymous": false,
					"inputs": [
						{
							"indexed": true,
							"internalType": "address",
							"name": "from",
							"type": "address"
						},
						{
							"indexed": true,
							"internalType": "address",
							"name": "to",
							"type": "address"
						},
						{
							"indexed": false,
							"internalType": "uint256",
							"name": "value",
							"type": "uint256"
						}
					],
					"name": "Transfer",
					"type": "event"
				},
				{
					"inputs": [
						{
							"internalType": "address",
							"name": "owner",
							"type": "address"
						},
						{
							"internalType": "address",
							"name": "spender",
							"type": "address"
						}
					],
					"name": "allowance",
					"outputs": [
						{
							"internalType": "uint256",
							"name": "",
							"type": "uint256"
						}
					],
					"stateMutability": "view",
					"type": "function"
				},
				{
					"inputs": [
						{
							"internalType": "address",
							"name": "spender",
							"type": "address"
						},
						{
							"internalType": "uint256",
							"name": "amount",
							"type": "uint256"
						}
					],
					"name": "approve",
					"outputs": [
						{
							"internalType": "bool",
							"name": "",
							"type": "bool"
						}
					],
					"stateMutability": "nonpayable",
					"type": "function"
				},
				{
					"inputs": [
						{
							"internalType": "address",
							"name": "account",
							"type": "address"
						}
					],
					"name": "balanceOf",
					"outputs": [
						{
							"internalType": "uint256",
							"name": "",
							"type": "uint256"
						}
					],
					"stateMutability": "view",
					"type": "function"
				},
				{
					"inputs": [],
					"name": "decimals",
					"outputs": [
						{
							"internalType": "uint8",
							"name": "",
							"type": "uint8"
						}
					],
					"stateMutability": "view",
					"type": "function"
				},
				{
					"inputs": [
						{
							"internalType": "address",
							"name": "spender",
							"type": "address"
						},
						{
							"internalType": "uint256",
							"name": "subtractedValue",
							"type": "uint256"
						}
					],
					"name": "decreaseAllowance",
					"outputs": [
						{
							"internalType": "bool",
							"name": "",
							"type": "bool"
						}
					],
					"stateMutability": "nonpayable",
					"type": "function"
				},
				{
					"inputs": [
						{
							"internalType": "address",
							"name": "spender",
							"type": "address"
						},
						{
							"internalType": "uint256",
							"name": "addedValue",
							"type": "uint256"
						}
					],
					"name": "increaseAllowance",
					"outputs": [
						{
							"internalType": "bool",
							"name": "",
							"type": "bool"
						}
					],
					"stateMutability": "nonpayable",
					"type": "function"
				},
				{
					"inputs": [
						{
							"internalType": "address",
							"name": "account",
							"type": "address"
						},
						{
							"internalType": "uint256",
							"name": "amount",
							"type": "uint256"
						}
					],
					"name": "mint",
					"outputs": [],
					"stateMutability": "nonpayable",
					"type": "function"
				},
				{
					"inputs": [],
					"name": "name",
					"outputs": [
						{
							"internalType": "string",
							"name": "",
							"type": "string"
						}
					],
					"stateMutability": "view",
					"type": "function"
				},
				{
					"inputs": [],
					"name": "owner",
					"outputs": [
						{
							"internalType": "address",
							"name": "",
							"type": "address"
						}
					],
					"stateMutability": "view",
					"type": "function"
				},
				{
					"inputs": [],
					"name": "symbol",
					"outputs": [
						{
							"internalType": "string",
							"name": "",
							"type": "string"
						}
					],
					"stateMutability": "view",
					"type": "function"
				},
				{
					"inputs": [],
					"name": "totalSupply",
					"outputs": [
						{
							"internalType": "uint256",
							"name": "",
							"type": "uint256"
						}
					],
					"stateMutability": "view",
					"type": "function"
				},
				{
					"inputs": [
						{
							"internalType": "address",
							"name": "to",
							"type": "address"
						},
						{
							"internalType": "uint256",
							"name": "amount",
							"type": "uint256"
						}
					],
					"name": "transfer",
					"outputs": [
						{
							"internalType": "bool",
							"name": "",
							"type": "bool"
						}
					],
					"stateMutability": "nonpayable",
					"type": "function"
				},
				{
					"inputs": [
						{
							"internalType": "address",
							"name": "from",
							"type": "address"
						},
						{
							"internalType": "address",
							"name": "to",
							"type": "address"
						},
						{
							"internalType": "uint256",
							"name": "amount",
							"type": "uint256"
						}
					],
					"name": "transferFrom",
					"outputs": [
						{
							"internalType": "bool",
							"name": "",
							"type": "bool"
						}
					],
					"stateMutability": "nonpayable",
					"type": "function"
				}
			],
			"devdoc": {
				"events": {
					"Approval(address,address,uint256)": {
						"details": "Emitted when the allowance of a `spender` for an `owner` is set by a call to {approve}. `value` is the new allowance."
					},
					"Transfer(address,address,uint256)": {
						"details": "Emitted when `value` tokens are moved from one account (`from`) to another (`to`). Note that `value` may be zero."
					}
				},
				"kind": "dev",
				"methods": {
					"allowance(address,address)": {
						"details": "See {IERC20-allowance}."
					},
					"approve(address,uint256)": {
						"details": "See {IERC20-approve}. NOTE: If `amount` is the maximum `uint256`, the allowance is not updated on `transferFrom`. This is semantically equivalent to an infinite approval. Requirements: - `spender` cannot be the zero address."
					},
					"balanceOf(address)": {
						"details": "See {IERC20-balanceOf}."
					},
					"decimals()": {
						"details": "Returns the number of decimals used to get its user representation. For example, if `decimals` equals `2`, a balance of `505` tokens should be displayed to a user as `5.05` (`505 / 10 ** 2`). Tokens usually opt for a value of 18, imitating the relationship between Ether and Wei. This is the default value returned by this function, unless it's overridden. NOTE: This information is only used for _display_ purposes: it in no way affects any of the arithmetic of the contract, including {IERC20-balanceOf} and {IERC20-transfer}."
					},
					"decreaseAllowance(address,uint256)": {
						"details": "Atomically decreases the allowance granted to `spender` by the caller. This is an alternative to {approve} that can be used as a mitigation for problems described in {IERC20-approve}. Emits an {Approval} event indicating the updated allowance. Requirements: - `spender` cannot be the zero address. - `spender` must have allowance for the caller of at least `subtractedValue`."
					},
					"increaseAllowance(address,uint256)": {
						"details": "Atomically increases the allowance granted to `spender` by the caller. This is an alternative to {approve} that can be used as a mitigation for problems described in {IERC20-approve}. Emits an {Approval} event indicating the updated allowance. Requirements: - `spender` cannot be the zero address."
					},
					"name()": {
						"details": "Returns the name of the token."
					},
					"symbol()": {
						"details": "Returns the symbol of the token, usually a shorter version of the name."
					},
					"totalSupply()": {
						"details": "See {IERC20-totalSupply}."
					},
					"transfer(address,uint256)": {
						"details": "See {IERC20-transfer}. Requirements: - `to` cannot be the zero address. - the caller must have a balance of at least `amount`."
					},
					"transferFrom(address,address,uint256)": {
						"details": "See {IERC20-transferFrom}. Emits an {Approval} event indicating the updated allowance. This is not required by the EIP. See the note at the beginning of {ERC20}. NOTE: Does not update the allowance if the current allowance is the maximum `uint256`. Requirements: - `from` and `to` cannot be the zero address. - `from` must have a balance of at least `amount`. - the caller must have allowance for ``from``'s tokens of at least `amount`."
					}
				},
				"version": 1
			},
			"evm": {
				"assembly": "    /* \"backEnd/contracts/governance_token.sol\":17575:18325  contract BUNN_DAO_test is ERC20 {... */\n  mstore(0x40, 0x80)\n    /* \"backEnd/contracts/governance_token.sol\":17672:17805  constructor() ERC20(\"BUNN_DAO\", \"BDAO\") {... */\n  callvalue\n  dup1\n  iszero\n  tag_1\n  jumpi\n  0x00\n  dup1\n  revert\ntag_1:\n  pop\n    /* \"backEnd/contracts/governance_token.sol\":6572:6685  constructor(string memory name_, string memory symbol_) {... */\n  mload(0x40)\n  dup1\n  0x40\n  add\n  0x40\n  mstore\n  dup1\n  0x08\n  dup2\n  mstore\n  0x20\n  add\n  0x42554e4e5f44414f000000000000000000000000000000000000000000000000\n  dup2\n  mstore\n  pop\n  mload(0x40)\n  dup1\n  0x40\n  add\n  0x40\n  mstore\n  dup1\n  0x04\n  dup2\n  mstore\n  0x20\n  add\n  0x4244414f00000000000000000000000000000000000000000000000000000000\n  dup2\n  mstore\n  pop\n    /* \"backEnd/contracts/governance_token.sol\":6646:6651  name_ */\n  dup2\n    /* \"backEnd/contracts/governance_token.sol\":6638:6643  _name */\n  0x03\n    /* \"backEnd/contracts/governance_token.sol\":6638:6651  _name = name_ */\n  swap1\n  dup2\n  tag_5\n  swap2\n  swap1\n  tag_6\n  jump\t// in\ntag_5:\n  pop\n    /* \"backEnd/contracts/governance_token.sol\":6671:6678  symbol_ */\n  dup1\n    /* \"backEnd/contracts/governance_token.sol\":6661:6668  _symbol */\n  0x04\n    /* \"backEnd/contracts/governance_token.sol\":6661:6678  _symbol = symbol_ */\n  swap1\n  dup2\n  tag_7\n  swap2\n  swap1\n  tag_6\n  jump\t// in\ntag_7:\n  pop\n    /* \"backEnd/contracts/governance_token.sol\":6572:6685  constructor(string memory name_, string memory symbol_) {... */\n  pop\n  pop\n    /* \"backEnd/contracts/governance_token.sol\":17730:17740  msg.sender */\n  caller\n    /* \"backEnd/contracts/governance_token.sol\":17722:17727  owner */\n  0x06\n  0x00\n    /* \"backEnd/contracts/governance_token.sol\":17722:17740  owner = msg.sender */\n  0x0100\n  exp\n  dup2\n  sload\n  dup2\n  0xffffffffffffffffffffffffffffffffffffffff\n  mul\n  not\n  and\n  swap1\n  dup4\n  0xffffffffffffffffffffffffffffffffffffffff\n  and\n  mul\n  or\n  swap1\n  sstore\n  pop\n    /* \"backEnd/contracts/governance_token.sol\":17787:17797  decimals() */\n  tag_9\n    /* \"backEnd/contracts/governance_token.sol\":17787:17795  decimals */\n  shl(0x20, tag_10)\n    /* \"backEnd/contracts/governance_token.sol\":17787:17797  decimals() */\n  0x20\n  shr\n  jump\t// in\ntag_9:\n    /* \"backEnd/contracts/governance_token.sol\":17781:17783  10 */\n  0x0a\n    /* \"backEnd/contracts/governance_token.sol\":17781:17797  10 ** decimals() */\n  tag_11\n  swap2\n  swap1\n  tag_12\n  jump\t// in\ntag_11:\n    /* \"backEnd/contracts/governance_token.sol\":17763:17777  10_000_000_000 */\n  0x02540be400\n    /* \"backEnd/contracts/governance_token.sol\":17763:17798  10_000_000_000 * (10 ** decimals()) */\n  tag_13\n  swap2\n  swap1\n  tag_14\n  jump\t// in\ntag_13:\n    /* \"backEnd/contracts/governance_token.sol\":17750:17760  MAX_SUPPLY */\n  0x05\n    /* \"backEnd/contracts/governance_token.sol\":17750:17798  MAX_SUPPLY = 10_000_000_000 * (10 ** decimals()) */\n  dup2\n  swap1\n  sstore\n  pop\n    /* \"backEnd/contracts/governance_token.sol\":17575:18325  contract BUNN_DAO_test is ERC20 {... */\n  jump(tag_15)\n    /* \"backEnd/contracts/governance_token.sol\":7696:7787  function decimals() public view virtual override returns (uint8) {... */\ntag_10:\n    /* \"backEnd/contracts/governance_token.sol\":7754:7759  uint8 */\n  0x00\n    /* \"backEnd/contracts/governance_token.sol\":7778:7780  18 */\n  0x12\n    /* \"backEnd/contracts/governance_token.sol\":7771:7780  return 18 */\n  swap1\n  pop\n    /* \"backEnd/contracts/governance_token.sol\":7696:7787  function decimals() public view virtual override returns (uint8) {... */\n  swap1\n  jump\t// out\n    /* \"#utility.yul\":7:106   */\ntag_17:\n    /* \"#utility.yul\":59:65   */\n  0x00\n    /* \"#utility.yul\":93:98   */\n  dup2\n    /* \"#utility.yul\":87:99   */\n  mload\n    /* \"#utility.yul\":77:99   */\n  swap1\n  pop\n    /* \"#utility.yul\":7:106   */\n  swap2\n  swap1\n  pop\n  jump\t// out\n    /* \"#utility.yul\":112:292   */\ntag_18:\n    /* \"#utility.yul\":160:237   */\n  0x4e487b7100000000000000000000000000000000000000000000000000000000\n    /* \"#utility.yul\":157:158   */\n  0x00\n    /* \"#utility.yul\":150:238   */\n  mstore\n    /* \"#utility.yul\":257:261   */\n  0x41\n    /* \"#utility.yul\":254:255   */\n  0x04\n    /* \"#utility.yul\":247:262   */\n  mstore\n    /* \"#utility.yul\":281:285   */\n  0x24\n    /* \"#utility.yul\":278:279   */\n  0x00\n    /* \"#utility.yul\":271:286   */\n  revert\n    /* \"#utility.yul\":298:478   */\ntag_19:\n    /* \"#utility.yul\":346:423   */\n  0x4e487b7100000000000000000000000000000000000000000000000000000000\n    /* \"#utility.yul\":343:344   */\n  0x00\n    /* \"#utility.yul\":336:424   */\n  mstore\n    /* \"#utility.yul\":443:447   */\n  0x22\n    /* \"#utility.yul\":440:441   */\n  0x04\n    /* \"#utility.yul\":433:448   */\n  mstore\n    /* \"#utility.yul\":467:471   */\n  0x24\n    /* \"#utility.yul\":464:465   */\n  0x00\n    /* \"#utility.yul\":457:472   */\n  revert\n    /* \"#utility.yul\":484:804   */\ntag_20:\n    /* \"#utility.yul\":528:534   */\n  0x00\n    /* \"#utility.yul\":565:566   */\n  0x02\n    /* \"#utility.yul\":559:563   */\n  dup3\n    /* \"#utility.yul\":555:567   */\n  div\n    /* \"#utility.yul\":545:567   */\n  swap1\n  pop\n    /* \"#utility.yul\":612:613   */\n  0x01\n    /* \"#utility.yul\":606:610   */\n  dup3\n    /* \"#utility.yul\":602:614   */\n  and\n    /* \"#utility.yul\":633:651   */\n  dup1\n    /* \"#utility.yul\":623:704   */\n  tag_47\n  jumpi\n    /* \"#utility.yul\":689:693   */\n  0x7f\n    /* \"#utility.yul\":681:687   */\n  dup3\n    /* \"#utility.yul\":677:694   */\n  and\n    /* \"#utility.yul\":667:694   */\n  swap2\n  pop\n    /* \"#utility.yul\":623:704   */\ntag_47:\n    /* \"#utility.yul\":751:753   */\n  0x20\n    /* \"#utility.yul\":743:749   */\n  dup3\n    /* \"#utility.yul\":740:754   */\n  lt\n    /* \"#utility.yul\":720:738   */\n  dup2\n    /* \"#utility.yul\":717:755   */\n  sub\n    /* \"#utility.yul\":714:798   */\n  tag_48\n  jumpi\n    /* \"#utility.yul\":770:788   */\n  tag_49\n  tag_19\n  jump\t// in\ntag_49:\n    /* \"#utility.yul\":714:798   */\ntag_48:\n    /* \"#utility.yul\":535:804   */\n  pop\n    /* \"#utility.yul\":484:804   */\n  swap2\n  swap1\n  pop\n  jump\t// out\n    /* \"#utility.yul\":810:951   */\ntag_21:\n    /* \"#utility.yul\":859:863   */\n  0x00\n    /* \"#utility.yul\":882:885   */\n  dup2\n    /* \"#utility.yul\":874:885   */\n  swap1\n  pop\n    /* \"#utility.yul\":905:908   */\n  dup2\n    /* \"#utility.yul\":902:903   */\n  0x00\n    /* \"#utility.yul\":895:909   */\n  mstore\n    /* \"#utility.yul\":939:943   */\n  0x20\n    /* \"#utility.yul\":936:937   */\n  0x00\n    /* \"#utility.yul\":926:944   */\n  keccak256\n    /* \"#utility.yul\":918:944   */\n  swap1\n  pop\n    /* \"#utility.yul\":810:951   */\n  swap2\n  swap1\n  pop\n  jump\t// out\n    /* \"#utility.yul\":957:1050   */\ntag_22:\n    /* \"#utility.yul\":994:1000   */\n  0x00\n    /* \"#utility.yul\":1041:1043   */\n  0x20\n    /* \"#utility.yul\":1036:1038   */\n  0x1f\n    /* \"#utility.yul\":1029:1034   */\n  dup4\n    /* \"#utility.yul\":1025:1039   */\n  add\n    /* \"#utility.yul\":1021:1044   */\n  div\n    /* \"#utility.yul\":1011:1044   */\n  swap1\n  pop\n    /* \"#utility.yul\":957:1050   */\n  swap2\n  swap1\n  pop\n  jump\t// out\n    /* \"#utility.yul\":1056:1163   */\ntag_23:\n    /* \"#utility.yul\":1100:1108   */\n  0x00\n    /* \"#utility.yul\":1150:1155   */\n  dup3\n    /* \"#utility.yul\":1144:1148   */\n  dup3\n    /* \"#utility.yul\":1140:1156   */\n  shl\n    /* \"#utility.yul\":1119:1156   */\n  swap1\n  pop\n    /* \"#utility.yul\":1056:1163   */\n  swap3\n  swap2\n  pop\n  pop\n  jump\t// out\n    /* \"#utility.yul\":1169:1562   */\ntag_24:\n    /* \"#utility.yul\":1238:1244   */\n  0x00\n    /* \"#utility.yul\":1288:1289   */\n  0x08\n    /* \"#utility.yul\":1276:1286   */\n  dup4\n    /* \"#utility.yul\":1272:1290   */\n  mul\n    /* \"#utility.yul\":1311:1408   */\n  tag_54\n    /* \"#utility.yul\":1341:1407   */\n  0xffffffffffffffffffffffffffffffffffffffffffffffffffffffffffffffff\n    /* \"#utility.yul\":1330:1339   */\n  dup3\n    /* \"#utility.yul\":1311:1408   */\n  tag_23\n  jump\t// in\ntag_54:\n    /* \"#utility.yul\":1429:1468   */\n  tag_55\n    /* \"#utility.yul\":1459:1467   */\n  dup7\n    /* \"#utility.yul\":1448:1457   */\n  dup4\n    /* \"#utility.yul\":1429:1468   */\n  tag_23\n  jump\t// in\ntag_55:\n    /* \"#utility.yul\":1417:1468   */\n  swap6\n  pop\n    /* \"#utility.yul\":1501:1505   */\n  dup1\n    /* \"#utility.yul\":1497:1506   */\n  not\n    /* \"#utility.yul\":1490:1495   */\n  dup5\n    /* \"#utility.yul\":1486:1507   */\n  and\n    /* \"#utility.yul\":1477:1507   */\n  swap4\n  pop\n    /* \"#utility.yul\":1550:1554   */\n  dup1\n    /* \"#utility.yul\":1540:1548   */\n  dup7\n    /* \"#utility.yul\":1536:1555   */\n  and\n    /* \"#utility.yul\":1529:1534   */\n  dup5\n    /* \"#utility.yul\":1526:1556   */\n  or\n    /* \"#utility.yul\":1516:1556   */\n  swap3\n  pop\n    /* \"#utility.yul\":1245:1562   */\n  pop\n  pop\n    /* \"#utility.yul\":1169:1562   */\n  swap4\n  swap3\n  pop\n  pop\n  pop\n  jump\t// out\n    /* \"#utility.yul\":1568:1645   */\ntag_25:\n    /* \"#utility.yul\":1605:1612   */\n  0x00\n    /* \"#utility.yul\":1634:1639   */\n  dup2\n    /* \"#utility.yul\":1623:1639   */\n  swap1\n  pop\n    /* \"#utility.yul\":1568:1645   */\n  swap2\n  swap1\n  pop\n  jump\t// out\n    /* \"#utility.yul\":1651:1711   */\ntag_26:\n    /* \"#utility.yul\":1679:1682   */\n  0x00\n    /* \"#utility.yul\":1700:1705   */\n  dup2\n    /* \"#utility.yul\":1693:1705   */\n  swap1\n  pop\n    /* \"#utility.yul\":1651:1711   */\n  swap2\n  swap1\n  pop\n  jump\t// out\n    /* \"#utility.yul\":1717:1859   */\ntag_27:\n    /* \"#utility.yul\":1767:1776   */\n  0x00\n    /* \"#utility.yul\":1800:1853   */\n  tag_59\n    /* \"#utility.yul\":1818:1852   */\n  tag_60\n    /* \"#utility.yul\":1827:1851   */\n  tag_61\n    /* \"#utility.yul\":1845:1850   */\n  dup5\n    /* \"#utility.yul\":1827:1851   */\n  tag_25\n  jump\t// in\ntag_61:\n    /* \"#utility.yul\":1818:1852   */\n  tag_26\n  jump\t// in\ntag_60:\n    /* \"#utility.yul\":1800:1853   */\n  tag_25\n  jump\t// in\ntag_59:\n    /* \"#utility.yul\":1787:1853   */\n  swap1\n  pop\n    /* \"#utility.yul\":1717:1859   */\n  swap2\n  swap1\n  pop\n  jump\t// out\n    /* \"#utility.yul\":1865:1940   */\ntag_28:\n    /* \"#utility.yul\":1908:1911   */\n  0x00\n    /* \"#utility.yul\":1929:1934   */\n  dup2\n    /* \"#utility.yul\":1922:1934   */\n  swap1\n  pop\n    /* \"#utility.yul\":1865:1940   */\n  swap2\n  swap1\n  pop\n  jump\t// out\n    /* \"#utility.yul\":1946:2215   */\ntag_29:\n    /* \"#utility.yul\":2056:2095   */\n  tag_64\n    /* \"#utility.yul\":2087:2094   */\n  dup4\n    /* \"#utility.yul\":2056:2095   */\n  tag_27\n  jump\t// in\ntag_64:\n    /* \"#utility.yul\":2117:2208   */\n  tag_65\n    /* \"#utility.yul\":2166:2207   */\n  tag_66\n    /* \"#utility.yul\":2190:2206   */\n  dup3\n    /* \"#utility.yul\":2166:2207   */\n  tag_28\n  jump\t// in\ntag_66:\n    /* \"#utility.yul\":2158:2164   */\n  dup5\n    /* \"#utility.yul\":2151:2155   */\n  dup5\n    /* \"#utility.yul\":2145:2156   */\n  sload\n    /* \"#utility.yul\":2117:2208   */\n  tag_24\n  jump\t// in\ntag_65:\n    /* \"#utility.yul\":2111:2115   */\n  dup3\n    /* \"#utility.yul\":2104:2209   */\n  sstore\n    /* \"#utility.yul\":2022:2215   */\n  pop\n    /* \"#utility.yul\":1946:2215   */\n  pop\n  pop\n  pop\n  jump\t// out\n    /* \"#utility.yul\":2221:2294   */\ntag_30:\n    /* \"#utility.yul\":2266:2269   */\n  0x00\n    /* \"#utility.yul\":2221:2294   */\n  swap1\n  jump\t// out\n    /* \"#utility.yul\":2300:2489   */\ntag_31:\n    /* \"#utility.yul\":2377:2409   */\n  tag_69\n  tag_30\n  jump\t// in\ntag_69:\n    /* \"#utility.yul\":2418:2483   */\n  tag_70\n    /* \"#utility.yul\":2476:2482   */\n  dup2\n    /* \"#utility.yul\":2468:2474   */\n  dup5\n    /* \"#utility.yul\":2462:2466   */\n  dup5\n    /* \"#utility.yul\":2418:2483   */\n  tag_29\n  jump\t// in\ntag_70:\n    /* \"#utility.yul\":2353:2489   */\n  pop\n    /* \"#utility.yul\":2300:2489   */\n  pop\n  pop\n  jump\t// out\n    /* \"#utility.yul\":2495:2681   */\ntag_32:\n    /* \"#utility.yul\":2555:2675   */\ntag_72:\n    /* \"#utility.yul\":2572:2575   */\n  dup2\n    /* \"#utility.yul\":2565:2570   */\n  dup2\n    /* \"#utility.yul\":2562:2576   */\n  lt\n    /* \"#utility.yul\":2555:2675   */\n  iszero\n  tag_74\n  jumpi\n    /* \"#utility.yul\":2626:2665   */\n  tag_75\n    /* \"#utility.yul\":2663:2664   */\n  0x00\n    /* \"#utility.yul\":2656:2661   */\n  dup3\n    /* \"#utility.yul\":2626:2665   */\n  tag_31\n  jump\t// in\ntag_75:\n    /* \"#utility.yul\":2599:2600   */\n  0x01\n    /* \"#utility.yul\":2592:2597   */\n  dup2\n    /* \"#utility.yul\":2588:2601   */\n  add\n    /* \"#utility.yul\":2579:2601   */\n  swap1\n  pop\n    /* \"#utility.yul\":2555:2675   */\n  jump(tag_72)\ntag_74:\n    /* \"#utility.yul\":2495:2681   */\n  pop\n  pop\n  jump\t// out\n    /* \"#utility.yul\":2687:3230   */\ntag_33:\n    /* \"#utility.yul\":2788:2790   */\n  0x1f\n    /* \"#utility.yul\":2783:2786   */\n  dup3\n    /* \"#utility.yul\":2780:2791   */\n  gt\n    /* \"#utility.yul\":2777:3223   */\n  iszero\n  tag_77\n  jumpi\n    /* \"#utility.yul\":2822:2860   */\n  tag_78\n    /* \"#utility.yul\":2854:2859   */\n  dup2\n    /* \"#utility.yul\":2822:2860   */\n  tag_21\n  jump\t// in\ntag_78:\n    /* \"#utility.yul\":2906:2935   */\n  tag_79\n    /* \"#utility.yul\":2924:2934   */\n  dup5\n    /* \"#utility.yul\":2906:2935   */\n  tag_22\n  jump\t// in\ntag_79:\n    /* \"#utility.yul\":2896:2904   */\n  dup2\n    /* \"#utility.yul\":2892:2936   */\n  add\n    /* \"#utility.yul\":3089:3091   */\n  0x20\n    /* \"#utility.yul\":3077:3087   */\n  dup6\n    /* \"#utility.yul\":3074:3092   */\n  lt\n    /* \"#utility.yul\":3071:3120   */\n  iszero\n  tag_80\n  jumpi\n    /* \"#utility.yul\":3110:3118   */\n  dup2\n    /* \"#utility.yul\":3095:3118   */\n  swap1\n  pop\n    /* \"#utility.yul\":3071:3120   */\ntag_80:\n    /* \"#utility.yul\":3133:3213   */\n  tag_81\n    /* \"#utility.yul\":3189:3211   */\n  tag_82\n    /* \"#utility.yul\":3207:3210   */\n  dup6\n    /* \"#utility.yul\":3189:3211   */\n  tag_22\n  jump\t// in\ntag_82:\n    /* \"#utility.yul\":3179:3187   */\n  dup4\n    /* \"#utility.yul\":3175:3212   */\n  add\n    /* \"#utility.yul\":3162:3173   */\n  dup3\n    /* \"#utility.yul\":3133:3213   */\n  tag_32\n  jump\t// in\ntag_81:\n    /* \"#utility.yul\":2792:3223   */\n  pop\n  pop\n    /* \"#utility.yul\":2777:3223   */\ntag_77:\n    /* \"#utility.yul\":2687:3230   */\n  pop\n  pop\n  pop\n  jump\t// out\n    /* \"#utility.yul\":3236:3353   */\ntag_34:\n    /* \"#utility.yul\":3290:3298   */\n  0x00\n    /* \"#utility.yul\":3340:3345   */\n  dup3\n    /* \"#utility.yul\":3334:3338   */\n  dup3\n    /* \"#utility.yul\":3330:3346   */\n  shr\n    /* \"#utility.yul\":3309:3346   */\n  swap1\n  pop\n    /* \"#utility.yul\":3236:3353   */\n  swap3\n  swap2\n  pop\n  pop\n  jump\t// out\n    /* \"#utility.yul\":3359:3528   */\ntag_35:\n    /* \"#utility.yul\":3403:3409   */\n  0x00\n    /* \"#utility.yul\":3436:3487   */\n  tag_85\n    /* \"#utility.yul\":3484:3485   */\n  0x00\n    /* \"#utility.yul\":3480:3486   */\n  not\n    /* \"#utility.yul\":3472:3477   */\n  dup5\n    /* \"#utility.yul\":3469:3470   */\n  0x08\n    /* \"#utility.yul\":3465:3478   */\n  mul\n    /* \"#utility.yul\":3436:3487   */\n  tag_34\n  jump\t// in\ntag_85:\n    /* \"#utility.yul\":3432:3488   */\n  not\n    /* \"#utility.yul\":3517:3521   */\n  dup1\n    /* \"#utility.yul\":3511:3515   */\n  dup4\n    /* \"#utility.yul\":3507:3522   */\n  and\n    /* \"#utility.yul\":3497:3522   */\n  swap2\n  pop\n    /* \"#utility.yul\":3410:3528   */\n  pop\n    /* \"#utility.yul\":3359:3528   */\n  swap3\n  swap2\n  pop\n  pop\n  jump\t// out\n    /* \"#utility.yul\":3533:3828   */\ntag_36:\n    /* \"#utility.yul\":3609:3613   */\n  0x00\n    /* \"#utility.yul\":3755:3784   */\n  tag_87\n    /* \"#utility.yul\":3780:3783   */\n  dup4\n    /* \"#utility.yul\":3774:3778   */\n  dup4\n    /* \"#utility.yul\":3755:3784   */\n  tag_35\n  jump\t// in\ntag_87:\n    /* \"#utility.yul\":3747:3784   */\n  swap2\n  pop\n    /* \"#utility.yul\":3817:3820   */\n  dup3\n    /* \"#utility.yul\":3814:3815   */\n  0x02\n    /* \"#utility.yul\":3810:3821   */\n  mul\n    /* \"#utility.yul\":3804:3808   */\n  dup3\n    /* \"#utility.yul\":3801:3822   */\n  or\n    /* \"#utility.yul\":3793:3822   */\n  swap1\n  pop\n    /* \"#utility.yul\":3533:3828   */\n  swap3\n  swap2\n  pop\n  pop\n  jump\t// out\n    /* \"#utility.yul\":3833:5228   */\ntag_6:\n    /* \"#utility.yul\":3950:3987   */\n  tag_89\n    /* \"#utility.yul\":3983:3986   */\n  dup3\n    /* \"#utility.yul\":3950:3987   */\n  tag_17\n  jump\t// in\ntag_89:\n    /* \"#utility.yul\":4052:4070   */\n  0xffffffffffffffff\n    /* \"#utility.yul\":4044:4050   */\n  dup2\n    /* \"#utility.yul\":4041:4071   */\n  gt\n    /* \"#utility.yul\":4038:4094   */\n  iszero\n  tag_90\n  jumpi\n    /* \"#utility.yul\":4074:4092   */\n  tag_91\n  tag_18\n  jump\t// in\ntag_91:\n    /* \"#utility.yul\":4038:4094   */\ntag_90:\n    /* \"#utility.yul\":4118:4156   */\n  tag_92\n    /* \"#utility.yul\":4150:4154   */\n  dup3\n    /* \"#utility.yul\":4144:4155   */\n  sload\n    /* \"#utility.yul\":4118:4156   */\n  tag_20\n  jump\t// in\ntag_92:\n    /* \"#utility.yul\":4203:4270   */\n  tag_93\n    /* \"#utility.yul\":4263:4269   */\n  dup3\n    /* \"#utility.yul\":4255:4261   */\n  dup3\n    /* \"#utility.yul\":4249:4253   */\n  dup6\n    /* \"#utility.yul\":4203:4270   */\n  tag_33\n  jump\t// in\ntag_93:\n    /* \"#utility.yul\":4297:4298   */\n  0x00\n    /* \"#utility.yul\":4321:4325   */\n  0x20\n    /* \"#utility.yul\":4308:4325   */\n  swap1\n  pop\n    /* \"#utility.yul\":4353:4355   */\n  0x1f\n    /* \"#utility.yul\":4345:4351   */\n  dup4\n    /* \"#utility.yul\":4342:4356   */\n  gt\n    /* \"#utility.yul\":4370:4371   */\n  0x01\n    /* \"#utility.yul\":4365:4983   */\n  dup2\n  eq\n  tag_95\n  jumpi\n    /* \"#utility.yul\":5027:5028   */\n  0x00\n    /* \"#utility.yul\":5044:5050   */\n  dup5\n    /* \"#utility.yul\":5041:5118   */\n  iszero\n  tag_96\n  jumpi\n    /* \"#utility.yul\":5093:5102   */\n  dup3\n    /* \"#utility.yul\":5088:5091   */\n  dup8\n    /* \"#utility.yul\":5084:5103   */\n  add\n    /* \"#utility.yul\":5078:5104   */\n  mload\n    /* \"#utility.yul\":5069:5104   */\n  swap1\n  pop\n    /* \"#utility.yul\":5041:5118   */\ntag_96:\n    /* \"#utility.yul\":5144:5211   */\n  tag_97\n    /* \"#utility.yul\":5204:5210   */\n  dup6\n    /* \"#utility.yul\":5197:5202   */\n  dup3\n    /* \"#utility.yul\":5144:5211   */\n  tag_36\n  jump\t// in\ntag_97:\n    /* \"#utility.yul\":5138:5142   */\n  dup7\n    /* \"#utility.yul\":5131:5212   */\n  sstore\n    /* \"#utility.yul\":5000:5222   */\n  pop\n    /* \"#utility.yul\":4335:5222   */\n  jump(tag_94)\n    /* \"#utility.yul\":4365:4983   */\ntag_95:\n    /* \"#utility.yul\":4417:4421   */\n  0x1f\n    /* \"#utility.yul\":4413:4422   */\n  not\n    /* \"#utility.yul\":4405:4411   */\n  dup5\n    /* \"#utility.yul\":4401:4423   */\n  and\n    /* \"#utility.yul\":4451:4488   */\n  tag_98\n    /* \"#utility.yul\":4483:4487   */\n  dup7\n    /* \"#utility.yul\":4451:4488   */\n  tag_21\n  jump\t// in\ntag_98:\n    /* \"#utility.yul\":4510:4511   */\n  0x00\n    /* \"#utility.yul\":4524:4732   */\ntag_99:\n    /* \"#utility.yul\":4538:4545   */\n  dup3\n    /* \"#utility.yul\":4535:4536   */\n  dup2\n    /* \"#utility.yul\":4532:4546   */\n  lt\n    /* \"#utility.yul\":4524:4732   */\n  iszero\n  tag_101\n  jumpi\n    /* \"#utility.yul\":4617:4626   */\n  dup5\n    /* \"#utility.yul\":4612:4615   */\n  dup10\n    /* \"#utility.yul\":4608:4627   */\n  add\n    /* \"#utility.yul\":4602:4628   */\n  mload\n    /* \"#utility.yul\":4594:4600   */\n  dup3\n    /* \"#utility.yul\":4587:4629   */\n  sstore\n    /* \"#utility.yul\":4668:4669   */\n  0x01\n    /* \"#utility.yul\":4660:4666   */\n  dup3\n    /* \"#utility.yul\":4656:4670   */\n  add\n    /* \"#utility.yul\":4646:4670   */\n  swap2\n  pop\n    /* \"#utility.yul\":4715:4717   */\n  0x20\n    /* \"#utility.yul\":4704:4713   */\n  dup6\n    /* \"#utility.yul\":4700:4718   */\n  add\n    /* \"#utility.yul\":4687:4718   */\n  swap5\n  pop\n    /* \"#utility.yul\":4561:4565   */\n  0x20\n    /* \"#utility.yul\":4558:4559   */\n  dup2\n    /* \"#utility.yul\":4554:4566   */\n  add\n    /* \"#utility.yul\":4549:4566   */\n  swap1\n  pop\n    /* \"#utility.yul\":4524:4732   */\n  jump(tag_99)\ntag_101:\n    /* \"#utility.yul\":4760:4766   */\n  dup7\n    /* \"#utility.yul\":4751:4758   */\n  dup4\n    /* \"#utility.yul\":4748:4767   */\n  lt\n    /* \"#utility.yul\":4745:4924   */\n  iszero\n  tag_102\n  jumpi\n    /* \"#utility.yul\":4818:4827   */\n  dup5\n    /* \"#utility.yul\":4813:4816   */\n  dup10\n    /* \"#utility.yul\":4809:4828   */\n  add\n    /* \"#utility.yul\":4803:4829   */\n  mload\n    /* \"#utility.yul\":4861:4909   */\n  tag_103\n    /* \"#utility.yul\":4903:4907   */\n  0x1f\n    /* \"#utility.yul\":4895:4901   */\n  dup10\n    /* \"#utility.yul\":4891:4908   */\n  and\n    /* \"#utility.yul\":4880:4889   */\n  dup3\n    /* \"#utility.yul\":4861:4909   */\n  tag_35\n  jump\t// in\ntag_103:\n    /* \"#utility.yul\":4853:4859   */\n  dup4\n    /* \"#utility.yul\":4846:4910   */\n  sstore\n    /* \"#utility.yul\":4768:4924   */\n  pop\n    /* \"#utility.yul\":4745:4924   */\ntag_102:\n    /* \"#utility.yul\":4970:4971   */\n  0x01\n    /* \"#utility.yul\":4966:4967   */\n  0x02\n    /* \"#utility.yul\":4958:4964   */\n  dup9\n    /* \"#utility.yul\":4954:4968   */\n  mul\n    /* \"#utility.yul\":4950:4972   */\n  add\n    /* \"#utility.yul\":4944:4948   */\n  dup9\n    /* \"#utility.yul\":4937:4973   */\n  sstore\n    /* \"#utility.yul\":4372:4983   */\n  pop\n  pop\n  pop\n    /* \"#utility.yul\":4335:5222   */\ntag_94:\n  pop\n    /* \"#utility.yul\":3925:5228   */\n  pop\n  pop\n  pop\n    /* \"#utility.yul\":3833:5228   */\n  pop\n  pop\n  jump\t// out\n    /* \"#utility.yul\":5234:5414   */\ntag_37:\n    /* \"#utility.yul\":5282:5359   */\n  0x4e487b7100000000000000000000000000000000000000000000000000000000\n    /* \"#utility.yul\":5279:5280   */\n  0x00\n    /* \"#utility.yul\":5272:5360   */\n  mstore\n    /* \"#utility.yul\":5379:5383   */\n  0x11\n    /* \"#utility.yul\":5376:5377   */\n  0x04\n    /* \"#utility.yul\":5369:5384   */\n  mstore\n    /* \"#utility.yul\":5403:5407   */\n  0x24\n    /* \"#utility.yul\":5400:5401   */\n  0x00\n    /* \"#utility.yul\":5393:5408   */\n  revert\n    /* \"#utility.yul\":5420:5522   */\ntag_38:\n    /* \"#utility.yul\":5462:5470   */\n  0x00\n    /* \"#utility.yul\":5509:5514   */\n  dup2\n    /* \"#utility.yul\":5506:5507   */\n  0x01\n    /* \"#utility.yul\":5502:5515   */\n  shr\n    /* \"#utility.yul\":5481:5515   */\n  swap1\n  pop\n    /* \"#utility.yul\":5420:5522   */\n  swap2\n  swap1\n  pop\n  jump\t// out\n    /* \"#utility.yul\":5528:6376   */\ntag_39:\n    /* \"#utility.yul\":5589:5594   */\n  0x00\n    /* \"#utility.yul\":5596:5600   */\n  dup1\n    /* \"#utility.yul\":5620:5626   */\n  dup3\n    /* \"#utility.yul\":5611:5626   */\n  swap2\n  pop\n    /* \"#utility.yul\":5644:5649   */\n  dup4\n    /* \"#utility.yul\":5635:5649   */\n  swap1\n  pop\n    /* \"#utility.yul\":5658:6370   */\ntag_107:\n    /* \"#utility.yul\":5679:5680   */\n  0x01\n    /* \"#utility.yul\":5669:5677   */\n  dup6\n    /* \"#utility.yul\":5666:5681   */\n  gt\n    /* \"#utility.yul\":5658:6370   */\n  iszero\n  tag_109\n  jumpi\n    /* \"#utility.yul\":5774:5778   */\n  dup1\n    /* \"#utility.yul\":5769:5772   */\n  dup7\n    /* \"#utility.yul\":5765:5779   */\n  div\n    /* \"#utility.yul\":5759:5763   */\n  dup2\n    /* \"#utility.yul\":5756:5780   */\n  gt\n    /* \"#utility.yul\":5753:5803   */\n  iszero\n  tag_110\n  jumpi\n    /* \"#utility.yul\":5783:5801   */\n  tag_111\n  tag_37\n  jump\t// in\ntag_111:\n    /* \"#utility.yul\":5753:5803   */\ntag_110:\n    /* \"#utility.yul\":5833:5834   */\n  0x01\n    /* \"#utility.yul\":5823:5831   */\n  dup6\n    /* \"#utility.yul\":5819:5835   */\n  and\n    /* \"#utility.yul\":5816:6267   */\n  iszero\n  tag_112\n  jumpi\n    /* \"#utility.yul\":6248:6252   */\n  dup1\n    /* \"#utility.yul\":6241:6246   */\n  dup3\n    /* \"#utility.yul\":6237:6253   */\n  mul\n    /* \"#utility.yul\":6228:6253   */\n  swap2\n  pop\n    /* \"#utility.yul\":5816:6267   */\ntag_112:\n    /* \"#utility.yul\":6298:6302   */\n  dup1\n    /* \"#utility.yul\":6292:6296   */\n  dup2\n    /* \"#utility.yul\":6288:6303   */\n  mul\n    /* \"#utility.yul\":6280:6303   */\n  swap1\n  pop\n    /* \"#utility.yul\":6328:6360   */\n  tag_113\n    /* \"#utility.yul\":6351:6359   */\n  dup6\n    /* \"#utility.yul\":6328:6360   */\n  tag_38\n  jump\t// in\ntag_113:\n    /* \"#utility.yul\":6316:6360   */\n  swap5\n  pop\n    /* \"#utility.yul\":5658:6370   */\n  jump(tag_107)\ntag_109:\n    /* \"#utility.yul\":5528:6376   */\n  swap5\n  pop\n  swap5\n  swap3\n  pop\n  pop\n  pop\n  jump\t// out\n    /* \"#utility.yul\":6382:7455   */\ntag_40:\n    /* \"#utility.yul\":6436:6441   */\n  0x00\n    /* \"#utility.yul\":6627:6635   */\n  dup3\n    /* \"#utility.yul\":6617:6657   */\n  tag_115\n  jumpi\n    /* \"#utility.yul\":6648:6649   */\n  0x01\n    /* \"#utility.yul\":6639:6649   */\n  swap1\n  pop\n    /* \"#utility.yul\":6650:6655   */\n  jump(tag_114)\n    /* \"#utility.yul\":6617:6657   */\ntag_115:\n    /* \"#utility.yul\":6676:6680   */\n  dup2\n    /* \"#utility.yul\":6666:6702   */\n  tag_116\n  jumpi\n    /* \"#utility.yul\":6693:6694   */\n  0x00\n    /* \"#utility.yul\":6684:6694   */\n  swap1\n  pop\n    /* \"#utility.yul\":6695:6700   */\n  jump(tag_114)\n    /* \"#utility.yul\":6666:6702   */\ntag_116:\n    /* \"#utility.yul\":6762:6766   */\n  dup2\n    /* \"#utility.yul\":6810:6811   */\n  0x01\n    /* \"#utility.yul\":6805:6832   */\n  dup2\n  eq\n  tag_118\n  jumpi\n    /* \"#utility.yul\":6846:6847   */\n  0x02\n    /* \"#utility.yul\":6841:7032   */\n  dup2\n  eq\n  tag_119\n  jumpi\n    /* \"#utility.yul\":6755:7032   */\n  jump(tag_117)\n    /* \"#utility.yul\":6805:6832   */\ntag_118:\n    /* \"#utility.yul\":6823:6824   */\n  0x01\n    /* \"#utility.yul\":6814:6824   */\n  swap2\n  pop\n    /* \"#utility.yul\":6825:6830   */\n  pop\n  jump(tag_114)\n    /* \"#utility.yul\":6841:7032   */\ntag_119:\n    /* \"#utility.yul\":6886:6889   */\n  0xff\n    /* \"#utility.yul\":6876:6884   */\n  dup5\n    /* \"#utility.yul\":6873:6890   */\n  gt\n    /* \"#utility.yul\":6870:6913   */\n  iszero\n  tag_120\n  jumpi\n    /* \"#utility.yul\":6893:6911   */\n  tag_121\n  tag_37\n  jump\t// in\ntag_121:\n    /* \"#utility.yul\":6870:6913   */\ntag_120:\n    /* \"#utility.yul\":6942:6950   */\n  dup4\n    /* \"#utility.yul\":6939:6940   */\n  0x02\n    /* \"#utility.yul\":6935:6951   */\n  exp\n    /* \"#utility.yul\":6926:6951   */\n  swap2\n  pop\n    /* \"#utility.yul\":6977:6980   */\n  dup5\n    /* \"#utility.yul\":6970:6975   */\n  dup3\n    /* \"#utility.yul\":6967:6981   */\n  gt\n    /* \"#utility.yul\":6964:7004   */\n  iszero\n  tag_122\n  jumpi\n    /* \"#utility.yul\":6984:7002   */\n  tag_123\n  tag_37\n  jump\t// in\ntag_123:\n    /* \"#utility.yul\":6964:7004   */\ntag_122:\n    /* \"#utility.yul\":7017:7022   */\n  pop\n  jump(tag_114)\n    /* \"#utility.yul\":6755:7032   */\ntag_117:\n  pop\n    /* \"#utility.yul\":7141:7143   */\n  0x20\n    /* \"#utility.yul\":7131:7139   */\n  dup4\n    /* \"#utility.yul\":7128:7144   */\n  lt\n    /* \"#utility.yul\":7122:7125   */\n  0x0133\n    /* \"#utility.yul\":7116:7120   */\n  dup4\n    /* \"#utility.yul\":7113:7126   */\n  lt\n    /* \"#utility.yul\":7109:7145   */\n  and\n    /* \"#utility.yul\":7091:7093   */\n  0x4e\n    /* \"#utility.yul\":7081:7089   */\n  dup5\n    /* \"#utility.yul\":7078:7094   */\n  lt\n    /* \"#utility.yul\":7073:7075   */\n  0x0b\n    /* \"#utility.yul\":7067:7071   */\n  dup5\n    /* \"#utility.yul\":7064:7076   */\n  lt\n    /* \"#utility.yul\":7060:7095   */\n  and\n    /* \"#utility.yul\":7044:7155   */\n  or\n    /* \"#utility.yul\":7041:7287   */\n  iszero\n  tag_124\n  jumpi\n    /* \"#utility.yul\":7197:7205   */\n  dup3\n    /* \"#utility.yul\":7191:7195   */\n  dup3\n    /* \"#utility.yul\":7187:7206   */\n  exp\n    /* \"#utility.yul\":7178:7206   */\n  swap1\n  pop\n    /* \"#utility.yul\":7232:7235   */\n  dup4\n    /* \"#utility.yul\":7225:7230   */\n  dup2\n    /* \"#utility.yul\":7222:7236   */\n  gt\n    /* \"#utility.yul\":7219:7259   */\n  iszero\n  tag_125\n  jumpi\n    /* \"#utility.yul\":7239:7257   */\n  tag_126\n  tag_37\n  jump\t// in\ntag_126:\n    /* \"#utility.yul\":7219:7259   */\ntag_125:\n    /* \"#utility.yul\":7272:7277   */\n  jump(tag_114)\n    /* \"#utility.yul\":7041:7287   */\ntag_124:\n    /* \"#utility.yul\":7312:7354   */\n  tag_127\n    /* \"#utility.yul\":7350:7353   */\n  dup5\n    /* \"#utility.yul\":7340:7348   */\n  dup5\n    /* \"#utility.yul\":7334:7338   */\n  dup5\n    /* \"#utility.yul\":7331:7332   */\n  0x01\n    /* \"#utility.yul\":7312:7354   */\n  tag_39\n  jump\t// in\ntag_127:\n    /* \"#utility.yul\":7297:7354   */\n  swap3\n  pop\n  swap1\n  pop\n    /* \"#utility.yul\":7386:7390   */\n  dup2\n    /* \"#utility.yul\":7381:7384   */\n  dup5\n    /* \"#utility.yul\":7377:7391   */\n  div\n    /* \"#utility.yul\":7370:7375   */\n  dup2\n    /* \"#utility.yul\":7367:7392   */\n  gt\n    /* \"#utility.yul\":7364:7415   */\n  iszero\n  tag_128\n  jumpi\n    /* \"#utility.yul\":7395:7413   */\n  tag_129\n  tag_37\n  jump\t// in\ntag_129:\n    /* \"#utility.yul\":7364:7415   */\ntag_128:\n    /* \"#utility.yul\":7444:7448   */\n  dup2\n    /* \"#utility.yul\":7437:7442   */\n  dup2\n    /* \"#utility.yul\":7433:7449   */\n  mul\n    /* \"#utility.yul\":7424:7449   */\n  swap1\n  pop\n    /* \"#utility.yul\":6382:7455   */\ntag_114:\n  swap4\n  swap3\n  pop\n  pop\n  pop\n  jump\t// out\n    /* \"#utility.yul\":7461:7547   */\ntag_41:\n    /* \"#utility.yul\":7496:7503   */\n  0x00\n    /* \"#utility.yul\":7536:7540   */\n  0xff\n    /* \"#utility.yul\":7529:7534   */\n  dup3\n    /* \"#utility.yul\":7525:7541   */\n  and\n    /* \"#utility.yul\":7514:7541   */\n  swap1\n  pop\n    /* \"#utility.yul\":7461:7547   */\n  swap2\n  swap1\n  pop\n  jump\t// out\n    /* \"#utility.yul\":7553:7834   */\ntag_12:\n    /* \"#utility.yul\":7611:7616   */\n  0x00\n    /* \"#utility.yul\":7635:7658   */\n  tag_132\n    /* \"#utility.yul\":7653:7657   */\n  dup3\n    /* \"#utility.yul\":7635:7658   */\n  tag_25\n  jump\t// in\ntag_132:\n    /* \"#utility.yul\":7627:7658   */\n  swap2\n  pop\n    /* \"#utility.yul\":7679:7704   */\n  tag_133\n    /* \"#utility.yul\":7695:7703   */\n  dup4\n    /* \"#utility.yul\":7679:7704   */\n  tag_41\n  jump\t// in\ntag_133:\n    /* \"#utility.yul\":7667:7704   */\n  swap3\n  pop\n    /* \"#utility.yul\":7723:7827   */\n  tag_134\n    /* \"#utility.yul\":7760:7826   */\n  0xffffffffffffffffffffffffffffffffffffffffffffffffffffffffffffffff\n    /* \"#utility.yul\":7750:7758   */\n  dup5\n    /* \"#utility.yul\":7744:7748   */\n  dup5\n    /* \"#utility.yul\":7723:7827   */\n  tag_40\n  jump\t// in\ntag_134:\n    /* \"#utility.yul\":7714:7827   */\n  swap1\n  pop\n    /* \"#utility.yul\":7553:7834   */\n  swap3\n  swap2\n  pop\n  pop\n  jump\t// out\n    /* \"#utility.yul\":7840:8250   */\ntag_14:\n    /* \"#utility.yul\":7880:7887   */\n  0x00\n    /* \"#utility.yul\":7903:7923   */\n  tag_136\n    /* \"#utility.yul\":7921:7922   */\n  dup3\n    /* \"#utility.yul\":7903:7923   */\n  tag_25\n  jump\t// in\ntag_136:\n    /* \"#utility.yul\":7898:7923   */\n  swap2\n  pop\n    /* \"#utility.yul\":7937:7957   */\n  tag_137\n    /* \"#utility.yul\":7955:7956   */\n  dup4\n    /* \"#utility.yul\":7937:7957   */\n  tag_25\n  jump\t// in\ntag_137:\n    /* \"#utility.yul\":7932:7957   */\n  swap3\n  pop\n    /* \"#utility.yul\":7992:7993   */\n  dup3\n    /* \"#utility.yul\":7989:7990   */\n  dup3\n    /* \"#utility.yul\":7985:7994   */\n  mul\n    /* \"#utility.yul\":8014:8044   */\n  tag_138\n    /* \"#utility.yul\":8032:8043   */\n  dup2\n    /* \"#utility.yul\":8014:8044   */\n  tag_25\n  jump\t// in\ntag_138:\n    /* \"#utility.yul\":8003:8044   */\n  swap2\n  pop\n    /* \"#utility.yul\":8193:8194   */\n  dup3\n    /* \"#utility.yul\":8184:8191   */\n  dup3\n    /* \"#utility.yul\":8180:8195   */\n  div\n    /* \"#utility.yul\":8177:8178   */\n  dup5\n    /* \"#utility.yul\":8174:8196   */\n  eq\n    /* \"#utility.yul\":8154:8155   */\n  dup4\n    /* \"#utility.yul\":8147:8156   */\n  iszero\n    /* \"#utility.yul\":8127:8210   */\n  or\n    /* \"#utility.yul\":8104:8243   */\n  tag_139\n  jumpi\n    /* \"#utility.yul\":8223:8241   */\n  tag_140\n  tag_37\n  jump\t// in\ntag_140:\n    /* \"#utility.yul\":8104:8243   */\ntag_139:\n    /* \"#utility.yul\":7888:8250   */\n  pop\n    /* \"#utility.yul\":7840:8250   */\n  swap3\n  swap2\n  pop\n  pop\n  jump\t// out\n    /* \"backEnd/contracts/governance_token.sol\":17575:18325  contract BUNN_DAO_test is ERC20 {... */\ntag_15:\n  dataSize(sub_0)\n  dup1\n  dataOffset(sub_0)\n  0x00\n  codecopy\n  0x00\n  return\nstop\n\nsub_0: assembly {\n        /* \"backEnd/contracts/governance_token.sol\":17575:18325  contract BUNN_DAO_test is ERC20 {... */\n      mstore(0x40, 0x80)\n      callvalue\n      dup1\n      iszero\n      tag_1\n      jumpi\n      0x00\n      dup1\n      revert\n    tag_1:\n      pop\n      jumpi(tag_2, lt(calldatasize, 0x04))\n      shr(0xe0, calldataload(0x00))\n      dup1\n      0x40c10f19\n      gt\n      tag_16\n      jumpi\n      dup1\n      0x95d89b41\n      gt\n      tag_17\n      jumpi\n      dup1\n      0x95d89b41\n      eq\n      tag_12\n      jumpi\n      dup1\n      0xa457c2d7\n      eq\n      tag_13\n      jumpi\n      dup1\n      0xa9059cbb\n      eq\n      tag_14\n      jumpi\n      dup1\n      0xdd62ed3e\n      eq\n      tag_15\n      jumpi\n      jump(tag_2)\n    tag_17:\n      dup1\n      0x40c10f19\n      eq\n      tag_9\n      jumpi\n      dup1\n      0x70a08231\n      eq\n      tag_10\n      jumpi\n      dup1\n      0x8da5cb5b\n      eq\n      tag_11\n      jumpi\n      jump(tag_2)\n    tag_16:\n      dup1\n      0x06fdde03\n      eq\n      tag_3\n      jumpi\n      dup1\n      0x095ea7b3\n      eq\n      tag_4\n      jumpi\n      dup1\n      0x18160ddd\n      eq\n      tag_5\n      jumpi\n      dup1\n      0x23b872dd\n      eq\n      tag_6\n      jumpi\n      dup1\n      0x313ce567\n      eq\n      tag_7\n      jumpi\n      dup1\n      0x39509351\n      eq\n      tag_8\n      jumpi\n    tag_2:\n      0x00\n      dup1\n      revert\n        /* \"backEnd/contracts/governance_token.sol\":18111:18216  function name() public view virtual override returns (string memory) {... */\n    tag_3:\n      tag_18\n      tag_19\n      jump\t// in\n    tag_18:\n      mload(0x40)\n      tag_20\n      swap2\n      swap1\n      tag_21\n      jump\t// in\n    tag_20:\n      mload(0x40)\n      dup1\n      swap2\n      sub\n      swap1\n      return\n        /* \"backEnd/contracts/governance_token.sol\":9036:9233  function approve(address spender, uint256 amount) public virtual override returns (bool) {... */\n    tag_4:\n      tag_22\n      0x04\n      dup1\n      calldatasize\n      sub\n      dup2\n      add\n      swap1\n      tag_23\n      swap2\n      swap1\n      tag_24\n      jump\t// in\n    tag_23:\n      tag_25\n      jump\t// in\n    tag_22:\n      mload(0x40)\n      tag_26\n      swap2\n      swap1\n      tag_27\n      jump\t// in\n    tag_26:\n      mload(0x40)\n      dup1\n      swap2\n      sub\n      swap1\n      return\n        /* \"backEnd/contracts/governance_token.sol\":7847:7953  function totalSupply() public view virtual override returns (uint256) {... */\n    tag_5:\n      tag_28\n      tag_29\n      jump\t// in\n    tag_28:\n      mload(0x40)\n      tag_30\n      swap2\n      swap1\n      tag_31\n      jump\t// in\n    tag_30:\n      mload(0x40)\n      dup1\n      swap2\n      sub\n      swap1\n      return\n        /* \"backEnd/contracts/governance_token.sol\":9795:10051  function transferFrom(address from, address to, uint256 amount) public virtual override returns (bool) {... */\n    tag_6:\n      tag_32\n      0x04\n      dup1\n      calldatasize\n      sub\n      dup2\n      add\n      swap1\n      tag_33\n      swap2\n      swap1\n      tag_34\n      jump\t// in\n    tag_33:\n      tag_35\n      jump\t// in\n    tag_32:\n      mload(0x40)\n      tag_36\n      swap2\n      swap1\n      tag_27\n      jump\t// in\n    tag_36:\n      mload(0x40)\n      dup1\n      swap2\n      sub\n      swap1\n      return\n        /* \"backEnd/contracts/governance_token.sol\":7696:7787  function decimals() public view virtual override returns (uint8) {... */\n    tag_7:\n      tag_37\n      tag_38\n      jump\t// in\n    tag_37:\n      mload(0x40)\n      tag_39\n      swap2\n      swap1\n      tag_40\n      jump\t// in\n    tag_39:\n      mload(0x40)\n      dup1\n      swap2\n      sub\n      swap1\n      return\n        /* \"backEnd/contracts/governance_token.sol\":10446:10680  function increaseAllowance(address spender, uint256 addedValue) public virtual returns (bool) {... */\n    tag_8:\n      tag_41\n      0x04\n      dup1\n      calldatasize\n      sub\n      dup2\n      add\n      swap1\n      tag_42\n      swap2\n      swap1\n      tag_24\n      jump\t// in\n    tag_42:\n      tag_43\n      jump\t// in\n    tag_41:\n      mload(0x40)\n      tag_44\n      swap2\n      swap1\n      tag_27\n      jump\t// in\n    tag_44:\n      mload(0x40)\n      dup1\n      swap2\n      sub\n      swap1\n      return\n        /* \"backEnd/contracts/governance_token.sol\":17918:18105  function mint(address account, uint256 amount) public onlyOwner {... */\n    tag_9:\n      tag_45\n      0x04\n      dup1\n      calldatasize\n      sub\n      dup2\n      add\n      swap1\n      tag_46\n      swap2\n      swap1\n      tag_24\n      jump\t// in\n    tag_46:\n      tag_47\n      jump\t// in\n    tag_45:\n      stop\n        /* \"backEnd/contracts/governance_token.sol\":8011:8136  function balanceOf(address account) public view virtual override returns (uint256) {... */\n    tag_10:\n      tag_48\n      0x04\n      dup1\n      calldatasize\n      sub\n      dup2\n      add\n      swap1\n      tag_49\n      swap2\n      swap1\n      tag_50\n      jump\t// in\n    tag_49:\n      tag_51\n      jump\t// in\n    tag_48:\n      mload(0x40)\n      tag_52\n      swap2\n      swap1\n      tag_31\n      jump\t// in\n    tag_52:\n      mload(0x40)\n      dup1\n      swap2\n      sub\n      swap1\n      return\n        /* \"backEnd/contracts/governance_token.sol\":17645:17665  address public owner */\n    tag_11:\n      tag_53\n      tag_54\n      jump\t// in\n    tag_53:\n      mload(0x40)\n      tag_55\n      swap2\n      swap1\n      tag_56\n      jump\t// in\n    tag_55:\n      mload(0x40)\n      dup1\n      swap2\n      sub\n      swap1\n      return\n        /* \"backEnd/contracts/governance_token.sol\":18222:18323  function symbol() public view virtual override returns (string memory) {... */\n    tag_12:\n      tag_57\n      tag_58\n      jump\t// in\n    tag_57:\n      mload(0x40)\n      tag_59\n      swap2\n      swap1\n      tag_21\n      jump\t// in\n    tag_59:\n      mload(0x40)\n      dup1\n      swap2\n      sub\n      swap1\n      return\n        /* \"backEnd/contracts/governance_token.sol\":11167:11594  function decreaseAllowance(address spender, uint256 subtractedValue) public virtual returns (bool) {... */\n    tag_13:\n      tag_60\n      0x04\n      dup1\n      calldatasize\n      sub\n      dup2\n      add\n      swap1\n      tag_61\n      swap2\n      swap1\n      tag_24\n      jump\t// in\n    tag_61:\n      tag_62\n      jump\t// in\n    tag_60:\n      mload(0x40)\n      tag_63\n      swap2\n      swap1\n      tag_27\n      jump\t// in\n    tag_63:\n      mload(0x40)\n      dup1\n      swap2\n      sub\n      swap1\n      return\n        /* \"backEnd/contracts/governance_token.sol\":8332:8521  function transfer(address to, uint256 amount) public virtual override returns (bool) {... */\n    tag_14:\n      tag_64\n      0x04\n      dup1\n      calldatasize\n      sub\n      dup2\n      add\n      swap1\n      tag_65\n      swap2\n      swap1\n      tag_24\n      jump\t// in\n    tag_65:\n      tag_66\n      jump\t// in\n    tag_64:\n      mload(0x40)\n      tag_67\n      swap2\n      swap1\n      tag_27\n      jump\t// in\n    tag_67:\n      mload(0x40)\n      dup1\n      swap2\n      sub\n      swap1\n      return\n        /* \"backEnd/contracts/governance_token.sol\":8579:8728  function allowance(address owner, address spender) public view virtual override returns (uint256) {... */\n    tag_15:\n      tag_68\n      0x04\n      dup1\n      calldatasize\n      sub\n      dup2\n      add\n      swap1\n      tag_69\n      swap2\n      swap1\n      tag_70\n      jump\t// in\n    tag_69:\n      tag_71\n      jump\t// in\n    tag_68:\n      mload(0x40)\n      tag_72\n      swap2\n      swap1\n      tag_31\n      jump\t// in\n    tag_72:\n      mload(0x40)\n      dup1\n      swap2\n      sub\n      swap1\n      return\n        /* \"backEnd/contracts/governance_token.sol\":18111:18216  function name() public view virtual override returns (string memory) {... */\n    tag_19:\n        /* \"backEnd/contracts/governance_token.sol\":18165:18178  string memory */\n      0x60\n        /* \"backEnd/contracts/governance_token.sol\":18190:18209  return \"ONWUAJUESE\" */\n      mload(0x40)\n      dup1\n      0x40\n      add\n      0x40\n      mstore\n      dup1\n      0x0a\n      dup2\n      mstore\n      0x20\n      add\n      0x4f4e5755414a5545534500000000000000000000000000000000000000000000\n      dup2\n      mstore\n      pop\n      swap1\n      pop\n        /* \"backEnd/contracts/governance_token.sol\":18111:18216  function name() public view virtual override returns (string memory) {... */\n      swap1\n      jump\t// out\n        /* \"backEnd/contracts/governance_token.sol\":9036:9233  function approve(address spender, uint256 amount) public virtual override returns (bool) {... */\n    tag_25:\n        /* \"backEnd/contracts/governance_token.sol\":9119:9123  bool */\n      0x00\n        /* \"backEnd/contracts/governance_token.sol\":9135:9148  address owner */\n      dup1\n        /* \"backEnd/contracts/governance_token.sol\":9151:9163  _msgSender() */\n      tag_75\n        /* \"backEnd/contracts/governance_token.sol\":9151:9161  _msgSender */\n      tag_76\n        /* \"backEnd/contracts/governance_token.sol\":9151:9163  _msgSender() */\n      jump\t// in\n    tag_75:\n        /* \"backEnd/contracts/governance_token.sol\":9135:9163  address owner = _msgSender() */\n      swap1\n      pop\n        /* \"backEnd/contracts/governance_token.sol\":9173:9205  _approve(owner, spender, amount) */\n      tag_77\n        /* \"backEnd/contracts/governance_token.sol\":9182:9187  owner */\n      dup2\n        /* \"backEnd/contracts/governance_token.sol\":9189:9196  spender */\n      dup6\n        /* \"backEnd/contracts/governance_token.sol\":9198:9204  amount */\n      dup6\n        /* \"backEnd/contracts/governance_token.sol\":9173:9181  _approve */\n      tag_78\n        /* \"backEnd/contracts/governance_token.sol\":9173:9205  _approve(owner, spender, amount) */\n      jump\t// in\n    tag_77:\n        /* \"backEnd/contracts/governance_token.sol\":9222:9226  true */\n      0x01\n        /* \"backEnd/contracts/governance_token.sol\":9215:9226  return true */\n      swap2\n      pop\n      pop\n        /* \"backEnd/contracts/governance_token.sol\":9036:9233  function approve(address spender, uint256 amount) public virtual override returns (bool) {... */\n      swap3\n      swap2\n      pop\n      pop\n      jump\t// out\n        /* \"backEnd/contracts/governance_token.sol\":7847:7953  function totalSupply() public view virtual override returns (uint256) {... */\n    tag_29:\n        /* \"backEnd/contracts/governance_token.sol\":7908:7915  uint256 */\n      0x00\n        /* \"backEnd/contracts/governance_token.sol\":7934:7946  _totalSupply */\n      sload(0x02)\n        /* \"backEnd/contracts/governance_token.sol\":7927:7946  return _totalSupply */\n      swap1\n      pop\n        /* \"backEnd/contracts/governance_token.sol\":7847:7953  function totalSupply() public view virtual override returns (uint256) {... */\n      swap1\n      jump\t// out\n        /* \"backEnd/contracts/governance_token.sol\":9795:10051  function transferFrom(address from, address to, uint256 amount) public virtual override returns (bool) {... */\n    tag_35:\n        /* \"backEnd/contracts/governance_token.sol\":9892:9896  bool */\n      0x00\n        /* \"backEnd/contracts/governance_token.sol\":9908:9923  address spender */\n      dup1\n        /* \"backEnd/contracts/governance_token.sol\":9926:9938  _msgSender() */\n      tag_81\n        /* \"backEnd/contracts/governance_token.sol\":9926:9936  _msgSender */\n      tag_76\n        /* \"backEnd/contracts/governance_token.sol\":9926:9938  _msgSender() */\n      jump\t// in\n    tag_81:\n        /* \"backEnd/contracts/governance_token.sol\":9908:9938  address spender = _msgSender() */\n      swap1\n      pop\n        /* \"backEnd/contracts/governance_token.sol\":9948:9986  _spendAllowance(from, spender, amount) */\n      tag_82\n        /* \"backEnd/contracts/governance_token.sol\":9964:9968  from */\n      dup6\n        /* \"backEnd/contracts/governance_token.sol\":9970:9977  spender */\n      dup3\n        /* \"backEnd/contracts/governance_token.sol\":9979:9985  amount */\n      dup6\n        /* \"backEnd/contracts/governance_token.sol\":9948:9963  _spendAllowance */\n      tag_83\n        /* \"backEnd/contracts/governance_token.sol\":9948:9986  _spendAllowance(from, spender, amount) */\n      jump\t// in\n    tag_82:\n        /* \"backEnd/contracts/governance_token.sol\":9996:10023  _transfer(from, to, amount) */\n      tag_84\n        /* \"backEnd/contracts/governance_token.sol\":10006:10010  from */\n      dup6\n        /* \"backEnd/contracts/governance_token.sol\":10012:10014  to */\n      dup6\n        /* \"backEnd/contracts/governance_token.sol\":10016:10022  amount */\n      dup6\n        /* \"backEnd/contracts/governance_token.sol\":9996:10005  _transfer */\n      tag_85\n        /* \"backEnd/contracts/governance_token.sol\":9996:10023  _transfer(from, to, amount) */\n      jump\t// in\n    tag_84:\n        /* \"backEnd/contracts/governance_token.sol\":10040:10044  true */\n      0x01\n        /* \"backEnd/contracts/governance_token.sol\":10033:10044  return true */\n      swap2\n      pop\n      pop\n        /* \"backEnd/contracts/governance_token.sol\":9795:10051  function transferFrom(address from, address to, uint256 amount) public virtual override returns (bool) {... */\n      swap4\n      swap3\n      pop\n      pop\n      pop\n      jump\t// out\n        /* \"backEnd/contracts/governance_token.sol\":7696:7787  function decimals() public view virtual override returns (uint8) {... */\n    tag_38:\n        /* \"backEnd/contracts/governance_token.sol\":7754:7759  uint8 */\n      0x00\n        /* \"backEnd/contracts/governance_token.sol\":7778:7780  18 */\n      0x12\n        /* \"backEnd/contracts/governance_token.sol\":7771:7780  return 18 */\n      swap1\n      pop\n        /* \"backEnd/contracts/governance_token.sol\":7696:7787  function decimals() public view virtual override returns (uint8) {... */\n      swap1\n      jump\t// out\n        /* \"backEnd/contracts/governance_token.sol\":10446:10680  function increaseAllowance(address spender, uint256 addedValue) public virtual returns (bool) {... */\n    tag_43:\n        /* \"backEnd/contracts/governance_token.sol\":10534:10538  bool */\n      0x00\n        /* \"backEnd/contracts/governance_token.sol\":10550:10563  address owner */\n      dup1\n        /* \"backEnd/contracts/governance_token.sol\":10566:10578  _msgSender() */\n      tag_88\n        /* \"backEnd/contracts/governance_token.sol\":10566:10576  _msgSender */\n      tag_76\n        /* \"backEnd/contracts/governance_token.sol\":10566:10578  _msgSender() */\n      jump\t// in\n    tag_88:\n        /* \"backEnd/contracts/governance_token.sol\":10550:10578  address owner = _msgSender() */\n      swap1\n      pop\n        /* \"backEnd/contracts/governance_token.sol\":10588:10652  _approve(owner, spender, allowance(owner, spender) + addedValue) */\n      tag_89\n        /* \"backEnd/contracts/governance_token.sol\":10597:10602  owner */\n      dup2\n        /* \"backEnd/contracts/governance_token.sol\":10604:10611  spender */\n      dup6\n        /* \"backEnd/contracts/governance_token.sol\":10641:10651  addedValue */\n      dup6\n        /* \"backEnd/contracts/governance_token.sol\":10613:10638  allowance(owner, spender) */\n      tag_90\n        /* \"backEnd/contracts/governance_token.sol\":10623:10628  owner */\n      dup6\n        /* \"backEnd/contracts/governance_token.sol\":10630:10637  spender */\n      dup10\n        /* \"backEnd/contracts/governance_token.sol\":10613:10622  allowance */\n      tag_71\n        /* \"backEnd/contracts/governance_token.sol\":10613:10638  allowance(owner, spender) */\n      jump\t// in\n    tag_90:\n        /* \"backEnd/contracts/governance_token.sol\":10613:10651  allowance(owner, spender) + addedValue */\n      tag_91\n      swap2\n      swap1\n      tag_92\n      jump\t// in\n    tag_91:\n        /* \"backEnd/contracts/governance_token.sol\":10588:10596  _approve */\n      tag_78\n        /* \"backEnd/contracts/governance_token.sol\":10588:10652  _approve(owner, spender, allowance(owner, spender) + addedValue) */\n      jump\t// in\n    tag_89:\n        /* \"backEnd/contracts/governance_token.sol\":10669:10673  true */\n      0x01\n        /* \"backEnd/contracts/governance_token.sol\":10662:10673  return true */\n      swap2\n      pop\n      pop\n        /* \"backEnd/contracts/governance_token.sol\":10446:10680  function increaseAllowance(address spender, uint256 addedValue) public virtual returns (bool) {... */\n      swap3\n      swap2\n      pop\n      pop\n      jump\t// out\n        /* \"backEnd/contracts/governance_token.sol\":17918:18105  function mint(address account, uint256 amount) public onlyOwner {... */\n    tag_47:\n        /* \"backEnd/contracts/governance_token.sol\":17864:17869  owner */\n      0x06\n      0x00\n      swap1\n      sload\n      swap1\n      0x0100\n      exp\n      swap1\n      div\n      0xffffffffffffffffffffffffffffffffffffffff\n      and\n        /* \"backEnd/contracts/governance_token.sol\":17850:17869  msg.sender == owner */\n      0xffffffffffffffffffffffffffffffffffffffff\n      and\n        /* \"backEnd/contracts/governance_token.sol\":17850:17860  msg.sender */\n      caller\n        /* \"backEnd/contracts/governance_token.sol\":17850:17869  msg.sender == owner */\n      0xffffffffffffffffffffffffffffffffffffffff\n      and\n      eq\n        /* \"backEnd/contracts/governance_token.sol\":17842:17893  require(msg.sender == owner, \"Unauthorized Entity\") */\n      tag_94\n      jumpi\n      mload(0x40)\n      0x08c379a000000000000000000000000000000000000000000000000000000000\n      dup2\n      mstore\n      0x04\n      add\n      tag_95\n      swap1\n      tag_96\n      jump\t// in\n    tag_95:\n      mload(0x40)\n      dup1\n      swap2\n      sub\n      swap1\n      revert\n    tag_94:\n        /* \"backEnd/contracts/governance_token.sol\":18026:18036  MAX_SUPPLY */\n      sload(0x05)\n        /* \"backEnd/contracts/governance_token.sol\":18016:18022  amount */\n      dup2\n        /* \"backEnd/contracts/governance_token.sol\":18000:18013  totalSupply() */\n      tag_98\n        /* \"backEnd/contracts/governance_token.sol\":18000:18011  totalSupply */\n      tag_29\n        /* \"backEnd/contracts/governance_token.sol\":18000:18013  totalSupply() */\n      jump\t// in\n    tag_98:\n        /* \"backEnd/contracts/governance_token.sol\":18000:18022  totalSupply() + amount */\n      tag_99\n      swap2\n      swap1\n      tag_92\n      jump\t// in\n    tag_99:\n        /* \"backEnd/contracts/governance_token.sol\":18000:18036  totalSupply() + amount <= MAX_SUPPLY */\n      gt\n      iszero\n        /* \"backEnd/contracts/governance_token.sol\":17992:18060  require(totalSupply() + amount <= MAX_SUPPLY, \"MAX SUPPLY EXCEEDED\") */\n      tag_100\n      jumpi\n      mload(0x40)\n      0x08c379a000000000000000000000000000000000000000000000000000000000\n      dup2\n      mstore\n      0x04\n      add\n      tag_101\n      swap1\n      tag_102\n      jump\t// in\n    tag_101:\n      mload(0x40)\n      dup1\n      swap2\n      sub\n      swap1\n      revert\n    tag_100:\n        /* \"backEnd/contracts/governance_token.sol\":18070:18098  super._mint(account, amount) */\n      tag_103\n        /* \"backEnd/contracts/governance_token.sol\":18082:18089  account */\n      dup3\n        /* \"backEnd/contracts/governance_token.sol\":18091:18097  amount */\n      dup3\n        /* \"backEnd/contracts/governance_token.sol\":18070:18081  super._mint */\n      tag_104\n        /* \"backEnd/contracts/governance_token.sol\":18070:18098  super._mint(account, amount) */\n      jump\t// in\n    tag_103:\n        /* \"backEnd/contracts/governance_token.sol\":17918:18105  function mint(address account, uint256 amount) public onlyOwner {... */\n      pop\n      pop\n      jump\t// out\n        /* \"backEnd/contracts/governance_token.sol\":8011:8136  function balanceOf(address account) public view virtual override returns (uint256) {... */\n    tag_51:\n        /* \"backEnd/contracts/governance_token.sol\":8085:8092  uint256 */\n      0x00\n        /* \"backEnd/contracts/governance_token.sol\":8111:8120  _balances */\n      dup1\n        /* \"backEnd/contracts/governance_token.sol\":8111:8129  _balances[account] */\n      0x00\n        /* \"backEnd/contracts/governance_token.sol\":8121:8128  account */\n      dup4\n        /* \"backEnd/contracts/governance_token.sol\":8111:8129  _balances[account] */\n      0xffffffffffffffffffffffffffffffffffffffff\n      and\n      0xffffffffffffffffffffffffffffffffffffffff\n      and\n      dup2\n      mstore\n      0x20\n      add\n      swap1\n      dup2\n      mstore\n      0x20\n      add\n      0x00\n      keccak256\n      sload\n        /* \"backEnd/contracts/governance_token.sol\":8104:8129  return _balances[account] */\n      swap1\n      pop\n        /* \"backEnd/contracts/governance_token.sol\":8011:8136  function balanceOf(address account) public view virtual override returns (uint256) {... */\n      swap2\n      swap1\n      pop\n      jump\t// out\n        /* \"backEnd/contracts/governance_token.sol\":17645:17665  address public owner */\n    tag_54:\n      0x06\n      0x00\n      swap1\n      sload\n      swap1\n      0x0100\n      exp\n      swap1\n      div\n      0xffffffffffffffffffffffffffffffffffffffff\n      and\n      dup2\n      jump\t// out\n        /* \"backEnd/contracts/governance_token.sol\":18222:18323  function symbol() public view virtual override returns (string memory) {... */\n    tag_58:\n        /* \"backEnd/contracts/governance_token.sol\":18278:18291  string memory */\n      0x60\n        /* \"backEnd/contracts/governance_token.sol\":18303:18316  return \"BUNN\" */\n      mload(0x40)\n      dup1\n      0x40\n      add\n      0x40\n      mstore\n      dup1\n      0x04\n      dup2\n      mstore\n      0x20\n      add\n      0x42554e4e00000000000000000000000000000000000000000000000000000000\n      dup2\n      mstore\n      pop\n      swap1\n      pop\n        /* \"backEnd/contracts/governance_token.sol\":18222:18323  function symbol() public view virtual override returns (string memory) {... */\n      swap1\n      jump\t// out\n        /* \"backEnd/contracts/governance_token.sol\":11167:11594  function decreaseAllowance(address spender, uint256 subtractedValue) public virtual returns (bool) {... */\n    tag_62:\n        /* \"backEnd/contracts/governance_token.sol\":11260:11264  bool */\n      0x00\n        /* \"backEnd/contracts/governance_token.sol\":11276:11289  address owner */\n      dup1\n        /* \"backEnd/contracts/governance_token.sol\":11292:11304  _msgSender() */\n      tag_108\n        /* \"backEnd/contracts/governance_token.sol\":11292:11302  _msgSender */\n      tag_76\n        /* \"backEnd/contracts/governance_token.sol\":11292:11304  _msgSender() */\n      jump\t// in\n    tag_108:\n        /* \"backEnd/contracts/governance_token.sol\":11276:11304  address owner = _msgSender() */\n      swap1\n      pop\n        /* \"backEnd/contracts/governance_token.sol\":11314:11338  uint256 currentAllowance */\n      0x00\n        /* \"backEnd/contracts/governance_token.sol\":11341:11366  allowance(owner, spender) */\n      tag_109\n        /* \"backEnd/contracts/governance_token.sol\":11351:11356  owner */\n      dup3\n        /* \"backEnd/contracts/governance_token.sol\":11358:11365  spender */\n      dup7\n        /* \"backEnd/contracts/governance_token.sol\":11341:11350  allowance */\n      tag_71\n        /* \"backEnd/contracts/governance_token.sol\":11341:11366  allowance(owner, spender) */\n      jump\t// in\n    tag_109:\n        /* \"backEnd/contracts/governance_token.sol\":11314:11366  uint256 currentAllowance = allowance(owner, spender) */\n      swap1\n      pop\n        /* \"backEnd/contracts/governance_token.sol\":11404:11419  subtractedValue */\n      dup4\n        /* \"backEnd/contracts/governance_token.sol\":11384:11400  currentAllowance */\n      dup2\n        /* \"backEnd/contracts/governance_token.sol\":11384:11419  currentAllowance >= subtractedValue */\n      lt\n      iszero\n        /* \"backEnd/contracts/governance_token.sol\":11376:11461  require(currentAllowance >= subtractedValue, \"ERC20: decreased allowance below zero\") */\n      tag_110\n      jumpi\n      mload(0x40)\n      0x08c379a000000000000000000000000000000000000000000000000000000000\n      dup2\n      mstore\n      0x04\n      add\n      tag_111\n      swap1\n      tag_112\n      jump\t// in\n    tag_111:\n      mload(0x40)\n      dup1\n      swap2\n      sub\n      swap1\n      revert\n    tag_110:\n        /* \"backEnd/contracts/governance_token.sol\":11495:11555  _approve(owner, spender, currentAllowance - subtractedValue) */\n      tag_113\n        /* \"backEnd/contracts/governance_token.sol\":11504:11509  owner */\n      dup3\n        /* \"backEnd/contracts/governance_token.sol\":11511:11518  spender */\n      dup7\n        /* \"backEnd/contracts/governance_token.sol\":11539:11554  subtractedValue */\n      dup7\n        /* \"backEnd/contracts/governance_token.sol\":11520:11536  currentAllowance */\n      dup5\n        /* \"backEnd/contracts/governance_token.sol\":11520:11554  currentAllowance - subtractedValue */\n      sub\n        /* \"backEnd/contracts/governance_token.sol\":11495:11503  _approve */\n      tag_78\n        /* \"backEnd/contracts/governance_token.sol\":11495:11555  _approve(owner, spender, currentAllowance - subtractedValue) */\n      jump\t// in\n    tag_113:\n        /* \"backEnd/contracts/governance_token.sol\":11583:11587  true */\n      0x01\n        /* \"backEnd/contracts/governance_token.sol\":11576:11587  return true */\n      swap3\n      pop\n      pop\n      pop\n        /* \"backEnd/contracts/governance_token.sol\":11167:11594  function decreaseAllowance(address spender, uint256 subtractedValue) public virtual returns (bool) {... */\n      swap3\n      swap2\n      pop\n      pop\n      jump\t// out\n        /* \"backEnd/contracts/governance_token.sol\":8332:8521  function transfer(address to, uint256 amount) public virtual override returns (bool) {... */\n    tag_66:\n        /* \"backEnd/contracts/governance_token.sol\":8411:8415  bool */\n      0x00\n        /* \"backEnd/contracts/governance_token.sol\":8427:8440  address owner */\n      dup1\n        /* \"backEnd/contracts/governance_token.sol\":8443:8455  _msgSender() */\n      tag_115\n        /* \"backEnd/contracts/governance_token.sol\":8443:8453  _msgSender */\n      tag_76\n        /* \"backEnd/contracts/governance_token.sol\":8443:8455  _msgSender() */\n      jump\t// in\n    tag_115:\n        /* \"backEnd/contracts/governance_token.sol\":8427:8455  address owner = _msgSender() */\n      swap1\n      pop\n        /* \"backEnd/contracts/governance_token.sol\":8465:8493  _transfer(owner, to, amount) */\n      tag_116\n        /* \"backEnd/contracts/governance_token.sol\":8475:8480  owner */\n      dup2\n        /* \"backEnd/contracts/governance_token.sol\":8482:8484  to */\n      dup6\n        /* \"backEnd/contracts/governance_token.sol\":8486:8492  amount */\n      dup6\n        /* \"backEnd/contracts/governance_token.sol\":8465:8474  _transfer */\n      tag_85\n        /* \"backEnd/contracts/governance_token.sol\":8465:8493  _transfer(owner, to, amount) */\n      jump\t// in\n    tag_116:\n        /* \"backEnd/contracts/governance_token.sol\":8510:8514  true */\n      0x01\n        /* \"backEnd/contracts/governance_token.sol\":8503:8514  return true */\n      swap2\n      pop\n      pop\n        /* \"backEnd/contracts/governance_token.sol\":8332:8521  function transfer(address to, uint256 amount) public virtual override returns (bool) {... */\n      swap3\n      swap2\n      pop\n      pop\n      jump\t// out\n        /* \"backEnd/contracts/governance_token.sol\":8579:8728  function allowance(address owner, address spender) public view virtual override returns (uint256) {... */\n    tag_71:\n        /* \"backEnd/contracts/governance_token.sol\":8668:8675  uint256 */\n      0x00\n        /* \"backEnd/contracts/governance_token.sol\":8694:8705  _allowances */\n      0x01\n        /* \"backEnd/contracts/governance_token.sol\":8694:8712  _allowances[owner] */\n      0x00\n        /* \"backEnd/contracts/governance_token.sol\":8706:8711  owner */\n      dup5\n        /* \"backEnd/contracts/governance_token.sol\":8694:8712  _allowances[owner] */\n      0xffffffffffffffffffffffffffffffffffffffff\n      and\n      0xffffffffffffffffffffffffffffffffffffffff\n      and\n      dup2\n      mstore\n      0x20\n      add\n      swap1\n      dup2\n      mstore\n      0x20\n      add\n      0x00\n      keccak256\n        /* \"backEnd/contracts/governance_token.sol\":8694:8721  _allowances[owner][spender] */\n      0x00\n        /* \"backEnd/contracts/governance_token.sol\":8713:8720  spender */\n      dup4\n        /* \"backEnd/contracts/governance_token.sol\":8694:8721  _allowances[owner][spender] */\n      0xffffffffffffffffffffffffffffffffffffffff\n      and\n      0xffffffffffffffffffffffffffffffffffffffff\n      and\n      dup2\n      mstore\n      0x20\n      add\n      swap1\n      dup2\n      mstore\n      0x20\n      add\n      0x00\n      keccak256\n      sload\n        /* \"backEnd/contracts/governance_token.sol\":8687:8721  return _allowances[owner][spender] */\n      swap1\n      pop\n        /* \"backEnd/contracts/governance_token.sol\":8579:8728  function allowance(address owner, address spender) public view virtual override returns (uint256) {... */\n      swap3\n      swap2\n      pop\n      pop\n      jump\t// out\n        /* \"backEnd/contracts/governance_token.sol\":4403:4499  function _msgSender() internal view virtual returns (address) {... */\n    tag_76:\n        /* \"backEnd/contracts/governance_token.sol\":4456:4463  address */\n      0x00\n        /* \"backEnd/contracts/governance_token.sol\":4482:4492  msg.sender */\n      caller\n        /* \"backEnd/contracts/governance_token.sol\":4475:4492  return msg.sender */\n      swap1\n      pop\n        /* \"backEnd/contracts/governance_token.sol\":4403:4499  function _msgSender() internal view virtual returns (address) {... */\n      swap1\n      jump\t// out\n        /* \"backEnd/contracts/governance_token.sol\":15049:15389  function _approve(address owner, address spender, uint256 amount) internal virtual {... */\n    tag_78:\n        /* \"backEnd/contracts/governance_token.sol\":15167:15168  0 */\n      0x00\n        /* \"backEnd/contracts/governance_token.sol\":15150:15169  owner != address(0) */\n      0xffffffffffffffffffffffffffffffffffffffff\n      and\n        /* \"backEnd/contracts/governance_token.sol\":15150:15155  owner */\n      dup4\n        /* \"backEnd/contracts/governance_token.sol\":15150:15169  owner != address(0) */\n      0xffffffffffffffffffffffffffffffffffffffff\n      and\n      sub\n        /* \"backEnd/contracts/governance_token.sol\":15142:15210  require(owner != address(0), \"ERC20: approve from the zero address\") */\n      tag_120\n      jumpi\n      mload(0x40)\n      0x08c379a000000000000000000000000000000000000000000000000000000000\n      dup2\n      mstore\n      0x04\n      add\n      tag_121\n      swap1\n      tag_122\n      jump\t// in\n    tag_121:\n      mload(0x40)\n      dup1\n      swap2\n      sub\n      swap1\n      revert\n    tag_120:\n        /* \"backEnd/contracts/governance_token.sol\":15247:15248  0 */\n      0x00\n        /* \"backEnd/contracts/governance_token.sol\":15228:15249  spender != address(0) */\n      0xffffffffffffffffffffffffffffffffffffffff\n      and\n        /* \"backEnd/contracts/governance_token.sol\":15228:15235  spender */\n      dup3\n        /* \"backEnd/contracts/governance_token.sol\":15228:15249  spender != address(0) */\n      0xffffffffffffffffffffffffffffffffffffffff\n      and\n      sub\n        /* \"backEnd/contracts/governance_token.sol\":15220:15288  require(spender != address(0), \"ERC20: approve to the zero address\") */\n      tag_123\n      jumpi\n      mload(0x40)\n      0x08c379a000000000000000000000000000000000000000000000000000000000\n      dup2\n      mstore\n      0x04\n      add\n      tag_124\n      swap1\n      tag_125\n      jump\t// in\n    tag_124:\n      mload(0x40)\n      dup1\n      swap2\n      sub\n      swap1\n      revert\n    tag_123:\n        /* \"backEnd/contracts/governance_token.sol\":15329:15335  amount */\n      dup1\n        /* \"backEnd/contracts/governance_token.sol\":15299:15310  _allowances */\n      0x01\n        /* \"backEnd/contracts/governance_token.sol\":15299:15317  _allowances[owner] */\n      0x00\n        /* \"backEnd/contracts/governance_token.sol\":15311:15316  owner */\n      dup6\n        /* \"backEnd/contracts/governance_token.sol\":15299:15317  _allowances[owner] */\n      0xffffffffffffffffffffffffffffffffffffffff\n      and\n      0xffffffffffffffffffffffffffffffffffffffff\n      and\n      dup2\n      mstore\n      0x20\n      add\n      swap1\n      dup2\n      mstore\n      0x20\n      add\n      0x00\n      keccak256\n        /* \"backEnd/contracts/governance_token.sol\":15299:15326  _allowances[owner][spender] */\n      0x00\n        /* \"backEnd/contracts/governance_token.sol\":15318:15325  spender */\n      dup5\n        /* \"backEnd/contracts/governance_token.sol\":15299:15326  _allowances[owner][spender] */\n      0xffffffffffffffffffffffffffffffffffffffff\n      and\n      0xffffffffffffffffffffffffffffffffffffffff\n      and\n      dup2\n      mstore\n      0x20\n      add\n      swap1\n      dup2\n      mstore\n      0x20\n      add\n      0x00\n      keccak256\n        /* \"backEnd/contracts/governance_token.sol\":15299:15335  _allowances[owner][spender] = amount */\n      dup2\n      swap1\n      sstore\n      pop\n        /* \"backEnd/contracts/governance_token.sol\":15366:15373  spender */\n      dup2\n        /* \"backEnd/contracts/governance_token.sol\":15350:15382  Approval(owner, spender, amount) */\n      0xffffffffffffffffffffffffffffffffffffffff\n      and\n        /* \"backEnd/contracts/governance_token.sol\":15359:15364  owner */\n      dup4\n        /* \"backEnd/contracts/governance_token.sol\":15350:15382  Approval(owner, spender, amount) */\n      0xffffffffffffffffffffffffffffffffffffffff\n      and\n      0x8c5be1e5ebec7d5bd14f71427d1e84f3dd0314c0f7b2291e5b200ac8c7c3b925\n        /* \"backEnd/contracts/governance_token.sol\":15375:15381  amount */\n      dup4\n        /* \"backEnd/contracts/governance_token.sol\":15350:15382  Approval(owner, spender, amount) */\n      mload(0x40)\n      tag_126\n      swap2\n      swap1\n      tag_31\n      jump\t// in\n    tag_126:\n      mload(0x40)\n      dup1\n      swap2\n      sub\n      swap1\n      log3\n        /* \"backEnd/contracts/governance_token.sol\":15049:15389  function _approve(address owner, address spender, uint256 amount) internal virtual {... */\n      pop\n      pop\n      pop\n      jump\t// out\n        /* \"backEnd/contracts/governance_token.sol\":15670:16081  function _spendAllowance(address owner, address spender, uint256 amount) internal virtual {... */\n    tag_83:\n        /* \"backEnd/contracts/governance_token.sol\":15770:15794  uint256 currentAllowance */\n      0x00\n        /* \"backEnd/contracts/governance_token.sol\":15797:15822  allowance(owner, spender) */\n      tag_128\n        /* \"backEnd/contracts/governance_token.sol\":15807:15812  owner */\n      dup5\n        /* \"backEnd/contracts/governance_token.sol\":15814:15821  spender */\n      dup5\n        /* \"backEnd/contracts/governance_token.sol\":15797:15806  allowance */\n      tag_71\n        /* \"backEnd/contracts/governance_token.sol\":15797:15822  allowance(owner, spender) */\n      jump\t// in\n    tag_128:\n        /* \"backEnd/contracts/governance_token.sol\":15770:15822  uint256 currentAllowance = allowance(owner, spender) */\n      swap1\n      pop\n        /* \"backEnd/contracts/governance_token.sol\":15856:15873  type(uint256).max */\n      0xffffffffffffffffffffffffffffffffffffffffffffffffffffffffffffffff\n        /* \"backEnd/contracts/governance_token.sol\":15836:15852  currentAllowance */\n      dup2\n        /* \"backEnd/contracts/governance_token.sol\":15836:15873  currentAllowance != type(uint256).max */\n      eq\n        /* \"backEnd/contracts/governance_token.sol\":15832:16075  if (currentAllowance != type(uint256).max) {... */\n      tag_129\n      jumpi\n        /* \"backEnd/contracts/governance_token.sol\":15917:15923  amount */\n      dup2\n        /* \"backEnd/contracts/governance_token.sol\":15897:15913  currentAllowance */\n      dup2\n        /* \"backEnd/contracts/governance_token.sol\":15897:15923  currentAllowance >= amount */\n      lt\n      iszero\n        /* \"backEnd/contracts/governance_token.sol\":15889:15957  require(currentAllowance >= amount, \"ERC20: insufficient allowance\") */\n      tag_130\n      jumpi\n      mload(0x40)\n      0x08c379a000000000000000000000000000000000000000000000000000000000\n      dup2\n      mstore\n      0x04\n      add\n      tag_131\n      swap1\n      tag_132\n      jump\t// in\n    tag_131:\n      mload(0x40)\n      dup1\n      swap2\n      sub\n      swap1\n      revert\n    tag_130:\n        /* \"backEnd/contracts/governance_token.sol\":15999:16050  _approve(owner, spender, currentAllowance - amount) */\n      tag_133\n        /* \"backEnd/contracts/governance_token.sol\":16008:16013  owner */\n      dup5\n        /* \"backEnd/contracts/governance_token.sol\":16015:16022  spender */\n      dup5\n        /* \"backEnd/contracts/governance_token.sol\":16043:16049  amount */\n      dup5\n        /* \"backEnd/contracts/governance_token.sol\":16024:16040  currentAllowance */\n      dup5\n        /* \"backEnd/contracts/governance_token.sol\":16024:16049  currentAllowance - amount */\n      sub\n        /* \"backEnd/contracts/governance_token.sol\":15999:16007  _approve */\n      tag_78\n        /* \"backEnd/contracts/governance_token.sol\":15999:16050  _approve(owner, spender, currentAllowance - amount) */\n      jump\t// in\n    tag_133:\n        /* \"backEnd/contracts/governance_token.sol\":15832:16075  if (currentAllowance != type(uint256).max) {... */\n    tag_129:\n        /* \"backEnd/contracts/governance_token.sol\":15760:16081  {... */\n      pop\n        /* \"backEnd/contracts/governance_token.sol\":15670:16081  function _spendAllowance(address owner, address spender, uint256 amount) internal virtual {... */\n      pop\n      pop\n      pop\n      jump\t// out\n        /* \"backEnd/contracts/governance_token.sol\":12048:12836  function _transfer(address from, address to, uint256 amount) internal virtual {... */\n    tag_85:\n        /* \"backEnd/contracts/governance_token.sol\":12160:12161  0 */\n      0x00\n        /* \"backEnd/contracts/governance_token.sol\":12144:12162  from != address(0) */\n      0xffffffffffffffffffffffffffffffffffffffff\n      and\n        /* \"backEnd/contracts/governance_token.sol\":12144:12148  from */\n      dup4\n        /* \"backEnd/contracts/governance_token.sol\":12144:12162  from != address(0) */\n      0xffffffffffffffffffffffffffffffffffffffff\n      and\n      sub\n        /* \"backEnd/contracts/governance_token.sol\":12136:12204  require(from != address(0), \"ERC20: transfer from the zero address\") */\n      tag_135\n      jumpi\n      mload(0x40)\n      0x08c379a000000000000000000000000000000000000000000000000000000000\n      dup2\n      mstore\n      0x04\n      add\n      tag_136\n      swap1\n      tag_137\n      jump\t// in\n    tag_136:\n      mload(0x40)\n      dup1\n      swap2\n      sub\n      swap1\n      revert\n    tag_135:\n        /* \"backEnd/contracts/governance_token.sol\":12236:12237  0 */\n      0x00\n        /* \"backEnd/contracts/governance_token.sol\":12222:12238  to != address(0) */\n      0xffffffffffffffffffffffffffffffffffffffff\n      and\n        /* \"backEnd/contracts/governance_token.sol\":12222:12224  to */\n      dup3\n        /* \"backEnd/contracts/governance_token.sol\":12222:12238  to != address(0) */\n      0xffffffffffffffffffffffffffffffffffffffff\n      and\n      sub\n        /* \"backEnd/contracts/governance_token.sol\":12214:12278  require(to != address(0), \"ERC20: transfer to the zero address\") */\n      tag_138\n      jumpi\n      mload(0x40)\n      0x08c379a000000000000000000000000000000000000000000000000000000000\n      dup2\n      mstore\n      0x04\n      add\n      tag_139\n      swap1\n      tag_140\n      jump\t// in\n    tag_139:\n      mload(0x40)\n      dup1\n      swap2\n      sub\n      swap1\n      revert\n    tag_138:\n        /* \"backEnd/contracts/governance_token.sol\":12289:12327  _beforeTokenTransfer(from, to, amount) */\n      tag_141\n        /* \"backEnd/contracts/governance_token.sol\":12310:12314  from */\n      dup4\n        /* \"backEnd/contracts/governance_token.sol\":12316:12318  to */\n      dup4\n        /* \"backEnd/contracts/governance_token.sol\":12320:12326  amount */\n      dup4\n        /* \"backEnd/contracts/governance_token.sol\":12289:12309  _beforeTokenTransfer */\n      tag_142\n        /* \"backEnd/contracts/governance_token.sol\":12289:12327  _beforeTokenTransfer(from, to, amount) */\n      jump\t// in\n    tag_141:\n        /* \"backEnd/contracts/governance_token.sol\":12338:12357  uint256 fromBalance */\n      0x00\n        /* \"backEnd/contracts/governance_token.sol\":12360:12369  _balances */\n      dup1\n        /* \"backEnd/contracts/governance_token.sol\":12360:12375  _balances[from] */\n      0x00\n        /* \"backEnd/contracts/governance_token.sol\":12370:12374  from */\n      dup6\n        /* \"backEnd/contracts/governance_token.sol\":12360:12375  _balances[from] */\n      0xffffffffffffffffffffffffffffffffffffffff\n      and\n      0xffffffffffffffffffffffffffffffffffffffff\n      and\n      dup2\n      mstore\n      0x20\n      add\n      swap1\n      dup2\n      mstore\n      0x20\n      add\n      0x00\n      keccak256\n      sload\n        /* \"backEnd/contracts/governance_token.sol\":12338:12375  uint256 fromBalance = _balances[from] */\n      swap1\n      pop\n        /* \"backEnd/contracts/governance_token.sol\":12408:12414  amount */\n      dup2\n        /* \"backEnd/contracts/governance_token.sol\":12393:12404  fromBalance */\n      dup2\n        /* \"backEnd/contracts/governance_token.sol\":12393:12414  fromBalance >= amount */\n      lt\n      iszero\n        /* \"backEnd/contracts/governance_token.sol\":12385:12457  require(fromBalance >= amount, \"ERC20: transfer amount exceeds balance\") */\n      tag_143\n      jumpi\n      mload(0x40)\n      0x08c379a000000000000000000000000000000000000000000000000000000000\n      dup2\n      mstore\n      0x04\n      add\n      tag_144\n      swap1\n      tag_145\n      jump\t// in\n    tag_144:\n      mload(0x40)\n      dup1\n      swap2\n      sub\n      swap1\n      revert\n    tag_143:\n        /* \"backEnd/contracts/governance_token.sol\":12523:12529  amount */\n      dup2\n        /* \"backEnd/contracts/governance_token.sol\":12509:12520  fromBalance */\n      dup2\n        /* \"backEnd/contracts/governance_token.sol\":12509:12529  fromBalance - amount */\n      sub\n        /* \"backEnd/contracts/governance_token.sol\":12491:12500  _balances */\n      0x00\n        /* \"backEnd/contracts/governance_token.sol\":12491:12506  _balances[from] */\n      dup1\n        /* \"backEnd/contracts/governance_token.sol\":12501:12505  from */\n      dup7\n        /* \"backEnd/contracts/governance_token.sol\":12491:12506  _balances[from] */\n      0xffffffffffffffffffffffffffffffffffffffff\n      and\n      0xffffffffffffffffffffffffffffffffffffffff\n      and\n      dup2\n      mstore\n      0x20\n      add\n      swap1\n      dup2\n      mstore\n      0x20\n      add\n      0x00\n      keccak256\n        /* \"backEnd/contracts/governance_token.sol\":12491:12529  _balances[from] = fromBalance - amount */\n      dup2\n      swap1\n      sstore\n      pop\n        /* \"backEnd/contracts/governance_token.sol\":12723:12729  amount */\n      dup2\n        /* \"backEnd/contracts/governance_token.sol\":12706:12715  _balances */\n      0x00\n        /* \"backEnd/contracts/governance_token.sol\":12706:12719  _balances[to] */\n      dup1\n        /* \"backEnd/contracts/governance_token.sol\":12716:12718  to */\n      dup6\n        /* \"backEnd/contracts/governance_token.sol\":12706:12719  _balances[to] */\n      0xffffffffffffffffffffffffffffffffffffffff\n      and\n      0xffffffffffffffffffffffffffffffffffffffff\n      and\n      dup2\n      mstore\n      0x20\n      add\n      swap1\n      dup2\n      mstore\n      0x20\n      add\n      0x00\n      keccak256\n      0x00\n        /* \"backEnd/contracts/governance_token.sol\":12706:12729  _balances[to] += amount */\n      dup3\n      dup3\n      sload\n      add\n      swap3\n      pop\n      pop\n      dup2\n      swap1\n      sstore\n      pop\n        /* \"backEnd/contracts/governance_token.sol\":12770:12772  to */\n      dup3\n        /* \"backEnd/contracts/governance_token.sol\":12755:12781  Transfer(from, to, amount) */\n      0xffffffffffffffffffffffffffffffffffffffff\n      and\n        /* \"backEnd/contracts/governance_token.sol\":12764:12768  from */\n      dup5\n        /* \"backEnd/contracts/governance_token.sol\":12755:12781  Transfer(from, to, amount) */\n      0xffffffffffffffffffffffffffffffffffffffff\n      and\n      0xddf252ad1be2c89b69c2b068fc378daa952ba7f163c4a11628f55a4df523b3ef\n        /* \"backEnd/contracts/governance_token.sol\":12774:12780  amount */\n      dup5\n        /* \"backEnd/contracts/governance_token.sol\":12755:12781  Transfer(from, to, amount) */\n      mload(0x40)\n      tag_146\n      swap2\n      swap1\n      tag_31\n      jump\t// in\n    tag_146:\n      mload(0x40)\n      dup1\n      swap2\n      sub\n      swap1\n      log3\n        /* \"backEnd/contracts/governance_token.sol\":12792:12829  _afterTokenTransfer(from, to, amount) */\n      tag_147\n        /* \"backEnd/contracts/governance_token.sol\":12812:12816  from */\n      dup5\n        /* \"backEnd/contracts/governance_token.sol\":12818:12820  to */\n      dup5\n        /* \"backEnd/contracts/governance_token.sol\":12822:12828  amount */\n      dup5\n        /* \"backEnd/contracts/governance_token.sol\":12792:12811  _afterTokenTransfer */\n      tag_148\n        /* \"backEnd/contracts/governance_token.sol\":12792:12829  _afterTokenTransfer(from, to, amount) */\n      jump\t// in\n    tag_147:\n        /* \"backEnd/contracts/governance_token.sol\":12126:12836  {... */\n      pop\n        /* \"backEnd/contracts/governance_token.sol\":12048:12836  function _transfer(address from, address to, uint256 amount) internal virtual {... */\n      pop\n      pop\n      pop\n      jump\t// out\n        /* \"backEnd/contracts/governance_token.sol\":13112:13647  function _mint(address account, uint256 amount) internal virtual {... */\n    tag_104:\n        /* \"backEnd/contracts/governance_token.sol\":13214:13215  0 */\n      0x00\n        /* \"backEnd/contracts/governance_token.sol\":13195:13216  account != address(0) */\n      0xffffffffffffffffffffffffffffffffffffffff\n      and\n        /* \"backEnd/contracts/governance_token.sol\":13195:13202  account */\n      dup3\n        /* \"backEnd/contracts/governance_token.sol\":13195:13216  account != address(0) */\n      0xffffffffffffffffffffffffffffffffffffffff\n      and\n      sub\n        /* \"backEnd/contracts/governance_token.sol\":13187:13252  require(account != address(0), \"ERC20: mint to the zero address\") */\n      tag_150\n      jumpi\n      mload(0x40)\n      0x08c379a000000000000000000000000000000000000000000000000000000000\n      dup2\n      mstore\n      0x04\n      add\n      tag_151\n      swap1\n      tag_152\n      jump\t// in\n    tag_151:\n      mload(0x40)\n      dup1\n      swap2\n      sub\n      swap1\n      revert\n    tag_150:\n        /* \"backEnd/contracts/governance_token.sol\":13263:13312  _beforeTokenTransfer(address(0), account, amount) */\n      tag_153\n        /* \"backEnd/contracts/governance_token.sol\":13292:13293  0 */\n      0x00\n        /* \"backEnd/contracts/governance_token.sol\":13296:13303  account */\n      dup4\n        /* \"backEnd/contracts/governance_token.sol\":13305:13311  amount */\n      dup4\n        /* \"backEnd/contracts/governance_token.sol\":13263:13283  _beforeTokenTransfer */\n      tag_142\n        /* \"backEnd/contracts/governance_token.sol\":13263:13312  _beforeTokenTransfer(address(0), account, amount) */\n      jump\t// in\n    tag_153:\n        /* \"backEnd/contracts/governance_token.sol\":13339:13345  amount */\n      dup1\n        /* \"backEnd/contracts/governance_token.sol\":13323:13335  _totalSupply */\n      0x02\n      0x00\n        /* \"backEnd/contracts/governance_token.sol\":13323:13345  _totalSupply += amount */\n      dup3\n      dup3\n      sload\n      tag_154\n      swap2\n      swap1\n      tag_92\n      jump\t// in\n    tag_154:\n      swap3\n      pop\n      pop\n      dup2\n      swap1\n      sstore\n      pop\n        /* \"backEnd/contracts/governance_token.sol\":13513:13519  amount */\n      dup1\n        /* \"backEnd/contracts/governance_token.sol\":13491:13500  _balances */\n      0x00\n        /* \"backEnd/contracts/governance_token.sol\":13491:13509  _balances[account] */\n      dup1\n        /* \"backEnd/contracts/governance_token.sol\":13501:13508  account */\n      dup5\n        /* \"backEnd/contracts/governance_token.sol\":13491:13509  _balances[account] */\n      0xffffffffffffffffffffffffffffffffffffffff\n      and\n      0xffffffffffffffffffffffffffffffffffffffff\n      and\n      dup2\n      mstore\n      0x20\n      add\n      swap1\n      dup2\n      mstore\n      0x20\n      add\n      0x00\n      keccak256\n      0x00\n        /* \"backEnd/contracts/governance_token.sol\":13491:13519  _balances[account] += amount */\n      dup3\n      dup3\n      sload\n      add\n      swap3\n      pop\n      pop\n      dup2\n      swap1\n      sstore\n      pop\n        /* \"backEnd/contracts/governance_token.sol\":13565:13572  account */\n      dup2\n        /* \"backEnd/contracts/governance_token.sol\":13544:13581  Transfer(address(0), account, amount) */\n      0xffffffffffffffffffffffffffffffffffffffff\n      and\n        /* \"backEnd/contracts/governance_token.sol\":13561:13562  0 */\n      0x00\n        /* \"backEnd/contracts/governance_token.sol\":13544:13581  Transfer(address(0), account, amount) */\n      0xffffffffffffffffffffffffffffffffffffffff\n      and\n      0xddf252ad1be2c89b69c2b068fc378daa952ba7f163c4a11628f55a4df523b3ef\n        /* \"backEnd/contracts/governance_token.sol\":13574:13580  amount */\n      dup4\n        /* \"backEnd/contracts/governance_token.sol\":13544:13581  Transfer(address(0), account, amount) */\n      mload(0x40)\n      tag_155\n      swap2\n      swap1\n      tag_31\n      jump\t// in\n    tag_155:\n      mload(0x40)\n      dup1\n      swap2\n      sub\n      swap1\n      log3\n        /* \"backEnd/contracts/governance_token.sol\":13592:13640  _afterTokenTransfer(address(0), account, amount) */\n      tag_156\n        /* \"backEnd/contracts/governance_token.sol\":13620:13621  0 */\n      0x00\n        /* \"backEnd/contracts/governance_token.sol\":13624:13631  account */\n      dup4\n        /* \"backEnd/contracts/governance_token.sol\":13633:13639  amount */\n      dup4\n        /* \"backEnd/contracts/governance_token.sol\":13592:13611  _afterTokenTransfer */\n      tag_148\n        /* \"backEnd/contracts/governance_token.sol\":13592:13640  _afterTokenTransfer(address(0), account, amount) */\n      jump\t// in\n    tag_156:\n        /* \"backEnd/contracts/governance_token.sol\":13112:13647  function _mint(address account, uint256 amount) internal virtual {... */\n      pop\n      pop\n      jump\t// out\n        /* \"backEnd/contracts/governance_token.sol\":16665:16756  function _beforeTokenTransfer(address from, address to, uint256 amount) internal virtual {} */\n    tag_142:\n      pop\n      pop\n      pop\n      jump\t// out\n        /* \"backEnd/contracts/governance_token.sol\":17344:17434  function _afterTokenTransfer(address from, address to, uint256 amount) internal virtual {} */\n    tag_148:\n      pop\n      pop\n      pop\n      jump\t// out\n        /* \"#utility.yul\":7:106   */\n    tag_159:\n        /* \"#utility.yul\":59:65   */\n      0x00\n        /* \"#utility.yul\":93:98   */\n      dup2\n        /* \"#utility.yul\":87:99   */\n      mload\n        /* \"#utility.yul\":77:99   */\n      swap1\n      pop\n        /* \"#utility.yul\":7:106   */\n      swap2\n      swap1\n      pop\n      jump\t// out\n        /* \"#utility.yul\":112:281   */\n    tag_160:\n        /* \"#utility.yul\":196:207   */\n      0x00\n        /* \"#utility.yul\":230:236   */\n      dup3\n        /* \"#utility.yul\":225:228   */\n      dup3\n        /* \"#utility.yul\":218:237   */\n      mstore\n        /* \"#utility.yul\":270:274   */\n      0x20\n        /* \"#utility.yul\":265:268   */\n      dup3\n        /* \"#utility.yul\":261:275   */\n      add\n        /* \"#utility.yul\":246:275   */\n      swap1\n      pop\n        /* \"#utility.yul\":112:281   */\n      swap3\n      swap2\n      pop\n      pop\n      jump\t// out\n        /* \"#utility.yul\":287:533   */\n    tag_161:\n        /* \"#utility.yul\":368:369   */\n      0x00\n        /* \"#utility.yul\":378:491   */\n    tag_205:\n        /* \"#utility.yul\":392:398   */\n      dup4\n        /* \"#utility.yul\":389:390   */\n      dup2\n        /* \"#utility.yul\":386:399   */\n      lt\n        /* \"#utility.yul\":378:491   */\n      iszero\n      tag_207\n      jumpi\n        /* \"#utility.yul\":477:478   */\n      dup1\n        /* \"#utility.yul\":472:475   */\n      dup3\n        /* \"#utility.yul\":468:479   */\n      add\n        /* \"#utility.yul\":462:480   */\n      mload\n        /* \"#utility.yul\":458:459   */\n      dup2\n        /* \"#utility.yul\":453:456   */\n      dup5\n        /* \"#utility.yul\":449:460   */\n      add\n        /* \"#utility.yul\":442:481   */\n      mstore\n        /* \"#utility.yul\":414:416   */\n      0x20\n        /* \"#utility.yul\":411:412   */\n      dup2\n        /* \"#utility.yul\":407:417   */\n      add\n        /* \"#utility.yul\":402:417   */\n      swap1\n      pop\n        /* \"#utility.yul\":378:491   */\n      jump(tag_205)\n    tag_207:\n        /* \"#utility.yul\":525:526   */\n      0x00\n        /* \"#utility.yul\":516:522   */\n      dup5\n        /* \"#utility.yul\":511:514   */\n      dup5\n        /* \"#utility.yul\":507:523   */\n      add\n        /* \"#utility.yul\":500:527   */\n      mstore\n        /* \"#utility.yul\":349:533   */\n      pop\n        /* \"#utility.yul\":287:533   */\n      pop\n      pop\n      pop\n      jump\t// out\n        /* \"#utility.yul\":539:641   */\n    tag_162:\n        /* \"#utility.yul\":580:586   */\n      0x00\n        /* \"#utility.yul\":631:633   */\n      0x1f\n        /* \"#utility.yul\":627:634   */\n      not\n        /* \"#utility.yul\":622:624   */\n      0x1f\n        /* \"#utility.yul\":615:620   */\n      dup4\n        /* \"#utility.yul\":611:625   */\n      add\n        /* \"#utility.yul\":607:635   */\n      and\n        /* \"#utility.yul\":597:635   */\n      swap1\n      pop\n        /* \"#utility.yul\":539:641   */\n      swap2\n      swap1\n      pop\n      jump\t// out\n        /* \"#utility.yul\":647:1024   */\n    tag_163:\n        /* \"#utility.yul\":735:738   */\n      0x00\n        /* \"#utility.yul\":763:802   */\n      tag_210\n        /* \"#utility.yul\":796:801   */\n      dup3\n        /* \"#utility.yul\":763:802   */\n      tag_159\n      jump\t// in\n    tag_210:\n        /* \"#utility.yul\":818:889   */\n      tag_211\n        /* \"#utility.yul\":882:888   */\n      dup2\n        /* \"#utility.yul\":877:880   */\n      dup6\n        /* \"#utility.yul\":818:889   */\n      tag_160\n      jump\t// in\n    tag_211:\n        /* \"#utility.yul\":811:889   */\n      swap4\n      pop\n        /* \"#utility.yul\":898:963   */\n      tag_212\n        /* \"#utility.yul\":956:962   */\n      dup2\n        /* \"#utility.yul\":951:954   */\n      dup6\n        /* \"#utility.yul\":944:948   */\n      0x20\n        /* \"#utility.yul\":937:942   */\n      dup7\n        /* \"#utility.yul\":933:949   */\n      add\n        /* \"#utility.yul\":898:963   */\n      tag_161\n      jump\t// in\n    tag_212:\n        /* \"#utility.yul\":988:1017   */\n      tag_213\n        /* \"#utility.yul\":1010:1016   */\n      dup2\n        /* \"#utility.yul\":988:1017   */\n      tag_162\n      jump\t// in\n    tag_213:\n        /* \"#utility.yul\":983:986   */\n      dup5\n        /* \"#utility.yul\":979:1018   */\n      add\n        /* \"#utility.yul\":972:1018   */\n      swap2\n      pop\n        /* \"#utility.yul\":739:1024   */\n      pop\n        /* \"#utility.yul\":647:1024   */\n      swap3\n      swap2\n      pop\n      pop\n      jump\t// out\n        /* \"#utility.yul\":1030:1343   */\n    tag_21:\n        /* \"#utility.yul\":1143:1147   */\n      0x00\n        /* \"#utility.yul\":1181:1183   */\n      0x20\n        /* \"#utility.yul\":1170:1179   */\n      dup3\n        /* \"#utility.yul\":1166:1184   */\n      add\n        /* \"#utility.yul\":1158:1184   */\n      swap1\n      pop\n        /* \"#utility.yul\":1230:1239   */\n      dup2\n        /* \"#utility.yul\":1224:1228   */\n      dup2\n        /* \"#utility.yul\":1220:1240   */\n      sub\n        /* \"#utility.yul\":1216:1217   */\n      0x00\n        /* \"#utility.yul\":1205:1214   */\n      dup4\n        /* \"#utility.yul\":1201:1218   */\n      add\n        /* \"#utility.yul\":1194:1241   */\n      mstore\n        /* \"#utility.yul\":1258:1336   */\n      tag_215\n        /* \"#utility.yul\":1331:1335   */\n      dup2\n        /* \"#utility.yul\":1322:1328   */\n      dup5\n        /* \"#utility.yul\":1258:1336   */\n      tag_163\n      jump\t// in\n    tag_215:\n        /* \"#utility.yul\":1250:1336   */\n      swap1\n      pop\n        /* \"#utility.yul\":1030:1343   */\n      swap3\n      swap2\n      pop\n      pop\n      jump\t// out\n        /* \"#utility.yul\":1430:1547   */\n    tag_165:\n        /* \"#utility.yul\":1539:1540   */\n      0x00\n        /* \"#utility.yul\":1536:1537   */\n      dup1\n        /* \"#utility.yul\":1529:1541   */\n      revert\n        /* \"#utility.yul\":1676:1802   */\n    tag_167:\n        /* \"#utility.yul\":1713:1720   */\n      0x00\n        /* \"#utility.yul\":1753:1795   */\n      0xffffffffffffffffffffffffffffffffffffffff\n        /* \"#utility.yul\":1746:1751   */\n      dup3\n        /* \"#utility.yul\":1742:1796   */\n      and\n        /* \"#utility.yul\":1731:1796   */\n      swap1\n      pop\n        /* \"#utility.yul\":1676:1802   */\n      swap2\n      swap1\n      pop\n      jump\t// out\n        /* \"#utility.yul\":1808:1904   */\n    tag_168:\n        /* \"#utility.yul\":1845:1852   */\n      0x00\n        /* \"#utility.yul\":1874:1898   */\n      tag_221\n        /* \"#utility.yul\":1892:1897   */\n      dup3\n        /* \"#utility.yul\":1874:1898   */\n      tag_167\n      jump\t// in\n    tag_221:\n        /* \"#utility.yul\":1863:1898   */\n      swap1\n      pop\n        /* \"#utility.yul\":1808:1904   */\n      swap2\n      swap1\n      pop\n      jump\t// out\n        /* \"#utility.yul\":1910:2032   */\n    tag_169:\n        /* \"#utility.yul\":1983:2007   */\n      tag_223\n        /* \"#utility.yul\":2001:2006   */\n      dup2\n        /* \"#utility.yul\":1983:2007   */\n      tag_168\n      jump\t// in\n    tag_223:\n        /* \"#utility.yul\":1976:1981   */\n      dup2\n        /* \"#utility.yul\":1973:2008   */\n      eq\n        /* \"#utility.yul\":1963:2026   */\n      tag_224\n      jumpi\n        /* \"#utility.yul\":2022:2023   */\n      0x00\n        /* \"#utility.yul\":2019:2020   */\n      dup1\n        /* \"#utility.yul\":2012:2024   */\n      revert\n        /* \"#utility.yul\":1963:2026   */\n    tag_224:\n        /* \"#utility.yul\":1910:2032   */\n      pop\n      jump\t// out\n        /* \"#utility.yul\":2038:2177   */\n    tag_170:\n        /* \"#utility.yul\":2084:2089   */\n      0x00\n        /* \"#utility.yul\":2122:2128   */\n      dup2\n        /* \"#utility.yul\":2109:2129   */\n      calldataload\n        /* \"#utility.yul\":2100:2129   */\n      swap1\n      pop\n        /* \"#utility.yul\":2138:2171   */\n      tag_226\n        /* \"#utility.yul\":2165:2170   */\n      dup2\n        /* \"#utility.yul\":2138:2171   */\n      tag_169\n      jump\t// in\n    tag_226:\n        /* \"#utility.yul\":2038:2177   */\n      swap3\n      swap2\n      pop\n      pop\n      jump\t// out\n        /* \"#utility.yul\":2183:2260   */\n    tag_171:\n        /* \"#utility.yul\":2220:2227   */\n      0x00\n        /* \"#utility.yul\":2249:2254   */\n      dup2\n        /* \"#utility.yul\":2238:2254   */\n      swap1\n      pop\n        /* \"#utility.yul\":2183:2260   */\n      swap2\n      swap1\n      pop\n      jump\t// out\n        /* \"#utility.yul\":2266:2388   */\n    tag_172:\n        /* \"#utility.yul\":2339:2363   */\n      tag_229\n        /* \"#utility.yul\":2357:2362   */\n      dup2\n        /* \"#utility.yul\":2339:2363   */\n      tag_171\n      jump\t// in\n    tag_229:\n        /* \"#utility.yul\":2332:2337   */\n      dup2\n        /* \"#utility.yul\":2329:2364   */\n      eq\n        /* \"#utility.yul\":2319:2382   */\n      tag_230\n      jumpi\n        /* \"#utility.yul\":2378:2379   */\n      0x00\n        /* \"#utility.yul\":2375:2376   */\n      dup1\n        /* \"#utility.yul\":2368:2380   */\n      revert\n        /* \"#utility.yul\":2319:2382   */\n    tag_230:\n        /* \"#utility.yul\":2266:2388   */\n      pop\n      jump\t// out\n        /* \"#utility.yul\":2394:2533   */\n    tag_173:\n        /* \"#utility.yul\":2440:2445   */\n      0x00\n        /* \"#utility.yul\":2478:2484   */\n      dup2\n        /* \"#utility.yul\":2465:2485   */\n      calldataload\n        /* \"#utility.yul\":2456:2485   */\n      swap1\n      pop\n        /* \"#utility.yul\":2494:2527   */\n      tag_232\n        /* \"#utility.yul\":2521:2526   */\n      dup2\n        /* \"#utility.yul\":2494:2527   */\n      tag_172\n      jump\t// in\n    tag_232:\n        /* \"#utility.yul\":2394:2533   */\n      swap3\n      swap2\n      pop\n      pop\n      jump\t// out\n        /* \"#utility.yul\":2539:3013   */\n    tag_24:\n        /* \"#utility.yul\":2607:2613   */\n      0x00\n        /* \"#utility.yul\":2615:2621   */\n      dup1\n        /* \"#utility.yul\":2664:2666   */\n      0x40\n        /* \"#utility.yul\":2652:2661   */\n      dup4\n        /* \"#utility.yul\":2643:2650   */\n      dup6\n        /* \"#utility.yul\":2639:2662   */\n      sub\n        /* \"#utility.yul\":2635:2667   */\n      slt\n        /* \"#utility.yul\":2632:2751   */\n      iszero\n      tag_234\n      jumpi\n        /* \"#utility.yul\":2670:2749   */\n      tag_235\n      tag_165\n      jump\t// in\n    tag_235:\n        /* \"#utility.yul\":2632:2751   */\n    tag_234:\n        /* \"#utility.yul\":2790:2791   */\n      0x00\n        /* \"#utility.yul\":2815:2868   */\n      tag_236\n        /* \"#utility.yul\":2860:2867   */\n      dup6\n        /* \"#utility.yul\":2851:2857   */\n      dup3\n        /* \"#utility.yul\":2840:2849   */\n      dup7\n        /* \"#utility.yul\":2836:2858   */\n      add\n        /* \"#utility.yul\":2815:2868   */\n      tag_170\n      jump\t// in\n    tag_236:\n        /* \"#utility.yul\":2805:2868   */\n      swap3\n      pop\n        /* \"#utility.yul\":2761:2878   */\n      pop\n        /* \"#utility.yul\":2917:2919   */\n      0x20\n        /* \"#utility.yul\":2943:2996   */\n      tag_237\n        /* \"#utility.yul\":2988:2995   */\n      dup6\n        /* \"#utility.yul\":2979:2985   */\n      dup3\n        /* \"#utility.yul\":2968:2977   */\n      dup7\n        /* \"#utility.yul\":2964:2986   */\n      add\n        /* \"#utility.yul\":2943:2996   */\n      tag_173\n      jump\t// in\n    tag_237:\n        /* \"#utility.yul\":2933:2996   */\n      swap2\n      pop\n        /* \"#utility.yul\":2888:3006   */\n      pop\n        /* \"#utility.yul\":2539:3013   */\n      swap3\n      pop\n      swap3\n      swap1\n      pop\n      jump\t// out\n        /* \"#utility.yul\":3019:3109   */\n    tag_174:\n        /* \"#utility.yul\":3053:3060   */\n      0x00\n        /* \"#utility.yul\":3096:3101   */\n      dup2\n        /* \"#utility.yul\":3089:3102   */\n      iszero\n        /* \"#utility.yul\":3082:3103   */\n      iszero\n        /* \"#utility.yul\":3071:3103   */\n      swap1\n      pop\n        /* \"#utility.yul\":3019:3109   */\n      swap2\n      swap1\n      pop\n      jump\t// out\n        /* \"#utility.yul\":3115:3224   */\n    tag_175:\n        /* \"#utility.yul\":3196:3217   */\n      tag_240\n        /* \"#utility.yul\":3211:3216   */\n      dup2\n        /* \"#utility.yul\":3196:3217   */\n      tag_174\n      jump\t// in\n    tag_240:\n        /* \"#utility.yul\":3191:3194   */\n      dup3\n        /* \"#utility.yul\":3184:3218   */\n      mstore\n        /* \"#utility.yul\":3115:3224   */\n      pop\n      pop\n      jump\t// out\n        /* \"#utility.yul\":3230:3440   */\n    tag_27:\n        /* \"#utility.yul\":3317:3321   */\n      0x00\n        /* \"#utility.yul\":3355:3357   */\n      0x20\n        /* \"#utility.yul\":3344:3353   */\n      dup3\n        /* \"#utility.yul\":3340:3358   */\n      add\n        /* \"#utility.yul\":3332:3358   */\n      swap1\n      pop\n        /* \"#utility.yul\":3368:3433   */\n      tag_242\n        /* \"#utility.yul\":3430:3431   */\n      0x00\n        /* \"#utility.yul\":3419:3428   */\n      dup4\n        /* \"#utility.yul\":3415:3432   */\n      add\n        /* \"#utility.yul\":3406:3412   */\n      dup5\n        /* \"#utility.yul\":3368:3433   */\n      tag_175\n      jump\t// in\n    tag_242:\n        /* \"#utility.yul\":3230:3440   */\n      swap3\n      swap2\n      pop\n      pop\n      jump\t// out\n        /* \"#utility.yul\":3446:3564   */\n    tag_176:\n        /* \"#utility.yul\":3533:3557   */\n      tag_244\n        /* \"#utility.yul\":3551:3556   */\n      dup2\n        /* \"#utility.yul\":3533:3557   */\n      tag_171\n      jump\t// in\n    tag_244:\n        /* \"#utility.yul\":3528:3531   */\n      dup3\n        /* \"#utility.yul\":3521:3558   */\n      mstore\n        /* \"#utility.yul\":3446:3564   */\n      pop\n      pop\n      jump\t// out\n        /* \"#utility.yul\":3570:3792   */\n    tag_31:\n        /* \"#utility.yul\":3663:3667   */\n      0x00\n        /* \"#utility.yul\":3701:3703   */\n      0x20\n        /* \"#utility.yul\":3690:3699   */\n      dup3\n        /* \"#utility.yul\":3686:3704   */\n      add\n        /* \"#utility.yul\":3678:3704   */\n      swap1\n      pop\n        /* \"#utility.yul\":3714:3785   */\n      tag_246\n        /* \"#utility.yul\":3782:3783   */\n      0x00\n        /* \"#utility.yul\":3771:3780   */\n      dup4\n        /* \"#utility.yul\":3767:3784   */\n      add\n        /* \"#utility.yul\":3758:3764   */\n      dup5\n        /* \"#utility.yul\":3714:3785   */\n      tag_176\n      jump\t// in\n    tag_246:\n        /* \"#utility.yul\":3570:3792   */\n      swap3\n      swap2\n      pop\n      pop\n      jump\t// out\n        /* \"#utility.yul\":3798:4417   */\n    tag_34:\n        /* \"#utility.yul\":3875:3881   */\n      0x00\n        /* \"#utility.yul\":3883:3889   */\n      dup1\n        /* \"#utility.yul\":3891:3897   */\n      0x00\n        /* \"#utility.yul\":3940:3942   */\n      0x60\n        /* \"#utility.yul\":3928:3937   */\n      dup5\n        /* \"#utility.yul\":3919:3926   */\n      dup7\n        /* \"#utility.yul\":3915:3938   */\n      sub\n        /* \"#utility.yul\":3911:3943   */\n      slt\n        /* \"#utility.yul\":3908:4027   */\n      iszero\n      tag_248\n      jumpi\n        /* \"#utility.yul\":3946:4025   */\n      tag_249\n      tag_165\n      jump\t// in\n    tag_249:\n        /* \"#utility.yul\":3908:4027   */\n    tag_248:\n        /* \"#utility.yul\":4066:4067   */\n      0x00\n        /* \"#utility.yul\":4091:4144   */\n      tag_250\n        /* \"#utility.yul\":4136:4143   */\n      dup7\n        /* \"#utility.yul\":4127:4133   */\n      dup3\n        /* \"#utility.yul\":4116:4125   */\n      dup8\n        /* \"#utility.yul\":4112:4134   */\n      add\n        /* \"#utility.yul\":4091:4144   */\n      tag_170\n      jump\t// in\n    tag_250:\n        /* \"#utility.yul\":4081:4144   */\n      swap4\n      pop\n        /* \"#utility.yul\":4037:4154   */\n      pop\n        /* \"#utility.yul\":4193:4195   */\n      0x20\n        /* \"#utility.yul\":4219:4272   */\n      tag_251\n        /* \"#utility.yul\":4264:4271   */\n      dup7\n        /* \"#utility.yul\":4255:4261   */\n      dup3\n        /* \"#utility.yul\":4244:4253   */\n      dup8\n        /* \"#utility.yul\":4240:4262   */\n      add\n        /* \"#utility.yul\":4219:4272   */\n      tag_170\n      jump\t// in\n    tag_251:\n        /* \"#utility.yul\":4209:4272   */\n      swap3\n      pop\n        /* \"#utility.yul\":4164:4282   */\n      pop\n        /* \"#utility.yul\":4321:4323   */\n      0x40\n        /* \"#utility.yul\":4347:4400   */\n      tag_252\n        /* \"#utility.yul\":4392:4399   */\n      dup7\n        /* \"#utility.yul\":4383:4389   */\n      dup3\n        /* \"#utility.yul\":4372:4381   */\n      dup8\n        /* \"#utility.yul\":4368:4390   */\n      add\n        /* \"#utility.yul\":4347:4400   */\n      tag_173\n      jump\t// in\n    tag_252:\n        /* \"#utility.yul\":4337:4400   */\n      swap2\n      pop\n        /* \"#utility.yul\":4292:4410   */\n      pop\n        /* \"#utility.yul\":3798:4417   */\n      swap3\n      pop\n      swap3\n      pop\n      swap3\n      jump\t// out\n        /* \"#utility.yul\":4423:4509   */\n    tag_177:\n        /* \"#utility.yul\":4458:4465   */\n      0x00\n        /* \"#utility.yul\":4498:4502   */\n      0xff\n        /* \"#utility.yul\":4491:4496   */\n      dup3\n        /* \"#utility.yul\":4487:4503   */\n      and\n        /* \"#utility.yul\":4476:4503   */\n      swap1\n      pop\n        /* \"#utility.yul\":4423:4509   */\n      swap2\n      swap1\n      pop\n      jump\t// out\n        /* \"#utility.yul\":4515:4627   */\n    tag_178:\n        /* \"#utility.yul\":4598:4620   */\n      tag_255\n        /* \"#utility.yul\":4614:4619   */\n      dup2\n        /* \"#utility.yul\":4598:4620   */\n      tag_177\n      jump\t// in\n    tag_255:\n        /* \"#utility.yul\":4593:4596   */\n      dup3\n        /* \"#utility.yul\":4586:4621   */\n      mstore\n        /* \"#utility.yul\":4515:4627   */\n      pop\n      pop\n      jump\t// out\n        /* \"#utility.yul\":4633:4847   */\n    tag_40:\n        /* \"#utility.yul\":4722:4726   */\n      0x00\n        /* \"#utility.yul\":4760:4762   */\n      0x20\n        /* \"#utility.yul\":4749:4758   */\n      dup3\n        /* \"#utility.yul\":4745:4763   */\n      add\n        /* \"#utility.yul\":4737:4763   */\n      swap1\n      pop\n        /* \"#utility.yul\":4773:4840   */\n      tag_257\n        /* \"#utility.yul\":4837:4838   */\n      0x00\n        /* \"#utility.yul\":4826:4835   */\n      dup4\n        /* \"#utility.yul\":4822:4839   */\n      add\n        /* \"#utility.yul\":4813:4819   */\n      dup5\n        /* \"#utility.yul\":4773:4840   */\n      tag_178\n      jump\t// in\n    tag_257:\n        /* \"#utility.yul\":4633:4847   */\n      swap3\n      swap2\n      pop\n      pop\n      jump\t// out\n        /* \"#utility.yul\":4853:5182   */\n    tag_50:\n        /* \"#utility.yul\":4912:4918   */\n      0x00\n        /* \"#utility.yul\":4961:4963   */\n      0x20\n        /* \"#utility.yul\":4949:4958   */\n      dup3\n        /* \"#utility.yul\":4940:4947   */\n      dup5\n        /* \"#utility.yul\":4936:4959   */\n      sub\n        /* \"#utility.yul\":4932:4964   */\n      slt\n        /* \"#utility.yul\":4929:5048   */\n      iszero\n      tag_259\n      jumpi\n        /* \"#utility.yul\":4967:5046   */\n      tag_260\n      tag_165\n      jump\t// in\n    tag_260:\n        /* \"#utility.yul\":4929:5048   */\n    tag_259:\n        /* \"#utility.yul\":5087:5088   */\n      0x00\n        /* \"#utility.yul\":5112:5165   */\n      tag_261\n        /* \"#utility.yul\":5157:5164   */\n      dup5\n        /* \"#utility.yul\":5148:5154   */\n      dup3\n        /* \"#utility.yul\":5137:5146   */\n      dup6\n        /* \"#utility.yul\":5133:5155   */\n      add\n        /* \"#utility.yul\":5112:5165   */\n      tag_170\n      jump\t// in\n    tag_261:\n        /* \"#utility.yul\":5102:5165   */\n      swap2\n      pop\n        /* \"#utility.yul\":5058:5175   */\n      pop\n        /* \"#utility.yul\":4853:5182   */\n      swap3\n      swap2\n      pop\n      pop\n      jump\t// out\n        /* \"#utility.yul\":5188:5306   */\n    tag_179:\n        /* \"#utility.yul\":5275:5299   */\n      tag_263\n        /* \"#utility.yul\":5293:5298   */\n      dup2\n        /* \"#utility.yul\":5275:5299   */\n      tag_168\n      jump\t// in\n    tag_263:\n        /* \"#utility.yul\":5270:5273   */\n      dup3\n        /* \"#utility.yul\":5263:5300   */\n      mstore\n        /* \"#utility.yul\":5188:5306   */\n      pop\n      pop\n      jump\t// out\n        /* \"#utility.yul\":5312:5534   */\n    tag_56:\n        /* \"#utility.yul\":5405:5409   */\n      0x00\n        /* \"#utility.yul\":5443:5445   */\n      0x20\n        /* \"#utility.yul\":5432:5441   */\n      dup3\n        /* \"#utility.yul\":5428:5446   */\n      add\n        /* \"#utility.yul\":5420:5446   */\n      swap1\n      pop\n        /* \"#utility.yul\":5456:5527   */\n      tag_265\n        /* \"#utility.yul\":5524:5525   */\n      0x00\n        /* \"#utility.yul\":5513:5522   */\n      dup4\n        /* \"#utility.yul\":5509:5526   */\n      add\n        /* \"#utility.yul\":5500:5506   */\n      dup5\n        /* \"#utility.yul\":5456:5527   */\n      tag_179\n      jump\t// in\n    tag_265:\n        /* \"#utility.yul\":5312:5534   */\n      swap3\n      swap2\n      pop\n      pop\n      jump\t// out\n        /* \"#utility.yul\":5540:6014   */\n    tag_70:\n        /* \"#utility.yul\":5608:5614   */\n      0x00\n        /* \"#utility.yul\":5616:5622   */\n      dup1\n        /* \"#utility.yul\":5665:5667   */\n      0x40\n        /* \"#utility.yul\":5653:5662   */\n      dup4\n        /* \"#utility.yul\":5644:5651   */\n      dup6\n        /* \"#utility.yul\":5640:5663   */\n      sub\n        /* \"#utility.yul\":5636:5668   */\n      slt\n        /* \"#utility.yul\":5633:5752   */\n      iszero\n      tag_267\n      jumpi\n        /* \"#utility.yul\":5671:5750   */\n      tag_268\n      tag_165\n      jump\t// in\n    tag_268:\n        /* \"#utility.yul\":5633:5752   */\n    tag_267:\n        /* \"#utility.yul\":5791:5792   */\n      0x00\n        /* \"#utility.yul\":5816:5869   */\n      tag_269\n        /* \"#utility.yul\":5861:5868   */\n      dup6\n        /* \"#utility.yul\":5852:5858   */\n      dup3\n        /* \"#utility.yul\":5841:5850   */\n      dup7\n        /* \"#utility.yul\":5837:5859   */\n      add\n        /* \"#utility.yul\":5816:5869   */\n      tag_170\n      jump\t// in\n    tag_269:\n        /* \"#utility.yul\":5806:5869   */\n      swap3\n      pop\n        /* \"#utility.yul\":5762:5879   */\n      pop\n        /* \"#utility.yul\":5918:5920   */\n      0x20\n        /* \"#utility.yul\":5944:5997   */\n      tag_270\n        /* \"#utility.yul\":5989:5996   */\n      dup6\n        /* \"#utility.yul\":5980:5986   */\n      dup3\n        /* \"#utility.yul\":5969:5978   */\n      dup7\n        /* \"#utility.yul\":5965:5987   */\n      add\n        /* \"#utility.yul\":5944:5997   */\n      tag_170\n      jump\t// in\n    tag_270:\n        /* \"#utility.yul\":5934:5997   */\n      swap2\n      pop\n        /* \"#utility.yul\":5889:6007   */\n      pop\n        /* \"#utility.yul\":5540:6014   */\n      swap3\n      pop\n      swap3\n      swap1\n      pop\n      jump\t// out\n        /* \"#utility.yul\":6020:6200   */\n    tag_180:\n        /* \"#utility.yul\":6068:6145   */\n      0x4e487b7100000000000000000000000000000000000000000000000000000000\n        /* \"#utility.yul\":6065:6066   */\n      0x00\n        /* \"#utility.yul\":6058:6146   */\n      mstore\n        /* \"#utility.yul\":6165:6169   */\n      0x11\n        /* \"#utility.yul\":6162:6163   */\n      0x04\n        /* \"#utility.yul\":6155:6170   */\n      mstore\n        /* \"#utility.yul\":6189:6193   */\n      0x24\n        /* \"#utility.yul\":6186:6187   */\n      0x00\n        /* \"#utility.yul\":6179:6194   */\n      revert\n        /* \"#utility.yul\":6206:6397   */\n    tag_92:\n        /* \"#utility.yul\":6246:6249   */\n      0x00\n        /* \"#utility.yul\":6265:6285   */\n      tag_273\n        /* \"#utility.yul\":6283:6284   */\n      dup3\n        /* \"#utility.yul\":6265:6285   */\n      tag_171\n      jump\t// in\n    tag_273:\n        /* \"#utility.yul\":6260:6285   */\n      swap2\n      pop\n        /* \"#utility.yul\":6299:6319   */\n      tag_274\n        /* \"#utility.yul\":6317:6318   */\n      dup4\n        /* \"#utility.yul\":6299:6319   */\n      tag_171\n      jump\t// in\n    tag_274:\n        /* \"#utility.yul\":6294:6319   */\n      swap3\n      pop\n        /* \"#utility.yul\":6342:6343   */\n      dup3\n        /* \"#utility.yul\":6339:6340   */\n      dup3\n        /* \"#utility.yul\":6335:6344   */\n      add\n        /* \"#utility.yul\":6328:6344   */\n      swap1\n      pop\n        /* \"#utility.yul\":6363:6366   */\n      dup1\n        /* \"#utility.yul\":6360:6361   */\n      dup3\n        /* \"#utility.yul\":6357:6367   */\n      gt\n        /* \"#utility.yul\":6354:6390   */\n      iszero\n      tag_275\n      jumpi\n        /* \"#utility.yul\":6370:6388   */\n      tag_276\n      tag_180\n      jump\t// in\n    tag_276:\n        /* \"#utility.yul\":6354:6390   */\n    tag_275:\n        /* \"#utility.yul\":6206:6397   */\n      swap3\n      swap2\n      pop\n      pop\n      jump\t// out\n        /* \"#utility.yul\":6403:6572   */\n    tag_181:\n        /* \"#utility.yul\":6543:6564   */\n      0x556e617574686f72697a656420456e7469747900000000000000000000000000\n        /* \"#utility.yul\":6539:6540   */\n      0x00\n        /* \"#utility.yul\":6531:6537   */\n      dup3\n        /* \"#utility.yul\":6527:6541   */\n      add\n        /* \"#utility.yul\":6520:6565   */\n      mstore\n        /* \"#utility.yul\":6403:6572   */\n      pop\n      jump\t// out\n        /* \"#utility.yul\":6578:6944   */\n    tag_182:\n        /* \"#utility.yul\":6720:6723   */\n      0x00\n        /* \"#utility.yul\":6741:6808   */\n      tag_279\n        /* \"#utility.yul\":6805:6807   */\n      0x13\n        /* \"#utility.yul\":6800:6803   */\n      dup4\n        /* \"#utility.yul\":6741:6808   */\n      tag_160\n      jump\t// in\n    tag_279:\n        /* \"#utility.yul\":6734:6808   */\n      swap2\n      pop\n        /* \"#utility.yul\":6817:6910   */\n      tag_280\n        /* \"#utility.yul\":6906:6909   */\n      dup3\n        /* \"#utility.yul\":6817:6910   */\n      tag_181\n      jump\t// in\n    tag_280:\n        /* \"#utility.yul\":6935:6937   */\n      0x20\n        /* \"#utility.yul\":6930:6933   */\n      dup3\n        /* \"#utility.yul\":6926:6938   */\n      add\n        /* \"#utility.yul\":6919:6938   */\n      swap1\n      pop\n        /* \"#utility.yul\":6578:6944   */\n      swap2\n      swap1\n      pop\n      jump\t// out\n        /* \"#utility.yul\":6950:7369   */\n    tag_96:\n        /* \"#utility.yul\":7116:7120   */\n      0x00\n        /* \"#utility.yul\":7154:7156   */\n      0x20\n        /* \"#utility.yul\":7143:7152   */\n      dup3\n        /* \"#utility.yul\":7139:7157   */\n      add\n        /* \"#utility.yul\":7131:7157   */\n      swap1\n      pop\n        /* \"#utility.yul\":7203:7212   */\n      dup2\n        /* \"#utility.yul\":7197:7201   */\n      dup2\n        /* \"#utility.yul\":7193:7213   */\n      sub\n        /* \"#utility.yul\":7189:7190   */\n      0x00\n        /* \"#utility.yul\":7178:7187   */\n      dup4\n        /* \"#utility.yul\":7174:7191   */\n      add\n        /* \"#utility.yul\":7167:7214   */\n      mstore\n        /* \"#utility.yul\":7231:7362   */\n      tag_282\n        /* \"#utility.yul\":7357:7361   */\n      dup2\n        /* \"#utility.yul\":7231:7362   */\n      tag_182\n      jump\t// in\n    tag_282:\n        /* \"#utility.yul\":7223:7362   */\n      swap1\n      pop\n        /* \"#utility.yul\":6950:7369   */\n      swap2\n      swap1\n      pop\n      jump\t// out\n        /* \"#utility.yul\":7375:7544   */\n    tag_183:\n        /* \"#utility.yul\":7515:7536   */\n      0x4d415820535550504c5920455843454544454400000000000000000000000000\n        /* \"#utility.yul\":7511:7512   */\n      0x00\n        /* \"#utility.yul\":7503:7509   */\n      dup3\n        /* \"#utility.yul\":7499:7513   */\n      add\n        /* \"#utility.yul\":7492:7537   */\n      mstore\n        /* \"#utility.yul\":7375:7544   */\n      pop\n      jump\t// out\n        /* \"#utility.yul\":7550:7916   */\n    tag_184:\n        /* \"#utility.yul\":7692:7695   */\n      0x00\n        /* \"#utility.yul\":7713:7780   */\n      tag_285\n        /* \"#utility.yul\":7777:7779   */\n      0x13\n        /* \"#utility.yul\":7772:7775   */\n      dup4\n        /* \"#utility.yul\":7713:7780   */\n      tag_160\n      jump\t// in\n    tag_285:\n        /* \"#utility.yul\":7706:7780   */\n      swap2\n      pop\n        /* \"#utility.yul\":7789:7882   */\n      tag_286\n        /* \"#utility.yul\":7878:7881   */\n      dup3\n        /* \"#utility.yul\":7789:7882   */\n      tag_183\n      jump\t// in\n    tag_286:\n        /* \"#utility.yul\":7907:7909   */\n      0x20\n        /* \"#utility.yul\":7902:7905   */\n      dup3\n        /* \"#utility.yul\":7898:7910   */\n      add\n        /* \"#utility.yul\":7891:7910   */\n      swap1\n      pop\n        /* \"#utility.yul\":7550:7916   */\n      swap2\n      swap1\n      pop\n      jump\t// out\n        /* \"#utility.yul\":7922:8341   */\n    tag_102:\n        /* \"#utility.yul\":8088:8092   */\n      0x00\n        /* \"#utility.yul\":8126:8128   */\n      0x20\n        /* \"#utility.yul\":8115:8124   */\n      dup3\n        /* \"#utility.yul\":8111:8129   */\n      add\n        /* \"#utility.yul\":8103:8129   */\n      swap1\n      pop\n        /* \"#utility.yul\":8175:8184   */\n      dup2\n        /* \"#utility.yul\":8169:8173   */\n      dup2\n        /* \"#utility.yul\":8165:8185   */\n      sub\n        /* \"#utility.yul\":8161:8162   */\n      0x00\n        /* \"#utility.yul\":8150:8159   */\n      dup4\n        /* \"#utility.yul\":8146:8163   */\n      add\n        /* \"#utility.yul\":8139:8186   */\n      mstore\n        /* \"#utility.yul\":8203:8334   */\n      tag_288\n        /* \"#utility.yul\":8329:8333   */\n      dup2\n        /* \"#utility.yul\":8203:8334   */\n      tag_184\n      jump\t// in\n    tag_288:\n        /* \"#utility.yul\":8195:8334   */\n      swap1\n      pop\n        /* \"#utility.yul\":7922:8341   */\n      swap2\n      swap1\n      pop\n      jump\t// out\n        /* \"#utility.yul\":8347:8571   */\n    tag_185:\n        /* \"#utility.yul\":8487:8521   */\n      0x45524332303a2064656372656173656420616c6c6f77616e63652062656c6f77\n        /* \"#utility.yul\":8483:8484   */\n      0x00\n        /* \"#utility.yul\":8475:8481   */\n      dup3\n        /* \"#utility.yul\":8471:8485   */\n      add\n        /* \"#utility.yul\":8464:8522   */\n      mstore\n        /* \"#utility.yul\":8556:8563   */\n      0x207a65726f000000000000000000000000000000000000000000000000000000\n        /* \"#utility.yul\":8551:8553   */\n      0x20\n        /* \"#utility.yul\":8543:8549   */\n      dup3\n        /* \"#utility.yul\":8539:8554   */\n      add\n        /* \"#utility.yul\":8532:8564   */\n      mstore\n        /* \"#utility.yul\":8347:8571   */\n      pop\n      jump\t// out\n        /* \"#utility.yul\":8577:8943   */\n    tag_186:\n        /* \"#utility.yul\":8719:8722   */\n      0x00\n        /* \"#utility.yul\":8740:8807   */\n      tag_291\n        /* \"#utility.yul\":8804:8806   */\n      0x25\n        /* \"#utility.yul\":8799:8802   */\n      dup4\n        /* \"#utility.yul\":8740:8807   */\n      tag_160\n      jump\t// in\n    tag_291:\n        /* \"#utility.yul\":8733:8807   */\n      swap2\n      pop\n        /* \"#utility.yul\":8816:8909   */\n      tag_292\n        /* \"#utility.yul\":8905:8908   */\n      dup3\n        /* \"#utility.yul\":8816:8909   */\n      tag_185\n      jump\t// in\n    tag_292:\n        /* \"#utility.yul\":8934:8936   */\n      0x40\n        /* \"#utility.yul\":8929:8932   */\n      dup3\n        /* \"#utility.yul\":8925:8937   */\n      add\n        /* \"#utility.yul\":8918:8937   */\n      swap1\n      pop\n        /* \"#utility.yul\":8577:8943   */\n      swap2\n      swap1\n      pop\n      jump\t// out\n        /* \"#utility.yul\":8949:9368   */\n    tag_112:\n        /* \"#utility.yul\":9115:9119   */\n      0x00\n        /* \"#utility.yul\":9153:9155   */\n      0x20\n        /* \"#utility.yul\":9142:9151   */\n      dup3\n        /* \"#utility.yul\":9138:9156   */\n      add\n        /* \"#utility.yul\":9130:9156   */\n      swap1\n      pop\n        /* \"#utility.yul\":9202:9211   */\n      dup2\n        /* \"#utility.yul\":9196:9200   */\n      dup2\n        /* \"#utility.yul\":9192:9212   */\n      sub\n        /* \"#utility.yul\":9188:9189   */\n      0x00\n        /* \"#utility.yul\":9177:9186   */\n      dup4\n        /* \"#utility.yul\":9173:9190   */\n      add\n        /* \"#utility.yul\":9166:9213   */\n      mstore\n        /* \"#utility.yul\":9230:9361   */\n      tag_294\n        /* \"#utility.yul\":9356:9360   */\n      dup2\n        /* \"#utility.yul\":9230:9361   */\n      tag_186\n      jump\t// in\n    tag_294:\n        /* \"#utility.yul\":9222:9361   */\n      swap1\n      pop\n        /* \"#utility.yul\":8949:9368   */\n      swap2\n      swap1\n      pop\n      jump\t// out\n        /* \"#utility.yul\":9374:9597   */\n    tag_187:\n        /* \"#utility.yul\":9514:9548   */\n      0x45524332303a20617070726f76652066726f6d20746865207a65726f20616464\n        /* \"#utility.yul\":9510:9511   */\n      0x00\n        /* \"#utility.yul\":9502:9508   */\n      dup3\n        /* \"#utility.yul\":9498:9512   */\n      add\n        /* \"#utility.yul\":9491:9549   */\n      mstore\n        /* \"#utility.yul\":9583:9589   */\n      0x7265737300000000000000000000000000000000000000000000000000000000\n        /* \"#utility.yul\":9578:9580   */\n      0x20\n        /* \"#utility.yul\":9570:9576   */\n      dup3\n        /* \"#utility.yul\":9566:9581   */\n      add\n        /* \"#utility.yul\":9559:9590   */\n      mstore\n        /* \"#utility.yul\":9374:9597   */\n      pop\n      jump\t// out\n        /* \"#utility.yul\":9603:9969   */\n    tag_188:\n        /* \"#utility.yul\":9745:9748   */\n      0x00\n        /* \"#utility.yul\":9766:9833   */\n      tag_297\n        /* \"#utility.yul\":9830:9832   */\n      0x24\n        /* \"#utility.yul\":9825:9828   */\n      dup4\n        /* \"#utility.yul\":9766:9833   */\n      tag_160\n      jump\t// in\n    tag_297:\n        /* \"#utility.yul\":9759:9833   */\n      swap2\n      pop\n        /* \"#utility.yul\":9842:9935   */\n      tag_298\n        /* \"#utility.yul\":9931:9934   */\n      dup3\n        /* \"#utility.yul\":9842:9935   */\n      tag_187\n      jump\t// in\n    tag_298:\n        /* \"#utility.yul\":9960:9962   */\n      0x40\n        /* \"#utility.yul\":9955:9958   */\n      dup3\n        /* \"#utility.yul\":9951:9963   */\n      add\n        /* \"#utility.yul\":9944:9963   */\n      swap1\n      pop\n        /* \"#utility.yul\":9603:9969   */\n      swap2\n      swap1\n      pop\n      jump\t// out\n        /* \"#utility.yul\":9975:10394   */\n    tag_122:\n        /* \"#utility.yul\":10141:10145   */\n      0x00\n        /* \"#utility.yul\":10179:10181   */\n      0x20\n        /* \"#utility.yul\":10168:10177   */\n      dup3\n        /* \"#utility.yul\":10164:10182   */\n      add\n        /* \"#utility.yul\":10156:10182   */\n      swap1\n      pop\n        /* \"#utility.yul\":10228:10237   */\n      dup2\n        /* \"#utility.yul\":10222:10226   */\n      dup2\n        /* \"#utility.yul\":10218:10238   */\n      sub\n        /* \"#utility.yul\":10214:10215   */\n      0x00\n        /* \"#utility.yul\":10203:10212   */\n      dup4\n        /* \"#utility.yul\":10199:10216   */\n      add\n        /* \"#utility.yul\":10192:10239   */\n      mstore\n        /* \"#utility.yul\":10256:10387   */\n      tag_300\n        /* \"#utility.yul\":10382:10386   */\n      dup2\n        /* \"#utility.yul\":10256:10387   */\n      tag_188\n      jump\t// in\n    tag_300:\n        /* \"#utility.yul\":10248:10387   */\n      swap1\n      pop\n        /* \"#utility.yul\":9975:10394   */\n      swap2\n      swap1\n      pop\n      jump\t// out\n        /* \"#utility.yul\":10400:10621   */\n    tag_189:\n        /* \"#utility.yul\":10540:10574   */\n      0x45524332303a20617070726f766520746f20746865207a65726f206164647265\n        /* \"#utility.yul\":10536:10537   */\n      0x00\n        /* \"#utility.yul\":10528:10534   */\n      dup3\n        /* \"#utility.yul\":10524:10538   */\n      add\n        /* \"#utility.yul\":10517:10575   */\n      mstore\n        /* \"#utility.yul\":10609:10613   */\n      0x7373000000000000000000000000000000000000000000000000000000000000\n        /* \"#utility.yul\":10604:10606   */\n      0x20\n        /* \"#utility.yul\":10596:10602   */\n      dup3\n        /* \"#utility.yul\":10592:10607   */\n      add\n        /* \"#utility.yul\":10585:10614   */\n      mstore\n        /* \"#utility.yul\":10400:10621   */\n      pop\n      jump\t// out\n        /* \"#utility.yul\":10627:10993   */\n    tag_190:\n        /* \"#utility.yul\":10769:10772   */\n      0x00\n        /* \"#utility.yul\":10790:10857   */\n      tag_303\n        /* \"#utility.yul\":10854:10856   */\n      0x22\n        /* \"#utility.yul\":10849:10852   */\n      dup4\n        /* \"#utility.yul\":10790:10857   */\n      tag_160\n      jump\t// in\n    tag_303:\n        /* \"#utility.yul\":10783:10857   */\n      swap2\n      pop\n        /* \"#utility.yul\":10866:10959   */\n      tag_304\n        /* \"#utility.yul\":10955:10958   */\n      dup3\n        /* \"#utility.yul\":10866:10959   */\n      tag_189\n      jump\t// in\n    tag_304:\n        /* \"#utility.yul\":10984:10986   */\n      0x40\n        /* \"#utility.yul\":10979:10982   */\n      dup3\n        /* \"#utility.yul\":10975:10987   */\n      add\n        /* \"#utility.yul\":10968:10987   */\n      swap1\n      pop\n        /* \"#utility.yul\":10627:10993   */\n      swap2\n      swap1\n      pop\n      jump\t// out\n        /* \"#utility.yul\":10999:11418   */\n    tag_125:\n        /* \"#utility.yul\":11165:11169   */\n      0x00\n        /* \"#utility.yul\":11203:11205   */\n      0x20\n        /* \"#utility.yul\":11192:11201   */\n      dup3\n        /* \"#utility.yul\":11188:11206   */\n      add\n        /* \"#utility.yul\":11180:11206   */\n      swap1\n      pop\n        /* \"#utility.yul\":11252:11261   */\n      dup2\n        /* \"#utility.yul\":11246:11250   */\n      dup2\n        /* \"#utility.yul\":11242:11262   */\n      sub\n        /* \"#utility.yul\":11238:11239   */\n      0x00\n        /* \"#utility.yul\":11227:11236   */\n      dup4\n        /* \"#utility.yul\":11223:11240   */\n      add\n        /* \"#utility.yul\":11216:11263   */\n      mstore\n        /* \"#utility.yul\":11280:11411   */\n      tag_306\n        /* \"#utility.yul\":11406:11410   */\n      dup2\n        /* \"#utility.yul\":11280:11411   */\n      tag_190\n      jump\t// in\n    tag_306:\n        /* \"#utility.yul\":11272:11411   */\n      swap1\n      pop\n        /* \"#utility.yul\":10999:11418   */\n      swap2\n      swap1\n      pop\n      jump\t// out\n        /* \"#utility.yul\":11424:11603   */\n    tag_191:\n        /* \"#utility.yul\":11564:11595   */\n      0x45524332303a20696e73756666696369656e7420616c6c6f77616e6365000000\n        /* \"#utility.yul\":11560:11561   */\n      0x00\n        /* \"#utility.yul\":11552:11558   */\n      dup3\n        /* \"#utility.yul\":11548:11562   */\n      add\n        /* \"#utility.yul\":11541:11596   */\n      mstore\n        /* \"#utility.yul\":11424:11603   */\n      pop\n      jump\t// out\n        /* \"#utility.yul\":11609:11975   */\n    tag_192:\n        /* \"#utility.yul\":11751:11754   */\n      0x00\n        /* \"#utility.yul\":11772:11839   */\n      tag_309\n        /* \"#utility.yul\":11836:11838   */\n      0x1d\n        /* \"#utility.yul\":11831:11834   */\n      dup4\n        /* \"#utility.yul\":11772:11839   */\n      tag_160\n      jump\t// in\n    tag_309:\n        /* \"#utility.yul\":11765:11839   */\n      swap2\n      pop\n        /* \"#utility.yul\":11848:11941   */\n      tag_310\n        /* \"#utility.yul\":11937:11940   */\n      dup3\n        /* \"#utility.yul\":11848:11941   */\n      tag_191\n      jump\t// in\n    tag_310:\n        /* \"#utility.yul\":11966:11968   */\n      0x20\n        /* \"#utility.yul\":11961:11964   */\n      dup3\n        /* \"#utility.yul\":11957:11969   */\n      add\n        /* \"#utility.yul\":11950:11969   */\n      swap1\n      pop\n        /* \"#utility.yul\":11609:11975   */\n      swap2\n      swap1\n      pop\n      jump\t// out\n        /* \"#utility.yul\":11981:12400   */\n    tag_132:\n        /* \"#utility.yul\":12147:12151   */\n      0x00\n        /* \"#utility.yul\":12185:12187   */\n      0x20\n        /* \"#utility.yul\":12174:12183   */\n      dup3\n        /* \"#utility.yul\":12170:12188   */\n      add\n        /* \"#utility.yul\":12162:12188   */\n      swap1\n      pop\n        /* \"#utility.yul\":12234:12243   */\n      dup2\n        /* \"#utility.yul\":12228:12232   */\n      dup2\n        /* \"#utility.yul\":12224:12244   */\n      sub\n        /* \"#utility.yul\":12220:12221   */\n      0x00\n        /* \"#utility.yul\":12209:12218   */\n      dup4\n        /* \"#utility.yul\":12205:12222   */\n      add\n        /* \"#utility.yul\":12198:12245   */\n      mstore\n        /* \"#utility.yul\":12262:12393   */\n      tag_312\n        /* \"#utility.yul\":12388:12392   */\n      dup2\n        /* \"#utility.yul\":12262:12393   */\n      tag_192\n      jump\t// in\n    tag_312:\n        /* \"#utility.yul\":12254:12393   */\n      swap1\n      pop\n        /* \"#utility.yul\":11981:12400   */\n      swap2\n      swap1\n      pop\n      jump\t// out\n        /* \"#utility.yul\":12406:12630   */\n    tag_193:\n        /* \"#utility.yul\":12546:12580   */\n      0x45524332303a207472616e736665722066726f6d20746865207a65726f206164\n        /* \"#utility.yul\":12542:12543   */\n      0x00\n        /* \"#utility.yul\":12534:12540   */\n      dup3\n        /* \"#utility.yul\":12530:12544   */\n      add\n        /* \"#utility.yul\":12523:12581   */\n      mstore\n        /* \"#utility.yul\":12615:12622   */\n      0x6472657373000000000000000000000000000000000000000000000000000000\n        /* \"#utility.yul\":12610:12612   */\n      0x20\n        /* \"#utility.yul\":12602:12608   */\n      dup3\n        /* \"#utility.yul\":12598:12613   */\n      add\n        /* \"#utility.yul\":12591:12623   */\n      mstore\n        /* \"#utility.yul\":12406:12630   */\n      pop\n      jump\t// out\n        /* \"#utility.yul\":12636:13002   */\n    tag_194:\n        /* \"#utility.yul\":12778:12781   */\n      0x00\n        /* \"#utility.yul\":12799:12866   */\n      tag_315\n        /* \"#utility.yul\":12863:12865   */\n      0x25\n        /* \"#utility.yul\":12858:12861   */\n      dup4\n        /* \"#utility.yul\":12799:12866   */\n      tag_160\n      jump\t// in\n    tag_315:\n        /* \"#utility.yul\":12792:12866   */\n      swap2\n      pop\n        /* \"#utility.yul\":12875:12968   */\n      tag_316\n        /* \"#utility.yul\":12964:12967   */\n      dup3\n        /* \"#utility.yul\":12875:12968   */\n      tag_193\n      jump\t// in\n    tag_316:\n        /* \"#utility.yul\":12993:12995   */\n      0x40\n        /* \"#utility.yul\":12988:12991   */\n      dup3\n        /* \"#utility.yul\":12984:12996   */\n      add\n        /* \"#utility.yul\":12977:12996   */\n      swap1\n      pop\n        /* \"#utility.yul\":12636:13002   */\n      swap2\n      swap1\n      pop\n      jump\t// out\n        /* \"#utility.yul\":13008:13427   */\n    tag_137:\n        /* \"#utility.yul\":13174:13178   */\n      0x00\n        /* \"#utility.yul\":13212:13214   */\n      0x20\n        /* \"#utility.yul\":13201:13210   */\n      dup3\n        /* \"#utility.yul\":13197:13215   */\n      add\n        /* \"#utility.yul\":13189:13215   */\n      swap1\n      pop\n        /* \"#utility.yul\":13261:13270   */\n      dup2\n        /* \"#utility.yul\":13255:13259   */\n      dup2\n        /* \"#utility.yul\":13251:13271   */\n      sub\n        /* \"#utility.yul\":13247:13248   */\n      0x00\n        /* \"#utility.yul\":13236:13245   */\n      dup4\n        /* \"#utility.yul\":13232:13249   */\n      add\n        /* \"#utility.yul\":13225:13272   */\n      mstore\n        /* \"#utility.yul\":13289:13420   */\n      tag_318\n        /* \"#utility.yul\":13415:13419   */\n      dup2\n        /* \"#utility.yul\":13289:13420   */\n      tag_194\n      jump\t// in\n    tag_318:\n        /* \"#utility.yul\":13281:13420   */\n      swap1\n      pop\n        /* \"#utility.yul\":13008:13427   */\n      swap2\n      swap1\n      pop\n      jump\t// out\n        /* \"#utility.yul\":13433:13655   */\n    tag_195:\n        /* \"#utility.yul\":13573:13607   */\n      0x45524332303a207472616e7366657220746f20746865207a65726f2061646472\n        /* \"#utility.yul\":13569:13570   */\n      0x00\n        /* \"#utility.yul\":13561:13567   */\n      dup3\n        /* \"#utility.yul\":13557:13571   */\n      add\n        /* \"#utility.yul\":13550:13608   */\n      mstore\n        /* \"#utility.yul\":13642:13647   */\n      0x6573730000000000000000000000000000000000000000000000000000000000\n        /* \"#utility.yul\":13637:13639   */\n      0x20\n        /* \"#utility.yul\":13629:13635   */\n      dup3\n        /* \"#utility.yul\":13625:13640   */\n      add\n        /* \"#utility.yul\":13618:13648   */\n      mstore\n        /* \"#utility.yul\":13433:13655   */\n      pop\n      jump\t// out\n        /* \"#utility.yul\":13661:14027   */\n    tag_196:\n        /* \"#utility.yul\":13803:13806   */\n      0x00\n        /* \"#utility.yul\":13824:13891   */\n      tag_321\n        /* \"#utility.yul\":13888:13890   */\n      0x23\n        /* \"#utility.yul\":13883:13886   */\n      dup4\n        /* \"#utility.yul\":13824:13891   */\n      tag_160\n      jump\t// in\n    tag_321:\n        /* \"#utility.yul\":13817:13891   */\n      swap2\n      pop\n        /* \"#utility.yul\":13900:13993   */\n      tag_322\n        /* \"#utility.yul\":13989:13992   */\n      dup3\n        /* \"#utility.yul\":13900:13993   */\n      tag_195\n      jump\t// in\n    tag_322:\n        /* \"#utility.yul\":14018:14020   */\n      0x40\n        /* \"#utility.yul\":14013:14016   */\n      dup3\n        /* \"#utility.yul\":14009:14021   */\n      add\n        /* \"#utility.yul\":14002:14021   */\n      swap1\n      pop\n        /* \"#utility.yul\":13661:14027   */\n      swap2\n      swap1\n      pop\n      jump\t// out\n        /* \"#utility.yul\":14033:14452   */\n    tag_140:\n        /* \"#utility.yul\":14199:14203   */\n      0x00\n        /* \"#utility.yul\":14237:14239   */\n      0x20\n        /* \"#utility.yul\":14226:14235   */\n      dup3\n        /* \"#utility.yul\":14222:14240   */\n      add\n        /* \"#utility.yul\":14214:14240   */\n      swap1\n      pop\n        /* \"#utility.yul\":14286:14295   */\n      dup2\n        /* \"#utility.yul\":14280:14284   */\n      dup2\n        /* \"#utility.yul\":14276:14296   */\n      sub\n        /* \"#utility.yul\":14272:14273   */\n      0x00\n        /* \"#utility.yul\":14261:14270   */\n      dup4\n        /* \"#utility.yul\":14257:14274   */\n      add\n        /* \"#utility.yul\":14250:14297   */\n      mstore\n        /* \"#utility.yul\":14314:14445   */\n      tag_324\n        /* \"#utility.yul\":14440:14444   */\n      dup2\n        /* \"#utility.yul\":14314:14445   */\n      tag_196\n      jump\t// in\n    tag_324:\n        /* \"#utility.yul\":14306:14445   */\n      swap1\n      pop\n        /* \"#utility.yul\":14033:14452   */\n      swap2\n      swap1\n      pop\n      jump\t// out\n        /* \"#utility.yul\":14458:14683   */\n    tag_197:\n        /* \"#utility.yul\":14598:14632   */\n      0x45524332303a207472616e7366657220616d6f756e7420657863656564732062\n        /* \"#utility.yul\":14594:14595   */\n      0x00\n        /* \"#utility.yul\":14586:14592   */\n      dup3\n        /* \"#utility.yul\":14582:14596   */\n      add\n        /* \"#utility.yul\":14575:14633   */\n      mstore\n        /* \"#utility.yul\":14667:14675   */\n      0x616c616e63650000000000000000000000000000000000000000000000000000\n        /* \"#utility.yul\":14662:14664   */\n      0x20\n        /* \"#utility.yul\":14654:14660   */\n      dup3\n        /* \"#utility.yul\":14650:14665   */\n      add\n        /* \"#utility.yul\":14643:14676   */\n      mstore\n        /* \"#utility.yul\":14458:14683   */\n      pop\n      jump\t// out\n        /* \"#utility.yul\":14689:15055   */\n    tag_198:\n        /* \"#utility.yul\":14831:14834   */\n      0x00\n        /* \"#utility.yul\":14852:14919   */\n      tag_327\n        /* \"#utility.yul\":14916:14918   */\n      0x26\n        /* \"#utility.yul\":14911:14914   */\n      dup4\n        /* \"#utility.yul\":14852:14919   */\n      tag_160\n      jump\t// in\n    tag_327:\n        /* \"#utility.yul\":14845:14919   */\n      swap2\n      pop\n        /* \"#utility.yul\":14928:15021   */\n      tag_328\n        /* \"#utility.yul\":15017:15020   */\n      dup3\n        /* \"#utility.yul\":14928:15021   */\n      tag_197\n      jump\t// in\n    tag_328:\n        /* \"#utility.yul\":15046:15048   */\n      0x40\n        /* \"#utility.yul\":15041:15044   */\n      dup3\n        /* \"#utility.yul\":15037:15049   */\n      add\n        /* \"#utility.yul\":15030:15049   */\n      swap1\n      pop\n        /* \"#utility.yul\":14689:15055   */\n      swap2\n      swap1\n      pop\n      jump\t// out\n        /* \"#utility.yul\":15061:15480   */\n    tag_145:\n        /* \"#utility.yul\":15227:15231   */\n      0x00\n        /* \"#utility.yul\":15265:15267   */\n      0x20\n        /* \"#utility.yul\":15254:15263   */\n      dup3\n        /* \"#utility.yul\":15250:15268   */\n      add\n        /* \"#utility.yul\":15242:15268   */\n      swap1\n      pop\n        /* \"#utility.yul\":15314:15323   */\n      dup2\n        /* \"#utility.yul\":15308:15312   */\n      dup2\n        /* \"#utility.yul\":15304:15324   */\n      sub\n        /* \"#utility.yul\":15300:15301   */\n      0x00\n        /* \"#utility.yul\":15289:15298   */\n      dup4\n        /* \"#utility.yul\":15285:15302   */\n      add\n        /* \"#utility.yul\":15278:15325   */\n      mstore\n        /* \"#utility.yul\":15342:15473   */\n      tag_330\n        /* \"#utility.yul\":15468:15472   */\n      dup2\n        /* \"#utility.yul\":15342:15473   */\n      tag_198\n      jump\t// in\n    tag_330:\n        /* \"#utility.yul\":15334:15473   */\n      swap1\n      pop\n        /* \"#utility.yul\":15061:15480   */\n      swap2\n      swap1\n      pop\n      jump\t// out\n        /* \"#utility.yul\":15486:15667   */\n    tag_199:\n        /* \"#utility.yul\":15626:15659   */\n      0x45524332303a206d696e7420746f20746865207a65726f206164647265737300\n        /* \"#utility.yul\":15622:15623   */\n      0x00\n        /* \"#utility.yul\":15614:15620   */\n      dup3\n        /* \"#utility.yul\":15610:15624   */\n      add\n        /* \"#utility.yul\":15603:15660   */\n      mstore\n        /* \"#utility.yul\":15486:15667   */\n      pop\n      jump\t// out\n        /* \"#utility.yul\":15673:16039   */\n    tag_200:\n        /* \"#utility.yul\":15815:15818   */\n      0x00\n        /* \"#utility.yul\":15836:15903   */\n      tag_333\n        /* \"#utility.yul\":15900:15902   */\n      0x1f\n        /* \"#utility.yul\":15895:15898   */\n      dup4\n        /* \"#utility.yul\":15836:15903   */\n      tag_160\n      jump\t// in\n    tag_333:\n        /* \"#utility.yul\":15829:15903   */\n      swap2\n      pop\n        /* \"#utility.yul\":15912:16005   */\n      tag_334\n        /* \"#utility.yul\":16001:16004   */\n      dup3\n        /* \"#utility.yul\":15912:16005   */\n      tag_199\n      jump\t// in\n    tag_334:\n        /* \"#utility.yul\":16030:16032   */\n      0x20\n        /* \"#utility.yul\":16025:16028   */\n      dup3\n        /* \"#utility.yul\":16021:16033   */\n      add\n        /* \"#utility.yul\":16014:16033   */\n      swap1\n      pop\n        /* \"#utility.yul\":15673:16039   */\n      swap2\n      swap1\n      pop\n      jump\t// out\n        /* \"#utility.yul\":16045:16464   */\n    tag_152:\n        /* \"#utility.yul\":16211:16215   */\n      0x00\n        /* \"#utility.yul\":16249:16251   */\n      0x20\n        /* \"#utility.yul\":16238:16247   */\n      dup3\n        /* \"#utility.yul\":16234:16252   */\n      add\n        /* \"#utility.yul\":16226:16252   */\n      swap1\n      pop\n        /* \"#utility.yul\":16298:16307   */\n      dup2\n        /* \"#utility.yul\":16292:16296   */\n      dup2\n        /* \"#utility.yul\":16288:16308   */\n      sub\n        /* \"#utility.yul\":16284:16285   */\n      0x00\n        /* \"#utility.yul\":16273:16282   */\n      dup4\n        /* \"#utility.yul\":16269:16286   */\n      add\n        /* \"#utility.yul\":16262:16309   */\n      mstore\n        /* \"#utility.yul\":16326:16457   */\n      tag_336\n        /* \"#utility.yul\":16452:16456   */\n      dup2\n        /* \"#utility.yul\":16326:16457   */\n      tag_200\n      jump\t// in\n    tag_336:\n        /* \"#utility.yul\":16318:16457   */\n      swap1\n      pop\n        /* \"#utility.yul\":16045:16464   */\n      swap2\n      swap1\n      pop\n      jump\t// out\n\n    auxdata: 0xa264697066735822122037d18f34a4ed736d78ef42bd0555496ca9905a2d40690c64ee1c26514eace73464736f6c63430008170033\n}\n",
				"bytecode": {
					"linkReferences": {},
					"object": "608060405234801562000010575f80fd5b506040518060400160405280600881526020017f42554e4e5f44414f0000000000000000000000000000000000000000000000008152506040518060400160405280600481526020017f4244414f0000000000000000000000000000000000000000000000000000000081525081600390816200008e91906200038b565b508060049081620000a091906200038b565b5050503360065f6101000a81548173ffffffffffffffffffffffffffffffffffffffff021916908373ffffffffffffffffffffffffffffffffffffffff160217905550620000f36200011f60201b60201c565b600a620001019190620005f8565b6402540be40062000113919062000648565b60058190555062000692565b5f6012905090565b5f81519050919050565b7f4e487b71000000000000000000000000000000000000000000000000000000005f52604160045260245ffd5b7f4e487b71000000000000000000000000000000000000000000000000000000005f52602260045260245ffd5b5f6002820490506001821680620001a357607f821691505b602082108103620001b957620001b86200015e565b5b50919050565b5f819050815f5260205f209050919050565b5f6020601f8301049050919050565b5f82821b905092915050565b5f600883026200021d7fffffffffffffffffffffffffffffffffffffffffffffffffffffffffffffffff82620001e0565b620002298683620001e0565b95508019841693508086168417925050509392505050565b5f819050919050565b5f819050919050565b5f620002736200026d620002678462000241565b6200024a565b62000241565b9050919050565b5f819050919050565b6200028e8362000253565b620002a66200029d826200027a565b848454620001ec565b825550505050565b5f90565b620002bc620002ae565b620002c981848462000283565b505050565b5b81811015620002f057620002e45f82620002b2565b600181019050620002cf565b5050565b601f8211156200033f576200030981620001bf565b6200031484620001d1565b8101602085101562000324578190505b6200033c6200033385620001d1565b830182620002ce565b50505b505050565b5f82821c905092915050565b5f620003615f198460080262000344565b1980831691505092915050565b5f6200037b838362000350565b9150826002028217905092915050565b620003968262000127565b67ffffffffffffffff811115620003b257620003b162000131565b5b620003be82546200018b565b620003cb828285620002f4565b5f60209050601f83116001811462000401575f8415620003ec578287015190505b620003f885826200036e565b86555062000467565b601f1984166200041186620001bf565b5f5b828110156200043a5784890151825560018201915060208501945060208101905062000413565b868310156200045a578489015162000456601f89168262000350565b8355505b6001600288020188555050505b505050505050565b7f4e487b71000000000000000000000000000000000000000000000000000000005f52601160045260245ffd5b5f8160011c9050919050565b5f808291508390505b6001851115620004f957808604811115620004d157620004d06200046f565b5b6001851615620004e15780820291505b8081029050620004f1856200049c565b9450620004b1565b94509492505050565b5f82620005135760019050620005e5565b8162000522575f9050620005e5565b81600181146200053b576002811462000546576200057c565b6001915050620005e5565b60ff8411156200055b576200055a6200046f565b5b8360020a9150848211156200057557620005746200046f565b5b50620005e5565b5060208310610133831016604e8410600b8410161715620005b65782820a905083811115620005b057620005af6200046f565b5b620005e5565b620005c58484846001620004a8565b92509050818404811115620005df57620005de6200046f565b5b81810290505b9392505050565b5f60ff82169050919050565b5f620006048262000241565b91506200061183620005ec565b9250620006407fffffffffffffffffffffffffffffffffffffffffffffffffffffffffffffffff848462000502565b905092915050565b5f620006548262000241565b9150620006618362000241565b9250828202620006718162000241565b915082820484148315176200068b576200068a6200046f565b5b5092915050565b6114e780620006a05f395ff3fe608060405234801561000f575f80fd5b50600436106100cd575f3560e01c806340c10f191161008a57806395d89b411161006457806395d89b4114610225578063a457c2d714610243578063a9059cbb14610273578063dd62ed3e146102a3576100cd565b806340c10f19146101bb57806370a08231146101d75780638da5cb5b14610207576100cd565b806306fdde03146100d1578063095ea7b3146100ef57806318160ddd1461011f57806323b872dd1461013d578063313ce5671461016d578063395093511461018b575b5f80fd5b6100d96102d3565b6040516100e69190610cfe565b60405180910390f35b61010960048036038101906101049190610daf565b610310565b6040516101169190610e07565b60405180910390f35b610127610332565b6040516101349190610e2f565b60405180910390f35b61015760048036038101906101529190610e48565b61033b565b6040516101649190610e07565b60405180910390f35b610175610369565b6040516101829190610eb3565b60405180910390f35b6101a560048036038101906101a09190610daf565b610371565b6040516101b29190610e07565b60405180910390f35b6101d560048036038101906101d09190610daf565b6103a7565b005b6101f160048036038101906101ec9190610ecc565b61049b565b6040516101fe9190610e2f565b60405180910390f35b61020f6104e0565b60405161021c9190610f06565b60405180910390f35b61022d610505565b60405161023a9190610cfe565b60405180910390f35b61025d60048036038101906102589190610daf565b610542565b60405161026a9190610e07565b60405180910390f35b61028d60048036038101906102889190610daf565b6105b7565b60405161029a9190610e07565b60405180910390f35b6102bd60048036038101906102b89190610f1f565b6105d9565b6040516102ca9190610e2f565b60405180910390f35b60606040518060400160405280600a81526020017f4f4e5755414a5545534500000000000000000000000000000000000000000000815250905090565b5f8061031a61065b565b9050610327818585610662565b600191505092915050565b5f600254905090565b5f8061034561065b565b9050610352858285610825565b61035d8585856108b0565b60019150509392505050565b5f6012905090565b5f8061037b61065b565b905061039c81858561038d85896105d9565b6103979190610f8a565b610662565b600191505092915050565b60065f9054906101000a900473ffffffffffffffffffffffffffffffffffffffff1673ffffffffffffffffffffffffffffffffffffffff163373ffffffffffffffffffffffffffffffffffffffff1614610436576040517f08c379a000000000000000000000000000000000000000000000000000000000815260040161042d90611007565b60405180910390fd5b60055481610442610332565b61044c9190610f8a565b111561048d576040517f08c379a00000000000000000000000000000000000000000000000000000000081526004016104849061106f565b60405180910390fd5b6104978282610b1c565b5050565b5f805f8373ffffffffffffffffffffffffffffffffffffffff1673ffffffffffffffffffffffffffffffffffffffff1681526020019081526020015f20549050919050565b60065f9054906101000a900473ffffffffffffffffffffffffffffffffffffffff1681565b60606040518060400160405280600481526020017f42554e4e00000000000000000000000000000000000000000000000000000000815250905090565b5f8061054c61065b565b90505f61055982866105d9565b90508381101561059e576040517f08c379a0000000000000000000000000000000000000000000000000000000008152600401610595906110fd565b60405180910390fd5b6105ab8286868403610662565b60019250505092915050565b5f806105c161065b565b90506105ce8185856108b0565b600191505092915050565b5f60015f8473ffffffffffffffffffffffffffffffffffffffff1673ffffffffffffffffffffffffffffffffffffffff1681526020019081526020015f205f8373ffffffffffffffffffffffffffffffffffffffff1673ffffffffffffffffffffffffffffffffffffffff1681526020019081526020015f2054905092915050565b5f33905090565b5f73ffffffffffffffffffffffffffffffffffffffff168373ffffffffffffffffffffffffffffffffffffffff16036106d0576040517f08c379a00000000000000000000000000000000000000000000000000000000081526004016106c79061118b565b60405180910390fd5b5f73ffffffffffffffffffffffffffffffffffffffff168273ffffffffffffffffffffffffffffffffffffffff160361073e576040517f08c379a000000000000000000000000000000000000000000000000000000000815260040161073590611219565b60405180910390fd5b8060015f8573ffffffffffffffffffffffffffffffffffffffff1673ffffffffffffffffffffffffffffffffffffffff1681526020019081526020015f205f8473ffffffffffffffffffffffffffffffffffffffff1673ffffffffffffffffffffffffffffffffffffffff1681526020019081526020015f20819055508173ffffffffffffffffffffffffffffffffffffffff168373ffffffffffffffffffffffffffffffffffffffff167f8c5be1e5ebec7d5bd14f71427d1e84f3dd0314c0f7b2291e5b200ac8c7c3b925836040516108189190610e2f565b60405180910390a3505050565b5f61083084846105d9565b90507fffffffffffffffffffffffffffffffffffffffffffffffffffffffffffffffff81146108aa578181101561089c576040517f08c379a000000000000000000000000000000000000000000000000000000000815260040161089390611281565b60405180910390fd5b6108a98484848403610662565b5b50505050565b5f73ffffffffffffffffffffffffffffffffffffffff168373ffffffffffffffffffffffffffffffffffffffff160361091e576040517f08c379a00000000000000000000000000000000000000000000000000000000081526004016109159061130f565b60405180910390fd5b5f73ffffffffffffffffffffffffffffffffffffffff168273ffffffffffffffffffffffffffffffffffffffff160361098c576040517f08c379a00000000000000000000000000000000000000000000000000000000081526004016109839061139d565b60405180910390fd5b610997838383610c6a565b5f805f8573ffffffffffffffffffffffffffffffffffffffff1673ffffffffffffffffffffffffffffffffffffffff1681526020019081526020015f2054905081811015610a1a576040517f08c379a0000000000000000000000000000000000000000000000000000000008152600401610a119061142b565b60405180910390fd5b8181035f808673ffffffffffffffffffffffffffffffffffffffff1673ffffffffffffffffffffffffffffffffffffffff1681526020019081526020015f2081905550815f808573ffffffffffffffffffffffffffffffffffffffff1673ffffffffffffffffffffffffffffffffffffffff1681526020019081526020015f205f82825401925050819055508273ffffffffffffffffffffffffffffffffffffffff168473ffffffffffffffffffffffffffffffffffffffff167fddf252ad1be2c89b69c2b068fc378daa952ba7f163c4a11628f55a4df523b3ef84604051610b039190610e2f565b60405180910390a3610b16848484610c6f565b50505050565b5f73ffffffffffffffffffffffffffffffffffffffff168273ffffffffffffffffffffffffffffffffffffffff1603610b8a576040517f08c379a0000000000000000000000000000000000000000000000000000000008152600401610b8190611493565b60405180910390fd5b610b955f8383610c6a565b8060025f828254610ba69190610f8a565b92505081905550805f808473ffffffffffffffffffffffffffffffffffffffff1673ffffffffffffffffffffffffffffffffffffffff1681526020019081526020015f205f82825401925050819055508173ffffffffffffffffffffffffffffffffffffffff165f73ffffffffffffffffffffffffffffffffffffffff167fddf252ad1be2c89b69c2b068fc378daa952ba7f163c4a11628f55a4df523b3ef83604051610c539190610e2f565b60405180910390a3610c665f8383610c6f565b5050565b505050565b505050565b5f81519050919050565b5f82825260208201905092915050565b5f5b83811015610cab578082015181840152602081019050610c90565b5f8484015250505050565b5f601f19601f8301169050919050565b5f610cd082610c74565b610cda8185610c7e565b9350610cea818560208601610c8e565b610cf381610cb6565b840191505092915050565b5f6020820190508181035f830152610d168184610cc6565b905092915050565b5f80fd5b5f73ffffffffffffffffffffffffffffffffffffffff82169050919050565b5f610d4b82610d22565b9050919050565b610d5b81610d41565b8114610d65575f80fd5b50565b5f81359050610d7681610d52565b92915050565b5f819050919050565b610d8e81610d7c565b8114610d98575f80fd5b50565b5f81359050610da981610d85565b92915050565b5f8060408385031215610dc557610dc4610d1e565b5b5f610dd285828601610d68565b9250506020610de385828601610d9b565b9150509250929050565b5f8115159050919050565b610e0181610ded565b82525050565b5f602082019050610e1a5f830184610df8565b92915050565b610e2981610d7c565b82525050565b5f602082019050610e425f830184610e20565b92915050565b5f805f60608486031215610e5f57610e5e610d1e565b5b5f610e6c86828701610d68565b9350506020610e7d86828701610d68565b9250506040610e8e86828701610d9b565b9150509250925092565b5f60ff82169050919050565b610ead81610e98565b82525050565b5f602082019050610ec65f830184610ea4565b92915050565b5f60208284031215610ee157610ee0610d1e565b5b5f610eee84828501610d68565b91505092915050565b610f0081610d41565b82525050565b5f602082019050610f195f830184610ef7565b92915050565b5f8060408385031215610f3557610f34610d1e565b5b5f610f4285828601610d68565b9250506020610f5385828601610d68565b9150509250929050565b7f4e487b71000000000000000000000000000000000000000000000000000000005f52601160045260245ffd5b5f610f9482610d7c565b9150610f9f83610d7c565b9250828201905080821115610fb757610fb6610f5d565b5b92915050565b7f556e617574686f72697a656420456e74697479000000000000000000000000005f82015250565b5f610ff1601383610c7e565b9150610ffc82610fbd565b602082019050919050565b5f6020820190508181035f83015261101e81610fe5565b9050919050565b7f4d415820535550504c59204558434545444544000000000000000000000000005f82015250565b5f611059601383610c7e565b915061106482611025565b602082019050919050565b5f6020820190508181035f8301526110868161104d565b9050919050565b7f45524332303a2064656372656173656420616c6c6f77616e63652062656c6f775f8201527f207a65726f000000000000000000000000000000000000000000000000000000602082015250565b5f6110e7602583610c7e565b91506110f28261108d565b604082019050919050565b5f6020820190508181035f830152611114816110db565b9050919050565b7f45524332303a20617070726f76652066726f6d20746865207a65726f206164645f8201527f7265737300000000000000000000000000000000000000000000000000000000602082015250565b5f611175602483610c7e565b91506111808261111b565b604082019050919050565b5f6020820190508181035f8301526111a281611169565b9050919050565b7f45524332303a20617070726f766520746f20746865207a65726f2061646472655f8201527f7373000000000000000000000000000000000000000000000000000000000000602082015250565b5f611203602283610c7e565b915061120e826111a9565b604082019050919050565b5f6020820190508181035f830152611230816111f7565b9050919050565b7f45524332303a20696e73756666696369656e7420616c6c6f77616e63650000005f82015250565b5f61126b601d83610c7e565b915061127682611237565b602082019050919050565b5f6020820190508181035f8301526112988161125f565b9050919050565b7f45524332303a207472616e736665722066726f6d20746865207a65726f2061645f8201527f6472657373000000000000000000000000000000000000000000000000000000602082015250565b5f6112f9602583610c7e565b91506113048261129f565b604082019050919050565b5f6020820190508181035f830152611326816112ed565b9050919050565b7f45524332303a207472616e7366657220746f20746865207a65726f20616464725f8201527f6573730000000000000000000000000000000000000000000000000000000000602082015250565b5f611387602383610c7e565b91506113928261132d565b604082019050919050565b5f6020820190508181035f8301526113b48161137b565b9050919050565b7f45524332303a207472616e7366657220616d6f756e74206578636565647320625f8201527f616c616e63650000000000000000000000000000000000000000000000000000602082015250565b5f611415602683610c7e565b9150611420826113bb565b604082019050919050565b5f6020820190508181035f83015261144281611409565b9050919050565b7f45524332303a206d696e7420746f20746865207a65726f2061646472657373005f82015250565b5f61147d601f83610c7e565b915061148882611449565b602082019050919050565b5f6020820190508181035f8301526114aa81611471565b905091905056fea264697066735822122037d18f34a4ed736d78ef42bd0555496ca9905a2d40690c64ee1c26514eace73464736f6c63430008170033",
					"opcodes": "PUSH1 0x80 PUSH1 0x40 MSTORE CALLVALUE DUP1 ISZERO PUSH3 0x10 JUMPI PUSH0 DUP1 REVERT JUMPDEST POP PUSH1 0x40 MLOAD DUP1 PUSH1 0x40 ADD PUSH1 0x40 MSTORE DUP1 PUSH1 0x8 DUP2 MSTORE PUSH1 0x20 ADD PUSH32 0x42554E4E5F44414F000000000000000000000000000000000000000000000000 DUP2 MSTORE POP PUSH1 0x40 MLOAD DUP1 PUSH1 0x40 ADD PUSH1 0x40 MSTORE DUP1 PUSH1 0x4 DUP2 MSTORE PUSH1 0x20 ADD PUSH32 0x4244414F00000000000000000000000000000000000000000000000000000000 DUP2 MSTORE POP DUP2 PUSH1 0x3 SWAP1 DUP2 PUSH3 0x8E SWAP2 SWAP1 PUSH3 0x38B JUMP JUMPDEST POP DUP1 PUSH1 0x4 SWAP1 DUP2 PUSH3 0xA0 SWAP2 SWAP1 PUSH3 0x38B JUMP JUMPDEST POP POP POP CALLER PUSH1 0x6 PUSH0 PUSH2 0x100 EXP DUP2 SLOAD DUP2 PUSH20 0xFFFFFFFFFFFFFFFFFFFFFFFFFFFFFFFFFFFFFFFF MUL NOT AND SWAP1 DUP4 PUSH20 0xFFFFFFFFFFFFFFFFFFFFFFFFFFFFFFFFFFFFFFFF AND MUL OR SWAP1 SSTORE POP PUSH3 0xF3 PUSH3 0x11F PUSH1 0x20 SHL PUSH1 0x20 SHR JUMP JUMPDEST PUSH1 0xA PUSH3 0x101 SWAP2 SWAP1 PUSH3 0x5F8 JUMP JUMPDEST PUSH5 0x2540BE400 PUSH3 0x113 SWAP2 SWAP1 PUSH3 0x648 JUMP JUMPDEST PUSH1 0x5 DUP2 SWAP1 SSTORE POP PUSH3 0x692 JUMP JUMPDEST PUSH0 PUSH1 0x12 SWAP1 POP SWAP1 JUMP JUMPDEST PUSH0 DUP2 MLOAD SWAP1 POP SWAP2 SWAP1 POP JUMP JUMPDEST PUSH32 0x4E487B7100000000000000000000000000000000000000000000000000000000 PUSH0 MSTORE PUSH1 0x41 PUSH1 0x4 MSTORE PUSH1 0x24 PUSH0 REVERT JUMPDEST PUSH32 0x4E487B7100000000000000000000000000000000000000000000000000000000 PUSH0 MSTORE PUSH1 0x22 PUSH1 0x4 MSTORE PUSH1 0x24 PUSH0 REVERT JUMPDEST PUSH0 PUSH1 0x2 DUP3 DIV SWAP1 POP PUSH1 0x1 DUP3 AND DUP1 PUSH3 0x1A3 JUMPI PUSH1 0x7F DUP3 AND SWAP2 POP JUMPDEST PUSH1 0x20 DUP3 LT DUP2 SUB PUSH3 0x1B9 JUMPI PUSH3 0x1B8 PUSH3 0x15E JUMP JUMPDEST JUMPDEST POP SWAP2 SWAP1 POP JUMP JUMPDEST PUSH0 DUP2 SWAP1 POP DUP2 PUSH0 MSTORE PUSH1 0x20 PUSH0 KECCAK256 SWAP1 POP SWAP2 SWAP1 POP JUMP JUMPDEST PUSH0 PUSH1 0x20 PUSH1 0x1F DUP4 ADD DIV SWAP1 POP SWAP2 SWAP1 POP JUMP JUMPDEST PUSH0 DUP3 DUP3 SHL SWAP1 POP SWAP3 SWAP2 POP POP JUMP JUMPDEST PUSH0 PUSH1 0x8 DUP4 MUL PUSH3 0x21D PUSH32 0xFFFFFFFFFFFFFFFFFFFFFFFFFFFFFFFFFFFFFFFFFFFFFFFFFFFFFFFFFFFFFFFF DUP3 PUSH3 0x1E0 JUMP JUMPDEST PUSH3 0x229 DUP7 DUP4 PUSH3 0x1E0 JUMP JUMPDEST SWAP6 POP DUP1 NOT DUP5 AND SWAP4 POP DUP1 DUP7 AND DUP5 OR SWAP3 POP POP POP SWAP4 SWAP3 POP POP POP JUMP JUMPDEST PUSH0 DUP2 SWAP1 POP SWAP2 SWAP1 POP JUMP JUMPDEST PUSH0 DUP2 SWAP1 POP SWAP2 SWAP1 POP JUMP JUMPDEST PUSH0 PUSH3 0x273 PUSH3 0x26D PUSH3 0x267 DUP5 PUSH3 0x241 JUMP JUMPDEST PUSH3 0x24A JUMP JUMPDEST PUSH3 0x241 JUMP JUMPDEST SWAP1 POP SWAP2 SWAP1 POP JUMP JUMPDEST PUSH0 DUP2 SWAP1 POP SWAP2 SWAP1 POP JUMP JUMPDEST PUSH3 0x28E DUP4 PUSH3 0x253 JUMP JUMPDEST PUSH3 0x2A6 PUSH3 0x29D DUP3 PUSH3 0x27A JUMP JUMPDEST DUP5 DUP5 SLOAD PUSH3 0x1EC JUMP JUMPDEST DUP3 SSTORE POP POP POP POP JUMP JUMPDEST PUSH0 SWAP1 JUMP JUMPDEST PUSH3 0x2BC PUSH3 0x2AE JUMP JUMPDEST PUSH3 0x2C9 DUP2 DUP5 DUP5 PUSH3 0x283 JUMP JUMPDEST POP POP POP JUMP JUMPDEST JUMPDEST DUP2 DUP2 LT ISZERO PUSH3 0x2F0 JUMPI PUSH3 0x2E4 PUSH0 DUP3 PUSH3 0x2B2 JUMP JUMPDEST PUSH1 0x1 DUP2 ADD SWAP1 POP PUSH3 0x2CF JUMP JUMPDEST POP POP JUMP JUMPDEST PUSH1 0x1F DUP3 GT ISZERO PUSH3 0x33F JUMPI PUSH3 0x309 DUP2 PUSH3 0x1BF JUMP JUMPDEST PUSH3 0x314 DUP5 PUSH3 0x1D1 JUMP JUMPDEST DUP2 ADD PUSH1 0x20 DUP6 LT ISZERO PUSH3 0x324 JUMPI DUP2 SWAP1 POP JUMPDEST PUSH3 0x33C PUSH3 0x333 DUP6 PUSH3 0x1D1 JUMP JUMPDEST DUP4 ADD DUP3 PUSH3 0x2CE JUMP JUMPDEST POP POP JUMPDEST POP POP POP JUMP JUMPDEST PUSH0 DUP3 DUP3 SHR SWAP1 POP SWAP3 SWAP2 POP POP JUMP JUMPDEST PUSH0 PUSH3 0x361 PUSH0 NOT DUP5 PUSH1 0x8 MUL PUSH3 0x344 JUMP JUMPDEST NOT DUP1 DUP4 AND SWAP2 POP POP SWAP3 SWAP2 POP POP JUMP JUMPDEST PUSH0 PUSH3 0x37B DUP4 DUP4 PUSH3 0x350 JUMP JUMPDEST SWAP2 POP DUP3 PUSH1 0x2 MUL DUP3 OR SWAP1 POP SWAP3 SWAP2 POP POP JUMP JUMPDEST PUSH3 0x396 DUP3 PUSH3 0x127 JUMP JUMPDEST PUSH8 0xFFFFFFFFFFFFFFFF DUP2 GT ISZERO PUSH3 0x3B2 JUMPI PUSH3 0x3B1 PUSH3 0x131 JUMP JUMPDEST JUMPDEST PUSH3 0x3BE DUP3 SLOAD PUSH3 0x18B JUMP JUMPDEST PUSH3 0x3CB DUP3 DUP3 DUP6 PUSH3 0x2F4 JUMP JUMPDEST PUSH0 PUSH1 0x20 SWAP1 POP PUSH1 0x1F DUP4 GT PUSH1 0x1 DUP2 EQ PUSH3 0x401 JUMPI PUSH0 DUP5 ISZERO PUSH3 0x3EC JUMPI DUP3 DUP8 ADD MLOAD SWAP1 POP JUMPDEST PUSH3 0x3F8 DUP6 DUP3 PUSH3 0x36E JUMP JUMPDEST DUP7 SSTORE POP PUSH3 0x467 JUMP JUMPDEST PUSH1 0x1F NOT DUP5 AND PUSH3 0x411 DUP7 PUSH3 0x1BF JUMP JUMPDEST PUSH0 JUMPDEST DUP3 DUP2 LT ISZERO PUSH3 0x43A JUMPI DUP5 DUP10 ADD MLOAD DUP3 SSTORE PUSH1 0x1 DUP3 ADD SWAP2 POP PUSH1 0x20 DUP6 ADD SWAP5 POP PUSH1 0x20 DUP2 ADD SWAP1 POP PUSH3 0x413 JUMP JUMPDEST DUP7 DUP4 LT ISZERO PUSH3 0x45A JUMPI DUP5 DUP10 ADD MLOAD PUSH3 0x456 PUSH1 0x1F DUP10 AND DUP3 PUSH3 0x350 JUMP JUMPDEST DUP4 SSTORE POP JUMPDEST PUSH1 0x1 PUSH1 0x2 DUP9 MUL ADD DUP9 SSTORE POP POP POP JUMPDEST POP POP POP POP POP POP JUMP JUMPDEST PUSH32 0x4E487B7100000000000000000000000000000000000000000000000000000000 PUSH0 MSTORE PUSH1 0x11 PUSH1 0x4 MSTORE PUSH1 0x24 PUSH0 REVERT JUMPDEST PUSH0 DUP2 PUSH1 0x1 SHR SWAP1 POP SWAP2 SWAP1 POP JUMP JUMPDEST PUSH0 DUP1 DUP3 SWAP2 POP DUP4 SWAP1 POP JUMPDEST PUSH1 0x1 DUP6 GT ISZERO PUSH3 0x4F9 JUMPI DUP1 DUP7 DIV DUP2 GT ISZERO PUSH3 0x4D1 JUMPI PUSH3 0x4D0 PUSH3 0x46F JUMP JUMPDEST JUMPDEST PUSH1 0x1 DUP6 AND ISZERO PUSH3 0x4E1 JUMPI DUP1 DUP3 MUL SWAP2 POP JUMPDEST DUP1 DUP2 MUL SWAP1 POP PUSH3 0x4F1 DUP6 PUSH3 0x49C JUMP JUMPDEST SWAP5 POP PUSH3 0x4B1 JUMP JUMPDEST SWAP5 POP SWAP5 SWAP3 POP POP POP JUMP JUMPDEST PUSH0 DUP3 PUSH3 0x513 JUMPI PUSH1 0x1 SWAP1 POP PUSH3 0x5E5 JUMP JUMPDEST DUP2 PUSH3 0x522 JUMPI PUSH0 SWAP1 POP PUSH3 0x5E5 JUMP JUMPDEST DUP2 PUSH1 0x1 DUP2 EQ PUSH3 0x53B JUMPI PUSH1 0x2 DUP2 EQ PUSH3 0x546 JUMPI PUSH3 0x57C JUMP JUMPDEST PUSH1 0x1 SWAP2 POP POP PUSH3 0x5E5 JUMP JUMPDEST PUSH1 0xFF DUP5 GT ISZERO PUSH3 0x55B JUMPI PUSH3 0x55A PUSH3 0x46F JUMP JUMPDEST JUMPDEST DUP4 PUSH1 0x2 EXP SWAP2 POP DUP5 DUP3 GT ISZERO PUSH3 0x575 JUMPI PUSH3 0x574 PUSH3 0x46F JUMP JUMPDEST JUMPDEST POP PUSH3 0x5E5 JUMP JUMPDEST POP PUSH1 0x20 DUP4 LT PUSH2 0x133 DUP4 LT AND PUSH1 0x4E DUP5 LT PUSH1 0xB DUP5 LT AND OR ISZERO PUSH3 0x5B6 JUMPI DUP3 DUP3 EXP SWAP1 POP DUP4 DUP2 GT ISZERO PUSH3 0x5B0 JUMPI PUSH3 0x5AF PUSH3 0x46F JUMP JUMPDEST JUMPDEST PUSH3 0x5E5 JUMP JUMPDEST PUSH3 0x5C5 DUP5 DUP5 DUP5 PUSH1 0x1 PUSH3 0x4A8 JUMP JUMPDEST SWAP3 POP SWAP1 POP DUP2 DUP5 DIV DUP2 GT ISZERO PUSH3 0x5DF JUMPI PUSH3 0x5DE PUSH3 0x46F JUMP JUMPDEST JUMPDEST DUP2 DUP2 MUL SWAP1 POP JUMPDEST SWAP4 SWAP3 POP POP POP JUMP JUMPDEST PUSH0 PUSH1 0xFF DUP3 AND SWAP1 POP SWAP2 SWAP1 POP JUMP JUMPDEST PUSH0 PUSH3 0x604 DUP3 PUSH3 0x241 JUMP JUMPDEST SWAP2 POP PUSH3 0x611 DUP4 PUSH3 0x5EC JUMP JUMPDEST SWAP3 POP PUSH3 0x640 PUSH32 0xFFFFFFFFFFFFFFFFFFFFFFFFFFFFFFFFFFFFFFFFFFFFFFFFFFFFFFFFFFFFFFFF DUP5 DUP5 PUSH3 0x502 JUMP JUMPDEST SWAP1 POP SWAP3 SWAP2 POP POP JUMP JUMPDEST PUSH0 PUSH3 0x654 DUP3 PUSH3 0x241 JUMP JUMPDEST SWAP2 POP PUSH3 0x661 DUP4 PUSH3 0x241 JUMP JUMPDEST SWAP3 POP DUP3 DUP3 MUL PUSH3 0x671 DUP2 PUSH3 0x241 JUMP JUMPDEST SWAP2 POP DUP3 DUP3 DIV DUP5 EQ DUP4 ISZERO OR PUSH3 0x68B JUMPI PUSH3 0x68A PUSH3 0x46F JUMP JUMPDEST JUMPDEST POP SWAP3 SWAP2 POP POP JUMP JUMPDEST PUSH2 0x14E7 DUP1 PUSH3 0x6A0 PUSH0 CODECOPY PUSH0 RETURN INVALID PUSH1 0x80 PUSH1 0x40 MSTORE CALLVALUE DUP1 ISZERO PUSH2 0xF JUMPI PUSH0 DUP1 REVERT JUMPDEST POP PUSH1 0x4 CALLDATASIZE LT PUSH2 0xCD JUMPI PUSH0 CALLDATALOAD PUSH1 0xE0 SHR DUP1 PUSH4 0x40C10F19 GT PUSH2 0x8A JUMPI DUP1 PUSH4 0x95D89B41 GT PUSH2 0x64 JUMPI DUP1 PUSH4 0x95D89B41 EQ PUSH2 0x225 JUMPI DUP1 PUSH4 0xA457C2D7 EQ PUSH2 0x243 JUMPI DUP1 PUSH4 0xA9059CBB EQ PUSH2 0x273 JUMPI DUP1 PUSH4 0xDD62ED3E EQ PUSH2 0x2A3 JUMPI PUSH2 0xCD JUMP JUMPDEST DUP1 PUSH4 0x40C10F19 EQ PUSH2 0x1BB JUMPI DUP1 PUSH4 0x70A08231 EQ PUSH2 0x1D7 JUMPI DUP1 PUSH4 0x8DA5CB5B EQ PUSH2 0x207 JUMPI PUSH2 0xCD JUMP JUMPDEST DUP1 PUSH4 0x6FDDE03 EQ PUSH2 0xD1 JUMPI DUP1 PUSH4 0x95EA7B3 EQ PUSH2 0xEF JUMPI DUP1 PUSH4 0x18160DDD EQ PUSH2 0x11F JUMPI DUP1 PUSH4 0x23B872DD EQ PUSH2 0x13D JUMPI DUP1 PUSH4 0x313CE567 EQ PUSH2 0x16D JUMPI DUP1 PUSH4 0x39509351 EQ PUSH2 0x18B JUMPI JUMPDEST PUSH0 DUP1 REVERT JUMPDEST PUSH2 0xD9 PUSH2 0x2D3 JUMP JUMPDEST PUSH1 0x40 MLOAD PUSH2 0xE6 SWAP2 SWAP1 PUSH2 0xCFE JUMP JUMPDEST PUSH1 0x40 MLOAD DUP1 SWAP2 SUB SWAP1 RETURN JUMPDEST PUSH2 0x109 PUSH1 0x4 DUP1 CALLDATASIZE SUB DUP2 ADD SWAP1 PUSH2 0x104 SWAP2 SWAP1 PUSH2 0xDAF JUMP JUMPDEST PUSH2 0x310 JUMP JUMPDEST PUSH1 0x40 MLOAD PUSH2 0x116 SWAP2 SWAP1 PUSH2 0xE07 JUMP JUMPDEST PUSH1 0x40 MLOAD DUP1 SWAP2 SUB SWAP1 RETURN JUMPDEST PUSH2 0x127 PUSH2 0x332 JUMP JUMPDEST PUSH1 0x40 MLOAD PUSH2 0x134 SWAP2 SWAP1 PUSH2 0xE2F JUMP JUMPDEST PUSH1 0x40 MLOAD DUP1 SWAP2 SUB SWAP1 RETURN JUMPDEST PUSH2 0x157 PUSH1 0x4 DUP1 CALLDATASIZE SUB DUP2 ADD SWAP1 PUSH2 0x152 SWAP2 SWAP1 PUSH2 0xE48 JUMP JUMPDEST PUSH2 0x33B JUMP JUMPDEST PUSH1 0x40 MLOAD PUSH2 0x164 SWAP2 SWAP1 PUSH2 0xE07 JUMP JUMPDEST PUSH1 0x40 MLOAD DUP1 SWAP2 SUB SWAP1 RETURN JUMPDEST PUSH2 0x175 PUSH2 0x369 JUMP JUMPDEST PUSH1 0x40 MLOAD PUSH2 0x182 SWAP2 SWAP1 PUSH2 0xEB3 JUMP JUMPDEST PUSH1 0x40 MLOAD DUP1 SWAP2 SUB SWAP1 RETURN JUMPDEST PUSH2 0x1A5 PUSH1 0x4 DUP1 CALLDATASIZE SUB DUP2 ADD SWAP1 PUSH2 0x1A0 SWAP2 SWAP1 PUSH2 0xDAF JUMP JUMPDEST PUSH2 0x371 JUMP JUMPDEST PUSH1 0x40 MLOAD PUSH2 0x1B2 SWAP2 SWAP1 PUSH2 0xE07 JUMP JUMPDEST PUSH1 0x40 MLOAD DUP1 SWAP2 SUB SWAP1 RETURN JUMPDEST PUSH2 0x1D5 PUSH1 0x4 DUP1 CALLDATASIZE SUB DUP2 ADD SWAP1 PUSH2 0x1D0 SWAP2 SWAP1 PUSH2 0xDAF JUMP JUMPDEST PUSH2 0x3A7 JUMP JUMPDEST STOP JUMPDEST PUSH2 0x1F1 PUSH1 0x4 DUP1 CALLDATASIZE SUB DUP2 ADD SWAP1 PUSH2 0x1EC SWAP2 SWAP1 PUSH2 0xECC JUMP JUMPDEST PUSH2 0x49B JUMP JUMPDEST PUSH1 0x40 MLOAD PUSH2 0x1FE SWAP2 SWAP1 PUSH2 0xE2F JUMP JUMPDEST PUSH1 0x40 MLOAD DUP1 SWAP2 SUB SWAP1 RETURN JUMPDEST PUSH2 0x20F PUSH2 0x4E0 JUMP JUMPDEST PUSH1 0x40 MLOAD PUSH2 0x21C SWAP2 SWAP1 PUSH2 0xF06 JUMP JUMPDEST PUSH1 0x40 MLOAD DUP1 SWAP2 SUB SWAP1 RETURN JUMPDEST PUSH2 0x22D PUSH2 0x505 JUMP JUMPDEST PUSH1 0x40 MLOAD PUSH2 0x23A SWAP2 SWAP1 PUSH2 0xCFE JUMP JUMPDEST PUSH1 0x40 MLOAD DUP1 SWAP2 SUB SWAP1 RETURN JUMPDEST PUSH2 0x25D PUSH1 0x4 DUP1 CALLDATASIZE SUB DUP2 ADD SWAP1 PUSH2 0x258 SWAP2 SWAP1 PUSH2 0xDAF JUMP JUMPDEST PUSH2 0x542 JUMP JUMPDEST PUSH1 0x40 MLOAD PUSH2 0x26A SWAP2 SWAP1 PUSH2 0xE07 JUMP JUMPDEST PUSH1 0x40 MLOAD DUP1 SWAP2 SUB SWAP1 RETURN JUMPDEST PUSH2 0x28D PUSH1 0x4 DUP1 CALLDATASIZE SUB DUP2 ADD SWAP1 PUSH2 0x288 SWAP2 SWAP1 PUSH2 0xDAF JUMP JUMPDEST PUSH2 0x5B7 JUMP JUMPDEST PUSH1 0x40 MLOAD PUSH2 0x29A SWAP2 SWAP1 PUSH2 0xE07 JUMP JUMPDEST PUSH1 0x40 MLOAD DUP1 SWAP2 SUB SWAP1 RETURN JUMPDEST PUSH2 0x2BD PUSH1 0x4 DUP1 CALLDATASIZE SUB DUP2 ADD SWAP1 PUSH2 0x2B8 SWAP2 SWAP1 PUSH2 0xF1F JUMP JUMPDEST PUSH2 0x5D9 JUMP JUMPDEST PUSH1 0x40 MLOAD PUSH2 0x2CA SWAP2 SWAP1 PUSH2 0xE2F JUMP JUMPDEST PUSH1 0x40 MLOAD DUP1 SWAP2 SUB SWAP1 RETURN JUMPDEST PUSH1 0x60 PUSH1 0x40 MLOAD DUP1 PUSH1 0x40 ADD PUSH1 0x40 MSTORE DUP1 PUSH1 0xA DUP2 MSTORE PUSH1 0x20 ADD PUSH32 0x4F4E5755414A5545534500000000000000000000000000000000000000000000 DUP2 MSTORE POP SWAP1 POP SWAP1 JUMP JUMPDEST PUSH0 DUP1 PUSH2 0x31A PUSH2 0x65B JUMP JUMPDEST SWAP1 POP PUSH2 0x327 DUP2 DUP6 DUP6 PUSH2 0x662 JUMP JUMPDEST PUSH1 0x1 SWAP2 POP POP SWAP3 SWAP2 POP POP JUMP JUMPDEST PUSH0 PUSH1 0x2 SLOAD SWAP1 POP SWAP1 JUMP JUMPDEST PUSH0 DUP1 PUSH2 0x345 PUSH2 0x65B JUMP JUMPDEST SWAP1 POP PUSH2 0x352 DUP6 DUP3 DUP6 PUSH2 0x825 JUMP JUMPDEST PUSH2 0x35D DUP6 DUP6 DUP6 PUSH2 0x8B0 JUMP JUMPDEST PUSH1 0x1 SWAP2 POP POP SWAP4 SWAP3 POP POP POP JUMP JUMPDEST PUSH0 PUSH1 0x12 SWAP1 POP SWAP1 JUMP JUMPDEST PUSH0 DUP1 PUSH2 0x37B PUSH2 0x65B JUMP JUMPDEST SWAP1 POP PUSH2 0x39C DUP2 DUP6 DUP6 PUSH2 0x38D DUP6 DUP10 PUSH2 0x5D9 JUMP JUMPDEST PUSH2 0x397 SWAP2 SWAP1 PUSH2 0xF8A JUMP JUMPDEST PUSH2 0x662 JUMP JUMPDEST PUSH1 0x1 SWAP2 POP POP SWAP3 SWAP2 POP POP JUMP JUMPDEST PUSH1 0x6 PUSH0 SWAP1 SLOAD SWAP1 PUSH2 0x100 EXP SWAP1 DIV PUSH20 0xFFFFFFFFFFFFFFFFFFFFFFFFFFFFFFFFFFFFFFFF AND PUSH20 0xFFFFFFFFFFFFFFFFFFFFFFFFFFFFFFFFFFFFFFFF AND CALLER PUSH20 0xFFFFFFFFFFFFFFFFFFFFFFFFFFFFFFFFFFFFFFFF AND EQ PUSH2 0x436 JUMPI PUSH1 0x40 MLOAD PUSH32 0x8C379A000000000000000000000000000000000000000000000000000000000 DUP2 MSTORE PUSH1 0x4 ADD PUSH2 0x42D SWAP1 PUSH2 0x1007 JUMP JUMPDEST PUSH1 0x40 MLOAD DUP1 SWAP2 SUB SWAP1 REVERT JUMPDEST PUSH1 0x5 SLOAD DUP2 PUSH2 0x442 PUSH2 0x332 JUMP JUMPDEST PUSH2 0x44C SWAP2 SWAP1 PUSH2 0xF8A JUMP JUMPDEST GT ISZERO PUSH2 0x48D JUMPI PUSH1 0x40 MLOAD PUSH32 0x8C379A000000000000000000000000000000000000000000000000000000000 DUP2 MSTORE PUSH1 0x4 ADD PUSH2 0x484 SWAP1 PUSH2 0x106F JUMP JUMPDEST PUSH1 0x40 MLOAD DUP1 SWAP2 SUB SWAP1 REVERT JUMPDEST PUSH2 0x497 DUP3 DUP3 PUSH2 0xB1C JUMP JUMPDEST POP POP JUMP JUMPDEST PUSH0 DUP1 PUSH0 DUP4 PUSH20 0xFFFFFFFFFFFFFFFFFFFFFFFFFFFFFFFFFFFFFFFF AND PUSH20 0xFFFFFFFFFFFFFFFFFFFFFFFFFFFFFFFFFFFFFFFF AND DUP2 MSTORE PUSH1 0x20 ADD SWAP1 DUP2 MSTORE PUSH1 0x20 ADD PUSH0 KECCAK256 SLOAD SWAP1 POP SWAP2 SWAP1 POP JUMP JUMPDEST PUSH1 0x6 PUSH0 SWAP1 SLOAD SWAP1 PUSH2 0x100 EXP SWAP1 DIV PUSH20 0xFFFFFFFFFFFFFFFFFFFFFFFFFFFFFFFFFFFFFFFF AND DUP2 JUMP JUMPDEST PUSH1 0x60 PUSH1 0x40 MLOAD DUP1 PUSH1 0x40 ADD PUSH1 0x40 MSTORE DUP1 PUSH1 0x4 DUP2 MSTORE PUSH1 0x20 ADD PUSH32 0x42554E4E00000000000000000000000000000000000000000000000000000000 DUP2 MSTORE POP SWAP1 POP SWAP1 JUMP JUMPDEST PUSH0 DUP1 PUSH2 0x54C PUSH2 0x65B JUMP JUMPDEST SWAP1 POP PUSH0 PUSH2 0x559 DUP3 DUP7 PUSH2 0x5D9 JUMP JUMPDEST SWAP1 POP DUP4 DUP2 LT ISZERO PUSH2 0x59E JUMPI PUSH1 0x40 MLOAD PUSH32 0x8C379A000000000000000000000000000000000000000000000000000000000 DUP2 MSTORE PUSH1 0x4 ADD PUSH2 0x595 SWAP1 PUSH2 0x10FD JUMP JUMPDEST PUSH1 0x40 MLOAD DUP1 SWAP2 SUB SWAP1 REVERT JUMPDEST PUSH2 0x5AB DUP3 DUP7 DUP7 DUP5 SUB PUSH2 0x662 JUMP JUMPDEST PUSH1 0x1 SWAP3 POP POP POP SWAP3 SWAP2 POP POP JUMP JUMPDEST PUSH0 DUP1 PUSH2 0x5C1 PUSH2 0x65B JUMP JUMPDEST SWAP1 POP PUSH2 0x5CE DUP2 DUP6 DUP6 PUSH2 0x8B0 JUMP JUMPDEST PUSH1 0x1 SWAP2 POP POP SWAP3 SWAP2 POP POP JUMP JUMPDEST PUSH0 PUSH1 0x1 PUSH0 DUP5 PUSH20 0xFFFFFFFFFFFFFFFFFFFFFFFFFFFFFFFFFFFFFFFF AND PUSH20 0xFFFFFFFFFFFFFFFFFFFFFFFFFFFFFFFFFFFFFFFF AND DUP2 MSTORE PUSH1 0x20 ADD SWAP1 DUP2 MSTORE PUSH1 0x20 ADD PUSH0 KECCAK256 PUSH0 DUP4 PUSH20 0xFFFFFFFFFFFFFFFFFFFFFFFFFFFFFFFFFFFFFFFF AND PUSH20 0xFFFFFFFFFFFFFFFFFFFFFFFFFFFFFFFFFFFFFFFF AND DUP2 MSTORE PUSH1 0x20 ADD SWAP1 DUP2 MSTORE PUSH1 0x20 ADD PUSH0 KECCAK256 SLOAD SWAP1 POP SWAP3 SWAP2 POP POP JUMP JUMPDEST PUSH0 CALLER SWAP1 POP SWAP1 JUMP JUMPDEST PUSH0 PUSH20 0xFFFFFFFFFFFFFFFFFFFFFFFFFFFFFFFFFFFFFFFF AND DUP4 PUSH20 0xFFFFFFFFFFFFFFFFFFFFFFFFFFFFFFFFFFFFFFFF AND SUB PUSH2 0x6D0 JUMPI PUSH1 0x40 MLOAD PUSH32 0x8C379A000000000000000000000000000000000000000000000000000000000 DUP2 MSTORE PUSH1 0x4 ADD PUSH2 0x6C7 SWAP1 PUSH2 0x118B JUMP JUMPDEST PUSH1 0x40 MLOAD DUP1 SWAP2 SUB SWAP1 REVERT JUMPDEST PUSH0 PUSH20 0xFFFFFFFFFFFFFFFFFFFFFFFFFFFFFFFFFFFFFFFF AND DUP3 PUSH20 0xFFFFFFFFFFFFFFFFFFFFFFFFFFFFFFFFFFFFFFFF AND SUB PUSH2 0x73E JUMPI PUSH1 0x40 MLOAD PUSH32 0x8C379A000000000000000000000000000000000000000000000000000000000 DUP2 MSTORE PUSH1 0x4 ADD PUSH2 0x735 SWAP1 PUSH2 0x1219 JUMP JUMPDEST PUSH1 0x40 MLOAD DUP1 SWAP2 SUB SWAP1 REVERT JUMPDEST DUP1 PUSH1 0x1 PUSH0 DUP6 PUSH20 0xFFFFFFFFFFFFFFFFFFFFFFFFFFFFFFFFFFFFFFFF AND PUSH20 0xFFFFFFFFFFFFFFFFFFFFFFFFFFFFFFFFFFFFFFFF AND DUP2 MSTORE PUSH1 0x20 ADD SWAP1 DUP2 MSTORE PUSH1 0x20 ADD PUSH0 KECCAK256 PUSH0 DUP5 PUSH20 0xFFFFFFFFFFFFFFFFFFFFFFFFFFFFFFFFFFFFFFFF AND PUSH20 0xFFFFFFFFFFFFFFFFFFFFFFFFFFFFFFFFFFFFFFFF AND DUP2 MSTORE PUSH1 0x20 ADD SWAP1 DUP2 MSTORE PUSH1 0x20 ADD PUSH0 KECCAK256 DUP2 SWAP1 SSTORE POP DUP2 PUSH20 0xFFFFFFFFFFFFFFFFFFFFFFFFFFFFFFFFFFFFFFFF AND DUP4 PUSH20 0xFFFFFFFFFFFFFFFFFFFFFFFFFFFFFFFFFFFFFFFF AND PUSH32 0x8C5BE1E5EBEC7D5BD14F71427D1E84F3DD0314C0F7B2291E5B200AC8C7C3B925 DUP4 PUSH1 0x40 MLOAD PUSH2 0x818 SWAP2 SWAP1 PUSH2 0xE2F JUMP JUMPDEST PUSH1 0x40 MLOAD DUP1 SWAP2 SUB SWAP1 LOG3 POP POP POP JUMP JUMPDEST PUSH0 PUSH2 0x830 DUP5 DUP5 PUSH2 0x5D9 JUMP JUMPDEST SWAP1 POP PUSH32 0xFFFFFFFFFFFFFFFFFFFFFFFFFFFFFFFFFFFFFFFFFFFFFFFFFFFFFFFFFFFFFFFF DUP2 EQ PUSH2 0x8AA JUMPI DUP2 DUP2 LT ISZERO PUSH2 0x89C JUMPI PUSH1 0x40 MLOAD PUSH32 0x8C379A000000000000000000000000000000000000000000000000000000000 DUP2 MSTORE PUSH1 0x4 ADD PUSH2 0x893 SWAP1 PUSH2 0x1281 JUMP JUMPDEST PUSH1 0x40 MLOAD DUP1 SWAP2 SUB SWAP1 REVERT JUMPDEST PUSH2 0x8A9 DUP5 DUP5 DUP5 DUP5 SUB PUSH2 0x662 JUMP JUMPDEST JUMPDEST POP POP POP POP JUMP JUMPDEST PUSH0 PUSH20 0xFFFFFFFFFFFFFFFFFFFFFFFFFFFFFFFFFFFFFFFF AND DUP4 PUSH20 0xFFFFFFFFFFFFFFFFFFFFFFFFFFFFFFFFFFFFFFFF AND SUB PUSH2 0x91E JUMPI PUSH1 0x40 MLOAD PUSH32 0x8C379A000000000000000000000000000000000000000000000000000000000 DUP2 MSTORE PUSH1 0x4 ADD PUSH2 0x915 SWAP1 PUSH2 0x130F JUMP JUMPDEST PUSH1 0x40 MLOAD DUP1 SWAP2 SUB SWAP1 REVERT JUMPDEST PUSH0 PUSH20 0xFFFFFFFFFFFFFFFFFFFFFFFFFFFFFFFFFFFFFFFF AND DUP3 PUSH20 0xFFFFFFFFFFFFFFFFFFFFFFFFFFFFFFFFFFFFFFFF AND SUB PUSH2 0x98C JUMPI PUSH1 0x40 MLOAD PUSH32 0x8C379A000000000000000000000000000000000000000000000000000000000 DUP2 MSTORE PUSH1 0x4 ADD PUSH2 0x983 SWAP1 PUSH2 0x139D JUMP JUMPDEST PUSH1 0x40 MLOAD DUP1 SWAP2 SUB SWAP1 REVERT JUMPDEST PUSH2 0x997 DUP4 DUP4 DUP4 PUSH2 0xC6A JUMP JUMPDEST PUSH0 DUP1 PUSH0 DUP6 PUSH20 0xFFFFFFFFFFFFFFFFFFFFFFFFFFFFFFFFFFFFFFFF AND PUSH20 0xFFFFFFFFFFFFFFFFFFFFFFFFFFFFFFFFFFFFFFFF AND DUP2 MSTORE PUSH1 0x20 ADD SWAP1 DUP2 MSTORE PUSH1 0x20 ADD PUSH0 KECCAK256 SLOAD SWAP1 POP DUP2 DUP2 LT ISZERO PUSH2 0xA1A JUMPI PUSH1 0x40 MLOAD PUSH32 0x8C379A000000000000000000000000000000000000000000000000000000000 DUP2 MSTORE PUSH1 0x4 ADD PUSH2 0xA11 SWAP1 PUSH2 0x142B JUMP JUMPDEST PUSH1 0x40 MLOAD DUP1 SWAP2 SUB SWAP1 REVERT JUMPDEST DUP2 DUP2 SUB PUSH0 DUP1 DUP7 PUSH20 0xFFFFFFFFFFFFFFFFFFFFFFFFFFFFFFFFFFFFFFFF AND PUSH20 0xFFFFFFFFFFFFFFFFFFFFFFFFFFFFFFFFFFFFFFFF AND DUP2 MSTORE PUSH1 0x20 ADD SWAP1 DUP2 MSTORE PUSH1 0x20 ADD PUSH0 KECCAK256 DUP2 SWAP1 SSTORE POP DUP2 PUSH0 DUP1 DUP6 PUSH20 0xFFFFFFFFFFFFFFFFFFFFFFFFFFFFFFFFFFFFFFFF AND PUSH20 0xFFFFFFFFFFFFFFFFFFFFFFFFFFFFFFFFFFFFFFFF AND DUP2 MSTORE PUSH1 0x20 ADD SWAP1 DUP2 MSTORE PUSH1 0x20 ADD PUSH0 KECCAK256 PUSH0 DUP3 DUP3 SLOAD ADD SWAP3 POP POP DUP2 SWAP1 SSTORE POP DUP3 PUSH20 0xFFFFFFFFFFFFFFFFFFFFFFFFFFFFFFFFFFFFFFFF AND DUP5 PUSH20 0xFFFFFFFFFFFFFFFFFFFFFFFFFFFFFFFFFFFFFFFF AND PUSH32 0xDDF252AD1BE2C89B69C2B068FC378DAA952BA7F163C4A11628F55A4DF523B3EF DUP5 PUSH1 0x40 MLOAD PUSH2 0xB03 SWAP2 SWAP1 PUSH2 0xE2F JUMP JUMPDEST PUSH1 0x40 MLOAD DUP1 SWAP2 SUB SWAP1 LOG3 PUSH2 0xB16 DUP5 DUP5 DUP5 PUSH2 0xC6F JUMP JUMPDEST POP POP POP POP JUMP JUMPDEST PUSH0 PUSH20 0xFFFFFFFFFFFFFFFFFFFFFFFFFFFFFFFFFFFFFFFF AND DUP3 PUSH20 0xFFFFFFFFFFFFFFFFFFFFFFFFFFFFFFFFFFFFFFFF AND SUB PUSH2 0xB8A JUMPI PUSH1 0x40 MLOAD PUSH32 0x8C379A000000000000000000000000000000000000000000000000000000000 DUP2 MSTORE PUSH1 0x4 ADD PUSH2 0xB81 SWAP1 PUSH2 0x1493 JUMP JUMPDEST PUSH1 0x40 MLOAD DUP1 SWAP2 SUB SWAP1 REVERT JUMPDEST PUSH2 0xB95 PUSH0 DUP4 DUP4 PUSH2 0xC6A JUMP JUMPDEST DUP1 PUSH1 0x2 PUSH0 DUP3 DUP3 SLOAD PUSH2 0xBA6 SWAP2 SWAP1 PUSH2 0xF8A JUMP JUMPDEST SWAP3 POP POP DUP2 SWAP1 SSTORE POP DUP1 PUSH0 DUP1 DUP5 PUSH20 0xFFFFFFFFFFFFFFFFFFFFFFFFFFFFFFFFFFFFFFFF AND PUSH20 0xFFFFFFFFFFFFFFFFFFFFFFFFFFFFFFFFFFFFFFFF AND DUP2 MSTORE PUSH1 0x20 ADD SWAP1 DUP2 MSTORE PUSH1 0x20 ADD PUSH0 KECCAK256 PUSH0 DUP3 DUP3 SLOAD ADD SWAP3 POP POP DUP2 SWAP1 SSTORE POP DUP2 PUSH20 0xFFFFFFFFFFFFFFFFFFFFFFFFFFFFFFFFFFFFFFFF AND PUSH0 PUSH20 0xFFFFFFFFFFFFFFFFFFFFFFFFFFFFFFFFFFFFFFFF AND PUSH32 0xDDF252AD1BE2C89B69C2B068FC378DAA952BA7F163C4A11628F55A4DF523B3EF DUP4 PUSH1 0x40 MLOAD PUSH2 0xC53 SWAP2 SWAP1 PUSH2 0xE2F JUMP JUMPDEST PUSH1 0x40 MLOAD DUP1 SWAP2 SUB SWAP1 LOG3 PUSH2 0xC66 PUSH0 DUP4 DUP4 PUSH2 0xC6F JUMP JUMPDEST POP POP JUMP JUMPDEST POP POP POP JUMP JUMPDEST POP POP POP JUMP JUMPDEST PUSH0 DUP2 MLOAD SWAP1 POP SWAP2 SWAP1 POP JUMP JUMPDEST PUSH0 DUP3 DUP3 MSTORE PUSH1 0x20 DUP3 ADD SWAP1 POP SWAP3 SWAP2 POP POP JUMP JUMPDEST PUSH0 JUMPDEST DUP4 DUP2 LT ISZERO PUSH2 0xCAB JUMPI DUP1 DUP3 ADD MLOAD DUP2 DUP5 ADD MSTORE PUSH1 0x20 DUP2 ADD SWAP1 POP PUSH2 0xC90 JUMP JUMPDEST PUSH0 DUP5 DUP5 ADD MSTORE POP POP POP POP JUMP JUMPDEST PUSH0 PUSH1 0x1F NOT PUSH1 0x1F DUP4 ADD AND SWAP1 POP SWAP2 SWAP1 POP JUMP JUMPDEST PUSH0 PUSH2 0xCD0 DUP3 PUSH2 0xC74 JUMP JUMPDEST PUSH2 0xCDA DUP2 DUP6 PUSH2 0xC7E JUMP JUMPDEST SWAP4 POP PUSH2 0xCEA DUP2 DUP6 PUSH1 0x20 DUP7 ADD PUSH2 0xC8E JUMP JUMPDEST PUSH2 0xCF3 DUP2 PUSH2 0xCB6 JUMP JUMPDEST DUP5 ADD SWAP2 POP POP SWAP3 SWAP2 POP POP JUMP JUMPDEST PUSH0 PUSH1 0x20 DUP3 ADD SWAP1 POP DUP2 DUP2 SUB PUSH0 DUP4 ADD MSTORE PUSH2 0xD16 DUP2 DUP5 PUSH2 0xCC6 JUMP JUMPDEST SWAP1 POP SWAP3 SWAP2 POP POP JUMP JUMPDEST PUSH0 DUP1 REVERT JUMPDEST PUSH0 PUSH20 0xFFFFFFFFFFFFFFFFFFFFFFFFFFFFFFFFFFFFFFFF DUP3 AND SWAP1 POP SWAP2 SWAP1 POP JUMP JUMPDEST PUSH0 PUSH2 0xD4B DUP3 PUSH2 0xD22 JUMP JUMPDEST SWAP1 POP SWAP2 SWAP1 POP JUMP JUMPDEST PUSH2 0xD5B DUP2 PUSH2 0xD41 JUMP JUMPDEST DUP2 EQ PUSH2 0xD65 JUMPI PUSH0 DUP1 REVERT JUMPDEST POP JUMP JUMPDEST PUSH0 DUP2 CALLDATALOAD SWAP1 POP PUSH2 0xD76 DUP2 PUSH2 0xD52 JUMP JUMPDEST SWAP3 SWAP2 POP POP JUMP JUMPDEST PUSH0 DUP2 SWAP1 POP SWAP2 SWAP1 POP JUMP JUMPDEST PUSH2 0xD8E DUP2 PUSH2 0xD7C JUMP JUMPDEST DUP2 EQ PUSH2 0xD98 JUMPI PUSH0 DUP1 REVERT JUMPDEST POP JUMP JUMPDEST PUSH0 DUP2 CALLDATALOAD SWAP1 POP PUSH2 0xDA9 DUP2 PUSH2 0xD85 JUMP JUMPDEST SWAP3 SWAP2 POP POP JUMP JUMPDEST PUSH0 DUP1 PUSH1 0x40 DUP4 DUP6 SUB SLT ISZERO PUSH2 0xDC5 JUMPI PUSH2 0xDC4 PUSH2 0xD1E JUMP JUMPDEST JUMPDEST PUSH0 PUSH2 0xDD2 DUP6 DUP3 DUP7 ADD PUSH2 0xD68 JUMP JUMPDEST SWAP3 POP POP PUSH1 0x20 PUSH2 0xDE3 DUP6 DUP3 DUP7 ADD PUSH2 0xD9B JUMP JUMPDEST SWAP2 POP POP SWAP3 POP SWAP3 SWAP1 POP JUMP JUMPDEST PUSH0 DUP2 ISZERO ISZERO SWAP1 POP SWAP2 SWAP1 POP JUMP JUMPDEST PUSH2 0xE01 DUP2 PUSH2 0xDED JUMP JUMPDEST DUP3 MSTORE POP POP JUMP JUMPDEST PUSH0 PUSH1 0x20 DUP3 ADD SWAP1 POP PUSH2 0xE1A PUSH0 DUP4 ADD DUP5 PUSH2 0xDF8 JUMP JUMPDEST SWAP3 SWAP2 POP POP JUMP JUMPDEST PUSH2 0xE29 DUP2 PUSH2 0xD7C JUMP JUMPDEST DUP3 MSTORE POP POP JUMP JUMPDEST PUSH0 PUSH1 0x20 DUP3 ADD SWAP1 POP PUSH2 0xE42 PUSH0 DUP4 ADD DUP5 PUSH2 0xE20 JUMP JUMPDEST SWAP3 SWAP2 POP POP JUMP JUMPDEST PUSH0 DUP1 PUSH0 PUSH1 0x60 DUP5 DUP7 SUB SLT ISZERO PUSH2 0xE5F JUMPI PUSH2 0xE5E PUSH2 0xD1E JUMP JUMPDEST JUMPDEST PUSH0 PUSH2 0xE6C DUP7 DUP3 DUP8 ADD PUSH2 0xD68 JUMP JUMPDEST SWAP4 POP POP PUSH1 0x20 PUSH2 0xE7D DUP7 DUP3 DUP8 ADD PUSH2 0xD68 JUMP JUMPDEST SWAP3 POP POP PUSH1 0x40 PUSH2 0xE8E DUP7 DUP3 DUP8 ADD PUSH2 0xD9B JUMP JUMPDEST SWAP2 POP POP SWAP3 POP SWAP3 POP SWAP3 JUMP JUMPDEST PUSH0 PUSH1 0xFF DUP3 AND SWAP1 POP SWAP2 SWAP1 POP JUMP JUMPDEST PUSH2 0xEAD DUP2 PUSH2 0xE98 JUMP JUMPDEST DUP3 MSTORE POP POP JUMP JUMPDEST PUSH0 PUSH1 0x20 DUP3 ADD SWAP1 POP PUSH2 0xEC6 PUSH0 DUP4 ADD DUP5 PUSH2 0xEA4 JUMP JUMPDEST SWAP3 SWAP2 POP POP JUMP JUMPDEST PUSH0 PUSH1 0x20 DUP3 DUP5 SUB SLT ISZERO PUSH2 0xEE1 JUMPI PUSH2 0xEE0 PUSH2 0xD1E JUMP JUMPDEST JUMPDEST PUSH0 PUSH2 0xEEE DUP5 DUP3 DUP6 ADD PUSH2 0xD68 JUMP JUMPDEST SWAP2 POP POP SWAP3 SWAP2 POP POP JUMP JUMPDEST PUSH2 0xF00 DUP2 PUSH2 0xD41 JUMP JUMPDEST DUP3 MSTORE POP POP JUMP JUMPDEST PUSH0 PUSH1 0x20 DUP3 ADD SWAP1 POP PUSH2 0xF19 PUSH0 DUP4 ADD DUP5 PUSH2 0xEF7 JUMP JUMPDEST SWAP3 SWAP2 POP POP JUMP JUMPDEST PUSH0 DUP1 PUSH1 0x40 DUP4 DUP6 SUB SLT ISZERO PUSH2 0xF35 JUMPI PUSH2 0xF34 PUSH2 0xD1E JUMP JUMPDEST JUMPDEST PUSH0 PUSH2 0xF42 DUP6 DUP3 DUP7 ADD PUSH2 0xD68 JUMP JUMPDEST SWAP3 POP POP PUSH1 0x20 PUSH2 0xF53 DUP6 DUP3 DUP7 ADD PUSH2 0xD68 JUMP JUMPDEST SWAP2 POP POP SWAP3 POP SWAP3 SWAP1 POP JUMP JUMPDEST PUSH32 0x4E487B7100000000000000000000000000000000000000000000000000000000 PUSH0 MSTORE PUSH1 0x11 PUSH1 0x4 MSTORE PUSH1 0x24 PUSH0 REVERT JUMPDEST PUSH0 PUSH2 0xF94 DUP3 PUSH2 0xD7C JUMP JUMPDEST SWAP2 POP PUSH2 0xF9F DUP4 PUSH2 0xD7C JUMP JUMPDEST SWAP3 POP DUP3 DUP3 ADD SWAP1 POP DUP1 DUP3 GT ISZERO PUSH2 0xFB7 JUMPI PUSH2 0xFB6 PUSH2 0xF5D JUMP JUMPDEST JUMPDEST SWAP3 SWAP2 POP POP JUMP JUMPDEST PUSH32 0x556E617574686F72697A656420456E7469747900000000000000000000000000 PUSH0 DUP3 ADD MSTORE POP JUMP JUMPDEST PUSH0 PUSH2 0xFF1 PUSH1 0x13 DUP4 PUSH2 0xC7E JUMP JUMPDEST SWAP2 POP PUSH2 0xFFC DUP3 PUSH2 0xFBD JUMP JUMPDEST PUSH1 0x20 DUP3 ADD SWAP1 POP SWAP2 SWAP1 POP JUMP JUMPDEST PUSH0 PUSH1 0x20 DUP3 ADD SWAP1 POP DUP2 DUP2 SUB PUSH0 DUP4 ADD MSTORE PUSH2 0x101E DUP2 PUSH2 0xFE5 JUMP JUMPDEST SWAP1 POP SWAP2 SWAP1 POP JUMP JUMPDEST PUSH32 0x4D415820535550504C5920455843454544454400000000000000000000000000 PUSH0 DUP3 ADD MSTORE POP JUMP JUMPDEST PUSH0 PUSH2 0x1059 PUSH1 0x13 DUP4 PUSH2 0xC7E JUMP JUMPDEST SWAP2 POP PUSH2 0x1064 DUP3 PUSH2 0x1025 JUMP JUMPDEST PUSH1 0x20 DUP3 ADD SWAP1 POP SWAP2 SWAP1 POP JUMP JUMPDEST PUSH0 PUSH1 0x20 DUP3 ADD SWAP1 POP DUP2 DUP2 SUB PUSH0 DUP4 ADD MSTORE PUSH2 0x1086 DUP2 PUSH2 0x104D JUMP JUMPDEST SWAP1 POP SWAP2 SWAP1 POP JUMP JUMPDEST PUSH32 0x45524332303A2064656372656173656420616C6C6F77616E63652062656C6F77 PUSH0 DUP3 ADD MSTORE PUSH32 0x207A65726F000000000000000000000000000000000000000000000000000000 PUSH1 0x20 DUP3 ADD MSTORE POP JUMP JUMPDEST PUSH0 PUSH2 0x10E7 PUSH1 0x25 DUP4 PUSH2 0xC7E JUMP JUMPDEST SWAP2 POP PUSH2 0x10F2 DUP3 PUSH2 0x108D JUMP JUMPDEST PUSH1 0x40 DUP3 ADD SWAP1 POP SWAP2 SWAP1 POP JUMP JUMPDEST PUSH0 PUSH1 0x20 DUP3 ADD SWAP1 POP DUP2 DUP2 SUB PUSH0 DUP4 ADD MSTORE PUSH2 0x1114 DUP2 PUSH2 0x10DB JUMP JUMPDEST SWAP1 POP SWAP2 SWAP1 POP JUMP JUMPDEST PUSH32 0x45524332303A20617070726F76652066726F6D20746865207A65726F20616464 PUSH0 DUP3 ADD MSTORE PUSH32 0x7265737300000000000000000000000000000000000000000000000000000000 PUSH1 0x20 DUP3 ADD MSTORE POP JUMP JUMPDEST PUSH0 PUSH2 0x1175 PUSH1 0x24 DUP4 PUSH2 0xC7E JUMP JUMPDEST SWAP2 POP PUSH2 0x1180 DUP3 PUSH2 0x111B JUMP JUMPDEST PUSH1 0x40 DUP3 ADD SWAP1 POP SWAP2 SWAP1 POP JUMP JUMPDEST PUSH0 PUSH1 0x20 DUP3 ADD SWAP1 POP DUP2 DUP2 SUB PUSH0 DUP4 ADD MSTORE PUSH2 0x11A2 DUP2 PUSH2 0x1169 JUMP JUMPDEST SWAP1 POP SWAP2 SWAP1 POP JUMP JUMPDEST PUSH32 0x45524332303A20617070726F766520746F20746865207A65726F206164647265 PUSH0 DUP3 ADD MSTORE PUSH32 0x7373000000000000000000000000000000000000000000000000000000000000 PUSH1 0x20 DUP3 ADD MSTORE POP JUMP JUMPDEST PUSH0 PUSH2 0x1203 PUSH1 0x22 DUP4 PUSH2 0xC7E JUMP JUMPDEST SWAP2 POP PUSH2 0x120E DUP3 PUSH2 0x11A9 JUMP JUMPDEST PUSH1 0x40 DUP3 ADD SWAP1 POP SWAP2 SWAP1 POP JUMP JUMPDEST PUSH0 PUSH1 0x20 DUP3 ADD SWAP1 POP DUP2 DUP2 SUB PUSH0 DUP4 ADD MSTORE PUSH2 0x1230 DUP2 PUSH2 0x11F7 JUMP JUMPDEST SWAP1 POP SWAP2 SWAP1 POP JUMP JUMPDEST PUSH32 0x45524332303A20696E73756666696369656E7420616C6C6F77616E6365000000 PUSH0 DUP3 ADD MSTORE POP JUMP JUMPDEST PUSH0 PUSH2 0x126B PUSH1 0x1D DUP4 PUSH2 0xC7E JUMP JUMPDEST SWAP2 POP PUSH2 0x1276 DUP3 PUSH2 0x1237 JUMP JUMPDEST PUSH1 0x20 DUP3 ADD SWAP1 POP SWAP2 SWAP1 POP JUMP JUMPDEST PUSH0 PUSH1 0x20 DUP3 ADD SWAP1 POP DUP2 DUP2 SUB PUSH0 DUP4 ADD MSTORE PUSH2 0x1298 DUP2 PUSH2 0x125F JUMP JUMPDEST SWAP1 POP SWAP2 SWAP1 POP JUMP JUMPDEST PUSH32 0x45524332303A207472616E736665722066726F6D20746865207A65726F206164 PUSH0 DUP3 ADD MSTORE PUSH32 0x6472657373000000000000000000000000000000000000000000000000000000 PUSH1 0x20 DUP3 ADD MSTORE POP JUMP JUMPDEST PUSH0 PUSH2 0x12F9 PUSH1 0x25 DUP4 PUSH2 0xC7E JUMP JUMPDEST SWAP2 POP PUSH2 0x1304 DUP3 PUSH2 0x129F JUMP JUMPDEST PUSH1 0x40 DUP3 ADD SWAP1 POP SWAP2 SWAP1 POP JUMP JUMPDEST PUSH0 PUSH1 0x20 DUP3 ADD SWAP1 POP DUP2 DUP2 SUB PUSH0 DUP4 ADD MSTORE PUSH2 0x1326 DUP2 PUSH2 0x12ED JUMP JUMPDEST SWAP1 POP SWAP2 SWAP1 POP JUMP JUMPDEST PUSH32 0x45524332303A207472616E7366657220746F20746865207A65726F2061646472 PUSH0 DUP3 ADD MSTORE PUSH32 0x6573730000000000000000000000000000000000000000000000000000000000 PUSH1 0x20 DUP3 ADD MSTORE POP JUMP JUMPDEST PUSH0 PUSH2 0x1387 PUSH1 0x23 DUP4 PUSH2 0xC7E JUMP JUMPDEST SWAP2 POP PUSH2 0x1392 DUP3 PUSH2 0x132D JUMP JUMPDEST PUSH1 0x40 DUP3 ADD SWAP1 POP SWAP2 SWAP1 POP JUMP JUMPDEST PUSH0 PUSH1 0x20 DUP3 ADD SWAP1 POP DUP2 DUP2 SUB PUSH0 DUP4 ADD MSTORE PUSH2 0x13B4 DUP2 PUSH2 0x137B JUMP JUMPDEST SWAP1 POP SWAP2 SWAP1 POP JUMP JUMPDEST PUSH32 0x45524332303A207472616E7366657220616D6F756E7420657863656564732062 PUSH0 DUP3 ADD MSTORE PUSH32 0x616C616E63650000000000000000000000000000000000000000000000000000 PUSH1 0x20 DUP3 ADD MSTORE POP JUMP JUMPDEST PUSH0 PUSH2 0x1415 PUSH1 0x26 DUP4 PUSH2 0xC7E JUMP JUMPDEST SWAP2 POP PUSH2 0x1420 DUP3 PUSH2 0x13BB JUMP JUMPDEST PUSH1 0x40 DUP3 ADD SWAP1 POP SWAP2 SWAP1 POP JUMP JUMPDEST PUSH0 PUSH1 0x20 DUP3 ADD SWAP1 POP DUP2 DUP2 SUB PUSH0 DUP4 ADD MSTORE PUSH2 0x1442 DUP2 PUSH2 0x1409 JUMP JUMPDEST SWAP1 POP SWAP2 SWAP1 POP JUMP JUMPDEST PUSH32 0x45524332303A206D696E7420746F20746865207A65726F206164647265737300 PUSH0 DUP3 ADD MSTORE POP JUMP JUMPDEST PUSH0 PUSH2 0x147D PUSH1 0x1F DUP4 PUSH2 0xC7E JUMP JUMPDEST SWAP2 POP PUSH2 0x1488 DUP3 PUSH2 0x1449 JUMP JUMPDEST PUSH1 0x20 DUP3 ADD SWAP1 POP SWAP2 SWAP1 POP JUMP JUMPDEST PUSH0 PUSH1 0x20 DUP3 ADD SWAP1 POP DUP2 DUP2 SUB PUSH0 DUP4 ADD MSTORE PUSH2 0x14AA DUP2 PUSH2 0x1471 JUMP JUMPDEST SWAP1 POP SWAP2 SWAP1 POP JUMP INVALID LOG2 PUSH5 0x6970667358 0x22 SLT KECCAK256 CALLDATACOPY 0xD1 DUP16 CALLVALUE LOG4 0xED PUSH20 0x6D78EF42BD0555496CA9905A2D40690C64EE1C26 MLOAD 0x4E 0xAC 0xE7 CALLVALUE PUSH5 0x736F6C6343 STOP ADDMOD OR STOP CALLER "
				},
				"gasEstimates": {
					"creation": {
						"codeDepositCost": "1070200",
						"executionCost": "infinite",
						"totalCost": "infinite"
					},
					"external": {
						"allowance(address,address)": "infinite",
						"approve(address,uint256)": "infinite",
						"balanceOf(address)": "2874",
						"decimals()": "427",
						"decreaseAllowance(address,uint256)": "infinite",
						"increaseAllowance(address,uint256)": "infinite",
						"mint(address,uint256)": "infinite",
						"name()": "infinite",
						"owner()": "2575",
						"symbol()": "infinite",
						"totalSupply()": "2477",
						"transfer(address,uint256)": "infinite",
						"transferFrom(address,address,uint256)": "infinite"
					}
				},
				"methodIdentifiers": {
					"allowance(address,address)": "dd62ed3e",
					"approve(address,uint256)": "095ea7b3",
					"balanceOf(address)": "70a08231",
					"decimals()": "313ce567",
					"decreaseAllowance(address,uint256)": "a457c2d7",
					"increaseAllowance(address,uint256)": "39509351",
					"mint(address,uint256)": "40c10f19",
					"name()": "06fdde03",
					"owner()": "8da5cb5b",
					"symbol()": "95d89b41",
					"totalSupply()": "18160ddd",
					"transfer(address,uint256)": "a9059cbb",
					"transferFrom(address,address,uint256)": "23b872dd"
				}
			},
			"storageLayout": {
				"storage": [
					{
						"astId": 133,
						"contract": "backEnd/contracts/governance_token.sol:BUNN_DAO_test",
						"label": "_balances",
						"offset": 0,
						"slot": "0",
						"type": "t_mapping(t_address,t_uint256)"
					},
					{
						"astId": 139,
						"contract": "backEnd/contracts/governance_token.sol:BUNN_DAO_test",
						"label": "_allowances",
						"offset": 0,
						"slot": "1",
						"type": "t_mapping(t_address,t_mapping(t_address,t_uint256))"
					},
					{
						"astId": 141,
						"contract": "backEnd/contracts/governance_token.sol:BUNN_DAO_test",
						"label": "_totalSupply",
						"offset": 0,
						"slot": "2",
						"type": "t_uint256"
					},
					{
						"astId": 143,
						"contract": "backEnd/contracts/governance_token.sol:BUNN_DAO_test",
						"label": "_name",
						"offset": 0,
						"slot": "3",
						"type": "t_string_storage"
					},
					{
						"astId": 145,
						"contract": "backEnd/contracts/governance_token.sol:BUNN_DAO_test",
						"label": "_symbol",
						"offset": 0,
						"slot": "4",
						"type": "t_string_storage"
					},
					{
						"astId": 709,
						"contract": "backEnd/contracts/governance_token.sol:BUNN_DAO_test",
						"label": "MAX_SUPPLY",
						"offset": 0,
						"slot": "5",
						"type": "t_uint256"
					},
					{
						"astId": 711,
						"contract": "backEnd/contracts/governance_token.sol:BUNN_DAO_test",
						"label": "owner",
						"offset": 0,
						"slot": "6",
						"type": "t_address"
					}
				],
				"types": {
					"t_address": {
						"encoding": "inplace",
						"label": "address",
						"numberOfBytes": "20"
					},
					"t_mapping(t_address,t_mapping(t_address,t_uint256))": {
						"encoding": "mapping",
						"key": "t_address",
						"label": "mapping(address => mapping(address => uint256))",
						"numberOfBytes": "32",
						"value": "t_mapping(t_address,t_uint256)"
					},
					"t_mapping(t_address,t_uint256)": {
						"encoding": "mapping",
						"key": "t_address",
						"label": "mapping(address => uint256)",
						"numberOfBytes": "32",
						"value": "t_uint256"
					},
					"t_string_storage": {
						"encoding": "bytes",
						"label": "string",
						"numberOfBytes": "32"
					},
					"t_uint256": {
						"encoding": "inplace",
						"label": "uint256",
						"numberOfBytes": "32"
					}
				}
			},
			"userdoc": {
				"kind": "user",
				"methods": {},
				"version": 1
			}
		}
	}
}