{
	"backEnd/contracts/BUNN_Governor_Proxy.sol": {
		"BUNN_GOVERNOR": {
			"abi": [
				{
					"inputs": [
						{
							"internalType": "address",
							"name": "utility_token_address_",
							"type": "address"
						},
						{
							"internalType": "address",
							"name": "upgraded_logic_contract",
							"type": "address"
						}
					],
					"stateMutability": "nonpayable",
					"type": "constructor"
				},
				{
					"inputs": [],
					"name": "MathOverflowedMulDiv",
					"type": "error"
				},
				{
					"anonymous": false,
					"inputs": [
						{
							"indexed": false,
							"internalType": "string",
							"name": "title",
							"type": "string"
						},
						{
							"indexed": false,
							"internalType": "uint256",
							"name": "topic_id",
							"type": "uint256"
						},
						{
							"indexed": false,
							"internalType": "bool",
							"name": "implemented",
							"type": "bool"
						}
					],
					"name": "decision_implemented",
					"type": "event"
				},
				{
					"anonymous": false,
					"inputs": [
						{
							"indexed": true,
							"internalType": "address",
							"name": "newAdmin",
							"type": "address"
						}
					],
					"name": "new_Admin",
					"type": "event"
				},
				{
					"anonymous": false,
					"inputs": [
						{
							"indexed": true,
							"internalType": "address",
							"name": "new_member",
							"type": "address"
						}
					],
					"name": "new_member",
					"type": "event"
				},
				{
					"anonymous": false,
					"inputs": [
						{
							"indexed": true,
							"internalType": "address",
							"name": "proposer",
							"type": "address"
						},
						{
							"indexed": false,
							"internalType": "string",
							"name": "topic",
							"type": "string"
						}
					],
					"name": "proposal_made",
					"type": "event"
				},
				{
					"anonymous": false,
					"inputs": [
						{
							"indexed": true,
							"internalType": "address",
							"name": "demotedAdmin",
							"type": "address"
						}
					],
					"name": "remove_Admin",
					"type": "event"
				},
				{
					"anonymous": false,
					"inputs": [
						{
							"indexed": true,
							"internalType": "address",
							"name": "participant",
							"type": "address"
						},
						{
							"indexed": false,
							"internalType": "uint256",
							"name": "topic_acted_on",
							"type": "uint256"
						},
						{
							"indexed": false,
							"internalType": "bool",
							"name": "position",
							"type": "bool"
						}
					],
					"name": "vote_cast",
					"type": "event"
				},
				{
					"inputs": [
						{
							"internalType": "address",
							"name": "",
							"type": "address"
						}
					],
					"name": "Members",
					"outputs": [
						{
							"internalType": "string",
							"name": "name",
							"type": "string"
						},
						{
							"internalType": "bool",
							"name": "belongs",
							"type": "bool"
						}
					],
					"stateMutability": "view",
					"type": "function"
				},
				{
					"inputs": [
						{
							"internalType": "uint256",
							"name": "",
							"type": "uint256"
						}
					],
					"name": "Topics",
					"outputs": [
						{
							"internalType": "uint256",
							"name": "id",
							"type": "uint256"
						},
						{
							"internalType": "string",
							"name": "title",
							"type": "string"
						},
						{
							"internalType": "address",
							"name": "initiator",
							"type": "address"
						},
						{
							"internalType": "string",
							"name": "details",
							"type": "string"
						},
						{
							"internalType": "address",
							"name": "implementation_contract_address",
							"type": "address"
						},
						{
							"internalType": "string",
							"name": "signature",
							"type": "string"
						},
						{
							"internalType": "uint256",
							"name": "start_time",
							"type": "uint256"
						},
						{
							"internalType": "bool",
							"name": "executed",
							"type": "bool"
						},
						{
							"internalType": "bool",
							"name": "cancelled",
							"type": "bool"
						}
					],
					"stateMutability": "view",
					"type": "function"
				},
				{
					"inputs": [
						{
							"internalType": "address",
							"name": "upgradeed_logic_contract",
							"type": "address"
						}
					],
					"name": "UPGRADE",
					"outputs": [],
					"stateMutability": "nonpayable",
					"type": "function"
				},
				{
					"inputs": [
						{
							"internalType": "address",
							"name": "newAdmin",
							"type": "address"
						}
					],
					"name": "addAdmin",
					"outputs": [],
					"stateMutability": "nonpayable",
					"type": "function"
				},
				{
					"inputs": [
						{
							"internalType": "address",
							"name": "",
							"type": "address"
						}
					],
					"name": "admin",
					"outputs": [
						{
							"internalType": "bool",
							"name": "is_admin",
							"type": "bool"
						},
						{
							"internalType": "uint256",
							"name": "removers",
							"type": "uint256"
						},
						{
							"internalType": "uint256",
							"name": "adders",
							"type": "uint256"
						}
					],
					"stateMutability": "view",
					"type": "function"
				},
				{
					"inputs": [
						{
							"internalType": "address",
							"name": "",
							"type": "address"
						},
						{
							"internalType": "uint256",
							"name": "",
							"type": "uint256"
						}
					],
					"name": "ballots",
					"outputs": [
						{
							"internalType": "uint256",
							"name": "Topic_ID",
							"type": "uint256"
						},
						{
							"internalType": "bool",
							"name": "position",
							"type": "bool"
						},
						{
							"internalType": "bool",
							"name": "voted",
							"type": "bool"
						},
						{
							"internalType": "uint256",
							"name": "voting_power",
							"type": "uint256"
						}
					],
					"stateMutability": "view",
					"type": "function"
				},
				{
					"inputs": [
						{
							"internalType": "uint256",
							"name": "topic_id",
							"type": "uint256"
						}
					],
					"name": "cancel_Topic",
					"outputs": [],
					"stateMutability": "nonpayable",
					"type": "function"
				},
				{
					"inputs": [
						{
							"internalType": "uint256",
							"name": "topic_id",
							"type": "uint256"
						},
						{
							"internalType": "bool",
							"name": "position_",
							"type": "bool"
						}
					],
					"name": "cast_vote",
					"outputs": [],
					"stateMutability": "nonpayable",
					"type": "function"
				},
				{
					"inputs": [],
					"name": "counter",
					"outputs": [
						{
							"internalType": "uint256",
							"name": "",
							"type": "uint256"
						}
					],
					"stateMutability": "view",
					"type": "function"
				},
				{
					"inputs": [
						{
							"internalType": "uint256",
							"name": "topic_id",
							"type": "uint256"
						}
					],
					"name": "implement_decision",
					"outputs": [],
					"stateMutability": "payable",
					"type": "function"
				},
				{
					"inputs": [],
					"name": "implementation_delay",
					"outputs": [
						{
							"internalType": "uint256",
							"name": "",
							"type": "uint256"
						}
					],
					"stateMutability": "view",
					"type": "function"
				},
				{
					"inputs": [
						{
							"internalType": "string",
							"name": "title_",
							"type": "string"
						},
						{
							"internalType": "string",
							"name": "details_",
							"type": "string"
						},
						{
							"internalType": "address",
							"name": "implementation_contract_address_",
							"type": "address"
						},
						{
							"internalType": "string",
							"name": "signature_",
							"type": "string"
						}
					],
					"name": "initiate_topic",
					"outputs": [],
					"stateMutability": "nonpayable",
					"type": "function"
				},
				{
					"inputs": [],
					"name": "logic_contrcat",
					"outputs": [
						{
							"internalType": "address",
							"name": "",
							"type": "address"
						}
					],
					"stateMutability": "view",
					"type": "function"
				},
				{
					"inputs": [
						{
							"internalType": "uint256",
							"name": "target",
							"type": "uint256"
						},
						{
							"internalType": "uint256",
							"name": "comparison",
							"type": "uint256"
						}
					],
					"name": "quorum",
					"outputs": [
						{
							"internalType": "bool",
							"name": "",
							"type": "bool"
						}
					],
					"stateMutability": "pure",
					"type": "function"
				},
				{
					"inputs": [
						{
							"internalType": "string",
							"name": "name_",
							"type": "string"
						}
					],
					"name": "register",
					"outputs": [],
					"stateMutability": "nonpayable",
					"type": "function"
				},
				{
					"inputs": [
						{
							"internalType": "address",
							"name": "demotedAdmin",
							"type": "address"
						}
					],
					"name": "removeAdmin",
					"outputs": [],
					"stateMutability": "nonpayable",
					"type": "function"
				},
				{
					"inputs": [],
					"name": "returned",
					"outputs": [
						{
							"internalType": "uint256",
							"name": "",
							"type": "uint256"
						}
					],
					"stateMutability": "view",
					"type": "function"
				},
				{
					"inputs": [],
					"name": "utility_token_address",
					"outputs": [
						{
							"internalType": "address",
							"name": "",
							"type": "address"
						}
					],
					"stateMutability": "view",
					"type": "function"
				},
				{
					"inputs": [
						{
							"internalType": "uint256",
							"name": "",
							"type": "uint256"
						}
					],
					"name": "votes",
					"outputs": [
						{
							"internalType": "uint256",
							"name": "for_votes",
							"type": "uint256"
						},
						{
							"internalType": "uint256",
							"name": "against_votes",
							"type": "uint256"
						}
					],
					"stateMutability": "view",
					"type": "function"
				},
				{
					"inputs": [],
					"name": "voting_duration",
					"outputs": [
						{
							"internalType": "uint256",
							"name": "",
							"type": "uint256"
						}
					],
					"stateMutability": "view",
					"type": "function"
				}
			],
			"devdoc": {
				"errors": {
					"MathOverflowedMulDiv()": [
						{
							"details": "Muldiv operation overflow."
						}
					]
				},
				"kind": "dev",
				"methods": {},
				"version": 1
			},
			"evm": {
				"assembly": "    /* \"backEnd/contracts/BUNN_Governor_Proxy.sol\":180:5302  contract BUNN_GOVERNOR is governor_storage, Restrictions {... */\n  mstore(0x40, 0x80)\n    /* \"backEnd/contracts/governor_storage.sol\":2392:2393  1 */\n  0x01\n    /* \"backEnd/contracts/governor_storage.sol\":2367:2393  uint256 public counter = 1 */\n  0x09\n  sstore\n    /* \"backEnd/contracts/restrictions.sol\":273:279  432000 */\n  0x069780\n    /* \"backEnd/contracts/restrictions.sol\":240:279  uint256 public voting_duration = 432000 */\n  0x0a\n  sstore\n    /* \"backEnd/contracts/restrictions.sol\":332:337  86400 */\n  0x015180\n    /* \"backEnd/contracts/restrictions.sol\":294:337  uint256 public implementation_delay = 86400 */\n  0x0b\n  sstore\n    /* \"backEnd/contracts/BUNN_Governor_Proxy.sol\":820:1053  constructor(address utility_token_address_, address upgraded_logic_contract) {... */\n  callvalue\n  dup1\n  iszero\n  tag_1\n  jumpi\n  0x00\n  dup1\n  revert\ntag_1:\n  pop\n  mload(0x40)\n  sub(codesize, bytecodeSize)\n  dup1\n  bytecodeSize\n  dup4\n  codecopy\n  dup2\n  dup2\n  add\n  0x40\n  mstore\n  dup2\n  add\n  swap1\n  tag_2\n  swap2\n  swap1\n  tag_3\n  jump\t// in\ntag_2:\n    /* \"backEnd/contracts/BUNN_Governor_Proxy.sol\":931:953  utility_token_address_ */\n  dup2\n    /* \"backEnd/contracts/BUNN_Governor_Proxy.sol\":907:928  utility_token_address */\n  0x00\n  dup1\n    /* \"backEnd/contracts/BUNN_Governor_Proxy.sol\":907:953  utility_token_address = utility_token_address_ */\n  0x0100\n  exp\n  dup2\n  sload\n  dup2\n  0xffffffffffffffffffffffffffffffffffffffff\n  mul\n  not\n  and\n  swap1\n  dup4\n  0xffffffffffffffffffffffffffffffffffffffff\n  and\n  mul\n  or\n  swap1\n  sstore\n  pop\n    /* \"backEnd/contracts/BUNN_Governor_Proxy.sol\":992:996  true */\n  0x01\n    /* \"backEnd/contracts/BUNN_Governor_Proxy.sol\":963:968  admin */\n  0x03\n    /* \"backEnd/contracts/BUNN_Governor_Proxy.sol\":963:980  admin[msg.sender] */\n  0x00\n    /* \"backEnd/contracts/BUNN_Governor_Proxy.sol\":969:979  msg.sender */\n  caller\n    /* \"backEnd/contracts/BUNN_Governor_Proxy.sol\":963:980  admin[msg.sender] */\n  0xffffffffffffffffffffffffffffffffffffffff\n  and\n  0xffffffffffffffffffffffffffffffffffffffff\n  and\n  dup2\n  mstore\n  0x20\n  add\n  swap1\n  dup2\n  mstore\n  0x20\n  add\n  0x00\n  keccak256\n    /* \"backEnd/contracts/BUNN_Governor_Proxy.sol\":963:989  admin[msg.sender].is_admin */\n  0x00\n  add\n  0x00\n    /* \"backEnd/contracts/BUNN_Governor_Proxy.sol\":963:996  admin[msg.sender].is_admin = true */\n  0x0100\n  exp\n  dup2\n  sload\n  dup2\n  0xff\n  mul\n  not\n  and\n  swap1\n  dup4\n  iszero\n  iszero\n  mul\n  or\n  swap1\n  sstore\n  pop\n    /* \"backEnd/contracts/BUNN_Governor_Proxy.sol\":1023:1046  upgraded_logic_contract */\n  dup1\n    /* \"backEnd/contracts/BUNN_Governor_Proxy.sol\":1006:1020  logic_contrcat */\n  0x02\n  0x00\n    /* \"backEnd/contracts/BUNN_Governor_Proxy.sol\":1006:1046  logic_contrcat = upgraded_logic_contract */\n  0x0100\n  exp\n  dup2\n  sload\n  dup2\n  0xffffffffffffffffffffffffffffffffffffffff\n  mul\n  not\n  and\n  swap1\n  dup4\n  0xffffffffffffffffffffffffffffffffffffffff\n  and\n  mul\n  or\n  swap1\n  sstore\n  pop\n    /* \"backEnd/contracts/BUNN_Governor_Proxy.sol\":820:1053  constructor(address utility_token_address_, address upgraded_logic_contract) {... */\n  pop\n  pop\n    /* \"backEnd/contracts/BUNN_Governor_Proxy.sol\":180:5302  contract BUNN_GOVERNOR is governor_storage, Restrictions {... */\n  jump(tag_8)\n    /* \"#utility.yul\":88:205   */\ntag_10:\n    /* \"#utility.yul\":197:198   */\n  0x00\n    /* \"#utility.yul\":194:195   */\n  dup1\n    /* \"#utility.yul\":187:199   */\n  revert\n    /* \"#utility.yul\":334:460   */\ntag_12:\n    /* \"#utility.yul\":371:378   */\n  0x00\n    /* \"#utility.yul\":411:453   */\n  0xffffffffffffffffffffffffffffffffffffffff\n    /* \"#utility.yul\":404:409   */\n  dup3\n    /* \"#utility.yul\":400:454   */\n  and\n    /* \"#utility.yul\":389:454   */\n  swap1\n  pop\n    /* \"#utility.yul\":334:460   */\n  swap2\n  swap1\n  pop\n  jump\t// out\n    /* \"#utility.yul\":466:562   */\ntag_13:\n    /* \"#utility.yul\":503:510   */\n  0x00\n    /* \"#utility.yul\":532:556   */\n  tag_22\n    /* \"#utility.yul\":550:555   */\n  dup3\n    /* \"#utility.yul\":532:556   */\n  tag_12\n  jump\t// in\ntag_22:\n    /* \"#utility.yul\":521:556   */\n  swap1\n  pop\n    /* \"#utility.yul\":466:562   */\n  swap2\n  swap1\n  pop\n  jump\t// out\n    /* \"#utility.yul\":568:690   */\ntag_14:\n    /* \"#utility.yul\":641:665   */\n  tag_24\n    /* \"#utility.yul\":659:664   */\n  dup2\n    /* \"#utility.yul\":641:665   */\n  tag_13\n  jump\t// in\ntag_24:\n    /* \"#utility.yul\":634:639   */\n  dup2\n    /* \"#utility.yul\":631:666   */\n  eq\n    /* \"#utility.yul\":621:684   */\n  tag_25\n  jumpi\n    /* \"#utility.yul\":680:681   */\n  0x00\n    /* \"#utility.yul\":677:678   */\n  dup1\n    /* \"#utility.yul\":670:682   */\n  revert\n    /* \"#utility.yul\":621:684   */\ntag_25:\n    /* \"#utility.yul\":568:690   */\n  pop\n  jump\t// out\n    /* \"#utility.yul\":696:839   */\ntag_15:\n    /* \"#utility.yul\":753:758   */\n  0x00\n    /* \"#utility.yul\":784:790   */\n  dup2\n    /* \"#utility.yul\":778:791   */\n  mload\n    /* \"#utility.yul\":769:791   */\n  swap1\n  pop\n    /* \"#utility.yul\":800:833   */\n  tag_27\n    /* \"#utility.yul\":827:832   */\n  dup2\n    /* \"#utility.yul\":800:833   */\n  tag_14\n  jump\t// in\ntag_27:\n    /* \"#utility.yul\":696:839   */\n  swap3\n  swap2\n  pop\n  pop\n  jump\t// out\n    /* \"#utility.yul\":845:1352   */\ntag_3:\n    /* \"#utility.yul\":924:930   */\n  0x00\n    /* \"#utility.yul\":932:938   */\n  dup1\n    /* \"#utility.yul\":981:983   */\n  0x40\n    /* \"#utility.yul\":969:978   */\n  dup4\n    /* \"#utility.yul\":960:967   */\n  dup6\n    /* \"#utility.yul\":956:979   */\n  sub\n    /* \"#utility.yul\":952:984   */\n  slt\n    /* \"#utility.yul\":949:1068   */\n  iszero\n  tag_29\n  jumpi\n    /* \"#utility.yul\":987:1066   */\n  tag_30\n  tag_10\n  jump\t// in\ntag_30:\n    /* \"#utility.yul\":949:1068   */\ntag_29:\n    /* \"#utility.yul\":1107:1108   */\n  0x00\n    /* \"#utility.yul\":1132:1196   */\n  tag_31\n    /* \"#utility.yul\":1188:1195   */\n  dup6\n    /* \"#utility.yul\":1179:1185   */\n  dup3\n    /* \"#utility.yul\":1168:1177   */\n  dup7\n    /* \"#utility.yul\":1164:1186   */\n  add\n    /* \"#utility.yul\":1132:1196   */\n  tag_15\n  jump\t// in\ntag_31:\n    /* \"#utility.yul\":1122:1196   */\n  swap3\n  pop\n    /* \"#utility.yul\":1078:1206   */\n  pop\n    /* \"#utility.yul\":1245:1247   */\n  0x20\n    /* \"#utility.yul\":1271:1335   */\n  tag_32\n    /* \"#utility.yul\":1327:1334   */\n  dup6\n    /* \"#utility.yul\":1318:1324   */\n  dup3\n    /* \"#utility.yul\":1307:1316   */\n  dup7\n    /* \"#utility.yul\":1303:1325   */\n  add\n    /* \"#utility.yul\":1271:1335   */\n  tag_15\n  jump\t// in\ntag_32:\n    /* \"#utility.yul\":1261:1335   */\n  swap2\n  pop\n    /* \"#utility.yul\":1216:1345   */\n  pop\n    /* \"#utility.yul\":845:1352   */\n  swap3\n  pop\n  swap3\n  swap1\n  pop\n  jump\t// out\n    /* \"backEnd/contracts/BUNN_Governor_Proxy.sol\":180:5302  contract BUNN_GOVERNOR is governor_storage, Restrictions {... */\ntag_8:\n  dataSize(sub_0)\n  dup1\n  dataOffset(sub_0)\n  0x00\n  codecopy\n  0x00\n  return\nstop\n\nsub_0: assembly {\n        /* \"backEnd/contracts/BUNN_Governor_Proxy.sol\":180:5302  contract BUNN_GOVERNOR is governor_storage, Restrictions {... */\n      mstore(0x40, 0x80)\n      jumpi(tag_1, lt(calldatasize, 0x04))\n      shr(0xe0, calldataload(0x00))\n      dup1\n      0x63a846f8\n      gt\n      tag_22\n      jumpi\n      dup1\n      0xa060acfa\n      gt\n      tag_23\n      jumpi\n      dup1\n      0xa060acfa\n      eq\n      tag_17\n      jumpi\n      dup1\n      0xa0a67c58\n      eq\n      tag_18\n      jumpi\n      dup1\n      0xa58c14e2\n      eq\n      tag_19\n      jumpi\n      dup1\n      0xf2c298be\n      eq\n      tag_20\n      jumpi\n      dup1\n      0xfd0f0166\n      eq\n      tag_21\n      jumpi\n      jump(tag_1)\n    tag_23:\n      dup1\n      0x63a846f8\n      eq\n      tag_12\n      jumpi\n      dup1\n      0x67358c96\n      eq\n      tag_13\n      jumpi\n      dup1\n      0x6cb76408\n      eq\n      tag_14\n      jumpi\n      dup1\n      0x70480275\n      eq\n      tag_15\n      jumpi\n      dup1\n      0x7d1592f3\n      eq\n      tag_16\n      jumpi\n      jump(tag_1)\n    tag_22:\n      dup1\n      0x54b598ec\n      gt\n      tag_24\n      jumpi\n      dup1\n      0x54b598ec\n      eq\n      tag_7\n      jumpi\n      dup1\n      0x5787c126\n      eq\n      tag_8\n      jumpi\n      dup1\n      0x5bb6d284\n      eq\n      tag_9\n      jumpi\n      dup1\n      0x5df81330\n      eq\n      tag_10\n      jumpi\n      dup1\n      0x61bc221a\n      eq\n      tag_11\n      jumpi\n      jump(tag_1)\n    tag_24:\n      dup1\n      0x1785f53c\n      eq\n      tag_2\n      jumpi\n      dup1\n      0x1c8dd214\n      eq\n      tag_3\n      jumpi\n      dup1\n      0x3153cebc\n      eq\n      tag_4\n      jumpi\n      dup1\n      0x33f794b5\n      eq\n      tag_5\n      jumpi\n      dup1\n      0x47411226\n      eq\n      tag_6\n      jumpi\n    tag_1:\n      0x00\n      dup1\n      revert\n        /* \"backEnd/contracts/BUNN_Governor_Proxy.sol\":4826:5300  function removeAdmin(address demotedAdmin) public onlyAdmin{... */\n    tag_2:\n      callvalue\n      dup1\n      iszero\n      tag_25\n      jumpi\n      0x00\n      dup1\n      revert\n    tag_25:\n      pop\n      tag_26\n      0x04\n      dup1\n      calldatasize\n      sub\n      dup2\n      add\n      swap1\n      tag_27\n      swap2\n      swap1\n      tag_28\n      jump\t// in\n    tag_27:\n      tag_29\n      jump\t// in\n    tag_26:\n      stop\n        /* \"backEnd/contracts/BUNN_Governor_Proxy.sol\":1966:3635  function cast_vote(uint256 topic_id, bool position_) public {... */\n    tag_3:\n      callvalue\n      dup1\n      iszero\n      tag_30\n      jumpi\n      0x00\n      dup1\n      revert\n    tag_30:\n      pop\n      tag_31\n      0x04\n      dup1\n      calldatasize\n      sub\n      dup2\n      add\n      swap1\n      tag_32\n      swap2\n      swap1\n      tag_33\n      jump\t// in\n    tag_32:\n      tag_34\n      jump\t// in\n    tag_31:\n      stop\n        /* \"backEnd/contracts/restrictions.sol\":240:279  uint256 public voting_duration = 432000 */\n    tag_4:\n      callvalue\n      dup1\n      iszero\n      tag_35\n      jumpi\n      0x00\n      dup1\n      revert\n    tag_35:\n      pop\n      tag_36\n      tag_37\n      jump\t// in\n    tag_36:\n      mload(0x40)\n      tag_38\n      swap2\n      swap1\n      tag_39\n      jump\t// in\n    tag_38:\n      mload(0x40)\n      dup1\n      swap2\n      sub\n      swap1\n      return\n        /* \"backEnd/contracts/BUNN_Governor_Proxy.sol\":3981:4085  function cancel_Topic(uint topic_id) public onlyAdmin {... */\n    tag_5:\n      callvalue\n      dup1\n      iszero\n      tag_40\n      jumpi\n      0x00\n      dup1\n      revert\n    tag_40:\n      pop\n      tag_41\n      0x04\n      dup1\n      calldatasize\n      sub\n      dup2\n      add\n      swap1\n      tag_42\n      swap2\n      swap1\n      tag_43\n      jump\t// in\n    tag_42:\n      tag_44\n      jump\t// in\n    tag_41:\n      stop\n        /* \"backEnd/contracts/restrictions.sol\":676:881  function quorum(... */\n    tag_6:\n      callvalue\n      dup1\n      iszero\n      tag_45\n      jumpi\n      0x00\n      dup1\n      revert\n    tag_45:\n      pop\n      tag_46\n      0x04\n      dup1\n      calldatasize\n      sub\n      dup2\n      add\n      swap1\n      tag_47\n      swap2\n      swap1\n      tag_48\n      jump\t// in\n    tag_47:\n      tag_49\n      jump\t// in\n    tag_46:\n      mload(0x40)\n      tag_50\n      swap2\n      swap1\n      tag_51\n      jump\t// in\n    tag_50:\n      mload(0x40)\n      dup1\n      swap2\n      sub\n      swap1\n      return\n        /* \"backEnd/contracts/governor_storage.sol\":1526:1585  mapping(address => mapping (uint => ballot)) public ballots */\n    tag_7:\n      callvalue\n      dup1\n      iszero\n      tag_52\n      jumpi\n      0x00\n      dup1\n      revert\n    tag_52:\n      pop\n      tag_53\n      0x04\n      dup1\n      calldatasize\n      sub\n      dup2\n      add\n      swap1\n      tag_54\n      swap2\n      swap1\n      tag_55\n      jump\t// in\n    tag_54:\n      tag_56\n      jump\t// in\n    tag_53:\n      mload(0x40)\n      tag_57\n      swap5\n      swap4\n      swap3\n      swap2\n      swap1\n      tag_58\n      jump\t// in\n    tag_57:\n      mload(0x40)\n      dup1\n      swap2\n      sub\n      swap1\n      return\n        /* \"backEnd/contracts/BUNN_Governor_Proxy.sol\":4188:4314  function UPGRADE(address upgradeed_logic_contract) public onlyAdmin {... */\n    tag_8:\n      callvalue\n      dup1\n      iszero\n      tag_59\n      jumpi\n      0x00\n      dup1\n      revert\n    tag_59:\n      pop\n      tag_60\n      0x04\n      dup1\n      calldatasize\n      sub\n      dup2\n      add\n      swap1\n      tag_61\n      swap2\n      swap1\n      tag_28\n      jump\t// in\n    tag_61:\n      tag_62\n      jump\t// in\n    tag_60:\n      stop\n        /* \"backEnd/contracts/governor_storage.sol\":2321:2360  mapping(uint256 => Topic) public Topics */\n    tag_9:\n      callvalue\n      dup1\n      iszero\n      tag_63\n      jumpi\n      0x00\n      dup1\n      revert\n    tag_63:\n      pop\n      tag_64\n      0x04\n      dup1\n      calldatasize\n      sub\n      dup2\n      add\n      swap1\n      tag_65\n      swap2\n      swap1\n      tag_43\n      jump\t// in\n    tag_65:\n      tag_66\n      jump\t// in\n    tag_64:\n      mload(0x40)\n      tag_67\n      swap10\n      swap9\n      swap8\n      swap7\n      swap6\n      swap5\n      swap4\n      swap3\n      swap2\n      swap1\n      tag_68\n      jump\t// in\n    tag_67:\n      mload(0x40)\n      dup1\n      swap2\n      sub\n      swap1\n      return\n        /* \"backEnd/contracts/governor_storage.sol\":1673:1707  mapping(uint => vote) public votes */\n    tag_10:\n      callvalue\n      dup1\n      iszero\n      tag_69\n      jumpi\n      0x00\n      dup1\n      revert\n    tag_69:\n      pop\n      tag_70\n      0x04\n      dup1\n      calldatasize\n      sub\n      dup2\n      add\n      swap1\n      tag_71\n      swap2\n      swap1\n      tag_43\n      jump\t// in\n    tag_71:\n      tag_72\n      jump\t// in\n    tag_70:\n      mload(0x40)\n      tag_73\n      swap3\n      swap2\n      swap1\n      tag_74\n      jump\t// in\n    tag_73:\n      mload(0x40)\n      dup1\n      swap2\n      sub\n      swap1\n      return\n        /* \"backEnd/contracts/governor_storage.sol\":2367:2393  uint256 public counter = 1 */\n    tag_11:\n      callvalue\n      dup1\n      iszero\n      tag_75\n      jumpi\n      0x00\n      dup1\n      revert\n    tag_75:\n      pop\n      tag_76\n      tag_77\n      jump\t// in\n    tag_76:\n      mload(0x40)\n      tag_78\n      swap2\n      swap1\n      tag_39\n      jump\t// in\n    tag_78:\n      mload(0x40)\n      dup1\n      swap2\n      sub\n      swap1\n      return\n        /* \"backEnd/contracts/governor_storage.sol\":764:803  mapping(address => admin_) public admin */\n    tag_12:\n      callvalue\n      dup1\n      iszero\n      tag_79\n      jumpi\n      0x00\n      dup1\n      revert\n    tag_79:\n      pop\n      tag_80\n      0x04\n      dup1\n      calldatasize\n      sub\n      dup2\n      add\n      swap1\n      tag_81\n      swap2\n      swap1\n      tag_28\n      jump\t// in\n    tag_81:\n      tag_82\n      jump\t// in\n    tag_80:\n      mload(0x40)\n      tag_83\n      swap4\n      swap3\n      swap2\n      swap1\n      tag_84\n      jump\t// in\n    tag_83:\n      mload(0x40)\n      dup1\n      swap2\n      sub\n      swap1\n      return\n        /* \"backEnd/contracts/restrictions.sol\":294:337  uint256 public implementation_delay = 86400 */\n    tag_13:\n      callvalue\n      dup1\n      iszero\n      tag_85\n      jumpi\n      0x00\n      dup1\n      revert\n    tag_85:\n      pop\n      tag_86\n      tag_87\n      jump\t// in\n    tag_86:\n      mload(0x40)\n      tag_88\n      swap2\n      swap1\n      tag_39\n      jump\t// in\n    tag_88:\n      mload(0x40)\n      dup1\n      swap2\n      sub\n      swap1\n      return\n        /* \"backEnd/contracts/governor_storage.sol\":251:274  uint256 public returned */\n    tag_14:\n      callvalue\n      dup1\n      iszero\n      tag_89\n      jumpi\n      0x00\n      dup1\n      revert\n    tag_89:\n      pop\n      tag_90\n      tag_91\n      jump\t// in\n    tag_90:\n      mload(0x40)\n      tag_92\n      swap2\n      swap1\n      tag_39\n      jump\t// in\n    tag_92:\n      mload(0x40)\n      dup1\n      swap2\n      sub\n      swap1\n      return\n        /* \"backEnd/contracts/BUNN_Governor_Proxy.sol\":4428:4820  function addAdmin(address newAdmin) public onlyAdmin {... */\n    tag_15:\n      callvalue\n      dup1\n      iszero\n      tag_93\n      jumpi\n      0x00\n      dup1\n      revert\n    tag_93:\n      pop\n      tag_94\n      0x04\n      dup1\n      calldatasize\n      sub\n      dup2\n      add\n      swap1\n      tag_95\n      swap2\n      swap1\n      tag_28\n      jump\t// in\n    tag_95:\n      tag_96\n      jump\t// in\n    tag_94:\n      stop\n        /* \"backEnd/contracts/BUNN_Governor_Proxy.sol\":1436:1916  function initiate_topic(... */\n    tag_16:\n      callvalue\n      dup1\n      iszero\n      tag_97\n      jumpi\n      0x00\n      dup1\n      revert\n    tag_97:\n      pop\n      tag_98\n      0x04\n      dup1\n      calldatasize\n      sub\n      dup2\n      add\n      swap1\n      tag_99\n      swap2\n      swap1\n      tag_100\n      jump\t// in\n    tag_99:\n      tag_101\n      jump\t// in\n    tag_98:\n      stop\n        /* \"backEnd/contracts/BUNN_Governor_Proxy.sol\":3718:3975  function implement_decision(uint256 topic_id) public payable onlyAdmin{... */\n    tag_17:\n      tag_102\n      0x04\n      dup1\n      calldatasize\n      sub\n      dup2\n      add\n      swap1\n      tag_103\n      swap2\n      swap1\n      tag_43\n      jump\t// in\n    tag_103:\n      tag_104\n      jump\t// in\n    tag_102:\n      stop\n        /* \"backEnd/contracts/governor_storage.sol\":209:245  address public utility_token_address */\n    tag_18:\n      callvalue\n      dup1\n      iszero\n      tag_105\n      jumpi\n      0x00\n      dup1\n      revert\n    tag_105:\n      pop\n      tag_106\n      tag_107\n      jump\t// in\n    tag_106:\n      mload(0x40)\n      tag_108\n      swap2\n      swap1\n      tag_109\n      jump\t// in\n    tag_108:\n      mload(0x40)\n      dup1\n      swap2\n      sub\n      swap1\n      return\n        /* \"backEnd/contracts/governor_storage.sol\":280:309  address public logic_contrcat */\n    tag_19:\n      callvalue\n      dup1\n      iszero\n      tag_110\n      jumpi\n      0x00\n      dup1\n      revert\n    tag_110:\n      pop\n      tag_111\n      tag_112\n      jump\t// in\n    tag_111:\n      mload(0x40)\n      tag_113\n      swap2\n      swap1\n      tag_109\n      jump\t// in\n    tag_113:\n      mload(0x40)\n      dup1\n      swap2\n      sub\n      swap1\n      return\n        /* \"backEnd/contracts/BUNN_Governor_Proxy.sol\":1147:1379  function register(string memory name_/* , uint256 d_tokens */) public {... */\n    tag_20:\n      callvalue\n      dup1\n      iszero\n      tag_114\n      jumpi\n      0x00\n      dup1\n      revert\n    tag_114:\n      pop\n      tag_115\n      0x04\n      dup1\n      calldatasize\n      sub\n      dup2\n      add\n      swap1\n      tag_116\n      swap2\n      swap1\n      tag_117\n      jump\t// in\n    tag_116:\n      tag_118\n      jump\t// in\n    tag_115:\n      stop\n        /* \"backEnd/contracts/governor_storage.sol\":1007:1048  mapping(address => Member) public Members */\n    tag_21:\n      callvalue\n      dup1\n      iszero\n      tag_119\n      jumpi\n      0x00\n      dup1\n      revert\n    tag_119:\n      pop\n      tag_120\n      0x04\n      dup1\n      calldatasize\n      sub\n      dup2\n      add\n      swap1\n      tag_121\n      swap2\n      swap1\n      tag_28\n      jump\t// in\n    tag_121:\n      tag_122\n      jump\t// in\n    tag_120:\n      mload(0x40)\n      tag_123\n      swap3\n      swap2\n      swap1\n      tag_124\n      jump\t// in\n    tag_123:\n      mload(0x40)\n      dup1\n      swap2\n      sub\n      swap1\n      return\n        /* \"backEnd/contracts/BUNN_Governor_Proxy.sol\":4826:5300  function removeAdmin(address demotedAdmin) public onlyAdmin{... */\n    tag_29:\n        /* \"backEnd/contracts/BUNN_Governor_Proxy.sol\":4359:4364  admin */\n      0x03\n        /* \"backEnd/contracts/BUNN_Governor_Proxy.sol\":4359:4376  admin[msg.sender] */\n      0x00\n        /* \"backEnd/contracts/BUNN_Governor_Proxy.sol\":4365:4375  msg.sender */\n      caller\n        /* \"backEnd/contracts/BUNN_Governor_Proxy.sol\":4359:4376  admin[msg.sender] */\n      0xffffffffffffffffffffffffffffffffffffffff\n      and\n      0xffffffffffffffffffffffffffffffffffffffff\n      and\n      dup2\n      mstore\n      0x20\n      add\n      swap1\n      dup2\n      mstore\n      0x20\n      add\n      0x00\n      keccak256\n        /* \"backEnd/contracts/BUNN_Governor_Proxy.sol\":4359:4385  admin[msg.sender].is_admin */\n      0x00\n      add\n      0x00\n      swap1\n      sload\n      swap1\n      0x0100\n      exp\n      swap1\n      div\n      0xff\n      and\n        /* \"backEnd/contracts/BUNN_Governor_Proxy.sol\":4351:4404  require(admin[msg.sender].is_admin, \"ACCESS DENIED!\") */\n      tag_126\n      jumpi\n      mload(0x40)\n      0x08c379a000000000000000000000000000000000000000000000000000000000\n      dup2\n      mstore\n      0x04\n      add\n      tag_127\n      swap1\n      tag_128\n      jump\t// in\n    tag_127:\n      mload(0x40)\n      dup1\n      swap2\n      sub\n      swap1\n      revert\n    tag_126:\n        /* \"backEnd/contracts/BUNN_Governor_Proxy.sol\":5018:5019  1 */\n      0x01\n        /* \"backEnd/contracts/BUNN_Governor_Proxy.sol\":5004:5010  admins */\n      0x04\n        /* \"backEnd/contracts/BUNN_Governor_Proxy.sol\":5004:5017  admins.length */\n      dup1\n      sload\n      swap1\n      pop\n        /* \"backEnd/contracts/BUNN_Governor_Proxy.sol\":5004:5019  admins.length-1 */\n      tag_130\n      swap2\n      swap1\n      tag_131\n      jump\t// in\n    tag_130:\n        /* \"backEnd/contracts/BUNN_Governor_Proxy.sol\":4972:4977  admin */\n      0x03\n        /* \"backEnd/contracts/BUNN_Governor_Proxy.sol\":4972:4991  admin[demotedAdmin] */\n      0x00\n        /* \"backEnd/contracts/BUNN_Governor_Proxy.sol\":4978:4990  demotedAdmin */\n      dup4\n        /* \"backEnd/contracts/BUNN_Governor_Proxy.sol\":4972:4991  admin[demotedAdmin] */\n      0xffffffffffffffffffffffffffffffffffffffff\n      and\n      0xffffffffffffffffffffffffffffffffffffffff\n      and\n      dup2\n      mstore\n      0x20\n      add\n      swap1\n      dup2\n      mstore\n      0x20\n      add\n      0x00\n      keccak256\n        /* \"backEnd/contracts/BUNN_Governor_Proxy.sol\":4972:5000  admin[demotedAdmin].removers */\n      0x01\n      add\n      sload\n        /* \"backEnd/contracts/BUNN_Governor_Proxy.sol\":4972:5019  admin[demotedAdmin].removers >= admins.length-1 */\n      lt\n        /* \"backEnd/contracts/BUNN_Governor_Proxy.sol\":4969:5252  if(admin[demotedAdmin].removers >= admins.length-1 ){... */\n      tag_132\n      jumpi\n        /* \"backEnd/contracts/BUNN_Governor_Proxy.sol\":5066:5071  false */\n      0x00\n        /* \"backEnd/contracts/BUNN_Governor_Proxy.sol\":5035:5040  admin */\n      0x03\n        /* \"backEnd/contracts/BUNN_Governor_Proxy.sol\":5035:5054  admin[demotedAdmin] */\n      0x00\n        /* \"backEnd/contracts/BUNN_Governor_Proxy.sol\":5041:5053  demotedAdmin */\n      dup4\n        /* \"backEnd/contracts/BUNN_Governor_Proxy.sol\":5035:5054  admin[demotedAdmin] */\n      0xffffffffffffffffffffffffffffffffffffffff\n      and\n      0xffffffffffffffffffffffffffffffffffffffff\n      and\n      dup2\n      mstore\n      0x20\n      add\n      swap1\n      dup2\n      mstore\n      0x20\n      add\n      0x00\n      keccak256\n        /* \"backEnd/contracts/BUNN_Governor_Proxy.sol\":5035:5063  admin[demotedAdmin].is_admin */\n      0x00\n      add\n      0x00\n        /* \"backEnd/contracts/BUNN_Governor_Proxy.sol\":5035:5071  admin[demotedAdmin].is_admin = false */\n      0x0100\n      exp\n      dup2\n      sload\n      dup2\n      0xff\n      mul\n      not\n      and\n      swap1\n      dup4\n      iszero\n      iszero\n      mul\n      or\n      swap1\n      sstore\n      pop\n        /* \"backEnd/contracts/BUNN_Governor_Proxy.sol\":5147:5148  1 */\n      0x01\n        /* \"backEnd/contracts/BUNN_Governor_Proxy.sol\":5116:5121  admin */\n      0x03\n        /* \"backEnd/contracts/BUNN_Governor_Proxy.sol\":5116:5135  admin[demotedAdmin] */\n      0x00\n        /* \"backEnd/contracts/BUNN_Governor_Proxy.sol\":5122:5134  demotedAdmin */\n      dup4\n        /* \"backEnd/contracts/BUNN_Governor_Proxy.sol\":5116:5135  admin[demotedAdmin] */\n      0xffffffffffffffffffffffffffffffffffffffff\n      and\n      0xffffffffffffffffffffffffffffffffffffffff\n      and\n      dup2\n      mstore\n      0x20\n      add\n      swap1\n      dup2\n      mstore\n      0x20\n      add\n      0x00\n      keccak256\n        /* \"backEnd/contracts/BUNN_Governor_Proxy.sol\":5116:5144  admin[demotedAdmin].removers */\n      0x01\n      add\n      sload\n        /* \"backEnd/contracts/BUNN_Governor_Proxy.sol\":5116:5148  admin[demotedAdmin].removers + 1 */\n      tag_133\n      swap2\n      swap1\n      tag_134\n      jump\t// in\n    tag_133:\n        /* \"backEnd/contracts/BUNN_Governor_Proxy.sol\":5085:5090  admin */\n      0x03\n        /* \"backEnd/contracts/BUNN_Governor_Proxy.sol\":5085:5104  admin[demotedAdmin] */\n      0x00\n        /* \"backEnd/contracts/BUNN_Governor_Proxy.sol\":5091:5103  demotedAdmin */\n      dup4\n        /* \"backEnd/contracts/BUNN_Governor_Proxy.sol\":5085:5104  admin[demotedAdmin] */\n      0xffffffffffffffffffffffffffffffffffffffff\n      and\n      0xffffffffffffffffffffffffffffffffffffffff\n      and\n      dup2\n      mstore\n      0x20\n      add\n      swap1\n      dup2\n      mstore\n      0x20\n      add\n      0x00\n      keccak256\n        /* \"backEnd/contracts/BUNN_Governor_Proxy.sol\":5085:5113  admin[demotedAdmin].removers */\n      0x01\n      add\n        /* \"backEnd/contracts/BUNN_Governor_Proxy.sol\":5085:5148  admin[demotedAdmin].removers = admin[demotedAdmin].removers + 1 */\n      dup2\n      swap1\n      sstore\n      pop\n        /* \"backEnd/contracts/BUNN_Governor_Proxy.sol\":4969:5252  if(admin[demotedAdmin].removers >= admins.length-1 ){... */\n      jump(tag_135)\n    tag_132:\n        /* \"backEnd/contracts/BUNN_Governor_Proxy.sol\":5240:5241  1 */\n      0x01\n        /* \"backEnd/contracts/BUNN_Governor_Proxy.sol\":5209:5214  admin */\n      0x03\n        /* \"backEnd/contracts/BUNN_Governor_Proxy.sol\":5209:5228  admin[demotedAdmin] */\n      0x00\n        /* \"backEnd/contracts/BUNN_Governor_Proxy.sol\":5215:5227  demotedAdmin */\n      dup4\n        /* \"backEnd/contracts/BUNN_Governor_Proxy.sol\":5209:5228  admin[demotedAdmin] */\n      0xffffffffffffffffffffffffffffffffffffffff\n      and\n      0xffffffffffffffffffffffffffffffffffffffff\n      and\n      dup2\n      mstore\n      0x20\n      add\n      swap1\n      dup2\n      mstore\n      0x20\n      add\n      0x00\n      keccak256\n        /* \"backEnd/contracts/BUNN_Governor_Proxy.sol\":5209:5237  admin[demotedAdmin].removers */\n      0x01\n      add\n      sload\n        /* \"backEnd/contracts/BUNN_Governor_Proxy.sol\":5209:5241  admin[demotedAdmin].removers + 1 */\n      tag_136\n      swap2\n      swap1\n      tag_134\n      jump\t// in\n    tag_136:\n        /* \"backEnd/contracts/BUNN_Governor_Proxy.sol\":5178:5183  admin */\n      0x03\n        /* \"backEnd/contracts/BUNN_Governor_Proxy.sol\":5178:5197  admin[demotedAdmin] */\n      0x00\n        /* \"backEnd/contracts/BUNN_Governor_Proxy.sol\":5184:5196  demotedAdmin */\n      dup4\n        /* \"backEnd/contracts/BUNN_Governor_Proxy.sol\":5178:5197  admin[demotedAdmin] */\n      0xffffffffffffffffffffffffffffffffffffffff\n      and\n      0xffffffffffffffffffffffffffffffffffffffff\n      and\n      dup2\n      mstore\n      0x20\n      add\n      swap1\n      dup2\n      mstore\n      0x20\n      add\n      0x00\n      keccak256\n        /* \"backEnd/contracts/BUNN_Governor_Proxy.sol\":5178:5206  admin[demotedAdmin].removers */\n      0x01\n      add\n        /* \"backEnd/contracts/BUNN_Governor_Proxy.sol\":5178:5241  admin[demotedAdmin].removers = admin[demotedAdmin].removers + 1 */\n      dup2\n      swap1\n      sstore\n      pop\n        /* \"backEnd/contracts/BUNN_Governor_Proxy.sol\":4969:5252  if(admin[demotedAdmin].removers >= admins.length-1 ){... */\n    tag_135:\n        /* \"backEnd/contracts/BUNN_Governor_Proxy.sol\":5280:5292  demotedAdmin */\n      dup1\n        /* \"backEnd/contracts/BUNN_Governor_Proxy.sol\":5267:5293  remove_Admin(demotedAdmin) */\n      0xffffffffffffffffffffffffffffffffffffffff\n      and\n      0x923abef5ea1e37ac38f56a77b8133d215c1d3bcd2e3dd88a6120d34f933f3dde\n      mload(0x40)\n      mload(0x40)\n      dup1\n      swap2\n      sub\n      swap1\n      log2\n        /* \"backEnd/contracts/BUNN_Governor_Proxy.sol\":4826:5300  function removeAdmin(address demotedAdmin) public onlyAdmin{... */\n      pop\n      jump\t// out\n        /* \"backEnd/contracts/BUNN_Governor_Proxy.sol\":1966:3635  function cast_vote(uint256 topic_id, bool position_) public {... */\n    tag_34:\n        /* \"backEnd/contracts/BUNN_Governor_Proxy.sol\":2045:2063  Topic memory topic */\n      0x00\n        /* \"backEnd/contracts/BUNN_Governor_Proxy.sol\":2066:2072  Topics */\n      0x08\n        /* \"backEnd/contracts/BUNN_Governor_Proxy.sol\":2066:2082  Topics[topic_id] */\n      0x00\n        /* \"backEnd/contracts/BUNN_Governor_Proxy.sol\":2073:2081  topic_id */\n      dup5\n        /* \"backEnd/contracts/BUNN_Governor_Proxy.sol\":2066:2082  Topics[topic_id] */\n      dup2\n      mstore\n      0x20\n      add\n      swap1\n      dup2\n      mstore\n      0x20\n      add\n      0x00\n      keccak256\n        /* \"backEnd/contracts/BUNN_Governor_Proxy.sol\":2045:2082  Topic memory topic = Topics[topic_id] */\n      mload(0x40)\n      dup1\n      0x0120\n      add\n      0x40\n      mstore\n      swap1\n      dup2\n      0x00\n      dup3\n      add\n      sload\n      dup2\n      mstore\n      0x20\n      add\n      0x01\n      dup3\n      add\n      dup1\n      sload\n      tag_138\n      swap1\n      tag_139\n      jump\t// in\n    tag_138:\n      dup1\n      0x1f\n      add\n      0x20\n      dup1\n      swap2\n      div\n      mul\n      0x20\n      add\n      mload(0x40)\n      swap1\n      dup2\n      add\n      0x40\n      mstore\n      dup1\n      swap3\n      swap2\n      swap1\n      dup2\n      dup2\n      mstore\n      0x20\n      add\n      dup3\n      dup1\n      sload\n      tag_140\n      swap1\n      tag_139\n      jump\t// in\n    tag_140:\n      dup1\n      iszero\n      tag_141\n      jumpi\n      dup1\n      0x1f\n      lt\n      tag_142\n      jumpi\n      0x0100\n      dup1\n      dup4\n      sload\n      div\n      mul\n      dup4\n      mstore\n      swap2\n      0x20\n      add\n      swap2\n      jump(tag_141)\n    tag_142:\n      dup3\n      add\n      swap2\n      swap1\n      0x00\n      mstore\n      keccak256(0x00, 0x20)\n      swap1\n    tag_143:\n      dup2\n      sload\n      dup2\n      mstore\n      swap1\n      0x01\n      add\n      swap1\n      0x20\n      add\n      dup1\n      dup4\n      gt\n      tag_143\n      jumpi\n      dup3\n      swap1\n      sub\n      0x1f\n      and\n      dup3\n      add\n      swap2\n    tag_141:\n      pop\n      pop\n      pop\n      pop\n      pop\n      dup2\n      mstore\n      0x20\n      add\n      0x02\n      dup3\n      add\n      0x00\n      swap1\n      sload\n      swap1\n      0x0100\n      exp\n      swap1\n      div\n      0xffffffffffffffffffffffffffffffffffffffff\n      and\n      0xffffffffffffffffffffffffffffffffffffffff\n      and\n      0xffffffffffffffffffffffffffffffffffffffff\n      and\n      dup2\n      mstore\n      0x20\n      add\n      0x03\n      dup3\n      add\n      dup1\n      sload\n      tag_144\n      swap1\n      tag_139\n      jump\t// in\n    tag_144:\n      dup1\n      0x1f\n      add\n      0x20\n      dup1\n      swap2\n      div\n      mul\n      0x20\n      add\n      mload(0x40)\n      swap1\n      dup2\n      add\n      0x40\n      mstore\n      dup1\n      swap3\n      swap2\n      swap1\n      dup2\n      dup2\n      mstore\n      0x20\n      add\n      dup3\n      dup1\n      sload\n      tag_145\n      swap1\n      tag_139\n      jump\t// in\n    tag_145:\n      dup1\n      iszero\n      tag_146\n      jumpi\n      dup1\n      0x1f\n      lt\n      tag_147\n      jumpi\n      0x0100\n      dup1\n      dup4\n      sload\n      div\n      mul\n      dup4\n      mstore\n      swap2\n      0x20\n      add\n      swap2\n      jump(tag_146)\n    tag_147:\n      dup3\n      add\n      swap2\n      swap1\n      0x00\n      mstore\n      keccak256(0x00, 0x20)\n      swap1\n    tag_148:\n      dup2\n      sload\n      dup2\n      mstore\n      swap1\n      0x01\n      add\n      swap1\n      0x20\n      add\n      dup1\n      dup4\n      gt\n      tag_148\n      jumpi\n      dup3\n      swap1\n      sub\n      0x1f\n      and\n      dup3\n      add\n      swap2\n    tag_146:\n      pop\n      pop\n      pop\n      pop\n      pop\n      dup2\n      mstore\n      0x20\n      add\n      0x04\n      dup3\n      add\n      0x00\n      swap1\n      sload\n      swap1\n      0x0100\n      exp\n      swap1\n      div\n      0xffffffffffffffffffffffffffffffffffffffff\n      and\n      0xffffffffffffffffffffffffffffffffffffffff\n      and\n      0xffffffffffffffffffffffffffffffffffffffff\n      and\n      dup2\n      mstore\n      0x20\n      add\n      0x05\n      dup3\n      add\n      dup1\n      sload\n      tag_149\n      swap1\n      tag_139\n      jump\t// in\n    tag_149:\n      dup1\n      0x1f\n      add\n      0x20\n      dup1\n      swap2\n      div\n      mul\n      0x20\n      add\n      mload(0x40)\n      swap1\n      dup2\n      add\n      0x40\n      mstore\n      dup1\n      swap3\n      swap2\n      swap1\n      dup2\n      dup2\n      mstore\n      0x20\n      add\n      dup3\n      dup1\n      sload\n      tag_150\n      swap1\n      tag_139\n      jump\t// in\n    tag_150:\n      dup1\n      iszero\n      tag_151\n      jumpi\n      dup1\n      0x1f\n      lt\n      tag_152\n      jumpi\n      0x0100\n      dup1\n      dup4\n      sload\n      div\n      mul\n      dup4\n      mstore\n      swap2\n      0x20\n      add\n      swap2\n      jump(tag_151)\n    tag_152:\n      dup3\n      add\n      swap2\n      swap1\n      0x00\n      mstore\n      keccak256(0x00, 0x20)\n      swap1\n    tag_153:\n      dup2\n      sload\n      dup2\n      mstore\n      swap1\n      0x01\n      add\n      swap1\n      0x20\n      add\n      dup1\n      dup4\n      gt\n      tag_153\n      jumpi\n      dup3\n      swap1\n      sub\n      0x1f\n      and\n      dup3\n      add\n      swap2\n    tag_151:\n      pop\n      pop\n      pop\n      pop\n      pop\n      dup2\n      mstore\n      0x20\n      add\n      0x06\n      dup3\n      add\n      sload\n      dup2\n      mstore\n      0x20\n      add\n      0x07\n      dup3\n      add\n      0x00\n      swap1\n      sload\n      swap1\n      0x0100\n      exp\n      swap1\n      div\n      0xff\n      and\n      iszero\n      iszero\n      iszero\n      iszero\n      dup2\n      mstore\n      0x20\n      add\n      0x07\n      dup3\n      add\n      0x01\n      swap1\n      sload\n      swap1\n      0x0100\n      exp\n      swap1\n      div\n      0xff\n      and\n      iszero\n      iszero\n      iszero\n      iszero\n      dup2\n      mstore\n      pop\n      pop\n      swap1\n      pop\n        /* \"backEnd/contracts/BUNN_Governor_Proxy.sol\":2092:2111  IUTILITY_TOKEN BUNN */\n      0x00\n        /* \"backEnd/contracts/BUNN_Governor_Proxy.sol\":2129:2150  utility_token_address */\n      dup1\n      0x00\n      swap1\n      sload\n      swap1\n      0x0100\n      exp\n      swap1\n      div\n      0xffffffffffffffffffffffffffffffffffffffff\n      and\n        /* \"backEnd/contracts/BUNN_Governor_Proxy.sol\":2092:2151  IUTILITY_TOKEN BUNN = IUTILITY_TOKEN(utility_token_address) */\n      swap1\n      pop\n        /* \"backEnd/contracts/BUNN_Governor_Proxy.sol\":2241:2246  topic */\n      dup2\n        /* \"backEnd/contracts/BUNN_Governor_Proxy.sol\":2241:2256  topic.cancelled */\n      0x0100\n      add\n      mload\n        /* \"backEnd/contracts/BUNN_Governor_Proxy.sol\":2240:2256  !topic.cancelled */\n      iszero\n        /* \"backEnd/contracts/BUNN_Governor_Proxy.sol\":2232:2293  require(!topic.cancelled, \"INVALID VOTE. TOPIC IS CANCELLED\") */\n      tag_154\n      jumpi\n      mload(0x40)\n      0x08c379a000000000000000000000000000000000000000000000000000000000\n      dup2\n      mstore\n      0x04\n      add\n      tag_155\n      swap1\n      tag_156\n      jump\t// in\n    tag_155:\n      mload(0x40)\n      dup1\n      swap2\n      sub\n      swap1\n      revert\n    tag_154:\n        /* \"backEnd/contracts/BUNN_Governor_Proxy.sol\":2359:2366  Members */\n      0x05\n        /* \"backEnd/contracts/BUNN_Governor_Proxy.sol\":2359:2378  Members[msg.sender] */\n      0x00\n        /* \"backEnd/contracts/BUNN_Governor_Proxy.sol\":2367:2377  msg.sender */\n      caller\n        /* \"backEnd/contracts/BUNN_Governor_Proxy.sol\":2359:2378  Members[msg.sender] */\n      0xffffffffffffffffffffffffffffffffffffffff\n      and\n      0xffffffffffffffffffffffffffffffffffffffff\n      and\n      dup2\n      mstore\n      0x20\n      add\n      swap1\n      dup2\n      mstore\n      0x20\n      add\n      0x00\n      keccak256\n        /* \"backEnd/contracts/BUNN_Governor_Proxy.sol\":2359:2386  Members[msg.sender].belongs */\n      0x01\n      add\n      0x00\n      swap1\n      sload\n      swap1\n      0x0100\n      exp\n      swap1\n      div\n      0xff\n      and\n        /* \"backEnd/contracts/BUNN_Governor_Proxy.sol\":2351:2403  require(Members[msg.sender].belongs, \"NOT A MEMBER\") */\n      tag_157\n      jumpi\n      mload(0x40)\n      0x08c379a000000000000000000000000000000000000000000000000000000000\n      dup2\n      mstore\n      0x04\n      add\n      tag_158\n      swap1\n      tag_159\n      jump\t// in\n    tag_158:\n      mload(0x40)\n      dup1\n      swap2\n      sub\n      swap1\n      revert\n    tag_157:\n        /* \"backEnd/contracts/BUNN_Governor_Proxy.sol\":2463:2479  uint256 end_time */\n      0x00\n        /* \"backEnd/contracts/BUNN_Governor_Proxy.sol\":2500:2505  topic */\n      dup3\n        /* \"backEnd/contracts/BUNN_Governor_Proxy.sol\":2500:2516  topic.start_time */\n      0xc0\n      add\n      mload\n        /* \"backEnd/contracts/BUNN_Governor_Proxy.sol\":2482:2497  voting_duration */\n      sload(0x0a)\n        /* \"backEnd/contracts/BUNN_Governor_Proxy.sol\":2482:2516  voting_duration + topic.start_time */\n      tag_160\n      swap2\n      swap1\n      tag_134\n      jump\t// in\n    tag_160:\n        /* \"backEnd/contracts/BUNN_Governor_Proxy.sol\":2463:2516  uint256 end_time = voting_duration + topic.start_time */\n      swap1\n      pop\n        /* \"backEnd/contracts/BUNN_Governor_Proxy.sol\":2545:2560  block.timestamp */\n      timestamp\n        /* \"backEnd/contracts/BUNN_Governor_Proxy.sol\":2534:2542  end_time */\n      dup2\n        /* \"backEnd/contracts/BUNN_Governor_Proxy.sol\":2534:2560  end_time > block.timestamp */\n      gt\n        /* \"backEnd/contracts/BUNN_Governor_Proxy.sol\":2526:2590  require(end_time > block.timestamp, \"VOTING PERIOD HAS ELAPSED\") */\n      tag_161\n      jumpi\n      mload(0x40)\n      0x08c379a000000000000000000000000000000000000000000000000000000000\n      dup2\n      mstore\n      0x04\n      add\n      tag_162\n      swap1\n      tag_163\n      jump\t// in\n    tag_162:\n      mload(0x40)\n      dup1\n      swap2\n      sub\n      swap1\n      revert\n    tag_161:\n        /* \"backEnd/contracts/BUNN_Governor_Proxy.sol\":2701:2702  0 */\n      0x00\n        /* \"backEnd/contracts/BUNN_Governor_Proxy.sol\":2672:2676  BUNN */\n      dup3\n        /* \"backEnd/contracts/BUNN_Governor_Proxy.sol\":2672:2686  BUNN.balanceOf */\n      0xffffffffffffffffffffffffffffffffffffffff\n      and\n      0x70a08231\n        /* \"backEnd/contracts/BUNN_Governor_Proxy.sol\":2687:2697  msg.sender */\n      caller\n        /* \"backEnd/contracts/BUNN_Governor_Proxy.sol\":2672:2698  BUNN.balanceOf(msg.sender) */\n      mload(0x40)\n      dup3\n      0xffffffff\n      and\n      0xe0\n      shl\n      dup2\n      mstore\n      0x04\n      add\n      tag_164\n      swap2\n      swap1\n      tag_109\n      jump\t// in\n    tag_164:\n      0x20\n      mload(0x40)\n      dup1\n      dup4\n      sub\n      dup2\n      dup7\n      gas\n      staticcall\n      iszero\n      dup1\n      iszero\n      tag_166\n      jumpi\n      returndatasize\n      0x00\n      dup1\n      returndatacopy\n      revert(0x00, returndatasize)\n    tag_166:\n      pop\n      pop\n      pop\n      pop\n      mload(0x40)\n      returndatasize\n      not(0x1f)\n      0x1f\n      dup3\n      add\n      and\n      dup3\n      add\n      dup1\n      0x40\n      mstore\n      pop\n      dup2\n      add\n      swap1\n      tag_167\n      swap2\n      swap1\n      tag_168\n      jump\t// in\n    tag_167:\n        /* \"backEnd/contracts/BUNN_Governor_Proxy.sol\":2672:2702  BUNN.balanceOf(msg.sender) > 0 */\n      gt\n        /* \"backEnd/contracts/BUNN_Governor_Proxy.sol\":2651:2774  require(... */\n      tag_169\n      jumpi\n      mload(0x40)\n      0x08c379a000000000000000000000000000000000000000000000000000000000\n      dup2\n      mstore\n      0x04\n      add\n      tag_170\n      swap1\n      tag_171\n      jump\t// in\n    tag_170:\n      mload(0x40)\n      dup1\n      swap2\n      sub\n      swap1\n      revert\n    tag_169:\n        /* \"backEnd/contracts/BUNN_Governor_Proxy.sol\":2784:2805  uint256 voting_power_ */\n      0x00\n        /* \"backEnd/contracts/BUNN_Governor_Proxy.sol\":2808:2812  BUNN */\n      dup3\n        /* \"backEnd/contracts/BUNN_Governor_Proxy.sol\":2808:2822  BUNN.balanceOf */\n      0xffffffffffffffffffffffffffffffffffffffff\n      and\n      0x70a08231\n        /* \"backEnd/contracts/BUNN_Governor_Proxy.sol\":2823:2833  msg.sender */\n      caller\n        /* \"backEnd/contracts/BUNN_Governor_Proxy.sol\":2808:2834  BUNN.balanceOf(msg.sender) */\n      mload(0x40)\n      dup3\n      0xffffffff\n      and\n      0xe0\n      shl\n      dup2\n      mstore\n      0x04\n      add\n      tag_172\n      swap2\n      swap1\n      tag_109\n      jump\t// in\n    tag_172:\n      0x20\n      mload(0x40)\n      dup1\n      dup4\n      sub\n      dup2\n      dup7\n      gas\n      staticcall\n      iszero\n      dup1\n      iszero\n      tag_174\n      jumpi\n      returndatasize\n      0x00\n      dup1\n      returndatacopy\n      revert(0x00, returndatasize)\n    tag_174:\n      pop\n      pop\n      pop\n      pop\n      mload(0x40)\n      returndatasize\n      not(0x1f)\n      0x1f\n      dup3\n      add\n      and\n      dup3\n      add\n      dup1\n      0x40\n      mstore\n      pop\n      dup2\n      add\n      swap1\n      tag_175\n      swap2\n      swap1\n      tag_168\n      jump\t// in\n    tag_175:\n        /* \"backEnd/contracts/BUNN_Governor_Proxy.sol\":2784:2834  uint256 voting_power_ = BUNN.balanceOf(msg.sender) */\n      swap1\n      pop\n        /* \"backEnd/contracts/BUNN_Governor_Proxy.sol\":2996:3003  ballots */\n      0x06\n        /* \"backEnd/contracts/BUNN_Governor_Proxy.sol\":2996:3015  ballots[msg.sender] */\n      0x00\n        /* \"backEnd/contracts/BUNN_Governor_Proxy.sol\":3004:3014  msg.sender */\n      caller\n        /* \"backEnd/contracts/BUNN_Governor_Proxy.sol\":2996:3015  ballots[msg.sender] */\n      0xffffffffffffffffffffffffffffffffffffffff\n      and\n      0xffffffffffffffffffffffffffffffffffffffff\n      and\n      dup2\n      mstore\n      0x20\n      add\n      swap1\n      dup2\n      mstore\n      0x20\n      add\n      0x00\n      keccak256\n        /* \"backEnd/contracts/BUNN_Governor_Proxy.sol\":2996:3025  ballots[msg.sender][topic_id] */\n      0x00\n        /* \"backEnd/contracts/BUNN_Governor_Proxy.sol\":3016:3024  topic_id */\n      dup8\n        /* \"backEnd/contracts/BUNN_Governor_Proxy.sol\":2996:3025  ballots[msg.sender][topic_id] */\n      dup2\n      mstore\n      0x20\n      add\n      swap1\n      dup2\n      mstore\n      0x20\n      add\n      0x00\n      keccak256\n        /* \"backEnd/contracts/BUNN_Governor_Proxy.sol\":2996:3031  ballots[msg.sender][topic_id].voted */\n      0x01\n      add\n      0x01\n      swap1\n      sload\n      swap1\n      0x0100\n      exp\n      swap1\n      div\n      0xff\n      and\n        /* \"backEnd/contracts/BUNN_Governor_Proxy.sol\":2995:3031  !ballots[msg.sender][topic_id].voted */\n      iszero\n        /* \"backEnd/contracts/BUNN_Governor_Proxy.sol\":2987:3074  require(!ballots[msg.sender][topic_id].voted, \"MEMBERS CAN ONLY CAST A VOTE PER TOPIC\") */\n      tag_176\n      jumpi\n      mload(0x40)\n      0x08c379a000000000000000000000000000000000000000000000000000000000\n      dup2\n      mstore\n      0x04\n      add\n      tag_177\n      swap1\n      tag_178\n      jump\t// in\n    tag_177:\n      mload(0x40)\n      dup1\n      swap2\n      sub\n      swap1\n      revert\n    tag_176:\n        /* \"backEnd/contracts/BUNN_Governor_Proxy.sol\":3116:3265  ballot({... */\n      mload(0x40)\n      dup1\n      0x80\n      add\n      0x40\n      mstore\n      dup1\n        /* \"backEnd/contracts/BUNN_Governor_Proxy.sol\":3147:3155  topic_id */\n      dup8\n        /* \"backEnd/contracts/BUNN_Governor_Proxy.sol\":3116:3265  ballot({... */\n      dup2\n      mstore\n      0x20\n      add\n        /* \"backEnd/contracts/BUNN_Governor_Proxy.sol\":3179:3188  position_ */\n      dup7\n        /* \"backEnd/contracts/BUNN_Governor_Proxy.sol\":3116:3265  ballot({... */\n      iszero\n      iszero\n      dup2\n      mstore\n      0x20\n      add\n        /* \"backEnd/contracts/BUNN_Governor_Proxy.sol\":3209:3213  true */\n      0x01\n        /* \"backEnd/contracts/BUNN_Governor_Proxy.sol\":3116:3265  ballot({... */\n      iszero\n      iszero\n      dup2\n      mstore\n      0x20\n      add\n        /* \"backEnd/contracts/BUNN_Governor_Proxy.sol\":3241:3254  voting_power_ */\n      dup3\n        /* \"backEnd/contracts/BUNN_Governor_Proxy.sol\":3116:3265  ballot({... */\n      dup2\n      mstore\n      pop\n        /* \"backEnd/contracts/BUNN_Governor_Proxy.sol\":3084:3091  ballots */\n      0x06\n        /* \"backEnd/contracts/BUNN_Governor_Proxy.sol\":3084:3103  ballots[msg.sender] */\n      0x00\n        /* \"backEnd/contracts/BUNN_Governor_Proxy.sol\":3092:3102  msg.sender */\n      caller\n        /* \"backEnd/contracts/BUNN_Governor_Proxy.sol\":3084:3103  ballots[msg.sender] */\n      0xffffffffffffffffffffffffffffffffffffffff\n      and\n      0xffffffffffffffffffffffffffffffffffffffff\n      and\n      dup2\n      mstore\n      0x20\n      add\n      swap1\n      dup2\n      mstore\n      0x20\n      add\n      0x00\n      keccak256\n        /* \"backEnd/contracts/BUNN_Governor_Proxy.sol\":3084:3113  ballots[msg.sender][topic_id] */\n      0x00\n        /* \"backEnd/contracts/BUNN_Governor_Proxy.sol\":3104:3112  topic_id */\n      dup9\n        /* \"backEnd/contracts/BUNN_Governor_Proxy.sol\":3084:3113  ballots[msg.sender][topic_id] */\n      dup2\n      mstore\n      0x20\n      add\n      swap1\n      dup2\n      mstore\n      0x20\n      add\n      0x00\n      keccak256\n        /* \"backEnd/contracts/BUNN_Governor_Proxy.sol\":3084:3265  ballots[msg.sender][topic_id] = ballot({... */\n      0x00\n      dup3\n      add\n      mload\n      dup2\n      0x00\n      add\n      sstore\n      0x20\n      dup3\n      add\n      mload\n      dup2\n      0x01\n      add\n      exp(0x0100, 0x00)\n      dup2\n      sload\n      dup2\n      0xff\n      mul\n      not\n      and\n      swap1\n      dup4\n      iszero\n      iszero\n      mul\n      or\n      swap1\n      sstore\n      pop\n      0x40\n      dup3\n      add\n      mload\n      dup2\n      0x01\n      add\n      exp(0x0100, 0x01)\n      dup2\n      sload\n      dup2\n      0xff\n      mul\n      not\n      and\n      swap1\n      dup4\n      iszero\n      iszero\n      mul\n      or\n      swap1\n      sstore\n      pop\n      0x60\n      dup3\n      add\n      mload\n      dup2\n      0x02\n      add\n      sstore\n      swap1\n      pop\n      pop\n        /* \"backEnd/contracts/BUNN_Governor_Proxy.sol\":3325:3332  ballots */\n      0x06\n        /* \"backEnd/contracts/BUNN_Governor_Proxy.sol\":3325:3344  ballots[msg.sender] */\n      0x00\n        /* \"backEnd/contracts/BUNN_Governor_Proxy.sol\":3333:3343  msg.sender */\n      caller\n        /* \"backEnd/contracts/BUNN_Governor_Proxy.sol\":3325:3344  ballots[msg.sender] */\n      0xffffffffffffffffffffffffffffffffffffffff\n      and\n      0xffffffffffffffffffffffffffffffffffffffff\n      and\n      dup2\n      mstore\n      0x20\n      add\n      swap1\n      dup2\n      mstore\n      0x20\n      add\n      0x00\n      keccak256\n        /* \"backEnd/contracts/BUNN_Governor_Proxy.sol\":3325:3354  ballots[msg.sender][topic_id] */\n      0x00\n        /* \"backEnd/contracts/BUNN_Governor_Proxy.sol\":3345:3353  topic_id */\n      dup8\n        /* \"backEnd/contracts/BUNN_Governor_Proxy.sol\":3325:3354  ballots[msg.sender][topic_id] */\n      dup2\n      mstore\n      0x20\n      add\n      swap1\n      dup2\n      mstore\n      0x20\n      add\n      0x00\n      keccak256\n        /* \"backEnd/contracts/BUNN_Governor_Proxy.sol\":3325:3363  ballots[msg.sender][topic_id].position */\n      0x01\n      add\n      0x00\n      swap1\n      sload\n      swap1\n      0x0100\n      exp\n      swap1\n      div\n      0xff\n      and\n        /* \"backEnd/contracts/BUNN_Governor_Proxy.sol\":3321:3566  if (ballots[msg.sender][topic_id].position) {... */\n      iszero\n      tag_179\n      jumpi\n        /* \"backEnd/contracts/BUNN_Governor_Proxy.sol\":3435:3448  voting_power_ */\n      dup1\n        /* \"backEnd/contracts/BUNN_Governor_Proxy.sol\":3407:3412  votes */\n      0x07\n        /* \"backEnd/contracts/BUNN_Governor_Proxy.sol\":3407:3422  votes[topic_id] */\n      0x00\n        /* \"backEnd/contracts/BUNN_Governor_Proxy.sol\":3413:3421  topic_id */\n      dup9\n        /* \"backEnd/contracts/BUNN_Governor_Proxy.sol\":3407:3422  votes[topic_id] */\n      dup2\n      mstore\n      0x20\n      add\n      swap1\n      dup2\n      mstore\n      0x20\n      add\n      0x00\n      keccak256\n        /* \"backEnd/contracts/BUNN_Governor_Proxy.sol\":3407:3432  votes[topic_id].for_votes */\n      0x00\n      add\n      sload\n        /* \"backEnd/contracts/BUNN_Governor_Proxy.sol\":3407:3448  votes[topic_id].for_votes + voting_power_ */\n      tag_180\n      swap2\n      swap1\n      tag_134\n      jump\t// in\n    tag_180:\n        /* \"backEnd/contracts/BUNN_Governor_Proxy.sol\":3379:3384  votes */\n      0x07\n        /* \"backEnd/contracts/BUNN_Governor_Proxy.sol\":3379:3394  votes[topic_id] */\n      0x00\n        /* \"backEnd/contracts/BUNN_Governor_Proxy.sol\":3385:3393  topic_id */\n      dup9\n        /* \"backEnd/contracts/BUNN_Governor_Proxy.sol\":3379:3394  votes[topic_id] */\n      dup2\n      mstore\n      0x20\n      add\n      swap1\n      dup2\n      mstore\n      0x20\n      add\n      0x00\n      keccak256\n        /* \"backEnd/contracts/BUNN_Governor_Proxy.sol\":3379:3404  votes[topic_id].for_votes */\n      0x00\n      add\n        /* \"backEnd/contracts/BUNN_Governor_Proxy.sol\":3379:3448  votes[topic_id].for_votes = votes[topic_id].for_votes + voting_power_ */\n      dup2\n      swap1\n      sstore\n      pop\n        /* \"backEnd/contracts/BUNN_Governor_Proxy.sol\":3321:3566  if (ballots[msg.sender][topic_id].position) {... */\n      jump(tag_181)\n    tag_179:\n        /* \"backEnd/contracts/BUNN_Governor_Proxy.sol\":3542:3555  voting_power_ */\n      dup1\n        /* \"backEnd/contracts/BUNN_Governor_Proxy.sol\":3510:3515  votes */\n      0x07\n        /* \"backEnd/contracts/BUNN_Governor_Proxy.sol\":3510:3525  votes[topic_id] */\n      0x00\n        /* \"backEnd/contracts/BUNN_Governor_Proxy.sol\":3516:3524  topic_id */\n      dup9\n        /* \"backEnd/contracts/BUNN_Governor_Proxy.sol\":3510:3525  votes[topic_id] */\n      dup2\n      mstore\n      0x20\n      add\n      swap1\n      dup2\n      mstore\n      0x20\n      add\n      0x00\n      keccak256\n        /* \"backEnd/contracts/BUNN_Governor_Proxy.sol\":3510:3539  votes[topic_id].against_votes */\n      0x01\n      add\n      sload\n        /* \"backEnd/contracts/BUNN_Governor_Proxy.sol\":3510:3555  votes[topic_id].against_votes + voting_power_ */\n      tag_182\n      swap2\n      swap1\n      tag_134\n      jump\t// in\n    tag_182:\n        /* \"backEnd/contracts/BUNN_Governor_Proxy.sol\":3478:3483  votes */\n      0x07\n        /* \"backEnd/contracts/BUNN_Governor_Proxy.sol\":3478:3493  votes[topic_id] */\n      0x00\n        /* \"backEnd/contracts/BUNN_Governor_Proxy.sol\":3484:3492  topic_id */\n      dup9\n        /* \"backEnd/contracts/BUNN_Governor_Proxy.sol\":3478:3493  votes[topic_id] */\n      dup2\n      mstore\n      0x20\n      add\n      swap1\n      dup2\n      mstore\n      0x20\n      add\n      0x00\n      keccak256\n        /* \"backEnd/contracts/BUNN_Governor_Proxy.sol\":3478:3507  votes[topic_id].against_votes */\n      0x01\n      add\n        /* \"backEnd/contracts/BUNN_Governor_Proxy.sol\":3478:3555  votes[topic_id].against_votes = votes[topic_id].against_votes + voting_power_ */\n      dup2\n      swap1\n      sstore\n      pop\n        /* \"backEnd/contracts/BUNN_Governor_Proxy.sol\":3321:3566  if (ballots[msg.sender][topic_id].position) {... */\n    tag_181:\n        /* \"backEnd/contracts/BUNN_Governor_Proxy.sol\":3591:3601  msg.sender */\n      caller\n        /* \"backEnd/contracts/BUNN_Governor_Proxy.sol\":3581:3623  vote_cast(msg.sender, topic.id, position_) */\n      0xffffffffffffffffffffffffffffffffffffffff\n      and\n      0x4f7ff1c79e536d7fef60ccb53beb6009e08841ffcba10e515e076f4cbdd9e320\n        /* \"backEnd/contracts/BUNN_Governor_Proxy.sol\":3603:3608  topic */\n      dup6\n        /* \"backEnd/contracts/BUNN_Governor_Proxy.sol\":3603:3611  topic.id */\n      0x00\n      add\n      mload\n        /* \"backEnd/contracts/BUNN_Governor_Proxy.sol\":3613:3622  position_ */\n      dup8\n        /* \"backEnd/contracts/BUNN_Governor_Proxy.sol\":3581:3623  vote_cast(msg.sender, topic.id, position_) */\n      mload(0x40)\n      tag_183\n      swap3\n      swap2\n      swap1\n      tag_184\n      jump\t// in\n    tag_183:\n      mload(0x40)\n      dup1\n      swap2\n      sub\n      swap1\n      log2\n        /* \"backEnd/contracts/BUNN_Governor_Proxy.sol\":2026:3635  {... */\n      pop\n      pop\n      pop\n      pop\n        /* \"backEnd/contracts/BUNN_Governor_Proxy.sol\":1966:3635  function cast_vote(uint256 topic_id, bool position_) public {... */\n      pop\n      pop\n      jump\t// out\n        /* \"backEnd/contracts/restrictions.sol\":240:279  uint256 public voting_duration = 432000 */\n    tag_37:\n      sload(0x0a)\n      dup2\n      jump\t// out\n        /* \"backEnd/contracts/BUNN_Governor_Proxy.sol\":3981:4085  function cancel_Topic(uint topic_id) public onlyAdmin {... */\n    tag_44:\n        /* \"backEnd/contracts/BUNN_Governor_Proxy.sol\":4359:4364  admin */\n      0x03\n        /* \"backEnd/contracts/BUNN_Governor_Proxy.sol\":4359:4376  admin[msg.sender] */\n      0x00\n        /* \"backEnd/contracts/BUNN_Governor_Proxy.sol\":4365:4375  msg.sender */\n      caller\n        /* \"backEnd/contracts/BUNN_Governor_Proxy.sol\":4359:4376  admin[msg.sender] */\n      0xffffffffffffffffffffffffffffffffffffffff\n      and\n      0xffffffffffffffffffffffffffffffffffffffff\n      and\n      dup2\n      mstore\n      0x20\n      add\n      swap1\n      dup2\n      mstore\n      0x20\n      add\n      0x00\n      keccak256\n        /* \"backEnd/contracts/BUNN_Governor_Proxy.sol\":4359:4385  admin[msg.sender].is_admin */\n      0x00\n      add\n      0x00\n      swap1\n      sload\n      swap1\n      0x0100\n      exp\n      swap1\n      div\n      0xff\n      and\n        /* \"backEnd/contracts/BUNN_Governor_Proxy.sol\":4351:4404  require(admin[msg.sender].is_admin, \"ACCESS DENIED!\") */\n      tag_186\n      jumpi\n      mload(0x40)\n      0x08c379a000000000000000000000000000000000000000000000000000000000\n      dup2\n      mstore\n      0x04\n      add\n      tag_187\n      swap1\n      tag_128\n      jump\t// in\n    tag_187:\n      mload(0x40)\n      dup1\n      swap2\n      sub\n      swap1\n      revert\n    tag_186:\n        /* \"backEnd/contracts/BUNN_Governor_Proxy.sol\":4074:4078  true */\n      0x01\n        /* \"backEnd/contracts/BUNN_Governor_Proxy.sol\":4045:4051  Topics */\n      0x08\n        /* \"backEnd/contracts/BUNN_Governor_Proxy.sol\":4045:4061  Topics[topic_id] */\n      0x00\n        /* \"backEnd/contracts/BUNN_Governor_Proxy.sol\":4052:4060  topic_id */\n      dup4\n        /* \"backEnd/contracts/BUNN_Governor_Proxy.sol\":4045:4061  Topics[topic_id] */\n      dup2\n      mstore\n      0x20\n      add\n      swap1\n      dup2\n      mstore\n      0x20\n      add\n      0x00\n      keccak256\n        /* \"backEnd/contracts/BUNN_Governor_Proxy.sol\":4045:4071  Topics[topic_id].cancelled */\n      0x07\n      add\n      0x01\n        /* \"backEnd/contracts/BUNN_Governor_Proxy.sol\":4045:4078  Topics[topic_id].cancelled = true */\n      0x0100\n      exp\n      dup2\n      sload\n      dup2\n      0xff\n      mul\n      not\n      and\n      swap1\n      dup4\n      iszero\n      iszero\n      mul\n      or\n      swap1\n      sstore\n      pop\n        /* \"backEnd/contracts/BUNN_Governor_Proxy.sol\":3981:4085  function cancel_Topic(uint topic_id) public onlyAdmin {... */\n      pop\n      jump\t// out\n        /* \"backEnd/contracts/restrictions.sol\":676:881  function quorum(... */\n    tag_49:\n        /* \"backEnd/contracts/restrictions.sol\":771:775  bool */\n      0x00\n        /* \"backEnd/contracts/restrictions.sol\":787:799  uint256 comp */\n      dup1\n        /* \"backEnd/contracts/restrictions.sol\":802:828  comparison.mulDiv(60, 100) */\n      tag_190\n        /* \"backEnd/contracts/restrictions.sol\":820:822  60 */\n      0x3c\n        /* \"backEnd/contracts/restrictions.sol\":824:827  100 */\n      0x64\n        /* \"backEnd/contracts/restrictions.sol\":802:812  comparison */\n      dup6\n        /* \"backEnd/contracts/restrictions.sol\":802:819  comparison.mulDiv */\n      tag_191\n      swap1\n        /* \"backEnd/contracts/restrictions.sol\":802:828  comparison.mulDiv(60, 100) */\n      swap3\n      swap2\n      swap1\n      0xffffffff\n      and\n      jump\t// in\n    tag_190:\n        /* \"backEnd/contracts/restrictions.sol\":787:828  uint256 comp = comparison.mulDiv(60, 100) */\n      swap1\n      pop\n        /* \"backEnd/contracts/restrictions.sol\":855:859  comp */\n      dup1\n        /* \"backEnd/contracts/restrictions.sol\":845:851  target */\n      dup5\n        /* \"backEnd/contracts/restrictions.sol\":845:859  target >= comp */\n      lt\n      iszero\n        /* \"backEnd/contracts/restrictions.sol\":845:874  target >= comp ? true : false */\n      tag_192\n      jumpi\n        /* \"backEnd/contracts/restrictions.sol\":869:874  false */\n      0x00\n        /* \"backEnd/contracts/restrictions.sol\":845:874  target >= comp ? true : false */\n      jump(tag_193)\n    tag_192:\n        /* \"backEnd/contracts/restrictions.sol\":862:866  true */\n      0x01\n        /* \"backEnd/contracts/restrictions.sol\":845:874  target >= comp ? true : false */\n    tag_193:\n        /* \"backEnd/contracts/restrictions.sol\":838:874  return target >= comp ? true : false */\n      swap2\n      pop\n      pop\n        /* \"backEnd/contracts/restrictions.sol\":676:881  function quorum(... */\n      swap3\n      swap2\n      pop\n      pop\n      jump\t// out\n        /* \"backEnd/contracts/governor_storage.sol\":1526:1585  mapping(address => mapping (uint => ballot)) public ballots */\n    tag_56:\n      mstore(0x20, 0x06)\n      dup2\n      0x00\n      mstore\n      mstore(0x20, keccak256(0x00, 0x40))\n      dup1\n      0x00\n      mstore\n      keccak256(0x00, 0x40)\n      0x00\n      swap2\n      pop\n      swap2\n      pop\n      pop\n      dup1\n      0x00\n      add\n      sload\n      swap1\n      dup1\n      0x01\n      add\n      0x00\n      swap1\n      sload\n      swap1\n      0x0100\n      exp\n      swap1\n      div\n      0xff\n      and\n      swap1\n      dup1\n      0x01\n      add\n      0x01\n      swap1\n      sload\n      swap1\n      0x0100\n      exp\n      swap1\n      div\n      0xff\n      and\n      swap1\n      dup1\n      0x02\n      add\n      sload\n      swap1\n      pop\n      dup5\n      jump\t// out\n        /* \"backEnd/contracts/BUNN_Governor_Proxy.sol\":4188:4314  function UPGRADE(address upgradeed_logic_contract) public onlyAdmin {... */\n    tag_62:\n        /* \"backEnd/contracts/BUNN_Governor_Proxy.sol\":4359:4364  admin */\n      0x03\n        /* \"backEnd/contracts/BUNN_Governor_Proxy.sol\":4359:4376  admin[msg.sender] */\n      0x00\n        /* \"backEnd/contracts/BUNN_Governor_Proxy.sol\":4365:4375  msg.sender */\n      caller\n        /* \"backEnd/contracts/BUNN_Governor_Proxy.sol\":4359:4376  admin[msg.sender] */\n      0xffffffffffffffffffffffffffffffffffffffff\n      and\n      0xffffffffffffffffffffffffffffffffffffffff\n      and\n      dup2\n      mstore\n      0x20\n      add\n      swap1\n      dup2\n      mstore\n      0x20\n      add\n      0x00\n      keccak256\n        /* \"backEnd/contracts/BUNN_Governor_Proxy.sol\":4359:4385  admin[msg.sender].is_admin */\n      0x00\n      add\n      0x00\n      swap1\n      sload\n      swap1\n      0x0100\n      exp\n      swap1\n      div\n      0xff\n      and\n        /* \"backEnd/contracts/BUNN_Governor_Proxy.sol\":4351:4404  require(admin[msg.sender].is_admin, \"ACCESS DENIED!\") */\n      tag_195\n      jumpi\n      mload(0x40)\n      0x08c379a000000000000000000000000000000000000000000000000000000000\n      dup2\n      mstore\n      0x04\n      add\n      tag_196\n      swap1\n      tag_128\n      jump\t// in\n    tag_196:\n      mload(0x40)\n      dup1\n      swap2\n      sub\n      swap1\n      revert\n    tag_195:\n        /* \"backEnd/contracts/BUNN_Governor_Proxy.sol\":4283:4307  upgradeed_logic_contract */\n      dup1\n        /* \"backEnd/contracts/BUNN_Governor_Proxy.sol\":4266:4280  logic_contrcat */\n      0x02\n      0x00\n        /* \"backEnd/contracts/BUNN_Governor_Proxy.sol\":4266:4307  logic_contrcat = upgradeed_logic_contract */\n      0x0100\n      exp\n      dup2\n      sload\n      dup2\n      0xffffffffffffffffffffffffffffffffffffffff\n      mul\n      not\n      and\n      swap1\n      dup4\n      0xffffffffffffffffffffffffffffffffffffffff\n      and\n      mul\n      or\n      swap1\n      sstore\n      pop\n        /* \"backEnd/contracts/BUNN_Governor_Proxy.sol\":4188:4314  function UPGRADE(address upgradeed_logic_contract) public onlyAdmin {... */\n      pop\n      jump\t// out\n        /* \"backEnd/contracts/governor_storage.sol\":2321:2360  mapping(uint256 => Topic) public Topics */\n    tag_66:\n      mstore(0x20, 0x08)\n      dup1\n      0x00\n      mstore\n      keccak256(0x00, 0x40)\n      0x00\n      swap2\n      pop\n      swap1\n      pop\n      dup1\n      0x00\n      add\n      sload\n      swap1\n      dup1\n      0x01\n      add\n      dup1\n      sload\n      tag_198\n      swap1\n      tag_139\n      jump\t// in\n    tag_198:\n      dup1\n      0x1f\n      add\n      0x20\n      dup1\n      swap2\n      div\n      mul\n      0x20\n      add\n      mload(0x40)\n      swap1\n      dup2\n      add\n      0x40\n      mstore\n      dup1\n      swap3\n      swap2\n      swap1\n      dup2\n      dup2\n      mstore\n      0x20\n      add\n      dup3\n      dup1\n      sload\n      tag_199\n      swap1\n      tag_139\n      jump\t// in\n    tag_199:\n      dup1\n      iszero\n      tag_200\n      jumpi\n      dup1\n      0x1f\n      lt\n      tag_201\n      jumpi\n      0x0100\n      dup1\n      dup4\n      sload\n      div\n      mul\n      dup4\n      mstore\n      swap2\n      0x20\n      add\n      swap2\n      jump(tag_200)\n    tag_201:\n      dup3\n      add\n      swap2\n      swap1\n      0x00\n      mstore\n      keccak256(0x00, 0x20)\n      swap1\n    tag_202:\n      dup2\n      sload\n      dup2\n      mstore\n      swap1\n      0x01\n      add\n      swap1\n      0x20\n      add\n      dup1\n      dup4\n      gt\n      tag_202\n      jumpi\n      dup3\n      swap1\n      sub\n      0x1f\n      and\n      dup3\n      add\n      swap2\n    tag_200:\n      pop\n      pop\n      pop\n      pop\n      pop\n      swap1\n      dup1\n      0x02\n      add\n      0x00\n      swap1\n      sload\n      swap1\n      0x0100\n      exp\n      swap1\n      div\n      0xffffffffffffffffffffffffffffffffffffffff\n      and\n      swap1\n      dup1\n      0x03\n      add\n      dup1\n      sload\n      tag_203\n      swap1\n      tag_139\n      jump\t// in\n    tag_203:\n      dup1\n      0x1f\n      add\n      0x20\n      dup1\n      swap2\n      div\n      mul\n      0x20\n      add\n      mload(0x40)\n      swap1\n      dup2\n      add\n      0x40\n      mstore\n      dup1\n      swap3\n      swap2\n      swap1\n      dup2\n      dup2\n      mstore\n      0x20\n      add\n      dup3\n      dup1\n      sload\n      tag_204\n      swap1\n      tag_139\n      jump\t// in\n    tag_204:\n      dup1\n      iszero\n      tag_205\n      jumpi\n      dup1\n      0x1f\n      lt\n      tag_206\n      jumpi\n      0x0100\n      dup1\n      dup4\n      sload\n      div\n      mul\n      dup4\n      mstore\n      swap2\n      0x20\n      add\n      swap2\n      jump(tag_205)\n    tag_206:\n      dup3\n      add\n      swap2\n      swap1\n      0x00\n      mstore\n      keccak256(0x00, 0x20)\n      swap1\n    tag_207:\n      dup2\n      sload\n      dup2\n      mstore\n      swap1\n      0x01\n      add\n      swap1\n      0x20\n      add\n      dup1\n      dup4\n      gt\n      tag_207\n      jumpi\n      dup3\n      swap1\n      sub\n      0x1f\n      and\n      dup3\n      add\n      swap2\n    tag_205:\n      pop\n      pop\n      pop\n      pop\n      pop\n      swap1\n      dup1\n      0x04\n      add\n      0x00\n      swap1\n      sload\n      swap1\n      0x0100\n      exp\n      swap1\n      div\n      0xffffffffffffffffffffffffffffffffffffffff\n      and\n      swap1\n      dup1\n      0x05\n      add\n      dup1\n      sload\n      tag_208\n      swap1\n      tag_139\n      jump\t// in\n    tag_208:\n      dup1\n      0x1f\n      add\n      0x20\n      dup1\n      swap2\n      div\n      mul\n      0x20\n      add\n      mload(0x40)\n      swap1\n      dup2\n      add\n      0x40\n      mstore\n      dup1\n      swap3\n      swap2\n      swap1\n      dup2\n      dup2\n      mstore\n      0x20\n      add\n      dup3\n      dup1\n      sload\n      tag_209\n      swap1\n      tag_139\n      jump\t// in\n    tag_209:\n      dup1\n      iszero\n      tag_210\n      jumpi\n      dup1\n      0x1f\n      lt\n      tag_211\n      jumpi\n      0x0100\n      dup1\n      dup4\n      sload\n      div\n      mul\n      dup4\n      mstore\n      swap2\n      0x20\n      add\n      swap2\n      jump(tag_210)\n    tag_211:\n      dup3\n      add\n      swap2\n      swap1\n      0x00\n      mstore\n      keccak256(0x00, 0x20)\n      swap1\n    tag_212:\n      dup2\n      sload\n      dup2\n      mstore\n      swap1\n      0x01\n      add\n      swap1\n      0x20\n      add\n      dup1\n      dup4\n      gt\n      tag_212\n      jumpi\n      dup3\n      swap1\n      sub\n      0x1f\n      and\n      dup3\n      add\n      swap2\n    tag_210:\n      pop\n      pop\n      pop\n      pop\n      pop\n      swap1\n      dup1\n      0x06\n      add\n      sload\n      swap1\n      dup1\n      0x07\n      add\n      0x00\n      swap1\n      sload\n      swap1\n      0x0100\n      exp\n      swap1\n      div\n      0xff\n      and\n      swap1\n      dup1\n      0x07\n      add\n      0x01\n      swap1\n      sload\n      swap1\n      0x0100\n      exp\n      swap1\n      div\n      0xff\n      and\n      swap1\n      pop\n      dup10\n      jump\t// out\n        /* \"backEnd/contracts/governor_storage.sol\":1673:1707  mapping(uint => vote) public votes */\n    tag_72:\n      mstore(0x20, 0x07)\n      dup1\n      0x00\n      mstore\n      keccak256(0x00, 0x40)\n      0x00\n      swap2\n      pop\n      swap1\n      pop\n      dup1\n      0x00\n      add\n      sload\n      swap1\n      dup1\n      0x01\n      add\n      sload\n      swap1\n      pop\n      dup3\n      jump\t// out\n        /* \"backEnd/contracts/governor_storage.sol\":2367:2393  uint256 public counter = 1 */\n    tag_77:\n      sload(0x09)\n      dup2\n      jump\t// out\n        /* \"backEnd/contracts/governor_storage.sol\":764:803  mapping(address => admin_) public admin */\n    tag_82:\n      mstore(0x20, 0x03)\n      dup1\n      0x00\n      mstore\n      keccak256(0x00, 0x40)\n      0x00\n      swap2\n      pop\n      swap1\n      pop\n      dup1\n      0x00\n      add\n      0x00\n      swap1\n      sload\n      swap1\n      0x0100\n      exp\n      swap1\n      div\n      0xff\n      and\n      swap1\n      dup1\n      0x01\n      add\n      sload\n      swap1\n      dup1\n      0x02\n      add\n      sload\n      swap1\n      pop\n      dup4\n      jump\t// out\n        /* \"backEnd/contracts/restrictions.sol\":294:337  uint256 public implementation_delay = 86400 */\n    tag_87:\n      sload(0x0b)\n      dup2\n      jump\t// out\n        /* \"backEnd/contracts/governor_storage.sol\":251:274  uint256 public returned */\n    tag_91:\n      sload(0x01)\n      dup2\n      jump\t// out\n        /* \"backEnd/contracts/BUNN_Governor_Proxy.sol\":4428:4820  function addAdmin(address newAdmin) public onlyAdmin {... */\n    tag_96:\n        /* \"backEnd/contracts/BUNN_Governor_Proxy.sol\":4359:4364  admin */\n      0x03\n        /* \"backEnd/contracts/BUNN_Governor_Proxy.sol\":4359:4376  admin[msg.sender] */\n      0x00\n        /* \"backEnd/contracts/BUNN_Governor_Proxy.sol\":4365:4375  msg.sender */\n      caller\n        /* \"backEnd/contracts/BUNN_Governor_Proxy.sol\":4359:4376  admin[msg.sender] */\n      0xffffffffffffffffffffffffffffffffffffffff\n      and\n      0xffffffffffffffffffffffffffffffffffffffff\n      and\n      dup2\n      mstore\n      0x20\n      add\n      swap1\n      dup2\n      mstore\n      0x20\n      add\n      0x00\n      keccak256\n        /* \"backEnd/contracts/BUNN_Governor_Proxy.sol\":4359:4385  admin[msg.sender].is_admin */\n      0x00\n      add\n      0x00\n      swap1\n      sload\n      swap1\n      0x0100\n      exp\n      swap1\n      div\n      0xff\n      and\n        /* \"backEnd/contracts/BUNN_Governor_Proxy.sol\":4351:4404  require(admin[msg.sender].is_admin, \"ACCESS DENIED!\") */\n      tag_214\n      jumpi\n      mload(0x40)\n      0x08c379a000000000000000000000000000000000000000000000000000000000\n      dup2\n      mstore\n      0x04\n      add\n      tag_215\n      swap1\n      tag_128\n      jump\t// in\n    tag_215:\n      mload(0x40)\n      dup1\n      swap2\n      sub\n      swap1\n      revert\n    tag_214:\n        /* \"backEnd/contracts/BUNN_Governor_Proxy.sol\":4520:4526  admins */\n      0x04\n        /* \"backEnd/contracts/BUNN_Governor_Proxy.sol\":4520:4533  admins.length */\n      dup1\n      sload\n      swap1\n      pop\n        /* \"backEnd/contracts/BUNN_Governor_Proxy.sol\":4494:4499  admin */\n      0x03\n        /* \"backEnd/contracts/BUNN_Governor_Proxy.sol\":4494:4509  admin[newAdmin] */\n      0x00\n        /* \"backEnd/contracts/BUNN_Governor_Proxy.sol\":4500:4508  newAdmin */\n      dup4\n        /* \"backEnd/contracts/BUNN_Governor_Proxy.sol\":4494:4509  admin[newAdmin] */\n      0xffffffffffffffffffffffffffffffffffffffff\n      and\n      0xffffffffffffffffffffffffffffffffffffffff\n      and\n      dup2\n      mstore\n      0x20\n      add\n      swap1\n      dup2\n      mstore\n      0x20\n      add\n      0x00\n      keccak256\n        /* \"backEnd/contracts/BUNN_Governor_Proxy.sol\":4494:4516  admin[newAdmin].adders */\n      0x02\n      add\n      sload\n        /* \"backEnd/contracts/BUNN_Governor_Proxy.sol\":4494:4533  admin[newAdmin].adders >= admins.length */\n      lt\n        /* \"backEnd/contracts/BUNN_Governor_Proxy.sol\":4491:4771  if(admin[newAdmin].adders >= admins.length ){... */\n      tag_217\n      jumpi\n        /* \"backEnd/contracts/BUNN_Governor_Proxy.sol\":4576:4580  true */\n      0x01\n        /* \"backEnd/contracts/BUNN_Governor_Proxy.sol\":4549:4554  admin */\n      0x03\n        /* \"backEnd/contracts/BUNN_Governor_Proxy.sol\":4549:4564  admin[newAdmin] */\n      0x00\n        /* \"backEnd/contracts/BUNN_Governor_Proxy.sol\":4555:4563  newAdmin */\n      dup4\n        /* \"backEnd/contracts/BUNN_Governor_Proxy.sol\":4549:4564  admin[newAdmin] */\n      0xffffffffffffffffffffffffffffffffffffffff\n      and\n      0xffffffffffffffffffffffffffffffffffffffff\n      and\n      dup2\n      mstore\n      0x20\n      add\n      swap1\n      dup2\n      mstore\n      0x20\n      add\n      0x00\n      keccak256\n        /* \"backEnd/contracts/BUNN_Governor_Proxy.sol\":4549:4573  admin[newAdmin].is_admin */\n      0x00\n      add\n      0x00\n        /* \"backEnd/contracts/BUNN_Governor_Proxy.sol\":4549:4580  admin[newAdmin].is_admin = true */\n      0x0100\n      exp\n      dup2\n      sload\n      dup2\n      0xff\n      mul\n      not\n      and\n      swap1\n      dup4\n      iszero\n      iszero\n      mul\n      or\n      swap1\n      sstore\n      pop\n        /* \"backEnd/contracts/BUNN_Governor_Proxy.sol\":4594:4600  admins */\n      0x04\n        /* \"backEnd/contracts/BUNN_Governor_Proxy.sol\":4606:4614  newAdmin */\n      dup2\n        /* \"backEnd/contracts/BUNN_Governor_Proxy.sol\":4594:4615  admins.push(newAdmin) */\n      swap1\n      dup1\n      0x01\n      dup2\n      sload\n      add\n      dup1\n      dup3\n      sstore\n      dup1\n      swap2\n      pop\n      pop\n      0x01\n      swap1\n      sub\n      swap1\n      0x00\n      mstore\n      keccak256(0x00, 0x20)\n      add\n      0x00\n      swap1\n      swap2\n      swap1\n      swap2\n      swap1\n      swap2\n      0x0100\n      exp\n      dup2\n      sload\n      dup2\n      0xffffffffffffffffffffffffffffffffffffffff\n      mul\n      not\n      and\n      swap1\n      dup4\n      0xffffffffffffffffffffffffffffffffffffffff\n      and\n      mul\n      or\n      swap1\n      sstore\n      pop\n        /* \"backEnd/contracts/BUNN_Governor_Proxy.sol\":4679:4680  1 */\n      0x01\n        /* \"backEnd/contracts/BUNN_Governor_Proxy.sol\":4654:4659  admin */\n      0x03\n        /* \"backEnd/contracts/BUNN_Governor_Proxy.sol\":4654:4669  admin[newAdmin] */\n      0x00\n        /* \"backEnd/contracts/BUNN_Governor_Proxy.sol\":4660:4668  newAdmin */\n      dup4\n        /* \"backEnd/contracts/BUNN_Governor_Proxy.sol\":4654:4669  admin[newAdmin] */\n      0xffffffffffffffffffffffffffffffffffffffff\n      and\n      0xffffffffffffffffffffffffffffffffffffffff\n      and\n      dup2\n      mstore\n      0x20\n      add\n      swap1\n      dup2\n      mstore\n      0x20\n      add\n      0x00\n      keccak256\n        /* \"backEnd/contracts/BUNN_Governor_Proxy.sol\":4654:4676  admin[newAdmin].adders */\n      0x02\n      add\n      sload\n        /* \"backEnd/contracts/BUNN_Governor_Proxy.sol\":4654:4680  admin[newAdmin].adders + 1 */\n      tag_219\n      swap2\n      swap1\n      tag_134\n      jump\t// in\n    tag_219:\n        /* \"backEnd/contracts/BUNN_Governor_Proxy.sol\":4629:4634  admin */\n      0x03\n        /* \"backEnd/contracts/BUNN_Governor_Proxy.sol\":4629:4644  admin[newAdmin] */\n      0x00\n        /* \"backEnd/contracts/BUNN_Governor_Proxy.sol\":4635:4643  newAdmin */\n      dup4\n        /* \"backEnd/contracts/BUNN_Governor_Proxy.sol\":4629:4644  admin[newAdmin] */\n      0xffffffffffffffffffffffffffffffffffffffff\n      and\n      0xffffffffffffffffffffffffffffffffffffffff\n      and\n      dup2\n      mstore\n      0x20\n      add\n      swap1\n      dup2\n      mstore\n      0x20\n      add\n      0x00\n      keccak256\n        /* \"backEnd/contracts/BUNN_Governor_Proxy.sol\":4629:4651  admin[newAdmin].adders */\n      0x02\n      add\n        /* \"backEnd/contracts/BUNN_Governor_Proxy.sol\":4629:4680  admin[newAdmin].adders = admin[newAdmin].adders + 1 */\n      dup2\n      swap1\n      sstore\n      pop\n        /* \"backEnd/contracts/BUNN_Governor_Proxy.sol\":4491:4771  if(admin[newAdmin].adders >= admins.length ){... */\n      jump(tag_220)\n    tag_217:\n        /* \"backEnd/contracts/BUNN_Governor_Proxy.sol\":4759:4760  1 */\n      0x01\n        /* \"backEnd/contracts/BUNN_Governor_Proxy.sol\":4734:4739  admin */\n      0x03\n        /* \"backEnd/contracts/BUNN_Governor_Proxy.sol\":4734:4749  admin[newAdmin] */\n      0x00\n        /* \"backEnd/contracts/BUNN_Governor_Proxy.sol\":4740:4748  newAdmin */\n      dup4\n        /* \"backEnd/contracts/BUNN_Governor_Proxy.sol\":4734:4749  admin[newAdmin] */\n      0xffffffffffffffffffffffffffffffffffffffff\n      and\n      0xffffffffffffffffffffffffffffffffffffffff\n      and\n      dup2\n      mstore\n      0x20\n      add\n      swap1\n      dup2\n      mstore\n      0x20\n      add\n      0x00\n      keccak256\n        /* \"backEnd/contracts/BUNN_Governor_Proxy.sol\":4734:4756  admin[newAdmin].adders */\n      0x02\n      add\n      sload\n        /* \"backEnd/contracts/BUNN_Governor_Proxy.sol\":4734:4760  admin[newAdmin].adders + 1 */\n      tag_221\n      swap2\n      swap1\n      tag_134\n      jump\t// in\n    tag_221:\n        /* \"backEnd/contracts/BUNN_Governor_Proxy.sol\":4709:4714  admin */\n      0x03\n        /* \"backEnd/contracts/BUNN_Governor_Proxy.sol\":4709:4724  admin[newAdmin] */\n      0x00\n        /* \"backEnd/contracts/BUNN_Governor_Proxy.sol\":4715:4723  newAdmin */\n      dup4\n        /* \"backEnd/contracts/BUNN_Governor_Proxy.sol\":4709:4724  admin[newAdmin] */\n      0xffffffffffffffffffffffffffffffffffffffff\n      and\n      0xffffffffffffffffffffffffffffffffffffffff\n      and\n      dup2\n      mstore\n      0x20\n      add\n      swap1\n      dup2\n      mstore\n      0x20\n      add\n      0x00\n      keccak256\n        /* \"backEnd/contracts/BUNN_Governor_Proxy.sol\":4709:4731  admin[newAdmin].adders */\n      0x02\n      add\n        /* \"backEnd/contracts/BUNN_Governor_Proxy.sol\":4709:4760  admin[newAdmin].adders = admin[newAdmin].adders + 1 */\n      dup2\n      swap1\n      sstore\n      pop\n        /* \"backEnd/contracts/BUNN_Governor_Proxy.sol\":4491:4771  if(admin[newAdmin].adders >= admins.length ){... */\n    tag_220:\n        /* \"backEnd/contracts/BUNN_Governor_Proxy.sol\":4804:4812  newAdmin */\n      dup1\n        /* \"backEnd/contracts/BUNN_Governor_Proxy.sol\":4794:4813  new_Admin(newAdmin) */\n      0xffffffffffffffffffffffffffffffffffffffff\n      and\n      0xe0c21bf57df59cfc5e2067c75dbfd51a39f17533352ce1cf3a6c713c897a6c0c\n      mload(0x40)\n      mload(0x40)\n      dup1\n      swap2\n      sub\n      swap1\n      log2\n        /* \"backEnd/contracts/BUNN_Governor_Proxy.sol\":4428:4820  function addAdmin(address newAdmin) public onlyAdmin {... */\n      pop\n      jump\t// out\n        /* \"backEnd/contracts/BUNN_Governor_Proxy.sol\":1436:1916  function initiate_topic(... */\n    tag_101:\n        /* \"backEnd/contracts/BUNN_Governor_Proxy.sol\":1630:1647  bytes memory data */\n      0x00\n        /* \"backEnd/contracts/BUNN_Governor_Proxy.sol\":1722:1728  title_ */\n      dup5\n        /* \"backEnd/contracts/BUNN_Governor_Proxy.sol\":1730:1738  details_ */\n      dup5\n        /* \"backEnd/contracts/BUNN_Governor_Proxy.sol\":1740:1772  implementation_contract_address_ */\n      dup5\n        /* \"backEnd/contracts/BUNN_Governor_Proxy.sol\":1774:1784  signature_ */\n      dup5\n        /* \"backEnd/contracts/BUNN_Governor_Proxy.sol\":1650:1785  abi.encodeWithSignature(\"initiate_topic(string,string,address,string)\", title_, details_, implementation_contract_address_, signature_) */\n      add(0x24, mload(0x40))\n      tag_223\n      swap5\n      swap4\n      swap3\n      swap2\n      swap1\n      tag_224\n      jump\t// in\n    tag_223:\n      mload(0x40)\n      0x20\n      dup2\n      dup4\n      sub\n      sub\n      dup2\n      mstore\n      swap1\n      0x40\n      mstore\n      and(not(0xffffffffffffffffffffffffffffffffffffffffffffffffffffffff), 0x7d1592f300000000000000000000000000000000000000000000000000000000)\n      0x20\n      dup3\n      add\n      dup1\n      mload\n      0xffffffffffffffffffffffffffffffffffffffffffffffffffffffff\n      dup4\n      dup2\n      dup4\n      and\n      or\n      dup4\n      mstore\n      pop\n      pop\n      pop\n      pop\n        /* \"backEnd/contracts/BUNN_Governor_Proxy.sol\":1630:1785  bytes memory data = abi.encodeWithSignature(\"initiate_topic(string,string,address,string)\", title_, details_, implementation_contract_address_, signature_) */\n      swap1\n      pop\n        /* \"backEnd/contracts/BUNN_Governor_Proxy.sol\":1796:1808  bool success */\n      0x00\n        /* \"backEnd/contracts/BUNN_Governor_Proxy.sol\":1813:1827  logic_contrcat */\n      0x02\n      0x00\n      swap1\n      sload\n      swap1\n      0x0100\n      exp\n      swap1\n      div\n      0xffffffffffffffffffffffffffffffffffffffff\n      and\n        /* \"backEnd/contracts/BUNN_Governor_Proxy.sol\":1813:1840  logic_contrcat.delegatecall */\n      0xffffffffffffffffffffffffffffffffffffffff\n      and\n        /* \"backEnd/contracts/BUNN_Governor_Proxy.sol\":1841:1845  data */\n      dup3\n        /* \"backEnd/contracts/BUNN_Governor_Proxy.sol\":1813:1846  logic_contrcat.delegatecall(data) */\n      mload(0x40)\n      tag_225\n      swap2\n      swap1\n      tag_226\n      jump\t// in\n    tag_225:\n      0x00\n      mload(0x40)\n      dup1\n      dup4\n      sub\n      dup2\n      dup6\n      gas\n      delegatecall\n      swap2\n      pop\n      pop\n      returndatasize\n      dup1\n      0x00\n      dup2\n      eq\n      tag_229\n      jumpi\n      mload(0x40)\n      swap2\n      pop\n      and(add(returndatasize, 0x3f), not(0x1f))\n      dup3\n      add\n      0x40\n      mstore\n      returndatasize\n      dup3\n      mstore\n      returndatasize\n      0x00\n      0x20\n      dup5\n      add\n      returndatacopy\n      jump(tag_228)\n    tag_229:\n      0x60\n      swap2\n      pop\n    tag_228:\n      pop\n        /* \"backEnd/contracts/BUNN_Governor_Proxy.sol\":1795:1846  (bool success,) = logic_contrcat.delegatecall(data) */\n      pop\n      swap1\n      pop\n        /* \"backEnd/contracts/BUNN_Governor_Proxy.sol\":1873:1880  success */\n      dup1\n        /* \"backEnd/contracts/BUNN_Governor_Proxy.sol\":1865:1909  require(success, \"FAILED TO INITIATE TOPIC\") */\n      tag_230\n      jumpi\n      mload(0x40)\n      0x08c379a000000000000000000000000000000000000000000000000000000000\n      dup2\n      mstore\n      0x04\n      add\n      tag_231\n      swap1\n      tag_232\n      jump\t// in\n    tag_231:\n      mload(0x40)\n      dup1\n      swap2\n      sub\n      swap1\n      revert\n    tag_230:\n        /* \"backEnd/contracts/BUNN_Governor_Proxy.sol\":1620:1916  {... */\n      pop\n      pop\n        /* \"backEnd/contracts/BUNN_Governor_Proxy.sol\":1436:1916  function initiate_topic(... */\n      pop\n      pop\n      pop\n      pop\n      jump\t// out\n        /* \"backEnd/contracts/BUNN_Governor_Proxy.sol\":3718:3975  function implement_decision(uint256 topic_id) public payable onlyAdmin{... */\n    tag_104:\n        /* \"backEnd/contracts/BUNN_Governor_Proxy.sol\":4359:4364  admin */\n      0x03\n        /* \"backEnd/contracts/BUNN_Governor_Proxy.sol\":4359:4376  admin[msg.sender] */\n      0x00\n        /* \"backEnd/contracts/BUNN_Governor_Proxy.sol\":4365:4375  msg.sender */\n      caller\n        /* \"backEnd/contracts/BUNN_Governor_Proxy.sol\":4359:4376  admin[msg.sender] */\n      0xffffffffffffffffffffffffffffffffffffffff\n      and\n      0xffffffffffffffffffffffffffffffffffffffff\n      and\n      dup2\n      mstore\n      0x20\n      add\n      swap1\n      dup2\n      mstore\n      0x20\n      add\n      0x00\n      keccak256\n        /* \"backEnd/contracts/BUNN_Governor_Proxy.sol\":4359:4385  admin[msg.sender].is_admin */\n      0x00\n      add\n      0x00\n      swap1\n      sload\n      swap1\n      0x0100\n      exp\n      swap1\n      div\n      0xff\n      and\n        /* \"backEnd/contracts/BUNN_Governor_Proxy.sol\":4351:4404  require(admin[msg.sender].is_admin, \"ACCESS DENIED!\") */\n      tag_234\n      jumpi\n      mload(0x40)\n      0x08c379a000000000000000000000000000000000000000000000000000000000\n      dup2\n      mstore\n      0x04\n      add\n      tag_235\n      swap1\n      tag_128\n      jump\t// in\n    tag_235:\n      mload(0x40)\n      dup1\n      swap2\n      sub\n      swap1\n      revert\n    tag_234:\n        /* \"backEnd/contracts/BUNN_Governor_Proxy.sol\":3799:3811  bool success */\n      0x00\n        /* \"backEnd/contracts/BUNN_Governor_Proxy.sol\":3817:3831  logic_contrcat */\n      0x02\n      0x00\n      swap1\n      sload\n      swap1\n      0x0100\n      exp\n      swap1\n      div\n      0xffffffffffffffffffffffffffffffffffffffff\n      and\n        /* \"backEnd/contracts/BUNN_Governor_Proxy.sol\":3817:3844  logic_contrcat.delegatecall */\n      0xffffffffffffffffffffffffffffffffffffffff\n      and\n        /* \"backEnd/contracts/BUNN_Governor_Proxy.sol\":3900:3908  topic_id */\n      dup3\n        /* \"backEnd/contracts/BUNN_Governor_Proxy.sol\":3845:3909  abi.encodeWithSignature(\"implement_decision(uint256)\", topic_id) */\n      add(0x24, mload(0x40))\n      tag_237\n      swap2\n      swap1\n      tag_39\n      jump\t// in\n    tag_237:\n      mload(0x40)\n      0x20\n      dup2\n      dup4\n      sub\n      sub\n      dup2\n      mstore\n      swap1\n      0x40\n      mstore\n      and(not(0xffffffffffffffffffffffffffffffffffffffffffffffffffffffff), 0xa060acfa00000000000000000000000000000000000000000000000000000000)\n      0x20\n      dup3\n      add\n      dup1\n      mload\n      0xffffffffffffffffffffffffffffffffffffffffffffffffffffffff\n      dup4\n      dup2\n      dup4\n      and\n      or\n      dup4\n      mstore\n      pop\n      pop\n      pop\n      pop\n        /* \"backEnd/contracts/BUNN_Governor_Proxy.sol\":3817:3910  logic_contrcat.delegatecall(abi.encodeWithSignature(\"implement_decision(uint256)\", topic_id)) */\n      mload(0x40)\n      tag_238\n      swap2\n      swap1\n      tag_226\n      jump\t// in\n    tag_238:\n      0x00\n      mload(0x40)\n      dup1\n      dup4\n      sub\n      dup2\n      dup6\n      gas\n      delegatecall\n      swap2\n      pop\n      pop\n      returndatasize\n      dup1\n      0x00\n      dup2\n      eq\n      tag_241\n      jumpi\n      mload(0x40)\n      swap2\n      pop\n      and(add(returndatasize, 0x3f), not(0x1f))\n      dup3\n      add\n      0x40\n      mstore\n      returndatasize\n      dup3\n      mstore\n      returndatasize\n      0x00\n      0x20\n      dup5\n      add\n      returndatacopy\n      jump(tag_240)\n    tag_241:\n      0x60\n      swap2\n      pop\n    tag_240:\n      pop\n        /* \"backEnd/contracts/BUNN_Governor_Proxy.sol\":3798:3910  (bool success, ) = logic_contrcat.delegatecall(abi.encodeWithSignature(\"implement_decision(uint256)\", topic_id)) */\n      pop\n      swap1\n      pop\n        /* \"backEnd/contracts/BUNN_Governor_Proxy.sol\":3928:3935  success */\n      dup1\n        /* \"backEnd/contracts/BUNN_Governor_Proxy.sol\":3920:3968  require(success, \"FAILED TO IMPLEMENT DECISION\") */\n      tag_242\n      jumpi\n      mload(0x40)\n      0x08c379a000000000000000000000000000000000000000000000000000000000\n      dup2\n      mstore\n      0x04\n      add\n      tag_243\n      swap1\n      tag_244\n      jump\t// in\n    tag_243:\n      mload(0x40)\n      dup1\n      swap2\n      sub\n      swap1\n      revert\n    tag_242:\n        /* \"backEnd/contracts/BUNN_Governor_Proxy.sol\":3788:3975  {... */\n      pop\n        /* \"backEnd/contracts/BUNN_Governor_Proxy.sol\":3718:3975  function implement_decision(uint256 topic_id) public payable onlyAdmin{... */\n      pop\n      jump\t// out\n        /* \"backEnd/contracts/governor_storage.sol\":209:245  address public utility_token_address */\n    tag_107:\n      0x00\n      dup1\n      sload\n      swap1\n      0x0100\n      exp\n      swap1\n      div\n      0xffffffffffffffffffffffffffffffffffffffff\n      and\n      dup2\n      jump\t// out\n        /* \"backEnd/contracts/governor_storage.sol\":280:309  address public logic_contrcat */\n    tag_112:\n      0x02\n      0x00\n      swap1\n      sload\n      swap1\n      0x0100\n      exp\n      swap1\n      div\n      0xffffffffffffffffffffffffffffffffffffffff\n      and\n      dup2\n      jump\t// out\n        /* \"backEnd/contracts/BUNN_Governor_Proxy.sol\":1147:1379  function register(string memory name_/* , uint256 d_tokens */) public {... */\n    tag_118:\n        /* \"backEnd/contracts/BUNN_Governor_Proxy.sol\":1228:1240  bool success */\n      0x00\n        /* \"backEnd/contracts/BUNN_Governor_Proxy.sol\":1245:1259  logic_contrcat */\n      0x02\n      0x00\n      swap1\n      sload\n      swap1\n      0x0100\n      exp\n      swap1\n      div\n      0xffffffffffffffffffffffffffffffffffffffff\n      and\n        /* \"backEnd/contracts/BUNN_Governor_Proxy.sol\":1245:1272  logic_contrcat.delegatecall */\n      0xffffffffffffffffffffffffffffffffffffffff\n      and\n        /* \"backEnd/contracts/BUNN_Governor_Proxy.sol\":1317:1322  name_ */\n      dup3\n        /* \"backEnd/contracts/BUNN_Governor_Proxy.sol\":1273:1323  abi.encodeWithSignature(\"register(string)\", name_) */\n      add(0x24, mload(0x40))\n      tag_246\n      swap2\n      swap1\n      tag_247\n      jump\t// in\n    tag_246:\n      mload(0x40)\n      0x20\n      dup2\n      dup4\n      sub\n      sub\n      dup2\n      mstore\n      swap1\n      0x40\n      mstore\n      and(not(0xffffffffffffffffffffffffffffffffffffffffffffffffffffffff), 0xf2c298be00000000000000000000000000000000000000000000000000000000)\n      0x20\n      dup3\n      add\n      dup1\n      mload\n      0xffffffffffffffffffffffffffffffffffffffffffffffffffffffff\n      dup4\n      dup2\n      dup4\n      and\n      or\n      dup4\n      mstore\n      pop\n      pop\n      pop\n      pop\n        /* \"backEnd/contracts/BUNN_Governor_Proxy.sol\":1245:1324  logic_contrcat.delegatecall(abi.encodeWithSignature(\"register(string)\", name_)) */\n      mload(0x40)\n      tag_248\n      swap2\n      swap1\n      tag_226\n      jump\t// in\n    tag_248:\n      0x00\n      mload(0x40)\n      dup1\n      dup4\n      sub\n      dup2\n      dup6\n      gas\n      delegatecall\n      swap2\n      pop\n      pop\n      returndatasize\n      dup1\n      0x00\n      dup2\n      eq\n      tag_251\n      jumpi\n      mload(0x40)\n      swap2\n      pop\n      and(add(returndatasize, 0x3f), not(0x1f))\n      dup3\n      add\n      0x40\n      mstore\n      returndatasize\n      dup3\n      mstore\n      returndatasize\n      0x00\n      0x20\n      dup5\n      add\n      returndatacopy\n      jump(tag_250)\n    tag_251:\n      0x60\n      swap2\n      pop\n    tag_250:\n      pop\n        /* \"backEnd/contracts/BUNN_Governor_Proxy.sol\":1227:1324  (bool success,) = logic_contrcat.delegatecall(abi.encodeWithSignature(\"register(string)\", name_)) */\n      pop\n      swap1\n      pop\n        /* \"backEnd/contracts/BUNN_Governor_Proxy.sol\":1342:1349  success */\n      dup1\n        /* \"backEnd/contracts/BUNN_Governor_Proxy.sol\":1334:1372  require(success, \"FAILED TO REGISTER\") */\n      tag_252\n      jumpi\n      mload(0x40)\n      0x08c379a000000000000000000000000000000000000000000000000000000000\n      dup2\n      mstore\n      0x04\n      add\n      tag_253\n      swap1\n      tag_254\n      jump\t// in\n    tag_253:\n      mload(0x40)\n      dup1\n      swap2\n      sub\n      swap1\n      revert\n    tag_252:\n        /* \"backEnd/contracts/BUNN_Governor_Proxy.sol\":1217:1379  {... */\n      pop\n        /* \"backEnd/contracts/BUNN_Governor_Proxy.sol\":1147:1379  function register(string memory name_/* , uint256 d_tokens */) public {... */\n      pop\n      jump\t// out\n        /* \"backEnd/contracts/governor_storage.sol\":1007:1048  mapping(address => Member) public Members */\n    tag_122:\n      mstore(0x20, 0x05)\n      dup1\n      0x00\n      mstore\n      keccak256(0x00, 0x40)\n      0x00\n      swap2\n      pop\n      swap1\n      pop\n      dup1\n      0x00\n      add\n      dup1\n      sload\n      tag_255\n      swap1\n      tag_139\n      jump\t// in\n    tag_255:\n      dup1\n      0x1f\n      add\n      0x20\n      dup1\n      swap2\n      div\n      mul\n      0x20\n      add\n      mload(0x40)\n      swap1\n      dup2\n      add\n      0x40\n      mstore\n      dup1\n      swap3\n      swap2\n      swap1\n      dup2\n      dup2\n      mstore\n      0x20\n      add\n      dup3\n      dup1\n      sload\n      tag_256\n      swap1\n      tag_139\n      jump\t// in\n    tag_256:\n      dup1\n      iszero\n      tag_257\n      jumpi\n      dup1\n      0x1f\n      lt\n      tag_258\n      jumpi\n      0x0100\n      dup1\n      dup4\n      sload\n      div\n      mul\n      dup4\n      mstore\n      swap2\n      0x20\n      add\n      swap2\n      jump(tag_257)\n    tag_258:\n      dup3\n      add\n      swap2\n      swap1\n      0x00\n      mstore\n      keccak256(0x00, 0x20)\n      swap1\n    tag_259:\n      dup2\n      sload\n      dup2\n      mstore\n      swap1\n      0x01\n      add\n      swap1\n      0x20\n      add\n      dup1\n      dup4\n      gt\n      tag_259\n      jumpi\n      dup3\n      swap1\n      sub\n      0x1f\n      and\n      dup3\n      add\n      swap2\n    tag_257:\n      pop\n      pop\n      pop\n      pop\n      pop\n      swap1\n      dup1\n      0x01\n      add\n      0x00\n      swap1\n      sload\n      swap1\n      0x0100\n      exp\n      swap1\n      div\n      0xff\n      and\n      swap1\n      pop\n      dup3\n      jump\t// out\n        /* \"@openzeppelin/contracts/utils/math/Math.sol\":3803:7919  function mulDiv(uint256 x, uint256 y, uint256 denominator) internal pure returns (uint256 result) {... */\n    tag_191:\n        /* \"@openzeppelin/contracts/utils/math/Math.sol\":3885:3899  uint256 result */\n      0x00\n        /* \"@openzeppelin/contracts/utils/math/Math.sol\":4232:4245  uint256 prod0 */\n      dup1\n        /* \"@openzeppelin/contracts/utils/math/Math.sol\":4252:4253  y */\n      dup4\n        /* \"@openzeppelin/contracts/utils/math/Math.sol\":4248:4249  x */\n      dup6\n        /* \"@openzeppelin/contracts/utils/math/Math.sol\":4248:4253  x * y */\n      mul\n        /* \"@openzeppelin/contracts/utils/math/Math.sol\":4232:4253  uint256 prod0 = x * y */\n      swap1\n      pop\n        /* \"@openzeppelin/contracts/utils/math/Math.sol\":4312:4325  uint256 prod1 */\n      0x00\n        /* \"@openzeppelin/contracts/utils/math/Math.sol\":4437:4438  0 */\n      dup1\n        /* \"@openzeppelin/contracts/utils/math/Math.sol\":4433:4439  not(0) */\n      not\n        /* \"@openzeppelin/contracts/utils/math/Math.sol\":4430:4431  y */\n      dup6\n        /* \"@openzeppelin/contracts/utils/math/Math.sol\":4427:4428  x */\n      dup8\n        /* \"@openzeppelin/contracts/utils/math/Math.sol\":4420:4440  mulmod(x, y, not(0)) */\n      mulmod\n        /* \"@openzeppelin/contracts/utils/math/Math.sol\":4493:4498  prod0 */\n      dup3\n        /* \"@openzeppelin/contracts/utils/math/Math.sol\":4489:4491  mm */\n      dup2\n        /* \"@openzeppelin/contracts/utils/math/Math.sol\":4486:4499  lt(mm, prod0) */\n      lt\n        /* \"@openzeppelin/contracts/utils/math/Math.sol\":4478:4483  prod0 */\n      dup4\n        /* \"@openzeppelin/contracts/utils/math/Math.sol\":4474:4476  mm */\n      dup3\n        /* \"@openzeppelin/contracts/utils/math/Math.sol\":4470:4484  sub(mm, prod0) */\n      sub\n        /* \"@openzeppelin/contracts/utils/math/Math.sol\":4466:4500  sub(sub(mm, prod0), lt(mm, prod0)) */\n      sub\n        /* \"@openzeppelin/contracts/utils/math/Math.sol\":4457:4500  prod1 := sub(sub(mm, prod0), lt(mm, prod0)) */\n      swap2\n      pop\n        /* \"@openzeppelin/contracts/utils/math/Math.sol\":4392:4514  {... */\n      pop\n        /* \"@openzeppelin/contracts/utils/math/Math.sol\":4604:4605  0 */\n      0x00\n        /* \"@openzeppelin/contracts/utils/math/Math.sol\":4595:4600  prod1 */\n      dup2\n        /* \"@openzeppelin/contracts/utils/math/Math.sol\":4595:4605  prod1 == 0 */\n      sub\n        /* \"@openzeppelin/contracts/utils/math/Math.sol\":4591:4959  if (prod1 == 0) {... */\n      tag_261\n      jumpi\n        /* \"@openzeppelin/contracts/utils/math/Math.sol\":4933:4944  denominator */\n      dup4\n        /* \"@openzeppelin/contracts/utils/math/Math.sol\":4925:4930  prod0 */\n      dup3\n        /* \"@openzeppelin/contracts/utils/math/Math.sol\":4925:4944  prod0 / denominator */\n      dup2\n      tag_262\n      jumpi\n      tag_263\n      tag_264\n      jump\t// in\n    tag_263:\n    tag_262:\n      div\n        /* \"@openzeppelin/contracts/utils/math/Math.sol\":4918:4944  return prod0 / denominator */\n      swap3\n      pop\n      pop\n      pop\n      jump(tag_260)\n        /* \"@openzeppelin/contracts/utils/math/Math.sol\":4591:4959  if (prod1 == 0) {... */\n    tag_261:\n        /* \"@openzeppelin/contracts/utils/math/Math.sol\":5080:5085  prod1 */\n      dup1\n        /* \"@openzeppelin/contracts/utils/math/Math.sol\":5065:5076  denominator */\n      dup5\n        /* \"@openzeppelin/contracts/utils/math/Math.sol\":5065:5085  denominator <= prod1 */\n      gt\n        /* \"@openzeppelin/contracts/utils/math/Math.sol\":5061:5149  if (denominator <= prod1) {... */\n      tag_265\n      jumpi\n        /* \"@openzeppelin/contracts/utils/math/Math.sol\":5112:5134  MathOverflowedMulDiv() */\n      mload(0x40)\n      0x227bc15300000000000000000000000000000000000000000000000000000000\n      dup2\n      mstore\n      0x04\n      add\n      mload(0x40)\n      dup1\n      swap2\n      sub\n      swap1\n      revert\n        /* \"@openzeppelin/contracts/utils/math/Math.sol\":5061:5149  if (denominator <= prod1) {... */\n    tag_265:\n        /* \"@openzeppelin/contracts/utils/math/Math.sol\":5404:5421  uint256 remainder */\n      0x00\n        /* \"@openzeppelin/contracts/utils/math/Math.sol\":5539:5550  denominator */\n      dup5\n        /* \"@openzeppelin/contracts/utils/math/Math.sol\":5536:5537  y */\n      dup7\n        /* \"@openzeppelin/contracts/utils/math/Math.sol\":5533:5534  x */\n      dup9\n        /* \"@openzeppelin/contracts/utils/math/Math.sol\":5526:5551  mulmod(x, y, denominator) */\n      mulmod\n        /* \"@openzeppelin/contracts/utils/math/Math.sol\":5513:5551  remainder := mulmod(x, y, denominator) */\n      swap1\n      pop\n        /* \"@openzeppelin/contracts/utils/math/Math.sol\":5667:5672  prod0 */\n      dup3\n        /* \"@openzeppelin/contracts/utils/math/Math.sol\":5656:5665  remainder */\n      dup2\n        /* \"@openzeppelin/contracts/utils/math/Math.sol\":5653:5673  gt(remainder, prod0) */\n      gt\n        /* \"@openzeppelin/contracts/utils/math/Math.sol\":5646:5651  prod1 */\n      dup3\n        /* \"@openzeppelin/contracts/utils/math/Math.sol\":5642:5674  sub(prod1, gt(remainder, prod0)) */\n      sub\n        /* \"@openzeppelin/contracts/utils/math/Math.sol\":5633:5674  prod1 := sub(prod1, gt(remainder, prod0)) */\n      swap2\n      pop\n        /* \"@openzeppelin/contracts/utils/math/Math.sol\":5711:5720  remainder */\n      dup1\n        /* \"@openzeppelin/contracts/utils/math/Math.sol\":5704:5709  prod0 */\n      dup4\n        /* \"@openzeppelin/contracts/utils/math/Math.sol\":5700:5721  sub(prod0, remainder) */\n      sub\n        /* \"@openzeppelin/contracts/utils/math/Math.sol\":5691:5721  prod0 := sub(prod0, remainder) */\n      swap3\n      pop\n        /* \"@openzeppelin/contracts/utils/math/Math.sol\":5939:5951  uint256 twos */\n      0x00\n        /* \"@openzeppelin/contracts/utils/math/Math.sol\":5973:5984  denominator */\n      dup6\n        /* \"@openzeppelin/contracts/utils/math/Math.sol\":5969:5970  0 */\n      0x00\n        /* \"@openzeppelin/contracts/utils/math/Math.sol\":5969:5984  0 - denominator */\n      sub\n        /* \"@openzeppelin/contracts/utils/math/Math.sol\":5954:5965  denominator */\n      dup7\n        /* \"@openzeppelin/contracts/utils/math/Math.sol\":5954:5985  denominator & (0 - denominator) */\n      and\n        /* \"@openzeppelin/contracts/utils/math/Math.sol\":5939:5985  uint256 twos = denominator & (0 - denominator) */\n      swap1\n      pop\n        /* \"@openzeppelin/contracts/utils/math/Math.sol\":6105:6109  twos */\n      dup1\n        /* \"@openzeppelin/contracts/utils/math/Math.sol\":6092:6103  denominator */\n      dup7\n        /* \"@openzeppelin/contracts/utils/math/Math.sol\":6088:6110  div(denominator, twos) */\n      div\n        /* \"@openzeppelin/contracts/utils/math/Math.sol\":6073:6110  denominator := div(denominator, twos) */\n      swap6\n      pop\n        /* \"@openzeppelin/contracts/utils/math/Math.sol\":6197:6201  twos */\n      dup1\n        /* \"@openzeppelin/contracts/utils/math/Math.sol\":6190:6195  prod0 */\n      dup5\n        /* \"@openzeppelin/contracts/utils/math/Math.sol\":6186:6202  div(prod0, twos) */\n      div\n        /* \"@openzeppelin/contracts/utils/math/Math.sol\":6177:6202  prod0 := div(prod0, twos) */\n      swap4\n      pop\n        /* \"@openzeppelin/contracts/utils/math/Math.sol\":6354:6355  1 */\n      0x01\n        /* \"@openzeppelin/contracts/utils/math/Math.sol\":6347:6351  twos */\n      dup2\n        /* \"@openzeppelin/contracts/utils/math/Math.sol\":6340:6344  twos */\n      dup3\n        /* \"@openzeppelin/contracts/utils/math/Math.sol\":6337:6338  0 */\n      0x00\n        /* \"@openzeppelin/contracts/utils/math/Math.sol\":6333:6345  sub(0, twos) */\n      sub\n        /* \"@openzeppelin/contracts/utils/math/Math.sol\":6329:6352  div(sub(0, twos), twos) */\n      div\n        /* \"@openzeppelin/contracts/utils/math/Math.sol\":6325:6356  add(div(sub(0, twos), twos), 1) */\n      add\n        /* \"@openzeppelin/contracts/utils/math/Math.sol\":6317:6356  twos := add(div(sub(0, twos), twos), 1) */\n      swap1\n      pop\n        /* \"@openzeppelin/contracts/utils/math/Math.sol\":6453:6457  twos */\n      dup1\n        /* \"@openzeppelin/contracts/utils/math/Math.sol\":6445:6450  prod1 */\n      dup4\n        /* \"@openzeppelin/contracts/utils/math/Math.sol\":6445:6457  prod1 * twos */\n      mul\n        /* \"@openzeppelin/contracts/utils/math/Math.sol\":6436:6457  prod0 |= prod1 * twos */\n      dup5\n      or\n      swap4\n      pop\n        /* \"@openzeppelin/contracts/utils/math/Math.sol\":6775:6790  uint256 inverse */\n      0x00\n        /* \"@openzeppelin/contracts/utils/math/Math.sol\":6813:6814  2 */\n      0x02\n        /* \"@openzeppelin/contracts/utils/math/Math.sol\":6798:6809  denominator */\n      dup8\n        /* \"@openzeppelin/contracts/utils/math/Math.sol\":6794:6795  3 */\n      0x03\n        /* \"@openzeppelin/contracts/utils/math/Math.sol\":6794:6809  3 * denominator */\n      mul\n        /* \"@openzeppelin/contracts/utils/math/Math.sol\":6793:6814  (3 * denominator) ^ 2 */\n      xor\n        /* \"@openzeppelin/contracts/utils/math/Math.sol\":6775:6814  uint256 inverse = (3 * denominator) ^ 2 */\n      swap1\n      pop\n        /* \"@openzeppelin/contracts/utils/math/Math.sol\":7060:7067  inverse */\n      dup1\n        /* \"@openzeppelin/contracts/utils/math/Math.sol\":7046:7057  denominator */\n      dup8\n        /* \"@openzeppelin/contracts/utils/math/Math.sol\":7046:7067  denominator * inverse */\n      mul\n        /* \"@openzeppelin/contracts/utils/math/Math.sol\":7042:7043  2 */\n      0x02\n        /* \"@openzeppelin/contracts/utils/math/Math.sol\":7042:7067  2 - denominator * inverse */\n      sub\n        /* \"@openzeppelin/contracts/utils/math/Math.sol\":7031:7067  inverse *= 2 - denominator * inverse */\n      dup2\n      mul\n      swap1\n      pop\n        /* \"@openzeppelin/contracts/utils/math/Math.sol\":7129:7136  inverse */\n      dup1\n        /* \"@openzeppelin/contracts/utils/math/Math.sol\":7115:7126  denominator */\n      dup8\n        /* \"@openzeppelin/contracts/utils/math/Math.sol\":7115:7136  denominator * inverse */\n      mul\n        /* \"@openzeppelin/contracts/utils/math/Math.sol\":7111:7112  2 */\n      0x02\n        /* \"@openzeppelin/contracts/utils/math/Math.sol\":7111:7136  2 - denominator * inverse */\n      sub\n        /* \"@openzeppelin/contracts/utils/math/Math.sol\":7100:7136  inverse *= 2 - denominator * inverse */\n      dup2\n      mul\n      swap1\n      pop\n        /* \"@openzeppelin/contracts/utils/math/Math.sol\":7199:7206  inverse */\n      dup1\n        /* \"@openzeppelin/contracts/utils/math/Math.sol\":7185:7196  denominator */\n      dup8\n        /* \"@openzeppelin/contracts/utils/math/Math.sol\":7185:7206  denominator * inverse */\n      mul\n        /* \"@openzeppelin/contracts/utils/math/Math.sol\":7181:7182  2 */\n      0x02\n        /* \"@openzeppelin/contracts/utils/math/Math.sol\":7181:7206  2 - denominator * inverse */\n      sub\n        /* \"@openzeppelin/contracts/utils/math/Math.sol\":7170:7206  inverse *= 2 - denominator * inverse */\n      dup2\n      mul\n      swap1\n      pop\n        /* \"@openzeppelin/contracts/utils/math/Math.sol\":7269:7276  inverse */\n      dup1\n        /* \"@openzeppelin/contracts/utils/math/Math.sol\":7255:7266  denominator */\n      dup8\n        /* \"@openzeppelin/contracts/utils/math/Math.sol\":7255:7276  denominator * inverse */\n      mul\n        /* \"@openzeppelin/contracts/utils/math/Math.sol\":7251:7252  2 */\n      0x02\n        /* \"@openzeppelin/contracts/utils/math/Math.sol\":7251:7276  2 - denominator * inverse */\n      sub\n        /* \"@openzeppelin/contracts/utils/math/Math.sol\":7240:7276  inverse *= 2 - denominator * inverse */\n      dup2\n      mul\n      swap1\n      pop\n        /* \"@openzeppelin/contracts/utils/math/Math.sol\":7339:7346  inverse */\n      dup1\n        /* \"@openzeppelin/contracts/utils/math/Math.sol\":7325:7336  denominator */\n      dup8\n        /* \"@openzeppelin/contracts/utils/math/Math.sol\":7325:7346  denominator * inverse */\n      mul\n        /* \"@openzeppelin/contracts/utils/math/Math.sol\":7321:7322  2 */\n      0x02\n        /* \"@openzeppelin/contracts/utils/math/Math.sol\":7321:7346  2 - denominator * inverse */\n      sub\n        /* \"@openzeppelin/contracts/utils/math/Math.sol\":7310:7346  inverse *= 2 - denominator * inverse */\n      dup2\n      mul\n      swap1\n      pop\n        /* \"@openzeppelin/contracts/utils/math/Math.sol\":7410:7417  inverse */\n      dup1\n        /* \"@openzeppelin/contracts/utils/math/Math.sol\":7396:7407  denominator */\n      dup8\n        /* \"@openzeppelin/contracts/utils/math/Math.sol\":7396:7417  denominator * inverse */\n      mul\n        /* \"@openzeppelin/contracts/utils/math/Math.sol\":7392:7393  2 */\n      0x02\n        /* \"@openzeppelin/contracts/utils/math/Math.sol\":7392:7417  2 - denominator * inverse */\n      sub\n        /* \"@openzeppelin/contracts/utils/math/Math.sol\":7381:7417  inverse *= 2 - denominator * inverse */\n      dup2\n      mul\n      swap1\n      pop\n        /* \"@openzeppelin/contracts/utils/math/Math.sol\":7868:7875  inverse */\n      dup1\n        /* \"@openzeppelin/contracts/utils/math/Math.sol\":7860:7865  prod0 */\n      dup6\n        /* \"@openzeppelin/contracts/utils/math/Math.sol\":7860:7875  prod0 * inverse */\n      mul\n        /* \"@openzeppelin/contracts/utils/math/Math.sol\":7851:7875  result = prod0 * inverse */\n      swap6\n      pop\n        /* \"@openzeppelin/contracts/utils/math/Math.sol\":7889:7902  return result */\n      pop\n      pop\n      pop\n      pop\n      pop\n        /* \"@openzeppelin/contracts/utils/math/Math.sol\":3803:7919  function mulDiv(uint256 x, uint256 y, uint256 denominator) internal pure returns (uint256 result) {... */\n    tag_260:\n      swap4\n      swap3\n      pop\n      pop\n      pop\n      jump\t// out\n        /* \"#utility.yul\":7:82   */\n    tag_266:\n        /* \"#utility.yul\":40:46   */\n      0x00\n        /* \"#utility.yul\":73:75   */\n      0x40\n        /* \"#utility.yul\":67:76   */\n      mload\n        /* \"#utility.yul\":57:76   */\n      swap1\n      pop\n        /* \"#utility.yul\":7:82   */\n      swap1\n      jump\t// out\n        /* \"#utility.yul\":88:205   */\n    tag_267:\n        /* \"#utility.yul\":197:198   */\n      0x00\n        /* \"#utility.yul\":194:195   */\n      dup1\n        /* \"#utility.yul\":187:199   */\n      revert\n        /* \"#utility.yul\":211:328   */\n    tag_268:\n        /* \"#utility.yul\":320:321   */\n      0x00\n        /* \"#utility.yul\":317:318   */\n      dup1\n        /* \"#utility.yul\":310:322   */\n      revert\n        /* \"#utility.yul\":334:460   */\n    tag_269:\n        /* \"#utility.yul\":371:378   */\n      0x00\n        /* \"#utility.yul\":411:453   */\n      0xffffffffffffffffffffffffffffffffffffffff\n        /* \"#utility.yul\":404:409   */\n      dup3\n        /* \"#utility.yul\":400:454   */\n      and\n        /* \"#utility.yul\":389:454   */\n      swap1\n      pop\n        /* \"#utility.yul\":334:460   */\n      swap2\n      swap1\n      pop\n      jump\t// out\n        /* \"#utility.yul\":466:562   */\n    tag_270:\n        /* \"#utility.yul\":503:510   */\n      0x00\n        /* \"#utility.yul\":532:556   */\n      tag_326\n        /* \"#utility.yul\":550:555   */\n      dup3\n        /* \"#utility.yul\":532:556   */\n      tag_269\n      jump\t// in\n    tag_326:\n        /* \"#utility.yul\":521:556   */\n      swap1\n      pop\n        /* \"#utility.yul\":466:562   */\n      swap2\n      swap1\n      pop\n      jump\t// out\n        /* \"#utility.yul\":568:690   */\n    tag_271:\n        /* \"#utility.yul\":641:665   */\n      tag_328\n        /* \"#utility.yul\":659:664   */\n      dup2\n        /* \"#utility.yul\":641:665   */\n      tag_270\n      jump\t// in\n    tag_328:\n        /* \"#utility.yul\":634:639   */\n      dup2\n        /* \"#utility.yul\":631:666   */\n      eq\n        /* \"#utility.yul\":621:684   */\n      tag_329\n      jumpi\n        /* \"#utility.yul\":680:681   */\n      0x00\n        /* \"#utility.yul\":677:678   */\n      dup1\n        /* \"#utility.yul\":670:682   */\n      revert\n        /* \"#utility.yul\":621:684   */\n    tag_329:\n        /* \"#utility.yul\":568:690   */\n      pop\n      jump\t// out\n        /* \"#utility.yul\":696:835   */\n    tag_272:\n        /* \"#utility.yul\":742:747   */\n      0x00\n        /* \"#utility.yul\":780:786   */\n      dup2\n        /* \"#utility.yul\":767:787   */\n      calldataload\n        /* \"#utility.yul\":758:787   */\n      swap1\n      pop\n        /* \"#utility.yul\":796:829   */\n      tag_331\n        /* \"#utility.yul\":823:828   */\n      dup2\n        /* \"#utility.yul\":796:829   */\n      tag_271\n      jump\t// in\n    tag_331:\n        /* \"#utility.yul\":696:835   */\n      swap3\n      swap2\n      pop\n      pop\n      jump\t// out\n        /* \"#utility.yul\":841:1170   */\n    tag_28:\n        /* \"#utility.yul\":900:906   */\n      0x00\n        /* \"#utility.yul\":949:951   */\n      0x20\n        /* \"#utility.yul\":937:946   */\n      dup3\n        /* \"#utility.yul\":928:935   */\n      dup5\n        /* \"#utility.yul\":924:947   */\n      sub\n        /* \"#utility.yul\":920:952   */\n      slt\n        /* \"#utility.yul\":917:1036   */\n      iszero\n      tag_333\n      jumpi\n        /* \"#utility.yul\":955:1034   */\n      tag_334\n      tag_267\n      jump\t// in\n    tag_334:\n        /* \"#utility.yul\":917:1036   */\n    tag_333:\n        /* \"#utility.yul\":1075:1076   */\n      0x00\n        /* \"#utility.yul\":1100:1153   */\n      tag_335\n        /* \"#utility.yul\":1145:1152   */\n      dup5\n        /* \"#utility.yul\":1136:1142   */\n      dup3\n        /* \"#utility.yul\":1125:1134   */\n      dup6\n        /* \"#utility.yul\":1121:1143   */\n      add\n        /* \"#utility.yul\":1100:1153   */\n      tag_272\n      jump\t// in\n    tag_335:\n        /* \"#utility.yul\":1090:1153   */\n      swap2\n      pop\n        /* \"#utility.yul\":1046:1163   */\n      pop\n        /* \"#utility.yul\":841:1170   */\n      swap3\n      swap2\n      pop\n      pop\n      jump\t// out\n        /* \"#utility.yul\":1176:1253   */\n    tag_273:\n        /* \"#utility.yul\":1213:1220   */\n      0x00\n        /* \"#utility.yul\":1242:1247   */\n      dup2\n        /* \"#utility.yul\":1231:1247   */\n      swap1\n      pop\n        /* \"#utility.yul\":1176:1253   */\n      swap2\n      swap1\n      pop\n      jump\t// out\n        /* \"#utility.yul\":1259:1381   */\n    tag_274:\n        /* \"#utility.yul\":1332:1356   */\n      tag_338\n        /* \"#utility.yul\":1350:1355   */\n      dup2\n        /* \"#utility.yul\":1332:1356   */\n      tag_273\n      jump\t// in\n    tag_338:\n        /* \"#utility.yul\":1325:1330   */\n      dup2\n        /* \"#utility.yul\":1322:1357   */\n      eq\n        /* \"#utility.yul\":1312:1375   */\n      tag_339\n      jumpi\n        /* \"#utility.yul\":1371:1372   */\n      0x00\n        /* \"#utility.yul\":1368:1369   */\n      dup1\n        /* \"#utility.yul\":1361:1373   */\n      revert\n        /* \"#utility.yul\":1312:1375   */\n    tag_339:\n        /* \"#utility.yul\":1259:1381   */\n      pop\n      jump\t// out\n        /* \"#utility.yul\":1387:1526   */\n    tag_275:\n        /* \"#utility.yul\":1433:1438   */\n      0x00\n        /* \"#utility.yul\":1471:1477   */\n      dup2\n        /* \"#utility.yul\":1458:1478   */\n      calldataload\n        /* \"#utility.yul\":1449:1478   */\n      swap1\n      pop\n        /* \"#utility.yul\":1487:1520   */\n      tag_341\n        /* \"#utility.yul\":1514:1519   */\n      dup2\n        /* \"#utility.yul\":1487:1520   */\n      tag_274\n      jump\t// in\n    tag_341:\n        /* \"#utility.yul\":1387:1526   */\n      swap3\n      swap2\n      pop\n      pop\n      jump\t// out\n        /* \"#utility.yul\":1532:1622   */\n    tag_276:\n        /* \"#utility.yul\":1566:1573   */\n      0x00\n        /* \"#utility.yul\":1609:1614   */\n      dup2\n        /* \"#utility.yul\":1602:1615   */\n      iszero\n        /* \"#utility.yul\":1595:1616   */\n      iszero\n        /* \"#utility.yul\":1584:1616   */\n      swap1\n      pop\n        /* \"#utility.yul\":1532:1622   */\n      swap2\n      swap1\n      pop\n      jump\t// out\n        /* \"#utility.yul\":1628:1744   */\n    tag_277:\n        /* \"#utility.yul\":1698:1719   */\n      tag_344\n        /* \"#utility.yul\":1713:1718   */\n      dup2\n        /* \"#utility.yul\":1698:1719   */\n      tag_276\n      jump\t// in\n    tag_344:\n        /* \"#utility.yul\":1691:1696   */\n      dup2\n        /* \"#utility.yul\":1688:1720   */\n      eq\n        /* \"#utility.yul\":1678:1738   */\n      tag_345\n      jumpi\n        /* \"#utility.yul\":1734:1735   */\n      0x00\n        /* \"#utility.yul\":1731:1732   */\n      dup1\n        /* \"#utility.yul\":1724:1736   */\n      revert\n        /* \"#utility.yul\":1678:1738   */\n    tag_345:\n        /* \"#utility.yul\":1628:1744   */\n      pop\n      jump\t// out\n        /* \"#utility.yul\":1750:1883   */\n    tag_278:\n        /* \"#utility.yul\":1793:1798   */\n      0x00\n        /* \"#utility.yul\":1831:1837   */\n      dup2\n        /* \"#utility.yul\":1818:1838   */\n      calldataload\n        /* \"#utility.yul\":1809:1838   */\n      swap1\n      pop\n        /* \"#utility.yul\":1847:1877   */\n      tag_347\n        /* \"#utility.yul\":1871:1876   */\n      dup2\n        /* \"#utility.yul\":1847:1877   */\n      tag_277\n      jump\t// in\n    tag_347:\n        /* \"#utility.yul\":1750:1883   */\n      swap3\n      swap2\n      pop\n      pop\n      jump\t// out\n        /* \"#utility.yul\":1889:2357   */\n    tag_33:\n        /* \"#utility.yul\":1954:1960   */\n      0x00\n        /* \"#utility.yul\":1962:1968   */\n      dup1\n        /* \"#utility.yul\":2011:2013   */\n      0x40\n        /* \"#utility.yul\":1999:2008   */\n      dup4\n        /* \"#utility.yul\":1990:1997   */\n      dup6\n        /* \"#utility.yul\":1986:2009   */\n      sub\n        /* \"#utility.yul\":1982:2014   */\n      slt\n        /* \"#utility.yul\":1979:2098   */\n      iszero\n      tag_349\n      jumpi\n        /* \"#utility.yul\":2017:2096   */\n      tag_350\n      tag_267\n      jump\t// in\n    tag_350:\n        /* \"#utility.yul\":1979:2098   */\n    tag_349:\n        /* \"#utility.yul\":2137:2138   */\n      0x00\n        /* \"#utility.yul\":2162:2215   */\n      tag_351\n        /* \"#utility.yul\":2207:2214   */\n      dup6\n        /* \"#utility.yul\":2198:2204   */\n      dup3\n        /* \"#utility.yul\":2187:2196   */\n      dup7\n        /* \"#utility.yul\":2183:2205   */\n      add\n        /* \"#utility.yul\":2162:2215   */\n      tag_275\n      jump\t// in\n    tag_351:\n        /* \"#utility.yul\":2152:2215   */\n      swap3\n      pop\n        /* \"#utility.yul\":2108:2225   */\n      pop\n        /* \"#utility.yul\":2264:2266   */\n      0x20\n        /* \"#utility.yul\":2290:2340   */\n      tag_352\n        /* \"#utility.yul\":2332:2339   */\n      dup6\n        /* \"#utility.yul\":2323:2329   */\n      dup3\n        /* \"#utility.yul\":2312:2321   */\n      dup7\n        /* \"#utility.yul\":2308:2330   */\n      add\n        /* \"#utility.yul\":2290:2340   */\n      tag_278\n      jump\t// in\n    tag_352:\n        /* \"#utility.yul\":2280:2340   */\n      swap2\n      pop\n        /* \"#utility.yul\":2235:2350   */\n      pop\n        /* \"#utility.yul\":1889:2357   */\n      swap3\n      pop\n      swap3\n      swap1\n      pop\n      jump\t// out\n        /* \"#utility.yul\":2363:2481   */\n    tag_279:\n        /* \"#utility.yul\":2450:2474   */\n      tag_354\n        /* \"#utility.yul\":2468:2473   */\n      dup2\n        /* \"#utility.yul\":2450:2474   */\n      tag_273\n      jump\t// in\n    tag_354:\n        /* \"#utility.yul\":2445:2448   */\n      dup3\n        /* \"#utility.yul\":2438:2475   */\n      mstore\n        /* \"#utility.yul\":2363:2481   */\n      pop\n      pop\n      jump\t// out\n        /* \"#utility.yul\":2487:2709   */\n    tag_39:\n        /* \"#utility.yul\":2580:2584   */\n      0x00\n        /* \"#utility.yul\":2618:2620   */\n      0x20\n        /* \"#utility.yul\":2607:2616   */\n      dup3\n        /* \"#utility.yul\":2603:2621   */\n      add\n        /* \"#utility.yul\":2595:2621   */\n      swap1\n      pop\n        /* \"#utility.yul\":2631:2702   */\n      tag_356\n        /* \"#utility.yul\":2699:2700   */\n      0x00\n        /* \"#utility.yul\":2688:2697   */\n      dup4\n        /* \"#utility.yul\":2684:2701   */\n      add\n        /* \"#utility.yul\":2675:2681   */\n      dup5\n        /* \"#utility.yul\":2631:2702   */\n      tag_279\n      jump\t// in\n    tag_356:\n        /* \"#utility.yul\":2487:2709   */\n      swap3\n      swap2\n      pop\n      pop\n      jump\t// out\n        /* \"#utility.yul\":2715:3044   */\n    tag_43:\n        /* \"#utility.yul\":2774:2780   */\n      0x00\n        /* \"#utility.yul\":2823:2825   */\n      0x20\n        /* \"#utility.yul\":2811:2820   */\n      dup3\n        /* \"#utility.yul\":2802:2809   */\n      dup5\n        /* \"#utility.yul\":2798:2821   */\n      sub\n        /* \"#utility.yul\":2794:2826   */\n      slt\n        /* \"#utility.yul\":2791:2910   */\n      iszero\n      tag_358\n      jumpi\n        /* \"#utility.yul\":2829:2908   */\n      tag_359\n      tag_267\n      jump\t// in\n    tag_359:\n        /* \"#utility.yul\":2791:2910   */\n    tag_358:\n        /* \"#utility.yul\":2949:2950   */\n      0x00\n        /* \"#utility.yul\":2974:3027   */\n      tag_360\n        /* \"#utility.yul\":3019:3026   */\n      dup5\n        /* \"#utility.yul\":3010:3016   */\n      dup3\n        /* \"#utility.yul\":2999:3008   */\n      dup6\n        /* \"#utility.yul\":2995:3017   */\n      add\n        /* \"#utility.yul\":2974:3027   */\n      tag_275\n      jump\t// in\n    tag_360:\n        /* \"#utility.yul\":2964:3027   */\n      swap2\n      pop\n        /* \"#utility.yul\":2920:3037   */\n      pop\n        /* \"#utility.yul\":2715:3044   */\n      swap3\n      swap2\n      pop\n      pop\n      jump\t// out\n        /* \"#utility.yul\":3050:3524   */\n    tag_48:\n        /* \"#utility.yul\":3118:3124   */\n      0x00\n        /* \"#utility.yul\":3126:3132   */\n      dup1\n        /* \"#utility.yul\":3175:3177   */\n      0x40\n        /* \"#utility.yul\":3163:3172   */\n      dup4\n        /* \"#utility.yul\":3154:3161   */\n      dup6\n        /* \"#utility.yul\":3150:3173   */\n      sub\n        /* \"#utility.yul\":3146:3178   */\n      slt\n        /* \"#utility.yul\":3143:3262   */\n      iszero\n      tag_362\n      jumpi\n        /* \"#utility.yul\":3181:3260   */\n      tag_363\n      tag_267\n      jump\t// in\n    tag_363:\n        /* \"#utility.yul\":3143:3262   */\n    tag_362:\n        /* \"#utility.yul\":3301:3302   */\n      0x00\n        /* \"#utility.yul\":3326:3379   */\n      tag_364\n        /* \"#utility.yul\":3371:3378   */\n      dup6\n        /* \"#utility.yul\":3362:3368   */\n      dup3\n        /* \"#utility.yul\":3351:3360   */\n      dup7\n        /* \"#utility.yul\":3347:3369   */\n      add\n        /* \"#utility.yul\":3326:3379   */\n      tag_275\n      jump\t// in\n    tag_364:\n        /* \"#utility.yul\":3316:3379   */\n      swap3\n      pop\n        /* \"#utility.yul\":3272:3389   */\n      pop\n        /* \"#utility.yul\":3428:3430   */\n      0x20\n        /* \"#utility.yul\":3454:3507   */\n      tag_365\n        /* \"#utility.yul\":3499:3506   */\n      dup6\n        /* \"#utility.yul\":3490:3496   */\n      dup3\n        /* \"#utility.yul\":3479:3488   */\n      dup7\n        /* \"#utility.yul\":3475:3497   */\n      add\n        /* \"#utility.yul\":3454:3507   */\n      tag_275\n      jump\t// in\n    tag_365:\n        /* \"#utility.yul\":3444:3507   */\n      swap2\n      pop\n        /* \"#utility.yul\":3399:3517   */\n      pop\n        /* \"#utility.yul\":3050:3524   */\n      swap3\n      pop\n      swap3\n      swap1\n      pop\n      jump\t// out\n        /* \"#utility.yul\":3530:3639   */\n    tag_280:\n        /* \"#utility.yul\":3611:3632   */\n      tag_367\n        /* \"#utility.yul\":3626:3631   */\n      dup2\n        /* \"#utility.yul\":3611:3632   */\n      tag_276\n      jump\t// in\n    tag_367:\n        /* \"#utility.yul\":3606:3609   */\n      dup3\n        /* \"#utility.yul\":3599:3633   */\n      mstore\n        /* \"#utility.yul\":3530:3639   */\n      pop\n      pop\n      jump\t// out\n        /* \"#utility.yul\":3645:3855   */\n    tag_51:\n        /* \"#utility.yul\":3732:3736   */\n      0x00\n        /* \"#utility.yul\":3770:3772   */\n      0x20\n        /* \"#utility.yul\":3759:3768   */\n      dup3\n        /* \"#utility.yul\":3755:3773   */\n      add\n        /* \"#utility.yul\":3747:3773   */\n      swap1\n      pop\n        /* \"#utility.yul\":3783:3848   */\n      tag_369\n        /* \"#utility.yul\":3845:3846   */\n      0x00\n        /* \"#utility.yul\":3834:3843   */\n      dup4\n        /* \"#utility.yul\":3830:3847   */\n      add\n        /* \"#utility.yul\":3821:3827   */\n      dup5\n        /* \"#utility.yul\":3783:3848   */\n      tag_280\n      jump\t// in\n    tag_369:\n        /* \"#utility.yul\":3645:3855   */\n      swap3\n      swap2\n      pop\n      pop\n      jump\t// out\n        /* \"#utility.yul\":3861:4335   */\n    tag_55:\n        /* \"#utility.yul\":3929:3935   */\n      0x00\n        /* \"#utility.yul\":3937:3943   */\n      dup1\n        /* \"#utility.yul\":3986:3988   */\n      0x40\n        /* \"#utility.yul\":3974:3983   */\n      dup4\n        /* \"#utility.yul\":3965:3972   */\n      dup6\n        /* \"#utility.yul\":3961:3984   */\n      sub\n        /* \"#utility.yul\":3957:3989   */\n      slt\n        /* \"#utility.yul\":3954:4073   */\n      iszero\n      tag_371\n      jumpi\n        /* \"#utility.yul\":3992:4071   */\n      tag_372\n      tag_267\n      jump\t// in\n    tag_372:\n        /* \"#utility.yul\":3954:4073   */\n    tag_371:\n        /* \"#utility.yul\":4112:4113   */\n      0x00\n        /* \"#utility.yul\":4137:4190   */\n      tag_373\n        /* \"#utility.yul\":4182:4189   */\n      dup6\n        /* \"#utility.yul\":4173:4179   */\n      dup3\n        /* \"#utility.yul\":4162:4171   */\n      dup7\n        /* \"#utility.yul\":4158:4180   */\n      add\n        /* \"#utility.yul\":4137:4190   */\n      tag_272\n      jump\t// in\n    tag_373:\n        /* \"#utility.yul\":4127:4190   */\n      swap3\n      pop\n        /* \"#utility.yul\":4083:4200   */\n      pop\n        /* \"#utility.yul\":4239:4241   */\n      0x20\n        /* \"#utility.yul\":4265:4318   */\n      tag_374\n        /* \"#utility.yul\":4310:4317   */\n      dup6\n        /* \"#utility.yul\":4301:4307   */\n      dup3\n        /* \"#utility.yul\":4290:4299   */\n      dup7\n        /* \"#utility.yul\":4286:4308   */\n      add\n        /* \"#utility.yul\":4265:4318   */\n      tag_275\n      jump\t// in\n    tag_374:\n        /* \"#utility.yul\":4255:4318   */\n      swap2\n      pop\n        /* \"#utility.yul\":4210:4328   */\n      pop\n        /* \"#utility.yul\":3861:4335   */\n      swap3\n      pop\n      swap3\n      swap1\n      pop\n      jump\t// out\n        /* \"#utility.yul\":4341:4870   */\n    tag_58:\n        /* \"#utility.yul\":4506:4510   */\n      0x00\n        /* \"#utility.yul\":4544:4547   */\n      0x80\n        /* \"#utility.yul\":4533:4542   */\n      dup3\n        /* \"#utility.yul\":4529:4548   */\n      add\n        /* \"#utility.yul\":4521:4548   */\n      swap1\n      pop\n        /* \"#utility.yul\":4558:4629   */\n      tag_376\n        /* \"#utility.yul\":4626:4627   */\n      0x00\n        /* \"#utility.yul\":4615:4624   */\n      dup4\n        /* \"#utility.yul\":4611:4628   */\n      add\n        /* \"#utility.yul\":4602:4608   */\n      dup8\n        /* \"#utility.yul\":4558:4629   */\n      tag_279\n      jump\t// in\n    tag_376:\n        /* \"#utility.yul\":4639:4705   */\n      tag_377\n        /* \"#utility.yul\":4701:4703   */\n      0x20\n        /* \"#utility.yul\":4690:4699   */\n      dup4\n        /* \"#utility.yul\":4686:4704   */\n      add\n        /* \"#utility.yul\":4677:4683   */\n      dup7\n        /* \"#utility.yul\":4639:4705   */\n      tag_280\n      jump\t// in\n    tag_377:\n        /* \"#utility.yul\":4715:4781   */\n      tag_378\n        /* \"#utility.yul\":4777:4779   */\n      0x40\n        /* \"#utility.yul\":4766:4775   */\n      dup4\n        /* \"#utility.yul\":4762:4780   */\n      add\n        /* \"#utility.yul\":4753:4759   */\n      dup6\n        /* \"#utility.yul\":4715:4781   */\n      tag_280\n      jump\t// in\n    tag_378:\n        /* \"#utility.yul\":4791:4863   */\n      tag_379\n        /* \"#utility.yul\":4859:4861   */\n      0x60\n        /* \"#utility.yul\":4848:4857   */\n      dup4\n        /* \"#utility.yul\":4844:4862   */\n      add\n        /* \"#utility.yul\":4835:4841   */\n      dup5\n        /* \"#utility.yul\":4791:4863   */\n      tag_279\n      jump\t// in\n    tag_379:\n        /* \"#utility.yul\":4341:4870   */\n      swap6\n      swap5\n      pop\n      pop\n      pop\n      pop\n      pop\n      jump\t// out\n        /* \"#utility.yul\":4876:4975   */\n    tag_281:\n        /* \"#utility.yul\":4928:4934   */\n      0x00\n        /* \"#utility.yul\":4962:4967   */\n      dup2\n        /* \"#utility.yul\":4956:4968   */\n      mload\n        /* \"#utility.yul\":4946:4968   */\n      swap1\n      pop\n        /* \"#utility.yul\":4876:4975   */\n      swap2\n      swap1\n      pop\n      jump\t// out\n        /* \"#utility.yul\":4981:5150   */\n    tag_282:\n        /* \"#utility.yul\":5065:5076   */\n      0x00\n        /* \"#utility.yul\":5099:5105   */\n      dup3\n        /* \"#utility.yul\":5094:5097   */\n      dup3\n        /* \"#utility.yul\":5087:5106   */\n      mstore\n        /* \"#utility.yul\":5139:5143   */\n      0x20\n        /* \"#utility.yul\":5134:5137   */\n      dup3\n        /* \"#utility.yul\":5130:5144   */\n      add\n        /* \"#utility.yul\":5115:5144   */\n      swap1\n      pop\n        /* \"#utility.yul\":4981:5150   */\n      swap3\n      swap2\n      pop\n      pop\n      jump\t// out\n        /* \"#utility.yul\":5156:5402   */\n    tag_283:\n        /* \"#utility.yul\":5237:5238   */\n      0x00\n        /* \"#utility.yul\":5247:5360   */\n    tag_383:\n        /* \"#utility.yul\":5261:5267   */\n      dup4\n        /* \"#utility.yul\":5258:5259   */\n      dup2\n        /* \"#utility.yul\":5255:5268   */\n      lt\n        /* \"#utility.yul\":5247:5360   */\n      iszero\n      tag_385\n      jumpi\n        /* \"#utility.yul\":5346:5347   */\n      dup1\n        /* \"#utility.yul\":5341:5344   */\n      dup3\n        /* \"#utility.yul\":5337:5348   */\n      add\n        /* \"#utility.yul\":5331:5349   */\n      mload\n        /* \"#utility.yul\":5327:5328   */\n      dup2\n        /* \"#utility.yul\":5322:5325   */\n      dup5\n        /* \"#utility.yul\":5318:5329   */\n      add\n        /* \"#utility.yul\":5311:5350   */\n      mstore\n        /* \"#utility.yul\":5283:5285   */\n      0x20\n        /* \"#utility.yul\":5280:5281   */\n      dup2\n        /* \"#utility.yul\":5276:5286   */\n      add\n        /* \"#utility.yul\":5271:5286   */\n      swap1\n      pop\n        /* \"#utility.yul\":5247:5360   */\n      jump(tag_383)\n    tag_385:\n        /* \"#utility.yul\":5394:5395   */\n      0x00\n        /* \"#utility.yul\":5385:5391   */\n      dup5\n        /* \"#utility.yul\":5380:5383   */\n      dup5\n        /* \"#utility.yul\":5376:5392   */\n      add\n        /* \"#utility.yul\":5369:5396   */\n      mstore\n        /* \"#utility.yul\":5218:5402   */\n      pop\n        /* \"#utility.yul\":5156:5402   */\n      pop\n      pop\n      pop\n      jump\t// out\n        /* \"#utility.yul\":5408:5510   */\n    tag_284:\n        /* \"#utility.yul\":5449:5455   */\n      0x00\n        /* \"#utility.yul\":5500:5502   */\n      0x1f\n        /* \"#utility.yul\":5496:5503   */\n      not\n        /* \"#utility.yul\":5491:5493   */\n      0x1f\n        /* \"#utility.yul\":5484:5489   */\n      dup4\n        /* \"#utility.yul\":5480:5494   */\n      add\n        /* \"#utility.yul\":5476:5504   */\n      and\n        /* \"#utility.yul\":5466:5504   */\n      swap1\n      pop\n        /* \"#utility.yul\":5408:5510   */\n      swap2\n      swap1\n      pop\n      jump\t// out\n        /* \"#utility.yul\":5516:5893   */\n    tag_285:\n        /* \"#utility.yul\":5604:5607   */\n      0x00\n        /* \"#utility.yul\":5632:5671   */\n      tag_388\n        /* \"#utility.yul\":5665:5670   */\n      dup3\n        /* \"#utility.yul\":5632:5671   */\n      tag_281\n      jump\t// in\n    tag_388:\n        /* \"#utility.yul\":5687:5758   */\n      tag_389\n        /* \"#utility.yul\":5751:5757   */\n      dup2\n        /* \"#utility.yul\":5746:5749   */\n      dup6\n        /* \"#utility.yul\":5687:5758   */\n      tag_282\n      jump\t// in\n    tag_389:\n        /* \"#utility.yul\":5680:5758   */\n      swap4\n      pop\n        /* \"#utility.yul\":5767:5832   */\n      tag_390\n        /* \"#utility.yul\":5825:5831   */\n      dup2\n        /* \"#utility.yul\":5820:5823   */\n      dup6\n        /* \"#utility.yul\":5813:5817   */\n      0x20\n        /* \"#utility.yul\":5806:5811   */\n      dup7\n        /* \"#utility.yul\":5802:5818   */\n      add\n        /* \"#utility.yul\":5767:5832   */\n      tag_283\n      jump\t// in\n    tag_390:\n        /* \"#utility.yul\":5857:5886   */\n      tag_391\n        /* \"#utility.yul\":5879:5885   */\n      dup2\n        /* \"#utility.yul\":5857:5886   */\n      tag_284\n      jump\t// in\n    tag_391:\n        /* \"#utility.yul\":5852:5855   */\n      dup5\n        /* \"#utility.yul\":5848:5887   */\n      add\n        /* \"#utility.yul\":5841:5887   */\n      swap2\n      pop\n        /* \"#utility.yul\":5608:5893   */\n      pop\n        /* \"#utility.yul\":5516:5893   */\n      swap3\n      swap2\n      pop\n      pop\n      jump\t// out\n        /* \"#utility.yul\":5899:6017   */\n    tag_286:\n        /* \"#utility.yul\":5986:6010   */\n      tag_393\n        /* \"#utility.yul\":6004:6009   */\n      dup2\n        /* \"#utility.yul\":5986:6010   */\n      tag_270\n      jump\t// in\n    tag_393:\n        /* \"#utility.yul\":5981:5984   */\n      dup3\n        /* \"#utility.yul\":5974:6011   */\n      mstore\n        /* \"#utility.yul\":5899:6017   */\n      pop\n      pop\n      jump\t// out\n        /* \"#utility.yul\":6023:7380   */\n    tag_68:\n        /* \"#utility.yul\":6388:6392   */\n      0x00\n        /* \"#utility.yul\":6426:6429   */\n      0x0120\n        /* \"#utility.yul\":6415:6424   */\n      dup3\n        /* \"#utility.yul\":6411:6430   */\n      add\n        /* \"#utility.yul\":6403:6430   */\n      swap1\n      pop\n        /* \"#utility.yul\":6440:6511   */\n      tag_395\n        /* \"#utility.yul\":6508:6509   */\n      0x00\n        /* \"#utility.yul\":6497:6506   */\n      dup4\n        /* \"#utility.yul\":6493:6510   */\n      add\n        /* \"#utility.yul\":6484:6490   */\n      dup13\n        /* \"#utility.yul\":6440:6511   */\n      tag_279\n      jump\t// in\n    tag_395:\n        /* \"#utility.yul\":6558:6567   */\n      dup2\n        /* \"#utility.yul\":6552:6556   */\n      dup2\n        /* \"#utility.yul\":6548:6568   */\n      sub\n        /* \"#utility.yul\":6543:6545   */\n      0x20\n        /* \"#utility.yul\":6532:6541   */\n      dup4\n        /* \"#utility.yul\":6528:6546   */\n      add\n        /* \"#utility.yul\":6521:6569   */\n      mstore\n        /* \"#utility.yul\":6586:6664   */\n      tag_396\n        /* \"#utility.yul\":6659:6663   */\n      dup2\n        /* \"#utility.yul\":6650:6656   */\n      dup12\n        /* \"#utility.yul\":6586:6664   */\n      tag_285\n      jump\t// in\n    tag_396:\n        /* \"#utility.yul\":6578:6664   */\n      swap1\n      pop\n        /* \"#utility.yul\":6674:6746   */\n      tag_397\n        /* \"#utility.yul\":6742:6744   */\n      0x40\n        /* \"#utility.yul\":6731:6740   */\n      dup4\n        /* \"#utility.yul\":6727:6745   */\n      add\n        /* \"#utility.yul\":6718:6724   */\n      dup11\n        /* \"#utility.yul\":6674:6746   */\n      tag_286\n      jump\t// in\n    tag_397:\n        /* \"#utility.yul\":6793:6802   */\n      dup2\n        /* \"#utility.yul\":6787:6791   */\n      dup2\n        /* \"#utility.yul\":6783:6803   */\n      sub\n        /* \"#utility.yul\":6778:6780   */\n      0x60\n        /* \"#utility.yul\":6767:6776   */\n      dup4\n        /* \"#utility.yul\":6763:6781   */\n      add\n        /* \"#utility.yul\":6756:6804   */\n      mstore\n        /* \"#utility.yul\":6821:6899   */\n      tag_398\n        /* \"#utility.yul\":6894:6898   */\n      dup2\n        /* \"#utility.yul\":6885:6891   */\n      dup10\n        /* \"#utility.yul\":6821:6899   */\n      tag_285\n      jump\t// in\n    tag_398:\n        /* \"#utility.yul\":6813:6899   */\n      swap1\n      pop\n        /* \"#utility.yul\":6909:6982   */\n      tag_399\n        /* \"#utility.yul\":6977:6980   */\n      0x80\n        /* \"#utility.yul\":6966:6975   */\n      dup4\n        /* \"#utility.yul\":6962:6981   */\n      add\n        /* \"#utility.yul\":6953:6959   */\n      dup9\n        /* \"#utility.yul\":6909:6982   */\n      tag_286\n      jump\t// in\n    tag_399:\n        /* \"#utility.yul\":7030:7039   */\n      dup2\n        /* \"#utility.yul\":7024:7028   */\n      dup2\n        /* \"#utility.yul\":7020:7040   */\n      sub\n        /* \"#utility.yul\":7014:7017   */\n      0xa0\n        /* \"#utility.yul\":7003:7012   */\n      dup4\n        /* \"#utility.yul\":6999:7018   */\n      add\n        /* \"#utility.yul\":6992:7041   */\n      mstore\n        /* \"#utility.yul\":7058:7136   */\n      tag_400\n        /* \"#utility.yul\":7131:7135   */\n      dup2\n        /* \"#utility.yul\":7122:7128   */\n      dup8\n        /* \"#utility.yul\":7058:7136   */\n      tag_285\n      jump\t// in\n    tag_400:\n        /* \"#utility.yul\":7050:7136   */\n      swap1\n      pop\n        /* \"#utility.yul\":7146:7219   */\n      tag_401\n        /* \"#utility.yul\":7214:7217   */\n      0xc0\n        /* \"#utility.yul\":7203:7212   */\n      dup4\n        /* \"#utility.yul\":7199:7218   */\n      add\n        /* \"#utility.yul\":7190:7196   */\n      dup7\n        /* \"#utility.yul\":7146:7219   */\n      tag_279\n      jump\t// in\n    tag_401:\n        /* \"#utility.yul\":7229:7296   */\n      tag_402\n        /* \"#utility.yul\":7291:7294   */\n      0xe0\n        /* \"#utility.yul\":7280:7289   */\n      dup4\n        /* \"#utility.yul\":7276:7295   */\n      add\n        /* \"#utility.yul\":7267:7273   */\n      dup6\n        /* \"#utility.yul\":7229:7296   */\n      tag_280\n      jump\t// in\n    tag_402:\n        /* \"#utility.yul\":7306:7373   */\n      tag_403\n        /* \"#utility.yul\":7368:7371   */\n      0x0100\n        /* \"#utility.yul\":7357:7366   */\n      dup4\n        /* \"#utility.yul\":7353:7372   */\n      add\n        /* \"#utility.yul\":7344:7350   */\n      dup5\n        /* \"#utility.yul\":7306:7373   */\n      tag_280\n      jump\t// in\n    tag_403:\n        /* \"#utility.yul\":6023:7380   */\n      swap11\n      swap10\n      pop\n      pop\n      pop\n      pop\n      pop\n      pop\n      pop\n      pop\n      pop\n      pop\n      jump\t// out\n        /* \"#utility.yul\":7386:7718   */\n    tag_74:\n        /* \"#utility.yul\":7507:7511   */\n      0x00\n        /* \"#utility.yul\":7545:7547   */\n      0x40\n        /* \"#utility.yul\":7534:7543   */\n      dup3\n        /* \"#utility.yul\":7530:7548   */\n      add\n        /* \"#utility.yul\":7522:7548   */\n      swap1\n      pop\n        /* \"#utility.yul\":7558:7629   */\n      tag_405\n        /* \"#utility.yul\":7626:7627   */\n      0x00\n        /* \"#utility.yul\":7615:7624   */\n      dup4\n        /* \"#utility.yul\":7611:7628   */\n      add\n        /* \"#utility.yul\":7602:7608   */\n      dup6\n        /* \"#utility.yul\":7558:7629   */\n      tag_279\n      jump\t// in\n    tag_405:\n        /* \"#utility.yul\":7639:7711   */\n      tag_406\n        /* \"#utility.yul\":7707:7709   */\n      0x20\n        /* \"#utility.yul\":7696:7705   */\n      dup4\n        /* \"#utility.yul\":7692:7710   */\n      add\n        /* \"#utility.yul\":7683:7689   */\n      dup5\n        /* \"#utility.yul\":7639:7711   */\n      tag_279\n      jump\t// in\n    tag_406:\n        /* \"#utility.yul\":7386:7718   */\n      swap4\n      swap3\n      pop\n      pop\n      pop\n      jump\t// out\n        /* \"#utility.yul\":7724:8154   */\n    tag_84:\n        /* \"#utility.yul\":7867:7871   */\n      0x00\n        /* \"#utility.yul\":7905:7907   */\n      0x60\n        /* \"#utility.yul\":7894:7903   */\n      dup3\n        /* \"#utility.yul\":7890:7908   */\n      add\n        /* \"#utility.yul\":7882:7908   */\n      swap1\n      pop\n        /* \"#utility.yul\":7918:7983   */\n      tag_408\n        /* \"#utility.yul\":7980:7981   */\n      0x00\n        /* \"#utility.yul\":7969:7978   */\n      dup4\n        /* \"#utility.yul\":7965:7982   */\n      add\n        /* \"#utility.yul\":7956:7962   */\n      dup7\n        /* \"#utility.yul\":7918:7983   */\n      tag_280\n      jump\t// in\n    tag_408:\n        /* \"#utility.yul\":7993:8065   */\n      tag_409\n        /* \"#utility.yul\":8061:8063   */\n      0x20\n        /* \"#utility.yul\":8050:8059   */\n      dup4\n        /* \"#utility.yul\":8046:8064   */\n      add\n        /* \"#utility.yul\":8037:8043   */\n      dup6\n        /* \"#utility.yul\":7993:8065   */\n      tag_279\n      jump\t// in\n    tag_409:\n        /* \"#utility.yul\":8075:8147   */\n      tag_410\n        /* \"#utility.yul\":8143:8145   */\n      0x40\n        /* \"#utility.yul\":8132:8141   */\n      dup4\n        /* \"#utility.yul\":8128:8146   */\n      add\n        /* \"#utility.yul\":8119:8125   */\n      dup5\n        /* \"#utility.yul\":8075:8147   */\n      tag_279\n      jump\t// in\n    tag_410:\n        /* \"#utility.yul\":7724:8154   */\n      swap5\n      swap4\n      pop\n      pop\n      pop\n      pop\n      jump\t// out\n        /* \"#utility.yul\":8160:8277   */\n    tag_287:\n        /* \"#utility.yul\":8269:8270   */\n      0x00\n        /* \"#utility.yul\":8266:8267   */\n      dup1\n        /* \"#utility.yul\":8259:8271   */\n      revert\n        /* \"#utility.yul\":8283:8400   */\n    tag_288:\n        /* \"#utility.yul\":8392:8393   */\n      0x00\n        /* \"#utility.yul\":8389:8390   */\n      dup1\n        /* \"#utility.yul\":8382:8394   */\n      revert\n        /* \"#utility.yul\":8406:8586   */\n    tag_289:\n        /* \"#utility.yul\":8454:8531   */\n      0x4e487b7100000000000000000000000000000000000000000000000000000000\n        /* \"#utility.yul\":8451:8452   */\n      0x00\n        /* \"#utility.yul\":8444:8532   */\n      mstore\n        /* \"#utility.yul\":8551:8555   */\n      0x41\n        /* \"#utility.yul\":8548:8549   */\n      0x04\n        /* \"#utility.yul\":8541:8556   */\n      mstore\n        /* \"#utility.yul\":8575:8579   */\n      0x24\n        /* \"#utility.yul\":8572:8573   */\n      0x00\n        /* \"#utility.yul\":8565:8580   */\n      revert\n        /* \"#utility.yul\":8592:8873   */\n    tag_290:\n        /* \"#utility.yul\":8675:8702   */\n      tag_415\n        /* \"#utility.yul\":8697:8701   */\n      dup3\n        /* \"#utility.yul\":8675:8702   */\n      tag_284\n      jump\t// in\n    tag_415:\n        /* \"#utility.yul\":8667:8673   */\n      dup2\n        /* \"#utility.yul\":8663:8703   */\n      add\n        /* \"#utility.yul\":8805:8811   */\n      dup2\n        /* \"#utility.yul\":8793:8803   */\n      dup2\n        /* \"#utility.yul\":8790:8812   */\n      lt\n        /* \"#utility.yul\":8769:8787   */\n      0xffffffffffffffff\n        /* \"#utility.yul\":8757:8767   */\n      dup3\n        /* \"#utility.yul\":8754:8788   */\n      gt\n        /* \"#utility.yul\":8751:8813   */\n      or\n        /* \"#utility.yul\":8748:8836   */\n      iszero\n      tag_416\n      jumpi\n        /* \"#utility.yul\":8816:8834   */\n      tag_417\n      tag_289\n      jump\t// in\n    tag_417:\n        /* \"#utility.yul\":8748:8836   */\n    tag_416:\n        /* \"#utility.yul\":8856:8866   */\n      dup1\n        /* \"#utility.yul\":8852:8854   */\n      0x40\n        /* \"#utility.yul\":8845:8867   */\n      mstore\n        /* \"#utility.yul\":8635:8873   */\n      pop\n        /* \"#utility.yul\":8592:8873   */\n      pop\n      pop\n      jump\t// out\n        /* \"#utility.yul\":8879:9008   */\n    tag_291:\n        /* \"#utility.yul\":8913:8919   */\n      0x00\n        /* \"#utility.yul\":8940:8960   */\n      tag_419\n      tag_266\n      jump\t// in\n    tag_419:\n        /* \"#utility.yul\":8930:8960   */\n      swap1\n      pop\n        /* \"#utility.yul\":8969:9002   */\n      tag_420\n        /* \"#utility.yul\":8997:9001   */\n      dup3\n        /* \"#utility.yul\":8989:8995   */\n      dup3\n        /* \"#utility.yul\":8969:9002   */\n      tag_290\n      jump\t// in\n    tag_420:\n        /* \"#utility.yul\":8879:9008   */\n      swap2\n      swap1\n      pop\n      jump\t// out\n        /* \"#utility.yul\":9014:9322   */\n    tag_292:\n        /* \"#utility.yul\":9076:9080   */\n      0x00\n        /* \"#utility.yul\":9166:9184   */\n      0xffffffffffffffff\n        /* \"#utility.yul\":9158:9164   */\n      dup3\n        /* \"#utility.yul\":9155:9185   */\n      gt\n        /* \"#utility.yul\":9152:9208   */\n      iszero\n      tag_422\n      jumpi\n        /* \"#utility.yul\":9188:9206   */\n      tag_423\n      tag_289\n      jump\t// in\n    tag_423:\n        /* \"#utility.yul\":9152:9208   */\n    tag_422:\n        /* \"#utility.yul\":9226:9255   */\n      tag_424\n        /* \"#utility.yul\":9248:9254   */\n      dup3\n        /* \"#utility.yul\":9226:9255   */\n      tag_284\n      jump\t// in\n    tag_424:\n        /* \"#utility.yul\":9218:9255   */\n      swap1\n      pop\n        /* \"#utility.yul\":9310:9314   */\n      0x20\n        /* \"#utility.yul\":9304:9308   */\n      dup2\n        /* \"#utility.yul\":9300:9315   */\n      add\n        /* \"#utility.yul\":9292:9315   */\n      swap1\n      pop\n        /* \"#utility.yul\":9014:9322   */\n      swap2\n      swap1\n      pop\n      jump\t// out\n        /* \"#utility.yul\":9328:9474   */\n    tag_293:\n        /* \"#utility.yul\":9425:9431   */\n      dup3\n        /* \"#utility.yul\":9420:9423   */\n      dup2\n        /* \"#utility.yul\":9415:9418   */\n      dup4\n        /* \"#utility.yul\":9402:9432   */\n      calldatacopy\n        /* \"#utility.yul\":9466:9467   */\n      0x00\n        /* \"#utility.yul\":9457:9463   */\n      dup4\n        /* \"#utility.yul\":9452:9455   */\n      dup4\n        /* \"#utility.yul\":9448:9464   */\n      add\n        /* \"#utility.yul\":9441:9468   */\n      mstore\n        /* \"#utility.yul\":9328:9474   */\n      pop\n      pop\n      pop\n      jump\t// out\n        /* \"#utility.yul\":9480:9905   */\n    tag_294:\n        /* \"#utility.yul\":9558:9563   */\n      0x00\n        /* \"#utility.yul\":9583:9649   */\n      tag_427\n        /* \"#utility.yul\":9599:9648   */\n      tag_428\n        /* \"#utility.yul\":9641:9647   */\n      dup5\n        /* \"#utility.yul\":9599:9648   */\n      tag_292\n      jump\t// in\n    tag_428:\n        /* \"#utility.yul\":9583:9649   */\n      tag_291\n      jump\t// in\n    tag_427:\n        /* \"#utility.yul\":9574:9649   */\n      swap1\n      pop\n        /* \"#utility.yul\":9672:9678   */\n      dup3\n        /* \"#utility.yul\":9665:9670   */\n      dup2\n        /* \"#utility.yul\":9658:9679   */\n      mstore\n        /* \"#utility.yul\":9710:9714   */\n      0x20\n        /* \"#utility.yul\":9703:9708   */\n      dup2\n        /* \"#utility.yul\":9699:9715   */\n      add\n        /* \"#utility.yul\":9748:9751   */\n      dup5\n        /* \"#utility.yul\":9739:9745   */\n      dup5\n        /* \"#utility.yul\":9734:9737   */\n      dup5\n        /* \"#utility.yul\":9730:9746   */\n      add\n        /* \"#utility.yul\":9727:9752   */\n      gt\n        /* \"#utility.yul\":9724:9836   */\n      iszero\n      tag_429\n      jumpi\n        /* \"#utility.yul\":9755:9834   */\n      tag_430\n      tag_288\n      jump\t// in\n    tag_430:\n        /* \"#utility.yul\":9724:9836   */\n    tag_429:\n        /* \"#utility.yul\":9845:9899   */\n      tag_431\n        /* \"#utility.yul\":9892:9898   */\n      dup5\n        /* \"#utility.yul\":9887:9890   */\n      dup3\n        /* \"#utility.yul\":9882:9885   */\n      dup6\n        /* \"#utility.yul\":9845:9899   */\n      tag_293\n      jump\t// in\n    tag_431:\n        /* \"#utility.yul\":9564:9905   */\n      pop\n        /* \"#utility.yul\":9480:9905   */\n      swap4\n      swap3\n      pop\n      pop\n      pop\n      jump\t// out\n        /* \"#utility.yul\":9925:10265   */\n    tag_295:\n        /* \"#utility.yul\":9981:9986   */\n      0x00\n        /* \"#utility.yul\":10030:10033   */\n      dup3\n        /* \"#utility.yul\":10023:10027   */\n      0x1f\n        /* \"#utility.yul\":10015:10021   */\n      dup4\n        /* \"#utility.yul\":10011:10028   */\n      add\n        /* \"#utility.yul\":10007:10034   */\n      slt\n        /* \"#utility.yul\":9997:10119   */\n      tag_433\n      jumpi\n        /* \"#utility.yul\":10038:10117   */\n      tag_434\n      tag_287\n      jump\t// in\n    tag_434:\n        /* \"#utility.yul\":9997:10119   */\n    tag_433:\n        /* \"#utility.yul\":10155:10161   */\n      dup2\n        /* \"#utility.yul\":10142:10162   */\n      calldataload\n        /* \"#utility.yul\":10180:10259   */\n      tag_435\n        /* \"#utility.yul\":10255:10258   */\n      dup5\n        /* \"#utility.yul\":10247:10253   */\n      dup3\n        /* \"#utility.yul\":10240:10244   */\n      0x20\n        /* \"#utility.yul\":10232:10238   */\n      dup7\n        /* \"#utility.yul\":10228:10245   */\n      add\n        /* \"#utility.yul\":10180:10259   */\n      tag_294\n      jump\t// in\n    tag_435:\n        /* \"#utility.yul\":10171:10259   */\n      swap2\n      pop\n        /* \"#utility.yul\":9987:10265   */\n      pop\n        /* \"#utility.yul\":9925:10265   */\n      swap3\n      swap2\n      pop\n      pop\n      jump\t// out\n        /* \"#utility.yul\":10271:11576   */\n    tag_100:\n        /* \"#utility.yul\":10387:10393   */\n      0x00\n        /* \"#utility.yul\":10395:10401   */\n      dup1\n        /* \"#utility.yul\":10403:10409   */\n      0x00\n        /* \"#utility.yul\":10411:10417   */\n      dup1\n        /* \"#utility.yul\":10460:10463   */\n      0x80\n        /* \"#utility.yul\":10448:10457   */\n      dup6\n        /* \"#utility.yul\":10439:10446   */\n      dup8\n        /* \"#utility.yul\":10435:10458   */\n      sub\n        /* \"#utility.yul\":10431:10464   */\n      slt\n        /* \"#utility.yul\":10428:10548   */\n      iszero\n      tag_437\n      jumpi\n        /* \"#utility.yul\":10467:10546   */\n      tag_438\n      tag_267\n      jump\t// in\n    tag_438:\n        /* \"#utility.yul\":10428:10548   */\n    tag_437:\n        /* \"#utility.yul\":10615:10616   */\n      0x00\n        /* \"#utility.yul\":10604:10613   */\n      dup6\n        /* \"#utility.yul\":10600:10617   */\n      add\n        /* \"#utility.yul\":10587:10618   */\n      calldataload\n        /* \"#utility.yul\":10645:10663   */\n      0xffffffffffffffff\n        /* \"#utility.yul\":10637:10643   */\n      dup2\n        /* \"#utility.yul\":10634:10664   */\n      gt\n        /* \"#utility.yul\":10631:10748   */\n      iszero\n      tag_439\n      jumpi\n        /* \"#utility.yul\":10667:10746   */\n      tag_440\n      tag_268\n      jump\t// in\n    tag_440:\n        /* \"#utility.yul\":10631:10748   */\n    tag_439:\n        /* \"#utility.yul\":10772:10835   */\n      tag_441\n        /* \"#utility.yul\":10827:10834   */\n      dup8\n        /* \"#utility.yul\":10818:10824   */\n      dup3\n        /* \"#utility.yul\":10807:10816   */\n      dup9\n        /* \"#utility.yul\":10803:10825   */\n      add\n        /* \"#utility.yul\":10772:10835   */\n      tag_295\n      jump\t// in\n    tag_441:\n        /* \"#utility.yul\":10762:10835   */\n      swap5\n      pop\n        /* \"#utility.yul\":10558:10845   */\n      pop\n        /* \"#utility.yul\":10912:10914   */\n      0x20\n        /* \"#utility.yul\":10901:10910   */\n      dup6\n        /* \"#utility.yul\":10897:10915   */\n      add\n        /* \"#utility.yul\":10884:10916   */\n      calldataload\n        /* \"#utility.yul\":10943:10961   */\n      0xffffffffffffffff\n        /* \"#utility.yul\":10935:10941   */\n      dup2\n        /* \"#utility.yul\":10932:10962   */\n      gt\n        /* \"#utility.yul\":10929:11046   */\n      iszero\n      tag_442\n      jumpi\n        /* \"#utility.yul\":10965:11044   */\n      tag_443\n      tag_268\n      jump\t// in\n    tag_443:\n        /* \"#utility.yul\":10929:11046   */\n    tag_442:\n        /* \"#utility.yul\":11070:11133   */\n      tag_444\n        /* \"#utility.yul\":11125:11132   */\n      dup8\n        /* \"#utility.yul\":11116:11122   */\n      dup3\n        /* \"#utility.yul\":11105:11114   */\n      dup9\n        /* \"#utility.yul\":11101:11123   */\n      add\n        /* \"#utility.yul\":11070:11133   */\n      tag_295\n      jump\t// in\n    tag_444:\n        /* \"#utility.yul\":11060:11133   */\n      swap4\n      pop\n        /* \"#utility.yul\":10855:11143   */\n      pop\n        /* \"#utility.yul\":11182:11184   */\n      0x40\n        /* \"#utility.yul\":11208:11261   */\n      tag_445\n        /* \"#utility.yul\":11253:11260   */\n      dup8\n        /* \"#utility.yul\":11244:11250   */\n      dup3\n        /* \"#utility.yul\":11233:11242   */\n      dup9\n        /* \"#utility.yul\":11229:11251   */\n      add\n        /* \"#utility.yul\":11208:11261   */\n      tag_272\n      jump\t// in\n    tag_445:\n        /* \"#utility.yul\":11198:11261   */\n      swap3\n      pop\n        /* \"#utility.yul\":11153:11271   */\n      pop\n        /* \"#utility.yul\":11338:11340   */\n      0x60\n        /* \"#utility.yul\":11327:11336   */\n      dup6\n        /* \"#utility.yul\":11323:11341   */\n      add\n        /* \"#utility.yul\":11310:11342   */\n      calldataload\n        /* \"#utility.yul\":11369:11387   */\n      0xffffffffffffffff\n        /* \"#utility.yul\":11361:11367   */\n      dup2\n        /* \"#utility.yul\":11358:11388   */\n      gt\n        /* \"#utility.yul\":11355:11472   */\n      iszero\n      tag_446\n      jumpi\n        /* \"#utility.yul\":11391:11470   */\n      tag_447\n      tag_268\n      jump\t// in\n    tag_447:\n        /* \"#utility.yul\":11355:11472   */\n    tag_446:\n        /* \"#utility.yul\":11496:11559   */\n      tag_448\n        /* \"#utility.yul\":11551:11558   */\n      dup8\n        /* \"#utility.yul\":11542:11548   */\n      dup3\n        /* \"#utility.yul\":11531:11540   */\n      dup9\n        /* \"#utility.yul\":11527:11549   */\n      add\n        /* \"#utility.yul\":11496:11559   */\n      tag_295\n      jump\t// in\n    tag_448:\n        /* \"#utility.yul\":11486:11559   */\n      swap2\n      pop\n        /* \"#utility.yul\":11281:11569   */\n      pop\n        /* \"#utility.yul\":10271:11576   */\n      swap3\n      swap6\n      swap2\n      swap5\n      pop\n      swap3\n      pop\n      jump\t// out\n        /* \"#utility.yul\":11582:11804   */\n    tag_109:\n        /* \"#utility.yul\":11675:11679   */\n      0x00\n        /* \"#utility.yul\":11713:11715   */\n      0x20\n        /* \"#utility.yul\":11702:11711   */\n      dup3\n        /* \"#utility.yul\":11698:11716   */\n      add\n        /* \"#utility.yul\":11690:11716   */\n      swap1\n      pop\n        /* \"#utility.yul\":11726:11797   */\n      tag_450\n        /* \"#utility.yul\":11794:11795   */\n      0x00\n        /* \"#utility.yul\":11783:11792   */\n      dup4\n        /* \"#utility.yul\":11779:11796   */\n      add\n        /* \"#utility.yul\":11770:11776   */\n      dup5\n        /* \"#utility.yul\":11726:11797   */\n      tag_286\n      jump\t// in\n    tag_450:\n        /* \"#utility.yul\":11582:11804   */\n      swap3\n      swap2\n      pop\n      pop\n      jump\t// out\n        /* \"#utility.yul\":11810:12319   */\n    tag_117:\n        /* \"#utility.yul\":11879:11885   */\n      0x00\n        /* \"#utility.yul\":11928:11930   */\n      0x20\n        /* \"#utility.yul\":11916:11925   */\n      dup3\n        /* \"#utility.yul\":11907:11914   */\n      dup5\n        /* \"#utility.yul\":11903:11926   */\n      sub\n        /* \"#utility.yul\":11899:11931   */\n      slt\n        /* \"#utility.yul\":11896:12015   */\n      iszero\n      tag_452\n      jumpi\n        /* \"#utility.yul\":11934:12013   */\n      tag_453\n      tag_267\n      jump\t// in\n    tag_453:\n        /* \"#utility.yul\":11896:12015   */\n    tag_452:\n        /* \"#utility.yul\":12082:12083   */\n      0x00\n        /* \"#utility.yul\":12071:12080   */\n      dup3\n        /* \"#utility.yul\":12067:12084   */\n      add\n        /* \"#utility.yul\":12054:12085   */\n      calldataload\n        /* \"#utility.yul\":12112:12130   */\n      0xffffffffffffffff\n        /* \"#utility.yul\":12104:12110   */\n      dup2\n        /* \"#utility.yul\":12101:12131   */\n      gt\n        /* \"#utility.yul\":12098:12215   */\n      iszero\n      tag_454\n      jumpi\n        /* \"#utility.yul\":12134:12213   */\n      tag_455\n      tag_268\n      jump\t// in\n    tag_455:\n        /* \"#utility.yul\":12098:12215   */\n    tag_454:\n        /* \"#utility.yul\":12239:12302   */\n      tag_456\n        /* \"#utility.yul\":12294:12301   */\n      dup5\n        /* \"#utility.yul\":12285:12291   */\n      dup3\n        /* \"#utility.yul\":12274:12283   */\n      dup6\n        /* \"#utility.yul\":12270:12292   */\n      add\n        /* \"#utility.yul\":12239:12302   */\n      tag_295\n      jump\t// in\n    tag_456:\n        /* \"#utility.yul\":12229:12302   */\n      swap2\n      pop\n        /* \"#utility.yul\":12025:12312   */\n      pop\n        /* \"#utility.yul\":11810:12319   */\n      swap3\n      swap2\n      pop\n      pop\n      jump\t// out\n        /* \"#utility.yul\":12325:12736   */\n    tag_124:\n        /* \"#utility.yul\":12460:12464   */\n      0x00\n        /* \"#utility.yul\":12498:12500   */\n      0x40\n        /* \"#utility.yul\":12487:12496   */\n      dup3\n        /* \"#utility.yul\":12483:12501   */\n      add\n        /* \"#utility.yul\":12475:12501   */\n      swap1\n      pop\n        /* \"#utility.yul\":12547:12556   */\n      dup2\n        /* \"#utility.yul\":12541:12545   */\n      dup2\n        /* \"#utility.yul\":12537:12557   */\n      sub\n        /* \"#utility.yul\":12533:12534   */\n      0x00\n        /* \"#utility.yul\":12522:12531   */\n      dup4\n        /* \"#utility.yul\":12518:12535   */\n      add\n        /* \"#utility.yul\":12511:12558   */\n      mstore\n        /* \"#utility.yul\":12575:12653   */\n      tag_458\n        /* \"#utility.yul\":12648:12652   */\n      dup2\n        /* \"#utility.yul\":12639:12645   */\n      dup6\n        /* \"#utility.yul\":12575:12653   */\n      tag_285\n      jump\t// in\n    tag_458:\n        /* \"#utility.yul\":12567:12653   */\n      swap1\n      pop\n        /* \"#utility.yul\":12663:12729   */\n      tag_459\n        /* \"#utility.yul\":12725:12727   */\n      0x20\n        /* \"#utility.yul\":12714:12723   */\n      dup4\n        /* \"#utility.yul\":12710:12728   */\n      add\n        /* \"#utility.yul\":12701:12707   */\n      dup5\n        /* \"#utility.yul\":12663:12729   */\n      tag_280\n      jump\t// in\n    tag_459:\n        /* \"#utility.yul\":12325:12736   */\n      swap4\n      swap3\n      pop\n      pop\n      pop\n      jump\t// out\n        /* \"#utility.yul\":12742:12906   */\n    tag_296:\n        /* \"#utility.yul\":12882:12898   */\n      0x4143434553532044454e49454421000000000000000000000000000000000000\n        /* \"#utility.yul\":12878:12879   */\n      0x00\n        /* \"#utility.yul\":12870:12876   */\n      dup3\n        /* \"#utility.yul\":12866:12880   */\n      add\n        /* \"#utility.yul\":12859:12899   */\n      mstore\n        /* \"#utility.yul\":12742:12906   */\n      pop\n      jump\t// out\n        /* \"#utility.yul\":12912:13278   */\n    tag_297:\n        /* \"#utility.yul\":13054:13057   */\n      0x00\n        /* \"#utility.yul\":13075:13142   */\n      tag_462\n        /* \"#utility.yul\":13139:13141   */\n      0x0e\n        /* \"#utility.yul\":13134:13137   */\n      dup4\n        /* \"#utility.yul\":13075:13142   */\n      tag_282\n      jump\t// in\n    tag_462:\n        /* \"#utility.yul\":13068:13142   */\n      swap2\n      pop\n        /* \"#utility.yul\":13151:13244   */\n      tag_463\n        /* \"#utility.yul\":13240:13243   */\n      dup3\n        /* \"#utility.yul\":13151:13244   */\n      tag_296\n      jump\t// in\n    tag_463:\n        /* \"#utility.yul\":13269:13271   */\n      0x20\n        /* \"#utility.yul\":13264:13267   */\n      dup3\n        /* \"#utility.yul\":13260:13272   */\n      add\n        /* \"#utility.yul\":13253:13272   */\n      swap1\n      pop\n        /* \"#utility.yul\":12912:13278   */\n      swap2\n      swap1\n      pop\n      jump\t// out\n        /* \"#utility.yul\":13284:13703   */\n    tag_128:\n        /* \"#utility.yul\":13450:13454   */\n      0x00\n        /* \"#utility.yul\":13488:13490   */\n      0x20\n        /* \"#utility.yul\":13477:13486   */\n      dup3\n        /* \"#utility.yul\":13473:13491   */\n      add\n        /* \"#utility.yul\":13465:13491   */\n      swap1\n      pop\n        /* \"#utility.yul\":13537:13546   */\n      dup2\n        /* \"#utility.yul\":13531:13535   */\n      dup2\n        /* \"#utility.yul\":13527:13547   */\n      sub\n        /* \"#utility.yul\":13523:13524   */\n      0x00\n        /* \"#utility.yul\":13512:13521   */\n      dup4\n        /* \"#utility.yul\":13508:13525   */\n      add\n        /* \"#utility.yul\":13501:13548   */\n      mstore\n        /* \"#utility.yul\":13565:13696   */\n      tag_465\n        /* \"#utility.yul\":13691:13695   */\n      dup2\n        /* \"#utility.yul\":13565:13696   */\n      tag_297\n      jump\t// in\n    tag_465:\n        /* \"#utility.yul\":13557:13696   */\n      swap1\n      pop\n        /* \"#utility.yul\":13284:13703   */\n      swap2\n      swap1\n      pop\n      jump\t// out\n        /* \"#utility.yul\":13709:13889   */\n    tag_298:\n        /* \"#utility.yul\":13757:13834   */\n      0x4e487b7100000000000000000000000000000000000000000000000000000000\n        /* \"#utility.yul\":13754:13755   */\n      0x00\n        /* \"#utility.yul\":13747:13835   */\n      mstore\n        /* \"#utility.yul\":13854:13858   */\n      0x11\n        /* \"#utility.yul\":13851:13852   */\n      0x04\n        /* \"#utility.yul\":13844:13859   */\n      mstore\n        /* \"#utility.yul\":13878:13882   */\n      0x24\n        /* \"#utility.yul\":13875:13876   */\n      0x00\n        /* \"#utility.yul\":13868:13883   */\n      revert\n        /* \"#utility.yul\":13895:14089   */\n    tag_131:\n        /* \"#utility.yul\":13935:13939   */\n      0x00\n        /* \"#utility.yul\":13955:13975   */\n      tag_468\n        /* \"#utility.yul\":13973:13974   */\n      dup3\n        /* \"#utility.yul\":13955:13975   */\n      tag_273\n      jump\t// in\n    tag_468:\n        /* \"#utility.yul\":13950:13975   */\n      swap2\n      pop\n        /* \"#utility.yul\":13989:14009   */\n      tag_469\n        /* \"#utility.yul\":14007:14008   */\n      dup4\n        /* \"#utility.yul\":13989:14009   */\n      tag_273\n      jump\t// in\n    tag_469:\n        /* \"#utility.yul\":13984:14009   */\n      swap3\n      pop\n        /* \"#utility.yul\":14033:14034   */\n      dup3\n        /* \"#utility.yul\":14030:14031   */\n      dup3\n        /* \"#utility.yul\":14026:14035   */\n      sub\n        /* \"#utility.yul\":14018:14035   */\n      swap1\n      pop\n        /* \"#utility.yul\":14057:14058   */\n      dup2\n        /* \"#utility.yul\":14051:14055   */\n      dup2\n        /* \"#utility.yul\":14048:14059   */\n      gt\n        /* \"#utility.yul\":14045:14082   */\n      iszero\n      tag_470\n      jumpi\n        /* \"#utility.yul\":14062:14080   */\n      tag_471\n      tag_298\n      jump\t// in\n    tag_471:\n        /* \"#utility.yul\":14045:14082   */\n    tag_470:\n        /* \"#utility.yul\":13895:14089   */\n      swap3\n      swap2\n      pop\n      pop\n      jump\t// out\n        /* \"#utility.yul\":14095:14286   */\n    tag_134:\n        /* \"#utility.yul\":14135:14138   */\n      0x00\n        /* \"#utility.yul\":14154:14174   */\n      tag_473\n        /* \"#utility.yul\":14172:14173   */\n      dup3\n        /* \"#utility.yul\":14154:14174   */\n      tag_273\n      jump\t// in\n    tag_473:\n        /* \"#utility.yul\":14149:14174   */\n      swap2\n      pop\n        /* \"#utility.yul\":14188:14208   */\n      tag_474\n        /* \"#utility.yul\":14206:14207   */\n      dup4\n        /* \"#utility.yul\":14188:14208   */\n      tag_273\n      jump\t// in\n    tag_474:\n        /* \"#utility.yul\":14183:14208   */\n      swap3\n      pop\n        /* \"#utility.yul\":14231:14232   */\n      dup3\n        /* \"#utility.yul\":14228:14229   */\n      dup3\n        /* \"#utility.yul\":14224:14233   */\n      add\n        /* \"#utility.yul\":14217:14233   */\n      swap1\n      pop\n        /* \"#utility.yul\":14252:14255   */\n      dup1\n        /* \"#utility.yul\":14249:14250   */\n      dup3\n        /* \"#utility.yul\":14246:14256   */\n      gt\n        /* \"#utility.yul\":14243:14279   */\n      iszero\n      tag_475\n      jumpi\n        /* \"#utility.yul\":14259:14277   */\n      tag_476\n      tag_298\n      jump\t// in\n    tag_476:\n        /* \"#utility.yul\":14243:14279   */\n    tag_475:\n        /* \"#utility.yul\":14095:14286   */\n      swap3\n      swap2\n      pop\n      pop\n      jump\t// out\n        /* \"#utility.yul\":14292:14472   */\n    tag_299:\n        /* \"#utility.yul\":14340:14417   */\n      0x4e487b7100000000000000000000000000000000000000000000000000000000\n        /* \"#utility.yul\":14337:14338   */\n      0x00\n        /* \"#utility.yul\":14330:14418   */\n      mstore\n        /* \"#utility.yul\":14437:14441   */\n      0x22\n        /* \"#utility.yul\":14434:14435   */\n      0x04\n        /* \"#utility.yul\":14427:14442   */\n      mstore\n        /* \"#utility.yul\":14461:14465   */\n      0x24\n        /* \"#utility.yul\":14458:14459   */\n      0x00\n        /* \"#utility.yul\":14451:14466   */\n      revert\n        /* \"#utility.yul\":14478:14798   */\n    tag_139:\n        /* \"#utility.yul\":14522:14528   */\n      0x00\n        /* \"#utility.yul\":14559:14560   */\n      0x02\n        /* \"#utility.yul\":14553:14557   */\n      dup3\n        /* \"#utility.yul\":14549:14561   */\n      div\n        /* \"#utility.yul\":14539:14561   */\n      swap1\n      pop\n        /* \"#utility.yul\":14606:14607   */\n      0x01\n        /* \"#utility.yul\":14600:14604   */\n      dup3\n        /* \"#utility.yul\":14596:14608   */\n      and\n        /* \"#utility.yul\":14627:14645   */\n      dup1\n        /* \"#utility.yul\":14617:14698   */\n      tag_479\n      jumpi\n        /* \"#utility.yul\":14683:14687   */\n      0x7f\n        /* \"#utility.yul\":14675:14681   */\n      dup3\n        /* \"#utility.yul\":14671:14688   */\n      and\n        /* \"#utility.yul\":14661:14688   */\n      swap2\n      pop\n        /* \"#utility.yul\":14617:14698   */\n    tag_479:\n        /* \"#utility.yul\":14745:14747   */\n      0x20\n        /* \"#utility.yul\":14737:14743   */\n      dup3\n        /* \"#utility.yul\":14734:14748   */\n      lt\n        /* \"#utility.yul\":14714:14732   */\n      dup2\n        /* \"#utility.yul\":14711:14749   */\n      sub\n        /* \"#utility.yul\":14708:14792   */\n      tag_480\n      jumpi\n        /* \"#utility.yul\":14764:14782   */\n      tag_481\n      tag_299\n      jump\t// in\n    tag_481:\n        /* \"#utility.yul\":14708:14792   */\n    tag_480:\n        /* \"#utility.yul\":14529:14798   */\n      pop\n        /* \"#utility.yul\":14478:14798   */\n      swap2\n      swap1\n      pop\n      jump\t// out\n        /* \"#utility.yul\":14804:14986   */\n    tag_300:\n        /* \"#utility.yul\":14944:14978   */\n      0x494e56414c494420564f54452e20544f5049432049532043414e43454c4c4544\n        /* \"#utility.yul\":14940:14941   */\n      0x00\n        /* \"#utility.yul\":14932:14938   */\n      dup3\n        /* \"#utility.yul\":14928:14942   */\n      add\n        /* \"#utility.yul\":14921:14979   */\n      mstore\n        /* \"#utility.yul\":14804:14986   */\n      pop\n      jump\t// out\n        /* \"#utility.yul\":14992:15358   */\n    tag_301:\n        /* \"#utility.yul\":15134:15137   */\n      0x00\n        /* \"#utility.yul\":15155:15222   */\n      tag_484\n        /* \"#utility.yul\":15219:15221   */\n      0x20\n        /* \"#utility.yul\":15214:15217   */\n      dup4\n        /* \"#utility.yul\":15155:15222   */\n      tag_282\n      jump\t// in\n    tag_484:\n        /* \"#utility.yul\":15148:15222   */\n      swap2\n      pop\n        /* \"#utility.yul\":15231:15324   */\n      tag_485\n        /* \"#utility.yul\":15320:15323   */\n      dup3\n        /* \"#utility.yul\":15231:15324   */\n      tag_300\n      jump\t// in\n    tag_485:\n        /* \"#utility.yul\":15349:15351   */\n      0x20\n        /* \"#utility.yul\":15344:15347   */\n      dup3\n        /* \"#utility.yul\":15340:15352   */\n      add\n        /* \"#utility.yul\":15333:15352   */\n      swap1\n      pop\n        /* \"#utility.yul\":14992:15358   */\n      swap2\n      swap1\n      pop\n      jump\t// out\n        /* \"#utility.yul\":15364:15783   */\n    tag_156:\n        /* \"#utility.yul\":15530:15534   */\n      0x00\n        /* \"#utility.yul\":15568:15570   */\n      0x20\n        /* \"#utility.yul\":15557:15566   */\n      dup3\n        /* \"#utility.yul\":15553:15571   */\n      add\n        /* \"#utility.yul\":15545:15571   */\n      swap1\n      pop\n        /* \"#utility.yul\":15617:15626   */\n      dup2\n        /* \"#utility.yul\":15611:15615   */\n      dup2\n        /* \"#utility.yul\":15607:15627   */\n      sub\n        /* \"#utility.yul\":15603:15604   */\n      0x00\n        /* \"#utility.yul\":15592:15601   */\n      dup4\n        /* \"#utility.yul\":15588:15605   */\n      add\n        /* \"#utility.yul\":15581:15628   */\n      mstore\n        /* \"#utility.yul\":15645:15776   */\n      tag_487\n        /* \"#utility.yul\":15771:15775   */\n      dup2\n        /* \"#utility.yul\":15645:15776   */\n      tag_301\n      jump\t// in\n    tag_487:\n        /* \"#utility.yul\":15637:15776   */\n      swap1\n      pop\n        /* \"#utility.yul\":15364:15783   */\n      swap2\n      swap1\n      pop\n      jump\t// out\n        /* \"#utility.yul\":15789:15951   */\n    tag_302:\n        /* \"#utility.yul\":15929:15943   */\n      0x4e4f542041204d454d4245520000000000000000000000000000000000000000\n        /* \"#utility.yul\":15925:15926   */\n      0x00\n        /* \"#utility.yul\":15917:15923   */\n      dup3\n        /* \"#utility.yul\":15913:15927   */\n      add\n        /* \"#utility.yul\":15906:15944   */\n      mstore\n        /* \"#utility.yul\":15789:15951   */\n      pop\n      jump\t// out\n        /* \"#utility.yul\":15957:16323   */\n    tag_303:\n        /* \"#utility.yul\":16099:16102   */\n      0x00\n        /* \"#utility.yul\":16120:16187   */\n      tag_490\n        /* \"#utility.yul\":16184:16186   */\n      0x0c\n        /* \"#utility.yul\":16179:16182   */\n      dup4\n        /* \"#utility.yul\":16120:16187   */\n      tag_282\n      jump\t// in\n    tag_490:\n        /* \"#utility.yul\":16113:16187   */\n      swap2\n      pop\n        /* \"#utility.yul\":16196:16289   */\n      tag_491\n        /* \"#utility.yul\":16285:16288   */\n      dup3\n        /* \"#utility.yul\":16196:16289   */\n      tag_302\n      jump\t// in\n    tag_491:\n        /* \"#utility.yul\":16314:16316   */\n      0x20\n        /* \"#utility.yul\":16309:16312   */\n      dup3\n        /* \"#utility.yul\":16305:16317   */\n      add\n        /* \"#utility.yul\":16298:16317   */\n      swap1\n      pop\n        /* \"#utility.yul\":15957:16323   */\n      swap2\n      swap1\n      pop\n      jump\t// out\n        /* \"#utility.yul\":16329:16748   */\n    tag_159:\n        /* \"#utility.yul\":16495:16499   */\n      0x00\n        /* \"#utility.yul\":16533:16535   */\n      0x20\n        /* \"#utility.yul\":16522:16531   */\n      dup3\n        /* \"#utility.yul\":16518:16536   */\n      add\n        /* \"#utility.yul\":16510:16536   */\n      swap1\n      pop\n        /* \"#utility.yul\":16582:16591   */\n      dup2\n        /* \"#utility.yul\":16576:16580   */\n      dup2\n        /* \"#utility.yul\":16572:16592   */\n      sub\n        /* \"#utility.yul\":16568:16569   */\n      0x00\n        /* \"#utility.yul\":16557:16566   */\n      dup4\n        /* \"#utility.yul\":16553:16570   */\n      add\n        /* \"#utility.yul\":16546:16593   */\n      mstore\n        /* \"#utility.yul\":16610:16741   */\n      tag_493\n        /* \"#utility.yul\":16736:16740   */\n      dup2\n        /* \"#utility.yul\":16610:16741   */\n      tag_303\n      jump\t// in\n    tag_493:\n        /* \"#utility.yul\":16602:16741   */\n      swap1\n      pop\n        /* \"#utility.yul\":16329:16748   */\n      swap2\n      swap1\n      pop\n      jump\t// out\n        /* \"#utility.yul\":16754:16929   */\n    tag_304:\n        /* \"#utility.yul\":16894:16921   */\n      0x564f54494e4720504552494f442048415320454c415053454400000000000000\n        /* \"#utility.yul\":16890:16891   */\n      0x00\n        /* \"#utility.yul\":16882:16888   */\n      dup3\n        /* \"#utility.yul\":16878:16892   */\n      add\n        /* \"#utility.yul\":16871:16922   */\n      mstore\n        /* \"#utility.yul\":16754:16929   */\n      pop\n      jump\t// out\n        /* \"#utility.yul\":16935:17301   */\n    tag_305:\n        /* \"#utility.yul\":17077:17080   */\n      0x00\n        /* \"#utility.yul\":17098:17165   */\n      tag_496\n        /* \"#utility.yul\":17162:17164   */\n      0x19\n        /* \"#utility.yul\":17157:17160   */\n      dup4\n        /* \"#utility.yul\":17098:17165   */\n      tag_282\n      jump\t// in\n    tag_496:\n        /* \"#utility.yul\":17091:17165   */\n      swap2\n      pop\n        /* \"#utility.yul\":17174:17267   */\n      tag_497\n        /* \"#utility.yul\":17263:17266   */\n      dup3\n        /* \"#utility.yul\":17174:17267   */\n      tag_304\n      jump\t// in\n    tag_497:\n        /* \"#utility.yul\":17292:17294   */\n      0x20\n        /* \"#utility.yul\":17287:17290   */\n      dup3\n        /* \"#utility.yul\":17283:17295   */\n      add\n        /* \"#utility.yul\":17276:17295   */\n      swap1\n      pop\n        /* \"#utility.yul\":16935:17301   */\n      swap2\n      swap1\n      pop\n      jump\t// out\n        /* \"#utility.yul\":17307:17726   */\n    tag_163:\n        /* \"#utility.yul\":17473:17477   */\n      0x00\n        /* \"#utility.yul\":17511:17513   */\n      0x20\n        /* \"#utility.yul\":17500:17509   */\n      dup3\n        /* \"#utility.yul\":17496:17514   */\n      add\n        /* \"#utility.yul\":17488:17514   */\n      swap1\n      pop\n        /* \"#utility.yul\":17560:17569   */\n      dup2\n        /* \"#utility.yul\":17554:17558   */\n      dup2\n        /* \"#utility.yul\":17550:17570   */\n      sub\n        /* \"#utility.yul\":17546:17547   */\n      0x00\n        /* \"#utility.yul\":17535:17544   */\n      dup4\n        /* \"#utility.yul\":17531:17548   */\n      add\n        /* \"#utility.yul\":17524:17571   */\n      mstore\n        /* \"#utility.yul\":17588:17719   */\n      tag_499\n        /* \"#utility.yul\":17714:17718   */\n      dup2\n        /* \"#utility.yul\":17588:17719   */\n      tag_305\n      jump\t// in\n    tag_499:\n        /* \"#utility.yul\":17580:17719   */\n      swap1\n      pop\n        /* \"#utility.yul\":17307:17726   */\n      swap2\n      swap1\n      pop\n      jump\t// out\n        /* \"#utility.yul\":17732:17875   */\n    tag_306:\n        /* \"#utility.yul\":17789:17794   */\n      0x00\n        /* \"#utility.yul\":17820:17826   */\n      dup2\n        /* \"#utility.yul\":17814:17827   */\n      mload\n        /* \"#utility.yul\":17805:17827   */\n      swap1\n      pop\n        /* \"#utility.yul\":17836:17869   */\n      tag_501\n        /* \"#utility.yul\":17863:17868   */\n      dup2\n        /* \"#utility.yul\":17836:17869   */\n      tag_274\n      jump\t// in\n    tag_501:\n        /* \"#utility.yul\":17732:17875   */\n      swap3\n      swap2\n      pop\n      pop\n      jump\t// out\n        /* \"#utility.yul\":17881:18232   */\n    tag_168:\n        /* \"#utility.yul\":17951:17957   */\n      0x00\n        /* \"#utility.yul\":18000:18002   */\n      0x20\n        /* \"#utility.yul\":17988:17997   */\n      dup3\n        /* \"#utility.yul\":17979:17986   */\n      dup5\n        /* \"#utility.yul\":17975:17998   */\n      sub\n        /* \"#utility.yul\":17971:18003   */\n      slt\n        /* \"#utility.yul\":17968:18087   */\n      iszero\n      tag_503\n      jumpi\n        /* \"#utility.yul\":18006:18085   */\n      tag_504\n      tag_267\n      jump\t// in\n    tag_504:\n        /* \"#utility.yul\":17968:18087   */\n    tag_503:\n        /* \"#utility.yul\":18126:18127   */\n      0x00\n        /* \"#utility.yul\":18151:18215   */\n      tag_505\n        /* \"#utility.yul\":18207:18214   */\n      dup5\n        /* \"#utility.yul\":18198:18204   */\n      dup3\n        /* \"#utility.yul\":18187:18196   */\n      dup6\n        /* \"#utility.yul\":18183:18205   */\n      add\n        /* \"#utility.yul\":18151:18215   */\n      tag_306\n      jump\t// in\n    tag_505:\n        /* \"#utility.yul\":18141:18215   */\n      swap2\n      pop\n        /* \"#utility.yul\":18097:18225   */\n      pop\n        /* \"#utility.yul\":17881:18232   */\n      swap3\n      swap2\n      pop\n      pop\n      jump\t// out\n        /* \"#utility.yul\":18238:18471   */\n    tag_307:\n        /* \"#utility.yul\":18378:18412   */\n      0x594f55204d55535420504f5353455320544f4b454e7320544f20424520414e20\n        /* \"#utility.yul\":18374:18375   */\n      0x00\n        /* \"#utility.yul\":18366:18372   */\n      dup3\n        /* \"#utility.yul\":18362:18376   */\n      add\n        /* \"#utility.yul\":18355:18413   */\n      mstore\n        /* \"#utility.yul\":18447:18463   */\n      0x454c494749424c4520564f544552000000000000000000000000000000000000\n        /* \"#utility.yul\":18442:18444   */\n      0x20\n        /* \"#utility.yul\":18434:18440   */\n      dup3\n        /* \"#utility.yul\":18430:18445   */\n      add\n        /* \"#utility.yul\":18423:18464   */\n      mstore\n        /* \"#utility.yul\":18238:18471   */\n      pop\n      jump\t// out\n        /* \"#utility.yul\":18477:18843   */\n    tag_308:\n        /* \"#utility.yul\":18619:18622   */\n      0x00\n        /* \"#utility.yul\":18640:18707   */\n      tag_508\n        /* \"#utility.yul\":18704:18706   */\n      0x2e\n        /* \"#utility.yul\":18699:18702   */\n      dup4\n        /* \"#utility.yul\":18640:18707   */\n      tag_282\n      jump\t// in\n    tag_508:\n        /* \"#utility.yul\":18633:18707   */\n      swap2\n      pop\n        /* \"#utility.yul\":18716:18809   */\n      tag_509\n        /* \"#utility.yul\":18805:18808   */\n      dup3\n        /* \"#utility.yul\":18716:18809   */\n      tag_307\n      jump\t// in\n    tag_509:\n        /* \"#utility.yul\":18834:18836   */\n      0x40\n        /* \"#utility.yul\":18829:18832   */\n      dup3\n        /* \"#utility.yul\":18825:18837   */\n      add\n        /* \"#utility.yul\":18818:18837   */\n      swap1\n      pop\n        /* \"#utility.yul\":18477:18843   */\n      swap2\n      swap1\n      pop\n      jump\t// out\n        /* \"#utility.yul\":18849:19268   */\n    tag_171:\n        /* \"#utility.yul\":19015:19019   */\n      0x00\n        /* \"#utility.yul\":19053:19055   */\n      0x20\n        /* \"#utility.yul\":19042:19051   */\n      dup3\n        /* \"#utility.yul\":19038:19056   */\n      add\n        /* \"#utility.yul\":19030:19056   */\n      swap1\n      pop\n        /* \"#utility.yul\":19102:19111   */\n      dup2\n        /* \"#utility.yul\":19096:19100   */\n      dup2\n        /* \"#utility.yul\":19092:19112   */\n      sub\n        /* \"#utility.yul\":19088:19089   */\n      0x00\n        /* \"#utility.yul\":19077:19086   */\n      dup4\n        /* \"#utility.yul\":19073:19090   */\n      add\n        /* \"#utility.yul\":19066:19113   */\n      mstore\n        /* \"#utility.yul\":19130:19261   */\n      tag_511\n        /* \"#utility.yul\":19256:19260   */\n      dup2\n        /* \"#utility.yul\":19130:19261   */\n      tag_308\n      jump\t// in\n    tag_511:\n        /* \"#utility.yul\":19122:19261   */\n      swap1\n      pop\n        /* \"#utility.yul\":18849:19268   */\n      swap2\n      swap1\n      pop\n      jump\t// out\n        /* \"#utility.yul\":19274:19499   */\n    tag_309:\n        /* \"#utility.yul\":19414:19448   */\n      0x4d454d424552532043414e204f4e4c592043415354204120564f544520504552\n        /* \"#utility.yul\":19410:19411   */\n      0x00\n        /* \"#utility.yul\":19402:19408   */\n      dup3\n        /* \"#utility.yul\":19398:19412   */\n      add\n        /* \"#utility.yul\":19391:19449   */\n      mstore\n        /* \"#utility.yul\":19483:19491   */\n      0x20544f5049430000000000000000000000000000000000000000000000000000\n        /* \"#utility.yul\":19478:19480   */\n      0x20\n        /* \"#utility.yul\":19470:19476   */\n      dup3\n        /* \"#utility.yul\":19466:19481   */\n      add\n        /* \"#utility.yul\":19459:19492   */\n      mstore\n        /* \"#utility.yul\":19274:19499   */\n      pop\n      jump\t// out\n        /* \"#utility.yul\":19505:19871   */\n    tag_310:\n        /* \"#utility.yul\":19647:19650   */\n      0x00\n        /* \"#utility.yul\":19668:19735   */\n      tag_514\n        /* \"#utility.yul\":19732:19734   */\n      0x26\n        /* \"#utility.yul\":19727:19730   */\n      dup4\n        /* \"#utility.yul\":19668:19735   */\n      tag_282\n      jump\t// in\n    tag_514:\n        /* \"#utility.yul\":19661:19735   */\n      swap2\n      pop\n        /* \"#utility.yul\":19744:19837   */\n      tag_515\n        /* \"#utility.yul\":19833:19836   */\n      dup3\n        /* \"#utility.yul\":19744:19837   */\n      tag_309\n      jump\t// in\n    tag_515:\n        /* \"#utility.yul\":19862:19864   */\n      0x40\n        /* \"#utility.yul\":19857:19860   */\n      dup3\n        /* \"#utility.yul\":19853:19865   */\n      add\n        /* \"#utility.yul\":19846:19865   */\n      swap1\n      pop\n        /* \"#utility.yul\":19505:19871   */\n      swap2\n      swap1\n      pop\n      jump\t// out\n        /* \"#utility.yul\":19877:20296   */\n    tag_178:\n        /* \"#utility.yul\":20043:20047   */\n      0x00\n        /* \"#utility.yul\":20081:20083   */\n      0x20\n        /* \"#utility.yul\":20070:20079   */\n      dup3\n        /* \"#utility.yul\":20066:20084   */\n      add\n        /* \"#utility.yul\":20058:20084   */\n      swap1\n      pop\n        /* \"#utility.yul\":20130:20139   */\n      dup2\n        /* \"#utility.yul\":20124:20128   */\n      dup2\n        /* \"#utility.yul\":20120:20140   */\n      sub\n        /* \"#utility.yul\":20116:20117   */\n      0x00\n        /* \"#utility.yul\":20105:20114   */\n      dup4\n        /* \"#utility.yul\":20101:20118   */\n      add\n        /* \"#utility.yul\":20094:20141   */\n      mstore\n        /* \"#utility.yul\":20158:20289   */\n      tag_517\n        /* \"#utility.yul\":20284:20288   */\n      dup2\n        /* \"#utility.yul\":20158:20289   */\n      tag_310\n      jump\t// in\n    tag_517:\n        /* \"#utility.yul\":20150:20289   */\n      swap1\n      pop\n        /* \"#utility.yul\":19877:20296   */\n      swap2\n      swap1\n      pop\n      jump\t// out\n        /* \"#utility.yul\":20302:20622   */\n    tag_184:\n        /* \"#utility.yul\":20417:20421   */\n      0x00\n        /* \"#utility.yul\":20455:20457   */\n      0x40\n        /* \"#utility.yul\":20444:20453   */\n      dup3\n        /* \"#utility.yul\":20440:20458   */\n      add\n        /* \"#utility.yul\":20432:20458   */\n      swap1\n      pop\n        /* \"#utility.yul\":20468:20539   */\n      tag_519\n        /* \"#utility.yul\":20536:20537   */\n      0x00\n        /* \"#utility.yul\":20525:20534   */\n      dup4\n        /* \"#utility.yul\":20521:20538   */\n      add\n        /* \"#utility.yul\":20512:20518   */\n      dup6\n        /* \"#utility.yul\":20468:20539   */\n      tag_279\n      jump\t// in\n    tag_519:\n        /* \"#utility.yul\":20549:20615   */\n      tag_520\n        /* \"#utility.yul\":20611:20613   */\n      0x20\n        /* \"#utility.yul\":20600:20609   */\n      dup4\n        /* \"#utility.yul\":20596:20614   */\n      add\n        /* \"#utility.yul\":20587:20593   */\n      dup5\n        /* \"#utility.yul\":20549:20615   */\n      tag_280\n      jump\t// in\n    tag_520:\n        /* \"#utility.yul\":20302:20622   */\n      swap4\n      swap3\n      pop\n      pop\n      pop\n      jump\t// out\n        /* \"#utility.yul\":20628:21454   */\n    tag_224:\n        /* \"#utility.yul\":20865:20869   */\n      0x00\n        /* \"#utility.yul\":20903:20906   */\n      0x80\n        /* \"#utility.yul\":20892:20901   */\n      dup3\n        /* \"#utility.yul\":20888:20907   */\n      add\n        /* \"#utility.yul\":20880:20907   */\n      swap1\n      pop\n        /* \"#utility.yul\":20953:20962   */\n      dup2\n        /* \"#utility.yul\":20947:20951   */\n      dup2\n        /* \"#utility.yul\":20943:20963   */\n      sub\n        /* \"#utility.yul\":20939:20940   */\n      0x00\n        /* \"#utility.yul\":20928:20937   */\n      dup4\n        /* \"#utility.yul\":20924:20941   */\n      add\n        /* \"#utility.yul\":20917:20964   */\n      mstore\n        /* \"#utility.yul\":20981:21059   */\n      tag_522\n        /* \"#utility.yul\":21054:21058   */\n      dup2\n        /* \"#utility.yul\":21045:21051   */\n      dup8\n        /* \"#utility.yul\":20981:21059   */\n      tag_285\n      jump\t// in\n    tag_522:\n        /* \"#utility.yul\":20973:21059   */\n      swap1\n      pop\n        /* \"#utility.yul\":21106:21115   */\n      dup2\n        /* \"#utility.yul\":21100:21104   */\n      dup2\n        /* \"#utility.yul\":21096:21116   */\n      sub\n        /* \"#utility.yul\":21091:21093   */\n      0x20\n        /* \"#utility.yul\":21080:21089   */\n      dup4\n        /* \"#utility.yul\":21076:21094   */\n      add\n        /* \"#utility.yul\":21069:21117   */\n      mstore\n        /* \"#utility.yul\":21134:21212   */\n      tag_523\n        /* \"#utility.yul\":21207:21211   */\n      dup2\n        /* \"#utility.yul\":21198:21204   */\n      dup7\n        /* \"#utility.yul\":21134:21212   */\n      tag_285\n      jump\t// in\n    tag_523:\n        /* \"#utility.yul\":21126:21212   */\n      swap1\n      pop\n        /* \"#utility.yul\":21222:21294   */\n      tag_524\n        /* \"#utility.yul\":21290:21292   */\n      0x40\n        /* \"#utility.yul\":21279:21288   */\n      dup4\n        /* \"#utility.yul\":21275:21293   */\n      add\n        /* \"#utility.yul\":21266:21272   */\n      dup6\n        /* \"#utility.yul\":21222:21294   */\n      tag_286\n      jump\t// in\n    tag_524:\n        /* \"#utility.yul\":21341:21350   */\n      dup2\n        /* \"#utility.yul\":21335:21339   */\n      dup2\n        /* \"#utility.yul\":21331:21351   */\n      sub\n        /* \"#utility.yul\":21326:21328   */\n      0x60\n        /* \"#utility.yul\":21315:21324   */\n      dup4\n        /* \"#utility.yul\":21311:21329   */\n      add\n        /* \"#utility.yul\":21304:21352   */\n      mstore\n        /* \"#utility.yul\":21369:21447   */\n      tag_525\n        /* \"#utility.yul\":21442:21446   */\n      dup2\n        /* \"#utility.yul\":21433:21439   */\n      dup5\n        /* \"#utility.yul\":21369:21447   */\n      tag_285\n      jump\t// in\n    tag_525:\n        /* \"#utility.yul\":21361:21447   */\n      swap1\n      pop\n        /* \"#utility.yul\":20628:21454   */\n      swap6\n      swap5\n      pop\n      pop\n      pop\n      pop\n      pop\n      jump\t// out\n        /* \"#utility.yul\":21460:21558   */\n    tag_311:\n        /* \"#utility.yul\":21511:21517   */\n      0x00\n        /* \"#utility.yul\":21545:21550   */\n      dup2\n        /* \"#utility.yul\":21539:21551   */\n      mload\n        /* \"#utility.yul\":21529:21551   */\n      swap1\n      pop\n        /* \"#utility.yul\":21460:21558   */\n      swap2\n      swap1\n      pop\n      jump\t// out\n        /* \"#utility.yul\":21564:21711   */\n    tag_312:\n        /* \"#utility.yul\":21665:21676   */\n      0x00\n        /* \"#utility.yul\":21702:21705   */\n      dup2\n        /* \"#utility.yul\":21687:21705   */\n      swap1\n      pop\n        /* \"#utility.yul\":21564:21711   */\n      swap3\n      swap2\n      pop\n      pop\n      jump\t// out\n        /* \"#utility.yul\":21717:22103   */\n    tag_313:\n        /* \"#utility.yul\":21821:21824   */\n      0x00\n        /* \"#utility.yul\":21849:21887   */\n      tag_529\n        /* \"#utility.yul\":21881:21886   */\n      dup3\n        /* \"#utility.yul\":21849:21887   */\n      tag_311\n      jump\t// in\n    tag_529:\n        /* \"#utility.yul\":21903:21991   */\n      tag_530\n        /* \"#utility.yul\":21984:21990   */\n      dup2\n        /* \"#utility.yul\":21979:21982   */\n      dup6\n        /* \"#utility.yul\":21903:21991   */\n      tag_312\n      jump\t// in\n    tag_530:\n        /* \"#utility.yul\":21896:21991   */\n      swap4\n      pop\n        /* \"#utility.yul\":22000:22065   */\n      tag_531\n        /* \"#utility.yul\":22058:22064   */\n      dup2\n        /* \"#utility.yul\":22053:22056   */\n      dup6\n        /* \"#utility.yul\":22046:22050   */\n      0x20\n        /* \"#utility.yul\":22039:22044   */\n      dup7\n        /* \"#utility.yul\":22035:22051   */\n      add\n        /* \"#utility.yul\":22000:22065   */\n      tag_283\n      jump\t// in\n    tag_531:\n        /* \"#utility.yul\":22090:22096   */\n      dup1\n        /* \"#utility.yul\":22085:22088   */\n      dup5\n        /* \"#utility.yul\":22081:22097   */\n      add\n        /* \"#utility.yul\":22074:22097   */\n      swap2\n      pop\n        /* \"#utility.yul\":21825:22103   */\n      pop\n        /* \"#utility.yul\":21717:22103   */\n      swap3\n      swap2\n      pop\n      pop\n      jump\t// out\n        /* \"#utility.yul\":22109:22380   */\n    tag_226:\n        /* \"#utility.yul\":22239:22242   */\n      0x00\n        /* \"#utility.yul\":22261:22354   */\n      tag_533\n        /* \"#utility.yul\":22350:22353   */\n      dup3\n        /* \"#utility.yul\":22341:22347   */\n      dup5\n        /* \"#utility.yul\":22261:22354   */\n      tag_313\n      jump\t// in\n    tag_533:\n        /* \"#utility.yul\":22254:22354   */\n      swap2\n      pop\n        /* \"#utility.yul\":22371:22374   */\n      dup2\n        /* \"#utility.yul\":22364:22374   */\n      swap1\n      pop\n        /* \"#utility.yul\":22109:22380   */\n      swap3\n      swap2\n      pop\n      pop\n      jump\t// out\n        /* \"#utility.yul\":22386:22560   */\n    tag_314:\n        /* \"#utility.yul\":22526:22552   */\n      0x4641494c454420544f20494e49544941544520544f5049430000000000000000\n        /* \"#utility.yul\":22522:22523   */\n      0x00\n        /* \"#utility.yul\":22514:22520   */\n      dup3\n        /* \"#utility.yul\":22510:22524   */\n      add\n        /* \"#utility.yul\":22503:22553   */\n      mstore\n        /* \"#utility.yul\":22386:22560   */\n      pop\n      jump\t// out\n        /* \"#utility.yul\":22566:22932   */\n    tag_315:\n        /* \"#utility.yul\":22708:22711   */\n      0x00\n        /* \"#utility.yul\":22729:22796   */\n      tag_536\n        /* \"#utility.yul\":22793:22795   */\n      0x18\n        /* \"#utility.yul\":22788:22791   */\n      dup4\n        /* \"#utility.yul\":22729:22796   */\n      tag_282\n      jump\t// in\n    tag_536:\n        /* \"#utility.yul\":22722:22796   */\n      swap2\n      pop\n        /* \"#utility.yul\":22805:22898   */\n      tag_537\n        /* \"#utility.yul\":22894:22897   */\n      dup3\n        /* \"#utility.yul\":22805:22898   */\n      tag_314\n      jump\t// in\n    tag_537:\n        /* \"#utility.yul\":22923:22925   */\n      0x20\n        /* \"#utility.yul\":22918:22921   */\n      dup3\n        /* \"#utility.yul\":22914:22926   */\n      add\n        /* \"#utility.yul\":22907:22926   */\n      swap1\n      pop\n        /* \"#utility.yul\":22566:22932   */\n      swap2\n      swap1\n      pop\n      jump\t// out\n        /* \"#utility.yul\":22938:23357   */\n    tag_232:\n        /* \"#utility.yul\":23104:23108   */\n      0x00\n        /* \"#utility.yul\":23142:23144   */\n      0x20\n        /* \"#utility.yul\":23131:23140   */\n      dup3\n        /* \"#utility.yul\":23127:23145   */\n      add\n        /* \"#utility.yul\":23119:23145   */\n      swap1\n      pop\n        /* \"#utility.yul\":23191:23200   */\n      dup2\n        /* \"#utility.yul\":23185:23189   */\n      dup2\n        /* \"#utility.yul\":23181:23201   */\n      sub\n        /* \"#utility.yul\":23177:23178   */\n      0x00\n        /* \"#utility.yul\":23166:23175   */\n      dup4\n        /* \"#utility.yul\":23162:23179   */\n      add\n        /* \"#utility.yul\":23155:23202   */\n      mstore\n        /* \"#utility.yul\":23219:23350   */\n      tag_539\n        /* \"#utility.yul\":23345:23349   */\n      dup2\n        /* \"#utility.yul\":23219:23350   */\n      tag_315\n      jump\t// in\n    tag_539:\n        /* \"#utility.yul\":23211:23350   */\n      swap1\n      pop\n        /* \"#utility.yul\":22938:23357   */\n      swap2\n      swap1\n      pop\n      jump\t// out\n        /* \"#utility.yul\":23363:23541   */\n    tag_316:\n        /* \"#utility.yul\":23503:23533   */\n      0x4641494c454420544f20494d504c454d454e54204445434953494f4e00000000\n        /* \"#utility.yul\":23499:23500   */\n      0x00\n        /* \"#utility.yul\":23491:23497   */\n      dup3\n        /* \"#utility.yul\":23487:23501   */\n      add\n        /* \"#utility.yul\":23480:23534   */\n      mstore\n        /* \"#utility.yul\":23363:23541   */\n      pop\n      jump\t// out\n        /* \"#utility.yul\":23547:23913   */\n    tag_317:\n        /* \"#utility.yul\":23689:23692   */\n      0x00\n        /* \"#utility.yul\":23710:23777   */\n      tag_542\n        /* \"#utility.yul\":23774:23776   */\n      0x1c\n        /* \"#utility.yul\":23769:23772   */\n      dup4\n        /* \"#utility.yul\":23710:23777   */\n      tag_282\n      jump\t// in\n    tag_542:\n        /* \"#utility.yul\":23703:23777   */\n      swap2\n      pop\n        /* \"#utility.yul\":23786:23879   */\n      tag_543\n        /* \"#utility.yul\":23875:23878   */\n      dup3\n        /* \"#utility.yul\":23786:23879   */\n      tag_316\n      jump\t// in\n    tag_543:\n        /* \"#utility.yul\":23904:23906   */\n      0x20\n        /* \"#utility.yul\":23899:23902   */\n      dup3\n        /* \"#utility.yul\":23895:23907   */\n      add\n        /* \"#utility.yul\":23888:23907   */\n      swap1\n      pop\n        /* \"#utility.yul\":23547:23913   */\n      swap2\n      swap1\n      pop\n      jump\t// out\n        /* \"#utility.yul\":23919:24338   */\n    tag_244:\n        /* \"#utility.yul\":24085:24089   */\n      0x00\n        /* \"#utility.yul\":24123:24125   */\n      0x20\n        /* \"#utility.yul\":24112:24121   */\n      dup3\n        /* \"#utility.yul\":24108:24126   */\n      add\n        /* \"#utility.yul\":24100:24126   */\n      swap1\n      pop\n        /* \"#utility.yul\":24172:24181   */\n      dup2\n        /* \"#utility.yul\":24166:24170   */\n      dup2\n        /* \"#utility.yul\":24162:24182   */\n      sub\n        /* \"#utility.yul\":24158:24159   */\n      0x00\n        /* \"#utility.yul\":24147:24156   */\n      dup4\n        /* \"#utility.yul\":24143:24160   */\n      add\n        /* \"#utility.yul\":24136:24183   */\n      mstore\n        /* \"#utility.yul\":24200:24331   */\n      tag_545\n        /* \"#utility.yul\":24326:24330   */\n      dup2\n        /* \"#utility.yul\":24200:24331   */\n      tag_317\n      jump\t// in\n    tag_545:\n        /* \"#utility.yul\":24192:24331   */\n      swap1\n      pop\n        /* \"#utility.yul\":23919:24338   */\n      swap2\n      swap1\n      pop\n      jump\t// out\n        /* \"#utility.yul\":24344:24657   */\n    tag_247:\n        /* \"#utility.yul\":24457:24461   */\n      0x00\n        /* \"#utility.yul\":24495:24497   */\n      0x20\n        /* \"#utility.yul\":24484:24493   */\n      dup3\n        /* \"#utility.yul\":24480:24498   */\n      add\n        /* \"#utility.yul\":24472:24498   */\n      swap1\n      pop\n        /* \"#utility.yul\":24544:24553   */\n      dup2\n        /* \"#utility.yul\":24538:24542   */\n      dup2\n        /* \"#utility.yul\":24534:24554   */\n      sub\n        /* \"#utility.yul\":24530:24531   */\n      0x00\n        /* \"#utility.yul\":24519:24528   */\n      dup4\n        /* \"#utility.yul\":24515:24532   */\n      add\n        /* \"#utility.yul\":24508:24555   */\n      mstore\n        /* \"#utility.yul\":24572:24650   */\n      tag_547\n        /* \"#utility.yul\":24645:24649   */\n      dup2\n        /* \"#utility.yul\":24636:24642   */\n      dup5\n        /* \"#utility.yul\":24572:24650   */\n      tag_285\n      jump\t// in\n    tag_547:\n        /* \"#utility.yul\":24564:24650   */\n      swap1\n      pop\n        /* \"#utility.yul\":24344:24657   */\n      swap3\n      swap2\n      pop\n      pop\n      jump\t// out\n        /* \"#utility.yul\":24663:24831   */\n    tag_318:\n        /* \"#utility.yul\":24803:24823   */\n      0x4641494c454420544f2052454749535445520000000000000000000000000000\n        /* \"#utility.yul\":24799:24800   */\n      0x00\n        /* \"#utility.yul\":24791:24797   */\n      dup3\n        /* \"#utility.yul\":24787:24801   */\n      add\n        /* \"#utility.yul\":24780:24824   */\n      mstore\n        /* \"#utility.yul\":24663:24831   */\n      pop\n      jump\t// out\n        /* \"#utility.yul\":24837:25203   */\n    tag_319:\n        /* \"#utility.yul\":24979:24982   */\n      0x00\n        /* \"#utility.yul\":25000:25067   */\n      tag_550\n        /* \"#utility.yul\":25064:25066   */\n      0x12\n        /* \"#utility.yul\":25059:25062   */\n      dup4\n        /* \"#utility.yul\":25000:25067   */\n      tag_282\n      jump\t// in\n    tag_550:\n        /* \"#utility.yul\":24993:25067   */\n      swap2\n      pop\n        /* \"#utility.yul\":25076:25169   */\n      tag_551\n        /* \"#utility.yul\":25165:25168   */\n      dup3\n        /* \"#utility.yul\":25076:25169   */\n      tag_318\n      jump\t// in\n    tag_551:\n        /* \"#utility.yul\":25194:25196   */\n      0x20\n        /* \"#utility.yul\":25189:25192   */\n      dup3\n        /* \"#utility.yul\":25185:25197   */\n      add\n        /* \"#utility.yul\":25178:25197   */\n      swap1\n      pop\n        /* \"#utility.yul\":24837:25203   */\n      swap2\n      swap1\n      pop\n      jump\t// out\n        /* \"#utility.yul\":25209:25628   */\n    tag_254:\n        /* \"#utility.yul\":25375:25379   */\n      0x00\n        /* \"#utility.yul\":25413:25415   */\n      0x20\n        /* \"#utility.yul\":25402:25411   */\n      dup3\n        /* \"#utility.yul\":25398:25416   */\n      add\n        /* \"#utility.yul\":25390:25416   */\n      swap1\n      pop\n        /* \"#utility.yul\":25462:25471   */\n      dup2\n        /* \"#utility.yul\":25456:25460   */\n      dup2\n        /* \"#utility.yul\":25452:25472   */\n      sub\n        /* \"#utility.yul\":25448:25449   */\n      0x00\n        /* \"#utility.yul\":25437:25446   */\n      dup4\n        /* \"#utility.yul\":25433:25450   */\n      add\n        /* \"#utility.yul\":25426:25473   */\n      mstore\n        /* \"#utility.yul\":25490:25621   */\n      tag_553\n        /* \"#utility.yul\":25616:25620   */\n      dup2\n        /* \"#utility.yul\":25490:25621   */\n      tag_319\n      jump\t// in\n    tag_553:\n        /* \"#utility.yul\":25482:25621   */\n      swap1\n      pop\n        /* \"#utility.yul\":25209:25628   */\n      swap2\n      swap1\n      pop\n      jump\t// out\n        /* \"#utility.yul\":25634:25814   */\n    tag_264:\n        /* \"#utility.yul\":25682:25759   */\n      0x4e487b7100000000000000000000000000000000000000000000000000000000\n        /* \"#utility.yul\":25679:25680   */\n      0x00\n        /* \"#utility.yul\":25672:25760   */\n      mstore\n        /* \"#utility.yul\":25779:25783   */\n      0x12\n        /* \"#utility.yul\":25776:25777   */\n      0x04\n        /* \"#utility.yul\":25769:25784   */\n      mstore\n        /* \"#utility.yul\":25803:25807   */\n      0x24\n        /* \"#utility.yul\":25800:25801   */\n      0x00\n        /* \"#utility.yul\":25793:25808   */\n      revert\n\n    auxdata: 0xa2646970667358221220a14d8772797e86cfe4b72e2893048c6c2f4f4fbf632b12a3e819acf3b1a1df2d64736f6c63430008160033\n}\n",
				"bytecode": {
					"linkReferences": {},
					"object": "6080604052600160095562069780600a5562015180600b5534801562000023575f80fd5b5060405162002c6538038062002c6583398181016040528101906200004991906200018c565b815f806101000a81548173ffffffffffffffffffffffffffffffffffffffff021916908373ffffffffffffffffffffffffffffffffffffffff160217905550600160035f3373ffffffffffffffffffffffffffffffffffffffff1673ffffffffffffffffffffffffffffffffffffffff1681526020019081526020015f205f015f6101000a81548160ff0219169083151502179055508060025f6101000a81548173ffffffffffffffffffffffffffffffffffffffff021916908373ffffffffffffffffffffffffffffffffffffffff1602179055505050620001d1565b5f80fd5b5f73ffffffffffffffffffffffffffffffffffffffff82169050919050565b5f62000156826200012b565b9050919050565b62000168816200014a565b811462000173575f80fd5b50565b5f8151905062000186816200015d565b92915050565b5f8060408385031215620001a557620001a462000127565b5b5f620001b48582860162000176565b9250506020620001c78582860162000176565b9150509250929050565b612a8680620001df5f395ff3fe60806040526004361061011e575f3560e01c806363a846f81161009f578063a060acfa11610063578063a060acfa146103f4578063a0a67c5814610410578063a58c14e21461043a578063f2c298be14610464578063fd0f01661461048c5761011e565b806363a846f81461031257806367358c96146103505780636cb764081461037a57806370480275146103a45780637d1592f3146103cc5761011e565b806354b598ec116100e657806354b598ec146102005780635787c1261461023f5780635bb6d284146102675780635df81330146102ab57806361bc221a146102e85761011e565b80631785f53c146101225780631c8dd2141461014a5780633153cebc1461017257806333f794b51461019c57806347411226146101c4575b5f80fd5b34801561012d575f80fd5b5061014860048036038101906101439190611df5565b6104c9565b005b348015610155575f80fd5b50610170600480360381019061016b9190611e88565b610770565b005b34801561017d575f80fd5b50610186610f46565b6040516101939190611ed5565b60405180910390f35b3480156101a7575f80fd5b506101c260048036038101906101bd9190611eee565b610f4c565b005b3480156101cf575f80fd5b506101ea60048036038101906101e59190611f19565b611007565b6040516101f79190611f66565b60405180910390f35b34801561020b575f80fd5b5061022660048036038101906102219190611f7f565b61103c565b6040516102369493929190611fbd565b60405180910390f35b34801561024a575f80fd5b5061026560048036038101906102609190611df5565b61108c565b005b348015610272575f80fd5b5061028d60048036038101906102889190611eee565b61115a565b6040516102a299989796959493929190612099565b60405180910390f35b3480156102b6575f80fd5b506102d160048036038101906102cc9190611eee565b61138d565b6040516102df929190612139565b60405180910390f35b3480156102f3575f80fd5b506102fc6113ad565b6040516103099190611ed5565b60405180910390f35b34801561031d575f80fd5b5061033860048036038101906103339190611df5565b6113b3565b60405161034793929190612160565b60405180910390f35b34801561035b575f80fd5b506103646113e5565b6040516103719190611ed5565b60405180910390f35b348015610385575f80fd5b5061038e6113eb565b60405161039b9190611ed5565b60405180910390f35b3480156103af575f80fd5b506103ca60048036038101906103c59190611df5565b6113f1565b005b3480156103d7575f80fd5b506103f260048036038101906103ed91906122c1565b6116ed565b005b61040e60048036038101906104099190611eee565b611854565b005b34801561041b575f80fd5b50610424611a38565b6040516104319190612379565b60405180910390f35b348015610445575f80fd5b5061044e611a5b565b60405161045b9190612379565b60405180910390f35b34801561046f575f80fd5b5061048a60048036038101906104859190612392565b611a80565b005b348015610497575f80fd5b506104b260048036038101906104ad9190611df5565b611bd9565b6040516104c09291906123d9565b60405180910390f35b60035f3373ffffffffffffffffffffffffffffffffffffffff1673ffffffffffffffffffffffffffffffffffffffff1681526020019081526020015f205f015f9054906101000a900460ff16610554576040517f08c379a000000000000000000000000000000000000000000000000000000000815260040161054b90612451565b60405180910390fd5b6001600480549050610566919061249c565b60035f8373ffffffffffffffffffffffffffffffffffffffff1673ffffffffffffffffffffffffffffffffffffffff1681526020019081526020015f206001015410610698575f60035f8373ffffffffffffffffffffffffffffffffffffffff1673ffffffffffffffffffffffffffffffffffffffff1681526020019081526020015f205f015f6101000a81548160ff021916908315150217905550600160035f8373ffffffffffffffffffffffffffffffffffffffff1673ffffffffffffffffffffffffffffffffffffffff1681526020019081526020015f206001015461064f91906124cf565b60035f8373ffffffffffffffffffffffffffffffffffffffff1673ffffffffffffffffffffffffffffffffffffffff1681526020019081526020015f206001018190555061072a565b600160035f8373ffffffffffffffffffffffffffffffffffffffff1673ffffffffffffffffffffffffffffffffffffffff1681526020019081526020015f20600101546106e591906124cf565b60035f8373ffffffffffffffffffffffffffffffffffffffff1673ffffffffffffffffffffffffffffffffffffffff1681526020019081526020015f20600101819055505b8073ffffffffffffffffffffffffffffffffffffffff167f923abef5ea1e37ac38f56a77b8133d215c1d3bcd2e3dd88a6120d34f933f3dde60405160405180910390a250565b5f60085f8481526020019081526020015f20604051806101200160405290815f82015481526020016001820180546107a79061252f565b80601f01602080910402602001604051908101604052809291908181526020018280546107d39061252f565b801561081e5780601f106107f55761010080835404028352916020019161081e565b820191905f5260205f20905b81548152906001019060200180831161080157829003601f168201915b50505050508152602001600282015f9054906101000a900473ffffffffffffffffffffffffffffffffffffffff1673ffffffffffffffffffffffffffffffffffffffff1673ffffffffffffffffffffffffffffffffffffffff16815260200160038201805461088c9061252f565b80601f01602080910402602001604051908101604052809291908181526020018280546108b89061252f565b80156109035780601f106108da57610100808354040283529160200191610903565b820191905f5260205f20905b8154815290600101906020018083116108e657829003601f168201915b50505050508152602001600482015f9054906101000a900473ffffffffffffffffffffffffffffffffffffffff1673ffffffffffffffffffffffffffffffffffffffff1673ffffffffffffffffffffffffffffffffffffffff1681526020016005820180546109719061252f565b80601f016020809104026020016040519081016040528092919081815260200182805461099d9061252f565b80156109e85780601f106109bf576101008083540402835291602001916109e8565b820191905f5260205f20905b8154815290600101906020018083116109cb57829003601f168201915b5050505050815260200160068201548152602001600782015f9054906101000a900460ff161515151581526020016007820160019054906101000a900460ff16151515158152505090505f805f9054906101000a900473ffffffffffffffffffffffffffffffffffffffff16905081610100015115610a9c576040517f08c379a0000000000000000000000000000000000000000000000000000000008152600401610a93906125a9565b60405180910390fd5b60055f3373ffffffffffffffffffffffffffffffffffffffff1673ffffffffffffffffffffffffffffffffffffffff1681526020019081526020015f206001015f9054906101000a900460ff16610b28576040517f08c379a0000000000000000000000000000000000000000000000000000000008152600401610b1f90612611565b60405180910390fd5b5f8260c00151600a54610b3b91906124cf565b9050428111610b7f576040517f08c379a0000000000000000000000000000000000000000000000000000000008152600401610b7690612679565b60405180910390fd5b5f8273ffffffffffffffffffffffffffffffffffffffff166370a08231336040518263ffffffff1660e01b8152600401610bb99190612379565b602060405180830381865afa158015610bd4573d5f803e3d5ffd5b505050506040513d601f19601f82011682018060405250810190610bf891906126ab565b11610c38576040517f08c379a0000000000000000000000000000000000000000000000000000000008152600401610c2f90612746565b60405180910390fd5b5f8273ffffffffffffffffffffffffffffffffffffffff166370a08231336040518263ffffffff1660e01b8152600401610c729190612379565b602060405180830381865afa158015610c8d573d5f803e3d5ffd5b505050506040513d601f19601f82011682018060405250810190610cb191906126ab565b905060065f3373ffffffffffffffffffffffffffffffffffffffff1673ffffffffffffffffffffffffffffffffffffffff1681526020019081526020015f205f8781526020019081526020015f2060010160019054906101000a900460ff1615610d50576040517f08c379a0000000000000000000000000000000000000000000000000000000008152600401610d47906127d4565b60405180910390fd5b604051806080016040528087815260200186151581526020016001151581526020018281525060065f3373ffffffffffffffffffffffffffffffffffffffff1673ffffffffffffffffffffffffffffffffffffffff1681526020019081526020015f205f8881526020019081526020015f205f820151815f01556020820151816001015f6101000a81548160ff02191690831515021790555060408201518160010160016101000a81548160ff0219169083151502179055506060820151816002015590505060065f3373ffffffffffffffffffffffffffffffffffffffff1673ffffffffffffffffffffffffffffffffffffffff1681526020019081526020015f205f8781526020019081526020015f206001015f9054906101000a900460ff1615610eb2578060075f8881526020019081526020015f205f0154610e9691906124cf565b60075f8881526020019081526020015f205f0181905550610eeb565b8060075f8881526020019081526020015f2060010154610ed291906124cf565b60075f8881526020019081526020015f20600101819055505b3373ffffffffffffffffffffffffffffffffffffffff167f4f7ff1c79e536d7fef60ccb53beb6009e08841ffcba10e515e076f4cbdd9e320855f015187604051610f369291906127f2565b60405180910390a2505050505050565b600a5481565b60035f3373ffffffffffffffffffffffffffffffffffffffff1673ffffffffffffffffffffffffffffffffffffffff1681526020019081526020015f205f015f9054906101000a900460ff16610fd7576040517f08c379a0000000000000000000000000000000000000000000000000000000008152600401610fce90612451565b60405180910390fd5b600160085f8381526020019081526020015f2060070160016101000a81548160ff02191690831515021790555050565b5f80611020603c606485611c8b9092919063ffffffff16565b905080841015611030575f611033565b60015b91505092915050565b6006602052815f5260405f20602052805f5260405f205f9150915050805f015490806001015f9054906101000a900460ff16908060010160019054906101000a900460ff16908060020154905084565b60035f3373ffffffffffffffffffffffffffffffffffffffff1673ffffffffffffffffffffffffffffffffffffffff1681526020019081526020015f205f015f9054906101000a900460ff16611117576040517f08c379a000000000000000000000000000000000000000000000000000000000815260040161110e90612451565b60405180910390fd5b8060025f6101000a81548173ffffffffffffffffffffffffffffffffffffffff021916908373ffffffffffffffffffffffffffffffffffffffff16021790555050565b6008602052805f5260405f205f91509050805f01549080600101805461117f9061252f565b80601f01602080910402602001604051908101604052809291908181526020018280546111ab9061252f565b80156111f65780601f106111cd576101008083540402835291602001916111f6565b820191905f5260205f20905b8154815290600101906020018083116111d957829003601f168201915b505050505090806002015f9054906101000a900473ffffffffffffffffffffffffffffffffffffffff16908060030180546112309061252f565b80601f016020809104026020016040519081016040528092919081815260200182805461125c9061252f565b80156112a75780601f1061127e576101008083540402835291602001916112a7565b820191905f5260205f20905b81548152906001019060200180831161128a57829003601f168201915b505050505090806004015f9054906101000a900473ffffffffffffffffffffffffffffffffffffffff16908060050180546112e19061252f565b80601f016020809104026020016040519081016040528092919081815260200182805461130d9061252f565b80156113585780601f1061132f57610100808354040283529160200191611358565b820191905f5260205f20905b81548152906001019060200180831161133b57829003601f168201915b505050505090806006015490806007015f9054906101000a900460ff16908060070160019054906101000a900460ff16905089565b6007602052805f5260405f205f91509050805f0154908060010154905082565b60095481565b6003602052805f5260405f205f91509050805f015f9054906101000a900460ff16908060010154908060020154905083565b600b5481565b60015481565b60035f3373ffffffffffffffffffffffffffffffffffffffff1673ffffffffffffffffffffffffffffffffffffffff1681526020019081526020015f205f015f9054906101000a900460ff1661147c576040517f08c379a000000000000000000000000000000000000000000000000000000000815260040161147390612451565b60405180910390fd5b60048054905060035f8373ffffffffffffffffffffffffffffffffffffffff1673ffffffffffffffffffffffffffffffffffffffff1681526020019081526020015f20600201541061161557600160035f8373ffffffffffffffffffffffffffffffffffffffff1673ffffffffffffffffffffffffffffffffffffffff1681526020019081526020015f205f015f6101000a81548160ff021916908315150217905550600481908060018154018082558091505060019003905f5260205f20015f9091909190916101000a81548173ffffffffffffffffffffffffffffffffffffffff021916908373ffffffffffffffffffffffffffffffffffffffff160217905550600160035f8373ffffffffffffffffffffffffffffffffffffffff1673ffffffffffffffffffffffffffffffffffffffff1681526020019081526020015f20600201546115cc91906124cf565b60035f8373ffffffffffffffffffffffffffffffffffffffff1673ffffffffffffffffffffffffffffffffffffffff1681526020019081526020015f20600201819055506116a7565b600160035f8373ffffffffffffffffffffffffffffffffffffffff1673ffffffffffffffffffffffffffffffffffffffff1681526020019081526020015f206002015461166291906124cf565b60035f8373ffffffffffffffffffffffffffffffffffffffff1673ffffffffffffffffffffffffffffffffffffffff1681526020019081526020015f20600201819055505b8073ffffffffffffffffffffffffffffffffffffffff167fe0c21bf57df59cfc5e2067c75dbfd51a39f17533352ce1cf3a6c713c897a6c0c60405160405180910390a250565b5f848484846040516024016117059493929190612819565b6040516020818303038152906040527f7d1592f3000000000000000000000000000000000000000000000000000000007bffffffffffffffffffffffffffffffffffffffffffffffffffffffff19166020820180517bffffffffffffffffffffffffffffffffffffffffffffffffffffffff838183161783525050505090505f60025f9054906101000a900473ffffffffffffffffffffffffffffffffffffffff1673ffffffffffffffffffffffffffffffffffffffff16826040516117cb91906128b5565b5f60405180830381855af49150503d805f8114611803576040519150601f19603f3d011682016040523d82523d5f602084013e611808565b606091505b505090508061184c576040517f08c379a000000000000000000000000000000000000000000000000000000000815260040161184390612915565b60405180910390fd5b505050505050565b60035f3373ffffffffffffffffffffffffffffffffffffffff1673ffffffffffffffffffffffffffffffffffffffff1681526020019081526020015f205f015f9054906101000a900460ff166118df576040517f08c379a00000000000000000000000000000000000000000000000000000000081526004016118d690612451565b60405180910390fd5b5f60025f9054906101000a900473ffffffffffffffffffffffffffffffffffffffff1673ffffffffffffffffffffffffffffffffffffffff16826040516024016119299190611ed5565b6040516020818303038152906040527fa060acfa000000000000000000000000000000000000000000000000000000007bffffffffffffffffffffffffffffffffffffffffffffffffffffffff19166020820180517bffffffffffffffffffffffffffffffffffffffffffffffffffffffff83818316178352505050506040516119b391906128b5565b5f60405180830381855af49150503d805f81146119eb576040519150601f19603f3d011682016040523d82523d5f602084013e6119f0565b606091505b5050905080611a34576040517f08c379a0000000000000000000000000000000000000000000000000000000008152600401611a2b9061297d565b60405180910390fd5b5050565b5f8054906101000a900473ffffffffffffffffffffffffffffffffffffffff1681565b60025f9054906101000a900473ffffffffffffffffffffffffffffffffffffffff1681565b5f60025f9054906101000a900473ffffffffffffffffffffffffffffffffffffffff1673ffffffffffffffffffffffffffffffffffffffff1682604051602401611aca919061299b565b6040516020818303038152906040527ff2c298be000000000000000000000000000000000000000000000000000000007bffffffffffffffffffffffffffffffffffffffffffffffffffffffff19166020820180517bffffffffffffffffffffffffffffffffffffffffffffffffffffffff8381831617835250505050604051611b5491906128b5565b5f60405180830381855af49150503d805f8114611b8c576040519150601f19603f3d011682016040523d82523d5f602084013e611b91565b606091505b5050905080611bd5576040517f08c379a0000000000000000000000000000000000000000000000000000000008152600401611bcc90612a05565b60405180910390fd5b5050565b6005602052805f5260405f205f91509050805f018054611bf89061252f565b80601f0160208091040260200160405190810160405280929190818152602001828054611c249061252f565b8015611c6f5780601f10611c4657610100808354040283529160200191611c6f565b820191905f5260205f20905b815481529060010190602001808311611c5257829003601f168201915b505050505090806001015f9054906101000a900460ff16905082565b5f8083850290505f8019858709828110838203039150505f8103611cc357838281611cb957611cb8612a23565b5b0492505050611d83565b808411611cfc576040517f227bc15300000000000000000000000000000000000000000000000000000000815260040160405180910390fd5b5f8486880990508281118203915080830392505f855f038616905080860495508084049350600181825f0304019050808302841793505f600287600302189050808702600203810290508087026002038102905080870260020381029050808702600203810290508087026002038102905080870260020381029050808502955050505050505b9392505050565b5f604051905090565b5f80fd5b5f80fd5b5f73ffffffffffffffffffffffffffffffffffffffff82169050919050565b5f611dc482611d9b565b9050919050565b611dd481611dba565b8114611dde575f80fd5b50565b5f81359050611def81611dcb565b92915050565b5f60208284031215611e0a57611e09611d93565b5b5f611e1784828501611de1565b91505092915050565b5f819050919050565b611e3281611e20565b8114611e3c575f80fd5b50565b5f81359050611e4d81611e29565b92915050565b5f8115159050919050565b611e6781611e53565b8114611e71575f80fd5b50565b5f81359050611e8281611e5e565b92915050565b5f8060408385031215611e9e57611e9d611d93565b5b5f611eab85828601611e3f565b9250506020611ebc85828601611e74565b9150509250929050565b611ecf81611e20565b82525050565b5f602082019050611ee85f830184611ec6565b92915050565b5f60208284031215611f0357611f02611d93565b5b5f611f1084828501611e3f565b91505092915050565b5f8060408385031215611f2f57611f2e611d93565b5b5f611f3c85828601611e3f565b9250506020611f4d85828601611e3f565b9150509250929050565b611f6081611e53565b82525050565b5f602082019050611f795f830184611f57565b92915050565b5f8060408385031215611f9557611f94611d93565b5b5f611fa285828601611de1565b9250506020611fb385828601611e3f565b9150509250929050565b5f608082019050611fd05f830187611ec6565b611fdd6020830186611f57565b611fea6040830185611f57565b611ff76060830184611ec6565b95945050505050565b5f81519050919050565b5f82825260208201905092915050565b5f5b8381101561203757808201518184015260208101905061201c565b5f8484015250505050565b5f601f19601f8301169050919050565b5f61205c82612000565b612066818561200a565b935061207681856020860161201a565b61207f81612042565b840191505092915050565b61209381611dba565b82525050565b5f610120820190506120ad5f83018c611ec6565b81810360208301526120bf818b612052565b90506120ce604083018a61208a565b81810360608301526120e08189612052565b90506120ef608083018861208a565b81810360a08301526121018187612052565b905061211060c0830186611ec6565b61211d60e0830185611f57565b61212b610100830184611f57565b9a9950505050505050505050565b5f60408201905061214c5f830185611ec6565b6121596020830184611ec6565b9392505050565b5f6060820190506121735f830186611f57565b6121806020830185611ec6565b61218d6040830184611ec6565b949350505050565b5f80fd5b5f80fd5b7f4e487b71000000000000000000000000000000000000000000000000000000005f52604160045260245ffd5b6121d382612042565b810181811067ffffffffffffffff821117156121f2576121f161219d565b5b80604052505050565b5f612204611d8a565b905061221082826121ca565b919050565b5f67ffffffffffffffff82111561222f5761222e61219d565b5b61223882612042565b9050602081019050919050565b828183375f83830152505050565b5f61226561226084612215565b6121fb565b90508281526020810184848401111561228157612280612199565b5b61228c848285612245565b509392505050565b5f82601f8301126122a8576122a7612195565b5b81356122b8848260208601612253565b91505092915050565b5f805f80608085870312156122d9576122d8611d93565b5b5f85013567ffffffffffffffff8111156122f6576122f5611d97565b5b61230287828801612294565b945050602085013567ffffffffffffffff81111561232357612322611d97565b5b61232f87828801612294565b935050604061234087828801611de1565b925050606085013567ffffffffffffffff81111561236157612360611d97565b5b61236d87828801612294565b91505092959194509250565b5f60208201905061238c5f83018461208a565b92915050565b5f602082840312156123a7576123a6611d93565b5b5f82013567ffffffffffffffff8111156123c4576123c3611d97565b5b6123d084828501612294565b91505092915050565b5f6040820190508181035f8301526123f18185612052565b90506124006020830184611f57565b9392505050565b7f4143434553532044454e494544210000000000000000000000000000000000005f82015250565b5f61243b600e8361200a565b915061244682612407565b602082019050919050565b5f6020820190508181035f8301526124688161242f565b9050919050565b7f4e487b71000000000000000000000000000000000000000000000000000000005f52601160045260245ffd5b5f6124a682611e20565b91506124b183611e20565b92508282039050818111156124c9576124c861246f565b5b92915050565b5f6124d982611e20565b91506124e483611e20565b92508282019050808211156124fc576124fb61246f565b5b92915050565b7f4e487b71000000000000000000000000000000000000000000000000000000005f52602260045260245ffd5b5f600282049050600182168061254657607f821691505b60208210810361255957612558612502565b5b50919050565b7f494e56414c494420564f54452e20544f5049432049532043414e43454c4c45445f82015250565b5f61259360208361200a565b915061259e8261255f565b602082019050919050565b5f6020820190508181035f8301526125c081612587565b9050919050565b7f4e4f542041204d454d42455200000000000000000000000000000000000000005f82015250565b5f6125fb600c8361200a565b9150612606826125c7565b602082019050919050565b5f6020820190508181035f830152612628816125ef565b9050919050565b7f564f54494e4720504552494f442048415320454c4150534544000000000000005f82015250565b5f61266360198361200a565b915061266e8261262f565b602082019050919050565b5f6020820190508181035f83015261269081612657565b9050919050565b5f815190506126a581611e29565b92915050565b5f602082840312156126c0576126bf611d93565b5b5f6126cd84828501612697565b91505092915050565b7f594f55204d55535420504f5353455320544f4b454e7320544f20424520414e205f8201527f454c494749424c4520564f544552000000000000000000000000000000000000602082015250565b5f612730602e8361200a565b915061273b826126d6565b604082019050919050565b5f6020820190508181035f83015261275d81612724565b9050919050565b7f4d454d424552532043414e204f4e4c592043415354204120564f5445205045525f8201527f20544f5049430000000000000000000000000000000000000000000000000000602082015250565b5f6127be60268361200a565b91506127c982612764565b604082019050919050565b5f6020820190508181035f8301526127eb816127b2565b9050919050565b5f6040820190506128055f830185611ec6565b6128126020830184611f57565b9392505050565b5f6080820190508181035f8301526128318187612052565b905081810360208301526128458186612052565b9050612854604083018561208a565b81810360608301526128668184612052565b905095945050505050565b5f81519050919050565b5f81905092915050565b5f61288f82612871565b612899818561287b565b93506128a981856020860161201a565b80840191505092915050565b5f6128c08284612885565b915081905092915050565b7f4641494c454420544f20494e49544941544520544f50494300000000000000005f82015250565b5f6128ff60188361200a565b915061290a826128cb565b602082019050919050565b5f6020820190508181035f83015261292c816128f3565b9050919050565b7f4641494c454420544f20494d504c454d454e54204445434953494f4e000000005f82015250565b5f612967601c8361200a565b915061297282612933565b602082019050919050565b5f6020820190508181035f8301526129948161295b565b9050919050565b5f6020820190508181035f8301526129b38184612052565b905092915050565b7f4641494c454420544f20524547495354455200000000000000000000000000005f82015250565b5f6129ef60128361200a565b91506129fa826129bb565b602082019050919050565b5f6020820190508181035f830152612a1c816129e3565b9050919050565b7f4e487b71000000000000000000000000000000000000000000000000000000005f52601260045260245ffdfea2646970667358221220a14d8772797e86cfe4b72e2893048c6c2f4f4fbf632b12a3e819acf3b1a1df2d64736f6c63430008160033",
					"opcodes": "PUSH1 0x80 PUSH1 0x40 MSTORE PUSH1 0x1 PUSH1 0x9 SSTORE PUSH3 0x69780 PUSH1 0xA SSTORE PUSH3 0x15180 PUSH1 0xB SSTORE CALLVALUE DUP1 ISZERO PUSH3 0x23 JUMPI PUSH0 DUP1 REVERT JUMPDEST POP PUSH1 0x40 MLOAD PUSH3 0x2C65 CODESIZE SUB DUP1 PUSH3 0x2C65 DUP4 CODECOPY DUP2 DUP2 ADD PUSH1 0x40 MSTORE DUP2 ADD SWAP1 PUSH3 0x49 SWAP2 SWAP1 PUSH3 0x18C JUMP JUMPDEST DUP2 PUSH0 DUP1 PUSH2 0x100 EXP DUP2 SLOAD DUP2 PUSH20 0xFFFFFFFFFFFFFFFFFFFFFFFFFFFFFFFFFFFFFFFF MUL NOT AND SWAP1 DUP4 PUSH20 0xFFFFFFFFFFFFFFFFFFFFFFFFFFFFFFFFFFFFFFFF AND MUL OR SWAP1 SSTORE POP PUSH1 0x1 PUSH1 0x3 PUSH0 CALLER PUSH20 0xFFFFFFFFFFFFFFFFFFFFFFFFFFFFFFFFFFFFFFFF AND PUSH20 0xFFFFFFFFFFFFFFFFFFFFFFFFFFFFFFFFFFFFFFFF AND DUP2 MSTORE PUSH1 0x20 ADD SWAP1 DUP2 MSTORE PUSH1 0x20 ADD PUSH0 KECCAK256 PUSH0 ADD PUSH0 PUSH2 0x100 EXP DUP2 SLOAD DUP2 PUSH1 0xFF MUL NOT AND SWAP1 DUP4 ISZERO ISZERO MUL OR SWAP1 SSTORE POP DUP1 PUSH1 0x2 PUSH0 PUSH2 0x100 EXP DUP2 SLOAD DUP2 PUSH20 0xFFFFFFFFFFFFFFFFFFFFFFFFFFFFFFFFFFFFFFFF MUL NOT AND SWAP1 DUP4 PUSH20 0xFFFFFFFFFFFFFFFFFFFFFFFFFFFFFFFFFFFFFFFF AND MUL OR SWAP1 SSTORE POP POP POP PUSH3 0x1D1 JUMP JUMPDEST PUSH0 DUP1 REVERT JUMPDEST PUSH0 PUSH20 0xFFFFFFFFFFFFFFFFFFFFFFFFFFFFFFFFFFFFFFFF DUP3 AND SWAP1 POP SWAP2 SWAP1 POP JUMP JUMPDEST PUSH0 PUSH3 0x156 DUP3 PUSH3 0x12B JUMP JUMPDEST SWAP1 POP SWAP2 SWAP1 POP JUMP JUMPDEST PUSH3 0x168 DUP2 PUSH3 0x14A JUMP JUMPDEST DUP2 EQ PUSH3 0x173 JUMPI PUSH0 DUP1 REVERT JUMPDEST POP JUMP JUMPDEST PUSH0 DUP2 MLOAD SWAP1 POP PUSH3 0x186 DUP2 PUSH3 0x15D JUMP JUMPDEST SWAP3 SWAP2 POP POP JUMP JUMPDEST PUSH0 DUP1 PUSH1 0x40 DUP4 DUP6 SUB SLT ISZERO PUSH3 0x1A5 JUMPI PUSH3 0x1A4 PUSH3 0x127 JUMP JUMPDEST JUMPDEST PUSH0 PUSH3 0x1B4 DUP6 DUP3 DUP7 ADD PUSH3 0x176 JUMP JUMPDEST SWAP3 POP POP PUSH1 0x20 PUSH3 0x1C7 DUP6 DUP3 DUP7 ADD PUSH3 0x176 JUMP JUMPDEST SWAP2 POP POP SWAP3 POP SWAP3 SWAP1 POP JUMP JUMPDEST PUSH2 0x2A86 DUP1 PUSH3 0x1DF PUSH0 CODECOPY PUSH0 RETURN INVALID PUSH1 0x80 PUSH1 0x40 MSTORE PUSH1 0x4 CALLDATASIZE LT PUSH2 0x11E JUMPI PUSH0 CALLDATALOAD PUSH1 0xE0 SHR DUP1 PUSH4 0x63A846F8 GT PUSH2 0x9F JUMPI DUP1 PUSH4 0xA060ACFA GT PUSH2 0x63 JUMPI DUP1 PUSH4 0xA060ACFA EQ PUSH2 0x3F4 JUMPI DUP1 PUSH4 0xA0A67C58 EQ PUSH2 0x410 JUMPI DUP1 PUSH4 0xA58C14E2 EQ PUSH2 0x43A JUMPI DUP1 PUSH4 0xF2C298BE EQ PUSH2 0x464 JUMPI DUP1 PUSH4 0xFD0F0166 EQ PUSH2 0x48C JUMPI PUSH2 0x11E JUMP JUMPDEST DUP1 PUSH4 0x63A846F8 EQ PUSH2 0x312 JUMPI DUP1 PUSH4 0x67358C96 EQ PUSH2 0x350 JUMPI DUP1 PUSH4 0x6CB76408 EQ PUSH2 0x37A JUMPI DUP1 PUSH4 0x70480275 EQ PUSH2 0x3A4 JUMPI DUP1 PUSH4 0x7D1592F3 EQ PUSH2 0x3CC JUMPI PUSH2 0x11E JUMP JUMPDEST DUP1 PUSH4 0x54B598EC GT PUSH2 0xE6 JUMPI DUP1 PUSH4 0x54B598EC EQ PUSH2 0x200 JUMPI DUP1 PUSH4 0x5787C126 EQ PUSH2 0x23F JUMPI DUP1 PUSH4 0x5BB6D284 EQ PUSH2 0x267 JUMPI DUP1 PUSH4 0x5DF81330 EQ PUSH2 0x2AB JUMPI DUP1 PUSH4 0x61BC221A EQ PUSH2 0x2E8 JUMPI PUSH2 0x11E JUMP JUMPDEST DUP1 PUSH4 0x1785F53C EQ PUSH2 0x122 JUMPI DUP1 PUSH4 0x1C8DD214 EQ PUSH2 0x14A JUMPI DUP1 PUSH4 0x3153CEBC EQ PUSH2 0x172 JUMPI DUP1 PUSH4 0x33F794B5 EQ PUSH2 0x19C JUMPI DUP1 PUSH4 0x47411226 EQ PUSH2 0x1C4 JUMPI JUMPDEST PUSH0 DUP1 REVERT JUMPDEST CALLVALUE DUP1 ISZERO PUSH2 0x12D JUMPI PUSH0 DUP1 REVERT JUMPDEST POP PUSH2 0x148 PUSH1 0x4 DUP1 CALLDATASIZE SUB DUP2 ADD SWAP1 PUSH2 0x143 SWAP2 SWAP1 PUSH2 0x1DF5 JUMP JUMPDEST PUSH2 0x4C9 JUMP JUMPDEST STOP JUMPDEST CALLVALUE DUP1 ISZERO PUSH2 0x155 JUMPI PUSH0 DUP1 REVERT JUMPDEST POP PUSH2 0x170 PUSH1 0x4 DUP1 CALLDATASIZE SUB DUP2 ADD SWAP1 PUSH2 0x16B SWAP2 SWAP1 PUSH2 0x1E88 JUMP JUMPDEST PUSH2 0x770 JUMP JUMPDEST STOP JUMPDEST CALLVALUE DUP1 ISZERO PUSH2 0x17D JUMPI PUSH0 DUP1 REVERT JUMPDEST POP PUSH2 0x186 PUSH2 0xF46 JUMP JUMPDEST PUSH1 0x40 MLOAD PUSH2 0x193 SWAP2 SWAP1 PUSH2 0x1ED5 JUMP JUMPDEST PUSH1 0x40 MLOAD DUP1 SWAP2 SUB SWAP1 RETURN JUMPDEST CALLVALUE DUP1 ISZERO PUSH2 0x1A7 JUMPI PUSH0 DUP1 REVERT JUMPDEST POP PUSH2 0x1C2 PUSH1 0x4 DUP1 CALLDATASIZE SUB DUP2 ADD SWAP1 PUSH2 0x1BD SWAP2 SWAP1 PUSH2 0x1EEE JUMP JUMPDEST PUSH2 0xF4C JUMP JUMPDEST STOP JUMPDEST CALLVALUE DUP1 ISZERO PUSH2 0x1CF JUMPI PUSH0 DUP1 REVERT JUMPDEST POP PUSH2 0x1EA PUSH1 0x4 DUP1 CALLDATASIZE SUB DUP2 ADD SWAP1 PUSH2 0x1E5 SWAP2 SWAP1 PUSH2 0x1F19 JUMP JUMPDEST PUSH2 0x1007 JUMP JUMPDEST PUSH1 0x40 MLOAD PUSH2 0x1F7 SWAP2 SWAP1 PUSH2 0x1F66 JUMP JUMPDEST PUSH1 0x40 MLOAD DUP1 SWAP2 SUB SWAP1 RETURN JUMPDEST CALLVALUE DUP1 ISZERO PUSH2 0x20B JUMPI PUSH0 DUP1 REVERT JUMPDEST POP PUSH2 0x226 PUSH1 0x4 DUP1 CALLDATASIZE SUB DUP2 ADD SWAP1 PUSH2 0x221 SWAP2 SWAP1 PUSH2 0x1F7F JUMP JUMPDEST PUSH2 0x103C JUMP JUMPDEST PUSH1 0x40 MLOAD PUSH2 0x236 SWAP5 SWAP4 SWAP3 SWAP2 SWAP1 PUSH2 0x1FBD JUMP JUMPDEST PUSH1 0x40 MLOAD DUP1 SWAP2 SUB SWAP1 RETURN JUMPDEST CALLVALUE DUP1 ISZERO PUSH2 0x24A JUMPI PUSH0 DUP1 REVERT JUMPDEST POP PUSH2 0x265 PUSH1 0x4 DUP1 CALLDATASIZE SUB DUP2 ADD SWAP1 PUSH2 0x260 SWAP2 SWAP1 PUSH2 0x1DF5 JUMP JUMPDEST PUSH2 0x108C JUMP JUMPDEST STOP JUMPDEST CALLVALUE DUP1 ISZERO PUSH2 0x272 JUMPI PUSH0 DUP1 REVERT JUMPDEST POP PUSH2 0x28D PUSH1 0x4 DUP1 CALLDATASIZE SUB DUP2 ADD SWAP1 PUSH2 0x288 SWAP2 SWAP1 PUSH2 0x1EEE JUMP JUMPDEST PUSH2 0x115A JUMP JUMPDEST PUSH1 0x40 MLOAD PUSH2 0x2A2 SWAP10 SWAP9 SWAP8 SWAP7 SWAP6 SWAP5 SWAP4 SWAP3 SWAP2 SWAP1 PUSH2 0x2099 JUMP JUMPDEST PUSH1 0x40 MLOAD DUP1 SWAP2 SUB SWAP1 RETURN JUMPDEST CALLVALUE DUP1 ISZERO PUSH2 0x2B6 JUMPI PUSH0 DUP1 REVERT JUMPDEST POP PUSH2 0x2D1 PUSH1 0x4 DUP1 CALLDATASIZE SUB DUP2 ADD SWAP1 PUSH2 0x2CC SWAP2 SWAP1 PUSH2 0x1EEE JUMP JUMPDEST PUSH2 0x138D JUMP JUMPDEST PUSH1 0x40 MLOAD PUSH2 0x2DF SWAP3 SWAP2 SWAP1 PUSH2 0x2139 JUMP JUMPDEST PUSH1 0x40 MLOAD DUP1 SWAP2 SUB SWAP1 RETURN JUMPDEST CALLVALUE DUP1 ISZERO PUSH2 0x2F3 JUMPI PUSH0 DUP1 REVERT JUMPDEST POP PUSH2 0x2FC PUSH2 0x13AD JUMP JUMPDEST PUSH1 0x40 MLOAD PUSH2 0x309 SWAP2 SWAP1 PUSH2 0x1ED5 JUMP JUMPDEST PUSH1 0x40 MLOAD DUP1 SWAP2 SUB SWAP1 RETURN JUMPDEST CALLVALUE DUP1 ISZERO PUSH2 0x31D JUMPI PUSH0 DUP1 REVERT JUMPDEST POP PUSH2 0x338 PUSH1 0x4 DUP1 CALLDATASIZE SUB DUP2 ADD SWAP1 PUSH2 0x333 SWAP2 SWAP1 PUSH2 0x1DF5 JUMP JUMPDEST PUSH2 0x13B3 JUMP JUMPDEST PUSH1 0x40 MLOAD PUSH2 0x347 SWAP4 SWAP3 SWAP2 SWAP1 PUSH2 0x2160 JUMP JUMPDEST PUSH1 0x40 MLOAD DUP1 SWAP2 SUB SWAP1 RETURN JUMPDEST CALLVALUE DUP1 ISZERO PUSH2 0x35B JUMPI PUSH0 DUP1 REVERT JUMPDEST POP PUSH2 0x364 PUSH2 0x13E5 JUMP JUMPDEST PUSH1 0x40 MLOAD PUSH2 0x371 SWAP2 SWAP1 PUSH2 0x1ED5 JUMP JUMPDEST PUSH1 0x40 MLOAD DUP1 SWAP2 SUB SWAP1 RETURN JUMPDEST CALLVALUE DUP1 ISZERO PUSH2 0x385 JUMPI PUSH0 DUP1 REVERT JUMPDEST POP PUSH2 0x38E PUSH2 0x13EB JUMP JUMPDEST PUSH1 0x40 MLOAD PUSH2 0x39B SWAP2 SWAP1 PUSH2 0x1ED5 JUMP JUMPDEST PUSH1 0x40 MLOAD DUP1 SWAP2 SUB SWAP1 RETURN JUMPDEST CALLVALUE DUP1 ISZERO PUSH2 0x3AF JUMPI PUSH0 DUP1 REVERT JUMPDEST POP PUSH2 0x3CA PUSH1 0x4 DUP1 CALLDATASIZE SUB DUP2 ADD SWAP1 PUSH2 0x3C5 SWAP2 SWAP1 PUSH2 0x1DF5 JUMP JUMPDEST PUSH2 0x13F1 JUMP JUMPDEST STOP JUMPDEST CALLVALUE DUP1 ISZERO PUSH2 0x3D7 JUMPI PUSH0 DUP1 REVERT JUMPDEST POP PUSH2 0x3F2 PUSH1 0x4 DUP1 CALLDATASIZE SUB DUP2 ADD SWAP1 PUSH2 0x3ED SWAP2 SWAP1 PUSH2 0x22C1 JUMP JUMPDEST PUSH2 0x16ED JUMP JUMPDEST STOP JUMPDEST PUSH2 0x40E PUSH1 0x4 DUP1 CALLDATASIZE SUB DUP2 ADD SWAP1 PUSH2 0x409 SWAP2 SWAP1 PUSH2 0x1EEE JUMP JUMPDEST PUSH2 0x1854 JUMP JUMPDEST STOP JUMPDEST CALLVALUE DUP1 ISZERO PUSH2 0x41B JUMPI PUSH0 DUP1 REVERT JUMPDEST POP PUSH2 0x424 PUSH2 0x1A38 JUMP JUMPDEST PUSH1 0x40 MLOAD PUSH2 0x431 SWAP2 SWAP1 PUSH2 0x2379 JUMP JUMPDEST PUSH1 0x40 MLOAD DUP1 SWAP2 SUB SWAP1 RETURN JUMPDEST CALLVALUE DUP1 ISZERO PUSH2 0x445 JUMPI PUSH0 DUP1 REVERT JUMPDEST POP PUSH2 0x44E PUSH2 0x1A5B JUMP JUMPDEST PUSH1 0x40 MLOAD PUSH2 0x45B SWAP2 SWAP1 PUSH2 0x2379 JUMP JUMPDEST PUSH1 0x40 MLOAD DUP1 SWAP2 SUB SWAP1 RETURN JUMPDEST CALLVALUE DUP1 ISZERO PUSH2 0x46F JUMPI PUSH0 DUP1 REVERT JUMPDEST POP PUSH2 0x48A PUSH1 0x4 DUP1 CALLDATASIZE SUB DUP2 ADD SWAP1 PUSH2 0x485 SWAP2 SWAP1 PUSH2 0x2392 JUMP JUMPDEST PUSH2 0x1A80 JUMP JUMPDEST STOP JUMPDEST CALLVALUE DUP1 ISZERO PUSH2 0x497 JUMPI PUSH0 DUP1 REVERT JUMPDEST POP PUSH2 0x4B2 PUSH1 0x4 DUP1 CALLDATASIZE SUB DUP2 ADD SWAP1 PUSH2 0x4AD SWAP2 SWAP1 PUSH2 0x1DF5 JUMP JUMPDEST PUSH2 0x1BD9 JUMP JUMPDEST PUSH1 0x40 MLOAD PUSH2 0x4C0 SWAP3 SWAP2 SWAP1 PUSH2 0x23D9 JUMP JUMPDEST PUSH1 0x40 MLOAD DUP1 SWAP2 SUB SWAP1 RETURN JUMPDEST PUSH1 0x3 PUSH0 CALLER PUSH20 0xFFFFFFFFFFFFFFFFFFFFFFFFFFFFFFFFFFFFFFFF AND PUSH20 0xFFFFFFFFFFFFFFFFFFFFFFFFFFFFFFFFFFFFFFFF AND DUP2 MSTORE PUSH1 0x20 ADD SWAP1 DUP2 MSTORE PUSH1 0x20 ADD PUSH0 KECCAK256 PUSH0 ADD PUSH0 SWAP1 SLOAD SWAP1 PUSH2 0x100 EXP SWAP1 DIV PUSH1 0xFF AND PUSH2 0x554 JUMPI PUSH1 0x40 MLOAD PUSH32 0x8C379A000000000000000000000000000000000000000000000000000000000 DUP2 MSTORE PUSH1 0x4 ADD PUSH2 0x54B SWAP1 PUSH2 0x2451 JUMP JUMPDEST PUSH1 0x40 MLOAD DUP1 SWAP2 SUB SWAP1 REVERT JUMPDEST PUSH1 0x1 PUSH1 0x4 DUP1 SLOAD SWAP1 POP PUSH2 0x566 SWAP2 SWAP1 PUSH2 0x249C JUMP JUMPDEST PUSH1 0x3 PUSH0 DUP4 PUSH20 0xFFFFFFFFFFFFFFFFFFFFFFFFFFFFFFFFFFFFFFFF AND PUSH20 0xFFFFFFFFFFFFFFFFFFFFFFFFFFFFFFFFFFFFFFFF AND DUP2 MSTORE PUSH1 0x20 ADD SWAP1 DUP2 MSTORE PUSH1 0x20 ADD PUSH0 KECCAK256 PUSH1 0x1 ADD SLOAD LT PUSH2 0x698 JUMPI PUSH0 PUSH1 0x3 PUSH0 DUP4 PUSH20 0xFFFFFFFFFFFFFFFFFFFFFFFFFFFFFFFFFFFFFFFF AND PUSH20 0xFFFFFFFFFFFFFFFFFFFFFFFFFFFFFFFFFFFFFFFF AND DUP2 MSTORE PUSH1 0x20 ADD SWAP1 DUP2 MSTORE PUSH1 0x20 ADD PUSH0 KECCAK256 PUSH0 ADD PUSH0 PUSH2 0x100 EXP DUP2 SLOAD DUP2 PUSH1 0xFF MUL NOT AND SWAP1 DUP4 ISZERO ISZERO MUL OR SWAP1 SSTORE POP PUSH1 0x1 PUSH1 0x3 PUSH0 DUP4 PUSH20 0xFFFFFFFFFFFFFFFFFFFFFFFFFFFFFFFFFFFFFFFF AND PUSH20 0xFFFFFFFFFFFFFFFFFFFFFFFFFFFFFFFFFFFFFFFF AND DUP2 MSTORE PUSH1 0x20 ADD SWAP1 DUP2 MSTORE PUSH1 0x20 ADD PUSH0 KECCAK256 PUSH1 0x1 ADD SLOAD PUSH2 0x64F SWAP2 SWAP1 PUSH2 0x24CF JUMP JUMPDEST PUSH1 0x3 PUSH0 DUP4 PUSH20 0xFFFFFFFFFFFFFFFFFFFFFFFFFFFFFFFFFFFFFFFF AND PUSH20 0xFFFFFFFFFFFFFFFFFFFFFFFFFFFFFFFFFFFFFFFF AND DUP2 MSTORE PUSH1 0x20 ADD SWAP1 DUP2 MSTORE PUSH1 0x20 ADD PUSH0 KECCAK256 PUSH1 0x1 ADD DUP2 SWAP1 SSTORE POP PUSH2 0x72A JUMP JUMPDEST PUSH1 0x1 PUSH1 0x3 PUSH0 DUP4 PUSH20 0xFFFFFFFFFFFFFFFFFFFFFFFFFFFFFFFFFFFFFFFF AND PUSH20 0xFFFFFFFFFFFFFFFFFFFFFFFFFFFFFFFFFFFFFFFF AND DUP2 MSTORE PUSH1 0x20 ADD SWAP1 DUP2 MSTORE PUSH1 0x20 ADD PUSH0 KECCAK256 PUSH1 0x1 ADD SLOAD PUSH2 0x6E5 SWAP2 SWAP1 PUSH2 0x24CF JUMP JUMPDEST PUSH1 0x3 PUSH0 DUP4 PUSH20 0xFFFFFFFFFFFFFFFFFFFFFFFFFFFFFFFFFFFFFFFF AND PUSH20 0xFFFFFFFFFFFFFFFFFFFFFFFFFFFFFFFFFFFFFFFF AND DUP2 MSTORE PUSH1 0x20 ADD SWAP1 DUP2 MSTORE PUSH1 0x20 ADD PUSH0 KECCAK256 PUSH1 0x1 ADD DUP2 SWAP1 SSTORE POP JUMPDEST DUP1 PUSH20 0xFFFFFFFFFFFFFFFFFFFFFFFFFFFFFFFFFFFFFFFF AND PUSH32 0x923ABEF5EA1E37AC38F56A77B8133D215C1D3BCD2E3DD88A6120D34F933F3DDE PUSH1 0x40 MLOAD PUSH1 0x40 MLOAD DUP1 SWAP2 SUB SWAP1 LOG2 POP JUMP JUMPDEST PUSH0 PUSH1 0x8 PUSH0 DUP5 DUP2 MSTORE PUSH1 0x20 ADD SWAP1 DUP2 MSTORE PUSH1 0x20 ADD PUSH0 KECCAK256 PUSH1 0x40 MLOAD DUP1 PUSH2 0x120 ADD PUSH1 0x40 MSTORE SWAP1 DUP2 PUSH0 DUP3 ADD SLOAD DUP2 MSTORE PUSH1 0x20 ADD PUSH1 0x1 DUP3 ADD DUP1 SLOAD PUSH2 0x7A7 SWAP1 PUSH2 0x252F JUMP JUMPDEST DUP1 PUSH1 0x1F ADD PUSH1 0x20 DUP1 SWAP2 DIV MUL PUSH1 0x20 ADD PUSH1 0x40 MLOAD SWAP1 DUP2 ADD PUSH1 0x40 MSTORE DUP1 SWAP3 SWAP2 SWAP1 DUP2 DUP2 MSTORE PUSH1 0x20 ADD DUP3 DUP1 SLOAD PUSH2 0x7D3 SWAP1 PUSH2 0x252F JUMP JUMPDEST DUP1 ISZERO PUSH2 0x81E JUMPI DUP1 PUSH1 0x1F LT PUSH2 0x7F5 JUMPI PUSH2 0x100 DUP1 DUP4 SLOAD DIV MUL DUP4 MSTORE SWAP2 PUSH1 0x20 ADD SWAP2 PUSH2 0x81E JUMP JUMPDEST DUP3 ADD SWAP2 SWAP1 PUSH0 MSTORE PUSH1 0x20 PUSH0 KECCAK256 SWAP1 JUMPDEST DUP2 SLOAD DUP2 MSTORE SWAP1 PUSH1 0x1 ADD SWAP1 PUSH1 0x20 ADD DUP1 DUP4 GT PUSH2 0x801 JUMPI DUP3 SWAP1 SUB PUSH1 0x1F AND DUP3 ADD SWAP2 JUMPDEST POP POP POP POP POP DUP2 MSTORE PUSH1 0x20 ADD PUSH1 0x2 DUP3 ADD PUSH0 SWAP1 SLOAD SWAP1 PUSH2 0x100 EXP SWAP1 DIV PUSH20 0xFFFFFFFFFFFFFFFFFFFFFFFFFFFFFFFFFFFFFFFF AND PUSH20 0xFFFFFFFFFFFFFFFFFFFFFFFFFFFFFFFFFFFFFFFF AND PUSH20 0xFFFFFFFFFFFFFFFFFFFFFFFFFFFFFFFFFFFFFFFF AND DUP2 MSTORE PUSH1 0x20 ADD PUSH1 0x3 DUP3 ADD DUP1 SLOAD PUSH2 0x88C SWAP1 PUSH2 0x252F JUMP JUMPDEST DUP1 PUSH1 0x1F ADD PUSH1 0x20 DUP1 SWAP2 DIV MUL PUSH1 0x20 ADD PUSH1 0x40 MLOAD SWAP1 DUP2 ADD PUSH1 0x40 MSTORE DUP1 SWAP3 SWAP2 SWAP1 DUP2 DUP2 MSTORE PUSH1 0x20 ADD DUP3 DUP1 SLOAD PUSH2 0x8B8 SWAP1 PUSH2 0x252F JUMP JUMPDEST DUP1 ISZERO PUSH2 0x903 JUMPI DUP1 PUSH1 0x1F LT PUSH2 0x8DA JUMPI PUSH2 0x100 DUP1 DUP4 SLOAD DIV MUL DUP4 MSTORE SWAP2 PUSH1 0x20 ADD SWAP2 PUSH2 0x903 JUMP JUMPDEST DUP3 ADD SWAP2 SWAP1 PUSH0 MSTORE PUSH1 0x20 PUSH0 KECCAK256 SWAP1 JUMPDEST DUP2 SLOAD DUP2 MSTORE SWAP1 PUSH1 0x1 ADD SWAP1 PUSH1 0x20 ADD DUP1 DUP4 GT PUSH2 0x8E6 JUMPI DUP3 SWAP1 SUB PUSH1 0x1F AND DUP3 ADD SWAP2 JUMPDEST POP POP POP POP POP DUP2 MSTORE PUSH1 0x20 ADD PUSH1 0x4 DUP3 ADD PUSH0 SWAP1 SLOAD SWAP1 PUSH2 0x100 EXP SWAP1 DIV PUSH20 0xFFFFFFFFFFFFFFFFFFFFFFFFFFFFFFFFFFFFFFFF AND PUSH20 0xFFFFFFFFFFFFFFFFFFFFFFFFFFFFFFFFFFFFFFFF AND PUSH20 0xFFFFFFFFFFFFFFFFFFFFFFFFFFFFFFFFFFFFFFFF AND DUP2 MSTORE PUSH1 0x20 ADD PUSH1 0x5 DUP3 ADD DUP1 SLOAD PUSH2 0x971 SWAP1 PUSH2 0x252F JUMP JUMPDEST DUP1 PUSH1 0x1F ADD PUSH1 0x20 DUP1 SWAP2 DIV MUL PUSH1 0x20 ADD PUSH1 0x40 MLOAD SWAP1 DUP2 ADD PUSH1 0x40 MSTORE DUP1 SWAP3 SWAP2 SWAP1 DUP2 DUP2 MSTORE PUSH1 0x20 ADD DUP3 DUP1 SLOAD PUSH2 0x99D SWAP1 PUSH2 0x252F JUMP JUMPDEST DUP1 ISZERO PUSH2 0x9E8 JUMPI DUP1 PUSH1 0x1F LT PUSH2 0x9BF JUMPI PUSH2 0x100 DUP1 DUP4 SLOAD DIV MUL DUP4 MSTORE SWAP2 PUSH1 0x20 ADD SWAP2 PUSH2 0x9E8 JUMP JUMPDEST DUP3 ADD SWAP2 SWAP1 PUSH0 MSTORE PUSH1 0x20 PUSH0 KECCAK256 SWAP1 JUMPDEST DUP2 SLOAD DUP2 MSTORE SWAP1 PUSH1 0x1 ADD SWAP1 PUSH1 0x20 ADD DUP1 DUP4 GT PUSH2 0x9CB JUMPI DUP3 SWAP1 SUB PUSH1 0x1F AND DUP3 ADD SWAP2 JUMPDEST POP POP POP POP POP DUP2 MSTORE PUSH1 0x20 ADD PUSH1 0x6 DUP3 ADD SLOAD DUP2 MSTORE PUSH1 0x20 ADD PUSH1 0x7 DUP3 ADD PUSH0 SWAP1 SLOAD SWAP1 PUSH2 0x100 EXP SWAP1 DIV PUSH1 0xFF AND ISZERO ISZERO ISZERO ISZERO DUP2 MSTORE PUSH1 0x20 ADD PUSH1 0x7 DUP3 ADD PUSH1 0x1 SWAP1 SLOAD SWAP1 PUSH2 0x100 EXP SWAP1 DIV PUSH1 0xFF AND ISZERO ISZERO ISZERO ISZERO DUP2 MSTORE POP POP SWAP1 POP PUSH0 DUP1 PUSH0 SWAP1 SLOAD SWAP1 PUSH2 0x100 EXP SWAP1 DIV PUSH20 0xFFFFFFFFFFFFFFFFFFFFFFFFFFFFFFFFFFFFFFFF AND SWAP1 POP DUP2 PUSH2 0x100 ADD MLOAD ISZERO PUSH2 0xA9C JUMPI PUSH1 0x40 MLOAD PUSH32 0x8C379A000000000000000000000000000000000000000000000000000000000 DUP2 MSTORE PUSH1 0x4 ADD PUSH2 0xA93 SWAP1 PUSH2 0x25A9 JUMP JUMPDEST PUSH1 0x40 MLOAD DUP1 SWAP2 SUB SWAP1 REVERT JUMPDEST PUSH1 0x5 PUSH0 CALLER PUSH20 0xFFFFFFFFFFFFFFFFFFFFFFFFFFFFFFFFFFFFFFFF AND PUSH20 0xFFFFFFFFFFFFFFFFFFFFFFFFFFFFFFFFFFFFFFFF AND DUP2 MSTORE PUSH1 0x20 ADD SWAP1 DUP2 MSTORE PUSH1 0x20 ADD PUSH0 KECCAK256 PUSH1 0x1 ADD PUSH0 SWAP1 SLOAD SWAP1 PUSH2 0x100 EXP SWAP1 DIV PUSH1 0xFF AND PUSH2 0xB28 JUMPI PUSH1 0x40 MLOAD PUSH32 0x8C379A000000000000000000000000000000000000000000000000000000000 DUP2 MSTORE PUSH1 0x4 ADD PUSH2 0xB1F SWAP1 PUSH2 0x2611 JUMP JUMPDEST PUSH1 0x40 MLOAD DUP1 SWAP2 SUB SWAP1 REVERT JUMPDEST PUSH0 DUP3 PUSH1 0xC0 ADD MLOAD PUSH1 0xA SLOAD PUSH2 0xB3B SWAP2 SWAP1 PUSH2 0x24CF JUMP JUMPDEST SWAP1 POP TIMESTAMP DUP2 GT PUSH2 0xB7F JUMPI PUSH1 0x40 MLOAD PUSH32 0x8C379A000000000000000000000000000000000000000000000000000000000 DUP2 MSTORE PUSH1 0x4 ADD PUSH2 0xB76 SWAP1 PUSH2 0x2679 JUMP JUMPDEST PUSH1 0x40 MLOAD DUP1 SWAP2 SUB SWAP1 REVERT JUMPDEST PUSH0 DUP3 PUSH20 0xFFFFFFFFFFFFFFFFFFFFFFFFFFFFFFFFFFFFFFFF AND PUSH4 0x70A08231 CALLER PUSH1 0x40 MLOAD DUP3 PUSH4 0xFFFFFFFF AND PUSH1 0xE0 SHL DUP2 MSTORE PUSH1 0x4 ADD PUSH2 0xBB9 SWAP2 SWAP1 PUSH2 0x2379 JUMP JUMPDEST PUSH1 0x20 PUSH1 0x40 MLOAD DUP1 DUP4 SUB DUP2 DUP7 GAS STATICCALL ISZERO DUP1 ISZERO PUSH2 0xBD4 JUMPI RETURNDATASIZE PUSH0 DUP1 RETURNDATACOPY RETURNDATASIZE PUSH0 REVERT JUMPDEST POP POP POP POP PUSH1 0x40 MLOAD RETURNDATASIZE PUSH1 0x1F NOT PUSH1 0x1F DUP3 ADD AND DUP3 ADD DUP1 PUSH1 0x40 MSTORE POP DUP2 ADD SWAP1 PUSH2 0xBF8 SWAP2 SWAP1 PUSH2 0x26AB JUMP JUMPDEST GT PUSH2 0xC38 JUMPI PUSH1 0x40 MLOAD PUSH32 0x8C379A000000000000000000000000000000000000000000000000000000000 DUP2 MSTORE PUSH1 0x4 ADD PUSH2 0xC2F SWAP1 PUSH2 0x2746 JUMP JUMPDEST PUSH1 0x40 MLOAD DUP1 SWAP2 SUB SWAP1 REVERT JUMPDEST PUSH0 DUP3 PUSH20 0xFFFFFFFFFFFFFFFFFFFFFFFFFFFFFFFFFFFFFFFF AND PUSH4 0x70A08231 CALLER PUSH1 0x40 MLOAD DUP3 PUSH4 0xFFFFFFFF AND PUSH1 0xE0 SHL DUP2 MSTORE PUSH1 0x4 ADD PUSH2 0xC72 SWAP2 SWAP1 PUSH2 0x2379 JUMP JUMPDEST PUSH1 0x20 PUSH1 0x40 MLOAD DUP1 DUP4 SUB DUP2 DUP7 GAS STATICCALL ISZERO DUP1 ISZERO PUSH2 0xC8D JUMPI RETURNDATASIZE PUSH0 DUP1 RETURNDATACOPY RETURNDATASIZE PUSH0 REVERT JUMPDEST POP POP POP POP PUSH1 0x40 MLOAD RETURNDATASIZE PUSH1 0x1F NOT PUSH1 0x1F DUP3 ADD AND DUP3 ADD DUP1 PUSH1 0x40 MSTORE POP DUP2 ADD SWAP1 PUSH2 0xCB1 SWAP2 SWAP1 PUSH2 0x26AB JUMP JUMPDEST SWAP1 POP PUSH1 0x6 PUSH0 CALLER PUSH20 0xFFFFFFFFFFFFFFFFFFFFFFFFFFFFFFFFFFFFFFFF AND PUSH20 0xFFFFFFFFFFFFFFFFFFFFFFFFFFFFFFFFFFFFFFFF AND DUP2 MSTORE PUSH1 0x20 ADD SWAP1 DUP2 MSTORE PUSH1 0x20 ADD PUSH0 KECCAK256 PUSH0 DUP8 DUP2 MSTORE PUSH1 0x20 ADD SWAP1 DUP2 MSTORE PUSH1 0x20 ADD PUSH0 KECCAK256 PUSH1 0x1 ADD PUSH1 0x1 SWAP1 SLOAD SWAP1 PUSH2 0x100 EXP SWAP1 DIV PUSH1 0xFF AND ISZERO PUSH2 0xD50 JUMPI PUSH1 0x40 MLOAD PUSH32 0x8C379A000000000000000000000000000000000000000000000000000000000 DUP2 MSTORE PUSH1 0x4 ADD PUSH2 0xD47 SWAP1 PUSH2 0x27D4 JUMP JUMPDEST PUSH1 0x40 MLOAD DUP1 SWAP2 SUB SWAP1 REVERT JUMPDEST PUSH1 0x40 MLOAD DUP1 PUSH1 0x80 ADD PUSH1 0x40 MSTORE DUP1 DUP8 DUP2 MSTORE PUSH1 0x20 ADD DUP7 ISZERO ISZERO DUP2 MSTORE PUSH1 0x20 ADD PUSH1 0x1 ISZERO ISZERO DUP2 MSTORE PUSH1 0x20 ADD DUP3 DUP2 MSTORE POP PUSH1 0x6 PUSH0 CALLER PUSH20 0xFFFFFFFFFFFFFFFFFFFFFFFFFFFFFFFFFFFFFFFF AND PUSH20 0xFFFFFFFFFFFFFFFFFFFFFFFFFFFFFFFFFFFFFFFF AND DUP2 MSTORE PUSH1 0x20 ADD SWAP1 DUP2 MSTORE PUSH1 0x20 ADD PUSH0 KECCAK256 PUSH0 DUP9 DUP2 MSTORE PUSH1 0x20 ADD SWAP1 DUP2 MSTORE PUSH1 0x20 ADD PUSH0 KECCAK256 PUSH0 DUP3 ADD MLOAD DUP2 PUSH0 ADD SSTORE PUSH1 0x20 DUP3 ADD MLOAD DUP2 PUSH1 0x1 ADD PUSH0 PUSH2 0x100 EXP DUP2 SLOAD DUP2 PUSH1 0xFF MUL NOT AND SWAP1 DUP4 ISZERO ISZERO MUL OR SWAP1 SSTORE POP PUSH1 0x40 DUP3 ADD MLOAD DUP2 PUSH1 0x1 ADD PUSH1 0x1 PUSH2 0x100 EXP DUP2 SLOAD DUP2 PUSH1 0xFF MUL NOT AND SWAP1 DUP4 ISZERO ISZERO MUL OR SWAP1 SSTORE POP PUSH1 0x60 DUP3 ADD MLOAD DUP2 PUSH1 0x2 ADD SSTORE SWAP1 POP POP PUSH1 0x6 PUSH0 CALLER PUSH20 0xFFFFFFFFFFFFFFFFFFFFFFFFFFFFFFFFFFFFFFFF AND PUSH20 0xFFFFFFFFFFFFFFFFFFFFFFFFFFFFFFFFFFFFFFFF AND DUP2 MSTORE PUSH1 0x20 ADD SWAP1 DUP2 MSTORE PUSH1 0x20 ADD PUSH0 KECCAK256 PUSH0 DUP8 DUP2 MSTORE PUSH1 0x20 ADD SWAP1 DUP2 MSTORE PUSH1 0x20 ADD PUSH0 KECCAK256 PUSH1 0x1 ADD PUSH0 SWAP1 SLOAD SWAP1 PUSH2 0x100 EXP SWAP1 DIV PUSH1 0xFF AND ISZERO PUSH2 0xEB2 JUMPI DUP1 PUSH1 0x7 PUSH0 DUP9 DUP2 MSTORE PUSH1 0x20 ADD SWAP1 DUP2 MSTORE PUSH1 0x20 ADD PUSH0 KECCAK256 PUSH0 ADD SLOAD PUSH2 0xE96 SWAP2 SWAP1 PUSH2 0x24CF JUMP JUMPDEST PUSH1 0x7 PUSH0 DUP9 DUP2 MSTORE PUSH1 0x20 ADD SWAP1 DUP2 MSTORE PUSH1 0x20 ADD PUSH0 KECCAK256 PUSH0 ADD DUP2 SWAP1 SSTORE POP PUSH2 0xEEB JUMP JUMPDEST DUP1 PUSH1 0x7 PUSH0 DUP9 DUP2 MSTORE PUSH1 0x20 ADD SWAP1 DUP2 MSTORE PUSH1 0x20 ADD PUSH0 KECCAK256 PUSH1 0x1 ADD SLOAD PUSH2 0xED2 SWAP2 SWAP1 PUSH2 0x24CF JUMP JUMPDEST PUSH1 0x7 PUSH0 DUP9 DUP2 MSTORE PUSH1 0x20 ADD SWAP1 DUP2 MSTORE PUSH1 0x20 ADD PUSH0 KECCAK256 PUSH1 0x1 ADD DUP2 SWAP1 SSTORE POP JUMPDEST CALLER PUSH20 0xFFFFFFFFFFFFFFFFFFFFFFFFFFFFFFFFFFFFFFFF AND PUSH32 0x4F7FF1C79E536D7FEF60CCB53BEB6009E08841FFCBA10E515E076F4CBDD9E320 DUP6 PUSH0 ADD MLOAD DUP8 PUSH1 0x40 MLOAD PUSH2 0xF36 SWAP3 SWAP2 SWAP1 PUSH2 0x27F2 JUMP JUMPDEST PUSH1 0x40 MLOAD DUP1 SWAP2 SUB SWAP1 LOG2 POP POP POP POP POP POP JUMP JUMPDEST PUSH1 0xA SLOAD DUP2 JUMP JUMPDEST PUSH1 0x3 PUSH0 CALLER PUSH20 0xFFFFFFFFFFFFFFFFFFFFFFFFFFFFFFFFFFFFFFFF AND PUSH20 0xFFFFFFFFFFFFFFFFFFFFFFFFFFFFFFFFFFFFFFFF AND DUP2 MSTORE PUSH1 0x20 ADD SWAP1 DUP2 MSTORE PUSH1 0x20 ADD PUSH0 KECCAK256 PUSH0 ADD PUSH0 SWAP1 SLOAD SWAP1 PUSH2 0x100 EXP SWAP1 DIV PUSH1 0xFF AND PUSH2 0xFD7 JUMPI PUSH1 0x40 MLOAD PUSH32 0x8C379A000000000000000000000000000000000000000000000000000000000 DUP2 MSTORE PUSH1 0x4 ADD PUSH2 0xFCE SWAP1 PUSH2 0x2451 JUMP JUMPDEST PUSH1 0x40 MLOAD DUP1 SWAP2 SUB SWAP1 REVERT JUMPDEST PUSH1 0x1 PUSH1 0x8 PUSH0 DUP4 DUP2 MSTORE PUSH1 0x20 ADD SWAP1 DUP2 MSTORE PUSH1 0x20 ADD PUSH0 KECCAK256 PUSH1 0x7 ADD PUSH1 0x1 PUSH2 0x100 EXP DUP2 SLOAD DUP2 PUSH1 0xFF MUL NOT AND SWAP1 DUP4 ISZERO ISZERO MUL OR SWAP1 SSTORE POP POP JUMP JUMPDEST PUSH0 DUP1 PUSH2 0x1020 PUSH1 0x3C PUSH1 0x64 DUP6 PUSH2 0x1C8B SWAP1 SWAP3 SWAP2 SWAP1 PUSH4 0xFFFFFFFF AND JUMP JUMPDEST SWAP1 POP DUP1 DUP5 LT ISZERO PUSH2 0x1030 JUMPI PUSH0 PUSH2 0x1033 JUMP JUMPDEST PUSH1 0x1 JUMPDEST SWAP2 POP POP SWAP3 SWAP2 POP POP JUMP JUMPDEST PUSH1 0x6 PUSH1 0x20 MSTORE DUP2 PUSH0 MSTORE PUSH1 0x40 PUSH0 KECCAK256 PUSH1 0x20 MSTORE DUP1 PUSH0 MSTORE PUSH1 0x40 PUSH0 KECCAK256 PUSH0 SWAP2 POP SWAP2 POP POP DUP1 PUSH0 ADD SLOAD SWAP1 DUP1 PUSH1 0x1 ADD PUSH0 SWAP1 SLOAD SWAP1 PUSH2 0x100 EXP SWAP1 DIV PUSH1 0xFF AND SWAP1 DUP1 PUSH1 0x1 ADD PUSH1 0x1 SWAP1 SLOAD SWAP1 PUSH2 0x100 EXP SWAP1 DIV PUSH1 0xFF AND SWAP1 DUP1 PUSH1 0x2 ADD SLOAD SWAP1 POP DUP5 JUMP JUMPDEST PUSH1 0x3 PUSH0 CALLER PUSH20 0xFFFFFFFFFFFFFFFFFFFFFFFFFFFFFFFFFFFFFFFF AND PUSH20 0xFFFFFFFFFFFFFFFFFFFFFFFFFFFFFFFFFFFFFFFF AND DUP2 MSTORE PUSH1 0x20 ADD SWAP1 DUP2 MSTORE PUSH1 0x20 ADD PUSH0 KECCAK256 PUSH0 ADD PUSH0 SWAP1 SLOAD SWAP1 PUSH2 0x100 EXP SWAP1 DIV PUSH1 0xFF AND PUSH2 0x1117 JUMPI PUSH1 0x40 MLOAD PUSH32 0x8C379A000000000000000000000000000000000000000000000000000000000 DUP2 MSTORE PUSH1 0x4 ADD PUSH2 0x110E SWAP1 PUSH2 0x2451 JUMP JUMPDEST PUSH1 0x40 MLOAD DUP1 SWAP2 SUB SWAP1 REVERT JUMPDEST DUP1 PUSH1 0x2 PUSH0 PUSH2 0x100 EXP DUP2 SLOAD DUP2 PUSH20 0xFFFFFFFFFFFFFFFFFFFFFFFFFFFFFFFFFFFFFFFF MUL NOT AND SWAP1 DUP4 PUSH20 0xFFFFFFFFFFFFFFFFFFFFFFFFFFFFFFFFFFFFFFFF AND MUL OR SWAP1 SSTORE POP POP JUMP JUMPDEST PUSH1 0x8 PUSH1 0x20 MSTORE DUP1 PUSH0 MSTORE PUSH1 0x40 PUSH0 KECCAK256 PUSH0 SWAP2 POP SWAP1 POP DUP1 PUSH0 ADD SLOAD SWAP1 DUP1 PUSH1 0x1 ADD DUP1 SLOAD PUSH2 0x117F SWAP1 PUSH2 0x252F JUMP JUMPDEST DUP1 PUSH1 0x1F ADD PUSH1 0x20 DUP1 SWAP2 DIV MUL PUSH1 0x20 ADD PUSH1 0x40 MLOAD SWAP1 DUP2 ADD PUSH1 0x40 MSTORE DUP1 SWAP3 SWAP2 SWAP1 DUP2 DUP2 MSTORE PUSH1 0x20 ADD DUP3 DUP1 SLOAD PUSH2 0x11AB SWAP1 PUSH2 0x252F JUMP JUMPDEST DUP1 ISZERO PUSH2 0x11F6 JUMPI DUP1 PUSH1 0x1F LT PUSH2 0x11CD JUMPI PUSH2 0x100 DUP1 DUP4 SLOAD DIV MUL DUP4 MSTORE SWAP2 PUSH1 0x20 ADD SWAP2 PUSH2 0x11F6 JUMP JUMPDEST DUP3 ADD SWAP2 SWAP1 PUSH0 MSTORE PUSH1 0x20 PUSH0 KECCAK256 SWAP1 JUMPDEST DUP2 SLOAD DUP2 MSTORE SWAP1 PUSH1 0x1 ADD SWAP1 PUSH1 0x20 ADD DUP1 DUP4 GT PUSH2 0x11D9 JUMPI DUP3 SWAP1 SUB PUSH1 0x1F AND DUP3 ADD SWAP2 JUMPDEST POP POP POP POP POP SWAP1 DUP1 PUSH1 0x2 ADD PUSH0 SWAP1 SLOAD SWAP1 PUSH2 0x100 EXP SWAP1 DIV PUSH20 0xFFFFFFFFFFFFFFFFFFFFFFFFFFFFFFFFFFFFFFFF AND SWAP1 DUP1 PUSH1 0x3 ADD DUP1 SLOAD PUSH2 0x1230 SWAP1 PUSH2 0x252F JUMP JUMPDEST DUP1 PUSH1 0x1F ADD PUSH1 0x20 DUP1 SWAP2 DIV MUL PUSH1 0x20 ADD PUSH1 0x40 MLOAD SWAP1 DUP2 ADD PUSH1 0x40 MSTORE DUP1 SWAP3 SWAP2 SWAP1 DUP2 DUP2 MSTORE PUSH1 0x20 ADD DUP3 DUP1 SLOAD PUSH2 0x125C SWAP1 PUSH2 0x252F JUMP JUMPDEST DUP1 ISZERO PUSH2 0x12A7 JUMPI DUP1 PUSH1 0x1F LT PUSH2 0x127E JUMPI PUSH2 0x100 DUP1 DUP4 SLOAD DIV MUL DUP4 MSTORE SWAP2 PUSH1 0x20 ADD SWAP2 PUSH2 0x12A7 JUMP JUMPDEST DUP3 ADD SWAP2 SWAP1 PUSH0 MSTORE PUSH1 0x20 PUSH0 KECCAK256 SWAP1 JUMPDEST DUP2 SLOAD DUP2 MSTORE SWAP1 PUSH1 0x1 ADD SWAP1 PUSH1 0x20 ADD DUP1 DUP4 GT PUSH2 0x128A JUMPI DUP3 SWAP1 SUB PUSH1 0x1F AND DUP3 ADD SWAP2 JUMPDEST POP POP POP POP POP SWAP1 DUP1 PUSH1 0x4 ADD PUSH0 SWAP1 SLOAD SWAP1 PUSH2 0x100 EXP SWAP1 DIV PUSH20 0xFFFFFFFFFFFFFFFFFFFFFFFFFFFFFFFFFFFFFFFF AND SWAP1 DUP1 PUSH1 0x5 ADD DUP1 SLOAD PUSH2 0x12E1 SWAP1 PUSH2 0x252F JUMP JUMPDEST DUP1 PUSH1 0x1F ADD PUSH1 0x20 DUP1 SWAP2 DIV MUL PUSH1 0x20 ADD PUSH1 0x40 MLOAD SWAP1 DUP2 ADD PUSH1 0x40 MSTORE DUP1 SWAP3 SWAP2 SWAP1 DUP2 DUP2 MSTORE PUSH1 0x20 ADD DUP3 DUP1 SLOAD PUSH2 0x130D SWAP1 PUSH2 0x252F JUMP JUMPDEST DUP1 ISZERO PUSH2 0x1358 JUMPI DUP1 PUSH1 0x1F LT PUSH2 0x132F JUMPI PUSH2 0x100 DUP1 DUP4 SLOAD DIV MUL DUP4 MSTORE SWAP2 PUSH1 0x20 ADD SWAP2 PUSH2 0x1358 JUMP JUMPDEST DUP3 ADD SWAP2 SWAP1 PUSH0 MSTORE PUSH1 0x20 PUSH0 KECCAK256 SWAP1 JUMPDEST DUP2 SLOAD DUP2 MSTORE SWAP1 PUSH1 0x1 ADD SWAP1 PUSH1 0x20 ADD DUP1 DUP4 GT PUSH2 0x133B JUMPI DUP3 SWAP1 SUB PUSH1 0x1F AND DUP3 ADD SWAP2 JUMPDEST POP POP POP POP POP SWAP1 DUP1 PUSH1 0x6 ADD SLOAD SWAP1 DUP1 PUSH1 0x7 ADD PUSH0 SWAP1 SLOAD SWAP1 PUSH2 0x100 EXP SWAP1 DIV PUSH1 0xFF AND SWAP1 DUP1 PUSH1 0x7 ADD PUSH1 0x1 SWAP1 SLOAD SWAP1 PUSH2 0x100 EXP SWAP1 DIV PUSH1 0xFF AND SWAP1 POP DUP10 JUMP JUMPDEST PUSH1 0x7 PUSH1 0x20 MSTORE DUP1 PUSH0 MSTORE PUSH1 0x40 PUSH0 KECCAK256 PUSH0 SWAP2 POP SWAP1 POP DUP1 PUSH0 ADD SLOAD SWAP1 DUP1 PUSH1 0x1 ADD SLOAD SWAP1 POP DUP3 JUMP JUMPDEST PUSH1 0x9 SLOAD DUP2 JUMP JUMPDEST PUSH1 0x3 PUSH1 0x20 MSTORE DUP1 PUSH0 MSTORE PUSH1 0x40 PUSH0 KECCAK256 PUSH0 SWAP2 POP SWAP1 POP DUP1 PUSH0 ADD PUSH0 SWAP1 SLOAD SWAP1 PUSH2 0x100 EXP SWAP1 DIV PUSH1 0xFF AND SWAP1 DUP1 PUSH1 0x1 ADD SLOAD SWAP1 DUP1 PUSH1 0x2 ADD SLOAD SWAP1 POP DUP4 JUMP JUMPDEST PUSH1 0xB SLOAD DUP2 JUMP JUMPDEST PUSH1 0x1 SLOAD DUP2 JUMP JUMPDEST PUSH1 0x3 PUSH0 CALLER PUSH20 0xFFFFFFFFFFFFFFFFFFFFFFFFFFFFFFFFFFFFFFFF AND PUSH20 0xFFFFFFFFFFFFFFFFFFFFFFFFFFFFFFFFFFFFFFFF AND DUP2 MSTORE PUSH1 0x20 ADD SWAP1 DUP2 MSTORE PUSH1 0x20 ADD PUSH0 KECCAK256 PUSH0 ADD PUSH0 SWAP1 SLOAD SWAP1 PUSH2 0x100 EXP SWAP1 DIV PUSH1 0xFF AND PUSH2 0x147C JUMPI PUSH1 0x40 MLOAD PUSH32 0x8C379A000000000000000000000000000000000000000000000000000000000 DUP2 MSTORE PUSH1 0x4 ADD PUSH2 0x1473 SWAP1 PUSH2 0x2451 JUMP JUMPDEST PUSH1 0x40 MLOAD DUP1 SWAP2 SUB SWAP1 REVERT JUMPDEST PUSH1 0x4 DUP1 SLOAD SWAP1 POP PUSH1 0x3 PUSH0 DUP4 PUSH20 0xFFFFFFFFFFFFFFFFFFFFFFFFFFFFFFFFFFFFFFFF AND PUSH20 0xFFFFFFFFFFFFFFFFFFFFFFFFFFFFFFFFFFFFFFFF AND DUP2 MSTORE PUSH1 0x20 ADD SWAP1 DUP2 MSTORE PUSH1 0x20 ADD PUSH0 KECCAK256 PUSH1 0x2 ADD SLOAD LT PUSH2 0x1615 JUMPI PUSH1 0x1 PUSH1 0x3 PUSH0 DUP4 PUSH20 0xFFFFFFFFFFFFFFFFFFFFFFFFFFFFFFFFFFFFFFFF AND PUSH20 0xFFFFFFFFFFFFFFFFFFFFFFFFFFFFFFFFFFFFFFFF AND DUP2 MSTORE PUSH1 0x20 ADD SWAP1 DUP2 MSTORE PUSH1 0x20 ADD PUSH0 KECCAK256 PUSH0 ADD PUSH0 PUSH2 0x100 EXP DUP2 SLOAD DUP2 PUSH1 0xFF MUL NOT AND SWAP1 DUP4 ISZERO ISZERO MUL OR SWAP1 SSTORE POP PUSH1 0x4 DUP2 SWAP1 DUP1 PUSH1 0x1 DUP2 SLOAD ADD DUP1 DUP3 SSTORE DUP1 SWAP2 POP POP PUSH1 0x1 SWAP1 SUB SWAP1 PUSH0 MSTORE PUSH1 0x20 PUSH0 KECCAK256 ADD PUSH0 SWAP1 SWAP2 SWAP1 SWAP2 SWAP1 SWAP2 PUSH2 0x100 EXP DUP2 SLOAD DUP2 PUSH20 0xFFFFFFFFFFFFFFFFFFFFFFFFFFFFFFFFFFFFFFFF MUL NOT AND SWAP1 DUP4 PUSH20 0xFFFFFFFFFFFFFFFFFFFFFFFFFFFFFFFFFFFFFFFF AND MUL OR SWAP1 SSTORE POP PUSH1 0x1 PUSH1 0x3 PUSH0 DUP4 PUSH20 0xFFFFFFFFFFFFFFFFFFFFFFFFFFFFFFFFFFFFFFFF AND PUSH20 0xFFFFFFFFFFFFFFFFFFFFFFFFFFFFFFFFFFFFFFFF AND DUP2 MSTORE PUSH1 0x20 ADD SWAP1 DUP2 MSTORE PUSH1 0x20 ADD PUSH0 KECCAK256 PUSH1 0x2 ADD SLOAD PUSH2 0x15CC SWAP2 SWAP1 PUSH2 0x24CF JUMP JUMPDEST PUSH1 0x3 PUSH0 DUP4 PUSH20 0xFFFFFFFFFFFFFFFFFFFFFFFFFFFFFFFFFFFFFFFF AND PUSH20 0xFFFFFFFFFFFFFFFFFFFFFFFFFFFFFFFFFFFFFFFF AND DUP2 MSTORE PUSH1 0x20 ADD SWAP1 DUP2 MSTORE PUSH1 0x20 ADD PUSH0 KECCAK256 PUSH1 0x2 ADD DUP2 SWAP1 SSTORE POP PUSH2 0x16A7 JUMP JUMPDEST PUSH1 0x1 PUSH1 0x3 PUSH0 DUP4 PUSH20 0xFFFFFFFFFFFFFFFFFFFFFFFFFFFFFFFFFFFFFFFF AND PUSH20 0xFFFFFFFFFFFFFFFFFFFFFFFFFFFFFFFFFFFFFFFF AND DUP2 MSTORE PUSH1 0x20 ADD SWAP1 DUP2 MSTORE PUSH1 0x20 ADD PUSH0 KECCAK256 PUSH1 0x2 ADD SLOAD PUSH2 0x1662 SWAP2 SWAP1 PUSH2 0x24CF JUMP JUMPDEST PUSH1 0x3 PUSH0 DUP4 PUSH20 0xFFFFFFFFFFFFFFFFFFFFFFFFFFFFFFFFFFFFFFFF AND PUSH20 0xFFFFFFFFFFFFFFFFFFFFFFFFFFFFFFFFFFFFFFFF AND DUP2 MSTORE PUSH1 0x20 ADD SWAP1 DUP2 MSTORE PUSH1 0x20 ADD PUSH0 KECCAK256 PUSH1 0x2 ADD DUP2 SWAP1 SSTORE POP JUMPDEST DUP1 PUSH20 0xFFFFFFFFFFFFFFFFFFFFFFFFFFFFFFFFFFFFFFFF AND PUSH32 0xE0C21BF57DF59CFC5E2067C75DBFD51A39F17533352CE1CF3A6C713C897A6C0C PUSH1 0x40 MLOAD PUSH1 0x40 MLOAD DUP1 SWAP2 SUB SWAP1 LOG2 POP JUMP JUMPDEST PUSH0 DUP5 DUP5 DUP5 DUP5 PUSH1 0x40 MLOAD PUSH1 0x24 ADD PUSH2 0x1705 SWAP5 SWAP4 SWAP3 SWAP2 SWAP1 PUSH2 0x2819 JUMP JUMPDEST PUSH1 0x40 MLOAD PUSH1 0x20 DUP2 DUP4 SUB SUB DUP2 MSTORE SWAP1 PUSH1 0x40 MSTORE PUSH32 0x7D1592F300000000000000000000000000000000000000000000000000000000 PUSH28 0xFFFFFFFFFFFFFFFFFFFFFFFFFFFFFFFFFFFFFFFFFFFFFFFFFFFFFFFF NOT AND PUSH1 0x20 DUP3 ADD DUP1 MLOAD PUSH28 0xFFFFFFFFFFFFFFFFFFFFFFFFFFFFFFFFFFFFFFFFFFFFFFFFFFFFFFFF DUP4 DUP2 DUP4 AND OR DUP4 MSTORE POP POP POP POP SWAP1 POP PUSH0 PUSH1 0x2 PUSH0 SWAP1 SLOAD SWAP1 PUSH2 0x100 EXP SWAP1 DIV PUSH20 0xFFFFFFFFFFFFFFFFFFFFFFFFFFFFFFFFFFFFFFFF AND PUSH20 0xFFFFFFFFFFFFFFFFFFFFFFFFFFFFFFFFFFFFFFFF AND DUP3 PUSH1 0x40 MLOAD PUSH2 0x17CB SWAP2 SWAP1 PUSH2 0x28B5 JUMP JUMPDEST PUSH0 PUSH1 0x40 MLOAD DUP1 DUP4 SUB DUP2 DUP6 GAS DELEGATECALL SWAP2 POP POP RETURNDATASIZE DUP1 PUSH0 DUP2 EQ PUSH2 0x1803 JUMPI PUSH1 0x40 MLOAD SWAP2 POP PUSH1 0x1F NOT PUSH1 0x3F RETURNDATASIZE ADD AND DUP3 ADD PUSH1 0x40 MSTORE RETURNDATASIZE DUP3 MSTORE RETURNDATASIZE PUSH0 PUSH1 0x20 DUP5 ADD RETURNDATACOPY PUSH2 0x1808 JUMP JUMPDEST PUSH1 0x60 SWAP2 POP JUMPDEST POP POP SWAP1 POP DUP1 PUSH2 0x184C JUMPI PUSH1 0x40 MLOAD PUSH32 0x8C379A000000000000000000000000000000000000000000000000000000000 DUP2 MSTORE PUSH1 0x4 ADD PUSH2 0x1843 SWAP1 PUSH2 0x2915 JUMP JUMPDEST PUSH1 0x40 MLOAD DUP1 SWAP2 SUB SWAP1 REVERT JUMPDEST POP POP POP POP POP POP JUMP JUMPDEST PUSH1 0x3 PUSH0 CALLER PUSH20 0xFFFFFFFFFFFFFFFFFFFFFFFFFFFFFFFFFFFFFFFF AND PUSH20 0xFFFFFFFFFFFFFFFFFFFFFFFFFFFFFFFFFFFFFFFF AND DUP2 MSTORE PUSH1 0x20 ADD SWAP1 DUP2 MSTORE PUSH1 0x20 ADD PUSH0 KECCAK256 PUSH0 ADD PUSH0 SWAP1 SLOAD SWAP1 PUSH2 0x100 EXP SWAP1 DIV PUSH1 0xFF AND PUSH2 0x18DF JUMPI PUSH1 0x40 MLOAD PUSH32 0x8C379A000000000000000000000000000000000000000000000000000000000 DUP2 MSTORE PUSH1 0x4 ADD PUSH2 0x18D6 SWAP1 PUSH2 0x2451 JUMP JUMPDEST PUSH1 0x40 MLOAD DUP1 SWAP2 SUB SWAP1 REVERT JUMPDEST PUSH0 PUSH1 0x2 PUSH0 SWAP1 SLOAD SWAP1 PUSH2 0x100 EXP SWAP1 DIV PUSH20 0xFFFFFFFFFFFFFFFFFFFFFFFFFFFFFFFFFFFFFFFF AND PUSH20 0xFFFFFFFFFFFFFFFFFFFFFFFFFFFFFFFFFFFFFFFF AND DUP3 PUSH1 0x40 MLOAD PUSH1 0x24 ADD PUSH2 0x1929 SWAP2 SWAP1 PUSH2 0x1ED5 JUMP JUMPDEST PUSH1 0x40 MLOAD PUSH1 0x20 DUP2 DUP4 SUB SUB DUP2 MSTORE SWAP1 PUSH1 0x40 MSTORE PUSH32 0xA060ACFA00000000000000000000000000000000000000000000000000000000 PUSH28 0xFFFFFFFFFFFFFFFFFFFFFFFFFFFFFFFFFFFFFFFFFFFFFFFFFFFFFFFF NOT AND PUSH1 0x20 DUP3 ADD DUP1 MLOAD PUSH28 0xFFFFFFFFFFFFFFFFFFFFFFFFFFFFFFFFFFFFFFFFFFFFFFFFFFFFFFFF DUP4 DUP2 DUP4 AND OR DUP4 MSTORE POP POP POP POP PUSH1 0x40 MLOAD PUSH2 0x19B3 SWAP2 SWAP1 PUSH2 0x28B5 JUMP JUMPDEST PUSH0 PUSH1 0x40 MLOAD DUP1 DUP4 SUB DUP2 DUP6 GAS DELEGATECALL SWAP2 POP POP RETURNDATASIZE DUP1 PUSH0 DUP2 EQ PUSH2 0x19EB JUMPI PUSH1 0x40 MLOAD SWAP2 POP PUSH1 0x1F NOT PUSH1 0x3F RETURNDATASIZE ADD AND DUP3 ADD PUSH1 0x40 MSTORE RETURNDATASIZE DUP3 MSTORE RETURNDATASIZE PUSH0 PUSH1 0x20 DUP5 ADD RETURNDATACOPY PUSH2 0x19F0 JUMP JUMPDEST PUSH1 0x60 SWAP2 POP JUMPDEST POP POP SWAP1 POP DUP1 PUSH2 0x1A34 JUMPI PUSH1 0x40 MLOAD PUSH32 0x8C379A000000000000000000000000000000000000000000000000000000000 DUP2 MSTORE PUSH1 0x4 ADD PUSH2 0x1A2B SWAP1 PUSH2 0x297D JUMP JUMPDEST PUSH1 0x40 MLOAD DUP1 SWAP2 SUB SWAP1 REVERT JUMPDEST POP POP JUMP JUMPDEST PUSH0 DUP1 SLOAD SWAP1 PUSH2 0x100 EXP SWAP1 DIV PUSH20 0xFFFFFFFFFFFFFFFFFFFFFFFFFFFFFFFFFFFFFFFF AND DUP2 JUMP JUMPDEST PUSH1 0x2 PUSH0 SWAP1 SLOAD SWAP1 PUSH2 0x100 EXP SWAP1 DIV PUSH20 0xFFFFFFFFFFFFFFFFFFFFFFFFFFFFFFFFFFFFFFFF AND DUP2 JUMP JUMPDEST PUSH0 PUSH1 0x2 PUSH0 SWAP1 SLOAD SWAP1 PUSH2 0x100 EXP SWAP1 DIV PUSH20 0xFFFFFFFFFFFFFFFFFFFFFFFFFFFFFFFFFFFFFFFF AND PUSH20 0xFFFFFFFFFFFFFFFFFFFFFFFFFFFFFFFFFFFFFFFF AND DUP3 PUSH1 0x40 MLOAD PUSH1 0x24 ADD PUSH2 0x1ACA SWAP2 SWAP1 PUSH2 0x299B JUMP JUMPDEST PUSH1 0x40 MLOAD PUSH1 0x20 DUP2 DUP4 SUB SUB DUP2 MSTORE SWAP1 PUSH1 0x40 MSTORE PUSH32 0xF2C298BE00000000000000000000000000000000000000000000000000000000 PUSH28 0xFFFFFFFFFFFFFFFFFFFFFFFFFFFFFFFFFFFFFFFFFFFFFFFFFFFFFFFF NOT AND PUSH1 0x20 DUP3 ADD DUP1 MLOAD PUSH28 0xFFFFFFFFFFFFFFFFFFFFFFFFFFFFFFFFFFFFFFFFFFFFFFFFFFFFFFFF DUP4 DUP2 DUP4 AND OR DUP4 MSTORE POP POP POP POP PUSH1 0x40 MLOAD PUSH2 0x1B54 SWAP2 SWAP1 PUSH2 0x28B5 JUMP JUMPDEST PUSH0 PUSH1 0x40 MLOAD DUP1 DUP4 SUB DUP2 DUP6 GAS DELEGATECALL SWAP2 POP POP RETURNDATASIZE DUP1 PUSH0 DUP2 EQ PUSH2 0x1B8C JUMPI PUSH1 0x40 MLOAD SWAP2 POP PUSH1 0x1F NOT PUSH1 0x3F RETURNDATASIZE ADD AND DUP3 ADD PUSH1 0x40 MSTORE RETURNDATASIZE DUP3 MSTORE RETURNDATASIZE PUSH0 PUSH1 0x20 DUP5 ADD RETURNDATACOPY PUSH2 0x1B91 JUMP JUMPDEST PUSH1 0x60 SWAP2 POP JUMPDEST POP POP SWAP1 POP DUP1 PUSH2 0x1BD5 JUMPI PUSH1 0x40 MLOAD PUSH32 0x8C379A000000000000000000000000000000000000000000000000000000000 DUP2 MSTORE PUSH1 0x4 ADD PUSH2 0x1BCC SWAP1 PUSH2 0x2A05 JUMP JUMPDEST PUSH1 0x40 MLOAD DUP1 SWAP2 SUB SWAP1 REVERT JUMPDEST POP POP JUMP JUMPDEST PUSH1 0x5 PUSH1 0x20 MSTORE DUP1 PUSH0 MSTORE PUSH1 0x40 PUSH0 KECCAK256 PUSH0 SWAP2 POP SWAP1 POP DUP1 PUSH0 ADD DUP1 SLOAD PUSH2 0x1BF8 SWAP1 PUSH2 0x252F JUMP JUMPDEST DUP1 PUSH1 0x1F ADD PUSH1 0x20 DUP1 SWAP2 DIV MUL PUSH1 0x20 ADD PUSH1 0x40 MLOAD SWAP1 DUP2 ADD PUSH1 0x40 MSTORE DUP1 SWAP3 SWAP2 SWAP1 DUP2 DUP2 MSTORE PUSH1 0x20 ADD DUP3 DUP1 SLOAD PUSH2 0x1C24 SWAP1 PUSH2 0x252F JUMP JUMPDEST DUP1 ISZERO PUSH2 0x1C6F JUMPI DUP1 PUSH1 0x1F LT PUSH2 0x1C46 JUMPI PUSH2 0x100 DUP1 DUP4 SLOAD DIV MUL DUP4 MSTORE SWAP2 PUSH1 0x20 ADD SWAP2 PUSH2 0x1C6F JUMP JUMPDEST DUP3 ADD SWAP2 SWAP1 PUSH0 MSTORE PUSH1 0x20 PUSH0 KECCAK256 SWAP1 JUMPDEST DUP2 SLOAD DUP2 MSTORE SWAP1 PUSH1 0x1 ADD SWAP1 PUSH1 0x20 ADD DUP1 DUP4 GT PUSH2 0x1C52 JUMPI DUP3 SWAP1 SUB PUSH1 0x1F AND DUP3 ADD SWAP2 JUMPDEST POP POP POP POP POP SWAP1 DUP1 PUSH1 0x1 ADD PUSH0 SWAP1 SLOAD SWAP1 PUSH2 0x100 EXP SWAP1 DIV PUSH1 0xFF AND SWAP1 POP DUP3 JUMP JUMPDEST PUSH0 DUP1 DUP4 DUP6 MUL SWAP1 POP PUSH0 DUP1 NOT DUP6 DUP8 MULMOD DUP3 DUP2 LT DUP4 DUP3 SUB SUB SWAP2 POP POP PUSH0 DUP2 SUB PUSH2 0x1CC3 JUMPI DUP4 DUP3 DUP2 PUSH2 0x1CB9 JUMPI PUSH2 0x1CB8 PUSH2 0x2A23 JUMP JUMPDEST JUMPDEST DIV SWAP3 POP POP POP PUSH2 0x1D83 JUMP JUMPDEST DUP1 DUP5 GT PUSH2 0x1CFC JUMPI PUSH1 0x40 MLOAD PUSH32 0x227BC15300000000000000000000000000000000000000000000000000000000 DUP2 MSTORE PUSH1 0x4 ADD PUSH1 0x40 MLOAD DUP1 SWAP2 SUB SWAP1 REVERT JUMPDEST PUSH0 DUP5 DUP7 DUP9 MULMOD SWAP1 POP DUP3 DUP2 GT DUP3 SUB SWAP2 POP DUP1 DUP4 SUB SWAP3 POP PUSH0 DUP6 PUSH0 SUB DUP7 AND SWAP1 POP DUP1 DUP7 DIV SWAP6 POP DUP1 DUP5 DIV SWAP4 POP PUSH1 0x1 DUP2 DUP3 PUSH0 SUB DIV ADD SWAP1 POP DUP1 DUP4 MUL DUP5 OR SWAP4 POP PUSH0 PUSH1 0x2 DUP8 PUSH1 0x3 MUL XOR SWAP1 POP DUP1 DUP8 MUL PUSH1 0x2 SUB DUP2 MUL SWAP1 POP DUP1 DUP8 MUL PUSH1 0x2 SUB DUP2 MUL SWAP1 POP DUP1 DUP8 MUL PUSH1 0x2 SUB DUP2 MUL SWAP1 POP DUP1 DUP8 MUL PUSH1 0x2 SUB DUP2 MUL SWAP1 POP DUP1 DUP8 MUL PUSH1 0x2 SUB DUP2 MUL SWAP1 POP DUP1 DUP8 MUL PUSH1 0x2 SUB DUP2 MUL SWAP1 POP DUP1 DUP6 MUL SWAP6 POP POP POP POP POP POP JUMPDEST SWAP4 SWAP3 POP POP POP JUMP JUMPDEST PUSH0 PUSH1 0x40 MLOAD SWAP1 POP SWAP1 JUMP JUMPDEST PUSH0 DUP1 REVERT JUMPDEST PUSH0 DUP1 REVERT JUMPDEST PUSH0 PUSH20 0xFFFFFFFFFFFFFFFFFFFFFFFFFFFFFFFFFFFFFFFF DUP3 AND SWAP1 POP SWAP2 SWAP1 POP JUMP JUMPDEST PUSH0 PUSH2 0x1DC4 DUP3 PUSH2 0x1D9B JUMP JUMPDEST SWAP1 POP SWAP2 SWAP1 POP JUMP JUMPDEST PUSH2 0x1DD4 DUP2 PUSH2 0x1DBA JUMP JUMPDEST DUP2 EQ PUSH2 0x1DDE JUMPI PUSH0 DUP1 REVERT JUMPDEST POP JUMP JUMPDEST PUSH0 DUP2 CALLDATALOAD SWAP1 POP PUSH2 0x1DEF DUP2 PUSH2 0x1DCB JUMP JUMPDEST SWAP3 SWAP2 POP POP JUMP JUMPDEST PUSH0 PUSH1 0x20 DUP3 DUP5 SUB SLT ISZERO PUSH2 0x1E0A JUMPI PUSH2 0x1E09 PUSH2 0x1D93 JUMP JUMPDEST JUMPDEST PUSH0 PUSH2 0x1E17 DUP5 DUP3 DUP6 ADD PUSH2 0x1DE1 JUMP JUMPDEST SWAP2 POP POP SWAP3 SWAP2 POP POP JUMP JUMPDEST PUSH0 DUP2 SWAP1 POP SWAP2 SWAP1 POP JUMP JUMPDEST PUSH2 0x1E32 DUP2 PUSH2 0x1E20 JUMP JUMPDEST DUP2 EQ PUSH2 0x1E3C JUMPI PUSH0 DUP1 REVERT JUMPDEST POP JUMP JUMPDEST PUSH0 DUP2 CALLDATALOAD SWAP1 POP PUSH2 0x1E4D DUP2 PUSH2 0x1E29 JUMP JUMPDEST SWAP3 SWAP2 POP POP JUMP JUMPDEST PUSH0 DUP2 ISZERO ISZERO SWAP1 POP SWAP2 SWAP1 POP JUMP JUMPDEST PUSH2 0x1E67 DUP2 PUSH2 0x1E53 JUMP JUMPDEST DUP2 EQ PUSH2 0x1E71 JUMPI PUSH0 DUP1 REVERT JUMPDEST POP JUMP JUMPDEST PUSH0 DUP2 CALLDATALOAD SWAP1 POP PUSH2 0x1E82 DUP2 PUSH2 0x1E5E JUMP JUMPDEST SWAP3 SWAP2 POP POP JUMP JUMPDEST PUSH0 DUP1 PUSH1 0x40 DUP4 DUP6 SUB SLT ISZERO PUSH2 0x1E9E JUMPI PUSH2 0x1E9D PUSH2 0x1D93 JUMP JUMPDEST JUMPDEST PUSH0 PUSH2 0x1EAB DUP6 DUP3 DUP7 ADD PUSH2 0x1E3F JUMP JUMPDEST SWAP3 POP POP PUSH1 0x20 PUSH2 0x1EBC DUP6 DUP3 DUP7 ADD PUSH2 0x1E74 JUMP JUMPDEST SWAP2 POP POP SWAP3 POP SWAP3 SWAP1 POP JUMP JUMPDEST PUSH2 0x1ECF DUP2 PUSH2 0x1E20 JUMP JUMPDEST DUP3 MSTORE POP POP JUMP JUMPDEST PUSH0 PUSH1 0x20 DUP3 ADD SWAP1 POP PUSH2 0x1EE8 PUSH0 DUP4 ADD DUP5 PUSH2 0x1EC6 JUMP JUMPDEST SWAP3 SWAP2 POP POP JUMP JUMPDEST PUSH0 PUSH1 0x20 DUP3 DUP5 SUB SLT ISZERO PUSH2 0x1F03 JUMPI PUSH2 0x1F02 PUSH2 0x1D93 JUMP JUMPDEST JUMPDEST PUSH0 PUSH2 0x1F10 DUP5 DUP3 DUP6 ADD PUSH2 0x1E3F JUMP JUMPDEST SWAP2 POP POP SWAP3 SWAP2 POP POP JUMP JUMPDEST PUSH0 DUP1 PUSH1 0x40 DUP4 DUP6 SUB SLT ISZERO PUSH2 0x1F2F JUMPI PUSH2 0x1F2E PUSH2 0x1D93 JUMP JUMPDEST JUMPDEST PUSH0 PUSH2 0x1F3C DUP6 DUP3 DUP7 ADD PUSH2 0x1E3F JUMP JUMPDEST SWAP3 POP POP PUSH1 0x20 PUSH2 0x1F4D DUP6 DUP3 DUP7 ADD PUSH2 0x1E3F JUMP JUMPDEST SWAP2 POP POP SWAP3 POP SWAP3 SWAP1 POP JUMP JUMPDEST PUSH2 0x1F60 DUP2 PUSH2 0x1E53 JUMP JUMPDEST DUP3 MSTORE POP POP JUMP JUMPDEST PUSH0 PUSH1 0x20 DUP3 ADD SWAP1 POP PUSH2 0x1F79 PUSH0 DUP4 ADD DUP5 PUSH2 0x1F57 JUMP JUMPDEST SWAP3 SWAP2 POP POP JUMP JUMPDEST PUSH0 DUP1 PUSH1 0x40 DUP4 DUP6 SUB SLT ISZERO PUSH2 0x1F95 JUMPI PUSH2 0x1F94 PUSH2 0x1D93 JUMP JUMPDEST JUMPDEST PUSH0 PUSH2 0x1FA2 DUP6 DUP3 DUP7 ADD PUSH2 0x1DE1 JUMP JUMPDEST SWAP3 POP POP PUSH1 0x20 PUSH2 0x1FB3 DUP6 DUP3 DUP7 ADD PUSH2 0x1E3F JUMP JUMPDEST SWAP2 POP POP SWAP3 POP SWAP3 SWAP1 POP JUMP JUMPDEST PUSH0 PUSH1 0x80 DUP3 ADD SWAP1 POP PUSH2 0x1FD0 PUSH0 DUP4 ADD DUP8 PUSH2 0x1EC6 JUMP JUMPDEST PUSH2 0x1FDD PUSH1 0x20 DUP4 ADD DUP7 PUSH2 0x1F57 JUMP JUMPDEST PUSH2 0x1FEA PUSH1 0x40 DUP4 ADD DUP6 PUSH2 0x1F57 JUMP JUMPDEST PUSH2 0x1FF7 PUSH1 0x60 DUP4 ADD DUP5 PUSH2 0x1EC6 JUMP JUMPDEST SWAP6 SWAP5 POP POP POP POP POP JUMP JUMPDEST PUSH0 DUP2 MLOAD SWAP1 POP SWAP2 SWAP1 POP JUMP JUMPDEST PUSH0 DUP3 DUP3 MSTORE PUSH1 0x20 DUP3 ADD SWAP1 POP SWAP3 SWAP2 POP POP JUMP JUMPDEST PUSH0 JUMPDEST DUP4 DUP2 LT ISZERO PUSH2 0x2037 JUMPI DUP1 DUP3 ADD MLOAD DUP2 DUP5 ADD MSTORE PUSH1 0x20 DUP2 ADD SWAP1 POP PUSH2 0x201C JUMP JUMPDEST PUSH0 DUP5 DUP5 ADD MSTORE POP POP POP POP JUMP JUMPDEST PUSH0 PUSH1 0x1F NOT PUSH1 0x1F DUP4 ADD AND SWAP1 POP SWAP2 SWAP1 POP JUMP JUMPDEST PUSH0 PUSH2 0x205C DUP3 PUSH2 0x2000 JUMP JUMPDEST PUSH2 0x2066 DUP2 DUP6 PUSH2 0x200A JUMP JUMPDEST SWAP4 POP PUSH2 0x2076 DUP2 DUP6 PUSH1 0x20 DUP7 ADD PUSH2 0x201A JUMP JUMPDEST PUSH2 0x207F DUP2 PUSH2 0x2042 JUMP JUMPDEST DUP5 ADD SWAP2 POP POP SWAP3 SWAP2 POP POP JUMP JUMPDEST PUSH2 0x2093 DUP2 PUSH2 0x1DBA JUMP JUMPDEST DUP3 MSTORE POP POP JUMP JUMPDEST PUSH0 PUSH2 0x120 DUP3 ADD SWAP1 POP PUSH2 0x20AD PUSH0 DUP4 ADD DUP13 PUSH2 0x1EC6 JUMP JUMPDEST DUP2 DUP2 SUB PUSH1 0x20 DUP4 ADD MSTORE PUSH2 0x20BF DUP2 DUP12 PUSH2 0x2052 JUMP JUMPDEST SWAP1 POP PUSH2 0x20CE PUSH1 0x40 DUP4 ADD DUP11 PUSH2 0x208A JUMP JUMPDEST DUP2 DUP2 SUB PUSH1 0x60 DUP4 ADD MSTORE PUSH2 0x20E0 DUP2 DUP10 PUSH2 0x2052 JUMP JUMPDEST SWAP1 POP PUSH2 0x20EF PUSH1 0x80 DUP4 ADD DUP9 PUSH2 0x208A JUMP JUMPDEST DUP2 DUP2 SUB PUSH1 0xA0 DUP4 ADD MSTORE PUSH2 0x2101 DUP2 DUP8 PUSH2 0x2052 JUMP JUMPDEST SWAP1 POP PUSH2 0x2110 PUSH1 0xC0 DUP4 ADD DUP7 PUSH2 0x1EC6 JUMP JUMPDEST PUSH2 0x211D PUSH1 0xE0 DUP4 ADD DUP6 PUSH2 0x1F57 JUMP JUMPDEST PUSH2 0x212B PUSH2 0x100 DUP4 ADD DUP5 PUSH2 0x1F57 JUMP JUMPDEST SWAP11 SWAP10 POP POP POP POP POP POP POP POP POP POP JUMP JUMPDEST PUSH0 PUSH1 0x40 DUP3 ADD SWAP1 POP PUSH2 0x214C PUSH0 DUP4 ADD DUP6 PUSH2 0x1EC6 JUMP JUMPDEST PUSH2 0x2159 PUSH1 0x20 DUP4 ADD DUP5 PUSH2 0x1EC6 JUMP JUMPDEST SWAP4 SWAP3 POP POP POP JUMP JUMPDEST PUSH0 PUSH1 0x60 DUP3 ADD SWAP1 POP PUSH2 0x2173 PUSH0 DUP4 ADD DUP7 PUSH2 0x1F57 JUMP JUMPDEST PUSH2 0x2180 PUSH1 0x20 DUP4 ADD DUP6 PUSH2 0x1EC6 JUMP JUMPDEST PUSH2 0x218D PUSH1 0x40 DUP4 ADD DUP5 PUSH2 0x1EC6 JUMP JUMPDEST SWAP5 SWAP4 POP POP POP POP JUMP JUMPDEST PUSH0 DUP1 REVERT JUMPDEST PUSH0 DUP1 REVERT JUMPDEST PUSH32 0x4E487B7100000000000000000000000000000000000000000000000000000000 PUSH0 MSTORE PUSH1 0x41 PUSH1 0x4 MSTORE PUSH1 0x24 PUSH0 REVERT JUMPDEST PUSH2 0x21D3 DUP3 PUSH2 0x2042 JUMP JUMPDEST DUP2 ADD DUP2 DUP2 LT PUSH8 0xFFFFFFFFFFFFFFFF DUP3 GT OR ISZERO PUSH2 0x21F2 JUMPI PUSH2 0x21F1 PUSH2 0x219D JUMP JUMPDEST JUMPDEST DUP1 PUSH1 0x40 MSTORE POP POP POP JUMP JUMPDEST PUSH0 PUSH2 0x2204 PUSH2 0x1D8A JUMP JUMPDEST SWAP1 POP PUSH2 0x2210 DUP3 DUP3 PUSH2 0x21CA JUMP JUMPDEST SWAP2 SWAP1 POP JUMP JUMPDEST PUSH0 PUSH8 0xFFFFFFFFFFFFFFFF DUP3 GT ISZERO PUSH2 0x222F JUMPI PUSH2 0x222E PUSH2 0x219D JUMP JUMPDEST JUMPDEST PUSH2 0x2238 DUP3 PUSH2 0x2042 JUMP JUMPDEST SWAP1 POP PUSH1 0x20 DUP2 ADD SWAP1 POP SWAP2 SWAP1 POP JUMP JUMPDEST DUP3 DUP2 DUP4 CALLDATACOPY PUSH0 DUP4 DUP4 ADD MSTORE POP POP POP JUMP JUMPDEST PUSH0 PUSH2 0x2265 PUSH2 0x2260 DUP5 PUSH2 0x2215 JUMP JUMPDEST PUSH2 0x21FB JUMP JUMPDEST SWAP1 POP DUP3 DUP2 MSTORE PUSH1 0x20 DUP2 ADD DUP5 DUP5 DUP5 ADD GT ISZERO PUSH2 0x2281 JUMPI PUSH2 0x2280 PUSH2 0x2199 JUMP JUMPDEST JUMPDEST PUSH2 0x228C DUP5 DUP3 DUP6 PUSH2 0x2245 JUMP JUMPDEST POP SWAP4 SWAP3 POP POP POP JUMP JUMPDEST PUSH0 DUP3 PUSH1 0x1F DUP4 ADD SLT PUSH2 0x22A8 JUMPI PUSH2 0x22A7 PUSH2 0x2195 JUMP JUMPDEST JUMPDEST DUP2 CALLDATALOAD PUSH2 0x22B8 DUP5 DUP3 PUSH1 0x20 DUP7 ADD PUSH2 0x2253 JUMP JUMPDEST SWAP2 POP POP SWAP3 SWAP2 POP POP JUMP JUMPDEST PUSH0 DUP1 PUSH0 DUP1 PUSH1 0x80 DUP6 DUP8 SUB SLT ISZERO PUSH2 0x22D9 JUMPI PUSH2 0x22D8 PUSH2 0x1D93 JUMP JUMPDEST JUMPDEST PUSH0 DUP6 ADD CALLDATALOAD PUSH8 0xFFFFFFFFFFFFFFFF DUP2 GT ISZERO PUSH2 0x22F6 JUMPI PUSH2 0x22F5 PUSH2 0x1D97 JUMP JUMPDEST JUMPDEST PUSH2 0x2302 DUP8 DUP3 DUP9 ADD PUSH2 0x2294 JUMP JUMPDEST SWAP5 POP POP PUSH1 0x20 DUP6 ADD CALLDATALOAD PUSH8 0xFFFFFFFFFFFFFFFF DUP2 GT ISZERO PUSH2 0x2323 JUMPI PUSH2 0x2322 PUSH2 0x1D97 JUMP JUMPDEST JUMPDEST PUSH2 0x232F DUP8 DUP3 DUP9 ADD PUSH2 0x2294 JUMP JUMPDEST SWAP4 POP POP PUSH1 0x40 PUSH2 0x2340 DUP8 DUP3 DUP9 ADD PUSH2 0x1DE1 JUMP JUMPDEST SWAP3 POP POP PUSH1 0x60 DUP6 ADD CALLDATALOAD PUSH8 0xFFFFFFFFFFFFFFFF DUP2 GT ISZERO PUSH2 0x2361 JUMPI PUSH2 0x2360 PUSH2 0x1D97 JUMP JUMPDEST JUMPDEST PUSH2 0x236D DUP8 DUP3 DUP9 ADD PUSH2 0x2294 JUMP JUMPDEST SWAP2 POP POP SWAP3 SWAP6 SWAP2 SWAP5 POP SWAP3 POP JUMP JUMPDEST PUSH0 PUSH1 0x20 DUP3 ADD SWAP1 POP PUSH2 0x238C PUSH0 DUP4 ADD DUP5 PUSH2 0x208A JUMP JUMPDEST SWAP3 SWAP2 POP POP JUMP JUMPDEST PUSH0 PUSH1 0x20 DUP3 DUP5 SUB SLT ISZERO PUSH2 0x23A7 JUMPI PUSH2 0x23A6 PUSH2 0x1D93 JUMP JUMPDEST JUMPDEST PUSH0 DUP3 ADD CALLDATALOAD PUSH8 0xFFFFFFFFFFFFFFFF DUP2 GT ISZERO PUSH2 0x23C4 JUMPI PUSH2 0x23C3 PUSH2 0x1D97 JUMP JUMPDEST JUMPDEST PUSH2 0x23D0 DUP5 DUP3 DUP6 ADD PUSH2 0x2294 JUMP JUMPDEST SWAP2 POP POP SWAP3 SWAP2 POP POP JUMP JUMPDEST PUSH0 PUSH1 0x40 DUP3 ADD SWAP1 POP DUP2 DUP2 SUB PUSH0 DUP4 ADD MSTORE PUSH2 0x23F1 DUP2 DUP6 PUSH2 0x2052 JUMP JUMPDEST SWAP1 POP PUSH2 0x2400 PUSH1 0x20 DUP4 ADD DUP5 PUSH2 0x1F57 JUMP JUMPDEST SWAP4 SWAP3 POP POP POP JUMP JUMPDEST PUSH32 0x4143434553532044454E49454421000000000000000000000000000000000000 PUSH0 DUP3 ADD MSTORE POP JUMP JUMPDEST PUSH0 PUSH2 0x243B PUSH1 0xE DUP4 PUSH2 0x200A JUMP JUMPDEST SWAP2 POP PUSH2 0x2446 DUP3 PUSH2 0x2407 JUMP JUMPDEST PUSH1 0x20 DUP3 ADD SWAP1 POP SWAP2 SWAP1 POP JUMP JUMPDEST PUSH0 PUSH1 0x20 DUP3 ADD SWAP1 POP DUP2 DUP2 SUB PUSH0 DUP4 ADD MSTORE PUSH2 0x2468 DUP2 PUSH2 0x242F JUMP JUMPDEST SWAP1 POP SWAP2 SWAP1 POP JUMP JUMPDEST PUSH32 0x4E487B7100000000000000000000000000000000000000000000000000000000 PUSH0 MSTORE PUSH1 0x11 PUSH1 0x4 MSTORE PUSH1 0x24 PUSH0 REVERT JUMPDEST PUSH0 PUSH2 0x24A6 DUP3 PUSH2 0x1E20 JUMP JUMPDEST SWAP2 POP PUSH2 0x24B1 DUP4 PUSH2 0x1E20 JUMP JUMPDEST SWAP3 POP DUP3 DUP3 SUB SWAP1 POP DUP2 DUP2 GT ISZERO PUSH2 0x24C9 JUMPI PUSH2 0x24C8 PUSH2 0x246F JUMP JUMPDEST JUMPDEST SWAP3 SWAP2 POP POP JUMP JUMPDEST PUSH0 PUSH2 0x24D9 DUP3 PUSH2 0x1E20 JUMP JUMPDEST SWAP2 POP PUSH2 0x24E4 DUP4 PUSH2 0x1E20 JUMP JUMPDEST SWAP3 POP DUP3 DUP3 ADD SWAP1 POP DUP1 DUP3 GT ISZERO PUSH2 0x24FC JUMPI PUSH2 0x24FB PUSH2 0x246F JUMP JUMPDEST JUMPDEST SWAP3 SWAP2 POP POP JUMP JUMPDEST PUSH32 0x4E487B7100000000000000000000000000000000000000000000000000000000 PUSH0 MSTORE PUSH1 0x22 PUSH1 0x4 MSTORE PUSH1 0x24 PUSH0 REVERT JUMPDEST PUSH0 PUSH1 0x2 DUP3 DIV SWAP1 POP PUSH1 0x1 DUP3 AND DUP1 PUSH2 0x2546 JUMPI PUSH1 0x7F DUP3 AND SWAP2 POP JUMPDEST PUSH1 0x20 DUP3 LT DUP2 SUB PUSH2 0x2559 JUMPI PUSH2 0x2558 PUSH2 0x2502 JUMP JUMPDEST JUMPDEST POP SWAP2 SWAP1 POP JUMP JUMPDEST PUSH32 0x494E56414C494420564F54452E20544F5049432049532043414E43454C4C4544 PUSH0 DUP3 ADD MSTORE POP JUMP JUMPDEST PUSH0 PUSH2 0x2593 PUSH1 0x20 DUP4 PUSH2 0x200A JUMP JUMPDEST SWAP2 POP PUSH2 0x259E DUP3 PUSH2 0x255F JUMP JUMPDEST PUSH1 0x20 DUP3 ADD SWAP1 POP SWAP2 SWAP1 POP JUMP JUMPDEST PUSH0 PUSH1 0x20 DUP3 ADD SWAP1 POP DUP2 DUP2 SUB PUSH0 DUP4 ADD MSTORE PUSH2 0x25C0 DUP2 PUSH2 0x2587 JUMP JUMPDEST SWAP1 POP SWAP2 SWAP1 POP JUMP JUMPDEST PUSH32 0x4E4F542041204D454D4245520000000000000000000000000000000000000000 PUSH0 DUP3 ADD MSTORE POP JUMP JUMPDEST PUSH0 PUSH2 0x25FB PUSH1 0xC DUP4 PUSH2 0x200A JUMP JUMPDEST SWAP2 POP PUSH2 0x2606 DUP3 PUSH2 0x25C7 JUMP JUMPDEST PUSH1 0x20 DUP3 ADD SWAP1 POP SWAP2 SWAP1 POP JUMP JUMPDEST PUSH0 PUSH1 0x20 DUP3 ADD SWAP1 POP DUP2 DUP2 SUB PUSH0 DUP4 ADD MSTORE PUSH2 0x2628 DUP2 PUSH2 0x25EF JUMP JUMPDEST SWAP1 POP SWAP2 SWAP1 POP JUMP JUMPDEST PUSH32 0x564F54494E4720504552494F442048415320454C415053454400000000000000 PUSH0 DUP3 ADD MSTORE POP JUMP JUMPDEST PUSH0 PUSH2 0x2663 PUSH1 0x19 DUP4 PUSH2 0x200A JUMP JUMPDEST SWAP2 POP PUSH2 0x266E DUP3 PUSH2 0x262F JUMP JUMPDEST PUSH1 0x20 DUP3 ADD SWAP1 POP SWAP2 SWAP1 POP JUMP JUMPDEST PUSH0 PUSH1 0x20 DUP3 ADD SWAP1 POP DUP2 DUP2 SUB PUSH0 DUP4 ADD MSTORE PUSH2 0x2690 DUP2 PUSH2 0x2657 JUMP JUMPDEST SWAP1 POP SWAP2 SWAP1 POP JUMP JUMPDEST PUSH0 DUP2 MLOAD SWAP1 POP PUSH2 0x26A5 DUP2 PUSH2 0x1E29 JUMP JUMPDEST SWAP3 SWAP2 POP POP JUMP JUMPDEST PUSH0 PUSH1 0x20 DUP3 DUP5 SUB SLT ISZERO PUSH2 0x26C0 JUMPI PUSH2 0x26BF PUSH2 0x1D93 JUMP JUMPDEST JUMPDEST PUSH0 PUSH2 0x26CD DUP5 DUP3 DUP6 ADD PUSH2 0x2697 JUMP JUMPDEST SWAP2 POP POP SWAP3 SWAP2 POP POP JUMP JUMPDEST PUSH32 0x594F55204D55535420504F5353455320544F4B454E7320544F20424520414E20 PUSH0 DUP3 ADD MSTORE PUSH32 0x454C494749424C4520564F544552000000000000000000000000000000000000 PUSH1 0x20 DUP3 ADD MSTORE POP JUMP JUMPDEST PUSH0 PUSH2 0x2730 PUSH1 0x2E DUP4 PUSH2 0x200A JUMP JUMPDEST SWAP2 POP PUSH2 0x273B DUP3 PUSH2 0x26D6 JUMP JUMPDEST PUSH1 0x40 DUP3 ADD SWAP1 POP SWAP2 SWAP1 POP JUMP JUMPDEST PUSH0 PUSH1 0x20 DUP3 ADD SWAP1 POP DUP2 DUP2 SUB PUSH0 DUP4 ADD MSTORE PUSH2 0x275D DUP2 PUSH2 0x2724 JUMP JUMPDEST SWAP1 POP SWAP2 SWAP1 POP JUMP JUMPDEST PUSH32 0x4D454D424552532043414E204F4E4C592043415354204120564F544520504552 PUSH0 DUP3 ADD MSTORE PUSH32 0x20544F5049430000000000000000000000000000000000000000000000000000 PUSH1 0x20 DUP3 ADD MSTORE POP JUMP JUMPDEST PUSH0 PUSH2 0x27BE PUSH1 0x26 DUP4 PUSH2 0x200A JUMP JUMPDEST SWAP2 POP PUSH2 0x27C9 DUP3 PUSH2 0x2764 JUMP JUMPDEST PUSH1 0x40 DUP3 ADD SWAP1 POP SWAP2 SWAP1 POP JUMP JUMPDEST PUSH0 PUSH1 0x20 DUP3 ADD SWAP1 POP DUP2 DUP2 SUB PUSH0 DUP4 ADD MSTORE PUSH2 0x27EB DUP2 PUSH2 0x27B2 JUMP JUMPDEST SWAP1 POP SWAP2 SWAP1 POP JUMP JUMPDEST PUSH0 PUSH1 0x40 DUP3 ADD SWAP1 POP PUSH2 0x2805 PUSH0 DUP4 ADD DUP6 PUSH2 0x1EC6 JUMP JUMPDEST PUSH2 0x2812 PUSH1 0x20 DUP4 ADD DUP5 PUSH2 0x1F57 JUMP JUMPDEST SWAP4 SWAP3 POP POP POP JUMP JUMPDEST PUSH0 PUSH1 0x80 DUP3 ADD SWAP1 POP DUP2 DUP2 SUB PUSH0 DUP4 ADD MSTORE PUSH2 0x2831 DUP2 DUP8 PUSH2 0x2052 JUMP JUMPDEST SWAP1 POP DUP2 DUP2 SUB PUSH1 0x20 DUP4 ADD MSTORE PUSH2 0x2845 DUP2 DUP7 PUSH2 0x2052 JUMP JUMPDEST SWAP1 POP PUSH2 0x2854 PUSH1 0x40 DUP4 ADD DUP6 PUSH2 0x208A JUMP JUMPDEST DUP2 DUP2 SUB PUSH1 0x60 DUP4 ADD MSTORE PUSH2 0x2866 DUP2 DUP5 PUSH2 0x2052 JUMP JUMPDEST SWAP1 POP SWAP6 SWAP5 POP POP POP POP POP JUMP JUMPDEST PUSH0 DUP2 MLOAD SWAP1 POP SWAP2 SWAP1 POP JUMP JUMPDEST PUSH0 DUP2 SWAP1 POP SWAP3 SWAP2 POP POP JUMP JUMPDEST PUSH0 PUSH2 0x288F DUP3 PUSH2 0x2871 JUMP JUMPDEST PUSH2 0x2899 DUP2 DUP6 PUSH2 0x287B JUMP JUMPDEST SWAP4 POP PUSH2 0x28A9 DUP2 DUP6 PUSH1 0x20 DUP7 ADD PUSH2 0x201A JUMP JUMPDEST DUP1 DUP5 ADD SWAP2 POP POP SWAP3 SWAP2 POP POP JUMP JUMPDEST PUSH0 PUSH2 0x28C0 DUP3 DUP5 PUSH2 0x2885 JUMP JUMPDEST SWAP2 POP DUP2 SWAP1 POP SWAP3 SWAP2 POP POP JUMP JUMPDEST PUSH32 0x4641494C454420544F20494E49544941544520544F5049430000000000000000 PUSH0 DUP3 ADD MSTORE POP JUMP JUMPDEST PUSH0 PUSH2 0x28FF PUSH1 0x18 DUP4 PUSH2 0x200A JUMP JUMPDEST SWAP2 POP PUSH2 0x290A DUP3 PUSH2 0x28CB JUMP JUMPDEST PUSH1 0x20 DUP3 ADD SWAP1 POP SWAP2 SWAP1 POP JUMP JUMPDEST PUSH0 PUSH1 0x20 DUP3 ADD SWAP1 POP DUP2 DUP2 SUB PUSH0 DUP4 ADD MSTORE PUSH2 0x292C DUP2 PUSH2 0x28F3 JUMP JUMPDEST SWAP1 POP SWAP2 SWAP1 POP JUMP JUMPDEST PUSH32 0x4641494C454420544F20494D504C454D454E54204445434953494F4E00000000 PUSH0 DUP3 ADD MSTORE POP JUMP JUMPDEST PUSH0 PUSH2 0x2967 PUSH1 0x1C DUP4 PUSH2 0x200A JUMP JUMPDEST SWAP2 POP PUSH2 0x2972 DUP3 PUSH2 0x2933 JUMP JUMPDEST PUSH1 0x20 DUP3 ADD SWAP1 POP SWAP2 SWAP1 POP JUMP JUMPDEST PUSH0 PUSH1 0x20 DUP3 ADD SWAP1 POP DUP2 DUP2 SUB PUSH0 DUP4 ADD MSTORE PUSH2 0x2994 DUP2 PUSH2 0x295B JUMP JUMPDEST SWAP1 POP SWAP2 SWAP1 POP JUMP JUMPDEST PUSH0 PUSH1 0x20 DUP3 ADD SWAP1 POP DUP2 DUP2 SUB PUSH0 DUP4 ADD MSTORE PUSH2 0x29B3 DUP2 DUP5 PUSH2 0x2052 JUMP JUMPDEST SWAP1 POP SWAP3 SWAP2 POP POP JUMP JUMPDEST PUSH32 0x4641494C454420544F2052454749535445520000000000000000000000000000 PUSH0 DUP3 ADD MSTORE POP JUMP JUMPDEST PUSH0 PUSH2 0x29EF PUSH1 0x12 DUP4 PUSH2 0x200A JUMP JUMPDEST SWAP2 POP PUSH2 0x29FA DUP3 PUSH2 0x29BB JUMP JUMPDEST PUSH1 0x20 DUP3 ADD SWAP1 POP SWAP2 SWAP1 POP JUMP JUMPDEST PUSH0 PUSH1 0x20 DUP3 ADD SWAP1 POP DUP2 DUP2 SUB PUSH0 DUP4 ADD MSTORE PUSH2 0x2A1C DUP2 PUSH2 0x29E3 JUMP JUMPDEST SWAP1 POP SWAP2 SWAP1 POP JUMP JUMPDEST PUSH32 0x4E487B7100000000000000000000000000000000000000000000000000000000 PUSH0 MSTORE PUSH1 0x12 PUSH1 0x4 MSTORE PUSH1 0x24 PUSH0 REVERT INVALID LOG2 PUSH5 0x6970667358 0x22 SLT KECCAK256 LOG1 0x4D DUP8 PUSH19 0x797E86CFE4B72E2893048C6C2F4F4FBF632B12 LOG3 0xE8 NOT 0xAC RETURN 0xB1 LOG1 0xDF 0x2D PUSH5 0x736F6C6343 STOP ADDMOD AND STOP CALLER "
				},
				"gasEstimates": {
					"creation": {
						"codeDepositCost": "2177200",
						"executionCost": "infinite",
						"totalCost": "infinite"
					},
					"external": {
						"Members(address)": "infinite",
						"Topics(uint256)": "infinite",
						"UPGRADE(address)": "27004",
						"addAdmin(address)": "infinite",
						"admin(address)": "infinite",
						"ballots(address,uint256)": "infinite",
						"cancel_Topic(uint256)": "27134",
						"cast_vote(uint256,bool)": "infinite",
						"counter()": "2536",
						"implement_decision(uint256)": "infinite",
						"implementation_delay()": "2470",
						"initiate_topic(string,string,address,string)": "infinite",
						"logic_contrcat()": "2574",
						"quorum(uint256,uint256)": "infinite",
						"register(string)": "infinite",
						"removeAdmin(address)": "infinite",
						"returned()": "2492",
						"utility_token_address()": "2549",
						"votes(uint256)": "infinite",
						"voting_duration()": "2493"
					}
				},
				"methodIdentifiers": {
					"Members(address)": "fd0f0166",
					"Topics(uint256)": "5bb6d284",
					"UPGRADE(address)": "5787c126",
					"addAdmin(address)": "70480275",
					"admin(address)": "63a846f8",
					"ballots(address,uint256)": "54b598ec",
					"cancel_Topic(uint256)": "33f794b5",
					"cast_vote(uint256,bool)": "1c8dd214",
					"counter()": "61bc221a",
					"implement_decision(uint256)": "a060acfa",
					"implementation_delay()": "67358c96",
					"initiate_topic(string,string,address,string)": "7d1592f3",
					"logic_contrcat()": "a58c14e2",
					"quorum(uint256,uint256)": "47411226",
					"register(string)": "f2c298be",
					"removeAdmin(address)": "1785f53c",
					"returned()": "6cb76408",
					"utility_token_address()": "a0a67c58",
					"votes(uint256)": "5df81330",
					"voting_duration()": "3153cebc"
				}
			},
			"storageLayout": {
				"storage": [
					{
						"astId": 1500,
						"contract": "backEnd/contracts/BUNN_Governor_Proxy.sol:BUNN_GOVERNOR",
						"label": "utility_token_address",
						"offset": 0,
						"slot": "0",
						"type": "t_address"
					},
					{
						"astId": 1502,
						"contract": "backEnd/contracts/BUNN_Governor_Proxy.sol:BUNN_GOVERNOR",
						"label": "returned",
						"offset": 0,
						"slot": "1",
						"type": "t_uint256"
					},
					{
						"astId": 1504,
						"contract": "backEnd/contracts/BUNN_Governor_Proxy.sol:BUNN_GOVERNOR",
						"label": "logic_contrcat",
						"offset": 0,
						"slot": "2",
						"type": "t_address"
					},
					{
						"astId": 1516,
						"contract": "backEnd/contracts/BUNN_Governor_Proxy.sol:BUNN_GOVERNOR",
						"label": "admin",
						"offset": 0,
						"slot": "3",
						"type": "t_mapping(t_address,t_struct(admin_)1511_storage)"
					},
					{
						"astId": 1519,
						"contract": "backEnd/contracts/BUNN_Governor_Proxy.sol:BUNN_GOVERNOR",
						"label": "admins",
						"offset": 0,
						"slot": "4",
						"type": "t_array(t_address)dyn_storage"
					},
					{
						"astId": 1529,
						"contract": "backEnd/contracts/BUNN_Governor_Proxy.sol:BUNN_GOVERNOR",
						"label": "Members",
						"offset": 0,
						"slot": "5",
						"type": "t_mapping(t_address,t_struct(Member)1524_storage)"
					},
					{
						"astId": 1545,
						"contract": "backEnd/contracts/BUNN_Governor_Proxy.sol:BUNN_GOVERNOR",
						"label": "ballots",
						"offset": 0,
						"slot": "6",
						"type": "t_mapping(t_address,t_mapping(t_uint256,t_struct(ballot)1538_storage))"
					},
					{
						"astId": 1555,
						"contract": "backEnd/contracts/BUNN_Governor_Proxy.sol:BUNN_GOVERNOR",
						"label": "votes",
						"offset": 0,
						"slot": "7",
						"type": "t_mapping(t_uint256,t_struct(vote)1550_storage)"
					},
					{
						"astId": 1579,
						"contract": "backEnd/contracts/BUNN_Governor_Proxy.sol:BUNN_GOVERNOR",
						"label": "Topics",
						"offset": 0,
						"slot": "8",
						"type": "t_mapping(t_uint256,t_struct(Topic)1574_storage)"
					},
					{
						"astId": 1582,
						"contract": "backEnd/contracts/BUNN_Governor_Proxy.sol:BUNN_GOVERNOR",
						"label": "counter",
						"offset": 0,
						"slot": "9",
						"type": "t_uint256"
					},
					{
						"astId": 1592,
						"contract": "backEnd/contracts/BUNN_Governor_Proxy.sol:BUNN_GOVERNOR",
						"label": "voting_duration",
						"offset": 0,
						"slot": "10",
						"type": "t_uint256"
					},
					{
						"astId": 1595,
						"contract": "backEnd/contracts/BUNN_Governor_Proxy.sol:BUNN_GOVERNOR",
						"label": "implementation_delay",
						"offset": 0,
						"slot": "11",
						"type": "t_uint256"
					}
				],
				"types": {
					"t_address": {
						"encoding": "inplace",
						"label": "address",
						"numberOfBytes": "20"
					},
					"t_array(t_address)dyn_storage": {
						"base": "t_address",
						"encoding": "dynamic_array",
						"label": "address[]",
						"numberOfBytes": "32"
					},
					"t_bool": {
						"encoding": "inplace",
						"label": "bool",
						"numberOfBytes": "1"
					},
					"t_mapping(t_address,t_mapping(t_uint256,t_struct(ballot)1538_storage))": {
						"encoding": "mapping",
						"key": "t_address",
						"label": "mapping(address => mapping(uint256 => struct governor_storage.ballot))",
						"numberOfBytes": "32",
						"value": "t_mapping(t_uint256,t_struct(ballot)1538_storage)"
					},
					"t_mapping(t_address,t_struct(Member)1524_storage)": {
						"encoding": "mapping",
						"key": "t_address",
						"label": "mapping(address => struct governor_storage.Member)",
						"numberOfBytes": "32",
						"value": "t_struct(Member)1524_storage"
					},
					"t_mapping(t_address,t_struct(admin_)1511_storage)": {
						"encoding": "mapping",
						"key": "t_address",
						"label": "mapping(address => struct governor_storage.admin_)",
						"numberOfBytes": "32",
						"value": "t_struct(admin_)1511_storage"
					},
					"t_mapping(t_uint256,t_struct(Topic)1574_storage)": {
						"encoding": "mapping",
						"key": "t_uint256",
						"label": "mapping(uint256 => struct governor_storage.Topic)",
						"numberOfBytes": "32",
						"value": "t_struct(Topic)1574_storage"
					},
					"t_mapping(t_uint256,t_struct(ballot)1538_storage)": {
						"encoding": "mapping",
						"key": "t_uint256",
						"label": "mapping(uint256 => struct governor_storage.ballot)",
						"numberOfBytes": "32",
						"value": "t_struct(ballot)1538_storage"
					},
					"t_mapping(t_uint256,t_struct(vote)1550_storage)": {
						"encoding": "mapping",
						"key": "t_uint256",
						"label": "mapping(uint256 => struct governor_storage.vote)",
						"numberOfBytes": "32",
						"value": "t_struct(vote)1550_storage"
					},
					"t_string_storage": {
						"encoding": "bytes",
						"label": "string",
						"numberOfBytes": "32"
					},
					"t_struct(Member)1524_storage": {
						"encoding": "inplace",
						"label": "struct governor_storage.Member",
						"members": [
							{
								"astId": 1521,
								"contract": "backEnd/contracts/BUNN_Governor_Proxy.sol:BUNN_GOVERNOR",
								"label": "name",
								"offset": 0,
								"slot": "0",
								"type": "t_string_storage"
							},
							{
								"astId": 1523,
								"contract": "backEnd/contracts/BUNN_Governor_Proxy.sol:BUNN_GOVERNOR",
								"label": "belongs",
								"offset": 0,
								"slot": "1",
								"type": "t_bool"
							}
						],
						"numberOfBytes": "64"
					},
					"t_struct(Topic)1574_storage": {
						"encoding": "inplace",
						"label": "struct governor_storage.Topic",
						"members": [
							{
								"astId": 1557,
								"contract": "backEnd/contracts/BUNN_Governor_Proxy.sol:BUNN_GOVERNOR",
								"label": "id",
								"offset": 0,
								"slot": "0",
								"type": "t_uint256"
							},
							{
								"astId": 1559,
								"contract": "backEnd/contracts/BUNN_Governor_Proxy.sol:BUNN_GOVERNOR",
								"label": "title",
								"offset": 0,
								"slot": "1",
								"type": "t_string_storage"
							},
							{
								"astId": 1561,
								"contract": "backEnd/contracts/BUNN_Governor_Proxy.sol:BUNN_GOVERNOR",
								"label": "initiator",
								"offset": 0,
								"slot": "2",
								"type": "t_address"
							},
							{
								"astId": 1563,
								"contract": "backEnd/contracts/BUNN_Governor_Proxy.sol:BUNN_GOVERNOR",
								"label": "details",
								"offset": 0,
								"slot": "3",
								"type": "t_string_storage"
							},
							{
								"astId": 1565,
								"contract": "backEnd/contracts/BUNN_Governor_Proxy.sol:BUNN_GOVERNOR",
								"label": "implementation_contract_address",
								"offset": 0,
								"slot": "4",
								"type": "t_address"
							},
							{
								"astId": 1567,
								"contract": "backEnd/contracts/BUNN_Governor_Proxy.sol:BUNN_GOVERNOR",
								"label": "signature",
								"offset": 0,
								"slot": "5",
								"type": "t_string_storage"
							},
							{
								"astId": 1569,
								"contract": "backEnd/contracts/BUNN_Governor_Proxy.sol:BUNN_GOVERNOR",
								"label": "start_time",
								"offset": 0,
								"slot": "6",
								"type": "t_uint256"
							},
							{
								"astId": 1571,
								"contract": "backEnd/contracts/BUNN_Governor_Proxy.sol:BUNN_GOVERNOR",
								"label": "executed",
								"offset": 0,
								"slot": "7",
								"type": "t_bool"
							},
							{
								"astId": 1573,
								"contract": "backEnd/contracts/BUNN_Governor_Proxy.sol:BUNN_GOVERNOR",
								"label": "cancelled",
								"offset": 1,
								"slot": "7",
								"type": "t_bool"
							}
						],
						"numberOfBytes": "256"
					},
					"t_struct(admin_)1511_storage": {
						"encoding": "inplace",
						"label": "struct governor_storage.admin_",
						"members": [
							{
								"astId": 1506,
								"contract": "backEnd/contracts/BUNN_Governor_Proxy.sol:BUNN_GOVERNOR",
								"label": "is_admin",
								"offset": 0,
								"slot": "0",
								"type": "t_bool"
							},
							{
								"astId": 1508,
								"contract": "backEnd/contracts/BUNN_Governor_Proxy.sol:BUNN_GOVERNOR",
								"label": "removers",
								"offset": 0,
								"slot": "1",
								"type": "t_uint256"
							},
							{
								"astId": 1510,
								"contract": "backEnd/contracts/BUNN_Governor_Proxy.sol:BUNN_GOVERNOR",
								"label": "adders",
								"offset": 0,
								"slot": "2",
								"type": "t_uint256"
							}
						],
						"numberOfBytes": "96"
					},
					"t_struct(ballot)1538_storage": {
						"encoding": "inplace",
						"label": "struct governor_storage.ballot",
						"members": [
							{
								"astId": 1531,
								"contract": "backEnd/contracts/BUNN_Governor_Proxy.sol:BUNN_GOVERNOR",
								"label": "Topic_ID",
								"offset": 0,
								"slot": "0",
								"type": "t_uint256"
							},
							{
								"astId": 1533,
								"contract": "backEnd/contracts/BUNN_Governor_Proxy.sol:BUNN_GOVERNOR",
								"label": "position",
								"offset": 0,
								"slot": "1",
								"type": "t_bool"
							},
							{
								"astId": 1535,
								"contract": "backEnd/contracts/BUNN_Governor_Proxy.sol:BUNN_GOVERNOR",
								"label": "voted",
								"offset": 1,
								"slot": "1",
								"type": "t_bool"
							},
							{
								"astId": 1537,
								"contract": "backEnd/contracts/BUNN_Governor_Proxy.sol:BUNN_GOVERNOR",
								"label": "voting_power",
								"offset": 0,
								"slot": "2",
								"type": "t_uint256"
							}
						],
						"numberOfBytes": "96"
					},
					"t_struct(vote)1550_storage": {
						"encoding": "inplace",
						"label": "struct governor_storage.vote",
						"members": [
							{
								"astId": 1547,
								"contract": "backEnd/contracts/BUNN_Governor_Proxy.sol:BUNN_GOVERNOR",
								"label": "for_votes",
								"offset": 0,
								"slot": "0",
								"type": "t_uint256"
							},
							{
								"astId": 1549,
								"contract": "backEnd/contracts/BUNN_Governor_Proxy.sol:BUNN_GOVERNOR",
								"label": "against_votes",
								"offset": 0,
								"slot": "1",
								"type": "t_uint256"
							}
						],
						"numberOfBytes": "64"
					},
					"t_uint256": {
						"encoding": "inplace",
						"label": "uint256",
						"numberOfBytes": "32"
					}
				}
			},
			"userdoc": {
				"kind": "user",
				"methods": {},
				"version": 1
			}
		}
	}
}