{
	"backEnd/contracts/BUNN_Governor_Proxy.sol": {
		"BUNN_GOVERNOR": {
			"abi": [
				{
					"inputs": [
						{
							"internalType": "address",
							"name": "UTA",
							"type": "address"
						}
					],
					"stateMutability": "nonpayable",
					"type": "constructor"
				},
				{
					"inputs": [],
					"name": "MathOverflowedMulDiv",
					"type": "error"
				},
				{
					"anonymous": false,
					"inputs": [
						{
							"indexed": false,
							"internalType": "uint256",
							"name": "topic_acted_on",
							"type": "uint256"
						},
						{
							"indexed": false,
							"internalType": "bool",
							"name": "implemented",
							"type": "bool"
						},
						{
							"indexed": false,
							"internalType": "bytes",
							"name": "data",
							"type": "bytes"
						}
					],
					"name": "decision_implemented",
					"type": "event"
				},
				{
					"anonymous": false,
					"inputs": [
						{
							"indexed": false,
							"internalType": "uint256",
							"name": "topic_acted_on",
							"type": "uint256"
						},
						{
							"indexed": true,
							"internalType": "address",
							"name": "proposer",
							"type": "address"
						}
					],
					"name": "proposal_made",
					"type": "event"
				},
				{
					"anonymous": false,
					"inputs": [
						{
							"indexed": true,
							"internalType": "address",
							"name": "participant",
							"type": "address"
						},
						{
							"indexed": false,
							"internalType": "uint256",
							"name": "topic_acted_on",
							"type": "uint256"
						},
						{
							"indexed": false,
							"internalType": "bool",
							"name": "position",
							"type": "bool"
						}
					],
					"name": "vote_cast",
					"type": "event"
				},
				{
					"inputs": [
						{
							"internalType": "address",
							"name": "",
							"type": "address"
						}
					],
					"name": "Members",
					"outputs": [
						{
							"internalType": "string",
							"name": "name",
							"type": "string"
						},
						{
							"internalType": "bool",
							"name": "belongs",
							"type": "bool"
						}
					],
					"stateMutability": "view",
					"type": "function"
				},
				{
					"inputs": [
						{
							"internalType": "uint256",
							"name": "",
							"type": "uint256"
						}
					],
					"name": "Topics",
					"outputs": [
						{
							"internalType": "uint256",
							"name": "id",
							"type": "uint256"
						},
						{
							"internalType": "string",
							"name": "Title",
							"type": "string"
						},
						{
							"internalType": "address",
							"name": "initiator",
							"type": "address"
						},
						{
							"internalType": "address",
							"name": "implementation_contract_address",
							"type": "address"
						},
						{
							"internalType": "uint256",
							"name": "implementation_contract_argument",
							"type": "uint256"
						},
						{
							"internalType": "string",
							"name": "signature",
							"type": "string"
						},
						{
							"internalType": "uint256",
							"name": "start_time",
							"type": "uint256"
						},
						{
							"internalType": "bool",
							"name": "executed",
							"type": "bool"
						},
						{
							"internalType": "bool",
							"name": "cancelled",
							"type": "bool"
						}
					],
					"stateMutability": "view",
					"type": "function"
				},
				{
					"inputs": [],
					"name": "UPGRADE",
					"outputs": [],
					"stateMutability": "nonpayable",
					"type": "function"
				},
				{
					"inputs": [
						{
							"internalType": "address",
							"name": "",
							"type": "address"
						},
						{
							"internalType": "uint256",
							"name": "",
							"type": "uint256"
						}
					],
					"name": "ballots",
					"outputs": [
						{
							"internalType": "uint256",
							"name": "Topic_ID",
							"type": "uint256"
						},
						{
							"internalType": "bool",
							"name": "position",
							"type": "bool"
						},
						{
							"internalType": "bool",
							"name": "voted",
							"type": "bool"
						}
					],
					"stateMutability": "view",
					"type": "function"
				},
				{
					"inputs": [
						{
							"internalType": "uint256",
							"name": "topic_id",
							"type": "uint256"
						},
						{
							"internalType": "bool",
							"name": "position_",
							"type": "bool"
						}
					],
					"name": "cast_vote",
					"outputs": [],
					"stateMutability": "nonpayable",
					"type": "function"
				},
				{
					"inputs": [],
					"name": "counter",
					"outputs": [
						{
							"internalType": "uint256",
							"name": "",
							"type": "uint256"
						}
					],
					"stateMutability": "view",
					"type": "function"
				},
				{
					"inputs": [
						{
							"internalType": "uint256",
							"name": "topic_id",
							"type": "uint256"
						}
					],
					"name": "implement_decision",
					"outputs": [],
					"stateMutability": "payable",
					"type": "function"
				},
				{
					"inputs": [],
					"name": "implementation_delay",
					"outputs": [
						{
							"internalType": "uint256",
							"name": "",
							"type": "uint256"
						}
					],
					"stateMutability": "view",
					"type": "function"
				},
				{
					"inputs": [
						{
							"internalType": "string",
							"name": "Title_",
							"type": "string"
						},
						{
							"internalType": "address",
							"name": "implementation_contract_address",
							"type": "address"
						},
						{
							"internalType": "uint256",
							"name": "contract_argument",
							"type": "uint256"
						},
						{
							"internalType": "string",
							"name": "signature",
							"type": "string"
						}
					],
					"name": "initiate_topic",
					"outputs": [],
					"stateMutability": "nonpayable",
					"type": "function"
				},
				{
					"inputs": [
						{
							"internalType": "uint256",
							"name": "target",
							"type": "uint256"
						},
						{
							"internalType": "uint256",
							"name": "comparison",
							"type": "uint256"
						}
					],
					"name": "quorum",
					"outputs": [
						{
							"internalType": "bool",
							"name": "",
							"type": "bool"
						}
					],
					"stateMutability": "pure",
					"type": "function"
				},
				{
					"inputs": [
						{
							"internalType": "string",
							"name": "name_",
							"type": "string"
						}
					],
					"name": "register",
					"outputs": [],
					"stateMutability": "nonpayable",
					"type": "function"
				},
				{
					"inputs": [],
					"name": "returned",
					"outputs": [
						{
							"internalType": "uint256",
							"name": "",
							"type": "uint256"
						}
					],
					"stateMutability": "view",
					"type": "function"
				},
				{
					"inputs": [
						{
							"internalType": "address",
							"name": "newAdmin",
							"type": "address"
						}
					],
					"name": "setOwner",
					"outputs": [],
					"stateMutability": "nonpayable",
					"type": "function"
				},
				{
					"inputs": [],
					"name": "utility_token_address",
					"outputs": [
						{
							"internalType": "address",
							"name": "",
							"type": "address"
						}
					],
					"stateMutability": "view",
					"type": "function"
				},
				{
					"inputs": [
						{
							"internalType": "uint256",
							"name": "",
							"type": "uint256"
						}
					],
					"name": "votes",
					"outputs": [
						{
							"internalType": "uint256",
							"name": "for_votes",
							"type": "uint256"
						},
						{
							"internalType": "uint256",
							"name": "against_votes",
							"type": "uint256"
						}
					],
					"stateMutability": "view",
					"type": "function"
				},
				{
					"inputs": [],
					"name": "voting_duration",
					"outputs": [
						{
							"internalType": "uint256",
							"name": "",
							"type": "uint256"
						}
					],
					"stateMutability": "view",
					"type": "function"
				}
			],
			"devdoc": {
				"errors": {
					"MathOverflowedMulDiv()": [
						{
							"details": "Muldiv operation overflow."
						}
					]
				},
				"kind": "dev",
				"methods": {},
				"version": 1
			},
			"evm": {
				"assembly": "    /* \"backEnd/contracts/BUNN_Governor_Proxy.sol\":147:6970  contract BUNN_GOVERNOR is Restrictions {... */\n  mstore(0x40, 0x80)\n    /* \"backEnd/contracts/restrictions.sol\":273:279  432000 */\n  0x069780\n    /* \"backEnd/contracts/restrictions.sol\":240:279  uint256 public voting_duration = 432000 */\n  0x00\n  sstore\n    /* \"backEnd/contracts/restrictions.sol\":332:337  86400 */\n  0x015180\n    /* \"backEnd/contracts/restrictions.sol\":294:337  uint256 public implementation_delay = 86400 */\n  0x01\n  sstore\n    /* \"backEnd/contracts/BUNN_Governor_Proxy.sol\":2243:2244  1 */\n  0x01\n    /* \"backEnd/contracts/BUNN_Governor_Proxy.sol\":2221:2244  uint public counter = 1 */\n  0x08\n  sstore\n    /* \"backEnd/contracts/BUNN_Governor_Proxy.sol\":2723:2826  constructor(address UTA) {... */\n  callvalue\n  dup1\n  iszero\n  tag_1\n  jumpi\n  0x00\n  dup1\n  revert\ntag_1:\n  pop\n  mload(0x40)\n  sub(codesize, bytecodeSize)\n  dup1\n  bytecodeSize\n  dup4\n  codecopy\n  dup2\n  dup2\n  add\n  0x40\n  mstore\n  dup2\n  add\n  swap1\n  tag_2\n  swap2\n  swap1\n  tag_3\n  jump\t// in\ntag_2:\n    /* \"backEnd/contracts/BUNN_Governor_Proxy.sol\":2782:2785  UTA */\n  dup1\n    /* \"backEnd/contracts/BUNN_Governor_Proxy.sol\":2758:2779  utility_token_address */\n  0x02\n  0x00\n    /* \"backEnd/contracts/BUNN_Governor_Proxy.sol\":2758:2785  utility_token_address = UTA */\n  0x0100\n  exp\n  dup2\n  sload\n  dup2\n  0xffffffffffffffffffffffffffffffffffffffff\n  mul\n  not\n  and\n  swap1\n  dup4\n  0xffffffffffffffffffffffffffffffffffffffff\n  and\n  mul\n  or\n  swap1\n  sstore\n  pop\n    /* \"backEnd/contracts/BUNN_Governor_Proxy.sol\":2815:2819  true */\n  0x01\n    /* \"backEnd/contracts/BUNN_Governor_Proxy.sol\":2795:2800  admin */\n  0x04\n    /* \"backEnd/contracts/BUNN_Governor_Proxy.sol\":2795:2812  admin[msg.sender] */\n  0x00\n    /* \"backEnd/contracts/BUNN_Governor_Proxy.sol\":2801:2811  msg.sender */\n  caller\n    /* \"backEnd/contracts/BUNN_Governor_Proxy.sol\":2795:2812  admin[msg.sender] */\n  0xffffffffffffffffffffffffffffffffffffffff\n  and\n  0xffffffffffffffffffffffffffffffffffffffff\n  and\n  dup2\n  mstore\n  0x20\n  add\n  swap1\n  dup2\n  mstore\n  0x20\n  add\n  0x00\n  keccak256\n  0x00\n    /* \"backEnd/contracts/BUNN_Governor_Proxy.sol\":2795:2819  admin[msg.sender] = true */\n  0x0100\n  exp\n  dup2\n  sload\n  dup2\n  0xff\n  mul\n  not\n  and\n  swap1\n  dup4\n  iszero\n  iszero\n  mul\n  or\n  swap1\n  sstore\n  pop\n    /* \"backEnd/contracts/BUNN_Governor_Proxy.sol\":2723:2826  constructor(address UTA) {... */\n  pop\n    /* \"backEnd/contracts/BUNN_Governor_Proxy.sol\":147:6970  contract BUNN_GOVERNOR is Restrictions {... */\n  jump(tag_8)\n    /* \"#utility.yul\":88:205   */\ntag_10:\n    /* \"#utility.yul\":197:198   */\n  0x00\n    /* \"#utility.yul\":194:195   */\n  dup1\n    /* \"#utility.yul\":187:199   */\n  revert\n    /* \"#utility.yul\":334:460   */\ntag_12:\n    /* \"#utility.yul\":371:378   */\n  0x00\n    /* \"#utility.yul\":411:453   */\n  0xffffffffffffffffffffffffffffffffffffffff\n    /* \"#utility.yul\":404:409   */\n  dup3\n    /* \"#utility.yul\":400:454   */\n  and\n    /* \"#utility.yul\":389:454   */\n  swap1\n  pop\n    /* \"#utility.yul\":334:460   */\n  swap2\n  swap1\n  pop\n  jump\t// out\n    /* \"#utility.yul\":466:562   */\ntag_13:\n    /* \"#utility.yul\":503:510   */\n  0x00\n    /* \"#utility.yul\":532:556   */\n  tag_22\n    /* \"#utility.yul\":550:555   */\n  dup3\n    /* \"#utility.yul\":532:556   */\n  tag_12\n  jump\t// in\ntag_22:\n    /* \"#utility.yul\":521:556   */\n  swap1\n  pop\n    /* \"#utility.yul\":466:562   */\n  swap2\n  swap1\n  pop\n  jump\t// out\n    /* \"#utility.yul\":568:690   */\ntag_14:\n    /* \"#utility.yul\":641:665   */\n  tag_24\n    /* \"#utility.yul\":659:664   */\n  dup2\n    /* \"#utility.yul\":641:665   */\n  tag_13\n  jump\t// in\ntag_24:\n    /* \"#utility.yul\":634:639   */\n  dup2\n    /* \"#utility.yul\":631:666   */\n  eq\n    /* \"#utility.yul\":621:684   */\n  tag_25\n  jumpi\n    /* \"#utility.yul\":680:681   */\n  0x00\n    /* \"#utility.yul\":677:678   */\n  dup1\n    /* \"#utility.yul\":670:682   */\n  revert\n    /* \"#utility.yul\":621:684   */\ntag_25:\n    /* \"#utility.yul\":568:690   */\n  pop\n  jump\t// out\n    /* \"#utility.yul\":696:839   */\ntag_15:\n    /* \"#utility.yul\":753:758   */\n  0x00\n    /* \"#utility.yul\":784:790   */\n  dup2\n    /* \"#utility.yul\":778:791   */\n  mload\n    /* \"#utility.yul\":769:791   */\n  swap1\n  pop\n    /* \"#utility.yul\":800:833   */\n  tag_27\n    /* \"#utility.yul\":827:832   */\n  dup2\n    /* \"#utility.yul\":800:833   */\n  tag_14\n  jump\t// in\ntag_27:\n    /* \"#utility.yul\":696:839   */\n  swap3\n  swap2\n  pop\n  pop\n  jump\t// out\n    /* \"#utility.yul\":845:1196   */\ntag_3:\n    /* \"#utility.yul\":915:921   */\n  0x00\n    /* \"#utility.yul\":964:966   */\n  0x20\n    /* \"#utility.yul\":952:961   */\n  dup3\n    /* \"#utility.yul\":943:950   */\n  dup5\n    /* \"#utility.yul\":939:962   */\n  sub\n    /* \"#utility.yul\":935:967   */\n  slt\n    /* \"#utility.yul\":932:1051   */\n  iszero\n  tag_29\n  jumpi\n    /* \"#utility.yul\":970:1049   */\n  tag_30\n  tag_10\n  jump\t// in\ntag_30:\n    /* \"#utility.yul\":932:1051   */\ntag_29:\n    /* \"#utility.yul\":1090:1091   */\n  0x00\n    /* \"#utility.yul\":1115:1179   */\n  tag_31\n    /* \"#utility.yul\":1171:1178   */\n  dup5\n    /* \"#utility.yul\":1162:1168   */\n  dup3\n    /* \"#utility.yul\":1151:1160   */\n  dup6\n    /* \"#utility.yul\":1147:1169   */\n  add\n    /* \"#utility.yul\":1115:1179   */\n  tag_15\n  jump\t// in\ntag_31:\n    /* \"#utility.yul\":1105:1179   */\n  swap2\n  pop\n    /* \"#utility.yul\":1061:1189   */\n  pop\n    /* \"#utility.yul\":845:1196   */\n  swap3\n  swap2\n  pop\n  pop\n  jump\t// out\n    /* \"backEnd/contracts/BUNN_Governor_Proxy.sol\":147:6970  contract BUNN_GOVERNOR is Restrictions {... */\ntag_8:\n  dataSize(sub_0)\n  dup1\n  dataOffset(sub_0)\n  0x00\n  codecopy\n  0x00\n  return\nstop\n\nsub_0: assembly {\n        /* \"backEnd/contracts/BUNN_Governor_Proxy.sol\":147:6970  contract BUNN_GOVERNOR is Restrictions {... */\n      mstore(0x40, 0x80)\n      jumpi(tag_1, lt(calldatasize, 0x04))\n      shr(0xe0, calldataload(0x00))\n      dup1\n      0x5df81330\n      gt\n      tag_18\n      jumpi\n      dup1\n      0xa060acfa\n      gt\n      tag_19\n      jumpi\n      dup1\n      0xa060acfa\n      eq\n      tag_14\n      jumpi\n      dup1\n      0xa0a67c58\n      eq\n      tag_15\n      jumpi\n      dup1\n      0xf2c298be\n      eq\n      tag_16\n      jumpi\n      dup1\n      0xfd0f0166\n      eq\n      tag_17\n      jumpi\n      jump(tag_1)\n    tag_19:\n      dup1\n      0x5df81330\n      eq\n      tag_10\n      jumpi\n      dup1\n      0x61bc221a\n      eq\n      tag_11\n      jumpi\n      dup1\n      0x67358c96\n      eq\n      tag_12\n      jumpi\n      dup1\n      0x6cb76408\n      eq\n      tag_13\n      jumpi\n      jump(tag_1)\n    tag_18:\n      dup1\n      0x37852d99\n      gt\n      tag_20\n      jumpi\n      dup1\n      0x37852d99\n      eq\n      tag_6\n      jumpi\n      dup1\n      0x47411226\n      eq\n      tag_7\n      jumpi\n      dup1\n      0x54b598ec\n      eq\n      tag_8\n      jumpi\n      dup1\n      0x5bb6d284\n      eq\n      tag_9\n      jumpi\n      jump(tag_1)\n    tag_20:\n      dup1\n      0x0befdc15\n      eq\n      tag_2\n      jumpi\n      dup1\n      0x13af4035\n      eq\n      tag_3\n      jumpi\n      dup1\n      0x1c8dd214\n      eq\n      tag_4\n      jumpi\n      dup1\n      0x3153cebc\n      eq\n      tag_5\n      jumpi\n    tag_1:\n      0x00\n      dup1\n      revert\n        /* \"backEnd/contracts/BUNN_Governor_Proxy.sol\":3202:4094  function initiate_topic(... */\n    tag_2:\n      callvalue\n      dup1\n      iszero\n      tag_21\n      jumpi\n      0x00\n      dup1\n      revert\n    tag_21:\n      pop\n      tag_22\n      0x04\n      dup1\n      calldatasize\n      sub\n      dup2\n      add\n      swap1\n      tag_23\n      swap2\n      swap1\n      tag_24\n      jump\t// in\n    tag_23:\n      tag_25\n      jump\t// in\n    tag_22:\n      stop\n        /* \"backEnd/contracts/BUNN_Governor_Proxy.sol\":6833:6924  function setOwner(address newAdmin) public onlyOwner{... */\n    tag_3:\n      callvalue\n      dup1\n      iszero\n      tag_26\n      jumpi\n      0x00\n      dup1\n      revert\n    tag_26:\n      pop\n      tag_27\n      0x04\n      dup1\n      calldatasize\n      sub\n      dup2\n      add\n      swap1\n      tag_28\n      swap2\n      swap1\n      tag_29\n      jump\t// in\n    tag_28:\n      tag_30\n      jump\t// in\n    tag_27:\n      stop\n        /* \"backEnd/contracts/BUNN_Governor_Proxy.sol\":4144:5514  function cast_vote(uint topic_id, bool position_) public {... */\n    tag_4:\n      callvalue\n      dup1\n      iszero\n      tag_31\n      jumpi\n      0x00\n      dup1\n      revert\n    tag_31:\n      pop\n      tag_32\n      0x04\n      dup1\n      calldatasize\n      sub\n      dup2\n      add\n      swap1\n      tag_33\n      swap2\n      swap1\n      tag_34\n      jump\t// in\n    tag_33:\n      tag_35\n      jump\t// in\n    tag_32:\n      stop\n        /* \"backEnd/contracts/restrictions.sol\":240:279  uint256 public voting_duration = 432000 */\n    tag_5:\n      callvalue\n      dup1\n      iszero\n      tag_36\n      jumpi\n      0x00\n      dup1\n      revert\n    tag_36:\n      pop\n      tag_37\n      tag_38\n      jump\t// in\n    tag_37:\n      mload(0x40)\n      tag_39\n      swap2\n      swap1\n      tag_40\n      jump\t// in\n    tag_39:\n      mload(0x40)\n      dup1\n      swap2\n      sub\n      swap1\n      return\n        /* \"backEnd/contracts/BUNN_Governor_Proxy.sol\":6930:6968  function UPGRADE() public onlyOwner {} */\n    tag_6:\n      callvalue\n      dup1\n      iszero\n      tag_41\n      jumpi\n      0x00\n      dup1\n      revert\n    tag_41:\n      pop\n      tag_42\n      tag_43\n      jump\t// in\n    tag_42:\n      stop\n        /* \"backEnd/contracts/restrictions.sol\":676:881  function quorum(... */\n    tag_7:\n      callvalue\n      dup1\n      iszero\n      tag_44\n      jumpi\n      0x00\n      dup1\n      revert\n    tag_44:\n      pop\n      tag_45\n      0x04\n      dup1\n      calldatasize\n      sub\n      dup2\n      add\n      swap1\n      tag_46\n      swap2\n      swap1\n      tag_47\n      jump\t// in\n    tag_46:\n      tag_48\n      jump\t// in\n    tag_45:\n      mload(0x40)\n      tag_49\n      swap2\n      swap1\n      tag_50\n      jump\t// in\n    tag_49:\n      mload(0x40)\n      dup1\n      swap2\n      sub\n      swap1\n      return\n        /* \"backEnd/contracts/BUNN_Governor_Proxy.sol\":1404:1463  mapping(address => mapping (uint => ballot)) public ballots */\n    tag_8:\n      callvalue\n      dup1\n      iszero\n      tag_51\n      jumpi\n      0x00\n      dup1\n      revert\n    tag_51:\n      pop\n      tag_52\n      0x04\n      dup1\n      calldatasize\n      sub\n      dup2\n      add\n      swap1\n      tag_53\n      swap2\n      swap1\n      tag_54\n      jump\t// in\n    tag_53:\n      tag_55\n      jump\t// in\n    tag_52:\n      mload(0x40)\n      tag_56\n      swap4\n      swap3\n      swap2\n      swap1\n      tag_57\n      jump\t// in\n    tag_56:\n      mload(0x40)\n      dup1\n      swap2\n      sub\n      swap1\n      return\n        /* \"backEnd/contracts/BUNN_Governor_Proxy.sol\":2250:2286  mapping(uint => Topic) public Topics */\n    tag_9:\n      callvalue\n      dup1\n      iszero\n      tag_58\n      jumpi\n      0x00\n      dup1\n      revert\n    tag_58:\n      pop\n      tag_59\n      0x04\n      dup1\n      calldatasize\n      sub\n      dup2\n      add\n      swap1\n      tag_60\n      swap2\n      swap1\n      tag_61\n      jump\t// in\n    tag_60:\n      tag_62\n      jump\t// in\n    tag_59:\n      mload(0x40)\n      tag_63\n      swap10\n      swap9\n      swap8\n      swap7\n      swap6\n      swap5\n      swap4\n      swap3\n      swap2\n      swap1\n      tag_64\n      jump\t// in\n    tag_63:\n      mload(0x40)\n      dup1\n      swap2\n      sub\n      swap1\n      return\n        /* \"backEnd/contracts/BUNN_Governor_Proxy.sol\":1551:1585  mapping(uint => vote) public votes */\n    tag_10:\n      callvalue\n      dup1\n      iszero\n      tag_65\n      jumpi\n      0x00\n      dup1\n      revert\n    tag_65:\n      pop\n      tag_66\n      0x04\n      dup1\n      calldatasize\n      sub\n      dup2\n      add\n      swap1\n      tag_67\n      swap2\n      swap1\n      tag_61\n      jump\t// in\n    tag_67:\n      tag_68\n      jump\t// in\n    tag_66:\n      mload(0x40)\n      tag_69\n      swap3\n      swap2\n      swap1\n      tag_70\n      jump\t// in\n    tag_69:\n      mload(0x40)\n      dup1\n      swap2\n      sub\n      swap1\n      return\n        /* \"backEnd/contracts/BUNN_Governor_Proxy.sol\":2221:2244  uint public counter = 1 */\n    tag_11:\n      callvalue\n      dup1\n      iszero\n      tag_71\n      jumpi\n      0x00\n      dup1\n      revert\n    tag_71:\n      pop\n      tag_72\n      tag_73\n      jump\t// in\n    tag_72:\n      mload(0x40)\n      tag_74\n      swap2\n      swap1\n      tag_40\n      jump\t// in\n    tag_74:\n      mload(0x40)\n      dup1\n      swap2\n      sub\n      swap1\n      return\n        /* \"backEnd/contracts/restrictions.sol\":294:337  uint256 public implementation_delay = 86400 */\n    tag_12:\n      callvalue\n      dup1\n      iszero\n      tag_75\n      jumpi\n      0x00\n      dup1\n      revert\n    tag_75:\n      pop\n      tag_76\n      tag_77\n      jump\t// in\n    tag_76:\n      mload(0x40)\n      tag_78\n      swap2\n      swap1\n      tag_40\n      jump\t// in\n    tag_78:\n      mload(0x40)\n      dup1\n      swap2\n      sub\n      swap1\n      return\n        /* \"backEnd/contracts/BUNN_Governor_Proxy.sol\":333:356  uint256 public returned */\n    tag_13:\n      callvalue\n      dup1\n      iszero\n      tag_79\n      jumpi\n      0x00\n      dup1\n      revert\n    tag_79:\n      pop\n      tag_80\n      tag_81\n      jump\t// in\n    tag_80:\n      mload(0x40)\n      tag_82\n      swap2\n      swap1\n      tag_40\n      jump\t// in\n    tag_82:\n      mload(0x40)\n      dup1\n      swap2\n      sub\n      swap1\n      return\n        /* \"backEnd/contracts/BUNN_Governor_Proxy.sol\":5597:6626  function implement_decision(... */\n    tag_14:\n      tag_83\n      0x04\n      dup1\n      calldatasize\n      sub\n      dup2\n      add\n      swap1\n      tag_84\n      swap2\n      swap1\n      tag_61\n      jump\t// in\n    tag_84:\n      tag_85\n      jump\t// in\n    tag_83:\n      stop\n        /* \"backEnd/contracts/BUNN_Governor_Proxy.sol\":291:327  address public utility_token_address */\n    tag_15:\n      callvalue\n      dup1\n      iszero\n      tag_86\n      jumpi\n      0x00\n      dup1\n      revert\n    tag_86:\n      pop\n      tag_87\n      tag_88\n      jump\t// in\n    tag_87:\n      mload(0x40)\n      tag_89\n      swap2\n      swap1\n      tag_90\n      jump\t// in\n    tag_89:\n      mload(0x40)\n      dup1\n      swap2\n      sub\n      swap1\n      return\n        /* \"backEnd/contracts/BUNN_Governor_Proxy.sol\":2920:3145  function register(string memory name_/* , uint256 d_tokens */) public {... */\n    tag_16:\n      callvalue\n      dup1\n      iszero\n      tag_91\n      jumpi\n      0x00\n      dup1\n      revert\n    tag_91:\n      pop\n      tag_92\n      0x04\n      dup1\n      calldatasize\n      sub\n      dup2\n      add\n      swap1\n      tag_93\n      swap2\n      swap1\n      tag_94\n      jump\t// in\n    tag_93:\n      tag_95\n      jump\t// in\n    tag_92:\n      stop\n        /* \"backEnd/contracts/BUNN_Governor_Proxy.sol\":915:956  mapping(address => Member) public Members */\n    tag_17:\n      callvalue\n      dup1\n      iszero\n      tag_96\n      jumpi\n      0x00\n      dup1\n      revert\n    tag_96:\n      pop\n      tag_97\n      0x04\n      dup1\n      calldatasize\n      sub\n      dup2\n      add\n      swap1\n      tag_98\n      swap2\n      swap1\n      tag_29\n      jump\t// in\n    tag_98:\n      tag_99\n      jump\t// in\n    tag_97:\n      mload(0x40)\n      tag_100\n      swap3\n      swap2\n      swap1\n      tag_101\n      jump\t// in\n    tag_100:\n      mload(0x40)\n      dup1\n      swap2\n      sub\n      swap1\n      return\n        /* \"backEnd/contracts/BUNN_Governor_Proxy.sol\":3202:4094  function initiate_topic(... */\n    tag_25:\n        /* \"backEnd/contracts/BUNN_Governor_Proxy.sol\":3431:3438  Members */\n      0x05\n        /* \"backEnd/contracts/BUNN_Governor_Proxy.sol\":3431:3450  Members[msg.sender] */\n      0x00\n        /* \"backEnd/contracts/BUNN_Governor_Proxy.sol\":3439:3449  msg.sender */\n      caller\n        /* \"backEnd/contracts/BUNN_Governor_Proxy.sol\":3431:3450  Members[msg.sender] */\n      0xffffffffffffffffffffffffffffffffffffffff\n      and\n      0xffffffffffffffffffffffffffffffffffffffff\n      and\n      dup2\n      mstore\n      0x20\n      add\n      swap1\n      dup2\n      mstore\n      0x20\n      add\n      0x00\n      keccak256\n        /* \"backEnd/contracts/BUNN_Governor_Proxy.sol\":3431:3458  Members[msg.sender].belongs */\n      0x01\n      add\n      0x00\n      swap1\n      sload\n      swap1\n      0x0100\n      exp\n      swap1\n      div\n      0xff\n      and\n        /* \"backEnd/contracts/BUNN_Governor_Proxy.sol\":3423:3475  require(Members[msg.sender].belongs, \"NOT A MEMBER\") */\n      tag_103\n      jumpi\n      mload(0x40)\n      0x08c379a000000000000000000000000000000000000000000000000000000000\n      dup2\n      mstore\n      0x04\n      add\n      tag_104\n      swap1\n      tag_105\n      jump\t// in\n    tag_104:\n      mload(0x40)\n      dup1\n      swap2\n      sub\n      swap1\n      revert\n    tag_103:\n        /* \"backEnd/contracts/BUNN_Governor_Proxy.sol\":3486:3508  Topic memory new_topic */\n      0x00\n        /* \"backEnd/contracts/BUNN_Governor_Proxy.sol\":3511:3892  Topic({... */\n      mload(0x40)\n      dup1\n      0x0120\n      add\n      0x40\n      mstore\n      dup1\n        /* \"backEnd/contracts/BUNN_Governor_Proxy.sol\":3535:3542  counter */\n      sload(0x08)\n        /* \"backEnd/contracts/BUNN_Governor_Proxy.sol\":3511:3892  Topic({... */\n      dup2\n      mstore\n      0x20\n      add\n        /* \"backEnd/contracts/BUNN_Governor_Proxy.sol\":3563:3569  Title_ */\n      dup7\n        /* \"backEnd/contracts/BUNN_Governor_Proxy.sol\":3511:3892  Topic({... */\n      dup2\n      mstore\n      0x20\n      add\n        /* \"backEnd/contracts/BUNN_Governor_Proxy.sol\":3594:3604  msg.sender */\n      caller\n        /* \"backEnd/contracts/BUNN_Governor_Proxy.sol\":3511:3892  Topic({... */\n      0xffffffffffffffffffffffffffffffffffffffff\n      and\n      dup2\n      mstore\n      0x20\n      add\n        /* \"backEnd/contracts/BUNN_Governor_Proxy.sol\":3651:3682  implementation_contract_address */\n      dup6\n        /* \"backEnd/contracts/BUNN_Governor_Proxy.sol\":3511:3892  Topic({... */\n      0xffffffffffffffffffffffffffffffffffffffff\n      and\n      dup2\n      mstore\n      0x20\n      add\n        /* \"backEnd/contracts/BUNN_Governor_Proxy.sol\":3730:3747  contract_argument */\n      dup5\n        /* \"backEnd/contracts/BUNN_Governor_Proxy.sol\":3511:3892  Topic({... */\n      dup2\n      mstore\n      0x20\n      add\n        /* \"backEnd/contracts/BUNN_Governor_Proxy.sol\":3772:3781  signature */\n      dup4\n        /* \"backEnd/contracts/BUNN_Governor_Proxy.sol\":3511:3892  Topic({... */\n      dup2\n      mstore\n      0x20\n      add\n        /* \"backEnd/contracts/BUNN_Governor_Proxy.sol\":3807:3822  block.timestamp */\n      timestamp\n        /* \"backEnd/contracts/BUNN_Governor_Proxy.sol\":3511:3892  Topic({... */\n      dup2\n      mstore\n      0x20\n      add\n        /* \"backEnd/contracts/BUNN_Governor_Proxy.sol\":3846:3851  false */\n      0x00\n        /* \"backEnd/contracts/BUNN_Governor_Proxy.sol\":3511:3892  Topic({... */\n      iszero\n      iszero\n      dup2\n      mstore\n      0x20\n      add\n        /* \"backEnd/contracts/BUNN_Governor_Proxy.sol\":3876:3881  false */\n      0x00\n        /* \"backEnd/contracts/BUNN_Governor_Proxy.sol\":3511:3892  Topic({... */\n      iszero\n      iszero\n      dup2\n      mstore\n      pop\n        /* \"backEnd/contracts/BUNN_Governor_Proxy.sol\":3486:3892  Topic memory new_topic = Topic({... */\n      swap1\n      pop\n        /* \"backEnd/contracts/BUNN_Governor_Proxy.sol\":3997:4006  new_topic */\n      dup1\n        /* \"backEnd/contracts/BUNN_Governor_Proxy.sol\":3974:3980  Topics */\n      0x09\n        /* \"backEnd/contracts/BUNN_Governor_Proxy.sol\":3974:3994  Topics[new_topic.id] */\n      0x00\n        /* \"backEnd/contracts/BUNN_Governor_Proxy.sol\":3981:3990  new_topic */\n      dup4\n        /* \"backEnd/contracts/BUNN_Governor_Proxy.sol\":3981:3993  new_topic.id */\n      0x00\n      add\n      mload\n        /* \"backEnd/contracts/BUNN_Governor_Proxy.sol\":3974:3994  Topics[new_topic.id] */\n      dup2\n      mstore\n      0x20\n      add\n      swap1\n      dup2\n      mstore\n      0x20\n      add\n      0x00\n      keccak256\n        /* \"backEnd/contracts/BUNN_Governor_Proxy.sol\":3974:4006  Topics[new_topic.id] = new_topic */\n      0x00\n      dup3\n      add\n      mload\n      dup2\n      0x00\n      add\n      sstore\n      0x20\n      dup3\n      add\n      mload\n      dup2\n      0x01\n      add\n      swap1\n      dup2\n      tag_106\n      swap2\n      swap1\n      tag_107\n      jump\t// in\n    tag_106:\n      pop\n      0x40\n      dup3\n      add\n      mload\n      dup2\n      0x02\n      add\n      exp(0x0100, 0x00)\n      dup2\n      sload\n      dup2\n      0xffffffffffffffffffffffffffffffffffffffff\n      mul\n      not\n      and\n      swap1\n      dup4\n      0xffffffffffffffffffffffffffffffffffffffff\n      and\n      mul\n      or\n      swap1\n      sstore\n      pop\n      0x60\n      dup3\n      add\n      mload\n      dup2\n      0x03\n      add\n      exp(0x0100, 0x00)\n      dup2\n      sload\n      dup2\n      0xffffffffffffffffffffffffffffffffffffffff\n      mul\n      not\n      and\n      swap1\n      dup4\n      0xffffffffffffffffffffffffffffffffffffffff\n      and\n      mul\n      or\n      swap1\n      sstore\n      pop\n      0x80\n      dup3\n      add\n      mload\n      dup2\n      0x04\n      add\n      sstore\n      0xa0\n      dup3\n      add\n      mload\n      dup2\n      0x05\n      add\n      swap1\n      dup2\n      tag_108\n      swap2\n      swap1\n      tag_107\n      jump\t// in\n    tag_108:\n      pop\n      0xc0\n      dup3\n      add\n      mload\n      dup2\n      0x06\n      add\n      sstore\n      0xe0\n      dup3\n      add\n      mload\n      dup2\n      0x07\n      add\n      exp(0x0100, 0x00)\n      dup2\n      sload\n      dup2\n      0xff\n      mul\n      not\n      and\n      swap1\n      dup4\n      iszero\n      iszero\n      mul\n      or\n      swap1\n      sstore\n      pop\n      0x0100\n      dup3\n      add\n      mload\n      dup2\n      0x07\n      add\n      exp(0x0100, 0x01)\n      dup2\n      sload\n      dup2\n      0xff\n      mul\n      not\n      and\n      swap1\n      dup4\n      iszero\n      iszero\n      mul\n      or\n      swap1\n      sstore\n      pop\n      swap1\n      pop\n      pop\n        /* \"backEnd/contracts/BUNN_Governor_Proxy.sol\":4037:4038  1 */\n      0x01\n        /* \"backEnd/contracts/BUNN_Governor_Proxy.sol\":4027:4034  counter */\n      sload(0x08)\n        /* \"backEnd/contracts/BUNN_Governor_Proxy.sol\":4027:4038  counter + 1 */\n      tag_109\n      swap2\n      swap1\n      tag_110\n      jump\t// in\n    tag_109:\n        /* \"backEnd/contracts/BUNN_Governor_Proxy.sol\":4017:4024  counter */\n      0x08\n        /* \"backEnd/contracts/BUNN_Governor_Proxy.sol\":4017:4038  counter = counter + 1 */\n      dup2\n      swap1\n      sstore\n      pop\n        /* \"backEnd/contracts/BUNN_Governor_Proxy.sol\":4076:4086  msg.sender */\n      caller\n        /* \"backEnd/contracts/BUNN_Governor_Proxy.sol\":4053:4087  proposal_made(counter, msg.sender) */\n      0xffffffffffffffffffffffffffffffffffffffff\n      and\n      0x7e25f8742b0359507d9119310ec6e12a3e4201d358df6b156dd313a3db8d1265\n        /* \"backEnd/contracts/BUNN_Governor_Proxy.sol\":4067:4074  counter */\n      sload(0x08)\n        /* \"backEnd/contracts/BUNN_Governor_Proxy.sol\":4053:4087  proposal_made(counter, msg.sender) */\n      mload(0x40)\n      tag_111\n      swap2\n      swap1\n      tag_40\n      jump\t// in\n    tag_111:\n      mload(0x40)\n      dup1\n      swap2\n      sub\n      swap1\n      log2\n        /* \"backEnd/contracts/BUNN_Governor_Proxy.sol\":3385:4094  {... */\n      pop\n        /* \"backEnd/contracts/BUNN_Governor_Proxy.sol\":3202:4094  function initiate_topic(... */\n      pop\n      pop\n      pop\n      pop\n      jump\t// out\n        /* \"backEnd/contracts/BUNN_Governor_Proxy.sol\":6833:6924  function setOwner(address newAdmin) public onlyOwner{... */\n    tag_30:\n        /* \"backEnd/contracts/BUNN_Governor_Proxy.sol\":6769:6774  admin */\n      0x04\n        /* \"backEnd/contracts/BUNN_Governor_Proxy.sol\":6769:6786  admin[msg.sender] */\n      0x00\n        /* \"backEnd/contracts/BUNN_Governor_Proxy.sol\":6775:6785  msg.sender */\n      caller\n        /* \"backEnd/contracts/BUNN_Governor_Proxy.sol\":6769:6786  admin[msg.sender] */\n      0xffffffffffffffffffffffffffffffffffffffff\n      and\n      0xffffffffffffffffffffffffffffffffffffffff\n      and\n      dup2\n      mstore\n      0x20\n      add\n      swap1\n      dup2\n      mstore\n      0x20\n      add\n      0x00\n      keccak256\n      0x00\n      swap1\n      sload\n      swap1\n      0x0100\n      exp\n      swap1\n      div\n      0xff\n      and\n        /* \"backEnd/contracts/BUNN_Governor_Proxy.sol\":6761:6809  require(admin[msg.sender], \"NOT A VALID CALLER\") */\n      tag_113\n      jumpi\n      mload(0x40)\n      0x08c379a000000000000000000000000000000000000000000000000000000000\n      dup2\n      mstore\n      0x04\n      add\n      tag_114\n      swap1\n      tag_115\n      jump\t// in\n    tag_114:\n      mload(0x40)\n      dup1\n      swap2\n      sub\n      swap1\n      revert\n    tag_113:\n        /* \"backEnd/contracts/BUNN_Governor_Proxy.sol\":6913:6917  true */\n      0x01\n        /* \"backEnd/contracts/BUNN_Governor_Proxy.sol\":6895:6900  admin */\n      0x04\n        /* \"backEnd/contracts/BUNN_Governor_Proxy.sol\":6895:6910  admin[newAdmin] */\n      0x00\n        /* \"backEnd/contracts/BUNN_Governor_Proxy.sol\":6901:6909  newAdmin */\n      dup4\n        /* \"backEnd/contracts/BUNN_Governor_Proxy.sol\":6895:6910  admin[newAdmin] */\n      0xffffffffffffffffffffffffffffffffffffffff\n      and\n      0xffffffffffffffffffffffffffffffffffffffff\n      and\n      dup2\n      mstore\n      0x20\n      add\n      swap1\n      dup2\n      mstore\n      0x20\n      add\n      0x00\n      keccak256\n      0x00\n        /* \"backEnd/contracts/BUNN_Governor_Proxy.sol\":6895:6917  admin[newAdmin] = true */\n      0x0100\n      exp\n      dup2\n      sload\n      dup2\n      0xff\n      mul\n      not\n      and\n      swap1\n      dup4\n      iszero\n      iszero\n      mul\n      or\n      swap1\n      sstore\n      pop\n        /* \"backEnd/contracts/BUNN_Governor_Proxy.sol\":6833:6924  function setOwner(address newAdmin) public onlyOwner{... */\n      pop\n      jump\t// out\n        /* \"backEnd/contracts/BUNN_Governor_Proxy.sol\":4144:5514  function cast_vote(uint topic_id, bool position_) public {... */\n    tag_35:\n        /* \"backEnd/contracts/BUNN_Governor_Proxy.sol\":4211:4229  Topic memory topic */\n      0x00\n        /* \"backEnd/contracts/BUNN_Governor_Proxy.sol\":4232:4238  Topics */\n      0x09\n        /* \"backEnd/contracts/BUNN_Governor_Proxy.sol\":4232:4248  Topics[topic_id] */\n      0x00\n        /* \"backEnd/contracts/BUNN_Governor_Proxy.sol\":4239:4247  topic_id */\n      dup5\n        /* \"backEnd/contracts/BUNN_Governor_Proxy.sol\":4232:4248  Topics[topic_id] */\n      dup2\n      mstore\n      0x20\n      add\n      swap1\n      dup2\n      mstore\n      0x20\n      add\n      0x00\n      keccak256\n        /* \"backEnd/contracts/BUNN_Governor_Proxy.sol\":4211:4248  Topic memory topic = Topics[topic_id] */\n      mload(0x40)\n      dup1\n      0x0120\n      add\n      0x40\n      mstore\n      swap1\n      dup2\n      0x00\n      dup3\n      add\n      sload\n      dup2\n      mstore\n      0x20\n      add\n      0x01\n      dup3\n      add\n      dup1\n      sload\n      tag_118\n      swap1\n      tag_119\n      jump\t// in\n    tag_118:\n      dup1\n      0x1f\n      add\n      0x20\n      dup1\n      swap2\n      div\n      mul\n      0x20\n      add\n      mload(0x40)\n      swap1\n      dup2\n      add\n      0x40\n      mstore\n      dup1\n      swap3\n      swap2\n      swap1\n      dup2\n      dup2\n      mstore\n      0x20\n      add\n      dup3\n      dup1\n      sload\n      tag_120\n      swap1\n      tag_119\n      jump\t// in\n    tag_120:\n      dup1\n      iszero\n      tag_121\n      jumpi\n      dup1\n      0x1f\n      lt\n      tag_122\n      jumpi\n      0x0100\n      dup1\n      dup4\n      sload\n      div\n      mul\n      dup4\n      mstore\n      swap2\n      0x20\n      add\n      swap2\n      jump(tag_121)\n    tag_122:\n      dup3\n      add\n      swap2\n      swap1\n      0x00\n      mstore\n      keccak256(0x00, 0x20)\n      swap1\n    tag_123:\n      dup2\n      sload\n      dup2\n      mstore\n      swap1\n      0x01\n      add\n      swap1\n      0x20\n      add\n      dup1\n      dup4\n      gt\n      tag_123\n      jumpi\n      dup3\n      swap1\n      sub\n      0x1f\n      and\n      dup3\n      add\n      swap2\n    tag_121:\n      pop\n      pop\n      pop\n      pop\n      pop\n      dup2\n      mstore\n      0x20\n      add\n      0x02\n      dup3\n      add\n      0x00\n      swap1\n      sload\n      swap1\n      0x0100\n      exp\n      swap1\n      div\n      0xffffffffffffffffffffffffffffffffffffffff\n      and\n      0xffffffffffffffffffffffffffffffffffffffff\n      and\n      0xffffffffffffffffffffffffffffffffffffffff\n      and\n      dup2\n      mstore\n      0x20\n      add\n      0x03\n      dup3\n      add\n      0x00\n      swap1\n      sload\n      swap1\n      0x0100\n      exp\n      swap1\n      div\n      0xffffffffffffffffffffffffffffffffffffffff\n      and\n      0xffffffffffffffffffffffffffffffffffffffff\n      and\n      0xffffffffffffffffffffffffffffffffffffffff\n      and\n      dup2\n      mstore\n      0x20\n      add\n      0x04\n      dup3\n      add\n      sload\n      dup2\n      mstore\n      0x20\n      add\n      0x05\n      dup3\n      add\n      dup1\n      sload\n      tag_124\n      swap1\n      tag_119\n      jump\t// in\n    tag_124:\n      dup1\n      0x1f\n      add\n      0x20\n      dup1\n      swap2\n      div\n      mul\n      0x20\n      add\n      mload(0x40)\n      swap1\n      dup2\n      add\n      0x40\n      mstore\n      dup1\n      swap3\n      swap2\n      swap1\n      dup2\n      dup2\n      mstore\n      0x20\n      add\n      dup3\n      dup1\n      sload\n      tag_125\n      swap1\n      tag_119\n      jump\t// in\n    tag_125:\n      dup1\n      iszero\n      tag_126\n      jumpi\n      dup1\n      0x1f\n      lt\n      tag_127\n      jumpi\n      0x0100\n      dup1\n      dup4\n      sload\n      div\n      mul\n      dup4\n      mstore\n      swap2\n      0x20\n      add\n      swap2\n      jump(tag_126)\n    tag_127:\n      dup3\n      add\n      swap2\n      swap1\n      0x00\n      mstore\n      keccak256(0x00, 0x20)\n      swap1\n    tag_128:\n      dup2\n      sload\n      dup2\n      mstore\n      swap1\n      0x01\n      add\n      swap1\n      0x20\n      add\n      dup1\n      dup4\n      gt\n      tag_128\n      jumpi\n      dup3\n      swap1\n      sub\n      0x1f\n      and\n      dup3\n      add\n      swap2\n    tag_126:\n      pop\n      pop\n      pop\n      pop\n      pop\n      dup2\n      mstore\n      0x20\n      add\n      0x06\n      dup3\n      add\n      sload\n      dup2\n      mstore\n      0x20\n      add\n      0x07\n      dup3\n      add\n      0x00\n      swap1\n      sload\n      swap1\n      0x0100\n      exp\n      swap1\n      div\n      0xff\n      and\n      iszero\n      iszero\n      iszero\n      iszero\n      dup2\n      mstore\n      0x20\n      add\n      0x07\n      dup3\n      add\n      0x01\n      swap1\n      sload\n      swap1\n      0x0100\n      exp\n      swap1\n      div\n      0xff\n      and\n      iszero\n      iszero\n      iszero\n      iszero\n      dup2\n      mstore\n      pop\n      pop\n      swap1\n      pop\n        /* \"backEnd/contracts/BUNN_Governor_Proxy.sol\":4285:4304  IUTILITY_TOKEN BUNN */\n      0x00\n        /* \"backEnd/contracts/BUNN_Governor_Proxy.sol\":4322:4343  utility_token_address */\n      0x02\n      0x00\n      swap1\n      sload\n      swap1\n      0x0100\n      exp\n      swap1\n      div\n      0xffffffffffffffffffffffffffffffffffffffff\n      and\n        /* \"backEnd/contracts/BUNN_Governor_Proxy.sol\":4285:4344  IUTILITY_TOKEN BUNN = IUTILITY_TOKEN(utility_token_address) */\n      swap1\n      pop\n        /* \"backEnd/contracts/BUNN_Governor_Proxy.sol\":4410:4417  Members */\n      0x05\n        /* \"backEnd/contracts/BUNN_Governor_Proxy.sol\":4410:4429  Members[msg.sender] */\n      0x00\n        /* \"backEnd/contracts/BUNN_Governor_Proxy.sol\":4418:4428  msg.sender */\n      caller\n        /* \"backEnd/contracts/BUNN_Governor_Proxy.sol\":4410:4429  Members[msg.sender] */\n      0xffffffffffffffffffffffffffffffffffffffff\n      and\n      0xffffffffffffffffffffffffffffffffffffffff\n      and\n      dup2\n      mstore\n      0x20\n      add\n      swap1\n      dup2\n      mstore\n      0x20\n      add\n      0x00\n      keccak256\n        /* \"backEnd/contracts/BUNN_Governor_Proxy.sol\":4410:4437  Members[msg.sender].belongs */\n      0x01\n      add\n      0x00\n      swap1\n      sload\n      swap1\n      0x0100\n      exp\n      swap1\n      div\n      0xff\n      and\n        /* \"backEnd/contracts/BUNN_Governor_Proxy.sol\":4402:4454  require(Members[msg.sender].belongs, \"NOT A MEMBER\") */\n      tag_129\n      jumpi\n      mload(0x40)\n      0x08c379a000000000000000000000000000000000000000000000000000000000\n      dup2\n      mstore\n      0x04\n      add\n      tag_130\n      swap1\n      tag_105\n      jump\t// in\n    tag_130:\n      mload(0x40)\n      dup1\n      swap2\n      sub\n      swap1\n      revert\n    tag_129:\n        /* \"backEnd/contracts/BUNN_Governor_Proxy.sol\":4515:4531  uint256 end_time */\n      0x00\n        /* \"backEnd/contracts/BUNN_Governor_Proxy.sol\":4552:4557  topic */\n      dup3\n        /* \"backEnd/contracts/BUNN_Governor_Proxy.sol\":4552:4568  topic.start_time */\n      0xc0\n      add\n      mload\n        /* \"backEnd/contracts/BUNN_Governor_Proxy.sol\":4534:4549  voting_duration */\n      sload(0x00)\n        /* \"backEnd/contracts/BUNN_Governor_Proxy.sol\":4534:4568  voting_duration + topic.start_time */\n      tag_131\n      swap2\n      swap1\n      tag_110\n      jump\t// in\n    tag_131:\n        /* \"backEnd/contracts/BUNN_Governor_Proxy.sol\":4515:4568  uint256 end_time = voting_duration + topic.start_time */\n      swap1\n      pop\n        /* \"backEnd/contracts/BUNN_Governor_Proxy.sol\":4597:4612  block.timestamp */\n      timestamp\n        /* \"backEnd/contracts/BUNN_Governor_Proxy.sol\":4586:4594  end_time */\n      dup2\n        /* \"backEnd/contracts/BUNN_Governor_Proxy.sol\":4586:4612  end_time > block.timestamp */\n      gt\n        /* \"backEnd/contracts/BUNN_Governor_Proxy.sol\":4578:4642  require(end_time > block.timestamp, \"VOTING PERIOD HAS ELAPSED\") */\n      tag_132\n      jumpi\n      mload(0x40)\n      0x08c379a000000000000000000000000000000000000000000000000000000000\n      dup2\n      mstore\n      0x04\n      add\n      tag_133\n      swap1\n      tag_134\n      jump\t// in\n    tag_133:\n      mload(0x40)\n      dup1\n      swap2\n      sub\n      swap1\n      revert\n    tag_132:\n        /* \"backEnd/contracts/BUNN_Governor_Proxy.sol\":4754:4755  0 */\n      0x00\n        /* \"backEnd/contracts/BUNN_Governor_Proxy.sol\":4725:4729  BUNN */\n      dup3\n        /* \"backEnd/contracts/BUNN_Governor_Proxy.sol\":4725:4739  BUNN.balanceOf */\n      0xffffffffffffffffffffffffffffffffffffffff\n      and\n      0x70a08231\n        /* \"backEnd/contracts/BUNN_Governor_Proxy.sol\":4740:4750  msg.sender */\n      caller\n        /* \"backEnd/contracts/BUNN_Governor_Proxy.sol\":4725:4751  BUNN.balanceOf(msg.sender) */\n      mload(0x40)\n      dup3\n      0xffffffff\n      and\n      0xe0\n      shl\n      dup2\n      mstore\n      0x04\n      add\n      tag_135\n      swap2\n      swap1\n      tag_90\n      jump\t// in\n    tag_135:\n      0x20\n      mload(0x40)\n      dup1\n      dup4\n      sub\n      dup2\n      dup7\n      gas\n      staticcall\n      iszero\n      dup1\n      iszero\n      tag_137\n      jumpi\n      returndatasize\n      0x00\n      dup1\n      returndatacopy\n      revert(0x00, returndatasize)\n    tag_137:\n      pop\n      pop\n      pop\n      pop\n      mload(0x40)\n      returndatasize\n      not(0x1f)\n      0x1f\n      dup3\n      add\n      and\n      dup3\n      add\n      dup1\n      0x40\n      mstore\n      pop\n      dup2\n      add\n      swap1\n      tag_138\n      swap2\n      swap1\n      tag_139\n      jump\t// in\n    tag_138:\n        /* \"backEnd/contracts/BUNN_Governor_Proxy.sol\":4725:4755  BUNN.balanceOf(msg.sender) > 0 */\n      gt\n        /* \"backEnd/contracts/BUNN_Governor_Proxy.sol\":4704:4827  require(... */\n      tag_140\n      jumpi\n      mload(0x40)\n      0x08c379a000000000000000000000000000000000000000000000000000000000\n      dup2\n      mstore\n      0x04\n      add\n      tag_141\n      swap1\n      tag_142\n      jump\t// in\n    tag_141:\n      mload(0x40)\n      dup1\n      swap2\n      sub\n      swap1\n      revert\n    tag_140:\n        /* \"backEnd/contracts/BUNN_Governor_Proxy.sol\":4990:4997  ballots */\n      0x06\n        /* \"backEnd/contracts/BUNN_Governor_Proxy.sol\":4990:5009  ballots[msg.sender] */\n      0x00\n        /* \"backEnd/contracts/BUNN_Governor_Proxy.sol\":4998:5008  msg.sender */\n      caller\n        /* \"backEnd/contracts/BUNN_Governor_Proxy.sol\":4990:5009  ballots[msg.sender] */\n      0xffffffffffffffffffffffffffffffffffffffff\n      and\n      0xffffffffffffffffffffffffffffffffffffffff\n      and\n      dup2\n      mstore\n      0x20\n      add\n      swap1\n      dup2\n      mstore\n      0x20\n      add\n      0x00\n      keccak256\n        /* \"backEnd/contracts/BUNN_Governor_Proxy.sol\":4990:5019  ballots[msg.sender][topic_id] */\n      0x00\n        /* \"backEnd/contracts/BUNN_Governor_Proxy.sol\":5010:5018  topic_id */\n      dup7\n        /* \"backEnd/contracts/BUNN_Governor_Proxy.sol\":4990:5019  ballots[msg.sender][topic_id] */\n      dup2\n      mstore\n      0x20\n      add\n      swap1\n      dup2\n      mstore\n      0x20\n      add\n      0x00\n      keccak256\n        /* \"backEnd/contracts/BUNN_Governor_Proxy.sol\":4990:5025  ballots[msg.sender][topic_id].voted */\n      0x01\n      add\n      0x01\n      swap1\n      sload\n      swap1\n      0x0100\n      exp\n      swap1\n      div\n      0xff\n      and\n        /* \"backEnd/contracts/BUNN_Governor_Proxy.sol\":4989:5025  !ballots[msg.sender][topic_id].voted */\n      iszero\n        /* \"backEnd/contracts/BUNN_Governor_Proxy.sol\":4981:5068  require(!ballots[msg.sender][topic_id].voted, \"MEMBERS CAN ONLY CAST A VOTE PER TOPIC\") */\n      tag_143\n      jumpi\n      mload(0x40)\n      0x08c379a000000000000000000000000000000000000000000000000000000000\n      dup2\n      mstore\n      0x04\n      add\n      tag_144\n      swap1\n      tag_145\n      jump\t// in\n    tag_144:\n      mload(0x40)\n      dup1\n      swap2\n      sub\n      swap1\n      revert\n    tag_143:\n        /* \"backEnd/contracts/BUNN_Governor_Proxy.sol\":5110:5218  ballot({... */\n      mload(0x40)\n      dup1\n      0x60\n      add\n      0x40\n      mstore\n      dup1\n        /* \"backEnd/contracts/BUNN_Governor_Proxy.sol\":5141:5149  topic_id */\n      dup7\n        /* \"backEnd/contracts/BUNN_Governor_Proxy.sol\":5110:5218  ballot({... */\n      dup2\n      mstore\n      0x20\n      add\n        /* \"backEnd/contracts/BUNN_Governor_Proxy.sol\":5173:5182  position_ */\n      dup6\n        /* \"backEnd/contracts/BUNN_Governor_Proxy.sol\":5110:5218  ballot({... */\n      iszero\n      iszero\n      dup2\n      mstore\n      0x20\n      add\n        /* \"backEnd/contracts/BUNN_Governor_Proxy.sol\":5203:5207  true */\n      0x01\n        /* \"backEnd/contracts/BUNN_Governor_Proxy.sol\":5110:5218  ballot({... */\n      iszero\n      iszero\n      dup2\n      mstore\n      pop\n        /* \"backEnd/contracts/BUNN_Governor_Proxy.sol\":5078:5085  ballots */\n      0x06\n        /* \"backEnd/contracts/BUNN_Governor_Proxy.sol\":5078:5097  ballots[msg.sender] */\n      0x00\n        /* \"backEnd/contracts/BUNN_Governor_Proxy.sol\":5086:5096  msg.sender */\n      caller\n        /* \"backEnd/contracts/BUNN_Governor_Proxy.sol\":5078:5097  ballots[msg.sender] */\n      0xffffffffffffffffffffffffffffffffffffffff\n      and\n      0xffffffffffffffffffffffffffffffffffffffff\n      and\n      dup2\n      mstore\n      0x20\n      add\n      swap1\n      dup2\n      mstore\n      0x20\n      add\n      0x00\n      keccak256\n        /* \"backEnd/contracts/BUNN_Governor_Proxy.sol\":5078:5107  ballots[msg.sender][topic_id] */\n      0x00\n        /* \"backEnd/contracts/BUNN_Governor_Proxy.sol\":5098:5106  topic_id */\n      dup8\n        /* \"backEnd/contracts/BUNN_Governor_Proxy.sol\":5078:5107  ballots[msg.sender][topic_id] */\n      dup2\n      mstore\n      0x20\n      add\n      swap1\n      dup2\n      mstore\n      0x20\n      add\n      0x00\n      keccak256\n        /* \"backEnd/contracts/BUNN_Governor_Proxy.sol\":5078:5218  ballots[msg.sender][topic_id] = ballot({... */\n      0x00\n      dup3\n      add\n      mload\n      dup2\n      0x00\n      add\n      sstore\n      0x20\n      dup3\n      add\n      mload\n      dup2\n      0x01\n      add\n      exp(0x0100, 0x00)\n      dup2\n      sload\n      dup2\n      0xff\n      mul\n      not\n      and\n      swap1\n      dup4\n      iszero\n      iszero\n      mul\n      or\n      swap1\n      sstore\n      pop\n      0x40\n      dup3\n      add\n      mload\n      dup2\n      0x01\n      add\n      exp(0x0100, 0x01)\n      dup2\n      sload\n      dup2\n      0xff\n      mul\n      not\n      and\n      swap1\n      dup4\n      iszero\n      iszero\n      mul\n      or\n      swap1\n      sstore\n      pop\n      swap1\n      pop\n      pop\n        /* \"backEnd/contracts/BUNN_Governor_Proxy.sol\":5233:5240  ballots */\n      0x06\n        /* \"backEnd/contracts/BUNN_Governor_Proxy.sol\":5233:5252  ballots[msg.sender] */\n      0x00\n        /* \"backEnd/contracts/BUNN_Governor_Proxy.sol\":5241:5251  msg.sender */\n      caller\n        /* \"backEnd/contracts/BUNN_Governor_Proxy.sol\":5233:5252  ballots[msg.sender] */\n      0xffffffffffffffffffffffffffffffffffffffff\n      and\n      0xffffffffffffffffffffffffffffffffffffffff\n      and\n      dup2\n      mstore\n      0x20\n      add\n      swap1\n      dup2\n      mstore\n      0x20\n      add\n      0x00\n      keccak256\n        /* \"backEnd/contracts/BUNN_Governor_Proxy.sol\":5233:5262  ballots[msg.sender][topic_id] */\n      0x00\n        /* \"backEnd/contracts/BUNN_Governor_Proxy.sol\":5253:5261  topic_id */\n      dup7\n        /* \"backEnd/contracts/BUNN_Governor_Proxy.sol\":5233:5262  ballots[msg.sender][topic_id] */\n      dup2\n      mstore\n      0x20\n      add\n      swap1\n      dup2\n      mstore\n      0x20\n      add\n      0x00\n      keccak256\n        /* \"backEnd/contracts/BUNN_Governor_Proxy.sol\":5233:5271  ballots[msg.sender][topic_id].position */\n      0x01\n      add\n      0x00\n      swap1\n      sload\n      swap1\n      0x0100\n      exp\n      swap1\n      div\n      0xff\n      and\n        /* \"backEnd/contracts/BUNN_Governor_Proxy.sol\":5229:5450  if (ballots[msg.sender][topic_id].position) {... */\n      iszero\n      tag_146\n      jumpi\n        /* \"backEnd/contracts/BUNN_Governor_Proxy.sol\":5343:5344  1 */\n      0x01\n        /* \"backEnd/contracts/BUNN_Governor_Proxy.sol\":5315:5320  votes */\n      0x07\n        /* \"backEnd/contracts/BUNN_Governor_Proxy.sol\":5315:5330  votes[topic_id] */\n      0x00\n        /* \"backEnd/contracts/BUNN_Governor_Proxy.sol\":5321:5329  topic_id */\n      dup8\n        /* \"backEnd/contracts/BUNN_Governor_Proxy.sol\":5315:5330  votes[topic_id] */\n      dup2\n      mstore\n      0x20\n      add\n      swap1\n      dup2\n      mstore\n      0x20\n      add\n      0x00\n      keccak256\n        /* \"backEnd/contracts/BUNN_Governor_Proxy.sol\":5315:5340  votes[topic_id].for_votes */\n      0x00\n      add\n      sload\n        /* \"backEnd/contracts/BUNN_Governor_Proxy.sol\":5315:5344  votes[topic_id].for_votes + 1 */\n      tag_147\n      swap2\n      swap1\n      tag_110\n      jump\t// in\n    tag_147:\n        /* \"backEnd/contracts/BUNN_Governor_Proxy.sol\":5287:5292  votes */\n      0x07\n        /* \"backEnd/contracts/BUNN_Governor_Proxy.sol\":5287:5302  votes[topic_id] */\n      0x00\n        /* \"backEnd/contracts/BUNN_Governor_Proxy.sol\":5293:5301  topic_id */\n      dup8\n        /* \"backEnd/contracts/BUNN_Governor_Proxy.sol\":5287:5302  votes[topic_id] */\n      dup2\n      mstore\n      0x20\n      add\n      swap1\n      dup2\n      mstore\n      0x20\n      add\n      0x00\n      keccak256\n        /* \"backEnd/contracts/BUNN_Governor_Proxy.sol\":5287:5312  votes[topic_id].for_votes */\n      0x00\n      add\n        /* \"backEnd/contracts/BUNN_Governor_Proxy.sol\":5287:5344  votes[topic_id].for_votes = votes[topic_id].for_votes + 1 */\n      dup2\n      swap1\n      sstore\n      pop\n        /* \"backEnd/contracts/BUNN_Governor_Proxy.sol\":5229:5450  if (ballots[msg.sender][topic_id].position) {... */\n      jump(tag_148)\n    tag_146:\n        /* \"backEnd/contracts/BUNN_Governor_Proxy.sol\":5438:5439  1 */\n      0x01\n        /* \"backEnd/contracts/BUNN_Governor_Proxy.sol\":5406:5411  votes */\n      0x07\n        /* \"backEnd/contracts/BUNN_Governor_Proxy.sol\":5406:5421  votes[topic_id] */\n      0x00\n        /* \"backEnd/contracts/BUNN_Governor_Proxy.sol\":5412:5420  topic_id */\n      dup8\n        /* \"backEnd/contracts/BUNN_Governor_Proxy.sol\":5406:5421  votes[topic_id] */\n      dup2\n      mstore\n      0x20\n      add\n      swap1\n      dup2\n      mstore\n      0x20\n      add\n      0x00\n      keccak256\n        /* \"backEnd/contracts/BUNN_Governor_Proxy.sol\":5406:5435  votes[topic_id].against_votes */\n      0x01\n      add\n      sload\n        /* \"backEnd/contracts/BUNN_Governor_Proxy.sol\":5406:5439  votes[topic_id].against_votes + 1 */\n      tag_149\n      swap2\n      swap1\n      tag_110\n      jump\t// in\n    tag_149:\n        /* \"backEnd/contracts/BUNN_Governor_Proxy.sol\":5374:5379  votes */\n      0x07\n        /* \"backEnd/contracts/BUNN_Governor_Proxy.sol\":5374:5389  votes[topic_id] */\n      0x00\n        /* \"backEnd/contracts/BUNN_Governor_Proxy.sol\":5380:5388  topic_id */\n      dup8\n        /* \"backEnd/contracts/BUNN_Governor_Proxy.sol\":5374:5389  votes[topic_id] */\n      dup2\n      mstore\n      0x20\n      add\n      swap1\n      dup2\n      mstore\n      0x20\n      add\n      0x00\n      keccak256\n        /* \"backEnd/contracts/BUNN_Governor_Proxy.sol\":5374:5403  votes[topic_id].against_votes */\n      0x01\n      add\n        /* \"backEnd/contracts/BUNN_Governor_Proxy.sol\":5374:5439  votes[topic_id].against_votes = votes[topic_id].against_votes + 1 */\n      dup2\n      swap1\n      sstore\n      pop\n        /* \"backEnd/contracts/BUNN_Governor_Proxy.sol\":5229:5450  if (ballots[msg.sender][topic_id].position) {... */\n    tag_148:\n        /* \"backEnd/contracts/BUNN_Governor_Proxy.sol\":5475:5485  msg.sender */\n      caller\n        /* \"backEnd/contracts/BUNN_Governor_Proxy.sol\":5465:5507  vote_cast(msg.sender, topic.id, position_) */\n      0xffffffffffffffffffffffffffffffffffffffff\n      and\n      0x4f7ff1c79e536d7fef60ccb53beb6009e08841ffcba10e515e076f4cbdd9e320\n        /* \"backEnd/contracts/BUNN_Governor_Proxy.sol\":5487:5492  topic */\n      dup5\n        /* \"backEnd/contracts/BUNN_Governor_Proxy.sol\":5487:5495  topic.id */\n      0x00\n      add\n      mload\n        /* \"backEnd/contracts/BUNN_Governor_Proxy.sol\":5497:5506  position_ */\n      dup7\n        /* \"backEnd/contracts/BUNN_Governor_Proxy.sol\":5465:5507  vote_cast(msg.sender, topic.id, position_) */\n      mload(0x40)\n      tag_150\n      swap3\n      swap2\n      swap1\n      tag_151\n      jump\t// in\n    tag_150:\n      mload(0x40)\n      dup1\n      swap2\n      sub\n      swap1\n      log2\n        /* \"backEnd/contracts/BUNN_Governor_Proxy.sol\":4201:5514  {... */\n      pop\n      pop\n      pop\n        /* \"backEnd/contracts/BUNN_Governor_Proxy.sol\":4144:5514  function cast_vote(uint topic_id, bool position_) public {... */\n      pop\n      pop\n      jump\t// out\n        /* \"backEnd/contracts/restrictions.sol\":240:279  uint256 public voting_duration = 432000 */\n    tag_38:\n      sload(0x00)\n      dup2\n      jump\t// out\n        /* \"backEnd/contracts/BUNN_Governor_Proxy.sol\":6930:6968  function UPGRADE() public onlyOwner {} */\n    tag_43:\n        /* \"backEnd/contracts/BUNN_Governor_Proxy.sol\":6769:6774  admin */\n      0x04\n        /* \"backEnd/contracts/BUNN_Governor_Proxy.sol\":6769:6786  admin[msg.sender] */\n      0x00\n        /* \"backEnd/contracts/BUNN_Governor_Proxy.sol\":6775:6785  msg.sender */\n      caller\n        /* \"backEnd/contracts/BUNN_Governor_Proxy.sol\":6769:6786  admin[msg.sender] */\n      0xffffffffffffffffffffffffffffffffffffffff\n      and\n      0xffffffffffffffffffffffffffffffffffffffff\n      and\n      dup2\n      mstore\n      0x20\n      add\n      swap1\n      dup2\n      mstore\n      0x20\n      add\n      0x00\n      keccak256\n      0x00\n      swap1\n      sload\n      swap1\n      0x0100\n      exp\n      swap1\n      div\n      0xff\n      and\n        /* \"backEnd/contracts/BUNN_Governor_Proxy.sol\":6761:6809  require(admin[msg.sender], \"NOT A VALID CALLER\") */\n      tag_153\n      jumpi\n      mload(0x40)\n      0x08c379a000000000000000000000000000000000000000000000000000000000\n      dup2\n      mstore\n      0x04\n      add\n      tag_154\n      swap1\n      tag_115\n      jump\t// in\n    tag_154:\n      mload(0x40)\n      dup1\n      swap2\n      sub\n      swap1\n      revert\n    tag_153:\n        /* \"backEnd/contracts/BUNN_Governor_Proxy.sol\":6930:6968  function UPGRADE() public onlyOwner {} */\n      jump\t// out\n        /* \"backEnd/contracts/restrictions.sol\":676:881  function quorum(... */\n    tag_48:\n        /* \"backEnd/contracts/restrictions.sol\":771:775  bool */\n      0x00\n        /* \"backEnd/contracts/restrictions.sol\":787:799  uint256 comp */\n      dup1\n        /* \"backEnd/contracts/restrictions.sol\":802:828  comparison.mulDiv(60, 100) */\n      tag_157\n        /* \"backEnd/contracts/restrictions.sol\":820:822  60 */\n      0x3c\n        /* \"backEnd/contracts/restrictions.sol\":824:827  100 */\n      0x64\n        /* \"backEnd/contracts/restrictions.sol\":802:812  comparison */\n      dup6\n        /* \"backEnd/contracts/restrictions.sol\":802:819  comparison.mulDiv */\n      tag_158\n      swap1\n        /* \"backEnd/contracts/restrictions.sol\":802:828  comparison.mulDiv(60, 100) */\n      swap3\n      swap2\n      swap1\n      0xffffffff\n      and\n      jump\t// in\n    tag_157:\n        /* \"backEnd/contracts/restrictions.sol\":787:828  uint256 comp = comparison.mulDiv(60, 100) */\n      swap1\n      pop\n        /* \"backEnd/contracts/restrictions.sol\":855:859  comp */\n      dup1\n        /* \"backEnd/contracts/restrictions.sol\":845:851  target */\n      dup5\n        /* \"backEnd/contracts/restrictions.sol\":845:859  target >= comp */\n      lt\n      iszero\n        /* \"backEnd/contracts/restrictions.sol\":845:874  target >= comp ? true : false */\n      tag_159\n      jumpi\n        /* \"backEnd/contracts/restrictions.sol\":869:874  false */\n      0x00\n        /* \"backEnd/contracts/restrictions.sol\":845:874  target >= comp ? true : false */\n      jump(tag_160)\n    tag_159:\n        /* \"backEnd/contracts/restrictions.sol\":862:866  true */\n      0x01\n        /* \"backEnd/contracts/restrictions.sol\":845:874  target >= comp ? true : false */\n    tag_160:\n        /* \"backEnd/contracts/restrictions.sol\":838:874  return target >= comp ? true : false */\n      swap2\n      pop\n      pop\n        /* \"backEnd/contracts/restrictions.sol\":676:881  function quorum(... */\n      swap3\n      swap2\n      pop\n      pop\n      jump\t// out\n        /* \"backEnd/contracts/BUNN_Governor_Proxy.sol\":1404:1463  mapping(address => mapping (uint => ballot)) public ballots */\n    tag_55:\n      mstore(0x20, 0x06)\n      dup2\n      0x00\n      mstore\n      mstore(0x20, keccak256(0x00, 0x40))\n      dup1\n      0x00\n      mstore\n      keccak256(0x00, 0x40)\n      0x00\n      swap2\n      pop\n      swap2\n      pop\n      pop\n      dup1\n      0x00\n      add\n      sload\n      swap1\n      dup1\n      0x01\n      add\n      0x00\n      swap1\n      sload\n      swap1\n      0x0100\n      exp\n      swap1\n      div\n      0xff\n      and\n      swap1\n      dup1\n      0x01\n      add\n      0x01\n      swap1\n      sload\n      swap1\n      0x0100\n      exp\n      swap1\n      div\n      0xff\n      and\n      swap1\n      pop\n      dup4\n      jump\t// out\n        /* \"backEnd/contracts/BUNN_Governor_Proxy.sol\":2250:2286  mapping(uint => Topic) public Topics */\n    tag_62:\n      mstore(0x20, 0x09)\n      dup1\n      0x00\n      mstore\n      keccak256(0x00, 0x40)\n      0x00\n      swap2\n      pop\n      swap1\n      pop\n      dup1\n      0x00\n      add\n      sload\n      swap1\n      dup1\n      0x01\n      add\n      dup1\n      sload\n      tag_161\n      swap1\n      tag_119\n      jump\t// in\n    tag_161:\n      dup1\n      0x1f\n      add\n      0x20\n      dup1\n      swap2\n      div\n      mul\n      0x20\n      add\n      mload(0x40)\n      swap1\n      dup2\n      add\n      0x40\n      mstore\n      dup1\n      swap3\n      swap2\n      swap1\n      dup2\n      dup2\n      mstore\n      0x20\n      add\n      dup3\n      dup1\n      sload\n      tag_162\n      swap1\n      tag_119\n      jump\t// in\n    tag_162:\n      dup1\n      iszero\n      tag_163\n      jumpi\n      dup1\n      0x1f\n      lt\n      tag_164\n      jumpi\n      0x0100\n      dup1\n      dup4\n      sload\n      div\n      mul\n      dup4\n      mstore\n      swap2\n      0x20\n      add\n      swap2\n      jump(tag_163)\n    tag_164:\n      dup3\n      add\n      swap2\n      swap1\n      0x00\n      mstore\n      keccak256(0x00, 0x20)\n      swap1\n    tag_165:\n      dup2\n      sload\n      dup2\n      mstore\n      swap1\n      0x01\n      add\n      swap1\n      0x20\n      add\n      dup1\n      dup4\n      gt\n      tag_165\n      jumpi\n      dup3\n      swap1\n      sub\n      0x1f\n      and\n      dup3\n      add\n      swap2\n    tag_163:\n      pop\n      pop\n      pop\n      pop\n      pop\n      swap1\n      dup1\n      0x02\n      add\n      0x00\n      swap1\n      sload\n      swap1\n      0x0100\n      exp\n      swap1\n      div\n      0xffffffffffffffffffffffffffffffffffffffff\n      and\n      swap1\n      dup1\n      0x03\n      add\n      0x00\n      swap1\n      sload\n      swap1\n      0x0100\n      exp\n      swap1\n      div\n      0xffffffffffffffffffffffffffffffffffffffff\n      and\n      swap1\n      dup1\n      0x04\n      add\n      sload\n      swap1\n      dup1\n      0x05\n      add\n      dup1\n      sload\n      tag_166\n      swap1\n      tag_119\n      jump\t// in\n    tag_166:\n      dup1\n      0x1f\n      add\n      0x20\n      dup1\n      swap2\n      div\n      mul\n      0x20\n      add\n      mload(0x40)\n      swap1\n      dup2\n      add\n      0x40\n      mstore\n      dup1\n      swap3\n      swap2\n      swap1\n      dup2\n      dup2\n      mstore\n      0x20\n      add\n      dup3\n      dup1\n      sload\n      tag_167\n      swap1\n      tag_119\n      jump\t// in\n    tag_167:\n      dup1\n      iszero\n      tag_168\n      jumpi\n      dup1\n      0x1f\n      lt\n      tag_169\n      jumpi\n      0x0100\n      dup1\n      dup4\n      sload\n      div\n      mul\n      dup4\n      mstore\n      swap2\n      0x20\n      add\n      swap2\n      jump(tag_168)\n    tag_169:\n      dup3\n      add\n      swap2\n      swap1\n      0x00\n      mstore\n      keccak256(0x00, 0x20)\n      swap1\n    tag_170:\n      dup2\n      sload\n      dup2\n      mstore\n      swap1\n      0x01\n      add\n      swap1\n      0x20\n      add\n      dup1\n      dup4\n      gt\n      tag_170\n      jumpi\n      dup3\n      swap1\n      sub\n      0x1f\n      and\n      dup3\n      add\n      swap2\n    tag_168:\n      pop\n      pop\n      pop\n      pop\n      pop\n      swap1\n      dup1\n      0x06\n      add\n      sload\n      swap1\n      dup1\n      0x07\n      add\n      0x00\n      swap1\n      sload\n      swap1\n      0x0100\n      exp\n      swap1\n      div\n      0xff\n      and\n      swap1\n      dup1\n      0x07\n      add\n      0x01\n      swap1\n      sload\n      swap1\n      0x0100\n      exp\n      swap1\n      div\n      0xff\n      and\n      swap1\n      pop\n      dup10\n      jump\t// out\n        /* \"backEnd/contracts/BUNN_Governor_Proxy.sol\":1551:1585  mapping(uint => vote) public votes */\n    tag_68:\n      mstore(0x20, 0x07)\n      dup1\n      0x00\n      mstore\n      keccak256(0x00, 0x40)\n      0x00\n      swap2\n      pop\n      swap1\n      pop\n      dup1\n      0x00\n      add\n      sload\n      swap1\n      dup1\n      0x01\n      add\n      sload\n      swap1\n      pop\n      dup3\n      jump\t// out\n        /* \"backEnd/contracts/BUNN_Governor_Proxy.sol\":2221:2244  uint public counter = 1 */\n    tag_73:\n      sload(0x08)\n      dup2\n      jump\t// out\n        /* \"backEnd/contracts/restrictions.sol\":294:337  uint256 public implementation_delay = 86400 */\n    tag_77:\n      sload(0x01)\n      dup2\n      jump\t// out\n        /* \"backEnd/contracts/BUNN_Governor_Proxy.sol\":333:356  uint256 public returned */\n    tag_81:\n      sload(0x03)\n      dup2\n      jump\t// out\n        /* \"backEnd/contracts/BUNN_Governor_Proxy.sol\":5597:6626  function implement_decision(... */\n    tag_85:\n        /* \"backEnd/contracts/BUNN_Governor_Proxy.sol\":5679:5710  Topic memory topic_to_implement */\n      tag_172\n      tag_173\n      jump\t// in\n    tag_172:\n        /* \"backEnd/contracts/BUNN_Governor_Proxy.sol\":5720:5751  address implementation_contract */\n      0x00\n        /* \"backEnd/contracts/BUNN_Governor_Proxy.sol\":5761:5792  uint256 implementation_argument */\n      dup1\n        /* \"backEnd/contracts/BUNN_Governor_Proxy.sol\":5802:5825  string memory signature */\n      0x60\n        /* \"backEnd/contracts/BUNN_Governor_Proxy.sol\":5857:5863  Topics */\n      0x09\n        /* \"backEnd/contracts/BUNN_Governor_Proxy.sol\":5857:5873  Topics[topic_id] */\n      0x00\n        /* \"backEnd/contracts/BUNN_Governor_Proxy.sol\":5864:5872  topic_id */\n      dup7\n        /* \"backEnd/contracts/BUNN_Governor_Proxy.sol\":5857:5873  Topics[topic_id] */\n      dup2\n      mstore\n      0x20\n      add\n      swap1\n      dup2\n      mstore\n      0x20\n      add\n      0x00\n      keccak256\n        /* \"backEnd/contracts/BUNN_Governor_Proxy.sol\":5836:5873  topic_to_implement = Topics[topic_id] */\n      mload(0x40)\n      dup1\n      0x0120\n      add\n      0x40\n      mstore\n      swap1\n      dup2\n      0x00\n      dup3\n      add\n      sload\n      dup2\n      mstore\n      0x20\n      add\n      0x01\n      dup3\n      add\n      dup1\n      sload\n      tag_174\n      swap1\n      tag_119\n      jump\t// in\n    tag_174:\n      dup1\n      0x1f\n      add\n      0x20\n      dup1\n      swap2\n      div\n      mul\n      0x20\n      add\n      mload(0x40)\n      swap1\n      dup2\n      add\n      0x40\n      mstore\n      dup1\n      swap3\n      swap2\n      swap1\n      dup2\n      dup2\n      mstore\n      0x20\n      add\n      dup3\n      dup1\n      sload\n      tag_175\n      swap1\n      tag_119\n      jump\t// in\n    tag_175:\n      dup1\n      iszero\n      tag_176\n      jumpi\n      dup1\n      0x1f\n      lt\n      tag_177\n      jumpi\n      0x0100\n      dup1\n      dup4\n      sload\n      div\n      mul\n      dup4\n      mstore\n      swap2\n      0x20\n      add\n      swap2\n      jump(tag_176)\n    tag_177:\n      dup3\n      add\n      swap2\n      swap1\n      0x00\n      mstore\n      keccak256(0x00, 0x20)\n      swap1\n    tag_178:\n      dup2\n      sload\n      dup2\n      mstore\n      swap1\n      0x01\n      add\n      swap1\n      0x20\n      add\n      dup1\n      dup4\n      gt\n      tag_178\n      jumpi\n      dup3\n      swap1\n      sub\n      0x1f\n      and\n      dup3\n      add\n      swap2\n    tag_176:\n      pop\n      pop\n      pop\n      pop\n      pop\n      dup2\n      mstore\n      0x20\n      add\n      0x02\n      dup3\n      add\n      0x00\n      swap1\n      sload\n      swap1\n      0x0100\n      exp\n      swap1\n      div\n      0xffffffffffffffffffffffffffffffffffffffff\n      and\n      0xffffffffffffffffffffffffffffffffffffffff\n      and\n      0xffffffffffffffffffffffffffffffffffffffff\n      and\n      dup2\n      mstore\n      0x20\n      add\n      0x03\n      dup3\n      add\n      0x00\n      swap1\n      sload\n      swap1\n      0x0100\n      exp\n      swap1\n      div\n      0xffffffffffffffffffffffffffffffffffffffff\n      and\n      0xffffffffffffffffffffffffffffffffffffffff\n      and\n      0xffffffffffffffffffffffffffffffffffffffff\n      and\n      dup2\n      mstore\n      0x20\n      add\n      0x04\n      dup3\n      add\n      sload\n      dup2\n      mstore\n      0x20\n      add\n      0x05\n      dup3\n      add\n      dup1\n      sload\n      tag_179\n      swap1\n      tag_119\n      jump\t// in\n    tag_179:\n      dup1\n      0x1f\n      add\n      0x20\n      dup1\n      swap2\n      div\n      mul\n      0x20\n      add\n      mload(0x40)\n      swap1\n      dup2\n      add\n      0x40\n      mstore\n      dup1\n      swap3\n      swap2\n      swap1\n      dup2\n      dup2\n      mstore\n      0x20\n      add\n      dup3\n      dup1\n      sload\n      tag_180\n      swap1\n      tag_119\n      jump\t// in\n    tag_180:\n      dup1\n      iszero\n      tag_181\n      jumpi\n      dup1\n      0x1f\n      lt\n      tag_182\n      jumpi\n      0x0100\n      dup1\n      dup4\n      sload\n      div\n      mul\n      dup4\n      mstore\n      swap2\n      0x20\n      add\n      swap2\n      jump(tag_181)\n    tag_182:\n      dup3\n      add\n      swap2\n      swap1\n      0x00\n      mstore\n      keccak256(0x00, 0x20)\n      swap1\n    tag_183:\n      dup2\n      sload\n      dup2\n      mstore\n      swap1\n      0x01\n      add\n      swap1\n      0x20\n      add\n      dup1\n      dup4\n      gt\n      tag_183\n      jumpi\n      dup3\n      swap1\n      sub\n      0x1f\n      and\n      dup3\n      add\n      swap2\n    tag_181:\n      pop\n      pop\n      pop\n      pop\n      pop\n      dup2\n      mstore\n      0x20\n      add\n      0x06\n      dup3\n      add\n      sload\n      dup2\n      mstore\n      0x20\n      add\n      0x07\n      dup3\n      add\n      0x00\n      swap1\n      sload\n      swap1\n      0x0100\n      exp\n      swap1\n      div\n      0xff\n      and\n      iszero\n      iszero\n      iszero\n      iszero\n      dup2\n      mstore\n      0x20\n      add\n      0x07\n      dup3\n      add\n      0x01\n      swap1\n      sload\n      swap1\n      0x0100\n      exp\n      swap1\n      div\n      0xff\n      and\n      iszero\n      iszero\n      iszero\n      iszero\n      dup2\n      mstore\n      pop\n      pop\n      swap4\n      pop\n        /* \"backEnd/contracts/BUNN_Governor_Proxy.sol\":5909:5927  topic_to_implement */\n      dup4\n        /* \"backEnd/contracts/BUNN_Governor_Proxy.sol\":5909:5959  topic_to_implement.implementation_contract_address */\n      0x60\n      add\n      mload\n        /* \"backEnd/contracts/BUNN_Governor_Proxy.sol\":5883:5959  implementation_contract = topic_to_implement.implementation_contract_address */\n      swap3\n      pop\n        /* \"backEnd/contracts/BUNN_Governor_Proxy.sol\":5995:6013  topic_to_implement */\n      dup4\n        /* \"backEnd/contracts/BUNN_Governor_Proxy.sol\":5995:6046  topic_to_implement.implementation_contract_argument */\n      0x80\n      add\n      mload\n        /* \"backEnd/contracts/BUNN_Governor_Proxy.sol\":5969:6046  implementation_argument = topic_to_implement.implementation_contract_argument */\n      swap2\n      pop\n        /* \"backEnd/contracts/BUNN_Governor_Proxy.sol\":6068:6086  topic_to_implement */\n      dup4\n        /* \"backEnd/contracts/BUNN_Governor_Proxy.sol\":6068:6096  topic_to_implement.signature */\n      0xa0\n      add\n      mload\n        /* \"backEnd/contracts/BUNN_Governor_Proxy.sol\":6056:6096  signature = topic_to_implement.signature */\n      swap1\n      pop\n        /* \"backEnd/contracts/BUNN_Governor_Proxy.sol\":6170:6189  uint256 total_votes */\n      0x00\n        /* \"backEnd/contracts/BUNN_Governor_Proxy.sol\":6220:6225  votes */\n      0x07\n        /* \"backEnd/contracts/BUNN_Governor_Proxy.sol\":6220:6235  votes[topic_id] */\n      0x00\n        /* \"backEnd/contracts/BUNN_Governor_Proxy.sol\":6226:6234  topic_id */\n      dup8\n        /* \"backEnd/contracts/BUNN_Governor_Proxy.sol\":6220:6235  votes[topic_id] */\n      dup2\n      mstore\n      0x20\n      add\n      swap1\n      dup2\n      mstore\n      0x20\n      add\n      0x00\n      keccak256\n        /* \"backEnd/contracts/BUNN_Governor_Proxy.sol\":6220:6249  votes[topic_id].against_votes */\n      0x01\n      add\n      sload\n        /* \"backEnd/contracts/BUNN_Governor_Proxy.sol\":6192:6197  votes */\n      0x07\n        /* \"backEnd/contracts/BUNN_Governor_Proxy.sol\":6192:6207  votes[topic_id] */\n      0x00\n        /* \"backEnd/contracts/BUNN_Governor_Proxy.sol\":6198:6206  topic_id */\n      dup9\n        /* \"backEnd/contracts/BUNN_Governor_Proxy.sol\":6192:6207  votes[topic_id] */\n      dup2\n      mstore\n      0x20\n      add\n      swap1\n      dup2\n      mstore\n      0x20\n      add\n      0x00\n      keccak256\n        /* \"backEnd/contracts/BUNN_Governor_Proxy.sol\":6192:6217  votes[topic_id].for_votes */\n      0x00\n      add\n      sload\n        /* \"backEnd/contracts/BUNN_Governor_Proxy.sol\":6192:6249  votes[topic_id].for_votes + votes[topic_id].against_votes */\n      tag_184\n      swap2\n      swap1\n      tag_110\n      jump\t// in\n    tag_184:\n        /* \"backEnd/contracts/BUNN_Governor_Proxy.sol\":6170:6249  uint256 total_votes = votes[topic_id].for_votes + votes[topic_id].against_votes */\n      swap1\n      pop\n        /* \"backEnd/contracts/BUNN_Governor_Proxy.sol\":6267:6313  quorum(votes[topic_id].for_votes, total_votes) */\n      tag_185\n        /* \"backEnd/contracts/BUNN_Governor_Proxy.sol\":6274:6279  votes */\n      0x07\n        /* \"backEnd/contracts/BUNN_Governor_Proxy.sol\":6274:6289  votes[topic_id] */\n      0x00\n        /* \"backEnd/contracts/BUNN_Governor_Proxy.sol\":6280:6288  topic_id */\n      dup9\n        /* \"backEnd/contracts/BUNN_Governor_Proxy.sol\":6274:6289  votes[topic_id] */\n      dup2\n      mstore\n      0x20\n      add\n      swap1\n      dup2\n      mstore\n      0x20\n      add\n      0x00\n      keccak256\n        /* \"backEnd/contracts/BUNN_Governor_Proxy.sol\":6274:6299  votes[topic_id].for_votes */\n      0x00\n      add\n      sload\n        /* \"backEnd/contracts/BUNN_Governor_Proxy.sol\":6301:6312  total_votes */\n      dup3\n        /* \"backEnd/contracts/BUNN_Governor_Proxy.sol\":6267:6273  quorum */\n      tag_48\n        /* \"backEnd/contracts/BUNN_Governor_Proxy.sol\":6267:6313  quorum(votes[topic_id].for_votes, total_votes) */\n      jump\t// in\n    tag_185:\n        /* \"backEnd/contracts/BUNN_Governor_Proxy.sol\":6259:6340  require(quorum(votes[topic_id].for_votes, total_votes), \"THRESHOLD NOT EXCEEDED\") */\n      tag_186\n      jumpi\n      mload(0x40)\n      0x08c379a000000000000000000000000000000000000000000000000000000000\n      dup2\n      mstore\n      0x04\n      add\n      tag_187\n      swap1\n      tag_188\n      jump\t// in\n    tag_187:\n      mload(0x40)\n      dup1\n      swap2\n      sub\n      swap1\n      revert\n    tag_186:\n        /* \"backEnd/contracts/BUNN_Governor_Proxy.sol\":6352:6364  bool success */\n      0x00\n        /* \"backEnd/contracts/BUNN_Governor_Proxy.sol\":6365:6391  bytes memory returned_data */\n      dup1\n        /* \"backEnd/contracts/BUNN_Governor_Proxy.sol\":6395:6418  implementation_contract */\n      dup6\n        /* \"backEnd/contracts/BUNN_Governor_Proxy.sol\":6395:6423  implementation_contract.call */\n      0xffffffffffffffffffffffffffffffffffffffff\n      and\n        /* \"backEnd/contracts/BUNN_Governor_Proxy.sol\":6431:6440  msg.value */\n      callvalue\n        /* \"backEnd/contracts/BUNN_Governor_Proxy.sol\":6466:6475  signature */\n      dup6\n        /* \"backEnd/contracts/BUNN_Governor_Proxy.sol\":6485:6508  implementation_argument */\n      dup8\n        /* \"backEnd/contracts/BUNN_Governor_Proxy.sol\":6442:6510  abi.encodeWithSignature(signature, uint256(implementation_argument)) */\n      add(0x24, mload(0x40))\n      tag_189\n      swap2\n      swap1\n      tag_40\n      jump\t// in\n    tag_189:\n      mload(0x40)\n      0x20\n      dup2\n      dup4\n      sub\n      sub\n      dup2\n      mstore\n      swap1\n      0x40\n      mstore\n      swap1\n      mload(0x40)\n      tag_190\n      swap2\n      swap1\n      tag_191\n      jump\t// in\n    tag_190:\n      mload(0x40)\n      dup1\n      swap2\n      sub\n      swap1\n      keccak256\n      not(0xffffffffffffffffffffffffffffffffffffffffffffffffffffffff)\n      and\n      0x20\n      dup3\n      add\n      dup1\n      mload\n      0xffffffffffffffffffffffffffffffffffffffffffffffffffffffff\n      dup4\n      dup2\n      dup4\n      and\n      or\n      dup4\n      mstore\n      pop\n      pop\n      pop\n      pop\n        /* \"backEnd/contracts/BUNN_Governor_Proxy.sol\":6395:6511  implementation_contract.call{value: msg.value}(abi.encodeWithSignature(signature, uint256(implementation_argument))) */\n      mload(0x40)\n      tag_192\n      swap2\n      swap1\n      tag_193\n      jump\t// in\n    tag_192:\n      0x00\n      mload(0x40)\n      dup1\n      dup4\n      sub\n      dup2\n      dup6\n      dup8\n      gas\n      call\n      swap3\n      pop\n      pop\n      pop\n      returndatasize\n      dup1\n      0x00\n      dup2\n      eq\n      tag_196\n      jumpi\n      mload(0x40)\n      swap2\n      pop\n      and(add(returndatasize, 0x3f), not(0x1f))\n      dup3\n      add\n      0x40\n      mstore\n      returndatasize\n      dup3\n      mstore\n      returndatasize\n      0x00\n      0x20\n      dup5\n      add\n      returndatacopy\n      jump(tag_195)\n    tag_196:\n      0x60\n      swap2\n      pop\n    tag_195:\n      pop\n        /* \"backEnd/contracts/BUNN_Governor_Proxy.sol\":6351:6511  (bool success,bytes memory returned_data) = implementation_contract.call{value: msg.value}(abi.encodeWithSignature(signature, uint256(implementation_argument))) */\n      swap2\n      pop\n      swap2\n      pop\n        /* \"backEnd/contracts/BUNN_Governor_Proxy.sol\":6530:6537  success */\n      dup2\n        /* \"backEnd/contracts/BUNN_Governor_Proxy.sol\":6522:6561  require(success, \"FAILED TO IMPLEMENT\") */\n      tag_197\n      jumpi\n      mload(0x40)\n      0x08c379a000000000000000000000000000000000000000000000000000000000\n      dup2\n      mstore\n      0x04\n      add\n      tag_198\n      swap1\n      tag_199\n      jump\t// in\n    tag_198:\n      mload(0x40)\n      dup1\n      swap2\n      sub\n      swap1\n      revert\n    tag_197:\n        /* \"backEnd/contracts/BUNN_Governor_Proxy.sol\":6594:6607  returned_data */\n      dup1\n        /* \"backEnd/contracts/BUNN_Governor_Proxy.sol\":6583:6619  abi.decode(returned_data, (uint256)) */\n      dup1\n      0x20\n      add\n      swap1\n      mload\n      dup2\n      add\n      swap1\n      tag_200\n      swap2\n      swap1\n      tag_139\n      jump\t// in\n    tag_200:\n        /* \"backEnd/contracts/BUNN_Governor_Proxy.sol\":6572:6580  returned */\n      0x03\n        /* \"backEnd/contracts/BUNN_Governor_Proxy.sol\":6572:6619  returned = abi.decode(returned_data, (uint256)) */\n      dup2\n      swap1\n      sstore\n      pop\n        /* \"backEnd/contracts/BUNN_Governor_Proxy.sol\":5669:6626  {... */\n      pop\n      pop\n      pop\n      pop\n      pop\n      pop\n      pop\n        /* \"backEnd/contracts/BUNN_Governor_Proxy.sol\":5597:6626  function implement_decision(... */\n      pop\n      jump\t// out\n        /* \"backEnd/contracts/BUNN_Governor_Proxy.sol\":291:327  address public utility_token_address */\n    tag_88:\n      0x02\n      0x00\n      swap1\n      sload\n      swap1\n      0x0100\n      exp\n      swap1\n      div\n      0xffffffffffffffffffffffffffffffffffffffff\n      and\n      dup2\n      jump\t// out\n        /* \"backEnd/contracts/BUNN_Governor_Proxy.sol\":2920:3145  function register(string memory name_/* , uint256 d_tokens */) public {... */\n    tag_95:\n        /* \"backEnd/contracts/BUNN_Governor_Proxy.sol\":3022:3138  Member({... */\n      mload(0x40)\n      dup1\n      0x40\n      add\n      0x40\n      mstore\n      dup1\n        /* \"backEnd/contracts/BUNN_Governor_Proxy.sol\":3049:3054  name_ */\n      dup3\n        /* \"backEnd/contracts/BUNN_Governor_Proxy.sol\":3022:3138  Member({... */\n      dup2\n      mstore\n      0x20\n      add\n        /* \"backEnd/contracts/BUNN_Governor_Proxy.sol\":3077:3081  true */\n      0x01\n        /* \"backEnd/contracts/BUNN_Governor_Proxy.sol\":3022:3138  Member({... */\n      iszero\n      iszero\n      dup2\n      mstore\n      pop\n        /* \"backEnd/contracts/BUNN_Governor_Proxy.sol\":3000:3007  Members */\n      0x05\n        /* \"backEnd/contracts/BUNN_Governor_Proxy.sol\":3000:3019  Members[msg.sender] */\n      0x00\n        /* \"backEnd/contracts/BUNN_Governor_Proxy.sol\":3008:3018  msg.sender */\n      caller\n        /* \"backEnd/contracts/BUNN_Governor_Proxy.sol\":3000:3019  Members[msg.sender] */\n      0xffffffffffffffffffffffffffffffffffffffff\n      and\n      0xffffffffffffffffffffffffffffffffffffffff\n      and\n      dup2\n      mstore\n      0x20\n      add\n      swap1\n      dup2\n      mstore\n      0x20\n      add\n      0x00\n      keccak256\n        /* \"backEnd/contracts/BUNN_Governor_Proxy.sol\":3000:3138  Members[msg.sender] = Member({... */\n      0x00\n      dup3\n      add\n      mload\n      dup2\n      0x00\n      add\n      swap1\n      dup2\n      tag_202\n      swap2\n      swap1\n      tag_107\n      jump\t// in\n    tag_202:\n      pop\n      0x20\n      dup3\n      add\n      mload\n      dup2\n      0x01\n      add\n      exp(0x0100, 0x00)\n      dup2\n      sload\n      dup2\n      0xff\n      mul\n      not\n      and\n      swap1\n      dup4\n      iszero\n      iszero\n      mul\n      or\n      swap1\n      sstore\n      pop\n      swap1\n      pop\n      pop\n        /* \"backEnd/contracts/BUNN_Governor_Proxy.sol\":2920:3145  function register(string memory name_/* , uint256 d_tokens */) public {... */\n      pop\n      jump\t// out\n        /* \"backEnd/contracts/BUNN_Governor_Proxy.sol\":915:956  mapping(address => Member) public Members */\n    tag_99:\n      mstore(0x20, 0x05)\n      dup1\n      0x00\n      mstore\n      keccak256(0x00, 0x40)\n      0x00\n      swap2\n      pop\n      swap1\n      pop\n      dup1\n      0x00\n      add\n      dup1\n      sload\n      tag_203\n      swap1\n      tag_119\n      jump\t// in\n    tag_203:\n      dup1\n      0x1f\n      add\n      0x20\n      dup1\n      swap2\n      div\n      mul\n      0x20\n      add\n      mload(0x40)\n      swap1\n      dup2\n      add\n      0x40\n      mstore\n      dup1\n      swap3\n      swap2\n      swap1\n      dup2\n      dup2\n      mstore\n      0x20\n      add\n      dup3\n      dup1\n      sload\n      tag_204\n      swap1\n      tag_119\n      jump\t// in\n    tag_204:\n      dup1\n      iszero\n      tag_205\n      jumpi\n      dup1\n      0x1f\n      lt\n      tag_206\n      jumpi\n      0x0100\n      dup1\n      dup4\n      sload\n      div\n      mul\n      dup4\n      mstore\n      swap2\n      0x20\n      add\n      swap2\n      jump(tag_205)\n    tag_206:\n      dup3\n      add\n      swap2\n      swap1\n      0x00\n      mstore\n      keccak256(0x00, 0x20)\n      swap1\n    tag_207:\n      dup2\n      sload\n      dup2\n      mstore\n      swap1\n      0x01\n      add\n      swap1\n      0x20\n      add\n      dup1\n      dup4\n      gt\n      tag_207\n      jumpi\n      dup3\n      swap1\n      sub\n      0x1f\n      and\n      dup3\n      add\n      swap2\n    tag_205:\n      pop\n      pop\n      pop\n      pop\n      pop\n      swap1\n      dup1\n      0x01\n      add\n      0x00\n      swap1\n      sload\n      swap1\n      0x0100\n      exp\n      swap1\n      div\n      0xff\n      and\n      swap1\n      pop\n      dup3\n      jump\t// out\n        /* \"@openzeppelin/contracts/utils/math/Math.sol\":3803:7919  function mulDiv(uint256 x, uint256 y, uint256 denominator) internal pure returns (uint256 result) {... */\n    tag_158:\n        /* \"@openzeppelin/contracts/utils/math/Math.sol\":3885:3899  uint256 result */\n      0x00\n        /* \"@openzeppelin/contracts/utils/math/Math.sol\":4232:4245  uint256 prod0 */\n      dup1\n        /* \"@openzeppelin/contracts/utils/math/Math.sol\":4252:4253  y */\n      dup4\n        /* \"@openzeppelin/contracts/utils/math/Math.sol\":4248:4249  x */\n      dup6\n        /* \"@openzeppelin/contracts/utils/math/Math.sol\":4248:4253  x * y */\n      mul\n        /* \"@openzeppelin/contracts/utils/math/Math.sol\":4232:4253  uint256 prod0 = x * y */\n      swap1\n      pop\n        /* \"@openzeppelin/contracts/utils/math/Math.sol\":4312:4325  uint256 prod1 */\n      0x00\n        /* \"@openzeppelin/contracts/utils/math/Math.sol\":4437:4438  0 */\n      dup1\n        /* \"@openzeppelin/contracts/utils/math/Math.sol\":4433:4439  not(0) */\n      not\n        /* \"@openzeppelin/contracts/utils/math/Math.sol\":4430:4431  y */\n      dup6\n        /* \"@openzeppelin/contracts/utils/math/Math.sol\":4427:4428  x */\n      dup8\n        /* \"@openzeppelin/contracts/utils/math/Math.sol\":4420:4440  mulmod(x, y, not(0)) */\n      mulmod\n        /* \"@openzeppelin/contracts/utils/math/Math.sol\":4493:4498  prod0 */\n      dup3\n        /* \"@openzeppelin/contracts/utils/math/Math.sol\":4489:4491  mm */\n      dup2\n        /* \"@openzeppelin/contracts/utils/math/Math.sol\":4486:4499  lt(mm, prod0) */\n      lt\n        /* \"@openzeppelin/contracts/utils/math/Math.sol\":4478:4483  prod0 */\n      dup4\n        /* \"@openzeppelin/contracts/utils/math/Math.sol\":4474:4476  mm */\n      dup3\n        /* \"@openzeppelin/contracts/utils/math/Math.sol\":4470:4484  sub(mm, prod0) */\n      sub\n        /* \"@openzeppelin/contracts/utils/math/Math.sol\":4466:4500  sub(sub(mm, prod0), lt(mm, prod0)) */\n      sub\n        /* \"@openzeppelin/contracts/utils/math/Math.sol\":4457:4500  prod1 := sub(sub(mm, prod0), lt(mm, prod0)) */\n      swap2\n      pop\n        /* \"@openzeppelin/contracts/utils/math/Math.sol\":4392:4514  {... */\n      pop\n        /* \"@openzeppelin/contracts/utils/math/Math.sol\":4604:4605  0 */\n      0x00\n        /* \"@openzeppelin/contracts/utils/math/Math.sol\":4595:4600  prod1 */\n      dup2\n        /* \"@openzeppelin/contracts/utils/math/Math.sol\":4595:4605  prod1 == 0 */\n      sub\n        /* \"@openzeppelin/contracts/utils/math/Math.sol\":4591:4959  if (prod1 == 0) {... */\n      tag_209\n      jumpi\n        /* \"@openzeppelin/contracts/utils/math/Math.sol\":4933:4944  denominator */\n      dup4\n        /* \"@openzeppelin/contracts/utils/math/Math.sol\":4925:4930  prod0 */\n      dup3\n        /* \"@openzeppelin/contracts/utils/math/Math.sol\":4925:4944  prod0 / denominator */\n      dup2\n      tag_210\n      jumpi\n      tag_211\n      tag_212\n      jump\t// in\n    tag_211:\n    tag_210:\n      div\n        /* \"@openzeppelin/contracts/utils/math/Math.sol\":4918:4944  return prod0 / denominator */\n      swap3\n      pop\n      pop\n      pop\n      jump(tag_208)\n        /* \"@openzeppelin/contracts/utils/math/Math.sol\":4591:4959  if (prod1 == 0) {... */\n    tag_209:\n        /* \"@openzeppelin/contracts/utils/math/Math.sol\":5080:5085  prod1 */\n      dup1\n        /* \"@openzeppelin/contracts/utils/math/Math.sol\":5065:5076  denominator */\n      dup5\n        /* \"@openzeppelin/contracts/utils/math/Math.sol\":5065:5085  denominator <= prod1 */\n      gt\n        /* \"@openzeppelin/contracts/utils/math/Math.sol\":5061:5149  if (denominator <= prod1) {... */\n      tag_213\n      jumpi\n        /* \"@openzeppelin/contracts/utils/math/Math.sol\":5112:5134  MathOverflowedMulDiv() */\n      mload(0x40)\n      0x227bc15300000000000000000000000000000000000000000000000000000000\n      dup2\n      mstore\n      0x04\n      add\n      mload(0x40)\n      dup1\n      swap2\n      sub\n      swap1\n      revert\n        /* \"@openzeppelin/contracts/utils/math/Math.sol\":5061:5149  if (denominator <= prod1) {... */\n    tag_213:\n        /* \"@openzeppelin/contracts/utils/math/Math.sol\":5404:5421  uint256 remainder */\n      0x00\n        /* \"@openzeppelin/contracts/utils/math/Math.sol\":5539:5550  denominator */\n      dup5\n        /* \"@openzeppelin/contracts/utils/math/Math.sol\":5536:5537  y */\n      dup7\n        /* \"@openzeppelin/contracts/utils/math/Math.sol\":5533:5534  x */\n      dup9\n        /* \"@openzeppelin/contracts/utils/math/Math.sol\":5526:5551  mulmod(x, y, denominator) */\n      mulmod\n        /* \"@openzeppelin/contracts/utils/math/Math.sol\":5513:5551  remainder := mulmod(x, y, denominator) */\n      swap1\n      pop\n        /* \"@openzeppelin/contracts/utils/math/Math.sol\":5667:5672  prod0 */\n      dup3\n        /* \"@openzeppelin/contracts/utils/math/Math.sol\":5656:5665  remainder */\n      dup2\n        /* \"@openzeppelin/contracts/utils/math/Math.sol\":5653:5673  gt(remainder, prod0) */\n      gt\n        /* \"@openzeppelin/contracts/utils/math/Math.sol\":5646:5651  prod1 */\n      dup3\n        /* \"@openzeppelin/contracts/utils/math/Math.sol\":5642:5674  sub(prod1, gt(remainder, prod0)) */\n      sub\n        /* \"@openzeppelin/contracts/utils/math/Math.sol\":5633:5674  prod1 := sub(prod1, gt(remainder, prod0)) */\n      swap2\n      pop\n        /* \"@openzeppelin/contracts/utils/math/Math.sol\":5711:5720  remainder */\n      dup1\n        /* \"@openzeppelin/contracts/utils/math/Math.sol\":5704:5709  prod0 */\n      dup4\n        /* \"@openzeppelin/contracts/utils/math/Math.sol\":5700:5721  sub(prod0, remainder) */\n      sub\n        /* \"@openzeppelin/contracts/utils/math/Math.sol\":5691:5721  prod0 := sub(prod0, remainder) */\n      swap3\n      pop\n        /* \"@openzeppelin/contracts/utils/math/Math.sol\":5939:5951  uint256 twos */\n      0x00\n        /* \"@openzeppelin/contracts/utils/math/Math.sol\":5973:5984  denominator */\n      dup6\n        /* \"@openzeppelin/contracts/utils/math/Math.sol\":5969:5970  0 */\n      0x00\n        /* \"@openzeppelin/contracts/utils/math/Math.sol\":5969:5984  0 - denominator */\n      sub\n        /* \"@openzeppelin/contracts/utils/math/Math.sol\":5954:5965  denominator */\n      dup7\n        /* \"@openzeppelin/contracts/utils/math/Math.sol\":5954:5985  denominator & (0 - denominator) */\n      and\n        /* \"@openzeppelin/contracts/utils/math/Math.sol\":5939:5985  uint256 twos = denominator & (0 - denominator) */\n      swap1\n      pop\n        /* \"@openzeppelin/contracts/utils/math/Math.sol\":6105:6109  twos */\n      dup1\n        /* \"@openzeppelin/contracts/utils/math/Math.sol\":6092:6103  denominator */\n      dup7\n        /* \"@openzeppelin/contracts/utils/math/Math.sol\":6088:6110  div(denominator, twos) */\n      div\n        /* \"@openzeppelin/contracts/utils/math/Math.sol\":6073:6110  denominator := div(denominator, twos) */\n      swap6\n      pop\n        /* \"@openzeppelin/contracts/utils/math/Math.sol\":6197:6201  twos */\n      dup1\n        /* \"@openzeppelin/contracts/utils/math/Math.sol\":6190:6195  prod0 */\n      dup5\n        /* \"@openzeppelin/contracts/utils/math/Math.sol\":6186:6202  div(prod0, twos) */\n      div\n        /* \"@openzeppelin/contracts/utils/math/Math.sol\":6177:6202  prod0 := div(prod0, twos) */\n      swap4\n      pop\n        /* \"@openzeppelin/contracts/utils/math/Math.sol\":6354:6355  1 */\n      0x01\n        /* \"@openzeppelin/contracts/utils/math/Math.sol\":6347:6351  twos */\n      dup2\n        /* \"@openzeppelin/contracts/utils/math/Math.sol\":6340:6344  twos */\n      dup3\n        /* \"@openzeppelin/contracts/utils/math/Math.sol\":6337:6338  0 */\n      0x00\n        /* \"@openzeppelin/contracts/utils/math/Math.sol\":6333:6345  sub(0, twos) */\n      sub\n        /* \"@openzeppelin/contracts/utils/math/Math.sol\":6329:6352  div(sub(0, twos), twos) */\n      div\n        /* \"@openzeppelin/contracts/utils/math/Math.sol\":6325:6356  add(div(sub(0, twos), twos), 1) */\n      add\n        /* \"@openzeppelin/contracts/utils/math/Math.sol\":6317:6356  twos := add(div(sub(0, twos), twos), 1) */\n      swap1\n      pop\n        /* \"@openzeppelin/contracts/utils/math/Math.sol\":6453:6457  twos */\n      dup1\n        /* \"@openzeppelin/contracts/utils/math/Math.sol\":6445:6450  prod1 */\n      dup4\n        /* \"@openzeppelin/contracts/utils/math/Math.sol\":6445:6457  prod1 * twos */\n      mul\n        /* \"@openzeppelin/contracts/utils/math/Math.sol\":6436:6457  prod0 |= prod1 * twos */\n      dup5\n      or\n      swap4\n      pop\n        /* \"@openzeppelin/contracts/utils/math/Math.sol\":6775:6790  uint256 inverse */\n      0x00\n        /* \"@openzeppelin/contracts/utils/math/Math.sol\":6813:6814  2 */\n      0x02\n        /* \"@openzeppelin/contracts/utils/math/Math.sol\":6798:6809  denominator */\n      dup8\n        /* \"@openzeppelin/contracts/utils/math/Math.sol\":6794:6795  3 */\n      0x03\n        /* \"@openzeppelin/contracts/utils/math/Math.sol\":6794:6809  3 * denominator */\n      mul\n        /* \"@openzeppelin/contracts/utils/math/Math.sol\":6793:6814  (3 * denominator) ^ 2 */\n      xor\n        /* \"@openzeppelin/contracts/utils/math/Math.sol\":6775:6814  uint256 inverse = (3 * denominator) ^ 2 */\n      swap1\n      pop\n        /* \"@openzeppelin/contracts/utils/math/Math.sol\":7060:7067  inverse */\n      dup1\n        /* \"@openzeppelin/contracts/utils/math/Math.sol\":7046:7057  denominator */\n      dup8\n        /* \"@openzeppelin/contracts/utils/math/Math.sol\":7046:7067  denominator * inverse */\n      mul\n        /* \"@openzeppelin/contracts/utils/math/Math.sol\":7042:7043  2 */\n      0x02\n        /* \"@openzeppelin/contracts/utils/math/Math.sol\":7042:7067  2 - denominator * inverse */\n      sub\n        /* \"@openzeppelin/contracts/utils/math/Math.sol\":7031:7067  inverse *= 2 - denominator * inverse */\n      dup2\n      mul\n      swap1\n      pop\n        /* \"@openzeppelin/contracts/utils/math/Math.sol\":7129:7136  inverse */\n      dup1\n        /* \"@openzeppelin/contracts/utils/math/Math.sol\":7115:7126  denominator */\n      dup8\n        /* \"@openzeppelin/contracts/utils/math/Math.sol\":7115:7136  denominator * inverse */\n      mul\n        /* \"@openzeppelin/contracts/utils/math/Math.sol\":7111:7112  2 */\n      0x02\n        /* \"@openzeppelin/contracts/utils/math/Math.sol\":7111:7136  2 - denominator * inverse */\n      sub\n        /* \"@openzeppelin/contracts/utils/math/Math.sol\":7100:7136  inverse *= 2 - denominator * inverse */\n      dup2\n      mul\n      swap1\n      pop\n        /* \"@openzeppelin/contracts/utils/math/Math.sol\":7199:7206  inverse */\n      dup1\n        /* \"@openzeppelin/contracts/utils/math/Math.sol\":7185:7196  denominator */\n      dup8\n        /* \"@openzeppelin/contracts/utils/math/Math.sol\":7185:7206  denominator * inverse */\n      mul\n        /* \"@openzeppelin/contracts/utils/math/Math.sol\":7181:7182  2 */\n      0x02\n        /* \"@openzeppelin/contracts/utils/math/Math.sol\":7181:7206  2 - denominator * inverse */\n      sub\n        /* \"@openzeppelin/contracts/utils/math/Math.sol\":7170:7206  inverse *= 2 - denominator * inverse */\n      dup2\n      mul\n      swap1\n      pop\n        /* \"@openzeppelin/contracts/utils/math/Math.sol\":7269:7276  inverse */\n      dup1\n        /* \"@openzeppelin/contracts/utils/math/Math.sol\":7255:7266  denominator */\n      dup8\n        /* \"@openzeppelin/contracts/utils/math/Math.sol\":7255:7276  denominator * inverse */\n      mul\n        /* \"@openzeppelin/contracts/utils/math/Math.sol\":7251:7252  2 */\n      0x02\n        /* \"@openzeppelin/contracts/utils/math/Math.sol\":7251:7276  2 - denominator * inverse */\n      sub\n        /* \"@openzeppelin/contracts/utils/math/Math.sol\":7240:7276  inverse *= 2 - denominator * inverse */\n      dup2\n      mul\n      swap1\n      pop\n        /* \"@openzeppelin/contracts/utils/math/Math.sol\":7339:7346  inverse */\n      dup1\n        /* \"@openzeppelin/contracts/utils/math/Math.sol\":7325:7336  denominator */\n      dup8\n        /* \"@openzeppelin/contracts/utils/math/Math.sol\":7325:7346  denominator * inverse */\n      mul\n        /* \"@openzeppelin/contracts/utils/math/Math.sol\":7321:7322  2 */\n      0x02\n        /* \"@openzeppelin/contracts/utils/math/Math.sol\":7321:7346  2 - denominator * inverse */\n      sub\n        /* \"@openzeppelin/contracts/utils/math/Math.sol\":7310:7346  inverse *= 2 - denominator * inverse */\n      dup2\n      mul\n      swap1\n      pop\n        /* \"@openzeppelin/contracts/utils/math/Math.sol\":7410:7417  inverse */\n      dup1\n        /* \"@openzeppelin/contracts/utils/math/Math.sol\":7396:7407  denominator */\n      dup8\n        /* \"@openzeppelin/contracts/utils/math/Math.sol\":7396:7417  denominator * inverse */\n      mul\n        /* \"@openzeppelin/contracts/utils/math/Math.sol\":7392:7393  2 */\n      0x02\n        /* \"@openzeppelin/contracts/utils/math/Math.sol\":7392:7417  2 - denominator * inverse */\n      sub\n        /* \"@openzeppelin/contracts/utils/math/Math.sol\":7381:7417  inverse *= 2 - denominator * inverse */\n      dup2\n      mul\n      swap1\n      pop\n        /* \"@openzeppelin/contracts/utils/math/Math.sol\":7868:7875  inverse */\n      dup1\n        /* \"@openzeppelin/contracts/utils/math/Math.sol\":7860:7865  prod0 */\n      dup6\n        /* \"@openzeppelin/contracts/utils/math/Math.sol\":7860:7875  prod0 * inverse */\n      mul\n        /* \"@openzeppelin/contracts/utils/math/Math.sol\":7851:7875  result = prod0 * inverse */\n      swap6\n      pop\n        /* \"@openzeppelin/contracts/utils/math/Math.sol\":7889:7902  return result */\n      pop\n      pop\n      pop\n      pop\n      pop\n        /* \"@openzeppelin/contracts/utils/math/Math.sol\":3803:7919  function mulDiv(uint256 x, uint256 y, uint256 denominator) internal pure returns (uint256 result) {... */\n    tag_208:\n      swap4\n      swap3\n      pop\n      pop\n      pop\n      jump\t// out\n    tag_173:\n      mload(0x40)\n      dup1\n      0x0120\n      add\n      0x40\n      mstore\n      dup1\n      0x00\n      dup2\n      mstore\n      0x20\n      add\n      0x60\n      dup2\n      mstore\n      0x20\n      add\n      and(0xffffffffffffffffffffffffffffffffffffffff, 0x00)\n      dup2\n      mstore\n      0x20\n      add\n      and(0xffffffffffffffffffffffffffffffffffffffff, 0x00)\n      dup2\n      mstore\n      0x20\n      add\n      0x00\n      dup2\n      mstore\n      0x20\n      add\n      0x60\n      dup2\n      mstore\n      0x20\n      add\n      0x00\n      dup2\n      mstore\n      0x20\n      add\n      iszero(iszero(0x00))\n      dup2\n      mstore\n      0x20\n      add\n      iszero(iszero(0x00))\n      dup2\n      mstore\n      pop\n      swap1\n      jump\t// out\n        /* \"#utility.yul\":7:82   */\n    tag_214:\n        /* \"#utility.yul\":40:46   */\n      0x00\n        /* \"#utility.yul\":73:75   */\n      0x40\n        /* \"#utility.yul\":67:76   */\n      mload\n        /* \"#utility.yul\":57:76   */\n      swap1\n      pop\n        /* \"#utility.yul\":7:82   */\n      swap1\n      jump\t// out\n        /* \"#utility.yul\":88:205   */\n    tag_215:\n        /* \"#utility.yul\":197:198   */\n      0x00\n        /* \"#utility.yul\":194:195   */\n      dup1\n        /* \"#utility.yul\":187:199   */\n      revert\n        /* \"#utility.yul\":211:328   */\n    tag_216:\n        /* \"#utility.yul\":320:321   */\n      0x00\n        /* \"#utility.yul\":317:318   */\n      dup1\n        /* \"#utility.yul\":310:322   */\n      revert\n        /* \"#utility.yul\":334:451   */\n    tag_217:\n        /* \"#utility.yul\":443:444   */\n      0x00\n        /* \"#utility.yul\":440:441   */\n      dup1\n        /* \"#utility.yul\":433:445   */\n      revert\n        /* \"#utility.yul\":457:574   */\n    tag_218:\n        /* \"#utility.yul\":566:567   */\n      0x00\n        /* \"#utility.yul\":563:564   */\n      dup1\n        /* \"#utility.yul\":556:568   */\n      revert\n        /* \"#utility.yul\":580:682   */\n    tag_219:\n        /* \"#utility.yul\":621:627   */\n      0x00\n        /* \"#utility.yul\":672:674   */\n      0x1f\n        /* \"#utility.yul\":668:675   */\n      not\n        /* \"#utility.yul\":663:665   */\n      0x1f\n        /* \"#utility.yul\":656:661   */\n      dup4\n        /* \"#utility.yul\":652:666   */\n      add\n        /* \"#utility.yul\":648:676   */\n      and\n        /* \"#utility.yul\":638:676   */\n      swap1\n      pop\n        /* \"#utility.yul\":580:682   */\n      swap2\n      swap1\n      pop\n      jump\t// out\n        /* \"#utility.yul\":688:868   */\n    tag_220:\n        /* \"#utility.yul\":736:813   */\n      0x4e487b7100000000000000000000000000000000000000000000000000000000\n        /* \"#utility.yul\":733:734   */\n      0x00\n        /* \"#utility.yul\":726:814   */\n      mstore\n        /* \"#utility.yul\":833:837   */\n      0x41\n        /* \"#utility.yul\":830:831   */\n      0x04\n        /* \"#utility.yul\":823:838   */\n      mstore\n        /* \"#utility.yul\":857:861   */\n      0x24\n        /* \"#utility.yul\":854:855   */\n      0x00\n        /* \"#utility.yul\":847:862   */\n      revert\n        /* \"#utility.yul\":874:1155   */\n    tag_221:\n        /* \"#utility.yul\":957:984   */\n      tag_290\n        /* \"#utility.yul\":979:983   */\n      dup3\n        /* \"#utility.yul\":957:984   */\n      tag_219\n      jump\t// in\n    tag_290:\n        /* \"#utility.yul\":949:955   */\n      dup2\n        /* \"#utility.yul\":945:985   */\n      add\n        /* \"#utility.yul\":1087:1093   */\n      dup2\n        /* \"#utility.yul\":1075:1085   */\n      dup2\n        /* \"#utility.yul\":1072:1094   */\n      lt\n        /* \"#utility.yul\":1051:1069   */\n      0xffffffffffffffff\n        /* \"#utility.yul\":1039:1049   */\n      dup3\n        /* \"#utility.yul\":1036:1070   */\n      gt\n        /* \"#utility.yul\":1033:1095   */\n      or\n        /* \"#utility.yul\":1030:1118   */\n      iszero\n      tag_291\n      jumpi\n        /* \"#utility.yul\":1098:1116   */\n      tag_292\n      tag_220\n      jump\t// in\n    tag_292:\n        /* \"#utility.yul\":1030:1118   */\n    tag_291:\n        /* \"#utility.yul\":1138:1148   */\n      dup1\n        /* \"#utility.yul\":1134:1136   */\n      0x40\n        /* \"#utility.yul\":1127:1149   */\n      mstore\n        /* \"#utility.yul\":917:1155   */\n      pop\n        /* \"#utility.yul\":874:1155   */\n      pop\n      pop\n      jump\t// out\n        /* \"#utility.yul\":1161:1290   */\n    tag_222:\n        /* \"#utility.yul\":1195:1201   */\n      0x00\n        /* \"#utility.yul\":1222:1242   */\n      tag_294\n      tag_214\n      jump\t// in\n    tag_294:\n        /* \"#utility.yul\":1212:1242   */\n      swap1\n      pop\n        /* \"#utility.yul\":1251:1284   */\n      tag_295\n        /* \"#utility.yul\":1279:1283   */\n      dup3\n        /* \"#utility.yul\":1271:1277   */\n      dup3\n        /* \"#utility.yul\":1251:1284   */\n      tag_221\n      jump\t// in\n    tag_295:\n        /* \"#utility.yul\":1161:1290   */\n      swap2\n      swap1\n      pop\n      jump\t// out\n        /* \"#utility.yul\":1296:1604   */\n    tag_223:\n        /* \"#utility.yul\":1358:1362   */\n      0x00\n        /* \"#utility.yul\":1448:1466   */\n      0xffffffffffffffff\n        /* \"#utility.yul\":1440:1446   */\n      dup3\n        /* \"#utility.yul\":1437:1467   */\n      gt\n        /* \"#utility.yul\":1434:1490   */\n      iszero\n      tag_297\n      jumpi\n        /* \"#utility.yul\":1470:1488   */\n      tag_298\n      tag_220\n      jump\t// in\n    tag_298:\n        /* \"#utility.yul\":1434:1490   */\n    tag_297:\n        /* \"#utility.yul\":1508:1537   */\n      tag_299\n        /* \"#utility.yul\":1530:1536   */\n      dup3\n        /* \"#utility.yul\":1508:1537   */\n      tag_219\n      jump\t// in\n    tag_299:\n        /* \"#utility.yul\":1500:1537   */\n      swap1\n      pop\n        /* \"#utility.yul\":1592:1596   */\n      0x20\n        /* \"#utility.yul\":1586:1590   */\n      dup2\n        /* \"#utility.yul\":1582:1597   */\n      add\n        /* \"#utility.yul\":1574:1597   */\n      swap1\n      pop\n        /* \"#utility.yul\":1296:1604   */\n      swap2\n      swap1\n      pop\n      jump\t// out\n        /* \"#utility.yul\":1610:1756   */\n    tag_224:\n        /* \"#utility.yul\":1707:1713   */\n      dup3\n        /* \"#utility.yul\":1702:1705   */\n      dup2\n        /* \"#utility.yul\":1697:1700   */\n      dup4\n        /* \"#utility.yul\":1684:1714   */\n      calldatacopy\n        /* \"#utility.yul\":1748:1749   */\n      0x00\n        /* \"#utility.yul\":1739:1745   */\n      dup4\n        /* \"#utility.yul\":1734:1737   */\n      dup4\n        /* \"#utility.yul\":1730:1746   */\n      add\n        /* \"#utility.yul\":1723:1750   */\n      mstore\n        /* \"#utility.yul\":1610:1756   */\n      pop\n      pop\n      pop\n      jump\t// out\n        /* \"#utility.yul\":1762:2187   */\n    tag_225:\n        /* \"#utility.yul\":1840:1845   */\n      0x00\n        /* \"#utility.yul\":1865:1931   */\n      tag_302\n        /* \"#utility.yul\":1881:1930   */\n      tag_303\n        /* \"#utility.yul\":1923:1929   */\n      dup5\n        /* \"#utility.yul\":1881:1930   */\n      tag_223\n      jump\t// in\n    tag_303:\n        /* \"#utility.yul\":1865:1931   */\n      tag_222\n      jump\t// in\n    tag_302:\n        /* \"#utility.yul\":1856:1931   */\n      swap1\n      pop\n        /* \"#utility.yul\":1954:1960   */\n      dup3\n        /* \"#utility.yul\":1947:1952   */\n      dup2\n        /* \"#utility.yul\":1940:1961   */\n      mstore\n        /* \"#utility.yul\":1992:1996   */\n      0x20\n        /* \"#utility.yul\":1985:1990   */\n      dup2\n        /* \"#utility.yul\":1981:1997   */\n      add\n        /* \"#utility.yul\":2030:2033   */\n      dup5\n        /* \"#utility.yul\":2021:2027   */\n      dup5\n        /* \"#utility.yul\":2016:2019   */\n      dup5\n        /* \"#utility.yul\":2012:2028   */\n      add\n        /* \"#utility.yul\":2009:2034   */\n      gt\n        /* \"#utility.yul\":2006:2118   */\n      iszero\n      tag_304\n      jumpi\n        /* \"#utility.yul\":2037:2116   */\n      tag_305\n      tag_218\n      jump\t// in\n    tag_305:\n        /* \"#utility.yul\":2006:2118   */\n    tag_304:\n        /* \"#utility.yul\":2127:2181   */\n      tag_306\n        /* \"#utility.yul\":2174:2180   */\n      dup5\n        /* \"#utility.yul\":2169:2172   */\n      dup3\n        /* \"#utility.yul\":2164:2167   */\n      dup6\n        /* \"#utility.yul\":2127:2181   */\n      tag_224\n      jump\t// in\n    tag_306:\n        /* \"#utility.yul\":1846:2187   */\n      pop\n        /* \"#utility.yul\":1762:2187   */\n      swap4\n      swap3\n      pop\n      pop\n      pop\n      jump\t// out\n        /* \"#utility.yul\":2207:2547   */\n    tag_226:\n        /* \"#utility.yul\":2263:2268   */\n      0x00\n        /* \"#utility.yul\":2312:2315   */\n      dup3\n        /* \"#utility.yul\":2305:2309   */\n      0x1f\n        /* \"#utility.yul\":2297:2303   */\n      dup4\n        /* \"#utility.yul\":2293:2310   */\n      add\n        /* \"#utility.yul\":2289:2316   */\n      slt\n        /* \"#utility.yul\":2279:2401   */\n      tag_308\n      jumpi\n        /* \"#utility.yul\":2320:2399   */\n      tag_309\n      tag_217\n      jump\t// in\n    tag_309:\n        /* \"#utility.yul\":2279:2401   */\n    tag_308:\n        /* \"#utility.yul\":2437:2443   */\n      dup2\n        /* \"#utility.yul\":2424:2444   */\n      calldataload\n        /* \"#utility.yul\":2462:2541   */\n      tag_310\n        /* \"#utility.yul\":2537:2540   */\n      dup5\n        /* \"#utility.yul\":2529:2535   */\n      dup3\n        /* \"#utility.yul\":2522:2526   */\n      0x20\n        /* \"#utility.yul\":2514:2520   */\n      dup7\n        /* \"#utility.yul\":2510:2527   */\n      add\n        /* \"#utility.yul\":2462:2541   */\n      tag_225\n      jump\t// in\n    tag_310:\n        /* \"#utility.yul\":2453:2541   */\n      swap2\n      pop\n        /* \"#utility.yul\":2269:2547   */\n      pop\n        /* \"#utility.yul\":2207:2547   */\n      swap3\n      swap2\n      pop\n      pop\n      jump\t// out\n        /* \"#utility.yul\":2553:2679   */\n    tag_227:\n        /* \"#utility.yul\":2590:2597   */\n      0x00\n        /* \"#utility.yul\":2630:2672   */\n      0xffffffffffffffffffffffffffffffffffffffff\n        /* \"#utility.yul\":2623:2628   */\n      dup3\n        /* \"#utility.yul\":2619:2673   */\n      and\n        /* \"#utility.yul\":2608:2673   */\n      swap1\n      pop\n        /* \"#utility.yul\":2553:2679   */\n      swap2\n      swap1\n      pop\n      jump\t// out\n        /* \"#utility.yul\":2685:2781   */\n    tag_228:\n        /* \"#utility.yul\":2722:2729   */\n      0x00\n        /* \"#utility.yul\":2751:2775   */\n      tag_313\n        /* \"#utility.yul\":2769:2774   */\n      dup3\n        /* \"#utility.yul\":2751:2775   */\n      tag_227\n      jump\t// in\n    tag_313:\n        /* \"#utility.yul\":2740:2775   */\n      swap1\n      pop\n        /* \"#utility.yul\":2685:2781   */\n      swap2\n      swap1\n      pop\n      jump\t// out\n        /* \"#utility.yul\":2787:2909   */\n    tag_229:\n        /* \"#utility.yul\":2860:2884   */\n      tag_315\n        /* \"#utility.yul\":2878:2883   */\n      dup2\n        /* \"#utility.yul\":2860:2884   */\n      tag_228\n      jump\t// in\n    tag_315:\n        /* \"#utility.yul\":2853:2858   */\n      dup2\n        /* \"#utility.yul\":2850:2885   */\n      eq\n        /* \"#utility.yul\":2840:2903   */\n      tag_316\n      jumpi\n        /* \"#utility.yul\":2899:2900   */\n      0x00\n        /* \"#utility.yul\":2896:2897   */\n      dup1\n        /* \"#utility.yul\":2889:2901   */\n      revert\n        /* \"#utility.yul\":2840:2903   */\n    tag_316:\n        /* \"#utility.yul\":2787:2909   */\n      pop\n      jump\t// out\n        /* \"#utility.yul\":2915:3054   */\n    tag_230:\n        /* \"#utility.yul\":2961:2966   */\n      0x00\n        /* \"#utility.yul\":2999:3005   */\n      dup2\n        /* \"#utility.yul\":2986:3006   */\n      calldataload\n        /* \"#utility.yul\":2977:3006   */\n      swap1\n      pop\n        /* \"#utility.yul\":3015:3048   */\n      tag_318\n        /* \"#utility.yul\":3042:3047   */\n      dup2\n        /* \"#utility.yul\":3015:3048   */\n      tag_229\n      jump\t// in\n    tag_318:\n        /* \"#utility.yul\":2915:3054   */\n      swap3\n      swap2\n      pop\n      pop\n      jump\t// out\n        /* \"#utility.yul\":3060:3137   */\n    tag_231:\n        /* \"#utility.yul\":3097:3104   */\n      0x00\n        /* \"#utility.yul\":3126:3131   */\n      dup2\n        /* \"#utility.yul\":3115:3131   */\n      swap1\n      pop\n        /* \"#utility.yul\":3060:3137   */\n      swap2\n      swap1\n      pop\n      jump\t// out\n        /* \"#utility.yul\":3143:3265   */\n    tag_232:\n        /* \"#utility.yul\":3216:3240   */\n      tag_321\n        /* \"#utility.yul\":3234:3239   */\n      dup2\n        /* \"#utility.yul\":3216:3240   */\n      tag_231\n      jump\t// in\n    tag_321:\n        /* \"#utility.yul\":3209:3214   */\n      dup2\n        /* \"#utility.yul\":3206:3241   */\n      eq\n        /* \"#utility.yul\":3196:3259   */\n      tag_322\n      jumpi\n        /* \"#utility.yul\":3255:3256   */\n      0x00\n        /* \"#utility.yul\":3252:3253   */\n      dup1\n        /* \"#utility.yul\":3245:3257   */\n      revert\n        /* \"#utility.yul\":3196:3259   */\n    tag_322:\n        /* \"#utility.yul\":3143:3265   */\n      pop\n      jump\t// out\n        /* \"#utility.yul\":3271:3410   */\n    tag_233:\n        /* \"#utility.yul\":3317:3322   */\n      0x00\n        /* \"#utility.yul\":3355:3361   */\n      dup2\n        /* \"#utility.yul\":3342:3362   */\n      calldataload\n        /* \"#utility.yul\":3333:3362   */\n      swap1\n      pop\n        /* \"#utility.yul\":3371:3404   */\n      tag_324\n        /* \"#utility.yul\":3398:3403   */\n      dup2\n        /* \"#utility.yul\":3371:3404   */\n      tag_232\n      jump\t// in\n    tag_324:\n        /* \"#utility.yul\":3271:3410   */\n      swap3\n      swap2\n      pop\n      pop\n      jump\t// out\n        /* \"#utility.yul\":3416:4541   */\n    tag_24:\n        /* \"#utility.yul\":3522:3528   */\n      0x00\n        /* \"#utility.yul\":3530:3536   */\n      dup1\n        /* \"#utility.yul\":3538:3544   */\n      0x00\n        /* \"#utility.yul\":3546:3552   */\n      dup1\n        /* \"#utility.yul\":3595:3598   */\n      0x80\n        /* \"#utility.yul\":3583:3592   */\n      dup6\n        /* \"#utility.yul\":3574:3581   */\n      dup8\n        /* \"#utility.yul\":3570:3593   */\n      sub\n        /* \"#utility.yul\":3566:3599   */\n      slt\n        /* \"#utility.yul\":3563:3683   */\n      iszero\n      tag_326\n      jumpi\n        /* \"#utility.yul\":3602:3681   */\n      tag_327\n      tag_215\n      jump\t// in\n    tag_327:\n        /* \"#utility.yul\":3563:3683   */\n    tag_326:\n        /* \"#utility.yul\":3750:3751   */\n      0x00\n        /* \"#utility.yul\":3739:3748   */\n      dup6\n        /* \"#utility.yul\":3735:3752   */\n      add\n        /* \"#utility.yul\":3722:3753   */\n      calldataload\n        /* \"#utility.yul\":3780:3798   */\n      0xffffffffffffffff\n        /* \"#utility.yul\":3772:3778   */\n      dup2\n        /* \"#utility.yul\":3769:3799   */\n      gt\n        /* \"#utility.yul\":3766:3883   */\n      iszero\n      tag_328\n      jumpi\n        /* \"#utility.yul\":3802:3881   */\n      tag_329\n      tag_216\n      jump\t// in\n    tag_329:\n        /* \"#utility.yul\":3766:3883   */\n    tag_328:\n        /* \"#utility.yul\":3907:3970   */\n      tag_330\n        /* \"#utility.yul\":3962:3969   */\n      dup8\n        /* \"#utility.yul\":3953:3959   */\n      dup3\n        /* \"#utility.yul\":3942:3951   */\n      dup9\n        /* \"#utility.yul\":3938:3960   */\n      add\n        /* \"#utility.yul\":3907:3970   */\n      tag_226\n      jump\t// in\n    tag_330:\n        /* \"#utility.yul\":3897:3970   */\n      swap5\n      pop\n        /* \"#utility.yul\":3693:3980   */\n      pop\n        /* \"#utility.yul\":4019:4021   */\n      0x20\n        /* \"#utility.yul\":4045:4098   */\n      tag_331\n        /* \"#utility.yul\":4090:4097   */\n      dup8\n        /* \"#utility.yul\":4081:4087   */\n      dup3\n        /* \"#utility.yul\":4070:4079   */\n      dup9\n        /* \"#utility.yul\":4066:4088   */\n      add\n        /* \"#utility.yul\":4045:4098   */\n      tag_230\n      jump\t// in\n    tag_331:\n        /* \"#utility.yul\":4035:4098   */\n      swap4\n      pop\n        /* \"#utility.yul\":3990:4108   */\n      pop\n        /* \"#utility.yul\":4147:4149   */\n      0x40\n        /* \"#utility.yul\":4173:4226   */\n      tag_332\n        /* \"#utility.yul\":4218:4225   */\n      dup8\n        /* \"#utility.yul\":4209:4215   */\n      dup3\n        /* \"#utility.yul\":4198:4207   */\n      dup9\n        /* \"#utility.yul\":4194:4216   */\n      add\n        /* \"#utility.yul\":4173:4226   */\n      tag_233\n      jump\t// in\n    tag_332:\n        /* \"#utility.yul\":4163:4226   */\n      swap3\n      pop\n        /* \"#utility.yul\":4118:4236   */\n      pop\n        /* \"#utility.yul\":4303:4305   */\n      0x60\n        /* \"#utility.yul\":4292:4301   */\n      dup6\n        /* \"#utility.yul\":4288:4306   */\n      add\n        /* \"#utility.yul\":4275:4307   */\n      calldataload\n        /* \"#utility.yul\":4334:4352   */\n      0xffffffffffffffff\n        /* \"#utility.yul\":4326:4332   */\n      dup2\n        /* \"#utility.yul\":4323:4353   */\n      gt\n        /* \"#utility.yul\":4320:4437   */\n      iszero\n      tag_333\n      jumpi\n        /* \"#utility.yul\":4356:4435   */\n      tag_334\n      tag_216\n      jump\t// in\n    tag_334:\n        /* \"#utility.yul\":4320:4437   */\n    tag_333:\n        /* \"#utility.yul\":4461:4524   */\n      tag_335\n        /* \"#utility.yul\":4516:4523   */\n      dup8\n        /* \"#utility.yul\":4507:4513   */\n      dup3\n        /* \"#utility.yul\":4496:4505   */\n      dup9\n        /* \"#utility.yul\":4492:4514   */\n      add\n        /* \"#utility.yul\":4461:4524   */\n      tag_226\n      jump\t// in\n    tag_335:\n        /* \"#utility.yul\":4451:4524   */\n      swap2\n      pop\n        /* \"#utility.yul\":4246:4534   */\n      pop\n        /* \"#utility.yul\":3416:4541   */\n      swap3\n      swap6\n      swap2\n      swap5\n      pop\n      swap3\n      pop\n      jump\t// out\n        /* \"#utility.yul\":4547:4876   */\n    tag_29:\n        /* \"#utility.yul\":4606:4612   */\n      0x00\n        /* \"#utility.yul\":4655:4657   */\n      0x20\n        /* \"#utility.yul\":4643:4652   */\n      dup3\n        /* \"#utility.yul\":4634:4641   */\n      dup5\n        /* \"#utility.yul\":4630:4653   */\n      sub\n        /* \"#utility.yul\":4626:4658   */\n      slt\n        /* \"#utility.yul\":4623:4742   */\n      iszero\n      tag_337\n      jumpi\n        /* \"#utility.yul\":4661:4740   */\n      tag_338\n      tag_215\n      jump\t// in\n    tag_338:\n        /* \"#utility.yul\":4623:4742   */\n    tag_337:\n        /* \"#utility.yul\":4781:4782   */\n      0x00\n        /* \"#utility.yul\":4806:4859   */\n      tag_339\n        /* \"#utility.yul\":4851:4858   */\n      dup5\n        /* \"#utility.yul\":4842:4848   */\n      dup3\n        /* \"#utility.yul\":4831:4840   */\n      dup6\n        /* \"#utility.yul\":4827:4849   */\n      add\n        /* \"#utility.yul\":4806:4859   */\n      tag_230\n      jump\t// in\n    tag_339:\n        /* \"#utility.yul\":4796:4859   */\n      swap2\n      pop\n        /* \"#utility.yul\":4752:4869   */\n      pop\n        /* \"#utility.yul\":4547:4876   */\n      swap3\n      swap2\n      pop\n      pop\n      jump\t// out\n        /* \"#utility.yul\":4882:4972   */\n    tag_234:\n        /* \"#utility.yul\":4916:4923   */\n      0x00\n        /* \"#utility.yul\":4959:4964   */\n      dup2\n        /* \"#utility.yul\":4952:4965   */\n      iszero\n        /* \"#utility.yul\":4945:4966   */\n      iszero\n        /* \"#utility.yul\":4934:4966   */\n      swap1\n      pop\n        /* \"#utility.yul\":4882:4972   */\n      swap2\n      swap1\n      pop\n      jump\t// out\n        /* \"#utility.yul\":4978:5094   */\n    tag_235:\n        /* \"#utility.yul\":5048:5069   */\n      tag_342\n        /* \"#utility.yul\":5063:5068   */\n      dup2\n        /* \"#utility.yul\":5048:5069   */\n      tag_234\n      jump\t// in\n    tag_342:\n        /* \"#utility.yul\":5041:5046   */\n      dup2\n        /* \"#utility.yul\":5038:5070   */\n      eq\n        /* \"#utility.yul\":5028:5088   */\n      tag_343\n      jumpi\n        /* \"#utility.yul\":5084:5085   */\n      0x00\n        /* \"#utility.yul\":5081:5082   */\n      dup1\n        /* \"#utility.yul\":5074:5086   */\n      revert\n        /* \"#utility.yul\":5028:5088   */\n    tag_343:\n        /* \"#utility.yul\":4978:5094   */\n      pop\n      jump\t// out\n        /* \"#utility.yul\":5100:5233   */\n    tag_236:\n        /* \"#utility.yul\":5143:5148   */\n      0x00\n        /* \"#utility.yul\":5181:5187   */\n      dup2\n        /* \"#utility.yul\":5168:5188   */\n      calldataload\n        /* \"#utility.yul\":5159:5188   */\n      swap1\n      pop\n        /* \"#utility.yul\":5197:5227   */\n      tag_345\n        /* \"#utility.yul\":5221:5226   */\n      dup2\n        /* \"#utility.yul\":5197:5227   */\n      tag_235\n      jump\t// in\n    tag_345:\n        /* \"#utility.yul\":5100:5233   */\n      swap3\n      swap2\n      pop\n      pop\n      jump\t// out\n        /* \"#utility.yul\":5239:5707   */\n    tag_34:\n        /* \"#utility.yul\":5304:5310   */\n      0x00\n        /* \"#utility.yul\":5312:5318   */\n      dup1\n        /* \"#utility.yul\":5361:5363   */\n      0x40\n        /* \"#utility.yul\":5349:5358   */\n      dup4\n        /* \"#utility.yul\":5340:5347   */\n      dup6\n        /* \"#utility.yul\":5336:5359   */\n      sub\n        /* \"#utility.yul\":5332:5364   */\n      slt\n        /* \"#utility.yul\":5329:5448   */\n      iszero\n      tag_347\n      jumpi\n        /* \"#utility.yul\":5367:5446   */\n      tag_348\n      tag_215\n      jump\t// in\n    tag_348:\n        /* \"#utility.yul\":5329:5448   */\n    tag_347:\n        /* \"#utility.yul\":5487:5488   */\n      0x00\n        /* \"#utility.yul\":5512:5565   */\n      tag_349\n        /* \"#utility.yul\":5557:5564   */\n      dup6\n        /* \"#utility.yul\":5548:5554   */\n      dup3\n        /* \"#utility.yul\":5537:5546   */\n      dup7\n        /* \"#utility.yul\":5533:5555   */\n      add\n        /* \"#utility.yul\":5512:5565   */\n      tag_233\n      jump\t// in\n    tag_349:\n        /* \"#utility.yul\":5502:5565   */\n      swap3\n      pop\n        /* \"#utility.yul\":5458:5575   */\n      pop\n        /* \"#utility.yul\":5614:5616   */\n      0x20\n        /* \"#utility.yul\":5640:5690   */\n      tag_350\n        /* \"#utility.yul\":5682:5689   */\n      dup6\n        /* \"#utility.yul\":5673:5679   */\n      dup3\n        /* \"#utility.yul\":5662:5671   */\n      dup7\n        /* \"#utility.yul\":5658:5680   */\n      add\n        /* \"#utility.yul\":5640:5690   */\n      tag_236\n      jump\t// in\n    tag_350:\n        /* \"#utility.yul\":5630:5690   */\n      swap2\n      pop\n        /* \"#utility.yul\":5585:5700   */\n      pop\n        /* \"#utility.yul\":5239:5707   */\n      swap3\n      pop\n      swap3\n      swap1\n      pop\n      jump\t// out\n        /* \"#utility.yul\":5713:5831   */\n    tag_237:\n        /* \"#utility.yul\":5800:5824   */\n      tag_352\n        /* \"#utility.yul\":5818:5823   */\n      dup2\n        /* \"#utility.yul\":5800:5824   */\n      tag_231\n      jump\t// in\n    tag_352:\n        /* \"#utility.yul\":5795:5798   */\n      dup3\n        /* \"#utility.yul\":5788:5825   */\n      mstore\n        /* \"#utility.yul\":5713:5831   */\n      pop\n      pop\n      jump\t// out\n        /* \"#utility.yul\":5837:6059   */\n    tag_40:\n        /* \"#utility.yul\":5930:5934   */\n      0x00\n        /* \"#utility.yul\":5968:5970   */\n      0x20\n        /* \"#utility.yul\":5957:5966   */\n      dup3\n        /* \"#utility.yul\":5953:5971   */\n      add\n        /* \"#utility.yul\":5945:5971   */\n      swap1\n      pop\n        /* \"#utility.yul\":5981:6052   */\n      tag_354\n        /* \"#utility.yul\":6049:6050   */\n      0x00\n        /* \"#utility.yul\":6038:6047   */\n      dup4\n        /* \"#utility.yul\":6034:6051   */\n      add\n        /* \"#utility.yul\":6025:6031   */\n      dup5\n        /* \"#utility.yul\":5981:6052   */\n      tag_237\n      jump\t// in\n    tag_354:\n        /* \"#utility.yul\":5837:6059   */\n      swap3\n      swap2\n      pop\n      pop\n      jump\t// out\n        /* \"#utility.yul\":6065:6539   */\n    tag_47:\n        /* \"#utility.yul\":6133:6139   */\n      0x00\n        /* \"#utility.yul\":6141:6147   */\n      dup1\n        /* \"#utility.yul\":6190:6192   */\n      0x40\n        /* \"#utility.yul\":6178:6187   */\n      dup4\n        /* \"#utility.yul\":6169:6176   */\n      dup6\n        /* \"#utility.yul\":6165:6188   */\n      sub\n        /* \"#utility.yul\":6161:6193   */\n      slt\n        /* \"#utility.yul\":6158:6277   */\n      iszero\n      tag_356\n      jumpi\n        /* \"#utility.yul\":6196:6275   */\n      tag_357\n      tag_215\n      jump\t// in\n    tag_357:\n        /* \"#utility.yul\":6158:6277   */\n    tag_356:\n        /* \"#utility.yul\":6316:6317   */\n      0x00\n        /* \"#utility.yul\":6341:6394   */\n      tag_358\n        /* \"#utility.yul\":6386:6393   */\n      dup6\n        /* \"#utility.yul\":6377:6383   */\n      dup3\n        /* \"#utility.yul\":6366:6375   */\n      dup7\n        /* \"#utility.yul\":6362:6384   */\n      add\n        /* \"#utility.yul\":6341:6394   */\n      tag_233\n      jump\t// in\n    tag_358:\n        /* \"#utility.yul\":6331:6394   */\n      swap3\n      pop\n        /* \"#utility.yul\":6287:6404   */\n      pop\n        /* \"#utility.yul\":6443:6445   */\n      0x20\n        /* \"#utility.yul\":6469:6522   */\n      tag_359\n        /* \"#utility.yul\":6514:6521   */\n      dup6\n        /* \"#utility.yul\":6505:6511   */\n      dup3\n        /* \"#utility.yul\":6494:6503   */\n      dup7\n        /* \"#utility.yul\":6490:6512   */\n      add\n        /* \"#utility.yul\":6469:6522   */\n      tag_233\n      jump\t// in\n    tag_359:\n        /* \"#utility.yul\":6459:6522   */\n      swap2\n      pop\n        /* \"#utility.yul\":6414:6532   */\n      pop\n        /* \"#utility.yul\":6065:6539   */\n      swap3\n      pop\n      swap3\n      swap1\n      pop\n      jump\t// out\n        /* \"#utility.yul\":6545:6654   */\n    tag_238:\n        /* \"#utility.yul\":6626:6647   */\n      tag_361\n        /* \"#utility.yul\":6641:6646   */\n      dup2\n        /* \"#utility.yul\":6626:6647   */\n      tag_234\n      jump\t// in\n    tag_361:\n        /* \"#utility.yul\":6621:6624   */\n      dup3\n        /* \"#utility.yul\":6614:6648   */\n      mstore\n        /* \"#utility.yul\":6545:6654   */\n      pop\n      pop\n      jump\t// out\n        /* \"#utility.yul\":6660:6870   */\n    tag_50:\n        /* \"#utility.yul\":6747:6751   */\n      0x00\n        /* \"#utility.yul\":6785:6787   */\n      0x20\n        /* \"#utility.yul\":6774:6783   */\n      dup3\n        /* \"#utility.yul\":6770:6788   */\n      add\n        /* \"#utility.yul\":6762:6788   */\n      swap1\n      pop\n        /* \"#utility.yul\":6798:6863   */\n      tag_363\n        /* \"#utility.yul\":6860:6861   */\n      0x00\n        /* \"#utility.yul\":6849:6858   */\n      dup4\n        /* \"#utility.yul\":6845:6862   */\n      add\n        /* \"#utility.yul\":6836:6842   */\n      dup5\n        /* \"#utility.yul\":6798:6863   */\n      tag_238\n      jump\t// in\n    tag_363:\n        /* \"#utility.yul\":6660:6870   */\n      swap3\n      swap2\n      pop\n      pop\n      jump\t// out\n        /* \"#utility.yul\":6876:7350   */\n    tag_54:\n        /* \"#utility.yul\":6944:6950   */\n      0x00\n        /* \"#utility.yul\":6952:6958   */\n      dup1\n        /* \"#utility.yul\":7001:7003   */\n      0x40\n        /* \"#utility.yul\":6989:6998   */\n      dup4\n        /* \"#utility.yul\":6980:6987   */\n      dup6\n        /* \"#utility.yul\":6976:6999   */\n      sub\n        /* \"#utility.yul\":6972:7004   */\n      slt\n        /* \"#utility.yul\":6969:7088   */\n      iszero\n      tag_365\n      jumpi\n        /* \"#utility.yul\":7007:7086   */\n      tag_366\n      tag_215\n      jump\t// in\n    tag_366:\n        /* \"#utility.yul\":6969:7088   */\n    tag_365:\n        /* \"#utility.yul\":7127:7128   */\n      0x00\n        /* \"#utility.yul\":7152:7205   */\n      tag_367\n        /* \"#utility.yul\":7197:7204   */\n      dup6\n        /* \"#utility.yul\":7188:7194   */\n      dup3\n        /* \"#utility.yul\":7177:7186   */\n      dup7\n        /* \"#utility.yul\":7173:7195   */\n      add\n        /* \"#utility.yul\":7152:7205   */\n      tag_230\n      jump\t// in\n    tag_367:\n        /* \"#utility.yul\":7142:7205   */\n      swap3\n      pop\n        /* \"#utility.yul\":7098:7215   */\n      pop\n        /* \"#utility.yul\":7254:7256   */\n      0x20\n        /* \"#utility.yul\":7280:7333   */\n      tag_368\n        /* \"#utility.yul\":7325:7332   */\n      dup6\n        /* \"#utility.yul\":7316:7322   */\n      dup3\n        /* \"#utility.yul\":7305:7314   */\n      dup7\n        /* \"#utility.yul\":7301:7323   */\n      add\n        /* \"#utility.yul\":7280:7333   */\n      tag_233\n      jump\t// in\n    tag_368:\n        /* \"#utility.yul\":7270:7333   */\n      swap2\n      pop\n        /* \"#utility.yul\":7225:7343   */\n      pop\n        /* \"#utility.yul\":6876:7350   */\n      swap3\n      pop\n      swap3\n      swap1\n      pop\n      jump\t// out\n        /* \"#utility.yul\":7356:7774   */\n    tag_57:\n        /* \"#utility.yul\":7493:7497   */\n      0x00\n        /* \"#utility.yul\":7531:7533   */\n      0x60\n        /* \"#utility.yul\":7520:7529   */\n      dup3\n        /* \"#utility.yul\":7516:7534   */\n      add\n        /* \"#utility.yul\":7508:7534   */\n      swap1\n      pop\n        /* \"#utility.yul\":7544:7615   */\n      tag_370\n        /* \"#utility.yul\":7612:7613   */\n      0x00\n        /* \"#utility.yul\":7601:7610   */\n      dup4\n        /* \"#utility.yul\":7597:7614   */\n      add\n        /* \"#utility.yul\":7588:7594   */\n      dup7\n        /* \"#utility.yul\":7544:7615   */\n      tag_237\n      jump\t// in\n    tag_370:\n        /* \"#utility.yul\":7625:7691   */\n      tag_371\n        /* \"#utility.yul\":7687:7689   */\n      0x20\n        /* \"#utility.yul\":7676:7685   */\n      dup4\n        /* \"#utility.yul\":7672:7690   */\n      add\n        /* \"#utility.yul\":7663:7669   */\n      dup6\n        /* \"#utility.yul\":7625:7691   */\n      tag_238\n      jump\t// in\n    tag_371:\n        /* \"#utility.yul\":7701:7767   */\n      tag_372\n        /* \"#utility.yul\":7763:7765   */\n      0x40\n        /* \"#utility.yul\":7752:7761   */\n      dup4\n        /* \"#utility.yul\":7748:7766   */\n      add\n        /* \"#utility.yul\":7739:7745   */\n      dup5\n        /* \"#utility.yul\":7701:7767   */\n      tag_238\n      jump\t// in\n    tag_372:\n        /* \"#utility.yul\":7356:7774   */\n      swap5\n      swap4\n      pop\n      pop\n      pop\n      pop\n      jump\t// out\n        /* \"#utility.yul\":7780:8109   */\n    tag_61:\n        /* \"#utility.yul\":7839:7845   */\n      0x00\n        /* \"#utility.yul\":7888:7890   */\n      0x20\n        /* \"#utility.yul\":7876:7885   */\n      dup3\n        /* \"#utility.yul\":7867:7874   */\n      dup5\n        /* \"#utility.yul\":7863:7886   */\n      sub\n        /* \"#utility.yul\":7859:7891   */\n      slt\n        /* \"#utility.yul\":7856:7975   */\n      iszero\n      tag_374\n      jumpi\n        /* \"#utility.yul\":7894:7973   */\n      tag_375\n      tag_215\n      jump\t// in\n    tag_375:\n        /* \"#utility.yul\":7856:7975   */\n    tag_374:\n        /* \"#utility.yul\":8014:8015   */\n      0x00\n        /* \"#utility.yul\":8039:8092   */\n      tag_376\n        /* \"#utility.yul\":8084:8091   */\n      dup5\n        /* \"#utility.yul\":8075:8081   */\n      dup3\n        /* \"#utility.yul\":8064:8073   */\n      dup6\n        /* \"#utility.yul\":8060:8082   */\n      add\n        /* \"#utility.yul\":8039:8092   */\n      tag_233\n      jump\t// in\n    tag_376:\n        /* \"#utility.yul\":8029:8092   */\n      swap2\n      pop\n        /* \"#utility.yul\":7985:8102   */\n      pop\n        /* \"#utility.yul\":7780:8109   */\n      swap3\n      swap2\n      pop\n      pop\n      jump\t// out\n        /* \"#utility.yul\":8115:8214   */\n    tag_239:\n        /* \"#utility.yul\":8167:8173   */\n      0x00\n        /* \"#utility.yul\":8201:8206   */\n      dup2\n        /* \"#utility.yul\":8195:8207   */\n      mload\n        /* \"#utility.yul\":8185:8207   */\n      swap1\n      pop\n        /* \"#utility.yul\":8115:8214   */\n      swap2\n      swap1\n      pop\n      jump\t// out\n        /* \"#utility.yul\":8220:8389   */\n    tag_240:\n        /* \"#utility.yul\":8304:8315   */\n      0x00\n        /* \"#utility.yul\":8338:8344   */\n      dup3\n        /* \"#utility.yul\":8333:8336   */\n      dup3\n        /* \"#utility.yul\":8326:8345   */\n      mstore\n        /* \"#utility.yul\":8378:8382   */\n      0x20\n        /* \"#utility.yul\":8373:8376   */\n      dup3\n        /* \"#utility.yul\":8369:8383   */\n      add\n        /* \"#utility.yul\":8354:8383   */\n      swap1\n      pop\n        /* \"#utility.yul\":8220:8389   */\n      swap3\n      swap2\n      pop\n      pop\n      jump\t// out\n        /* \"#utility.yul\":8395:8641   */\n    tag_241:\n        /* \"#utility.yul\":8476:8477   */\n      0x00\n        /* \"#utility.yul\":8486:8599   */\n    tag_380:\n        /* \"#utility.yul\":8500:8506   */\n      dup4\n        /* \"#utility.yul\":8497:8498   */\n      dup2\n        /* \"#utility.yul\":8494:8507   */\n      lt\n        /* \"#utility.yul\":8486:8599   */\n      iszero\n      tag_382\n      jumpi\n        /* \"#utility.yul\":8585:8586   */\n      dup1\n        /* \"#utility.yul\":8580:8583   */\n      dup3\n        /* \"#utility.yul\":8576:8587   */\n      add\n        /* \"#utility.yul\":8570:8588   */\n      mload\n        /* \"#utility.yul\":8566:8567   */\n      dup2\n        /* \"#utility.yul\":8561:8564   */\n      dup5\n        /* \"#utility.yul\":8557:8568   */\n      add\n        /* \"#utility.yul\":8550:8589   */\n      mstore\n        /* \"#utility.yul\":8522:8524   */\n      0x20\n        /* \"#utility.yul\":8519:8520   */\n      dup2\n        /* \"#utility.yul\":8515:8525   */\n      add\n        /* \"#utility.yul\":8510:8525   */\n      swap1\n      pop\n        /* \"#utility.yul\":8486:8599   */\n      jump(tag_380)\n    tag_382:\n        /* \"#utility.yul\":8633:8634   */\n      0x00\n        /* \"#utility.yul\":8624:8630   */\n      dup5\n        /* \"#utility.yul\":8619:8622   */\n      dup5\n        /* \"#utility.yul\":8615:8631   */\n      add\n        /* \"#utility.yul\":8608:8635   */\n      mstore\n        /* \"#utility.yul\":8457:8641   */\n      pop\n        /* \"#utility.yul\":8395:8641   */\n      pop\n      pop\n      pop\n      jump\t// out\n        /* \"#utility.yul\":8647:9024   */\n    tag_242:\n        /* \"#utility.yul\":8735:8738   */\n      0x00\n        /* \"#utility.yul\":8763:8802   */\n      tag_384\n        /* \"#utility.yul\":8796:8801   */\n      dup3\n        /* \"#utility.yul\":8763:8802   */\n      tag_239\n      jump\t// in\n    tag_384:\n        /* \"#utility.yul\":8818:8889   */\n      tag_385\n        /* \"#utility.yul\":8882:8888   */\n      dup2\n        /* \"#utility.yul\":8877:8880   */\n      dup6\n        /* \"#utility.yul\":8818:8889   */\n      tag_240\n      jump\t// in\n    tag_385:\n        /* \"#utility.yul\":8811:8889   */\n      swap4\n      pop\n        /* \"#utility.yul\":8898:8963   */\n      tag_386\n        /* \"#utility.yul\":8956:8962   */\n      dup2\n        /* \"#utility.yul\":8951:8954   */\n      dup6\n        /* \"#utility.yul\":8944:8948   */\n      0x20\n        /* \"#utility.yul\":8937:8942   */\n      dup7\n        /* \"#utility.yul\":8933:8949   */\n      add\n        /* \"#utility.yul\":8898:8963   */\n      tag_241\n      jump\t// in\n    tag_386:\n        /* \"#utility.yul\":8988:9017   */\n      tag_387\n        /* \"#utility.yul\":9010:9016   */\n      dup2\n        /* \"#utility.yul\":8988:9017   */\n      tag_219\n      jump\t// in\n    tag_387:\n        /* \"#utility.yul\":8983:8986   */\n      dup5\n        /* \"#utility.yul\":8979:9018   */\n      add\n        /* \"#utility.yul\":8972:9018   */\n      swap2\n      pop\n        /* \"#utility.yul\":8739:9024   */\n      pop\n        /* \"#utility.yul\":8647:9024   */\n      swap3\n      swap2\n      pop\n      pop\n      jump\t// out\n        /* \"#utility.yul\":9030:9148   */\n    tag_243:\n        /* \"#utility.yul\":9117:9141   */\n      tag_389\n        /* \"#utility.yul\":9135:9140   */\n      dup2\n        /* \"#utility.yul\":9117:9141   */\n      tag_228\n      jump\t// in\n    tag_389:\n        /* \"#utility.yul\":9112:9115   */\n      dup3\n        /* \"#utility.yul\":9105:9142   */\n      mstore\n        /* \"#utility.yul\":9030:9148   */\n      pop\n      pop\n      jump\t// out\n        /* \"#utility.yul\":9154:10420   */\n    tag_64:\n        /* \"#utility.yul\":9499:9503   */\n      0x00\n        /* \"#utility.yul\":9537:9540   */\n      0x0120\n        /* \"#utility.yul\":9526:9535   */\n      dup3\n        /* \"#utility.yul\":9522:9541   */\n      add\n        /* \"#utility.yul\":9514:9541   */\n      swap1\n      pop\n        /* \"#utility.yul\":9551:9622   */\n      tag_391\n        /* \"#utility.yul\":9619:9620   */\n      0x00\n        /* \"#utility.yul\":9608:9617   */\n      dup4\n        /* \"#utility.yul\":9604:9621   */\n      add\n        /* \"#utility.yul\":9595:9601   */\n      dup13\n        /* \"#utility.yul\":9551:9622   */\n      tag_237\n      jump\t// in\n    tag_391:\n        /* \"#utility.yul\":9669:9678   */\n      dup2\n        /* \"#utility.yul\":9663:9667   */\n      dup2\n        /* \"#utility.yul\":9659:9679   */\n      sub\n        /* \"#utility.yul\":9654:9656   */\n      0x20\n        /* \"#utility.yul\":9643:9652   */\n      dup4\n        /* \"#utility.yul\":9639:9657   */\n      add\n        /* \"#utility.yul\":9632:9680   */\n      mstore\n        /* \"#utility.yul\":9697:9775   */\n      tag_392\n        /* \"#utility.yul\":9770:9774   */\n      dup2\n        /* \"#utility.yul\":9761:9767   */\n      dup12\n        /* \"#utility.yul\":9697:9775   */\n      tag_242\n      jump\t// in\n    tag_392:\n        /* \"#utility.yul\":9689:9775   */\n      swap1\n      pop\n        /* \"#utility.yul\":9785:9857   */\n      tag_393\n        /* \"#utility.yul\":9853:9855   */\n      0x40\n        /* \"#utility.yul\":9842:9851   */\n      dup4\n        /* \"#utility.yul\":9838:9856   */\n      add\n        /* \"#utility.yul\":9829:9835   */\n      dup11\n        /* \"#utility.yul\":9785:9857   */\n      tag_243\n      jump\t// in\n    tag_393:\n        /* \"#utility.yul\":9867:9939   */\n      tag_394\n        /* \"#utility.yul\":9935:9937   */\n      0x60\n        /* \"#utility.yul\":9924:9933   */\n      dup4\n        /* \"#utility.yul\":9920:9938   */\n      add\n        /* \"#utility.yul\":9911:9917   */\n      dup10\n        /* \"#utility.yul\":9867:9939   */\n      tag_243\n      jump\t// in\n    tag_394:\n        /* \"#utility.yul\":9949:10022   */\n      tag_395\n        /* \"#utility.yul\":10017:10020   */\n      0x80\n        /* \"#utility.yul\":10006:10015   */\n      dup4\n        /* \"#utility.yul\":10002:10021   */\n      add\n        /* \"#utility.yul\":9993:9999   */\n      dup9\n        /* \"#utility.yul\":9949:10022   */\n      tag_237\n      jump\t// in\n    tag_395:\n        /* \"#utility.yul\":10070:10079   */\n      dup2\n        /* \"#utility.yul\":10064:10068   */\n      dup2\n        /* \"#utility.yul\":10060:10080   */\n      sub\n        /* \"#utility.yul\":10054:10057   */\n      0xa0\n        /* \"#utility.yul\":10043:10052   */\n      dup4\n        /* \"#utility.yul\":10039:10058   */\n      add\n        /* \"#utility.yul\":10032:10081   */\n      mstore\n        /* \"#utility.yul\":10098:10176   */\n      tag_396\n        /* \"#utility.yul\":10171:10175   */\n      dup2\n        /* \"#utility.yul\":10162:10168   */\n      dup8\n        /* \"#utility.yul\":10098:10176   */\n      tag_242\n      jump\t// in\n    tag_396:\n        /* \"#utility.yul\":10090:10176   */\n      swap1\n      pop\n        /* \"#utility.yul\":10186:10259   */\n      tag_397\n        /* \"#utility.yul\":10254:10257   */\n      0xc0\n        /* \"#utility.yul\":10243:10252   */\n      dup4\n        /* \"#utility.yul\":10239:10258   */\n      add\n        /* \"#utility.yul\":10230:10236   */\n      dup7\n        /* \"#utility.yul\":10186:10259   */\n      tag_237\n      jump\t// in\n    tag_397:\n        /* \"#utility.yul\":10269:10336   */\n      tag_398\n        /* \"#utility.yul\":10331:10334   */\n      0xe0\n        /* \"#utility.yul\":10320:10329   */\n      dup4\n        /* \"#utility.yul\":10316:10335   */\n      add\n        /* \"#utility.yul\":10307:10313   */\n      dup6\n        /* \"#utility.yul\":10269:10336   */\n      tag_238\n      jump\t// in\n    tag_398:\n        /* \"#utility.yul\":10346:10413   */\n      tag_399\n        /* \"#utility.yul\":10408:10411   */\n      0x0100\n        /* \"#utility.yul\":10397:10406   */\n      dup4\n        /* \"#utility.yul\":10393:10412   */\n      add\n        /* \"#utility.yul\":10384:10390   */\n      dup5\n        /* \"#utility.yul\":10346:10413   */\n      tag_238\n      jump\t// in\n    tag_399:\n        /* \"#utility.yul\":9154:10420   */\n      swap11\n      swap10\n      pop\n      pop\n      pop\n      pop\n      pop\n      pop\n      pop\n      pop\n      pop\n      pop\n      jump\t// out\n        /* \"#utility.yul\":10426:10758   */\n    tag_70:\n        /* \"#utility.yul\":10547:10551   */\n      0x00\n        /* \"#utility.yul\":10585:10587   */\n      0x40\n        /* \"#utility.yul\":10574:10583   */\n      dup3\n        /* \"#utility.yul\":10570:10588   */\n      add\n        /* \"#utility.yul\":10562:10588   */\n      swap1\n      pop\n        /* \"#utility.yul\":10598:10669   */\n      tag_401\n        /* \"#utility.yul\":10666:10667   */\n      0x00\n        /* \"#utility.yul\":10655:10664   */\n      dup4\n        /* \"#utility.yul\":10651:10668   */\n      add\n        /* \"#utility.yul\":10642:10648   */\n      dup6\n        /* \"#utility.yul\":10598:10669   */\n      tag_237\n      jump\t// in\n    tag_401:\n        /* \"#utility.yul\":10679:10751   */\n      tag_402\n        /* \"#utility.yul\":10747:10749   */\n      0x20\n        /* \"#utility.yul\":10736:10745   */\n      dup4\n        /* \"#utility.yul\":10732:10750   */\n      add\n        /* \"#utility.yul\":10723:10729   */\n      dup5\n        /* \"#utility.yul\":10679:10751   */\n      tag_237\n      jump\t// in\n    tag_402:\n        /* \"#utility.yul\":10426:10758   */\n      swap4\n      swap3\n      pop\n      pop\n      pop\n      jump\t// out\n        /* \"#utility.yul\":10764:10986   */\n    tag_90:\n        /* \"#utility.yul\":10857:10861   */\n      0x00\n        /* \"#utility.yul\":10895:10897   */\n      0x20\n        /* \"#utility.yul\":10884:10893   */\n      dup3\n        /* \"#utility.yul\":10880:10898   */\n      add\n        /* \"#utility.yul\":10872:10898   */\n      swap1\n      pop\n        /* \"#utility.yul\":10908:10979   */\n      tag_404\n        /* \"#utility.yul\":10976:10977   */\n      0x00\n        /* \"#utility.yul\":10965:10974   */\n      dup4\n        /* \"#utility.yul\":10961:10978   */\n      add\n        /* \"#utility.yul\":10952:10958   */\n      dup5\n        /* \"#utility.yul\":10908:10979   */\n      tag_243\n      jump\t// in\n    tag_404:\n        /* \"#utility.yul\":10764:10986   */\n      swap3\n      swap2\n      pop\n      pop\n      jump\t// out\n        /* \"#utility.yul\":10992:11501   */\n    tag_94:\n        /* \"#utility.yul\":11061:11067   */\n      0x00\n        /* \"#utility.yul\":11110:11112   */\n      0x20\n        /* \"#utility.yul\":11098:11107   */\n      dup3\n        /* \"#utility.yul\":11089:11096   */\n      dup5\n        /* \"#utility.yul\":11085:11108   */\n      sub\n        /* \"#utility.yul\":11081:11113   */\n      slt\n        /* \"#utility.yul\":11078:11197   */\n      iszero\n      tag_406\n      jumpi\n        /* \"#utility.yul\":11116:11195   */\n      tag_407\n      tag_215\n      jump\t// in\n    tag_407:\n        /* \"#utility.yul\":11078:11197   */\n    tag_406:\n        /* \"#utility.yul\":11264:11265   */\n      0x00\n        /* \"#utility.yul\":11253:11262   */\n      dup3\n        /* \"#utility.yul\":11249:11266   */\n      add\n        /* \"#utility.yul\":11236:11267   */\n      calldataload\n        /* \"#utility.yul\":11294:11312   */\n      0xffffffffffffffff\n        /* \"#utility.yul\":11286:11292   */\n      dup2\n        /* \"#utility.yul\":11283:11313   */\n      gt\n        /* \"#utility.yul\":11280:11397   */\n      iszero\n      tag_408\n      jumpi\n        /* \"#utility.yul\":11316:11395   */\n      tag_409\n      tag_216\n      jump\t// in\n    tag_409:\n        /* \"#utility.yul\":11280:11397   */\n    tag_408:\n        /* \"#utility.yul\":11421:11484   */\n      tag_410\n        /* \"#utility.yul\":11476:11483   */\n      dup5\n        /* \"#utility.yul\":11467:11473   */\n      dup3\n        /* \"#utility.yul\":11456:11465   */\n      dup6\n        /* \"#utility.yul\":11452:11474   */\n      add\n        /* \"#utility.yul\":11421:11484   */\n      tag_226\n      jump\t// in\n    tag_410:\n        /* \"#utility.yul\":11411:11484   */\n      swap2\n      pop\n        /* \"#utility.yul\":11207:11494   */\n      pop\n        /* \"#utility.yul\":10992:11501   */\n      swap3\n      swap2\n      pop\n      pop\n      jump\t// out\n        /* \"#utility.yul\":11507:11918   */\n    tag_101:\n        /* \"#utility.yul\":11642:11646   */\n      0x00\n        /* \"#utility.yul\":11680:11682   */\n      0x40\n        /* \"#utility.yul\":11669:11678   */\n      dup3\n        /* \"#utility.yul\":11665:11683   */\n      add\n        /* \"#utility.yul\":11657:11683   */\n      swap1\n      pop\n        /* \"#utility.yul\":11729:11738   */\n      dup2\n        /* \"#utility.yul\":11723:11727   */\n      dup2\n        /* \"#utility.yul\":11719:11739   */\n      sub\n        /* \"#utility.yul\":11715:11716   */\n      0x00\n        /* \"#utility.yul\":11704:11713   */\n      dup4\n        /* \"#utility.yul\":11700:11717   */\n      add\n        /* \"#utility.yul\":11693:11740   */\n      mstore\n        /* \"#utility.yul\":11757:11835   */\n      tag_412\n        /* \"#utility.yul\":11830:11834   */\n      dup2\n        /* \"#utility.yul\":11821:11827   */\n      dup6\n        /* \"#utility.yul\":11757:11835   */\n      tag_242\n      jump\t// in\n    tag_412:\n        /* \"#utility.yul\":11749:11835   */\n      swap1\n      pop\n        /* \"#utility.yul\":11845:11911   */\n      tag_413\n        /* \"#utility.yul\":11907:11909   */\n      0x20\n        /* \"#utility.yul\":11896:11905   */\n      dup4\n        /* \"#utility.yul\":11892:11910   */\n      add\n        /* \"#utility.yul\":11883:11889   */\n      dup5\n        /* \"#utility.yul\":11845:11911   */\n      tag_238\n      jump\t// in\n    tag_413:\n        /* \"#utility.yul\":11507:11918   */\n      swap4\n      swap3\n      pop\n      pop\n      pop\n      jump\t// out\n        /* \"#utility.yul\":11924:12086   */\n    tag_244:\n        /* \"#utility.yul\":12064:12078   */\n      0x4e4f542041204d454d4245520000000000000000000000000000000000000000\n        /* \"#utility.yul\":12060:12061   */\n      0x00\n        /* \"#utility.yul\":12052:12058   */\n      dup3\n        /* \"#utility.yul\":12048:12062   */\n      add\n        /* \"#utility.yul\":12041:12079   */\n      mstore\n        /* \"#utility.yul\":11924:12086   */\n      pop\n      jump\t// out\n        /* \"#utility.yul\":12092:12458   */\n    tag_245:\n        /* \"#utility.yul\":12234:12237   */\n      0x00\n        /* \"#utility.yul\":12255:12322   */\n      tag_416\n        /* \"#utility.yul\":12319:12321   */\n      0x0c\n        /* \"#utility.yul\":12314:12317   */\n      dup4\n        /* \"#utility.yul\":12255:12322   */\n      tag_240\n      jump\t// in\n    tag_416:\n        /* \"#utility.yul\":12248:12322   */\n      swap2\n      pop\n        /* \"#utility.yul\":12331:12424   */\n      tag_417\n        /* \"#utility.yul\":12420:12423   */\n      dup3\n        /* \"#utility.yul\":12331:12424   */\n      tag_244\n      jump\t// in\n    tag_417:\n        /* \"#utility.yul\":12449:12451   */\n      0x20\n        /* \"#utility.yul\":12444:12447   */\n      dup3\n        /* \"#utility.yul\":12440:12452   */\n      add\n        /* \"#utility.yul\":12433:12452   */\n      swap1\n      pop\n        /* \"#utility.yul\":12092:12458   */\n      swap2\n      swap1\n      pop\n      jump\t// out\n        /* \"#utility.yul\":12464:12883   */\n    tag_105:\n        /* \"#utility.yul\":12630:12634   */\n      0x00\n        /* \"#utility.yul\":12668:12670   */\n      0x20\n        /* \"#utility.yul\":12657:12666   */\n      dup3\n        /* \"#utility.yul\":12653:12671   */\n      add\n        /* \"#utility.yul\":12645:12671   */\n      swap1\n      pop\n        /* \"#utility.yul\":12717:12726   */\n      dup2\n        /* \"#utility.yul\":12711:12715   */\n      dup2\n        /* \"#utility.yul\":12707:12727   */\n      sub\n        /* \"#utility.yul\":12703:12704   */\n      0x00\n        /* \"#utility.yul\":12692:12701   */\n      dup4\n        /* \"#utility.yul\":12688:12705   */\n      add\n        /* \"#utility.yul\":12681:12728   */\n      mstore\n        /* \"#utility.yul\":12745:12876   */\n      tag_419\n        /* \"#utility.yul\":12871:12875   */\n      dup2\n        /* \"#utility.yul\":12745:12876   */\n      tag_245\n      jump\t// in\n    tag_419:\n        /* \"#utility.yul\":12737:12876   */\n      swap1\n      pop\n        /* \"#utility.yul\":12464:12883   */\n      swap2\n      swap1\n      pop\n      jump\t// out\n        /* \"#utility.yul\":12889:13069   */\n    tag_246:\n        /* \"#utility.yul\":12937:13014   */\n      0x4e487b7100000000000000000000000000000000000000000000000000000000\n        /* \"#utility.yul\":12934:12935   */\n      0x00\n        /* \"#utility.yul\":12927:13015   */\n      mstore\n        /* \"#utility.yul\":13034:13038   */\n      0x22\n        /* \"#utility.yul\":13031:13032   */\n      0x04\n        /* \"#utility.yul\":13024:13039   */\n      mstore\n        /* \"#utility.yul\":13058:13062   */\n      0x24\n        /* \"#utility.yul\":13055:13056   */\n      0x00\n        /* \"#utility.yul\":13048:13063   */\n      revert\n        /* \"#utility.yul\":13075:13395   */\n    tag_119:\n        /* \"#utility.yul\":13119:13125   */\n      0x00\n        /* \"#utility.yul\":13156:13157   */\n      0x02\n        /* \"#utility.yul\":13150:13154   */\n      dup3\n        /* \"#utility.yul\":13146:13158   */\n      div\n        /* \"#utility.yul\":13136:13158   */\n      swap1\n      pop\n        /* \"#utility.yul\":13203:13204   */\n      0x01\n        /* \"#utility.yul\":13197:13201   */\n      dup3\n        /* \"#utility.yul\":13193:13205   */\n      and\n        /* \"#utility.yul\":13224:13242   */\n      dup1\n        /* \"#utility.yul\":13214:13295   */\n      tag_422\n      jumpi\n        /* \"#utility.yul\":13280:13284   */\n      0x7f\n        /* \"#utility.yul\":13272:13278   */\n      dup3\n        /* \"#utility.yul\":13268:13285   */\n      and\n        /* \"#utility.yul\":13258:13285   */\n      swap2\n      pop\n        /* \"#utility.yul\":13214:13295   */\n    tag_422:\n        /* \"#utility.yul\":13342:13344   */\n      0x20\n        /* \"#utility.yul\":13334:13340   */\n      dup3\n        /* \"#utility.yul\":13331:13345   */\n      lt\n        /* \"#utility.yul\":13311:13329   */\n      dup2\n        /* \"#utility.yul\":13308:13346   */\n      sub\n        /* \"#utility.yul\":13305:13389   */\n      tag_423\n      jumpi\n        /* \"#utility.yul\":13361:13379   */\n      tag_424\n      tag_246\n      jump\t// in\n    tag_424:\n        /* \"#utility.yul\":13305:13389   */\n    tag_423:\n        /* \"#utility.yul\":13126:13395   */\n      pop\n        /* \"#utility.yul\":13075:13395   */\n      swap2\n      swap1\n      pop\n      jump\t// out\n        /* \"#utility.yul\":13401:13542   */\n    tag_247:\n        /* \"#utility.yul\":13450:13454   */\n      0x00\n        /* \"#utility.yul\":13473:13476   */\n      dup2\n        /* \"#utility.yul\":13465:13476   */\n      swap1\n      pop\n        /* \"#utility.yul\":13496:13499   */\n      dup2\n        /* \"#utility.yul\":13493:13494   */\n      0x00\n        /* \"#utility.yul\":13486:13500   */\n      mstore\n        /* \"#utility.yul\":13530:13534   */\n      0x20\n        /* \"#utility.yul\":13527:13528   */\n      0x00\n        /* \"#utility.yul\":13517:13535   */\n      keccak256\n        /* \"#utility.yul\":13509:13535   */\n      swap1\n      pop\n        /* \"#utility.yul\":13401:13542   */\n      swap2\n      swap1\n      pop\n      jump\t// out\n        /* \"#utility.yul\":13548:13641   */\n    tag_248:\n        /* \"#utility.yul\":13585:13591   */\n      0x00\n        /* \"#utility.yul\":13632:13634   */\n      0x20\n        /* \"#utility.yul\":13627:13629   */\n      0x1f\n        /* \"#utility.yul\":13620:13625   */\n      dup4\n        /* \"#utility.yul\":13616:13630   */\n      add\n        /* \"#utility.yul\":13612:13635   */\n      div\n        /* \"#utility.yul\":13602:13635   */\n      swap1\n      pop\n        /* \"#utility.yul\":13548:13641   */\n      swap2\n      swap1\n      pop\n      jump\t// out\n        /* \"#utility.yul\":13647:13754   */\n    tag_249:\n        /* \"#utility.yul\":13691:13699   */\n      0x00\n        /* \"#utility.yul\":13741:13746   */\n      dup3\n        /* \"#utility.yul\":13735:13739   */\n      dup3\n        /* \"#utility.yul\":13731:13747   */\n      shl\n        /* \"#utility.yul\":13710:13747   */\n      swap1\n      pop\n        /* \"#utility.yul\":13647:13754   */\n      swap3\n      swap2\n      pop\n      pop\n      jump\t// out\n        /* \"#utility.yul\":13760:14153   */\n    tag_250:\n        /* \"#utility.yul\":13829:13835   */\n      0x00\n        /* \"#utility.yul\":13879:13880   */\n      0x08\n        /* \"#utility.yul\":13867:13877   */\n      dup4\n        /* \"#utility.yul\":13863:13881   */\n      mul\n        /* \"#utility.yul\":13902:13999   */\n      tag_429\n        /* \"#utility.yul\":13932:13998   */\n      0xffffffffffffffffffffffffffffffffffffffffffffffffffffffffffffffff\n        /* \"#utility.yul\":13921:13930   */\n      dup3\n        /* \"#utility.yul\":13902:13999   */\n      tag_249\n      jump\t// in\n    tag_429:\n        /* \"#utility.yul\":14020:14059   */\n      tag_430\n        /* \"#utility.yul\":14050:14058   */\n      dup7\n        /* \"#utility.yul\":14039:14048   */\n      dup4\n        /* \"#utility.yul\":14020:14059   */\n      tag_249\n      jump\t// in\n    tag_430:\n        /* \"#utility.yul\":14008:14059   */\n      swap6\n      pop\n        /* \"#utility.yul\":14092:14096   */\n      dup1\n        /* \"#utility.yul\":14088:14097   */\n      not\n        /* \"#utility.yul\":14081:14086   */\n      dup5\n        /* \"#utility.yul\":14077:14098   */\n      and\n        /* \"#utility.yul\":14068:14098   */\n      swap4\n      pop\n        /* \"#utility.yul\":14141:14145   */\n      dup1\n        /* \"#utility.yul\":14131:14139   */\n      dup7\n        /* \"#utility.yul\":14127:14146   */\n      and\n        /* \"#utility.yul\":14120:14125   */\n      dup5\n        /* \"#utility.yul\":14117:14147   */\n      or\n        /* \"#utility.yul\":14107:14147   */\n      swap3\n      pop\n        /* \"#utility.yul\":13836:14153   */\n      pop\n      pop\n        /* \"#utility.yul\":13760:14153   */\n      swap4\n      swap3\n      pop\n      pop\n      pop\n      jump\t// out\n        /* \"#utility.yul\":14159:14219   */\n    tag_251:\n        /* \"#utility.yul\":14187:14190   */\n      0x00\n        /* \"#utility.yul\":14208:14213   */\n      dup2\n        /* \"#utility.yul\":14201:14213   */\n      swap1\n      pop\n        /* \"#utility.yul\":14159:14219   */\n      swap2\n      swap1\n      pop\n      jump\t// out\n        /* \"#utility.yul\":14225:14367   */\n    tag_252:\n        /* \"#utility.yul\":14275:14284   */\n      0x00\n        /* \"#utility.yul\":14308:14361   */\n      tag_433\n        /* \"#utility.yul\":14326:14360   */\n      tag_434\n        /* \"#utility.yul\":14335:14359   */\n      tag_435\n        /* \"#utility.yul\":14353:14358   */\n      dup5\n        /* \"#utility.yul\":14335:14359   */\n      tag_231\n      jump\t// in\n    tag_435:\n        /* \"#utility.yul\":14326:14360   */\n      tag_251\n      jump\t// in\n    tag_434:\n        /* \"#utility.yul\":14308:14361   */\n      tag_231\n      jump\t// in\n    tag_433:\n        /* \"#utility.yul\":14295:14361   */\n      swap1\n      pop\n        /* \"#utility.yul\":14225:14367   */\n      swap2\n      swap1\n      pop\n      jump\t// out\n        /* \"#utility.yul\":14373:14448   */\n    tag_253:\n        /* \"#utility.yul\":14416:14419   */\n      0x00\n        /* \"#utility.yul\":14437:14442   */\n      dup2\n        /* \"#utility.yul\":14430:14442   */\n      swap1\n      pop\n        /* \"#utility.yul\":14373:14448   */\n      swap2\n      swap1\n      pop\n      jump\t// out\n        /* \"#utility.yul\":14454:14723   */\n    tag_254:\n        /* \"#utility.yul\":14564:14603   */\n      tag_438\n        /* \"#utility.yul\":14595:14602   */\n      dup4\n        /* \"#utility.yul\":14564:14603   */\n      tag_252\n      jump\t// in\n    tag_438:\n        /* \"#utility.yul\":14625:14716   */\n      tag_439\n        /* \"#utility.yul\":14674:14715   */\n      tag_440\n        /* \"#utility.yul\":14698:14714   */\n      dup3\n        /* \"#utility.yul\":14674:14715   */\n      tag_253\n      jump\t// in\n    tag_440:\n        /* \"#utility.yul\":14666:14672   */\n      dup5\n        /* \"#utility.yul\":14659:14663   */\n      dup5\n        /* \"#utility.yul\":14653:14664   */\n      sload\n        /* \"#utility.yul\":14625:14716   */\n      tag_250\n      jump\t// in\n    tag_439:\n        /* \"#utility.yul\":14619:14623   */\n      dup3\n        /* \"#utility.yul\":14612:14717   */\n      sstore\n        /* \"#utility.yul\":14530:14723   */\n      pop\n        /* \"#utility.yul\":14454:14723   */\n      pop\n      pop\n      pop\n      jump\t// out\n        /* \"#utility.yul\":14729:14802   */\n    tag_255:\n        /* \"#utility.yul\":14774:14777   */\n      0x00\n        /* \"#utility.yul\":14729:14802   */\n      swap1\n      jump\t// out\n        /* \"#utility.yul\":14808:14997   */\n    tag_256:\n        /* \"#utility.yul\":14885:14917   */\n      tag_443\n      tag_255\n      jump\t// in\n    tag_443:\n        /* \"#utility.yul\":14926:14991   */\n      tag_444\n        /* \"#utility.yul\":14984:14990   */\n      dup2\n        /* \"#utility.yul\":14976:14982   */\n      dup5\n        /* \"#utility.yul\":14970:14974   */\n      dup5\n        /* \"#utility.yul\":14926:14991   */\n      tag_254\n      jump\t// in\n    tag_444:\n        /* \"#utility.yul\":14861:14997   */\n      pop\n        /* \"#utility.yul\":14808:14997   */\n      pop\n      pop\n      jump\t// out\n        /* \"#utility.yul\":15003:15189   */\n    tag_257:\n        /* \"#utility.yul\":15063:15183   */\n    tag_446:\n        /* \"#utility.yul\":15080:15083   */\n      dup2\n        /* \"#utility.yul\":15073:15078   */\n      dup2\n        /* \"#utility.yul\":15070:15084   */\n      lt\n        /* \"#utility.yul\":15063:15183   */\n      iszero\n      tag_448\n      jumpi\n        /* \"#utility.yul\":15134:15173   */\n      tag_449\n        /* \"#utility.yul\":15171:15172   */\n      0x00\n        /* \"#utility.yul\":15164:15169   */\n      dup3\n        /* \"#utility.yul\":15134:15173   */\n      tag_256\n      jump\t// in\n    tag_449:\n        /* \"#utility.yul\":15107:15108   */\n      0x01\n        /* \"#utility.yul\":15100:15105   */\n      dup2\n        /* \"#utility.yul\":15096:15109   */\n      add\n        /* \"#utility.yul\":15087:15109   */\n      swap1\n      pop\n        /* \"#utility.yul\":15063:15183   */\n      jump(tag_446)\n    tag_448:\n        /* \"#utility.yul\":15003:15189   */\n      pop\n      pop\n      jump\t// out\n        /* \"#utility.yul\":15195:15738   */\n    tag_258:\n        /* \"#utility.yul\":15296:15298   */\n      0x1f\n        /* \"#utility.yul\":15291:15294   */\n      dup3\n        /* \"#utility.yul\":15288:15299   */\n      gt\n        /* \"#utility.yul\":15285:15731   */\n      iszero\n      tag_451\n      jumpi\n        /* \"#utility.yul\":15330:15368   */\n      tag_452\n        /* \"#utility.yul\":15362:15367   */\n      dup2\n        /* \"#utility.yul\":15330:15368   */\n      tag_247\n      jump\t// in\n    tag_452:\n        /* \"#utility.yul\":15414:15443   */\n      tag_453\n        /* \"#utility.yul\":15432:15442   */\n      dup5\n        /* \"#utility.yul\":15414:15443   */\n      tag_248\n      jump\t// in\n    tag_453:\n        /* \"#utility.yul\":15404:15412   */\n      dup2\n        /* \"#utility.yul\":15400:15444   */\n      add\n        /* \"#utility.yul\":15597:15599   */\n      0x20\n        /* \"#utility.yul\":15585:15595   */\n      dup6\n        /* \"#utility.yul\":15582:15600   */\n      lt\n        /* \"#utility.yul\":15579:15628   */\n      iszero\n      tag_454\n      jumpi\n        /* \"#utility.yul\":15618:15626   */\n      dup2\n        /* \"#utility.yul\":15603:15626   */\n      swap1\n      pop\n        /* \"#utility.yul\":15579:15628   */\n    tag_454:\n        /* \"#utility.yul\":15641:15721   */\n      tag_455\n        /* \"#utility.yul\":15697:15719   */\n      tag_456\n        /* \"#utility.yul\":15715:15718   */\n      dup6\n        /* \"#utility.yul\":15697:15719   */\n      tag_248\n      jump\t// in\n    tag_456:\n        /* \"#utility.yul\":15687:15695   */\n      dup4\n        /* \"#utility.yul\":15683:15720   */\n      add\n        /* \"#utility.yul\":15670:15681   */\n      dup3\n        /* \"#utility.yul\":15641:15721   */\n      tag_257\n      jump\t// in\n    tag_455:\n        /* \"#utility.yul\":15300:15731   */\n      pop\n      pop\n        /* \"#utility.yul\":15285:15731   */\n    tag_451:\n        /* \"#utility.yul\":15195:15738   */\n      pop\n      pop\n      pop\n      jump\t// out\n        /* \"#utility.yul\":15744:15861   */\n    tag_259:\n        /* \"#utility.yul\":15798:15806   */\n      0x00\n        /* \"#utility.yul\":15848:15853   */\n      dup3\n        /* \"#utility.yul\":15842:15846   */\n      dup3\n        /* \"#utility.yul\":15838:15854   */\n      shr\n        /* \"#utility.yul\":15817:15854   */\n      swap1\n      pop\n        /* \"#utility.yul\":15744:15861   */\n      swap3\n      swap2\n      pop\n      pop\n      jump\t// out\n        /* \"#utility.yul\":15867:16036   */\n    tag_260:\n        /* \"#utility.yul\":15911:15917   */\n      0x00\n        /* \"#utility.yul\":15944:15995   */\n      tag_459\n        /* \"#utility.yul\":15992:15993   */\n      0x00\n        /* \"#utility.yul\":15988:15994   */\n      not\n        /* \"#utility.yul\":15980:15985   */\n      dup5\n        /* \"#utility.yul\":15977:15978   */\n      0x08\n        /* \"#utility.yul\":15973:15986   */\n      mul\n        /* \"#utility.yul\":15944:15995   */\n      tag_259\n      jump\t// in\n    tag_459:\n        /* \"#utility.yul\":15940:15996   */\n      not\n        /* \"#utility.yul\":16025:16029   */\n      dup1\n        /* \"#utility.yul\":16019:16023   */\n      dup4\n        /* \"#utility.yul\":16015:16030   */\n      and\n        /* \"#utility.yul\":16005:16030   */\n      swap2\n      pop\n        /* \"#utility.yul\":15918:16036   */\n      pop\n        /* \"#utility.yul\":15867:16036   */\n      swap3\n      swap2\n      pop\n      pop\n      jump\t// out\n        /* \"#utility.yul\":16041:16336   */\n    tag_261:\n        /* \"#utility.yul\":16117:16121   */\n      0x00\n        /* \"#utility.yul\":16263:16292   */\n      tag_461\n        /* \"#utility.yul\":16288:16291   */\n      dup4\n        /* \"#utility.yul\":16282:16286   */\n      dup4\n        /* \"#utility.yul\":16263:16292   */\n      tag_260\n      jump\t// in\n    tag_461:\n        /* \"#utility.yul\":16255:16292   */\n      swap2\n      pop\n        /* \"#utility.yul\":16325:16328   */\n      dup3\n        /* \"#utility.yul\":16322:16323   */\n      0x02\n        /* \"#utility.yul\":16318:16329   */\n      mul\n        /* \"#utility.yul\":16312:16316   */\n      dup3\n        /* \"#utility.yul\":16309:16330   */\n      or\n        /* \"#utility.yul\":16301:16330   */\n      swap1\n      pop\n        /* \"#utility.yul\":16041:16336   */\n      swap3\n      swap2\n      pop\n      pop\n      jump\t// out\n        /* \"#utility.yul\":16341:17736   */\n    tag_107:\n        /* \"#utility.yul\":16458:16495   */\n      tag_463\n        /* \"#utility.yul\":16491:16494   */\n      dup3\n        /* \"#utility.yul\":16458:16495   */\n      tag_239\n      jump\t// in\n    tag_463:\n        /* \"#utility.yul\":16560:16578   */\n      0xffffffffffffffff\n        /* \"#utility.yul\":16552:16558   */\n      dup2\n        /* \"#utility.yul\":16549:16579   */\n      gt\n        /* \"#utility.yul\":16546:16602   */\n      iszero\n      tag_464\n      jumpi\n        /* \"#utility.yul\":16582:16600   */\n      tag_465\n      tag_220\n      jump\t// in\n    tag_465:\n        /* \"#utility.yul\":16546:16602   */\n    tag_464:\n        /* \"#utility.yul\":16626:16664   */\n      tag_466\n        /* \"#utility.yul\":16658:16662   */\n      dup3\n        /* \"#utility.yul\":16652:16663   */\n      sload\n        /* \"#utility.yul\":16626:16664   */\n      tag_119\n      jump\t// in\n    tag_466:\n        /* \"#utility.yul\":16711:16778   */\n      tag_467\n        /* \"#utility.yul\":16771:16777   */\n      dup3\n        /* \"#utility.yul\":16763:16769   */\n      dup3\n        /* \"#utility.yul\":16757:16761   */\n      dup6\n        /* \"#utility.yul\":16711:16778   */\n      tag_258\n      jump\t// in\n    tag_467:\n        /* \"#utility.yul\":16805:16806   */\n      0x00\n        /* \"#utility.yul\":16829:16833   */\n      0x20\n        /* \"#utility.yul\":16816:16833   */\n      swap1\n      pop\n        /* \"#utility.yul\":16861:16863   */\n      0x1f\n        /* \"#utility.yul\":16853:16859   */\n      dup4\n        /* \"#utility.yul\":16850:16864   */\n      gt\n        /* \"#utility.yul\":16878:16879   */\n      0x01\n        /* \"#utility.yul\":16873:17491   */\n      dup2\n      eq\n      tag_469\n      jumpi\n        /* \"#utility.yul\":17535:17536   */\n      0x00\n        /* \"#utility.yul\":17552:17558   */\n      dup5\n        /* \"#utility.yul\":17549:17626   */\n      iszero\n      tag_470\n      jumpi\n        /* \"#utility.yul\":17601:17610   */\n      dup3\n        /* \"#utility.yul\":17596:17599   */\n      dup8\n        /* \"#utility.yul\":17592:17611   */\n      add\n        /* \"#utility.yul\":17586:17612   */\n      mload\n        /* \"#utility.yul\":17577:17612   */\n      swap1\n      pop\n        /* \"#utility.yul\":17549:17626   */\n    tag_470:\n        /* \"#utility.yul\":17652:17719   */\n      tag_471\n        /* \"#utility.yul\":17712:17718   */\n      dup6\n        /* \"#utility.yul\":17705:17710   */\n      dup3\n        /* \"#utility.yul\":17652:17719   */\n      tag_261\n      jump\t// in\n    tag_471:\n        /* \"#utility.yul\":17646:17650   */\n      dup7\n        /* \"#utility.yul\":17639:17720   */\n      sstore\n        /* \"#utility.yul\":17508:17730   */\n      pop\n        /* \"#utility.yul\":16843:17730   */\n      jump(tag_468)\n        /* \"#utility.yul\":16873:17491   */\n    tag_469:\n        /* \"#utility.yul\":16925:16929   */\n      0x1f\n        /* \"#utility.yul\":16921:16930   */\n      not\n        /* \"#utility.yul\":16913:16919   */\n      dup5\n        /* \"#utility.yul\":16909:16931   */\n      and\n        /* \"#utility.yul\":16959:16996   */\n      tag_472\n        /* \"#utility.yul\":16991:16995   */\n      dup7\n        /* \"#utility.yul\":16959:16996   */\n      tag_247\n      jump\t// in\n    tag_472:\n        /* \"#utility.yul\":17018:17019   */\n      0x00\n        /* \"#utility.yul\":17032:17240   */\n    tag_473:\n        /* \"#utility.yul\":17046:17053   */\n      dup3\n        /* \"#utility.yul\":17043:17044   */\n      dup2\n        /* \"#utility.yul\":17040:17054   */\n      lt\n        /* \"#utility.yul\":17032:17240   */\n      iszero\n      tag_475\n      jumpi\n        /* \"#utility.yul\":17125:17134   */\n      dup5\n        /* \"#utility.yul\":17120:17123   */\n      dup10\n        /* \"#utility.yul\":17116:17135   */\n      add\n        /* \"#utility.yul\":17110:17136   */\n      mload\n        /* \"#utility.yul\":17102:17108   */\n      dup3\n        /* \"#utility.yul\":17095:17137   */\n      sstore\n        /* \"#utility.yul\":17176:17177   */\n      0x01\n        /* \"#utility.yul\":17168:17174   */\n      dup3\n        /* \"#utility.yul\":17164:17178   */\n      add\n        /* \"#utility.yul\":17154:17178   */\n      swap2\n      pop\n        /* \"#utility.yul\":17223:17225   */\n      0x20\n        /* \"#utility.yul\":17212:17221   */\n      dup6\n        /* \"#utility.yul\":17208:17226   */\n      add\n        /* \"#utility.yul\":17195:17226   */\n      swap5\n      pop\n        /* \"#utility.yul\":17069:17073   */\n      0x20\n        /* \"#utility.yul\":17066:17067   */\n      dup2\n        /* \"#utility.yul\":17062:17074   */\n      add\n        /* \"#utility.yul\":17057:17074   */\n      swap1\n      pop\n        /* \"#utility.yul\":17032:17240   */\n      jump(tag_473)\n    tag_475:\n        /* \"#utility.yul\":17268:17274   */\n      dup7\n        /* \"#utility.yul\":17259:17266   */\n      dup4\n        /* \"#utility.yul\":17256:17275   */\n      lt\n        /* \"#utility.yul\":17253:17432   */\n      iszero\n      tag_476\n      jumpi\n        /* \"#utility.yul\":17326:17335   */\n      dup5\n        /* \"#utility.yul\":17321:17324   */\n      dup10\n        /* \"#utility.yul\":17317:17336   */\n      add\n        /* \"#utility.yul\":17311:17337   */\n      mload\n        /* \"#utility.yul\":17369:17417   */\n      tag_477\n        /* \"#utility.yul\":17411:17415   */\n      0x1f\n        /* \"#utility.yul\":17403:17409   */\n      dup10\n        /* \"#utility.yul\":17399:17416   */\n      and\n        /* \"#utility.yul\":17388:17397   */\n      dup3\n        /* \"#utility.yul\":17369:17417   */\n      tag_260\n      jump\t// in\n    tag_477:\n        /* \"#utility.yul\":17361:17367   */\n      dup4\n        /* \"#utility.yul\":17354:17418   */\n      sstore\n        /* \"#utility.yul\":17276:17432   */\n      pop\n        /* \"#utility.yul\":17253:17432   */\n    tag_476:\n        /* \"#utility.yul\":17478:17479   */\n      0x01\n        /* \"#utility.yul\":17474:17475   */\n      0x02\n        /* \"#utility.yul\":17466:17472   */\n      dup9\n        /* \"#utility.yul\":17462:17476   */\n      mul\n        /* \"#utility.yul\":17458:17480   */\n      add\n        /* \"#utility.yul\":17452:17456   */\n      dup9\n        /* \"#utility.yul\":17445:17481   */\n      sstore\n        /* \"#utility.yul\":16880:17491   */\n      pop\n      pop\n      pop\n        /* \"#utility.yul\":16843:17730   */\n    tag_468:\n      pop\n        /* \"#utility.yul\":16433:17736   */\n      pop\n      pop\n      pop\n        /* \"#utility.yul\":16341:17736   */\n      pop\n      pop\n      jump\t// out\n        /* \"#utility.yul\":17742:17922   */\n    tag_262:\n        /* \"#utility.yul\":17790:17867   */\n      0x4e487b7100000000000000000000000000000000000000000000000000000000\n        /* \"#utility.yul\":17787:17788   */\n      0x00\n        /* \"#utility.yul\":17780:17868   */\n      mstore\n        /* \"#utility.yul\":17887:17891   */\n      0x11\n        /* \"#utility.yul\":17884:17885   */\n      0x04\n        /* \"#utility.yul\":17877:17892   */\n      mstore\n        /* \"#utility.yul\":17911:17915   */\n      0x24\n        /* \"#utility.yul\":17908:17909   */\n      0x00\n        /* \"#utility.yul\":17901:17916   */\n      revert\n        /* \"#utility.yul\":17928:18119   */\n    tag_110:\n        /* \"#utility.yul\":17968:17971   */\n      0x00\n        /* \"#utility.yul\":17987:18007   */\n      tag_480\n        /* \"#utility.yul\":18005:18006   */\n      dup3\n        /* \"#utility.yul\":17987:18007   */\n      tag_231\n      jump\t// in\n    tag_480:\n        /* \"#utility.yul\":17982:18007   */\n      swap2\n      pop\n        /* \"#utility.yul\":18021:18041   */\n      tag_481\n        /* \"#utility.yul\":18039:18040   */\n      dup4\n        /* \"#utility.yul\":18021:18041   */\n      tag_231\n      jump\t// in\n    tag_481:\n        /* \"#utility.yul\":18016:18041   */\n      swap3\n      pop\n        /* \"#utility.yul\":18064:18065   */\n      dup3\n        /* \"#utility.yul\":18061:18062   */\n      dup3\n        /* \"#utility.yul\":18057:18066   */\n      add\n        /* \"#utility.yul\":18050:18066   */\n      swap1\n      pop\n        /* \"#utility.yul\":18085:18088   */\n      dup1\n        /* \"#utility.yul\":18082:18083   */\n      dup3\n        /* \"#utility.yul\":18079:18089   */\n      gt\n        /* \"#utility.yul\":18076:18112   */\n      iszero\n      tag_482\n      jumpi\n        /* \"#utility.yul\":18092:18110   */\n      tag_483\n      tag_262\n      jump\t// in\n    tag_483:\n        /* \"#utility.yul\":18076:18112   */\n    tag_482:\n        /* \"#utility.yul\":17928:18119   */\n      swap3\n      swap2\n      pop\n      pop\n      jump\t// out\n        /* \"#utility.yul\":18125:18293   */\n    tag_263:\n        /* \"#utility.yul\":18265:18285   */\n      0x4e4f5420412056414c49442043414c4c45520000000000000000000000000000\n        /* \"#utility.yul\":18261:18262   */\n      0x00\n        /* \"#utility.yul\":18253:18259   */\n      dup3\n        /* \"#utility.yul\":18249:18263   */\n      add\n        /* \"#utility.yul\":18242:18286   */\n      mstore\n        /* \"#utility.yul\":18125:18293   */\n      pop\n      jump\t// out\n        /* \"#utility.yul\":18299:18665   */\n    tag_264:\n        /* \"#utility.yul\":18441:18444   */\n      0x00\n        /* \"#utility.yul\":18462:18529   */\n      tag_486\n        /* \"#utility.yul\":18526:18528   */\n      0x12\n        /* \"#utility.yul\":18521:18524   */\n      dup4\n        /* \"#utility.yul\":18462:18529   */\n      tag_240\n      jump\t// in\n    tag_486:\n        /* \"#utility.yul\":18455:18529   */\n      swap2\n      pop\n        /* \"#utility.yul\":18538:18631   */\n      tag_487\n        /* \"#utility.yul\":18627:18630   */\n      dup3\n        /* \"#utility.yul\":18538:18631   */\n      tag_263\n      jump\t// in\n    tag_487:\n        /* \"#utility.yul\":18656:18658   */\n      0x20\n        /* \"#utility.yul\":18651:18654   */\n      dup3\n        /* \"#utility.yul\":18647:18659   */\n      add\n        /* \"#utility.yul\":18640:18659   */\n      swap1\n      pop\n        /* \"#utility.yul\":18299:18665   */\n      swap2\n      swap1\n      pop\n      jump\t// out\n        /* \"#utility.yul\":18671:19090   */\n    tag_115:\n        /* \"#utility.yul\":18837:18841   */\n      0x00\n        /* \"#utility.yul\":18875:18877   */\n      0x20\n        /* \"#utility.yul\":18864:18873   */\n      dup3\n        /* \"#utility.yul\":18860:18878   */\n      add\n        /* \"#utility.yul\":18852:18878   */\n      swap1\n      pop\n        /* \"#utility.yul\":18924:18933   */\n      dup2\n        /* \"#utility.yul\":18918:18922   */\n      dup2\n        /* \"#utility.yul\":18914:18934   */\n      sub\n        /* \"#utility.yul\":18910:18911   */\n      0x00\n        /* \"#utility.yul\":18899:18908   */\n      dup4\n        /* \"#utility.yul\":18895:18912   */\n      add\n        /* \"#utility.yul\":18888:18935   */\n      mstore\n        /* \"#utility.yul\":18952:19083   */\n      tag_489\n        /* \"#utility.yul\":19078:19082   */\n      dup2\n        /* \"#utility.yul\":18952:19083   */\n      tag_264\n      jump\t// in\n    tag_489:\n        /* \"#utility.yul\":18944:19083   */\n      swap1\n      pop\n        /* \"#utility.yul\":18671:19090   */\n      swap2\n      swap1\n      pop\n      jump\t// out\n        /* \"#utility.yul\":19096:19271   */\n    tag_265:\n        /* \"#utility.yul\":19236:19263   */\n      0x564f54494e4720504552494f442048415320454c415053454400000000000000\n        /* \"#utility.yul\":19232:19233   */\n      0x00\n        /* \"#utility.yul\":19224:19230   */\n      dup3\n        /* \"#utility.yul\":19220:19234   */\n      add\n        /* \"#utility.yul\":19213:19264   */\n      mstore\n        /* \"#utility.yul\":19096:19271   */\n      pop\n      jump\t// out\n        /* \"#utility.yul\":19277:19643   */\n    tag_266:\n        /* \"#utility.yul\":19419:19422   */\n      0x00\n        /* \"#utility.yul\":19440:19507   */\n      tag_492\n        /* \"#utility.yul\":19504:19506   */\n      0x19\n        /* \"#utility.yul\":19499:19502   */\n      dup4\n        /* \"#utility.yul\":19440:19507   */\n      tag_240\n      jump\t// in\n    tag_492:\n        /* \"#utility.yul\":19433:19507   */\n      swap2\n      pop\n        /* \"#utility.yul\":19516:19609   */\n      tag_493\n        /* \"#utility.yul\":19605:19608   */\n      dup3\n        /* \"#utility.yul\":19516:19609   */\n      tag_265\n      jump\t// in\n    tag_493:\n        /* \"#utility.yul\":19634:19636   */\n      0x20\n        /* \"#utility.yul\":19629:19632   */\n      dup3\n        /* \"#utility.yul\":19625:19637   */\n      add\n        /* \"#utility.yul\":19618:19637   */\n      swap1\n      pop\n        /* \"#utility.yul\":19277:19643   */\n      swap2\n      swap1\n      pop\n      jump\t// out\n        /* \"#utility.yul\":19649:20068   */\n    tag_134:\n        /* \"#utility.yul\":19815:19819   */\n      0x00\n        /* \"#utility.yul\":19853:19855   */\n      0x20\n        /* \"#utility.yul\":19842:19851   */\n      dup3\n        /* \"#utility.yul\":19838:19856   */\n      add\n        /* \"#utility.yul\":19830:19856   */\n      swap1\n      pop\n        /* \"#utility.yul\":19902:19911   */\n      dup2\n        /* \"#utility.yul\":19896:19900   */\n      dup2\n        /* \"#utility.yul\":19892:19912   */\n      sub\n        /* \"#utility.yul\":19888:19889   */\n      0x00\n        /* \"#utility.yul\":19877:19886   */\n      dup4\n        /* \"#utility.yul\":19873:19890   */\n      add\n        /* \"#utility.yul\":19866:19913   */\n      mstore\n        /* \"#utility.yul\":19930:20061   */\n      tag_495\n        /* \"#utility.yul\":20056:20060   */\n      dup2\n        /* \"#utility.yul\":19930:20061   */\n      tag_266\n      jump\t// in\n    tag_495:\n        /* \"#utility.yul\":19922:20061   */\n      swap1\n      pop\n        /* \"#utility.yul\":19649:20068   */\n      swap2\n      swap1\n      pop\n      jump\t// out\n        /* \"#utility.yul\":20074:20217   */\n    tag_267:\n        /* \"#utility.yul\":20131:20136   */\n      0x00\n        /* \"#utility.yul\":20162:20168   */\n      dup2\n        /* \"#utility.yul\":20156:20169   */\n      mload\n        /* \"#utility.yul\":20147:20169   */\n      swap1\n      pop\n        /* \"#utility.yul\":20178:20211   */\n      tag_497\n        /* \"#utility.yul\":20205:20210   */\n      dup2\n        /* \"#utility.yul\":20178:20211   */\n      tag_232\n      jump\t// in\n    tag_497:\n        /* \"#utility.yul\":20074:20217   */\n      swap3\n      swap2\n      pop\n      pop\n      jump\t// out\n        /* \"#utility.yul\":20223:20574   */\n    tag_139:\n        /* \"#utility.yul\":20293:20299   */\n      0x00\n        /* \"#utility.yul\":20342:20344   */\n      0x20\n        /* \"#utility.yul\":20330:20339   */\n      dup3\n        /* \"#utility.yul\":20321:20328   */\n      dup5\n        /* \"#utility.yul\":20317:20340   */\n      sub\n        /* \"#utility.yul\":20313:20345   */\n      slt\n        /* \"#utility.yul\":20310:20429   */\n      iszero\n      tag_499\n      jumpi\n        /* \"#utility.yul\":20348:20427   */\n      tag_500\n      tag_215\n      jump\t// in\n    tag_500:\n        /* \"#utility.yul\":20310:20429   */\n    tag_499:\n        /* \"#utility.yul\":20468:20469   */\n      0x00\n        /* \"#utility.yul\":20493:20557   */\n      tag_501\n        /* \"#utility.yul\":20549:20556   */\n      dup5\n        /* \"#utility.yul\":20540:20546   */\n      dup3\n        /* \"#utility.yul\":20529:20538   */\n      dup6\n        /* \"#utility.yul\":20525:20547   */\n      add\n        /* \"#utility.yul\":20493:20557   */\n      tag_267\n      jump\t// in\n    tag_501:\n        /* \"#utility.yul\":20483:20557   */\n      swap2\n      pop\n        /* \"#utility.yul\":20439:20567   */\n      pop\n        /* \"#utility.yul\":20223:20574   */\n      swap3\n      swap2\n      pop\n      pop\n      jump\t// out\n        /* \"#utility.yul\":20580:20813   */\n    tag_268:\n        /* \"#utility.yul\":20720:20754   */\n      0x594f55204d55535420504f5353455320544f4b454e7320544f20424520414e20\n        /* \"#utility.yul\":20716:20717   */\n      0x00\n        /* \"#utility.yul\":20708:20714   */\n      dup3\n        /* \"#utility.yul\":20704:20718   */\n      add\n        /* \"#utility.yul\":20697:20755   */\n      mstore\n        /* \"#utility.yul\":20789:20805   */\n      0x454c494749424c4520564f544552000000000000000000000000000000000000\n        /* \"#utility.yul\":20784:20786   */\n      0x20\n        /* \"#utility.yul\":20776:20782   */\n      dup3\n        /* \"#utility.yul\":20772:20787   */\n      add\n        /* \"#utility.yul\":20765:20806   */\n      mstore\n        /* \"#utility.yul\":20580:20813   */\n      pop\n      jump\t// out\n        /* \"#utility.yul\":20819:21185   */\n    tag_269:\n        /* \"#utility.yul\":20961:20964   */\n      0x00\n        /* \"#utility.yul\":20982:21049   */\n      tag_504\n        /* \"#utility.yul\":21046:21048   */\n      0x2e\n        /* \"#utility.yul\":21041:21044   */\n      dup4\n        /* \"#utility.yul\":20982:21049   */\n      tag_240\n      jump\t// in\n    tag_504:\n        /* \"#utility.yul\":20975:21049   */\n      swap2\n      pop\n        /* \"#utility.yul\":21058:21151   */\n      tag_505\n        /* \"#utility.yul\":21147:21150   */\n      dup3\n        /* \"#utility.yul\":21058:21151   */\n      tag_268\n      jump\t// in\n    tag_505:\n        /* \"#utility.yul\":21176:21178   */\n      0x40\n        /* \"#utility.yul\":21171:21174   */\n      dup3\n        /* \"#utility.yul\":21167:21179   */\n      add\n        /* \"#utility.yul\":21160:21179   */\n      swap1\n      pop\n        /* \"#utility.yul\":20819:21185   */\n      swap2\n      swap1\n      pop\n      jump\t// out\n        /* \"#utility.yul\":21191:21610   */\n    tag_142:\n        /* \"#utility.yul\":21357:21361   */\n      0x00\n        /* \"#utility.yul\":21395:21397   */\n      0x20\n        /* \"#utility.yul\":21384:21393   */\n      dup3\n        /* \"#utility.yul\":21380:21398   */\n      add\n        /* \"#utility.yul\":21372:21398   */\n      swap1\n      pop\n        /* \"#utility.yul\":21444:21453   */\n      dup2\n        /* \"#utility.yul\":21438:21442   */\n      dup2\n        /* \"#utility.yul\":21434:21454   */\n      sub\n        /* \"#utility.yul\":21430:21431   */\n      0x00\n        /* \"#utility.yul\":21419:21428   */\n      dup4\n        /* \"#utility.yul\":21415:21432   */\n      add\n        /* \"#utility.yul\":21408:21455   */\n      mstore\n        /* \"#utility.yul\":21472:21603   */\n      tag_507\n        /* \"#utility.yul\":21598:21602   */\n      dup2\n        /* \"#utility.yul\":21472:21603   */\n      tag_269\n      jump\t// in\n    tag_507:\n        /* \"#utility.yul\":21464:21603   */\n      swap1\n      pop\n        /* \"#utility.yul\":21191:21610   */\n      swap2\n      swap1\n      pop\n      jump\t// out\n        /* \"#utility.yul\":21616:21841   */\n    tag_270:\n        /* \"#utility.yul\":21756:21790   */\n      0x4d454d424552532043414e204f4e4c592043415354204120564f544520504552\n        /* \"#utility.yul\":21752:21753   */\n      0x00\n        /* \"#utility.yul\":21744:21750   */\n      dup3\n        /* \"#utility.yul\":21740:21754   */\n      add\n        /* \"#utility.yul\":21733:21791   */\n      mstore\n        /* \"#utility.yul\":21825:21833   */\n      0x20544f5049430000000000000000000000000000000000000000000000000000\n        /* \"#utility.yul\":21820:21822   */\n      0x20\n        /* \"#utility.yul\":21812:21818   */\n      dup3\n        /* \"#utility.yul\":21808:21823   */\n      add\n        /* \"#utility.yul\":21801:21834   */\n      mstore\n        /* \"#utility.yul\":21616:21841   */\n      pop\n      jump\t// out\n        /* \"#utility.yul\":21847:22213   */\n    tag_271:\n        /* \"#utility.yul\":21989:21992   */\n      0x00\n        /* \"#utility.yul\":22010:22077   */\n      tag_510\n        /* \"#utility.yul\":22074:22076   */\n      0x26\n        /* \"#utility.yul\":22069:22072   */\n      dup4\n        /* \"#utility.yul\":22010:22077   */\n      tag_240\n      jump\t// in\n    tag_510:\n        /* \"#utility.yul\":22003:22077   */\n      swap2\n      pop\n        /* \"#utility.yul\":22086:22179   */\n      tag_511\n        /* \"#utility.yul\":22175:22178   */\n      dup3\n        /* \"#utility.yul\":22086:22179   */\n      tag_270\n      jump\t// in\n    tag_511:\n        /* \"#utility.yul\":22204:22206   */\n      0x40\n        /* \"#utility.yul\":22199:22202   */\n      dup3\n        /* \"#utility.yul\":22195:22207   */\n      add\n        /* \"#utility.yul\":22188:22207   */\n      swap1\n      pop\n        /* \"#utility.yul\":21847:22213   */\n      swap2\n      swap1\n      pop\n      jump\t// out\n        /* \"#utility.yul\":22219:22638   */\n    tag_145:\n        /* \"#utility.yul\":22385:22389   */\n      0x00\n        /* \"#utility.yul\":22423:22425   */\n      0x20\n        /* \"#utility.yul\":22412:22421   */\n      dup3\n        /* \"#utility.yul\":22408:22426   */\n      add\n        /* \"#utility.yul\":22400:22426   */\n      swap1\n      pop\n        /* \"#utility.yul\":22472:22481   */\n      dup2\n        /* \"#utility.yul\":22466:22470   */\n      dup2\n        /* \"#utility.yul\":22462:22482   */\n      sub\n        /* \"#utility.yul\":22458:22459   */\n      0x00\n        /* \"#utility.yul\":22447:22456   */\n      dup4\n        /* \"#utility.yul\":22443:22460   */\n      add\n        /* \"#utility.yul\":22436:22483   */\n      mstore\n        /* \"#utility.yul\":22500:22631   */\n      tag_513\n        /* \"#utility.yul\":22626:22630   */\n      dup2\n        /* \"#utility.yul\":22500:22631   */\n      tag_271\n      jump\t// in\n    tag_513:\n        /* \"#utility.yul\":22492:22631   */\n      swap1\n      pop\n        /* \"#utility.yul\":22219:22638   */\n      swap2\n      swap1\n      pop\n      jump\t// out\n        /* \"#utility.yul\":22644:22964   */\n    tag_151:\n        /* \"#utility.yul\":22759:22763   */\n      0x00\n        /* \"#utility.yul\":22797:22799   */\n      0x40\n        /* \"#utility.yul\":22786:22795   */\n      dup3\n        /* \"#utility.yul\":22782:22800   */\n      add\n        /* \"#utility.yul\":22774:22800   */\n      swap1\n      pop\n        /* \"#utility.yul\":22810:22881   */\n      tag_515\n        /* \"#utility.yul\":22878:22879   */\n      0x00\n        /* \"#utility.yul\":22867:22876   */\n      dup4\n        /* \"#utility.yul\":22863:22880   */\n      add\n        /* \"#utility.yul\":22854:22860   */\n      dup6\n        /* \"#utility.yul\":22810:22881   */\n      tag_237\n      jump\t// in\n    tag_515:\n        /* \"#utility.yul\":22891:22957   */\n      tag_516\n        /* \"#utility.yul\":22953:22955   */\n      0x20\n        /* \"#utility.yul\":22942:22951   */\n      dup4\n        /* \"#utility.yul\":22938:22956   */\n      add\n        /* \"#utility.yul\":22929:22935   */\n      dup5\n        /* \"#utility.yul\":22891:22957   */\n      tag_238\n      jump\t// in\n    tag_516:\n        /* \"#utility.yul\":22644:22964   */\n      swap4\n      swap3\n      pop\n      pop\n      pop\n      jump\t// out\n        /* \"#utility.yul\":22970:23142   */\n    tag_272:\n        /* \"#utility.yul\":23110:23134   */\n      0x5448524553484f4c44204e4f5420455843454544454400000000000000000000\n        /* \"#utility.yul\":23106:23107   */\n      0x00\n        /* \"#utility.yul\":23098:23104   */\n      dup3\n        /* \"#utility.yul\":23094:23108   */\n      add\n        /* \"#utility.yul\":23087:23135   */\n      mstore\n        /* \"#utility.yul\":22970:23142   */\n      pop\n      jump\t// out\n        /* \"#utility.yul\":23148:23514   */\n    tag_273:\n        /* \"#utility.yul\":23290:23293   */\n      0x00\n        /* \"#utility.yul\":23311:23378   */\n      tag_519\n        /* \"#utility.yul\":23375:23377   */\n      0x16\n        /* \"#utility.yul\":23370:23373   */\n      dup4\n        /* \"#utility.yul\":23311:23378   */\n      tag_240\n      jump\t// in\n    tag_519:\n        /* \"#utility.yul\":23304:23378   */\n      swap2\n      pop\n        /* \"#utility.yul\":23387:23480   */\n      tag_520\n        /* \"#utility.yul\":23476:23479   */\n      dup3\n        /* \"#utility.yul\":23387:23480   */\n      tag_272\n      jump\t// in\n    tag_520:\n        /* \"#utility.yul\":23505:23507   */\n      0x20\n        /* \"#utility.yul\":23500:23503   */\n      dup3\n        /* \"#utility.yul\":23496:23508   */\n      add\n        /* \"#utility.yul\":23489:23508   */\n      swap1\n      pop\n        /* \"#utility.yul\":23148:23514   */\n      swap2\n      swap1\n      pop\n      jump\t// out\n        /* \"#utility.yul\":23520:23939   */\n    tag_188:\n        /* \"#utility.yul\":23686:23690   */\n      0x00\n        /* \"#utility.yul\":23724:23726   */\n      0x20\n        /* \"#utility.yul\":23713:23722   */\n      dup3\n        /* \"#utility.yul\":23709:23727   */\n      add\n        /* \"#utility.yul\":23701:23727   */\n      swap1\n      pop\n        /* \"#utility.yul\":23773:23782   */\n      dup2\n        /* \"#utility.yul\":23767:23771   */\n      dup2\n        /* \"#utility.yul\":23763:23783   */\n      sub\n        /* \"#utility.yul\":23759:23760   */\n      0x00\n        /* \"#utility.yul\":23748:23757   */\n      dup4\n        /* \"#utility.yul\":23744:23761   */\n      add\n        /* \"#utility.yul\":23737:23784   */\n      mstore\n        /* \"#utility.yul\":23801:23932   */\n      tag_522\n        /* \"#utility.yul\":23927:23931   */\n      dup2\n        /* \"#utility.yul\":23801:23932   */\n      tag_273\n      jump\t// in\n    tag_522:\n        /* \"#utility.yul\":23793:23932   */\n      swap1\n      pop\n        /* \"#utility.yul\":23520:23939   */\n      swap2\n      swap1\n      pop\n      jump\t// out\n        /* \"#utility.yul\":23945:24093   */\n    tag_274:\n        /* \"#utility.yul\":24047:24058   */\n      0x00\n        /* \"#utility.yul\":24084:24087   */\n      dup2\n        /* \"#utility.yul\":24069:24087   */\n      swap1\n      pop\n        /* \"#utility.yul\":23945:24093   */\n      swap3\n      swap2\n      pop\n      pop\n      jump\t// out\n        /* \"#utility.yul\":24099:24489   */\n    tag_275:\n        /* \"#utility.yul\":24205:24208   */\n      0x00\n        /* \"#utility.yul\":24233:24272   */\n      tag_525\n        /* \"#utility.yul\":24266:24271   */\n      dup3\n        /* \"#utility.yul\":24233:24272   */\n      tag_239\n      jump\t// in\n    tag_525:\n        /* \"#utility.yul\":24288:24377   */\n      tag_526\n        /* \"#utility.yul\":24370:24376   */\n      dup2\n        /* \"#utility.yul\":24365:24368   */\n      dup6\n        /* \"#utility.yul\":24288:24377   */\n      tag_274\n      jump\t// in\n    tag_526:\n        /* \"#utility.yul\":24281:24377   */\n      swap4\n      pop\n        /* \"#utility.yul\":24386:24451   */\n      tag_527\n        /* \"#utility.yul\":24444:24450   */\n      dup2\n        /* \"#utility.yul\":24439:24442   */\n      dup6\n        /* \"#utility.yul\":24432:24436   */\n      0x20\n        /* \"#utility.yul\":24425:24430   */\n      dup7\n        /* \"#utility.yul\":24421:24437   */\n      add\n        /* \"#utility.yul\":24386:24451   */\n      tag_241\n      jump\t// in\n    tag_527:\n        /* \"#utility.yul\":24476:24482   */\n      dup1\n        /* \"#utility.yul\":24471:24474   */\n      dup5\n        /* \"#utility.yul\":24467:24483   */\n      add\n        /* \"#utility.yul\":24460:24483   */\n      swap2\n      pop\n        /* \"#utility.yul\":24209:24489   */\n      pop\n        /* \"#utility.yul\":24099:24489   */\n      swap3\n      swap2\n      pop\n      pop\n      jump\t// out\n        /* \"#utility.yul\":24495:24770   */\n    tag_191:\n        /* \"#utility.yul\":24627:24630   */\n      0x00\n        /* \"#utility.yul\":24649:24744   */\n      tag_529\n        /* \"#utility.yul\":24740:24743   */\n      dup3\n        /* \"#utility.yul\":24731:24737   */\n      dup5\n        /* \"#utility.yul\":24649:24744   */\n      tag_275\n      jump\t// in\n    tag_529:\n        /* \"#utility.yul\":24642:24744   */\n      swap2\n      pop\n        /* \"#utility.yul\":24761:24764   */\n      dup2\n        /* \"#utility.yul\":24754:24764   */\n      swap1\n      pop\n        /* \"#utility.yul\":24495:24770   */\n      swap3\n      swap2\n      pop\n      pop\n      jump\t// out\n        /* \"#utility.yul\":24776:24874   */\n    tag_276:\n        /* \"#utility.yul\":24827:24833   */\n      0x00\n        /* \"#utility.yul\":24861:24866   */\n      dup2\n        /* \"#utility.yul\":24855:24867   */\n      mload\n        /* \"#utility.yul\":24845:24867   */\n      swap1\n      pop\n        /* \"#utility.yul\":24776:24874   */\n      swap2\n      swap1\n      pop\n      jump\t// out\n        /* \"#utility.yul\":24880:25027   */\n    tag_277:\n        /* \"#utility.yul\":24981:24992   */\n      0x00\n        /* \"#utility.yul\":25018:25021   */\n      dup2\n        /* \"#utility.yul\":25003:25021   */\n      swap1\n      pop\n        /* \"#utility.yul\":24880:25027   */\n      swap3\n      swap2\n      pop\n      pop\n      jump\t// out\n        /* \"#utility.yul\":25033:25419   */\n    tag_278:\n        /* \"#utility.yul\":25137:25140   */\n      0x00\n        /* \"#utility.yul\":25165:25203   */\n      tag_533\n        /* \"#utility.yul\":25197:25202   */\n      dup3\n        /* \"#utility.yul\":25165:25203   */\n      tag_276\n      jump\t// in\n    tag_533:\n        /* \"#utility.yul\":25219:25307   */\n      tag_534\n        /* \"#utility.yul\":25300:25306   */\n      dup2\n        /* \"#utility.yul\":25295:25298   */\n      dup6\n        /* \"#utility.yul\":25219:25307   */\n      tag_277\n      jump\t// in\n    tag_534:\n        /* \"#utility.yul\":25212:25307   */\n      swap4\n      pop\n        /* \"#utility.yul\":25316:25381   */\n      tag_535\n        /* \"#utility.yul\":25374:25380   */\n      dup2\n        /* \"#utility.yul\":25369:25372   */\n      dup6\n        /* \"#utility.yul\":25362:25366   */\n      0x20\n        /* \"#utility.yul\":25355:25360   */\n      dup7\n        /* \"#utility.yul\":25351:25367   */\n      add\n        /* \"#utility.yul\":25316:25381   */\n      tag_241\n      jump\t// in\n    tag_535:\n        /* \"#utility.yul\":25406:25412   */\n      dup1\n        /* \"#utility.yul\":25401:25404   */\n      dup5\n        /* \"#utility.yul\":25397:25413   */\n      add\n        /* \"#utility.yul\":25390:25413   */\n      swap2\n      pop\n        /* \"#utility.yul\":25141:25419   */\n      pop\n        /* \"#utility.yul\":25033:25419   */\n      swap3\n      swap2\n      pop\n      pop\n      jump\t// out\n        /* \"#utility.yul\":25425:25696   */\n    tag_193:\n        /* \"#utility.yul\":25555:25558   */\n      0x00\n        /* \"#utility.yul\":25577:25670   */\n      tag_537\n        /* \"#utility.yul\":25666:25669   */\n      dup3\n        /* \"#utility.yul\":25657:25663   */\n      dup5\n        /* \"#utility.yul\":25577:25670   */\n      tag_278\n      jump\t// in\n    tag_537:\n        /* \"#utility.yul\":25570:25670   */\n      swap2\n      pop\n        /* \"#utility.yul\":25687:25690   */\n      dup2\n        /* \"#utility.yul\":25680:25690   */\n      swap1\n      pop\n        /* \"#utility.yul\":25425:25696   */\n      swap3\n      swap2\n      pop\n      pop\n      jump\t// out\n        /* \"#utility.yul\":25702:25871   */\n    tag_279:\n        /* \"#utility.yul\":25842:25863   */\n      0x4641494c454420544f20494d504c454d454e5400000000000000000000000000\n        /* \"#utility.yul\":25838:25839   */\n      0x00\n        /* \"#utility.yul\":25830:25836   */\n      dup3\n        /* \"#utility.yul\":25826:25840   */\n      add\n        /* \"#utility.yul\":25819:25864   */\n      mstore\n        /* \"#utility.yul\":25702:25871   */\n      pop\n      jump\t// out\n        /* \"#utility.yul\":25877:26243   */\n    tag_280:\n        /* \"#utility.yul\":26019:26022   */\n      0x00\n        /* \"#utility.yul\":26040:26107   */\n      tag_540\n        /* \"#utility.yul\":26104:26106   */\n      0x13\n        /* \"#utility.yul\":26099:26102   */\n      dup4\n        /* \"#utility.yul\":26040:26107   */\n      tag_240\n      jump\t// in\n    tag_540:\n        /* \"#utility.yul\":26033:26107   */\n      swap2\n      pop\n        /* \"#utility.yul\":26116:26209   */\n      tag_541\n        /* \"#utility.yul\":26205:26208   */\n      dup3\n        /* \"#utility.yul\":26116:26209   */\n      tag_279\n      jump\t// in\n    tag_541:\n        /* \"#utility.yul\":26234:26236   */\n      0x20\n        /* \"#utility.yul\":26229:26232   */\n      dup3\n        /* \"#utility.yul\":26225:26237   */\n      add\n        /* \"#utility.yul\":26218:26237   */\n      swap1\n      pop\n        /* \"#utility.yul\":25877:26243   */\n      swap2\n      swap1\n      pop\n      jump\t// out\n        /* \"#utility.yul\":26249:26668   */\n    tag_199:\n        /* \"#utility.yul\":26415:26419   */\n      0x00\n        /* \"#utility.yul\":26453:26455   */\n      0x20\n        /* \"#utility.yul\":26442:26451   */\n      dup3\n        /* \"#utility.yul\":26438:26456   */\n      add\n        /* \"#utility.yul\":26430:26456   */\n      swap1\n      pop\n        /* \"#utility.yul\":26502:26511   */\n      dup2\n        /* \"#utility.yul\":26496:26500   */\n      dup2\n        /* \"#utility.yul\":26492:26512   */\n      sub\n        /* \"#utility.yul\":26488:26489   */\n      0x00\n        /* \"#utility.yul\":26477:26486   */\n      dup4\n        /* \"#utility.yul\":26473:26490   */\n      add\n        /* \"#utility.yul\":26466:26513   */\n      mstore\n        /* \"#utility.yul\":26530:26661   */\n      tag_543\n        /* \"#utility.yul\":26656:26660   */\n      dup2\n        /* \"#utility.yul\":26530:26661   */\n      tag_280\n      jump\t// in\n    tag_543:\n        /* \"#utility.yul\":26522:26661   */\n      swap1\n      pop\n        /* \"#utility.yul\":26249:26668   */\n      swap2\n      swap1\n      pop\n      jump\t// out\n        /* \"#utility.yul\":26674:26854   */\n    tag_212:\n        /* \"#utility.yul\":26722:26799   */\n      0x4e487b7100000000000000000000000000000000000000000000000000000000\n        /* \"#utility.yul\":26719:26720   */\n      0x00\n        /* \"#utility.yul\":26712:26800   */\n      mstore\n        /* \"#utility.yul\":26819:26823   */\n      0x12\n        /* \"#utility.yul\":26816:26817   */\n      0x04\n        /* \"#utility.yul\":26809:26824   */\n      mstore\n        /* \"#utility.yul\":26843:26847   */\n      0x24\n        /* \"#utility.yul\":26840:26841   */\n      0x00\n        /* \"#utility.yul\":26833:26848   */\n      revert\n\n    auxdata: 0xa26469706673582212204ff62c21529664dea45d6b34e1413b931d43d563d46f696231b2a0b6f0f200b364736f6c63430008160033\n}\n",
				"bytecode": {
					"linkReferences": {},
					"object": "6080604052620697805f5562015180600155600160085534801562000022575f80fd5b506040516200273238038062002732833981810160405281019062000048919062000149565b8060025f6101000a81548173ffffffffffffffffffffffffffffffffffffffff021916908373ffffffffffffffffffffffffffffffffffffffff160217905550600160045f3373ffffffffffffffffffffffffffffffffffffffff1673ffffffffffffffffffffffffffffffffffffffff1681526020019081526020015f205f6101000a81548160ff0219169083151502179055505062000179565b5f80fd5b5f73ffffffffffffffffffffffffffffffffffffffff82169050919050565b5f6200011382620000e8565b9050919050565b620001258162000107565b811462000130575f80fd5b50565b5f8151905062000143816200011a565b92915050565b5f60208284031215620001615762000160620000e4565b5b5f620001708482850162000133565b91505092915050565b6125ab80620001875f395ff3fe6080604052600436106100f2575f3560e01c80635df8133011610089578063a060acfa11610058578063a060acfa14610327578063a0a67c5814610343578063f2c298be1461036d578063fd0f016614610395576100f2565b80635df813301461026c57806361bc221a146102a957806367358c96146102d35780636cb76408146102fd576100f2565b806337852d99116100c557806337852d991461019857806347411226146101ae57806354b598ec146101ea5780635bb6d28414610228576100f2565b80630befdc15146100f657806313af40351461011e5780631c8dd214146101465780633153cebc1461016e575b5f80fd5b348015610101575f80fd5b5061011c600480360381019061011791906119ae565b6103d2565b005b348015610129575f80fd5b50610144600480360381019061013f9190611a4a565b61066b565b005b348015610151575f80fd5b5061016c60048036038101906101679190611aaa565b61074c565b005b348015610179575f80fd5b50610182610dcc565b60405161018f9190611af7565b60405180910390f35b3480156101a3575f80fd5b506101ac610dd1565b005b3480156101b9575f80fd5b506101d460048036038101906101cf9190611b10565b610e5c565b6040516101e19190611b5d565b60405180910390f35b3480156101f5575f80fd5b50610210600480360381019061020b9190611b76565b610e91565b60405161021f93929190611bb4565b60405180910390f35b348015610233575f80fd5b5061024e60048036038101906102499190611be9565b610edb565b60405161026399989796959493929190611c9d565b60405180910390f35b348015610277575f80fd5b50610292600480360381019061028d9190611be9565b611088565b6040516102a0929190611d36565b60405180910390f35b3480156102b4575f80fd5b506102bd6110a8565b6040516102ca9190611af7565b60405180910390f35b3480156102de575f80fd5b506102e76110ae565b6040516102f49190611af7565b60405180910390f35b348015610308575f80fd5b506103116110b4565b60405161031e9190611af7565b60405180910390f35b610341600480360381019061033c9190611be9565b6110ba565b005b34801561034e575f80fd5b506103576114fb565b6040516103649190611d5d565b60405180910390f35b348015610378575f80fd5b50610393600480360381019061038e9190611d76565b611520565b005b3480156103a0575f80fd5b506103bb60048036038101906103b69190611a4a565b6115ae565b6040516103c9929190611dbd565b60405180910390f35b60055f3373ffffffffffffffffffffffffffffffffffffffff1673ffffffffffffffffffffffffffffffffffffffff1681526020019081526020015f206001015f9054906101000a900460ff1661045e576040517f08c379a000000000000000000000000000000000000000000000000000000000815260040161045590611e35565b60405180910390fd5b5f60405180610120016040528060085481526020018681526020013373ffffffffffffffffffffffffffffffffffffffff1681526020018573ffffffffffffffffffffffffffffffffffffffff1681526020018481526020018381526020014281526020015f151581526020015f151581525090508060095f835f015181526020019081526020015f205f820151815f01556020820151816001019081610505919061204d565b506040820151816002015f6101000a81548173ffffffffffffffffffffffffffffffffffffffff021916908373ffffffffffffffffffffffffffffffffffffffff1602179055506060820151816003015f6101000a81548173ffffffffffffffffffffffffffffffffffffffff021916908373ffffffffffffffffffffffffffffffffffffffff1602179055506080820151816004015560a08201518160050190816105b1919061204d565b5060c0820151816006015560e0820151816007015f6101000a81548160ff0219169083151502179055506101008201518160070160016101000a81548160ff021916908315150217905550905050600160085461060e9190612149565b6008819055503373ffffffffffffffffffffffffffffffffffffffff167f7e25f8742b0359507d9119310ec6e12a3e4201d358df6b156dd313a3db8d126560085460405161065c9190611af7565b60405180910390a25050505050565b60045f3373ffffffffffffffffffffffffffffffffffffffff1673ffffffffffffffffffffffffffffffffffffffff1681526020019081526020015f205f9054906101000a900460ff166106f4576040517f08c379a00000000000000000000000000000000000000000000000000000000081526004016106eb906121c6565b60405180910390fd5b600160045f8373ffffffffffffffffffffffffffffffffffffffff1673ffffffffffffffffffffffffffffffffffffffff1681526020019081526020015f205f6101000a81548160ff02191690831515021790555050565b5f60095f8481526020019081526020015f20604051806101200160405290815f820154815260200160018201805461078390611e80565b80601f01602080910402602001604051908101604052809291908181526020018280546107af90611e80565b80156107fa5780601f106107d1576101008083540402835291602001916107fa565b820191905f5260205f20905b8154815290600101906020018083116107dd57829003601f168201915b50505050508152602001600282015f9054906101000a900473ffffffffffffffffffffffffffffffffffffffff1673ffffffffffffffffffffffffffffffffffffffff1673ffffffffffffffffffffffffffffffffffffffff168152602001600382015f9054906101000a900473ffffffffffffffffffffffffffffffffffffffff1673ffffffffffffffffffffffffffffffffffffffff1673ffffffffffffffffffffffffffffffffffffffff168152602001600482015481526020016005820180546108c790611e80565b80601f01602080910402602001604051908101604052809291908181526020018280546108f390611e80565b801561093e5780601f106109155761010080835404028352916020019161093e565b820191905f5260205f20905b81548152906001019060200180831161092157829003601f168201915b5050505050815260200160068201548152602001600782015f9054906101000a900460ff161515151581526020016007820160019054906101000a900460ff16151515158152505090505f60025f9054906101000a900473ffffffffffffffffffffffffffffffffffffffff16905060055f3373ffffffffffffffffffffffffffffffffffffffff1673ffffffffffffffffffffffffffffffffffffffff1681526020019081526020015f206001015f9054906101000a900460ff16610a39576040517f08c379a0000000000000000000000000000000000000000000000000000000008152600401610a3090611e35565b60405180910390fd5b5f8260c001515f54610a4b9190612149565b9050428111610a8f576040517f08c379a0000000000000000000000000000000000000000000000000000000008152600401610a869061222e565b60405180910390fd5b5f8273ffffffffffffffffffffffffffffffffffffffff166370a08231336040518263ffffffff1660e01b8152600401610ac99190611d5d565b602060405180830381865afa158015610ae4573d5f803e3d5ffd5b505050506040513d601f19601f82011682018060405250810190610b089190612260565b11610b48576040517f08c379a0000000000000000000000000000000000000000000000000000000008152600401610b3f906122fb565b60405180910390fd5b60065f3373ffffffffffffffffffffffffffffffffffffffff1673ffffffffffffffffffffffffffffffffffffffff1681526020019081526020015f205f8681526020019081526020015f2060010160019054906101000a900460ff1615610be5576040517f08c379a0000000000000000000000000000000000000000000000000000000008152600401610bdc90612389565b60405180910390fd5b604051806060016040528086815260200185151581526020016001151581525060065f3373ffffffffffffffffffffffffffffffffffffffff1673ffffffffffffffffffffffffffffffffffffffff1681526020019081526020015f205f8781526020019081526020015f205f820151815f01556020820151816001015f6101000a81548160ff02191690831515021790555060408201518160010160016101000a81548160ff02191690831515021790555090505060065f3373ffffffffffffffffffffffffffffffffffffffff1673ffffffffffffffffffffffffffffffffffffffff1681526020019081526020015f205f8681526020019081526020015f206001015f9054906101000a900460ff1615610d3857600160075f8781526020019081526020015f205f0154610d1c9190612149565b60075f8781526020019081526020015f205f0181905550610d72565b600160075f8781526020019081526020015f2060010154610d599190612149565b60075f8781526020019081526020015f20600101819055505b3373ffffffffffffffffffffffffffffffffffffffff167f4f7ff1c79e536d7fef60ccb53beb6009e08841ffcba10e515e076f4cbdd9e320845f015186604051610dbd9291906123a7565b60405180910390a25050505050565b5f5481565b60045f3373ffffffffffffffffffffffffffffffffffffffff1673ffffffffffffffffffffffffffffffffffffffff1681526020019081526020015f205f9054906101000a900460ff16610e5a576040517f08c379a0000000000000000000000000000000000000000000000000000000008152600401610e51906121c6565b60405180910390fd5b565b5f80610e75603c6064856116609092919063ffffffff16565b905080841015610e85575f610e88565b60015b91505092915050565b6006602052815f5260405f20602052805f5260405f205f9150915050805f015490806001015f9054906101000a900460ff16908060010160019054906101000a900460ff16905083565b6009602052805f5260405f205f91509050805f015490806001018054610f0090611e80565b80601f0160208091040260200160405190810160405280929190818152602001828054610f2c90611e80565b8015610f775780601f10610f4e57610100808354040283529160200191610f77565b820191905f5260205f20905b815481529060010190602001808311610f5a57829003601f168201915b505050505090806002015f9054906101000a900473ffffffffffffffffffffffffffffffffffffffff1690806003015f9054906101000a900473ffffffffffffffffffffffffffffffffffffffff1690806004015490806005018054610fdc90611e80565b80601f016020809104026020016040519081016040528092919081815260200182805461100890611e80565b80156110535780601f1061102a57610100808354040283529160200191611053565b820191905f5260205f20905b81548152906001019060200180831161103657829003601f168201915b505050505090806006015490806007015f9054906101000a900460ff16908060070160019054906101000a900460ff16905089565b6007602052805f5260405f205f91509050805f0154908060010154905082565b60085481565b60015481565b60035481565b6110c261175f565b5f80606060095f8681526020019081526020015f20604051806101200160405290815f82015481526020016001820180546110fc90611e80565b80601f016020809104026020016040519081016040528092919081815260200182805461112890611e80565b80156111735780601f1061114a57610100808354040283529160200191611173565b820191905f5260205f20905b81548152906001019060200180831161115657829003601f168201915b50505050508152602001600282015f9054906101000a900473ffffffffffffffffffffffffffffffffffffffff1673ffffffffffffffffffffffffffffffffffffffff1673ffffffffffffffffffffffffffffffffffffffff168152602001600382015f9054906101000a900473ffffffffffffffffffffffffffffffffffffffff1673ffffffffffffffffffffffffffffffffffffffff1673ffffffffffffffffffffffffffffffffffffffff1681526020016004820154815260200160058201805461124090611e80565b80601f016020809104026020016040519081016040528092919081815260200182805461126c90611e80565b80156112b75780601f1061128e576101008083540402835291602001916112b7565b820191905f5260205f20905b81548152906001019060200180831161129a57829003601f168201915b5050505050815260200160068201548152602001600782015f9054906101000a900460ff161515151581526020016007820160019054906101000a900460ff161515151581525050935083606001519250836080015191508360a0015190505f60075f8781526020019081526020015f206001015460075f8881526020019081526020015f205f015461134a9190612149565b905061136960075f8881526020019081526020015f205f015482610e5c565b6113a8576040517f08c379a000000000000000000000000000000000000000000000000000000000815260040161139f90612418565b60405180910390fd5b5f808573ffffffffffffffffffffffffffffffffffffffff163485876040516024016113d49190611af7565b604051602081830303815290604052906040516113f19190612470565b60405180910390207bffffffffffffffffffffffffffffffffffffffffffffffffffffffff19166020820180517bffffffffffffffffffffffffffffffffffffffffffffffffffffffff838183161783525050505060405161145391906124ca565b5f6040518083038185875af1925050503d805f811461148d576040519150601f19603f3d011682016040523d82523d5f602084013e611492565b606091505b5091509150816114d7576040517f08c379a00000000000000000000000000000000000000000000000000000000081526004016114ce9061252a565b60405180910390fd5b808060200190518101906114eb9190612260565b6003819055505050505050505050565b60025f9054906101000a900473ffffffffffffffffffffffffffffffffffffffff1681565b60405180604001604052808281526020016001151581525060055f3373ffffffffffffffffffffffffffffffffffffffff1673ffffffffffffffffffffffffffffffffffffffff1681526020019081526020015f205f820151815f019081611588919061204d565b506020820151816001015f6101000a81548160ff02191690831515021790555090505050565b6005602052805f5260405f205f91509050805f0180546115cd90611e80565b80601f01602080910402602001604051908101604052809291908181526020018280546115f990611e80565b80156116445780601f1061161b57610100808354040283529160200191611644565b820191905f5260205f20905b81548152906001019060200180831161162757829003601f168201915b505050505090806001015f9054906101000a900460ff16905082565b5f8083850290505f8019858709828110838203039150505f81036116985783828161168e5761168d612548565b5b0492505050611758565b8084116116d1576040517f227bc15300000000000000000000000000000000000000000000000000000000815260040160405180910390fd5b5f8486880990508281118203915080830392505f855f038616905080860495508084049350600181825f0304019050808302841793505f600287600302189050808702600203810290508087026002038102905080870260020381029050808702600203810290508087026002038102905080870260020381029050808502955050505050505b9392505050565b6040518061012001604052805f8152602001606081526020015f73ffffffffffffffffffffffffffffffffffffffff1681526020015f73ffffffffffffffffffffffffffffffffffffffff1681526020015f8152602001606081526020015f81526020015f151581526020015f151581525090565b5f604051905090565b5f80fd5b5f80fd5b5f80fd5b5f80fd5b5f601f19601f8301169050919050565b7f4e487b71000000000000000000000000000000000000000000000000000000005f52604160045260245ffd5b611833826117ed565b810181811067ffffffffffffffff82111715611852576118516117fd565b5b80604052505050565b5f6118646117d4565b9050611870828261182a565b919050565b5f67ffffffffffffffff82111561188f5761188e6117fd565b5b611898826117ed565b9050602081019050919050565b828183375f83830152505050565b5f6118c56118c084611875565b61185b565b9050828152602081018484840111156118e1576118e06117e9565b5b6118ec8482856118a5565b509392505050565b5f82601f830112611908576119076117e5565b5b81356119188482602086016118b3565b91505092915050565b5f73ffffffffffffffffffffffffffffffffffffffff82169050919050565b5f61194a82611921565b9050919050565b61195a81611940565b8114611964575f80fd5b50565b5f8135905061197581611951565b92915050565b5f819050919050565b61198d8161197b565b8114611997575f80fd5b50565b5f813590506119a881611984565b92915050565b5f805f80608085870312156119c6576119c56117dd565b5b5f85013567ffffffffffffffff8111156119e3576119e26117e1565b5b6119ef878288016118f4565b9450506020611a0087828801611967565b9350506040611a118782880161199a565b925050606085013567ffffffffffffffff811115611a3257611a316117e1565b5b611a3e878288016118f4565b91505092959194509250565b5f60208284031215611a5f57611a5e6117dd565b5b5f611a6c84828501611967565b91505092915050565b5f8115159050919050565b611a8981611a75565b8114611a93575f80fd5b50565b5f81359050611aa481611a80565b92915050565b5f8060408385031215611ac057611abf6117dd565b5b5f611acd8582860161199a565b9250506020611ade85828601611a96565b9150509250929050565b611af18161197b565b82525050565b5f602082019050611b0a5f830184611ae8565b92915050565b5f8060408385031215611b2657611b256117dd565b5b5f611b338582860161199a565b9250506020611b448582860161199a565b9150509250929050565b611b5781611a75565b82525050565b5f602082019050611b705f830184611b4e565b92915050565b5f8060408385031215611b8c57611b8b6117dd565b5b5f611b9985828601611967565b9250506020611baa8582860161199a565b9150509250929050565b5f606082019050611bc75f830186611ae8565b611bd46020830185611b4e565b611be16040830184611b4e565b949350505050565b5f60208284031215611bfe57611bfd6117dd565b5b5f611c0b8482850161199a565b91505092915050565b5f81519050919050565b5f82825260208201905092915050565b5f5b83811015611c4b578082015181840152602081019050611c30565b5f8484015250505050565b5f611c6082611c14565b611c6a8185611c1e565b9350611c7a818560208601611c2e565b611c83816117ed565b840191505092915050565b611c9781611940565b82525050565b5f61012082019050611cb15f83018c611ae8565b8181036020830152611cc3818b611c56565b9050611cd2604083018a611c8e565b611cdf6060830189611c8e565b611cec6080830188611ae8565b81810360a0830152611cfe8187611c56565b9050611d0d60c0830186611ae8565b611d1a60e0830185611b4e565b611d28610100830184611b4e565b9a9950505050505050505050565b5f604082019050611d495f830185611ae8565b611d566020830184611ae8565b9392505050565b5f602082019050611d705f830184611c8e565b92915050565b5f60208284031215611d8b57611d8a6117dd565b5b5f82013567ffffffffffffffff811115611da857611da76117e1565b5b611db4848285016118f4565b91505092915050565b5f6040820190508181035f830152611dd58185611c56565b9050611de46020830184611b4e565b9392505050565b7f4e4f542041204d454d42455200000000000000000000000000000000000000005f82015250565b5f611e1f600c83611c1e565b9150611e2a82611deb565b602082019050919050565b5f6020820190508181035f830152611e4c81611e13565b9050919050565b7f4e487b71000000000000000000000000000000000000000000000000000000005f52602260045260245ffd5b5f6002820490506001821680611e9757607f821691505b602082108103611eaa57611ea9611e53565b5b50919050565b5f819050815f5260205f209050919050565b5f6020601f8301049050919050565b5f82821b905092915050565b5f60088302611f0c7fffffffffffffffffffffffffffffffffffffffffffffffffffffffffffffffff82611ed1565b611f168683611ed1565b95508019841693508086168417925050509392505050565b5f819050919050565b5f611f51611f4c611f478461197b565b611f2e565b61197b565b9050919050565b5f819050919050565b611f6a83611f37565b611f7e611f7682611f58565b848454611edd565b825550505050565b5f90565b611f92611f86565b611f9d818484611f61565b505050565b5b81811015611fc057611fb55f82611f8a565b600181019050611fa3565b5050565b601f82111561200557611fd681611eb0565b611fdf84611ec2565b81016020851015611fee578190505b612002611ffa85611ec2565b830182611fa2565b50505b505050565b5f82821c905092915050565b5f6120255f198460080261200a565b1980831691505092915050565b5f61203d8383612016565b9150826002028217905092915050565b61205682611c14565b67ffffffffffffffff81111561206f5761206e6117fd565b5b6120798254611e80565b612084828285611fc4565b5f60209050601f8311600181146120b5575f84156120a3578287015190505b6120ad8582612032565b865550612114565b601f1984166120c386611eb0565b5f5b828110156120ea578489015182556001820191506020850194506020810190506120c5565b868310156121075784890151612103601f891682612016565b8355505b6001600288020188555050505b505050505050565b7f4e487b71000000000000000000000000000000000000000000000000000000005f52601160045260245ffd5b5f6121538261197b565b915061215e8361197b565b92508282019050808211156121765761217561211c565b5b92915050565b7f4e4f5420412056414c49442043414c4c455200000000000000000000000000005f82015250565b5f6121b0601283611c1e565b91506121bb8261217c565b602082019050919050565b5f6020820190508181035f8301526121dd816121a4565b9050919050565b7f564f54494e4720504552494f442048415320454c4150534544000000000000005f82015250565b5f612218601983611c1e565b9150612223826121e4565b602082019050919050565b5f6020820190508181035f8301526122458161220c565b9050919050565b5f8151905061225a81611984565b92915050565b5f60208284031215612275576122746117dd565b5b5f6122828482850161224c565b91505092915050565b7f594f55204d55535420504f5353455320544f4b454e7320544f20424520414e205f8201527f454c494749424c4520564f544552000000000000000000000000000000000000602082015250565b5f6122e5602e83611c1e565b91506122f08261228b565b604082019050919050565b5f6020820190508181035f830152612312816122d9565b9050919050565b7f4d454d424552532043414e204f4e4c592043415354204120564f5445205045525f8201527f20544f5049430000000000000000000000000000000000000000000000000000602082015250565b5f612373602683611c1e565b915061237e82612319565b604082019050919050565b5f6020820190508181035f8301526123a081612367565b9050919050565b5f6040820190506123ba5f830185611ae8565b6123c76020830184611b4e565b9392505050565b7f5448524553484f4c44204e4f54204558434545444544000000000000000000005f82015250565b5f612402601683611c1e565b915061240d826123ce565b602082019050919050565b5f6020820190508181035f83015261242f816123f6565b9050919050565b5f81905092915050565b5f61244a82611c14565b6124548185612436565b9350612464818560208601611c2e565b80840191505092915050565b5f61247b8284612440565b915081905092915050565b5f81519050919050565b5f81905092915050565b5f6124a482612486565b6124ae8185612490565b93506124be818560208601611c2e565b80840191505092915050565b5f6124d5828461249a565b915081905092915050565b7f4641494c454420544f20494d504c454d454e54000000000000000000000000005f82015250565b5f612514601383611c1e565b915061251f826124e0565b602082019050919050565b5f6020820190508181035f83015261254181612508565b9050919050565b7f4e487b71000000000000000000000000000000000000000000000000000000005f52601260045260245ffdfea26469706673582212204ff62c21529664dea45d6b34e1413b931d43d563d46f696231b2a0b6f0f200b364736f6c63430008160033",
					"opcodes": "PUSH1 0x80 PUSH1 0x40 MSTORE PUSH3 0x69780 PUSH0 SSTORE PUSH3 0x15180 PUSH1 0x1 SSTORE PUSH1 0x1 PUSH1 0x8 SSTORE CALLVALUE DUP1 ISZERO PUSH3 0x22 JUMPI PUSH0 DUP1 REVERT JUMPDEST POP PUSH1 0x40 MLOAD PUSH3 0x2732 CODESIZE SUB DUP1 PUSH3 0x2732 DUP4 CODECOPY DUP2 DUP2 ADD PUSH1 0x40 MSTORE DUP2 ADD SWAP1 PUSH3 0x48 SWAP2 SWAP1 PUSH3 0x149 JUMP JUMPDEST DUP1 PUSH1 0x2 PUSH0 PUSH2 0x100 EXP DUP2 SLOAD DUP2 PUSH20 0xFFFFFFFFFFFFFFFFFFFFFFFFFFFFFFFFFFFFFFFF MUL NOT AND SWAP1 DUP4 PUSH20 0xFFFFFFFFFFFFFFFFFFFFFFFFFFFFFFFFFFFFFFFF AND MUL OR SWAP1 SSTORE POP PUSH1 0x1 PUSH1 0x4 PUSH0 CALLER PUSH20 0xFFFFFFFFFFFFFFFFFFFFFFFFFFFFFFFFFFFFFFFF AND PUSH20 0xFFFFFFFFFFFFFFFFFFFFFFFFFFFFFFFFFFFFFFFF AND DUP2 MSTORE PUSH1 0x20 ADD SWAP1 DUP2 MSTORE PUSH1 0x20 ADD PUSH0 KECCAK256 PUSH0 PUSH2 0x100 EXP DUP2 SLOAD DUP2 PUSH1 0xFF MUL NOT AND SWAP1 DUP4 ISZERO ISZERO MUL OR SWAP1 SSTORE POP POP PUSH3 0x179 JUMP JUMPDEST PUSH0 DUP1 REVERT JUMPDEST PUSH0 PUSH20 0xFFFFFFFFFFFFFFFFFFFFFFFFFFFFFFFFFFFFFFFF DUP3 AND SWAP1 POP SWAP2 SWAP1 POP JUMP JUMPDEST PUSH0 PUSH3 0x113 DUP3 PUSH3 0xE8 JUMP JUMPDEST SWAP1 POP SWAP2 SWAP1 POP JUMP JUMPDEST PUSH3 0x125 DUP2 PUSH3 0x107 JUMP JUMPDEST DUP2 EQ PUSH3 0x130 JUMPI PUSH0 DUP1 REVERT JUMPDEST POP JUMP JUMPDEST PUSH0 DUP2 MLOAD SWAP1 POP PUSH3 0x143 DUP2 PUSH3 0x11A JUMP JUMPDEST SWAP3 SWAP2 POP POP JUMP JUMPDEST PUSH0 PUSH1 0x20 DUP3 DUP5 SUB SLT ISZERO PUSH3 0x161 JUMPI PUSH3 0x160 PUSH3 0xE4 JUMP JUMPDEST JUMPDEST PUSH0 PUSH3 0x170 DUP5 DUP3 DUP6 ADD PUSH3 0x133 JUMP JUMPDEST SWAP2 POP POP SWAP3 SWAP2 POP POP JUMP JUMPDEST PUSH2 0x25AB DUP1 PUSH3 0x187 PUSH0 CODECOPY PUSH0 RETURN INVALID PUSH1 0x80 PUSH1 0x40 MSTORE PUSH1 0x4 CALLDATASIZE LT PUSH2 0xF2 JUMPI PUSH0 CALLDATALOAD PUSH1 0xE0 SHR DUP1 PUSH4 0x5DF81330 GT PUSH2 0x89 JUMPI DUP1 PUSH4 0xA060ACFA GT PUSH2 0x58 JUMPI DUP1 PUSH4 0xA060ACFA EQ PUSH2 0x327 JUMPI DUP1 PUSH4 0xA0A67C58 EQ PUSH2 0x343 JUMPI DUP1 PUSH4 0xF2C298BE EQ PUSH2 0x36D JUMPI DUP1 PUSH4 0xFD0F0166 EQ PUSH2 0x395 JUMPI PUSH2 0xF2 JUMP JUMPDEST DUP1 PUSH4 0x5DF81330 EQ PUSH2 0x26C JUMPI DUP1 PUSH4 0x61BC221A EQ PUSH2 0x2A9 JUMPI DUP1 PUSH4 0x67358C96 EQ PUSH2 0x2D3 JUMPI DUP1 PUSH4 0x6CB76408 EQ PUSH2 0x2FD JUMPI PUSH2 0xF2 JUMP JUMPDEST DUP1 PUSH4 0x37852D99 GT PUSH2 0xC5 JUMPI DUP1 PUSH4 0x37852D99 EQ PUSH2 0x198 JUMPI DUP1 PUSH4 0x47411226 EQ PUSH2 0x1AE JUMPI DUP1 PUSH4 0x54B598EC EQ PUSH2 0x1EA JUMPI DUP1 PUSH4 0x5BB6D284 EQ PUSH2 0x228 JUMPI PUSH2 0xF2 JUMP JUMPDEST DUP1 PUSH4 0xBEFDC15 EQ PUSH2 0xF6 JUMPI DUP1 PUSH4 0x13AF4035 EQ PUSH2 0x11E JUMPI DUP1 PUSH4 0x1C8DD214 EQ PUSH2 0x146 JUMPI DUP1 PUSH4 0x3153CEBC EQ PUSH2 0x16E JUMPI JUMPDEST PUSH0 DUP1 REVERT JUMPDEST CALLVALUE DUP1 ISZERO PUSH2 0x101 JUMPI PUSH0 DUP1 REVERT JUMPDEST POP PUSH2 0x11C PUSH1 0x4 DUP1 CALLDATASIZE SUB DUP2 ADD SWAP1 PUSH2 0x117 SWAP2 SWAP1 PUSH2 0x19AE JUMP JUMPDEST PUSH2 0x3D2 JUMP JUMPDEST STOP JUMPDEST CALLVALUE DUP1 ISZERO PUSH2 0x129 JUMPI PUSH0 DUP1 REVERT JUMPDEST POP PUSH2 0x144 PUSH1 0x4 DUP1 CALLDATASIZE SUB DUP2 ADD SWAP1 PUSH2 0x13F SWAP2 SWAP1 PUSH2 0x1A4A JUMP JUMPDEST PUSH2 0x66B JUMP JUMPDEST STOP JUMPDEST CALLVALUE DUP1 ISZERO PUSH2 0x151 JUMPI PUSH0 DUP1 REVERT JUMPDEST POP PUSH2 0x16C PUSH1 0x4 DUP1 CALLDATASIZE SUB DUP2 ADD SWAP1 PUSH2 0x167 SWAP2 SWAP1 PUSH2 0x1AAA JUMP JUMPDEST PUSH2 0x74C JUMP JUMPDEST STOP JUMPDEST CALLVALUE DUP1 ISZERO PUSH2 0x179 JUMPI PUSH0 DUP1 REVERT JUMPDEST POP PUSH2 0x182 PUSH2 0xDCC JUMP JUMPDEST PUSH1 0x40 MLOAD PUSH2 0x18F SWAP2 SWAP1 PUSH2 0x1AF7 JUMP JUMPDEST PUSH1 0x40 MLOAD DUP1 SWAP2 SUB SWAP1 RETURN JUMPDEST CALLVALUE DUP1 ISZERO PUSH2 0x1A3 JUMPI PUSH0 DUP1 REVERT JUMPDEST POP PUSH2 0x1AC PUSH2 0xDD1 JUMP JUMPDEST STOP JUMPDEST CALLVALUE DUP1 ISZERO PUSH2 0x1B9 JUMPI PUSH0 DUP1 REVERT JUMPDEST POP PUSH2 0x1D4 PUSH1 0x4 DUP1 CALLDATASIZE SUB DUP2 ADD SWAP1 PUSH2 0x1CF SWAP2 SWAP1 PUSH2 0x1B10 JUMP JUMPDEST PUSH2 0xE5C JUMP JUMPDEST PUSH1 0x40 MLOAD PUSH2 0x1E1 SWAP2 SWAP1 PUSH2 0x1B5D JUMP JUMPDEST PUSH1 0x40 MLOAD DUP1 SWAP2 SUB SWAP1 RETURN JUMPDEST CALLVALUE DUP1 ISZERO PUSH2 0x1F5 JUMPI PUSH0 DUP1 REVERT JUMPDEST POP PUSH2 0x210 PUSH1 0x4 DUP1 CALLDATASIZE SUB DUP2 ADD SWAP1 PUSH2 0x20B SWAP2 SWAP1 PUSH2 0x1B76 JUMP JUMPDEST PUSH2 0xE91 JUMP JUMPDEST PUSH1 0x40 MLOAD PUSH2 0x21F SWAP4 SWAP3 SWAP2 SWAP1 PUSH2 0x1BB4 JUMP JUMPDEST PUSH1 0x40 MLOAD DUP1 SWAP2 SUB SWAP1 RETURN JUMPDEST CALLVALUE DUP1 ISZERO PUSH2 0x233 JUMPI PUSH0 DUP1 REVERT JUMPDEST POP PUSH2 0x24E PUSH1 0x4 DUP1 CALLDATASIZE SUB DUP2 ADD SWAP1 PUSH2 0x249 SWAP2 SWAP1 PUSH2 0x1BE9 JUMP JUMPDEST PUSH2 0xEDB JUMP JUMPDEST PUSH1 0x40 MLOAD PUSH2 0x263 SWAP10 SWAP9 SWAP8 SWAP7 SWAP6 SWAP5 SWAP4 SWAP3 SWAP2 SWAP1 PUSH2 0x1C9D JUMP JUMPDEST PUSH1 0x40 MLOAD DUP1 SWAP2 SUB SWAP1 RETURN JUMPDEST CALLVALUE DUP1 ISZERO PUSH2 0x277 JUMPI PUSH0 DUP1 REVERT JUMPDEST POP PUSH2 0x292 PUSH1 0x4 DUP1 CALLDATASIZE SUB DUP2 ADD SWAP1 PUSH2 0x28D SWAP2 SWAP1 PUSH2 0x1BE9 JUMP JUMPDEST PUSH2 0x1088 JUMP JUMPDEST PUSH1 0x40 MLOAD PUSH2 0x2A0 SWAP3 SWAP2 SWAP1 PUSH2 0x1D36 JUMP JUMPDEST PUSH1 0x40 MLOAD DUP1 SWAP2 SUB SWAP1 RETURN JUMPDEST CALLVALUE DUP1 ISZERO PUSH2 0x2B4 JUMPI PUSH0 DUP1 REVERT JUMPDEST POP PUSH2 0x2BD PUSH2 0x10A8 JUMP JUMPDEST PUSH1 0x40 MLOAD PUSH2 0x2CA SWAP2 SWAP1 PUSH2 0x1AF7 JUMP JUMPDEST PUSH1 0x40 MLOAD DUP1 SWAP2 SUB SWAP1 RETURN JUMPDEST CALLVALUE DUP1 ISZERO PUSH2 0x2DE JUMPI PUSH0 DUP1 REVERT JUMPDEST POP PUSH2 0x2E7 PUSH2 0x10AE JUMP JUMPDEST PUSH1 0x40 MLOAD PUSH2 0x2F4 SWAP2 SWAP1 PUSH2 0x1AF7 JUMP JUMPDEST PUSH1 0x40 MLOAD DUP1 SWAP2 SUB SWAP1 RETURN JUMPDEST CALLVALUE DUP1 ISZERO PUSH2 0x308 JUMPI PUSH0 DUP1 REVERT JUMPDEST POP PUSH2 0x311 PUSH2 0x10B4 JUMP JUMPDEST PUSH1 0x40 MLOAD PUSH2 0x31E SWAP2 SWAP1 PUSH2 0x1AF7 JUMP JUMPDEST PUSH1 0x40 MLOAD DUP1 SWAP2 SUB SWAP1 RETURN JUMPDEST PUSH2 0x341 PUSH1 0x4 DUP1 CALLDATASIZE SUB DUP2 ADD SWAP1 PUSH2 0x33C SWAP2 SWAP1 PUSH2 0x1BE9 JUMP JUMPDEST PUSH2 0x10BA JUMP JUMPDEST STOP JUMPDEST CALLVALUE DUP1 ISZERO PUSH2 0x34E JUMPI PUSH0 DUP1 REVERT JUMPDEST POP PUSH2 0x357 PUSH2 0x14FB JUMP JUMPDEST PUSH1 0x40 MLOAD PUSH2 0x364 SWAP2 SWAP1 PUSH2 0x1D5D JUMP JUMPDEST PUSH1 0x40 MLOAD DUP1 SWAP2 SUB SWAP1 RETURN JUMPDEST CALLVALUE DUP1 ISZERO PUSH2 0x378 JUMPI PUSH0 DUP1 REVERT JUMPDEST POP PUSH2 0x393 PUSH1 0x4 DUP1 CALLDATASIZE SUB DUP2 ADD SWAP1 PUSH2 0x38E SWAP2 SWAP1 PUSH2 0x1D76 JUMP JUMPDEST PUSH2 0x1520 JUMP JUMPDEST STOP JUMPDEST CALLVALUE DUP1 ISZERO PUSH2 0x3A0 JUMPI PUSH0 DUP1 REVERT JUMPDEST POP PUSH2 0x3BB PUSH1 0x4 DUP1 CALLDATASIZE SUB DUP2 ADD SWAP1 PUSH2 0x3B6 SWAP2 SWAP1 PUSH2 0x1A4A JUMP JUMPDEST PUSH2 0x15AE JUMP JUMPDEST PUSH1 0x40 MLOAD PUSH2 0x3C9 SWAP3 SWAP2 SWAP1 PUSH2 0x1DBD JUMP JUMPDEST PUSH1 0x40 MLOAD DUP1 SWAP2 SUB SWAP1 RETURN JUMPDEST PUSH1 0x5 PUSH0 CALLER PUSH20 0xFFFFFFFFFFFFFFFFFFFFFFFFFFFFFFFFFFFFFFFF AND PUSH20 0xFFFFFFFFFFFFFFFFFFFFFFFFFFFFFFFFFFFFFFFF AND DUP2 MSTORE PUSH1 0x20 ADD SWAP1 DUP2 MSTORE PUSH1 0x20 ADD PUSH0 KECCAK256 PUSH1 0x1 ADD PUSH0 SWAP1 SLOAD SWAP1 PUSH2 0x100 EXP SWAP1 DIV PUSH1 0xFF AND PUSH2 0x45E JUMPI PUSH1 0x40 MLOAD PUSH32 0x8C379A000000000000000000000000000000000000000000000000000000000 DUP2 MSTORE PUSH1 0x4 ADD PUSH2 0x455 SWAP1 PUSH2 0x1E35 JUMP JUMPDEST PUSH1 0x40 MLOAD DUP1 SWAP2 SUB SWAP1 REVERT JUMPDEST PUSH0 PUSH1 0x40 MLOAD DUP1 PUSH2 0x120 ADD PUSH1 0x40 MSTORE DUP1 PUSH1 0x8 SLOAD DUP2 MSTORE PUSH1 0x20 ADD DUP7 DUP2 MSTORE PUSH1 0x20 ADD CALLER PUSH20 0xFFFFFFFFFFFFFFFFFFFFFFFFFFFFFFFFFFFFFFFF AND DUP2 MSTORE PUSH1 0x20 ADD DUP6 PUSH20 0xFFFFFFFFFFFFFFFFFFFFFFFFFFFFFFFFFFFFFFFF AND DUP2 MSTORE PUSH1 0x20 ADD DUP5 DUP2 MSTORE PUSH1 0x20 ADD DUP4 DUP2 MSTORE PUSH1 0x20 ADD TIMESTAMP DUP2 MSTORE PUSH1 0x20 ADD PUSH0 ISZERO ISZERO DUP2 MSTORE PUSH1 0x20 ADD PUSH0 ISZERO ISZERO DUP2 MSTORE POP SWAP1 POP DUP1 PUSH1 0x9 PUSH0 DUP4 PUSH0 ADD MLOAD DUP2 MSTORE PUSH1 0x20 ADD SWAP1 DUP2 MSTORE PUSH1 0x20 ADD PUSH0 KECCAK256 PUSH0 DUP3 ADD MLOAD DUP2 PUSH0 ADD SSTORE PUSH1 0x20 DUP3 ADD MLOAD DUP2 PUSH1 0x1 ADD SWAP1 DUP2 PUSH2 0x505 SWAP2 SWAP1 PUSH2 0x204D JUMP JUMPDEST POP PUSH1 0x40 DUP3 ADD MLOAD DUP2 PUSH1 0x2 ADD PUSH0 PUSH2 0x100 EXP DUP2 SLOAD DUP2 PUSH20 0xFFFFFFFFFFFFFFFFFFFFFFFFFFFFFFFFFFFFFFFF MUL NOT AND SWAP1 DUP4 PUSH20 0xFFFFFFFFFFFFFFFFFFFFFFFFFFFFFFFFFFFFFFFF AND MUL OR SWAP1 SSTORE POP PUSH1 0x60 DUP3 ADD MLOAD DUP2 PUSH1 0x3 ADD PUSH0 PUSH2 0x100 EXP DUP2 SLOAD DUP2 PUSH20 0xFFFFFFFFFFFFFFFFFFFFFFFFFFFFFFFFFFFFFFFF MUL NOT AND SWAP1 DUP4 PUSH20 0xFFFFFFFFFFFFFFFFFFFFFFFFFFFFFFFFFFFFFFFF AND MUL OR SWAP1 SSTORE POP PUSH1 0x80 DUP3 ADD MLOAD DUP2 PUSH1 0x4 ADD SSTORE PUSH1 0xA0 DUP3 ADD MLOAD DUP2 PUSH1 0x5 ADD SWAP1 DUP2 PUSH2 0x5B1 SWAP2 SWAP1 PUSH2 0x204D JUMP JUMPDEST POP PUSH1 0xC0 DUP3 ADD MLOAD DUP2 PUSH1 0x6 ADD SSTORE PUSH1 0xE0 DUP3 ADD MLOAD DUP2 PUSH1 0x7 ADD PUSH0 PUSH2 0x100 EXP DUP2 SLOAD DUP2 PUSH1 0xFF MUL NOT AND SWAP1 DUP4 ISZERO ISZERO MUL OR SWAP1 SSTORE POP PUSH2 0x100 DUP3 ADD MLOAD DUP2 PUSH1 0x7 ADD PUSH1 0x1 PUSH2 0x100 EXP DUP2 SLOAD DUP2 PUSH1 0xFF MUL NOT AND SWAP1 DUP4 ISZERO ISZERO MUL OR SWAP1 SSTORE POP SWAP1 POP POP PUSH1 0x1 PUSH1 0x8 SLOAD PUSH2 0x60E SWAP2 SWAP1 PUSH2 0x2149 JUMP JUMPDEST PUSH1 0x8 DUP2 SWAP1 SSTORE POP CALLER PUSH20 0xFFFFFFFFFFFFFFFFFFFFFFFFFFFFFFFFFFFFFFFF AND PUSH32 0x7E25F8742B0359507D9119310EC6E12A3E4201D358DF6B156DD313A3DB8D1265 PUSH1 0x8 SLOAD PUSH1 0x40 MLOAD PUSH2 0x65C SWAP2 SWAP1 PUSH2 0x1AF7 JUMP JUMPDEST PUSH1 0x40 MLOAD DUP1 SWAP2 SUB SWAP1 LOG2 POP POP POP POP POP JUMP JUMPDEST PUSH1 0x4 PUSH0 CALLER PUSH20 0xFFFFFFFFFFFFFFFFFFFFFFFFFFFFFFFFFFFFFFFF AND PUSH20 0xFFFFFFFFFFFFFFFFFFFFFFFFFFFFFFFFFFFFFFFF AND DUP2 MSTORE PUSH1 0x20 ADD SWAP1 DUP2 MSTORE PUSH1 0x20 ADD PUSH0 KECCAK256 PUSH0 SWAP1 SLOAD SWAP1 PUSH2 0x100 EXP SWAP1 DIV PUSH1 0xFF AND PUSH2 0x6F4 JUMPI PUSH1 0x40 MLOAD PUSH32 0x8C379A000000000000000000000000000000000000000000000000000000000 DUP2 MSTORE PUSH1 0x4 ADD PUSH2 0x6EB SWAP1 PUSH2 0x21C6 JUMP JUMPDEST PUSH1 0x40 MLOAD DUP1 SWAP2 SUB SWAP1 REVERT JUMPDEST PUSH1 0x1 PUSH1 0x4 PUSH0 DUP4 PUSH20 0xFFFFFFFFFFFFFFFFFFFFFFFFFFFFFFFFFFFFFFFF AND PUSH20 0xFFFFFFFFFFFFFFFFFFFFFFFFFFFFFFFFFFFFFFFF AND DUP2 MSTORE PUSH1 0x20 ADD SWAP1 DUP2 MSTORE PUSH1 0x20 ADD PUSH0 KECCAK256 PUSH0 PUSH2 0x100 EXP DUP2 SLOAD DUP2 PUSH1 0xFF MUL NOT AND SWAP1 DUP4 ISZERO ISZERO MUL OR SWAP1 SSTORE POP POP JUMP JUMPDEST PUSH0 PUSH1 0x9 PUSH0 DUP5 DUP2 MSTORE PUSH1 0x20 ADD SWAP1 DUP2 MSTORE PUSH1 0x20 ADD PUSH0 KECCAK256 PUSH1 0x40 MLOAD DUP1 PUSH2 0x120 ADD PUSH1 0x40 MSTORE SWAP1 DUP2 PUSH0 DUP3 ADD SLOAD DUP2 MSTORE PUSH1 0x20 ADD PUSH1 0x1 DUP3 ADD DUP1 SLOAD PUSH2 0x783 SWAP1 PUSH2 0x1E80 JUMP JUMPDEST DUP1 PUSH1 0x1F ADD PUSH1 0x20 DUP1 SWAP2 DIV MUL PUSH1 0x20 ADD PUSH1 0x40 MLOAD SWAP1 DUP2 ADD PUSH1 0x40 MSTORE DUP1 SWAP3 SWAP2 SWAP1 DUP2 DUP2 MSTORE PUSH1 0x20 ADD DUP3 DUP1 SLOAD PUSH2 0x7AF SWAP1 PUSH2 0x1E80 JUMP JUMPDEST DUP1 ISZERO PUSH2 0x7FA JUMPI DUP1 PUSH1 0x1F LT PUSH2 0x7D1 JUMPI PUSH2 0x100 DUP1 DUP4 SLOAD DIV MUL DUP4 MSTORE SWAP2 PUSH1 0x20 ADD SWAP2 PUSH2 0x7FA JUMP JUMPDEST DUP3 ADD SWAP2 SWAP1 PUSH0 MSTORE PUSH1 0x20 PUSH0 KECCAK256 SWAP1 JUMPDEST DUP2 SLOAD DUP2 MSTORE SWAP1 PUSH1 0x1 ADD SWAP1 PUSH1 0x20 ADD DUP1 DUP4 GT PUSH2 0x7DD JUMPI DUP3 SWAP1 SUB PUSH1 0x1F AND DUP3 ADD SWAP2 JUMPDEST POP POP POP POP POP DUP2 MSTORE PUSH1 0x20 ADD PUSH1 0x2 DUP3 ADD PUSH0 SWAP1 SLOAD SWAP1 PUSH2 0x100 EXP SWAP1 DIV PUSH20 0xFFFFFFFFFFFFFFFFFFFFFFFFFFFFFFFFFFFFFFFF AND PUSH20 0xFFFFFFFFFFFFFFFFFFFFFFFFFFFFFFFFFFFFFFFF AND PUSH20 0xFFFFFFFFFFFFFFFFFFFFFFFFFFFFFFFFFFFFFFFF AND DUP2 MSTORE PUSH1 0x20 ADD PUSH1 0x3 DUP3 ADD PUSH0 SWAP1 SLOAD SWAP1 PUSH2 0x100 EXP SWAP1 DIV PUSH20 0xFFFFFFFFFFFFFFFFFFFFFFFFFFFFFFFFFFFFFFFF AND PUSH20 0xFFFFFFFFFFFFFFFFFFFFFFFFFFFFFFFFFFFFFFFF AND PUSH20 0xFFFFFFFFFFFFFFFFFFFFFFFFFFFFFFFFFFFFFFFF AND DUP2 MSTORE PUSH1 0x20 ADD PUSH1 0x4 DUP3 ADD SLOAD DUP2 MSTORE PUSH1 0x20 ADD PUSH1 0x5 DUP3 ADD DUP1 SLOAD PUSH2 0x8C7 SWAP1 PUSH2 0x1E80 JUMP JUMPDEST DUP1 PUSH1 0x1F ADD PUSH1 0x20 DUP1 SWAP2 DIV MUL PUSH1 0x20 ADD PUSH1 0x40 MLOAD SWAP1 DUP2 ADD PUSH1 0x40 MSTORE DUP1 SWAP3 SWAP2 SWAP1 DUP2 DUP2 MSTORE PUSH1 0x20 ADD DUP3 DUP1 SLOAD PUSH2 0x8F3 SWAP1 PUSH2 0x1E80 JUMP JUMPDEST DUP1 ISZERO PUSH2 0x93E JUMPI DUP1 PUSH1 0x1F LT PUSH2 0x915 JUMPI PUSH2 0x100 DUP1 DUP4 SLOAD DIV MUL DUP4 MSTORE SWAP2 PUSH1 0x20 ADD SWAP2 PUSH2 0x93E JUMP JUMPDEST DUP3 ADD SWAP2 SWAP1 PUSH0 MSTORE PUSH1 0x20 PUSH0 KECCAK256 SWAP1 JUMPDEST DUP2 SLOAD DUP2 MSTORE SWAP1 PUSH1 0x1 ADD SWAP1 PUSH1 0x20 ADD DUP1 DUP4 GT PUSH2 0x921 JUMPI DUP3 SWAP1 SUB PUSH1 0x1F AND DUP3 ADD SWAP2 JUMPDEST POP POP POP POP POP DUP2 MSTORE PUSH1 0x20 ADD PUSH1 0x6 DUP3 ADD SLOAD DUP2 MSTORE PUSH1 0x20 ADD PUSH1 0x7 DUP3 ADD PUSH0 SWAP1 SLOAD SWAP1 PUSH2 0x100 EXP SWAP1 DIV PUSH1 0xFF AND ISZERO ISZERO ISZERO ISZERO DUP2 MSTORE PUSH1 0x20 ADD PUSH1 0x7 DUP3 ADD PUSH1 0x1 SWAP1 SLOAD SWAP1 PUSH2 0x100 EXP SWAP1 DIV PUSH1 0xFF AND ISZERO ISZERO ISZERO ISZERO DUP2 MSTORE POP POP SWAP1 POP PUSH0 PUSH1 0x2 PUSH0 SWAP1 SLOAD SWAP1 PUSH2 0x100 EXP SWAP1 DIV PUSH20 0xFFFFFFFFFFFFFFFFFFFFFFFFFFFFFFFFFFFFFFFF AND SWAP1 POP PUSH1 0x5 PUSH0 CALLER PUSH20 0xFFFFFFFFFFFFFFFFFFFFFFFFFFFFFFFFFFFFFFFF AND PUSH20 0xFFFFFFFFFFFFFFFFFFFFFFFFFFFFFFFFFFFFFFFF AND DUP2 MSTORE PUSH1 0x20 ADD SWAP1 DUP2 MSTORE PUSH1 0x20 ADD PUSH0 KECCAK256 PUSH1 0x1 ADD PUSH0 SWAP1 SLOAD SWAP1 PUSH2 0x100 EXP SWAP1 DIV PUSH1 0xFF AND PUSH2 0xA39 JUMPI PUSH1 0x40 MLOAD PUSH32 0x8C379A000000000000000000000000000000000000000000000000000000000 DUP2 MSTORE PUSH1 0x4 ADD PUSH2 0xA30 SWAP1 PUSH2 0x1E35 JUMP JUMPDEST PUSH1 0x40 MLOAD DUP1 SWAP2 SUB SWAP1 REVERT JUMPDEST PUSH0 DUP3 PUSH1 0xC0 ADD MLOAD PUSH0 SLOAD PUSH2 0xA4B SWAP2 SWAP1 PUSH2 0x2149 JUMP JUMPDEST SWAP1 POP TIMESTAMP DUP2 GT PUSH2 0xA8F JUMPI PUSH1 0x40 MLOAD PUSH32 0x8C379A000000000000000000000000000000000000000000000000000000000 DUP2 MSTORE PUSH1 0x4 ADD PUSH2 0xA86 SWAP1 PUSH2 0x222E JUMP JUMPDEST PUSH1 0x40 MLOAD DUP1 SWAP2 SUB SWAP1 REVERT JUMPDEST PUSH0 DUP3 PUSH20 0xFFFFFFFFFFFFFFFFFFFFFFFFFFFFFFFFFFFFFFFF AND PUSH4 0x70A08231 CALLER PUSH1 0x40 MLOAD DUP3 PUSH4 0xFFFFFFFF AND PUSH1 0xE0 SHL DUP2 MSTORE PUSH1 0x4 ADD PUSH2 0xAC9 SWAP2 SWAP1 PUSH2 0x1D5D JUMP JUMPDEST PUSH1 0x20 PUSH1 0x40 MLOAD DUP1 DUP4 SUB DUP2 DUP7 GAS STATICCALL ISZERO DUP1 ISZERO PUSH2 0xAE4 JUMPI RETURNDATASIZE PUSH0 DUP1 RETURNDATACOPY RETURNDATASIZE PUSH0 REVERT JUMPDEST POP POP POP POP PUSH1 0x40 MLOAD RETURNDATASIZE PUSH1 0x1F NOT PUSH1 0x1F DUP3 ADD AND DUP3 ADD DUP1 PUSH1 0x40 MSTORE POP DUP2 ADD SWAP1 PUSH2 0xB08 SWAP2 SWAP1 PUSH2 0x2260 JUMP JUMPDEST GT PUSH2 0xB48 JUMPI PUSH1 0x40 MLOAD PUSH32 0x8C379A000000000000000000000000000000000000000000000000000000000 DUP2 MSTORE PUSH1 0x4 ADD PUSH2 0xB3F SWAP1 PUSH2 0x22FB JUMP JUMPDEST PUSH1 0x40 MLOAD DUP1 SWAP2 SUB SWAP1 REVERT JUMPDEST PUSH1 0x6 PUSH0 CALLER PUSH20 0xFFFFFFFFFFFFFFFFFFFFFFFFFFFFFFFFFFFFFFFF AND PUSH20 0xFFFFFFFFFFFFFFFFFFFFFFFFFFFFFFFFFFFFFFFF AND DUP2 MSTORE PUSH1 0x20 ADD SWAP1 DUP2 MSTORE PUSH1 0x20 ADD PUSH0 KECCAK256 PUSH0 DUP7 DUP2 MSTORE PUSH1 0x20 ADD SWAP1 DUP2 MSTORE PUSH1 0x20 ADD PUSH0 KECCAK256 PUSH1 0x1 ADD PUSH1 0x1 SWAP1 SLOAD SWAP1 PUSH2 0x100 EXP SWAP1 DIV PUSH1 0xFF AND ISZERO PUSH2 0xBE5 JUMPI PUSH1 0x40 MLOAD PUSH32 0x8C379A000000000000000000000000000000000000000000000000000000000 DUP2 MSTORE PUSH1 0x4 ADD PUSH2 0xBDC SWAP1 PUSH2 0x2389 JUMP JUMPDEST PUSH1 0x40 MLOAD DUP1 SWAP2 SUB SWAP1 REVERT JUMPDEST PUSH1 0x40 MLOAD DUP1 PUSH1 0x60 ADD PUSH1 0x40 MSTORE DUP1 DUP7 DUP2 MSTORE PUSH1 0x20 ADD DUP6 ISZERO ISZERO DUP2 MSTORE PUSH1 0x20 ADD PUSH1 0x1 ISZERO ISZERO DUP2 MSTORE POP PUSH1 0x6 PUSH0 CALLER PUSH20 0xFFFFFFFFFFFFFFFFFFFFFFFFFFFFFFFFFFFFFFFF AND PUSH20 0xFFFFFFFFFFFFFFFFFFFFFFFFFFFFFFFFFFFFFFFF AND DUP2 MSTORE PUSH1 0x20 ADD SWAP1 DUP2 MSTORE PUSH1 0x20 ADD PUSH0 KECCAK256 PUSH0 DUP8 DUP2 MSTORE PUSH1 0x20 ADD SWAP1 DUP2 MSTORE PUSH1 0x20 ADD PUSH0 KECCAK256 PUSH0 DUP3 ADD MLOAD DUP2 PUSH0 ADD SSTORE PUSH1 0x20 DUP3 ADD MLOAD DUP2 PUSH1 0x1 ADD PUSH0 PUSH2 0x100 EXP DUP2 SLOAD DUP2 PUSH1 0xFF MUL NOT AND SWAP1 DUP4 ISZERO ISZERO MUL OR SWAP1 SSTORE POP PUSH1 0x40 DUP3 ADD MLOAD DUP2 PUSH1 0x1 ADD PUSH1 0x1 PUSH2 0x100 EXP DUP2 SLOAD DUP2 PUSH1 0xFF MUL NOT AND SWAP1 DUP4 ISZERO ISZERO MUL OR SWAP1 SSTORE POP SWAP1 POP POP PUSH1 0x6 PUSH0 CALLER PUSH20 0xFFFFFFFFFFFFFFFFFFFFFFFFFFFFFFFFFFFFFFFF AND PUSH20 0xFFFFFFFFFFFFFFFFFFFFFFFFFFFFFFFFFFFFFFFF AND DUP2 MSTORE PUSH1 0x20 ADD SWAP1 DUP2 MSTORE PUSH1 0x20 ADD PUSH0 KECCAK256 PUSH0 DUP7 DUP2 MSTORE PUSH1 0x20 ADD SWAP1 DUP2 MSTORE PUSH1 0x20 ADD PUSH0 KECCAK256 PUSH1 0x1 ADD PUSH0 SWAP1 SLOAD SWAP1 PUSH2 0x100 EXP SWAP1 DIV PUSH1 0xFF AND ISZERO PUSH2 0xD38 JUMPI PUSH1 0x1 PUSH1 0x7 PUSH0 DUP8 DUP2 MSTORE PUSH1 0x20 ADD SWAP1 DUP2 MSTORE PUSH1 0x20 ADD PUSH0 KECCAK256 PUSH0 ADD SLOAD PUSH2 0xD1C SWAP2 SWAP1 PUSH2 0x2149 JUMP JUMPDEST PUSH1 0x7 PUSH0 DUP8 DUP2 MSTORE PUSH1 0x20 ADD SWAP1 DUP2 MSTORE PUSH1 0x20 ADD PUSH0 KECCAK256 PUSH0 ADD DUP2 SWAP1 SSTORE POP PUSH2 0xD72 JUMP JUMPDEST PUSH1 0x1 PUSH1 0x7 PUSH0 DUP8 DUP2 MSTORE PUSH1 0x20 ADD SWAP1 DUP2 MSTORE PUSH1 0x20 ADD PUSH0 KECCAK256 PUSH1 0x1 ADD SLOAD PUSH2 0xD59 SWAP2 SWAP1 PUSH2 0x2149 JUMP JUMPDEST PUSH1 0x7 PUSH0 DUP8 DUP2 MSTORE PUSH1 0x20 ADD SWAP1 DUP2 MSTORE PUSH1 0x20 ADD PUSH0 KECCAK256 PUSH1 0x1 ADD DUP2 SWAP1 SSTORE POP JUMPDEST CALLER PUSH20 0xFFFFFFFFFFFFFFFFFFFFFFFFFFFFFFFFFFFFFFFF AND PUSH32 0x4F7FF1C79E536D7FEF60CCB53BEB6009E08841FFCBA10E515E076F4CBDD9E320 DUP5 PUSH0 ADD MLOAD DUP7 PUSH1 0x40 MLOAD PUSH2 0xDBD SWAP3 SWAP2 SWAP1 PUSH2 0x23A7 JUMP JUMPDEST PUSH1 0x40 MLOAD DUP1 SWAP2 SUB SWAP1 LOG2 POP POP POP POP POP JUMP JUMPDEST PUSH0 SLOAD DUP2 JUMP JUMPDEST PUSH1 0x4 PUSH0 CALLER PUSH20 0xFFFFFFFFFFFFFFFFFFFFFFFFFFFFFFFFFFFFFFFF AND PUSH20 0xFFFFFFFFFFFFFFFFFFFFFFFFFFFFFFFFFFFFFFFF AND DUP2 MSTORE PUSH1 0x20 ADD SWAP1 DUP2 MSTORE PUSH1 0x20 ADD PUSH0 KECCAK256 PUSH0 SWAP1 SLOAD SWAP1 PUSH2 0x100 EXP SWAP1 DIV PUSH1 0xFF AND PUSH2 0xE5A JUMPI PUSH1 0x40 MLOAD PUSH32 0x8C379A000000000000000000000000000000000000000000000000000000000 DUP2 MSTORE PUSH1 0x4 ADD PUSH2 0xE51 SWAP1 PUSH2 0x21C6 JUMP JUMPDEST PUSH1 0x40 MLOAD DUP1 SWAP2 SUB SWAP1 REVERT JUMPDEST JUMP JUMPDEST PUSH0 DUP1 PUSH2 0xE75 PUSH1 0x3C PUSH1 0x64 DUP6 PUSH2 0x1660 SWAP1 SWAP3 SWAP2 SWAP1 PUSH4 0xFFFFFFFF AND JUMP JUMPDEST SWAP1 POP DUP1 DUP5 LT ISZERO PUSH2 0xE85 JUMPI PUSH0 PUSH2 0xE88 JUMP JUMPDEST PUSH1 0x1 JUMPDEST SWAP2 POP POP SWAP3 SWAP2 POP POP JUMP JUMPDEST PUSH1 0x6 PUSH1 0x20 MSTORE DUP2 PUSH0 MSTORE PUSH1 0x40 PUSH0 KECCAK256 PUSH1 0x20 MSTORE DUP1 PUSH0 MSTORE PUSH1 0x40 PUSH0 KECCAK256 PUSH0 SWAP2 POP SWAP2 POP POP DUP1 PUSH0 ADD SLOAD SWAP1 DUP1 PUSH1 0x1 ADD PUSH0 SWAP1 SLOAD SWAP1 PUSH2 0x100 EXP SWAP1 DIV PUSH1 0xFF AND SWAP1 DUP1 PUSH1 0x1 ADD PUSH1 0x1 SWAP1 SLOAD SWAP1 PUSH2 0x100 EXP SWAP1 DIV PUSH1 0xFF AND SWAP1 POP DUP4 JUMP JUMPDEST PUSH1 0x9 PUSH1 0x20 MSTORE DUP1 PUSH0 MSTORE PUSH1 0x40 PUSH0 KECCAK256 PUSH0 SWAP2 POP SWAP1 POP DUP1 PUSH0 ADD SLOAD SWAP1 DUP1 PUSH1 0x1 ADD DUP1 SLOAD PUSH2 0xF00 SWAP1 PUSH2 0x1E80 JUMP JUMPDEST DUP1 PUSH1 0x1F ADD PUSH1 0x20 DUP1 SWAP2 DIV MUL PUSH1 0x20 ADD PUSH1 0x40 MLOAD SWAP1 DUP2 ADD PUSH1 0x40 MSTORE DUP1 SWAP3 SWAP2 SWAP1 DUP2 DUP2 MSTORE PUSH1 0x20 ADD DUP3 DUP1 SLOAD PUSH2 0xF2C SWAP1 PUSH2 0x1E80 JUMP JUMPDEST DUP1 ISZERO PUSH2 0xF77 JUMPI DUP1 PUSH1 0x1F LT PUSH2 0xF4E JUMPI PUSH2 0x100 DUP1 DUP4 SLOAD DIV MUL DUP4 MSTORE SWAP2 PUSH1 0x20 ADD SWAP2 PUSH2 0xF77 JUMP JUMPDEST DUP3 ADD SWAP2 SWAP1 PUSH0 MSTORE PUSH1 0x20 PUSH0 KECCAK256 SWAP1 JUMPDEST DUP2 SLOAD DUP2 MSTORE SWAP1 PUSH1 0x1 ADD SWAP1 PUSH1 0x20 ADD DUP1 DUP4 GT PUSH2 0xF5A JUMPI DUP3 SWAP1 SUB PUSH1 0x1F AND DUP3 ADD SWAP2 JUMPDEST POP POP POP POP POP SWAP1 DUP1 PUSH1 0x2 ADD PUSH0 SWAP1 SLOAD SWAP1 PUSH2 0x100 EXP SWAP1 DIV PUSH20 0xFFFFFFFFFFFFFFFFFFFFFFFFFFFFFFFFFFFFFFFF AND SWAP1 DUP1 PUSH1 0x3 ADD PUSH0 SWAP1 SLOAD SWAP1 PUSH2 0x100 EXP SWAP1 DIV PUSH20 0xFFFFFFFFFFFFFFFFFFFFFFFFFFFFFFFFFFFFFFFF AND SWAP1 DUP1 PUSH1 0x4 ADD SLOAD SWAP1 DUP1 PUSH1 0x5 ADD DUP1 SLOAD PUSH2 0xFDC SWAP1 PUSH2 0x1E80 JUMP JUMPDEST DUP1 PUSH1 0x1F ADD PUSH1 0x20 DUP1 SWAP2 DIV MUL PUSH1 0x20 ADD PUSH1 0x40 MLOAD SWAP1 DUP2 ADD PUSH1 0x40 MSTORE DUP1 SWAP3 SWAP2 SWAP1 DUP2 DUP2 MSTORE PUSH1 0x20 ADD DUP3 DUP1 SLOAD PUSH2 0x1008 SWAP1 PUSH2 0x1E80 JUMP JUMPDEST DUP1 ISZERO PUSH2 0x1053 JUMPI DUP1 PUSH1 0x1F LT PUSH2 0x102A JUMPI PUSH2 0x100 DUP1 DUP4 SLOAD DIV MUL DUP4 MSTORE SWAP2 PUSH1 0x20 ADD SWAP2 PUSH2 0x1053 JUMP JUMPDEST DUP3 ADD SWAP2 SWAP1 PUSH0 MSTORE PUSH1 0x20 PUSH0 KECCAK256 SWAP1 JUMPDEST DUP2 SLOAD DUP2 MSTORE SWAP1 PUSH1 0x1 ADD SWAP1 PUSH1 0x20 ADD DUP1 DUP4 GT PUSH2 0x1036 JUMPI DUP3 SWAP1 SUB PUSH1 0x1F AND DUP3 ADD SWAP2 JUMPDEST POP POP POP POP POP SWAP1 DUP1 PUSH1 0x6 ADD SLOAD SWAP1 DUP1 PUSH1 0x7 ADD PUSH0 SWAP1 SLOAD SWAP1 PUSH2 0x100 EXP SWAP1 DIV PUSH1 0xFF AND SWAP1 DUP1 PUSH1 0x7 ADD PUSH1 0x1 SWAP1 SLOAD SWAP1 PUSH2 0x100 EXP SWAP1 DIV PUSH1 0xFF AND SWAP1 POP DUP10 JUMP JUMPDEST PUSH1 0x7 PUSH1 0x20 MSTORE DUP1 PUSH0 MSTORE PUSH1 0x40 PUSH0 KECCAK256 PUSH0 SWAP2 POP SWAP1 POP DUP1 PUSH0 ADD SLOAD SWAP1 DUP1 PUSH1 0x1 ADD SLOAD SWAP1 POP DUP3 JUMP JUMPDEST PUSH1 0x8 SLOAD DUP2 JUMP JUMPDEST PUSH1 0x1 SLOAD DUP2 JUMP JUMPDEST PUSH1 0x3 SLOAD DUP2 JUMP JUMPDEST PUSH2 0x10C2 PUSH2 0x175F JUMP JUMPDEST PUSH0 DUP1 PUSH1 0x60 PUSH1 0x9 PUSH0 DUP7 DUP2 MSTORE PUSH1 0x20 ADD SWAP1 DUP2 MSTORE PUSH1 0x20 ADD PUSH0 KECCAK256 PUSH1 0x40 MLOAD DUP1 PUSH2 0x120 ADD PUSH1 0x40 MSTORE SWAP1 DUP2 PUSH0 DUP3 ADD SLOAD DUP2 MSTORE PUSH1 0x20 ADD PUSH1 0x1 DUP3 ADD DUP1 SLOAD PUSH2 0x10FC SWAP1 PUSH2 0x1E80 JUMP JUMPDEST DUP1 PUSH1 0x1F ADD PUSH1 0x20 DUP1 SWAP2 DIV MUL PUSH1 0x20 ADD PUSH1 0x40 MLOAD SWAP1 DUP2 ADD PUSH1 0x40 MSTORE DUP1 SWAP3 SWAP2 SWAP1 DUP2 DUP2 MSTORE PUSH1 0x20 ADD DUP3 DUP1 SLOAD PUSH2 0x1128 SWAP1 PUSH2 0x1E80 JUMP JUMPDEST DUP1 ISZERO PUSH2 0x1173 JUMPI DUP1 PUSH1 0x1F LT PUSH2 0x114A JUMPI PUSH2 0x100 DUP1 DUP4 SLOAD DIV MUL DUP4 MSTORE SWAP2 PUSH1 0x20 ADD SWAP2 PUSH2 0x1173 JUMP JUMPDEST DUP3 ADD SWAP2 SWAP1 PUSH0 MSTORE PUSH1 0x20 PUSH0 KECCAK256 SWAP1 JUMPDEST DUP2 SLOAD DUP2 MSTORE SWAP1 PUSH1 0x1 ADD SWAP1 PUSH1 0x20 ADD DUP1 DUP4 GT PUSH2 0x1156 JUMPI DUP3 SWAP1 SUB PUSH1 0x1F AND DUP3 ADD SWAP2 JUMPDEST POP POP POP POP POP DUP2 MSTORE PUSH1 0x20 ADD PUSH1 0x2 DUP3 ADD PUSH0 SWAP1 SLOAD SWAP1 PUSH2 0x100 EXP SWAP1 DIV PUSH20 0xFFFFFFFFFFFFFFFFFFFFFFFFFFFFFFFFFFFFFFFF AND PUSH20 0xFFFFFFFFFFFFFFFFFFFFFFFFFFFFFFFFFFFFFFFF AND PUSH20 0xFFFFFFFFFFFFFFFFFFFFFFFFFFFFFFFFFFFFFFFF AND DUP2 MSTORE PUSH1 0x20 ADD PUSH1 0x3 DUP3 ADD PUSH0 SWAP1 SLOAD SWAP1 PUSH2 0x100 EXP SWAP1 DIV PUSH20 0xFFFFFFFFFFFFFFFFFFFFFFFFFFFFFFFFFFFFFFFF AND PUSH20 0xFFFFFFFFFFFFFFFFFFFFFFFFFFFFFFFFFFFFFFFF AND PUSH20 0xFFFFFFFFFFFFFFFFFFFFFFFFFFFFFFFFFFFFFFFF AND DUP2 MSTORE PUSH1 0x20 ADD PUSH1 0x4 DUP3 ADD SLOAD DUP2 MSTORE PUSH1 0x20 ADD PUSH1 0x5 DUP3 ADD DUP1 SLOAD PUSH2 0x1240 SWAP1 PUSH2 0x1E80 JUMP JUMPDEST DUP1 PUSH1 0x1F ADD PUSH1 0x20 DUP1 SWAP2 DIV MUL PUSH1 0x20 ADD PUSH1 0x40 MLOAD SWAP1 DUP2 ADD PUSH1 0x40 MSTORE DUP1 SWAP3 SWAP2 SWAP1 DUP2 DUP2 MSTORE PUSH1 0x20 ADD DUP3 DUP1 SLOAD PUSH2 0x126C SWAP1 PUSH2 0x1E80 JUMP JUMPDEST DUP1 ISZERO PUSH2 0x12B7 JUMPI DUP1 PUSH1 0x1F LT PUSH2 0x128E JUMPI PUSH2 0x100 DUP1 DUP4 SLOAD DIV MUL DUP4 MSTORE SWAP2 PUSH1 0x20 ADD SWAP2 PUSH2 0x12B7 JUMP JUMPDEST DUP3 ADD SWAP2 SWAP1 PUSH0 MSTORE PUSH1 0x20 PUSH0 KECCAK256 SWAP1 JUMPDEST DUP2 SLOAD DUP2 MSTORE SWAP1 PUSH1 0x1 ADD SWAP1 PUSH1 0x20 ADD DUP1 DUP4 GT PUSH2 0x129A JUMPI DUP3 SWAP1 SUB PUSH1 0x1F AND DUP3 ADD SWAP2 JUMPDEST POP POP POP POP POP DUP2 MSTORE PUSH1 0x20 ADD PUSH1 0x6 DUP3 ADD SLOAD DUP2 MSTORE PUSH1 0x20 ADD PUSH1 0x7 DUP3 ADD PUSH0 SWAP1 SLOAD SWAP1 PUSH2 0x100 EXP SWAP1 DIV PUSH1 0xFF AND ISZERO ISZERO ISZERO ISZERO DUP2 MSTORE PUSH1 0x20 ADD PUSH1 0x7 DUP3 ADD PUSH1 0x1 SWAP1 SLOAD SWAP1 PUSH2 0x100 EXP SWAP1 DIV PUSH1 0xFF AND ISZERO ISZERO ISZERO ISZERO DUP2 MSTORE POP POP SWAP4 POP DUP4 PUSH1 0x60 ADD MLOAD SWAP3 POP DUP4 PUSH1 0x80 ADD MLOAD SWAP2 POP DUP4 PUSH1 0xA0 ADD MLOAD SWAP1 POP PUSH0 PUSH1 0x7 PUSH0 DUP8 DUP2 MSTORE PUSH1 0x20 ADD SWAP1 DUP2 MSTORE PUSH1 0x20 ADD PUSH0 KECCAK256 PUSH1 0x1 ADD SLOAD PUSH1 0x7 PUSH0 DUP9 DUP2 MSTORE PUSH1 0x20 ADD SWAP1 DUP2 MSTORE PUSH1 0x20 ADD PUSH0 KECCAK256 PUSH0 ADD SLOAD PUSH2 0x134A SWAP2 SWAP1 PUSH2 0x2149 JUMP JUMPDEST SWAP1 POP PUSH2 0x1369 PUSH1 0x7 PUSH0 DUP9 DUP2 MSTORE PUSH1 0x20 ADD SWAP1 DUP2 MSTORE PUSH1 0x20 ADD PUSH0 KECCAK256 PUSH0 ADD SLOAD DUP3 PUSH2 0xE5C JUMP JUMPDEST PUSH2 0x13A8 JUMPI PUSH1 0x40 MLOAD PUSH32 0x8C379A000000000000000000000000000000000000000000000000000000000 DUP2 MSTORE PUSH1 0x4 ADD PUSH2 0x139F SWAP1 PUSH2 0x2418 JUMP JUMPDEST PUSH1 0x40 MLOAD DUP1 SWAP2 SUB SWAP1 REVERT JUMPDEST PUSH0 DUP1 DUP6 PUSH20 0xFFFFFFFFFFFFFFFFFFFFFFFFFFFFFFFFFFFFFFFF AND CALLVALUE DUP6 DUP8 PUSH1 0x40 MLOAD PUSH1 0x24 ADD PUSH2 0x13D4 SWAP2 SWAP1 PUSH2 0x1AF7 JUMP JUMPDEST PUSH1 0x40 MLOAD PUSH1 0x20 DUP2 DUP4 SUB SUB DUP2 MSTORE SWAP1 PUSH1 0x40 MSTORE SWAP1 PUSH1 0x40 MLOAD PUSH2 0x13F1 SWAP2 SWAP1 PUSH2 0x2470 JUMP JUMPDEST PUSH1 0x40 MLOAD DUP1 SWAP2 SUB SWAP1 KECCAK256 PUSH28 0xFFFFFFFFFFFFFFFFFFFFFFFFFFFFFFFFFFFFFFFFFFFFFFFFFFFFFFFF NOT AND PUSH1 0x20 DUP3 ADD DUP1 MLOAD PUSH28 0xFFFFFFFFFFFFFFFFFFFFFFFFFFFFFFFFFFFFFFFFFFFFFFFFFFFFFFFF DUP4 DUP2 DUP4 AND OR DUP4 MSTORE POP POP POP POP PUSH1 0x40 MLOAD PUSH2 0x1453 SWAP2 SWAP1 PUSH2 0x24CA JUMP JUMPDEST PUSH0 PUSH1 0x40 MLOAD DUP1 DUP4 SUB DUP2 DUP6 DUP8 GAS CALL SWAP3 POP POP POP RETURNDATASIZE DUP1 PUSH0 DUP2 EQ PUSH2 0x148D JUMPI PUSH1 0x40 MLOAD SWAP2 POP PUSH1 0x1F NOT PUSH1 0x3F RETURNDATASIZE ADD AND DUP3 ADD PUSH1 0x40 MSTORE RETURNDATASIZE DUP3 MSTORE RETURNDATASIZE PUSH0 PUSH1 0x20 DUP5 ADD RETURNDATACOPY PUSH2 0x1492 JUMP JUMPDEST PUSH1 0x60 SWAP2 POP JUMPDEST POP SWAP2 POP SWAP2 POP DUP2 PUSH2 0x14D7 JUMPI PUSH1 0x40 MLOAD PUSH32 0x8C379A000000000000000000000000000000000000000000000000000000000 DUP2 MSTORE PUSH1 0x4 ADD PUSH2 0x14CE SWAP1 PUSH2 0x252A JUMP JUMPDEST PUSH1 0x40 MLOAD DUP1 SWAP2 SUB SWAP1 REVERT JUMPDEST DUP1 DUP1 PUSH1 0x20 ADD SWAP1 MLOAD DUP2 ADD SWAP1 PUSH2 0x14EB SWAP2 SWAP1 PUSH2 0x2260 JUMP JUMPDEST PUSH1 0x3 DUP2 SWAP1 SSTORE POP POP POP POP POP POP POP POP POP JUMP JUMPDEST PUSH1 0x2 PUSH0 SWAP1 SLOAD SWAP1 PUSH2 0x100 EXP SWAP1 DIV PUSH20 0xFFFFFFFFFFFFFFFFFFFFFFFFFFFFFFFFFFFFFFFF AND DUP2 JUMP JUMPDEST PUSH1 0x40 MLOAD DUP1 PUSH1 0x40 ADD PUSH1 0x40 MSTORE DUP1 DUP3 DUP2 MSTORE PUSH1 0x20 ADD PUSH1 0x1 ISZERO ISZERO DUP2 MSTORE POP PUSH1 0x5 PUSH0 CALLER PUSH20 0xFFFFFFFFFFFFFFFFFFFFFFFFFFFFFFFFFFFFFFFF AND PUSH20 0xFFFFFFFFFFFFFFFFFFFFFFFFFFFFFFFFFFFFFFFF AND DUP2 MSTORE PUSH1 0x20 ADD SWAP1 DUP2 MSTORE PUSH1 0x20 ADD PUSH0 KECCAK256 PUSH0 DUP3 ADD MLOAD DUP2 PUSH0 ADD SWAP1 DUP2 PUSH2 0x1588 SWAP2 SWAP1 PUSH2 0x204D JUMP JUMPDEST POP PUSH1 0x20 DUP3 ADD MLOAD DUP2 PUSH1 0x1 ADD PUSH0 PUSH2 0x100 EXP DUP2 SLOAD DUP2 PUSH1 0xFF MUL NOT AND SWAP1 DUP4 ISZERO ISZERO MUL OR SWAP1 SSTORE POP SWAP1 POP POP POP JUMP JUMPDEST PUSH1 0x5 PUSH1 0x20 MSTORE DUP1 PUSH0 MSTORE PUSH1 0x40 PUSH0 KECCAK256 PUSH0 SWAP2 POP SWAP1 POP DUP1 PUSH0 ADD DUP1 SLOAD PUSH2 0x15CD SWAP1 PUSH2 0x1E80 JUMP JUMPDEST DUP1 PUSH1 0x1F ADD PUSH1 0x20 DUP1 SWAP2 DIV MUL PUSH1 0x20 ADD PUSH1 0x40 MLOAD SWAP1 DUP2 ADD PUSH1 0x40 MSTORE DUP1 SWAP3 SWAP2 SWAP1 DUP2 DUP2 MSTORE PUSH1 0x20 ADD DUP3 DUP1 SLOAD PUSH2 0x15F9 SWAP1 PUSH2 0x1E80 JUMP JUMPDEST DUP1 ISZERO PUSH2 0x1644 JUMPI DUP1 PUSH1 0x1F LT PUSH2 0x161B JUMPI PUSH2 0x100 DUP1 DUP4 SLOAD DIV MUL DUP4 MSTORE SWAP2 PUSH1 0x20 ADD SWAP2 PUSH2 0x1644 JUMP JUMPDEST DUP3 ADD SWAP2 SWAP1 PUSH0 MSTORE PUSH1 0x20 PUSH0 KECCAK256 SWAP1 JUMPDEST DUP2 SLOAD DUP2 MSTORE SWAP1 PUSH1 0x1 ADD SWAP1 PUSH1 0x20 ADD DUP1 DUP4 GT PUSH2 0x1627 JUMPI DUP3 SWAP1 SUB PUSH1 0x1F AND DUP3 ADD SWAP2 JUMPDEST POP POP POP POP POP SWAP1 DUP1 PUSH1 0x1 ADD PUSH0 SWAP1 SLOAD SWAP1 PUSH2 0x100 EXP SWAP1 DIV PUSH1 0xFF AND SWAP1 POP DUP3 JUMP JUMPDEST PUSH0 DUP1 DUP4 DUP6 MUL SWAP1 POP PUSH0 DUP1 NOT DUP6 DUP8 MULMOD DUP3 DUP2 LT DUP4 DUP3 SUB SUB SWAP2 POP POP PUSH0 DUP2 SUB PUSH2 0x1698 JUMPI DUP4 DUP3 DUP2 PUSH2 0x168E JUMPI PUSH2 0x168D PUSH2 0x2548 JUMP JUMPDEST JUMPDEST DIV SWAP3 POP POP POP PUSH2 0x1758 JUMP JUMPDEST DUP1 DUP5 GT PUSH2 0x16D1 JUMPI PUSH1 0x40 MLOAD PUSH32 0x227BC15300000000000000000000000000000000000000000000000000000000 DUP2 MSTORE PUSH1 0x4 ADD PUSH1 0x40 MLOAD DUP1 SWAP2 SUB SWAP1 REVERT JUMPDEST PUSH0 DUP5 DUP7 DUP9 MULMOD SWAP1 POP DUP3 DUP2 GT DUP3 SUB SWAP2 POP DUP1 DUP4 SUB SWAP3 POP PUSH0 DUP6 PUSH0 SUB DUP7 AND SWAP1 POP DUP1 DUP7 DIV SWAP6 POP DUP1 DUP5 DIV SWAP4 POP PUSH1 0x1 DUP2 DUP3 PUSH0 SUB DIV ADD SWAP1 POP DUP1 DUP4 MUL DUP5 OR SWAP4 POP PUSH0 PUSH1 0x2 DUP8 PUSH1 0x3 MUL XOR SWAP1 POP DUP1 DUP8 MUL PUSH1 0x2 SUB DUP2 MUL SWAP1 POP DUP1 DUP8 MUL PUSH1 0x2 SUB DUP2 MUL SWAP1 POP DUP1 DUP8 MUL PUSH1 0x2 SUB DUP2 MUL SWAP1 POP DUP1 DUP8 MUL PUSH1 0x2 SUB DUP2 MUL SWAP1 POP DUP1 DUP8 MUL PUSH1 0x2 SUB DUP2 MUL SWAP1 POP DUP1 DUP8 MUL PUSH1 0x2 SUB DUP2 MUL SWAP1 POP DUP1 DUP6 MUL SWAP6 POP POP POP POP POP POP JUMPDEST SWAP4 SWAP3 POP POP POP JUMP JUMPDEST PUSH1 0x40 MLOAD DUP1 PUSH2 0x120 ADD PUSH1 0x40 MSTORE DUP1 PUSH0 DUP2 MSTORE PUSH1 0x20 ADD PUSH1 0x60 DUP2 MSTORE PUSH1 0x20 ADD PUSH0 PUSH20 0xFFFFFFFFFFFFFFFFFFFFFFFFFFFFFFFFFFFFFFFF AND DUP2 MSTORE PUSH1 0x20 ADD PUSH0 PUSH20 0xFFFFFFFFFFFFFFFFFFFFFFFFFFFFFFFFFFFFFFFF AND DUP2 MSTORE PUSH1 0x20 ADD PUSH0 DUP2 MSTORE PUSH1 0x20 ADD PUSH1 0x60 DUP2 MSTORE PUSH1 0x20 ADD PUSH0 DUP2 MSTORE PUSH1 0x20 ADD PUSH0 ISZERO ISZERO DUP2 MSTORE PUSH1 0x20 ADD PUSH0 ISZERO ISZERO DUP2 MSTORE POP SWAP1 JUMP JUMPDEST PUSH0 PUSH1 0x40 MLOAD SWAP1 POP SWAP1 JUMP JUMPDEST PUSH0 DUP1 REVERT JUMPDEST PUSH0 DUP1 REVERT JUMPDEST PUSH0 DUP1 REVERT JUMPDEST PUSH0 DUP1 REVERT JUMPDEST PUSH0 PUSH1 0x1F NOT PUSH1 0x1F DUP4 ADD AND SWAP1 POP SWAP2 SWAP1 POP JUMP JUMPDEST PUSH32 0x4E487B7100000000000000000000000000000000000000000000000000000000 PUSH0 MSTORE PUSH1 0x41 PUSH1 0x4 MSTORE PUSH1 0x24 PUSH0 REVERT JUMPDEST PUSH2 0x1833 DUP3 PUSH2 0x17ED JUMP JUMPDEST DUP2 ADD DUP2 DUP2 LT PUSH8 0xFFFFFFFFFFFFFFFF DUP3 GT OR ISZERO PUSH2 0x1852 JUMPI PUSH2 0x1851 PUSH2 0x17FD JUMP JUMPDEST JUMPDEST DUP1 PUSH1 0x40 MSTORE POP POP POP JUMP JUMPDEST PUSH0 PUSH2 0x1864 PUSH2 0x17D4 JUMP JUMPDEST SWAP1 POP PUSH2 0x1870 DUP3 DUP3 PUSH2 0x182A JUMP JUMPDEST SWAP2 SWAP1 POP JUMP JUMPDEST PUSH0 PUSH8 0xFFFFFFFFFFFFFFFF DUP3 GT ISZERO PUSH2 0x188F JUMPI PUSH2 0x188E PUSH2 0x17FD JUMP JUMPDEST JUMPDEST PUSH2 0x1898 DUP3 PUSH2 0x17ED JUMP JUMPDEST SWAP1 POP PUSH1 0x20 DUP2 ADD SWAP1 POP SWAP2 SWAP1 POP JUMP JUMPDEST DUP3 DUP2 DUP4 CALLDATACOPY PUSH0 DUP4 DUP4 ADD MSTORE POP POP POP JUMP JUMPDEST PUSH0 PUSH2 0x18C5 PUSH2 0x18C0 DUP5 PUSH2 0x1875 JUMP JUMPDEST PUSH2 0x185B JUMP JUMPDEST SWAP1 POP DUP3 DUP2 MSTORE PUSH1 0x20 DUP2 ADD DUP5 DUP5 DUP5 ADD GT ISZERO PUSH2 0x18E1 JUMPI PUSH2 0x18E0 PUSH2 0x17E9 JUMP JUMPDEST JUMPDEST PUSH2 0x18EC DUP5 DUP3 DUP6 PUSH2 0x18A5 JUMP JUMPDEST POP SWAP4 SWAP3 POP POP POP JUMP JUMPDEST PUSH0 DUP3 PUSH1 0x1F DUP4 ADD SLT PUSH2 0x1908 JUMPI PUSH2 0x1907 PUSH2 0x17E5 JUMP JUMPDEST JUMPDEST DUP2 CALLDATALOAD PUSH2 0x1918 DUP5 DUP3 PUSH1 0x20 DUP7 ADD PUSH2 0x18B3 JUMP JUMPDEST SWAP2 POP POP SWAP3 SWAP2 POP POP JUMP JUMPDEST PUSH0 PUSH20 0xFFFFFFFFFFFFFFFFFFFFFFFFFFFFFFFFFFFFFFFF DUP3 AND SWAP1 POP SWAP2 SWAP1 POP JUMP JUMPDEST PUSH0 PUSH2 0x194A DUP3 PUSH2 0x1921 JUMP JUMPDEST SWAP1 POP SWAP2 SWAP1 POP JUMP JUMPDEST PUSH2 0x195A DUP2 PUSH2 0x1940 JUMP JUMPDEST DUP2 EQ PUSH2 0x1964 JUMPI PUSH0 DUP1 REVERT JUMPDEST POP JUMP JUMPDEST PUSH0 DUP2 CALLDATALOAD SWAP1 POP PUSH2 0x1975 DUP2 PUSH2 0x1951 JUMP JUMPDEST SWAP3 SWAP2 POP POP JUMP JUMPDEST PUSH0 DUP2 SWAP1 POP SWAP2 SWAP1 POP JUMP JUMPDEST PUSH2 0x198D DUP2 PUSH2 0x197B JUMP JUMPDEST DUP2 EQ PUSH2 0x1997 JUMPI PUSH0 DUP1 REVERT JUMPDEST POP JUMP JUMPDEST PUSH0 DUP2 CALLDATALOAD SWAP1 POP PUSH2 0x19A8 DUP2 PUSH2 0x1984 JUMP JUMPDEST SWAP3 SWAP2 POP POP JUMP JUMPDEST PUSH0 DUP1 PUSH0 DUP1 PUSH1 0x80 DUP6 DUP8 SUB SLT ISZERO PUSH2 0x19C6 JUMPI PUSH2 0x19C5 PUSH2 0x17DD JUMP JUMPDEST JUMPDEST PUSH0 DUP6 ADD CALLDATALOAD PUSH8 0xFFFFFFFFFFFFFFFF DUP2 GT ISZERO PUSH2 0x19E3 JUMPI PUSH2 0x19E2 PUSH2 0x17E1 JUMP JUMPDEST JUMPDEST PUSH2 0x19EF DUP8 DUP3 DUP9 ADD PUSH2 0x18F4 JUMP JUMPDEST SWAP5 POP POP PUSH1 0x20 PUSH2 0x1A00 DUP8 DUP3 DUP9 ADD PUSH2 0x1967 JUMP JUMPDEST SWAP4 POP POP PUSH1 0x40 PUSH2 0x1A11 DUP8 DUP3 DUP9 ADD PUSH2 0x199A JUMP JUMPDEST SWAP3 POP POP PUSH1 0x60 DUP6 ADD CALLDATALOAD PUSH8 0xFFFFFFFFFFFFFFFF DUP2 GT ISZERO PUSH2 0x1A32 JUMPI PUSH2 0x1A31 PUSH2 0x17E1 JUMP JUMPDEST JUMPDEST PUSH2 0x1A3E DUP8 DUP3 DUP9 ADD PUSH2 0x18F4 JUMP JUMPDEST SWAP2 POP POP SWAP3 SWAP6 SWAP2 SWAP5 POP SWAP3 POP JUMP JUMPDEST PUSH0 PUSH1 0x20 DUP3 DUP5 SUB SLT ISZERO PUSH2 0x1A5F JUMPI PUSH2 0x1A5E PUSH2 0x17DD JUMP JUMPDEST JUMPDEST PUSH0 PUSH2 0x1A6C DUP5 DUP3 DUP6 ADD PUSH2 0x1967 JUMP JUMPDEST SWAP2 POP POP SWAP3 SWAP2 POP POP JUMP JUMPDEST PUSH0 DUP2 ISZERO ISZERO SWAP1 POP SWAP2 SWAP1 POP JUMP JUMPDEST PUSH2 0x1A89 DUP2 PUSH2 0x1A75 JUMP JUMPDEST DUP2 EQ PUSH2 0x1A93 JUMPI PUSH0 DUP1 REVERT JUMPDEST POP JUMP JUMPDEST PUSH0 DUP2 CALLDATALOAD SWAP1 POP PUSH2 0x1AA4 DUP2 PUSH2 0x1A80 JUMP JUMPDEST SWAP3 SWAP2 POP POP JUMP JUMPDEST PUSH0 DUP1 PUSH1 0x40 DUP4 DUP6 SUB SLT ISZERO PUSH2 0x1AC0 JUMPI PUSH2 0x1ABF PUSH2 0x17DD JUMP JUMPDEST JUMPDEST PUSH0 PUSH2 0x1ACD DUP6 DUP3 DUP7 ADD PUSH2 0x199A JUMP JUMPDEST SWAP3 POP POP PUSH1 0x20 PUSH2 0x1ADE DUP6 DUP3 DUP7 ADD PUSH2 0x1A96 JUMP JUMPDEST SWAP2 POP POP SWAP3 POP SWAP3 SWAP1 POP JUMP JUMPDEST PUSH2 0x1AF1 DUP2 PUSH2 0x197B JUMP JUMPDEST DUP3 MSTORE POP POP JUMP JUMPDEST PUSH0 PUSH1 0x20 DUP3 ADD SWAP1 POP PUSH2 0x1B0A PUSH0 DUP4 ADD DUP5 PUSH2 0x1AE8 JUMP JUMPDEST SWAP3 SWAP2 POP POP JUMP JUMPDEST PUSH0 DUP1 PUSH1 0x40 DUP4 DUP6 SUB SLT ISZERO PUSH2 0x1B26 JUMPI PUSH2 0x1B25 PUSH2 0x17DD JUMP JUMPDEST JUMPDEST PUSH0 PUSH2 0x1B33 DUP6 DUP3 DUP7 ADD PUSH2 0x199A JUMP JUMPDEST SWAP3 POP POP PUSH1 0x20 PUSH2 0x1B44 DUP6 DUP3 DUP7 ADD PUSH2 0x199A JUMP JUMPDEST SWAP2 POP POP SWAP3 POP SWAP3 SWAP1 POP JUMP JUMPDEST PUSH2 0x1B57 DUP2 PUSH2 0x1A75 JUMP JUMPDEST DUP3 MSTORE POP POP JUMP JUMPDEST PUSH0 PUSH1 0x20 DUP3 ADD SWAP1 POP PUSH2 0x1B70 PUSH0 DUP4 ADD DUP5 PUSH2 0x1B4E JUMP JUMPDEST SWAP3 SWAP2 POP POP JUMP JUMPDEST PUSH0 DUP1 PUSH1 0x40 DUP4 DUP6 SUB SLT ISZERO PUSH2 0x1B8C JUMPI PUSH2 0x1B8B PUSH2 0x17DD JUMP JUMPDEST JUMPDEST PUSH0 PUSH2 0x1B99 DUP6 DUP3 DUP7 ADD PUSH2 0x1967 JUMP JUMPDEST SWAP3 POP POP PUSH1 0x20 PUSH2 0x1BAA DUP6 DUP3 DUP7 ADD PUSH2 0x199A JUMP JUMPDEST SWAP2 POP POP SWAP3 POP SWAP3 SWAP1 POP JUMP JUMPDEST PUSH0 PUSH1 0x60 DUP3 ADD SWAP1 POP PUSH2 0x1BC7 PUSH0 DUP4 ADD DUP7 PUSH2 0x1AE8 JUMP JUMPDEST PUSH2 0x1BD4 PUSH1 0x20 DUP4 ADD DUP6 PUSH2 0x1B4E JUMP JUMPDEST PUSH2 0x1BE1 PUSH1 0x40 DUP4 ADD DUP5 PUSH2 0x1B4E JUMP JUMPDEST SWAP5 SWAP4 POP POP POP POP JUMP JUMPDEST PUSH0 PUSH1 0x20 DUP3 DUP5 SUB SLT ISZERO PUSH2 0x1BFE JUMPI PUSH2 0x1BFD PUSH2 0x17DD JUMP JUMPDEST JUMPDEST PUSH0 PUSH2 0x1C0B DUP5 DUP3 DUP6 ADD PUSH2 0x199A JUMP JUMPDEST SWAP2 POP POP SWAP3 SWAP2 POP POP JUMP JUMPDEST PUSH0 DUP2 MLOAD SWAP1 POP SWAP2 SWAP1 POP JUMP JUMPDEST PUSH0 DUP3 DUP3 MSTORE PUSH1 0x20 DUP3 ADD SWAP1 POP SWAP3 SWAP2 POP POP JUMP JUMPDEST PUSH0 JUMPDEST DUP4 DUP2 LT ISZERO PUSH2 0x1C4B JUMPI DUP1 DUP3 ADD MLOAD DUP2 DUP5 ADD MSTORE PUSH1 0x20 DUP2 ADD SWAP1 POP PUSH2 0x1C30 JUMP JUMPDEST PUSH0 DUP5 DUP5 ADD MSTORE POP POP POP POP JUMP JUMPDEST PUSH0 PUSH2 0x1C60 DUP3 PUSH2 0x1C14 JUMP JUMPDEST PUSH2 0x1C6A DUP2 DUP6 PUSH2 0x1C1E JUMP JUMPDEST SWAP4 POP PUSH2 0x1C7A DUP2 DUP6 PUSH1 0x20 DUP7 ADD PUSH2 0x1C2E JUMP JUMPDEST PUSH2 0x1C83 DUP2 PUSH2 0x17ED JUMP JUMPDEST DUP5 ADD SWAP2 POP POP SWAP3 SWAP2 POP POP JUMP JUMPDEST PUSH2 0x1C97 DUP2 PUSH2 0x1940 JUMP JUMPDEST DUP3 MSTORE POP POP JUMP JUMPDEST PUSH0 PUSH2 0x120 DUP3 ADD SWAP1 POP PUSH2 0x1CB1 PUSH0 DUP4 ADD DUP13 PUSH2 0x1AE8 JUMP JUMPDEST DUP2 DUP2 SUB PUSH1 0x20 DUP4 ADD MSTORE PUSH2 0x1CC3 DUP2 DUP12 PUSH2 0x1C56 JUMP JUMPDEST SWAP1 POP PUSH2 0x1CD2 PUSH1 0x40 DUP4 ADD DUP11 PUSH2 0x1C8E JUMP JUMPDEST PUSH2 0x1CDF PUSH1 0x60 DUP4 ADD DUP10 PUSH2 0x1C8E JUMP JUMPDEST PUSH2 0x1CEC PUSH1 0x80 DUP4 ADD DUP9 PUSH2 0x1AE8 JUMP JUMPDEST DUP2 DUP2 SUB PUSH1 0xA0 DUP4 ADD MSTORE PUSH2 0x1CFE DUP2 DUP8 PUSH2 0x1C56 JUMP JUMPDEST SWAP1 POP PUSH2 0x1D0D PUSH1 0xC0 DUP4 ADD DUP7 PUSH2 0x1AE8 JUMP JUMPDEST PUSH2 0x1D1A PUSH1 0xE0 DUP4 ADD DUP6 PUSH2 0x1B4E JUMP JUMPDEST PUSH2 0x1D28 PUSH2 0x100 DUP4 ADD DUP5 PUSH2 0x1B4E JUMP JUMPDEST SWAP11 SWAP10 POP POP POP POP POP POP POP POP POP POP JUMP JUMPDEST PUSH0 PUSH1 0x40 DUP3 ADD SWAP1 POP PUSH2 0x1D49 PUSH0 DUP4 ADD DUP6 PUSH2 0x1AE8 JUMP JUMPDEST PUSH2 0x1D56 PUSH1 0x20 DUP4 ADD DUP5 PUSH2 0x1AE8 JUMP JUMPDEST SWAP4 SWAP3 POP POP POP JUMP JUMPDEST PUSH0 PUSH1 0x20 DUP3 ADD SWAP1 POP PUSH2 0x1D70 PUSH0 DUP4 ADD DUP5 PUSH2 0x1C8E JUMP JUMPDEST SWAP3 SWAP2 POP POP JUMP JUMPDEST PUSH0 PUSH1 0x20 DUP3 DUP5 SUB SLT ISZERO PUSH2 0x1D8B JUMPI PUSH2 0x1D8A PUSH2 0x17DD JUMP JUMPDEST JUMPDEST PUSH0 DUP3 ADD CALLDATALOAD PUSH8 0xFFFFFFFFFFFFFFFF DUP2 GT ISZERO PUSH2 0x1DA8 JUMPI PUSH2 0x1DA7 PUSH2 0x17E1 JUMP JUMPDEST JUMPDEST PUSH2 0x1DB4 DUP5 DUP3 DUP6 ADD PUSH2 0x18F4 JUMP JUMPDEST SWAP2 POP POP SWAP3 SWAP2 POP POP JUMP JUMPDEST PUSH0 PUSH1 0x40 DUP3 ADD SWAP1 POP DUP2 DUP2 SUB PUSH0 DUP4 ADD MSTORE PUSH2 0x1DD5 DUP2 DUP6 PUSH2 0x1C56 JUMP JUMPDEST SWAP1 POP PUSH2 0x1DE4 PUSH1 0x20 DUP4 ADD DUP5 PUSH2 0x1B4E JUMP JUMPDEST SWAP4 SWAP3 POP POP POP JUMP JUMPDEST PUSH32 0x4E4F542041204D454D4245520000000000000000000000000000000000000000 PUSH0 DUP3 ADD MSTORE POP JUMP JUMPDEST PUSH0 PUSH2 0x1E1F PUSH1 0xC DUP4 PUSH2 0x1C1E JUMP JUMPDEST SWAP2 POP PUSH2 0x1E2A DUP3 PUSH2 0x1DEB JUMP JUMPDEST PUSH1 0x20 DUP3 ADD SWAP1 POP SWAP2 SWAP1 POP JUMP JUMPDEST PUSH0 PUSH1 0x20 DUP3 ADD SWAP1 POP DUP2 DUP2 SUB PUSH0 DUP4 ADD MSTORE PUSH2 0x1E4C DUP2 PUSH2 0x1E13 JUMP JUMPDEST SWAP1 POP SWAP2 SWAP1 POP JUMP JUMPDEST PUSH32 0x4E487B7100000000000000000000000000000000000000000000000000000000 PUSH0 MSTORE PUSH1 0x22 PUSH1 0x4 MSTORE PUSH1 0x24 PUSH0 REVERT JUMPDEST PUSH0 PUSH1 0x2 DUP3 DIV SWAP1 POP PUSH1 0x1 DUP3 AND DUP1 PUSH2 0x1E97 JUMPI PUSH1 0x7F DUP3 AND SWAP2 POP JUMPDEST PUSH1 0x20 DUP3 LT DUP2 SUB PUSH2 0x1EAA JUMPI PUSH2 0x1EA9 PUSH2 0x1E53 JUMP JUMPDEST JUMPDEST POP SWAP2 SWAP1 POP JUMP JUMPDEST PUSH0 DUP2 SWAP1 POP DUP2 PUSH0 MSTORE PUSH1 0x20 PUSH0 KECCAK256 SWAP1 POP SWAP2 SWAP1 POP JUMP JUMPDEST PUSH0 PUSH1 0x20 PUSH1 0x1F DUP4 ADD DIV SWAP1 POP SWAP2 SWAP1 POP JUMP JUMPDEST PUSH0 DUP3 DUP3 SHL SWAP1 POP SWAP3 SWAP2 POP POP JUMP JUMPDEST PUSH0 PUSH1 0x8 DUP4 MUL PUSH2 0x1F0C PUSH32 0xFFFFFFFFFFFFFFFFFFFFFFFFFFFFFFFFFFFFFFFFFFFFFFFFFFFFFFFFFFFFFFFF DUP3 PUSH2 0x1ED1 JUMP JUMPDEST PUSH2 0x1F16 DUP7 DUP4 PUSH2 0x1ED1 JUMP JUMPDEST SWAP6 POP DUP1 NOT DUP5 AND SWAP4 POP DUP1 DUP7 AND DUP5 OR SWAP3 POP POP POP SWAP4 SWAP3 POP POP POP JUMP JUMPDEST PUSH0 DUP2 SWAP1 POP SWAP2 SWAP1 POP JUMP JUMPDEST PUSH0 PUSH2 0x1F51 PUSH2 0x1F4C PUSH2 0x1F47 DUP5 PUSH2 0x197B JUMP JUMPDEST PUSH2 0x1F2E JUMP JUMPDEST PUSH2 0x197B JUMP JUMPDEST SWAP1 POP SWAP2 SWAP1 POP JUMP JUMPDEST PUSH0 DUP2 SWAP1 POP SWAP2 SWAP1 POP JUMP JUMPDEST PUSH2 0x1F6A DUP4 PUSH2 0x1F37 JUMP JUMPDEST PUSH2 0x1F7E PUSH2 0x1F76 DUP3 PUSH2 0x1F58 JUMP JUMPDEST DUP5 DUP5 SLOAD PUSH2 0x1EDD JUMP JUMPDEST DUP3 SSTORE POP POP POP POP JUMP JUMPDEST PUSH0 SWAP1 JUMP JUMPDEST PUSH2 0x1F92 PUSH2 0x1F86 JUMP JUMPDEST PUSH2 0x1F9D DUP2 DUP5 DUP5 PUSH2 0x1F61 JUMP JUMPDEST POP POP POP JUMP JUMPDEST JUMPDEST DUP2 DUP2 LT ISZERO PUSH2 0x1FC0 JUMPI PUSH2 0x1FB5 PUSH0 DUP3 PUSH2 0x1F8A JUMP JUMPDEST PUSH1 0x1 DUP2 ADD SWAP1 POP PUSH2 0x1FA3 JUMP JUMPDEST POP POP JUMP JUMPDEST PUSH1 0x1F DUP3 GT ISZERO PUSH2 0x2005 JUMPI PUSH2 0x1FD6 DUP2 PUSH2 0x1EB0 JUMP JUMPDEST PUSH2 0x1FDF DUP5 PUSH2 0x1EC2 JUMP JUMPDEST DUP2 ADD PUSH1 0x20 DUP6 LT ISZERO PUSH2 0x1FEE JUMPI DUP2 SWAP1 POP JUMPDEST PUSH2 0x2002 PUSH2 0x1FFA DUP6 PUSH2 0x1EC2 JUMP JUMPDEST DUP4 ADD DUP3 PUSH2 0x1FA2 JUMP JUMPDEST POP POP JUMPDEST POP POP POP JUMP JUMPDEST PUSH0 DUP3 DUP3 SHR SWAP1 POP SWAP3 SWAP2 POP POP JUMP JUMPDEST PUSH0 PUSH2 0x2025 PUSH0 NOT DUP5 PUSH1 0x8 MUL PUSH2 0x200A JUMP JUMPDEST NOT DUP1 DUP4 AND SWAP2 POP POP SWAP3 SWAP2 POP POP JUMP JUMPDEST PUSH0 PUSH2 0x203D DUP4 DUP4 PUSH2 0x2016 JUMP JUMPDEST SWAP2 POP DUP3 PUSH1 0x2 MUL DUP3 OR SWAP1 POP SWAP3 SWAP2 POP POP JUMP JUMPDEST PUSH2 0x2056 DUP3 PUSH2 0x1C14 JUMP JUMPDEST PUSH8 0xFFFFFFFFFFFFFFFF DUP2 GT ISZERO PUSH2 0x206F JUMPI PUSH2 0x206E PUSH2 0x17FD JUMP JUMPDEST JUMPDEST PUSH2 0x2079 DUP3 SLOAD PUSH2 0x1E80 JUMP JUMPDEST PUSH2 0x2084 DUP3 DUP3 DUP6 PUSH2 0x1FC4 JUMP JUMPDEST PUSH0 PUSH1 0x20 SWAP1 POP PUSH1 0x1F DUP4 GT PUSH1 0x1 DUP2 EQ PUSH2 0x20B5 JUMPI PUSH0 DUP5 ISZERO PUSH2 0x20A3 JUMPI DUP3 DUP8 ADD MLOAD SWAP1 POP JUMPDEST PUSH2 0x20AD DUP6 DUP3 PUSH2 0x2032 JUMP JUMPDEST DUP7 SSTORE POP PUSH2 0x2114 JUMP JUMPDEST PUSH1 0x1F NOT DUP5 AND PUSH2 0x20C3 DUP7 PUSH2 0x1EB0 JUMP JUMPDEST PUSH0 JUMPDEST DUP3 DUP2 LT ISZERO PUSH2 0x20EA JUMPI DUP5 DUP10 ADD MLOAD DUP3 SSTORE PUSH1 0x1 DUP3 ADD SWAP2 POP PUSH1 0x20 DUP6 ADD SWAP5 POP PUSH1 0x20 DUP2 ADD SWAP1 POP PUSH2 0x20C5 JUMP JUMPDEST DUP7 DUP4 LT ISZERO PUSH2 0x2107 JUMPI DUP5 DUP10 ADD MLOAD PUSH2 0x2103 PUSH1 0x1F DUP10 AND DUP3 PUSH2 0x2016 JUMP JUMPDEST DUP4 SSTORE POP JUMPDEST PUSH1 0x1 PUSH1 0x2 DUP9 MUL ADD DUP9 SSTORE POP POP POP JUMPDEST POP POP POP POP POP POP JUMP JUMPDEST PUSH32 0x4E487B7100000000000000000000000000000000000000000000000000000000 PUSH0 MSTORE PUSH1 0x11 PUSH1 0x4 MSTORE PUSH1 0x24 PUSH0 REVERT JUMPDEST PUSH0 PUSH2 0x2153 DUP3 PUSH2 0x197B JUMP JUMPDEST SWAP2 POP PUSH2 0x215E DUP4 PUSH2 0x197B JUMP JUMPDEST SWAP3 POP DUP3 DUP3 ADD SWAP1 POP DUP1 DUP3 GT ISZERO PUSH2 0x2176 JUMPI PUSH2 0x2175 PUSH2 0x211C JUMP JUMPDEST JUMPDEST SWAP3 SWAP2 POP POP JUMP JUMPDEST PUSH32 0x4E4F5420412056414C49442043414C4C45520000000000000000000000000000 PUSH0 DUP3 ADD MSTORE POP JUMP JUMPDEST PUSH0 PUSH2 0x21B0 PUSH1 0x12 DUP4 PUSH2 0x1C1E JUMP JUMPDEST SWAP2 POP PUSH2 0x21BB DUP3 PUSH2 0x217C JUMP JUMPDEST PUSH1 0x20 DUP3 ADD SWAP1 POP SWAP2 SWAP1 POP JUMP JUMPDEST PUSH0 PUSH1 0x20 DUP3 ADD SWAP1 POP DUP2 DUP2 SUB PUSH0 DUP4 ADD MSTORE PUSH2 0x21DD DUP2 PUSH2 0x21A4 JUMP JUMPDEST SWAP1 POP SWAP2 SWAP1 POP JUMP JUMPDEST PUSH32 0x564F54494E4720504552494F442048415320454C415053454400000000000000 PUSH0 DUP3 ADD MSTORE POP JUMP JUMPDEST PUSH0 PUSH2 0x2218 PUSH1 0x19 DUP4 PUSH2 0x1C1E JUMP JUMPDEST SWAP2 POP PUSH2 0x2223 DUP3 PUSH2 0x21E4 JUMP JUMPDEST PUSH1 0x20 DUP3 ADD SWAP1 POP SWAP2 SWAP1 POP JUMP JUMPDEST PUSH0 PUSH1 0x20 DUP3 ADD SWAP1 POP DUP2 DUP2 SUB PUSH0 DUP4 ADD MSTORE PUSH2 0x2245 DUP2 PUSH2 0x220C JUMP JUMPDEST SWAP1 POP SWAP2 SWAP1 POP JUMP JUMPDEST PUSH0 DUP2 MLOAD SWAP1 POP PUSH2 0x225A DUP2 PUSH2 0x1984 JUMP JUMPDEST SWAP3 SWAP2 POP POP JUMP JUMPDEST PUSH0 PUSH1 0x20 DUP3 DUP5 SUB SLT ISZERO PUSH2 0x2275 JUMPI PUSH2 0x2274 PUSH2 0x17DD JUMP JUMPDEST JUMPDEST PUSH0 PUSH2 0x2282 DUP5 DUP3 DUP6 ADD PUSH2 0x224C JUMP JUMPDEST SWAP2 POP POP SWAP3 SWAP2 POP POP JUMP JUMPDEST PUSH32 0x594F55204D55535420504F5353455320544F4B454E7320544F20424520414E20 PUSH0 DUP3 ADD MSTORE PUSH32 0x454C494749424C4520564F544552000000000000000000000000000000000000 PUSH1 0x20 DUP3 ADD MSTORE POP JUMP JUMPDEST PUSH0 PUSH2 0x22E5 PUSH1 0x2E DUP4 PUSH2 0x1C1E JUMP JUMPDEST SWAP2 POP PUSH2 0x22F0 DUP3 PUSH2 0x228B JUMP JUMPDEST PUSH1 0x40 DUP3 ADD SWAP1 POP SWAP2 SWAP1 POP JUMP JUMPDEST PUSH0 PUSH1 0x20 DUP3 ADD SWAP1 POP DUP2 DUP2 SUB PUSH0 DUP4 ADD MSTORE PUSH2 0x2312 DUP2 PUSH2 0x22D9 JUMP JUMPDEST SWAP1 POP SWAP2 SWAP1 POP JUMP JUMPDEST PUSH32 0x4D454D424552532043414E204F4E4C592043415354204120564F544520504552 PUSH0 DUP3 ADD MSTORE PUSH32 0x20544F5049430000000000000000000000000000000000000000000000000000 PUSH1 0x20 DUP3 ADD MSTORE POP JUMP JUMPDEST PUSH0 PUSH2 0x2373 PUSH1 0x26 DUP4 PUSH2 0x1C1E JUMP JUMPDEST SWAP2 POP PUSH2 0x237E DUP3 PUSH2 0x2319 JUMP JUMPDEST PUSH1 0x40 DUP3 ADD SWAP1 POP SWAP2 SWAP1 POP JUMP JUMPDEST PUSH0 PUSH1 0x20 DUP3 ADD SWAP1 POP DUP2 DUP2 SUB PUSH0 DUP4 ADD MSTORE PUSH2 0x23A0 DUP2 PUSH2 0x2367 JUMP JUMPDEST SWAP1 POP SWAP2 SWAP1 POP JUMP JUMPDEST PUSH0 PUSH1 0x40 DUP3 ADD SWAP1 POP PUSH2 0x23BA PUSH0 DUP4 ADD DUP6 PUSH2 0x1AE8 JUMP JUMPDEST PUSH2 0x23C7 PUSH1 0x20 DUP4 ADD DUP5 PUSH2 0x1B4E JUMP JUMPDEST SWAP4 SWAP3 POP POP POP JUMP JUMPDEST PUSH32 0x5448524553484F4C44204E4F5420455843454544454400000000000000000000 PUSH0 DUP3 ADD MSTORE POP JUMP JUMPDEST PUSH0 PUSH2 0x2402 PUSH1 0x16 DUP4 PUSH2 0x1C1E JUMP JUMPDEST SWAP2 POP PUSH2 0x240D DUP3 PUSH2 0x23CE JUMP JUMPDEST PUSH1 0x20 DUP3 ADD SWAP1 POP SWAP2 SWAP1 POP JUMP JUMPDEST PUSH0 PUSH1 0x20 DUP3 ADD SWAP1 POP DUP2 DUP2 SUB PUSH0 DUP4 ADD MSTORE PUSH2 0x242F DUP2 PUSH2 0x23F6 JUMP JUMPDEST SWAP1 POP SWAP2 SWAP1 POP JUMP JUMPDEST PUSH0 DUP2 SWAP1 POP SWAP3 SWAP2 POP POP JUMP JUMPDEST PUSH0 PUSH2 0x244A DUP3 PUSH2 0x1C14 JUMP JUMPDEST PUSH2 0x2454 DUP2 DUP6 PUSH2 0x2436 JUMP JUMPDEST SWAP4 POP PUSH2 0x2464 DUP2 DUP6 PUSH1 0x20 DUP7 ADD PUSH2 0x1C2E JUMP JUMPDEST DUP1 DUP5 ADD SWAP2 POP POP SWAP3 SWAP2 POP POP JUMP JUMPDEST PUSH0 PUSH2 0x247B DUP3 DUP5 PUSH2 0x2440 JUMP JUMPDEST SWAP2 POP DUP2 SWAP1 POP SWAP3 SWAP2 POP POP JUMP JUMPDEST PUSH0 DUP2 MLOAD SWAP1 POP SWAP2 SWAP1 POP JUMP JUMPDEST PUSH0 DUP2 SWAP1 POP SWAP3 SWAP2 POP POP JUMP JUMPDEST PUSH0 PUSH2 0x24A4 DUP3 PUSH2 0x2486 JUMP JUMPDEST PUSH2 0x24AE DUP2 DUP6 PUSH2 0x2490 JUMP JUMPDEST SWAP4 POP PUSH2 0x24BE DUP2 DUP6 PUSH1 0x20 DUP7 ADD PUSH2 0x1C2E JUMP JUMPDEST DUP1 DUP5 ADD SWAP2 POP POP SWAP3 SWAP2 POP POP JUMP JUMPDEST PUSH0 PUSH2 0x24D5 DUP3 DUP5 PUSH2 0x249A JUMP JUMPDEST SWAP2 POP DUP2 SWAP1 POP SWAP3 SWAP2 POP POP JUMP JUMPDEST PUSH32 0x4641494C454420544F20494D504C454D454E5400000000000000000000000000 PUSH0 DUP3 ADD MSTORE POP JUMP JUMPDEST PUSH0 PUSH2 0x2514 PUSH1 0x13 DUP4 PUSH2 0x1C1E JUMP JUMPDEST SWAP2 POP PUSH2 0x251F DUP3 PUSH2 0x24E0 JUMP JUMPDEST PUSH1 0x20 DUP3 ADD SWAP1 POP SWAP2 SWAP1 POP JUMP JUMPDEST PUSH0 PUSH1 0x20 DUP3 ADD SWAP1 POP DUP2 DUP2 SUB PUSH0 DUP4 ADD MSTORE PUSH2 0x2541 DUP2 PUSH2 0x2508 JUMP JUMPDEST SWAP1 POP SWAP2 SWAP1 POP JUMP JUMPDEST PUSH32 0x4E487B7100000000000000000000000000000000000000000000000000000000 PUSH0 MSTORE PUSH1 0x12 PUSH1 0x4 MSTORE PUSH1 0x24 PUSH0 REVERT INVALID LOG2 PUSH5 0x6970667358 0x22 SLT KECCAK256 0x4F 0xF6 0x2C 0x21 MSTORE SWAP7 PUSH5 0xDEA45D6B34 0xE1 COINBASE EXTCODESIZE SWAP4 SAR NUMBER 0xD5 PUSH4 0xD46F6962 BALANCE 0xB2 LOG0 0xB6 CREATE CALLCODE STOP 0xB3 PUSH5 0x736F6C6343 STOP ADDMOD AND STOP CALLER "
				},
				"gasEstimates": {
					"creation": {
						"codeDepositCost": "1928600",
						"executionCost": "infinite",
						"totalCost": "infinite"
					},
					"external": {
						"Members(address)": "infinite",
						"Topics(uint256)": "infinite",
						"UPGRADE()": "2689",
						"ballots(address,uint256)": "infinite",
						"cast_vote(uint256,bool)": "infinite",
						"counter()": "2470",
						"implement_decision(uint256)": "infinite",
						"implementation_delay()": "2492",
						"initiate_topic(string,address,uint256,string)": "infinite",
						"quorum(uint256,uint256)": "infinite",
						"register(string)": "infinite",
						"returned()": "2514",
						"setOwner(address)": "27088",
						"utility_token_address()": "2552",
						"votes(uint256)": "infinite",
						"voting_duration()": "2514"
					}
				},
				"methodIdentifiers": {
					"Members(address)": "fd0f0166",
					"Topics(uint256)": "5bb6d284",
					"UPGRADE()": "37852d99",
					"ballots(address,uint256)": "54b598ec",
					"cast_vote(uint256,bool)": "1c8dd214",
					"counter()": "61bc221a",
					"implement_decision(uint256)": "a060acfa",
					"implementation_delay()": "67358c96",
					"initiate_topic(string,address,uint256,string)": "0befdc15",
					"quorum(uint256,uint256)": "47411226",
					"register(string)": "f2c298be",
					"returned()": "6cb76408",
					"setOwner(address)": "13af4035",
					"utility_token_address()": "a0a67c58",
					"votes(uint256)": "5df81330",
					"voting_duration()": "3153cebc"
				}
			},
			"storageLayout": {
				"storage": [
					{
						"astId": 1503,
						"contract": "backEnd/contracts/BUNN_Governor_Proxy.sol:BUNN_GOVERNOR",
						"label": "voting_duration",
						"offset": 0,
						"slot": "0",
						"type": "t_uint256"
					},
					{
						"astId": 1506,
						"contract": "backEnd/contracts/BUNN_Governor_Proxy.sol:BUNN_GOVERNOR",
						"label": "implementation_delay",
						"offset": 0,
						"slot": "1",
						"type": "t_uint256"
					},
					{
						"astId": 1061,
						"contract": "backEnd/contracts/BUNN_Governor_Proxy.sol:BUNN_GOVERNOR",
						"label": "utility_token_address",
						"offset": 0,
						"slot": "2",
						"type": "t_address"
					},
					{
						"astId": 1063,
						"contract": "backEnd/contracts/BUNN_Governor_Proxy.sol:BUNN_GOVERNOR",
						"label": "returned",
						"offset": 0,
						"slot": "3",
						"type": "t_uint256"
					},
					{
						"astId": 1067,
						"contract": "backEnd/contracts/BUNN_Governor_Proxy.sol:BUNN_GOVERNOR",
						"label": "admin",
						"offset": 0,
						"slot": "4",
						"type": "t_mapping(t_address,t_bool)"
					},
					{
						"astId": 1077,
						"contract": "backEnd/contracts/BUNN_Governor_Proxy.sol:BUNN_GOVERNOR",
						"label": "Members",
						"offset": 0,
						"slot": "5",
						"type": "t_mapping(t_address,t_struct(Member)1072_storage)"
					},
					{
						"astId": 1091,
						"contract": "backEnd/contracts/BUNN_Governor_Proxy.sol:BUNN_GOVERNOR",
						"label": "ballots",
						"offset": 0,
						"slot": "6",
						"type": "t_mapping(t_address,t_mapping(t_uint256,t_struct(ballot)1084_storage))"
					},
					{
						"astId": 1101,
						"contract": "backEnd/contracts/BUNN_Governor_Proxy.sol:BUNN_GOVERNOR",
						"label": "votes",
						"offset": 0,
						"slot": "7",
						"type": "t_mapping(t_uint256,t_struct(vote)1096_storage)"
					},
					{
						"astId": 1123,
						"contract": "backEnd/contracts/BUNN_Governor_Proxy.sol:BUNN_GOVERNOR",
						"label": "counter",
						"offset": 0,
						"slot": "8",
						"type": "t_uint256"
					},
					{
						"astId": 1128,
						"contract": "backEnd/contracts/BUNN_Governor_Proxy.sol:BUNN_GOVERNOR",
						"label": "Topics",
						"offset": 0,
						"slot": "9",
						"type": "t_mapping(t_uint256,t_struct(Topic)1120_storage)"
					}
				],
				"types": {
					"t_address": {
						"encoding": "inplace",
						"label": "address",
						"numberOfBytes": "20"
					},
					"t_bool": {
						"encoding": "inplace",
						"label": "bool",
						"numberOfBytes": "1"
					},
					"t_mapping(t_address,t_bool)": {
						"encoding": "mapping",
						"key": "t_address",
						"label": "mapping(address => bool)",
						"numberOfBytes": "32",
						"value": "t_bool"
					},
					"t_mapping(t_address,t_mapping(t_uint256,t_struct(ballot)1084_storage))": {
						"encoding": "mapping",
						"key": "t_address",
						"label": "mapping(address => mapping(uint256 => struct BUNN_GOVERNOR.ballot))",
						"numberOfBytes": "32",
						"value": "t_mapping(t_uint256,t_struct(ballot)1084_storage)"
					},
					"t_mapping(t_address,t_struct(Member)1072_storage)": {
						"encoding": "mapping",
						"key": "t_address",
						"label": "mapping(address => struct BUNN_GOVERNOR.Member)",
						"numberOfBytes": "32",
						"value": "t_struct(Member)1072_storage"
					},
					"t_mapping(t_uint256,t_struct(Topic)1120_storage)": {
						"encoding": "mapping",
						"key": "t_uint256",
						"label": "mapping(uint256 => struct BUNN_GOVERNOR.Topic)",
						"numberOfBytes": "32",
						"value": "t_struct(Topic)1120_storage"
					},
					"t_mapping(t_uint256,t_struct(ballot)1084_storage)": {
						"encoding": "mapping",
						"key": "t_uint256",
						"label": "mapping(uint256 => struct BUNN_GOVERNOR.ballot)",
						"numberOfBytes": "32",
						"value": "t_struct(ballot)1084_storage"
					},
					"t_mapping(t_uint256,t_struct(vote)1096_storage)": {
						"encoding": "mapping",
						"key": "t_uint256",
						"label": "mapping(uint256 => struct BUNN_GOVERNOR.vote)",
						"numberOfBytes": "32",
						"value": "t_struct(vote)1096_storage"
					},
					"t_string_storage": {
						"encoding": "bytes",
						"label": "string",
						"numberOfBytes": "32"
					},
					"t_struct(Member)1072_storage": {
						"encoding": "inplace",
						"label": "struct BUNN_GOVERNOR.Member",
						"members": [
							{
								"astId": 1069,
								"contract": "backEnd/contracts/BUNN_Governor_Proxy.sol:BUNN_GOVERNOR",
								"label": "name",
								"offset": 0,
								"slot": "0",
								"type": "t_string_storage"
							},
							{
								"astId": 1071,
								"contract": "backEnd/contracts/BUNN_Governor_Proxy.sol:BUNN_GOVERNOR",
								"label": "belongs",
								"offset": 0,
								"slot": "1",
								"type": "t_bool"
							}
						],
						"numberOfBytes": "64"
					},
					"t_struct(Topic)1120_storage": {
						"encoding": "inplace",
						"label": "struct BUNN_GOVERNOR.Topic",
						"members": [
							{
								"astId": 1103,
								"contract": "backEnd/contracts/BUNN_Governor_Proxy.sol:BUNN_GOVERNOR",
								"label": "id",
								"offset": 0,
								"slot": "0",
								"type": "t_uint256"
							},
							{
								"astId": 1105,
								"contract": "backEnd/contracts/BUNN_Governor_Proxy.sol:BUNN_GOVERNOR",
								"label": "Title",
								"offset": 0,
								"slot": "1",
								"type": "t_string_storage"
							},
							{
								"astId": 1107,
								"contract": "backEnd/contracts/BUNN_Governor_Proxy.sol:BUNN_GOVERNOR",
								"label": "initiator",
								"offset": 0,
								"slot": "2",
								"type": "t_address"
							},
							{
								"astId": 1109,
								"contract": "backEnd/contracts/BUNN_Governor_Proxy.sol:BUNN_GOVERNOR",
								"label": "implementation_contract_address",
								"offset": 0,
								"slot": "3",
								"type": "t_address"
							},
							{
								"astId": 1111,
								"contract": "backEnd/contracts/BUNN_Governor_Proxy.sol:BUNN_GOVERNOR",
								"label": "implementation_contract_argument",
								"offset": 0,
								"slot": "4",
								"type": "t_uint256"
							},
							{
								"astId": 1113,
								"contract": "backEnd/contracts/BUNN_Governor_Proxy.sol:BUNN_GOVERNOR",
								"label": "signature",
								"offset": 0,
								"slot": "5",
								"type": "t_string_storage"
							},
							{
								"astId": 1115,
								"contract": "backEnd/contracts/BUNN_Governor_Proxy.sol:BUNN_GOVERNOR",
								"label": "start_time",
								"offset": 0,
								"slot": "6",
								"type": "t_uint256"
							},
							{
								"astId": 1117,
								"contract": "backEnd/contracts/BUNN_Governor_Proxy.sol:BUNN_GOVERNOR",
								"label": "executed",
								"offset": 0,
								"slot": "7",
								"type": "t_bool"
							},
							{
								"astId": 1119,
								"contract": "backEnd/contracts/BUNN_Governor_Proxy.sol:BUNN_GOVERNOR",
								"label": "cancelled",
								"offset": 1,
								"slot": "7",
								"type": "t_bool"
							}
						],
						"numberOfBytes": "256"
					},
					"t_struct(ballot)1084_storage": {
						"encoding": "inplace",
						"label": "struct BUNN_GOVERNOR.ballot",
						"members": [
							{
								"astId": 1079,
								"contract": "backEnd/contracts/BUNN_Governor_Proxy.sol:BUNN_GOVERNOR",
								"label": "Topic_ID",
								"offset": 0,
								"slot": "0",
								"type": "t_uint256"
							},
							{
								"astId": 1081,
								"contract": "backEnd/contracts/BUNN_Governor_Proxy.sol:BUNN_GOVERNOR",
								"label": "position",
								"offset": 0,
								"slot": "1",
								"type": "t_bool"
							},
							{
								"astId": 1083,
								"contract": "backEnd/contracts/BUNN_Governor_Proxy.sol:BUNN_GOVERNOR",
								"label": "voted",
								"offset": 1,
								"slot": "1",
								"type": "t_bool"
							}
						],
						"numberOfBytes": "64"
					},
					"t_struct(vote)1096_storage": {
						"encoding": "inplace",
						"label": "struct BUNN_GOVERNOR.vote",
						"members": [
							{
								"astId": 1093,
								"contract": "backEnd/contracts/BUNN_Governor_Proxy.sol:BUNN_GOVERNOR",
								"label": "for_votes",
								"offset": 0,
								"slot": "0",
								"type": "t_uint256"
							},
							{
								"astId": 1095,
								"contract": "backEnd/contracts/BUNN_Governor_Proxy.sol:BUNN_GOVERNOR",
								"label": "against_votes",
								"offset": 0,
								"slot": "1",
								"type": "t_uint256"
							}
						],
						"numberOfBytes": "64"
					},
					"t_uint256": {
						"encoding": "inplace",
						"label": "uint256",
						"numberOfBytes": "32"
					}
				}
			},
			"userdoc": {
				"kind": "user",
				"methods": {},
				"version": 1
			}
		}
	}
}