{
	"backEnd/contracts/BUNN_Governor_Proxy.sol": {
		"BUNN_GOVERNOR": {
			"abi": [
				{
					"inputs": [
						{
							"internalType": "address",
							"name": "UTA",
							"type": "address"
						}
					],
					"stateMutability": "nonpayable",
					"type": "constructor"
				},
				{
					"inputs": [],
					"name": "MathOverflowedMulDiv",
					"type": "error"
				},
				{
					"anonymous": false,
					"inputs": [
						{
							"indexed": false,
							"internalType": "uint256",
							"name": "topic_acted_on",
							"type": "uint256"
						},
						{
							"indexed": false,
							"internalType": "bool",
							"name": "implemented",
							"type": "bool"
						},
						{
							"indexed": false,
							"internalType": "bytes",
							"name": "data",
							"type": "bytes"
						}
					],
					"name": "decision_implemented",
					"type": "event"
				},
				{
					"anonymous": false,
					"inputs": [
						{
							"indexed": false,
							"internalType": "uint256",
							"name": "topic_acted_on",
							"type": "uint256"
						},
						{
							"indexed": true,
							"internalType": "address",
							"name": "proposer",
							"type": "address"
						}
					],
					"name": "proposal_made",
					"type": "event"
				},
				{
					"anonymous": false,
					"inputs": [
						{
							"indexed": true,
							"internalType": "address",
							"name": "participant",
							"type": "address"
						},
						{
							"indexed": false,
							"internalType": "uint256",
							"name": "topic_acted_on",
							"type": "uint256"
						},
						{
							"indexed": false,
							"internalType": "bool",
							"name": "position",
							"type": "bool"
						}
					],
					"name": "vote_cast",
					"type": "event"
				},
				{
					"inputs": [
						{
							"internalType": "address",
							"name": "",
							"type": "address"
						}
					],
					"name": "Members",
					"outputs": [
						{
							"internalType": "string",
							"name": "name",
							"type": "string"
						},
						{
							"internalType": "bool",
							"name": "belongs",
							"type": "bool"
						}
					],
					"stateMutability": "view",
					"type": "function"
				},
				{
					"inputs": [
						{
							"internalType": "uint256",
							"name": "",
							"type": "uint256"
						}
					],
					"name": "Topics",
					"outputs": [
						{
							"internalType": "uint256",
							"name": "id",
							"type": "uint256"
						},
						{
							"internalType": "string",
							"name": "Title",
							"type": "string"
						},
						{
							"internalType": "address",
							"name": "initiator",
							"type": "address"
						},
						{
							"internalType": "address",
							"name": "implementation_contract_address",
							"type": "address"
						},
						{
							"internalType": "uint256",
							"name": "implementation_contract_argument",
							"type": "uint256"
						},
						{
							"internalType": "string",
							"name": "signature",
							"type": "string"
						},
						{
							"internalType": "uint256",
							"name": "start_time",
							"type": "uint256"
						},
						{
							"internalType": "bool",
							"name": "executed",
							"type": "bool"
						},
						{
							"internalType": "bool",
							"name": "cancelled",
							"type": "bool"
						}
					],
					"stateMutability": "view",
					"type": "function"
				},
				{
					"inputs": [
						{
							"internalType": "address",
							"name": "",
							"type": "address"
						},
						{
							"internalType": "uint256",
							"name": "",
							"type": "uint256"
						}
					],
					"name": "ballots",
					"outputs": [
						{
							"internalType": "uint256",
							"name": "Topic_ID",
							"type": "uint256"
						},
						{
							"internalType": "bool",
							"name": "position",
							"type": "bool"
						},
						{
							"internalType": "bool",
							"name": "voted",
							"type": "bool"
						}
					],
					"stateMutability": "view",
					"type": "function"
				},
				{
					"inputs": [
						{
							"internalType": "uint256",
							"name": "topic_id",
							"type": "uint256"
						},
						{
							"internalType": "bool",
							"name": "position_",
							"type": "bool"
						}
					],
					"name": "cast_vote",
					"outputs": [],
					"stateMutability": "nonpayable",
					"type": "function"
				},
				{
					"inputs": [],
					"name": "counter",
					"outputs": [
						{
							"internalType": "uint256",
							"name": "",
							"type": "uint256"
						}
					],
					"stateMutability": "view",
					"type": "function"
				},
				{
					"inputs": [
						{
							"internalType": "uint256",
							"name": "topic_id",
							"type": "uint256"
						}
					],
					"name": "implement_decision",
					"outputs": [],
					"stateMutability": "payable",
					"type": "function"
				},
				{
					"inputs": [],
					"name": "implementation_delay",
					"outputs": [
						{
							"internalType": "uint256",
							"name": "",
							"type": "uint256"
						}
					],
					"stateMutability": "view",
					"type": "function"
				},
				{
					"inputs": [
						{
							"internalType": "string",
							"name": "Title_",
							"type": "string"
						},
						{
							"internalType": "address",
							"name": "implementation_contract_address",
							"type": "address"
						},
						{
							"internalType": "uint256",
							"name": "contract_argument",
							"type": "uint256"
						},
						{
							"internalType": "string",
							"name": "signature",
							"type": "string"
						}
					],
					"name": "initiate_topic",
					"outputs": [],
					"stateMutability": "nonpayable",
					"type": "function"
				},
				{
					"inputs": [
						{
							"internalType": "uint256",
							"name": "target",
							"type": "uint256"
						},
						{
							"internalType": "uint256",
							"name": "comparison",
							"type": "uint256"
						}
					],
					"name": "quorum",
					"outputs": [
						{
							"internalType": "bool",
							"name": "",
							"type": "bool"
						}
					],
					"stateMutability": "pure",
					"type": "function"
				},
				{
					"inputs": [
						{
							"internalType": "string",
							"name": "name_",
							"type": "string"
						}
					],
					"name": "register",
					"outputs": [],
					"stateMutability": "nonpayable",
					"type": "function"
				},
				{
					"inputs": [],
					"name": "returned",
					"outputs": [
						{
							"internalType": "uint256",
							"name": "",
							"type": "uint256"
						}
					],
					"stateMutability": "view",
					"type": "function"
				},
				{
					"inputs": [],
					"name": "utility_token_address",
					"outputs": [
						{
							"internalType": "address",
							"name": "",
							"type": "address"
						}
					],
					"stateMutability": "view",
					"type": "function"
				},
				{
					"inputs": [
						{
							"internalType": "uint256",
							"name": "",
							"type": "uint256"
						}
					],
					"name": "votes",
					"outputs": [
						{
							"internalType": "uint256",
							"name": "for_votes",
							"type": "uint256"
						},
						{
							"internalType": "uint256",
							"name": "against_votes",
							"type": "uint256"
						}
					],
					"stateMutability": "view",
					"type": "function"
				},
				{
					"inputs": [],
					"name": "voting_duration",
					"outputs": [
						{
							"internalType": "uint256",
							"name": "",
							"type": "uint256"
						}
					],
					"stateMutability": "view",
					"type": "function"
				}
			],
			"devdoc": {
				"errors": {
					"MathOverflowedMulDiv()": [
						{
							"details": "Muldiv operation overflow."
						}
					]
				},
				"kind": "dev",
				"methods": {},
				"version": 1
			},
			"evm": {
				"assembly": "    /* \"backEnd/contracts/BUNN_Governor_Proxy.sol\":147:6654  contract BUNN_GOVERNOR is Restrictions {... */\n  mstore(0x40, 0x80)\n    /* \"backEnd/contracts/restrictions.sol\":273:279  432000 */\n  0x069780\n    /* \"backEnd/contracts/restrictions.sol\":240:279  uint256 public voting_duration = 432000 */\n  0x00\n  sstore\n    /* \"backEnd/contracts/restrictions.sol\":332:337  86400 */\n  0x015180\n    /* \"backEnd/contracts/restrictions.sol\":294:337  uint256 public implementation_delay = 86400 */\n  0x01\n  sstore\n    /* \"backEnd/contracts/BUNN_Governor_Proxy.sol\":2205:2206  1 */\n  0x01\n    /* \"backEnd/contracts/BUNN_Governor_Proxy.sol\":2183:2206  uint public counter = 1 */\n  0x07\n  sstore\n    /* \"backEnd/contracts/BUNN_Governor_Proxy.sol\":2685:2754  constructor(address UTA) {... */\n  callvalue\n  dup1\n  iszero\n  tag_1\n  jumpi\n  0x00\n  dup1\n  revert\ntag_1:\n  pop\n  mload(0x40)\n  sub(codesize, bytecodeSize)\n  dup1\n  bytecodeSize\n  dup4\n  codecopy\n  dup2\n  dup2\n  add\n  0x40\n  mstore\n  dup2\n  add\n  swap1\n  tag_2\n  swap2\n  swap1\n  tag_3\n  jump\t// in\ntag_2:\n    /* \"backEnd/contracts/BUNN_Governor_Proxy.sol\":2744:2747  UTA */\n  dup1\n    /* \"backEnd/contracts/BUNN_Governor_Proxy.sol\":2720:2741  utility_token_address */\n  0x02\n  0x00\n    /* \"backEnd/contracts/BUNN_Governor_Proxy.sol\":2720:2747  utility_token_address = UTA */\n  0x0100\n  exp\n  dup2\n  sload\n  dup2\n  0xffffffffffffffffffffffffffffffffffffffff\n  mul\n  not\n  and\n  swap1\n  dup4\n  0xffffffffffffffffffffffffffffffffffffffff\n  and\n  mul\n  or\n  swap1\n  sstore\n  pop\n    /* \"backEnd/contracts/BUNN_Governor_Proxy.sol\":2685:2754  constructor(address UTA) {... */\n  pop\n    /* \"backEnd/contracts/BUNN_Governor_Proxy.sol\":147:6654  contract BUNN_GOVERNOR is Restrictions {... */\n  jump(tag_8)\n    /* \"#utility.yul\":88:205   */\ntag_10:\n    /* \"#utility.yul\":197:198   */\n  0x00\n    /* \"#utility.yul\":194:195   */\n  dup1\n    /* \"#utility.yul\":187:199   */\n  revert\n    /* \"#utility.yul\":334:460   */\ntag_12:\n    /* \"#utility.yul\":371:378   */\n  0x00\n    /* \"#utility.yul\":411:453   */\n  0xffffffffffffffffffffffffffffffffffffffff\n    /* \"#utility.yul\":404:409   */\n  dup3\n    /* \"#utility.yul\":400:454   */\n  and\n    /* \"#utility.yul\":389:454   */\n  swap1\n  pop\n    /* \"#utility.yul\":334:460   */\n  swap2\n  swap1\n  pop\n  jump\t// out\n    /* \"#utility.yul\":466:562   */\ntag_13:\n    /* \"#utility.yul\":503:510   */\n  0x00\n    /* \"#utility.yul\":532:556   */\n  tag_22\n    /* \"#utility.yul\":550:555   */\n  dup3\n    /* \"#utility.yul\":532:556   */\n  tag_12\n  jump\t// in\ntag_22:\n    /* \"#utility.yul\":521:556   */\n  swap1\n  pop\n    /* \"#utility.yul\":466:562   */\n  swap2\n  swap1\n  pop\n  jump\t// out\n    /* \"#utility.yul\":568:690   */\ntag_14:\n    /* \"#utility.yul\":641:665   */\n  tag_24\n    /* \"#utility.yul\":659:664   */\n  dup2\n    /* \"#utility.yul\":641:665   */\n  tag_13\n  jump\t// in\ntag_24:\n    /* \"#utility.yul\":634:639   */\n  dup2\n    /* \"#utility.yul\":631:666   */\n  eq\n    /* \"#utility.yul\":621:684   */\n  tag_25\n  jumpi\n    /* \"#utility.yul\":680:681   */\n  0x00\n    /* \"#utility.yul\":677:678   */\n  dup1\n    /* \"#utility.yul\":670:682   */\n  revert\n    /* \"#utility.yul\":621:684   */\ntag_25:\n    /* \"#utility.yul\":568:690   */\n  pop\n  jump\t// out\n    /* \"#utility.yul\":696:839   */\ntag_15:\n    /* \"#utility.yul\":753:758   */\n  0x00\n    /* \"#utility.yul\":784:790   */\n  dup2\n    /* \"#utility.yul\":778:791   */\n  mload\n    /* \"#utility.yul\":769:791   */\n  swap1\n  pop\n    /* \"#utility.yul\":800:833   */\n  tag_27\n    /* \"#utility.yul\":827:832   */\n  dup2\n    /* \"#utility.yul\":800:833   */\n  tag_14\n  jump\t// in\ntag_27:\n    /* \"#utility.yul\":696:839   */\n  swap3\n  swap2\n  pop\n  pop\n  jump\t// out\n    /* \"#utility.yul\":845:1196   */\ntag_3:\n    /* \"#utility.yul\":915:921   */\n  0x00\n    /* \"#utility.yul\":964:966   */\n  0x20\n    /* \"#utility.yul\":952:961   */\n  dup3\n    /* \"#utility.yul\":943:950   */\n  dup5\n    /* \"#utility.yul\":939:962   */\n  sub\n    /* \"#utility.yul\":935:967   */\n  slt\n    /* \"#utility.yul\":932:1051   */\n  iszero\n  tag_29\n  jumpi\n    /* \"#utility.yul\":970:1049   */\n  tag_30\n  tag_10\n  jump\t// in\ntag_30:\n    /* \"#utility.yul\":932:1051   */\ntag_29:\n    /* \"#utility.yul\":1090:1091   */\n  0x00\n    /* \"#utility.yul\":1115:1179   */\n  tag_31\n    /* \"#utility.yul\":1171:1178   */\n  dup5\n    /* \"#utility.yul\":1162:1168   */\n  dup3\n    /* \"#utility.yul\":1151:1160   */\n  dup6\n    /* \"#utility.yul\":1147:1169   */\n  add\n    /* \"#utility.yul\":1115:1179   */\n  tag_15\n  jump\t// in\ntag_31:\n    /* \"#utility.yul\":1105:1179   */\n  swap2\n  pop\n    /* \"#utility.yul\":1061:1189   */\n  pop\n    /* \"#utility.yul\":845:1196   */\n  swap3\n  swap2\n  pop\n  pop\n  jump\t// out\n    /* \"backEnd/contracts/BUNN_Governor_Proxy.sol\":147:6654  contract BUNN_GOVERNOR is Restrictions {... */\ntag_8:\n  dataSize(sub_0)\n  dup1\n  dataOffset(sub_0)\n  0x00\n  codecopy\n  0x00\n  return\nstop\n\nsub_0: assembly {\n        /* \"backEnd/contracts/BUNN_Governor_Proxy.sol\":147:6654  contract BUNN_GOVERNOR is Restrictions {... */\n      mstore(0x40, 0x80)\n      jumpi(tag_1, lt(calldatasize, 0x04))\n      shr(0xe0, calldataload(0x00))\n      dup1\n      0x61bc221a\n      gt\n      tag_16\n      jumpi\n      dup1\n      0xa060acfa\n      gt\n      tag_17\n      jumpi\n      dup1\n      0xa060acfa\n      eq\n      tag_12\n      jumpi\n      dup1\n      0xa0a67c58\n      eq\n      tag_13\n      jumpi\n      dup1\n      0xf2c298be\n      eq\n      tag_14\n      jumpi\n      dup1\n      0xfd0f0166\n      eq\n      tag_15\n      jumpi\n      jump(tag_1)\n    tag_17:\n      dup1\n      0x61bc221a\n      eq\n      tag_9\n      jumpi\n      dup1\n      0x67358c96\n      eq\n      tag_10\n      jumpi\n      dup1\n      0x6cb76408\n      eq\n      tag_11\n      jumpi\n      jump(tag_1)\n    tag_16:\n      dup1\n      0x47411226\n      gt\n      tag_18\n      jumpi\n      dup1\n      0x47411226\n      eq\n      tag_5\n      jumpi\n      dup1\n      0x54b598ec\n      eq\n      tag_6\n      jumpi\n      dup1\n      0x5bb6d284\n      eq\n      tag_7\n      jumpi\n      dup1\n      0x5df81330\n      eq\n      tag_8\n      jumpi\n      jump(tag_1)\n    tag_18:\n      dup1\n      0x0befdc15\n      eq\n      tag_2\n      jumpi\n      dup1\n      0x1c8dd214\n      eq\n      tag_3\n      jumpi\n      dup1\n      0x3153cebc\n      eq\n      tag_4\n      jumpi\n    tag_1:\n      0x00\n      dup1\n      revert\n        /* \"backEnd/contracts/BUNN_Governor_Proxy.sol\":3130:4022  function initiate_topic(... */\n    tag_2:\n      callvalue\n      dup1\n      iszero\n      tag_19\n      jumpi\n      0x00\n      dup1\n      revert\n    tag_19:\n      pop\n      tag_20\n      0x04\n      dup1\n      calldatasize\n      sub\n      dup2\n      add\n      swap1\n      tag_21\n      swap2\n      swap1\n      tag_22\n      jump\t// in\n    tag_21:\n      tag_23\n      jump\t// in\n    tag_20:\n      stop\n        /* \"backEnd/contracts/BUNN_Governor_Proxy.sol\":4072:5442  function cast_vote(uint topic_id, bool position_) public {... */\n    tag_3:\n      callvalue\n      dup1\n      iszero\n      tag_24\n      jumpi\n      0x00\n      dup1\n      revert\n    tag_24:\n      pop\n      tag_25\n      0x04\n      dup1\n      calldatasize\n      sub\n      dup2\n      add\n      swap1\n      tag_26\n      swap2\n      swap1\n      tag_27\n      jump\t// in\n    tag_26:\n      tag_28\n      jump\t// in\n    tag_25:\n      stop\n        /* \"backEnd/contracts/restrictions.sol\":240:279  uint256 public voting_duration = 432000 */\n    tag_4:\n      callvalue\n      dup1\n      iszero\n      tag_29\n      jumpi\n      0x00\n      dup1\n      revert\n    tag_29:\n      pop\n      tag_30\n      tag_31\n      jump\t// in\n    tag_30:\n      mload(0x40)\n      tag_32\n      swap2\n      swap1\n      tag_33\n      jump\t// in\n    tag_32:\n      mload(0x40)\n      dup1\n      swap2\n      sub\n      swap1\n      return\n        /* \"backEnd/contracts/restrictions.sol\":676:881  function quorum(... */\n    tag_5:\n      callvalue\n      dup1\n      iszero\n      tag_34\n      jumpi\n      0x00\n      dup1\n      revert\n    tag_34:\n      pop\n      tag_35\n      0x04\n      dup1\n      calldatasize\n      sub\n      dup2\n      add\n      swap1\n      tag_36\n      swap2\n      swap1\n      tag_37\n      jump\t// in\n    tag_36:\n      tag_38\n      jump\t// in\n    tag_35:\n      mload(0x40)\n      tag_39\n      swap2\n      swap1\n      tag_40\n      jump\t// in\n    tag_39:\n      mload(0x40)\n      dup1\n      swap2\n      sub\n      swap1\n      return\n        /* \"backEnd/contracts/BUNN_Governor_Proxy.sol\":1366:1425  mapping(address => mapping (uint => ballot)) public ballots */\n    tag_6:\n      callvalue\n      dup1\n      iszero\n      tag_41\n      jumpi\n      0x00\n      dup1\n      revert\n    tag_41:\n      pop\n      tag_42\n      0x04\n      dup1\n      calldatasize\n      sub\n      dup2\n      add\n      swap1\n      tag_43\n      swap2\n      swap1\n      tag_44\n      jump\t// in\n    tag_43:\n      tag_45\n      jump\t// in\n    tag_42:\n      mload(0x40)\n      tag_46\n      swap4\n      swap3\n      swap2\n      swap1\n      tag_47\n      jump\t// in\n    tag_46:\n      mload(0x40)\n      dup1\n      swap2\n      sub\n      swap1\n      return\n        /* \"backEnd/contracts/BUNN_Governor_Proxy.sol\":2212:2248  mapping(uint => Topic) public Topics */\n    tag_7:\n      callvalue\n      dup1\n      iszero\n      tag_48\n      jumpi\n      0x00\n      dup1\n      revert\n    tag_48:\n      pop\n      tag_49\n      0x04\n      dup1\n      calldatasize\n      sub\n      dup2\n      add\n      swap1\n      tag_50\n      swap2\n      swap1\n      tag_51\n      jump\t// in\n    tag_50:\n      tag_52\n      jump\t// in\n    tag_49:\n      mload(0x40)\n      tag_53\n      swap10\n      swap9\n      swap8\n      swap7\n      swap6\n      swap5\n      swap4\n      swap3\n      swap2\n      swap1\n      tag_54\n      jump\t// in\n    tag_53:\n      mload(0x40)\n      dup1\n      swap2\n      sub\n      swap1\n      return\n        /* \"backEnd/contracts/BUNN_Governor_Proxy.sol\":1513:1547  mapping(uint => vote) public votes */\n    tag_8:\n      callvalue\n      dup1\n      iszero\n      tag_55\n      jumpi\n      0x00\n      dup1\n      revert\n    tag_55:\n      pop\n      tag_56\n      0x04\n      dup1\n      calldatasize\n      sub\n      dup2\n      add\n      swap1\n      tag_57\n      swap2\n      swap1\n      tag_51\n      jump\t// in\n    tag_57:\n      tag_58\n      jump\t// in\n    tag_56:\n      mload(0x40)\n      tag_59\n      swap3\n      swap2\n      swap1\n      tag_60\n      jump\t// in\n    tag_59:\n      mload(0x40)\n      dup1\n      swap2\n      sub\n      swap1\n      return\n        /* \"backEnd/contracts/BUNN_Governor_Proxy.sol\":2183:2206  uint public counter = 1 */\n    tag_9:\n      callvalue\n      dup1\n      iszero\n      tag_61\n      jumpi\n      0x00\n      dup1\n      revert\n    tag_61:\n      pop\n      tag_62\n      tag_63\n      jump\t// in\n    tag_62:\n      mload(0x40)\n      tag_64\n      swap2\n      swap1\n      tag_33\n      jump\t// in\n    tag_64:\n      mload(0x40)\n      dup1\n      swap2\n      sub\n      swap1\n      return\n        /* \"backEnd/contracts/restrictions.sol\":294:337  uint256 public implementation_delay = 86400 */\n    tag_10:\n      callvalue\n      dup1\n      iszero\n      tag_65\n      jumpi\n      0x00\n      dup1\n      revert\n    tag_65:\n      pop\n      tag_66\n      tag_67\n      jump\t// in\n    tag_66:\n      mload(0x40)\n      tag_68\n      swap2\n      swap1\n      tag_33\n      jump\t// in\n    tag_68:\n      mload(0x40)\n      dup1\n      swap2\n      sub\n      swap1\n      return\n        /* \"backEnd/contracts/BUNN_Governor_Proxy.sol\":333:356  uint256 public returned */\n    tag_11:\n      callvalue\n      dup1\n      iszero\n      tag_69\n      jumpi\n      0x00\n      dup1\n      revert\n    tag_69:\n      pop\n      tag_70\n      tag_71\n      jump\t// in\n    tag_70:\n      mload(0x40)\n      tag_72\n      swap2\n      swap1\n      tag_33\n      jump\t// in\n    tag_72:\n      mload(0x40)\n      dup1\n      swap2\n      sub\n      swap1\n      return\n        /* \"backEnd/contracts/BUNN_Governor_Proxy.sol\":5525:6554  function implement_decision(... */\n    tag_12:\n      tag_73\n      0x04\n      dup1\n      calldatasize\n      sub\n      dup2\n      add\n      swap1\n      tag_74\n      swap2\n      swap1\n      tag_51\n      jump\t// in\n    tag_74:\n      tag_75\n      jump\t// in\n    tag_73:\n      stop\n        /* \"backEnd/contracts/BUNN_Governor_Proxy.sol\":291:327  address public utility_token_address */\n    tag_13:\n      callvalue\n      dup1\n      iszero\n      tag_76\n      jumpi\n      0x00\n      dup1\n      revert\n    tag_76:\n      pop\n      tag_77\n      tag_78\n      jump\t// in\n    tag_77:\n      mload(0x40)\n      tag_79\n      swap2\n      swap1\n      tag_80\n      jump\t// in\n    tag_79:\n      mload(0x40)\n      dup1\n      swap2\n      sub\n      swap1\n      return\n        /* \"backEnd/contracts/BUNN_Governor_Proxy.sol\":2848:3073  function register(string memory name_/* , uint256 d_tokens */) public {... */\n    tag_14:\n      callvalue\n      dup1\n      iszero\n      tag_81\n      jumpi\n      0x00\n      dup1\n      revert\n    tag_81:\n      pop\n      tag_82\n      0x04\n      dup1\n      calldatasize\n      sub\n      dup2\n      add\n      swap1\n      tag_83\n      swap2\n      swap1\n      tag_84\n      jump\t// in\n    tag_83:\n      tag_85\n      jump\t// in\n    tag_82:\n      stop\n        /* \"backEnd/contracts/BUNN_Governor_Proxy.sol\":877:918  mapping(address => Member) public Members */\n    tag_15:\n      callvalue\n      dup1\n      iszero\n      tag_86\n      jumpi\n      0x00\n      dup1\n      revert\n    tag_86:\n      pop\n      tag_87\n      0x04\n      dup1\n      calldatasize\n      sub\n      dup2\n      add\n      swap1\n      tag_88\n      swap2\n      swap1\n      tag_89\n      jump\t// in\n    tag_88:\n      tag_90\n      jump\t// in\n    tag_87:\n      mload(0x40)\n      tag_91\n      swap3\n      swap2\n      swap1\n      tag_92\n      jump\t// in\n    tag_91:\n      mload(0x40)\n      dup1\n      swap2\n      sub\n      swap1\n      return\n        /* \"backEnd/contracts/BUNN_Governor_Proxy.sol\":3130:4022  function initiate_topic(... */\n    tag_23:\n        /* \"backEnd/contracts/BUNN_Governor_Proxy.sol\":3359:3366  Members */\n      0x04\n        /* \"backEnd/contracts/BUNN_Governor_Proxy.sol\":3359:3378  Members[msg.sender] */\n      0x00\n        /* \"backEnd/contracts/BUNN_Governor_Proxy.sol\":3367:3377  msg.sender */\n      caller\n        /* \"backEnd/contracts/BUNN_Governor_Proxy.sol\":3359:3378  Members[msg.sender] */\n      0xffffffffffffffffffffffffffffffffffffffff\n      and\n      0xffffffffffffffffffffffffffffffffffffffff\n      and\n      dup2\n      mstore\n      0x20\n      add\n      swap1\n      dup2\n      mstore\n      0x20\n      add\n      0x00\n      keccak256\n        /* \"backEnd/contracts/BUNN_Governor_Proxy.sol\":3359:3386  Members[msg.sender].belongs */\n      0x01\n      add\n      0x00\n      swap1\n      sload\n      swap1\n      0x0100\n      exp\n      swap1\n      div\n      0xff\n      and\n        /* \"backEnd/contracts/BUNN_Governor_Proxy.sol\":3351:3403  require(Members[msg.sender].belongs, \"NOT A MEMBER\") */\n      tag_94\n      jumpi\n      mload(0x40)\n      0x08c379a000000000000000000000000000000000000000000000000000000000\n      dup2\n      mstore\n      0x04\n      add\n      tag_95\n      swap1\n      tag_96\n      jump\t// in\n    tag_95:\n      mload(0x40)\n      dup1\n      swap2\n      sub\n      swap1\n      revert\n    tag_94:\n        /* \"backEnd/contracts/BUNN_Governor_Proxy.sol\":3414:3436  Topic memory new_topic */\n      0x00\n        /* \"backEnd/contracts/BUNN_Governor_Proxy.sol\":3439:3820  Topic({... */\n      mload(0x40)\n      dup1\n      0x0120\n      add\n      0x40\n      mstore\n      dup1\n        /* \"backEnd/contracts/BUNN_Governor_Proxy.sol\":3463:3470  counter */\n      sload(0x07)\n        /* \"backEnd/contracts/BUNN_Governor_Proxy.sol\":3439:3820  Topic({... */\n      dup2\n      mstore\n      0x20\n      add\n        /* \"backEnd/contracts/BUNN_Governor_Proxy.sol\":3491:3497  Title_ */\n      dup7\n        /* \"backEnd/contracts/BUNN_Governor_Proxy.sol\":3439:3820  Topic({... */\n      dup2\n      mstore\n      0x20\n      add\n        /* \"backEnd/contracts/BUNN_Governor_Proxy.sol\":3522:3532  msg.sender */\n      caller\n        /* \"backEnd/contracts/BUNN_Governor_Proxy.sol\":3439:3820  Topic({... */\n      0xffffffffffffffffffffffffffffffffffffffff\n      and\n      dup2\n      mstore\n      0x20\n      add\n        /* \"backEnd/contracts/BUNN_Governor_Proxy.sol\":3579:3610  implementation_contract_address */\n      dup6\n        /* \"backEnd/contracts/BUNN_Governor_Proxy.sol\":3439:3820  Topic({... */\n      0xffffffffffffffffffffffffffffffffffffffff\n      and\n      dup2\n      mstore\n      0x20\n      add\n        /* \"backEnd/contracts/BUNN_Governor_Proxy.sol\":3658:3675  contract_argument */\n      dup5\n        /* \"backEnd/contracts/BUNN_Governor_Proxy.sol\":3439:3820  Topic({... */\n      dup2\n      mstore\n      0x20\n      add\n        /* \"backEnd/contracts/BUNN_Governor_Proxy.sol\":3700:3709  signature */\n      dup4\n        /* \"backEnd/contracts/BUNN_Governor_Proxy.sol\":3439:3820  Topic({... */\n      dup2\n      mstore\n      0x20\n      add\n        /* \"backEnd/contracts/BUNN_Governor_Proxy.sol\":3735:3750  block.timestamp */\n      timestamp\n        /* \"backEnd/contracts/BUNN_Governor_Proxy.sol\":3439:3820  Topic({... */\n      dup2\n      mstore\n      0x20\n      add\n        /* \"backEnd/contracts/BUNN_Governor_Proxy.sol\":3774:3779  false */\n      0x00\n        /* \"backEnd/contracts/BUNN_Governor_Proxy.sol\":3439:3820  Topic({... */\n      iszero\n      iszero\n      dup2\n      mstore\n      0x20\n      add\n        /* \"backEnd/contracts/BUNN_Governor_Proxy.sol\":3804:3809  false */\n      0x00\n        /* \"backEnd/contracts/BUNN_Governor_Proxy.sol\":3439:3820  Topic({... */\n      iszero\n      iszero\n      dup2\n      mstore\n      pop\n        /* \"backEnd/contracts/BUNN_Governor_Proxy.sol\":3414:3820  Topic memory new_topic = Topic({... */\n      swap1\n      pop\n        /* \"backEnd/contracts/BUNN_Governor_Proxy.sol\":3925:3934  new_topic */\n      dup1\n        /* \"backEnd/contracts/BUNN_Governor_Proxy.sol\":3902:3908  Topics */\n      0x08\n        /* \"backEnd/contracts/BUNN_Governor_Proxy.sol\":3902:3922  Topics[new_topic.id] */\n      0x00\n        /* \"backEnd/contracts/BUNN_Governor_Proxy.sol\":3909:3918  new_topic */\n      dup4\n        /* \"backEnd/contracts/BUNN_Governor_Proxy.sol\":3909:3921  new_topic.id */\n      0x00\n      add\n      mload\n        /* \"backEnd/contracts/BUNN_Governor_Proxy.sol\":3902:3922  Topics[new_topic.id] */\n      dup2\n      mstore\n      0x20\n      add\n      swap1\n      dup2\n      mstore\n      0x20\n      add\n      0x00\n      keccak256\n        /* \"backEnd/contracts/BUNN_Governor_Proxy.sol\":3902:3934  Topics[new_topic.id] = new_topic */\n      0x00\n      dup3\n      add\n      mload\n      dup2\n      0x00\n      add\n      sstore\n      0x20\n      dup3\n      add\n      mload\n      dup2\n      0x01\n      add\n      swap1\n      dup2\n      tag_97\n      swap2\n      swap1\n      tag_98\n      jump\t// in\n    tag_97:\n      pop\n      0x40\n      dup3\n      add\n      mload\n      dup2\n      0x02\n      add\n      exp(0x0100, 0x00)\n      dup2\n      sload\n      dup2\n      0xffffffffffffffffffffffffffffffffffffffff\n      mul\n      not\n      and\n      swap1\n      dup4\n      0xffffffffffffffffffffffffffffffffffffffff\n      and\n      mul\n      or\n      swap1\n      sstore\n      pop\n      0x60\n      dup3\n      add\n      mload\n      dup2\n      0x03\n      add\n      exp(0x0100, 0x00)\n      dup2\n      sload\n      dup2\n      0xffffffffffffffffffffffffffffffffffffffff\n      mul\n      not\n      and\n      swap1\n      dup4\n      0xffffffffffffffffffffffffffffffffffffffff\n      and\n      mul\n      or\n      swap1\n      sstore\n      pop\n      0x80\n      dup3\n      add\n      mload\n      dup2\n      0x04\n      add\n      sstore\n      0xa0\n      dup3\n      add\n      mload\n      dup2\n      0x05\n      add\n      swap1\n      dup2\n      tag_99\n      swap2\n      swap1\n      tag_98\n      jump\t// in\n    tag_99:\n      pop\n      0xc0\n      dup3\n      add\n      mload\n      dup2\n      0x06\n      add\n      sstore\n      0xe0\n      dup3\n      add\n      mload\n      dup2\n      0x07\n      add\n      exp(0x0100, 0x00)\n      dup2\n      sload\n      dup2\n      0xff\n      mul\n      not\n      and\n      swap1\n      dup4\n      iszero\n      iszero\n      mul\n      or\n      swap1\n      sstore\n      pop\n      0x0100\n      dup3\n      add\n      mload\n      dup2\n      0x07\n      add\n      exp(0x0100, 0x01)\n      dup2\n      sload\n      dup2\n      0xff\n      mul\n      not\n      and\n      swap1\n      dup4\n      iszero\n      iszero\n      mul\n      or\n      swap1\n      sstore\n      pop\n      swap1\n      pop\n      pop\n        /* \"backEnd/contracts/BUNN_Governor_Proxy.sol\":3965:3966  1 */\n      0x01\n        /* \"backEnd/contracts/BUNN_Governor_Proxy.sol\":3955:3962  counter */\n      sload(0x07)\n        /* \"backEnd/contracts/BUNN_Governor_Proxy.sol\":3955:3966  counter + 1 */\n      tag_100\n      swap2\n      swap1\n      tag_101\n      jump\t// in\n    tag_100:\n        /* \"backEnd/contracts/BUNN_Governor_Proxy.sol\":3945:3952  counter */\n      0x07\n        /* \"backEnd/contracts/BUNN_Governor_Proxy.sol\":3945:3966  counter = counter + 1 */\n      dup2\n      swap1\n      sstore\n      pop\n        /* \"backEnd/contracts/BUNN_Governor_Proxy.sol\":4004:4014  msg.sender */\n      caller\n        /* \"backEnd/contracts/BUNN_Governor_Proxy.sol\":3981:4015  proposal_made(counter, msg.sender) */\n      0xffffffffffffffffffffffffffffffffffffffff\n      and\n      0x7e25f8742b0359507d9119310ec6e12a3e4201d358df6b156dd313a3db8d1265\n        /* \"backEnd/contracts/BUNN_Governor_Proxy.sol\":3995:4002  counter */\n      sload(0x07)\n        /* \"backEnd/contracts/BUNN_Governor_Proxy.sol\":3981:4015  proposal_made(counter, msg.sender) */\n      mload(0x40)\n      tag_102\n      swap2\n      swap1\n      tag_33\n      jump\t// in\n    tag_102:\n      mload(0x40)\n      dup1\n      swap2\n      sub\n      swap1\n      log2\n        /* \"backEnd/contracts/BUNN_Governor_Proxy.sol\":3313:4022  {... */\n      pop\n        /* \"backEnd/contracts/BUNN_Governor_Proxy.sol\":3130:4022  function initiate_topic(... */\n      pop\n      pop\n      pop\n      pop\n      jump\t// out\n        /* \"backEnd/contracts/BUNN_Governor_Proxy.sol\":4072:5442  function cast_vote(uint topic_id, bool position_) public {... */\n    tag_28:\n        /* \"backEnd/contracts/BUNN_Governor_Proxy.sol\":4139:4157  Topic memory topic */\n      0x00\n        /* \"backEnd/contracts/BUNN_Governor_Proxy.sol\":4160:4166  Topics */\n      0x08\n        /* \"backEnd/contracts/BUNN_Governor_Proxy.sol\":4160:4176  Topics[topic_id] */\n      0x00\n        /* \"backEnd/contracts/BUNN_Governor_Proxy.sol\":4167:4175  topic_id */\n      dup5\n        /* \"backEnd/contracts/BUNN_Governor_Proxy.sol\":4160:4176  Topics[topic_id] */\n      dup2\n      mstore\n      0x20\n      add\n      swap1\n      dup2\n      mstore\n      0x20\n      add\n      0x00\n      keccak256\n        /* \"backEnd/contracts/BUNN_Governor_Proxy.sol\":4139:4176  Topic memory topic = Topics[topic_id] */\n      mload(0x40)\n      dup1\n      0x0120\n      add\n      0x40\n      mstore\n      swap1\n      dup2\n      0x00\n      dup3\n      add\n      sload\n      dup2\n      mstore\n      0x20\n      add\n      0x01\n      dup3\n      add\n      dup1\n      sload\n      tag_104\n      swap1\n      tag_105\n      jump\t// in\n    tag_104:\n      dup1\n      0x1f\n      add\n      0x20\n      dup1\n      swap2\n      div\n      mul\n      0x20\n      add\n      mload(0x40)\n      swap1\n      dup2\n      add\n      0x40\n      mstore\n      dup1\n      swap3\n      swap2\n      swap1\n      dup2\n      dup2\n      mstore\n      0x20\n      add\n      dup3\n      dup1\n      sload\n      tag_106\n      swap1\n      tag_105\n      jump\t// in\n    tag_106:\n      dup1\n      iszero\n      tag_107\n      jumpi\n      dup1\n      0x1f\n      lt\n      tag_108\n      jumpi\n      0x0100\n      dup1\n      dup4\n      sload\n      div\n      mul\n      dup4\n      mstore\n      swap2\n      0x20\n      add\n      swap2\n      jump(tag_107)\n    tag_108:\n      dup3\n      add\n      swap2\n      swap1\n      0x00\n      mstore\n      keccak256(0x00, 0x20)\n      swap1\n    tag_109:\n      dup2\n      sload\n      dup2\n      mstore\n      swap1\n      0x01\n      add\n      swap1\n      0x20\n      add\n      dup1\n      dup4\n      gt\n      tag_109\n      jumpi\n      dup3\n      swap1\n      sub\n      0x1f\n      and\n      dup3\n      add\n      swap2\n    tag_107:\n      pop\n      pop\n      pop\n      pop\n      pop\n      dup2\n      mstore\n      0x20\n      add\n      0x02\n      dup3\n      add\n      0x00\n      swap1\n      sload\n      swap1\n      0x0100\n      exp\n      swap1\n      div\n      0xffffffffffffffffffffffffffffffffffffffff\n      and\n      0xffffffffffffffffffffffffffffffffffffffff\n      and\n      0xffffffffffffffffffffffffffffffffffffffff\n      and\n      dup2\n      mstore\n      0x20\n      add\n      0x03\n      dup3\n      add\n      0x00\n      swap1\n      sload\n      swap1\n      0x0100\n      exp\n      swap1\n      div\n      0xffffffffffffffffffffffffffffffffffffffff\n      and\n      0xffffffffffffffffffffffffffffffffffffffff\n      and\n      0xffffffffffffffffffffffffffffffffffffffff\n      and\n      dup2\n      mstore\n      0x20\n      add\n      0x04\n      dup3\n      add\n      sload\n      dup2\n      mstore\n      0x20\n      add\n      0x05\n      dup3\n      add\n      dup1\n      sload\n      tag_110\n      swap1\n      tag_105\n      jump\t// in\n    tag_110:\n      dup1\n      0x1f\n      add\n      0x20\n      dup1\n      swap2\n      div\n      mul\n      0x20\n      add\n      mload(0x40)\n      swap1\n      dup2\n      add\n      0x40\n      mstore\n      dup1\n      swap3\n      swap2\n      swap1\n      dup2\n      dup2\n      mstore\n      0x20\n      add\n      dup3\n      dup1\n      sload\n      tag_111\n      swap1\n      tag_105\n      jump\t// in\n    tag_111:\n      dup1\n      iszero\n      tag_112\n      jumpi\n      dup1\n      0x1f\n      lt\n      tag_113\n      jumpi\n      0x0100\n      dup1\n      dup4\n      sload\n      div\n      mul\n      dup4\n      mstore\n      swap2\n      0x20\n      add\n      swap2\n      jump(tag_112)\n    tag_113:\n      dup3\n      add\n      swap2\n      swap1\n      0x00\n      mstore\n      keccak256(0x00, 0x20)\n      swap1\n    tag_114:\n      dup2\n      sload\n      dup2\n      mstore\n      swap1\n      0x01\n      add\n      swap1\n      0x20\n      add\n      dup1\n      dup4\n      gt\n      tag_114\n      jumpi\n      dup3\n      swap1\n      sub\n      0x1f\n      and\n      dup3\n      add\n      swap2\n    tag_112:\n      pop\n      pop\n      pop\n      pop\n      pop\n      dup2\n      mstore\n      0x20\n      add\n      0x06\n      dup3\n      add\n      sload\n      dup2\n      mstore\n      0x20\n      add\n      0x07\n      dup3\n      add\n      0x00\n      swap1\n      sload\n      swap1\n      0x0100\n      exp\n      swap1\n      div\n      0xff\n      and\n      iszero\n      iszero\n      iszero\n      iszero\n      dup2\n      mstore\n      0x20\n      add\n      0x07\n      dup3\n      add\n      0x01\n      swap1\n      sload\n      swap1\n      0x0100\n      exp\n      swap1\n      div\n      0xff\n      and\n      iszero\n      iszero\n      iszero\n      iszero\n      dup2\n      mstore\n      pop\n      pop\n      swap1\n      pop\n        /* \"backEnd/contracts/BUNN_Governor_Proxy.sol\":4213:4232  IUTILITY_TOKEN BUNN */\n      0x00\n        /* \"backEnd/contracts/BUNN_Governor_Proxy.sol\":4250:4271  utility_token_address */\n      0x02\n      0x00\n      swap1\n      sload\n      swap1\n      0x0100\n      exp\n      swap1\n      div\n      0xffffffffffffffffffffffffffffffffffffffff\n      and\n        /* \"backEnd/contracts/BUNN_Governor_Proxy.sol\":4213:4272  IUTILITY_TOKEN BUNN = IUTILITY_TOKEN(utility_token_address) */\n      swap1\n      pop\n        /* \"backEnd/contracts/BUNN_Governor_Proxy.sol\":4338:4345  Members */\n      0x04\n        /* \"backEnd/contracts/BUNN_Governor_Proxy.sol\":4338:4357  Members[msg.sender] */\n      0x00\n        /* \"backEnd/contracts/BUNN_Governor_Proxy.sol\":4346:4356  msg.sender */\n      caller\n        /* \"backEnd/contracts/BUNN_Governor_Proxy.sol\":4338:4357  Members[msg.sender] */\n      0xffffffffffffffffffffffffffffffffffffffff\n      and\n      0xffffffffffffffffffffffffffffffffffffffff\n      and\n      dup2\n      mstore\n      0x20\n      add\n      swap1\n      dup2\n      mstore\n      0x20\n      add\n      0x00\n      keccak256\n        /* \"backEnd/contracts/BUNN_Governor_Proxy.sol\":4338:4365  Members[msg.sender].belongs */\n      0x01\n      add\n      0x00\n      swap1\n      sload\n      swap1\n      0x0100\n      exp\n      swap1\n      div\n      0xff\n      and\n        /* \"backEnd/contracts/BUNN_Governor_Proxy.sol\":4330:4382  require(Members[msg.sender].belongs, \"NOT A MEMBER\") */\n      tag_115\n      jumpi\n      mload(0x40)\n      0x08c379a000000000000000000000000000000000000000000000000000000000\n      dup2\n      mstore\n      0x04\n      add\n      tag_116\n      swap1\n      tag_96\n      jump\t// in\n    tag_116:\n      mload(0x40)\n      dup1\n      swap2\n      sub\n      swap1\n      revert\n    tag_115:\n        /* \"backEnd/contracts/BUNN_Governor_Proxy.sol\":4443:4459  uint256 end_time */\n      0x00\n        /* \"backEnd/contracts/BUNN_Governor_Proxy.sol\":4480:4485  topic */\n      dup3\n        /* \"backEnd/contracts/BUNN_Governor_Proxy.sol\":4480:4496  topic.start_time */\n      0xc0\n      add\n      mload\n        /* \"backEnd/contracts/BUNN_Governor_Proxy.sol\":4462:4477  voting_duration */\n      sload(0x00)\n        /* \"backEnd/contracts/BUNN_Governor_Proxy.sol\":4462:4496  voting_duration + topic.start_time */\n      tag_117\n      swap2\n      swap1\n      tag_101\n      jump\t// in\n    tag_117:\n        /* \"backEnd/contracts/BUNN_Governor_Proxy.sol\":4443:4496  uint256 end_time = voting_duration + topic.start_time */\n      swap1\n      pop\n        /* \"backEnd/contracts/BUNN_Governor_Proxy.sol\":4525:4540  block.timestamp */\n      timestamp\n        /* \"backEnd/contracts/BUNN_Governor_Proxy.sol\":4514:4522  end_time */\n      dup2\n        /* \"backEnd/contracts/BUNN_Governor_Proxy.sol\":4514:4540  end_time > block.timestamp */\n      gt\n        /* \"backEnd/contracts/BUNN_Governor_Proxy.sol\":4506:4570  require(end_time > block.timestamp, \"VOTING PERIOD HAS ELAPSED\") */\n      tag_118\n      jumpi\n      mload(0x40)\n      0x08c379a000000000000000000000000000000000000000000000000000000000\n      dup2\n      mstore\n      0x04\n      add\n      tag_119\n      swap1\n      tag_120\n      jump\t// in\n    tag_119:\n      mload(0x40)\n      dup1\n      swap2\n      sub\n      swap1\n      revert\n    tag_118:\n        /* \"backEnd/contracts/BUNN_Governor_Proxy.sol\":4682:4683  0 */\n      0x00\n        /* \"backEnd/contracts/BUNN_Governor_Proxy.sol\":4653:4657  BUNN */\n      dup3\n        /* \"backEnd/contracts/BUNN_Governor_Proxy.sol\":4653:4667  BUNN.balanceOf */\n      0xffffffffffffffffffffffffffffffffffffffff\n      and\n      0x70a08231\n        /* \"backEnd/contracts/BUNN_Governor_Proxy.sol\":4668:4678  msg.sender */\n      caller\n        /* \"backEnd/contracts/BUNN_Governor_Proxy.sol\":4653:4679  BUNN.balanceOf(msg.sender) */\n      mload(0x40)\n      dup3\n      0xffffffff\n      and\n      0xe0\n      shl\n      dup2\n      mstore\n      0x04\n      add\n      tag_121\n      swap2\n      swap1\n      tag_80\n      jump\t// in\n    tag_121:\n      0x20\n      mload(0x40)\n      dup1\n      dup4\n      sub\n      dup2\n      dup7\n      gas\n      staticcall\n      iszero\n      dup1\n      iszero\n      tag_123\n      jumpi\n      returndatasize\n      0x00\n      dup1\n      returndatacopy\n      revert(0x00, returndatasize)\n    tag_123:\n      pop\n      pop\n      pop\n      pop\n      mload(0x40)\n      returndatasize\n      not(0x1f)\n      0x1f\n      dup3\n      add\n      and\n      dup3\n      add\n      dup1\n      0x40\n      mstore\n      pop\n      dup2\n      add\n      swap1\n      tag_124\n      swap2\n      swap1\n      tag_125\n      jump\t// in\n    tag_124:\n        /* \"backEnd/contracts/BUNN_Governor_Proxy.sol\":4653:4683  BUNN.balanceOf(msg.sender) > 0 */\n      gt\n        /* \"backEnd/contracts/BUNN_Governor_Proxy.sol\":4632:4755  require(... */\n      tag_126\n      jumpi\n      mload(0x40)\n      0x08c379a000000000000000000000000000000000000000000000000000000000\n      dup2\n      mstore\n      0x04\n      add\n      tag_127\n      swap1\n      tag_128\n      jump\t// in\n    tag_127:\n      mload(0x40)\n      dup1\n      swap2\n      sub\n      swap1\n      revert\n    tag_126:\n        /* \"backEnd/contracts/BUNN_Governor_Proxy.sol\":4918:4925  ballots */\n      0x05\n        /* \"backEnd/contracts/BUNN_Governor_Proxy.sol\":4918:4937  ballots[msg.sender] */\n      0x00\n        /* \"backEnd/contracts/BUNN_Governor_Proxy.sol\":4926:4936  msg.sender */\n      caller\n        /* \"backEnd/contracts/BUNN_Governor_Proxy.sol\":4918:4937  ballots[msg.sender] */\n      0xffffffffffffffffffffffffffffffffffffffff\n      and\n      0xffffffffffffffffffffffffffffffffffffffff\n      and\n      dup2\n      mstore\n      0x20\n      add\n      swap1\n      dup2\n      mstore\n      0x20\n      add\n      0x00\n      keccak256\n        /* \"backEnd/contracts/BUNN_Governor_Proxy.sol\":4918:4947  ballots[msg.sender][topic_id] */\n      0x00\n        /* \"backEnd/contracts/BUNN_Governor_Proxy.sol\":4938:4946  topic_id */\n      dup7\n        /* \"backEnd/contracts/BUNN_Governor_Proxy.sol\":4918:4947  ballots[msg.sender][topic_id] */\n      dup2\n      mstore\n      0x20\n      add\n      swap1\n      dup2\n      mstore\n      0x20\n      add\n      0x00\n      keccak256\n        /* \"backEnd/contracts/BUNN_Governor_Proxy.sol\":4918:4953  ballots[msg.sender][topic_id].voted */\n      0x01\n      add\n      0x01\n      swap1\n      sload\n      swap1\n      0x0100\n      exp\n      swap1\n      div\n      0xff\n      and\n        /* \"backEnd/contracts/BUNN_Governor_Proxy.sol\":4917:4953  !ballots[msg.sender][topic_id].voted */\n      iszero\n        /* \"backEnd/contracts/BUNN_Governor_Proxy.sol\":4909:4996  require(!ballots[msg.sender][topic_id].voted, \"MEMBERS CAN ONLY CAST A VOTE PER TOPIC\") */\n      tag_129\n      jumpi\n      mload(0x40)\n      0x08c379a000000000000000000000000000000000000000000000000000000000\n      dup2\n      mstore\n      0x04\n      add\n      tag_130\n      swap1\n      tag_131\n      jump\t// in\n    tag_130:\n      mload(0x40)\n      dup1\n      swap2\n      sub\n      swap1\n      revert\n    tag_129:\n        /* \"backEnd/contracts/BUNN_Governor_Proxy.sol\":5038:5146  ballot({... */\n      mload(0x40)\n      dup1\n      0x60\n      add\n      0x40\n      mstore\n      dup1\n        /* \"backEnd/contracts/BUNN_Governor_Proxy.sol\":5069:5077  topic_id */\n      dup7\n        /* \"backEnd/contracts/BUNN_Governor_Proxy.sol\":5038:5146  ballot({... */\n      dup2\n      mstore\n      0x20\n      add\n        /* \"backEnd/contracts/BUNN_Governor_Proxy.sol\":5101:5110  position_ */\n      dup6\n        /* \"backEnd/contracts/BUNN_Governor_Proxy.sol\":5038:5146  ballot({... */\n      iszero\n      iszero\n      dup2\n      mstore\n      0x20\n      add\n        /* \"backEnd/contracts/BUNN_Governor_Proxy.sol\":5131:5135  true */\n      0x01\n        /* \"backEnd/contracts/BUNN_Governor_Proxy.sol\":5038:5146  ballot({... */\n      iszero\n      iszero\n      dup2\n      mstore\n      pop\n        /* \"backEnd/contracts/BUNN_Governor_Proxy.sol\":5006:5013  ballots */\n      0x05\n        /* \"backEnd/contracts/BUNN_Governor_Proxy.sol\":5006:5025  ballots[msg.sender] */\n      0x00\n        /* \"backEnd/contracts/BUNN_Governor_Proxy.sol\":5014:5024  msg.sender */\n      caller\n        /* \"backEnd/contracts/BUNN_Governor_Proxy.sol\":5006:5025  ballots[msg.sender] */\n      0xffffffffffffffffffffffffffffffffffffffff\n      and\n      0xffffffffffffffffffffffffffffffffffffffff\n      and\n      dup2\n      mstore\n      0x20\n      add\n      swap1\n      dup2\n      mstore\n      0x20\n      add\n      0x00\n      keccak256\n        /* \"backEnd/contracts/BUNN_Governor_Proxy.sol\":5006:5035  ballots[msg.sender][topic_id] */\n      0x00\n        /* \"backEnd/contracts/BUNN_Governor_Proxy.sol\":5026:5034  topic_id */\n      dup8\n        /* \"backEnd/contracts/BUNN_Governor_Proxy.sol\":5006:5035  ballots[msg.sender][topic_id] */\n      dup2\n      mstore\n      0x20\n      add\n      swap1\n      dup2\n      mstore\n      0x20\n      add\n      0x00\n      keccak256\n        /* \"backEnd/contracts/BUNN_Governor_Proxy.sol\":5006:5146  ballots[msg.sender][topic_id] = ballot({... */\n      0x00\n      dup3\n      add\n      mload\n      dup2\n      0x00\n      add\n      sstore\n      0x20\n      dup3\n      add\n      mload\n      dup2\n      0x01\n      add\n      exp(0x0100, 0x00)\n      dup2\n      sload\n      dup2\n      0xff\n      mul\n      not\n      and\n      swap1\n      dup4\n      iszero\n      iszero\n      mul\n      or\n      swap1\n      sstore\n      pop\n      0x40\n      dup3\n      add\n      mload\n      dup2\n      0x01\n      add\n      exp(0x0100, 0x01)\n      dup2\n      sload\n      dup2\n      0xff\n      mul\n      not\n      and\n      swap1\n      dup4\n      iszero\n      iszero\n      mul\n      or\n      swap1\n      sstore\n      pop\n      swap1\n      pop\n      pop\n        /* \"backEnd/contracts/BUNN_Governor_Proxy.sol\":5161:5168  ballots */\n      0x05\n        /* \"backEnd/contracts/BUNN_Governor_Proxy.sol\":5161:5180  ballots[msg.sender] */\n      0x00\n        /* \"backEnd/contracts/BUNN_Governor_Proxy.sol\":5169:5179  msg.sender */\n      caller\n        /* \"backEnd/contracts/BUNN_Governor_Proxy.sol\":5161:5180  ballots[msg.sender] */\n      0xffffffffffffffffffffffffffffffffffffffff\n      and\n      0xffffffffffffffffffffffffffffffffffffffff\n      and\n      dup2\n      mstore\n      0x20\n      add\n      swap1\n      dup2\n      mstore\n      0x20\n      add\n      0x00\n      keccak256\n        /* \"backEnd/contracts/BUNN_Governor_Proxy.sol\":5161:5190  ballots[msg.sender][topic_id] */\n      0x00\n        /* \"backEnd/contracts/BUNN_Governor_Proxy.sol\":5181:5189  topic_id */\n      dup7\n        /* \"backEnd/contracts/BUNN_Governor_Proxy.sol\":5161:5190  ballots[msg.sender][topic_id] */\n      dup2\n      mstore\n      0x20\n      add\n      swap1\n      dup2\n      mstore\n      0x20\n      add\n      0x00\n      keccak256\n        /* \"backEnd/contracts/BUNN_Governor_Proxy.sol\":5161:5199  ballots[msg.sender][topic_id].position */\n      0x01\n      add\n      0x00\n      swap1\n      sload\n      swap1\n      0x0100\n      exp\n      swap1\n      div\n      0xff\n      and\n        /* \"backEnd/contracts/BUNN_Governor_Proxy.sol\":5157:5378  if (ballots[msg.sender][topic_id].position) {... */\n      iszero\n      tag_132\n      jumpi\n        /* \"backEnd/contracts/BUNN_Governor_Proxy.sol\":5271:5272  1 */\n      0x01\n        /* \"backEnd/contracts/BUNN_Governor_Proxy.sol\":5243:5248  votes */\n      0x06\n        /* \"backEnd/contracts/BUNN_Governor_Proxy.sol\":5243:5258  votes[topic_id] */\n      0x00\n        /* \"backEnd/contracts/BUNN_Governor_Proxy.sol\":5249:5257  topic_id */\n      dup8\n        /* \"backEnd/contracts/BUNN_Governor_Proxy.sol\":5243:5258  votes[topic_id] */\n      dup2\n      mstore\n      0x20\n      add\n      swap1\n      dup2\n      mstore\n      0x20\n      add\n      0x00\n      keccak256\n        /* \"backEnd/contracts/BUNN_Governor_Proxy.sol\":5243:5268  votes[topic_id].for_votes */\n      0x00\n      add\n      sload\n        /* \"backEnd/contracts/BUNN_Governor_Proxy.sol\":5243:5272  votes[topic_id].for_votes + 1 */\n      tag_133\n      swap2\n      swap1\n      tag_101\n      jump\t// in\n    tag_133:\n        /* \"backEnd/contracts/BUNN_Governor_Proxy.sol\":5215:5220  votes */\n      0x06\n        /* \"backEnd/contracts/BUNN_Governor_Proxy.sol\":5215:5230  votes[topic_id] */\n      0x00\n        /* \"backEnd/contracts/BUNN_Governor_Proxy.sol\":5221:5229  topic_id */\n      dup8\n        /* \"backEnd/contracts/BUNN_Governor_Proxy.sol\":5215:5230  votes[topic_id] */\n      dup2\n      mstore\n      0x20\n      add\n      swap1\n      dup2\n      mstore\n      0x20\n      add\n      0x00\n      keccak256\n        /* \"backEnd/contracts/BUNN_Governor_Proxy.sol\":5215:5240  votes[topic_id].for_votes */\n      0x00\n      add\n        /* \"backEnd/contracts/BUNN_Governor_Proxy.sol\":5215:5272  votes[topic_id].for_votes = votes[topic_id].for_votes + 1 */\n      dup2\n      swap1\n      sstore\n      pop\n        /* \"backEnd/contracts/BUNN_Governor_Proxy.sol\":5157:5378  if (ballots[msg.sender][topic_id].position) {... */\n      jump(tag_134)\n    tag_132:\n        /* \"backEnd/contracts/BUNN_Governor_Proxy.sol\":5366:5367  1 */\n      0x01\n        /* \"backEnd/contracts/BUNN_Governor_Proxy.sol\":5334:5339  votes */\n      0x06\n        /* \"backEnd/contracts/BUNN_Governor_Proxy.sol\":5334:5349  votes[topic_id] */\n      0x00\n        /* \"backEnd/contracts/BUNN_Governor_Proxy.sol\":5340:5348  topic_id */\n      dup8\n        /* \"backEnd/contracts/BUNN_Governor_Proxy.sol\":5334:5349  votes[topic_id] */\n      dup2\n      mstore\n      0x20\n      add\n      swap1\n      dup2\n      mstore\n      0x20\n      add\n      0x00\n      keccak256\n        /* \"backEnd/contracts/BUNN_Governor_Proxy.sol\":5334:5363  votes[topic_id].against_votes */\n      0x01\n      add\n      sload\n        /* \"backEnd/contracts/BUNN_Governor_Proxy.sol\":5334:5367  votes[topic_id].against_votes + 1 */\n      tag_135\n      swap2\n      swap1\n      tag_101\n      jump\t// in\n    tag_135:\n        /* \"backEnd/contracts/BUNN_Governor_Proxy.sol\":5302:5307  votes */\n      0x06\n        /* \"backEnd/contracts/BUNN_Governor_Proxy.sol\":5302:5317  votes[topic_id] */\n      0x00\n        /* \"backEnd/contracts/BUNN_Governor_Proxy.sol\":5308:5316  topic_id */\n      dup8\n        /* \"backEnd/contracts/BUNN_Governor_Proxy.sol\":5302:5317  votes[topic_id] */\n      dup2\n      mstore\n      0x20\n      add\n      swap1\n      dup2\n      mstore\n      0x20\n      add\n      0x00\n      keccak256\n        /* \"backEnd/contracts/BUNN_Governor_Proxy.sol\":5302:5331  votes[topic_id].against_votes */\n      0x01\n      add\n        /* \"backEnd/contracts/BUNN_Governor_Proxy.sol\":5302:5367  votes[topic_id].against_votes = votes[topic_id].against_votes + 1 */\n      dup2\n      swap1\n      sstore\n      pop\n        /* \"backEnd/contracts/BUNN_Governor_Proxy.sol\":5157:5378  if (ballots[msg.sender][topic_id].position) {... */\n    tag_134:\n        /* \"backEnd/contracts/BUNN_Governor_Proxy.sol\":5403:5413  msg.sender */\n      caller\n        /* \"backEnd/contracts/BUNN_Governor_Proxy.sol\":5393:5435  vote_cast(msg.sender, topic.id, position_) */\n      0xffffffffffffffffffffffffffffffffffffffff\n      and\n      0x4f7ff1c79e536d7fef60ccb53beb6009e08841ffcba10e515e076f4cbdd9e320\n        /* \"backEnd/contracts/BUNN_Governor_Proxy.sol\":5415:5420  topic */\n      dup5\n        /* \"backEnd/contracts/BUNN_Governor_Proxy.sol\":5415:5423  topic.id */\n      0x00\n      add\n      mload\n        /* \"backEnd/contracts/BUNN_Governor_Proxy.sol\":5425:5434  position_ */\n      dup7\n        /* \"backEnd/contracts/BUNN_Governor_Proxy.sol\":5393:5435  vote_cast(msg.sender, topic.id, position_) */\n      mload(0x40)\n      tag_136\n      swap3\n      swap2\n      swap1\n      tag_137\n      jump\t// in\n    tag_136:\n      mload(0x40)\n      dup1\n      swap2\n      sub\n      swap1\n      log2\n        /* \"backEnd/contracts/BUNN_Governor_Proxy.sol\":4129:5442  {... */\n      pop\n      pop\n      pop\n        /* \"backEnd/contracts/BUNN_Governor_Proxy.sol\":4072:5442  function cast_vote(uint topic_id, bool position_) public {... */\n      pop\n      pop\n      jump\t// out\n        /* \"backEnd/contracts/restrictions.sol\":240:279  uint256 public voting_duration = 432000 */\n    tag_31:\n      sload(0x00)\n      dup2\n      jump\t// out\n        /* \"backEnd/contracts/restrictions.sol\":676:881  function quorum(... */\n    tag_38:\n        /* \"backEnd/contracts/restrictions.sol\":771:775  bool */\n      0x00\n        /* \"backEnd/contracts/restrictions.sol\":787:799  uint256 comp */\n      dup1\n        /* \"backEnd/contracts/restrictions.sol\":802:828  comparison.mulDiv(60, 100) */\n      tag_139\n        /* \"backEnd/contracts/restrictions.sol\":820:822  60 */\n      0x3c\n        /* \"backEnd/contracts/restrictions.sol\":824:827  100 */\n      0x64\n        /* \"backEnd/contracts/restrictions.sol\":802:812  comparison */\n      dup6\n        /* \"backEnd/contracts/restrictions.sol\":802:819  comparison.mulDiv */\n      tag_140\n      swap1\n        /* \"backEnd/contracts/restrictions.sol\":802:828  comparison.mulDiv(60, 100) */\n      swap3\n      swap2\n      swap1\n      0xffffffff\n      and\n      jump\t// in\n    tag_139:\n        /* \"backEnd/contracts/restrictions.sol\":787:828  uint256 comp = comparison.mulDiv(60, 100) */\n      swap1\n      pop\n        /* \"backEnd/contracts/restrictions.sol\":855:859  comp */\n      dup1\n        /* \"backEnd/contracts/restrictions.sol\":845:851  target */\n      dup5\n        /* \"backEnd/contracts/restrictions.sol\":845:859  target >= comp */\n      lt\n      iszero\n        /* \"backEnd/contracts/restrictions.sol\":845:874  target >= comp ? true : false */\n      tag_141\n      jumpi\n        /* \"backEnd/contracts/restrictions.sol\":869:874  false */\n      0x00\n        /* \"backEnd/contracts/restrictions.sol\":845:874  target >= comp ? true : false */\n      jump(tag_142)\n    tag_141:\n        /* \"backEnd/contracts/restrictions.sol\":862:866  true */\n      0x01\n        /* \"backEnd/contracts/restrictions.sol\":845:874  target >= comp ? true : false */\n    tag_142:\n        /* \"backEnd/contracts/restrictions.sol\":838:874  return target >= comp ? true : false */\n      swap2\n      pop\n      pop\n        /* \"backEnd/contracts/restrictions.sol\":676:881  function quorum(... */\n      swap3\n      swap2\n      pop\n      pop\n      jump\t// out\n        /* \"backEnd/contracts/BUNN_Governor_Proxy.sol\":1366:1425  mapping(address => mapping (uint => ballot)) public ballots */\n    tag_45:\n      mstore(0x20, 0x05)\n      dup2\n      0x00\n      mstore\n      mstore(0x20, keccak256(0x00, 0x40))\n      dup1\n      0x00\n      mstore\n      keccak256(0x00, 0x40)\n      0x00\n      swap2\n      pop\n      swap2\n      pop\n      pop\n      dup1\n      0x00\n      add\n      sload\n      swap1\n      dup1\n      0x01\n      add\n      0x00\n      swap1\n      sload\n      swap1\n      0x0100\n      exp\n      swap1\n      div\n      0xff\n      and\n      swap1\n      dup1\n      0x01\n      add\n      0x01\n      swap1\n      sload\n      swap1\n      0x0100\n      exp\n      swap1\n      div\n      0xff\n      and\n      swap1\n      pop\n      dup4\n      jump\t// out\n        /* \"backEnd/contracts/BUNN_Governor_Proxy.sol\":2212:2248  mapping(uint => Topic) public Topics */\n    tag_52:\n      mstore(0x20, 0x08)\n      dup1\n      0x00\n      mstore\n      keccak256(0x00, 0x40)\n      0x00\n      swap2\n      pop\n      swap1\n      pop\n      dup1\n      0x00\n      add\n      sload\n      swap1\n      dup1\n      0x01\n      add\n      dup1\n      sload\n      tag_143\n      swap1\n      tag_105\n      jump\t// in\n    tag_143:\n      dup1\n      0x1f\n      add\n      0x20\n      dup1\n      swap2\n      div\n      mul\n      0x20\n      add\n      mload(0x40)\n      swap1\n      dup2\n      add\n      0x40\n      mstore\n      dup1\n      swap3\n      swap2\n      swap1\n      dup2\n      dup2\n      mstore\n      0x20\n      add\n      dup3\n      dup1\n      sload\n      tag_144\n      swap1\n      tag_105\n      jump\t// in\n    tag_144:\n      dup1\n      iszero\n      tag_145\n      jumpi\n      dup1\n      0x1f\n      lt\n      tag_146\n      jumpi\n      0x0100\n      dup1\n      dup4\n      sload\n      div\n      mul\n      dup4\n      mstore\n      swap2\n      0x20\n      add\n      swap2\n      jump(tag_145)\n    tag_146:\n      dup3\n      add\n      swap2\n      swap1\n      0x00\n      mstore\n      keccak256(0x00, 0x20)\n      swap1\n    tag_147:\n      dup2\n      sload\n      dup2\n      mstore\n      swap1\n      0x01\n      add\n      swap1\n      0x20\n      add\n      dup1\n      dup4\n      gt\n      tag_147\n      jumpi\n      dup3\n      swap1\n      sub\n      0x1f\n      and\n      dup3\n      add\n      swap2\n    tag_145:\n      pop\n      pop\n      pop\n      pop\n      pop\n      swap1\n      dup1\n      0x02\n      add\n      0x00\n      swap1\n      sload\n      swap1\n      0x0100\n      exp\n      swap1\n      div\n      0xffffffffffffffffffffffffffffffffffffffff\n      and\n      swap1\n      dup1\n      0x03\n      add\n      0x00\n      swap1\n      sload\n      swap1\n      0x0100\n      exp\n      swap1\n      div\n      0xffffffffffffffffffffffffffffffffffffffff\n      and\n      swap1\n      dup1\n      0x04\n      add\n      sload\n      swap1\n      dup1\n      0x05\n      add\n      dup1\n      sload\n      tag_148\n      swap1\n      tag_105\n      jump\t// in\n    tag_148:\n      dup1\n      0x1f\n      add\n      0x20\n      dup1\n      swap2\n      div\n      mul\n      0x20\n      add\n      mload(0x40)\n      swap1\n      dup2\n      add\n      0x40\n      mstore\n      dup1\n      swap3\n      swap2\n      swap1\n      dup2\n      dup2\n      mstore\n      0x20\n      add\n      dup3\n      dup1\n      sload\n      tag_149\n      swap1\n      tag_105\n      jump\t// in\n    tag_149:\n      dup1\n      iszero\n      tag_150\n      jumpi\n      dup1\n      0x1f\n      lt\n      tag_151\n      jumpi\n      0x0100\n      dup1\n      dup4\n      sload\n      div\n      mul\n      dup4\n      mstore\n      swap2\n      0x20\n      add\n      swap2\n      jump(tag_150)\n    tag_151:\n      dup3\n      add\n      swap2\n      swap1\n      0x00\n      mstore\n      keccak256(0x00, 0x20)\n      swap1\n    tag_152:\n      dup2\n      sload\n      dup2\n      mstore\n      swap1\n      0x01\n      add\n      swap1\n      0x20\n      add\n      dup1\n      dup4\n      gt\n      tag_152\n      jumpi\n      dup3\n      swap1\n      sub\n      0x1f\n      and\n      dup3\n      add\n      swap2\n    tag_150:\n      pop\n      pop\n      pop\n      pop\n      pop\n      swap1\n      dup1\n      0x06\n      add\n      sload\n      swap1\n      dup1\n      0x07\n      add\n      0x00\n      swap1\n      sload\n      swap1\n      0x0100\n      exp\n      swap1\n      div\n      0xff\n      and\n      swap1\n      dup1\n      0x07\n      add\n      0x01\n      swap1\n      sload\n      swap1\n      0x0100\n      exp\n      swap1\n      div\n      0xff\n      and\n      swap1\n      pop\n      dup10\n      jump\t// out\n        /* \"backEnd/contracts/BUNN_Governor_Proxy.sol\":1513:1547  mapping(uint => vote) public votes */\n    tag_58:\n      mstore(0x20, 0x06)\n      dup1\n      0x00\n      mstore\n      keccak256(0x00, 0x40)\n      0x00\n      swap2\n      pop\n      swap1\n      pop\n      dup1\n      0x00\n      add\n      sload\n      swap1\n      dup1\n      0x01\n      add\n      sload\n      swap1\n      pop\n      dup3\n      jump\t// out\n        /* \"backEnd/contracts/BUNN_Governor_Proxy.sol\":2183:2206  uint public counter = 1 */\n    tag_63:\n      sload(0x07)\n      dup2\n      jump\t// out\n        /* \"backEnd/contracts/restrictions.sol\":294:337  uint256 public implementation_delay = 86400 */\n    tag_67:\n      sload(0x01)\n      dup2\n      jump\t// out\n        /* \"backEnd/contracts/BUNN_Governor_Proxy.sol\":333:356  uint256 public returned */\n    tag_71:\n      sload(0x03)\n      dup2\n      jump\t// out\n        /* \"backEnd/contracts/BUNN_Governor_Proxy.sol\":5525:6554  function implement_decision(... */\n    tag_75:\n        /* \"backEnd/contracts/BUNN_Governor_Proxy.sol\":5607:5638  Topic memory topic_to_implement */\n      tag_154\n      tag_155\n      jump\t// in\n    tag_154:\n        /* \"backEnd/contracts/BUNN_Governor_Proxy.sol\":5648:5679  address implementation_contract */\n      0x00\n        /* \"backEnd/contracts/BUNN_Governor_Proxy.sol\":5689:5720  uint256 implementation_argument */\n      dup1\n        /* \"backEnd/contracts/BUNN_Governor_Proxy.sol\":5730:5753  string memory signature */\n      0x60\n        /* \"backEnd/contracts/BUNN_Governor_Proxy.sol\":5785:5791  Topics */\n      0x08\n        /* \"backEnd/contracts/BUNN_Governor_Proxy.sol\":5785:5801  Topics[topic_id] */\n      0x00\n        /* \"backEnd/contracts/BUNN_Governor_Proxy.sol\":5792:5800  topic_id */\n      dup7\n        /* \"backEnd/contracts/BUNN_Governor_Proxy.sol\":5785:5801  Topics[topic_id] */\n      dup2\n      mstore\n      0x20\n      add\n      swap1\n      dup2\n      mstore\n      0x20\n      add\n      0x00\n      keccak256\n        /* \"backEnd/contracts/BUNN_Governor_Proxy.sol\":5764:5801  topic_to_implement = Topics[topic_id] */\n      mload(0x40)\n      dup1\n      0x0120\n      add\n      0x40\n      mstore\n      swap1\n      dup2\n      0x00\n      dup3\n      add\n      sload\n      dup2\n      mstore\n      0x20\n      add\n      0x01\n      dup3\n      add\n      dup1\n      sload\n      tag_156\n      swap1\n      tag_105\n      jump\t// in\n    tag_156:\n      dup1\n      0x1f\n      add\n      0x20\n      dup1\n      swap2\n      div\n      mul\n      0x20\n      add\n      mload(0x40)\n      swap1\n      dup2\n      add\n      0x40\n      mstore\n      dup1\n      swap3\n      swap2\n      swap1\n      dup2\n      dup2\n      mstore\n      0x20\n      add\n      dup3\n      dup1\n      sload\n      tag_157\n      swap1\n      tag_105\n      jump\t// in\n    tag_157:\n      dup1\n      iszero\n      tag_158\n      jumpi\n      dup1\n      0x1f\n      lt\n      tag_159\n      jumpi\n      0x0100\n      dup1\n      dup4\n      sload\n      div\n      mul\n      dup4\n      mstore\n      swap2\n      0x20\n      add\n      swap2\n      jump(tag_158)\n    tag_159:\n      dup3\n      add\n      swap2\n      swap1\n      0x00\n      mstore\n      keccak256(0x00, 0x20)\n      swap1\n    tag_160:\n      dup2\n      sload\n      dup2\n      mstore\n      swap1\n      0x01\n      add\n      swap1\n      0x20\n      add\n      dup1\n      dup4\n      gt\n      tag_160\n      jumpi\n      dup3\n      swap1\n      sub\n      0x1f\n      and\n      dup3\n      add\n      swap2\n    tag_158:\n      pop\n      pop\n      pop\n      pop\n      pop\n      dup2\n      mstore\n      0x20\n      add\n      0x02\n      dup3\n      add\n      0x00\n      swap1\n      sload\n      swap1\n      0x0100\n      exp\n      swap1\n      div\n      0xffffffffffffffffffffffffffffffffffffffff\n      and\n      0xffffffffffffffffffffffffffffffffffffffff\n      and\n      0xffffffffffffffffffffffffffffffffffffffff\n      and\n      dup2\n      mstore\n      0x20\n      add\n      0x03\n      dup3\n      add\n      0x00\n      swap1\n      sload\n      swap1\n      0x0100\n      exp\n      swap1\n      div\n      0xffffffffffffffffffffffffffffffffffffffff\n      and\n      0xffffffffffffffffffffffffffffffffffffffff\n      and\n      0xffffffffffffffffffffffffffffffffffffffff\n      and\n      dup2\n      mstore\n      0x20\n      add\n      0x04\n      dup3\n      add\n      sload\n      dup2\n      mstore\n      0x20\n      add\n      0x05\n      dup3\n      add\n      dup1\n      sload\n      tag_161\n      swap1\n      tag_105\n      jump\t// in\n    tag_161:\n      dup1\n      0x1f\n      add\n      0x20\n      dup1\n      swap2\n      div\n      mul\n      0x20\n      add\n      mload(0x40)\n      swap1\n      dup2\n      add\n      0x40\n      mstore\n      dup1\n      swap3\n      swap2\n      swap1\n      dup2\n      dup2\n      mstore\n      0x20\n      add\n      dup3\n      dup1\n      sload\n      tag_162\n      swap1\n      tag_105\n      jump\t// in\n    tag_162:\n      dup1\n      iszero\n      tag_163\n      jumpi\n      dup1\n      0x1f\n      lt\n      tag_164\n      jumpi\n      0x0100\n      dup1\n      dup4\n      sload\n      div\n      mul\n      dup4\n      mstore\n      swap2\n      0x20\n      add\n      swap2\n      jump(tag_163)\n    tag_164:\n      dup3\n      add\n      swap2\n      swap1\n      0x00\n      mstore\n      keccak256(0x00, 0x20)\n      swap1\n    tag_165:\n      dup2\n      sload\n      dup2\n      mstore\n      swap1\n      0x01\n      add\n      swap1\n      0x20\n      add\n      dup1\n      dup4\n      gt\n      tag_165\n      jumpi\n      dup3\n      swap1\n      sub\n      0x1f\n      and\n      dup3\n      add\n      swap2\n    tag_163:\n      pop\n      pop\n      pop\n      pop\n      pop\n      dup2\n      mstore\n      0x20\n      add\n      0x06\n      dup3\n      add\n      sload\n      dup2\n      mstore\n      0x20\n      add\n      0x07\n      dup3\n      add\n      0x00\n      swap1\n      sload\n      swap1\n      0x0100\n      exp\n      swap1\n      div\n      0xff\n      and\n      iszero\n      iszero\n      iszero\n      iszero\n      dup2\n      mstore\n      0x20\n      add\n      0x07\n      dup3\n      add\n      0x01\n      swap1\n      sload\n      swap1\n      0x0100\n      exp\n      swap1\n      div\n      0xff\n      and\n      iszero\n      iszero\n      iszero\n      iszero\n      dup2\n      mstore\n      pop\n      pop\n      swap4\n      pop\n        /* \"backEnd/contracts/BUNN_Governor_Proxy.sol\":5837:5855  topic_to_implement */\n      dup4\n        /* \"backEnd/contracts/BUNN_Governor_Proxy.sol\":5837:5887  topic_to_implement.implementation_contract_address */\n      0x60\n      add\n      mload\n        /* \"backEnd/contracts/BUNN_Governor_Proxy.sol\":5811:5887  implementation_contract = topic_to_implement.implementation_contract_address */\n      swap3\n      pop\n        /* \"backEnd/contracts/BUNN_Governor_Proxy.sol\":5923:5941  topic_to_implement */\n      dup4\n        /* \"backEnd/contracts/BUNN_Governor_Proxy.sol\":5923:5974  topic_to_implement.implementation_contract_argument */\n      0x80\n      add\n      mload\n        /* \"backEnd/contracts/BUNN_Governor_Proxy.sol\":5897:5974  implementation_argument = topic_to_implement.implementation_contract_argument */\n      swap2\n      pop\n        /* \"backEnd/contracts/BUNN_Governor_Proxy.sol\":5996:6014  topic_to_implement */\n      dup4\n        /* \"backEnd/contracts/BUNN_Governor_Proxy.sol\":5996:6024  topic_to_implement.signature */\n      0xa0\n      add\n      mload\n        /* \"backEnd/contracts/BUNN_Governor_Proxy.sol\":5984:6024  signature = topic_to_implement.signature */\n      swap1\n      pop\n        /* \"backEnd/contracts/BUNN_Governor_Proxy.sol\":6098:6117  uint256 total_votes */\n      0x00\n        /* \"backEnd/contracts/BUNN_Governor_Proxy.sol\":6148:6153  votes */\n      0x06\n        /* \"backEnd/contracts/BUNN_Governor_Proxy.sol\":6148:6163  votes[topic_id] */\n      0x00\n        /* \"backEnd/contracts/BUNN_Governor_Proxy.sol\":6154:6162  topic_id */\n      dup8\n        /* \"backEnd/contracts/BUNN_Governor_Proxy.sol\":6148:6163  votes[topic_id] */\n      dup2\n      mstore\n      0x20\n      add\n      swap1\n      dup2\n      mstore\n      0x20\n      add\n      0x00\n      keccak256\n        /* \"backEnd/contracts/BUNN_Governor_Proxy.sol\":6148:6177  votes[topic_id].against_votes */\n      0x01\n      add\n      sload\n        /* \"backEnd/contracts/BUNN_Governor_Proxy.sol\":6120:6125  votes */\n      0x06\n        /* \"backEnd/contracts/BUNN_Governor_Proxy.sol\":6120:6135  votes[topic_id] */\n      0x00\n        /* \"backEnd/contracts/BUNN_Governor_Proxy.sol\":6126:6134  topic_id */\n      dup9\n        /* \"backEnd/contracts/BUNN_Governor_Proxy.sol\":6120:6135  votes[topic_id] */\n      dup2\n      mstore\n      0x20\n      add\n      swap1\n      dup2\n      mstore\n      0x20\n      add\n      0x00\n      keccak256\n        /* \"backEnd/contracts/BUNN_Governor_Proxy.sol\":6120:6145  votes[topic_id].for_votes */\n      0x00\n      add\n      sload\n        /* \"backEnd/contracts/BUNN_Governor_Proxy.sol\":6120:6177  votes[topic_id].for_votes + votes[topic_id].against_votes */\n      tag_166\n      swap2\n      swap1\n      tag_101\n      jump\t// in\n    tag_166:\n        /* \"backEnd/contracts/BUNN_Governor_Proxy.sol\":6098:6177  uint256 total_votes = votes[topic_id].for_votes + votes[topic_id].against_votes */\n      swap1\n      pop\n        /* \"backEnd/contracts/BUNN_Governor_Proxy.sol\":6195:6241  quorum(votes[topic_id].for_votes, total_votes) */\n      tag_167\n        /* \"backEnd/contracts/BUNN_Governor_Proxy.sol\":6202:6207  votes */\n      0x06\n        /* \"backEnd/contracts/BUNN_Governor_Proxy.sol\":6202:6217  votes[topic_id] */\n      0x00\n        /* \"backEnd/contracts/BUNN_Governor_Proxy.sol\":6208:6216  topic_id */\n      dup9\n        /* \"backEnd/contracts/BUNN_Governor_Proxy.sol\":6202:6217  votes[topic_id] */\n      dup2\n      mstore\n      0x20\n      add\n      swap1\n      dup2\n      mstore\n      0x20\n      add\n      0x00\n      keccak256\n        /* \"backEnd/contracts/BUNN_Governor_Proxy.sol\":6202:6227  votes[topic_id].for_votes */\n      0x00\n      add\n      sload\n        /* \"backEnd/contracts/BUNN_Governor_Proxy.sol\":6229:6240  total_votes */\n      dup3\n        /* \"backEnd/contracts/BUNN_Governor_Proxy.sol\":6195:6201  quorum */\n      tag_38\n        /* \"backEnd/contracts/BUNN_Governor_Proxy.sol\":6195:6241  quorum(votes[topic_id].for_votes, total_votes) */\n      jump\t// in\n    tag_167:\n        /* \"backEnd/contracts/BUNN_Governor_Proxy.sol\":6187:6268  require(quorum(votes[topic_id].for_votes, total_votes), \"THRESHOLD NOT EXCEEDED\") */\n      tag_168\n      jumpi\n      mload(0x40)\n      0x08c379a000000000000000000000000000000000000000000000000000000000\n      dup2\n      mstore\n      0x04\n      add\n      tag_169\n      swap1\n      tag_170\n      jump\t// in\n    tag_169:\n      mload(0x40)\n      dup1\n      swap2\n      sub\n      swap1\n      revert\n    tag_168:\n        /* \"backEnd/contracts/BUNN_Governor_Proxy.sol\":6280:6292  bool success */\n      0x00\n        /* \"backEnd/contracts/BUNN_Governor_Proxy.sol\":6293:6319  bytes memory returned_data */\n      dup1\n        /* \"backEnd/contracts/BUNN_Governor_Proxy.sol\":6323:6346  implementation_contract */\n      dup6\n        /* \"backEnd/contracts/BUNN_Governor_Proxy.sol\":6323:6351  implementation_contract.call */\n      0xffffffffffffffffffffffffffffffffffffffff\n      and\n        /* \"backEnd/contracts/BUNN_Governor_Proxy.sol\":6359:6368  msg.value */\n      callvalue\n        /* \"backEnd/contracts/BUNN_Governor_Proxy.sol\":6394:6403  signature */\n      dup6\n        /* \"backEnd/contracts/BUNN_Governor_Proxy.sol\":6413:6436  implementation_argument */\n      dup8\n        /* \"backEnd/contracts/BUNN_Governor_Proxy.sol\":6370:6438  abi.encodeWithSignature(signature, uint256(implementation_argument)) */\n      add(0x24, mload(0x40))\n      tag_171\n      swap2\n      swap1\n      tag_33\n      jump\t// in\n    tag_171:\n      mload(0x40)\n      0x20\n      dup2\n      dup4\n      sub\n      sub\n      dup2\n      mstore\n      swap1\n      0x40\n      mstore\n      swap1\n      mload(0x40)\n      tag_172\n      swap2\n      swap1\n      tag_173\n      jump\t// in\n    tag_172:\n      mload(0x40)\n      dup1\n      swap2\n      sub\n      swap1\n      keccak256\n      not(0xffffffffffffffffffffffffffffffffffffffffffffffffffffffff)\n      and\n      0x20\n      dup3\n      add\n      dup1\n      mload\n      0xffffffffffffffffffffffffffffffffffffffffffffffffffffffff\n      dup4\n      dup2\n      dup4\n      and\n      or\n      dup4\n      mstore\n      pop\n      pop\n      pop\n      pop\n        /* \"backEnd/contracts/BUNN_Governor_Proxy.sol\":6323:6439  implementation_contract.call{value: msg.value}(abi.encodeWithSignature(signature, uint256(implementation_argument))) */\n      mload(0x40)\n      tag_174\n      swap2\n      swap1\n      tag_175\n      jump\t// in\n    tag_174:\n      0x00\n      mload(0x40)\n      dup1\n      dup4\n      sub\n      dup2\n      dup6\n      dup8\n      gas\n      call\n      swap3\n      pop\n      pop\n      pop\n      returndatasize\n      dup1\n      0x00\n      dup2\n      eq\n      tag_178\n      jumpi\n      mload(0x40)\n      swap2\n      pop\n      and(add(returndatasize, 0x3f), not(0x1f))\n      dup3\n      add\n      0x40\n      mstore\n      returndatasize\n      dup3\n      mstore\n      returndatasize\n      0x00\n      0x20\n      dup5\n      add\n      returndatacopy\n      jump(tag_177)\n    tag_178:\n      0x60\n      swap2\n      pop\n    tag_177:\n      pop\n        /* \"backEnd/contracts/BUNN_Governor_Proxy.sol\":6279:6439  (bool success,bytes memory returned_data) = implementation_contract.call{value: msg.value}(abi.encodeWithSignature(signature, uint256(implementation_argument))) */\n      swap2\n      pop\n      swap2\n      pop\n        /* \"backEnd/contracts/BUNN_Governor_Proxy.sol\":6458:6465  success */\n      dup2\n        /* \"backEnd/contracts/BUNN_Governor_Proxy.sol\":6450:6489  require(success, \"FAILED TO IMPLEMENT\") */\n      tag_179\n      jumpi\n      mload(0x40)\n      0x08c379a000000000000000000000000000000000000000000000000000000000\n      dup2\n      mstore\n      0x04\n      add\n      tag_180\n      swap1\n      tag_181\n      jump\t// in\n    tag_180:\n      mload(0x40)\n      dup1\n      swap2\n      sub\n      swap1\n      revert\n    tag_179:\n        /* \"backEnd/contracts/BUNN_Governor_Proxy.sol\":6522:6535  returned_data */\n      dup1\n        /* \"backEnd/contracts/BUNN_Governor_Proxy.sol\":6511:6547  abi.decode(returned_data, (uint256)) */\n      dup1\n      0x20\n      add\n      swap1\n      mload\n      dup2\n      add\n      swap1\n      tag_182\n      swap2\n      swap1\n      tag_125\n      jump\t// in\n    tag_182:\n        /* \"backEnd/contracts/BUNN_Governor_Proxy.sol\":6500:6508  returned */\n      0x03\n        /* \"backEnd/contracts/BUNN_Governor_Proxy.sol\":6500:6547  returned = abi.decode(returned_data, (uint256)) */\n      dup2\n      swap1\n      sstore\n      pop\n        /* \"backEnd/contracts/BUNN_Governor_Proxy.sol\":5597:6554  {... */\n      pop\n      pop\n      pop\n      pop\n      pop\n      pop\n      pop\n        /* \"backEnd/contracts/BUNN_Governor_Proxy.sol\":5525:6554  function implement_decision(... */\n      pop\n      jump\t// out\n        /* \"backEnd/contracts/BUNN_Governor_Proxy.sol\":291:327  address public utility_token_address */\n    tag_78:\n      0x02\n      0x00\n      swap1\n      sload\n      swap1\n      0x0100\n      exp\n      swap1\n      div\n      0xffffffffffffffffffffffffffffffffffffffff\n      and\n      dup2\n      jump\t// out\n        /* \"backEnd/contracts/BUNN_Governor_Proxy.sol\":2848:3073  function register(string memory name_/* , uint256 d_tokens */) public {... */\n    tag_85:\n        /* \"backEnd/contracts/BUNN_Governor_Proxy.sol\":2950:3066  Member({... */\n      mload(0x40)\n      dup1\n      0x40\n      add\n      0x40\n      mstore\n      dup1\n        /* \"backEnd/contracts/BUNN_Governor_Proxy.sol\":2977:2982  name_ */\n      dup3\n        /* \"backEnd/contracts/BUNN_Governor_Proxy.sol\":2950:3066  Member({... */\n      dup2\n      mstore\n      0x20\n      add\n        /* \"backEnd/contracts/BUNN_Governor_Proxy.sol\":3005:3009  true */\n      0x01\n        /* \"backEnd/contracts/BUNN_Governor_Proxy.sol\":2950:3066  Member({... */\n      iszero\n      iszero\n      dup2\n      mstore\n      pop\n        /* \"backEnd/contracts/BUNN_Governor_Proxy.sol\":2928:2935  Members */\n      0x04\n        /* \"backEnd/contracts/BUNN_Governor_Proxy.sol\":2928:2947  Members[msg.sender] */\n      0x00\n        /* \"backEnd/contracts/BUNN_Governor_Proxy.sol\":2936:2946  msg.sender */\n      caller\n        /* \"backEnd/contracts/BUNN_Governor_Proxy.sol\":2928:2947  Members[msg.sender] */\n      0xffffffffffffffffffffffffffffffffffffffff\n      and\n      0xffffffffffffffffffffffffffffffffffffffff\n      and\n      dup2\n      mstore\n      0x20\n      add\n      swap1\n      dup2\n      mstore\n      0x20\n      add\n      0x00\n      keccak256\n        /* \"backEnd/contracts/BUNN_Governor_Proxy.sol\":2928:3066  Members[msg.sender] = Member({... */\n      0x00\n      dup3\n      add\n      mload\n      dup2\n      0x00\n      add\n      swap1\n      dup2\n      tag_184\n      swap2\n      swap1\n      tag_98\n      jump\t// in\n    tag_184:\n      pop\n      0x20\n      dup3\n      add\n      mload\n      dup2\n      0x01\n      add\n      exp(0x0100, 0x00)\n      dup2\n      sload\n      dup2\n      0xff\n      mul\n      not\n      and\n      swap1\n      dup4\n      iszero\n      iszero\n      mul\n      or\n      swap1\n      sstore\n      pop\n      swap1\n      pop\n      pop\n        /* \"backEnd/contracts/BUNN_Governor_Proxy.sol\":2848:3073  function register(string memory name_/* , uint256 d_tokens */) public {... */\n      pop\n      jump\t// out\n        /* \"backEnd/contracts/BUNN_Governor_Proxy.sol\":877:918  mapping(address => Member) public Members */\n    tag_90:\n      mstore(0x20, 0x04)\n      dup1\n      0x00\n      mstore\n      keccak256(0x00, 0x40)\n      0x00\n      swap2\n      pop\n      swap1\n      pop\n      dup1\n      0x00\n      add\n      dup1\n      sload\n      tag_185\n      swap1\n      tag_105\n      jump\t// in\n    tag_185:\n      dup1\n      0x1f\n      add\n      0x20\n      dup1\n      swap2\n      div\n      mul\n      0x20\n      add\n      mload(0x40)\n      swap1\n      dup2\n      add\n      0x40\n      mstore\n      dup1\n      swap3\n      swap2\n      swap1\n      dup2\n      dup2\n      mstore\n      0x20\n      add\n      dup3\n      dup1\n      sload\n      tag_186\n      swap1\n      tag_105\n      jump\t// in\n    tag_186:\n      dup1\n      iszero\n      tag_187\n      jumpi\n      dup1\n      0x1f\n      lt\n      tag_188\n      jumpi\n      0x0100\n      dup1\n      dup4\n      sload\n      div\n      mul\n      dup4\n      mstore\n      swap2\n      0x20\n      add\n      swap2\n      jump(tag_187)\n    tag_188:\n      dup3\n      add\n      swap2\n      swap1\n      0x00\n      mstore\n      keccak256(0x00, 0x20)\n      swap1\n    tag_189:\n      dup2\n      sload\n      dup2\n      mstore\n      swap1\n      0x01\n      add\n      swap1\n      0x20\n      add\n      dup1\n      dup4\n      gt\n      tag_189\n      jumpi\n      dup3\n      swap1\n      sub\n      0x1f\n      and\n      dup3\n      add\n      swap2\n    tag_187:\n      pop\n      pop\n      pop\n      pop\n      pop\n      swap1\n      dup1\n      0x01\n      add\n      0x00\n      swap1\n      sload\n      swap1\n      0x0100\n      exp\n      swap1\n      div\n      0xff\n      and\n      swap1\n      pop\n      dup3\n      jump\t// out\n        /* \"@openzeppelin/contracts/utils/math/Math.sol\":3803:7919  function mulDiv(uint256 x, uint256 y, uint256 denominator) internal pure returns (uint256 result) {... */\n    tag_140:\n        /* \"@openzeppelin/contracts/utils/math/Math.sol\":3885:3899  uint256 result */\n      0x00\n        /* \"@openzeppelin/contracts/utils/math/Math.sol\":4232:4245  uint256 prod0 */\n      dup1\n        /* \"@openzeppelin/contracts/utils/math/Math.sol\":4252:4253  y */\n      dup4\n        /* \"@openzeppelin/contracts/utils/math/Math.sol\":4248:4249  x */\n      dup6\n        /* \"@openzeppelin/contracts/utils/math/Math.sol\":4248:4253  x * y */\n      mul\n        /* \"@openzeppelin/contracts/utils/math/Math.sol\":4232:4253  uint256 prod0 = x * y */\n      swap1\n      pop\n        /* \"@openzeppelin/contracts/utils/math/Math.sol\":4312:4325  uint256 prod1 */\n      0x00\n        /* \"@openzeppelin/contracts/utils/math/Math.sol\":4437:4438  0 */\n      dup1\n        /* \"@openzeppelin/contracts/utils/math/Math.sol\":4433:4439  not(0) */\n      not\n        /* \"@openzeppelin/contracts/utils/math/Math.sol\":4430:4431  y */\n      dup6\n        /* \"@openzeppelin/contracts/utils/math/Math.sol\":4427:4428  x */\n      dup8\n        /* \"@openzeppelin/contracts/utils/math/Math.sol\":4420:4440  mulmod(x, y, not(0)) */\n      mulmod\n        /* \"@openzeppelin/contracts/utils/math/Math.sol\":4493:4498  prod0 */\n      dup3\n        /* \"@openzeppelin/contracts/utils/math/Math.sol\":4489:4491  mm */\n      dup2\n        /* \"@openzeppelin/contracts/utils/math/Math.sol\":4486:4499  lt(mm, prod0) */\n      lt\n        /* \"@openzeppelin/contracts/utils/math/Math.sol\":4478:4483  prod0 */\n      dup4\n        /* \"@openzeppelin/contracts/utils/math/Math.sol\":4474:4476  mm */\n      dup3\n        /* \"@openzeppelin/contracts/utils/math/Math.sol\":4470:4484  sub(mm, prod0) */\n      sub\n        /* \"@openzeppelin/contracts/utils/math/Math.sol\":4466:4500  sub(sub(mm, prod0), lt(mm, prod0)) */\n      sub\n        /* \"@openzeppelin/contracts/utils/math/Math.sol\":4457:4500  prod1 := sub(sub(mm, prod0), lt(mm, prod0)) */\n      swap2\n      pop\n        /* \"@openzeppelin/contracts/utils/math/Math.sol\":4392:4514  {... */\n      pop\n        /* \"@openzeppelin/contracts/utils/math/Math.sol\":4604:4605  0 */\n      0x00\n        /* \"@openzeppelin/contracts/utils/math/Math.sol\":4595:4600  prod1 */\n      dup2\n        /* \"@openzeppelin/contracts/utils/math/Math.sol\":4595:4605  prod1 == 0 */\n      sub\n        /* \"@openzeppelin/contracts/utils/math/Math.sol\":4591:4959  if (prod1 == 0) {... */\n      tag_191\n      jumpi\n        /* \"@openzeppelin/contracts/utils/math/Math.sol\":4933:4944  denominator */\n      dup4\n        /* \"@openzeppelin/contracts/utils/math/Math.sol\":4925:4930  prod0 */\n      dup3\n        /* \"@openzeppelin/contracts/utils/math/Math.sol\":4925:4944  prod0 / denominator */\n      dup2\n      tag_192\n      jumpi\n      tag_193\n      tag_194\n      jump\t// in\n    tag_193:\n    tag_192:\n      div\n        /* \"@openzeppelin/contracts/utils/math/Math.sol\":4918:4944  return prod0 / denominator */\n      swap3\n      pop\n      pop\n      pop\n      jump(tag_190)\n        /* \"@openzeppelin/contracts/utils/math/Math.sol\":4591:4959  if (prod1 == 0) {... */\n    tag_191:\n        /* \"@openzeppelin/contracts/utils/math/Math.sol\":5080:5085  prod1 */\n      dup1\n        /* \"@openzeppelin/contracts/utils/math/Math.sol\":5065:5076  denominator */\n      dup5\n        /* \"@openzeppelin/contracts/utils/math/Math.sol\":5065:5085  denominator <= prod1 */\n      gt\n        /* \"@openzeppelin/contracts/utils/math/Math.sol\":5061:5149  if (denominator <= prod1) {... */\n      tag_195\n      jumpi\n        /* \"@openzeppelin/contracts/utils/math/Math.sol\":5112:5134  MathOverflowedMulDiv() */\n      mload(0x40)\n      0x227bc15300000000000000000000000000000000000000000000000000000000\n      dup2\n      mstore\n      0x04\n      add\n      mload(0x40)\n      dup1\n      swap2\n      sub\n      swap1\n      revert\n        /* \"@openzeppelin/contracts/utils/math/Math.sol\":5061:5149  if (denominator <= prod1) {... */\n    tag_195:\n        /* \"@openzeppelin/contracts/utils/math/Math.sol\":5404:5421  uint256 remainder */\n      0x00\n        /* \"@openzeppelin/contracts/utils/math/Math.sol\":5539:5550  denominator */\n      dup5\n        /* \"@openzeppelin/contracts/utils/math/Math.sol\":5536:5537  y */\n      dup7\n        /* \"@openzeppelin/contracts/utils/math/Math.sol\":5533:5534  x */\n      dup9\n        /* \"@openzeppelin/contracts/utils/math/Math.sol\":5526:5551  mulmod(x, y, denominator) */\n      mulmod\n        /* \"@openzeppelin/contracts/utils/math/Math.sol\":5513:5551  remainder := mulmod(x, y, denominator) */\n      swap1\n      pop\n        /* \"@openzeppelin/contracts/utils/math/Math.sol\":5667:5672  prod0 */\n      dup3\n        /* \"@openzeppelin/contracts/utils/math/Math.sol\":5656:5665  remainder */\n      dup2\n        /* \"@openzeppelin/contracts/utils/math/Math.sol\":5653:5673  gt(remainder, prod0) */\n      gt\n        /* \"@openzeppelin/contracts/utils/math/Math.sol\":5646:5651  prod1 */\n      dup3\n        /* \"@openzeppelin/contracts/utils/math/Math.sol\":5642:5674  sub(prod1, gt(remainder, prod0)) */\n      sub\n        /* \"@openzeppelin/contracts/utils/math/Math.sol\":5633:5674  prod1 := sub(prod1, gt(remainder, prod0)) */\n      swap2\n      pop\n        /* \"@openzeppelin/contracts/utils/math/Math.sol\":5711:5720  remainder */\n      dup1\n        /* \"@openzeppelin/contracts/utils/math/Math.sol\":5704:5709  prod0 */\n      dup4\n        /* \"@openzeppelin/contracts/utils/math/Math.sol\":5700:5721  sub(prod0, remainder) */\n      sub\n        /* \"@openzeppelin/contracts/utils/math/Math.sol\":5691:5721  prod0 := sub(prod0, remainder) */\n      swap3\n      pop\n        /* \"@openzeppelin/contracts/utils/math/Math.sol\":5939:5951  uint256 twos */\n      0x00\n        /* \"@openzeppelin/contracts/utils/math/Math.sol\":5973:5984  denominator */\n      dup6\n        /* \"@openzeppelin/contracts/utils/math/Math.sol\":5969:5970  0 */\n      0x00\n        /* \"@openzeppelin/contracts/utils/math/Math.sol\":5969:5984  0 - denominator */\n      sub\n        /* \"@openzeppelin/contracts/utils/math/Math.sol\":5954:5965  denominator */\n      dup7\n        /* \"@openzeppelin/contracts/utils/math/Math.sol\":5954:5985  denominator & (0 - denominator) */\n      and\n        /* \"@openzeppelin/contracts/utils/math/Math.sol\":5939:5985  uint256 twos = denominator & (0 - denominator) */\n      swap1\n      pop\n        /* \"@openzeppelin/contracts/utils/math/Math.sol\":6105:6109  twos */\n      dup1\n        /* \"@openzeppelin/contracts/utils/math/Math.sol\":6092:6103  denominator */\n      dup7\n        /* \"@openzeppelin/contracts/utils/math/Math.sol\":6088:6110  div(denominator, twos) */\n      div\n        /* \"@openzeppelin/contracts/utils/math/Math.sol\":6073:6110  denominator := div(denominator, twos) */\n      swap6\n      pop\n        /* \"@openzeppelin/contracts/utils/math/Math.sol\":6197:6201  twos */\n      dup1\n        /* \"@openzeppelin/contracts/utils/math/Math.sol\":6190:6195  prod0 */\n      dup5\n        /* \"@openzeppelin/contracts/utils/math/Math.sol\":6186:6202  div(prod0, twos) */\n      div\n        /* \"@openzeppelin/contracts/utils/math/Math.sol\":6177:6202  prod0 := div(prod0, twos) */\n      swap4\n      pop\n        /* \"@openzeppelin/contracts/utils/math/Math.sol\":6354:6355  1 */\n      0x01\n        /* \"@openzeppelin/contracts/utils/math/Math.sol\":6347:6351  twos */\n      dup2\n        /* \"@openzeppelin/contracts/utils/math/Math.sol\":6340:6344  twos */\n      dup3\n        /* \"@openzeppelin/contracts/utils/math/Math.sol\":6337:6338  0 */\n      0x00\n        /* \"@openzeppelin/contracts/utils/math/Math.sol\":6333:6345  sub(0, twos) */\n      sub\n        /* \"@openzeppelin/contracts/utils/math/Math.sol\":6329:6352  div(sub(0, twos), twos) */\n      div\n        /* \"@openzeppelin/contracts/utils/math/Math.sol\":6325:6356  add(div(sub(0, twos), twos), 1) */\n      add\n        /* \"@openzeppelin/contracts/utils/math/Math.sol\":6317:6356  twos := add(div(sub(0, twos), twos), 1) */\n      swap1\n      pop\n        /* \"@openzeppelin/contracts/utils/math/Math.sol\":6453:6457  twos */\n      dup1\n        /* \"@openzeppelin/contracts/utils/math/Math.sol\":6445:6450  prod1 */\n      dup4\n        /* \"@openzeppelin/contracts/utils/math/Math.sol\":6445:6457  prod1 * twos */\n      mul\n        /* \"@openzeppelin/contracts/utils/math/Math.sol\":6436:6457  prod0 |= prod1 * twos */\n      dup5\n      or\n      swap4\n      pop\n        /* \"@openzeppelin/contracts/utils/math/Math.sol\":6775:6790  uint256 inverse */\n      0x00\n        /* \"@openzeppelin/contracts/utils/math/Math.sol\":6813:6814  2 */\n      0x02\n        /* \"@openzeppelin/contracts/utils/math/Math.sol\":6798:6809  denominator */\n      dup8\n        /* \"@openzeppelin/contracts/utils/math/Math.sol\":6794:6795  3 */\n      0x03\n        /* \"@openzeppelin/contracts/utils/math/Math.sol\":6794:6809  3 * denominator */\n      mul\n        /* \"@openzeppelin/contracts/utils/math/Math.sol\":6793:6814  (3 * denominator) ^ 2 */\n      xor\n        /* \"@openzeppelin/contracts/utils/math/Math.sol\":6775:6814  uint256 inverse = (3 * denominator) ^ 2 */\n      swap1\n      pop\n        /* \"@openzeppelin/contracts/utils/math/Math.sol\":7060:7067  inverse */\n      dup1\n        /* \"@openzeppelin/contracts/utils/math/Math.sol\":7046:7057  denominator */\n      dup8\n        /* \"@openzeppelin/contracts/utils/math/Math.sol\":7046:7067  denominator * inverse */\n      mul\n        /* \"@openzeppelin/contracts/utils/math/Math.sol\":7042:7043  2 */\n      0x02\n        /* \"@openzeppelin/contracts/utils/math/Math.sol\":7042:7067  2 - denominator * inverse */\n      sub\n        /* \"@openzeppelin/contracts/utils/math/Math.sol\":7031:7067  inverse *= 2 - denominator * inverse */\n      dup2\n      mul\n      swap1\n      pop\n        /* \"@openzeppelin/contracts/utils/math/Math.sol\":7129:7136  inverse */\n      dup1\n        /* \"@openzeppelin/contracts/utils/math/Math.sol\":7115:7126  denominator */\n      dup8\n        /* \"@openzeppelin/contracts/utils/math/Math.sol\":7115:7136  denominator * inverse */\n      mul\n        /* \"@openzeppelin/contracts/utils/math/Math.sol\":7111:7112  2 */\n      0x02\n        /* \"@openzeppelin/contracts/utils/math/Math.sol\":7111:7136  2 - denominator * inverse */\n      sub\n        /* \"@openzeppelin/contracts/utils/math/Math.sol\":7100:7136  inverse *= 2 - denominator * inverse */\n      dup2\n      mul\n      swap1\n      pop\n        /* \"@openzeppelin/contracts/utils/math/Math.sol\":7199:7206  inverse */\n      dup1\n        /* \"@openzeppelin/contracts/utils/math/Math.sol\":7185:7196  denominator */\n      dup8\n        /* \"@openzeppelin/contracts/utils/math/Math.sol\":7185:7206  denominator * inverse */\n      mul\n        /* \"@openzeppelin/contracts/utils/math/Math.sol\":7181:7182  2 */\n      0x02\n        /* \"@openzeppelin/contracts/utils/math/Math.sol\":7181:7206  2 - denominator * inverse */\n      sub\n        /* \"@openzeppelin/contracts/utils/math/Math.sol\":7170:7206  inverse *= 2 - denominator * inverse */\n      dup2\n      mul\n      swap1\n      pop\n        /* \"@openzeppelin/contracts/utils/math/Math.sol\":7269:7276  inverse */\n      dup1\n        /* \"@openzeppelin/contracts/utils/math/Math.sol\":7255:7266  denominator */\n      dup8\n        /* \"@openzeppelin/contracts/utils/math/Math.sol\":7255:7276  denominator * inverse */\n      mul\n        /* \"@openzeppelin/contracts/utils/math/Math.sol\":7251:7252  2 */\n      0x02\n        /* \"@openzeppelin/contracts/utils/math/Math.sol\":7251:7276  2 - denominator * inverse */\n      sub\n        /* \"@openzeppelin/contracts/utils/math/Math.sol\":7240:7276  inverse *= 2 - denominator * inverse */\n      dup2\n      mul\n      swap1\n      pop\n        /* \"@openzeppelin/contracts/utils/math/Math.sol\":7339:7346  inverse */\n      dup1\n        /* \"@openzeppelin/contracts/utils/math/Math.sol\":7325:7336  denominator */\n      dup8\n        /* \"@openzeppelin/contracts/utils/math/Math.sol\":7325:7346  denominator * inverse */\n      mul\n        /* \"@openzeppelin/contracts/utils/math/Math.sol\":7321:7322  2 */\n      0x02\n        /* \"@openzeppelin/contracts/utils/math/Math.sol\":7321:7346  2 - denominator * inverse */\n      sub\n        /* \"@openzeppelin/contracts/utils/math/Math.sol\":7310:7346  inverse *= 2 - denominator * inverse */\n      dup2\n      mul\n      swap1\n      pop\n        /* \"@openzeppelin/contracts/utils/math/Math.sol\":7410:7417  inverse */\n      dup1\n        /* \"@openzeppelin/contracts/utils/math/Math.sol\":7396:7407  denominator */\n      dup8\n        /* \"@openzeppelin/contracts/utils/math/Math.sol\":7396:7417  denominator * inverse */\n      mul\n        /* \"@openzeppelin/contracts/utils/math/Math.sol\":7392:7393  2 */\n      0x02\n        /* \"@openzeppelin/contracts/utils/math/Math.sol\":7392:7417  2 - denominator * inverse */\n      sub\n        /* \"@openzeppelin/contracts/utils/math/Math.sol\":7381:7417  inverse *= 2 - denominator * inverse */\n      dup2\n      mul\n      swap1\n      pop\n        /* \"@openzeppelin/contracts/utils/math/Math.sol\":7868:7875  inverse */\n      dup1\n        /* \"@openzeppelin/contracts/utils/math/Math.sol\":7860:7865  prod0 */\n      dup6\n        /* \"@openzeppelin/contracts/utils/math/Math.sol\":7860:7875  prod0 * inverse */\n      mul\n        /* \"@openzeppelin/contracts/utils/math/Math.sol\":7851:7875  result = prod0 * inverse */\n      swap6\n      pop\n        /* \"@openzeppelin/contracts/utils/math/Math.sol\":7889:7902  return result */\n      pop\n      pop\n      pop\n      pop\n      pop\n        /* \"@openzeppelin/contracts/utils/math/Math.sol\":3803:7919  function mulDiv(uint256 x, uint256 y, uint256 denominator) internal pure returns (uint256 result) {... */\n    tag_190:\n      swap4\n      swap3\n      pop\n      pop\n      pop\n      jump\t// out\n    tag_155:\n      mload(0x40)\n      dup1\n      0x0120\n      add\n      0x40\n      mstore\n      dup1\n      0x00\n      dup2\n      mstore\n      0x20\n      add\n      0x60\n      dup2\n      mstore\n      0x20\n      add\n      and(0xffffffffffffffffffffffffffffffffffffffff, 0x00)\n      dup2\n      mstore\n      0x20\n      add\n      and(0xffffffffffffffffffffffffffffffffffffffff, 0x00)\n      dup2\n      mstore\n      0x20\n      add\n      0x00\n      dup2\n      mstore\n      0x20\n      add\n      0x60\n      dup2\n      mstore\n      0x20\n      add\n      0x00\n      dup2\n      mstore\n      0x20\n      add\n      iszero(iszero(0x00))\n      dup2\n      mstore\n      0x20\n      add\n      iszero(iszero(0x00))\n      dup2\n      mstore\n      pop\n      swap1\n      jump\t// out\n        /* \"#utility.yul\":7:82   */\n    tag_196:\n        /* \"#utility.yul\":40:46   */\n      0x00\n        /* \"#utility.yul\":73:75   */\n      0x40\n        /* \"#utility.yul\":67:76   */\n      mload\n        /* \"#utility.yul\":57:76   */\n      swap1\n      pop\n        /* \"#utility.yul\":7:82   */\n      swap1\n      jump\t// out\n        /* \"#utility.yul\":88:205   */\n    tag_197:\n        /* \"#utility.yul\":197:198   */\n      0x00\n        /* \"#utility.yul\":194:195   */\n      dup1\n        /* \"#utility.yul\":187:199   */\n      revert\n        /* \"#utility.yul\":211:328   */\n    tag_198:\n        /* \"#utility.yul\":320:321   */\n      0x00\n        /* \"#utility.yul\":317:318   */\n      dup1\n        /* \"#utility.yul\":310:322   */\n      revert\n        /* \"#utility.yul\":334:451   */\n    tag_199:\n        /* \"#utility.yul\":443:444   */\n      0x00\n        /* \"#utility.yul\":440:441   */\n      dup1\n        /* \"#utility.yul\":433:445   */\n      revert\n        /* \"#utility.yul\":457:574   */\n    tag_200:\n        /* \"#utility.yul\":566:567   */\n      0x00\n        /* \"#utility.yul\":563:564   */\n      dup1\n        /* \"#utility.yul\":556:568   */\n      revert\n        /* \"#utility.yul\":580:682   */\n    tag_201:\n        /* \"#utility.yul\":621:627   */\n      0x00\n        /* \"#utility.yul\":672:674   */\n      0x1f\n        /* \"#utility.yul\":668:675   */\n      not\n        /* \"#utility.yul\":663:665   */\n      0x1f\n        /* \"#utility.yul\":656:661   */\n      dup4\n        /* \"#utility.yul\":652:666   */\n      add\n        /* \"#utility.yul\":648:676   */\n      and\n        /* \"#utility.yul\":638:676   */\n      swap1\n      pop\n        /* \"#utility.yul\":580:682   */\n      swap2\n      swap1\n      pop\n      jump\t// out\n        /* \"#utility.yul\":688:868   */\n    tag_202:\n        /* \"#utility.yul\":736:813   */\n      0x4e487b7100000000000000000000000000000000000000000000000000000000\n        /* \"#utility.yul\":733:734   */\n      0x00\n        /* \"#utility.yul\":726:814   */\n      mstore\n        /* \"#utility.yul\":833:837   */\n      0x41\n        /* \"#utility.yul\":830:831   */\n      0x04\n        /* \"#utility.yul\":823:838   */\n      mstore\n        /* \"#utility.yul\":857:861   */\n      0x24\n        /* \"#utility.yul\":854:855   */\n      0x00\n        /* \"#utility.yul\":847:862   */\n      revert\n        /* \"#utility.yul\":874:1155   */\n    tag_203:\n        /* \"#utility.yul\":957:984   */\n      tag_270\n        /* \"#utility.yul\":979:983   */\n      dup3\n        /* \"#utility.yul\":957:984   */\n      tag_201\n      jump\t// in\n    tag_270:\n        /* \"#utility.yul\":949:955   */\n      dup2\n        /* \"#utility.yul\":945:985   */\n      add\n        /* \"#utility.yul\":1087:1093   */\n      dup2\n        /* \"#utility.yul\":1075:1085   */\n      dup2\n        /* \"#utility.yul\":1072:1094   */\n      lt\n        /* \"#utility.yul\":1051:1069   */\n      0xffffffffffffffff\n        /* \"#utility.yul\":1039:1049   */\n      dup3\n        /* \"#utility.yul\":1036:1070   */\n      gt\n        /* \"#utility.yul\":1033:1095   */\n      or\n        /* \"#utility.yul\":1030:1118   */\n      iszero\n      tag_271\n      jumpi\n        /* \"#utility.yul\":1098:1116   */\n      tag_272\n      tag_202\n      jump\t// in\n    tag_272:\n        /* \"#utility.yul\":1030:1118   */\n    tag_271:\n        /* \"#utility.yul\":1138:1148   */\n      dup1\n        /* \"#utility.yul\":1134:1136   */\n      0x40\n        /* \"#utility.yul\":1127:1149   */\n      mstore\n        /* \"#utility.yul\":917:1155   */\n      pop\n        /* \"#utility.yul\":874:1155   */\n      pop\n      pop\n      jump\t// out\n        /* \"#utility.yul\":1161:1290   */\n    tag_204:\n        /* \"#utility.yul\":1195:1201   */\n      0x00\n        /* \"#utility.yul\":1222:1242   */\n      tag_274\n      tag_196\n      jump\t// in\n    tag_274:\n        /* \"#utility.yul\":1212:1242   */\n      swap1\n      pop\n        /* \"#utility.yul\":1251:1284   */\n      tag_275\n        /* \"#utility.yul\":1279:1283   */\n      dup3\n        /* \"#utility.yul\":1271:1277   */\n      dup3\n        /* \"#utility.yul\":1251:1284   */\n      tag_203\n      jump\t// in\n    tag_275:\n        /* \"#utility.yul\":1161:1290   */\n      swap2\n      swap1\n      pop\n      jump\t// out\n        /* \"#utility.yul\":1296:1604   */\n    tag_205:\n        /* \"#utility.yul\":1358:1362   */\n      0x00\n        /* \"#utility.yul\":1448:1466   */\n      0xffffffffffffffff\n        /* \"#utility.yul\":1440:1446   */\n      dup3\n        /* \"#utility.yul\":1437:1467   */\n      gt\n        /* \"#utility.yul\":1434:1490   */\n      iszero\n      tag_277\n      jumpi\n        /* \"#utility.yul\":1470:1488   */\n      tag_278\n      tag_202\n      jump\t// in\n    tag_278:\n        /* \"#utility.yul\":1434:1490   */\n    tag_277:\n        /* \"#utility.yul\":1508:1537   */\n      tag_279\n        /* \"#utility.yul\":1530:1536   */\n      dup3\n        /* \"#utility.yul\":1508:1537   */\n      tag_201\n      jump\t// in\n    tag_279:\n        /* \"#utility.yul\":1500:1537   */\n      swap1\n      pop\n        /* \"#utility.yul\":1592:1596   */\n      0x20\n        /* \"#utility.yul\":1586:1590   */\n      dup2\n        /* \"#utility.yul\":1582:1597   */\n      add\n        /* \"#utility.yul\":1574:1597   */\n      swap1\n      pop\n        /* \"#utility.yul\":1296:1604   */\n      swap2\n      swap1\n      pop\n      jump\t// out\n        /* \"#utility.yul\":1610:1756   */\n    tag_206:\n        /* \"#utility.yul\":1707:1713   */\n      dup3\n        /* \"#utility.yul\":1702:1705   */\n      dup2\n        /* \"#utility.yul\":1697:1700   */\n      dup4\n        /* \"#utility.yul\":1684:1714   */\n      calldatacopy\n        /* \"#utility.yul\":1748:1749   */\n      0x00\n        /* \"#utility.yul\":1739:1745   */\n      dup4\n        /* \"#utility.yul\":1734:1737   */\n      dup4\n        /* \"#utility.yul\":1730:1746   */\n      add\n        /* \"#utility.yul\":1723:1750   */\n      mstore\n        /* \"#utility.yul\":1610:1756   */\n      pop\n      pop\n      pop\n      jump\t// out\n        /* \"#utility.yul\":1762:2187   */\n    tag_207:\n        /* \"#utility.yul\":1840:1845   */\n      0x00\n        /* \"#utility.yul\":1865:1931   */\n      tag_282\n        /* \"#utility.yul\":1881:1930   */\n      tag_283\n        /* \"#utility.yul\":1923:1929   */\n      dup5\n        /* \"#utility.yul\":1881:1930   */\n      tag_205\n      jump\t// in\n    tag_283:\n        /* \"#utility.yul\":1865:1931   */\n      tag_204\n      jump\t// in\n    tag_282:\n        /* \"#utility.yul\":1856:1931   */\n      swap1\n      pop\n        /* \"#utility.yul\":1954:1960   */\n      dup3\n        /* \"#utility.yul\":1947:1952   */\n      dup2\n        /* \"#utility.yul\":1940:1961   */\n      mstore\n        /* \"#utility.yul\":1992:1996   */\n      0x20\n        /* \"#utility.yul\":1985:1990   */\n      dup2\n        /* \"#utility.yul\":1981:1997   */\n      add\n        /* \"#utility.yul\":2030:2033   */\n      dup5\n        /* \"#utility.yul\":2021:2027   */\n      dup5\n        /* \"#utility.yul\":2016:2019   */\n      dup5\n        /* \"#utility.yul\":2012:2028   */\n      add\n        /* \"#utility.yul\":2009:2034   */\n      gt\n        /* \"#utility.yul\":2006:2118   */\n      iszero\n      tag_284\n      jumpi\n        /* \"#utility.yul\":2037:2116   */\n      tag_285\n      tag_200\n      jump\t// in\n    tag_285:\n        /* \"#utility.yul\":2006:2118   */\n    tag_284:\n        /* \"#utility.yul\":2127:2181   */\n      tag_286\n        /* \"#utility.yul\":2174:2180   */\n      dup5\n        /* \"#utility.yul\":2169:2172   */\n      dup3\n        /* \"#utility.yul\":2164:2167   */\n      dup6\n        /* \"#utility.yul\":2127:2181   */\n      tag_206\n      jump\t// in\n    tag_286:\n        /* \"#utility.yul\":1846:2187   */\n      pop\n        /* \"#utility.yul\":1762:2187   */\n      swap4\n      swap3\n      pop\n      pop\n      pop\n      jump\t// out\n        /* \"#utility.yul\":2207:2547   */\n    tag_208:\n        /* \"#utility.yul\":2263:2268   */\n      0x00\n        /* \"#utility.yul\":2312:2315   */\n      dup3\n        /* \"#utility.yul\":2305:2309   */\n      0x1f\n        /* \"#utility.yul\":2297:2303   */\n      dup4\n        /* \"#utility.yul\":2293:2310   */\n      add\n        /* \"#utility.yul\":2289:2316   */\n      slt\n        /* \"#utility.yul\":2279:2401   */\n      tag_288\n      jumpi\n        /* \"#utility.yul\":2320:2399   */\n      tag_289\n      tag_199\n      jump\t// in\n    tag_289:\n        /* \"#utility.yul\":2279:2401   */\n    tag_288:\n        /* \"#utility.yul\":2437:2443   */\n      dup2\n        /* \"#utility.yul\":2424:2444   */\n      calldataload\n        /* \"#utility.yul\":2462:2541   */\n      tag_290\n        /* \"#utility.yul\":2537:2540   */\n      dup5\n        /* \"#utility.yul\":2529:2535   */\n      dup3\n        /* \"#utility.yul\":2522:2526   */\n      0x20\n        /* \"#utility.yul\":2514:2520   */\n      dup7\n        /* \"#utility.yul\":2510:2527   */\n      add\n        /* \"#utility.yul\":2462:2541   */\n      tag_207\n      jump\t// in\n    tag_290:\n        /* \"#utility.yul\":2453:2541   */\n      swap2\n      pop\n        /* \"#utility.yul\":2269:2547   */\n      pop\n        /* \"#utility.yul\":2207:2547   */\n      swap3\n      swap2\n      pop\n      pop\n      jump\t// out\n        /* \"#utility.yul\":2553:2679   */\n    tag_209:\n        /* \"#utility.yul\":2590:2597   */\n      0x00\n        /* \"#utility.yul\":2630:2672   */\n      0xffffffffffffffffffffffffffffffffffffffff\n        /* \"#utility.yul\":2623:2628   */\n      dup3\n        /* \"#utility.yul\":2619:2673   */\n      and\n        /* \"#utility.yul\":2608:2673   */\n      swap1\n      pop\n        /* \"#utility.yul\":2553:2679   */\n      swap2\n      swap1\n      pop\n      jump\t// out\n        /* \"#utility.yul\":2685:2781   */\n    tag_210:\n        /* \"#utility.yul\":2722:2729   */\n      0x00\n        /* \"#utility.yul\":2751:2775   */\n      tag_293\n        /* \"#utility.yul\":2769:2774   */\n      dup3\n        /* \"#utility.yul\":2751:2775   */\n      tag_209\n      jump\t// in\n    tag_293:\n        /* \"#utility.yul\":2740:2775   */\n      swap1\n      pop\n        /* \"#utility.yul\":2685:2781   */\n      swap2\n      swap1\n      pop\n      jump\t// out\n        /* \"#utility.yul\":2787:2909   */\n    tag_211:\n        /* \"#utility.yul\":2860:2884   */\n      tag_295\n        /* \"#utility.yul\":2878:2883   */\n      dup2\n        /* \"#utility.yul\":2860:2884   */\n      tag_210\n      jump\t// in\n    tag_295:\n        /* \"#utility.yul\":2853:2858   */\n      dup2\n        /* \"#utility.yul\":2850:2885   */\n      eq\n        /* \"#utility.yul\":2840:2903   */\n      tag_296\n      jumpi\n        /* \"#utility.yul\":2899:2900   */\n      0x00\n        /* \"#utility.yul\":2896:2897   */\n      dup1\n        /* \"#utility.yul\":2889:2901   */\n      revert\n        /* \"#utility.yul\":2840:2903   */\n    tag_296:\n        /* \"#utility.yul\":2787:2909   */\n      pop\n      jump\t// out\n        /* \"#utility.yul\":2915:3054   */\n    tag_212:\n        /* \"#utility.yul\":2961:2966   */\n      0x00\n        /* \"#utility.yul\":2999:3005   */\n      dup2\n        /* \"#utility.yul\":2986:3006   */\n      calldataload\n        /* \"#utility.yul\":2977:3006   */\n      swap1\n      pop\n        /* \"#utility.yul\":3015:3048   */\n      tag_298\n        /* \"#utility.yul\":3042:3047   */\n      dup2\n        /* \"#utility.yul\":3015:3048   */\n      tag_211\n      jump\t// in\n    tag_298:\n        /* \"#utility.yul\":2915:3054   */\n      swap3\n      swap2\n      pop\n      pop\n      jump\t// out\n        /* \"#utility.yul\":3060:3137   */\n    tag_213:\n        /* \"#utility.yul\":3097:3104   */\n      0x00\n        /* \"#utility.yul\":3126:3131   */\n      dup2\n        /* \"#utility.yul\":3115:3131   */\n      swap1\n      pop\n        /* \"#utility.yul\":3060:3137   */\n      swap2\n      swap1\n      pop\n      jump\t// out\n        /* \"#utility.yul\":3143:3265   */\n    tag_214:\n        /* \"#utility.yul\":3216:3240   */\n      tag_301\n        /* \"#utility.yul\":3234:3239   */\n      dup2\n        /* \"#utility.yul\":3216:3240   */\n      tag_213\n      jump\t// in\n    tag_301:\n        /* \"#utility.yul\":3209:3214   */\n      dup2\n        /* \"#utility.yul\":3206:3241   */\n      eq\n        /* \"#utility.yul\":3196:3259   */\n      tag_302\n      jumpi\n        /* \"#utility.yul\":3255:3256   */\n      0x00\n        /* \"#utility.yul\":3252:3253   */\n      dup1\n        /* \"#utility.yul\":3245:3257   */\n      revert\n        /* \"#utility.yul\":3196:3259   */\n    tag_302:\n        /* \"#utility.yul\":3143:3265   */\n      pop\n      jump\t// out\n        /* \"#utility.yul\":3271:3410   */\n    tag_215:\n        /* \"#utility.yul\":3317:3322   */\n      0x00\n        /* \"#utility.yul\":3355:3361   */\n      dup2\n        /* \"#utility.yul\":3342:3362   */\n      calldataload\n        /* \"#utility.yul\":3333:3362   */\n      swap1\n      pop\n        /* \"#utility.yul\":3371:3404   */\n      tag_304\n        /* \"#utility.yul\":3398:3403   */\n      dup2\n        /* \"#utility.yul\":3371:3404   */\n      tag_214\n      jump\t// in\n    tag_304:\n        /* \"#utility.yul\":3271:3410   */\n      swap3\n      swap2\n      pop\n      pop\n      jump\t// out\n        /* \"#utility.yul\":3416:4541   */\n    tag_22:\n        /* \"#utility.yul\":3522:3528   */\n      0x00\n        /* \"#utility.yul\":3530:3536   */\n      dup1\n        /* \"#utility.yul\":3538:3544   */\n      0x00\n        /* \"#utility.yul\":3546:3552   */\n      dup1\n        /* \"#utility.yul\":3595:3598   */\n      0x80\n        /* \"#utility.yul\":3583:3592   */\n      dup6\n        /* \"#utility.yul\":3574:3581   */\n      dup8\n        /* \"#utility.yul\":3570:3593   */\n      sub\n        /* \"#utility.yul\":3566:3599   */\n      slt\n        /* \"#utility.yul\":3563:3683   */\n      iszero\n      tag_306\n      jumpi\n        /* \"#utility.yul\":3602:3681   */\n      tag_307\n      tag_197\n      jump\t// in\n    tag_307:\n        /* \"#utility.yul\":3563:3683   */\n    tag_306:\n        /* \"#utility.yul\":3750:3751   */\n      0x00\n        /* \"#utility.yul\":3739:3748   */\n      dup6\n        /* \"#utility.yul\":3735:3752   */\n      add\n        /* \"#utility.yul\":3722:3753   */\n      calldataload\n        /* \"#utility.yul\":3780:3798   */\n      0xffffffffffffffff\n        /* \"#utility.yul\":3772:3778   */\n      dup2\n        /* \"#utility.yul\":3769:3799   */\n      gt\n        /* \"#utility.yul\":3766:3883   */\n      iszero\n      tag_308\n      jumpi\n        /* \"#utility.yul\":3802:3881   */\n      tag_309\n      tag_198\n      jump\t// in\n    tag_309:\n        /* \"#utility.yul\":3766:3883   */\n    tag_308:\n        /* \"#utility.yul\":3907:3970   */\n      tag_310\n        /* \"#utility.yul\":3962:3969   */\n      dup8\n        /* \"#utility.yul\":3953:3959   */\n      dup3\n        /* \"#utility.yul\":3942:3951   */\n      dup9\n        /* \"#utility.yul\":3938:3960   */\n      add\n        /* \"#utility.yul\":3907:3970   */\n      tag_208\n      jump\t// in\n    tag_310:\n        /* \"#utility.yul\":3897:3970   */\n      swap5\n      pop\n        /* \"#utility.yul\":3693:3980   */\n      pop\n        /* \"#utility.yul\":4019:4021   */\n      0x20\n        /* \"#utility.yul\":4045:4098   */\n      tag_311\n        /* \"#utility.yul\":4090:4097   */\n      dup8\n        /* \"#utility.yul\":4081:4087   */\n      dup3\n        /* \"#utility.yul\":4070:4079   */\n      dup9\n        /* \"#utility.yul\":4066:4088   */\n      add\n        /* \"#utility.yul\":4045:4098   */\n      tag_212\n      jump\t// in\n    tag_311:\n        /* \"#utility.yul\":4035:4098   */\n      swap4\n      pop\n        /* \"#utility.yul\":3990:4108   */\n      pop\n        /* \"#utility.yul\":4147:4149   */\n      0x40\n        /* \"#utility.yul\":4173:4226   */\n      tag_312\n        /* \"#utility.yul\":4218:4225   */\n      dup8\n        /* \"#utility.yul\":4209:4215   */\n      dup3\n        /* \"#utility.yul\":4198:4207   */\n      dup9\n        /* \"#utility.yul\":4194:4216   */\n      add\n        /* \"#utility.yul\":4173:4226   */\n      tag_215\n      jump\t// in\n    tag_312:\n        /* \"#utility.yul\":4163:4226   */\n      swap3\n      pop\n        /* \"#utility.yul\":4118:4236   */\n      pop\n        /* \"#utility.yul\":4303:4305   */\n      0x60\n        /* \"#utility.yul\":4292:4301   */\n      dup6\n        /* \"#utility.yul\":4288:4306   */\n      add\n        /* \"#utility.yul\":4275:4307   */\n      calldataload\n        /* \"#utility.yul\":4334:4352   */\n      0xffffffffffffffff\n        /* \"#utility.yul\":4326:4332   */\n      dup2\n        /* \"#utility.yul\":4323:4353   */\n      gt\n        /* \"#utility.yul\":4320:4437   */\n      iszero\n      tag_313\n      jumpi\n        /* \"#utility.yul\":4356:4435   */\n      tag_314\n      tag_198\n      jump\t// in\n    tag_314:\n        /* \"#utility.yul\":4320:4437   */\n    tag_313:\n        /* \"#utility.yul\":4461:4524   */\n      tag_315\n        /* \"#utility.yul\":4516:4523   */\n      dup8\n        /* \"#utility.yul\":4507:4513   */\n      dup3\n        /* \"#utility.yul\":4496:4505   */\n      dup9\n        /* \"#utility.yul\":4492:4514   */\n      add\n        /* \"#utility.yul\":4461:4524   */\n      tag_208\n      jump\t// in\n    tag_315:\n        /* \"#utility.yul\":4451:4524   */\n      swap2\n      pop\n        /* \"#utility.yul\":4246:4534   */\n      pop\n        /* \"#utility.yul\":3416:4541   */\n      swap3\n      swap6\n      swap2\n      swap5\n      pop\n      swap3\n      pop\n      jump\t// out\n        /* \"#utility.yul\":4547:4637   */\n    tag_216:\n        /* \"#utility.yul\":4581:4588   */\n      0x00\n        /* \"#utility.yul\":4624:4629   */\n      dup2\n        /* \"#utility.yul\":4617:4630   */\n      iszero\n        /* \"#utility.yul\":4610:4631   */\n      iszero\n        /* \"#utility.yul\":4599:4631   */\n      swap1\n      pop\n        /* \"#utility.yul\":4547:4637   */\n      swap2\n      swap1\n      pop\n      jump\t// out\n        /* \"#utility.yul\":4643:4759   */\n    tag_217:\n        /* \"#utility.yul\":4713:4734   */\n      tag_318\n        /* \"#utility.yul\":4728:4733   */\n      dup2\n        /* \"#utility.yul\":4713:4734   */\n      tag_216\n      jump\t// in\n    tag_318:\n        /* \"#utility.yul\":4706:4711   */\n      dup2\n        /* \"#utility.yul\":4703:4735   */\n      eq\n        /* \"#utility.yul\":4693:4753   */\n      tag_319\n      jumpi\n        /* \"#utility.yul\":4749:4750   */\n      0x00\n        /* \"#utility.yul\":4746:4747   */\n      dup1\n        /* \"#utility.yul\":4739:4751   */\n      revert\n        /* \"#utility.yul\":4693:4753   */\n    tag_319:\n        /* \"#utility.yul\":4643:4759   */\n      pop\n      jump\t// out\n        /* \"#utility.yul\":4765:4898   */\n    tag_218:\n        /* \"#utility.yul\":4808:4813   */\n      0x00\n        /* \"#utility.yul\":4846:4852   */\n      dup2\n        /* \"#utility.yul\":4833:4853   */\n      calldataload\n        /* \"#utility.yul\":4824:4853   */\n      swap1\n      pop\n        /* \"#utility.yul\":4862:4892   */\n      tag_321\n        /* \"#utility.yul\":4886:4891   */\n      dup2\n        /* \"#utility.yul\":4862:4892   */\n      tag_217\n      jump\t// in\n    tag_321:\n        /* \"#utility.yul\":4765:4898   */\n      swap3\n      swap2\n      pop\n      pop\n      jump\t// out\n        /* \"#utility.yul\":4904:5372   */\n    tag_27:\n        /* \"#utility.yul\":4969:4975   */\n      0x00\n        /* \"#utility.yul\":4977:4983   */\n      dup1\n        /* \"#utility.yul\":5026:5028   */\n      0x40\n        /* \"#utility.yul\":5014:5023   */\n      dup4\n        /* \"#utility.yul\":5005:5012   */\n      dup6\n        /* \"#utility.yul\":5001:5024   */\n      sub\n        /* \"#utility.yul\":4997:5029   */\n      slt\n        /* \"#utility.yul\":4994:5113   */\n      iszero\n      tag_323\n      jumpi\n        /* \"#utility.yul\":5032:5111   */\n      tag_324\n      tag_197\n      jump\t// in\n    tag_324:\n        /* \"#utility.yul\":4994:5113   */\n    tag_323:\n        /* \"#utility.yul\":5152:5153   */\n      0x00\n        /* \"#utility.yul\":5177:5230   */\n      tag_325\n        /* \"#utility.yul\":5222:5229   */\n      dup6\n        /* \"#utility.yul\":5213:5219   */\n      dup3\n        /* \"#utility.yul\":5202:5211   */\n      dup7\n        /* \"#utility.yul\":5198:5220   */\n      add\n        /* \"#utility.yul\":5177:5230   */\n      tag_215\n      jump\t// in\n    tag_325:\n        /* \"#utility.yul\":5167:5230   */\n      swap3\n      pop\n        /* \"#utility.yul\":5123:5240   */\n      pop\n        /* \"#utility.yul\":5279:5281   */\n      0x20\n        /* \"#utility.yul\":5305:5355   */\n      tag_326\n        /* \"#utility.yul\":5347:5354   */\n      dup6\n        /* \"#utility.yul\":5338:5344   */\n      dup3\n        /* \"#utility.yul\":5327:5336   */\n      dup7\n        /* \"#utility.yul\":5323:5345   */\n      add\n        /* \"#utility.yul\":5305:5355   */\n      tag_218\n      jump\t// in\n    tag_326:\n        /* \"#utility.yul\":5295:5355   */\n      swap2\n      pop\n        /* \"#utility.yul\":5250:5365   */\n      pop\n        /* \"#utility.yul\":4904:5372   */\n      swap3\n      pop\n      swap3\n      swap1\n      pop\n      jump\t// out\n        /* \"#utility.yul\":5378:5496   */\n    tag_219:\n        /* \"#utility.yul\":5465:5489   */\n      tag_328\n        /* \"#utility.yul\":5483:5488   */\n      dup2\n        /* \"#utility.yul\":5465:5489   */\n      tag_213\n      jump\t// in\n    tag_328:\n        /* \"#utility.yul\":5460:5463   */\n      dup3\n        /* \"#utility.yul\":5453:5490   */\n      mstore\n        /* \"#utility.yul\":5378:5496   */\n      pop\n      pop\n      jump\t// out\n        /* \"#utility.yul\":5502:5724   */\n    tag_33:\n        /* \"#utility.yul\":5595:5599   */\n      0x00\n        /* \"#utility.yul\":5633:5635   */\n      0x20\n        /* \"#utility.yul\":5622:5631   */\n      dup3\n        /* \"#utility.yul\":5618:5636   */\n      add\n        /* \"#utility.yul\":5610:5636   */\n      swap1\n      pop\n        /* \"#utility.yul\":5646:5717   */\n      tag_330\n        /* \"#utility.yul\":5714:5715   */\n      0x00\n        /* \"#utility.yul\":5703:5712   */\n      dup4\n        /* \"#utility.yul\":5699:5716   */\n      add\n        /* \"#utility.yul\":5690:5696   */\n      dup5\n        /* \"#utility.yul\":5646:5717   */\n      tag_219\n      jump\t// in\n    tag_330:\n        /* \"#utility.yul\":5502:5724   */\n      swap3\n      swap2\n      pop\n      pop\n      jump\t// out\n        /* \"#utility.yul\":5730:6204   */\n    tag_37:\n        /* \"#utility.yul\":5798:5804   */\n      0x00\n        /* \"#utility.yul\":5806:5812   */\n      dup1\n        /* \"#utility.yul\":5855:5857   */\n      0x40\n        /* \"#utility.yul\":5843:5852   */\n      dup4\n        /* \"#utility.yul\":5834:5841   */\n      dup6\n        /* \"#utility.yul\":5830:5853   */\n      sub\n        /* \"#utility.yul\":5826:5858   */\n      slt\n        /* \"#utility.yul\":5823:5942   */\n      iszero\n      tag_332\n      jumpi\n        /* \"#utility.yul\":5861:5940   */\n      tag_333\n      tag_197\n      jump\t// in\n    tag_333:\n        /* \"#utility.yul\":5823:5942   */\n    tag_332:\n        /* \"#utility.yul\":5981:5982   */\n      0x00\n        /* \"#utility.yul\":6006:6059   */\n      tag_334\n        /* \"#utility.yul\":6051:6058   */\n      dup6\n        /* \"#utility.yul\":6042:6048   */\n      dup3\n        /* \"#utility.yul\":6031:6040   */\n      dup7\n        /* \"#utility.yul\":6027:6049   */\n      add\n        /* \"#utility.yul\":6006:6059   */\n      tag_215\n      jump\t// in\n    tag_334:\n        /* \"#utility.yul\":5996:6059   */\n      swap3\n      pop\n        /* \"#utility.yul\":5952:6069   */\n      pop\n        /* \"#utility.yul\":6108:6110   */\n      0x20\n        /* \"#utility.yul\":6134:6187   */\n      tag_335\n        /* \"#utility.yul\":6179:6186   */\n      dup6\n        /* \"#utility.yul\":6170:6176   */\n      dup3\n        /* \"#utility.yul\":6159:6168   */\n      dup7\n        /* \"#utility.yul\":6155:6177   */\n      add\n        /* \"#utility.yul\":6134:6187   */\n      tag_215\n      jump\t// in\n    tag_335:\n        /* \"#utility.yul\":6124:6187   */\n      swap2\n      pop\n        /* \"#utility.yul\":6079:6197   */\n      pop\n        /* \"#utility.yul\":5730:6204   */\n      swap3\n      pop\n      swap3\n      swap1\n      pop\n      jump\t// out\n        /* \"#utility.yul\":6210:6319   */\n    tag_220:\n        /* \"#utility.yul\":6291:6312   */\n      tag_337\n        /* \"#utility.yul\":6306:6311   */\n      dup2\n        /* \"#utility.yul\":6291:6312   */\n      tag_216\n      jump\t// in\n    tag_337:\n        /* \"#utility.yul\":6286:6289   */\n      dup3\n        /* \"#utility.yul\":6279:6313   */\n      mstore\n        /* \"#utility.yul\":6210:6319   */\n      pop\n      pop\n      jump\t// out\n        /* \"#utility.yul\":6325:6535   */\n    tag_40:\n        /* \"#utility.yul\":6412:6416   */\n      0x00\n        /* \"#utility.yul\":6450:6452   */\n      0x20\n        /* \"#utility.yul\":6439:6448   */\n      dup3\n        /* \"#utility.yul\":6435:6453   */\n      add\n        /* \"#utility.yul\":6427:6453   */\n      swap1\n      pop\n        /* \"#utility.yul\":6463:6528   */\n      tag_339\n        /* \"#utility.yul\":6525:6526   */\n      0x00\n        /* \"#utility.yul\":6514:6523   */\n      dup4\n        /* \"#utility.yul\":6510:6527   */\n      add\n        /* \"#utility.yul\":6501:6507   */\n      dup5\n        /* \"#utility.yul\":6463:6528   */\n      tag_220\n      jump\t// in\n    tag_339:\n        /* \"#utility.yul\":6325:6535   */\n      swap3\n      swap2\n      pop\n      pop\n      jump\t// out\n        /* \"#utility.yul\":6541:7015   */\n    tag_44:\n        /* \"#utility.yul\":6609:6615   */\n      0x00\n        /* \"#utility.yul\":6617:6623   */\n      dup1\n        /* \"#utility.yul\":6666:6668   */\n      0x40\n        /* \"#utility.yul\":6654:6663   */\n      dup4\n        /* \"#utility.yul\":6645:6652   */\n      dup6\n        /* \"#utility.yul\":6641:6664   */\n      sub\n        /* \"#utility.yul\":6637:6669   */\n      slt\n        /* \"#utility.yul\":6634:6753   */\n      iszero\n      tag_341\n      jumpi\n        /* \"#utility.yul\":6672:6751   */\n      tag_342\n      tag_197\n      jump\t// in\n    tag_342:\n        /* \"#utility.yul\":6634:6753   */\n    tag_341:\n        /* \"#utility.yul\":6792:6793   */\n      0x00\n        /* \"#utility.yul\":6817:6870   */\n      tag_343\n        /* \"#utility.yul\":6862:6869   */\n      dup6\n        /* \"#utility.yul\":6853:6859   */\n      dup3\n        /* \"#utility.yul\":6842:6851   */\n      dup7\n        /* \"#utility.yul\":6838:6860   */\n      add\n        /* \"#utility.yul\":6817:6870   */\n      tag_212\n      jump\t// in\n    tag_343:\n        /* \"#utility.yul\":6807:6870   */\n      swap3\n      pop\n        /* \"#utility.yul\":6763:6880   */\n      pop\n        /* \"#utility.yul\":6919:6921   */\n      0x20\n        /* \"#utility.yul\":6945:6998   */\n      tag_344\n        /* \"#utility.yul\":6990:6997   */\n      dup6\n        /* \"#utility.yul\":6981:6987   */\n      dup3\n        /* \"#utility.yul\":6970:6979   */\n      dup7\n        /* \"#utility.yul\":6966:6988   */\n      add\n        /* \"#utility.yul\":6945:6998   */\n      tag_215\n      jump\t// in\n    tag_344:\n        /* \"#utility.yul\":6935:6998   */\n      swap2\n      pop\n        /* \"#utility.yul\":6890:7008   */\n      pop\n        /* \"#utility.yul\":6541:7015   */\n      swap3\n      pop\n      swap3\n      swap1\n      pop\n      jump\t// out\n        /* \"#utility.yul\":7021:7439   */\n    tag_47:\n        /* \"#utility.yul\":7158:7162   */\n      0x00\n        /* \"#utility.yul\":7196:7198   */\n      0x60\n        /* \"#utility.yul\":7185:7194   */\n      dup3\n        /* \"#utility.yul\":7181:7199   */\n      add\n        /* \"#utility.yul\":7173:7199   */\n      swap1\n      pop\n        /* \"#utility.yul\":7209:7280   */\n      tag_346\n        /* \"#utility.yul\":7277:7278   */\n      0x00\n        /* \"#utility.yul\":7266:7275   */\n      dup4\n        /* \"#utility.yul\":7262:7279   */\n      add\n        /* \"#utility.yul\":7253:7259   */\n      dup7\n        /* \"#utility.yul\":7209:7280   */\n      tag_219\n      jump\t// in\n    tag_346:\n        /* \"#utility.yul\":7290:7356   */\n      tag_347\n        /* \"#utility.yul\":7352:7354   */\n      0x20\n        /* \"#utility.yul\":7341:7350   */\n      dup4\n        /* \"#utility.yul\":7337:7355   */\n      add\n        /* \"#utility.yul\":7328:7334   */\n      dup6\n        /* \"#utility.yul\":7290:7356   */\n      tag_220\n      jump\t// in\n    tag_347:\n        /* \"#utility.yul\":7366:7432   */\n      tag_348\n        /* \"#utility.yul\":7428:7430   */\n      0x40\n        /* \"#utility.yul\":7417:7426   */\n      dup4\n        /* \"#utility.yul\":7413:7431   */\n      add\n        /* \"#utility.yul\":7404:7410   */\n      dup5\n        /* \"#utility.yul\":7366:7432   */\n      tag_220\n      jump\t// in\n    tag_348:\n        /* \"#utility.yul\":7021:7439   */\n      swap5\n      swap4\n      pop\n      pop\n      pop\n      pop\n      jump\t// out\n        /* \"#utility.yul\":7445:7774   */\n    tag_51:\n        /* \"#utility.yul\":7504:7510   */\n      0x00\n        /* \"#utility.yul\":7553:7555   */\n      0x20\n        /* \"#utility.yul\":7541:7550   */\n      dup3\n        /* \"#utility.yul\":7532:7539   */\n      dup5\n        /* \"#utility.yul\":7528:7551   */\n      sub\n        /* \"#utility.yul\":7524:7556   */\n      slt\n        /* \"#utility.yul\":7521:7640   */\n      iszero\n      tag_350\n      jumpi\n        /* \"#utility.yul\":7559:7638   */\n      tag_351\n      tag_197\n      jump\t// in\n    tag_351:\n        /* \"#utility.yul\":7521:7640   */\n    tag_350:\n        /* \"#utility.yul\":7679:7680   */\n      0x00\n        /* \"#utility.yul\":7704:7757   */\n      tag_352\n        /* \"#utility.yul\":7749:7756   */\n      dup5\n        /* \"#utility.yul\":7740:7746   */\n      dup3\n        /* \"#utility.yul\":7729:7738   */\n      dup6\n        /* \"#utility.yul\":7725:7747   */\n      add\n        /* \"#utility.yul\":7704:7757   */\n      tag_215\n      jump\t// in\n    tag_352:\n        /* \"#utility.yul\":7694:7757   */\n      swap2\n      pop\n        /* \"#utility.yul\":7650:7767   */\n      pop\n        /* \"#utility.yul\":7445:7774   */\n      swap3\n      swap2\n      pop\n      pop\n      jump\t// out\n        /* \"#utility.yul\":7780:7879   */\n    tag_221:\n        /* \"#utility.yul\":7832:7838   */\n      0x00\n        /* \"#utility.yul\":7866:7871   */\n      dup2\n        /* \"#utility.yul\":7860:7872   */\n      mload\n        /* \"#utility.yul\":7850:7872   */\n      swap1\n      pop\n        /* \"#utility.yul\":7780:7879   */\n      swap2\n      swap1\n      pop\n      jump\t// out\n        /* \"#utility.yul\":7885:8054   */\n    tag_222:\n        /* \"#utility.yul\":7969:7980   */\n      0x00\n        /* \"#utility.yul\":8003:8009   */\n      dup3\n        /* \"#utility.yul\":7998:8001   */\n      dup3\n        /* \"#utility.yul\":7991:8010   */\n      mstore\n        /* \"#utility.yul\":8043:8047   */\n      0x20\n        /* \"#utility.yul\":8038:8041   */\n      dup3\n        /* \"#utility.yul\":8034:8048   */\n      add\n        /* \"#utility.yul\":8019:8048   */\n      swap1\n      pop\n        /* \"#utility.yul\":7885:8054   */\n      swap3\n      swap2\n      pop\n      pop\n      jump\t// out\n        /* \"#utility.yul\":8060:8306   */\n    tag_223:\n        /* \"#utility.yul\":8141:8142   */\n      0x00\n        /* \"#utility.yul\":8151:8264   */\n    tag_356:\n        /* \"#utility.yul\":8165:8171   */\n      dup4\n        /* \"#utility.yul\":8162:8163   */\n      dup2\n        /* \"#utility.yul\":8159:8172   */\n      lt\n        /* \"#utility.yul\":8151:8264   */\n      iszero\n      tag_358\n      jumpi\n        /* \"#utility.yul\":8250:8251   */\n      dup1\n        /* \"#utility.yul\":8245:8248   */\n      dup3\n        /* \"#utility.yul\":8241:8252   */\n      add\n        /* \"#utility.yul\":8235:8253   */\n      mload\n        /* \"#utility.yul\":8231:8232   */\n      dup2\n        /* \"#utility.yul\":8226:8229   */\n      dup5\n        /* \"#utility.yul\":8222:8233   */\n      add\n        /* \"#utility.yul\":8215:8254   */\n      mstore\n        /* \"#utility.yul\":8187:8189   */\n      0x20\n        /* \"#utility.yul\":8184:8185   */\n      dup2\n        /* \"#utility.yul\":8180:8190   */\n      add\n        /* \"#utility.yul\":8175:8190   */\n      swap1\n      pop\n        /* \"#utility.yul\":8151:8264   */\n      jump(tag_356)\n    tag_358:\n        /* \"#utility.yul\":8298:8299   */\n      0x00\n        /* \"#utility.yul\":8289:8295   */\n      dup5\n        /* \"#utility.yul\":8284:8287   */\n      dup5\n        /* \"#utility.yul\":8280:8296   */\n      add\n        /* \"#utility.yul\":8273:8300   */\n      mstore\n        /* \"#utility.yul\":8122:8306   */\n      pop\n        /* \"#utility.yul\":8060:8306   */\n      pop\n      pop\n      pop\n      jump\t// out\n        /* \"#utility.yul\":8312:8689   */\n    tag_224:\n        /* \"#utility.yul\":8400:8403   */\n      0x00\n        /* \"#utility.yul\":8428:8467   */\n      tag_360\n        /* \"#utility.yul\":8461:8466   */\n      dup3\n        /* \"#utility.yul\":8428:8467   */\n      tag_221\n      jump\t// in\n    tag_360:\n        /* \"#utility.yul\":8483:8554   */\n      tag_361\n        /* \"#utility.yul\":8547:8553   */\n      dup2\n        /* \"#utility.yul\":8542:8545   */\n      dup6\n        /* \"#utility.yul\":8483:8554   */\n      tag_222\n      jump\t// in\n    tag_361:\n        /* \"#utility.yul\":8476:8554   */\n      swap4\n      pop\n        /* \"#utility.yul\":8563:8628   */\n      tag_362\n        /* \"#utility.yul\":8621:8627   */\n      dup2\n        /* \"#utility.yul\":8616:8619   */\n      dup6\n        /* \"#utility.yul\":8609:8613   */\n      0x20\n        /* \"#utility.yul\":8602:8607   */\n      dup7\n        /* \"#utility.yul\":8598:8614   */\n      add\n        /* \"#utility.yul\":8563:8628   */\n      tag_223\n      jump\t// in\n    tag_362:\n        /* \"#utility.yul\":8653:8682   */\n      tag_363\n        /* \"#utility.yul\":8675:8681   */\n      dup2\n        /* \"#utility.yul\":8653:8682   */\n      tag_201\n      jump\t// in\n    tag_363:\n        /* \"#utility.yul\":8648:8651   */\n      dup5\n        /* \"#utility.yul\":8644:8683   */\n      add\n        /* \"#utility.yul\":8637:8683   */\n      swap2\n      pop\n        /* \"#utility.yul\":8404:8689   */\n      pop\n        /* \"#utility.yul\":8312:8689   */\n      swap3\n      swap2\n      pop\n      pop\n      jump\t// out\n        /* \"#utility.yul\":8695:8813   */\n    tag_225:\n        /* \"#utility.yul\":8782:8806   */\n      tag_365\n        /* \"#utility.yul\":8800:8805   */\n      dup2\n        /* \"#utility.yul\":8782:8806   */\n      tag_210\n      jump\t// in\n    tag_365:\n        /* \"#utility.yul\":8777:8780   */\n      dup3\n        /* \"#utility.yul\":8770:8807   */\n      mstore\n        /* \"#utility.yul\":8695:8813   */\n      pop\n      pop\n      jump\t// out\n        /* \"#utility.yul\":8819:10085   */\n    tag_54:\n        /* \"#utility.yul\":9164:9168   */\n      0x00\n        /* \"#utility.yul\":9202:9205   */\n      0x0120\n        /* \"#utility.yul\":9191:9200   */\n      dup3\n        /* \"#utility.yul\":9187:9206   */\n      add\n        /* \"#utility.yul\":9179:9206   */\n      swap1\n      pop\n        /* \"#utility.yul\":9216:9287   */\n      tag_367\n        /* \"#utility.yul\":9284:9285   */\n      0x00\n        /* \"#utility.yul\":9273:9282   */\n      dup4\n        /* \"#utility.yul\":9269:9286   */\n      add\n        /* \"#utility.yul\":9260:9266   */\n      dup13\n        /* \"#utility.yul\":9216:9287   */\n      tag_219\n      jump\t// in\n    tag_367:\n        /* \"#utility.yul\":9334:9343   */\n      dup2\n        /* \"#utility.yul\":9328:9332   */\n      dup2\n        /* \"#utility.yul\":9324:9344   */\n      sub\n        /* \"#utility.yul\":9319:9321   */\n      0x20\n        /* \"#utility.yul\":9308:9317   */\n      dup4\n        /* \"#utility.yul\":9304:9322   */\n      add\n        /* \"#utility.yul\":9297:9345   */\n      mstore\n        /* \"#utility.yul\":9362:9440   */\n      tag_368\n        /* \"#utility.yul\":9435:9439   */\n      dup2\n        /* \"#utility.yul\":9426:9432   */\n      dup12\n        /* \"#utility.yul\":9362:9440   */\n      tag_224\n      jump\t// in\n    tag_368:\n        /* \"#utility.yul\":9354:9440   */\n      swap1\n      pop\n        /* \"#utility.yul\":9450:9522   */\n      tag_369\n        /* \"#utility.yul\":9518:9520   */\n      0x40\n        /* \"#utility.yul\":9507:9516   */\n      dup4\n        /* \"#utility.yul\":9503:9521   */\n      add\n        /* \"#utility.yul\":9494:9500   */\n      dup11\n        /* \"#utility.yul\":9450:9522   */\n      tag_225\n      jump\t// in\n    tag_369:\n        /* \"#utility.yul\":9532:9604   */\n      tag_370\n        /* \"#utility.yul\":9600:9602   */\n      0x60\n        /* \"#utility.yul\":9589:9598   */\n      dup4\n        /* \"#utility.yul\":9585:9603   */\n      add\n        /* \"#utility.yul\":9576:9582   */\n      dup10\n        /* \"#utility.yul\":9532:9604   */\n      tag_225\n      jump\t// in\n    tag_370:\n        /* \"#utility.yul\":9614:9687   */\n      tag_371\n        /* \"#utility.yul\":9682:9685   */\n      0x80\n        /* \"#utility.yul\":9671:9680   */\n      dup4\n        /* \"#utility.yul\":9667:9686   */\n      add\n        /* \"#utility.yul\":9658:9664   */\n      dup9\n        /* \"#utility.yul\":9614:9687   */\n      tag_219\n      jump\t// in\n    tag_371:\n        /* \"#utility.yul\":9735:9744   */\n      dup2\n        /* \"#utility.yul\":9729:9733   */\n      dup2\n        /* \"#utility.yul\":9725:9745   */\n      sub\n        /* \"#utility.yul\":9719:9722   */\n      0xa0\n        /* \"#utility.yul\":9708:9717   */\n      dup4\n        /* \"#utility.yul\":9704:9723   */\n      add\n        /* \"#utility.yul\":9697:9746   */\n      mstore\n        /* \"#utility.yul\":9763:9841   */\n      tag_372\n        /* \"#utility.yul\":9836:9840   */\n      dup2\n        /* \"#utility.yul\":9827:9833   */\n      dup8\n        /* \"#utility.yul\":9763:9841   */\n      tag_224\n      jump\t// in\n    tag_372:\n        /* \"#utility.yul\":9755:9841   */\n      swap1\n      pop\n        /* \"#utility.yul\":9851:9924   */\n      tag_373\n        /* \"#utility.yul\":9919:9922   */\n      0xc0\n        /* \"#utility.yul\":9908:9917   */\n      dup4\n        /* \"#utility.yul\":9904:9923   */\n      add\n        /* \"#utility.yul\":9895:9901   */\n      dup7\n        /* \"#utility.yul\":9851:9924   */\n      tag_219\n      jump\t// in\n    tag_373:\n        /* \"#utility.yul\":9934:10001   */\n      tag_374\n        /* \"#utility.yul\":9996:9999   */\n      0xe0\n        /* \"#utility.yul\":9985:9994   */\n      dup4\n        /* \"#utility.yul\":9981:10000   */\n      add\n        /* \"#utility.yul\":9972:9978   */\n      dup6\n        /* \"#utility.yul\":9934:10001   */\n      tag_220\n      jump\t// in\n    tag_374:\n        /* \"#utility.yul\":10011:10078   */\n      tag_375\n        /* \"#utility.yul\":10073:10076   */\n      0x0100\n        /* \"#utility.yul\":10062:10071   */\n      dup4\n        /* \"#utility.yul\":10058:10077   */\n      add\n        /* \"#utility.yul\":10049:10055   */\n      dup5\n        /* \"#utility.yul\":10011:10078   */\n      tag_220\n      jump\t// in\n    tag_375:\n        /* \"#utility.yul\":8819:10085   */\n      swap11\n      swap10\n      pop\n      pop\n      pop\n      pop\n      pop\n      pop\n      pop\n      pop\n      pop\n      pop\n      jump\t// out\n        /* \"#utility.yul\":10091:10423   */\n    tag_60:\n        /* \"#utility.yul\":10212:10216   */\n      0x00\n        /* \"#utility.yul\":10250:10252   */\n      0x40\n        /* \"#utility.yul\":10239:10248   */\n      dup3\n        /* \"#utility.yul\":10235:10253   */\n      add\n        /* \"#utility.yul\":10227:10253   */\n      swap1\n      pop\n        /* \"#utility.yul\":10263:10334   */\n      tag_377\n        /* \"#utility.yul\":10331:10332   */\n      0x00\n        /* \"#utility.yul\":10320:10329   */\n      dup4\n        /* \"#utility.yul\":10316:10333   */\n      add\n        /* \"#utility.yul\":10307:10313   */\n      dup6\n        /* \"#utility.yul\":10263:10334   */\n      tag_219\n      jump\t// in\n    tag_377:\n        /* \"#utility.yul\":10344:10416   */\n      tag_378\n        /* \"#utility.yul\":10412:10414   */\n      0x20\n        /* \"#utility.yul\":10401:10410   */\n      dup4\n        /* \"#utility.yul\":10397:10415   */\n      add\n        /* \"#utility.yul\":10388:10394   */\n      dup5\n        /* \"#utility.yul\":10344:10416   */\n      tag_219\n      jump\t// in\n    tag_378:\n        /* \"#utility.yul\":10091:10423   */\n      swap4\n      swap3\n      pop\n      pop\n      pop\n      jump\t// out\n        /* \"#utility.yul\":10429:10651   */\n    tag_80:\n        /* \"#utility.yul\":10522:10526   */\n      0x00\n        /* \"#utility.yul\":10560:10562   */\n      0x20\n        /* \"#utility.yul\":10549:10558   */\n      dup3\n        /* \"#utility.yul\":10545:10563   */\n      add\n        /* \"#utility.yul\":10537:10563   */\n      swap1\n      pop\n        /* \"#utility.yul\":10573:10644   */\n      tag_380\n        /* \"#utility.yul\":10641:10642   */\n      0x00\n        /* \"#utility.yul\":10630:10639   */\n      dup4\n        /* \"#utility.yul\":10626:10643   */\n      add\n        /* \"#utility.yul\":10617:10623   */\n      dup5\n        /* \"#utility.yul\":10573:10644   */\n      tag_225\n      jump\t// in\n    tag_380:\n        /* \"#utility.yul\":10429:10651   */\n      swap3\n      swap2\n      pop\n      pop\n      jump\t// out\n        /* \"#utility.yul\":10657:11166   */\n    tag_84:\n        /* \"#utility.yul\":10726:10732   */\n      0x00\n        /* \"#utility.yul\":10775:10777   */\n      0x20\n        /* \"#utility.yul\":10763:10772   */\n      dup3\n        /* \"#utility.yul\":10754:10761   */\n      dup5\n        /* \"#utility.yul\":10750:10773   */\n      sub\n        /* \"#utility.yul\":10746:10778   */\n      slt\n        /* \"#utility.yul\":10743:10862   */\n      iszero\n      tag_382\n      jumpi\n        /* \"#utility.yul\":10781:10860   */\n      tag_383\n      tag_197\n      jump\t// in\n    tag_383:\n        /* \"#utility.yul\":10743:10862   */\n    tag_382:\n        /* \"#utility.yul\":10929:10930   */\n      0x00\n        /* \"#utility.yul\":10918:10927   */\n      dup3\n        /* \"#utility.yul\":10914:10931   */\n      add\n        /* \"#utility.yul\":10901:10932   */\n      calldataload\n        /* \"#utility.yul\":10959:10977   */\n      0xffffffffffffffff\n        /* \"#utility.yul\":10951:10957   */\n      dup2\n        /* \"#utility.yul\":10948:10978   */\n      gt\n        /* \"#utility.yul\":10945:11062   */\n      iszero\n      tag_384\n      jumpi\n        /* \"#utility.yul\":10981:11060   */\n      tag_385\n      tag_198\n      jump\t// in\n    tag_385:\n        /* \"#utility.yul\":10945:11062   */\n    tag_384:\n        /* \"#utility.yul\":11086:11149   */\n      tag_386\n        /* \"#utility.yul\":11141:11148   */\n      dup5\n        /* \"#utility.yul\":11132:11138   */\n      dup3\n        /* \"#utility.yul\":11121:11130   */\n      dup6\n        /* \"#utility.yul\":11117:11139   */\n      add\n        /* \"#utility.yul\":11086:11149   */\n      tag_208\n      jump\t// in\n    tag_386:\n        /* \"#utility.yul\":11076:11149   */\n      swap2\n      pop\n        /* \"#utility.yul\":10872:11159   */\n      pop\n        /* \"#utility.yul\":10657:11166   */\n      swap3\n      swap2\n      pop\n      pop\n      jump\t// out\n        /* \"#utility.yul\":11172:11501   */\n    tag_89:\n        /* \"#utility.yul\":11231:11237   */\n      0x00\n        /* \"#utility.yul\":11280:11282   */\n      0x20\n        /* \"#utility.yul\":11268:11277   */\n      dup3\n        /* \"#utility.yul\":11259:11266   */\n      dup5\n        /* \"#utility.yul\":11255:11278   */\n      sub\n        /* \"#utility.yul\":11251:11283   */\n      slt\n        /* \"#utility.yul\":11248:11367   */\n      iszero\n      tag_388\n      jumpi\n        /* \"#utility.yul\":11286:11365   */\n      tag_389\n      tag_197\n      jump\t// in\n    tag_389:\n        /* \"#utility.yul\":11248:11367   */\n    tag_388:\n        /* \"#utility.yul\":11406:11407   */\n      0x00\n        /* \"#utility.yul\":11431:11484   */\n      tag_390\n        /* \"#utility.yul\":11476:11483   */\n      dup5\n        /* \"#utility.yul\":11467:11473   */\n      dup3\n        /* \"#utility.yul\":11456:11465   */\n      dup6\n        /* \"#utility.yul\":11452:11474   */\n      add\n        /* \"#utility.yul\":11431:11484   */\n      tag_212\n      jump\t// in\n    tag_390:\n        /* \"#utility.yul\":11421:11484   */\n      swap2\n      pop\n        /* \"#utility.yul\":11377:11494   */\n      pop\n        /* \"#utility.yul\":11172:11501   */\n      swap3\n      swap2\n      pop\n      pop\n      jump\t// out\n        /* \"#utility.yul\":11507:11918   */\n    tag_92:\n        /* \"#utility.yul\":11642:11646   */\n      0x00\n        /* \"#utility.yul\":11680:11682   */\n      0x40\n        /* \"#utility.yul\":11669:11678   */\n      dup3\n        /* \"#utility.yul\":11665:11683   */\n      add\n        /* \"#utility.yul\":11657:11683   */\n      swap1\n      pop\n        /* \"#utility.yul\":11729:11738   */\n      dup2\n        /* \"#utility.yul\":11723:11727   */\n      dup2\n        /* \"#utility.yul\":11719:11739   */\n      sub\n        /* \"#utility.yul\":11715:11716   */\n      0x00\n        /* \"#utility.yul\":11704:11713   */\n      dup4\n        /* \"#utility.yul\":11700:11717   */\n      add\n        /* \"#utility.yul\":11693:11740   */\n      mstore\n        /* \"#utility.yul\":11757:11835   */\n      tag_392\n        /* \"#utility.yul\":11830:11834   */\n      dup2\n        /* \"#utility.yul\":11821:11827   */\n      dup6\n        /* \"#utility.yul\":11757:11835   */\n      tag_224\n      jump\t// in\n    tag_392:\n        /* \"#utility.yul\":11749:11835   */\n      swap1\n      pop\n        /* \"#utility.yul\":11845:11911   */\n      tag_393\n        /* \"#utility.yul\":11907:11909   */\n      0x20\n        /* \"#utility.yul\":11896:11905   */\n      dup4\n        /* \"#utility.yul\":11892:11910   */\n      add\n        /* \"#utility.yul\":11883:11889   */\n      dup5\n        /* \"#utility.yul\":11845:11911   */\n      tag_220\n      jump\t// in\n    tag_393:\n        /* \"#utility.yul\":11507:11918   */\n      swap4\n      swap3\n      pop\n      pop\n      pop\n      jump\t// out\n        /* \"#utility.yul\":11924:12086   */\n    tag_226:\n        /* \"#utility.yul\":12064:12078   */\n      0x4e4f542041204d454d4245520000000000000000000000000000000000000000\n        /* \"#utility.yul\":12060:12061   */\n      0x00\n        /* \"#utility.yul\":12052:12058   */\n      dup3\n        /* \"#utility.yul\":12048:12062   */\n      add\n        /* \"#utility.yul\":12041:12079   */\n      mstore\n        /* \"#utility.yul\":11924:12086   */\n      pop\n      jump\t// out\n        /* \"#utility.yul\":12092:12458   */\n    tag_227:\n        /* \"#utility.yul\":12234:12237   */\n      0x00\n        /* \"#utility.yul\":12255:12322   */\n      tag_396\n        /* \"#utility.yul\":12319:12321   */\n      0x0c\n        /* \"#utility.yul\":12314:12317   */\n      dup4\n        /* \"#utility.yul\":12255:12322   */\n      tag_222\n      jump\t// in\n    tag_396:\n        /* \"#utility.yul\":12248:12322   */\n      swap2\n      pop\n        /* \"#utility.yul\":12331:12424   */\n      tag_397\n        /* \"#utility.yul\":12420:12423   */\n      dup3\n        /* \"#utility.yul\":12331:12424   */\n      tag_226\n      jump\t// in\n    tag_397:\n        /* \"#utility.yul\":12449:12451   */\n      0x20\n        /* \"#utility.yul\":12444:12447   */\n      dup3\n        /* \"#utility.yul\":12440:12452   */\n      add\n        /* \"#utility.yul\":12433:12452   */\n      swap1\n      pop\n        /* \"#utility.yul\":12092:12458   */\n      swap2\n      swap1\n      pop\n      jump\t// out\n        /* \"#utility.yul\":12464:12883   */\n    tag_96:\n        /* \"#utility.yul\":12630:12634   */\n      0x00\n        /* \"#utility.yul\":12668:12670   */\n      0x20\n        /* \"#utility.yul\":12657:12666   */\n      dup3\n        /* \"#utility.yul\":12653:12671   */\n      add\n        /* \"#utility.yul\":12645:12671   */\n      swap1\n      pop\n        /* \"#utility.yul\":12717:12726   */\n      dup2\n        /* \"#utility.yul\":12711:12715   */\n      dup2\n        /* \"#utility.yul\":12707:12727   */\n      sub\n        /* \"#utility.yul\":12703:12704   */\n      0x00\n        /* \"#utility.yul\":12692:12701   */\n      dup4\n        /* \"#utility.yul\":12688:12705   */\n      add\n        /* \"#utility.yul\":12681:12728   */\n      mstore\n        /* \"#utility.yul\":12745:12876   */\n      tag_399\n        /* \"#utility.yul\":12871:12875   */\n      dup2\n        /* \"#utility.yul\":12745:12876   */\n      tag_227\n      jump\t// in\n    tag_399:\n        /* \"#utility.yul\":12737:12876   */\n      swap1\n      pop\n        /* \"#utility.yul\":12464:12883   */\n      swap2\n      swap1\n      pop\n      jump\t// out\n        /* \"#utility.yul\":12889:13069   */\n    tag_228:\n        /* \"#utility.yul\":12937:13014   */\n      0x4e487b7100000000000000000000000000000000000000000000000000000000\n        /* \"#utility.yul\":12934:12935   */\n      0x00\n        /* \"#utility.yul\":12927:13015   */\n      mstore\n        /* \"#utility.yul\":13034:13038   */\n      0x22\n        /* \"#utility.yul\":13031:13032   */\n      0x04\n        /* \"#utility.yul\":13024:13039   */\n      mstore\n        /* \"#utility.yul\":13058:13062   */\n      0x24\n        /* \"#utility.yul\":13055:13056   */\n      0x00\n        /* \"#utility.yul\":13048:13063   */\n      revert\n        /* \"#utility.yul\":13075:13395   */\n    tag_105:\n        /* \"#utility.yul\":13119:13125   */\n      0x00\n        /* \"#utility.yul\":13156:13157   */\n      0x02\n        /* \"#utility.yul\":13150:13154   */\n      dup3\n        /* \"#utility.yul\":13146:13158   */\n      div\n        /* \"#utility.yul\":13136:13158   */\n      swap1\n      pop\n        /* \"#utility.yul\":13203:13204   */\n      0x01\n        /* \"#utility.yul\":13197:13201   */\n      dup3\n        /* \"#utility.yul\":13193:13205   */\n      and\n        /* \"#utility.yul\":13224:13242   */\n      dup1\n        /* \"#utility.yul\":13214:13295   */\n      tag_402\n      jumpi\n        /* \"#utility.yul\":13280:13284   */\n      0x7f\n        /* \"#utility.yul\":13272:13278   */\n      dup3\n        /* \"#utility.yul\":13268:13285   */\n      and\n        /* \"#utility.yul\":13258:13285   */\n      swap2\n      pop\n        /* \"#utility.yul\":13214:13295   */\n    tag_402:\n        /* \"#utility.yul\":13342:13344   */\n      0x20\n        /* \"#utility.yul\":13334:13340   */\n      dup3\n        /* \"#utility.yul\":13331:13345   */\n      lt\n        /* \"#utility.yul\":13311:13329   */\n      dup2\n        /* \"#utility.yul\":13308:13346   */\n      sub\n        /* \"#utility.yul\":13305:13389   */\n      tag_403\n      jumpi\n        /* \"#utility.yul\":13361:13379   */\n      tag_404\n      tag_228\n      jump\t// in\n    tag_404:\n        /* \"#utility.yul\":13305:13389   */\n    tag_403:\n        /* \"#utility.yul\":13126:13395   */\n      pop\n        /* \"#utility.yul\":13075:13395   */\n      swap2\n      swap1\n      pop\n      jump\t// out\n        /* \"#utility.yul\":13401:13542   */\n    tag_229:\n        /* \"#utility.yul\":13450:13454   */\n      0x00\n        /* \"#utility.yul\":13473:13476   */\n      dup2\n        /* \"#utility.yul\":13465:13476   */\n      swap1\n      pop\n        /* \"#utility.yul\":13496:13499   */\n      dup2\n        /* \"#utility.yul\":13493:13494   */\n      0x00\n        /* \"#utility.yul\":13486:13500   */\n      mstore\n        /* \"#utility.yul\":13530:13534   */\n      0x20\n        /* \"#utility.yul\":13527:13528   */\n      0x00\n        /* \"#utility.yul\":13517:13535   */\n      keccak256\n        /* \"#utility.yul\":13509:13535   */\n      swap1\n      pop\n        /* \"#utility.yul\":13401:13542   */\n      swap2\n      swap1\n      pop\n      jump\t// out\n        /* \"#utility.yul\":13548:13641   */\n    tag_230:\n        /* \"#utility.yul\":13585:13591   */\n      0x00\n        /* \"#utility.yul\":13632:13634   */\n      0x20\n        /* \"#utility.yul\":13627:13629   */\n      0x1f\n        /* \"#utility.yul\":13620:13625   */\n      dup4\n        /* \"#utility.yul\":13616:13630   */\n      add\n        /* \"#utility.yul\":13612:13635   */\n      div\n        /* \"#utility.yul\":13602:13635   */\n      swap1\n      pop\n        /* \"#utility.yul\":13548:13641   */\n      swap2\n      swap1\n      pop\n      jump\t// out\n        /* \"#utility.yul\":13647:13754   */\n    tag_231:\n        /* \"#utility.yul\":13691:13699   */\n      0x00\n        /* \"#utility.yul\":13741:13746   */\n      dup3\n        /* \"#utility.yul\":13735:13739   */\n      dup3\n        /* \"#utility.yul\":13731:13747   */\n      shl\n        /* \"#utility.yul\":13710:13747   */\n      swap1\n      pop\n        /* \"#utility.yul\":13647:13754   */\n      swap3\n      swap2\n      pop\n      pop\n      jump\t// out\n        /* \"#utility.yul\":13760:14153   */\n    tag_232:\n        /* \"#utility.yul\":13829:13835   */\n      0x00\n        /* \"#utility.yul\":13879:13880   */\n      0x08\n        /* \"#utility.yul\":13867:13877   */\n      dup4\n        /* \"#utility.yul\":13863:13881   */\n      mul\n        /* \"#utility.yul\":13902:13999   */\n      tag_409\n        /* \"#utility.yul\":13932:13998   */\n      0xffffffffffffffffffffffffffffffffffffffffffffffffffffffffffffffff\n        /* \"#utility.yul\":13921:13930   */\n      dup3\n        /* \"#utility.yul\":13902:13999   */\n      tag_231\n      jump\t// in\n    tag_409:\n        /* \"#utility.yul\":14020:14059   */\n      tag_410\n        /* \"#utility.yul\":14050:14058   */\n      dup7\n        /* \"#utility.yul\":14039:14048   */\n      dup4\n        /* \"#utility.yul\":14020:14059   */\n      tag_231\n      jump\t// in\n    tag_410:\n        /* \"#utility.yul\":14008:14059   */\n      swap6\n      pop\n        /* \"#utility.yul\":14092:14096   */\n      dup1\n        /* \"#utility.yul\":14088:14097   */\n      not\n        /* \"#utility.yul\":14081:14086   */\n      dup5\n        /* \"#utility.yul\":14077:14098   */\n      and\n        /* \"#utility.yul\":14068:14098   */\n      swap4\n      pop\n        /* \"#utility.yul\":14141:14145   */\n      dup1\n        /* \"#utility.yul\":14131:14139   */\n      dup7\n        /* \"#utility.yul\":14127:14146   */\n      and\n        /* \"#utility.yul\":14120:14125   */\n      dup5\n        /* \"#utility.yul\":14117:14147   */\n      or\n        /* \"#utility.yul\":14107:14147   */\n      swap3\n      pop\n        /* \"#utility.yul\":13836:14153   */\n      pop\n      pop\n        /* \"#utility.yul\":13760:14153   */\n      swap4\n      swap3\n      pop\n      pop\n      pop\n      jump\t// out\n        /* \"#utility.yul\":14159:14219   */\n    tag_233:\n        /* \"#utility.yul\":14187:14190   */\n      0x00\n        /* \"#utility.yul\":14208:14213   */\n      dup2\n        /* \"#utility.yul\":14201:14213   */\n      swap1\n      pop\n        /* \"#utility.yul\":14159:14219   */\n      swap2\n      swap1\n      pop\n      jump\t// out\n        /* \"#utility.yul\":14225:14367   */\n    tag_234:\n        /* \"#utility.yul\":14275:14284   */\n      0x00\n        /* \"#utility.yul\":14308:14361   */\n      tag_413\n        /* \"#utility.yul\":14326:14360   */\n      tag_414\n        /* \"#utility.yul\":14335:14359   */\n      tag_415\n        /* \"#utility.yul\":14353:14358   */\n      dup5\n        /* \"#utility.yul\":14335:14359   */\n      tag_213\n      jump\t// in\n    tag_415:\n        /* \"#utility.yul\":14326:14360   */\n      tag_233\n      jump\t// in\n    tag_414:\n        /* \"#utility.yul\":14308:14361   */\n      tag_213\n      jump\t// in\n    tag_413:\n        /* \"#utility.yul\":14295:14361   */\n      swap1\n      pop\n        /* \"#utility.yul\":14225:14367   */\n      swap2\n      swap1\n      pop\n      jump\t// out\n        /* \"#utility.yul\":14373:14448   */\n    tag_235:\n        /* \"#utility.yul\":14416:14419   */\n      0x00\n        /* \"#utility.yul\":14437:14442   */\n      dup2\n        /* \"#utility.yul\":14430:14442   */\n      swap1\n      pop\n        /* \"#utility.yul\":14373:14448   */\n      swap2\n      swap1\n      pop\n      jump\t// out\n        /* \"#utility.yul\":14454:14723   */\n    tag_236:\n        /* \"#utility.yul\":14564:14603   */\n      tag_418\n        /* \"#utility.yul\":14595:14602   */\n      dup4\n        /* \"#utility.yul\":14564:14603   */\n      tag_234\n      jump\t// in\n    tag_418:\n        /* \"#utility.yul\":14625:14716   */\n      tag_419\n        /* \"#utility.yul\":14674:14715   */\n      tag_420\n        /* \"#utility.yul\":14698:14714   */\n      dup3\n        /* \"#utility.yul\":14674:14715   */\n      tag_235\n      jump\t// in\n    tag_420:\n        /* \"#utility.yul\":14666:14672   */\n      dup5\n        /* \"#utility.yul\":14659:14663   */\n      dup5\n        /* \"#utility.yul\":14653:14664   */\n      sload\n        /* \"#utility.yul\":14625:14716   */\n      tag_232\n      jump\t// in\n    tag_419:\n        /* \"#utility.yul\":14619:14623   */\n      dup3\n        /* \"#utility.yul\":14612:14717   */\n      sstore\n        /* \"#utility.yul\":14530:14723   */\n      pop\n        /* \"#utility.yul\":14454:14723   */\n      pop\n      pop\n      pop\n      jump\t// out\n        /* \"#utility.yul\":14729:14802   */\n    tag_237:\n        /* \"#utility.yul\":14774:14777   */\n      0x00\n        /* \"#utility.yul\":14729:14802   */\n      swap1\n      jump\t// out\n        /* \"#utility.yul\":14808:14997   */\n    tag_238:\n        /* \"#utility.yul\":14885:14917   */\n      tag_423\n      tag_237\n      jump\t// in\n    tag_423:\n        /* \"#utility.yul\":14926:14991   */\n      tag_424\n        /* \"#utility.yul\":14984:14990   */\n      dup2\n        /* \"#utility.yul\":14976:14982   */\n      dup5\n        /* \"#utility.yul\":14970:14974   */\n      dup5\n        /* \"#utility.yul\":14926:14991   */\n      tag_236\n      jump\t// in\n    tag_424:\n        /* \"#utility.yul\":14861:14997   */\n      pop\n        /* \"#utility.yul\":14808:14997   */\n      pop\n      pop\n      jump\t// out\n        /* \"#utility.yul\":15003:15189   */\n    tag_239:\n        /* \"#utility.yul\":15063:15183   */\n    tag_426:\n        /* \"#utility.yul\":15080:15083   */\n      dup2\n        /* \"#utility.yul\":15073:15078   */\n      dup2\n        /* \"#utility.yul\":15070:15084   */\n      lt\n        /* \"#utility.yul\":15063:15183   */\n      iszero\n      tag_428\n      jumpi\n        /* \"#utility.yul\":15134:15173   */\n      tag_429\n        /* \"#utility.yul\":15171:15172   */\n      0x00\n        /* \"#utility.yul\":15164:15169   */\n      dup3\n        /* \"#utility.yul\":15134:15173   */\n      tag_238\n      jump\t// in\n    tag_429:\n        /* \"#utility.yul\":15107:15108   */\n      0x01\n        /* \"#utility.yul\":15100:15105   */\n      dup2\n        /* \"#utility.yul\":15096:15109   */\n      add\n        /* \"#utility.yul\":15087:15109   */\n      swap1\n      pop\n        /* \"#utility.yul\":15063:15183   */\n      jump(tag_426)\n    tag_428:\n        /* \"#utility.yul\":15003:15189   */\n      pop\n      pop\n      jump\t// out\n        /* \"#utility.yul\":15195:15738   */\n    tag_240:\n        /* \"#utility.yul\":15296:15298   */\n      0x1f\n        /* \"#utility.yul\":15291:15294   */\n      dup3\n        /* \"#utility.yul\":15288:15299   */\n      gt\n        /* \"#utility.yul\":15285:15731   */\n      iszero\n      tag_431\n      jumpi\n        /* \"#utility.yul\":15330:15368   */\n      tag_432\n        /* \"#utility.yul\":15362:15367   */\n      dup2\n        /* \"#utility.yul\":15330:15368   */\n      tag_229\n      jump\t// in\n    tag_432:\n        /* \"#utility.yul\":15414:15443   */\n      tag_433\n        /* \"#utility.yul\":15432:15442   */\n      dup5\n        /* \"#utility.yul\":15414:15443   */\n      tag_230\n      jump\t// in\n    tag_433:\n        /* \"#utility.yul\":15404:15412   */\n      dup2\n        /* \"#utility.yul\":15400:15444   */\n      add\n        /* \"#utility.yul\":15597:15599   */\n      0x20\n        /* \"#utility.yul\":15585:15595   */\n      dup6\n        /* \"#utility.yul\":15582:15600   */\n      lt\n        /* \"#utility.yul\":15579:15628   */\n      iszero\n      tag_434\n      jumpi\n        /* \"#utility.yul\":15618:15626   */\n      dup2\n        /* \"#utility.yul\":15603:15626   */\n      swap1\n      pop\n        /* \"#utility.yul\":15579:15628   */\n    tag_434:\n        /* \"#utility.yul\":15641:15721   */\n      tag_435\n        /* \"#utility.yul\":15697:15719   */\n      tag_436\n        /* \"#utility.yul\":15715:15718   */\n      dup6\n        /* \"#utility.yul\":15697:15719   */\n      tag_230\n      jump\t// in\n    tag_436:\n        /* \"#utility.yul\":15687:15695   */\n      dup4\n        /* \"#utility.yul\":15683:15720   */\n      add\n        /* \"#utility.yul\":15670:15681   */\n      dup3\n        /* \"#utility.yul\":15641:15721   */\n      tag_239\n      jump\t// in\n    tag_435:\n        /* \"#utility.yul\":15300:15731   */\n      pop\n      pop\n        /* \"#utility.yul\":15285:15731   */\n    tag_431:\n        /* \"#utility.yul\":15195:15738   */\n      pop\n      pop\n      pop\n      jump\t// out\n        /* \"#utility.yul\":15744:15861   */\n    tag_241:\n        /* \"#utility.yul\":15798:15806   */\n      0x00\n        /* \"#utility.yul\":15848:15853   */\n      dup3\n        /* \"#utility.yul\":15842:15846   */\n      dup3\n        /* \"#utility.yul\":15838:15854   */\n      shr\n        /* \"#utility.yul\":15817:15854   */\n      swap1\n      pop\n        /* \"#utility.yul\":15744:15861   */\n      swap3\n      swap2\n      pop\n      pop\n      jump\t// out\n        /* \"#utility.yul\":15867:16036   */\n    tag_242:\n        /* \"#utility.yul\":15911:15917   */\n      0x00\n        /* \"#utility.yul\":15944:15995   */\n      tag_439\n        /* \"#utility.yul\":15992:15993   */\n      0x00\n        /* \"#utility.yul\":15988:15994   */\n      not\n        /* \"#utility.yul\":15980:15985   */\n      dup5\n        /* \"#utility.yul\":15977:15978   */\n      0x08\n        /* \"#utility.yul\":15973:15986   */\n      mul\n        /* \"#utility.yul\":15944:15995   */\n      tag_241\n      jump\t// in\n    tag_439:\n        /* \"#utility.yul\":15940:15996   */\n      not\n        /* \"#utility.yul\":16025:16029   */\n      dup1\n        /* \"#utility.yul\":16019:16023   */\n      dup4\n        /* \"#utility.yul\":16015:16030   */\n      and\n        /* \"#utility.yul\":16005:16030   */\n      swap2\n      pop\n        /* \"#utility.yul\":15918:16036   */\n      pop\n        /* \"#utility.yul\":15867:16036   */\n      swap3\n      swap2\n      pop\n      pop\n      jump\t// out\n        /* \"#utility.yul\":16041:16336   */\n    tag_243:\n        /* \"#utility.yul\":16117:16121   */\n      0x00\n        /* \"#utility.yul\":16263:16292   */\n      tag_441\n        /* \"#utility.yul\":16288:16291   */\n      dup4\n        /* \"#utility.yul\":16282:16286   */\n      dup4\n        /* \"#utility.yul\":16263:16292   */\n      tag_242\n      jump\t// in\n    tag_441:\n        /* \"#utility.yul\":16255:16292   */\n      swap2\n      pop\n        /* \"#utility.yul\":16325:16328   */\n      dup3\n        /* \"#utility.yul\":16322:16323   */\n      0x02\n        /* \"#utility.yul\":16318:16329   */\n      mul\n        /* \"#utility.yul\":16312:16316   */\n      dup3\n        /* \"#utility.yul\":16309:16330   */\n      or\n        /* \"#utility.yul\":16301:16330   */\n      swap1\n      pop\n        /* \"#utility.yul\":16041:16336   */\n      swap3\n      swap2\n      pop\n      pop\n      jump\t// out\n        /* \"#utility.yul\":16341:17736   */\n    tag_98:\n        /* \"#utility.yul\":16458:16495   */\n      tag_443\n        /* \"#utility.yul\":16491:16494   */\n      dup3\n        /* \"#utility.yul\":16458:16495   */\n      tag_221\n      jump\t// in\n    tag_443:\n        /* \"#utility.yul\":16560:16578   */\n      0xffffffffffffffff\n        /* \"#utility.yul\":16552:16558   */\n      dup2\n        /* \"#utility.yul\":16549:16579   */\n      gt\n        /* \"#utility.yul\":16546:16602   */\n      iszero\n      tag_444\n      jumpi\n        /* \"#utility.yul\":16582:16600   */\n      tag_445\n      tag_202\n      jump\t// in\n    tag_445:\n        /* \"#utility.yul\":16546:16602   */\n    tag_444:\n        /* \"#utility.yul\":16626:16664   */\n      tag_446\n        /* \"#utility.yul\":16658:16662   */\n      dup3\n        /* \"#utility.yul\":16652:16663   */\n      sload\n        /* \"#utility.yul\":16626:16664   */\n      tag_105\n      jump\t// in\n    tag_446:\n        /* \"#utility.yul\":16711:16778   */\n      tag_447\n        /* \"#utility.yul\":16771:16777   */\n      dup3\n        /* \"#utility.yul\":16763:16769   */\n      dup3\n        /* \"#utility.yul\":16757:16761   */\n      dup6\n        /* \"#utility.yul\":16711:16778   */\n      tag_240\n      jump\t// in\n    tag_447:\n        /* \"#utility.yul\":16805:16806   */\n      0x00\n        /* \"#utility.yul\":16829:16833   */\n      0x20\n        /* \"#utility.yul\":16816:16833   */\n      swap1\n      pop\n        /* \"#utility.yul\":16861:16863   */\n      0x1f\n        /* \"#utility.yul\":16853:16859   */\n      dup4\n        /* \"#utility.yul\":16850:16864   */\n      gt\n        /* \"#utility.yul\":16878:16879   */\n      0x01\n        /* \"#utility.yul\":16873:17491   */\n      dup2\n      eq\n      tag_449\n      jumpi\n        /* \"#utility.yul\":17535:17536   */\n      0x00\n        /* \"#utility.yul\":17552:17558   */\n      dup5\n        /* \"#utility.yul\":17549:17626   */\n      iszero\n      tag_450\n      jumpi\n        /* \"#utility.yul\":17601:17610   */\n      dup3\n        /* \"#utility.yul\":17596:17599   */\n      dup8\n        /* \"#utility.yul\":17592:17611   */\n      add\n        /* \"#utility.yul\":17586:17612   */\n      mload\n        /* \"#utility.yul\":17577:17612   */\n      swap1\n      pop\n        /* \"#utility.yul\":17549:17626   */\n    tag_450:\n        /* \"#utility.yul\":17652:17719   */\n      tag_451\n        /* \"#utility.yul\":17712:17718   */\n      dup6\n        /* \"#utility.yul\":17705:17710   */\n      dup3\n        /* \"#utility.yul\":17652:17719   */\n      tag_243\n      jump\t// in\n    tag_451:\n        /* \"#utility.yul\":17646:17650   */\n      dup7\n        /* \"#utility.yul\":17639:17720   */\n      sstore\n        /* \"#utility.yul\":17508:17730   */\n      pop\n        /* \"#utility.yul\":16843:17730   */\n      jump(tag_448)\n        /* \"#utility.yul\":16873:17491   */\n    tag_449:\n        /* \"#utility.yul\":16925:16929   */\n      0x1f\n        /* \"#utility.yul\":16921:16930   */\n      not\n        /* \"#utility.yul\":16913:16919   */\n      dup5\n        /* \"#utility.yul\":16909:16931   */\n      and\n        /* \"#utility.yul\":16959:16996   */\n      tag_452\n        /* \"#utility.yul\":16991:16995   */\n      dup7\n        /* \"#utility.yul\":16959:16996   */\n      tag_229\n      jump\t// in\n    tag_452:\n        /* \"#utility.yul\":17018:17019   */\n      0x00\n        /* \"#utility.yul\":17032:17240   */\n    tag_453:\n        /* \"#utility.yul\":17046:17053   */\n      dup3\n        /* \"#utility.yul\":17043:17044   */\n      dup2\n        /* \"#utility.yul\":17040:17054   */\n      lt\n        /* \"#utility.yul\":17032:17240   */\n      iszero\n      tag_455\n      jumpi\n        /* \"#utility.yul\":17125:17134   */\n      dup5\n        /* \"#utility.yul\":17120:17123   */\n      dup10\n        /* \"#utility.yul\":17116:17135   */\n      add\n        /* \"#utility.yul\":17110:17136   */\n      mload\n        /* \"#utility.yul\":17102:17108   */\n      dup3\n        /* \"#utility.yul\":17095:17137   */\n      sstore\n        /* \"#utility.yul\":17176:17177   */\n      0x01\n        /* \"#utility.yul\":17168:17174   */\n      dup3\n        /* \"#utility.yul\":17164:17178   */\n      add\n        /* \"#utility.yul\":17154:17178   */\n      swap2\n      pop\n        /* \"#utility.yul\":17223:17225   */\n      0x20\n        /* \"#utility.yul\":17212:17221   */\n      dup6\n        /* \"#utility.yul\":17208:17226   */\n      add\n        /* \"#utility.yul\":17195:17226   */\n      swap5\n      pop\n        /* \"#utility.yul\":17069:17073   */\n      0x20\n        /* \"#utility.yul\":17066:17067   */\n      dup2\n        /* \"#utility.yul\":17062:17074   */\n      add\n        /* \"#utility.yul\":17057:17074   */\n      swap1\n      pop\n        /* \"#utility.yul\":17032:17240   */\n      jump(tag_453)\n    tag_455:\n        /* \"#utility.yul\":17268:17274   */\n      dup7\n        /* \"#utility.yul\":17259:17266   */\n      dup4\n        /* \"#utility.yul\":17256:17275   */\n      lt\n        /* \"#utility.yul\":17253:17432   */\n      iszero\n      tag_456\n      jumpi\n        /* \"#utility.yul\":17326:17335   */\n      dup5\n        /* \"#utility.yul\":17321:17324   */\n      dup10\n        /* \"#utility.yul\":17317:17336   */\n      add\n        /* \"#utility.yul\":17311:17337   */\n      mload\n        /* \"#utility.yul\":17369:17417   */\n      tag_457\n        /* \"#utility.yul\":17411:17415   */\n      0x1f\n        /* \"#utility.yul\":17403:17409   */\n      dup10\n        /* \"#utility.yul\":17399:17416   */\n      and\n        /* \"#utility.yul\":17388:17397   */\n      dup3\n        /* \"#utility.yul\":17369:17417   */\n      tag_242\n      jump\t// in\n    tag_457:\n        /* \"#utility.yul\":17361:17367   */\n      dup4\n        /* \"#utility.yul\":17354:17418   */\n      sstore\n        /* \"#utility.yul\":17276:17432   */\n      pop\n        /* \"#utility.yul\":17253:17432   */\n    tag_456:\n        /* \"#utility.yul\":17478:17479   */\n      0x01\n        /* \"#utility.yul\":17474:17475   */\n      0x02\n        /* \"#utility.yul\":17466:17472   */\n      dup9\n        /* \"#utility.yul\":17462:17476   */\n      mul\n        /* \"#utility.yul\":17458:17480   */\n      add\n        /* \"#utility.yul\":17452:17456   */\n      dup9\n        /* \"#utility.yul\":17445:17481   */\n      sstore\n        /* \"#utility.yul\":16880:17491   */\n      pop\n      pop\n      pop\n        /* \"#utility.yul\":16843:17730   */\n    tag_448:\n      pop\n        /* \"#utility.yul\":16433:17736   */\n      pop\n      pop\n      pop\n        /* \"#utility.yul\":16341:17736   */\n      pop\n      pop\n      jump\t// out\n        /* \"#utility.yul\":17742:17922   */\n    tag_244:\n        /* \"#utility.yul\":17790:17867   */\n      0x4e487b7100000000000000000000000000000000000000000000000000000000\n        /* \"#utility.yul\":17787:17788   */\n      0x00\n        /* \"#utility.yul\":17780:17868   */\n      mstore\n        /* \"#utility.yul\":17887:17891   */\n      0x11\n        /* \"#utility.yul\":17884:17885   */\n      0x04\n        /* \"#utility.yul\":17877:17892   */\n      mstore\n        /* \"#utility.yul\":17911:17915   */\n      0x24\n        /* \"#utility.yul\":17908:17909   */\n      0x00\n        /* \"#utility.yul\":17901:17916   */\n      revert\n        /* \"#utility.yul\":17928:18119   */\n    tag_101:\n        /* \"#utility.yul\":17968:17971   */\n      0x00\n        /* \"#utility.yul\":17987:18007   */\n      tag_460\n        /* \"#utility.yul\":18005:18006   */\n      dup3\n        /* \"#utility.yul\":17987:18007   */\n      tag_213\n      jump\t// in\n    tag_460:\n        /* \"#utility.yul\":17982:18007   */\n      swap2\n      pop\n        /* \"#utility.yul\":18021:18041   */\n      tag_461\n        /* \"#utility.yul\":18039:18040   */\n      dup4\n        /* \"#utility.yul\":18021:18041   */\n      tag_213\n      jump\t// in\n    tag_461:\n        /* \"#utility.yul\":18016:18041   */\n      swap3\n      pop\n        /* \"#utility.yul\":18064:18065   */\n      dup3\n        /* \"#utility.yul\":18061:18062   */\n      dup3\n        /* \"#utility.yul\":18057:18066   */\n      add\n        /* \"#utility.yul\":18050:18066   */\n      swap1\n      pop\n        /* \"#utility.yul\":18085:18088   */\n      dup1\n        /* \"#utility.yul\":18082:18083   */\n      dup3\n        /* \"#utility.yul\":18079:18089   */\n      gt\n        /* \"#utility.yul\":18076:18112   */\n      iszero\n      tag_462\n      jumpi\n        /* \"#utility.yul\":18092:18110   */\n      tag_463\n      tag_244\n      jump\t// in\n    tag_463:\n        /* \"#utility.yul\":18076:18112   */\n    tag_462:\n        /* \"#utility.yul\":17928:18119   */\n      swap3\n      swap2\n      pop\n      pop\n      jump\t// out\n        /* \"#utility.yul\":18125:18300   */\n    tag_245:\n        /* \"#utility.yul\":18265:18292   */\n      0x564f54494e4720504552494f442048415320454c415053454400000000000000\n        /* \"#utility.yul\":18261:18262   */\n      0x00\n        /* \"#utility.yul\":18253:18259   */\n      dup3\n        /* \"#utility.yul\":18249:18263   */\n      add\n        /* \"#utility.yul\":18242:18293   */\n      mstore\n        /* \"#utility.yul\":18125:18300   */\n      pop\n      jump\t// out\n        /* \"#utility.yul\":18306:18672   */\n    tag_246:\n        /* \"#utility.yul\":18448:18451   */\n      0x00\n        /* \"#utility.yul\":18469:18536   */\n      tag_466\n        /* \"#utility.yul\":18533:18535   */\n      0x19\n        /* \"#utility.yul\":18528:18531   */\n      dup4\n        /* \"#utility.yul\":18469:18536   */\n      tag_222\n      jump\t// in\n    tag_466:\n        /* \"#utility.yul\":18462:18536   */\n      swap2\n      pop\n        /* \"#utility.yul\":18545:18638   */\n      tag_467\n        /* \"#utility.yul\":18634:18637   */\n      dup3\n        /* \"#utility.yul\":18545:18638   */\n      tag_245\n      jump\t// in\n    tag_467:\n        /* \"#utility.yul\":18663:18665   */\n      0x20\n        /* \"#utility.yul\":18658:18661   */\n      dup3\n        /* \"#utility.yul\":18654:18666   */\n      add\n        /* \"#utility.yul\":18647:18666   */\n      swap1\n      pop\n        /* \"#utility.yul\":18306:18672   */\n      swap2\n      swap1\n      pop\n      jump\t// out\n        /* \"#utility.yul\":18678:19097   */\n    tag_120:\n        /* \"#utility.yul\":18844:18848   */\n      0x00\n        /* \"#utility.yul\":18882:18884   */\n      0x20\n        /* \"#utility.yul\":18871:18880   */\n      dup3\n        /* \"#utility.yul\":18867:18885   */\n      add\n        /* \"#utility.yul\":18859:18885   */\n      swap1\n      pop\n        /* \"#utility.yul\":18931:18940   */\n      dup2\n        /* \"#utility.yul\":18925:18929   */\n      dup2\n        /* \"#utility.yul\":18921:18941   */\n      sub\n        /* \"#utility.yul\":18917:18918   */\n      0x00\n        /* \"#utility.yul\":18906:18915   */\n      dup4\n        /* \"#utility.yul\":18902:18919   */\n      add\n        /* \"#utility.yul\":18895:18942   */\n      mstore\n        /* \"#utility.yul\":18959:19090   */\n      tag_469\n        /* \"#utility.yul\":19085:19089   */\n      dup2\n        /* \"#utility.yul\":18959:19090   */\n      tag_246\n      jump\t// in\n    tag_469:\n        /* \"#utility.yul\":18951:19090   */\n      swap1\n      pop\n        /* \"#utility.yul\":18678:19097   */\n      swap2\n      swap1\n      pop\n      jump\t// out\n        /* \"#utility.yul\":19103:19246   */\n    tag_247:\n        /* \"#utility.yul\":19160:19165   */\n      0x00\n        /* \"#utility.yul\":19191:19197   */\n      dup2\n        /* \"#utility.yul\":19185:19198   */\n      mload\n        /* \"#utility.yul\":19176:19198   */\n      swap1\n      pop\n        /* \"#utility.yul\":19207:19240   */\n      tag_471\n        /* \"#utility.yul\":19234:19239   */\n      dup2\n        /* \"#utility.yul\":19207:19240   */\n      tag_214\n      jump\t// in\n    tag_471:\n        /* \"#utility.yul\":19103:19246   */\n      swap3\n      swap2\n      pop\n      pop\n      jump\t// out\n        /* \"#utility.yul\":19252:19603   */\n    tag_125:\n        /* \"#utility.yul\":19322:19328   */\n      0x00\n        /* \"#utility.yul\":19371:19373   */\n      0x20\n        /* \"#utility.yul\":19359:19368   */\n      dup3\n        /* \"#utility.yul\":19350:19357   */\n      dup5\n        /* \"#utility.yul\":19346:19369   */\n      sub\n        /* \"#utility.yul\":19342:19374   */\n      slt\n        /* \"#utility.yul\":19339:19458   */\n      iszero\n      tag_473\n      jumpi\n        /* \"#utility.yul\":19377:19456   */\n      tag_474\n      tag_197\n      jump\t// in\n    tag_474:\n        /* \"#utility.yul\":19339:19458   */\n    tag_473:\n        /* \"#utility.yul\":19497:19498   */\n      0x00\n        /* \"#utility.yul\":19522:19586   */\n      tag_475\n        /* \"#utility.yul\":19578:19585   */\n      dup5\n        /* \"#utility.yul\":19569:19575   */\n      dup3\n        /* \"#utility.yul\":19558:19567   */\n      dup6\n        /* \"#utility.yul\":19554:19576   */\n      add\n        /* \"#utility.yul\":19522:19586   */\n      tag_247\n      jump\t// in\n    tag_475:\n        /* \"#utility.yul\":19512:19586   */\n      swap2\n      pop\n        /* \"#utility.yul\":19468:19596   */\n      pop\n        /* \"#utility.yul\":19252:19603   */\n      swap3\n      swap2\n      pop\n      pop\n      jump\t// out\n        /* \"#utility.yul\":19609:19842   */\n    tag_248:\n        /* \"#utility.yul\":19749:19783   */\n      0x594f55204d55535420504f5353455320544f4b454e7320544f20424520414e20\n        /* \"#utility.yul\":19745:19746   */\n      0x00\n        /* \"#utility.yul\":19737:19743   */\n      dup3\n        /* \"#utility.yul\":19733:19747   */\n      add\n        /* \"#utility.yul\":19726:19784   */\n      mstore\n        /* \"#utility.yul\":19818:19834   */\n      0x454c494749424c4520564f544552000000000000000000000000000000000000\n        /* \"#utility.yul\":19813:19815   */\n      0x20\n        /* \"#utility.yul\":19805:19811   */\n      dup3\n        /* \"#utility.yul\":19801:19816   */\n      add\n        /* \"#utility.yul\":19794:19835   */\n      mstore\n        /* \"#utility.yul\":19609:19842   */\n      pop\n      jump\t// out\n        /* \"#utility.yul\":19848:20214   */\n    tag_249:\n        /* \"#utility.yul\":19990:19993   */\n      0x00\n        /* \"#utility.yul\":20011:20078   */\n      tag_478\n        /* \"#utility.yul\":20075:20077   */\n      0x2e\n        /* \"#utility.yul\":20070:20073   */\n      dup4\n        /* \"#utility.yul\":20011:20078   */\n      tag_222\n      jump\t// in\n    tag_478:\n        /* \"#utility.yul\":20004:20078   */\n      swap2\n      pop\n        /* \"#utility.yul\":20087:20180   */\n      tag_479\n        /* \"#utility.yul\":20176:20179   */\n      dup3\n        /* \"#utility.yul\":20087:20180   */\n      tag_248\n      jump\t// in\n    tag_479:\n        /* \"#utility.yul\":20205:20207   */\n      0x40\n        /* \"#utility.yul\":20200:20203   */\n      dup3\n        /* \"#utility.yul\":20196:20208   */\n      add\n        /* \"#utility.yul\":20189:20208   */\n      swap1\n      pop\n        /* \"#utility.yul\":19848:20214   */\n      swap2\n      swap1\n      pop\n      jump\t// out\n        /* \"#utility.yul\":20220:20639   */\n    tag_128:\n        /* \"#utility.yul\":20386:20390   */\n      0x00\n        /* \"#utility.yul\":20424:20426   */\n      0x20\n        /* \"#utility.yul\":20413:20422   */\n      dup3\n        /* \"#utility.yul\":20409:20427   */\n      add\n        /* \"#utility.yul\":20401:20427   */\n      swap1\n      pop\n        /* \"#utility.yul\":20473:20482   */\n      dup2\n        /* \"#utility.yul\":20467:20471   */\n      dup2\n        /* \"#utility.yul\":20463:20483   */\n      sub\n        /* \"#utility.yul\":20459:20460   */\n      0x00\n        /* \"#utility.yul\":20448:20457   */\n      dup4\n        /* \"#utility.yul\":20444:20461   */\n      add\n        /* \"#utility.yul\":20437:20484   */\n      mstore\n        /* \"#utility.yul\":20501:20632   */\n      tag_481\n        /* \"#utility.yul\":20627:20631   */\n      dup2\n        /* \"#utility.yul\":20501:20632   */\n      tag_249\n      jump\t// in\n    tag_481:\n        /* \"#utility.yul\":20493:20632   */\n      swap1\n      pop\n        /* \"#utility.yul\":20220:20639   */\n      swap2\n      swap1\n      pop\n      jump\t// out\n        /* \"#utility.yul\":20645:20870   */\n    tag_250:\n        /* \"#utility.yul\":20785:20819   */\n      0x4d454d424552532043414e204f4e4c592043415354204120564f544520504552\n        /* \"#utility.yul\":20781:20782   */\n      0x00\n        /* \"#utility.yul\":20773:20779   */\n      dup3\n        /* \"#utility.yul\":20769:20783   */\n      add\n        /* \"#utility.yul\":20762:20820   */\n      mstore\n        /* \"#utility.yul\":20854:20862   */\n      0x20544f5049430000000000000000000000000000000000000000000000000000\n        /* \"#utility.yul\":20849:20851   */\n      0x20\n        /* \"#utility.yul\":20841:20847   */\n      dup3\n        /* \"#utility.yul\":20837:20852   */\n      add\n        /* \"#utility.yul\":20830:20863   */\n      mstore\n        /* \"#utility.yul\":20645:20870   */\n      pop\n      jump\t// out\n        /* \"#utility.yul\":20876:21242   */\n    tag_251:\n        /* \"#utility.yul\":21018:21021   */\n      0x00\n        /* \"#utility.yul\":21039:21106   */\n      tag_484\n        /* \"#utility.yul\":21103:21105   */\n      0x26\n        /* \"#utility.yul\":21098:21101   */\n      dup4\n        /* \"#utility.yul\":21039:21106   */\n      tag_222\n      jump\t// in\n    tag_484:\n        /* \"#utility.yul\":21032:21106   */\n      swap2\n      pop\n        /* \"#utility.yul\":21115:21208   */\n      tag_485\n        /* \"#utility.yul\":21204:21207   */\n      dup3\n        /* \"#utility.yul\":21115:21208   */\n      tag_250\n      jump\t// in\n    tag_485:\n        /* \"#utility.yul\":21233:21235   */\n      0x40\n        /* \"#utility.yul\":21228:21231   */\n      dup3\n        /* \"#utility.yul\":21224:21236   */\n      add\n        /* \"#utility.yul\":21217:21236   */\n      swap1\n      pop\n        /* \"#utility.yul\":20876:21242   */\n      swap2\n      swap1\n      pop\n      jump\t// out\n        /* \"#utility.yul\":21248:21667   */\n    tag_131:\n        /* \"#utility.yul\":21414:21418   */\n      0x00\n        /* \"#utility.yul\":21452:21454   */\n      0x20\n        /* \"#utility.yul\":21441:21450   */\n      dup3\n        /* \"#utility.yul\":21437:21455   */\n      add\n        /* \"#utility.yul\":21429:21455   */\n      swap1\n      pop\n        /* \"#utility.yul\":21501:21510   */\n      dup2\n        /* \"#utility.yul\":21495:21499   */\n      dup2\n        /* \"#utility.yul\":21491:21511   */\n      sub\n        /* \"#utility.yul\":21487:21488   */\n      0x00\n        /* \"#utility.yul\":21476:21485   */\n      dup4\n        /* \"#utility.yul\":21472:21489   */\n      add\n        /* \"#utility.yul\":21465:21512   */\n      mstore\n        /* \"#utility.yul\":21529:21660   */\n      tag_487\n        /* \"#utility.yul\":21655:21659   */\n      dup2\n        /* \"#utility.yul\":21529:21660   */\n      tag_251\n      jump\t// in\n    tag_487:\n        /* \"#utility.yul\":21521:21660   */\n      swap1\n      pop\n        /* \"#utility.yul\":21248:21667   */\n      swap2\n      swap1\n      pop\n      jump\t// out\n        /* \"#utility.yul\":21673:21993   */\n    tag_137:\n        /* \"#utility.yul\":21788:21792   */\n      0x00\n        /* \"#utility.yul\":21826:21828   */\n      0x40\n        /* \"#utility.yul\":21815:21824   */\n      dup3\n        /* \"#utility.yul\":21811:21829   */\n      add\n        /* \"#utility.yul\":21803:21829   */\n      swap1\n      pop\n        /* \"#utility.yul\":21839:21910   */\n      tag_489\n        /* \"#utility.yul\":21907:21908   */\n      0x00\n        /* \"#utility.yul\":21896:21905   */\n      dup4\n        /* \"#utility.yul\":21892:21909   */\n      add\n        /* \"#utility.yul\":21883:21889   */\n      dup6\n        /* \"#utility.yul\":21839:21910   */\n      tag_219\n      jump\t// in\n    tag_489:\n        /* \"#utility.yul\":21920:21986   */\n      tag_490\n        /* \"#utility.yul\":21982:21984   */\n      0x20\n        /* \"#utility.yul\":21971:21980   */\n      dup4\n        /* \"#utility.yul\":21967:21985   */\n      add\n        /* \"#utility.yul\":21958:21964   */\n      dup5\n        /* \"#utility.yul\":21920:21986   */\n      tag_220\n      jump\t// in\n    tag_490:\n        /* \"#utility.yul\":21673:21993   */\n      swap4\n      swap3\n      pop\n      pop\n      pop\n      jump\t// out\n        /* \"#utility.yul\":21999:22171   */\n    tag_252:\n        /* \"#utility.yul\":22139:22163   */\n      0x5448524553484f4c44204e4f5420455843454544454400000000000000000000\n        /* \"#utility.yul\":22135:22136   */\n      0x00\n        /* \"#utility.yul\":22127:22133   */\n      dup3\n        /* \"#utility.yul\":22123:22137   */\n      add\n        /* \"#utility.yul\":22116:22164   */\n      mstore\n        /* \"#utility.yul\":21999:22171   */\n      pop\n      jump\t// out\n        /* \"#utility.yul\":22177:22543   */\n    tag_253:\n        /* \"#utility.yul\":22319:22322   */\n      0x00\n        /* \"#utility.yul\":22340:22407   */\n      tag_493\n        /* \"#utility.yul\":22404:22406   */\n      0x16\n        /* \"#utility.yul\":22399:22402   */\n      dup4\n        /* \"#utility.yul\":22340:22407   */\n      tag_222\n      jump\t// in\n    tag_493:\n        /* \"#utility.yul\":22333:22407   */\n      swap2\n      pop\n        /* \"#utility.yul\":22416:22509   */\n      tag_494\n        /* \"#utility.yul\":22505:22508   */\n      dup3\n        /* \"#utility.yul\":22416:22509   */\n      tag_252\n      jump\t// in\n    tag_494:\n        /* \"#utility.yul\":22534:22536   */\n      0x20\n        /* \"#utility.yul\":22529:22532   */\n      dup3\n        /* \"#utility.yul\":22525:22537   */\n      add\n        /* \"#utility.yul\":22518:22537   */\n      swap1\n      pop\n        /* \"#utility.yul\":22177:22543   */\n      swap2\n      swap1\n      pop\n      jump\t// out\n        /* \"#utility.yul\":22549:22968   */\n    tag_170:\n        /* \"#utility.yul\":22715:22719   */\n      0x00\n        /* \"#utility.yul\":22753:22755   */\n      0x20\n        /* \"#utility.yul\":22742:22751   */\n      dup3\n        /* \"#utility.yul\":22738:22756   */\n      add\n        /* \"#utility.yul\":22730:22756   */\n      swap1\n      pop\n        /* \"#utility.yul\":22802:22811   */\n      dup2\n        /* \"#utility.yul\":22796:22800   */\n      dup2\n        /* \"#utility.yul\":22792:22812   */\n      sub\n        /* \"#utility.yul\":22788:22789   */\n      0x00\n        /* \"#utility.yul\":22777:22786   */\n      dup4\n        /* \"#utility.yul\":22773:22790   */\n      add\n        /* \"#utility.yul\":22766:22813   */\n      mstore\n        /* \"#utility.yul\":22830:22961   */\n      tag_496\n        /* \"#utility.yul\":22956:22960   */\n      dup2\n        /* \"#utility.yul\":22830:22961   */\n      tag_253\n      jump\t// in\n    tag_496:\n        /* \"#utility.yul\":22822:22961   */\n      swap1\n      pop\n        /* \"#utility.yul\":22549:22968   */\n      swap2\n      swap1\n      pop\n      jump\t// out\n        /* \"#utility.yul\":22974:23122   */\n    tag_254:\n        /* \"#utility.yul\":23076:23087   */\n      0x00\n        /* \"#utility.yul\":23113:23116   */\n      dup2\n        /* \"#utility.yul\":23098:23116   */\n      swap1\n      pop\n        /* \"#utility.yul\":22974:23122   */\n      swap3\n      swap2\n      pop\n      pop\n      jump\t// out\n        /* \"#utility.yul\":23128:23518   */\n    tag_255:\n        /* \"#utility.yul\":23234:23237   */\n      0x00\n        /* \"#utility.yul\":23262:23301   */\n      tag_499\n        /* \"#utility.yul\":23295:23300   */\n      dup3\n        /* \"#utility.yul\":23262:23301   */\n      tag_221\n      jump\t// in\n    tag_499:\n        /* \"#utility.yul\":23317:23406   */\n      tag_500\n        /* \"#utility.yul\":23399:23405   */\n      dup2\n        /* \"#utility.yul\":23394:23397   */\n      dup6\n        /* \"#utility.yul\":23317:23406   */\n      tag_254\n      jump\t// in\n    tag_500:\n        /* \"#utility.yul\":23310:23406   */\n      swap4\n      pop\n        /* \"#utility.yul\":23415:23480   */\n      tag_501\n        /* \"#utility.yul\":23473:23479   */\n      dup2\n        /* \"#utility.yul\":23468:23471   */\n      dup6\n        /* \"#utility.yul\":23461:23465   */\n      0x20\n        /* \"#utility.yul\":23454:23459   */\n      dup7\n        /* \"#utility.yul\":23450:23466   */\n      add\n        /* \"#utility.yul\":23415:23480   */\n      tag_223\n      jump\t// in\n    tag_501:\n        /* \"#utility.yul\":23505:23511   */\n      dup1\n        /* \"#utility.yul\":23500:23503   */\n      dup5\n        /* \"#utility.yul\":23496:23512   */\n      add\n        /* \"#utility.yul\":23489:23512   */\n      swap2\n      pop\n        /* \"#utility.yul\":23238:23518   */\n      pop\n        /* \"#utility.yul\":23128:23518   */\n      swap3\n      swap2\n      pop\n      pop\n      jump\t// out\n        /* \"#utility.yul\":23524:23799   */\n    tag_173:\n        /* \"#utility.yul\":23656:23659   */\n      0x00\n        /* \"#utility.yul\":23678:23773   */\n      tag_503\n        /* \"#utility.yul\":23769:23772   */\n      dup3\n        /* \"#utility.yul\":23760:23766   */\n      dup5\n        /* \"#utility.yul\":23678:23773   */\n      tag_255\n      jump\t// in\n    tag_503:\n        /* \"#utility.yul\":23671:23773   */\n      swap2\n      pop\n        /* \"#utility.yul\":23790:23793   */\n      dup2\n        /* \"#utility.yul\":23783:23793   */\n      swap1\n      pop\n        /* \"#utility.yul\":23524:23799   */\n      swap3\n      swap2\n      pop\n      pop\n      jump\t// out\n        /* \"#utility.yul\":23805:23903   */\n    tag_256:\n        /* \"#utility.yul\":23856:23862   */\n      0x00\n        /* \"#utility.yul\":23890:23895   */\n      dup2\n        /* \"#utility.yul\":23884:23896   */\n      mload\n        /* \"#utility.yul\":23874:23896   */\n      swap1\n      pop\n        /* \"#utility.yul\":23805:23903   */\n      swap2\n      swap1\n      pop\n      jump\t// out\n        /* \"#utility.yul\":23909:24056   */\n    tag_257:\n        /* \"#utility.yul\":24010:24021   */\n      0x00\n        /* \"#utility.yul\":24047:24050   */\n      dup2\n        /* \"#utility.yul\":24032:24050   */\n      swap1\n      pop\n        /* \"#utility.yul\":23909:24056   */\n      swap3\n      swap2\n      pop\n      pop\n      jump\t// out\n        /* \"#utility.yul\":24062:24448   */\n    tag_258:\n        /* \"#utility.yul\":24166:24169   */\n      0x00\n        /* \"#utility.yul\":24194:24232   */\n      tag_507\n        /* \"#utility.yul\":24226:24231   */\n      dup3\n        /* \"#utility.yul\":24194:24232   */\n      tag_256\n      jump\t// in\n    tag_507:\n        /* \"#utility.yul\":24248:24336   */\n      tag_508\n        /* \"#utility.yul\":24329:24335   */\n      dup2\n        /* \"#utility.yul\":24324:24327   */\n      dup6\n        /* \"#utility.yul\":24248:24336   */\n      tag_257\n      jump\t// in\n    tag_508:\n        /* \"#utility.yul\":24241:24336   */\n      swap4\n      pop\n        /* \"#utility.yul\":24345:24410   */\n      tag_509\n        /* \"#utility.yul\":24403:24409   */\n      dup2\n        /* \"#utility.yul\":24398:24401   */\n      dup6\n        /* \"#utility.yul\":24391:24395   */\n      0x20\n        /* \"#utility.yul\":24384:24389   */\n      dup7\n        /* \"#utility.yul\":24380:24396   */\n      add\n        /* \"#utility.yul\":24345:24410   */\n      tag_223\n      jump\t// in\n    tag_509:\n        /* \"#utility.yul\":24435:24441   */\n      dup1\n        /* \"#utility.yul\":24430:24433   */\n      dup5\n        /* \"#utility.yul\":24426:24442   */\n      add\n        /* \"#utility.yul\":24419:24442   */\n      swap2\n      pop\n        /* \"#utility.yul\":24170:24448   */\n      pop\n        /* \"#utility.yul\":24062:24448   */\n      swap3\n      swap2\n      pop\n      pop\n      jump\t// out\n        /* \"#utility.yul\":24454:24725   */\n    tag_175:\n        /* \"#utility.yul\":24584:24587   */\n      0x00\n        /* \"#utility.yul\":24606:24699   */\n      tag_511\n        /* \"#utility.yul\":24695:24698   */\n      dup3\n        /* \"#utility.yul\":24686:24692   */\n      dup5\n        /* \"#utility.yul\":24606:24699   */\n      tag_258\n      jump\t// in\n    tag_511:\n        /* \"#utility.yul\":24599:24699   */\n      swap2\n      pop\n        /* \"#utility.yul\":24716:24719   */\n      dup2\n        /* \"#utility.yul\":24709:24719   */\n      swap1\n      pop\n        /* \"#utility.yul\":24454:24725   */\n      swap3\n      swap2\n      pop\n      pop\n      jump\t// out\n        /* \"#utility.yul\":24731:24900   */\n    tag_259:\n        /* \"#utility.yul\":24871:24892   */\n      0x4641494c454420544f20494d504c454d454e5400000000000000000000000000\n        /* \"#utility.yul\":24867:24868   */\n      0x00\n        /* \"#utility.yul\":24859:24865   */\n      dup3\n        /* \"#utility.yul\":24855:24869   */\n      add\n        /* \"#utility.yul\":24848:24893   */\n      mstore\n        /* \"#utility.yul\":24731:24900   */\n      pop\n      jump\t// out\n        /* \"#utility.yul\":24906:25272   */\n    tag_260:\n        /* \"#utility.yul\":25048:25051   */\n      0x00\n        /* \"#utility.yul\":25069:25136   */\n      tag_514\n        /* \"#utility.yul\":25133:25135   */\n      0x13\n        /* \"#utility.yul\":25128:25131   */\n      dup4\n        /* \"#utility.yul\":25069:25136   */\n      tag_222\n      jump\t// in\n    tag_514:\n        /* \"#utility.yul\":25062:25136   */\n      swap2\n      pop\n        /* \"#utility.yul\":25145:25238   */\n      tag_515\n        /* \"#utility.yul\":25234:25237   */\n      dup3\n        /* \"#utility.yul\":25145:25238   */\n      tag_259\n      jump\t// in\n    tag_515:\n        /* \"#utility.yul\":25263:25265   */\n      0x20\n        /* \"#utility.yul\":25258:25261   */\n      dup3\n        /* \"#utility.yul\":25254:25266   */\n      add\n        /* \"#utility.yul\":25247:25266   */\n      swap1\n      pop\n        /* \"#utility.yul\":24906:25272   */\n      swap2\n      swap1\n      pop\n      jump\t// out\n        /* \"#utility.yul\":25278:25697   */\n    tag_181:\n        /* \"#utility.yul\":25444:25448   */\n      0x00\n        /* \"#utility.yul\":25482:25484   */\n      0x20\n        /* \"#utility.yul\":25471:25480   */\n      dup3\n        /* \"#utility.yul\":25467:25485   */\n      add\n        /* \"#utility.yul\":25459:25485   */\n      swap1\n      pop\n        /* \"#utility.yul\":25531:25540   */\n      dup2\n        /* \"#utility.yul\":25525:25529   */\n      dup2\n        /* \"#utility.yul\":25521:25541   */\n      sub\n        /* \"#utility.yul\":25517:25518   */\n      0x00\n        /* \"#utility.yul\":25506:25515   */\n      dup4\n        /* \"#utility.yul\":25502:25519   */\n      add\n        /* \"#utility.yul\":25495:25542   */\n      mstore\n        /* \"#utility.yul\":25559:25690   */\n      tag_517\n        /* \"#utility.yul\":25685:25689   */\n      dup2\n        /* \"#utility.yul\":25559:25690   */\n      tag_260\n      jump\t// in\n    tag_517:\n        /* \"#utility.yul\":25551:25690   */\n      swap1\n      pop\n        /* \"#utility.yul\":25278:25697   */\n      swap2\n      swap1\n      pop\n      jump\t// out\n        /* \"#utility.yul\":25703:25883   */\n    tag_194:\n        /* \"#utility.yul\":25751:25828   */\n      0x4e487b7100000000000000000000000000000000000000000000000000000000\n        /* \"#utility.yul\":25748:25749   */\n      0x00\n        /* \"#utility.yul\":25741:25829   */\n      mstore\n        /* \"#utility.yul\":25848:25852   */\n      0x12\n        /* \"#utility.yul\":25845:25846   */\n      0x04\n        /* \"#utility.yul\":25838:25853   */\n      mstore\n        /* \"#utility.yul\":25872:25876   */\n      0x24\n        /* \"#utility.yul\":25869:25870   */\n      0x00\n        /* \"#utility.yul\":25862:25877   */\n      revert\n\n    auxdata: 0xa2646970667358221220ff7eb54eaad063b9016d3ff9b5dfc6e857c84b0bc9894a00a26d7644f5a0a20f64736f6c63430008160033\n}\n",
				"bytecode": {
					"linkReferences": {},
					"object": "6080604052620697805f5562015180600155600160075534801562000022575f80fd5b50604051620024b5380380620024b58339818101604052810190620000489190620000f4565b8060025f6101000a81548173ffffffffffffffffffffffffffffffffffffffff021916908373ffffffffffffffffffffffffffffffffffffffff1602179055505062000124565b5f80fd5b5f73ffffffffffffffffffffffffffffffffffffffff82169050919050565b5f620000be8262000093565b9050919050565b620000d081620000b2565b8114620000db575f80fd5b50565b5f81519050620000ee81620000c5565b92915050565b5f602082840312156200010c576200010b6200008f565b5b5f6200011b84828501620000de565b91505092915050565b61238380620001325f395ff3fe6080604052600436106100dc575f3560e01c806361bc221a1161007e578063a060acfa11610058578063a060acfa146102d3578063a0a67c58146102ef578063f2c298be14610319578063fd0f016614610341576100dc565b806361bc221a1461025557806367358c961461027f5780636cb76408146102a9576100dc565b806347411226116100ba578063474112261461015a57806354b598ec146101965780635bb6d284146101d45780635df8133014610218576100dc565b80630befdc15146100e05780631c8dd214146101085780633153cebc14610130575b5f80fd5b3480156100eb575f80fd5b50610106600480360381019061010191906117ee565b61037e565b005b348015610113575f80fd5b5061012e600480360381019061012991906118bf565b610617565b005b34801561013b575f80fd5b50610144610c97565b604051610151919061190c565b60405180910390f35b348015610165575f80fd5b50610180600480360381019061017b9190611925565b610c9c565b60405161018d9190611972565b60405180910390f35b3480156101a1575f80fd5b506101bc60048036038101906101b7919061198b565b610cd1565b6040516101cb939291906119c9565b60405180910390f35b3480156101df575f80fd5b506101fa60048036038101906101f591906119fe565b610d1b565b60405161020f99989796959493929190611ab2565b60405180910390f35b348015610223575f80fd5b5061023e600480360381019061023991906119fe565b610ec8565b60405161024c929190611b4b565b60405180910390f35b348015610260575f80fd5b50610269610ee8565b604051610276919061190c565b60405180910390f35b34801561028a575f80fd5b50610293610eee565b6040516102a0919061190c565b60405180910390f35b3480156102b4575f80fd5b506102bd610ef4565b6040516102ca919061190c565b60405180910390f35b6102ed60048036038101906102e891906119fe565b610efa565b005b3480156102fa575f80fd5b5061030361133b565b6040516103109190611b72565b60405180910390f35b348015610324575f80fd5b5061033f600480360381019061033a9190611b8b565b611360565b005b34801561034c575f80fd5b5061036760048036038101906103629190611bd2565b6113ee565b604051610375929190611bfd565b60405180910390f35b60045f3373ffffffffffffffffffffffffffffffffffffffff1673ffffffffffffffffffffffffffffffffffffffff1681526020019081526020015f206001015f9054906101000a900460ff1661040a576040517f08c379a000000000000000000000000000000000000000000000000000000000815260040161040190611c75565b60405180910390fd5b5f60405180610120016040528060075481526020018681526020013373ffffffffffffffffffffffffffffffffffffffff1681526020018573ffffffffffffffffffffffffffffffffffffffff1681526020018481526020018381526020014281526020015f151581526020015f151581525090508060085f835f015181526020019081526020015f205f820151815f015560208201518160010190816104b19190611e8d565b506040820151816002015f6101000a81548173ffffffffffffffffffffffffffffffffffffffff021916908373ffffffffffffffffffffffffffffffffffffffff1602179055506060820151816003015f6101000a81548173ffffffffffffffffffffffffffffffffffffffff021916908373ffffffffffffffffffffffffffffffffffffffff1602179055506080820151816004015560a082015181600501908161055d9190611e8d565b5060c0820151816006015560e0820151816007015f6101000a81548160ff0219169083151502179055506101008201518160070160016101000a81548160ff02191690831515021790555090505060016007546105ba9190611f89565b6007819055503373ffffffffffffffffffffffffffffffffffffffff167f7e25f8742b0359507d9119310ec6e12a3e4201d358df6b156dd313a3db8d1265600754604051610608919061190c565b60405180910390a25050505050565b5f60085f8481526020019081526020015f20604051806101200160405290815f820154815260200160018201805461064e90611cc0565b80601f016020809104026020016040519081016040528092919081815260200182805461067a90611cc0565b80156106c55780601f1061069c576101008083540402835291602001916106c5565b820191905f5260205f20905b8154815290600101906020018083116106a857829003601f168201915b50505050508152602001600282015f9054906101000a900473ffffffffffffffffffffffffffffffffffffffff1673ffffffffffffffffffffffffffffffffffffffff1673ffffffffffffffffffffffffffffffffffffffff168152602001600382015f9054906101000a900473ffffffffffffffffffffffffffffffffffffffff1673ffffffffffffffffffffffffffffffffffffffff1673ffffffffffffffffffffffffffffffffffffffff1681526020016004820154815260200160058201805461079290611cc0565b80601f01602080910402602001604051908101604052809291908181526020018280546107be90611cc0565b80156108095780601f106107e057610100808354040283529160200191610809565b820191905f5260205f20905b8154815290600101906020018083116107ec57829003601f168201915b5050505050815260200160068201548152602001600782015f9054906101000a900460ff161515151581526020016007820160019054906101000a900460ff16151515158152505090505f60025f9054906101000a900473ffffffffffffffffffffffffffffffffffffffff16905060045f3373ffffffffffffffffffffffffffffffffffffffff1673ffffffffffffffffffffffffffffffffffffffff1681526020019081526020015f206001015f9054906101000a900460ff16610904576040517f08c379a00000000000000000000000000000000000000000000000000000000081526004016108fb90611c75565b60405180910390fd5b5f8260c001515f546109169190611f89565b905042811161095a576040517f08c379a000000000000000000000000000000000000000000000000000000000815260040161095190612006565b60405180910390fd5b5f8273ffffffffffffffffffffffffffffffffffffffff166370a08231336040518263ffffffff1660e01b81526004016109949190611b72565b602060405180830381865afa1580156109af573d5f803e3d5ffd5b505050506040513d601f19601f820116820180604052508101906109d39190612038565b11610a13576040517f08c379a0000000000000000000000000000000000000000000000000000000008152600401610a0a906120d3565b60405180910390fd5b60055f3373ffffffffffffffffffffffffffffffffffffffff1673ffffffffffffffffffffffffffffffffffffffff1681526020019081526020015f205f8681526020019081526020015f2060010160019054906101000a900460ff1615610ab0576040517f08c379a0000000000000000000000000000000000000000000000000000000008152600401610aa790612161565b60405180910390fd5b604051806060016040528086815260200185151581526020016001151581525060055f3373ffffffffffffffffffffffffffffffffffffffff1673ffffffffffffffffffffffffffffffffffffffff1681526020019081526020015f205f8781526020019081526020015f205f820151815f01556020820151816001015f6101000a81548160ff02191690831515021790555060408201518160010160016101000a81548160ff02191690831515021790555090505060055f3373ffffffffffffffffffffffffffffffffffffffff1673ffffffffffffffffffffffffffffffffffffffff1681526020019081526020015f205f8681526020019081526020015f206001015f9054906101000a900460ff1615610c0357600160065f8781526020019081526020015f205f0154610be79190611f89565b60065f8781526020019081526020015f205f0181905550610c3d565b600160065f8781526020019081526020015f2060010154610c249190611f89565b60065f8781526020019081526020015f20600101819055505b3373ffffffffffffffffffffffffffffffffffffffff167f4f7ff1c79e536d7fef60ccb53beb6009e08841ffcba10e515e076f4cbdd9e320845f015186604051610c8892919061217f565b60405180910390a25050505050565b5f5481565b5f80610cb5603c6064856114a09092919063ffffffff16565b905080841015610cc5575f610cc8565b60015b91505092915050565b6005602052815f5260405f20602052805f5260405f205f9150915050805f015490806001015f9054906101000a900460ff16908060010160019054906101000a900460ff16905083565b6008602052805f5260405f205f91509050805f015490806001018054610d4090611cc0565b80601f0160208091040260200160405190810160405280929190818152602001828054610d6c90611cc0565b8015610db75780601f10610d8e57610100808354040283529160200191610db7565b820191905f5260205f20905b815481529060010190602001808311610d9a57829003601f168201915b505050505090806002015f9054906101000a900473ffffffffffffffffffffffffffffffffffffffff1690806003015f9054906101000a900473ffffffffffffffffffffffffffffffffffffffff1690806004015490806005018054610e1c90611cc0565b80601f0160208091040260200160405190810160405280929190818152602001828054610e4890611cc0565b8015610e935780601f10610e6a57610100808354040283529160200191610e93565b820191905f5260205f20905b815481529060010190602001808311610e7657829003601f168201915b505050505090806006015490806007015f9054906101000a900460ff16908060070160019054906101000a900460ff16905089565b6006602052805f5260405f205f91509050805f0154908060010154905082565b60075481565b60015481565b60035481565b610f0261159f565b5f80606060085f8681526020019081526020015f20604051806101200160405290815f8201548152602001600182018054610f3c90611cc0565b80601f0160208091040260200160405190810160405280929190818152602001828054610f6890611cc0565b8015610fb35780601f10610f8a57610100808354040283529160200191610fb3565b820191905f5260205f20905b815481529060010190602001808311610f9657829003601f168201915b50505050508152602001600282015f9054906101000a900473ffffffffffffffffffffffffffffffffffffffff1673ffffffffffffffffffffffffffffffffffffffff1673ffffffffffffffffffffffffffffffffffffffff168152602001600382015f9054906101000a900473ffffffffffffffffffffffffffffffffffffffff1673ffffffffffffffffffffffffffffffffffffffff1673ffffffffffffffffffffffffffffffffffffffff1681526020016004820154815260200160058201805461108090611cc0565b80601f01602080910402602001604051908101604052809291908181526020018280546110ac90611cc0565b80156110f75780601f106110ce576101008083540402835291602001916110f7565b820191905f5260205f20905b8154815290600101906020018083116110da57829003601f168201915b5050505050815260200160068201548152602001600782015f9054906101000a900460ff161515151581526020016007820160019054906101000a900460ff161515151581525050935083606001519250836080015191508360a0015190505f60065f8781526020019081526020015f206001015460065f8881526020019081526020015f205f015461118a9190611f89565b90506111a960065f8881526020019081526020015f205f015482610c9c565b6111e8576040517f08c379a00000000000000000000000000000000000000000000000000000000081526004016111df906121f0565b60405180910390fd5b5f808573ffffffffffffffffffffffffffffffffffffffff16348587604051602401611214919061190c565b604051602081830303815290604052906040516112319190612248565b60405180910390207bffffffffffffffffffffffffffffffffffffffffffffffffffffffff19166020820180517bffffffffffffffffffffffffffffffffffffffffffffffffffffffff838183161783525050505060405161129391906122a2565b5f6040518083038185875af1925050503d805f81146112cd576040519150601f19603f3d011682016040523d82523d5f602084013e6112d2565b606091505b509150915081611317576040517f08c379a000000000000000000000000000000000000000000000000000000000815260040161130e90612302565b60405180910390fd5b8080602001905181019061132b9190612038565b6003819055505050505050505050565b60025f9054906101000a900473ffffffffffffffffffffffffffffffffffffffff1681565b60405180604001604052808281526020016001151581525060045f3373ffffffffffffffffffffffffffffffffffffffff1673ffffffffffffffffffffffffffffffffffffffff1681526020019081526020015f205f820151815f0190816113c89190611e8d565b506020820151816001015f6101000a81548160ff02191690831515021790555090505050565b6004602052805f5260405f205f91509050805f01805461140d90611cc0565b80601f016020809104026020016040519081016040528092919081815260200182805461143990611cc0565b80156114845780601f1061145b57610100808354040283529160200191611484565b820191905f5260205f20905b81548152906001019060200180831161146757829003601f168201915b505050505090806001015f9054906101000a900460ff16905082565b5f8083850290505f8019858709828110838203039150505f81036114d8578382816114ce576114cd612320565b5b0492505050611598565b808411611511576040517f227bc15300000000000000000000000000000000000000000000000000000000815260040160405180910390fd5b5f8486880990508281118203915080830392505f855f038616905080860495508084049350600181825f0304019050808302841793505f600287600302189050808702600203810290508087026002038102905080870260020381029050808702600203810290508087026002038102905080870260020381029050808502955050505050505b9392505050565b6040518061012001604052805f8152602001606081526020015f73ffffffffffffffffffffffffffffffffffffffff1681526020015f73ffffffffffffffffffffffffffffffffffffffff1681526020015f8152602001606081526020015f81526020015f151581526020015f151581525090565b5f604051905090565b5f80fd5b5f80fd5b5f80fd5b5f80fd5b5f601f19601f8301169050919050565b7f4e487b71000000000000000000000000000000000000000000000000000000005f52604160045260245ffd5b6116738261162d565b810181811067ffffffffffffffff821117156116925761169161163d565b5b80604052505050565b5f6116a4611614565b90506116b0828261166a565b919050565b5f67ffffffffffffffff8211156116cf576116ce61163d565b5b6116d88261162d565b9050602081019050919050565b828183375f83830152505050565b5f611705611700846116b5565b61169b565b90508281526020810184848401111561172157611720611629565b5b61172c8482856116e5565b509392505050565b5f82601f83011261174857611747611625565b5b81356117588482602086016116f3565b91505092915050565b5f73ffffffffffffffffffffffffffffffffffffffff82169050919050565b5f61178a82611761565b9050919050565b61179a81611780565b81146117a4575f80fd5b50565b5f813590506117b581611791565b92915050565b5f819050919050565b6117cd816117bb565b81146117d7575f80fd5b50565b5f813590506117e8816117c4565b92915050565b5f805f80608085870312156118065761180561161d565b5b5f85013567ffffffffffffffff81111561182357611822611621565b5b61182f87828801611734565b9450506020611840878288016117a7565b9350506040611851878288016117da565b925050606085013567ffffffffffffffff81111561187257611871611621565b5b61187e87828801611734565b91505092959194509250565b5f8115159050919050565b61189e8161188a565b81146118a8575f80fd5b50565b5f813590506118b981611895565b92915050565b5f80604083850312156118d5576118d461161d565b5b5f6118e2858286016117da565b92505060206118f3858286016118ab565b9150509250929050565b611906816117bb565b82525050565b5f60208201905061191f5f8301846118fd565b92915050565b5f806040838503121561193b5761193a61161d565b5b5f611948858286016117da565b9250506020611959858286016117da565b9150509250929050565b61196c8161188a565b82525050565b5f6020820190506119855f830184611963565b92915050565b5f80604083850312156119a1576119a061161d565b5b5f6119ae858286016117a7565b92505060206119bf858286016117da565b9150509250929050565b5f6060820190506119dc5f8301866118fd565b6119e96020830185611963565b6119f66040830184611963565b949350505050565b5f60208284031215611a1357611a1261161d565b5b5f611a20848285016117da565b91505092915050565b5f81519050919050565b5f82825260208201905092915050565b5f5b83811015611a60578082015181840152602081019050611a45565b5f8484015250505050565b5f611a7582611a29565b611a7f8185611a33565b9350611a8f818560208601611a43565b611a988161162d565b840191505092915050565b611aac81611780565b82525050565b5f61012082019050611ac65f83018c6118fd565b8181036020830152611ad8818b611a6b565b9050611ae7604083018a611aa3565b611af46060830189611aa3565b611b0160808301886118fd565b81810360a0830152611b138187611a6b565b9050611b2260c08301866118fd565b611b2f60e0830185611963565b611b3d610100830184611963565b9a9950505050505050505050565b5f604082019050611b5e5f8301856118fd565b611b6b60208301846118fd565b9392505050565b5f602082019050611b855f830184611aa3565b92915050565b5f60208284031215611ba057611b9f61161d565b5b5f82013567ffffffffffffffff811115611bbd57611bbc611621565b5b611bc984828501611734565b91505092915050565b5f60208284031215611be757611be661161d565b5b5f611bf4848285016117a7565b91505092915050565b5f6040820190508181035f830152611c158185611a6b565b9050611c246020830184611963565b9392505050565b7f4e4f542041204d454d42455200000000000000000000000000000000000000005f82015250565b5f611c5f600c83611a33565b9150611c6a82611c2b565b602082019050919050565b5f6020820190508181035f830152611c8c81611c53565b9050919050565b7f4e487b71000000000000000000000000000000000000000000000000000000005f52602260045260245ffd5b5f6002820490506001821680611cd757607f821691505b602082108103611cea57611ce9611c93565b5b50919050565b5f819050815f5260205f209050919050565b5f6020601f8301049050919050565b5f82821b905092915050565b5f60088302611d4c7fffffffffffffffffffffffffffffffffffffffffffffffffffffffffffffffff82611d11565b611d568683611d11565b95508019841693508086168417925050509392505050565b5f819050919050565b5f611d91611d8c611d87846117bb565b611d6e565b6117bb565b9050919050565b5f819050919050565b611daa83611d77565b611dbe611db682611d98565b848454611d1d565b825550505050565b5f90565b611dd2611dc6565b611ddd818484611da1565b505050565b5b81811015611e0057611df55f82611dca565b600181019050611de3565b5050565b601f821115611e4557611e1681611cf0565b611e1f84611d02565b81016020851015611e2e578190505b611e42611e3a85611d02565b830182611de2565b50505b505050565b5f82821c905092915050565b5f611e655f1984600802611e4a565b1980831691505092915050565b5f611e7d8383611e56565b9150826002028217905092915050565b611e9682611a29565b67ffffffffffffffff811115611eaf57611eae61163d565b5b611eb98254611cc0565b611ec4828285611e04565b5f60209050601f831160018114611ef5575f8415611ee3578287015190505b611eed8582611e72565b865550611f54565b601f198416611f0386611cf0565b5f5b82811015611f2a57848901518255600182019150602085019450602081019050611f05565b86831015611f475784890151611f43601f891682611e56565b8355505b6001600288020188555050505b505050505050565b7f4e487b71000000000000000000000000000000000000000000000000000000005f52601160045260245ffd5b5f611f93826117bb565b9150611f9e836117bb565b9250828201905080821115611fb657611fb5611f5c565b5b92915050565b7f564f54494e4720504552494f442048415320454c4150534544000000000000005f82015250565b5f611ff0601983611a33565b9150611ffb82611fbc565b602082019050919050565b5f6020820190508181035f83015261201d81611fe4565b9050919050565b5f81519050612032816117c4565b92915050565b5f6020828403121561204d5761204c61161d565b5b5f61205a84828501612024565b91505092915050565b7f594f55204d55535420504f5353455320544f4b454e7320544f20424520414e205f8201527f454c494749424c4520564f544552000000000000000000000000000000000000602082015250565b5f6120bd602e83611a33565b91506120c882612063565b604082019050919050565b5f6020820190508181035f8301526120ea816120b1565b9050919050565b7f4d454d424552532043414e204f4e4c592043415354204120564f5445205045525f8201527f20544f5049430000000000000000000000000000000000000000000000000000602082015250565b5f61214b602683611a33565b9150612156826120f1565b604082019050919050565b5f6020820190508181035f8301526121788161213f565b9050919050565b5f6040820190506121925f8301856118fd565b61219f6020830184611963565b9392505050565b7f5448524553484f4c44204e4f54204558434545444544000000000000000000005f82015250565b5f6121da601683611a33565b91506121e5826121a6565b602082019050919050565b5f6020820190508181035f830152612207816121ce565b9050919050565b5f81905092915050565b5f61222282611a29565b61222c818561220e565b935061223c818560208601611a43565b80840191505092915050565b5f6122538284612218565b915081905092915050565b5f81519050919050565b5f81905092915050565b5f61227c8261225e565b6122868185612268565b9350612296818560208601611a43565b80840191505092915050565b5f6122ad8284612272565b915081905092915050565b7f4641494c454420544f20494d504c454d454e54000000000000000000000000005f82015250565b5f6122ec601383611a33565b91506122f7826122b8565b602082019050919050565b5f6020820190508181035f830152612319816122e0565b9050919050565b7f4e487b71000000000000000000000000000000000000000000000000000000005f52601260045260245ffdfea2646970667358221220ff7eb54eaad063b9016d3ff9b5dfc6e857c84b0bc9894a00a26d7644f5a0a20f64736f6c63430008160033",
					"opcodes": "PUSH1 0x80 PUSH1 0x40 MSTORE PUSH3 0x69780 PUSH0 SSTORE PUSH3 0x15180 PUSH1 0x1 SSTORE PUSH1 0x1 PUSH1 0x7 SSTORE CALLVALUE DUP1 ISZERO PUSH3 0x22 JUMPI PUSH0 DUP1 REVERT JUMPDEST POP PUSH1 0x40 MLOAD PUSH3 0x24B5 CODESIZE SUB DUP1 PUSH3 0x24B5 DUP4 CODECOPY DUP2 DUP2 ADD PUSH1 0x40 MSTORE DUP2 ADD SWAP1 PUSH3 0x48 SWAP2 SWAP1 PUSH3 0xF4 JUMP JUMPDEST DUP1 PUSH1 0x2 PUSH0 PUSH2 0x100 EXP DUP2 SLOAD DUP2 PUSH20 0xFFFFFFFFFFFFFFFFFFFFFFFFFFFFFFFFFFFFFFFF MUL NOT AND SWAP1 DUP4 PUSH20 0xFFFFFFFFFFFFFFFFFFFFFFFFFFFFFFFFFFFFFFFF AND MUL OR SWAP1 SSTORE POP POP PUSH3 0x124 JUMP JUMPDEST PUSH0 DUP1 REVERT JUMPDEST PUSH0 PUSH20 0xFFFFFFFFFFFFFFFFFFFFFFFFFFFFFFFFFFFFFFFF DUP3 AND SWAP1 POP SWAP2 SWAP1 POP JUMP JUMPDEST PUSH0 PUSH3 0xBE DUP3 PUSH3 0x93 JUMP JUMPDEST SWAP1 POP SWAP2 SWAP1 POP JUMP JUMPDEST PUSH3 0xD0 DUP2 PUSH3 0xB2 JUMP JUMPDEST DUP2 EQ PUSH3 0xDB JUMPI PUSH0 DUP1 REVERT JUMPDEST POP JUMP JUMPDEST PUSH0 DUP2 MLOAD SWAP1 POP PUSH3 0xEE DUP2 PUSH3 0xC5 JUMP JUMPDEST SWAP3 SWAP2 POP POP JUMP JUMPDEST PUSH0 PUSH1 0x20 DUP3 DUP5 SUB SLT ISZERO PUSH3 0x10C JUMPI PUSH3 0x10B PUSH3 0x8F JUMP JUMPDEST JUMPDEST PUSH0 PUSH3 0x11B DUP5 DUP3 DUP6 ADD PUSH3 0xDE JUMP JUMPDEST SWAP2 POP POP SWAP3 SWAP2 POP POP JUMP JUMPDEST PUSH2 0x2383 DUP1 PUSH3 0x132 PUSH0 CODECOPY PUSH0 RETURN INVALID PUSH1 0x80 PUSH1 0x40 MSTORE PUSH1 0x4 CALLDATASIZE LT PUSH2 0xDC JUMPI PUSH0 CALLDATALOAD PUSH1 0xE0 SHR DUP1 PUSH4 0x61BC221A GT PUSH2 0x7E JUMPI DUP1 PUSH4 0xA060ACFA GT PUSH2 0x58 JUMPI DUP1 PUSH4 0xA060ACFA EQ PUSH2 0x2D3 JUMPI DUP1 PUSH4 0xA0A67C58 EQ PUSH2 0x2EF JUMPI DUP1 PUSH4 0xF2C298BE EQ PUSH2 0x319 JUMPI DUP1 PUSH4 0xFD0F0166 EQ PUSH2 0x341 JUMPI PUSH2 0xDC JUMP JUMPDEST DUP1 PUSH4 0x61BC221A EQ PUSH2 0x255 JUMPI DUP1 PUSH4 0x67358C96 EQ PUSH2 0x27F JUMPI DUP1 PUSH4 0x6CB76408 EQ PUSH2 0x2A9 JUMPI PUSH2 0xDC JUMP JUMPDEST DUP1 PUSH4 0x47411226 GT PUSH2 0xBA JUMPI DUP1 PUSH4 0x47411226 EQ PUSH2 0x15A JUMPI DUP1 PUSH4 0x54B598EC EQ PUSH2 0x196 JUMPI DUP1 PUSH4 0x5BB6D284 EQ PUSH2 0x1D4 JUMPI DUP1 PUSH4 0x5DF81330 EQ PUSH2 0x218 JUMPI PUSH2 0xDC JUMP JUMPDEST DUP1 PUSH4 0xBEFDC15 EQ PUSH2 0xE0 JUMPI DUP1 PUSH4 0x1C8DD214 EQ PUSH2 0x108 JUMPI DUP1 PUSH4 0x3153CEBC EQ PUSH2 0x130 JUMPI JUMPDEST PUSH0 DUP1 REVERT JUMPDEST CALLVALUE DUP1 ISZERO PUSH2 0xEB JUMPI PUSH0 DUP1 REVERT JUMPDEST POP PUSH2 0x106 PUSH1 0x4 DUP1 CALLDATASIZE SUB DUP2 ADD SWAP1 PUSH2 0x101 SWAP2 SWAP1 PUSH2 0x17EE JUMP JUMPDEST PUSH2 0x37E JUMP JUMPDEST STOP JUMPDEST CALLVALUE DUP1 ISZERO PUSH2 0x113 JUMPI PUSH0 DUP1 REVERT JUMPDEST POP PUSH2 0x12E PUSH1 0x4 DUP1 CALLDATASIZE SUB DUP2 ADD SWAP1 PUSH2 0x129 SWAP2 SWAP1 PUSH2 0x18BF JUMP JUMPDEST PUSH2 0x617 JUMP JUMPDEST STOP JUMPDEST CALLVALUE DUP1 ISZERO PUSH2 0x13B JUMPI PUSH0 DUP1 REVERT JUMPDEST POP PUSH2 0x144 PUSH2 0xC97 JUMP JUMPDEST PUSH1 0x40 MLOAD PUSH2 0x151 SWAP2 SWAP1 PUSH2 0x190C JUMP JUMPDEST PUSH1 0x40 MLOAD DUP1 SWAP2 SUB SWAP1 RETURN JUMPDEST CALLVALUE DUP1 ISZERO PUSH2 0x165 JUMPI PUSH0 DUP1 REVERT JUMPDEST POP PUSH2 0x180 PUSH1 0x4 DUP1 CALLDATASIZE SUB DUP2 ADD SWAP1 PUSH2 0x17B SWAP2 SWAP1 PUSH2 0x1925 JUMP JUMPDEST PUSH2 0xC9C JUMP JUMPDEST PUSH1 0x40 MLOAD PUSH2 0x18D SWAP2 SWAP1 PUSH2 0x1972 JUMP JUMPDEST PUSH1 0x40 MLOAD DUP1 SWAP2 SUB SWAP1 RETURN JUMPDEST CALLVALUE DUP1 ISZERO PUSH2 0x1A1 JUMPI PUSH0 DUP1 REVERT JUMPDEST POP PUSH2 0x1BC PUSH1 0x4 DUP1 CALLDATASIZE SUB DUP2 ADD SWAP1 PUSH2 0x1B7 SWAP2 SWAP1 PUSH2 0x198B JUMP JUMPDEST PUSH2 0xCD1 JUMP JUMPDEST PUSH1 0x40 MLOAD PUSH2 0x1CB SWAP4 SWAP3 SWAP2 SWAP1 PUSH2 0x19C9 JUMP JUMPDEST PUSH1 0x40 MLOAD DUP1 SWAP2 SUB SWAP1 RETURN JUMPDEST CALLVALUE DUP1 ISZERO PUSH2 0x1DF JUMPI PUSH0 DUP1 REVERT JUMPDEST POP PUSH2 0x1FA PUSH1 0x4 DUP1 CALLDATASIZE SUB DUP2 ADD SWAP1 PUSH2 0x1F5 SWAP2 SWAP1 PUSH2 0x19FE JUMP JUMPDEST PUSH2 0xD1B JUMP JUMPDEST PUSH1 0x40 MLOAD PUSH2 0x20F SWAP10 SWAP9 SWAP8 SWAP7 SWAP6 SWAP5 SWAP4 SWAP3 SWAP2 SWAP1 PUSH2 0x1AB2 JUMP JUMPDEST PUSH1 0x40 MLOAD DUP1 SWAP2 SUB SWAP1 RETURN JUMPDEST CALLVALUE DUP1 ISZERO PUSH2 0x223 JUMPI PUSH0 DUP1 REVERT JUMPDEST POP PUSH2 0x23E PUSH1 0x4 DUP1 CALLDATASIZE SUB DUP2 ADD SWAP1 PUSH2 0x239 SWAP2 SWAP1 PUSH2 0x19FE JUMP JUMPDEST PUSH2 0xEC8 JUMP JUMPDEST PUSH1 0x40 MLOAD PUSH2 0x24C SWAP3 SWAP2 SWAP1 PUSH2 0x1B4B JUMP JUMPDEST PUSH1 0x40 MLOAD DUP1 SWAP2 SUB SWAP1 RETURN JUMPDEST CALLVALUE DUP1 ISZERO PUSH2 0x260 JUMPI PUSH0 DUP1 REVERT JUMPDEST POP PUSH2 0x269 PUSH2 0xEE8 JUMP JUMPDEST PUSH1 0x40 MLOAD PUSH2 0x276 SWAP2 SWAP1 PUSH2 0x190C JUMP JUMPDEST PUSH1 0x40 MLOAD DUP1 SWAP2 SUB SWAP1 RETURN JUMPDEST CALLVALUE DUP1 ISZERO PUSH2 0x28A JUMPI PUSH0 DUP1 REVERT JUMPDEST POP PUSH2 0x293 PUSH2 0xEEE JUMP JUMPDEST PUSH1 0x40 MLOAD PUSH2 0x2A0 SWAP2 SWAP1 PUSH2 0x190C JUMP JUMPDEST PUSH1 0x40 MLOAD DUP1 SWAP2 SUB SWAP1 RETURN JUMPDEST CALLVALUE DUP1 ISZERO PUSH2 0x2B4 JUMPI PUSH0 DUP1 REVERT JUMPDEST POP PUSH2 0x2BD PUSH2 0xEF4 JUMP JUMPDEST PUSH1 0x40 MLOAD PUSH2 0x2CA SWAP2 SWAP1 PUSH2 0x190C JUMP JUMPDEST PUSH1 0x40 MLOAD DUP1 SWAP2 SUB SWAP1 RETURN JUMPDEST PUSH2 0x2ED PUSH1 0x4 DUP1 CALLDATASIZE SUB DUP2 ADD SWAP1 PUSH2 0x2E8 SWAP2 SWAP1 PUSH2 0x19FE JUMP JUMPDEST PUSH2 0xEFA JUMP JUMPDEST STOP JUMPDEST CALLVALUE DUP1 ISZERO PUSH2 0x2FA JUMPI PUSH0 DUP1 REVERT JUMPDEST POP PUSH2 0x303 PUSH2 0x133B JUMP JUMPDEST PUSH1 0x40 MLOAD PUSH2 0x310 SWAP2 SWAP1 PUSH2 0x1B72 JUMP JUMPDEST PUSH1 0x40 MLOAD DUP1 SWAP2 SUB SWAP1 RETURN JUMPDEST CALLVALUE DUP1 ISZERO PUSH2 0x324 JUMPI PUSH0 DUP1 REVERT JUMPDEST POP PUSH2 0x33F PUSH1 0x4 DUP1 CALLDATASIZE SUB DUP2 ADD SWAP1 PUSH2 0x33A SWAP2 SWAP1 PUSH2 0x1B8B JUMP JUMPDEST PUSH2 0x1360 JUMP JUMPDEST STOP JUMPDEST CALLVALUE DUP1 ISZERO PUSH2 0x34C JUMPI PUSH0 DUP1 REVERT JUMPDEST POP PUSH2 0x367 PUSH1 0x4 DUP1 CALLDATASIZE SUB DUP2 ADD SWAP1 PUSH2 0x362 SWAP2 SWAP1 PUSH2 0x1BD2 JUMP JUMPDEST PUSH2 0x13EE JUMP JUMPDEST PUSH1 0x40 MLOAD PUSH2 0x375 SWAP3 SWAP2 SWAP1 PUSH2 0x1BFD JUMP JUMPDEST PUSH1 0x40 MLOAD DUP1 SWAP2 SUB SWAP1 RETURN JUMPDEST PUSH1 0x4 PUSH0 CALLER PUSH20 0xFFFFFFFFFFFFFFFFFFFFFFFFFFFFFFFFFFFFFFFF AND PUSH20 0xFFFFFFFFFFFFFFFFFFFFFFFFFFFFFFFFFFFFFFFF AND DUP2 MSTORE PUSH1 0x20 ADD SWAP1 DUP2 MSTORE PUSH1 0x20 ADD PUSH0 KECCAK256 PUSH1 0x1 ADD PUSH0 SWAP1 SLOAD SWAP1 PUSH2 0x100 EXP SWAP1 DIV PUSH1 0xFF AND PUSH2 0x40A JUMPI PUSH1 0x40 MLOAD PUSH32 0x8C379A000000000000000000000000000000000000000000000000000000000 DUP2 MSTORE PUSH1 0x4 ADD PUSH2 0x401 SWAP1 PUSH2 0x1C75 JUMP JUMPDEST PUSH1 0x40 MLOAD DUP1 SWAP2 SUB SWAP1 REVERT JUMPDEST PUSH0 PUSH1 0x40 MLOAD DUP1 PUSH2 0x120 ADD PUSH1 0x40 MSTORE DUP1 PUSH1 0x7 SLOAD DUP2 MSTORE PUSH1 0x20 ADD DUP7 DUP2 MSTORE PUSH1 0x20 ADD CALLER PUSH20 0xFFFFFFFFFFFFFFFFFFFFFFFFFFFFFFFFFFFFFFFF AND DUP2 MSTORE PUSH1 0x20 ADD DUP6 PUSH20 0xFFFFFFFFFFFFFFFFFFFFFFFFFFFFFFFFFFFFFFFF AND DUP2 MSTORE PUSH1 0x20 ADD DUP5 DUP2 MSTORE PUSH1 0x20 ADD DUP4 DUP2 MSTORE PUSH1 0x20 ADD TIMESTAMP DUP2 MSTORE PUSH1 0x20 ADD PUSH0 ISZERO ISZERO DUP2 MSTORE PUSH1 0x20 ADD PUSH0 ISZERO ISZERO DUP2 MSTORE POP SWAP1 POP DUP1 PUSH1 0x8 PUSH0 DUP4 PUSH0 ADD MLOAD DUP2 MSTORE PUSH1 0x20 ADD SWAP1 DUP2 MSTORE PUSH1 0x20 ADD PUSH0 KECCAK256 PUSH0 DUP3 ADD MLOAD DUP2 PUSH0 ADD SSTORE PUSH1 0x20 DUP3 ADD MLOAD DUP2 PUSH1 0x1 ADD SWAP1 DUP2 PUSH2 0x4B1 SWAP2 SWAP1 PUSH2 0x1E8D JUMP JUMPDEST POP PUSH1 0x40 DUP3 ADD MLOAD DUP2 PUSH1 0x2 ADD PUSH0 PUSH2 0x100 EXP DUP2 SLOAD DUP2 PUSH20 0xFFFFFFFFFFFFFFFFFFFFFFFFFFFFFFFFFFFFFFFF MUL NOT AND SWAP1 DUP4 PUSH20 0xFFFFFFFFFFFFFFFFFFFFFFFFFFFFFFFFFFFFFFFF AND MUL OR SWAP1 SSTORE POP PUSH1 0x60 DUP3 ADD MLOAD DUP2 PUSH1 0x3 ADD PUSH0 PUSH2 0x100 EXP DUP2 SLOAD DUP2 PUSH20 0xFFFFFFFFFFFFFFFFFFFFFFFFFFFFFFFFFFFFFFFF MUL NOT AND SWAP1 DUP4 PUSH20 0xFFFFFFFFFFFFFFFFFFFFFFFFFFFFFFFFFFFFFFFF AND MUL OR SWAP1 SSTORE POP PUSH1 0x80 DUP3 ADD MLOAD DUP2 PUSH1 0x4 ADD SSTORE PUSH1 0xA0 DUP3 ADD MLOAD DUP2 PUSH1 0x5 ADD SWAP1 DUP2 PUSH2 0x55D SWAP2 SWAP1 PUSH2 0x1E8D JUMP JUMPDEST POP PUSH1 0xC0 DUP3 ADD MLOAD DUP2 PUSH1 0x6 ADD SSTORE PUSH1 0xE0 DUP3 ADD MLOAD DUP2 PUSH1 0x7 ADD PUSH0 PUSH2 0x100 EXP DUP2 SLOAD DUP2 PUSH1 0xFF MUL NOT AND SWAP1 DUP4 ISZERO ISZERO MUL OR SWAP1 SSTORE POP PUSH2 0x100 DUP3 ADD MLOAD DUP2 PUSH1 0x7 ADD PUSH1 0x1 PUSH2 0x100 EXP DUP2 SLOAD DUP2 PUSH1 0xFF MUL NOT AND SWAP1 DUP4 ISZERO ISZERO MUL OR SWAP1 SSTORE POP SWAP1 POP POP PUSH1 0x1 PUSH1 0x7 SLOAD PUSH2 0x5BA SWAP2 SWAP1 PUSH2 0x1F89 JUMP JUMPDEST PUSH1 0x7 DUP2 SWAP1 SSTORE POP CALLER PUSH20 0xFFFFFFFFFFFFFFFFFFFFFFFFFFFFFFFFFFFFFFFF AND PUSH32 0x7E25F8742B0359507D9119310EC6E12A3E4201D358DF6B156DD313A3DB8D1265 PUSH1 0x7 SLOAD PUSH1 0x40 MLOAD PUSH2 0x608 SWAP2 SWAP1 PUSH2 0x190C JUMP JUMPDEST PUSH1 0x40 MLOAD DUP1 SWAP2 SUB SWAP1 LOG2 POP POP POP POP POP JUMP JUMPDEST PUSH0 PUSH1 0x8 PUSH0 DUP5 DUP2 MSTORE PUSH1 0x20 ADD SWAP1 DUP2 MSTORE PUSH1 0x20 ADD PUSH0 KECCAK256 PUSH1 0x40 MLOAD DUP1 PUSH2 0x120 ADD PUSH1 0x40 MSTORE SWAP1 DUP2 PUSH0 DUP3 ADD SLOAD DUP2 MSTORE PUSH1 0x20 ADD PUSH1 0x1 DUP3 ADD DUP1 SLOAD PUSH2 0x64E SWAP1 PUSH2 0x1CC0 JUMP JUMPDEST DUP1 PUSH1 0x1F ADD PUSH1 0x20 DUP1 SWAP2 DIV MUL PUSH1 0x20 ADD PUSH1 0x40 MLOAD SWAP1 DUP2 ADD PUSH1 0x40 MSTORE DUP1 SWAP3 SWAP2 SWAP1 DUP2 DUP2 MSTORE PUSH1 0x20 ADD DUP3 DUP1 SLOAD PUSH2 0x67A SWAP1 PUSH2 0x1CC0 JUMP JUMPDEST DUP1 ISZERO PUSH2 0x6C5 JUMPI DUP1 PUSH1 0x1F LT PUSH2 0x69C JUMPI PUSH2 0x100 DUP1 DUP4 SLOAD DIV MUL DUP4 MSTORE SWAP2 PUSH1 0x20 ADD SWAP2 PUSH2 0x6C5 JUMP JUMPDEST DUP3 ADD SWAP2 SWAP1 PUSH0 MSTORE PUSH1 0x20 PUSH0 KECCAK256 SWAP1 JUMPDEST DUP2 SLOAD DUP2 MSTORE SWAP1 PUSH1 0x1 ADD SWAP1 PUSH1 0x20 ADD DUP1 DUP4 GT PUSH2 0x6A8 JUMPI DUP3 SWAP1 SUB PUSH1 0x1F AND DUP3 ADD SWAP2 JUMPDEST POP POP POP POP POP DUP2 MSTORE PUSH1 0x20 ADD PUSH1 0x2 DUP3 ADD PUSH0 SWAP1 SLOAD SWAP1 PUSH2 0x100 EXP SWAP1 DIV PUSH20 0xFFFFFFFFFFFFFFFFFFFFFFFFFFFFFFFFFFFFFFFF AND PUSH20 0xFFFFFFFFFFFFFFFFFFFFFFFFFFFFFFFFFFFFFFFF AND PUSH20 0xFFFFFFFFFFFFFFFFFFFFFFFFFFFFFFFFFFFFFFFF AND DUP2 MSTORE PUSH1 0x20 ADD PUSH1 0x3 DUP3 ADD PUSH0 SWAP1 SLOAD SWAP1 PUSH2 0x100 EXP SWAP1 DIV PUSH20 0xFFFFFFFFFFFFFFFFFFFFFFFFFFFFFFFFFFFFFFFF AND PUSH20 0xFFFFFFFFFFFFFFFFFFFFFFFFFFFFFFFFFFFFFFFF AND PUSH20 0xFFFFFFFFFFFFFFFFFFFFFFFFFFFFFFFFFFFFFFFF AND DUP2 MSTORE PUSH1 0x20 ADD PUSH1 0x4 DUP3 ADD SLOAD DUP2 MSTORE PUSH1 0x20 ADD PUSH1 0x5 DUP3 ADD DUP1 SLOAD PUSH2 0x792 SWAP1 PUSH2 0x1CC0 JUMP JUMPDEST DUP1 PUSH1 0x1F ADD PUSH1 0x20 DUP1 SWAP2 DIV MUL PUSH1 0x20 ADD PUSH1 0x40 MLOAD SWAP1 DUP2 ADD PUSH1 0x40 MSTORE DUP1 SWAP3 SWAP2 SWAP1 DUP2 DUP2 MSTORE PUSH1 0x20 ADD DUP3 DUP1 SLOAD PUSH2 0x7BE SWAP1 PUSH2 0x1CC0 JUMP JUMPDEST DUP1 ISZERO PUSH2 0x809 JUMPI DUP1 PUSH1 0x1F LT PUSH2 0x7E0 JUMPI PUSH2 0x100 DUP1 DUP4 SLOAD DIV MUL DUP4 MSTORE SWAP2 PUSH1 0x20 ADD SWAP2 PUSH2 0x809 JUMP JUMPDEST DUP3 ADD SWAP2 SWAP1 PUSH0 MSTORE PUSH1 0x20 PUSH0 KECCAK256 SWAP1 JUMPDEST DUP2 SLOAD DUP2 MSTORE SWAP1 PUSH1 0x1 ADD SWAP1 PUSH1 0x20 ADD DUP1 DUP4 GT PUSH2 0x7EC JUMPI DUP3 SWAP1 SUB PUSH1 0x1F AND DUP3 ADD SWAP2 JUMPDEST POP POP POP POP POP DUP2 MSTORE PUSH1 0x20 ADD PUSH1 0x6 DUP3 ADD SLOAD DUP2 MSTORE PUSH1 0x20 ADD PUSH1 0x7 DUP3 ADD PUSH0 SWAP1 SLOAD SWAP1 PUSH2 0x100 EXP SWAP1 DIV PUSH1 0xFF AND ISZERO ISZERO ISZERO ISZERO DUP2 MSTORE PUSH1 0x20 ADD PUSH1 0x7 DUP3 ADD PUSH1 0x1 SWAP1 SLOAD SWAP1 PUSH2 0x100 EXP SWAP1 DIV PUSH1 0xFF AND ISZERO ISZERO ISZERO ISZERO DUP2 MSTORE POP POP SWAP1 POP PUSH0 PUSH1 0x2 PUSH0 SWAP1 SLOAD SWAP1 PUSH2 0x100 EXP SWAP1 DIV PUSH20 0xFFFFFFFFFFFFFFFFFFFFFFFFFFFFFFFFFFFFFFFF AND SWAP1 POP PUSH1 0x4 PUSH0 CALLER PUSH20 0xFFFFFFFFFFFFFFFFFFFFFFFFFFFFFFFFFFFFFFFF AND PUSH20 0xFFFFFFFFFFFFFFFFFFFFFFFFFFFFFFFFFFFFFFFF AND DUP2 MSTORE PUSH1 0x20 ADD SWAP1 DUP2 MSTORE PUSH1 0x20 ADD PUSH0 KECCAK256 PUSH1 0x1 ADD PUSH0 SWAP1 SLOAD SWAP1 PUSH2 0x100 EXP SWAP1 DIV PUSH1 0xFF AND PUSH2 0x904 JUMPI PUSH1 0x40 MLOAD PUSH32 0x8C379A000000000000000000000000000000000000000000000000000000000 DUP2 MSTORE PUSH1 0x4 ADD PUSH2 0x8FB SWAP1 PUSH2 0x1C75 JUMP JUMPDEST PUSH1 0x40 MLOAD DUP1 SWAP2 SUB SWAP1 REVERT JUMPDEST PUSH0 DUP3 PUSH1 0xC0 ADD MLOAD PUSH0 SLOAD PUSH2 0x916 SWAP2 SWAP1 PUSH2 0x1F89 JUMP JUMPDEST SWAP1 POP TIMESTAMP DUP2 GT PUSH2 0x95A JUMPI PUSH1 0x40 MLOAD PUSH32 0x8C379A000000000000000000000000000000000000000000000000000000000 DUP2 MSTORE PUSH1 0x4 ADD PUSH2 0x951 SWAP1 PUSH2 0x2006 JUMP JUMPDEST PUSH1 0x40 MLOAD DUP1 SWAP2 SUB SWAP1 REVERT JUMPDEST PUSH0 DUP3 PUSH20 0xFFFFFFFFFFFFFFFFFFFFFFFFFFFFFFFFFFFFFFFF AND PUSH4 0x70A08231 CALLER PUSH1 0x40 MLOAD DUP3 PUSH4 0xFFFFFFFF AND PUSH1 0xE0 SHL DUP2 MSTORE PUSH1 0x4 ADD PUSH2 0x994 SWAP2 SWAP1 PUSH2 0x1B72 JUMP JUMPDEST PUSH1 0x20 PUSH1 0x40 MLOAD DUP1 DUP4 SUB DUP2 DUP7 GAS STATICCALL ISZERO DUP1 ISZERO PUSH2 0x9AF JUMPI RETURNDATASIZE PUSH0 DUP1 RETURNDATACOPY RETURNDATASIZE PUSH0 REVERT JUMPDEST POP POP POP POP PUSH1 0x40 MLOAD RETURNDATASIZE PUSH1 0x1F NOT PUSH1 0x1F DUP3 ADD AND DUP3 ADD DUP1 PUSH1 0x40 MSTORE POP DUP2 ADD SWAP1 PUSH2 0x9D3 SWAP2 SWAP1 PUSH2 0x2038 JUMP JUMPDEST GT PUSH2 0xA13 JUMPI PUSH1 0x40 MLOAD PUSH32 0x8C379A000000000000000000000000000000000000000000000000000000000 DUP2 MSTORE PUSH1 0x4 ADD PUSH2 0xA0A SWAP1 PUSH2 0x20D3 JUMP JUMPDEST PUSH1 0x40 MLOAD DUP1 SWAP2 SUB SWAP1 REVERT JUMPDEST PUSH1 0x5 PUSH0 CALLER PUSH20 0xFFFFFFFFFFFFFFFFFFFFFFFFFFFFFFFFFFFFFFFF AND PUSH20 0xFFFFFFFFFFFFFFFFFFFFFFFFFFFFFFFFFFFFFFFF AND DUP2 MSTORE PUSH1 0x20 ADD SWAP1 DUP2 MSTORE PUSH1 0x20 ADD PUSH0 KECCAK256 PUSH0 DUP7 DUP2 MSTORE PUSH1 0x20 ADD SWAP1 DUP2 MSTORE PUSH1 0x20 ADD PUSH0 KECCAK256 PUSH1 0x1 ADD PUSH1 0x1 SWAP1 SLOAD SWAP1 PUSH2 0x100 EXP SWAP1 DIV PUSH1 0xFF AND ISZERO PUSH2 0xAB0 JUMPI PUSH1 0x40 MLOAD PUSH32 0x8C379A000000000000000000000000000000000000000000000000000000000 DUP2 MSTORE PUSH1 0x4 ADD PUSH2 0xAA7 SWAP1 PUSH2 0x2161 JUMP JUMPDEST PUSH1 0x40 MLOAD DUP1 SWAP2 SUB SWAP1 REVERT JUMPDEST PUSH1 0x40 MLOAD DUP1 PUSH1 0x60 ADD PUSH1 0x40 MSTORE DUP1 DUP7 DUP2 MSTORE PUSH1 0x20 ADD DUP6 ISZERO ISZERO DUP2 MSTORE PUSH1 0x20 ADD PUSH1 0x1 ISZERO ISZERO DUP2 MSTORE POP PUSH1 0x5 PUSH0 CALLER PUSH20 0xFFFFFFFFFFFFFFFFFFFFFFFFFFFFFFFFFFFFFFFF AND PUSH20 0xFFFFFFFFFFFFFFFFFFFFFFFFFFFFFFFFFFFFFFFF AND DUP2 MSTORE PUSH1 0x20 ADD SWAP1 DUP2 MSTORE PUSH1 0x20 ADD PUSH0 KECCAK256 PUSH0 DUP8 DUP2 MSTORE PUSH1 0x20 ADD SWAP1 DUP2 MSTORE PUSH1 0x20 ADD PUSH0 KECCAK256 PUSH0 DUP3 ADD MLOAD DUP2 PUSH0 ADD SSTORE PUSH1 0x20 DUP3 ADD MLOAD DUP2 PUSH1 0x1 ADD PUSH0 PUSH2 0x100 EXP DUP2 SLOAD DUP2 PUSH1 0xFF MUL NOT AND SWAP1 DUP4 ISZERO ISZERO MUL OR SWAP1 SSTORE POP PUSH1 0x40 DUP3 ADD MLOAD DUP2 PUSH1 0x1 ADD PUSH1 0x1 PUSH2 0x100 EXP DUP2 SLOAD DUP2 PUSH1 0xFF MUL NOT AND SWAP1 DUP4 ISZERO ISZERO MUL OR SWAP1 SSTORE POP SWAP1 POP POP PUSH1 0x5 PUSH0 CALLER PUSH20 0xFFFFFFFFFFFFFFFFFFFFFFFFFFFFFFFFFFFFFFFF AND PUSH20 0xFFFFFFFFFFFFFFFFFFFFFFFFFFFFFFFFFFFFFFFF AND DUP2 MSTORE PUSH1 0x20 ADD SWAP1 DUP2 MSTORE PUSH1 0x20 ADD PUSH0 KECCAK256 PUSH0 DUP7 DUP2 MSTORE PUSH1 0x20 ADD SWAP1 DUP2 MSTORE PUSH1 0x20 ADD PUSH0 KECCAK256 PUSH1 0x1 ADD PUSH0 SWAP1 SLOAD SWAP1 PUSH2 0x100 EXP SWAP1 DIV PUSH1 0xFF AND ISZERO PUSH2 0xC03 JUMPI PUSH1 0x1 PUSH1 0x6 PUSH0 DUP8 DUP2 MSTORE PUSH1 0x20 ADD SWAP1 DUP2 MSTORE PUSH1 0x20 ADD PUSH0 KECCAK256 PUSH0 ADD SLOAD PUSH2 0xBE7 SWAP2 SWAP1 PUSH2 0x1F89 JUMP JUMPDEST PUSH1 0x6 PUSH0 DUP8 DUP2 MSTORE PUSH1 0x20 ADD SWAP1 DUP2 MSTORE PUSH1 0x20 ADD PUSH0 KECCAK256 PUSH0 ADD DUP2 SWAP1 SSTORE POP PUSH2 0xC3D JUMP JUMPDEST PUSH1 0x1 PUSH1 0x6 PUSH0 DUP8 DUP2 MSTORE PUSH1 0x20 ADD SWAP1 DUP2 MSTORE PUSH1 0x20 ADD PUSH0 KECCAK256 PUSH1 0x1 ADD SLOAD PUSH2 0xC24 SWAP2 SWAP1 PUSH2 0x1F89 JUMP JUMPDEST PUSH1 0x6 PUSH0 DUP8 DUP2 MSTORE PUSH1 0x20 ADD SWAP1 DUP2 MSTORE PUSH1 0x20 ADD PUSH0 KECCAK256 PUSH1 0x1 ADD DUP2 SWAP1 SSTORE POP JUMPDEST CALLER PUSH20 0xFFFFFFFFFFFFFFFFFFFFFFFFFFFFFFFFFFFFFFFF AND PUSH32 0x4F7FF1C79E536D7FEF60CCB53BEB6009E08841FFCBA10E515E076F4CBDD9E320 DUP5 PUSH0 ADD MLOAD DUP7 PUSH1 0x40 MLOAD PUSH2 0xC88 SWAP3 SWAP2 SWAP1 PUSH2 0x217F JUMP JUMPDEST PUSH1 0x40 MLOAD DUP1 SWAP2 SUB SWAP1 LOG2 POP POP POP POP POP JUMP JUMPDEST PUSH0 SLOAD DUP2 JUMP JUMPDEST PUSH0 DUP1 PUSH2 0xCB5 PUSH1 0x3C PUSH1 0x64 DUP6 PUSH2 0x14A0 SWAP1 SWAP3 SWAP2 SWAP1 PUSH4 0xFFFFFFFF AND JUMP JUMPDEST SWAP1 POP DUP1 DUP5 LT ISZERO PUSH2 0xCC5 JUMPI PUSH0 PUSH2 0xCC8 JUMP JUMPDEST PUSH1 0x1 JUMPDEST SWAP2 POP POP SWAP3 SWAP2 POP POP JUMP JUMPDEST PUSH1 0x5 PUSH1 0x20 MSTORE DUP2 PUSH0 MSTORE PUSH1 0x40 PUSH0 KECCAK256 PUSH1 0x20 MSTORE DUP1 PUSH0 MSTORE PUSH1 0x40 PUSH0 KECCAK256 PUSH0 SWAP2 POP SWAP2 POP POP DUP1 PUSH0 ADD SLOAD SWAP1 DUP1 PUSH1 0x1 ADD PUSH0 SWAP1 SLOAD SWAP1 PUSH2 0x100 EXP SWAP1 DIV PUSH1 0xFF AND SWAP1 DUP1 PUSH1 0x1 ADD PUSH1 0x1 SWAP1 SLOAD SWAP1 PUSH2 0x100 EXP SWAP1 DIV PUSH1 0xFF AND SWAP1 POP DUP4 JUMP JUMPDEST PUSH1 0x8 PUSH1 0x20 MSTORE DUP1 PUSH0 MSTORE PUSH1 0x40 PUSH0 KECCAK256 PUSH0 SWAP2 POP SWAP1 POP DUP1 PUSH0 ADD SLOAD SWAP1 DUP1 PUSH1 0x1 ADD DUP1 SLOAD PUSH2 0xD40 SWAP1 PUSH2 0x1CC0 JUMP JUMPDEST DUP1 PUSH1 0x1F ADD PUSH1 0x20 DUP1 SWAP2 DIV MUL PUSH1 0x20 ADD PUSH1 0x40 MLOAD SWAP1 DUP2 ADD PUSH1 0x40 MSTORE DUP1 SWAP3 SWAP2 SWAP1 DUP2 DUP2 MSTORE PUSH1 0x20 ADD DUP3 DUP1 SLOAD PUSH2 0xD6C SWAP1 PUSH2 0x1CC0 JUMP JUMPDEST DUP1 ISZERO PUSH2 0xDB7 JUMPI DUP1 PUSH1 0x1F LT PUSH2 0xD8E JUMPI PUSH2 0x100 DUP1 DUP4 SLOAD DIV MUL DUP4 MSTORE SWAP2 PUSH1 0x20 ADD SWAP2 PUSH2 0xDB7 JUMP JUMPDEST DUP3 ADD SWAP2 SWAP1 PUSH0 MSTORE PUSH1 0x20 PUSH0 KECCAK256 SWAP1 JUMPDEST DUP2 SLOAD DUP2 MSTORE SWAP1 PUSH1 0x1 ADD SWAP1 PUSH1 0x20 ADD DUP1 DUP4 GT PUSH2 0xD9A JUMPI DUP3 SWAP1 SUB PUSH1 0x1F AND DUP3 ADD SWAP2 JUMPDEST POP POP POP POP POP SWAP1 DUP1 PUSH1 0x2 ADD PUSH0 SWAP1 SLOAD SWAP1 PUSH2 0x100 EXP SWAP1 DIV PUSH20 0xFFFFFFFFFFFFFFFFFFFFFFFFFFFFFFFFFFFFFFFF AND SWAP1 DUP1 PUSH1 0x3 ADD PUSH0 SWAP1 SLOAD SWAP1 PUSH2 0x100 EXP SWAP1 DIV PUSH20 0xFFFFFFFFFFFFFFFFFFFFFFFFFFFFFFFFFFFFFFFF AND SWAP1 DUP1 PUSH1 0x4 ADD SLOAD SWAP1 DUP1 PUSH1 0x5 ADD DUP1 SLOAD PUSH2 0xE1C SWAP1 PUSH2 0x1CC0 JUMP JUMPDEST DUP1 PUSH1 0x1F ADD PUSH1 0x20 DUP1 SWAP2 DIV MUL PUSH1 0x20 ADD PUSH1 0x40 MLOAD SWAP1 DUP2 ADD PUSH1 0x40 MSTORE DUP1 SWAP3 SWAP2 SWAP1 DUP2 DUP2 MSTORE PUSH1 0x20 ADD DUP3 DUP1 SLOAD PUSH2 0xE48 SWAP1 PUSH2 0x1CC0 JUMP JUMPDEST DUP1 ISZERO PUSH2 0xE93 JUMPI DUP1 PUSH1 0x1F LT PUSH2 0xE6A JUMPI PUSH2 0x100 DUP1 DUP4 SLOAD DIV MUL DUP4 MSTORE SWAP2 PUSH1 0x20 ADD SWAP2 PUSH2 0xE93 JUMP JUMPDEST DUP3 ADD SWAP2 SWAP1 PUSH0 MSTORE PUSH1 0x20 PUSH0 KECCAK256 SWAP1 JUMPDEST DUP2 SLOAD DUP2 MSTORE SWAP1 PUSH1 0x1 ADD SWAP1 PUSH1 0x20 ADD DUP1 DUP4 GT PUSH2 0xE76 JUMPI DUP3 SWAP1 SUB PUSH1 0x1F AND DUP3 ADD SWAP2 JUMPDEST POP POP POP POP POP SWAP1 DUP1 PUSH1 0x6 ADD SLOAD SWAP1 DUP1 PUSH1 0x7 ADD PUSH0 SWAP1 SLOAD SWAP1 PUSH2 0x100 EXP SWAP1 DIV PUSH1 0xFF AND SWAP1 DUP1 PUSH1 0x7 ADD PUSH1 0x1 SWAP1 SLOAD SWAP1 PUSH2 0x100 EXP SWAP1 DIV PUSH1 0xFF AND SWAP1 POP DUP10 JUMP JUMPDEST PUSH1 0x6 PUSH1 0x20 MSTORE DUP1 PUSH0 MSTORE PUSH1 0x40 PUSH0 KECCAK256 PUSH0 SWAP2 POP SWAP1 POP DUP1 PUSH0 ADD SLOAD SWAP1 DUP1 PUSH1 0x1 ADD SLOAD SWAP1 POP DUP3 JUMP JUMPDEST PUSH1 0x7 SLOAD DUP2 JUMP JUMPDEST PUSH1 0x1 SLOAD DUP2 JUMP JUMPDEST PUSH1 0x3 SLOAD DUP2 JUMP JUMPDEST PUSH2 0xF02 PUSH2 0x159F JUMP JUMPDEST PUSH0 DUP1 PUSH1 0x60 PUSH1 0x8 PUSH0 DUP7 DUP2 MSTORE PUSH1 0x20 ADD SWAP1 DUP2 MSTORE PUSH1 0x20 ADD PUSH0 KECCAK256 PUSH1 0x40 MLOAD DUP1 PUSH2 0x120 ADD PUSH1 0x40 MSTORE SWAP1 DUP2 PUSH0 DUP3 ADD SLOAD DUP2 MSTORE PUSH1 0x20 ADD PUSH1 0x1 DUP3 ADD DUP1 SLOAD PUSH2 0xF3C SWAP1 PUSH2 0x1CC0 JUMP JUMPDEST DUP1 PUSH1 0x1F ADD PUSH1 0x20 DUP1 SWAP2 DIV MUL PUSH1 0x20 ADD PUSH1 0x40 MLOAD SWAP1 DUP2 ADD PUSH1 0x40 MSTORE DUP1 SWAP3 SWAP2 SWAP1 DUP2 DUP2 MSTORE PUSH1 0x20 ADD DUP3 DUP1 SLOAD PUSH2 0xF68 SWAP1 PUSH2 0x1CC0 JUMP JUMPDEST DUP1 ISZERO PUSH2 0xFB3 JUMPI DUP1 PUSH1 0x1F LT PUSH2 0xF8A JUMPI PUSH2 0x100 DUP1 DUP4 SLOAD DIV MUL DUP4 MSTORE SWAP2 PUSH1 0x20 ADD SWAP2 PUSH2 0xFB3 JUMP JUMPDEST DUP3 ADD SWAP2 SWAP1 PUSH0 MSTORE PUSH1 0x20 PUSH0 KECCAK256 SWAP1 JUMPDEST DUP2 SLOAD DUP2 MSTORE SWAP1 PUSH1 0x1 ADD SWAP1 PUSH1 0x20 ADD DUP1 DUP4 GT PUSH2 0xF96 JUMPI DUP3 SWAP1 SUB PUSH1 0x1F AND DUP3 ADD SWAP2 JUMPDEST POP POP POP POP POP DUP2 MSTORE PUSH1 0x20 ADD PUSH1 0x2 DUP3 ADD PUSH0 SWAP1 SLOAD SWAP1 PUSH2 0x100 EXP SWAP1 DIV PUSH20 0xFFFFFFFFFFFFFFFFFFFFFFFFFFFFFFFFFFFFFFFF AND PUSH20 0xFFFFFFFFFFFFFFFFFFFFFFFFFFFFFFFFFFFFFFFF AND PUSH20 0xFFFFFFFFFFFFFFFFFFFFFFFFFFFFFFFFFFFFFFFF AND DUP2 MSTORE PUSH1 0x20 ADD PUSH1 0x3 DUP3 ADD PUSH0 SWAP1 SLOAD SWAP1 PUSH2 0x100 EXP SWAP1 DIV PUSH20 0xFFFFFFFFFFFFFFFFFFFFFFFFFFFFFFFFFFFFFFFF AND PUSH20 0xFFFFFFFFFFFFFFFFFFFFFFFFFFFFFFFFFFFFFFFF AND PUSH20 0xFFFFFFFFFFFFFFFFFFFFFFFFFFFFFFFFFFFFFFFF AND DUP2 MSTORE PUSH1 0x20 ADD PUSH1 0x4 DUP3 ADD SLOAD DUP2 MSTORE PUSH1 0x20 ADD PUSH1 0x5 DUP3 ADD DUP1 SLOAD PUSH2 0x1080 SWAP1 PUSH2 0x1CC0 JUMP JUMPDEST DUP1 PUSH1 0x1F ADD PUSH1 0x20 DUP1 SWAP2 DIV MUL PUSH1 0x20 ADD PUSH1 0x40 MLOAD SWAP1 DUP2 ADD PUSH1 0x40 MSTORE DUP1 SWAP3 SWAP2 SWAP1 DUP2 DUP2 MSTORE PUSH1 0x20 ADD DUP3 DUP1 SLOAD PUSH2 0x10AC SWAP1 PUSH2 0x1CC0 JUMP JUMPDEST DUP1 ISZERO PUSH2 0x10F7 JUMPI DUP1 PUSH1 0x1F LT PUSH2 0x10CE JUMPI PUSH2 0x100 DUP1 DUP4 SLOAD DIV MUL DUP4 MSTORE SWAP2 PUSH1 0x20 ADD SWAP2 PUSH2 0x10F7 JUMP JUMPDEST DUP3 ADD SWAP2 SWAP1 PUSH0 MSTORE PUSH1 0x20 PUSH0 KECCAK256 SWAP1 JUMPDEST DUP2 SLOAD DUP2 MSTORE SWAP1 PUSH1 0x1 ADD SWAP1 PUSH1 0x20 ADD DUP1 DUP4 GT PUSH2 0x10DA JUMPI DUP3 SWAP1 SUB PUSH1 0x1F AND DUP3 ADD SWAP2 JUMPDEST POP POP POP POP POP DUP2 MSTORE PUSH1 0x20 ADD PUSH1 0x6 DUP3 ADD SLOAD DUP2 MSTORE PUSH1 0x20 ADD PUSH1 0x7 DUP3 ADD PUSH0 SWAP1 SLOAD SWAP1 PUSH2 0x100 EXP SWAP1 DIV PUSH1 0xFF AND ISZERO ISZERO ISZERO ISZERO DUP2 MSTORE PUSH1 0x20 ADD PUSH1 0x7 DUP3 ADD PUSH1 0x1 SWAP1 SLOAD SWAP1 PUSH2 0x100 EXP SWAP1 DIV PUSH1 0xFF AND ISZERO ISZERO ISZERO ISZERO DUP2 MSTORE POP POP SWAP4 POP DUP4 PUSH1 0x60 ADD MLOAD SWAP3 POP DUP4 PUSH1 0x80 ADD MLOAD SWAP2 POP DUP4 PUSH1 0xA0 ADD MLOAD SWAP1 POP PUSH0 PUSH1 0x6 PUSH0 DUP8 DUP2 MSTORE PUSH1 0x20 ADD SWAP1 DUP2 MSTORE PUSH1 0x20 ADD PUSH0 KECCAK256 PUSH1 0x1 ADD SLOAD PUSH1 0x6 PUSH0 DUP9 DUP2 MSTORE PUSH1 0x20 ADD SWAP1 DUP2 MSTORE PUSH1 0x20 ADD PUSH0 KECCAK256 PUSH0 ADD SLOAD PUSH2 0x118A SWAP2 SWAP1 PUSH2 0x1F89 JUMP JUMPDEST SWAP1 POP PUSH2 0x11A9 PUSH1 0x6 PUSH0 DUP9 DUP2 MSTORE PUSH1 0x20 ADD SWAP1 DUP2 MSTORE PUSH1 0x20 ADD PUSH0 KECCAK256 PUSH0 ADD SLOAD DUP3 PUSH2 0xC9C JUMP JUMPDEST PUSH2 0x11E8 JUMPI PUSH1 0x40 MLOAD PUSH32 0x8C379A000000000000000000000000000000000000000000000000000000000 DUP2 MSTORE PUSH1 0x4 ADD PUSH2 0x11DF SWAP1 PUSH2 0x21F0 JUMP JUMPDEST PUSH1 0x40 MLOAD DUP1 SWAP2 SUB SWAP1 REVERT JUMPDEST PUSH0 DUP1 DUP6 PUSH20 0xFFFFFFFFFFFFFFFFFFFFFFFFFFFFFFFFFFFFFFFF AND CALLVALUE DUP6 DUP8 PUSH1 0x40 MLOAD PUSH1 0x24 ADD PUSH2 0x1214 SWAP2 SWAP1 PUSH2 0x190C JUMP JUMPDEST PUSH1 0x40 MLOAD PUSH1 0x20 DUP2 DUP4 SUB SUB DUP2 MSTORE SWAP1 PUSH1 0x40 MSTORE SWAP1 PUSH1 0x40 MLOAD PUSH2 0x1231 SWAP2 SWAP1 PUSH2 0x2248 JUMP JUMPDEST PUSH1 0x40 MLOAD DUP1 SWAP2 SUB SWAP1 KECCAK256 PUSH28 0xFFFFFFFFFFFFFFFFFFFFFFFFFFFFFFFFFFFFFFFFFFFFFFFFFFFFFFFF NOT AND PUSH1 0x20 DUP3 ADD DUP1 MLOAD PUSH28 0xFFFFFFFFFFFFFFFFFFFFFFFFFFFFFFFFFFFFFFFFFFFFFFFFFFFFFFFF DUP4 DUP2 DUP4 AND OR DUP4 MSTORE POP POP POP POP PUSH1 0x40 MLOAD PUSH2 0x1293 SWAP2 SWAP1 PUSH2 0x22A2 JUMP JUMPDEST PUSH0 PUSH1 0x40 MLOAD DUP1 DUP4 SUB DUP2 DUP6 DUP8 GAS CALL SWAP3 POP POP POP RETURNDATASIZE DUP1 PUSH0 DUP2 EQ PUSH2 0x12CD JUMPI PUSH1 0x40 MLOAD SWAP2 POP PUSH1 0x1F NOT PUSH1 0x3F RETURNDATASIZE ADD AND DUP3 ADD PUSH1 0x40 MSTORE RETURNDATASIZE DUP3 MSTORE RETURNDATASIZE PUSH0 PUSH1 0x20 DUP5 ADD RETURNDATACOPY PUSH2 0x12D2 JUMP JUMPDEST PUSH1 0x60 SWAP2 POP JUMPDEST POP SWAP2 POP SWAP2 POP DUP2 PUSH2 0x1317 JUMPI PUSH1 0x40 MLOAD PUSH32 0x8C379A000000000000000000000000000000000000000000000000000000000 DUP2 MSTORE PUSH1 0x4 ADD PUSH2 0x130E SWAP1 PUSH2 0x2302 JUMP JUMPDEST PUSH1 0x40 MLOAD DUP1 SWAP2 SUB SWAP1 REVERT JUMPDEST DUP1 DUP1 PUSH1 0x20 ADD SWAP1 MLOAD DUP2 ADD SWAP1 PUSH2 0x132B SWAP2 SWAP1 PUSH2 0x2038 JUMP JUMPDEST PUSH1 0x3 DUP2 SWAP1 SSTORE POP POP POP POP POP POP POP POP POP JUMP JUMPDEST PUSH1 0x2 PUSH0 SWAP1 SLOAD SWAP1 PUSH2 0x100 EXP SWAP1 DIV PUSH20 0xFFFFFFFFFFFFFFFFFFFFFFFFFFFFFFFFFFFFFFFF AND DUP2 JUMP JUMPDEST PUSH1 0x40 MLOAD DUP1 PUSH1 0x40 ADD PUSH1 0x40 MSTORE DUP1 DUP3 DUP2 MSTORE PUSH1 0x20 ADD PUSH1 0x1 ISZERO ISZERO DUP2 MSTORE POP PUSH1 0x4 PUSH0 CALLER PUSH20 0xFFFFFFFFFFFFFFFFFFFFFFFFFFFFFFFFFFFFFFFF AND PUSH20 0xFFFFFFFFFFFFFFFFFFFFFFFFFFFFFFFFFFFFFFFF AND DUP2 MSTORE PUSH1 0x20 ADD SWAP1 DUP2 MSTORE PUSH1 0x20 ADD PUSH0 KECCAK256 PUSH0 DUP3 ADD MLOAD DUP2 PUSH0 ADD SWAP1 DUP2 PUSH2 0x13C8 SWAP2 SWAP1 PUSH2 0x1E8D JUMP JUMPDEST POP PUSH1 0x20 DUP3 ADD MLOAD DUP2 PUSH1 0x1 ADD PUSH0 PUSH2 0x100 EXP DUP2 SLOAD DUP2 PUSH1 0xFF MUL NOT AND SWAP1 DUP4 ISZERO ISZERO MUL OR SWAP1 SSTORE POP SWAP1 POP POP POP JUMP JUMPDEST PUSH1 0x4 PUSH1 0x20 MSTORE DUP1 PUSH0 MSTORE PUSH1 0x40 PUSH0 KECCAK256 PUSH0 SWAP2 POP SWAP1 POP DUP1 PUSH0 ADD DUP1 SLOAD PUSH2 0x140D SWAP1 PUSH2 0x1CC0 JUMP JUMPDEST DUP1 PUSH1 0x1F ADD PUSH1 0x20 DUP1 SWAP2 DIV MUL PUSH1 0x20 ADD PUSH1 0x40 MLOAD SWAP1 DUP2 ADD PUSH1 0x40 MSTORE DUP1 SWAP3 SWAP2 SWAP1 DUP2 DUP2 MSTORE PUSH1 0x20 ADD DUP3 DUP1 SLOAD PUSH2 0x1439 SWAP1 PUSH2 0x1CC0 JUMP JUMPDEST DUP1 ISZERO PUSH2 0x1484 JUMPI DUP1 PUSH1 0x1F LT PUSH2 0x145B JUMPI PUSH2 0x100 DUP1 DUP4 SLOAD DIV MUL DUP4 MSTORE SWAP2 PUSH1 0x20 ADD SWAP2 PUSH2 0x1484 JUMP JUMPDEST DUP3 ADD SWAP2 SWAP1 PUSH0 MSTORE PUSH1 0x20 PUSH0 KECCAK256 SWAP1 JUMPDEST DUP2 SLOAD DUP2 MSTORE SWAP1 PUSH1 0x1 ADD SWAP1 PUSH1 0x20 ADD DUP1 DUP4 GT PUSH2 0x1467 JUMPI DUP3 SWAP1 SUB PUSH1 0x1F AND DUP3 ADD SWAP2 JUMPDEST POP POP POP POP POP SWAP1 DUP1 PUSH1 0x1 ADD PUSH0 SWAP1 SLOAD SWAP1 PUSH2 0x100 EXP SWAP1 DIV PUSH1 0xFF AND SWAP1 POP DUP3 JUMP JUMPDEST PUSH0 DUP1 DUP4 DUP6 MUL SWAP1 POP PUSH0 DUP1 NOT DUP6 DUP8 MULMOD DUP3 DUP2 LT DUP4 DUP3 SUB SUB SWAP2 POP POP PUSH0 DUP2 SUB PUSH2 0x14D8 JUMPI DUP4 DUP3 DUP2 PUSH2 0x14CE JUMPI PUSH2 0x14CD PUSH2 0x2320 JUMP JUMPDEST JUMPDEST DIV SWAP3 POP POP POP PUSH2 0x1598 JUMP JUMPDEST DUP1 DUP5 GT PUSH2 0x1511 JUMPI PUSH1 0x40 MLOAD PUSH32 0x227BC15300000000000000000000000000000000000000000000000000000000 DUP2 MSTORE PUSH1 0x4 ADD PUSH1 0x40 MLOAD DUP1 SWAP2 SUB SWAP1 REVERT JUMPDEST PUSH0 DUP5 DUP7 DUP9 MULMOD SWAP1 POP DUP3 DUP2 GT DUP3 SUB SWAP2 POP DUP1 DUP4 SUB SWAP3 POP PUSH0 DUP6 PUSH0 SUB DUP7 AND SWAP1 POP DUP1 DUP7 DIV SWAP6 POP DUP1 DUP5 DIV SWAP4 POP PUSH1 0x1 DUP2 DUP3 PUSH0 SUB DIV ADD SWAP1 POP DUP1 DUP4 MUL DUP5 OR SWAP4 POP PUSH0 PUSH1 0x2 DUP8 PUSH1 0x3 MUL XOR SWAP1 POP DUP1 DUP8 MUL PUSH1 0x2 SUB DUP2 MUL SWAP1 POP DUP1 DUP8 MUL PUSH1 0x2 SUB DUP2 MUL SWAP1 POP DUP1 DUP8 MUL PUSH1 0x2 SUB DUP2 MUL SWAP1 POP DUP1 DUP8 MUL PUSH1 0x2 SUB DUP2 MUL SWAP1 POP DUP1 DUP8 MUL PUSH1 0x2 SUB DUP2 MUL SWAP1 POP DUP1 DUP8 MUL PUSH1 0x2 SUB DUP2 MUL SWAP1 POP DUP1 DUP6 MUL SWAP6 POP POP POP POP POP POP JUMPDEST SWAP4 SWAP3 POP POP POP JUMP JUMPDEST PUSH1 0x40 MLOAD DUP1 PUSH2 0x120 ADD PUSH1 0x40 MSTORE DUP1 PUSH0 DUP2 MSTORE PUSH1 0x20 ADD PUSH1 0x60 DUP2 MSTORE PUSH1 0x20 ADD PUSH0 PUSH20 0xFFFFFFFFFFFFFFFFFFFFFFFFFFFFFFFFFFFFFFFF AND DUP2 MSTORE PUSH1 0x20 ADD PUSH0 PUSH20 0xFFFFFFFFFFFFFFFFFFFFFFFFFFFFFFFFFFFFFFFF AND DUP2 MSTORE PUSH1 0x20 ADD PUSH0 DUP2 MSTORE PUSH1 0x20 ADD PUSH1 0x60 DUP2 MSTORE PUSH1 0x20 ADD PUSH0 DUP2 MSTORE PUSH1 0x20 ADD PUSH0 ISZERO ISZERO DUP2 MSTORE PUSH1 0x20 ADD PUSH0 ISZERO ISZERO DUP2 MSTORE POP SWAP1 JUMP JUMPDEST PUSH0 PUSH1 0x40 MLOAD SWAP1 POP SWAP1 JUMP JUMPDEST PUSH0 DUP1 REVERT JUMPDEST PUSH0 DUP1 REVERT JUMPDEST PUSH0 DUP1 REVERT JUMPDEST PUSH0 DUP1 REVERT JUMPDEST PUSH0 PUSH1 0x1F NOT PUSH1 0x1F DUP4 ADD AND SWAP1 POP SWAP2 SWAP1 POP JUMP JUMPDEST PUSH32 0x4E487B7100000000000000000000000000000000000000000000000000000000 PUSH0 MSTORE PUSH1 0x41 PUSH1 0x4 MSTORE PUSH1 0x24 PUSH0 REVERT JUMPDEST PUSH2 0x1673 DUP3 PUSH2 0x162D JUMP JUMPDEST DUP2 ADD DUP2 DUP2 LT PUSH8 0xFFFFFFFFFFFFFFFF DUP3 GT OR ISZERO PUSH2 0x1692 JUMPI PUSH2 0x1691 PUSH2 0x163D JUMP JUMPDEST JUMPDEST DUP1 PUSH1 0x40 MSTORE POP POP POP JUMP JUMPDEST PUSH0 PUSH2 0x16A4 PUSH2 0x1614 JUMP JUMPDEST SWAP1 POP PUSH2 0x16B0 DUP3 DUP3 PUSH2 0x166A JUMP JUMPDEST SWAP2 SWAP1 POP JUMP JUMPDEST PUSH0 PUSH8 0xFFFFFFFFFFFFFFFF DUP3 GT ISZERO PUSH2 0x16CF JUMPI PUSH2 0x16CE PUSH2 0x163D JUMP JUMPDEST JUMPDEST PUSH2 0x16D8 DUP3 PUSH2 0x162D JUMP JUMPDEST SWAP1 POP PUSH1 0x20 DUP2 ADD SWAP1 POP SWAP2 SWAP1 POP JUMP JUMPDEST DUP3 DUP2 DUP4 CALLDATACOPY PUSH0 DUP4 DUP4 ADD MSTORE POP POP POP JUMP JUMPDEST PUSH0 PUSH2 0x1705 PUSH2 0x1700 DUP5 PUSH2 0x16B5 JUMP JUMPDEST PUSH2 0x169B JUMP JUMPDEST SWAP1 POP DUP3 DUP2 MSTORE PUSH1 0x20 DUP2 ADD DUP5 DUP5 DUP5 ADD GT ISZERO PUSH2 0x1721 JUMPI PUSH2 0x1720 PUSH2 0x1629 JUMP JUMPDEST JUMPDEST PUSH2 0x172C DUP5 DUP3 DUP6 PUSH2 0x16E5 JUMP JUMPDEST POP SWAP4 SWAP3 POP POP POP JUMP JUMPDEST PUSH0 DUP3 PUSH1 0x1F DUP4 ADD SLT PUSH2 0x1748 JUMPI PUSH2 0x1747 PUSH2 0x1625 JUMP JUMPDEST JUMPDEST DUP2 CALLDATALOAD PUSH2 0x1758 DUP5 DUP3 PUSH1 0x20 DUP7 ADD PUSH2 0x16F3 JUMP JUMPDEST SWAP2 POP POP SWAP3 SWAP2 POP POP JUMP JUMPDEST PUSH0 PUSH20 0xFFFFFFFFFFFFFFFFFFFFFFFFFFFFFFFFFFFFFFFF DUP3 AND SWAP1 POP SWAP2 SWAP1 POP JUMP JUMPDEST PUSH0 PUSH2 0x178A DUP3 PUSH2 0x1761 JUMP JUMPDEST SWAP1 POP SWAP2 SWAP1 POP JUMP JUMPDEST PUSH2 0x179A DUP2 PUSH2 0x1780 JUMP JUMPDEST DUP2 EQ PUSH2 0x17A4 JUMPI PUSH0 DUP1 REVERT JUMPDEST POP JUMP JUMPDEST PUSH0 DUP2 CALLDATALOAD SWAP1 POP PUSH2 0x17B5 DUP2 PUSH2 0x1791 JUMP JUMPDEST SWAP3 SWAP2 POP POP JUMP JUMPDEST PUSH0 DUP2 SWAP1 POP SWAP2 SWAP1 POP JUMP JUMPDEST PUSH2 0x17CD DUP2 PUSH2 0x17BB JUMP JUMPDEST DUP2 EQ PUSH2 0x17D7 JUMPI PUSH0 DUP1 REVERT JUMPDEST POP JUMP JUMPDEST PUSH0 DUP2 CALLDATALOAD SWAP1 POP PUSH2 0x17E8 DUP2 PUSH2 0x17C4 JUMP JUMPDEST SWAP3 SWAP2 POP POP JUMP JUMPDEST PUSH0 DUP1 PUSH0 DUP1 PUSH1 0x80 DUP6 DUP8 SUB SLT ISZERO PUSH2 0x1806 JUMPI PUSH2 0x1805 PUSH2 0x161D JUMP JUMPDEST JUMPDEST PUSH0 DUP6 ADD CALLDATALOAD PUSH8 0xFFFFFFFFFFFFFFFF DUP2 GT ISZERO PUSH2 0x1823 JUMPI PUSH2 0x1822 PUSH2 0x1621 JUMP JUMPDEST JUMPDEST PUSH2 0x182F DUP8 DUP3 DUP9 ADD PUSH2 0x1734 JUMP JUMPDEST SWAP5 POP POP PUSH1 0x20 PUSH2 0x1840 DUP8 DUP3 DUP9 ADD PUSH2 0x17A7 JUMP JUMPDEST SWAP4 POP POP PUSH1 0x40 PUSH2 0x1851 DUP8 DUP3 DUP9 ADD PUSH2 0x17DA JUMP JUMPDEST SWAP3 POP POP PUSH1 0x60 DUP6 ADD CALLDATALOAD PUSH8 0xFFFFFFFFFFFFFFFF DUP2 GT ISZERO PUSH2 0x1872 JUMPI PUSH2 0x1871 PUSH2 0x1621 JUMP JUMPDEST JUMPDEST PUSH2 0x187E DUP8 DUP3 DUP9 ADD PUSH2 0x1734 JUMP JUMPDEST SWAP2 POP POP SWAP3 SWAP6 SWAP2 SWAP5 POP SWAP3 POP JUMP JUMPDEST PUSH0 DUP2 ISZERO ISZERO SWAP1 POP SWAP2 SWAP1 POP JUMP JUMPDEST PUSH2 0x189E DUP2 PUSH2 0x188A JUMP JUMPDEST DUP2 EQ PUSH2 0x18A8 JUMPI PUSH0 DUP1 REVERT JUMPDEST POP JUMP JUMPDEST PUSH0 DUP2 CALLDATALOAD SWAP1 POP PUSH2 0x18B9 DUP2 PUSH2 0x1895 JUMP JUMPDEST SWAP3 SWAP2 POP POP JUMP JUMPDEST PUSH0 DUP1 PUSH1 0x40 DUP4 DUP6 SUB SLT ISZERO PUSH2 0x18D5 JUMPI PUSH2 0x18D4 PUSH2 0x161D JUMP JUMPDEST JUMPDEST PUSH0 PUSH2 0x18E2 DUP6 DUP3 DUP7 ADD PUSH2 0x17DA JUMP JUMPDEST SWAP3 POP POP PUSH1 0x20 PUSH2 0x18F3 DUP6 DUP3 DUP7 ADD PUSH2 0x18AB JUMP JUMPDEST SWAP2 POP POP SWAP3 POP SWAP3 SWAP1 POP JUMP JUMPDEST PUSH2 0x1906 DUP2 PUSH2 0x17BB JUMP JUMPDEST DUP3 MSTORE POP POP JUMP JUMPDEST PUSH0 PUSH1 0x20 DUP3 ADD SWAP1 POP PUSH2 0x191F PUSH0 DUP4 ADD DUP5 PUSH2 0x18FD JUMP JUMPDEST SWAP3 SWAP2 POP POP JUMP JUMPDEST PUSH0 DUP1 PUSH1 0x40 DUP4 DUP6 SUB SLT ISZERO PUSH2 0x193B JUMPI PUSH2 0x193A PUSH2 0x161D JUMP JUMPDEST JUMPDEST PUSH0 PUSH2 0x1948 DUP6 DUP3 DUP7 ADD PUSH2 0x17DA JUMP JUMPDEST SWAP3 POP POP PUSH1 0x20 PUSH2 0x1959 DUP6 DUP3 DUP7 ADD PUSH2 0x17DA JUMP JUMPDEST SWAP2 POP POP SWAP3 POP SWAP3 SWAP1 POP JUMP JUMPDEST PUSH2 0x196C DUP2 PUSH2 0x188A JUMP JUMPDEST DUP3 MSTORE POP POP JUMP JUMPDEST PUSH0 PUSH1 0x20 DUP3 ADD SWAP1 POP PUSH2 0x1985 PUSH0 DUP4 ADD DUP5 PUSH2 0x1963 JUMP JUMPDEST SWAP3 SWAP2 POP POP JUMP JUMPDEST PUSH0 DUP1 PUSH1 0x40 DUP4 DUP6 SUB SLT ISZERO PUSH2 0x19A1 JUMPI PUSH2 0x19A0 PUSH2 0x161D JUMP JUMPDEST JUMPDEST PUSH0 PUSH2 0x19AE DUP6 DUP3 DUP7 ADD PUSH2 0x17A7 JUMP JUMPDEST SWAP3 POP POP PUSH1 0x20 PUSH2 0x19BF DUP6 DUP3 DUP7 ADD PUSH2 0x17DA JUMP JUMPDEST SWAP2 POP POP SWAP3 POP SWAP3 SWAP1 POP JUMP JUMPDEST PUSH0 PUSH1 0x60 DUP3 ADD SWAP1 POP PUSH2 0x19DC PUSH0 DUP4 ADD DUP7 PUSH2 0x18FD JUMP JUMPDEST PUSH2 0x19E9 PUSH1 0x20 DUP4 ADD DUP6 PUSH2 0x1963 JUMP JUMPDEST PUSH2 0x19F6 PUSH1 0x40 DUP4 ADD DUP5 PUSH2 0x1963 JUMP JUMPDEST SWAP5 SWAP4 POP POP POP POP JUMP JUMPDEST PUSH0 PUSH1 0x20 DUP3 DUP5 SUB SLT ISZERO PUSH2 0x1A13 JUMPI PUSH2 0x1A12 PUSH2 0x161D JUMP JUMPDEST JUMPDEST PUSH0 PUSH2 0x1A20 DUP5 DUP3 DUP6 ADD PUSH2 0x17DA JUMP JUMPDEST SWAP2 POP POP SWAP3 SWAP2 POP POP JUMP JUMPDEST PUSH0 DUP2 MLOAD SWAP1 POP SWAP2 SWAP1 POP JUMP JUMPDEST PUSH0 DUP3 DUP3 MSTORE PUSH1 0x20 DUP3 ADD SWAP1 POP SWAP3 SWAP2 POP POP JUMP JUMPDEST PUSH0 JUMPDEST DUP4 DUP2 LT ISZERO PUSH2 0x1A60 JUMPI DUP1 DUP3 ADD MLOAD DUP2 DUP5 ADD MSTORE PUSH1 0x20 DUP2 ADD SWAP1 POP PUSH2 0x1A45 JUMP JUMPDEST PUSH0 DUP5 DUP5 ADD MSTORE POP POP POP POP JUMP JUMPDEST PUSH0 PUSH2 0x1A75 DUP3 PUSH2 0x1A29 JUMP JUMPDEST PUSH2 0x1A7F DUP2 DUP6 PUSH2 0x1A33 JUMP JUMPDEST SWAP4 POP PUSH2 0x1A8F DUP2 DUP6 PUSH1 0x20 DUP7 ADD PUSH2 0x1A43 JUMP JUMPDEST PUSH2 0x1A98 DUP2 PUSH2 0x162D JUMP JUMPDEST DUP5 ADD SWAP2 POP POP SWAP3 SWAP2 POP POP JUMP JUMPDEST PUSH2 0x1AAC DUP2 PUSH2 0x1780 JUMP JUMPDEST DUP3 MSTORE POP POP JUMP JUMPDEST PUSH0 PUSH2 0x120 DUP3 ADD SWAP1 POP PUSH2 0x1AC6 PUSH0 DUP4 ADD DUP13 PUSH2 0x18FD JUMP JUMPDEST DUP2 DUP2 SUB PUSH1 0x20 DUP4 ADD MSTORE PUSH2 0x1AD8 DUP2 DUP12 PUSH2 0x1A6B JUMP JUMPDEST SWAP1 POP PUSH2 0x1AE7 PUSH1 0x40 DUP4 ADD DUP11 PUSH2 0x1AA3 JUMP JUMPDEST PUSH2 0x1AF4 PUSH1 0x60 DUP4 ADD DUP10 PUSH2 0x1AA3 JUMP JUMPDEST PUSH2 0x1B01 PUSH1 0x80 DUP4 ADD DUP9 PUSH2 0x18FD JUMP JUMPDEST DUP2 DUP2 SUB PUSH1 0xA0 DUP4 ADD MSTORE PUSH2 0x1B13 DUP2 DUP8 PUSH2 0x1A6B JUMP JUMPDEST SWAP1 POP PUSH2 0x1B22 PUSH1 0xC0 DUP4 ADD DUP7 PUSH2 0x18FD JUMP JUMPDEST PUSH2 0x1B2F PUSH1 0xE0 DUP4 ADD DUP6 PUSH2 0x1963 JUMP JUMPDEST PUSH2 0x1B3D PUSH2 0x100 DUP4 ADD DUP5 PUSH2 0x1963 JUMP JUMPDEST SWAP11 SWAP10 POP POP POP POP POP POP POP POP POP POP JUMP JUMPDEST PUSH0 PUSH1 0x40 DUP3 ADD SWAP1 POP PUSH2 0x1B5E PUSH0 DUP4 ADD DUP6 PUSH2 0x18FD JUMP JUMPDEST PUSH2 0x1B6B PUSH1 0x20 DUP4 ADD DUP5 PUSH2 0x18FD JUMP JUMPDEST SWAP4 SWAP3 POP POP POP JUMP JUMPDEST PUSH0 PUSH1 0x20 DUP3 ADD SWAP1 POP PUSH2 0x1B85 PUSH0 DUP4 ADD DUP5 PUSH2 0x1AA3 JUMP JUMPDEST SWAP3 SWAP2 POP POP JUMP JUMPDEST PUSH0 PUSH1 0x20 DUP3 DUP5 SUB SLT ISZERO PUSH2 0x1BA0 JUMPI PUSH2 0x1B9F PUSH2 0x161D JUMP JUMPDEST JUMPDEST PUSH0 DUP3 ADD CALLDATALOAD PUSH8 0xFFFFFFFFFFFFFFFF DUP2 GT ISZERO PUSH2 0x1BBD JUMPI PUSH2 0x1BBC PUSH2 0x1621 JUMP JUMPDEST JUMPDEST PUSH2 0x1BC9 DUP5 DUP3 DUP6 ADD PUSH2 0x1734 JUMP JUMPDEST SWAP2 POP POP SWAP3 SWAP2 POP POP JUMP JUMPDEST PUSH0 PUSH1 0x20 DUP3 DUP5 SUB SLT ISZERO PUSH2 0x1BE7 JUMPI PUSH2 0x1BE6 PUSH2 0x161D JUMP JUMPDEST JUMPDEST PUSH0 PUSH2 0x1BF4 DUP5 DUP3 DUP6 ADD PUSH2 0x17A7 JUMP JUMPDEST SWAP2 POP POP SWAP3 SWAP2 POP POP JUMP JUMPDEST PUSH0 PUSH1 0x40 DUP3 ADD SWAP1 POP DUP2 DUP2 SUB PUSH0 DUP4 ADD MSTORE PUSH2 0x1C15 DUP2 DUP6 PUSH2 0x1A6B JUMP JUMPDEST SWAP1 POP PUSH2 0x1C24 PUSH1 0x20 DUP4 ADD DUP5 PUSH2 0x1963 JUMP JUMPDEST SWAP4 SWAP3 POP POP POP JUMP JUMPDEST PUSH32 0x4E4F542041204D454D4245520000000000000000000000000000000000000000 PUSH0 DUP3 ADD MSTORE POP JUMP JUMPDEST PUSH0 PUSH2 0x1C5F PUSH1 0xC DUP4 PUSH2 0x1A33 JUMP JUMPDEST SWAP2 POP PUSH2 0x1C6A DUP3 PUSH2 0x1C2B JUMP JUMPDEST PUSH1 0x20 DUP3 ADD SWAP1 POP SWAP2 SWAP1 POP JUMP JUMPDEST PUSH0 PUSH1 0x20 DUP3 ADD SWAP1 POP DUP2 DUP2 SUB PUSH0 DUP4 ADD MSTORE PUSH2 0x1C8C DUP2 PUSH2 0x1C53 JUMP JUMPDEST SWAP1 POP SWAP2 SWAP1 POP JUMP JUMPDEST PUSH32 0x4E487B7100000000000000000000000000000000000000000000000000000000 PUSH0 MSTORE PUSH1 0x22 PUSH1 0x4 MSTORE PUSH1 0x24 PUSH0 REVERT JUMPDEST PUSH0 PUSH1 0x2 DUP3 DIV SWAP1 POP PUSH1 0x1 DUP3 AND DUP1 PUSH2 0x1CD7 JUMPI PUSH1 0x7F DUP3 AND SWAP2 POP JUMPDEST PUSH1 0x20 DUP3 LT DUP2 SUB PUSH2 0x1CEA JUMPI PUSH2 0x1CE9 PUSH2 0x1C93 JUMP JUMPDEST JUMPDEST POP SWAP2 SWAP1 POP JUMP JUMPDEST PUSH0 DUP2 SWAP1 POP DUP2 PUSH0 MSTORE PUSH1 0x20 PUSH0 KECCAK256 SWAP1 POP SWAP2 SWAP1 POP JUMP JUMPDEST PUSH0 PUSH1 0x20 PUSH1 0x1F DUP4 ADD DIV SWAP1 POP SWAP2 SWAP1 POP JUMP JUMPDEST PUSH0 DUP3 DUP3 SHL SWAP1 POP SWAP3 SWAP2 POP POP JUMP JUMPDEST PUSH0 PUSH1 0x8 DUP4 MUL PUSH2 0x1D4C PUSH32 0xFFFFFFFFFFFFFFFFFFFFFFFFFFFFFFFFFFFFFFFFFFFFFFFFFFFFFFFFFFFFFFFF DUP3 PUSH2 0x1D11 JUMP JUMPDEST PUSH2 0x1D56 DUP7 DUP4 PUSH2 0x1D11 JUMP JUMPDEST SWAP6 POP DUP1 NOT DUP5 AND SWAP4 POP DUP1 DUP7 AND DUP5 OR SWAP3 POP POP POP SWAP4 SWAP3 POP POP POP JUMP JUMPDEST PUSH0 DUP2 SWAP1 POP SWAP2 SWAP1 POP JUMP JUMPDEST PUSH0 PUSH2 0x1D91 PUSH2 0x1D8C PUSH2 0x1D87 DUP5 PUSH2 0x17BB JUMP JUMPDEST PUSH2 0x1D6E JUMP JUMPDEST PUSH2 0x17BB JUMP JUMPDEST SWAP1 POP SWAP2 SWAP1 POP JUMP JUMPDEST PUSH0 DUP2 SWAP1 POP SWAP2 SWAP1 POP JUMP JUMPDEST PUSH2 0x1DAA DUP4 PUSH2 0x1D77 JUMP JUMPDEST PUSH2 0x1DBE PUSH2 0x1DB6 DUP3 PUSH2 0x1D98 JUMP JUMPDEST DUP5 DUP5 SLOAD PUSH2 0x1D1D JUMP JUMPDEST DUP3 SSTORE POP POP POP POP JUMP JUMPDEST PUSH0 SWAP1 JUMP JUMPDEST PUSH2 0x1DD2 PUSH2 0x1DC6 JUMP JUMPDEST PUSH2 0x1DDD DUP2 DUP5 DUP5 PUSH2 0x1DA1 JUMP JUMPDEST POP POP POP JUMP JUMPDEST JUMPDEST DUP2 DUP2 LT ISZERO PUSH2 0x1E00 JUMPI PUSH2 0x1DF5 PUSH0 DUP3 PUSH2 0x1DCA JUMP JUMPDEST PUSH1 0x1 DUP2 ADD SWAP1 POP PUSH2 0x1DE3 JUMP JUMPDEST POP POP JUMP JUMPDEST PUSH1 0x1F DUP3 GT ISZERO PUSH2 0x1E45 JUMPI PUSH2 0x1E16 DUP2 PUSH2 0x1CF0 JUMP JUMPDEST PUSH2 0x1E1F DUP5 PUSH2 0x1D02 JUMP JUMPDEST DUP2 ADD PUSH1 0x20 DUP6 LT ISZERO PUSH2 0x1E2E JUMPI DUP2 SWAP1 POP JUMPDEST PUSH2 0x1E42 PUSH2 0x1E3A DUP6 PUSH2 0x1D02 JUMP JUMPDEST DUP4 ADD DUP3 PUSH2 0x1DE2 JUMP JUMPDEST POP POP JUMPDEST POP POP POP JUMP JUMPDEST PUSH0 DUP3 DUP3 SHR SWAP1 POP SWAP3 SWAP2 POP POP JUMP JUMPDEST PUSH0 PUSH2 0x1E65 PUSH0 NOT DUP5 PUSH1 0x8 MUL PUSH2 0x1E4A JUMP JUMPDEST NOT DUP1 DUP4 AND SWAP2 POP POP SWAP3 SWAP2 POP POP JUMP JUMPDEST PUSH0 PUSH2 0x1E7D DUP4 DUP4 PUSH2 0x1E56 JUMP JUMPDEST SWAP2 POP DUP3 PUSH1 0x2 MUL DUP3 OR SWAP1 POP SWAP3 SWAP2 POP POP JUMP JUMPDEST PUSH2 0x1E96 DUP3 PUSH2 0x1A29 JUMP JUMPDEST PUSH8 0xFFFFFFFFFFFFFFFF DUP2 GT ISZERO PUSH2 0x1EAF JUMPI PUSH2 0x1EAE PUSH2 0x163D JUMP JUMPDEST JUMPDEST PUSH2 0x1EB9 DUP3 SLOAD PUSH2 0x1CC0 JUMP JUMPDEST PUSH2 0x1EC4 DUP3 DUP3 DUP6 PUSH2 0x1E04 JUMP JUMPDEST PUSH0 PUSH1 0x20 SWAP1 POP PUSH1 0x1F DUP4 GT PUSH1 0x1 DUP2 EQ PUSH2 0x1EF5 JUMPI PUSH0 DUP5 ISZERO PUSH2 0x1EE3 JUMPI DUP3 DUP8 ADD MLOAD SWAP1 POP JUMPDEST PUSH2 0x1EED DUP6 DUP3 PUSH2 0x1E72 JUMP JUMPDEST DUP7 SSTORE POP PUSH2 0x1F54 JUMP JUMPDEST PUSH1 0x1F NOT DUP5 AND PUSH2 0x1F03 DUP7 PUSH2 0x1CF0 JUMP JUMPDEST PUSH0 JUMPDEST DUP3 DUP2 LT ISZERO PUSH2 0x1F2A JUMPI DUP5 DUP10 ADD MLOAD DUP3 SSTORE PUSH1 0x1 DUP3 ADD SWAP2 POP PUSH1 0x20 DUP6 ADD SWAP5 POP PUSH1 0x20 DUP2 ADD SWAP1 POP PUSH2 0x1F05 JUMP JUMPDEST DUP7 DUP4 LT ISZERO PUSH2 0x1F47 JUMPI DUP5 DUP10 ADD MLOAD PUSH2 0x1F43 PUSH1 0x1F DUP10 AND DUP3 PUSH2 0x1E56 JUMP JUMPDEST DUP4 SSTORE POP JUMPDEST PUSH1 0x1 PUSH1 0x2 DUP9 MUL ADD DUP9 SSTORE POP POP POP JUMPDEST POP POP POP POP POP POP JUMP JUMPDEST PUSH32 0x4E487B7100000000000000000000000000000000000000000000000000000000 PUSH0 MSTORE PUSH1 0x11 PUSH1 0x4 MSTORE PUSH1 0x24 PUSH0 REVERT JUMPDEST PUSH0 PUSH2 0x1F93 DUP3 PUSH2 0x17BB JUMP JUMPDEST SWAP2 POP PUSH2 0x1F9E DUP4 PUSH2 0x17BB JUMP JUMPDEST SWAP3 POP DUP3 DUP3 ADD SWAP1 POP DUP1 DUP3 GT ISZERO PUSH2 0x1FB6 JUMPI PUSH2 0x1FB5 PUSH2 0x1F5C JUMP JUMPDEST JUMPDEST SWAP3 SWAP2 POP POP JUMP JUMPDEST PUSH32 0x564F54494E4720504552494F442048415320454C415053454400000000000000 PUSH0 DUP3 ADD MSTORE POP JUMP JUMPDEST PUSH0 PUSH2 0x1FF0 PUSH1 0x19 DUP4 PUSH2 0x1A33 JUMP JUMPDEST SWAP2 POP PUSH2 0x1FFB DUP3 PUSH2 0x1FBC JUMP JUMPDEST PUSH1 0x20 DUP3 ADD SWAP1 POP SWAP2 SWAP1 POP JUMP JUMPDEST PUSH0 PUSH1 0x20 DUP3 ADD SWAP1 POP DUP2 DUP2 SUB PUSH0 DUP4 ADD MSTORE PUSH2 0x201D DUP2 PUSH2 0x1FE4 JUMP JUMPDEST SWAP1 POP SWAP2 SWAP1 POP JUMP JUMPDEST PUSH0 DUP2 MLOAD SWAP1 POP PUSH2 0x2032 DUP2 PUSH2 0x17C4 JUMP JUMPDEST SWAP3 SWAP2 POP POP JUMP JUMPDEST PUSH0 PUSH1 0x20 DUP3 DUP5 SUB SLT ISZERO PUSH2 0x204D JUMPI PUSH2 0x204C PUSH2 0x161D JUMP JUMPDEST JUMPDEST PUSH0 PUSH2 0x205A DUP5 DUP3 DUP6 ADD PUSH2 0x2024 JUMP JUMPDEST SWAP2 POP POP SWAP3 SWAP2 POP POP JUMP JUMPDEST PUSH32 0x594F55204D55535420504F5353455320544F4B454E7320544F20424520414E20 PUSH0 DUP3 ADD MSTORE PUSH32 0x454C494749424C4520564F544552000000000000000000000000000000000000 PUSH1 0x20 DUP3 ADD MSTORE POP JUMP JUMPDEST PUSH0 PUSH2 0x20BD PUSH1 0x2E DUP4 PUSH2 0x1A33 JUMP JUMPDEST SWAP2 POP PUSH2 0x20C8 DUP3 PUSH2 0x2063 JUMP JUMPDEST PUSH1 0x40 DUP3 ADD SWAP1 POP SWAP2 SWAP1 POP JUMP JUMPDEST PUSH0 PUSH1 0x20 DUP3 ADD SWAP1 POP DUP2 DUP2 SUB PUSH0 DUP4 ADD MSTORE PUSH2 0x20EA DUP2 PUSH2 0x20B1 JUMP JUMPDEST SWAP1 POP SWAP2 SWAP1 POP JUMP JUMPDEST PUSH32 0x4D454D424552532043414E204F4E4C592043415354204120564F544520504552 PUSH0 DUP3 ADD MSTORE PUSH32 0x20544F5049430000000000000000000000000000000000000000000000000000 PUSH1 0x20 DUP3 ADD MSTORE POP JUMP JUMPDEST PUSH0 PUSH2 0x214B PUSH1 0x26 DUP4 PUSH2 0x1A33 JUMP JUMPDEST SWAP2 POP PUSH2 0x2156 DUP3 PUSH2 0x20F1 JUMP JUMPDEST PUSH1 0x40 DUP3 ADD SWAP1 POP SWAP2 SWAP1 POP JUMP JUMPDEST PUSH0 PUSH1 0x20 DUP3 ADD SWAP1 POP DUP2 DUP2 SUB PUSH0 DUP4 ADD MSTORE PUSH2 0x2178 DUP2 PUSH2 0x213F JUMP JUMPDEST SWAP1 POP SWAP2 SWAP1 POP JUMP JUMPDEST PUSH0 PUSH1 0x40 DUP3 ADD SWAP1 POP PUSH2 0x2192 PUSH0 DUP4 ADD DUP6 PUSH2 0x18FD JUMP JUMPDEST PUSH2 0x219F PUSH1 0x20 DUP4 ADD DUP5 PUSH2 0x1963 JUMP JUMPDEST SWAP4 SWAP3 POP POP POP JUMP JUMPDEST PUSH32 0x5448524553484F4C44204E4F5420455843454544454400000000000000000000 PUSH0 DUP3 ADD MSTORE POP JUMP JUMPDEST PUSH0 PUSH2 0x21DA PUSH1 0x16 DUP4 PUSH2 0x1A33 JUMP JUMPDEST SWAP2 POP PUSH2 0x21E5 DUP3 PUSH2 0x21A6 JUMP JUMPDEST PUSH1 0x20 DUP3 ADD SWAP1 POP SWAP2 SWAP1 POP JUMP JUMPDEST PUSH0 PUSH1 0x20 DUP3 ADD SWAP1 POP DUP2 DUP2 SUB PUSH0 DUP4 ADD MSTORE PUSH2 0x2207 DUP2 PUSH2 0x21CE JUMP JUMPDEST SWAP1 POP SWAP2 SWAP1 POP JUMP JUMPDEST PUSH0 DUP2 SWAP1 POP SWAP3 SWAP2 POP POP JUMP JUMPDEST PUSH0 PUSH2 0x2222 DUP3 PUSH2 0x1A29 JUMP JUMPDEST PUSH2 0x222C DUP2 DUP6 PUSH2 0x220E JUMP JUMPDEST SWAP4 POP PUSH2 0x223C DUP2 DUP6 PUSH1 0x20 DUP7 ADD PUSH2 0x1A43 JUMP JUMPDEST DUP1 DUP5 ADD SWAP2 POP POP SWAP3 SWAP2 POP POP JUMP JUMPDEST PUSH0 PUSH2 0x2253 DUP3 DUP5 PUSH2 0x2218 JUMP JUMPDEST SWAP2 POP DUP2 SWAP1 POP SWAP3 SWAP2 POP POP JUMP JUMPDEST PUSH0 DUP2 MLOAD SWAP1 POP SWAP2 SWAP1 POP JUMP JUMPDEST PUSH0 DUP2 SWAP1 POP SWAP3 SWAP2 POP POP JUMP JUMPDEST PUSH0 PUSH2 0x227C DUP3 PUSH2 0x225E JUMP JUMPDEST PUSH2 0x2286 DUP2 DUP6 PUSH2 0x2268 JUMP JUMPDEST SWAP4 POP PUSH2 0x2296 DUP2 DUP6 PUSH1 0x20 DUP7 ADD PUSH2 0x1A43 JUMP JUMPDEST DUP1 DUP5 ADD SWAP2 POP POP SWAP3 SWAP2 POP POP JUMP JUMPDEST PUSH0 PUSH2 0x22AD DUP3 DUP5 PUSH2 0x2272 JUMP JUMPDEST SWAP2 POP DUP2 SWAP1 POP SWAP3 SWAP2 POP POP JUMP JUMPDEST PUSH32 0x4641494C454420544F20494D504C454D454E5400000000000000000000000000 PUSH0 DUP3 ADD MSTORE POP JUMP JUMPDEST PUSH0 PUSH2 0x22EC PUSH1 0x13 DUP4 PUSH2 0x1A33 JUMP JUMPDEST SWAP2 POP PUSH2 0x22F7 DUP3 PUSH2 0x22B8 JUMP JUMPDEST PUSH1 0x20 DUP3 ADD SWAP1 POP SWAP2 SWAP1 POP JUMP JUMPDEST PUSH0 PUSH1 0x20 DUP3 ADD SWAP1 POP DUP2 DUP2 SUB PUSH0 DUP4 ADD MSTORE PUSH2 0x2319 DUP2 PUSH2 0x22E0 JUMP JUMPDEST SWAP1 POP SWAP2 SWAP1 POP JUMP JUMPDEST PUSH32 0x4E487B7100000000000000000000000000000000000000000000000000000000 PUSH0 MSTORE PUSH1 0x12 PUSH1 0x4 MSTORE PUSH1 0x24 PUSH0 REVERT INVALID LOG2 PUSH5 0x6970667358 0x22 SLT KECCAK256 SELFDESTRUCT PUSH31 0xB54EAAD063B9016D3FF9B5DFC6E857C84B0BC9894A00A26D7644F5A0A20F64 PUSH20 0x6F6C634300081600330000000000000000000000 "
				},
				"gasEstimates": {
					"creation": {
						"codeDepositCost": "1818200",
						"executionCost": "infinite",
						"totalCost": "infinite"
					},
					"external": {
						"Members(address)": "infinite",
						"Topics(uint256)": "infinite",
						"ballots(address,uint256)": "infinite",
						"cast_vote(uint256,bool)": "infinite",
						"counter()": "2448",
						"implement_decision(uint256)": "infinite",
						"implementation_delay()": "2470",
						"initiate_topic(string,address,uint256,string)": "infinite",
						"quorum(uint256,uint256)": "infinite",
						"register(string)": "infinite",
						"returned()": "2492",
						"utility_token_address()": "2552",
						"votes(uint256)": "infinite",
						"voting_duration()": "2492"
					}
				},
				"methodIdentifiers": {
					"Members(address)": "fd0f0166",
					"Topics(uint256)": "5bb6d284",
					"ballots(address,uint256)": "54b598ec",
					"cast_vote(uint256,bool)": "1c8dd214",
					"counter()": "61bc221a",
					"implement_decision(uint256)": "a060acfa",
					"implementation_delay()": "67358c96",
					"initiate_topic(string,address,uint256,string)": "0befdc15",
					"quorum(uint256,uint256)": "47411226",
					"register(string)": "f2c298be",
					"returned()": "6cb76408",
					"utility_token_address()": "a0a67c58",
					"votes(uint256)": "5df81330",
					"voting_duration()": "3153cebc"
				}
			},
			"storageLayout": {
				"storage": [
					{
						"astId": 1460,
						"contract": "backEnd/contracts/BUNN_Governor_Proxy.sol:BUNN_GOVERNOR",
						"label": "voting_duration",
						"offset": 0,
						"slot": "0",
						"type": "t_uint256"
					},
					{
						"astId": 1463,
						"contract": "backEnd/contracts/BUNN_Governor_Proxy.sol:BUNN_GOVERNOR",
						"label": "implementation_delay",
						"offset": 0,
						"slot": "1",
						"type": "t_uint256"
					},
					{
						"astId": 1061,
						"contract": "backEnd/contracts/BUNN_Governor_Proxy.sol:BUNN_GOVERNOR",
						"label": "utility_token_address",
						"offset": 0,
						"slot": "2",
						"type": "t_address"
					},
					{
						"astId": 1063,
						"contract": "backEnd/contracts/BUNN_Governor_Proxy.sol:BUNN_GOVERNOR",
						"label": "returned",
						"offset": 0,
						"slot": "3",
						"type": "t_uint256"
					},
					{
						"astId": 1073,
						"contract": "backEnd/contracts/BUNN_Governor_Proxy.sol:BUNN_GOVERNOR",
						"label": "Members",
						"offset": 0,
						"slot": "4",
						"type": "t_mapping(t_address,t_struct(Member)1068_storage)"
					},
					{
						"astId": 1087,
						"contract": "backEnd/contracts/BUNN_Governor_Proxy.sol:BUNN_GOVERNOR",
						"label": "ballots",
						"offset": 0,
						"slot": "5",
						"type": "t_mapping(t_address,t_mapping(t_uint256,t_struct(ballot)1080_storage))"
					},
					{
						"astId": 1097,
						"contract": "backEnd/contracts/BUNN_Governor_Proxy.sol:BUNN_GOVERNOR",
						"label": "votes",
						"offset": 0,
						"slot": "6",
						"type": "t_mapping(t_uint256,t_struct(vote)1092_storage)"
					},
					{
						"astId": 1119,
						"contract": "backEnd/contracts/BUNN_Governor_Proxy.sol:BUNN_GOVERNOR",
						"label": "counter",
						"offset": 0,
						"slot": "7",
						"type": "t_uint256"
					},
					{
						"astId": 1124,
						"contract": "backEnd/contracts/BUNN_Governor_Proxy.sol:BUNN_GOVERNOR",
						"label": "Topics",
						"offset": 0,
						"slot": "8",
						"type": "t_mapping(t_uint256,t_struct(Topic)1116_storage)"
					}
				],
				"types": {
					"t_address": {
						"encoding": "inplace",
						"label": "address",
						"numberOfBytes": "20"
					},
					"t_bool": {
						"encoding": "inplace",
						"label": "bool",
						"numberOfBytes": "1"
					},
					"t_mapping(t_address,t_mapping(t_uint256,t_struct(ballot)1080_storage))": {
						"encoding": "mapping",
						"key": "t_address",
						"label": "mapping(address => mapping(uint256 => struct BUNN_GOVERNOR.ballot))",
						"numberOfBytes": "32",
						"value": "t_mapping(t_uint256,t_struct(ballot)1080_storage)"
					},
					"t_mapping(t_address,t_struct(Member)1068_storage)": {
						"encoding": "mapping",
						"key": "t_address",
						"label": "mapping(address => struct BUNN_GOVERNOR.Member)",
						"numberOfBytes": "32",
						"value": "t_struct(Member)1068_storage"
					},
					"t_mapping(t_uint256,t_struct(Topic)1116_storage)": {
						"encoding": "mapping",
						"key": "t_uint256",
						"label": "mapping(uint256 => struct BUNN_GOVERNOR.Topic)",
						"numberOfBytes": "32",
						"value": "t_struct(Topic)1116_storage"
					},
					"t_mapping(t_uint256,t_struct(ballot)1080_storage)": {
						"encoding": "mapping",
						"key": "t_uint256",
						"label": "mapping(uint256 => struct BUNN_GOVERNOR.ballot)",
						"numberOfBytes": "32",
						"value": "t_struct(ballot)1080_storage"
					},
					"t_mapping(t_uint256,t_struct(vote)1092_storage)": {
						"encoding": "mapping",
						"key": "t_uint256",
						"label": "mapping(uint256 => struct BUNN_GOVERNOR.vote)",
						"numberOfBytes": "32",
						"value": "t_struct(vote)1092_storage"
					},
					"t_string_storage": {
						"encoding": "bytes",
						"label": "string",
						"numberOfBytes": "32"
					},
					"t_struct(Member)1068_storage": {
						"encoding": "inplace",
						"label": "struct BUNN_GOVERNOR.Member",
						"members": [
							{
								"astId": 1065,
								"contract": "backEnd/contracts/BUNN_Governor_Proxy.sol:BUNN_GOVERNOR",
								"label": "name",
								"offset": 0,
								"slot": "0",
								"type": "t_string_storage"
							},
							{
								"astId": 1067,
								"contract": "backEnd/contracts/BUNN_Governor_Proxy.sol:BUNN_GOVERNOR",
								"label": "belongs",
								"offset": 0,
								"slot": "1",
								"type": "t_bool"
							}
						],
						"numberOfBytes": "64"
					},
					"t_struct(Topic)1116_storage": {
						"encoding": "inplace",
						"label": "struct BUNN_GOVERNOR.Topic",
						"members": [
							{
								"astId": 1099,
								"contract": "backEnd/contracts/BUNN_Governor_Proxy.sol:BUNN_GOVERNOR",
								"label": "id",
								"offset": 0,
								"slot": "0",
								"type": "t_uint256"
							},
							{
								"astId": 1101,
								"contract": "backEnd/contracts/BUNN_Governor_Proxy.sol:BUNN_GOVERNOR",
								"label": "Title",
								"offset": 0,
								"slot": "1",
								"type": "t_string_storage"
							},
							{
								"astId": 1103,
								"contract": "backEnd/contracts/BUNN_Governor_Proxy.sol:BUNN_GOVERNOR",
								"label": "initiator",
								"offset": 0,
								"slot": "2",
								"type": "t_address"
							},
							{
								"astId": 1105,
								"contract": "backEnd/contracts/BUNN_Governor_Proxy.sol:BUNN_GOVERNOR",
								"label": "implementation_contract_address",
								"offset": 0,
								"slot": "3",
								"type": "t_address"
							},
							{
								"astId": 1107,
								"contract": "backEnd/contracts/BUNN_Governor_Proxy.sol:BUNN_GOVERNOR",
								"label": "implementation_contract_argument",
								"offset": 0,
								"slot": "4",
								"type": "t_uint256"
							},
							{
								"astId": 1109,
								"contract": "backEnd/contracts/BUNN_Governor_Proxy.sol:BUNN_GOVERNOR",
								"label": "signature",
								"offset": 0,
								"slot": "5",
								"type": "t_string_storage"
							},
							{
								"astId": 1111,
								"contract": "backEnd/contracts/BUNN_Governor_Proxy.sol:BUNN_GOVERNOR",
								"label": "start_time",
								"offset": 0,
								"slot": "6",
								"type": "t_uint256"
							},
							{
								"astId": 1113,
								"contract": "backEnd/contracts/BUNN_Governor_Proxy.sol:BUNN_GOVERNOR",
								"label": "executed",
								"offset": 0,
								"slot": "7",
								"type": "t_bool"
							},
							{
								"astId": 1115,
								"contract": "backEnd/contracts/BUNN_Governor_Proxy.sol:BUNN_GOVERNOR",
								"label": "cancelled",
								"offset": 1,
								"slot": "7",
								"type": "t_bool"
							}
						],
						"numberOfBytes": "256"
					},
					"t_struct(ballot)1080_storage": {
						"encoding": "inplace",
						"label": "struct BUNN_GOVERNOR.ballot",
						"members": [
							{
								"astId": 1075,
								"contract": "backEnd/contracts/BUNN_Governor_Proxy.sol:BUNN_GOVERNOR",
								"label": "Topic_ID",
								"offset": 0,
								"slot": "0",
								"type": "t_uint256"
							},
							{
								"astId": 1077,
								"contract": "backEnd/contracts/BUNN_Governor_Proxy.sol:BUNN_GOVERNOR",
								"label": "position",
								"offset": 0,
								"slot": "1",
								"type": "t_bool"
							},
							{
								"astId": 1079,
								"contract": "backEnd/contracts/BUNN_Governor_Proxy.sol:BUNN_GOVERNOR",
								"label": "voted",
								"offset": 1,
								"slot": "1",
								"type": "t_bool"
							}
						],
						"numberOfBytes": "64"
					},
					"t_struct(vote)1092_storage": {
						"encoding": "inplace",
						"label": "struct BUNN_GOVERNOR.vote",
						"members": [
							{
								"astId": 1089,
								"contract": "backEnd/contracts/BUNN_Governor_Proxy.sol:BUNN_GOVERNOR",
								"label": "for_votes",
								"offset": 0,
								"slot": "0",
								"type": "t_uint256"
							},
							{
								"astId": 1091,
								"contract": "backEnd/contracts/BUNN_Governor_Proxy.sol:BUNN_GOVERNOR",
								"label": "against_votes",
								"offset": 0,
								"slot": "1",
								"type": "t_uint256"
							}
						],
						"numberOfBytes": "64"
					},
					"t_uint256": {
						"encoding": "inplace",
						"label": "uint256",
						"numberOfBytes": "32"
					}
				}
			},
			"userdoc": {
				"kind": "user",
				"methods": {},
				"version": 1
			}
		}
	}
}