{
  "address": "0x7aA317628d0A0ff941a6467BD4d5d28A49b6fc85",
  "abi": [
    {
      "inputs": [],
      "stateMutability": "nonpayable",
      "type": "constructor"
    },
    {
      "inputs": [],
      "name": "MathOverflowedMulDiv",
      "type": "error"
    },
    {
      "anonymous": false,
      "inputs": [
        {
          "indexed": false,
          "internalType": "string",
          "name": "title",
          "type": "string"
        },
        {
          "indexed": false,
          "internalType": "uint256",
          "name": "topic_id",
          "type": "uint256"
        },
        {
          "indexed": false,
          "internalType": "bool",
          "name": "implemented",
          "type": "bool"
        }
      ],
      "name": "decision_implemented",
      "type": "event"
    },
    {
      "anonymous": false,
      "inputs": [
        {
          "indexed": true,
          "internalType": "address",
          "name": "newAdmin",
          "type": "address"
        }
      ],
      "name": "new_Admin",
      "type": "event"
    },
    {
      "anonymous": false,
      "inputs": [
        {
          "indexed": true,
          "internalType": "address",
          "name": "new_member",
          "type": "address"
        }
      ],
      "name": "new_member",
      "type": "event"
    },
    {
      "anonymous": false,
      "inputs": [
        {
          "indexed": true,
          "internalType": "address",
          "name": "proposer",
          "type": "address"
        },
        {
          "indexed": false,
          "internalType": "string",
          "name": "topic",
          "type": "string"
        }
      ],
      "name": "proposal_made",
      "type": "event"
    },
    {
      "anonymous": false,
      "inputs": [
        {
          "indexed": true,
          "internalType": "address",
          "name": "demotedAdmin",
          "type": "address"
        }
      ],
      "name": "remove_Admin",
      "type": "event"
    },
    {
      "anonymous": false,
      "inputs": [
        {
          "indexed": true,
          "internalType": "address",
          "name": "participant",
          "type": "address"
        },
        {
          "indexed": false,
          "internalType": "uint256",
          "name": "topic_acted_on",
          "type": "uint256"
        },
        {
          "indexed": false,
          "internalType": "bool",
          "name": "position",
          "type": "bool"
        }
      ],
      "name": "vote_cast",
      "type": "event"
    },
    {
      "inputs": [
        {
          "internalType": "address",
          "name": "",
          "type": "address"
        }
      ],
      "name": "Members",
      "outputs": [
        {
          "internalType": "string",
          "name": "name",
          "type": "string"
        },
        {
          "internalType": "bool",
          "name": "belongs",
          "type": "bool"
        }
      ],
      "stateMutability": "view",
      "type": "function"
    },
    {
      "inputs": [
        {
          "internalType": "uint256",
          "name": "",
          "type": "uint256"
        }
      ],
      "name": "Topics",
      "outputs": [
        {
          "internalType": "uint256",
          "name": "id",
          "type": "uint256"
        },
        {
          "internalType": "string",
          "name": "title",
          "type": "string"
        },
        {
          "internalType": "address",
          "name": "initiator",
          "type": "address"
        },
        {
          "internalType": "string",
          "name": "details",
          "type": "string"
        },
        {
          "internalType": "address",
          "name": "implementation_contract_address",
          "type": "address"
        },
        {
          "internalType": "string",
          "name": "signature",
          "type": "string"
        },
        {
          "internalType": "uint256",
          "name": "start_time",
          "type": "uint256"
        },
        {
          "internalType": "bool",
          "name": "executed",
          "type": "bool"
        },
        {
          "internalType": "bool",
          "name": "cancelled",
          "type": "bool"
        }
      ],
      "stateMutability": "view",
      "type": "function"
    },
    {
      "inputs": [
        {
          "internalType": "address",
          "name": "newAdmin",
          "type": "address"
        }
      ],
      "name": "addAdmin",
      "outputs": [],
      "stateMutability": "nonpayable",
      "type": "function"
    },
    {
      "inputs": [
        {
          "internalType": "address",
          "name": "",
          "type": "address"
        }
      ],
      "name": "admin",
      "outputs": [
        {
          "internalType": "bool",
          "name": "is_admin",
          "type": "bool"
        },
        {
          "internalType": "uint256",
          "name": "removers",
          "type": "uint256"
        },
        {
          "internalType": "uint256",
          "name": "adders",
          "type": "uint256"
        }
      ],
      "stateMutability": "view",
      "type": "function"
    },
    {
      "inputs": [
        {
          "internalType": "address",
          "name": "",
          "type": "address"
        },
        {
          "internalType": "uint256",
          "name": "",
          "type": "uint256"
        }
      ],
      "name": "ballots",
      "outputs": [
        {
          "internalType": "uint256",
          "name": "Topic_ID",
          "type": "uint256"
        },
        {
          "internalType": "bool",
          "name": "position",
          "type": "bool"
        },
        {
          "internalType": "bool",
          "name": "voted",
          "type": "bool"
        },
        {
          "internalType": "uint256",
          "name": "voting_power",
          "type": "uint256"
        }
      ],
      "stateMutability": "view",
      "type": "function"
    },
    {
      "inputs": [
        {
          "internalType": "uint256",
          "name": "topic_id",
          "type": "uint256"
        },
        {
          "internalType": "bool",
          "name": "position_",
          "type": "bool"
        }
      ],
      "name": "cast_vote",
      "outputs": [],
      "stateMutability": "nonpayable",
      "type": "function"
    },
    {
      "inputs": [],
      "name": "counter",
      "outputs": [
        {
          "internalType": "uint256",
          "name": "",
          "type": "uint256"
        }
      ],
      "stateMutability": "view",
      "type": "function"
    },
    {
      "inputs": [
        {
          "internalType": "uint256",
          "name": "topic_id",
          "type": "uint256"
        },
        {
          "internalType": "bool",
          "name": "_override",
          "type": "bool"
        }
      ],
      "name": "implement_decision",
      "outputs": [],
      "stateMutability": "payable",
      "type": "function"
    },
    {
      "inputs": [],
      "name": "implementation_delay",
      "outputs": [
        {
          "internalType": "uint256",
          "name": "",
          "type": "uint256"
        }
      ],
      "stateMutability": "view",
      "type": "function"
    },
    {
      "inputs": [
        {
          "internalType": "string",
          "name": "title_",
          "type": "string"
        },
        {
          "internalType": "string",
          "name": "details_",
          "type": "string"
        },
        {
          "internalType": "address",
          "name": "implementation_contract_address_",
          "type": "address"
        },
        {
          "internalType": "string",
          "name": "signature_",
          "type": "string"
        }
      ],
      "name": "initiate_topic",
      "outputs": [],
      "stateMutability": "nonpayable",
      "type": "function"
    },
    {
      "inputs": [],
      "name": "logic_contract",
      "outputs": [
        {
          "internalType": "address",
          "name": "",
          "type": "address"
        }
      ],
      "stateMutability": "view",
      "type": "function"
    },
    {
      "inputs": [
        {
          "internalType": "uint256",
          "name": "target",
          "type": "uint256"
        },
        {
          "internalType": "uint256",
          "name": "comparison",
          "type": "uint256"
        }
      ],
      "name": "quorum",
      "outputs": [
        {
          "internalType": "bool",
          "name": "",
          "type": "bool"
        }
      ],
      "stateMutability": "pure",
      "type": "function"
    },
    {
      "inputs": [
        {
          "internalType": "string",
          "name": "name_",
          "type": "string"
        }
      ],
      "name": "register",
      "outputs": [],
      "stateMutability": "nonpayable",
      "type": "function"
    },
    {
      "inputs": [
        {
          "internalType": "address",
          "name": "demotedAdmin",
          "type": "address"
        }
      ],
      "name": "removeAdmin",
      "outputs": [],
      "stateMutability": "nonpayable",
      "type": "function"
    },
    {
      "inputs": [],
      "name": "returned",
      "outputs": [
        {
          "internalType": "uint256",
          "name": "",
          "type": "uint256"
        }
      ],
      "stateMutability": "view",
      "type": "function"
    },
    {
      "inputs": [],
      "name": "utility_token_address",
      "outputs": [
        {
          "internalType": "address",
          "name": "",
          "type": "address"
        }
      ],
      "stateMutability": "view",
      "type": "function"
    },
    {
      "inputs": [
        {
          "internalType": "uint256",
          "name": "",
          "type": "uint256"
        }
      ],
      "name": "votes",
      "outputs": [
        {
          "internalType": "uint256",
          "name": "for_votes",
          "type": "uint256"
        },
        {
          "internalType": "uint256",
          "name": "against_votes",
          "type": "uint256"
        }
      ],
      "stateMutability": "view",
      "type": "function"
    },
    {
      "inputs": [],
      "name": "voting_duration",
      "outputs": [
        {
          "internalType": "uint256",
          "name": "",
          "type": "uint256"
        }
      ],
      "stateMutability": "view",
      "type": "function"
    }
  ],
  "transactionHash": "0x40033232a3b4ade4aa095e738ef226e490d58ebd0b5bcf360775346e6f3d80e9",
  "args": [],
  "numDeployments": 1,
  "solcInputHash": "3ce0def368e4b440a13c056b42b98216",
  "bytecode": "0x6080604052600160095562069780600a5562015180600b5534801561002357600080fd5b5061297d806100336000396000f3fe6080604052600436106101095760003560e01c806363a846f811610095578063704802751161006457806370480275146103925780637d1592f3146103bb578063a0a67c58146103e4578063f2c298be1461040f578063fd0f01661461043857610109565b806363a846f8146102e157806367358c96146103205780636a87db181461034b5780636cb764081461036757610109565b80634de94320116100dc5780634de94320146101c857806354b598ec146101f35780635bb6d284146102335780635df813301461027857806361bc221a146102b657610109565b80631785f53c1461010e5780631c8dd214146101375780633153cebc14610160578063474112261461018b575b600080fd5b34801561011a57600080fd5b5061013560048036038101906101309190611aca565b610476565b005b34801561014357600080fd5b5061015e60048036038101906101599190611b65565b610730565b005b34801561016c57600080fd5b50610175610734565b6040516101829190611bb4565b60405180910390f35b34801561019757600080fd5b506101b260048036038101906101ad9190611bcf565b61073a565b6040516101bf9190611c1e565b60405180910390f35b3480156101d457600080fd5b506101dd610771565b6040516101ea9190611c48565b60405180910390f35b3480156101ff57600080fd5b5061021a60048036038101906102159190611c63565b610797565b60405161022a9493929190611ca3565b60405180910390f35b34801561023f57600080fd5b5061025a60048036038101906102559190611ce8565b6107ee565b60405161026f99989796959493929190611da5565b60405180910390f35b34801561028457600080fd5b5061029f600480360381019061029a9190611ce8565b610a2e565b6040516102ad929190611e47565b60405180910390f35b3480156102c257600080fd5b506102cb610a52565b6040516102d89190611bb4565b60405180910390f35b3480156102ed57600080fd5b5061030860048036038101906103039190611aca565b610a58565b60405161031793929190611e70565b60405180910390f35b34801561032c57600080fd5b50610335610a8f565b6040516103429190611bb4565b60405180910390f35b61036560048036038101906103609190611b65565b610a95565b005b34801561037357600080fd5b5061037c611124565b6040516103899190611bb4565b60405180910390f35b34801561039e57600080fd5b506103b960048036038101906103b49190611aca565b61112a565b005b3480156103c757600080fd5b506103e260048036038101906103dd9190611fdc565b61143b565b005b3480156103f057600080fd5b506103f96116f0565b6040516104069190611c48565b60405180910390f35b34801561041b57600080fd5b5061043660048036038101906104319190612097565b611714565b005b34801561044457600080fd5b5061045f600480360381019061045a9190611aca565b6117ea565b60405161046d9291906120e0565b60405180910390f35b600360003373ffffffffffffffffffffffffffffffffffffffff1673ffffffffffffffffffffffffffffffffffffffff16815260200190815260200160002060000160009054906101000a900460ff16610505576040517f08c379a00000000000000000000000000000000000000000000000000000000081526004016104fc9061215c565b60405180910390fd5b600160048054905061051791906121ab565b600360008373ffffffffffffffffffffffffffffffffffffffff1673ffffffffffffffffffffffffffffffffffffffff1681526020019081526020016000206001015410610654576000600360008373ffffffffffffffffffffffffffffffffffffffff1673ffffffffffffffffffffffffffffffffffffffff16815260200190815260200160002060000160006101000a81548160ff0219169083151502179055506001600360008373ffffffffffffffffffffffffffffffffffffffff1673ffffffffffffffffffffffffffffffffffffffff1681526020019081526020016000206001015461060991906121df565b600360008373ffffffffffffffffffffffffffffffffffffffff1673ffffffffffffffffffffffffffffffffffffffff168152602001908152602001600020600101819055506106ea565b6001600360008373ffffffffffffffffffffffffffffffffffffffff1673ffffffffffffffffffffffffffffffffffffffff168152602001908152602001600020600101546106a391906121df565b600360008373ffffffffffffffffffffffffffffffffffffffff1673ffffffffffffffffffffffffffffffffffffffff168152602001908152602001600020600101819055505b8073ffffffffffffffffffffffffffffffffffffffff167f923abef5ea1e37ac38f56a77b8133d215c1d3bcd2e3dd88a6120d34f933f3dde60405160405180910390a250565b5050565b600a5481565b600080610754603c6064856118a39092919063ffffffff16565b905080841015610765576000610768565b60015b91505092915050565b600260009054906101000a900473ffffffffffffffffffffffffffffffffffffffff1681565b6006602052816000526040600020602052806000526040600020600091509150508060000154908060010160009054906101000a900460ff16908060010160019054906101000a900460ff16908060020154905084565b600860205280600052604060002060009150905080600001549080600101805461081790612242565b80601f016020809104026020016040519081016040528092919081815260200182805461084390612242565b80156108905780601f1061086557610100808354040283529160200191610890565b820191906000526020600020905b81548152906001019060200180831161087357829003601f168201915b5050505050908060020160009054906101000a900473ffffffffffffffffffffffffffffffffffffffff16908060030180546108cb90612242565b80601f01602080910402602001604051908101604052809291908181526020018280546108f790612242565b80156109445780601f1061091957610100808354040283529160200191610944565b820191906000526020600020905b81548152906001019060200180831161092757829003601f168201915b5050505050908060040160009054906101000a900473ffffffffffffffffffffffffffffffffffffffff169080600501805461097f90612242565b80601f01602080910402602001604051908101604052809291908181526020018280546109ab90612242565b80156109f85780601f106109cd576101008083540402835291602001916109f8565b820191906000526020600020905b8154815290600101906020018083116109db57829003601f168201915b5050505050908060060154908060070160009054906101000a900460ff16908060070160019054906101000a900460ff16905089565b60076020528060005260406000206000915090508060000154908060010154905082565b60095481565b60036020528060005260406000206000915090508060000160009054906101000a900460ff16908060010154908060020154905083565b600b5481565b600360003373ffffffffffffffffffffffffffffffffffffffff1673ffffffffffffffffffffffffffffffffffffffff16815260200190815260200160002060000160009054906101000a900460ff16610b24576040517f08c379a0000000000000000000000000000000000000000000000000000000008152600401610b1b9061215c565b60405180910390fd5b610b2c6119dc565b60006060600060076000878152602001908152602001600020600101546007600088815260200190815260200160002060000154610b6a91906121df565b905060008460c00151600a54610b8091906121df565b9050600860008881526020019081526020016000206040518061012001604052908160008201548152602001600182018054610bbb90612242565b80601f0160208091040260200160405190810160405280929190818152602001828054610be790612242565b8015610c345780601f10610c0957610100808354040283529160200191610c34565b820191906000526020600020905b815481529060010190602001808311610c1757829003601f168201915b505050505081526020016002820160009054906101000a900473ffffffffffffffffffffffffffffffffffffffff1673ffffffffffffffffffffffffffffffffffffffff1673ffffffffffffffffffffffffffffffffffffffff168152602001600382018054610ca390612242565b80601f0160208091040260200160405190810160405280929190818152602001828054610ccf90612242565b8015610d1c5780601f10610cf157610100808354040283529160200191610d1c565b820191906000526020600020905b815481529060010190602001808311610cff57829003601f168201915b505050505081526020016004820160009054906101000a900473ffffffffffffffffffffffffffffffffffffffff1673ffffffffffffffffffffffffffffffffffffffff1673ffffffffffffffffffffffffffffffffffffffff168152602001600582018054610d8b90612242565b80601f0160208091040260200160405190810160405280929190818152602001828054610db790612242565b8015610e045780601f10610dd957610100808354040283529160200191610e04565b820191906000526020600020905b815481529060010190602001808311610de757829003601f168201915b50505050508152602001600682015481526020016007820160009054906101000a900460ff161515151581526020016007820160019054906101000a900460ff1615151515815250509450846080015193508460a00151925085610ea557428111610ea4576040517f08c379a0000000000000000000000000000000000000000000000000000000008152600401610e9b906122e5565b60405180910390fd5b5b610ec560076000898152602001908152602001600020600001548361073a565b610f04576040517f08c379a0000000000000000000000000000000000000000000000000000000008152600401610efb90612351565b60405180910390fd5b84610100015115610f4a576040517f08c379a0000000000000000000000000000000000000000000000000000000008152600401610f41906123bd565b60405180910390fd5b8460e0015115610f8f576040517f08c379a0000000000000000000000000000000000000000000000000000000008152600401610f869061244f565b60405180910390fd5b6000808573ffffffffffffffffffffffffffffffffffffffff16348660405160240160405160208183030381529060405290604051610fce91906124ab565b60405180910390207bffffffffffffffffffffffffffffffffffffffffffffffffffffffff19166020820180517bffffffffffffffffffffffffffffffffffffffffffffffffffffffff83818316178352505050506040516110309190612509565b60006040518083038185875af1925050503d806000811461106d576040519150601f19603f3d011682016040523d82523d6000602084013e611072565b606091505b5091509150816110b7576040517f08c379a00000000000000000000000000000000000000000000000000000000081526004016110ae9061256c565b60405180910390fd5b6110c0896119aa565b7fedfe6669a74a00073a8789cbc880cfb813b394b54c7d0702966ab1099daff7b987602001518a846040516110f79392919061258c565b60405180910390a18080602001905181019061111391906125df565b600181905550505050505050505050565b60015481565b600360003373ffffffffffffffffffffffffffffffffffffffff1673ffffffffffffffffffffffffffffffffffffffff16815260200190815260200160002060000160009054906101000a900460ff166111b9576040517f08c379a00000000000000000000000000000000000000000000000000000000081526004016111b09061215c565b60405180910390fd5b600480549050600360008373ffffffffffffffffffffffffffffffffffffffff1673ffffffffffffffffffffffffffffffffffffffff168152602001908152602001600020600201541061135f576001600360008373ffffffffffffffffffffffffffffffffffffffff1673ffffffffffffffffffffffffffffffffffffffff16815260200190815260200160002060000160006101000a81548160ff0219169083151502179055506004819080600181540180825580915050600190039060005260206000200160009091909190916101000a81548173ffffffffffffffffffffffffffffffffffffffff021916908373ffffffffffffffffffffffffffffffffffffffff1602179055506001600360008373ffffffffffffffffffffffffffffffffffffffff1673ffffffffffffffffffffffffffffffffffffffff1681526020019081526020016000206002015461131491906121df565b600360008373ffffffffffffffffffffffffffffffffffffffff1673ffffffffffffffffffffffffffffffffffffffff168152602001908152602001600020600201819055506113f5565b6001600360008373ffffffffffffffffffffffffffffffffffffffff1673ffffffffffffffffffffffffffffffffffffffff168152602001908152602001600020600201546113ae91906121df565b600360008373ffffffffffffffffffffffffffffffffffffffff1673ffffffffffffffffffffffffffffffffffffffff168152602001908152602001600020600201819055505b8073ffffffffffffffffffffffffffffffffffffffff167fe0c21bf57df59cfc5e2067c75dbfd51a39f17533352ce1cf3a6c713c897a6c0c60405160405180910390a250565b600560003373ffffffffffffffffffffffffffffffffffffffff1673ffffffffffffffffffffffffffffffffffffffff16815260200190815260200160002060010160009054906101000a900460ff166114ca576040517f08c379a00000000000000000000000000000000000000000000000000000000081526004016114c190612658565b60405180910390fd5b600060405180610120016040528060095481526020018681526020013373ffffffffffffffffffffffffffffffffffffffff1681526020018581526020018473ffffffffffffffffffffffffffffffffffffffff1681526020018381526020014281526020016000151581526020016000151581525090508060086000836000015181526020019081526020016000206000820151816000015560208201518160010190816115799190612824565b5060408201518160020160006101000a81548173ffffffffffffffffffffffffffffffffffffffff021916908373ffffffffffffffffffffffffffffffffffffffff16021790555060608201518160030190816115d69190612824565b5060808201518160040160006101000a81548173ffffffffffffffffffffffffffffffffffffffff021916908373ffffffffffffffffffffffffffffffffffffffff16021790555060a08201518160050190816116339190612824565b5060c0820151816006015560e08201518160070160006101000a81548160ff0219169083151502179055506101008201518160070160016101000a81548160ff021916908315150217905550905050600160095461169191906121df565b6009819055503373ffffffffffffffffffffffffffffffffffffffff167fa0236bc57e83de3883ef92ce123949a84eacc1f18abb3808f17239c67fa3df9b82602001516040516116e191906128f6565b60405180910390a25050505050565b60008054906101000a900473ffffffffffffffffffffffffffffffffffffffff1681565b604051806040016040528082815260200160011515815250600560003373ffffffffffffffffffffffffffffffffffffffff1673ffffffffffffffffffffffffffffffffffffffff16815260200190815260200160002060008201518160000190816117809190612824565b5060208201518160010160006101000a81548160ff0219169083151502179055509050503373ffffffffffffffffffffffffffffffffffffffff167fcb02c8e65f4ad1b53d5ad3ed25b4ae62e352a90a7c3f6ba3a49235e22ddf5fd060405160405180910390a250565b600560205280600052604060002060009150905080600001805461180d90612242565b80601f016020809104026020016040519081016040528092919081815260200182805461183990612242565b80156118865780601f1061185b57610100808354040283529160200191611886565b820191906000526020600020905b81548152906001019060200180831161186957829003601f168201915b5050505050908060010160009054906101000a900460ff16905082565b60008083850290506000801985870982811083820303915050600081036118de578382816118d4576118d3612918565b5b04925050506119a3565b808411611917576040517f227bc15300000000000000000000000000000000000000000000000000000000815260040160405180910390fd5b600084868809905082811182039150808303925060008560000386169050808604955080840493506001818260000304019050808302841793506000600287600302189050808702600203810290508087026002038102905080870260020381029050808702600203810290508087026002038102905080870260020381029050808502955050505050505b9392505050565b60016008600083815260200190815260200160002060070160006101000a81548160ff02191690831515021790555050565b6040518061012001604052806000815260200160608152602001600073ffffffffffffffffffffffffffffffffffffffff16815260200160608152602001600073ffffffffffffffffffffffffffffffffffffffff16815260200160608152602001600081526020016000151581526020016000151581525090565b6000604051905090565b600080fd5b600080fd5b600073ffffffffffffffffffffffffffffffffffffffff82169050919050565b6000611a9782611a6c565b9050919050565b611aa781611a8c565b8114611ab257600080fd5b50565b600081359050611ac481611a9e565b92915050565b600060208284031215611ae057611adf611a62565b5b6000611aee84828501611ab5565b91505092915050565b6000819050919050565b611b0a81611af7565b8114611b1557600080fd5b50565b600081359050611b2781611b01565b92915050565b60008115159050919050565b611b4281611b2d565b8114611b4d57600080fd5b50565b600081359050611b5f81611b39565b92915050565b60008060408385031215611b7c57611b7b611a62565b5b6000611b8a85828601611b18565b9250506020611b9b85828601611b50565b9150509250929050565b611bae81611af7565b82525050565b6000602082019050611bc96000830184611ba5565b92915050565b60008060408385031215611be657611be5611a62565b5b6000611bf485828601611b18565b9250506020611c0585828601611b18565b9150509250929050565b611c1881611b2d565b82525050565b6000602082019050611c336000830184611c0f565b92915050565b611c4281611a8c565b82525050565b6000602082019050611c5d6000830184611c39565b92915050565b60008060408385031215611c7a57611c79611a62565b5b6000611c8885828601611ab5565b9250506020611c9985828601611b18565b9150509250929050565b6000608082019050611cb86000830187611ba5565b611cc56020830186611c0f565b611cd26040830185611c0f565b611cdf6060830184611ba5565b95945050505050565b600060208284031215611cfe57611cfd611a62565b5b6000611d0c84828501611b18565b91505092915050565b600081519050919050565b600082825260208201905092915050565b60005b83811015611d4f578082015181840152602081019050611d34565b60008484015250505050565b6000601f19601f8301169050919050565b6000611d7782611d15565b611d818185611d20565b9350611d91818560208601611d31565b611d9a81611d5b565b840191505092915050565b600061012082019050611dbb600083018c611ba5565b8181036020830152611dcd818b611d6c565b9050611ddc604083018a611c39565b8181036060830152611dee8189611d6c565b9050611dfd6080830188611c39565b81810360a0830152611e0f8187611d6c565b9050611e1e60c0830186611ba5565b611e2b60e0830185611c0f565b611e39610100830184611c0f565b9a9950505050505050505050565b6000604082019050611e5c6000830185611ba5565b611e696020830184611ba5565b9392505050565b6000606082019050611e856000830186611c0f565b611e926020830185611ba5565b611e9f6040830184611ba5565b949350505050565b600080fd5b600080fd5b7f4e487b7100000000000000000000000000000000000000000000000000000000600052604160045260246000fd5b611ee982611d5b565b810181811067ffffffffffffffff82111715611f0857611f07611eb1565b5b80604052505050565b6000611f1b611a58565b9050611f278282611ee0565b919050565b600067ffffffffffffffff821115611f4757611f46611eb1565b5b611f5082611d5b565b9050602081019050919050565b82818337600083830152505050565b6000611f7f611f7a84611f2c565b611f11565b905082815260208101848484011115611f9b57611f9a611eac565b5b611fa6848285611f5d565b509392505050565b600082601f830112611fc357611fc2611ea7565b5b8135611fd3848260208601611f6c565b91505092915050565b60008060008060808587031215611ff657611ff5611a62565b5b600085013567ffffffffffffffff81111561201457612013611a67565b5b61202087828801611fae565b945050602085013567ffffffffffffffff81111561204157612040611a67565b5b61204d87828801611fae565b935050604061205e87828801611ab5565b925050606085013567ffffffffffffffff81111561207f5761207e611a67565b5b61208b87828801611fae565b91505092959194509250565b6000602082840312156120ad576120ac611a62565b5b600082013567ffffffffffffffff8111156120cb576120ca611a67565b5b6120d784828501611fae565b91505092915050565b600060408201905081810360008301526120fa8185611d6c565b90506121096020830184611c0f565b9392505050565b7f4143434553532044454e49454421000000000000000000000000000000000000600082015250565b6000612146600e83611d20565b915061215182612110565b602082019050919050565b6000602082019050818103600083015261217581612139565b9050919050565b7f4e487b7100000000000000000000000000000000000000000000000000000000600052601160045260246000fd5b60006121b682611af7565b91506121c183611af7565b92508282039050818111156121d9576121d861217c565b5b92915050565b60006121ea82611af7565b91506121f583611af7565b925082820190508082111561220d5761220c61217c565b5b92915050565b7f4e487b7100000000000000000000000000000000000000000000000000000000600052602260045260246000fd5b6000600282049050600182168061225a57607f821691505b60208210810361226d5761226c612213565b5b50919050565b7f43414e4e4f5420494d504c454d454e54204245434155534520564f54494e472060008201527f4953205354494c4c20494e2050524f4752455353000000000000000000000000602082015250565b60006122cf603483611d20565b91506122da82612273565b604082019050919050565b600060208201905081810360008301526122fe816122c2565b9050919050565b7f5448524553484f4c44204e4f5420455843454544454400000000000000000000600082015250565b600061233b601683611d20565b915061234682612305565b602082019050919050565b6000602082019050818103600083015261236a8161232e565b9050919050565b7f5448495320544f5049432049532043414e43454c4c4544000000000000000000600082015250565b60006123a7601783611d20565b91506123b282612371565b602082019050919050565b600060208201905081810360008301526123d68161239a565b9050919050565b7f544f5049432043414e204f4e4c5920424520494d504c454d454e544544204f4e60008201527f4345000000000000000000000000000000000000000000000000000000000000602082015250565b6000612439602283611d20565b9150612444826123dd565b604082019050919050565b600060208201905081810360008301526124688161242c565b9050919050565b600081905092915050565b600061248582611d15565b61248f818561246f565b935061249f818560208601611d31565b80840191505092915050565b60006124b7828461247a565b915081905092915050565b600081519050919050565b600081905092915050565b60006124e3826124c2565b6124ed81856124cd565b93506124fd818560208601611d31565b80840191505092915050565b600061251582846124d8565b915081905092915050565b7f4641494c454420544f20494d504c454d454e5400000000000000000000000000600082015250565b6000612556601383611d20565b915061256182612520565b602082019050919050565b6000602082019050818103600083015261258581612549565b9050919050565b600060608201905081810360008301526125a68186611d6c565b90506125b56020830185611ba5565b6125c26040830184611c0f565b949350505050565b6000815190506125d981611b01565b92915050565b6000602082840312156125f5576125f4611a62565b5b6000612603848285016125ca565b91505092915050565b7f4e4f542041204d454d4245520000000000000000000000000000000000000000600082015250565b6000612642600c83611d20565b915061264d8261260c565b602082019050919050565b6000602082019050818103600083015261267181612635565b9050919050565b60008190508160005260206000209050919050565b60006020601f8301049050919050565b600082821b905092915050565b6000600883026126da7fffffffffffffffffffffffffffffffffffffffffffffffffffffffffffffffff8261269d565b6126e4868361269d565b95508019841693508086168417925050509392505050565b6000819050919050565b600061272161271c61271784611af7565b6126fc565b611af7565b9050919050565b6000819050919050565b61273b83612706565b61274f61274782612728565b8484546126aa565b825550505050565b600090565b612764612757565b61276f818484612732565b505050565b5b818110156127935761278860008261275c565b600181019050612775565b5050565b601f8211156127d8576127a981612678565b6127b28461268d565b810160208510156127c1578190505b6127d56127cd8561268d565b830182612774565b50505b505050565b600082821c905092915050565b60006127fb600019846008026127dd565b1980831691505092915050565b600061281483836127ea565b9150826002028217905092915050565b61282d82611d15565b67ffffffffffffffff81111561284657612845611eb1565b5b6128508254612242565b61285b828285612797565b600060209050601f83116001811461288e576000841561287c578287015190505b6128868582612808565b8655506128ee565b601f19841661289c86612678565b60005b828110156128c45784890151825560018201915060208501945060208101905061289f565b868310156128e157848901516128dd601f8916826127ea565b8355505b6001600288020188555050505b505050505050565b600060208201905081810360008301526129108184611d6c565b905092915050565b7f4e487b7100000000000000000000000000000000000000000000000000000000600052601260045260246000fdfea2646970667358221220ef5218ce83626cd892351b453eb4ad3c937236653e2fe06b5cefef9aaa9d782e64736f6c63430008140033",
  "devdoc": {
    "errors": {
      "MathOverflowedMulDiv()": [
        {
          "details": "Muldiv operation overflow."
        }
      ]
    },
    "kind": "dev",
    "methods": {},
    "version": 1
  },
  "userdoc": {
    "kind": "user",
    "methods": {},
    "version": 1
  },
  "storageLayout": {
    "storage": [
      {
        "astId": 2815,
        "contract": "contracts/BUNN_Logic.sol:BUNN_GOVERNOR_LOGIC",
        "label": "utility_token_address",
        "offset": 0,
        "slot": "0",
        "type": "t_address"
      },
      {
        "astId": 2817,
        "contract": "contracts/BUNN_Logic.sol:BUNN_GOVERNOR_LOGIC",
        "label": "returned",
        "offset": 0,
        "slot": "1",
        "type": "t_uint256"
      },
      {
        "astId": 2819,
        "contract": "contracts/BUNN_Logic.sol:BUNN_GOVERNOR_LOGIC",
        "label": "logic_contract",
        "offset": 0,
        "slot": "2",
        "type": "t_address"
      },
      {
        "astId": 2831,
        "contract": "contracts/BUNN_Logic.sol:BUNN_GOVERNOR_LOGIC",
        "label": "admin",
        "offset": 0,
        "slot": "3",
        "type": "t_mapping(t_address,t_struct(admin_)2826_storage)"
      },
      {
        "astId": 2834,
        "contract": "contracts/BUNN_Logic.sol:BUNN_GOVERNOR_LOGIC",
        "label": "admins",
        "offset": 0,
        "slot": "4",
        "type": "t_array(t_address)dyn_storage"
      },
      {
        "astId": 2844,
        "contract": "contracts/BUNN_Logic.sol:BUNN_GOVERNOR_LOGIC",
        "label": "Members",
        "offset": 0,
        "slot": "5",
        "type": "t_mapping(t_address,t_struct(Member)2839_storage)"
      },
      {
        "astId": 2860,
        "contract": "contracts/BUNN_Logic.sol:BUNN_GOVERNOR_LOGIC",
        "label": "ballots",
        "offset": 0,
        "slot": "6",
        "type": "t_mapping(t_address,t_mapping(t_uint256,t_struct(ballot)2853_storage))"
      },
      {
        "astId": 2870,
        "contract": "contracts/BUNN_Logic.sol:BUNN_GOVERNOR_LOGIC",
        "label": "votes",
        "offset": 0,
        "slot": "7",
        "type": "t_mapping(t_uint256,t_struct(vote)2865_storage)"
      },
      {
        "astId": 2894,
        "contract": "contracts/BUNN_Logic.sol:BUNN_GOVERNOR_LOGIC",
        "label": "Topics",
        "offset": 0,
        "slot": "8",
        "type": "t_mapping(t_uint256,t_struct(Topic)2889_storage)"
      },
      {
        "astId": 2897,
        "contract": "contracts/BUNN_Logic.sol:BUNN_GOVERNOR_LOGIC",
        "label": "counter",
        "offset": 0,
        "slot": "9",
        "type": "t_uint256"
      },
      {
        "astId": 2907,
        "contract": "contracts/BUNN_Logic.sol:BUNN_GOVERNOR_LOGIC",
        "label": "voting_duration",
        "offset": 0,
        "slot": "10",
        "type": "t_uint256"
      },
      {
        "astId": 2910,
        "contract": "contracts/BUNN_Logic.sol:BUNN_GOVERNOR_LOGIC",
        "label": "implementation_delay",
        "offset": 0,
        "slot": "11",
        "type": "t_uint256"
      }
    ],
    "types": {
      "t_address": {
        "encoding": "inplace",
        "label": "address",
        "numberOfBytes": "20"
      },
      "t_array(t_address)dyn_storage": {
        "base": "t_address",
        "encoding": "dynamic_array",
        "label": "address[]",
        "numberOfBytes": "32"
      },
      "t_bool": {
        "encoding": "inplace",
        "label": "bool",
        "numberOfBytes": "1"
      },
      "t_mapping(t_address,t_mapping(t_uint256,t_struct(ballot)2853_storage))": {
        "encoding": "mapping",
        "key": "t_address",
        "label": "mapping(address => mapping(uint256 => struct governor_storage.ballot))",
        "numberOfBytes": "32",
        "value": "t_mapping(t_uint256,t_struct(ballot)2853_storage)"
      },
      "t_mapping(t_address,t_struct(Member)2839_storage)": {
        "encoding": "mapping",
        "key": "t_address",
        "label": "mapping(address => struct governor_storage.Member)",
        "numberOfBytes": "32",
        "value": "t_struct(Member)2839_storage"
      },
      "t_mapping(t_address,t_struct(admin_)2826_storage)": {
        "encoding": "mapping",
        "key": "t_address",
        "label": "mapping(address => struct governor_storage.admin_)",
        "numberOfBytes": "32",
        "value": "t_struct(admin_)2826_storage"
      },
      "t_mapping(t_uint256,t_struct(Topic)2889_storage)": {
        "encoding": "mapping",
        "key": "t_uint256",
        "label": "mapping(uint256 => struct governor_storage.Topic)",
        "numberOfBytes": "32",
        "value": "t_struct(Topic)2889_storage"
      },
      "t_mapping(t_uint256,t_struct(ballot)2853_storage)": {
        "encoding": "mapping",
        "key": "t_uint256",
        "label": "mapping(uint256 => struct governor_storage.ballot)",
        "numberOfBytes": "32",
        "value": "t_struct(ballot)2853_storage"
      },
      "t_mapping(t_uint256,t_struct(vote)2865_storage)": {
        "encoding": "mapping",
        "key": "t_uint256",
        "label": "mapping(uint256 => struct governor_storage.vote)",
        "numberOfBytes": "32",
        "value": "t_struct(vote)2865_storage"
      },
      "t_string_storage": {
        "encoding": "bytes",
        "label": "string",
        "numberOfBytes": "32"
      },
      "t_struct(Member)2839_storage": {
        "encoding": "inplace",
        "label": "struct governor_storage.Member",
        "members": [
          {
            "astId": 2836,
            "contract": "contracts/BUNN_Logic.sol:BUNN_GOVERNOR_LOGIC",
            "label": "name",
            "offset": 0,
            "slot": "0",
            "type": "t_string_storage"
          },
          {
            "astId": 2838,
            "contract": "contracts/BUNN_Logic.sol:BUNN_GOVERNOR_LOGIC",
            "label": "belongs",
            "offset": 0,
            "slot": "1",
            "type": "t_bool"
          }
        ],
        "numberOfBytes": "64"
      },
      "t_struct(Topic)2889_storage": {
        "encoding": "inplace",
        "label": "struct governor_storage.Topic",
        "members": [
          {
            "astId": 2872,
            "contract": "contracts/BUNN_Logic.sol:BUNN_GOVERNOR_LOGIC",
            "label": "id",
            "offset": 0,
            "slot": "0",
            "type": "t_uint256"
          },
          {
            "astId": 2874,
            "contract": "contracts/BUNN_Logic.sol:BUNN_GOVERNOR_LOGIC",
            "label": "title",
            "offset": 0,
            "slot": "1",
            "type": "t_string_storage"
          },
          {
            "astId": 2876,
            "contract": "contracts/BUNN_Logic.sol:BUNN_GOVERNOR_LOGIC",
            "label": "initiator",
            "offset": 0,
            "slot": "2",
            "type": "t_address"
          },
          {
            "astId": 2878,
            "contract": "contracts/BUNN_Logic.sol:BUNN_GOVERNOR_LOGIC",
            "label": "details",
            "offset": 0,
            "slot": "3",
            "type": "t_string_storage"
          },
          {
            "astId": 2880,
            "contract": "contracts/BUNN_Logic.sol:BUNN_GOVERNOR_LOGIC",
            "label": "implementation_contract_address",
            "offset": 0,
            "slot": "4",
            "type": "t_address"
          },
          {
            "astId": 2882,
            "contract": "contracts/BUNN_Logic.sol:BUNN_GOVERNOR_LOGIC",
            "label": "signature",
            "offset": 0,
            "slot": "5",
            "type": "t_string_storage"
          },
          {
            "astId": 2884,
            "contract": "contracts/BUNN_Logic.sol:BUNN_GOVERNOR_LOGIC",
            "label": "start_time",
            "offset": 0,
            "slot": "6",
            "type": "t_uint256"
          },
          {
            "astId": 2886,
            "contract": "contracts/BUNN_Logic.sol:BUNN_GOVERNOR_LOGIC",
            "label": "executed",
            "offset": 0,
            "slot": "7",
            "type": "t_bool"
          },
          {
            "astId": 2888,
            "contract": "contracts/BUNN_Logic.sol:BUNN_GOVERNOR_LOGIC",
            "label": "cancelled",
            "offset": 1,
            "slot": "7",
            "type": "t_bool"
          }
        ],
        "numberOfBytes": "256"
      },
      "t_struct(admin_)2826_storage": {
        "encoding": "inplace",
        "label": "struct governor_storage.admin_",
        "members": [
          {
            "astId": 2821,
            "contract": "contracts/BUNN_Logic.sol:BUNN_GOVERNOR_LOGIC",
            "label": "is_admin",
            "offset": 0,
            "slot": "0",
            "type": "t_bool"
          },
          {
            "astId": 2823,
            "contract": "contracts/BUNN_Logic.sol:BUNN_GOVERNOR_LOGIC",
            "label": "removers",
            "offset": 0,
            "slot": "1",
            "type": "t_uint256"
          },
          {
            "astId": 2825,
            "contract": "contracts/BUNN_Logic.sol:BUNN_GOVERNOR_LOGIC",
            "label": "adders",
            "offset": 0,
            "slot": "2",
            "type": "t_uint256"
          }
        ],
        "numberOfBytes": "96"
      },
      "t_struct(ballot)2853_storage": {
        "encoding": "inplace",
        "label": "struct governor_storage.ballot",
        "members": [
          {
            "astId": 2846,
            "contract": "contracts/BUNN_Logic.sol:BUNN_GOVERNOR_LOGIC",
            "label": "Topic_ID",
            "offset": 0,
            "slot": "0",
            "type": "t_uint256"
          },
          {
            "astId": 2848,
            "contract": "contracts/BUNN_Logic.sol:BUNN_GOVERNOR_LOGIC",
            "label": "position",
            "offset": 0,
            "slot": "1",
            "type": "t_bool"
          },
          {
            "astId": 2850,
            "contract": "contracts/BUNN_Logic.sol:BUNN_GOVERNOR_LOGIC",
            "label": "voted",
            "offset": 1,
            "slot": "1",
            "type": "t_bool"
          },
          {
            "astId": 2852,
            "contract": "contracts/BUNN_Logic.sol:BUNN_GOVERNOR_LOGIC",
            "label": "voting_power",
            "offset": 0,
            "slot": "2",
            "type": "t_uint256"
          }
        ],
        "numberOfBytes": "96"
      },
      "t_struct(vote)2865_storage": {
        "encoding": "inplace",
        "label": "struct governor_storage.vote",
        "members": [
          {
            "astId": 2862,
            "contract": "contracts/BUNN_Logic.sol:BUNN_GOVERNOR_LOGIC",
            "label": "for_votes",
            "offset": 0,
            "slot": "0",
            "type": "t_uint256"
          },
          {
            "astId": 2864,
            "contract": "contracts/BUNN_Logic.sol:BUNN_GOVERNOR_LOGIC",
            "label": "against_votes",
            "offset": 0,
            "slot": "1",
            "type": "t_uint256"
          }
        ],
        "numberOfBytes": "64"
      },
      "t_uint256": {
        "encoding": "inplace",
        "label": "uint256",
        "numberOfBytes": "32"
      }
    }
  }
}