{
  "address": "0xcD10f4294F490Aa09A796F3DBDabF1c9Cf603f40",
  "abi": [
    {
      "inputs": [
        {
          "internalType": "address",
          "name": "utility_token_address_",
          "type": "address"
        },
        {
          "internalType": "address",
          "name": "upgraded_logic_contract",
          "type": "address"
        }
      ],
      "stateMutability": "nonpayable",
      "type": "constructor"
    },
    {
      "inputs": [],
      "name": "MathOverflowedMulDiv",
      "type": "error"
    },
    {
      "anonymous": false,
      "inputs": [
        {
          "indexed": false,
          "internalType": "string",
          "name": "title",
          "type": "string"
        },
        {
          "indexed": false,
          "internalType": "uint256",
          "name": "topic_id",
          "type": "uint256"
        },
        {
          "indexed": false,
          "internalType": "bool",
          "name": "implemented",
          "type": "bool"
        }
      ],
      "name": "decision_implemented",
      "type": "event"
    },
    {
      "anonymous": false,
      "inputs": [
        {
          "indexed": true,
          "internalType": "address",
          "name": "newAdmin",
          "type": "address"
        }
      ],
      "name": "new_Admin",
      "type": "event"
    },
    {
      "anonymous": false,
      "inputs": [
        {
          "indexed": true,
          "internalType": "address",
          "name": "new_member",
          "type": "address"
        }
      ],
      "name": "new_member",
      "type": "event"
    },
    {
      "anonymous": false,
      "inputs": [
        {
          "indexed": true,
          "internalType": "address",
          "name": "proposer",
          "type": "address"
        },
        {
          "indexed": false,
          "internalType": "string",
          "name": "topic",
          "type": "string"
        }
      ],
      "name": "proposal_made",
      "type": "event"
    },
    {
      "anonymous": false,
      "inputs": [
        {
          "indexed": true,
          "internalType": "address",
          "name": "demotedAdmin",
          "type": "address"
        }
      ],
      "name": "remove_Admin",
      "type": "event"
    },
    {
      "anonymous": false,
      "inputs": [
        {
          "indexed": true,
          "internalType": "address",
          "name": "participant",
          "type": "address"
        },
        {
          "indexed": false,
          "internalType": "uint256",
          "name": "topic_acted_on",
          "type": "uint256"
        },
        {
          "indexed": false,
          "internalType": "bool",
          "name": "position",
          "type": "bool"
        }
      ],
      "name": "vote_cast",
      "type": "event"
    },
    {
      "inputs": [
        {
          "internalType": "address",
          "name": "",
          "type": "address"
        }
      ],
      "name": "Members",
      "outputs": [
        {
          "internalType": "string",
          "name": "name",
          "type": "string"
        },
        {
          "internalType": "bool",
          "name": "belongs",
          "type": "bool"
        }
      ],
      "stateMutability": "view",
      "type": "function"
    },
    {
      "inputs": [
        {
          "internalType": "uint256",
          "name": "",
          "type": "uint256"
        }
      ],
      "name": "Topics",
      "outputs": [
        {
          "internalType": "uint256",
          "name": "id",
          "type": "uint256"
        },
        {
          "internalType": "string",
          "name": "title",
          "type": "string"
        },
        {
          "internalType": "address",
          "name": "initiator",
          "type": "address"
        },
        {
          "internalType": "string",
          "name": "details",
          "type": "string"
        },
        {
          "internalType": "address",
          "name": "implementation_contract_address",
          "type": "address"
        },
        {
          "internalType": "string",
          "name": "signature",
          "type": "string"
        },
        {
          "internalType": "uint256",
          "name": "start_time",
          "type": "uint256"
        },
        {
          "internalType": "bool",
          "name": "executed",
          "type": "bool"
        },
        {
          "internalType": "bool",
          "name": "cancelled",
          "type": "bool"
        }
      ],
      "stateMutability": "view",
      "type": "function"
    },
    {
      "inputs": [
        {
          "internalType": "address",
          "name": "upgraded_logic_contract",
          "type": "address"
        }
      ],
      "name": "UPGRADE",
      "outputs": [],
      "stateMutability": "nonpayable",
      "type": "function"
    },
    {
      "inputs": [
        {
          "internalType": "address",
          "name": "newAdmin",
          "type": "address"
        }
      ],
      "name": "addAdmin",
      "outputs": [],
      "stateMutability": "nonpayable",
      "type": "function"
    },
    {
      "inputs": [
        {
          "internalType": "address",
          "name": "",
          "type": "address"
        }
      ],
      "name": "admin",
      "outputs": [
        {
          "internalType": "bool",
          "name": "is_admin",
          "type": "bool"
        },
        {
          "internalType": "uint256",
          "name": "removers",
          "type": "uint256"
        },
        {
          "internalType": "uint256",
          "name": "adders",
          "type": "uint256"
        }
      ],
      "stateMutability": "view",
      "type": "function"
    },
    {
      "inputs": [
        {
          "internalType": "address",
          "name": "",
          "type": "address"
        },
        {
          "internalType": "uint256",
          "name": "",
          "type": "uint256"
        }
      ],
      "name": "ballots",
      "outputs": [
        {
          "internalType": "uint256",
          "name": "Topic_ID",
          "type": "uint256"
        },
        {
          "internalType": "bool",
          "name": "position",
          "type": "bool"
        },
        {
          "internalType": "bool",
          "name": "voted",
          "type": "bool"
        },
        {
          "internalType": "uint256",
          "name": "voting_power",
          "type": "uint256"
        }
      ],
      "stateMutability": "view",
      "type": "function"
    },
    {
      "inputs": [
        {
          "internalType": "uint256",
          "name": "topic_id",
          "type": "uint256"
        }
      ],
      "name": "cancel_Topic",
      "outputs": [],
      "stateMutability": "nonpayable",
      "type": "function"
    },
    {
      "inputs": [
        {
          "internalType": "uint256",
          "name": "topic_id",
          "type": "uint256"
        },
        {
          "internalType": "bool",
          "name": "position_",
          "type": "bool"
        }
      ],
      "name": "cast_vote",
      "outputs": [],
      "stateMutability": "nonpayable",
      "type": "function"
    },
    {
      "inputs": [],
      "name": "counter",
      "outputs": [
        {
          "internalType": "uint256",
          "name": "",
          "type": "uint256"
        }
      ],
      "stateMutability": "view",
      "type": "function"
    },
    {
      "inputs": [
        {
          "internalType": "uint256",
          "name": "topic_id",
          "type": "uint256"
        },
        {
          "internalType": "bool",
          "name": "_override",
          "type": "bool"
        }
      ],
      "name": "implement_decision",
      "outputs": [],
      "stateMutability": "payable",
      "type": "function"
    },
    {
      "inputs": [],
      "name": "implementation_delay",
      "outputs": [
        {
          "internalType": "uint256",
          "name": "",
          "type": "uint256"
        }
      ],
      "stateMutability": "view",
      "type": "function"
    },
    {
      "inputs": [
        {
          "internalType": "string",
          "name": "title_",
          "type": "string"
        },
        {
          "internalType": "string",
          "name": "details_",
          "type": "string"
        },
        {
          "internalType": "address",
          "name": "implementation_contract_address_",
          "type": "address"
        },
        {
          "internalType": "string",
          "name": "signature_",
          "type": "string"
        }
      ],
      "name": "initiate_topic",
      "outputs": [],
      "stateMutability": "nonpayable",
      "type": "function"
    },
    {
      "inputs": [],
      "name": "logic_contract",
      "outputs": [
        {
          "internalType": "address",
          "name": "",
          "type": "address"
        }
      ],
      "stateMutability": "view",
      "type": "function"
    },
    {
      "inputs": [
        {
          "internalType": "uint256",
          "name": "target",
          "type": "uint256"
        },
        {
          "internalType": "uint256",
          "name": "comparison",
          "type": "uint256"
        }
      ],
      "name": "quorum",
      "outputs": [
        {
          "internalType": "bool",
          "name": "",
          "type": "bool"
        }
      ],
      "stateMutability": "pure",
      "type": "function"
    },
    {
      "inputs": [
        {
          "internalType": "string",
          "name": "name_",
          "type": "string"
        }
      ],
      "name": "register",
      "outputs": [],
      "stateMutability": "nonpayable",
      "type": "function"
    },
    {
      "inputs": [
        {
          "internalType": "address",
          "name": "demotedAdmin",
          "type": "address"
        }
      ],
      "name": "removeAdmin",
      "outputs": [],
      "stateMutability": "nonpayable",
      "type": "function"
    },
    {
      "inputs": [],
      "name": "returned",
      "outputs": [
        {
          "internalType": "uint256",
          "name": "",
          "type": "uint256"
        }
      ],
      "stateMutability": "view",
      "type": "function"
    },
    {
      "inputs": [],
      "name": "utility_token_address",
      "outputs": [
        {
          "internalType": "address",
          "name": "",
          "type": "address"
        }
      ],
      "stateMutability": "view",
      "type": "function"
    },
    {
      "inputs": [
        {
          "internalType": "uint256",
          "name": "",
          "type": "uint256"
        }
      ],
      "name": "votes",
      "outputs": [
        {
          "internalType": "uint256",
          "name": "for_votes",
          "type": "uint256"
        },
        {
          "internalType": "uint256",
          "name": "against_votes",
          "type": "uint256"
        }
      ],
      "stateMutability": "view",
      "type": "function"
    },
    {
      "inputs": [],
      "name": "voting_duration",
      "outputs": [
        {
          "internalType": "uint256",
          "name": "",
          "type": "uint256"
        }
      ],
      "stateMutability": "view",
      "type": "function"
    }
  ],
  "transactionHash": "0x1a035b52e25e48efb87d7f9d46407b5fe1cd1ac5f1a57f5d0e087e61646b44fa",
  "args": [
    "0x25Be1Ce5501BBDC2fb4B21b97F2b0A6F7349EAb9",
    "0x7aA317628d0A0ff941a6467BD4d5d28A49b6fc85"
  ],
  "numDeployments": 1,
  "solcInputHash": "3ce0def368e4b440a13c056b42b98216",
  "bytecode": "0x6080604052600160095562069780600a5562015180600b553480156200002457600080fd5b5060405162002dad38038062002dad83398181016040528101906200004a919062000198565b816000806101000a81548173ffffffffffffffffffffffffffffffffffffffff021916908373ffffffffffffffffffffffffffffffffffffffff1602179055506001600360003373ffffffffffffffffffffffffffffffffffffffff1673ffffffffffffffffffffffffffffffffffffffff16815260200190815260200160002060000160006101000a81548160ff02191690831515021790555080600260006101000a81548173ffffffffffffffffffffffffffffffffffffffff021916908373ffffffffffffffffffffffffffffffffffffffff1602179055505050620001df565b600080fd5b600073ffffffffffffffffffffffffffffffffffffffff82169050919050565b6000620001608262000133565b9050919050565b620001728162000153565b81146200017e57600080fd5b50565b600081519050620001928162000167565b92915050565b60008060408385031215620001b257620001b16200012e565b5b6000620001c28582860162000181565b9250506020620001d58582860162000181565b9150509250929050565b612bbe80620001ef6000396000f3fe60806040526004361061011f5760003560e01c806361bc221a116100a0578063704802751161006457806370480275146103fa5780637d1592f314610423578063a0a67c581461044c578063f2c298be14610477578063fd0f0166146104a05761011f565b806361bc221a1461031e57806363a846f81461034957806367358c96146103885780636a87db18146103b35780636cb76408146103cf5761011f565b80634de94320116100e75780634de943201461020757806354b598ec146102325780635787c126146102725780635bb6d2841461029b5780635df81330146102e05761011f565b80631785f53c146101245780631c8dd2141461014d5780633153cebc1461017657806333f794b5146101a157806347411226146101ca575b600080fd5b34801561013057600080fd5b5061014b60048036038101906101469190611ebf565b6104de565b005b34801561015957600080fd5b50610174600480360381019061016f9190611f5a565b610798565b005b34801561018257600080fd5b5061018b610fa2565b6040516101989190611fa9565b60405180910390f35b3480156101ad57600080fd5b506101c860048036038101906101c39190611fc4565b610fa8565b005b3480156101d657600080fd5b506101f160048036038101906101ec9190611ff1565b611069565b6040516101fe9190612040565b60405180910390f35b34801561021357600080fd5b5061021c6110a0565b604051610229919061206a565b60405180910390f35b34801561023e57600080fd5b5061025960048036038101906102549190612085565b6110c6565b60405161026994939291906120c5565b60405180910390f35b34801561027e57600080fd5b5061029960048036038101906102949190611ebf565b61111d565b005b3480156102a757600080fd5b506102c260048036038101906102bd9190611fc4565b6111f0565b6040516102d79998979695949392919061219a565b60405180910390f35b3480156102ec57600080fd5b5061030760048036038101906103029190611fc4565b611430565b60405161031592919061223c565b60405180910390f35b34801561032a57600080fd5b50610333611454565b6040516103409190611fa9565b60405180910390f35b34801561035557600080fd5b50610370600480360381019061036b9190611ebf565b61145a565b60405161037f93929190612265565b60405180910390f35b34801561039457600080fd5b5061039d611491565b6040516103aa9190611fa9565b60405180910390f35b6103cd60048036038101906103c89190611f5a565b611497565b005b3480156103db57600080fd5b506103e4611687565b6040516103f19190611fa9565b60405180910390f35b34801561040657600080fd5b50610421600480360381019061041c9190611ebf565b61168d565b005b34801561042f57600080fd5b5061044a600480360381019061044591906123d1565b61199e565b005b34801561045857600080fd5b50610461611b0b565b60405161046e919061206a565b60405180910390f35b34801561048357600080fd5b5061049e6004803603810190610499919061248c565b611b2f565b005b3480156104ac57600080fd5b506104c760048036038101906104c29190611ebf565b611c8d565b6040516104d59291906124d5565b60405180910390f35b600360003373ffffffffffffffffffffffffffffffffffffffff1673ffffffffffffffffffffffffffffffffffffffff16815260200190815260200160002060000160009054906101000a900460ff1661056d576040517f08c379a000000000000000000000000000000000000000000000000000000000815260040161056490612551565b60405180910390fd5b600160048054905061057f91906125a0565b600360008373ffffffffffffffffffffffffffffffffffffffff1673ffffffffffffffffffffffffffffffffffffffff16815260200190815260200160002060010154106106bc576000600360008373ffffffffffffffffffffffffffffffffffffffff1673ffffffffffffffffffffffffffffffffffffffff16815260200190815260200160002060000160006101000a81548160ff0219169083151502179055506001600360008373ffffffffffffffffffffffffffffffffffffffff1673ffffffffffffffffffffffffffffffffffffffff1681526020019081526020016000206001015461067191906125d4565b600360008373ffffffffffffffffffffffffffffffffffffffff1673ffffffffffffffffffffffffffffffffffffffff16815260200190815260200160002060010181905550610752565b6001600360008373ffffffffffffffffffffffffffffffffffffffff1673ffffffffffffffffffffffffffffffffffffffff1681526020019081526020016000206001015461070b91906125d4565b600360008373ffffffffffffffffffffffffffffffffffffffff1673ffffffffffffffffffffffffffffffffffffffff168152602001908152602001600020600101819055505b8073ffffffffffffffffffffffffffffffffffffffff167f923abef5ea1e37ac38f56a77b8133d215c1d3bcd2e3dd88a6120d34f933f3dde60405160405180910390a250565b60006008600084815260200190815260200160002060405180610120016040529081600082015481526020016001820180546107d390612637565b80601f01602080910402602001604051908101604052809291908181526020018280546107ff90612637565b801561084c5780601f106108215761010080835404028352916020019161084c565b820191906000526020600020905b81548152906001019060200180831161082f57829003601f168201915b505050505081526020016002820160009054906101000a900473ffffffffffffffffffffffffffffffffffffffff1673ffffffffffffffffffffffffffffffffffffffff1673ffffffffffffffffffffffffffffffffffffffff1681526020016003820180546108bb90612637565b80601f01602080910402602001604051908101604052809291908181526020018280546108e790612637565b80156109345780601f1061090957610100808354040283529160200191610934565b820191906000526020600020905b81548152906001019060200180831161091757829003601f168201915b505050505081526020016004820160009054906101000a900473ffffffffffffffffffffffffffffffffffffffff1673ffffffffffffffffffffffffffffffffffffffff1673ffffffffffffffffffffffffffffffffffffffff1681526020016005820180546109a390612637565b80601f01602080910402602001604051908101604052809291908181526020018280546109cf90612637565b8015610a1c5780601f106109f157610100808354040283529160200191610a1c565b820191906000526020600020905b8154815290600101906020018083116109ff57829003601f168201915b50505050508152602001600682015481526020016007820160009054906101000a900460ff161515151581526020016007820160019054906101000a900460ff161515151581525050905060008060009054906101000a900473ffffffffffffffffffffffffffffffffffffffff16905060008260c00151600a54610aa191906125d4565b905082610100015115610ae9576040517f08c379a0000000000000000000000000000000000000000000000000000000008152600401610ae0906126b4565b60405180910390fd5b600560003373ffffffffffffffffffffffffffffffffffffffff1673ffffffffffffffffffffffffffffffffffffffff16815260200190815260200160002060010160009054906101000a900460ff16610b78576040517f08c379a0000000000000000000000000000000000000000000000000000000008152600401610b6f90612720565b60405180910390fd5b428111610bba576040517f08c379a0000000000000000000000000000000000000000000000000000000008152600401610bb19061278c565b60405180910390fd5b60008273ffffffffffffffffffffffffffffffffffffffff166370a08231336040518263ffffffff1660e01b8152600401610bf5919061206a565b602060405180830381865afa158015610c12573d6000803e3d6000fd5b505050506040513d601f19601f82011682018060405250810190610c3691906127c1565b11610c76576040517f08c379a0000000000000000000000000000000000000000000000000000000008152600401610c6d90612860565b60405180910390fd5b60008273ffffffffffffffffffffffffffffffffffffffff166370a08231336040518263ffffffff1660e01b8152600401610cb1919061206a565b602060405180830381865afa158015610cce573d6000803e3d6000fd5b505050506040513d601f19601f82011682018060405250810190610cf291906127c1565b9050600660003373ffffffffffffffffffffffffffffffffffffffff1673ffffffffffffffffffffffffffffffffffffffff168152602001908152602001600020600087815260200190815260200160002060010160019054906101000a900460ff1615610d95576040517f08c379a0000000000000000000000000000000000000000000000000000000008152600401610d8c906128f2565b60405180910390fd5b6040518060800160405280878152602001861515815260200160011515815260200182815250600660003373ffffffffffffffffffffffffffffffffffffffff1673ffffffffffffffffffffffffffffffffffffffff16815260200190815260200160002060008881526020019081526020016000206000820151816000015560208201518160010160006101000a81548160ff02191690831515021790555060408201518160010160016101000a81548160ff02191690831515021790555060608201518160020155905050600660003373ffffffffffffffffffffffffffffffffffffffff1673ffffffffffffffffffffffffffffffffffffffff168152602001908152602001600020600087815260200190815260200160002060010160009054906101000a900460ff1615610f0957806007600088815260200190815260200160002060000154610eea91906125d4565b6007600088815260200190815260200160002060000181905550610f46565b806007600088815260200190815260200160002060010154610f2b91906125d4565b60076000888152602001908152602001600020600101819055505b3373ffffffffffffffffffffffffffffffffffffffff167f4f7ff1c79e536d7fef60ccb53beb6009e08841ffcba10e515e076f4cbdd9e320856000015187604051610f92929190612912565b60405180910390a2505050505050565b600a5481565b600360003373ffffffffffffffffffffffffffffffffffffffff1673ffffffffffffffffffffffffffffffffffffffff16815260200190815260200160002060000160009054906101000a900460ff16611037576040517f08c379a000000000000000000000000000000000000000000000000000000000815260040161102e90612551565b60405180910390fd5b60016008600083815260200190815260200160002060070160016101000a81548160ff02191690831515021790555050565b600080611083603c606485611d469092919063ffffffff16565b905080841015611094576000611097565b60015b91505092915050565b600260009054906101000a900473ffffffffffffffffffffffffffffffffffffffff1681565b6006602052816000526040600020602052806000526040600020600091509150508060000154908060010160009054906101000a900460ff16908060010160019054906101000a900460ff16908060020154905084565b600360003373ffffffffffffffffffffffffffffffffffffffff1673ffffffffffffffffffffffffffffffffffffffff16815260200190815260200160002060000160009054906101000a900460ff166111ac576040517f08c379a00000000000000000000000000000000000000000000000000000000081526004016111a390612551565b60405180910390fd5b80600260006101000a81548173ffffffffffffffffffffffffffffffffffffffff021916908373ffffffffffffffffffffffffffffffffffffffff16021790555050565b600860205280600052604060002060009150905080600001549080600101805461121990612637565b80601f016020809104026020016040519081016040528092919081815260200182805461124590612637565b80156112925780601f1061126757610100808354040283529160200191611292565b820191906000526020600020905b81548152906001019060200180831161127557829003601f168201915b5050505050908060020160009054906101000a900473ffffffffffffffffffffffffffffffffffffffff16908060030180546112cd90612637565b80601f01602080910402602001604051908101604052809291908181526020018280546112f990612637565b80156113465780601f1061131b57610100808354040283529160200191611346565b820191906000526020600020905b81548152906001019060200180831161132957829003601f168201915b5050505050908060040160009054906101000a900473ffffffffffffffffffffffffffffffffffffffff169080600501805461138190612637565b80601f01602080910402602001604051908101604052809291908181526020018280546113ad90612637565b80156113fa5780601f106113cf576101008083540402835291602001916113fa565b820191906000526020600020905b8154815290600101906020018083116113dd57829003601f168201915b5050505050908060060154908060070160009054906101000a900460ff16908060070160019054906101000a900460ff16905089565b60076020528060005260406000206000915090508060000154908060010154905082565b60095481565b60036020528060005260406000206000915090508060000160009054906101000a900460ff16908060010154908060020154905083565b600b5481565b600360003373ffffffffffffffffffffffffffffffffffffffff1673ffffffffffffffffffffffffffffffffffffffff16815260200190815260200160002060000160009054906101000a900460ff16611526576040517f08c379a000000000000000000000000000000000000000000000000000000000815260040161151d90612551565b60405180910390fd5b6000600260009054906101000a900473ffffffffffffffffffffffffffffffffffffffff1673ffffffffffffffffffffffffffffffffffffffff168383604051602401611574929190612912565b6040516020818303038152906040527f6a87db18000000000000000000000000000000000000000000000000000000007bffffffffffffffffffffffffffffffffffffffffffffffffffffffff19166020820180517bffffffffffffffffffffffffffffffffffffffffffffffffffffffff83818316178352505050506040516115fe9190612982565b600060405180830381855af49150503d8060008114611639576040519150601f19603f3d011682016040523d82523d6000602084013e61163e565b606091505b5050905080611682576040517f08c379a0000000000000000000000000000000000000000000000000000000008152600401611679906129e5565b60405180910390fd5b505050565b60015481565b600360003373ffffffffffffffffffffffffffffffffffffffff1673ffffffffffffffffffffffffffffffffffffffff16815260200190815260200160002060000160009054906101000a900460ff1661171c576040517f08c379a000000000000000000000000000000000000000000000000000000000815260040161171390612551565b60405180910390fd5b600480549050600360008373ffffffffffffffffffffffffffffffffffffffff1673ffffffffffffffffffffffffffffffffffffffff16815260200190815260200160002060020154106118c2576001600360008373ffffffffffffffffffffffffffffffffffffffff1673ffffffffffffffffffffffffffffffffffffffff16815260200190815260200160002060000160006101000a81548160ff0219169083151502179055506004819080600181540180825580915050600190039060005260206000200160009091909190916101000a81548173ffffffffffffffffffffffffffffffffffffffff021916908373ffffffffffffffffffffffffffffffffffffffff1602179055506001600360008373ffffffffffffffffffffffffffffffffffffffff1673ffffffffffffffffffffffffffffffffffffffff1681526020019081526020016000206002015461187791906125d4565b600360008373ffffffffffffffffffffffffffffffffffffffff1673ffffffffffffffffffffffffffffffffffffffff16815260200190815260200160002060020181905550611958565b6001600360008373ffffffffffffffffffffffffffffffffffffffff1673ffffffffffffffffffffffffffffffffffffffff1681526020019081526020016000206002015461191191906125d4565b600360008373ffffffffffffffffffffffffffffffffffffffff1673ffffffffffffffffffffffffffffffffffffffff168152602001908152602001600020600201819055505b8073ffffffffffffffffffffffffffffffffffffffff167fe0c21bf57df59cfc5e2067c75dbfd51a39f17533352ce1cf3a6c713c897a6c0c60405160405180910390a250565b6000848484846040516024016119b79493929190612a05565b6040516020818303038152906040527f7d1592f3000000000000000000000000000000000000000000000000000000007bffffffffffffffffffffffffffffffffffffffffffffffffffffffff19166020820180517bffffffffffffffffffffffffffffffffffffffffffffffffffffffff838183161783525050505090506000600260009054906101000a900473ffffffffffffffffffffffffffffffffffffffff1673ffffffffffffffffffffffffffffffffffffffff1682604051611a7f9190612982565b600060405180830381855af49150503d8060008114611aba576040519150601f19603f3d011682016040523d82523d6000602084013e611abf565b606091505b5050905080611b03576040517f08c379a0000000000000000000000000000000000000000000000000000000008152600401611afa90612aab565b60405180910390fd5b505050505050565b60008054906101000a900473ffffffffffffffffffffffffffffffffffffffff1681565b6000600260009054906101000a900473ffffffffffffffffffffffffffffffffffffffff1673ffffffffffffffffffffffffffffffffffffffff1682604051602401611b7b9190612acb565b6040516020818303038152906040527ff2c298be000000000000000000000000000000000000000000000000000000007bffffffffffffffffffffffffffffffffffffffffffffffffffffffff19166020820180517bffffffffffffffffffffffffffffffffffffffffffffffffffffffff8381831617835250505050604051611c059190612982565b600060405180830381855af49150503d8060008114611c40576040519150601f19603f3d011682016040523d82523d6000602084013e611c45565b606091505b5050905080611c89576040517f08c379a0000000000000000000000000000000000000000000000000000000008152600401611c8090612b39565b60405180910390fd5b5050565b6005602052806000526040600020600091509050806000018054611cb090612637565b80601f0160208091040260200160405190810160405280929190818152602001828054611cdc90612637565b8015611d295780601f10611cfe57610100808354040283529160200191611d29565b820191906000526020600020905b815481529060010190602001808311611d0c57829003601f168201915b5050505050908060010160009054906101000a900460ff16905082565b6000808385029050600080198587098281108382030391505060008103611d8157838281611d7757611d76612b59565b5b0492505050611e46565b808411611dba576040517f227bc15300000000000000000000000000000000000000000000000000000000815260040160405180910390fd5b600084868809905082811182039150808303925060008560000386169050808604955080840493506001818260000304019050808302841793506000600287600302189050808702600203810290508087026002038102905080870260020381029050808702600203810290508087026002038102905080870260020381029050808502955050505050505b9392505050565b6000604051905090565b600080fd5b600080fd5b600073ffffffffffffffffffffffffffffffffffffffff82169050919050565b6000611e8c82611e61565b9050919050565b611e9c81611e81565b8114611ea757600080fd5b50565b600081359050611eb981611e93565b92915050565b600060208284031215611ed557611ed4611e57565b5b6000611ee384828501611eaa565b91505092915050565b6000819050919050565b611eff81611eec565b8114611f0a57600080fd5b50565b600081359050611f1c81611ef6565b92915050565b60008115159050919050565b611f3781611f22565b8114611f4257600080fd5b50565b600081359050611f5481611f2e565b92915050565b60008060408385031215611f7157611f70611e57565b5b6000611f7f85828601611f0d565b9250506020611f9085828601611f45565b9150509250929050565b611fa381611eec565b82525050565b6000602082019050611fbe6000830184611f9a565b92915050565b600060208284031215611fda57611fd9611e57565b5b6000611fe884828501611f0d565b91505092915050565b6000806040838503121561200857612007611e57565b5b600061201685828601611f0d565b925050602061202785828601611f0d565b9150509250929050565b61203a81611f22565b82525050565b60006020820190506120556000830184612031565b92915050565b61206481611e81565b82525050565b600060208201905061207f600083018461205b565b92915050565b6000806040838503121561209c5761209b611e57565b5b60006120aa85828601611eaa565b92505060206120bb85828601611f0d565b9150509250929050565b60006080820190506120da6000830187611f9a565b6120e76020830186612031565b6120f46040830185612031565b6121016060830184611f9a565b95945050505050565b600081519050919050565b600082825260208201905092915050565b60005b83811015612144578082015181840152602081019050612129565b60008484015250505050565b6000601f19601f8301169050919050565b600061216c8261210a565b6121768185612115565b9350612186818560208601612126565b61218f81612150565b840191505092915050565b6000610120820190506121b0600083018c611f9a565b81810360208301526121c2818b612161565b90506121d1604083018a61205b565b81810360608301526121e38189612161565b90506121f2608083018861205b565b81810360a08301526122048187612161565b905061221360c0830186611f9a565b61222060e0830185612031565b61222e610100830184612031565b9a9950505050505050505050565b60006040820190506122516000830185611f9a565b61225e6020830184611f9a565b9392505050565b600060608201905061227a6000830186612031565b6122876020830185611f9a565b6122946040830184611f9a565b949350505050565b600080fd5b600080fd5b7f4e487b7100000000000000000000000000000000000000000000000000000000600052604160045260246000fd5b6122de82612150565b810181811067ffffffffffffffff821117156122fd576122fc6122a6565b5b80604052505050565b6000612310611e4d565b905061231c82826122d5565b919050565b600067ffffffffffffffff82111561233c5761233b6122a6565b5b61234582612150565b9050602081019050919050565b82818337600083830152505050565b600061237461236f84612321565b612306565b9050828152602081018484840111156123905761238f6122a1565b5b61239b848285612352565b509392505050565b600082601f8301126123b8576123b761229c565b5b81356123c8848260208601612361565b91505092915050565b600080600080608085870312156123eb576123ea611e57565b5b600085013567ffffffffffffffff81111561240957612408611e5c565b5b612415878288016123a3565b945050602085013567ffffffffffffffff81111561243657612435611e5c565b5b612442878288016123a3565b935050604061245387828801611eaa565b925050606085013567ffffffffffffffff81111561247457612473611e5c565b5b612480878288016123a3565b91505092959194509250565b6000602082840312156124a2576124a1611e57565b5b600082013567ffffffffffffffff8111156124c0576124bf611e5c565b5b6124cc848285016123a3565b91505092915050565b600060408201905081810360008301526124ef8185612161565b90506124fe6020830184612031565b9392505050565b7f4143434553532044454e49454421000000000000000000000000000000000000600082015250565b600061253b600e83612115565b915061254682612505565b602082019050919050565b6000602082019050818103600083015261256a8161252e565b9050919050565b7f4e487b7100000000000000000000000000000000000000000000000000000000600052601160045260246000fd5b60006125ab82611eec565b91506125b683611eec565b92508282039050818111156125ce576125cd612571565b5b92915050565b60006125df82611eec565b91506125ea83611eec565b925082820190508082111561260257612601612571565b5b92915050565b7f4e487b7100000000000000000000000000000000000000000000000000000000600052602260045260246000fd5b6000600282049050600182168061264f57607f821691505b60208210810361266257612661612608565b5b50919050565b7f494e56414c494420564f54452e20544f5049432049532043414e43454c4c4544600082015250565b600061269e602083612115565b91506126a982612668565b602082019050919050565b600060208201905081810360008301526126cd81612691565b9050919050565b7f4e4f542041204d454d4245520000000000000000000000000000000000000000600082015250565b600061270a600c83612115565b9150612715826126d4565b602082019050919050565b60006020820190508181036000830152612739816126fd565b9050919050565b7f564f54494e4720504552494f442048415320454c415053454400000000000000600082015250565b6000612776601983612115565b915061278182612740565b602082019050919050565b600060208201905081810360008301526127a581612769565b9050919050565b6000815190506127bb81611ef6565b92915050565b6000602082840312156127d7576127d6611e57565b5b60006127e5848285016127ac565b91505092915050565b7f594f55204d55535420504f5353455320544f4b454e7320544f20424520414e2060008201527f454c494749424c4520564f544552000000000000000000000000000000000000602082015250565b600061284a602e83612115565b9150612855826127ee565b604082019050919050565b600060208201905081810360008301526128798161283d565b9050919050565b7f4d454d424552532043414e204f4e4c592043415354204120564f54452050455260008201527f20544f5049430000000000000000000000000000000000000000000000000000602082015250565b60006128dc602683612115565b91506128e782612880565b604082019050919050565b6000602082019050818103600083015261290b816128cf565b9050919050565b60006040820190506129276000830185611f9a565b6129346020830184612031565b9392505050565b600081519050919050565b600081905092915050565b600061295c8261293b565b6129668185612946565b9350612976818560208601612126565b80840191505092915050565b600061298e8284612951565b915081905092915050565b7f4641494c454420544f20494d504c454d454e54204445434953494f4e00000000600082015250565b60006129cf601c83612115565b91506129da82612999565b602082019050919050565b600060208201905081810360008301526129fe816129c2565b9050919050565b60006080820190508181036000830152612a1f8187612161565b90508181036020830152612a338186612161565b9050612a42604083018561205b565b8181036060830152612a548184612161565b905095945050505050565b7f4641494c454420544f20494e49544941544520544f5049430000000000000000600082015250565b6000612a95601883612115565b9150612aa082612a5f565b602082019050919050565b60006020820190508181036000830152612ac481612a88565b9050919050565b60006020820190508181036000830152612ae58184612161565b905092915050565b7f4641494c454420544f2052454749535445520000000000000000000000000000600082015250565b6000612b23601283612115565b9150612b2e82612aed565b602082019050919050565b60006020820190508181036000830152612b5281612b16565b9050919050565b7f4e487b7100000000000000000000000000000000000000000000000000000000600052601260045260246000fdfea2646970667358221220ac11df07771ba86679d15b1ade34fc458b81ca2135d619ed7df9bb5841d6eb0264736f6c63430008140033",
  "devdoc": {
    "errors": {
      "MathOverflowedMulDiv()": [
        {
          "details": "Muldiv operation overflow."
        }
      ]
    },
    "kind": "dev",
    "methods": {},
    "version": 1
  },
  "userdoc": {
    "kind": "user",
    "methods": {},
    "version": 1
  },
  "storageLayout": {
    "storage": [
      {
        "astId": 2815,
        "contract": "contracts/BUNN_Governor_Proxy.sol:BUNN_GOVERNOR",
        "label": "utility_token_address",
        "offset": 0,
        "slot": "0",
        "type": "t_address"
      },
      {
        "astId": 2817,
        "contract": "contracts/BUNN_Governor_Proxy.sol:BUNN_GOVERNOR",
        "label": "returned",
        "offset": 0,
        "slot": "1",
        "type": "t_uint256"
      },
      {
        "astId": 2819,
        "contract": "contracts/BUNN_Governor_Proxy.sol:BUNN_GOVERNOR",
        "label": "logic_contract",
        "offset": 0,
        "slot": "2",
        "type": "t_address"
      },
      {
        "astId": 2831,
        "contract": "contracts/BUNN_Governor_Proxy.sol:BUNN_GOVERNOR",
        "label": "admin",
        "offset": 0,
        "slot": "3",
        "type": "t_mapping(t_address,t_struct(admin_)2826_storage)"
      },
      {
        "astId": 2834,
        "contract": "contracts/BUNN_Governor_Proxy.sol:BUNN_GOVERNOR",
        "label": "admins",
        "offset": 0,
        "slot": "4",
        "type": "t_array(t_address)dyn_storage"
      },
      {
        "astId": 2844,
        "contract": "contracts/BUNN_Governor_Proxy.sol:BUNN_GOVERNOR",
        "label": "Members",
        "offset": 0,
        "slot": "5",
        "type": "t_mapping(t_address,t_struct(Member)2839_storage)"
      },
      {
        "astId": 2860,
        "contract": "contracts/BUNN_Governor_Proxy.sol:BUNN_GOVERNOR",
        "label": "ballots",
        "offset": 0,
        "slot": "6",
        "type": "t_mapping(t_address,t_mapping(t_uint256,t_struct(ballot)2853_storage))"
      },
      {
        "astId": 2870,
        "contract": "contracts/BUNN_Governor_Proxy.sol:BUNN_GOVERNOR",
        "label": "votes",
        "offset": 0,
        "slot": "7",
        "type": "t_mapping(t_uint256,t_struct(vote)2865_storage)"
      },
      {
        "astId": 2894,
        "contract": "contracts/BUNN_Governor_Proxy.sol:BUNN_GOVERNOR",
        "label": "Topics",
        "offset": 0,
        "slot": "8",
        "type": "t_mapping(t_uint256,t_struct(Topic)2889_storage)"
      },
      {
        "astId": 2897,
        "contract": "contracts/BUNN_Governor_Proxy.sol:BUNN_GOVERNOR",
        "label": "counter",
        "offset": 0,
        "slot": "9",
        "type": "t_uint256"
      },
      {
        "astId": 2907,
        "contract": "contracts/BUNN_Governor_Proxy.sol:BUNN_GOVERNOR",
        "label": "voting_duration",
        "offset": 0,
        "slot": "10",
        "type": "t_uint256"
      },
      {
        "astId": 2910,
        "contract": "contracts/BUNN_Governor_Proxy.sol:BUNN_GOVERNOR",
        "label": "implementation_delay",
        "offset": 0,
        "slot": "11",
        "type": "t_uint256"
      }
    ],
    "types": {
      "t_address": {
        "encoding": "inplace",
        "label": "address",
        "numberOfBytes": "20"
      },
      "t_array(t_address)dyn_storage": {
        "base": "t_address",
        "encoding": "dynamic_array",
        "label": "address[]",
        "numberOfBytes": "32"
      },
      "t_bool": {
        "encoding": "inplace",
        "label": "bool",
        "numberOfBytes": "1"
      },
      "t_mapping(t_address,t_mapping(t_uint256,t_struct(ballot)2853_storage))": {
        "encoding": "mapping",
        "key": "t_address",
        "label": "mapping(address => mapping(uint256 => struct governor_storage.ballot))",
        "numberOfBytes": "32",
        "value": "t_mapping(t_uint256,t_struct(ballot)2853_storage)"
      },
      "t_mapping(t_address,t_struct(Member)2839_storage)": {
        "encoding": "mapping",
        "key": "t_address",
        "label": "mapping(address => struct governor_storage.Member)",
        "numberOfBytes": "32",
        "value": "t_struct(Member)2839_storage"
      },
      "t_mapping(t_address,t_struct(admin_)2826_storage)": {
        "encoding": "mapping",
        "key": "t_address",
        "label": "mapping(address => struct governor_storage.admin_)",
        "numberOfBytes": "32",
        "value": "t_struct(admin_)2826_storage"
      },
      "t_mapping(t_uint256,t_struct(Topic)2889_storage)": {
        "encoding": "mapping",
        "key": "t_uint256",
        "label": "mapping(uint256 => struct governor_storage.Topic)",
        "numberOfBytes": "32",
        "value": "t_struct(Topic)2889_storage"
      },
      "t_mapping(t_uint256,t_struct(ballot)2853_storage)": {
        "encoding": "mapping",
        "key": "t_uint256",
        "label": "mapping(uint256 => struct governor_storage.ballot)",
        "numberOfBytes": "32",
        "value": "t_struct(ballot)2853_storage"
      },
      "t_mapping(t_uint256,t_struct(vote)2865_storage)": {
        "encoding": "mapping",
        "key": "t_uint256",
        "label": "mapping(uint256 => struct governor_storage.vote)",
        "numberOfBytes": "32",
        "value": "t_struct(vote)2865_storage"
      },
      "t_string_storage": {
        "encoding": "bytes",
        "label": "string",
        "numberOfBytes": "32"
      },
      "t_struct(Member)2839_storage": {
        "encoding": "inplace",
        "label": "struct governor_storage.Member",
        "members": [
          {
            "astId": 2836,
            "contract": "contracts/BUNN_Governor_Proxy.sol:BUNN_GOVERNOR",
            "label": "name",
            "offset": 0,
            "slot": "0",
            "type": "t_string_storage"
          },
          {
            "astId": 2838,
            "contract": "contracts/BUNN_Governor_Proxy.sol:BUNN_GOVERNOR",
            "label": "belongs",
            "offset": 0,
            "slot": "1",
            "type": "t_bool"
          }
        ],
        "numberOfBytes": "64"
      },
      "t_struct(Topic)2889_storage": {
        "encoding": "inplace",
        "label": "struct governor_storage.Topic",
        "members": [
          {
            "astId": 2872,
            "contract": "contracts/BUNN_Governor_Proxy.sol:BUNN_GOVERNOR",
            "label": "id",
            "offset": 0,
            "slot": "0",
            "type": "t_uint256"
          },
          {
            "astId": 2874,
            "contract": "contracts/BUNN_Governor_Proxy.sol:BUNN_GOVERNOR",
            "label": "title",
            "offset": 0,
            "slot": "1",
            "type": "t_string_storage"
          },
          {
            "astId": 2876,
            "contract": "contracts/BUNN_Governor_Proxy.sol:BUNN_GOVERNOR",
            "label": "initiator",
            "offset": 0,
            "slot": "2",
            "type": "t_address"
          },
          {
            "astId": 2878,
            "contract": "contracts/BUNN_Governor_Proxy.sol:BUNN_GOVERNOR",
            "label": "details",
            "offset": 0,
            "slot": "3",
            "type": "t_string_storage"
          },
          {
            "astId": 2880,
            "contract": "contracts/BUNN_Governor_Proxy.sol:BUNN_GOVERNOR",
            "label": "implementation_contract_address",
            "offset": 0,
            "slot": "4",
            "type": "t_address"
          },
          {
            "astId": 2882,
            "contract": "contracts/BUNN_Governor_Proxy.sol:BUNN_GOVERNOR",
            "label": "signature",
            "offset": 0,
            "slot": "5",
            "type": "t_string_storage"
          },
          {
            "astId": 2884,
            "contract": "contracts/BUNN_Governor_Proxy.sol:BUNN_GOVERNOR",
            "label": "start_time",
            "offset": 0,
            "slot": "6",
            "type": "t_uint256"
          },
          {
            "astId": 2886,
            "contract": "contracts/BUNN_Governor_Proxy.sol:BUNN_GOVERNOR",
            "label": "executed",
            "offset": 0,
            "slot": "7",
            "type": "t_bool"
          },
          {
            "astId": 2888,
            "contract": "contracts/BUNN_Governor_Proxy.sol:BUNN_GOVERNOR",
            "label": "cancelled",
            "offset": 1,
            "slot": "7",
            "type": "t_bool"
          }
        ],
        "numberOfBytes": "256"
      },
      "t_struct(admin_)2826_storage": {
        "encoding": "inplace",
        "label": "struct governor_storage.admin_",
        "members": [
          {
            "astId": 2821,
            "contract": "contracts/BUNN_Governor_Proxy.sol:BUNN_GOVERNOR",
            "label": "is_admin",
            "offset": 0,
            "slot": "0",
            "type": "t_bool"
          },
          {
            "astId": 2823,
            "contract": "contracts/BUNN_Governor_Proxy.sol:BUNN_GOVERNOR",
            "label": "removers",
            "offset": 0,
            "slot": "1",
            "type": "t_uint256"
          },
          {
            "astId": 2825,
            "contract": "contracts/BUNN_Governor_Proxy.sol:BUNN_GOVERNOR",
            "label": "adders",
            "offset": 0,
            "slot": "2",
            "type": "t_uint256"
          }
        ],
        "numberOfBytes": "96"
      },
      "t_struct(ballot)2853_storage": {
        "encoding": "inplace",
        "label": "struct governor_storage.ballot",
        "members": [
          {
            "astId": 2846,
            "contract": "contracts/BUNN_Governor_Proxy.sol:BUNN_GOVERNOR",
            "label": "Topic_ID",
            "offset": 0,
            "slot": "0",
            "type": "t_uint256"
          },
          {
            "astId": 2848,
            "contract": "contracts/BUNN_Governor_Proxy.sol:BUNN_GOVERNOR",
            "label": "position",
            "offset": 0,
            "slot": "1",
            "type": "t_bool"
          },
          {
            "astId": 2850,
            "contract": "contracts/BUNN_Governor_Proxy.sol:BUNN_GOVERNOR",
            "label": "voted",
            "offset": 1,
            "slot": "1",
            "type": "t_bool"
          },
          {
            "astId": 2852,
            "contract": "contracts/BUNN_Governor_Proxy.sol:BUNN_GOVERNOR",
            "label": "voting_power",
            "offset": 0,
            "slot": "2",
            "type": "t_uint256"
          }
        ],
        "numberOfBytes": "96"
      },
      "t_struct(vote)2865_storage": {
        "encoding": "inplace",
        "label": "struct governor_storage.vote",
        "members": [
          {
            "astId": 2862,
            "contract": "contracts/BUNN_Governor_Proxy.sol:BUNN_GOVERNOR",
            "label": "for_votes",
            "offset": 0,
            "slot": "0",
            "type": "t_uint256"
          },
          {
            "astId": 2864,
            "contract": "contracts/BUNN_Governor_Proxy.sol:BUNN_GOVERNOR",
            "label": "against_votes",
            "offset": 0,
            "slot": "1",
            "type": "t_uint256"
          }
        ],
        "numberOfBytes": "64"
      },
      "t_uint256": {
        "encoding": "inplace",
        "label": "uint256",
        "numberOfBytes": "32"
      }
    }
  }
}