{
  "address": "0x99B7a3322e755d02704d827A9e9a55489e10e397",
  "abi": [
    {
      "inputs": [],
      "stateMutability": "nonpayable",
      "type": "constructor"
    },
    {
      "anonymous": false,
      "inputs": [
        {
          "indexed": true,
          "internalType": "address",
          "name": "owner",
          "type": "address"
        },
        {
          "indexed": true,
          "internalType": "address",
          "name": "spender",
          "type": "address"
        },
        {
          "indexed": false,
          "internalType": "uint256",
          "name": "value",
          "type": "uint256"
        }
      ],
      "name": "Approval",
      "type": "event"
    },
    {
      "anonymous": false,
      "inputs": [
        {
          "indexed": true,
          "internalType": "address",
          "name": "from",
          "type": "address"
        },
        {
          "indexed": true,
          "internalType": "address",
          "name": "to",
          "type": "address"
        },
        {
          "indexed": false,
          "internalType": "uint256",
          "name": "value",
          "type": "uint256"
        }
      ],
      "name": "Transfer",
      "type": "event"
    },
    {
      "inputs": [
        {
          "internalType": "address",
          "name": "owner",
          "type": "address"
        },
        {
          "internalType": "address",
          "name": "spender",
          "type": "address"
        }
      ],
      "name": "allowance",
      "outputs": [
        {
          "internalType": "uint256",
          "name": "",
          "type": "uint256"
        }
      ],
      "stateMutability": "view",
      "type": "function"
    },
    {
      "inputs": [
        {
          "internalType": "address",
          "name": "spender",
          "type": "address"
        },
        {
          "internalType": "uint256",
          "name": "amount",
          "type": "uint256"
        }
      ],
      "name": "approve",
      "outputs": [
        {
          "internalType": "bool",
          "name": "",
          "type": "bool"
        }
      ],
      "stateMutability": "nonpayable",
      "type": "function"
    },
    {
      "inputs": [
        {
          "internalType": "address",
          "name": "account",
          "type": "address"
        }
      ],
      "name": "balanceOf",
      "outputs": [
        {
          "internalType": "uint256",
          "name": "",
          "type": "uint256"
        }
      ],
      "stateMutability": "view",
      "type": "function"
    },
    {
      "inputs": [],
      "name": "decimals",
      "outputs": [
        {
          "internalType": "uint8",
          "name": "",
          "type": "uint8"
        }
      ],
      "stateMutability": "view",
      "type": "function"
    },
    {
      "inputs": [
        {
          "internalType": "address",
          "name": "spender",
          "type": "address"
        },
        {
          "internalType": "uint256",
          "name": "subtractedValue",
          "type": "uint256"
        }
      ],
      "name": "decreaseAllowance",
      "outputs": [
        {
          "internalType": "bool",
          "name": "",
          "type": "bool"
        }
      ],
      "stateMutability": "nonpayable",
      "type": "function"
    },
    {
      "inputs": [
        {
          "internalType": "address",
          "name": "spender",
          "type": "address"
        },
        {
          "internalType": "uint256",
          "name": "addedValue",
          "type": "uint256"
        }
      ],
      "name": "increaseAllowance",
      "outputs": [
        {
          "internalType": "bool",
          "name": "",
          "type": "bool"
        }
      ],
      "stateMutability": "nonpayable",
      "type": "function"
    },
    {
      "inputs": [
        {
          "internalType": "address",
          "name": "account",
          "type": "address"
        },
        {
          "internalType": "uint256",
          "name": "amount",
          "type": "uint256"
        }
      ],
      "name": "mint",
      "outputs": [],
      "stateMutability": "nonpayable",
      "type": "function"
    },
    {
      "inputs": [],
      "name": "name",
      "outputs": [
        {
          "internalType": "string",
          "name": "",
          "type": "string"
        }
      ],
      "stateMutability": "view",
      "type": "function"
    },
    {
      "inputs": [],
      "name": "owner",
      "outputs": [
        {
          "internalType": "address",
          "name": "",
          "type": "address"
        }
      ],
      "stateMutability": "view",
      "type": "function"
    },
    {
      "inputs": [],
      "name": "symbol",
      "outputs": [
        {
          "internalType": "string",
          "name": "",
          "type": "string"
        }
      ],
      "stateMutability": "view",
      "type": "function"
    },
    {
      "inputs": [],
      "name": "totalSupply",
      "outputs": [
        {
          "internalType": "uint256",
          "name": "",
          "type": "uint256"
        }
      ],
      "stateMutability": "view",
      "type": "function"
    },
    {
      "inputs": [
        {
          "internalType": "address",
          "name": "to",
          "type": "address"
        },
        {
          "internalType": "uint256",
          "name": "amount",
          "type": "uint256"
        }
      ],
      "name": "transfer",
      "outputs": [
        {
          "internalType": "bool",
          "name": "",
          "type": "bool"
        }
      ],
      "stateMutability": "nonpayable",
      "type": "function"
    },
    {
      "inputs": [
        {
          "internalType": "address",
          "name": "from",
          "type": "address"
        },
        {
          "internalType": "address",
          "name": "to",
          "type": "address"
        },
        {
          "internalType": "uint256",
          "name": "amount",
          "type": "uint256"
        }
      ],
      "name": "transferFrom",
      "outputs": [
        {
          "internalType": "bool",
          "name": "",
          "type": "bool"
        }
      ],
      "stateMutability": "nonpayable",
      "type": "function"
    }
  ],
  "transactionHash": "0x99bb181534fde795eee88338c01850cd547eb683916e4ca1fb6e0b28d8ff723c",
  "args": [],
  "numDeployments": 1,
  "solcInputHash": "ff7b00feb3eb45b84f457e1d393cc633",
  "bytecode": "0x60806040523480156200001157600080fd5b506040518060400160405280600881526020017f42554e4e5f44414f0000000000000000000000000000000000000000000000008152506040518060400160405280600481526020017f4244414f0000000000000000000000000000000000000000000000000000000081525081600390816200008f9190620003a4565b508060049081620000a19190620003a4565b50505033600660006101000a81548173ffffffffffffffffffffffffffffffffffffffff021916908373ffffffffffffffffffffffffffffffffffffffff160217905550620000f56200012160201b60201c565b600a6200010391906200061b565b6402540be4006200011591906200066c565b600581905550620006b7565b60006012905090565b600081519050919050565b7f4e487b7100000000000000000000000000000000000000000000000000000000600052604160045260246000fd5b7f4e487b7100000000000000000000000000000000000000000000000000000000600052602260045260246000fd5b60006002820490506001821680620001ac57607f821691505b602082108103620001c257620001c162000164565b5b50919050565b60008190508160005260206000209050919050565b60006020601f8301049050919050565b600082821b905092915050565b6000600883026200022c7fffffffffffffffffffffffffffffffffffffffffffffffffffffffffffffffff82620001ed565b620002388683620001ed565b95508019841693508086168417925050509392505050565b6000819050919050565b6000819050919050565b6000620002856200027f620002798462000250565b6200025a565b62000250565b9050919050565b6000819050919050565b620002a18362000264565b620002b9620002b0826200028c565b848454620001fa565b825550505050565b600090565b620002d0620002c1565b620002dd81848462000296565b505050565b5b818110156200030557620002f9600082620002c6565b600181019050620002e3565b5050565b601f82111562000354576200031e81620001c8565b6200032984620001dd565b8101602085101562000339578190505b620003516200034885620001dd565b830182620002e2565b50505b505050565b600082821c905092915050565b6000620003796000198460080262000359565b1980831691505092915050565b600062000394838362000366565b9150826002028217905092915050565b620003af826200012a565b67ffffffffffffffff811115620003cb57620003ca62000135565b5b620003d7825462000193565b620003e482828562000309565b600060209050601f8311600181146200041c576000841562000407578287015190505b62000413858262000386565b86555062000483565b601f1984166200042c86620001c8565b60005b8281101562000456578489015182556001820191506020850194506020810190506200042f565b8683101562000476578489015162000472601f89168262000366565b8355505b6001600288020188555050505b505050505050565b7f4e487b7100000000000000000000000000000000000000000000000000000000600052601160045260246000fd5b60008160011c9050919050565b6000808291508390505b60018511156200051957808604811115620004f157620004f06200048b565b5b6001851615620005015780820291505b80810290506200051185620004ba565b9450620004d1565b94509492505050565b60008262000534576001905062000607565b8162000544576000905062000607565b81600181146200055d576002811462000568576200059e565b600191505062000607565b60ff8411156200057d576200057c6200048b565b5b8360020a9150848211156200059757620005966200048b565b5b5062000607565b5060208310610133831016604e8410600b8410161715620005d85782820a905083811115620005d257620005d16200048b565b5b62000607565b620005e78484846001620004c7565b925090508184048111156200060157620006006200048b565b5b81810290505b9392505050565b600060ff82169050919050565b6000620006288262000250565b915062000635836200060e565b9250620006647fffffffffffffffffffffffffffffffffffffffffffffffffffffffffffffffff848462000522565b905092915050565b6000620006798262000250565b9150620006868362000250565b9250828202620006968162000250565b91508282048414831517620006b057620006af6200048b565b5b5092915050565b61156480620006c76000396000f3fe608060405234801561001057600080fd5b50600436106100cf5760003560e01c806340c10f191161008c57806395d89b411161006657806395d89b4114610228578063a457c2d714610246578063a9059cbb14610276578063dd62ed3e146102a6576100cf565b806340c10f19146101be57806370a08231146101da5780638da5cb5b1461020a576100cf565b806306fdde03146100d4578063095ea7b3146100f257806318160ddd1461012257806323b872dd14610140578063313ce56714610170578063395093511461018e575b600080fd5b6100dc6102d6565b6040516100e99190610d33565b60405180910390f35b61010c60048036038101906101079190610dee565b610313565b6040516101199190610e49565b60405180910390f35b61012a610336565b6040516101379190610e73565b60405180910390f35b61015a60048036038101906101559190610e8e565b610340565b6040516101679190610e49565b60405180910390f35b61017861036f565b6040516101859190610efd565b60405180910390f35b6101a860048036038101906101a39190610dee565b610378565b6040516101b59190610e49565b60405180910390f35b6101d860048036038101906101d39190610dee565b6103af565b005b6101f460048036038101906101ef9190610f18565b6104a4565b6040516102019190610e73565b60405180910390f35b6102126104ec565b60405161021f9190610f54565b60405180910390f35b610230610512565b60405161023d9190610d33565b60405180910390f35b610260600480360381019061025b9190610dee565b61054f565b60405161026d9190610e49565b60405180910390f35b610290600480360381019061028b9190610dee565b6105c6565b60405161029d9190610e49565b60405180910390f35b6102c060048036038101906102bb9190610f6f565b6105e9565b6040516102cd9190610e73565b60405180910390f35b60606040518060400160405280600a81526020017f4f4e5755414a5545534500000000000000000000000000000000000000000000815250905090565b60008061031e610670565b905061032b818585610678565b600191505092915050565b6000600254905090565b60008061034b610670565b9050610358858285610841565b6103638585856108cd565b60019150509392505050565b60006012905090565b600080610383610670565b90506103a481858561039585896105e9565b61039f9190610fde565b610678565b600191505092915050565b600660009054906101000a900473ffffffffffffffffffffffffffffffffffffffff1673ffffffffffffffffffffffffffffffffffffffff163373ffffffffffffffffffffffffffffffffffffffff161461043f576040517f08c379a00000000000000000000000000000000000000000000000000000000081526004016104369061105e565b60405180910390fd5b6005548161044b610336565b6104559190610fde565b1115610496576040517f08c379a000000000000000000000000000000000000000000000000000000000815260040161048d906110ca565b60405180910390fd5b6104a08282610b43565b5050565b60008060008373ffffffffffffffffffffffffffffffffffffffff1673ffffffffffffffffffffffffffffffffffffffff168152602001908152602001600020549050919050565b600660009054906101000a900473ffffffffffffffffffffffffffffffffffffffff1681565b60606040518060400160405280600481526020017f42554e4e00000000000000000000000000000000000000000000000000000000815250905090565b60008061055a610670565b9050600061056882866105e9565b9050838110156105ad576040517f08c379a00000000000000000000000000000000000000000000000000000000081526004016105a49061115c565b60405180910390fd5b6105ba8286868403610678565b60019250505092915050565b6000806105d1610670565b90506105de8185856108cd565b600191505092915050565b6000600160008473ffffffffffffffffffffffffffffffffffffffff1673ffffffffffffffffffffffffffffffffffffffff16815260200190815260200160002060008373ffffffffffffffffffffffffffffffffffffffff1673ffffffffffffffffffffffffffffffffffffffff16815260200190815260200160002054905092915050565b600033905090565b600073ffffffffffffffffffffffffffffffffffffffff168373ffffffffffffffffffffffffffffffffffffffff16036106e7576040517f08c379a00000000000000000000000000000000000000000000000000000000081526004016106de906111ee565b60405180910390fd5b600073ffffffffffffffffffffffffffffffffffffffff168273ffffffffffffffffffffffffffffffffffffffff1603610756576040517f08c379a000000000000000000000000000000000000000000000000000000000815260040161074d90611280565b60405180910390fd5b80600160008573ffffffffffffffffffffffffffffffffffffffff1673ffffffffffffffffffffffffffffffffffffffff16815260200190815260200160002060008473ffffffffffffffffffffffffffffffffffffffff1673ffffffffffffffffffffffffffffffffffffffff168152602001908152602001600020819055508173ffffffffffffffffffffffffffffffffffffffff168373ffffffffffffffffffffffffffffffffffffffff167f8c5be1e5ebec7d5bd14f71427d1e84f3dd0314c0f7b2291e5b200ac8c7c3b925836040516108349190610e73565b60405180910390a3505050565b600061084d84846105e9565b90507fffffffffffffffffffffffffffffffffffffffffffffffffffffffffffffffff81146108c757818110156108b9576040517f08c379a00000000000000000000000000000000000000000000000000000000081526004016108b0906112ec565b60405180910390fd5b6108c68484848403610678565b5b50505050565b600073ffffffffffffffffffffffffffffffffffffffff168373ffffffffffffffffffffffffffffffffffffffff160361093c576040517f08c379a00000000000000000000000000000000000000000000000000000000081526004016109339061137e565b60405180910390fd5b600073ffffffffffffffffffffffffffffffffffffffff168273ffffffffffffffffffffffffffffffffffffffff16036109ab576040517f08c379a00000000000000000000000000000000000000000000000000000000081526004016109a290611410565b60405180910390fd5b6109b6838383610c99565b60008060008573ffffffffffffffffffffffffffffffffffffffff1673ffffffffffffffffffffffffffffffffffffffff16815260200190815260200160002054905081811015610a3c576040517f08c379a0000000000000000000000000000000000000000000000000000000008152600401610a33906114a2565b60405180910390fd5b8181036000808673ffffffffffffffffffffffffffffffffffffffff1673ffffffffffffffffffffffffffffffffffffffff16815260200190815260200160002081905550816000808573ffffffffffffffffffffffffffffffffffffffff1673ffffffffffffffffffffffffffffffffffffffff168152602001908152602001600020600082825401925050819055508273ffffffffffffffffffffffffffffffffffffffff168473ffffffffffffffffffffffffffffffffffffffff167fddf252ad1be2c89b69c2b068fc378daa952ba7f163c4a11628f55a4df523b3ef84604051610b2a9190610e73565b60405180910390a3610b3d848484610c9e565b50505050565b600073ffffffffffffffffffffffffffffffffffffffff168273ffffffffffffffffffffffffffffffffffffffff1603610bb2576040517f08c379a0000000000000000000000000000000000000000000000000000000008152600401610ba99061150e565b60405180910390fd5b610bbe60008383610c99565b8060026000828254610bd09190610fde565b92505081905550806000808473ffffffffffffffffffffffffffffffffffffffff1673ffffffffffffffffffffffffffffffffffffffff168152602001908152602001600020600082825401925050819055508173ffffffffffffffffffffffffffffffffffffffff16600073ffffffffffffffffffffffffffffffffffffffff167fddf252ad1be2c89b69c2b068fc378daa952ba7f163c4a11628f55a4df523b3ef83604051610c819190610e73565b60405180910390a3610c9560008383610c9e565b5050565b505050565b505050565b600081519050919050565b600082825260208201905092915050565b60005b83811015610cdd578082015181840152602081019050610cc2565b60008484015250505050565b6000601f19601f8301169050919050565b6000610d0582610ca3565b610d0f8185610cae565b9350610d1f818560208601610cbf565b610d2881610ce9565b840191505092915050565b60006020820190508181036000830152610d4d8184610cfa565b905092915050565b600080fd5b600073ffffffffffffffffffffffffffffffffffffffff82169050919050565b6000610d8582610d5a565b9050919050565b610d9581610d7a565b8114610da057600080fd5b50565b600081359050610db281610d8c565b92915050565b6000819050919050565b610dcb81610db8565b8114610dd657600080fd5b50565b600081359050610de881610dc2565b92915050565b60008060408385031215610e0557610e04610d55565b5b6000610e1385828601610da3565b9250506020610e2485828601610dd9565b9150509250929050565b60008115159050919050565b610e4381610e2e565b82525050565b6000602082019050610e5e6000830184610e3a565b92915050565b610e6d81610db8565b82525050565b6000602082019050610e886000830184610e64565b92915050565b600080600060608486031215610ea757610ea6610d55565b5b6000610eb586828701610da3565b9350506020610ec686828701610da3565b9250506040610ed786828701610dd9565b9150509250925092565b600060ff82169050919050565b610ef781610ee1565b82525050565b6000602082019050610f126000830184610eee565b92915050565b600060208284031215610f2e57610f2d610d55565b5b6000610f3c84828501610da3565b91505092915050565b610f4e81610d7a565b82525050565b6000602082019050610f696000830184610f45565b92915050565b60008060408385031215610f8657610f85610d55565b5b6000610f9485828601610da3565b9250506020610fa585828601610da3565b9150509250929050565b7f4e487b7100000000000000000000000000000000000000000000000000000000600052601160045260246000fd5b6000610fe982610db8565b9150610ff483610db8565b925082820190508082111561100c5761100b610faf565b5b92915050565b7f556e617574686f72697a656420456e7469747900000000000000000000000000600082015250565b6000611048601383610cae565b915061105382611012565b602082019050919050565b600060208201905081810360008301526110778161103b565b9050919050565b7f4d415820535550504c5920455843454544454400000000000000000000000000600082015250565b60006110b4601383610cae565b91506110bf8261107e565b602082019050919050565b600060208201905081810360008301526110e3816110a7565b9050919050565b7f45524332303a2064656372656173656420616c6c6f77616e63652062656c6f7760008201527f207a65726f000000000000000000000000000000000000000000000000000000602082015250565b6000611146602583610cae565b9150611151826110ea565b604082019050919050565b6000602082019050818103600083015261117581611139565b9050919050565b7f45524332303a20617070726f76652066726f6d20746865207a65726f2061646460008201527f7265737300000000000000000000000000000000000000000000000000000000602082015250565b60006111d8602483610cae565b91506111e38261117c565b604082019050919050565b60006020820190508181036000830152611207816111cb565b9050919050565b7f45524332303a20617070726f766520746f20746865207a65726f20616464726560008201527f7373000000000000000000000000000000000000000000000000000000000000602082015250565b600061126a602283610cae565b91506112758261120e565b604082019050919050565b600060208201905081810360008301526112998161125d565b9050919050565b7f45524332303a20696e73756666696369656e7420616c6c6f77616e6365000000600082015250565b60006112d6601d83610cae565b91506112e1826112a0565b602082019050919050565b60006020820190508181036000830152611305816112c9565b9050919050565b7f45524332303a207472616e736665722066726f6d20746865207a65726f20616460008201527f6472657373000000000000000000000000000000000000000000000000000000602082015250565b6000611368602583610cae565b91506113738261130c565b604082019050919050565b600060208201905081810360008301526113978161135b565b9050919050565b7f45524332303a207472616e7366657220746f20746865207a65726f206164647260008201527f6573730000000000000000000000000000000000000000000000000000000000602082015250565b60006113fa602383610cae565b91506114058261139e565b604082019050919050565b60006020820190508181036000830152611429816113ed565b9050919050565b7f45524332303a207472616e7366657220616d6f756e742065786365656473206260008201527f616c616e63650000000000000000000000000000000000000000000000000000602082015250565b600061148c602683610cae565b915061149782611430565b604082019050919050565b600060208201905081810360008301526114bb8161147f565b9050919050565b7f45524332303a206d696e7420746f20746865207a65726f206164647265737300600082015250565b60006114f8601f83610cae565b9150611503826114c2565b602082019050919050565b60006020820190508181036000830152611527816114eb565b905091905056fea2646970667358221220b3ddf8c64c09fefbef0ba2c3f0ebc1f7a768f53e18462cc78f089847009b9e9964736f6c63430008140033",
  "devdoc": {
    "events": {
      "Approval(address,address,uint256)": {
        "details": "Emitted when the allowance of a `spender` for an `owner` is set by a call to {approve}. `value` is the new allowance."
      },
      "Transfer(address,address,uint256)": {
        "details": "Emitted when `value` tokens are moved from one account (`from`) to another (`to`). Note that `value` may be zero."
      }
    },
    "kind": "dev",
    "methods": {
      "allowance(address,address)": {
        "details": "See {IERC20-allowance}."
      },
      "approve(address,uint256)": {
        "details": "See {IERC20-approve}. NOTE: If `amount` is the maximum `uint256`, the allowance is not updated on `transferFrom`. This is semantically equivalent to an infinite approval. Requirements: - `spender` cannot be the zero address."
      },
      "balanceOf(address)": {
        "details": "See {IERC20-balanceOf}."
      },
      "decimals()": {
        "details": "Returns the number of decimals used to get its user representation. For example, if `decimals` equals `2`, a balance of `505` tokens should be displayed to a user as `5.05` (`505 / 10 ** 2`). Tokens usually opt for a value of 18, imitating the relationship between Ether and Wei. This is the default value returned by this function, unless it's overridden. NOTE: This information is only used for _display_ purposes: it in no way affects any of the arithmetic of the contract, including {IERC20-balanceOf} and {IERC20-transfer}."
      },
      "decreaseAllowance(address,uint256)": {
        "details": "Atomically decreases the allowance granted to `spender` by the caller. This is an alternative to {approve} that can be used as a mitigation for problems described in {IERC20-approve}. Emits an {Approval} event indicating the updated allowance. Requirements: - `spender` cannot be the zero address. - `spender` must have allowance for the caller of at least `subtractedValue`."
      },
      "increaseAllowance(address,uint256)": {
        "details": "Atomically increases the allowance granted to `spender` by the caller. This is an alternative to {approve} that can be used as a mitigation for problems described in {IERC20-approve}. Emits an {Approval} event indicating the updated allowance. Requirements: - `spender` cannot be the zero address."
      },
      "name()": {
        "details": "Returns the name of the token."
      },
      "symbol()": {
        "details": "Returns the symbol of the token, usually a shorter version of the name."
      },
      "totalSupply()": {
        "details": "See {IERC20-totalSupply}."
      },
      "transfer(address,uint256)": {
        "details": "See {IERC20-transfer}. Requirements: - `to` cannot be the zero address. - the caller must have a balance of at least `amount`."
      },
      "transferFrom(address,address,uint256)": {
        "details": "See {IERC20-transferFrom}. Emits an {Approval} event indicating the updated allowance. This is not required by the EIP. See the note at the beginning of {ERC20}. NOTE: Does not update the allowance if the current allowance is the maximum `uint256`. Requirements: - `from` and `to` cannot be the zero address. - `from` must have a balance of at least `amount`. - the caller must have allowance for ``from``'s tokens of at least `amount`."
      }
    },
    "version": 1
  },
  "userdoc": {
    "kind": "user",
    "methods": {},
    "version": 1
  },
  "storageLayout": {
    "storage": [
      {
        "astId": 1566,
        "contract": "contracts/governance_token.sol:BUNN_DAO_test",
        "label": "_balances",
        "offset": 0,
        "slot": "0",
        "type": "t_mapping(t_address,t_uint256)"
      },
      {
        "astId": 1572,
        "contract": "contracts/governance_token.sol:BUNN_DAO_test",
        "label": "_allowances",
        "offset": 0,
        "slot": "1",
        "type": "t_mapping(t_address,t_mapping(t_address,t_uint256))"
      },
      {
        "astId": 1574,
        "contract": "contracts/governance_token.sol:BUNN_DAO_test",
        "label": "_totalSupply",
        "offset": 0,
        "slot": "2",
        "type": "t_uint256"
      },
      {
        "astId": 1576,
        "contract": "contracts/governance_token.sol:BUNN_DAO_test",
        "label": "_name",
        "offset": 0,
        "slot": "3",
        "type": "t_string_storage"
      },
      {
        "astId": 1578,
        "contract": "contracts/governance_token.sol:BUNN_DAO_test",
        "label": "_symbol",
        "offset": 0,
        "slot": "4",
        "type": "t_string_storage"
      },
      {
        "astId": 2142,
        "contract": "contracts/governance_token.sol:BUNN_DAO_test",
        "label": "MAX_SUPPLY",
        "offset": 0,
        "slot": "5",
        "type": "t_uint256"
      },
      {
        "astId": 2144,
        "contract": "contracts/governance_token.sol:BUNN_DAO_test",
        "label": "owner",
        "offset": 0,
        "slot": "6",
        "type": "t_address"
      }
    ],
    "types": {
      "t_address": {
        "encoding": "inplace",
        "label": "address",
        "numberOfBytes": "20"
      },
      "t_mapping(t_address,t_mapping(t_address,t_uint256))": {
        "encoding": "mapping",
        "key": "t_address",
        "label": "mapping(address => mapping(address => uint256))",
        "numberOfBytes": "32",
        "value": "t_mapping(t_address,t_uint256)"
      },
      "t_mapping(t_address,t_uint256)": {
        "encoding": "mapping",
        "key": "t_address",
        "label": "mapping(address => uint256)",
        "numberOfBytes": "32",
        "value": "t_uint256"
      },
      "t_string_storage": {
        "encoding": "bytes",
        "label": "string",
        "numberOfBytes": "32"
      },
      "t_uint256": {
        "encoding": "inplace",
        "label": "uint256",
        "numberOfBytes": "32"
      }
    }
  }
}