{
  "address": "0xEC68485F7B57312abB999eDBa8Bb965D254cda9A",
  "abi": [
    {
      "inputs": [],
      "stateMutability": "nonpayable",
      "type": "constructor"
    },
    {
      "anonymous": false,
      "inputs": [
        {
          "indexed": true,
          "internalType": "address",
          "name": "owner",
          "type": "address"
        },
        {
          "indexed": true,
          "internalType": "address",
          "name": "spender",
          "type": "address"
        },
        {
          "indexed": false,
          "internalType": "uint256",
          "name": "value",
          "type": "uint256"
        }
      ],
      "name": "Approval",
      "type": "event"
    },
    {
      "anonymous": false,
      "inputs": [
        {
          "indexed": true,
          "internalType": "address",
          "name": "from",
          "type": "address"
        },
        {
          "indexed": true,
          "internalType": "address",
          "name": "to",
          "type": "address"
        },
        {
          "indexed": false,
          "internalType": "uint256",
          "name": "value",
          "type": "uint256"
        }
      ],
      "name": "Transfer",
      "type": "event"
    },
    {
      "inputs": [
        {
          "internalType": "address",
          "name": "owner",
          "type": "address"
        },
        {
          "internalType": "address",
          "name": "spender",
          "type": "address"
        }
      ],
      "name": "allowance",
      "outputs": [
        {
          "internalType": "uint256",
          "name": "",
          "type": "uint256"
        }
      ],
      "stateMutability": "view",
      "type": "function"
    },
    {
      "inputs": [
        {
          "internalType": "address",
          "name": "spender",
          "type": "address"
        },
        {
          "internalType": "uint256",
          "name": "amount",
          "type": "uint256"
        }
      ],
      "name": "approve",
      "outputs": [
        {
          "internalType": "bool",
          "name": "",
          "type": "bool"
        }
      ],
      "stateMutability": "nonpayable",
      "type": "function"
    },
    {
      "inputs": [
        {
          "internalType": "address",
          "name": "account",
          "type": "address"
        }
      ],
      "name": "balanceOf",
      "outputs": [
        {
          "internalType": "uint256",
          "name": "",
          "type": "uint256"
        }
      ],
      "stateMutability": "view",
      "type": "function"
    },
    {
      "inputs": [],
      "name": "buy_tokens",
      "outputs": [],
      "stateMutability": "payable",
      "type": "function"
    },
    {
      "inputs": [],
      "name": "decimals",
      "outputs": [
        {
          "internalType": "uint8",
          "name": "",
          "type": "uint8"
        }
      ],
      "stateMutability": "view",
      "type": "function"
    },
    {
      "inputs": [
        {
          "internalType": "address",
          "name": "spender",
          "type": "address"
        },
        {
          "internalType": "uint256",
          "name": "subtractedValue",
          "type": "uint256"
        }
      ],
      "name": "decreaseAllowance",
      "outputs": [
        {
          "internalType": "bool",
          "name": "",
          "type": "bool"
        }
      ],
      "stateMutability": "nonpayable",
      "type": "function"
    },
    {
      "inputs": [
        {
          "internalType": "address",
          "name": "spender",
          "type": "address"
        },
        {
          "internalType": "uint256",
          "name": "addedValue",
          "type": "uint256"
        }
      ],
      "name": "increaseAllowance",
      "outputs": [
        {
          "internalType": "bool",
          "name": "",
          "type": "bool"
        }
      ],
      "stateMutability": "nonpayable",
      "type": "function"
    },
    {
      "inputs": [
        {
          "internalType": "address",
          "name": "account",
          "type": "address"
        },
        {
          "internalType": "uint256",
          "name": "amount",
          "type": "uint256"
        }
      ],
      "name": "mint",
      "outputs": [],
      "stateMutability": "nonpayable",
      "type": "function"
    },
    {
      "inputs": [],
      "name": "name",
      "outputs": [
        {
          "internalType": "string",
          "name": "",
          "type": "string"
        }
      ],
      "stateMutability": "view",
      "type": "function"
    },
    {
      "inputs": [],
      "name": "owner",
      "outputs": [
        {
          "internalType": "address",
          "name": "",
          "type": "address"
        }
      ],
      "stateMutability": "view",
      "type": "function"
    },
    {
      "inputs": [],
      "name": "symbol",
      "outputs": [
        {
          "internalType": "string",
          "name": "",
          "type": "string"
        }
      ],
      "stateMutability": "view",
      "type": "function"
    },
    {
      "inputs": [],
      "name": "totalSupply",
      "outputs": [
        {
          "internalType": "uint256",
          "name": "",
          "type": "uint256"
        }
      ],
      "stateMutability": "view",
      "type": "function"
    },
    {
      "inputs": [
        {
          "internalType": "address",
          "name": "to",
          "type": "address"
        },
        {
          "internalType": "uint256",
          "name": "amount",
          "type": "uint256"
        }
      ],
      "name": "transfer",
      "outputs": [
        {
          "internalType": "bool",
          "name": "",
          "type": "bool"
        }
      ],
      "stateMutability": "nonpayable",
      "type": "function"
    },
    {
      "inputs": [
        {
          "internalType": "address",
          "name": "from",
          "type": "address"
        },
        {
          "internalType": "address",
          "name": "to",
          "type": "address"
        },
        {
          "internalType": "uint256",
          "name": "amount",
          "type": "uint256"
        }
      ],
      "name": "transferFrom",
      "outputs": [
        {
          "internalType": "bool",
          "name": "",
          "type": "bool"
        }
      ],
      "stateMutability": "nonpayable",
      "type": "function"
    },
    {
      "inputs": [
        {
          "internalType": "address",
          "name": "holder",
          "type": "address"
        },
        {
          "internalType": "uint256",
          "name": "amount",
          "type": "uint256"
        }
      ],
      "name": "withdraw_funds",
      "outputs": [],
      "stateMutability": "nonpayable",
      "type": "function"
    }
  ],
  "transactionHash": "0xf04ade9cb36234d03f71f38daa57dad39b03e34c3443033fc52da11475700ef7",
  "args": [],
  "numDeployments": 4,
  "solcInputHash": "d4a6bc059d7cb24b71b78a51362b99f7",
  "bytecode": "0x60806040523480156200001157600080fd5b506040518060400160405280601281526020017f42554e4e5f5554494c4954595f544f4b454e00000000000000000000000000008152506040518060400160405280600481526020017f42554e4e0000000000000000000000000000000000000000000000000000000081525081600390816200008f9190620003a4565b508060049081620000a19190620003a4565b50505033600660006101000a81548173ffffffffffffffffffffffffffffffffffffffff021916908373ffffffffffffffffffffffffffffffffffffffff160217905550620000f56200012160201b60201c565b600a6200010391906200061b565b6402540be4006200011591906200066c565b600581905550620006b7565b60006012905090565b600081519050919050565b7f4e487b7100000000000000000000000000000000000000000000000000000000600052604160045260246000fd5b7f4e487b7100000000000000000000000000000000000000000000000000000000600052602260045260246000fd5b60006002820490506001821680620001ac57607f821691505b602082108103620001c257620001c162000164565b5b50919050565b60008190508160005260206000209050919050565b60006020601f8301049050919050565b600082821b905092915050565b6000600883026200022c7fffffffffffffffffffffffffffffffffffffffffffffffffffffffffffffffff82620001ed565b620002388683620001ed565b95508019841693508086168417925050509392505050565b6000819050919050565b6000819050919050565b6000620002856200027f620002798462000250565b6200025a565b62000250565b9050919050565b6000819050919050565b620002a18362000264565b620002b9620002b0826200028c565b848454620001fa565b825550505050565b600090565b620002d0620002c1565b620002dd81848462000296565b505050565b5b818110156200030557620002f9600082620002c6565b600181019050620002e3565b5050565b601f82111562000354576200031e81620001c8565b6200032984620001dd565b8101602085101562000339578190505b620003516200034885620001dd565b830182620002e2565b50505b505050565b600082821c905092915050565b6000620003796000198460080262000359565b1980831691505092915050565b600062000394838362000366565b9150826002028217905092915050565b620003af826200012a565b67ffffffffffffffff811115620003cb57620003ca62000135565b5b620003d7825462000193565b620003e482828562000309565b600060209050601f8311600181146200041c576000841562000407578287015190505b62000413858262000386565b86555062000483565b601f1984166200042c86620001c8565b60005b8281101562000456578489015182556001820191506020850194506020810190506200042f565b8683101562000476578489015162000472601f89168262000366565b8355505b6001600288020188555050505b505050505050565b7f4e487b7100000000000000000000000000000000000000000000000000000000600052601160045260246000fd5b60008160011c9050919050565b6000808291508390505b60018511156200051957808604811115620004f157620004f06200048b565b5b6001851615620005015780820291505b80810290506200051185620004ba565b9450620004d1565b94509492505050565b60008262000534576001905062000607565b8162000544576000905062000607565b81600181146200055d576002811462000568576200059e565b600191505062000607565b60ff8411156200057d576200057c6200048b565b5b8360020a9150848211156200059757620005966200048b565b5b5062000607565b5060208310610133831016604e8410600b8410161715620005d85782820a905083811115620005d257620005d16200048b565b5b62000607565b620005e78484846001620004c7565b925090508184048111156200060157620006006200048b565b5b81810290505b9392505050565b600060ff82169050919050565b6000620006288262000250565b915062000635836200060e565b9250620006647fffffffffffffffffffffffffffffffffffffffffffffffffffffffffffffffff848462000522565b905092915050565b6000620006798262000250565b9150620006868362000250565b9250828202620006968162000250565b91508282048414831517620006b057620006af6200048b565b5b5092915050565b611a3780620006c76000396000f3fe6080604052600436106100e85760003560e01c806340c10f191161008a57806395d89b411161005957806395d89b41146102e9578063a457c2d714610314578063a9059cbb14610351578063dd62ed3e1461038e576100e8565b806340c10f191461024e578063469c62a61461027757806370a08231146102815780638da5cb5b146102be576100e8565b806323b872dd116100c657806323b872dd1461018057806325f62784146101bd578063313ce567146101e65780633950935114610211576100e8565b806306fdde03146100ed578063095ea7b31461011857806318160ddd14610155575b600080fd5b3480156100f957600080fd5b506101026103cb565b60405161010f9190611020565b60405180910390f35b34801561012457600080fd5b5061013f600480360381019061013a91906110db565b610408565b60405161014c9190611136565b60405180910390f35b34801561016157600080fd5b5061016a61042b565b6040516101779190611160565b60405180910390f35b34801561018c57600080fd5b506101a760048036038101906101a2919061117b565b610435565b6040516101b49190611136565b60405180910390f35b3480156101c957600080fd5b506101e460048036038101906101df91906110db565b610464565b005b3480156101f257600080fd5b506101fb610594565b60405161020891906111ea565b60405180910390f35b34801561021d57600080fd5b50610238600480360381019061023391906110db565b61059d565b6040516102459190611136565b60405180910390f35b34801561025a57600080fd5b50610275600480360381019061027091906110db565b6105d4565b005b61027f6106c9565b005b34801561028d57600080fd5b506102a860048036038101906102a39190611205565b610791565b6040516102b59190611160565b60405180910390f35b3480156102ca57600080fd5b506102d36107d9565b6040516102e09190611241565b60405180910390f35b3480156102f557600080fd5b506102fe6107ff565b60405161030b9190611020565b60405180910390f35b34801561032057600080fd5b5061033b600480360381019061033691906110db565b61083c565b6040516103489190611136565b60405180910390f35b34801561035d57600080fd5b50610378600480360381019061037391906110db565b6108b3565b6040516103859190611136565b60405180910390f35b34801561039a57600080fd5b506103b560048036038101906103b0919061125c565b6108d6565b6040516103c29190611160565b60405180910390f35b60606040518060400160405280600a81526020017f4f4e5755414a5545534500000000000000000000000000000000000000000000815250905090565b60008061041361095d565b9050610420818585610965565b600191505092915050565b6000600254905090565b60008061044061095d565b905061044d858285610b2e565b610458858585610bba565b60019150509392505050565b600660009054906101000a900473ffffffffffffffffffffffffffffffffffffffff1673ffffffffffffffffffffffffffffffffffffffff163373ffffffffffffffffffffffffffffffffffffffff16146104f4576040517f08c379a00000000000000000000000000000000000000000000000000000000081526004016104eb906112e8565b60405180910390fd5b804711610536576040517f08c379a000000000000000000000000000000000000000000000000000000000815260040161052d90611354565b60405180910390fd5b8173ffffffffffffffffffffffffffffffffffffffff166108fc670de0b6b3a76400008361056491906113a3565b9081150290604051600060405180830381858888f1935050505015801561058f573d6000803e3d6000fd5b505050565b60006012905090565b6000806105a861095d565b90506105c98185856105ba85896108d6565b6105c491906113e5565b610965565b600191505092915050565b600660009054906101000a900473ffffffffffffffffffffffffffffffffffffffff1673ffffffffffffffffffffffffffffffffffffffff163373ffffffffffffffffffffffffffffffffffffffff1614610664576040517f08c379a000000000000000000000000000000000000000000000000000000000815260040161065b906112e8565b60405180910390fd5b6005548161067061042b565b61067a91906113e5565b11156106bb576040517f08c379a00000000000000000000000000000000000000000000000000000000081526004016106b290611465565b60405180910390fd5b6106c58282610e30565b5050565b6000341161070c576040517f08c379a0000000000000000000000000000000000000000000000000000000008152600401610703906114d1565b60405180910390fd5b3373ffffffffffffffffffffffffffffffffffffffff1631341115610766576040517f08c379a000000000000000000000000000000000000000000000000000000000815260040161075d9061153d565b60405180910390fd5b61078f33670de0b6b3a764000060fa3461078091906113a3565b61078a919061158c565b610e30565b565b60008060008373ffffffffffffffffffffffffffffffffffffffff1673ffffffffffffffffffffffffffffffffffffffff168152602001908152602001600020549050919050565b600660009054906101000a900473ffffffffffffffffffffffffffffffffffffffff1681565b60606040518060400160405280600481526020017f42554e4e00000000000000000000000000000000000000000000000000000000815250905090565b60008061084761095d565b9050600061085582866108d6565b90508381101561089a576040517f08c379a00000000000000000000000000000000000000000000000000000000081526004016108919061162f565b60405180910390fd5b6108a78286868403610965565b60019250505092915050565b6000806108be61095d565b90506108cb818585610bba565b600191505092915050565b6000600160008473ffffffffffffffffffffffffffffffffffffffff1673ffffffffffffffffffffffffffffffffffffffff16815260200190815260200160002060008373ffffffffffffffffffffffffffffffffffffffff1673ffffffffffffffffffffffffffffffffffffffff16815260200190815260200160002054905092915050565b600033905090565b600073ffffffffffffffffffffffffffffffffffffffff168373ffffffffffffffffffffffffffffffffffffffff16036109d4576040517f08c379a00000000000000000000000000000000000000000000000000000000081526004016109cb906116c1565b60405180910390fd5b600073ffffffffffffffffffffffffffffffffffffffff168273ffffffffffffffffffffffffffffffffffffffff1603610a43576040517f08c379a0000000000000000000000000000000000000000000000000000000008152600401610a3a90611753565b60405180910390fd5b80600160008573ffffffffffffffffffffffffffffffffffffffff1673ffffffffffffffffffffffffffffffffffffffff16815260200190815260200160002060008473ffffffffffffffffffffffffffffffffffffffff1673ffffffffffffffffffffffffffffffffffffffff168152602001908152602001600020819055508173ffffffffffffffffffffffffffffffffffffffff168373ffffffffffffffffffffffffffffffffffffffff167f8c5be1e5ebec7d5bd14f71427d1e84f3dd0314c0f7b2291e5b200ac8c7c3b92583604051610b219190611160565b60405180910390a3505050565b6000610b3a84846108d6565b90507fffffffffffffffffffffffffffffffffffffffffffffffffffffffffffffffff8114610bb45781811015610ba6576040517f08c379a0000000000000000000000000000000000000000000000000000000008152600401610b9d906117bf565b60405180910390fd5b610bb38484848403610965565b5b50505050565b600073ffffffffffffffffffffffffffffffffffffffff168373ffffffffffffffffffffffffffffffffffffffff1603610c29576040517f08c379a0000000000000000000000000000000000000000000000000000000008152600401610c2090611851565b60405180910390fd5b600073ffffffffffffffffffffffffffffffffffffffff168273ffffffffffffffffffffffffffffffffffffffff1603610c98576040517f08c379a0000000000000000000000000000000000000000000000000000000008152600401610c8f906118e3565b60405180910390fd5b610ca3838383610f86565b60008060008573ffffffffffffffffffffffffffffffffffffffff1673ffffffffffffffffffffffffffffffffffffffff16815260200190815260200160002054905081811015610d29576040517f08c379a0000000000000000000000000000000000000000000000000000000008152600401610d2090611975565b60405180910390fd5b8181036000808673ffffffffffffffffffffffffffffffffffffffff1673ffffffffffffffffffffffffffffffffffffffff16815260200190815260200160002081905550816000808573ffffffffffffffffffffffffffffffffffffffff1673ffffffffffffffffffffffffffffffffffffffff168152602001908152602001600020600082825401925050819055508273ffffffffffffffffffffffffffffffffffffffff168473ffffffffffffffffffffffffffffffffffffffff167fddf252ad1be2c89b69c2b068fc378daa952ba7f163c4a11628f55a4df523b3ef84604051610e179190611160565b60405180910390a3610e2a848484610f8b565b50505050565b600073ffffffffffffffffffffffffffffffffffffffff168273ffffffffffffffffffffffffffffffffffffffff1603610e9f576040517f08c379a0000000000000000000000000000000000000000000000000000000008152600401610e96906119e1565b60405180910390fd5b610eab60008383610f86565b8060026000828254610ebd91906113e5565b92505081905550806000808473ffffffffffffffffffffffffffffffffffffffff1673ffffffffffffffffffffffffffffffffffffffff168152602001908152602001600020600082825401925050819055508173ffffffffffffffffffffffffffffffffffffffff16600073ffffffffffffffffffffffffffffffffffffffff167fddf252ad1be2c89b69c2b068fc378daa952ba7f163c4a11628f55a4df523b3ef83604051610f6e9190611160565b60405180910390a3610f8260008383610f8b565b5050565b505050565b505050565b600081519050919050565b600082825260208201905092915050565b60005b83811015610fca578082015181840152602081019050610faf565b60008484015250505050565b6000601f19601f8301169050919050565b6000610ff282610f90565b610ffc8185610f9b565b935061100c818560208601610fac565b61101581610fd6565b840191505092915050565b6000602082019050818103600083015261103a8184610fe7565b905092915050565b600080fd5b600073ffffffffffffffffffffffffffffffffffffffff82169050919050565b600061107282611047565b9050919050565b61108281611067565b811461108d57600080fd5b50565b60008135905061109f81611079565b92915050565b6000819050919050565b6110b8816110a5565b81146110c357600080fd5b50565b6000813590506110d5816110af565b92915050565b600080604083850312156110f2576110f1611042565b5b600061110085828601611090565b9250506020611111858286016110c6565b9150509250929050565b60008115159050919050565b6111308161111b565b82525050565b600060208201905061114b6000830184611127565b92915050565b61115a816110a5565b82525050565b60006020820190506111756000830184611151565b92915050565b60008060006060848603121561119457611193611042565b5b60006111a286828701611090565b93505060206111b386828701611090565b92505060406111c4868287016110c6565b9150509250925092565b600060ff82169050919050565b6111e4816111ce565b82525050565b60006020820190506111ff60008301846111db565b92915050565b60006020828403121561121b5761121a611042565b5b600061122984828501611090565b91505092915050565b61123b81611067565b82525050565b60006020820190506112566000830184611232565b92915050565b6000806040838503121561127357611272611042565b5b600061128185828601611090565b925050602061129285828601611090565b9150509250929050565b7f556e617574686f72697a656420456e7469747900000000000000000000000000600082015250565b60006112d2601383610f9b565b91506112dd8261129c565b602082019050919050565b60006020820190508181036000830152611301816112c5565b9050919050565b7f494e53554646494349454e542046554e44530000000000000000000000000000600082015250565b600061133e601283610f9b565b915061134982611308565b602082019050919050565b6000602082019050818103600083015261136d81611331565b9050919050565b7f4e487b7100000000000000000000000000000000000000000000000000000000600052601160045260246000fd5b60006113ae826110a5565b91506113b9836110a5565b92508282026113c7816110a5565b915082820484148315176113de576113dd611374565b5b5092915050565b60006113f0826110a5565b91506113fb836110a5565b925082820190508082111561141357611412611374565b5b92915050565b7f4d415820535550504c5920455843454544454400000000000000000000000000600082015250565b600061144f601383610f9b565b915061145a82611419565b602082019050919050565b6000602082019050818103600083015261147e81611442565b9050919050565b7f455448204d555354204245204d4f5245205448414e2030000000000000000000600082015250565b60006114bb601783610f9b565b91506114c682611485565b602082019050919050565b600060208201905081810360008301526114ea816114ae565b9050919050565b7f4e4f5420454e4f55474820455448000000000000000000000000000000000000600082015250565b6000611527600e83610f9b565b9150611532826114f1565b602082019050919050565b600060208201905081810360008301526115568161151a565b9050919050565b7f4e487b7100000000000000000000000000000000000000000000000000000000600052601260045260246000fd5b6000611597826110a5565b91506115a2836110a5565b9250826115b2576115b161155d565b5b828204905092915050565b7f45524332303a2064656372656173656420616c6c6f77616e63652062656c6f7760008201527f207a65726f000000000000000000000000000000000000000000000000000000602082015250565b6000611619602583610f9b565b9150611624826115bd565b604082019050919050565b600060208201905081810360008301526116488161160c565b9050919050565b7f45524332303a20617070726f76652066726f6d20746865207a65726f2061646460008201527f7265737300000000000000000000000000000000000000000000000000000000602082015250565b60006116ab602483610f9b565b91506116b68261164f565b604082019050919050565b600060208201905081810360008301526116da8161169e565b9050919050565b7f45524332303a20617070726f766520746f20746865207a65726f20616464726560008201527f7373000000000000000000000000000000000000000000000000000000000000602082015250565b600061173d602283610f9b565b9150611748826116e1565b604082019050919050565b6000602082019050818103600083015261176c81611730565b9050919050565b7f45524332303a20696e73756666696369656e7420616c6c6f77616e6365000000600082015250565b60006117a9601d83610f9b565b91506117b482611773565b602082019050919050565b600060208201905081810360008301526117d88161179c565b9050919050565b7f45524332303a207472616e736665722066726f6d20746865207a65726f20616460008201527f6472657373000000000000000000000000000000000000000000000000000000602082015250565b600061183b602583610f9b565b9150611846826117df565b604082019050919050565b6000602082019050818103600083015261186a8161182e565b9050919050565b7f45524332303a207472616e7366657220746f20746865207a65726f206164647260008201527f6573730000000000000000000000000000000000000000000000000000000000602082015250565b60006118cd602383610f9b565b91506118d882611871565b604082019050919050565b600060208201905081810360008301526118fc816118c0565b9050919050565b7f45524332303a207472616e7366657220616d6f756e742065786365656473206260008201527f616c616e63650000000000000000000000000000000000000000000000000000602082015250565b600061195f602683610f9b565b915061196a82611903565b604082019050919050565b6000602082019050818103600083015261198e81611952565b9050919050565b7f45524332303a206d696e7420746f20746865207a65726f206164647265737300600082015250565b60006119cb601f83610f9b565b91506119d682611995565b602082019050919050565b600060208201905081810360008301526119fa816119be565b905091905056fea264697066735822122054b4595943b990ab71d9a49345dabac6c08ed84764271b6865a5c95e8f73a50c64736f6c63430008140033",
  "devdoc": {
    "events": {
      "Approval(address,address,uint256)": {
        "details": "Emitted when the allowance of a `spender` for an `owner` is set by a call to {approve}. `value` is the new allowance."
      },
      "Transfer(address,address,uint256)": {
        "details": "Emitted when `value` tokens are moved from one account (`from`) to another (`to`). Note that `value` may be zero."
      }
    },
    "kind": "dev",
    "methods": {
      "allowance(address,address)": {
        "details": "See {IERC20-allowance}."
      },
      "approve(address,uint256)": {
        "details": "See {IERC20-approve}. NOTE: If `amount` is the maximum `uint256`, the allowance is not updated on `transferFrom`. This is semantically equivalent to an infinite approval. Requirements: - `spender` cannot be the zero address."
      },
      "balanceOf(address)": {
        "details": "See {IERC20-balanceOf}."
      },
      "decimals()": {
        "details": "Returns the number of decimals used to get its user representation. For example, if `decimals` equals `2`, a balance of `505` tokens should be displayed to a user as `5.05` (`505 / 10 ** 2`). Tokens usually opt for a value of 18, imitating the relationship between Ether and Wei. This is the default value returned by this function, unless it's overridden. NOTE: This information is only used for _display_ purposes: it in no way affects any of the arithmetic of the contract, including {IERC20-balanceOf} and {IERC20-transfer}."
      },
      "decreaseAllowance(address,uint256)": {
        "details": "Atomically decreases the allowance granted to `spender` by the caller. This is an alternative to {approve} that can be used as a mitigation for problems described in {IERC20-approve}. Emits an {Approval} event indicating the updated allowance. Requirements: - `spender` cannot be the zero address. - `spender` must have allowance for the caller of at least `subtractedValue`."
      },
      "increaseAllowance(address,uint256)": {
        "details": "Atomically increases the allowance granted to `spender` by the caller. This is an alternative to {approve} that can be used as a mitigation for problems described in {IERC20-approve}. Emits an {Approval} event indicating the updated allowance. Requirements: - `spender` cannot be the zero address."
      },
      "name()": {
        "details": "Returns the name of the token."
      },
      "symbol()": {
        "details": "Returns the symbol of the token, usually a shorter version of the name."
      },
      "totalSupply()": {
        "details": "See {IERC20-totalSupply}."
      },
      "transfer(address,uint256)": {
        "details": "See {IERC20-transfer}. Requirements: - `to` cannot be the zero address. - the caller must have a balance of at least `amount`."
      },
      "transferFrom(address,address,uint256)": {
        "details": "See {IERC20-transferFrom}. Emits an {Approval} event indicating the updated allowance. This is not required by the EIP. See the note at the beginning of {ERC20}. NOTE: Does not update the allowance if the current allowance is the maximum `uint256`. Requirements: - `from` and `to` cannot be the zero address. - `from` must have a balance of at least `amount`. - the caller must have allowance for ``from``'s tokens of at least `amount`."
      }
    },
    "version": 1
  },
  "userdoc": {
    "kind": "user",
    "methods": {},
    "version": 1
  },
  "storageLayout": {
    "storage": [
      {
        "astId": 133,
        "contract": "contracts/governance_token.sol:BUNN_UTILITY_TOKEN",
        "label": "_balances",
        "offset": 0,
        "slot": "0",
        "type": "t_mapping(t_address,t_uint256)"
      },
      {
        "astId": 139,
        "contract": "contracts/governance_token.sol:BUNN_UTILITY_TOKEN",
        "label": "_allowances",
        "offset": 0,
        "slot": "1",
        "type": "t_mapping(t_address,t_mapping(t_address,t_uint256))"
      },
      {
        "astId": 141,
        "contract": "contracts/governance_token.sol:BUNN_UTILITY_TOKEN",
        "label": "_totalSupply",
        "offset": 0,
        "slot": "2",
        "type": "t_uint256"
      },
      {
        "astId": 143,
        "contract": "contracts/governance_token.sol:BUNN_UTILITY_TOKEN",
        "label": "_name",
        "offset": 0,
        "slot": "3",
        "type": "t_string_storage"
      },
      {
        "astId": 145,
        "contract": "contracts/governance_token.sol:BUNN_UTILITY_TOKEN",
        "label": "_symbol",
        "offset": 0,
        "slot": "4",
        "type": "t_string_storage"
      },
      {
        "astId": 709,
        "contract": "contracts/governance_token.sol:BUNN_UTILITY_TOKEN",
        "label": "MAX_SUPPLY",
        "offset": 0,
        "slot": "5",
        "type": "t_uint256"
      },
      {
        "astId": 711,
        "contract": "contracts/governance_token.sol:BUNN_UTILITY_TOKEN",
        "label": "owner",
        "offset": 0,
        "slot": "6",
        "type": "t_address"
      }
    ],
    "types": {
      "t_address": {
        "encoding": "inplace",
        "label": "address",
        "numberOfBytes": "20"
      },
      "t_mapping(t_address,t_mapping(t_address,t_uint256))": {
        "encoding": "mapping",
        "key": "t_address",
        "label": "mapping(address => mapping(address => uint256))",
        "numberOfBytes": "32",
        "value": "t_mapping(t_address,t_uint256)"
      },
      "t_mapping(t_address,t_uint256)": {
        "encoding": "mapping",
        "key": "t_address",
        "label": "mapping(address => uint256)",
        "numberOfBytes": "32",
        "value": "t_uint256"
      },
      "t_string_storage": {
        "encoding": "bytes",
        "label": "string",
        "numberOfBytes": "32"
      },
      "t_uint256": {
        "encoding": "inplace",
        "label": "uint256",
        "numberOfBytes": "32"
      }
    }
  }
}