{
  "address": "0x04e97683a4b02d5c83d199e4ab120f1619c2954a",
  "abi": [
    {
      "inputs": [],
      "stateMutability": "nonpayable",
      "type": "constructor"
    },
    {
      "inputs": [],
      "name": "alterState",
      "outputs": [
        {
          "internalType": "uint256",
          "name": "",
          "type": "uint256"
        }
      ],
      "stateMutability": "payable",
      "type": "function"
    },
    {
      "inputs": [],
      "name": "balance",
      "outputs": [
        {
          "internalType": "uint256",
          "name": "",
          "type": "uint256"
        }
      ],
      "stateMutability": "view",
      "type": "function"
    },
    {
      "inputs": [],
      "name": "state",
      "outputs": [
        {
          "internalType": "uint256",
          "name": "",
          "type": "uint256"
        }
      ],
      "stateMutability": "view",
      "type": "function"
    },
    {
      "inputs": [],
      "name": "val",
      "outputs": [
        {
          "internalType": "uint256",
          "name": "",
          "type": "uint256"
        }
      ],
      "stateMutability": "view",
      "type": "function"
    }
  ],
  "transactionHash": "0xc5da3e7901d750847581e09463c16df8d80c8ade75af3c63cb502478d4b526cb",
  "args": [],
  "numDeployments": 3,
  "solcInputHash": "89267af6ce86f7bc1c826cf0c5ed418a",
  "bytecode": "0x60806040526000805534801561001457600080fd5b50610268806100246000396000f3fe60806040526004361061003f5760003560e01c80633c6bb43614610044578063b69ef8a81461006f578063c19d93fb1461009a578063e601aee6146100c5575b600080fd5b34801561005057600080fd5b506100596100e3565b6040516100669190610154565b60405180910390f35b34801561007b57600080fd5b506100846100e9565b6040516100919190610154565b60405180910390f35b3480156100a657600080fd5b506100af6100f1565b6040516100bc9190610154565b60405180910390f35b6100cd6100f7565b6040516100da9190610154565b60405180910390f35b60015481565b600047905090565b60005481565b6000346001600082825461010b919061019e565b92505081905550670de0b6b3a76400006001600082825461012c9190610201565b92505081905550600154905090565b6000819050919050565b61014e8161013b565b82525050565b60006020820190506101696000830184610145565b92915050565b7f4e487b7100000000000000000000000000000000000000000000000000000000600052601160045260246000fd5b60006101a98261013b565b91506101b48361013b565b92508282019050808211156101cc576101cb61016f565b5b92915050565b7f4e487b7100000000000000000000000000000000000000000000000000000000600052601260045260246000fd5b600061020c8261013b565b91506102178361013b565b925082610227576102266101d2565b5b82820490509291505056fea26469706673582212204bf83379f84e5ec2471c4d3b0ac2883653fcada962d951bb84a0e01f7ea57a8364736f6c63430008140033",
  "devdoc": {
    "kind": "dev",
    "methods": {},
    "version": 1
  },
  "userdoc": {
    "kind": "user",
    "methods": {},
    "version": 1
  },
  "storageLayout": {
    "storage": [
      {
        "astId": 1924,
        "contract": "contracts/Implementation-test.sol:IMPLEMENTATION_CONTRACT",
        "label": "state",
        "offset": 0,
        "slot": "0",
        "type": "t_uint256"
      },
      {
        "astId": 1926,
        "contract": "contracts/Implementation-test.sol:IMPLEMENTATION_CONTRACT",
        "label": "val",
        "offset": 0,
        "slot": "1",
        "type": "t_uint256"
      }
    ],
    "types": {
      "t_uint256": {
        "encoding": "inplace",
        "label": "uint256",
        "numberOfBytes": "32"
      }
    }
  }
}